{
  "abi": [
    {
      "inputs": [
        {
          "internalType": "contract IAaveStake",
          "name": "_lendingPool",
          "type": "address"
        },
        {
          "internalType": "contract IAaveStake",
          "name": "_rewards",
          "type": "address"
        },
        {
          "internalType": "contract ISettings",
          "name": "_settings",
          "type": "address"
        },
        {
          "components": [
            {
              "internalType": "address",
              "name": "token",
              "type": "address"
            },
            {
              "internalType": "address",
              "name": "amToken",
              "type": "address"
            }
          ],
          "internalType": "struct AAVEStrategy.Tokens[]",
          "name": "_tokens",
          "type": "tuple[]"
        }
      ],
      "stateMutability": "nonpayable",
      "type": "constructor"
    },
    {
      "anonymous": false,
      "inputs": [
        {
          "indexed": true,
          "internalType": "address",
          "name": "previousOwner",
          "type": "address"
        },
        {
          "indexed": true,
          "internalType": "address",
          "name": "newOwner",
          "type": "address"
        }
      ],
      "name": "OwnershipTransferred",
      "type": "event"
    },
    {
      "inputs": [],
      "name": "DEPOSIT_FEE_BASE_POINTS",
      "outputs": [
        {
          "internalType": "uint256",
          "name": "",
          "type": "uint256"
        }
      ],
      "stateMutability": "view",
      "type": "function"
    },
    {
      "inputs": [],
      "name": "DEPOSIT_FEE_POINTS",
      "outputs": [
        {
          "internalType": "uint256",
          "name": "",
          "type": "uint256"
        }
      ],
      "stateMutability": "view",
      "type": "function"
    },
    {
      "inputs": [],
      "name": "FILLER_FEE_BASE_POINTS",
      "outputs": [
        {
          "internalType": "uint256",
          "name": "",
          "type": "uint256"
        }
      ],
      "stateMutability": "view",
      "type": "function"
    },
    {
      "inputs": [],
      "name": "FILLER_FEE_POINTS",
      "outputs": [
        {
          "internalType": "uint256",
          "name": "",
          "type": "uint256"
        }
      ],
      "stateMutability": "view",
      "type": "function"
    },
    {
      "inputs": [],
      "name": "LendingPool",
      "outputs": [
        {
          "internalType": "contract IAaveStake",
          "name": "",
          "type": "address"
        }
      ],
      "stateMutability": "view",
      "type": "function"
    },
    {
      "inputs": [],
      "name": "Rewards",
      "outputs": [
        {
          "internalType": "contract IAaveStake",
          "name": "",
          "type": "address"
        }
      ],
      "stateMutability": "view",
      "type": "function"
    },
    {
      "inputs": [],
      "name": "Settings",
      "outputs": [
        {
          "internalType": "contract ISettings",
          "name": "",
          "type": "address"
        }
      ],
      "stateMutability": "view",
      "type": "function"
    },
    {
      "inputs": [],
      "name": "TX_FEE_BASE_POINTS",
      "outputs": [
        {
          "internalType": "uint256",
          "name": "",
          "type": "uint256"
        }
      ],
      "stateMutability": "view",
      "type": "function"
    },
    {
      "inputs": [],
      "name": "TX_FEE_POINTS",
      "outputs": [
        {
          "internalType": "uint256",
          "name": "",
          "type": "uint256"
        }
      ],
      "stateMutability": "view",
      "type": "function"
    },
    {
      "inputs": [
        {
          "internalType": "uint256",
          "name": "",
          "type": "uint256"
        }
      ],
      "name": "aaveMarketTokens",
      "outputs": [
        {
          "internalType": "address",
          "name": "",
          "type": "address"
        }
      ],
      "stateMutability": "view",
      "type": "function"
    },
    {
      "inputs": [
        {
          "components": [
            {
              "internalType": "address",
              "name": "token",
              "type": "address"
            },
            {
              "internalType": "address",
              "name": "amToken",
              "type": "address"
            }
          ],
          "internalType": "struct AAVEStrategy.Tokens",
          "name": "_token",
          "type": "tuple"
        }
      ],
      "name": "addToken",
      "outputs": [],
      "stateMutability": "nonpayable",
      "type": "function"
    },
    {
      "inputs": [],
      "name": "claimRewards",
      "outputs": [],
      "stateMutability": "nonpayable",
      "type": "function"
    },
    {
      "inputs": [
        {
          "internalType": "address",
          "name": "_from",
          "type": "address"
        },
        {
          "internalType": "address",
          "name": "_token",
          "type": "address"
        },
        {
          "internalType": "uint256",
          "name": "_amount",
          "type": "uint256"
        }
      ],
      "name": "deposit",
      "outputs": [],
      "stateMutability": "nonpayable",
      "type": "function"
    },
    {
      "inputs": [
        {
          "internalType": "uint256",
          "name": "_amountIn",
          "type": "uint256"
        }
      ],
      "name": "depositFee",
      "outputs": [
        {
          "internalType": "uint256",
          "name": "",
          "type": "uint256"
        }
      ],
      "stateMutability": "view",
      "type": "function"
    },
    {
      "inputs": [
        {
          "internalType": "uint256",
          "name": "_amountIn",
          "type": "uint256"
        }
      ],
      "name": "fillerFee",
      "outputs": [
        {
          "internalType": "uint256",
          "name": "",
          "type": "uint256"
        }
      ],
      "stateMutability": "view",
      "type": "function"
    },
    {
      "inputs": [],
      "name": "owner",
      "outputs": [
        {
          "internalType": "address",
          "name": "",
          "type": "address"
        }
      ],
      "stateMutability": "view",
      "type": "function"
    },
    {
      "inputs": [],
      "name": "renounceOwnership",
      "outputs": [],
      "stateMutability": "nonpayable",
      "type": "function"
    },
    {
      "inputs": [
        {
          "internalType": "address",
          "name": "",
          "type": "address"
        }
      ],
      "name": "tokenToAm",
      "outputs": [
        {
          "internalType": "address",
          "name": "",
          "type": "address"
        }
      ],
      "stateMutability": "view",
      "type": "function"
    },
    {
      "inputs": [
        {
          "internalType": "uint256",
          "name": "",
          "type": "uint256"
        }
      ],
      "name": "tokens",
      "outputs": [
        {
          "internalType": "address",
          "name": "",
          "type": "address"
        }
      ],
      "stateMutability": "view",
      "type": "function"
    },
    {
      "inputs": [
        {
          "internalType": "address",
          "name": "",
          "type": "address"
        }
      ],
      "name": "totalDeposits",
      "outputs": [
        {
          "internalType": "uint256",
          "name": "",
          "type": "uint256"
        }
      ],
      "stateMutability": "view",
      "type": "function"
    },
    {
      "inputs": [
        {
          "internalType": "address",
          "name": "newOwner",
          "type": "address"
        }
      ],
      "name": "transferOwnership",
      "outputs": [],
      "stateMutability": "nonpayable",
      "type": "function"
    },
    {
      "inputs": [
        {
          "internalType": "uint256",
          "name": "_amountIn",
          "type": "uint256"
        }
      ],
      "name": "txFee",
      "outputs": [
        {
          "internalType": "uint256",
          "name": "",
          "type": "uint256"
        }
      ],
      "stateMutability": "view",
      "type": "function"
    },
    {
      "inputs": [
        {
          "internalType": "address",
          "name": "",
          "type": "address"
        },
        {
          "internalType": "address",
          "name": "",
          "type": "address"
        }
      ],
      "name": "vaultDeposits",
      "outputs": [
        {
          "internalType": "uint256",
          "name": "",
          "type": "uint256"
        }
      ],
      "stateMutability": "view",
      "type": "function"
    },
    {
      "inputs": [
        {
          "internalType": "address",
          "name": "_from",
          "type": "address"
        },
        {
          "internalType": "address",
          "name": "_token",
          "type": "address"
        },
        {
          "internalType": "uint256",
          "name": "_amount",
          "type": "uint256"
        }
      ],
      "name": "withdraw",
      "outputs": [],
      "stateMutability": "nonpayable",
      "type": "function"
    }
  ],
  "bytecode": "60806040523480156200001157600080fd5b506040516200189e3803806200189e833981016040819052620000349162000217565b6000620000406200012a565b600080546001600160a01b0319166001600160a01b0383169081178255604051929350917f8be0079c531659141344cd1fd0a4f28419497f9722a3daafe3b4186f6b6457e0908290a350600180546001600160a01b038087166001600160a01b03199283161790925560028054868416908316179055600380549285169290911691909117905560005b81518110156200011f5762000116828281518110620000e557fe5b602002602001015160000151838381518110620000fe57fe5b6020026020010151602001516200012e60201b60201c565b600101620000ca565b505050505062000364565b3390565b6001600160a01b0391821660008181526006602052604081208054949093166001600160a01b031994851681179093556004805460018181019092557f8a35acfbc15ff81a39ae7d344fd709f28e8600b4aa8c65c6b64bfe7fe36bd19b018054861690931790925560058054928301815590527f036b6384b5eca791c62761152d0c79bb0604c104a5fb6f4eb0703f3154bb3db0018054909216179055565b600060408284031215620001df578081fd5b620001eb604062000304565b90508151620001fa816200034b565b815260208201516200020c816200034b565b602082015292915050565b600080600080608085870312156200022d578384fd5b84516200023a816200034b565b809450506020808601516200024f816200034b565b8094505060408087015162000264816200034b565b60608801519094506001600160401b0381111562000280578384fd5b8701601f8101891362000291578384fd5b8051620002a8620002a2826200032b565b62000304565b81815284810190838601858402850187018d1015620002c5578788fd5b8794505b83851015620002f357620002de8d82620001cd565b835260019490940193918601918501620002c9565b50989b979a50959850505050505050565b6040518181016001600160401b03811182821017156200032357600080fd5b604052919050565b60006001600160401b0382111562000341578081fd5b5060209081020190565b6001600160a01b03811681146200036157600080fd5b50565b61152a80620003746000396000f3fe608060405234801561001057600080fd5b50600436106101585760003560e01c80638da5cb5b116100c3578063d7eedd5e1161007c578063d7eedd5e1461023f578063d9caed1214610275578063d9f2613e1461023f578063e940325614610288578063f2fde38b1461029b578063f575993b146102ae57610158565b80638da5cb5b1461022f5780639814278e14610237578063a653a76c1461023f578063b363b1c814610247578063c28089541461025a578063d342c4021461026257610158565b80635a23ecb2116101155780635a23ecb2146101d35780635f6501ab146101db5780636d880f52146101ee578063715018a6146102015780638340f549146102095780638d4e4fa81461021c57610158565b806328b9a81b1461015d578063372500ab1461017b578063423c485a146101855780634c46eaaa146101a55780634f64b2be146101ad5780635017f9fb146101c0575b600080fd5b6101656102b6565b60405161017291906111b2565b60405180910390f35b6101836102c5565b005b61019861019336600461113c565b6106da565b60405161017291906114d6565b6101986106f9565b6101656101bb36600461113c565b6106fe565b6101986101ce36600461113c565b610725565b610198610738565b6101986101e936600461104a565b61073d565b6101836101fc3660046110e2565b61075a565b6101836107a4565b610183610217366004611082565b610823565b61019861022a36600461113c565b610ae5565b610165610af8565b610198610b07565b610198610b0c565b61016561025536600461113c565b610b12565b610165610b1f565b610165610270366004611012565b610b2e565b610183610283366004611082565b610b49565b610198610296366004611012565b610d4b565b6101836102a9366004611012565b610d5d565b610165610e13565b6003546001600160a01b031681565b6102cd610e22565b6000546001600160a01b039081169116146103035760405162461bcd60e51b81526004016102fa9061145e565b60405180910390fd5b6002546040516345accf9360e11b81526000916001600160a01b031690638b599f2690610337906005903090600401611253565b60206040518083038186803b15801561034f57600080fd5b505afa158015610363573d6000803e3d6000fd5b505050506040513d601f19601f820116820180604052508101906103879190611154565b11156104905760025460035460408051630824ea6b60e31b815290516001600160a01b0393841693633111e7b3936005936000199391909216916341275358916004808301926020929190829003018186803b1580156103e657600080fd5b505afa1580156103fa573d6000803e3d6000fd5b505050506040513d601f19601f8201168201806040525081019061041e919061102e565b6040518463ffffffff1660e01b815260040161043c9392919061127d565b602060405180830381600087803b15801561045657600080fd5b505af115801561046a573d6000803e3d6000fd5b505050506040513d601f19601f8201168201806040525081019061048e9190611154565b505b6000805b6004548110156106d6576105a560076000600484815481106104b257fe5b9060005260206000200160009054906101000a90046001600160a01b03166001600160a01b03166001600160a01b0316815260200190815260200160002054600660006004858154811061050257fe5b60009182526020808320909101546001600160a01b03908116845290830193909352604091820190205490516370a0823160e01b81529116906370a082319061054f9030906004016111b2565b60206040518083038186803b15801561056757600080fd5b505afa15801561057b573d6000803e3d6000fd5b505050506040513d601f19601f8201168201806040525081019061059f9190611154565b90610e26565b915081156106ce57600154600480546001600160a01b03909216916369328dec9190849081106105d157fe5b6000918252602091829020015460035460408051630824ea6b60e31b815290516001600160a01b039384169489949093169263412753589260048082019391829003018186803b15801561062457600080fd5b505afa158015610638573d6000803e3d6000fd5b505050506040513d601f19601f8201168201806040525081019061065c919061102e565b6040518463ffffffff1660e01b815260040161067a93929190611203565b602060405180830381600087803b15801561069457600080fd5b505af11580156106a8573d6000803e3d6000fd5b505050506040513d601f19601f820116820180604052508101906106cc9190611154565b505b600101610494565b5050565b60006106f36103e86106ed846005610e6f565b90610ea9565b92915050565b600581565b6004818154811061070b57fe5b6000918252602090912001546001600160a01b0316905081565b60006106f36103e86106ed846002610e6f565b600381565b600860209081526000928352604080842090915290825290205481565b610762610e22565b6000546001600160a01b0390811691161461078f5760405162461bcd60e51b81526004016102fa9061145e565b6107a181600001518260200151610eeb565b50565b6107ac610e22565b6000546001600160a01b039081169116146107d95760405162461bcd60e51b81526004016102fa9061145e565b600080546040516001600160a01b03909116907f8be0079c531659141344cd1fd0a4f28419497f9722a3daafe3b4186f6b6457e0908390a3600080546001600160a01b0319169055565b60035460405163f815c03d60e01b81526001600160a01b039091169063f815c03d906108539033906004016111b2565b60206040518083038186803b15801561086b57600080fd5b505afa15801561087f573d6000803e3d6000fd5b505050506040513d601f19601f820116820180604052508101906108a391906110c2565b6108bf5760405162461bcd60e51b81526004016102fa906113d4565b6001600160a01b03828116600090815260066020526040902054166108e357600080fd5b8015610ae0576040516323b872dd60e01b81526001600160a01b038316906323b872dd90610919908690309086906004016111c6565b602060405180830381600087803b15801561093357600080fd5b505af1158015610947573d6000803e3d6000fd5b505050506040513d601f19601f8201168201806040525081019061096b91906110c2565b5060015460405163095ea7b360e01b81526001600160a01b038481169263095ea7b3926109a0929091169085906004016111ea565b602060405180830381600087803b1580156109ba57600080fd5b505af11580156109ce573d6000803e3d6000fd5b505050506040513d601f19601f820116820180604052508101906109f291906110c2565b5060015460405163e8eda9df60e01b81526001600160a01b039091169063e8eda9df90610a2a90859085903090600090600401611226565b600060405180830381600087803b158015610a4457600080fd5b505af1158015610a58573d6000803e3d6000fd5b5050506001600160a01b038316600090815260076020526040902054610a7f915082610f8a565b6001600160a01b03831660008181526007602090815260408083209490945533825260088152838220928252919091522054610abb9082610f8a565b3360009081526008602090815260408083206001600160a01b03871684529091529020555b505050565b60006106f36103e86106ed846003610e6f565b6000546001600160a01b031690565b600281565b6103e881565b6005818154811061070b57fe5b6002546001600160a01b031681565b6006602052600090815260409020546001600160a01b031681565b60035460405163f815c03d60e01b81526001600160a01b039091169063f815c03d90610b799033906004016111b2565b60206040518083038186803b158015610b9157600080fd5b505afa158015610ba5573d6000803e3d6000fd5b505050506040513d601f19601f82011682018060405250810190610bc991906110c2565b610be55760405162461bcd60e51b81526004016102fa906113d4565b6001600160a01b0382811660009081526006602052604090205416610c1c5760405162461bcd60e51b81526004016102fa90611493565b3360009081526008602090815260408083206001600160a01b0386168452909152902054811115610c5f5760405162461bcd60e51b81526004016102fa90611303565b8015610ae057600154604051631a4ca37b60e21b81526001600160a01b03909116906369328dec90610c9990859085908890600401611203565b602060405180830381600087803b158015610cb357600080fd5b505af1158015610cc7573d6000803e3d6000fd5b505050506040513d601f19601f82011682018060405250810190610ceb9190611154565b506001600160a01b038216600090815260076020526040902054610d0f9082610e26565b6001600160a01b03831660008181526007602090815260408083209490945533825260088152838220928252919091522054610abb9082610e26565b60076020526000908152604090205481565b610d65610e22565b6000546001600160a01b03908116911614610d925760405162461bcd60e51b81526004016102fa9061145e565b6001600160a01b038116610db85760405162461bcd60e51b81526004016102fa90611357565b600080546040516001600160a01b03808516939216917f8be0079c531659141344cd1fd0a4f28419497f9722a3daafe3b4186f6b6457e091a3600080546001600160a01b0319166001600160a01b0392909216919091179055565b6001546001600160a01b031681565b3390565b6000610e6883836040518060400160405280601e81526020017f536166654d6174683a207375627472616374696f6e206f766572666c6f770000815250610faf565b9392505050565b600082610e7e575060006106f3565b82820282848281610e8b57fe5b0414610e685760405162461bcd60e51b81526004016102fa9061141d565b6000610e6883836040518060400160405280601a81526020017f536166654d6174683a206469766973696f6e206279207a65726f000000000000815250610fdb565b6001600160a01b0391821660008181526006602052604081208054949093166001600160a01b031994851681179093556004805460018181019092557f8a35acfbc15ff81a39ae7d344fd709f28e8600b4aa8c65c6b64bfe7fe36bd19b018054861690931790925560058054928301815590527f036b6384b5eca791c62761152d0c79bb0604c104a5fb6f4eb0703f3154bb3db0018054909216179055565b600082820183811015610e685760405162461bcd60e51b81526004016102fa9061139d565b60008184841115610fd35760405162461bcd60e51b81526004016102fa91906112b0565b505050900390565b60008183610ffc5760405162461bcd60e51b81526004016102fa91906112b0565b50600083858161100857fe5b0495945050505050565b600060208284031215611023578081fd5b8135610e68816114df565b60006020828403121561103f578081fd5b8151610e68816114df565b6000806040838503121561105c578081fd5b8235611067816114df565b91506020830135611077816114df565b809150509250929050565b600080600060608486031215611096578081fd5b83356110a1816114df565b925060208401356110b1816114df565b929592945050506040919091013590565b6000602082840312156110d3578081fd5b81518015158114610e68578182fd5b6000604082840312156110f3578081fd5b6040516040810181811067ffffffffffffffff82111715611112578283fd5b6040528235611120816114df565b81526020830135611130816114df565b60208201529392505050565b60006020828403121561114d578081fd5b5035919050565b600060208284031215611165578081fd5b5051919050565b6000815480845260208085019450838352808320835b838110156111a75781546001600160a01b031687529582019560019182019101611182565b509495945050505050565b6001600160a01b0391909116815260200190565b6001600160a01b039384168152919092166020820152604081019190915260600190565b6001600160a01b03929092168252602082015260400190565b6001600160a01b0393841681526020810192909252909116604082015260600190565b6001600160a01b03948516815260208101939093529216604082015261ffff909116606082015260800190565b600060408252611266604083018561116c565b905060018060a01b03831660208301529392505050565b600060608252611290606083018661116c565b6020830194909452506001600160a01b0391909116604090910152919050565b6000602080835283518082850152825b818110156112dc578581018301518582016040015282016112c0565b818111156112ed5783604083870101525b50601f01601f1916929092016040019392505050565b60208082526034908201527f436f726e466920414156452053747261746567793a205661756c742057697468604082015273191c985dc8105b5bdd5b9d08115e18d95959195960621b606082015260800190565b60208082526026908201527f4f776e61626c653a206e6577206f776e657220697320746865207a65726f206160408201526564647265737360d01b606082015260800190565b6020808252601b908201527f536166654d6174683a206164646974696f6e206f766572666c6f770000000000604082015260600190565b60208082526029908201527f436f726e466920414156452053747261746567793a205661756c74204f6e6c7960408201526810233ab731ba34b7b760b91b606082015260800190565b60208082526021908201527f536166654d6174683a206d756c7469706c69636174696f6e206f766572666c6f6040820152607760f81b606082015260800190565b6020808252818101527f4f776e61626c653a2063616c6c6572206973206e6f7420746865206f776e6572604082015260600190565b60208082526023908201527f436f726e466920414156452053747261746567793a20496e76616c696420546f60408201526235b2b760e91b606082015260800190565b90815260200190565b6001600160a01b03811681146107a157600080fdfea2646970667358221220facde7d8a65e41c70959976c5500f2d755124273dcf0532bb3a53132c610543864736f6c634300060c0033",
  "bytecodeSha1": "bf811d40363445c69afd24a65e87f153c648fc5d",
  "compiler": {
    "evm_version": "istanbul",
    "optimizer": {
      "enabled": true,
      "runs": 200
    },
    "version": "0.6.12+commit.27d51765"
  },
  "contractName": "AAVEStrategy",
  "language": "Solidity",
  "natspec": {
    "kind": "dev",
    "methods": {
      "owner()": {
        "details": "Returns the address of the current owner."
      },
      "renounceOwnership()": {
        "details": "Leaves the contract without owner. It will not be possible to call `onlyOwner` functions anymore. Can only be called by the current owner. NOTE: Renouncing ownership will leave the contract without an owner, thereby removing any functionality that is only available to the owner."
      },
      "transferOwnership(address)": {
        "details": "Transfers ownership of the contract to a new account (`newOwner`). Can only be called by the current owner."
      }
    },
    "version": 1
  },
  "opcodes": "PUSH1 0x80 PUSH1 0x40 MSTORE CALLVALUE DUP1 ISZERO PUSH2 0x10 JUMPI PUSH1 0x0 DUP1 REVERT JUMPDEST POP PUSH1 0x4 CALLDATASIZE LT PUSH2 0x158 JUMPI PUSH1 0x0 CALLDATALOAD PUSH1 0xE0 SHR DUP1 PUSH4 0x8DA5CB5B GT PUSH2 0xC3 JUMPI DUP1 PUSH4 0xD7EEDD5E GT PUSH2 0x7C JUMPI DUP1 PUSH4 0xD7EEDD5E EQ PUSH2 0x23F JUMPI DUP1 PUSH4 0xD9CAED12 EQ PUSH2 0x275 JUMPI DUP1 PUSH4 0xD9F2613E EQ PUSH2 0x23F JUMPI DUP1 PUSH4 0xE9403256 EQ PUSH2 0x288 JUMPI DUP1 PUSH4 0xF2FDE38B EQ PUSH2 0x29B JUMPI DUP1 PUSH4 0xF575993B EQ PUSH2 0x2AE JUMPI PUSH2 0x158 JUMP JUMPDEST DUP1 PUSH4 0x8DA5CB5B EQ PUSH2 0x22F JUMPI DUP1 PUSH4 0x9814278E EQ PUSH2 0x237 JUMPI DUP1 PUSH4 0xA653A76C EQ PUSH2 0x23F JUMPI DUP1 PUSH4 0xB363B1C8 EQ PUSH2 0x247 JUMPI DUP1 PUSH4 0xC2808954 EQ PUSH2 0x25A JUMPI DUP1 PUSH4 0xD342C402 EQ PUSH2 0x262 JUMPI PUSH2 0x158 JUMP JUMPDEST DUP1 PUSH4 0x5A23ECB2 GT PUSH2 0x115 JUMPI DUP1 PUSH4 0x5A23ECB2 EQ PUSH2 0x1D3 JUMPI DUP1 PUSH4 0x5F6501AB EQ PUSH2 0x1DB JUMPI DUP1 PUSH4 0x6D880F52 EQ PUSH2 0x1EE JUMPI DUP1 PUSH4 0x715018A6 EQ PUSH2 0x201 JUMPI DUP1 PUSH4 0x8340F549 EQ PUSH2 0x209 JUMPI DUP1 PUSH4 0x8D4E4FA8 EQ PUSH2 0x21C JUMPI PUSH2 0x158 JUMP JUMPDEST DUP1 PUSH4 0x28B9A81B EQ PUSH2 0x15D JUMPI DUP1 PUSH4 0x372500AB EQ PUSH2 0x17B JUMPI DUP1 PUSH4 0x423C485A EQ PUSH2 0x185 JUMPI DUP1 PUSH4 0x4C46EAAA EQ PUSH2 0x1A5 JUMPI DUP1 PUSH4 0x4F64B2BE EQ PUSH2 0x1AD JUMPI DUP1 PUSH4 0x5017F9FB EQ PUSH2 0x1C0 JUMPI JUMPDEST PUSH1 0x0 DUP1 REVERT JUMPDEST PUSH2 0x165 PUSH2 0x2B6 JUMP JUMPDEST PUSH1 0x40 MLOAD PUSH2 0x172 SWAP2 SWAP1 PUSH2 0x11B2 JUMP JUMPDEST PUSH1 0x40 MLOAD DUP1 SWAP2 SUB SWAP1 RETURN JUMPDEST PUSH2 0x183 PUSH2 0x2C5 JUMP JUMPDEST STOP JUMPDEST PUSH2 0x198 PUSH2 0x193 CALLDATASIZE PUSH1 0x4 PUSH2 0x113C JUMP JUMPDEST PUSH2 0x6DA JUMP JUMPDEST PUSH1 0x40 MLOAD PUSH2 0x172 SWAP2 SWAP1 PUSH2 0x14D6 JUMP JUMPDEST PUSH2 0x198 PUSH2 0x6F9 JUMP JUMPDEST PUSH2 0x165 PUSH2 0x1BB CALLDATASIZE PUSH1 0x4 PUSH2 0x113C JUMP JUMPDEST PUSH2 0x6FE JUMP JUMPDEST PUSH2 0x198 PUSH2 0x1CE CALLDATASIZE PUSH1 0x4 PUSH2 0x113C JUMP JUMPDEST PUSH2 0x725 JUMP JUMPDEST PUSH2 0x198 PUSH2 0x738 JUMP JUMPDEST PUSH2 0x198 PUSH2 0x1E9 CALLDATASIZE PUSH1 0x4 PUSH2 0x104A JUMP JUMPDEST PUSH2 0x73D JUMP JUMPDEST PUSH2 0x183 PUSH2 0x1FC CALLDATASIZE PUSH1 0x4 PUSH2 0x10E2 JUMP JUMPDEST PUSH2 0x75A JUMP JUMPDEST PUSH2 0x183 PUSH2 0x7A4 JUMP JUMPDEST PUSH2 0x183 PUSH2 0x217 CALLDATASIZE PUSH1 0x4 PUSH2 0x1082 JUMP JUMPDEST PUSH2 0x823 JUMP JUMPDEST PUSH2 0x198 PUSH2 0x22A CALLDATASIZE PUSH1 0x4 PUSH2 0x113C JUMP JUMPDEST PUSH2 0xAE5 JUMP JUMPDEST PUSH2 0x165 PUSH2 0xAF8 JUMP JUMPDEST PUSH2 0x198 PUSH2 0xB07 JUMP JUMPDEST PUSH2 0x198 PUSH2 0xB0C JUMP JUMPDEST PUSH2 0x165 PUSH2 0x255 CALLDATASIZE PUSH1 0x4 PUSH2 0x113C JUMP JUMPDEST PUSH2 0xB12 JUMP JUMPDEST PUSH2 0x165 PUSH2 0xB1F JUMP JUMPDEST PUSH2 0x165 PUSH2 0x270 CALLDATASIZE PUSH1 0x4 PUSH2 0x1012 JUMP JUMPDEST PUSH2 0xB2E JUMP JUMPDEST PUSH2 0x183 PUSH2 0x283 CALLDATASIZE PUSH1 0x4 PUSH2 0x1082 JUMP JUMPDEST PUSH2 0xB49 JUMP JUMPDEST PUSH2 0x198 PUSH2 0x296 CALLDATASIZE PUSH1 0x4 PUSH2 0x1012 JUMP JUMPDEST PUSH2 0xD4B JUMP JUMPDEST PUSH2 0x183 PUSH2 0x2A9 CALLDATASIZE PUSH1 0x4 PUSH2 0x1012 JUMP JUMPDEST PUSH2 0xD5D JUMP JUMPDEST PUSH2 0x165 PUSH2 0xE13 JUMP JUMPDEST PUSH1 0x3 SLOAD PUSH1 0x1 PUSH1 0x1 PUSH1 0xA0 SHL SUB AND DUP2 JUMP JUMPDEST PUSH2 0x2CD PUSH2 0xE22 JUMP JUMPDEST PUSH1 0x0 SLOAD PUSH1 0x1 PUSH1 0x1 PUSH1 0xA0 SHL SUB SWAP1 DUP2 AND SWAP2 AND EQ PUSH2 0x303 JUMPI PUSH1 0x40 MLOAD PUSH3 0x461BCD PUSH1 0xE5 SHL DUP2 MSTORE PUSH1 0x4 ADD PUSH2 0x2FA SWAP1 PUSH2 0x145E JUMP JUMPDEST PUSH1 0x40 MLOAD DUP1 SWAP2 SUB SWAP1 REVERT JUMPDEST PUSH1 0x2 SLOAD PUSH1 0x40 MLOAD PUSH4 0x45ACCF93 PUSH1 0xE1 SHL DUP2 MSTORE PUSH1 0x0 SWAP2 PUSH1 0x1 PUSH1 0x1 PUSH1 0xA0 SHL SUB AND SWAP1 PUSH4 0x8B599F26 SWAP1 PUSH2 0x337 SWAP1 PUSH1 0x5 SWAP1 ADDRESS SWAP1 PUSH1 0x4 ADD PUSH2 0x1253 JUMP JUMPDEST PUSH1 0x20 PUSH1 0x40 MLOAD DUP1 DUP4 SUB DUP2 DUP7 DUP1 EXTCODESIZE ISZERO DUP1 ISZERO PUSH2 0x34F JUMPI PUSH1 0x0 DUP1 REVERT JUMPDEST POP GAS STATICCALL ISZERO DUP1 ISZERO PUSH2 0x363 JUMPI RETURNDATASIZE PUSH1 0x0 DUP1 RETURNDATACOPY RETURNDATASIZE PUSH1 0x0 REVERT JUMPDEST POP POP POP POP PUSH1 0x40 MLOAD RETURNDATASIZE PUSH1 0x1F NOT PUSH1 0x1F DUP3 ADD AND DUP3 ADD DUP1 PUSH1 0x40 MSTORE POP DUP2 ADD SWAP1 PUSH2 0x387 SWAP2 SWAP1 PUSH2 0x1154 JUMP JUMPDEST GT ISZERO PUSH2 0x490 JUMPI PUSH1 0x2 SLOAD PUSH1 0x3 SLOAD PUSH1 0x40 DUP1 MLOAD PUSH4 0x824EA6B PUSH1 0xE3 SHL DUP2 MSTORE SWAP1 MLOAD PUSH1 0x1 PUSH1 0x1 PUSH1 0xA0 SHL SUB SWAP4 DUP5 AND SWAP4 PUSH4 0x3111E7B3 SWAP4 PUSH1 0x5 SWAP4 PUSH1 0x0 NOT SWAP4 SWAP2 SWAP1 SWAP3 AND SWAP2 PUSH4 0x41275358 SWAP2 PUSH1 0x4 DUP1 DUP4 ADD SWAP3 PUSH1 0x20 SWAP3 SWAP2 SWAP1 DUP3 SWAP1 SUB ADD DUP2 DUP7 DUP1 EXTCODESIZE ISZERO DUP1 ISZERO PUSH2 0x3E6 JUMPI PUSH1 0x0 DUP1 REVERT JUMPDEST POP GAS STATICCALL ISZERO DUP1 ISZERO PUSH2 0x3FA JUMPI RETURNDATASIZE PUSH1 0x0 DUP1 RETURNDATACOPY RETURNDATASIZE PUSH1 0x0 REVERT JUMPDEST POP POP POP POP PUSH1 0x40 MLOAD RETURNDATASIZE PUSH1 0x1F NOT PUSH1 0x1F DUP3 ADD AND DUP3 ADD DUP1 PUSH1 0x40 MSTORE POP DUP2 ADD SWAP1 PUSH2 0x41E SWAP2 SWAP1 PUSH2 0x102E JUMP JUMPDEST PUSH1 0x40 MLOAD DUP5 PUSH4 0xFFFFFFFF AND PUSH1 0xE0 SHL DUP2 MSTORE PUSH1 0x4 ADD PUSH2 0x43C SWAP4 SWAP3 SWAP2 SWAP1 PUSH2 0x127D JUMP JUMPDEST PUSH1 0x20 PUSH1 0x40 MLOAD DUP1 DUP4 SUB DUP2 PUSH1 0x0 DUP8 DUP1 EXTCODESIZE ISZERO DUP1 ISZERO PUSH2 0x456 JUMPI PUSH1 0x0 DUP1 REVERT JUMPDEST POP GAS CALL ISZERO DUP1 ISZERO PUSH2 0x46A JUMPI RETURNDATASIZE PUSH1 0x0 DUP1 RETURNDATACOPY RETURNDATASIZE PUSH1 0x0 REVERT JUMPDEST POP POP POP POP PUSH1 0x40 MLOAD RETURNDATASIZE PUSH1 0x1F NOT PUSH1 0x1F DUP3 ADD AND DUP3 ADD DUP1 PUSH1 0x40 MSTORE POP DUP2 ADD SWAP1 PUSH2 0x48E SWAP2 SWAP1 PUSH2 0x1154 JUMP JUMPDEST POP JUMPDEST PUSH1 0x0 DUP1 JUMPDEST PUSH1 0x4 SLOAD DUP2 LT ISZERO PUSH2 0x6D6 JUMPI PUSH2 0x5A5 PUSH1 0x7 PUSH1 0x0 PUSH1 0x4 DUP5 DUP2 SLOAD DUP2 LT PUSH2 0x4B2 JUMPI INVALID JUMPDEST SWAP1 PUSH1 0x0 MSTORE PUSH1 0x20 PUSH1 0x0 KECCAK256 ADD PUSH1 0x0 SWAP1 SLOAD SWAP1 PUSH2 0x100 EXP SWAP1 DIV PUSH1 0x1 PUSH1 0x1 PUSH1 0xA0 SHL SUB AND PUSH1 0x1 PUSH1 0x1 PUSH1 0xA0 SHL SUB AND PUSH1 0x1 PUSH1 0x1 PUSH1 0xA0 SHL SUB AND DUP2 MSTORE PUSH1 0x20 ADD SWAP1 DUP2 MSTORE PUSH1 0x20 ADD PUSH1 0x0 KECCAK256 SLOAD PUSH1 0x6 PUSH1 0x0 PUSH1 0x4 DUP6 DUP2 SLOAD DUP2 LT PUSH2 0x502 JUMPI INVALID JUMPDEST PUSH1 0x0 SWAP2 DUP3 MSTORE PUSH1 0x20 DUP1 DUP4 KECCAK256 SWAP1 SWAP2 ADD SLOAD PUSH1 0x1 PUSH1 0x1 PUSH1 0xA0 SHL SUB SWAP1 DUP2 AND DUP5 MSTORE SWAP1 DUP4 ADD SWAP4 SWAP1 SWAP4 MSTORE PUSH1 0x40 SWAP2 DUP3 ADD SWAP1 KECCAK256 SLOAD SWAP1 MLOAD PUSH4 0x70A08231 PUSH1 0xE0 SHL DUP2 MSTORE SWAP2 AND SWAP1 PUSH4 0x70A08231 SWAP1 PUSH2 0x54F SWAP1 ADDRESS SWAP1 PUSH1 0x4 ADD PUSH2 0x11B2 JUMP JUMPDEST PUSH1 0x20 PUSH1 0x40 MLOAD DUP1 DUP4 SUB DUP2 DUP7 DUP1 EXTCODESIZE ISZERO DUP1 ISZERO PUSH2 0x567 JUMPI PUSH1 0x0 DUP1 REVERT JUMPDEST POP GAS STATICCALL ISZERO DUP1 ISZERO PUSH2 0x57B JUMPI RETURNDATASIZE PUSH1 0x0 DUP1 RETURNDATACOPY RETURNDATASIZE PUSH1 0x0 REVERT JUMPDEST POP POP POP POP PUSH1 0x40 MLOAD RETURNDATASIZE PUSH1 0x1F NOT PUSH1 0x1F DUP3 ADD AND DUP3 ADD DUP1 PUSH1 0x40 MSTORE POP DUP2 ADD SWAP1 PUSH2 0x59F SWAP2 SWAP1 PUSH2 0x1154 JUMP JUMPDEST SWAP1 PUSH2 0xE26 JUMP JUMPDEST SWAP2 POP DUP2 ISZERO PUSH2 0x6CE JUMPI PUSH1 0x1 SLOAD PUSH1 0x4 DUP1 SLOAD PUSH1 0x1 PUSH1 0x1 PUSH1 0xA0 SHL SUB SWAP1 SWAP3 AND SWAP2 PUSH4 0x69328DEC SWAP2 SWAP1 DUP5 SWAP1 DUP2 LT PUSH2 0x5D1 JUMPI INVALID JUMPDEST PUSH1 0x0 SWAP2 DUP3 MSTORE PUSH1 0x20 SWAP2 DUP3 SWAP1 KECCAK256 ADD SLOAD PUSH1 0x3 SLOAD PUSH1 0x40 DUP1 MLOAD PUSH4 0x824EA6B PUSH1 0xE3 SHL DUP2 MSTORE SWAP1 MLOAD PUSH1 0x1 PUSH1 0x1 PUSH1 0xA0 SHL SUB SWAP4 DUP5 AND SWAP5 DUP10 SWAP5 SWAP1 SWAP4 AND SWAP3 PUSH4 0x41275358 SWAP3 PUSH1 0x4 DUP1 DUP3 ADD SWAP4 SWAP2 DUP3 SWAP1 SUB ADD DUP2 DUP7 DUP1 EXTCODESIZE ISZERO DUP1 ISZERO PUSH2 0x624 JUMPI PUSH1 0x0 DUP1 REVERT JUMPDEST POP GAS STATICCALL ISZERO DUP1 ISZERO PUSH2 0x638 JUMPI RETURNDATASIZE PUSH1 0x0 DUP1 RETURNDATACOPY RETURNDATASIZE PUSH1 0x0 REVERT JUMPDEST POP POP POP POP PUSH1 0x40 MLOAD RETURNDATASIZE PUSH1 0x1F NOT PUSH1 0x1F DUP3 ADD AND DUP3 ADD DUP1 PUSH1 0x40 MSTORE POP DUP2 ADD SWAP1 PUSH2 0x65C SWAP2 SWAP1 PUSH2 0x102E JUMP JUMPDEST PUSH1 0x40 MLOAD DUP5 PUSH4 0xFFFFFFFF AND PUSH1 0xE0 SHL DUP2 MSTORE PUSH1 0x4 ADD PUSH2 0x67A SWAP4 SWAP3 SWAP2 SWAP1 PUSH2 0x1203 JUMP JUMPDEST PUSH1 0x20 PUSH1 0x40 MLOAD DUP1 DUP4 SUB DUP2 PUSH1 0x0 DUP8 DUP1 EXTCODESIZE ISZERO DUP1 ISZERO PUSH2 0x694 JUMPI PUSH1 0x0 DUP1 REVERT JUMPDEST POP GAS CALL ISZERO DUP1 ISZERO PUSH2 0x6A8 JUMPI RETURNDATASIZE PUSH1 0x0 DUP1 RETURNDATACOPY RETURNDATASIZE PUSH1 0x0 REVERT JUMPDEST POP POP POP POP PUSH1 0x40 MLOAD RETURNDATASIZE PUSH1 0x1F NOT PUSH1 0x1F DUP3 ADD AND DUP3 ADD DUP1 PUSH1 0x40 MSTORE POP DUP2 ADD SWAP1 PUSH2 0x6CC SWAP2 SWAP1 PUSH2 0x1154 JUMP JUMPDEST POP JUMPDEST PUSH1 0x1 ADD PUSH2 0x494 JUMP JUMPDEST POP POP JUMP JUMPDEST PUSH1 0x0 PUSH2 0x6F3 PUSH2 0x3E8 PUSH2 0x6ED DUP5 PUSH1 0x5 PUSH2 0xE6F JUMP JUMPDEST SWAP1 PUSH2 0xEA9 JUMP JUMPDEST SWAP3 SWAP2 POP POP JUMP JUMPDEST PUSH1 0x5 DUP2 JUMP JUMPDEST PUSH1 0x4 DUP2 DUP2 SLOAD DUP2 LT PUSH2 0x70B JUMPI INVALID JUMPDEST PUSH1 0x0 SWAP2 DUP3 MSTORE PUSH1 0x20 SWAP1 SWAP2 KECCAK256 ADD SLOAD PUSH1 0x1 PUSH1 0x1 PUSH1 0xA0 SHL SUB AND SWAP1 POP DUP2 JUMP JUMPDEST PUSH1 0x0 PUSH2 0x6F3 PUSH2 0x3E8 PUSH2 0x6ED DUP5 PUSH1 0x2 PUSH2 0xE6F JUMP JUMPDEST PUSH1 0x3 DUP2 JUMP JUMPDEST PUSH1 0x8 PUSH1 0x20 SWAP1 DUP2 MSTORE PUSH1 0x0 SWAP3 DUP4 MSTORE PUSH1 0x40 DUP1 DUP5 KECCAK256 SWAP1 SWAP2 MSTORE SWAP1 DUP3 MSTORE SWAP1 KECCAK256 SLOAD DUP2 JUMP JUMPDEST PUSH2 0x762 PUSH2 0xE22 JUMP JUMPDEST PUSH1 0x0 SLOAD PUSH1 0x1 PUSH1 0x1 PUSH1 0xA0 SHL SUB SWAP1 DUP2 AND SWAP2 AND EQ PUSH2 0x78F JUMPI PUSH1 0x40 MLOAD PUSH3 0x461BCD PUSH1 0xE5 SHL DUP2 MSTORE PUSH1 0x4 ADD PUSH2 0x2FA SWAP1 PUSH2 0x145E JUMP JUMPDEST PUSH2 0x7A1 DUP2 PUSH1 0x0 ADD MLOAD DUP3 PUSH1 0x20 ADD MLOAD PUSH2 0xEEB JUMP JUMPDEST POP JUMP JUMPDEST PUSH2 0x7AC PUSH2 0xE22 JUMP JUMPDEST PUSH1 0x0 SLOAD PUSH1 0x1 PUSH1 0x1 PUSH1 0xA0 SHL SUB SWAP1 DUP2 AND SWAP2 AND EQ PUSH2 0x7D9 JUMPI PUSH1 0x40 MLOAD PUSH3 0x461BCD PUSH1 0xE5 SHL DUP2 MSTORE PUSH1 0x4 ADD PUSH2 0x2FA SWAP1 PUSH2 0x145E JUMP JUMPDEST PUSH1 0x0 DUP1 SLOAD PUSH1 0x40 MLOAD PUSH1 0x1 PUSH1 0x1 PUSH1 0xA0 SHL SUB SWAP1 SWAP2 AND SWAP1 PUSH32 0x8BE0079C531659141344CD1FD0A4F28419497F9722A3DAAFE3B4186F6B6457E0 SWAP1 DUP4 SWAP1 LOG3 PUSH1 0x0 DUP1 SLOAD PUSH1 0x1 PUSH1 0x1 PUSH1 0xA0 SHL SUB NOT AND SWAP1 SSTORE JUMP JUMPDEST PUSH1 0x3 SLOAD PUSH1 0x40 MLOAD PUSH4 0xF815C03D PUSH1 0xE0 SHL DUP2 MSTORE PUSH1 0x1 PUSH1 0x1 PUSH1 0xA0 SHL SUB SWAP1 SWAP2 AND SWAP1 PUSH4 0xF815C03D SWAP1 PUSH2 0x853 SWAP1 CALLER SWAP1 PUSH1 0x4 ADD PUSH2 0x11B2 JUMP JUMPDEST PUSH1 0x20 PUSH1 0x40 MLOAD DUP1 DUP4 SUB DUP2 DUP7 DUP1 EXTCODESIZE ISZERO DUP1 ISZERO PUSH2 0x86B JUMPI PUSH1 0x0 DUP1 REVERT JUMPDEST POP GAS STATICCALL ISZERO DUP1 ISZERO PUSH2 0x87F JUMPI RETURNDATASIZE PUSH1 0x0 DUP1 RETURNDATACOPY RETURNDATASIZE PUSH1 0x0 REVERT JUMPDEST POP POP POP POP PUSH1 0x40 MLOAD RETURNDATASIZE PUSH1 0x1F NOT PUSH1 0x1F DUP3 ADD AND DUP3 ADD DUP1 PUSH1 0x40 MSTORE POP DUP2 ADD SWAP1 PUSH2 0x8A3 SWAP2 SWAP1 PUSH2 0x10C2 JUMP JUMPDEST PUSH2 0x8BF JUMPI PUSH1 0x40 MLOAD PUSH3 0x461BCD PUSH1 0xE5 SHL DUP2 MSTORE PUSH1 0x4 ADD PUSH2 0x2FA SWAP1 PUSH2 0x13D4 JUMP JUMPDEST PUSH1 0x1 PUSH1 0x1 PUSH1 0xA0 SHL SUB DUP3 DUP2 AND PUSH1 0x0 SWAP1 DUP2 MSTORE PUSH1 0x6 PUSH1 0x20 MSTORE PUSH1 0x40 SWAP1 KECCAK256 SLOAD AND PUSH2 0x8E3 JUMPI PUSH1 0x0 DUP1 REVERT JUMPDEST DUP1 ISZERO PUSH2 0xAE0 JUMPI PUSH1 0x40 MLOAD PUSH4 0x23B872DD PUSH1 0xE0 SHL DUP2 MSTORE PUSH1 0x1 PUSH1 0x1 PUSH1 0xA0 SHL SUB DUP4 AND SWAP1 PUSH4 0x23B872DD SWAP1 PUSH2 0x919 SWAP1 DUP7 SWAP1 ADDRESS SWAP1 DUP7 SWAP1 PUSH1 0x4 ADD PUSH2 0x11C6 JUMP JUMPDEST PUSH1 0x20 PUSH1 0x40 MLOAD DUP1 DUP4 SUB DUP2 PUSH1 0x0 DUP8 DUP1 EXTCODESIZE ISZERO DUP1 ISZERO PUSH2 0x933 JUMPI PUSH1 0x0 DUP1 REVERT JUMPDEST POP GAS CALL ISZERO DUP1 ISZERO PUSH2 0x947 JUMPI RETURNDATASIZE PUSH1 0x0 DUP1 RETURNDATACOPY RETURNDATASIZE PUSH1 0x0 REVERT JUMPDEST POP POP POP POP PUSH1 0x40 MLOAD RETURNDATASIZE PUSH1 0x1F NOT PUSH1 0x1F DUP3 ADD AND DUP3 ADD DUP1 PUSH1 0x40 MSTORE POP DUP2 ADD SWAP1 PUSH2 0x96B SWAP2 SWAP1 PUSH2 0x10C2 JUMP JUMPDEST POP PUSH1 0x1 SLOAD PUSH1 0x40 MLOAD PUSH4 0x95EA7B3 PUSH1 0xE0 SHL DUP2 MSTORE PUSH1 0x1 PUSH1 0x1 PUSH1 0xA0 SHL SUB DUP5 DUP2 AND SWAP3 PUSH4 0x95EA7B3 SWAP3 PUSH2 0x9A0 SWAP3 SWAP1 SWAP2 AND SWAP1 DUP6 SWAP1 PUSH1 0x4 ADD PUSH2 0x11EA JUMP JUMPDEST PUSH1 0x20 PUSH1 0x40 MLOAD DUP1 DUP4 SUB DUP2 PUSH1 0x0 DUP8 DUP1 EXTCODESIZE ISZERO DUP1 ISZERO PUSH2 0x9BA JUMPI PUSH1 0x0 DUP1 REVERT JUMPDEST POP GAS CALL ISZERO DUP1 ISZERO PUSH2 0x9CE JUMPI RETURNDATASIZE PUSH1 0x0 DUP1 RETURNDATACOPY RETURNDATASIZE PUSH1 0x0 REVERT JUMPDEST POP POP POP POP PUSH1 0x40 MLOAD RETURNDATASIZE PUSH1 0x1F NOT PUSH1 0x1F DUP3 ADD AND DUP3 ADD DUP1 PUSH1 0x40 MSTORE POP DUP2 ADD SWAP1 PUSH2 0x9F2 SWAP2 SWAP1 PUSH2 0x10C2 JUMP JUMPDEST POP PUSH1 0x1 SLOAD PUSH1 0x40 MLOAD PUSH4 0xE8EDA9DF PUSH1 0xE0 SHL DUP2 MSTORE PUSH1 0x1 PUSH1 0x1 PUSH1 0xA0 SHL SUB SWAP1 SWAP2 AND SWAP1 PUSH4 0xE8EDA9DF SWAP1 PUSH2 0xA2A SWAP1 DUP6 SWAP1 DUP6 SWAP1 ADDRESS SWAP1 PUSH1 0x0 SWAP1 PUSH1 0x4 ADD PUSH2 0x1226 JUMP JUMPDEST PUSH1 0x0 PUSH1 0x40 MLOAD DUP1 DUP4 SUB DUP2 PUSH1 0x0 DUP8 DUP1 EXTCODESIZE ISZERO DUP1 ISZERO PUSH2 0xA44 JUMPI PUSH1 0x0 DUP1 REVERT JUMPDEST POP GAS CALL ISZERO DUP1 ISZERO PUSH2 0xA58 JUMPI RETURNDATASIZE PUSH1 0x0 DUP1 RETURNDATACOPY RETURNDATASIZE PUSH1 0x0 REVERT JUMPDEST POP POP POP PUSH1 0x1 PUSH1 0x1 PUSH1 0xA0 SHL SUB DUP4 AND PUSH1 0x0 SWAP1 DUP2 MSTORE PUSH1 0x7 PUSH1 0x20 MSTORE PUSH1 0x40 SWAP1 KECCAK256 SLOAD PUSH2 0xA7F SWAP2 POP DUP3 PUSH2 0xF8A JUMP JUMPDEST PUSH1 0x1 PUSH1 0x1 PUSH1 0xA0 SHL SUB DUP4 AND PUSH1 0x0 DUP2 DUP2 MSTORE PUSH1 0x7 PUSH1 0x20 SWAP1 DUP2 MSTORE PUSH1 0x40 DUP1 DUP4 KECCAK256 SWAP5 SWAP1 SWAP5 SSTORE CALLER DUP3 MSTORE PUSH1 0x8 DUP2 MSTORE DUP4 DUP3 KECCAK256 SWAP3 DUP3 MSTORE SWAP2 SWAP1 SWAP2 MSTORE KECCAK256 SLOAD PUSH2 0xABB SWAP1 DUP3 PUSH2 0xF8A JUMP JUMPDEST CALLER PUSH1 0x0 SWAP1 DUP2 MSTORE PUSH1 0x8 PUSH1 0x20 SWAP1 DUP2 MSTORE PUSH1 0x40 DUP1 DUP4 KECCAK256 PUSH1 0x1 PUSH1 0x1 PUSH1 0xA0 SHL SUB DUP8 AND DUP5 MSTORE SWAP1 SWAP2 MSTORE SWAP1 KECCAK256 SSTORE JUMPDEST POP POP POP JUMP JUMPDEST PUSH1 0x0 PUSH2 0x6F3 PUSH2 0x3E8 PUSH2 0x6ED DUP5 PUSH1 0x3 PUSH2 0xE6F JUMP JUMPDEST PUSH1 0x0 SLOAD PUSH1 0x1 PUSH1 0x1 PUSH1 0xA0 SHL SUB AND SWAP1 JUMP JUMPDEST PUSH1 0x2 DUP2 JUMP JUMPDEST PUSH2 0x3E8 DUP2 JUMP JUMPDEST PUSH1 0x5 DUP2 DUP2 SLOAD DUP2 LT PUSH2 0x70B JUMPI INVALID JUMPDEST PUSH1 0x2 SLOAD PUSH1 0x1 PUSH1 0x1 PUSH1 0xA0 SHL SUB AND DUP2 JUMP JUMPDEST PUSH1 0x6 PUSH1 0x20 MSTORE PUSH1 0x0 SWAP1 DUP2 MSTORE PUSH1 0x40 SWAP1 KECCAK256 SLOAD PUSH1 0x1 PUSH1 0x1 PUSH1 0xA0 SHL SUB AND DUP2 JUMP JUMPDEST PUSH1 0x3 SLOAD PUSH1 0x40 MLOAD PUSH4 0xF815C03D PUSH1 0xE0 SHL DUP2 MSTORE PUSH1 0x1 PUSH1 0x1 PUSH1 0xA0 SHL SUB SWAP1 SWAP2 AND SWAP1 PUSH4 0xF815C03D SWAP1 PUSH2 0xB79 SWAP1 CALLER SWAP1 PUSH1 0x4 ADD PUSH2 0x11B2 JUMP JUMPDEST PUSH1 0x20 PUSH1 0x40 MLOAD DUP1 DUP4 SUB DUP2 DUP7 DUP1 EXTCODESIZE ISZERO DUP1 ISZERO PUSH2 0xB91 JUMPI PUSH1 0x0 DUP1 REVERT JUMPDEST POP GAS STATICCALL ISZERO DUP1 ISZERO PUSH2 0xBA5 JUMPI RETURNDATASIZE PUSH1 0x0 DUP1 RETURNDATACOPY RETURNDATASIZE PUSH1 0x0 REVERT JUMPDEST POP POP POP POP PUSH1 0x40 MLOAD RETURNDATASIZE PUSH1 0x1F NOT PUSH1 0x1F DUP3 ADD AND DUP3 ADD DUP1 PUSH1 0x40 MSTORE POP DUP2 ADD SWAP1 PUSH2 0xBC9 SWAP2 SWAP1 PUSH2 0x10C2 JUMP JUMPDEST PUSH2 0xBE5 JUMPI PUSH1 0x40 MLOAD PUSH3 0x461BCD PUSH1 0xE5 SHL DUP2 MSTORE PUSH1 0x4 ADD PUSH2 0x2FA SWAP1 PUSH2 0x13D4 JUMP JUMPDEST PUSH1 0x1 PUSH1 0x1 PUSH1 0xA0 SHL SUB DUP3 DUP2 AND PUSH1 0x0 SWAP1 DUP2 MSTORE PUSH1 0x6 PUSH1 0x20 MSTORE PUSH1 0x40 SWAP1 KECCAK256 SLOAD AND PUSH2 0xC1C JUMPI PUSH1 0x40 MLOAD PUSH3 0x461BCD PUSH1 0xE5 SHL DUP2 MSTORE PUSH1 0x4 ADD PUSH2 0x2FA SWAP1 PUSH2 0x1493 JUMP JUMPDEST CALLER PUSH1 0x0 SWAP1 DUP2 MSTORE PUSH1 0x8 PUSH1 0x20 SWAP1 DUP2 MSTORE PUSH1 0x40 DUP1 DUP4 KECCAK256 PUSH1 0x1 PUSH1 0x1 PUSH1 0xA0 SHL SUB DUP7 AND DUP5 MSTORE SWAP1 SWAP2 MSTORE SWAP1 KECCAK256 SLOAD DUP2 GT ISZERO PUSH2 0xC5F JUMPI PUSH1 0x40 MLOAD PUSH3 0x461BCD PUSH1 0xE5 SHL DUP2 MSTORE PUSH1 0x4 ADD PUSH2 0x2FA SWAP1 PUSH2 0x1303 JUMP JUMPDEST DUP1 ISZERO PUSH2 0xAE0 JUMPI PUSH1 0x1 SLOAD PUSH1 0x40 MLOAD PUSH4 0x1A4CA37B PUSH1 0xE2 SHL DUP2 MSTORE PUSH1 0x1 PUSH1 0x1 PUSH1 0xA0 SHL SUB SWAP1 SWAP2 AND SWAP1 PUSH4 0x69328DEC SWAP1 PUSH2 0xC99 SWAP1 DUP6 SWAP1 DUP6 SWAP1 DUP9 SWAP1 PUSH1 0x4 ADD PUSH2 0x1203 JUMP JUMPDEST PUSH1 0x20 PUSH1 0x40 MLOAD DUP1 DUP4 SUB DUP2 PUSH1 0x0 DUP8 DUP1 EXTCODESIZE ISZERO DUP1 ISZERO PUSH2 0xCB3 JUMPI PUSH1 0x0 DUP1 REVERT JUMPDEST POP GAS CALL ISZERO DUP1 ISZERO PUSH2 0xCC7 JUMPI RETURNDATASIZE PUSH1 0x0 DUP1 RETURNDATACOPY RETURNDATASIZE PUSH1 0x0 REVERT JUMPDEST POP POP POP POP PUSH1 0x40 MLOAD RETURNDATASIZE PUSH1 0x1F NOT PUSH1 0x1F DUP3 ADD AND DUP3 ADD DUP1 PUSH1 0x40 MSTORE POP DUP2 ADD SWAP1 PUSH2 0xCEB SWAP2 SWAP1 PUSH2 0x1154 JUMP JUMPDEST POP PUSH1 0x1 PUSH1 0x1 PUSH1 0xA0 SHL SUB DUP3 AND PUSH1 0x0 SWAP1 DUP2 MSTORE PUSH1 0x7 PUSH1 0x20 MSTORE PUSH1 0x40 SWAP1 KECCAK256 SLOAD PUSH2 0xD0F SWAP1 DUP3 PUSH2 0xE26 JUMP JUMPDEST PUSH1 0x1 PUSH1 0x1 PUSH1 0xA0 SHL SUB DUP4 AND PUSH1 0x0 DUP2 DUP2 MSTORE PUSH1 0x7 PUSH1 0x20 SWAP1 DUP2 MSTORE PUSH1 0x40 DUP1 DUP4 KECCAK256 SWAP5 SWAP1 SWAP5 SSTORE CALLER DUP3 MSTORE PUSH1 0x8 DUP2 MSTORE DUP4 DUP3 KECCAK256 SWAP3 DUP3 MSTORE SWAP2 SWAP1 SWAP2 MSTORE KECCAK256 SLOAD PUSH2 0xABB SWAP1 DUP3 PUSH2 0xE26 JUMP JUMPDEST PUSH1 0x7 PUSH1 0x20 MSTORE PUSH1 0x0 SWAP1 DUP2 MSTORE PUSH1 0x40 SWAP1 KECCAK256 SLOAD DUP2 JUMP JUMPDEST PUSH2 0xD65 PUSH2 0xE22 JUMP JUMPDEST PUSH1 0x0 SLOAD PUSH1 0x1 PUSH1 0x1 PUSH1 0xA0 SHL SUB SWAP1 DUP2 AND SWAP2 AND EQ PUSH2 0xD92 JUMPI PUSH1 0x40 MLOAD PUSH3 0x461BCD PUSH1 0xE5 SHL DUP2 MSTORE PUSH1 0x4 ADD PUSH2 0x2FA SWAP1 PUSH2 0x145E JUMP JUMPDEST PUSH1 0x1 PUSH1 0x1 PUSH1 0xA0 SHL SUB DUP2 AND PUSH2 0xDB8 JUMPI PUSH1 0x40 MLOAD PUSH3 0x461BCD PUSH1 0xE5 SHL DUP2 MSTORE PUSH1 0x4 ADD PUSH2 0x2FA SWAP1 PUSH2 0x1357 JUMP JUMPDEST PUSH1 0x0 DUP1 SLOAD PUSH1 0x40 MLOAD PUSH1 0x1 PUSH1 0x1 PUSH1 0xA0 SHL SUB DUP1 DUP6 AND SWAP4 SWAP3 AND SWAP2 PUSH32 0x8BE0079C531659141344CD1FD0A4F28419497F9722A3DAAFE3B4186F6B6457E0 SWAP2 LOG3 PUSH1 0x0 DUP1 SLOAD PUSH1 0x1 PUSH1 0x1 PUSH1 0xA0 SHL SUB NOT AND PUSH1 0x1 PUSH1 0x1 PUSH1 0xA0 SHL SUB SWAP3 SWAP1 SWAP3 AND SWAP2 SWAP1 SWAP2 OR SWAP1 SSTORE JUMP JUMPDEST PUSH1 0x1 SLOAD PUSH1 0x1 PUSH1 0x1 PUSH1 0xA0 SHL SUB AND DUP2 JUMP JUMPDEST CALLER SWAP1 JUMP JUMPDEST PUSH1 0x0 PUSH2 0xE68 DUP4 DUP4 PUSH1 0x40 MLOAD DUP1 PUSH1 0x40 ADD PUSH1 0x40 MSTORE DUP1 PUSH1 0x1E DUP2 MSTORE PUSH1 0x20 ADD PUSH32 0x536166654D6174683A207375627472616374696F6E206F766572666C6F770000 DUP2 MSTORE POP PUSH2 0xFAF JUMP JUMPDEST SWAP4 SWAP3 POP POP POP JUMP JUMPDEST PUSH1 0x0 DUP3 PUSH2 0xE7E JUMPI POP PUSH1 0x0 PUSH2 0x6F3 JUMP JUMPDEST DUP3 DUP3 MUL DUP3 DUP5 DUP3 DUP2 PUSH2 0xE8B JUMPI INVALID JUMPDEST DIV EQ PUSH2 0xE68 JUMPI PUSH1 0x40 MLOAD PUSH3 0x461BCD PUSH1 0xE5 SHL DUP2 MSTORE PUSH1 0x4 ADD PUSH2 0x2FA SWAP1 PUSH2 0x141D JUMP JUMPDEST PUSH1 0x0 PUSH2 0xE68 DUP4 DUP4 PUSH1 0x40 MLOAD DUP1 PUSH1 0x40 ADD PUSH1 0x40 MSTORE DUP1 PUSH1 0x1A DUP2 MSTORE PUSH1 0x20 ADD PUSH32 0x536166654D6174683A206469766973696F6E206279207A65726F000000000000 DUP2 MSTORE POP PUSH2 0xFDB JUMP JUMPDEST PUSH1 0x1 PUSH1 0x1 PUSH1 0xA0 SHL SUB SWAP2 DUP3 AND PUSH1 0x0 DUP2 DUP2 MSTORE PUSH1 0x6 PUSH1 0x20 MSTORE PUSH1 0x40 DUP2 KECCAK256 DUP1 SLOAD SWAP5 SWAP1 SWAP4 AND PUSH1 0x1 PUSH1 0x1 PUSH1 0xA0 SHL SUB NOT SWAP5 DUP6 AND DUP2 OR SWAP1 SWAP4 SSTORE PUSH1 0x4 DUP1 SLOAD PUSH1 0x1 DUP2 DUP2 ADD SWAP1 SWAP3 SSTORE PUSH32 0x8A35ACFBC15FF81A39AE7D344FD709F28E8600B4AA8C65C6B64BFE7FE36BD19B ADD DUP1 SLOAD DUP7 AND SWAP1 SWAP4 OR SWAP1 SWAP3 SSTORE PUSH1 0x5 DUP1 SLOAD SWAP3 DUP4 ADD DUP2 SSTORE SWAP1 MSTORE PUSH32 0x36B6384B5ECA791C62761152D0C79BB0604C104A5FB6F4EB0703F3154BB3DB0 ADD DUP1 SLOAD SWAP1 SWAP3 AND OR SWAP1 SSTORE JUMP JUMPDEST PUSH1 0x0 DUP3 DUP3 ADD DUP4 DUP2 LT ISZERO PUSH2 0xE68 JUMPI PUSH1 0x40 MLOAD PUSH3 0x461BCD PUSH1 0xE5 SHL DUP2 MSTORE PUSH1 0x4 ADD PUSH2 0x2FA SWAP1 PUSH2 0x139D JUMP JUMPDEST PUSH1 0x0 DUP2 DUP5 DUP5 GT ISZERO PUSH2 0xFD3 JUMPI PUSH1 0x40 MLOAD PUSH3 0x461BCD PUSH1 0xE5 SHL DUP2 MSTORE PUSH1 0x4 ADD PUSH2 0x2FA SWAP2 SWAP1 PUSH2 0x12B0 JUMP JUMPDEST POP POP POP SWAP1 SUB SWAP1 JUMP JUMPDEST PUSH1 0x0 DUP2 DUP4 PUSH2 0xFFC JUMPI PUSH1 0x40 MLOAD PUSH3 0x461BCD PUSH1 0xE5 SHL DUP2 MSTORE PUSH1 0x4 ADD PUSH2 0x2FA SWAP2 SWAP1 PUSH2 0x12B0 JUMP JUMPDEST POP PUSH1 0x0 DUP4 DUP6 DUP2 PUSH2 0x1008 JUMPI INVALID JUMPDEST DIV SWAP6 SWAP5 POP POP POP POP POP JUMP JUMPDEST PUSH1 0x0 PUSH1 0x20 DUP3 DUP5 SUB SLT ISZERO PUSH2 0x1023 JUMPI DUP1 DUP2 REVERT JUMPDEST DUP2 CALLDATALOAD PUSH2 0xE68 DUP2 PUSH2 0x14DF JUMP JUMPDEST PUSH1 0x0 PUSH1 0x20 DUP3 DUP5 SUB SLT ISZERO PUSH2 0x103F JUMPI DUP1 DUP2 REVERT JUMPDEST DUP2 MLOAD PUSH2 0xE68 DUP2 PUSH2 0x14DF JUMP JUMPDEST PUSH1 0x0 DUP1 PUSH1 0x40 DUP4 DUP6 SUB SLT ISZERO PUSH2 0x105C JUMPI DUP1 DUP2 REVERT JUMPDEST DUP3 CALLDATALOAD PUSH2 0x1067 DUP2 PUSH2 0x14DF JUMP JUMPDEST SWAP2 POP PUSH1 0x20 DUP4 ADD CALLDATALOAD PUSH2 0x1077 DUP2 PUSH2 0x14DF JUMP JUMPDEST DUP1 SWAP2 POP POP SWAP3 POP SWAP3 SWAP1 POP JUMP JUMPDEST PUSH1 0x0 DUP1 PUSH1 0x0 PUSH1 0x60 DUP5 DUP7 SUB SLT ISZERO PUSH2 0x1096 JUMPI DUP1 DUP2 REVERT JUMPDEST DUP4 CALLDATALOAD PUSH2 0x10A1 DUP2 PUSH2 0x14DF JUMP JUMPDEST SWAP3 POP PUSH1 0x20 DUP5 ADD CALLDATALOAD PUSH2 0x10B1 DUP2 PUSH2 0x14DF JUMP JUMPDEST SWAP3 SWAP6 SWAP3 SWAP5 POP POP POP PUSH1 0x40 SWAP2 SWAP1 SWAP2 ADD CALLDATALOAD SWAP1 JUMP JUMPDEST PUSH1 0x0 PUSH1 0x20 DUP3 DUP5 SUB SLT ISZERO PUSH2 0x10D3 JUMPI DUP1 DUP2 REVERT JUMPDEST DUP2 MLOAD DUP1 ISZERO ISZERO DUP2 EQ PUSH2 0xE68 JUMPI DUP2 DUP3 REVERT JUMPDEST PUSH1 0x0 PUSH1 0x40 DUP3 DUP5 SUB SLT ISZERO PUSH2 0x10F3 JUMPI DUP1 DUP2 REVERT JUMPDEST PUSH1 0x40 MLOAD PUSH1 0x40 DUP2 ADD DUP2 DUP2 LT PUSH8 0xFFFFFFFFFFFFFFFF DUP3 GT OR ISZERO PUSH2 0x1112 JUMPI DUP3 DUP4 REVERT JUMPDEST PUSH1 0x40 MSTORE DUP3 CALLDATALOAD PUSH2 0x1120 DUP2 PUSH2 0x14DF JUMP JUMPDEST DUP2 MSTORE PUSH1 0x20 DUP4 ADD CALLDATALOAD PUSH2 0x1130 DUP2 PUSH2 0x14DF JUMP JUMPDEST PUSH1 0x20 DUP3 ADD MSTORE SWAP4 SWAP3 POP POP POP JUMP JUMPDEST PUSH1 0x0 PUSH1 0x20 DUP3 DUP5 SUB SLT ISZERO PUSH2 0x114D JUMPI DUP1 DUP2 REVERT JUMPDEST POP CALLDATALOAD SWAP2 SWAP1 POP JUMP JUMPDEST PUSH1 0x0 PUSH1 0x20 DUP3 DUP5 SUB SLT ISZERO PUSH2 0x1165 JUMPI DUP1 DUP2 REVERT JUMPDEST POP MLOAD SWAP2 SWAP1 POP JUMP JUMPDEST PUSH1 0x0 DUP2 SLOAD DUP1 DUP5 MSTORE PUSH1 0x20 DUP1 DUP6 ADD SWAP5 POP DUP4 DUP4 MSTORE DUP1 DUP4 KECCAK256 DUP4 JUMPDEST DUP4 DUP2 LT ISZERO PUSH2 0x11A7 JUMPI DUP2 SLOAD PUSH1 0x1 PUSH1 0x1 PUSH1 0xA0 SHL SUB AND DUP8 MSTORE SWAP6 DUP3 ADD SWAP6 PUSH1 0x1 SWAP2 DUP3 ADD SWAP2 ADD PUSH2 0x1182 JUMP JUMPDEST POP SWAP5 SWAP6 SWAP5 POP POP POP POP POP JUMP JUMPDEST PUSH1 0x1 PUSH1 0x1 PUSH1 0xA0 SHL SUB SWAP2 SWAP1 SWAP2 AND DUP2 MSTORE PUSH1 0x20 ADD SWAP1 JUMP JUMPDEST PUSH1 0x1 PUSH1 0x1 PUSH1 0xA0 SHL SUB SWAP4 DUP5 AND DUP2 MSTORE SWAP2 SWAP1 SWAP3 AND PUSH1 0x20 DUP3 ADD MSTORE PUSH1 0x40 DUP2 ADD SWAP2 SWAP1 SWAP2 MSTORE PUSH1 0x60 ADD SWAP1 JUMP JUMPDEST PUSH1 0x1 PUSH1 0x1 PUSH1 0xA0 SHL SUB SWAP3 SWAP1 SWAP3 AND DUP3 MSTORE PUSH1 0x20 DUP3 ADD MSTORE PUSH1 0x40 ADD SWAP1 JUMP JUMPDEST PUSH1 0x1 PUSH1 0x1 PUSH1 0xA0 SHL SUB SWAP4 DUP5 AND DUP2 MSTORE PUSH1 0x20 DUP2 ADD SWAP3 SWAP1 SWAP3 MSTORE SWAP1 SWAP2 AND PUSH1 0x40 DUP3 ADD MSTORE PUSH1 0x60 ADD SWAP1 JUMP JUMPDEST PUSH1 0x1 PUSH1 0x1 PUSH1 0xA0 SHL SUB SWAP5 DUP6 AND DUP2 MSTORE PUSH1 0x20 DUP2 ADD SWAP4 SWAP1 SWAP4 MSTORE SWAP3 AND PUSH1 0x40 DUP3 ADD MSTORE PUSH2 0xFFFF SWAP1 SWAP2 AND PUSH1 0x60 DUP3 ADD MSTORE PUSH1 0x80 ADD SWAP1 JUMP JUMPDEST PUSH1 0x0 PUSH1 0x40 DUP3 MSTORE PUSH2 0x1266 PUSH1 0x40 DUP4 ADD DUP6 PUSH2 0x116C JUMP JUMPDEST SWAP1 POP PUSH1 0x1 DUP1 PUSH1 0xA0 SHL SUB DUP4 AND PUSH1 0x20 DUP4 ADD MSTORE SWAP4 SWAP3 POP POP POP JUMP JUMPDEST PUSH1 0x0 PUSH1 0x60 DUP3 MSTORE PUSH2 0x1290 PUSH1 0x60 DUP4 ADD DUP7 PUSH2 0x116C JUMP JUMPDEST PUSH1 0x20 DUP4 ADD SWAP5 SWAP1 SWAP5 MSTORE POP PUSH1 0x1 PUSH1 0x1 PUSH1 0xA0 SHL SUB SWAP2 SWAP1 SWAP2 AND PUSH1 0x40 SWAP1 SWAP2 ADD MSTORE SWAP2 SWAP1 POP JUMP JUMPDEST PUSH1 0x0 PUSH1 0x20 DUP1 DUP4 MSTORE DUP4 MLOAD DUP1 DUP3 DUP6 ADD MSTORE DUP3 JUMPDEST DUP2 DUP2 LT ISZERO PUSH2 0x12DC JUMPI DUP6 DUP2 ADD DUP4 ADD MLOAD DUP6 DUP3 ADD PUSH1 0x40 ADD MSTORE DUP3 ADD PUSH2 0x12C0 JUMP JUMPDEST DUP2 DUP2 GT ISZERO PUSH2 0x12ED JUMPI DUP4 PUSH1 0x40 DUP4 DUP8 ADD ADD MSTORE JUMPDEST POP PUSH1 0x1F ADD PUSH1 0x1F NOT AND SWAP3 SWAP1 SWAP3 ADD PUSH1 0x40 ADD SWAP4 SWAP3 POP POP POP JUMP JUMPDEST PUSH1 0x20 DUP1 DUP3 MSTORE PUSH1 0x34 SWAP1 DUP3 ADD MSTORE PUSH32 0x436F726E466920414156452053747261746567793A205661756C742057697468 PUSH1 0x40 DUP3 ADD MSTORE PUSH20 0x191C985DC8105B5BDD5B9D08115E18D959591959 PUSH1 0x62 SHL PUSH1 0x60 DUP3 ADD MSTORE PUSH1 0x80 ADD SWAP1 JUMP JUMPDEST PUSH1 0x20 DUP1 DUP3 MSTORE PUSH1 0x26 SWAP1 DUP3 ADD MSTORE PUSH32 0x4F776E61626C653A206E6577206F776E657220697320746865207A65726F2061 PUSH1 0x40 DUP3 ADD MSTORE PUSH6 0x646472657373 PUSH1 0xD0 SHL PUSH1 0x60 DUP3 ADD MSTORE PUSH1 0x80 ADD SWAP1 JUMP JUMPDEST PUSH1 0x20 DUP1 DUP3 MSTORE PUSH1 0x1B SWAP1 DUP3 ADD MSTORE PUSH32 0x536166654D6174683A206164646974696F6E206F766572666C6F770000000000 PUSH1 0x40 DUP3 ADD MSTORE PUSH1 0x60 ADD SWAP1 JUMP JUMPDEST PUSH1 0x20 DUP1 DUP3 MSTORE PUSH1 0x29 SWAP1 DUP3 ADD MSTORE PUSH32 0x436F726E466920414156452053747261746567793A205661756C74204F6E6C79 PUSH1 0x40 DUP3 ADD MSTORE PUSH9 0x10233AB731BA34B7B7 PUSH1 0xB9 SHL PUSH1 0x60 DUP3 ADD MSTORE PUSH1 0x80 ADD SWAP1 JUMP JUMPDEST PUSH1 0x20 DUP1 DUP3 MSTORE PUSH1 0x21 SWAP1 DUP3 ADD MSTORE PUSH32 0x536166654D6174683A206D756C7469706C69636174696F6E206F766572666C6F PUSH1 0x40 DUP3 ADD MSTORE PUSH1 0x77 PUSH1 0xF8 SHL PUSH1 0x60 DUP3 ADD MSTORE PUSH1 0x80 ADD SWAP1 JUMP JUMPDEST PUSH1 0x20 DUP1 DUP3 MSTORE DUP2 DUP2 ADD MSTORE PUSH32 0x4F776E61626C653A2063616C6C6572206973206E6F7420746865206F776E6572 PUSH1 0x40 DUP3 ADD MSTORE PUSH1 0x60 ADD SWAP1 JUMP JUMPDEST PUSH1 0x20 DUP1 DUP3 MSTORE PUSH1 0x23 SWAP1 DUP3 ADD MSTORE PUSH32 0x436F726E466920414156452053747261746567793A20496E76616C696420546F PUSH1 0x40 DUP3 ADD MSTORE PUSH3 0x35B2B7 PUSH1 0xE9 SHL PUSH1 0x60 DUP3 ADD MSTORE PUSH1 0x80 ADD SWAP1 JUMP JUMPDEST SWAP1 DUP2 MSTORE PUSH1 0x20 ADD SWAP1 JUMP JUMPDEST PUSH1 0x1 PUSH1 0x1 PUSH1 0xA0 SHL SUB DUP2 AND DUP2 EQ PUSH2 0x7A1 JUMPI PUSH1 0x0 DUP1 REVERT INVALID LOG2 PUSH5 0x6970667358 0x22 SLT KECCAK256 STATICCALL 0xCD 0xE7 0xD8 0xA6 0x5E COINBASE 0xC7 MULMOD MSIZE SWAP8 PUSH13 0x5500F2D755124273DCF0532BB3 0xA5 BALANCE ORIGIN 0xC6 LT SLOAD CODESIZE PUSH5 0x736F6C6343 STOP MOD 0xC STOP CALLER ",
  "sha1": "198fbf1032197224aeb020310fc6be8858ac97bf",
  "source": "// SPDX-License-Identifier: MIT\npragma solidity 0.6.12;\n\nimport \"../../interfaces/IAaveStake.sol\";\nimport \"../../interfaces/ISettings.sol\";\nimport \"../openzeppelin/contracts/access/Ownable.sol\";\nimport \"../openzeppelin/contracts/token/ERC20/SafeERC20.sol\";\n\n\n\npragma experimental ABIEncoderV2;\n\ncontract AAVEStrategy is Ownable {\n    using SafeERC20 for IERC20;\n    using SafeMath for uint256;\n\n    struct Tokens {\n        address token;\n        address amToken;\n    }\n\n    IAaveStake public LendingPool;\n    IAaveStake public Rewards;\n    ISettings public Settings;\n\n    address[] public tokens;\n    address[] public aaveMarketTokens;\n\n    mapping(address => address) public tokenToAm;\n\n    mapping(address => uint256) public totalDeposits;\n\n    mapping(address => mapping(address => uint256)) public vaultDeposits;\n\n    uint256 public constant DEPOSIT_FEE_POINTS = 5;\n    uint256 public constant DEPOSIT_FEE_BASE_POINTS = 1000;\n    uint256 public constant FILLER_FEE_POINTS = 3;\n    uint256 public constant FILLER_FEE_BASE_POINTS = 1000;\n    uint256 public constant TX_FEE_POINTS = 2;\n    uint256 public constant TX_FEE_BASE_POINTS = 1000;\n\n\n    modifier onlyVault {\n        require(Settings.vault(msg.sender), \"CornFi AAVE Strategy: Vault Only Function\");\n      _;\n   }\n\n\n    constructor(IAaveStake _lendingPool, IAaveStake _rewards, ISettings _settings, Tokens[] memory _tokens) public {\n        LendingPool = _lendingPool;\n        Rewards = _rewards;\n        Settings = _settings;\n        for(uint i = 0; i < _tokens.length; i++) {\n            _addToken(_tokens[i].token, _tokens[i].amToken);\n        }\n    }\n\n\n    function depositFee(uint256 _amountIn) public view returns (uint256) {\n        return _amountIn.mul(DEPOSIT_FEE_POINTS).div(DEPOSIT_FEE_BASE_POINTS);\n    }\n\n\n    function txFee(uint256 _amountIn) public view returns (uint256) {\n        return _amountIn.mul(TX_FEE_POINTS).div(TX_FEE_BASE_POINTS);\n    }\n\n\n    function fillerFee(uint256 _amountIn) public view returns (uint256) {\n        return _amountIn.mul(FILLER_FEE_POINTS).div(FILLER_FEE_BASE_POINTS);\n    }\n\n\n    function addToken(Tokens memory _token) public onlyOwner {\n        _addToken(_token.token, _token.amToken);\n    }\n\n\n    function _addToken(address _token, address _amToken) internal {\n        tokenToAm[_token] = _amToken;\n        tokens.push(_token);\n        aaveMarketTokens.push(_amToken);\n    }\n\n\n    function deposit(address _from, address _token, uint256 _amount) public onlyVault {\n        require(tokenToAm[_token] != address(0));\n        if(_amount > 0) {\n            IERC20(_token).transferFrom(_from, address(this), _amount);\n\n            // Approve Aave lending pool to take (deposit) a token\n            IERC20(_token).approve(address(LendingPool), _amount);\n\n            // Deposit assets into Aave lending pool\n            LendingPool.deposit(_token, _amount, address(this), uint16(0));\n\n            totalDeposits[_token] = totalDeposits[_token].add(_amount);\n            vaultDeposits[msg.sender][_token] = vaultDeposits[msg.sender][_token].add(_amount);\n        }\n    }\n\n\n    function withdraw(address _from, address _token, uint256 _amount) public onlyVault {\n        require(tokenToAm[_token] != address(0), \"CornFi AAVE Strategy: Invalid Token\");\n\n        // This prevents the owner from creating a malicious vault that could withdraw all tokens\n        require(_amount <= vaultDeposits[msg.sender][_token], \"CornFi AAVE Strategy: Vault Withdraw Amount Exceeded\");\n        \n        if(_amount > 0) {\n            LendingPool.withdraw(_token, _amount, _from);\n            totalDeposits[_token] = totalDeposits[_token].sub(_amount);\n            vaultDeposits[msg.sender][_token] = vaultDeposits[msg.sender][_token].sub(_amount);\n        }\n    }\n\n\n    function claimRewards() public onlyOwner {\n        // Claim Aave WMATIC rewards, if any\n        if(Rewards.getRewardsBalance(aaveMarketTokens, address(this)) > 0) {\n            Rewards.claimRewards(aaveMarketTokens, uint256(-1), Settings.feeAddress());\n        }\n\n        uint256 interest;\n        for(uint i = 0; i < tokens.length; i++) {\n            interest = IERC20(tokenToAm[tokens[i]]).balanceOf(address(this)).sub(totalDeposits[tokens[i]]);\n            if(interest > 0) {\n                LendingPool.withdraw(tokens[i], interest, Settings.feeAddress());\n            }\n        }\n    }\n}",
  "sourcePath": "contracts/strategies/AAVEStrategy.sol",
  "type": "contract"
}