{
  "abi": [
    {
      "inputs": [
        {
          "internalType": "address",
          "name": "_feeAddress",
          "type": "address"
        },
        {
          "internalType": "uint256",
          "name": "_slippagePoints",
          "type": "uint256"
        },
        {
          "internalType": "uint256",
          "name": "_slippageBasePoints",
          "type": "uint256"
        },
        {
          "internalType": "address[]",
          "name": "_routers",
          "type": "address[]"
        }
      ],
      "stateMutability": "nonpayable",
      "type": "constructor"
    },
    {
      "anonymous": false,
      "inputs": [
        {
          "indexed": true,
          "internalType": "address",
          "name": "previousOwner",
          "type": "address"
        },
        {
          "indexed": true,
          "internalType": "address",
          "name": "newOwner",
          "type": "address"
        }
      ],
      "name": "OwnershipTransferred",
      "type": "event"
    },
    {
      "anonymous": false,
      "inputs": [
        {
          "indexed": false,
          "internalType": "address",
          "name": "account",
          "type": "address"
        }
      ],
      "name": "Paused",
      "type": "event"
    },
    {
      "anonymous": false,
      "inputs": [
        {
          "indexed": false,
          "internalType": "address",
          "name": "account",
          "type": "address"
        }
      ],
      "name": "Unpaused",
      "type": "event"
    },
    {
      "inputs": [
        {
          "internalType": "uint256",
          "name": "_vaultId",
          "type": "uint256"
        },
        {
          "internalType": "address[]",
          "name": "_tokens",
          "type": "address[]"
        },
        {
          "internalType": "uint256[]",
          "name": "_amounts",
          "type": "uint256[]"
        },
        {
          "internalType": "uint256[]",
          "name": "_times",
          "type": "uint256[]"
        }
      ],
      "name": "createTrade",
      "outputs": [],
      "stateMutability": "nonpayable",
      "type": "function"
    },
    {
      "inputs": [
        {
          "internalType": "uint256",
          "name": "_vaultId",
          "type": "uint256"
        },
        {
          "internalType": "uint256",
          "name": "_orderId",
          "type": "uint256"
        },
        {
          "internalType": "contract IUniswapV2Router02",
          "name": "_router",
          "type": "address"
        },
        {
          "internalType": "address[]",
          "name": "_path",
          "type": "address[]"
        }
      ],
      "name": "fillOrder",
      "outputs": [],
      "stateMutability": "nonpayable",
      "type": "function"
    },
    {
      "inputs": [
        {
          "internalType": "uint256",
          "name": "_vaultId",
          "type": "uint256"
        },
        {
          "internalType": "uint256",
          "name": "_orderId",
          "type": "uint256"
        }
      ],
      "name": "fillOrder",
      "outputs": [],
      "stateMutability": "nonpayable",
      "type": "function"
    },
    {
      "inputs": [
        {
          "internalType": "uint256",
          "name": "_vaultId",
          "type": "uint256"
        }
      ],
      "name": "openOrdersLength",
      "outputs": [
        {
          "internalType": "uint256",
          "name": "",
          "type": "uint256"
        }
      ],
      "stateMutability": "view",
      "type": "function"
    },
    {
      "inputs": [
        {
          "internalType": "uint256",
          "name": "_vaultId",
          "type": "uint256"
        }
      ],
      "name": "ordersLength",
      "outputs": [
        {
          "internalType": "uint256",
          "name": "",
          "type": "uint256"
        }
      ],
      "stateMutability": "view",
      "type": "function"
    },
    {
      "inputs": [],
      "name": "owner",
      "outputs": [
        {
          "internalType": "address",
          "name": "",
          "type": "address"
        }
      ],
      "stateMutability": "view",
      "type": "function"
    },
    {
      "inputs": [],
      "name": "pause",
      "outputs": [],
      "stateMutability": "nonpayable",
      "type": "function"
    },
    {
      "inputs": [],
      "name": "paused",
      "outputs": [
        {
          "internalType": "bool",
          "name": "",
          "type": "bool"
        }
      ],
      "stateMutability": "view",
      "type": "function"
    },
    {
      "inputs": [],
      "name": "renounceOwnership",
      "outputs": [],
      "stateMutability": "nonpayable",
      "type": "function"
    },
    {
      "inputs": [
        {
          "internalType": "contract Settings",
          "name": "_settings",
          "type": "address"
        }
      ],
      "name": "setSettings",
      "outputs": [],
      "stateMutability": "nonpayable",
      "type": "function"
    },
    {
      "inputs": [],
      "name": "settings",
      "outputs": [
        {
          "internalType": "contract Settings",
          "name": "",
          "type": "address"
        }
      ],
      "stateMutability": "view",
      "type": "function"
    },
    {
      "inputs": [
        {
          "internalType": "uint256",
          "name": "_vaultId",
          "type": "uint256"
        }
      ],
      "name": "tokenLength",
      "outputs": [
        {
          "internalType": "uint256",
          "name": "",
          "type": "uint256"
        }
      ],
      "stateMutability": "view",
      "type": "function"
    },
    {
      "inputs": [
        {
          "internalType": "uint256",
          "name": "_vaultId",
          "type": "uint256"
        },
        {
          "internalType": "uint256",
          "name": "_tokenId",
          "type": "uint256"
        }
      ],
      "name": "tokenOpenOrdersLength",
      "outputs": [
        {
          "internalType": "uint256",
          "name": "",
          "type": "uint256"
        }
      ],
      "stateMutability": "view",
      "type": "function"
    },
    {
      "inputs": [
        {
          "internalType": "uint256",
          "name": "_vaultId",
          "type": "uint256"
        },
        {
          "internalType": "uint256",
          "name": "_tokenId",
          "type": "uint256"
        }
      ],
      "name": "tokenTradeLength",
      "outputs": [
        {
          "internalType": "uint256",
          "name": "",
          "type": "uint256"
        }
      ],
      "stateMutability": "view",
      "type": "function"
    },
    {
      "inputs": [
        {
          "internalType": "address",
          "name": "newOwner",
          "type": "address"
        }
      ],
      "name": "transferOwnership",
      "outputs": [],
      "stateMutability": "nonpayable",
      "type": "function"
    },
    {
      "inputs": [],
      "name": "unpause",
      "outputs": [],
      "stateMutability": "nonpayable",
      "type": "function"
    },
    {
      "inputs": [
        {
          "internalType": "address",
          "name": "_owner",
          "type": "address"
        }
      ],
      "name": "vaultTokensByOwner",
      "outputs": [
        {
          "components": [
            {
              "internalType": "address",
              "name": "vault",
              "type": "address"
            },
            {
              "internalType": "uint256",
              "name": "tokenId",
              "type": "uint256"
            }
          ],
          "internalType": "struct Controller.UserTokens[]",
          "name": "",
          "type": "tuple[]"
        }
      ],
      "stateMutability": "view",
      "type": "function"
    },
    {
      "inputs": [
        {
          "internalType": "uint256",
          "name": "_vaultId",
          "type": "uint256"
        },
        {
          "internalType": "uint256",
          "name": "_tokenId",
          "type": "uint256"
        }
      ],
      "name": "viewOpenOrdersByToken",
      "outputs": [
        {
          "components": [
            {
              "internalType": "uint256",
              "name": "tokenId",
              "type": "uint256"
            },
            {
              "internalType": "uint256",
              "name": "tradeId",
              "type": "uint256"
            },
            {
              "internalType": "uint256",
              "name": "orderId",
              "type": "uint256"
            },
            {
              "internalType": "uint256",
              "name": "timestamp",
              "type": "uint256"
            },
            {
              "internalType": "address[2]",
              "name": "tokens",
              "type": "address[2]"
            },
            {
              "internalType": "uint256[3]",
              "name": "amounts",
              "type": "uint256[3]"
            },
            {
              "internalType": "uint256[]",
              "name": "times",
              "type": "uint256[]"
            }
          ],
          "internalType": "struct VaultBase.Order[]",
          "name": "",
          "type": "tuple[]"
        }
      ],
      "stateMutability": "view",
      "type": "function"
    },
    {
      "inputs": [
        {
          "internalType": "uint256",
          "name": "_vaultId",
          "type": "uint256"
        },
        {
          "internalType": "uint256",
          "name": "_start",
          "type": "uint256"
        },
        {
          "internalType": "uint256",
          "name": "_end",
          "type": "uint256"
        }
      ],
      "name": "viewOpenOrdersInRange",
      "outputs": [
        {
          "components": [
            {
              "internalType": "uint256",
              "name": "tokenId",
              "type": "uint256"
            },
            {
              "internalType": "uint256",
              "name": "tradeId",
              "type": "uint256"
            },
            {
              "internalType": "uint256",
              "name": "orderId",
              "type": "uint256"
            },
            {
              "internalType": "uint256",
              "name": "timestamp",
              "type": "uint256"
            },
            {
              "internalType": "address[2]",
              "name": "tokens",
              "type": "address[2]"
            },
            {
              "internalType": "uint256[3]",
              "name": "amounts",
              "type": "uint256[3]"
            },
            {
              "internalType": "uint256[]",
              "name": "times",
              "type": "uint256[]"
            }
          ],
          "internalType": "struct VaultBase.Order[]",
          "name": "",
          "type": "tuple[]"
        }
      ],
      "stateMutability": "view",
      "type": "function"
    },
    {
      "inputs": [
        {
          "internalType": "uint256",
          "name": "_vaultId",
          "type": "uint256"
        },
        {
          "internalType": "uint256[]",
          "name": "_orderIds",
          "type": "uint256[]"
        }
      ],
      "name": "viewOrders",
      "outputs": [
        {
          "components": [
            {
              "internalType": "uint256",
              "name": "tokenId",
              "type": "uint256"
            },
            {
              "internalType": "uint256",
              "name": "tradeId",
              "type": "uint256"
            },
            {
              "internalType": "uint256",
              "name": "orderId",
              "type": "uint256"
            },
            {
              "internalType": "uint256",
              "name": "timestamp",
              "type": "uint256"
            },
            {
              "internalType": "address[2]",
              "name": "tokens",
              "type": "address[2]"
            },
            {
              "internalType": "uint256[3]",
              "name": "amounts",
              "type": "uint256[3]"
            },
            {
              "internalType": "uint256[]",
              "name": "times",
              "type": "uint256[]"
            }
          ],
          "internalType": "struct VaultBase.Order[]",
          "name": "",
          "type": "tuple[]"
        }
      ],
      "stateMutability": "view",
      "type": "function"
    },
    {
      "inputs": [
        {
          "internalType": "uint256",
          "name": "_vaultId",
          "type": "uint256"
        },
        {
          "internalType": "uint256",
          "name": "_tokenId",
          "type": "uint256"
        },
        {
          "internalType": "uint256[]",
          "name": "_tradeIds",
          "type": "uint256[]"
        }
      ],
      "name": "viewTrades",
      "outputs": [
        {
          "components": [
            {
              "internalType": "uint256",
              "name": "tokenId",
              "type": "uint256"
            },
            {
              "internalType": "uint256",
              "name": "tradeId",
              "type": "uint256"
            },
            {
              "internalType": "uint256",
              "name": "orderId",
              "type": "uint256"
            },
            {
              "internalType": "uint256",
              "name": "timestamp",
              "type": "uint256"
            },
            {
              "internalType": "address[2]",
              "name": "tokens",
              "type": "address[2]"
            },
            {
              "internalType": "uint256[3]",
              "name": "amounts",
              "type": "uint256[3]"
            },
            {
              "internalType": "uint256[]",
              "name": "times",
              "type": "uint256[]"
            }
          ],
          "internalType": "struct VaultBase.Order[][]",
          "name": "",
          "type": "tuple[][]"
        }
      ],
      "stateMutability": "view",
      "type": "function"
    },
    {
      "inputs": [
        {
          "internalType": "uint256",
          "name": "_vaultId",
          "type": "uint256"
        },
        {
          "internalType": "uint256",
          "name": "_tokenId",
          "type": "uint256"
        }
      ],
      "name": "withdraw",
      "outputs": [],
      "stateMutability": "nonpayable",
      "type": "function"
    }
  ],
  "bytecode": "60806040523480156200001157600080fd5b5060405162003f8738038062003f8783398101604081905262000034916200018f565b6000620000406200015f565b600080546001600160a01b0319166001600160a01b0383169081178255604051929350917f8be0079c531659141344cd1fd0a4f28419497f9722a3daafe3b4186f6b6457e0908290a3506000805460ff60a01b1916905560405184903090859085908590620000af9062000163565b620000bf95949392919062000276565b604051809103906000f080158015620000dc573d6000803e3d6000fd5b50600180546001600160a01b0319166001600160a01b03928316179081905560405163f2fde38b60e01b815291169063f2fde38b906200012190339060040162000262565b600060405180830381600087803b1580156200013c57600080fd5b505af115801562000151573d6000803e3d6000fd5b505050505050505062000348565b3390565b6110f38062002e9483390190565b80516001600160a01b03811681146200018957600080fd5b92915050565b60008060008060808587031215620001a5578384fd5b8451620001b2816200032f565b602086810151604088015160608901519397509095509350906001600160401b03811115620001df578283fd5b8601601f81018813620001f0578283fd5b80516200020762000201826200030f565b620002e8565b81815283810190838501858402850186018c101562000224578687fd5b8694505b8385101562000252576200023d8c8262000171565b83526001949094019391850191850162000228565b50979a9699509497505050505050565b6001600160a01b0391909116815260200190565b600060a0820160018060a01b03808916845260208189168186015287604086015286606086015260a0608086015282865180855260c0870191508288019450855b81811015620002d7578551851683529483019491830191600101620002b7565b50909b9a5050505050505050505050565b6040518181016001600160401b03811182821017156200030757600080fd5b604052919050565b60006001600160401b0382111562000325578081fd5b5060209081020190565b6001600160a01b03811681146200034557600080fd5b50565b612b3c80620003586000396000f3fe608060405234801561001057600080fd5b50600436106101425760003560e01c80637dc24f49116100b8578063a01d3c2c1161007c578063a01d3c2c14610299578063c37dfc5b146102ac578063c631353f146102bf578063e06174e4146102d2578063e25fa122146102da578063f2fde38b146102ed57610142565b80637dc24f49146102435780638456cb59146102565780638da5cb5b1461025e57806390181d28146102735780639d274afd1461028657610142565b80633f4ba83a1161010a5780633f4ba83a146101d8578063441a3e70146101e057806355d6dc2f146101f35780635c975abb1461021357806362d4a36a14610228578063715018a61461023b57610142565b806309fc72aa1461014757806312320bca146101705780632a2925c21461018557806330d33f80146101a55780633b94a42b146101c5575b600080fd5b61015a610155366004612316565b610300565b6040516101679190612a92565b60405180910390f35b61018361017e366004612485565b6103ff565b005b6101986101933660046123d3565b61051b565b604051610167919061279d565b6101b86101b3366004612438565b6106c0565b604051610167919061273d565b6101986101d3366004612417565b610929565b610183610ba6565b6101836101ee366004612417565b610be5565b6102066102013660046121d4565b610cc8565b60405161016791906127b0565b61021b611215565b60405161016791906127fb565b61015a610236366004612417565b611225565b610183611331565b61015a610251366004612316565b6113b0565b610183611470565b6102666114ad565b604051610167919061267e565b61015a610281366004612316565b6114bc565b610183610294366004612346565b61157c565b6101836102a73660046121d4565b611767565b6101836102ba366004612417565b6117be565b6101986102cd3660046124d9565b611895565b610266611acb565b61015a6102e8366004612417565b611ada565b6101836102fb3660046121d4565b611b8e565b600154604051634632752560e11b815260009182916001600160a01b0390911690638c64ea4a90610335908690600401612a92565b60206040518083038186803b15801561034d57600080fd5b505afa158015610361573d6000803e3d6000fd5b505050506040513d601f19601f8201168201806040525081019061038591906121f0565b9050806001600160a01b031663198e4ce66040518163ffffffff1660e01b815260040160206040518083038186803b1580156103c057600080fd5b505afa1580156103d4573d6000803e3d6000fd5b505050506040513d601f19601f820116820180604052508101906103f8919061232e565b9392505050565b600054600160a01b900460ff16156104325760405162461bcd60e51b815260040161042990612904565b60405180910390fd5b600154604051634632752560e11b81526001600160a01b0390911690638c64ea4a90610462908790600401612a92565b60206040518083038186803b15801561047a57600080fd5b505afa15801561048e573d6000803e3d6000fd5b505050506040513d601f19601f820116820180604052508101906104b291906121f0565b6001600160a01b031663594a2b3e338585856040518563ffffffff1660e01b81526004016104e39493929190612700565b600060405180830381600087803b1580156104fd57600080fd5b505af1158015610511573d6000803e3d6000fd5b5050505050505050565b600154604051634632752560e11b81526060916000916001600160a01b0390911690638c64ea4a90610551908790600401612a92565b60206040518083038186803b15801561056957600080fd5b505afa15801561057d573d6000803e3d6000fd5b505050506040513d601f19601f820116820180604052508101906105a191906121f0565b9050606083516001600160401b03811180156105bc57600080fd5b506040519080825280602002602001820160405280156105f657816020015b6105e3611f52565b8152602001906001900390816105db5790505b50905060005b84518110156106b757826001600160a01b03166321603f4386838151811061062057fe5b60200260200101516040518263ffffffff1660e01b81526004016106449190612a92565b60006040518083038186803b15801561065c57600080fd5b505afa158015610670573d6000803e3d6000fd5b505050506040513d6000823e601f3d908101601f19168201604052610698919081019061225e565b8282815181106106a457fe5b60209081029190910101526001016105fc565b50949350505050565b600154604051634632752560e11b81526060916000916001600160a01b0390911690638c64ea4a906106f6908890600401612a92565b60206040518083038186803b15801561070e57600080fd5b505afa158015610722573d6000803e3d6000fd5b505050506040513d601f19601f8201168201806040525081019061074691906121f0565b9050806001600160a01b031663d082e3816040518163ffffffff1660e01b815260040160206040518083038186803b15801561078157600080fd5b505afa158015610795573d6000803e3d6000fd5b505050506040513d601f19601f820116820180604052508101906107b9919061232e565b8411156107d85760405162461bcd60e51b8152600401610429906129ab565b606083516001600160401b03811180156107f157600080fd5b5060405190808252806020026020018201604052801561082557816020015b60608152602001906001900390816108105790505b50905060005b845181101561091f57604051634fe8cec960e11b81526001600160a01b03841690639fd19d9290610860908990600401612a92565b60206040518083038186803b15801561087857600080fd5b505afa15801561088c573d6000803e3d6000fd5b505050506040513d601f19601f820116820180604052508101906108b0919061232e565b8582815181106108bc57fe5b602002602001015111156108e25760405162461bcd60e51b81526004016104299061292e565b61090083878784815181106108f357fe5b6020026020010151611c44565b82828151811061090c57fe5b602090810291909101015260010161082b565b5095945050505050565b600154604051634632752560e11b81526060916000916001600160a01b0390911690638c64ea4a9061095f908790600401612a92565b60206040518083038186803b15801561097757600080fd5b505afa15801561098b573d6000803e3d6000fd5b505050506040513d601f19601f820116820180604052508101906109af91906121f0565b90506000816001600160a01b0316631bf744db856040518263ffffffff1660e01b81526004016109df9190612a92565b60206040518083038186803b1580156109f757600080fd5b505afa158015610a0b573d6000803e3d6000fd5b505050506040513d601f19601f82011682018060405250810190610a2f919061232e565b90506060816001600160401b0381118015610a4957600080fd5b50604051908082528060200260200182016040528015610a8357816020015b610a70611f52565b815260200190600190039081610a685790505b50905060005b8281101561091f5760405163915b985960e01b81526001600160a01b038516906321603f4390829063915b985990610ac7908b908790600401612a9b565b60206040518083038186803b158015610adf57600080fd5b505afa158015610af3573d6000803e3d6000fd5b505050506040513d601f19601f82011682018060405250810190610b17919061232e565b6040518263ffffffff1660e01b8152600401610b339190612a92565b60006040518083038186803b158015610b4b57600080fd5b505afa158015610b5f573d6000803e3d6000fd5b505050506040513d6000823e601f3d908101601f19168201604052610b87919081019061225e565b828281518110610b9357fe5b6020908102919091010152600101610a89565b610bae611ddf565b6000546001600160a01b03908116911614610bdb5760405162461bcd60e51b815260040161042990612976565b610be3611de3565b565b600154604051634632752560e11b81526001600160a01b0390911690638c64ea4a90610c15908590600401612a92565b60206040518083038186803b158015610c2d57600080fd5b505afa158015610c41573d6000803e3d6000fd5b505050506040513d601f19601f82011682018060405250810190610c6591906121f0565b6001600160a01b031663f3fef3a333836040518363ffffffff1660e01b8152600401610c929291906126e7565b600060405180830381600087803b158015610cac57600080fd5b505af1158015610cc0573d6000803e3d6000fd5b505050505050565b60606000805b600160009054906101000a90046001600160a01b03166001600160a01b03166382af54c96040518163ffffffff1660e01b815260040160206040518083038186803b158015610d1c57600080fd5b505afa158015610d30573d6000803e3d6000fd5b505050506040513d601f19601f82011682018060405250810190610d54919061232e565b811015610e6257600154604051634632752560e11b81526001600160a01b0390911690638c64ea4a90610d8b908490600401612a92565b60206040518083038186803b158015610da357600080fd5b505afa158015610db7573d6000803e3d6000fd5b505050506040513d601f19601f82011682018060405250810190610ddb91906121f0565b6001600160a01b03166370a08231856040518263ffffffff1660e01b8152600401610e06919061267e565b60206040518083038186803b158015610e1e57600080fd5b505afa158015610e32573d6000803e3d6000fd5b505050506040513d601f19601f82011682018060405250810190610e56919061232e565b90910190600101610cce565b506060816001600160401b0381118015610e7b57600080fd5b50604051908082528060200260200182016040528015610eb557816020015b610ea2611f9b565b815260200190600190039081610e9a5790505b5090506000805b600160009054906101000a90046001600160a01b03166001600160a01b03166382af54c96040518163ffffffff1660e01b815260040160206040518083038186803b158015610f0a57600080fd5b505afa158015610f1e573d6000803e3d6000fd5b505050506040513d601f19601f82011682018060405250810190610f42919061232e565b81101561120b5760005b600154604051634632752560e11b81526001600160a01b0390911690638c64ea4a90610f7c908590600401612a92565b60206040518083038186803b158015610f9457600080fd5b505afa158015610fa8573d6000803e3d6000fd5b505050506040513d601f19601f82011682018060405250810190610fcc91906121f0565b6001600160a01b03166370a08231886040518263ffffffff1660e01b8152600401610ff7919061267e565b60206040518083038186803b15801561100f57600080fd5b505afa158015611023573d6000803e3d6000fd5b505050506040513d601f19601f82011682018060405250810190611047919061232e565b811015611202576040805180820191829052600154634632752560e11b9092529081906001600160a01b0316638c64ea4a6110858660448501612a92565b60206040518083038186803b15801561109d57600080fd5b505afa1580156110b1573d6000803e3d6000fd5b505050506040513d601f19601f820116820180604052508101906110d591906121f0565b6001600160a01b039081168252600154604051634632752560e11b8152602090930192911690638c64ea4a9061110f908790600401612a92565b60206040518083038186803b15801561112757600080fd5b505afa15801561113b573d6000803e3d6000fd5b505050506040513d601f19601f8201168201806040525081019061115f91906121f0565b6001600160a01b0316632f745c598a856040518363ffffffff1660e01b815260040161118c9291906126e7565b60206040518083038186803b1580156111a457600080fd5b505afa1580156111b8573d6000803e3d6000fd5b505050506040513d601f19601f820116820180604052508101906111dc919061232e565b905284516001850194869181106111ef57fe5b6020908102919091010152600101610f4c565b50600101610ebc565b5090949350505050565b600054600160a01b900460ff1690565b600154604051634632752560e11b815260009182916001600160a01b0390911690638c64ea4a9061125a908790600401612a92565b60206040518083038186803b15801561127257600080fd5b505afa158015611286573d6000803e3d6000fd5b505050506040513d601f19601f820116820180604052508101906112aa91906121f0565b604051631bf744db60e01b81529091506001600160a01b03821690631bf744db906112d9908690600401612a92565b60206040518083038186803b1580156112f157600080fd5b505afa158015611305573d6000803e3d6000fd5b505050506040513d601f19601f82011682018060405250810190611329919061232e565b949350505050565b611339611ddf565b6000546001600160a01b039081169116146113665760405162461bcd60e51b815260040161042990612976565b600080546040516001600160a01b03909116907f8be0079c531659141344cd1fd0a4f28419497f9722a3daafe3b4186f6b6457e0908390a3600080546001600160a01b0319169055565b600154604051634632752560e11b815260009182916001600160a01b0390911690638c64ea4a906113e5908690600401612a92565b60206040518083038186803b1580156113fd57600080fd5b505afa158015611411573d6000803e3d6000fd5b505050506040513d601f19601f8201168201806040525081019061143591906121f0565b9050806001600160a01b031663be8acd3f6040518163ffffffff1660e01b815260040160206040518083038186803b1580156103c057600080fd5b611478611ddf565b6000546001600160a01b039081169116146114a55760405162461bcd60e51b815260040161042990612976565b610be3611e59565b6000546001600160a01b031690565b600154604051634632752560e11b815260009182916001600160a01b0390911690638c64ea4a906114f1908690600401612a92565b60206040518083038186803b15801561150957600080fd5b505afa15801561151d573d6000803e3d6000fd5b505050506040513d601f19601f8201168201806040525081019061154191906121f0565b9050806001600160a01b031663d082e3816040518163ffffffff1660e01b815260040160206040518083038186803b1580156103c057600080fd5b600054600160a01b900460ff16156115a65760405162461bcd60e51b815260040161042990612904565b600154604051634632752560e11b81526001600160a01b039091169063f815c03d908290638c64ea4a906115de908990600401612a92565b60206040518083038186803b1580156115f657600080fd5b505afa15801561160a573d6000803e3d6000fd5b505050506040513d601f19601f8201168201806040525081019061162e91906121f0565b6040518263ffffffff1660e01b815260040161164a919061267e565b60206040518083038186803b15801561166257600080fd5b505afa158015611676573d6000803e3d6000fd5b505050506040513d601f19601f8201168201806040525081019061169a919061223e565b6116b65760405162461bcd60e51b815260040161042990612a51565b600154604051634632752560e11b81526001600160a01b0390911690638c64ea4a906116e6908790600401612a92565b60206040518083038186803b1580156116fe57600080fd5b505afa158015611712573d6000803e3d6000fd5b505050506040513d601f19601f8201168201806040525081019061173691906121f0565b6001600160a01b031663dbb03711338585856040518563ffffffff1660e01b81526004016104e39493929190612692565b61176f611ddf565b6000546001600160a01b0390811691161461179c5760405162461bcd60e51b815260040161042990612976565b600180546001600160a01b0319166001600160a01b0392909216919091179055565b600054600160a01b900460ff16156117e85760405162461bcd60e51b815260040161042990612904565b600154604051634632752560e11b81526001600160a01b0390911690638c64ea4a90611818908590600401612a92565b60206040518083038186803b15801561183057600080fd5b505afa158015611844573d6000803e3d6000fd5b505050506040513d601f19601f8201168201806040525081019061186891906121f0565b6001600160a01b0316639c7264d733836040518363ffffffff1660e01b8152600401610c929291906126e7565b600154604051634632752560e11b81526060916000916001600160a01b0390911690638c64ea4a906118cb908890600401612a92565b60206040518083038186803b1580156118e357600080fd5b505afa1580156118f7573d6000803e3d6000fd5b505050506040513d601f19601f8201168201806040525081019061191b91906121f0565b90508284111561193d5760405162461bcd60e51b8152600401610429906129f4565b6060611954600161194e8688611ebf565b90611f01565b6001600160401b038111801561196957600080fd5b506040519080825280602002602001820160405280156119a357816020015b611990611f52565b8152602001906001900390816119885790505b509050845b84811161091f5760405163a5f4030360e01b81526001600160a01b038416906321603f4390829063a5f40303906119e3908690600401612a92565b60206040518083038186803b1580156119fb57600080fd5b505afa158015611a0f573d6000803e3d6000fd5b505050506040513d601f19601f82011682018060405250810190611a33919061232e565b6040518263ffffffff1660e01b8152600401611a4f9190612a92565b60006040518083038186803b158015611a6757600080fd5b505afa158015611a7b573d6000803e3d6000fd5b505050506040513d6000823e601f3d908101601f19168201604052611aa3919081019061225e565b82611aae8389611ebf565b81518110611ab857fe5b60209081029190910101526001016119a8565b6001546001600160a01b031681565b600154604051634632752560e11b815260009182916001600160a01b0390911690638c64ea4a90611b0f908790600401612a92565b60206040518083038186803b158015611b2757600080fd5b505afa158015611b3b573d6000803e3d6000fd5b505050506040513d601f19601f82011682018060405250810190611b5f91906121f0565b604051634fe8cec960e11b81529091506001600160a01b03821690639fd19d92906112d9908690600401612a92565b611b96611ddf565b6000546001600160a01b03908116911614611bc35760405162461bcd60e51b815260040161042990612976565b6001600160a01b038116611be95760405162461bcd60e51b815260040161042990612887565b600080546040516001600160a01b03808516939216917f8be0079c531659141344cd1fd0a4f28419497f9722a3daafe3b4186f6b6457e091a3600080546001600160a01b0319166001600160a01b0392909216919091179055565b606080846001600160a01b031663e20be69a85856040518363ffffffff1660e01b8152600401611c75929190612a9b565b60006040518083038186803b158015611c8d57600080fd5b505afa158015611ca1573d6000803e3d6000fd5b505050506040513d6000823e601f3d908101601f19168201604052611cc9919081019061220c565b9050606081516001600160401b0381118015611ce457600080fd5b50604051908082528060200260200182016040528015611d1e57816020015b611d0b611f52565b815260200190600190039081611d035790505b50905060005b825181101561091f57866001600160a01b03166321603f43848381518110611d4857fe5b60200260200101516040518263ffffffff1660e01b8152600401611d6c9190612a92565b60006040518083038186803b158015611d8457600080fd5b505afa158015611d98573d6000803e3d6000fd5b505050506040513d6000823e601f3d908101601f19168201604052611dc0919081019061225e565b828281518110611dcc57fe5b6020908102919091010152600101611d24565b3390565b600054600160a01b900460ff16611e0c5760405162461bcd60e51b815260040161042990612859565b6000805460ff60a01b191690557f5db9ee0a495bf2e6ff9c91a7834c1ba4fdd244a5e8aa4e537bd38aeae4b073aa611e42611ddf565b604051611e4f919061267e565b60405180910390a1565b600054600160a01b900460ff1615611e835760405162461bcd60e51b815260040161042990612904565b6000805460ff60a01b1916600160a01b1790557f62e78cea01bee320cd4e420270b5ea74000d11b0c9f74754ebdbfc544b05a258611e42611ddf565b60006103f883836040518060400160405280601e81526020017f536166654d6174683a207375627472616374696f6e206f766572666c6f770000815250611f26565b6000828201838110156103f85760405162461bcd60e51b8152600401610429906128cd565b60008184841115611f4a5760405162461bcd60e51b81526004016104299190612806565b505050900390565b6040518060e0016040528060008152602001600081526020016000815260200160008152602001611f81611fb2565b8152602001611f8e611fd0565b8152602001606081525090565b604080518082019091526000808252602082015290565b60405180604001604052806002906020820280368337509192915050565b60405180606001604052806003906020820280368337509192915050565b600082601f830112611ffe578081fd5b6120086040612aa9565b905080828460408501111561201c57600080fd5b60005b600281101561204857815161203381612aee565b8352602092830192919091019060010161201f565b50505092915050565b600082601f830112612061578081fd5b813561207461206f82612acf565b612aa9565b81815291506020808301908481018184028601820187101561209557600080fd5b60005b848110156120bd5781356120ab81612aee565b84529282019290820190600101612098565b505050505092915050565b600082601f8301126120d8578081fd5b6120e26060612aa9565b90508082846060850111156120f657600080fd5b60005b60038110156120485781518352602092830192909101906001016120f9565b600082601f830112612128578081fd5b813561213661206f82612acf565b81815291506020808301908481018184028601820187101561215757600080fd5b60005b848110156120bd5781358452928201929082019060010161215a565b600082601f830112612186578081fd5b815161219461206f82612acf565b8181529150602080830190848101818402860182018710156121b557600080fd5b60005b848110156120bd578151845292820192908201906001016121b8565b6000602082840312156121e5578081fd5b81356103f881612aee565b600060208284031215612201578081fd5b81516103f881612aee565b60006020828403121561221d578081fd5b81516001600160401b03811115612232578182fd5b61132984828501612176565b60006020828403121561224f578081fd5b815180151581146103f8578182fd5b60006020828403121561226f578081fd5b81516001600160401b0380821115612285578283fd5b908301906101408286031215612299578283fd5b6122a360e0612aa9565b825181526020830151602082015260408301516040820152606083015160608201526122d28660808501611fee565b60808201526122e48660c085016120c8565b60a0820152610120830151828111156122fb578485fd5b61230787828601612176565b60c08301525095945050505050565b600060208284031215612327578081fd5b5035919050565b60006020828403121561233f578081fd5b5051919050565b6000806000806080858703121561235b578283fd5b8435935060208501356001600160401b0380821115612378578485fd5b61238488838901612051565b94506040870135915080821115612399578384fd5b6123a588838901612118565b935060608701359150808211156123ba578283fd5b506123c787828801612118565b91505092959194509250565b600080604083850312156123e5578182fd5b8235915060208301356001600160401b03811115612401578182fd5b61240d85828601612118565b9150509250929050565b60008060408385031215612429578182fd5b50508035926020909101359150565b60008060006060848603121561244c578081fd5b833592506020840135915060408401356001600160401b0381111561246f578182fd5b61247b86828701612118565b9150509250925092565b6000806000806080858703121561249a578182fd5b843593506020850135925060408501356124b381612aee565b915060608501356001600160401b038111156124cd578182fd5b6123c787828801612051565b6000806000606084860312156124ed578081fd5b505081359360208301359350604090920135919050565b6001600160a01b0316815260200190565b6000815180845260208085019450808401835b8381101561254d5781516001600160a01b031687529582019590820190600101612528565b509495945050505050565b6000815180845260208085018081965082840281019150828601855b8581101561261957828403895281518051855285810151868601526040808201519086015260608082015190860152608080820151610140918701908a5b60028110156125d4576125c6838351612504565b9250908901906001016125b2565b50505060a082015160c06125ea81890183612626565b8084015193505050806101208701526126058187018361264f565b9a87019a9550505090840190600101612574565b5091979650505050505050565b8060005b600381101561264957815184526020938401939091019060010161262a565b50505050565b6000815180845260208085019450808401835b8381101561254d57815187529582019590820190600101612662565b6001600160a01b0391909116815260200190565b6001600160a01b03851681526080602082018190526000906126b690830186612515565b82810360408401526126c8818661264f565b905082810360608401526126dc818561264f565b979650505050505050565b6001600160a01b03929092168252602082015260400190565b6001600160a01b038581168252602082018590528316604082015260806060820181905260009061273390830184612515565b9695505050505050565b6000602080830181845280855180835260408601915060408482028701019250838701855b8281101561279057603f1988860301845261277e858351612558565b94509285019290850190600101612762565b5092979650505050505050565b6000602082526103f86020830184612558565b602080825282518282018190526000919060409081850190868401855b8281101561261957815180516001600160a01b031685528601518685015292840192908501906001016127cd565b901515815260200190565b6000602080835283518082850152825b8181101561283257858101830151858201604001528201612816565b818111156128435783604083870101525b50601f01601f1916929092016040019392505050565b60208082526014908201527314185d5cd8589b194e881b9bdd081c185d5cd95960621b604082015260600190565b60208082526026908201527f4f776e61626c653a206e6577206f776e657220697320746865207a65726f206160408201526564647265737360d01b606082015260800190565b6020808252601b908201527f536166654d6174683a206164646974696f6e206f766572666c6f770000000000604082015260600190565b60208082526010908201526f14185d5cd8589b194e881c185d5cd95960821b604082015260600190565b60208082526028908201527f436f726e4669205661756c7420426173653a205472616465204944204f7574206040820152676f662052616e676560c01b606082015260800190565b6020808252818101527f4f776e61626c653a2063616c6c6572206973206e6f7420746865206f776e6572604082015260600190565b60208082526029908201527f436f726e4669205661756c742051756572793a20546f6b656e204944204f7574604082015268206f662052616e676560b81b606082015260800190565b6020808252603b908201527f436f726e4669205661756c7420426173653a205374617274696e6720496e646560408201527f782047726561746572205468616e20456e64696e6720496e6465780000000000606082015260800190565b60208082526021908201527f436f726e466920436f6e74726f6c6c65723a20496e616374697665205661756c6040820152601d60fa1b606082015260800190565b90815260200190565b918252602082015260400190565b6040518181016001600160401b0381118282101715612ac757600080fd5b604052919050565b60006001600160401b03821115612ae4578081fd5b5060209081020190565b6001600160a01b0381168114612b0357600080fd5b5056fea264697066735822122036881d6290ba145d9c12d8b82426b49020fa4047c16dc7212b9b419f362e990064736f6c634300060c003360a06040523480156200001157600080fd5b50604051620010f3380380620010f3833981810160405260a08110156200003757600080fd5b81516020830151604080850151606086015160808701805193519597949692959194919392820192846401000000008211156200007357600080fd5b9083019060208201858111156200008957600080fd5b8251866020820283011164010000000082111715620000a757600080fd5b82525081516020918201928201910280838360005b83811015620000d6578181015183820152602001620000bc565b505050509050016040525050506000620000f5620001bf60201b60201c565b600080546001600160a01b0319166001600160a01b0383169081178255604051929350917f8be0079c531659141344cd1fd0a4f28419497f9722a3daafe3b4186f6b6457e0908290a350600180546001600160a01b0319166001600160a01b038716179055606084901b6001600160601b031916608052620001788383620001c3565b60005b8151811015620001b357620001aa8282815181106200019657fe5b6020026020010151620001ce60201b60201c565b6001016200017b565b5050505050506200025c565b3390565b600291909155600355565b6001600160a01b03811660009081526005602052604090205460ff1615620001f557600080fd5b6004805460018181019092557f8a35acfbc15ff81a39ae7d344fd709f28e8600b4aa8c65c6b64bfe7fe36bd19b0180546001600160a01b039093166001600160a01b031990931683179055600091825260056020526040909120805460ff19169091179055565b60805160601c610e796200027a60003980610b585250610e796000f3fe608060405234801561001057600080fd5b50600436106101585760003560e01c806390a83dc2116100c3578063e4b643e31161007c578063e4b643e31461037d578063e9fcd6ce146103b7578063f2fde38b146103bf578063f77c4791146103e5578063f815c03d146103ed578063fcab2e141461041357610158565b806390a83dc2146102ad5780639670e0de146102e3578063aa9f621714610300578063aea4e5ba14610326578063aee1640714610352578063bc9ef3e01461035a57610158565b8063715018a611610115578063715018a61461022c5780637726a73c1461023457806382af54c91461025a5780638705fcd4146102625780638c64ea4a146102885780638da5cb5b146102a557610158565b80631ac364711461015d578063228bfd9f14610185578063256b5a02146101c75780633aaa36e6146101ed5780634e9c1118146101f5578063530c8fe714610212575b600080fd5b6101836004803603602081101561017357600080fd5b50356001600160a01b0316610439565b005b6101ab6004803603602081101561019b57600080fd5b50356001600160a01b03166104d7565b604080516001600160a01b039092168252519081900360200190f35b610183600480360360208110156101dd57600080fd5b50356001600160a01b03166104f5565b6101ab6105eb565b6101ab6004803603602081101561020b57600080fd5b50356105fa565b61021a610621565b60408051918252519081900360200190f35b610183610627565b61021a6004803603602081101561024a57600080fd5b50356001600160a01b03166106c9565b61021a6106e4565b6101836004803603602081101561027857600080fd5b50356001600160a01b03166106ea565b6101ab6004803603602081101561029e57600080fd5b50356107b1565b6101ab6107be565b610183600480360360608110156102c357600080fd5b506001600160a01b038135811691602081013590911690604001356107cd565b61021a600480360360208110156102f957600080fd5b5035610887565b6101836004803603602081101561031657600080fd5b50356001600160a01b03166108ba565b6101836004803603604081101561033c57600080fd5b506001600160a01b038135169060200135610936565b61021a6109ce565b6101836004803603604081101561037057600080fd5b50803590602001356109d4565b6103a36004803603602081101561039357600080fd5b50356001600160a01b0316610a3a565b604080519115158252519081900360200190f35b61021a610a58565b610183600480360360208110156103d557600080fd5b50356001600160a01b0316610a5e565b6101ab610b56565b6103a36004803603602081101561040357600080fd5b50356001600160a01b0316610b7a565b61021a6004803603602081101561042957600080fd5b50356001600160a01b0316610bac565b610441610bc7565b6000546001600160a01b03908116911614610491576040805162461bcd60e51b81526020600482018190526024820152600080516020610dfe833981519152604482015290519081900360640190fd5b6001600160a01b03811660009081526005602052604090205460ff166104b657600080fd5b6001600160a01b03166000908152600560205260409020805460ff19169055565b6001600160a01b039081166000908152600960205260409020541690565b6104fd610bc7565b6000546001600160a01b0390811691161461054d576040805162461bcd60e51b81526020600482018190526024820152600080516020610dfe833981519152604482015290519081900360640190fd5b6001600160a01b03811660009081526007602052604090205460ff161561057357600080fd5b600680546001600160a01b03909216600081815260086020908152604080832086905560018087019095557ff652222313e28459528d920b65115c16c04f3efc82aaedc97be59f3f377c0d3f90950180546001600160a01b03191684179055918152600790915291909120805460ff19169091179055565b6001546001600160a01b031681565b6004818154811061060757fe5b6000918252602090912001546001600160a01b0316905081565b60045490565b61062f610bc7565b6000546001600160a01b0390811691161461067f576040805162461bcd60e51b81526020600482018190526024820152600080516020610dfe833981519152604482015290519081900360640190fd5b600080546040516001600160a01b03909116907f8be0079c531659141344cd1fd0a4f28419497f9722a3daafe3b4186f6b6457e0908390a3600080546001600160a01b0319169055565b6001600160a01b031660009081526008602052604090205490565b60065490565b6106f2610bc7565b6000546001600160a01b03908116911614610742576040805162461bcd60e51b81526020600482018190526024820152600080516020610dfe833981519152604482015290519081900360640190fd5b6001546001600160a01b038281169116141561078f5760405162461bcd60e51b8152600401808060200182810382526026815260200180610e1e6026913960400191505060405180910390fd5b600180546001600160a01b0319166001600160a01b0392909216919091179055565b6006818154811061060757fe5b6000546001600160a01b031690565b6107d5610bc7565b6000546001600160a01b03908116911614610825576040805162461bcd60e51b81526020600482018190526024820152600080516020610dfe833981519152604482015290519081900360640190fd5b6001600160a01b03838116600090815260096020526040902054161561084a57600080fd5b6001600160a01b03928316600090815260096020908152604080832080546001600160a01b0319169590961694909417909455600a909352912055565b60006108b46108ad6003546108a760025486610bcb90919063ffffffff16565b90610c2b565b8390610c6d565b92915050565b6108c2610bc7565b6000546001600160a01b03908116911614610912576040805162461bcd60e51b81526020600482018190526024820152600080516020610dfe833981519152604482015290519081900360640190fd5b6001600160a01b03166000908152600760205260409020805460ff19166002179055565b61093e610bc7565b6000546001600160a01b0390811691161461098e576040805162461bcd60e51b81526020600482018190526024820152600080516020610dfe833981519152604482015290519081900360640190fd5b6001600160a01b03828116600090815260096020526040902054166109b257600080fd5b6001600160a01b039091166000908152600a6020526040902055565b60025481565b6109dc610bc7565b6000546001600160a01b03908116911614610a2c576040805162461bcd60e51b81526020600482018190526024820152600080516020610dfe833981519152604482015290519081900360640190fd5b610a368282610caf565b5050565b6001600160a01b031660009081526005602052604090205460ff1690565b60035481565b610a66610bc7565b6000546001600160a01b03908116911614610ab6576040805162461bcd60e51b81526020600482018190526024820152600080516020610dfe833981519152604482015290519081900360640190fd5b6001600160a01b038116610afb5760405162461bcd60e51b8152600401808060200182810382526026815260200180610db76026913960400191505060405180910390fd5b600080546040516001600160a01b03808516939216917f8be0079c531659141344cd1fd0a4f28419497f9722a3daafe3b4186f6b6457e091a3600080546001600160a01b0319166001600160a01b0392909216919091179055565b7f000000000000000000000000000000000000000000000000000000000000000081565b6001600160a01b03811660009081526007602052604081205460ff16600114610ba45760006108b4565b506001919050565b6001600160a01b03166000908152600a602052604090205490565b3390565b600082610bda575060006108b4565b82820282848281610be757fe5b0414610c245760405162461bcd60e51b8152600401808060200182810382526021815260200180610ddd6021913960400191505060405180910390fd5b9392505050565b6000610c2483836040518060400160405280601a81526020017f536166654d6174683a206469766973696f6e206279207a65726f000000000000815250610cba565b6000610c2483836040518060400160405280601e81526020017f536166654d6174683a207375627472616374696f6e206f766572666c6f770000815250610d5c565b600291909155600355565b60008183610d465760405162461bcd60e51b81526004018080602001828103825283818151815260200191508051906020019080838360005b83811015610d0b578181015183820152602001610cf3565b50505050905090810190601f168015610d385780820380516001836020036101000a031916815260200191505b509250505060405180910390fd5b506000838581610d5257fe5b0495945050505050565b60008184841115610dae5760405162461bcd60e51b8152602060048201818152835160248401528351909283926044909101919085019080838360008315610d0b578181015183820152602001610cf3565b50505090039056fe4f776e61626c653a206e6577206f776e657220697320746865207a65726f2061646472657373536166654d6174683a206d756c7469706c69636174696f6e206f766572666c6f774f776e61626c653a2063616c6c6572206973206e6f7420746865206f776e6572436f726e46692053657474696e67733a204e6f742061204e6577204665652041646472657373a26469706673582212204901156f11673a3fc217ba58f2d308a2d14a21a73d6fdc0101989c2945e5658964736f6c634300060c0033",
  "bytecodeSha1": "39993d7b709ec153d0a4ab590198a3463ee9e516",
  "compiler": {
    "evm_version": "istanbul",
    "optimizer": {
      "enabled": true,
      "runs": 200
    },
    "version": "0.6.12+commit.27d51765"
  },
  "contractName": "Controller",
  "language": "Solidity",
  "natspec": {
    "kind": "dev",
    "methods": {
      "owner()": {
        "details": "Returns the address of the current owner."
      },
      "paused()": {
        "details": "Returns true if the contract is paused, and false otherwise."
      },
      "renounceOwnership()": {
        "details": "Leaves the contract without owner. It will not be possible to call `onlyOwner` functions anymore. Can only be called by the current owner. NOTE: Renouncing ownership will leave the contract without an owner, thereby removing any functionality that is only available to the owner."
      },
      "transferOwnership(address)": {
        "details": "Transfers ownership of the contract to a new account (`newOwner`). Can only be called by the current owner."
      }
    },
    "version": 1
  },
  "opcodes": "PUSH1 0x80 PUSH1 0x40 MSTORE CALLVALUE DUP1 ISZERO PUSH2 0x10 JUMPI PUSH1 0x0 DUP1 REVERT JUMPDEST POP PUSH1 0x4 CALLDATASIZE LT PUSH2 0x142 JUMPI PUSH1 0x0 CALLDATALOAD PUSH1 0xE0 SHR DUP1 PUSH4 0x7DC24F49 GT PUSH2 0xB8 JUMPI DUP1 PUSH4 0xA01D3C2C GT PUSH2 0x7C JUMPI DUP1 PUSH4 0xA01D3C2C EQ PUSH2 0x299 JUMPI DUP1 PUSH4 0xC37DFC5B EQ PUSH2 0x2AC JUMPI DUP1 PUSH4 0xC631353F EQ PUSH2 0x2BF JUMPI DUP1 PUSH4 0xE06174E4 EQ PUSH2 0x2D2 JUMPI DUP1 PUSH4 0xE25FA122 EQ PUSH2 0x2DA JUMPI DUP1 PUSH4 0xF2FDE38B EQ PUSH2 0x2ED JUMPI PUSH2 0x142 JUMP JUMPDEST DUP1 PUSH4 0x7DC24F49 EQ PUSH2 0x243 JUMPI DUP1 PUSH4 0x8456CB59 EQ PUSH2 0x256 JUMPI DUP1 PUSH4 0x8DA5CB5B EQ PUSH2 0x25E JUMPI DUP1 PUSH4 0x90181D28 EQ PUSH2 0x273 JUMPI DUP1 PUSH4 0x9D274AFD EQ PUSH2 0x286 JUMPI PUSH2 0x142 JUMP JUMPDEST DUP1 PUSH4 0x3F4BA83A GT PUSH2 0x10A JUMPI DUP1 PUSH4 0x3F4BA83A EQ PUSH2 0x1D8 JUMPI DUP1 PUSH4 0x441A3E70 EQ PUSH2 0x1E0 JUMPI DUP1 PUSH4 0x55D6DC2F EQ PUSH2 0x1F3 JUMPI DUP1 PUSH4 0x5C975ABB EQ PUSH2 0x213 JUMPI DUP1 PUSH4 0x62D4A36A EQ PUSH2 0x228 JUMPI DUP1 PUSH4 0x715018A6 EQ PUSH2 0x23B JUMPI PUSH2 0x142 JUMP JUMPDEST DUP1 PUSH4 0x9FC72AA EQ PUSH2 0x147 JUMPI DUP1 PUSH4 0x12320BCA EQ PUSH2 0x170 JUMPI DUP1 PUSH4 0x2A2925C2 EQ PUSH2 0x185 JUMPI DUP1 PUSH4 0x30D33F80 EQ PUSH2 0x1A5 JUMPI DUP1 PUSH4 0x3B94A42B EQ PUSH2 0x1C5 JUMPI JUMPDEST PUSH1 0x0 DUP1 REVERT JUMPDEST PUSH2 0x15A PUSH2 0x155 CALLDATASIZE PUSH1 0x4 PUSH2 0x2316 JUMP JUMPDEST PUSH2 0x300 JUMP JUMPDEST PUSH1 0x40 MLOAD PUSH2 0x167 SWAP2 SWAP1 PUSH2 0x2A92 JUMP JUMPDEST PUSH1 0x40 MLOAD DUP1 SWAP2 SUB SWAP1 RETURN JUMPDEST PUSH2 0x183 PUSH2 0x17E CALLDATASIZE PUSH1 0x4 PUSH2 0x2485 JUMP JUMPDEST PUSH2 0x3FF JUMP JUMPDEST STOP JUMPDEST PUSH2 0x198 PUSH2 0x193 CALLDATASIZE PUSH1 0x4 PUSH2 0x23D3 JUMP JUMPDEST PUSH2 0x51B JUMP JUMPDEST PUSH1 0x40 MLOAD PUSH2 0x167 SWAP2 SWAP1 PUSH2 0x279D JUMP JUMPDEST PUSH2 0x1B8 PUSH2 0x1B3 CALLDATASIZE PUSH1 0x4 PUSH2 0x2438 JUMP JUMPDEST PUSH2 0x6C0 JUMP JUMPDEST PUSH1 0x40 MLOAD PUSH2 0x167 SWAP2 SWAP1 PUSH2 0x273D JUMP JUMPDEST PUSH2 0x198 PUSH2 0x1D3 CALLDATASIZE PUSH1 0x4 PUSH2 0x2417 JUMP JUMPDEST PUSH2 0x929 JUMP JUMPDEST PUSH2 0x183 PUSH2 0xBA6 JUMP JUMPDEST PUSH2 0x183 PUSH2 0x1EE CALLDATASIZE PUSH1 0x4 PUSH2 0x2417 JUMP JUMPDEST PUSH2 0xBE5 JUMP JUMPDEST PUSH2 0x206 PUSH2 0x201 CALLDATASIZE PUSH1 0x4 PUSH2 0x21D4 JUMP JUMPDEST PUSH2 0xCC8 JUMP JUMPDEST PUSH1 0x40 MLOAD PUSH2 0x167 SWAP2 SWAP1 PUSH2 0x27B0 JUMP JUMPDEST PUSH2 0x21B PUSH2 0x1215 JUMP JUMPDEST PUSH1 0x40 MLOAD PUSH2 0x167 SWAP2 SWAP1 PUSH2 0x27FB JUMP JUMPDEST PUSH2 0x15A PUSH2 0x236 CALLDATASIZE PUSH1 0x4 PUSH2 0x2417 JUMP JUMPDEST PUSH2 0x1225 JUMP JUMPDEST PUSH2 0x183 PUSH2 0x1331 JUMP JUMPDEST PUSH2 0x15A PUSH2 0x251 CALLDATASIZE PUSH1 0x4 PUSH2 0x2316 JUMP JUMPDEST PUSH2 0x13B0 JUMP JUMPDEST PUSH2 0x183 PUSH2 0x1470 JUMP JUMPDEST PUSH2 0x266 PUSH2 0x14AD JUMP JUMPDEST PUSH1 0x40 MLOAD PUSH2 0x167 SWAP2 SWAP1 PUSH2 0x267E JUMP JUMPDEST PUSH2 0x15A PUSH2 0x281 CALLDATASIZE PUSH1 0x4 PUSH2 0x2316 JUMP JUMPDEST PUSH2 0x14BC JUMP JUMPDEST PUSH2 0x183 PUSH2 0x294 CALLDATASIZE PUSH1 0x4 PUSH2 0x2346 JUMP JUMPDEST PUSH2 0x157C JUMP JUMPDEST PUSH2 0x183 PUSH2 0x2A7 CALLDATASIZE PUSH1 0x4 PUSH2 0x21D4 JUMP JUMPDEST PUSH2 0x1767 JUMP JUMPDEST PUSH2 0x183 PUSH2 0x2BA CALLDATASIZE PUSH1 0x4 PUSH2 0x2417 JUMP JUMPDEST PUSH2 0x17BE JUMP JUMPDEST PUSH2 0x198 PUSH2 0x2CD CALLDATASIZE PUSH1 0x4 PUSH2 0x24D9 JUMP JUMPDEST PUSH2 0x1895 JUMP JUMPDEST PUSH2 0x266 PUSH2 0x1ACB JUMP JUMPDEST PUSH2 0x15A PUSH2 0x2E8 CALLDATASIZE PUSH1 0x4 PUSH2 0x2417 JUMP JUMPDEST PUSH2 0x1ADA JUMP JUMPDEST PUSH2 0x183 PUSH2 0x2FB CALLDATASIZE PUSH1 0x4 PUSH2 0x21D4 JUMP JUMPDEST PUSH2 0x1B8E JUMP JUMPDEST PUSH1 0x1 SLOAD PUSH1 0x40 MLOAD PUSH4 0x46327525 PUSH1 0xE1 SHL DUP2 MSTORE PUSH1 0x0 SWAP2 DUP3 SWAP2 PUSH1 0x1 PUSH1 0x1 PUSH1 0xA0 SHL SUB SWAP1 SWAP2 AND SWAP1 PUSH4 0x8C64EA4A SWAP1 PUSH2 0x335 SWAP1 DUP7 SWAP1 PUSH1 0x4 ADD PUSH2 0x2A92 JUMP JUMPDEST PUSH1 0x20 PUSH1 0x40 MLOAD DUP1 DUP4 SUB DUP2 DUP7 DUP1 EXTCODESIZE ISZERO DUP1 ISZERO PUSH2 0x34D JUMPI PUSH1 0x0 DUP1 REVERT JUMPDEST POP GAS STATICCALL ISZERO DUP1 ISZERO PUSH2 0x361 JUMPI RETURNDATASIZE PUSH1 0x0 DUP1 RETURNDATACOPY RETURNDATASIZE PUSH1 0x0 REVERT JUMPDEST POP POP POP POP PUSH1 0x40 MLOAD RETURNDATASIZE PUSH1 0x1F NOT PUSH1 0x1F DUP3 ADD AND DUP3 ADD DUP1 PUSH1 0x40 MSTORE POP DUP2 ADD SWAP1 PUSH2 0x385 SWAP2 SWAP1 PUSH2 0x21F0 JUMP JUMPDEST SWAP1 POP DUP1 PUSH1 0x1 PUSH1 0x1 PUSH1 0xA0 SHL SUB AND PUSH4 0x198E4CE6 PUSH1 0x40 MLOAD DUP2 PUSH4 0xFFFFFFFF AND PUSH1 0xE0 SHL DUP2 MSTORE PUSH1 0x4 ADD PUSH1 0x20 PUSH1 0x40 MLOAD DUP1 DUP4 SUB DUP2 DUP7 DUP1 EXTCODESIZE ISZERO DUP1 ISZERO PUSH2 0x3C0 JUMPI PUSH1 0x0 DUP1 REVERT JUMPDEST POP GAS STATICCALL ISZERO DUP1 ISZERO PUSH2 0x3D4 JUMPI RETURNDATASIZE PUSH1 0x0 DUP1 RETURNDATACOPY RETURNDATASIZE PUSH1 0x0 REVERT JUMPDEST POP POP POP POP PUSH1 0x40 MLOAD RETURNDATASIZE PUSH1 0x1F NOT PUSH1 0x1F DUP3 ADD AND DUP3 ADD DUP1 PUSH1 0x40 MSTORE POP DUP2 ADD SWAP1 PUSH2 0x3F8 SWAP2 SWAP1 PUSH2 0x232E JUMP JUMPDEST SWAP4 SWAP3 POP POP POP JUMP JUMPDEST PUSH1 0x0 SLOAD PUSH1 0x1 PUSH1 0xA0 SHL SWAP1 DIV PUSH1 0xFF AND ISZERO PUSH2 0x432 JUMPI PUSH1 0x40 MLOAD PUSH3 0x461BCD PUSH1 0xE5 SHL DUP2 MSTORE PUSH1 0x4 ADD PUSH2 0x429 SWAP1 PUSH2 0x2904 JUMP JUMPDEST PUSH1 0x40 MLOAD DUP1 SWAP2 SUB SWAP1 REVERT JUMPDEST PUSH1 0x1 SLOAD PUSH1 0x40 MLOAD PUSH4 0x46327525 PUSH1 0xE1 SHL DUP2 MSTORE PUSH1 0x1 PUSH1 0x1 PUSH1 0xA0 SHL SUB SWAP1 SWAP2 AND SWAP1 PUSH4 0x8C64EA4A SWAP1 PUSH2 0x462 SWAP1 DUP8 SWAP1 PUSH1 0x4 ADD PUSH2 0x2A92 JUMP JUMPDEST PUSH1 0x20 PUSH1 0x40 MLOAD DUP1 DUP4 SUB DUP2 DUP7 DUP1 EXTCODESIZE ISZERO DUP1 ISZERO PUSH2 0x47A JUMPI PUSH1 0x0 DUP1 REVERT JUMPDEST POP GAS STATICCALL ISZERO DUP1 ISZERO PUSH2 0x48E JUMPI RETURNDATASIZE PUSH1 0x0 DUP1 RETURNDATACOPY RETURNDATASIZE PUSH1 0x0 REVERT JUMPDEST POP POP POP POP PUSH1 0x40 MLOAD RETURNDATASIZE PUSH1 0x1F NOT PUSH1 0x1F DUP3 ADD AND DUP3 ADD DUP1 PUSH1 0x40 MSTORE POP DUP2 ADD SWAP1 PUSH2 0x4B2 SWAP2 SWAP1 PUSH2 0x21F0 JUMP JUMPDEST PUSH1 0x1 PUSH1 0x1 PUSH1 0xA0 SHL SUB AND PUSH4 0x594A2B3E CALLER DUP6 DUP6 DUP6 PUSH1 0x40 MLOAD DUP6 PUSH4 0xFFFFFFFF AND PUSH1 0xE0 SHL DUP2 MSTORE PUSH1 0x4 ADD PUSH2 0x4E3 SWAP5 SWAP4 SWAP3 SWAP2 SWAP1 PUSH2 0x2700 JUMP JUMPDEST PUSH1 0x0 PUSH1 0x40 MLOAD DUP1 DUP4 SUB DUP2 PUSH1 0x0 DUP8 DUP1 EXTCODESIZE ISZERO DUP1 ISZERO PUSH2 0x4FD JUMPI PUSH1 0x0 DUP1 REVERT JUMPDEST POP GAS CALL ISZERO DUP1 ISZERO PUSH2 0x511 JUMPI RETURNDATASIZE PUSH1 0x0 DUP1 RETURNDATACOPY RETURNDATASIZE PUSH1 0x0 REVERT JUMPDEST POP POP POP POP POP POP POP POP JUMP JUMPDEST PUSH1 0x1 SLOAD PUSH1 0x40 MLOAD PUSH4 0x46327525 PUSH1 0xE1 SHL DUP2 MSTORE PUSH1 0x60 SWAP2 PUSH1 0x0 SWAP2 PUSH1 0x1 PUSH1 0x1 PUSH1 0xA0 SHL SUB SWAP1 SWAP2 AND SWAP1 PUSH4 0x8C64EA4A SWAP1 PUSH2 0x551 SWAP1 DUP8 SWAP1 PUSH1 0x4 ADD PUSH2 0x2A92 JUMP JUMPDEST PUSH1 0x20 PUSH1 0x40 MLOAD DUP1 DUP4 SUB DUP2 DUP7 DUP1 EXTCODESIZE ISZERO DUP1 ISZERO PUSH2 0x569 JUMPI PUSH1 0x0 DUP1 REVERT JUMPDEST POP GAS STATICCALL ISZERO DUP1 ISZERO PUSH2 0x57D JUMPI RETURNDATASIZE PUSH1 0x0 DUP1 RETURNDATACOPY RETURNDATASIZE PUSH1 0x0 REVERT JUMPDEST POP POP POP POP PUSH1 0x40 MLOAD RETURNDATASIZE PUSH1 0x1F NOT PUSH1 0x1F DUP3 ADD AND DUP3 ADD DUP1 PUSH1 0x40 MSTORE POP DUP2 ADD SWAP1 PUSH2 0x5A1 SWAP2 SWAP1 PUSH2 0x21F0 JUMP JUMPDEST SWAP1 POP PUSH1 0x60 DUP4 MLOAD PUSH1 0x1 PUSH1 0x1 PUSH1 0x40 SHL SUB DUP2 GT DUP1 ISZERO PUSH2 0x5BC JUMPI PUSH1 0x0 DUP1 REVERT JUMPDEST POP PUSH1 0x40 MLOAD SWAP1 DUP1 DUP3 MSTORE DUP1 PUSH1 0x20 MUL PUSH1 0x20 ADD DUP3 ADD PUSH1 0x40 MSTORE DUP1 ISZERO PUSH2 0x5F6 JUMPI DUP2 PUSH1 0x20 ADD JUMPDEST PUSH2 0x5E3 PUSH2 0x1F52 JUMP JUMPDEST DUP2 MSTORE PUSH1 0x20 ADD SWAP1 PUSH1 0x1 SWAP1 SUB SWAP1 DUP2 PUSH2 0x5DB JUMPI SWAP1 POP JUMPDEST POP SWAP1 POP PUSH1 0x0 JUMPDEST DUP5 MLOAD DUP2 LT ISZERO PUSH2 0x6B7 JUMPI DUP3 PUSH1 0x1 PUSH1 0x1 PUSH1 0xA0 SHL SUB AND PUSH4 0x21603F43 DUP7 DUP4 DUP2 MLOAD DUP2 LT PUSH2 0x620 JUMPI INVALID JUMPDEST PUSH1 0x20 MUL PUSH1 0x20 ADD ADD MLOAD PUSH1 0x40 MLOAD DUP3 PUSH4 0xFFFFFFFF AND PUSH1 0xE0 SHL DUP2 MSTORE PUSH1 0x4 ADD PUSH2 0x644 SWAP2 SWAP1 PUSH2 0x2A92 JUMP JUMPDEST PUSH1 0x0 PUSH1 0x40 MLOAD DUP1 DUP4 SUB DUP2 DUP7 DUP1 EXTCODESIZE ISZERO DUP1 ISZERO PUSH2 0x65C JUMPI PUSH1 0x0 DUP1 REVERT JUMPDEST POP GAS STATICCALL ISZERO DUP1 ISZERO PUSH2 0x670 JUMPI RETURNDATASIZE PUSH1 0x0 DUP1 RETURNDATACOPY RETURNDATASIZE PUSH1 0x0 REVERT JUMPDEST POP POP POP POP PUSH1 0x40 MLOAD RETURNDATASIZE PUSH1 0x0 DUP3 RETURNDATACOPY PUSH1 0x1F RETURNDATASIZE SWAP1 DUP2 ADD PUSH1 0x1F NOT AND DUP3 ADD PUSH1 0x40 MSTORE PUSH2 0x698 SWAP2 SWAP1 DUP2 ADD SWAP1 PUSH2 0x225E JUMP JUMPDEST DUP3 DUP3 DUP2 MLOAD DUP2 LT PUSH2 0x6A4 JUMPI INVALID JUMPDEST PUSH1 0x20 SWAP1 DUP2 MUL SWAP2 SWAP1 SWAP2 ADD ADD MSTORE PUSH1 0x1 ADD PUSH2 0x5FC JUMP JUMPDEST POP SWAP5 SWAP4 POP POP POP POP JUMP JUMPDEST PUSH1 0x1 SLOAD PUSH1 0x40 MLOAD PUSH4 0x46327525 PUSH1 0xE1 SHL DUP2 MSTORE PUSH1 0x60 SWAP2 PUSH1 0x0 SWAP2 PUSH1 0x1 PUSH1 0x1 PUSH1 0xA0 SHL SUB SWAP1 SWAP2 AND SWAP1 PUSH4 0x8C64EA4A SWAP1 PUSH2 0x6F6 SWAP1 DUP9 SWAP1 PUSH1 0x4 ADD PUSH2 0x2A92 JUMP JUMPDEST PUSH1 0x20 PUSH1 0x40 MLOAD DUP1 DUP4 SUB DUP2 DUP7 DUP1 EXTCODESIZE ISZERO DUP1 ISZERO PUSH2 0x70E JUMPI PUSH1 0x0 DUP1 REVERT JUMPDEST POP GAS STATICCALL ISZERO DUP1 ISZERO PUSH2 0x722 JUMPI RETURNDATASIZE PUSH1 0x0 DUP1 RETURNDATACOPY RETURNDATASIZE PUSH1 0x0 REVERT JUMPDEST POP POP POP POP PUSH1 0x40 MLOAD RETURNDATASIZE PUSH1 0x1F NOT PUSH1 0x1F DUP3 ADD AND DUP3 ADD DUP1 PUSH1 0x40 MSTORE POP DUP2 ADD SWAP1 PUSH2 0x746 SWAP2 SWAP1 PUSH2 0x21F0 JUMP JUMPDEST SWAP1 POP DUP1 PUSH1 0x1 PUSH1 0x1 PUSH1 0xA0 SHL SUB AND PUSH4 0xD082E381 PUSH1 0x40 MLOAD DUP2 PUSH4 0xFFFFFFFF AND PUSH1 0xE0 SHL DUP2 MSTORE PUSH1 0x4 ADD PUSH1 0x20 PUSH1 0x40 MLOAD DUP1 DUP4 SUB DUP2 DUP7 DUP1 EXTCODESIZE ISZERO DUP1 ISZERO PUSH2 0x781 JUMPI PUSH1 0x0 DUP1 REVERT JUMPDEST POP GAS STATICCALL ISZERO DUP1 ISZERO PUSH2 0x795 JUMPI RETURNDATASIZE PUSH1 0x0 DUP1 RETURNDATACOPY RETURNDATASIZE PUSH1 0x0 REVERT JUMPDEST POP POP POP POP PUSH1 0x40 MLOAD RETURNDATASIZE PUSH1 0x1F NOT PUSH1 0x1F DUP3 ADD AND DUP3 ADD DUP1 PUSH1 0x40 MSTORE POP DUP2 ADD SWAP1 PUSH2 0x7B9 SWAP2 SWAP1 PUSH2 0x232E JUMP JUMPDEST DUP5 GT ISZERO PUSH2 0x7D8 JUMPI PUSH1 0x40 MLOAD PUSH3 0x461BCD PUSH1 0xE5 SHL DUP2 MSTORE PUSH1 0x4 ADD PUSH2 0x429 SWAP1 PUSH2 0x29AB JUMP JUMPDEST PUSH1 0x60 DUP4 MLOAD PUSH1 0x1 PUSH1 0x1 PUSH1 0x40 SHL SUB DUP2 GT DUP1 ISZERO PUSH2 0x7F1 JUMPI PUSH1 0x0 DUP1 REVERT JUMPDEST POP PUSH1 0x40 MLOAD SWAP1 DUP1 DUP3 MSTORE DUP1 PUSH1 0x20 MUL PUSH1 0x20 ADD DUP3 ADD PUSH1 0x40 MSTORE DUP1 ISZERO PUSH2 0x825 JUMPI DUP2 PUSH1 0x20 ADD JUMPDEST PUSH1 0x60 DUP2 MSTORE PUSH1 0x20 ADD SWAP1 PUSH1 0x1 SWAP1 SUB SWAP1 DUP2 PUSH2 0x810 JUMPI SWAP1 POP JUMPDEST POP SWAP1 POP PUSH1 0x0 JUMPDEST DUP5 MLOAD DUP2 LT ISZERO PUSH2 0x91F JUMPI PUSH1 0x40 MLOAD PUSH4 0x4FE8CEC9 PUSH1 0xE1 SHL DUP2 MSTORE PUSH1 0x1 PUSH1 0x1 PUSH1 0xA0 SHL SUB DUP5 AND SWAP1 PUSH4 0x9FD19D92 SWAP1 PUSH2 0x860 SWAP1 DUP10 SWAP1 PUSH1 0x4 ADD PUSH2 0x2A92 JUMP JUMPDEST PUSH1 0x20 PUSH1 0x40 MLOAD DUP1 DUP4 SUB DUP2 DUP7 DUP1 EXTCODESIZE ISZERO DUP1 ISZERO PUSH2 0x878 JUMPI PUSH1 0x0 DUP1 REVERT JUMPDEST POP GAS STATICCALL ISZERO DUP1 ISZERO PUSH2 0x88C JUMPI RETURNDATASIZE PUSH1 0x0 DUP1 RETURNDATACOPY RETURNDATASIZE PUSH1 0x0 REVERT JUMPDEST POP POP POP POP PUSH1 0x40 MLOAD RETURNDATASIZE PUSH1 0x1F NOT PUSH1 0x1F DUP3 ADD AND DUP3 ADD DUP1 PUSH1 0x40 MSTORE POP DUP2 ADD SWAP1 PUSH2 0x8B0 SWAP2 SWAP1 PUSH2 0x232E JUMP JUMPDEST DUP6 DUP3 DUP2 MLOAD DUP2 LT PUSH2 0x8BC JUMPI INVALID JUMPDEST PUSH1 0x20 MUL PUSH1 0x20 ADD ADD MLOAD GT ISZERO PUSH2 0x8E2 JUMPI PUSH1 0x40 MLOAD PUSH3 0x461BCD PUSH1 0xE5 SHL DUP2 MSTORE PUSH1 0x4 ADD PUSH2 0x429 SWAP1 PUSH2 0x292E JUMP JUMPDEST PUSH2 0x900 DUP4 DUP8 DUP8 DUP5 DUP2 MLOAD DUP2 LT PUSH2 0x8F3 JUMPI INVALID JUMPDEST PUSH1 0x20 MUL PUSH1 0x20 ADD ADD MLOAD PUSH2 0x1C44 JUMP JUMPDEST DUP3 DUP3 DUP2 MLOAD DUP2 LT PUSH2 0x90C JUMPI INVALID JUMPDEST PUSH1 0x20 SWAP1 DUP2 MUL SWAP2 SWAP1 SWAP2 ADD ADD MSTORE PUSH1 0x1 ADD PUSH2 0x82B JUMP JUMPDEST POP SWAP6 SWAP5 POP POP POP POP POP JUMP JUMPDEST PUSH1 0x1 SLOAD PUSH1 0x40 MLOAD PUSH4 0x46327525 PUSH1 0xE1 SHL DUP2 MSTORE PUSH1 0x60 SWAP2 PUSH1 0x0 SWAP2 PUSH1 0x1 PUSH1 0x1 PUSH1 0xA0 SHL SUB SWAP1 SWAP2 AND SWAP1 PUSH4 0x8C64EA4A SWAP1 PUSH2 0x95F SWAP1 DUP8 SWAP1 PUSH1 0x4 ADD PUSH2 0x2A92 JUMP JUMPDEST PUSH1 0x20 PUSH1 0x40 MLOAD DUP1 DUP4 SUB DUP2 DUP7 DUP1 EXTCODESIZE ISZERO DUP1 ISZERO PUSH2 0x977 JUMPI PUSH1 0x0 DUP1 REVERT JUMPDEST POP GAS STATICCALL ISZERO DUP1 ISZERO PUSH2 0x98B JUMPI RETURNDATASIZE PUSH1 0x0 DUP1 RETURNDATACOPY RETURNDATASIZE PUSH1 0x0 REVERT JUMPDEST POP POP POP POP PUSH1 0x40 MLOAD RETURNDATASIZE PUSH1 0x1F NOT PUSH1 0x1F DUP3 ADD AND DUP3 ADD DUP1 PUSH1 0x40 MSTORE POP DUP2 ADD SWAP1 PUSH2 0x9AF SWAP2 SWAP1 PUSH2 0x21F0 JUMP JUMPDEST SWAP1 POP PUSH1 0x0 DUP2 PUSH1 0x1 PUSH1 0x1 PUSH1 0xA0 SHL SUB AND PUSH4 0x1BF744DB DUP6 PUSH1 0x40 MLOAD DUP3 PUSH4 0xFFFFFFFF AND PUSH1 0xE0 SHL DUP2 MSTORE PUSH1 0x4 ADD PUSH2 0x9DF SWAP2 SWAP1 PUSH2 0x2A92 JUMP JUMPDEST PUSH1 0x20 PUSH1 0x40 MLOAD DUP1 DUP4 SUB DUP2 DUP7 DUP1 EXTCODESIZE ISZERO DUP1 ISZERO PUSH2 0x9F7 JUMPI PUSH1 0x0 DUP1 REVERT JUMPDEST POP GAS STATICCALL ISZERO DUP1 ISZERO PUSH2 0xA0B JUMPI RETURNDATASIZE PUSH1 0x0 DUP1 RETURNDATACOPY RETURNDATASIZE PUSH1 0x0 REVERT JUMPDEST POP POP POP POP PUSH1 0x40 MLOAD RETURNDATASIZE PUSH1 0x1F NOT PUSH1 0x1F DUP3 ADD AND DUP3 ADD DUP1 PUSH1 0x40 MSTORE POP DUP2 ADD SWAP1 PUSH2 0xA2F SWAP2 SWAP1 PUSH2 0x232E JUMP JUMPDEST SWAP1 POP PUSH1 0x60 DUP2 PUSH1 0x1 PUSH1 0x1 PUSH1 0x40 SHL SUB DUP2 GT DUP1 ISZERO PUSH2 0xA49 JUMPI PUSH1 0x0 DUP1 REVERT JUMPDEST POP PUSH1 0x40 MLOAD SWAP1 DUP1 DUP3 MSTORE DUP1 PUSH1 0x20 MUL PUSH1 0x20 ADD DUP3 ADD PUSH1 0x40 MSTORE DUP1 ISZERO PUSH2 0xA83 JUMPI DUP2 PUSH1 0x20 ADD JUMPDEST PUSH2 0xA70 PUSH2 0x1F52 JUMP JUMPDEST DUP2 MSTORE PUSH1 0x20 ADD SWAP1 PUSH1 0x1 SWAP1 SUB SWAP1 DUP2 PUSH2 0xA68 JUMPI SWAP1 POP JUMPDEST POP SWAP1 POP PUSH1 0x0 JUMPDEST DUP3 DUP2 LT ISZERO PUSH2 0x91F JUMPI PUSH1 0x40 MLOAD PUSH4 0x915B9859 PUSH1 0xE0 SHL DUP2 MSTORE PUSH1 0x1 PUSH1 0x1 PUSH1 0xA0 SHL SUB DUP6 AND SWAP1 PUSH4 0x21603F43 SWAP1 DUP3 SWAP1 PUSH4 0x915B9859 SWAP1 PUSH2 0xAC7 SWAP1 DUP12 SWAP1 DUP8 SWAP1 PUSH1 0x4 ADD PUSH2 0x2A9B JUMP JUMPDEST PUSH1 0x20 PUSH1 0x40 MLOAD DUP1 DUP4 SUB DUP2 DUP7 DUP1 EXTCODESIZE ISZERO DUP1 ISZERO PUSH2 0xADF JUMPI PUSH1 0x0 DUP1 REVERT JUMPDEST POP GAS STATICCALL ISZERO DUP1 ISZERO PUSH2 0xAF3 JUMPI RETURNDATASIZE PUSH1 0x0 DUP1 RETURNDATACOPY RETURNDATASIZE PUSH1 0x0 REVERT JUMPDEST POP POP POP POP PUSH1 0x40 MLOAD RETURNDATASIZE PUSH1 0x1F NOT PUSH1 0x1F DUP3 ADD AND DUP3 ADD DUP1 PUSH1 0x40 MSTORE POP DUP2 ADD SWAP1 PUSH2 0xB17 SWAP2 SWAP1 PUSH2 0x232E JUMP JUMPDEST PUSH1 0x40 MLOAD DUP3 PUSH4 0xFFFFFFFF AND PUSH1 0xE0 SHL DUP2 MSTORE PUSH1 0x4 ADD PUSH2 0xB33 SWAP2 SWAP1 PUSH2 0x2A92 JUMP JUMPDEST PUSH1 0x0 PUSH1 0x40 MLOAD DUP1 DUP4 SUB DUP2 DUP7 DUP1 EXTCODESIZE ISZERO DUP1 ISZERO PUSH2 0xB4B JUMPI PUSH1 0x0 DUP1 REVERT JUMPDEST POP GAS STATICCALL ISZERO DUP1 ISZERO PUSH2 0xB5F JUMPI RETURNDATASIZE PUSH1 0x0 DUP1 RETURNDATACOPY RETURNDATASIZE PUSH1 0x0 REVERT JUMPDEST POP POP POP POP PUSH1 0x40 MLOAD RETURNDATASIZE PUSH1 0x0 DUP3 RETURNDATACOPY PUSH1 0x1F RETURNDATASIZE SWAP1 DUP2 ADD PUSH1 0x1F NOT AND DUP3 ADD PUSH1 0x40 MSTORE PUSH2 0xB87 SWAP2 SWAP1 DUP2 ADD SWAP1 PUSH2 0x225E JUMP JUMPDEST DUP3 DUP3 DUP2 MLOAD DUP2 LT PUSH2 0xB93 JUMPI INVALID JUMPDEST PUSH1 0x20 SWAP1 DUP2 MUL SWAP2 SWAP1 SWAP2 ADD ADD MSTORE PUSH1 0x1 ADD PUSH2 0xA89 JUMP JUMPDEST PUSH2 0xBAE PUSH2 0x1DDF JUMP JUMPDEST PUSH1 0x0 SLOAD PUSH1 0x1 PUSH1 0x1 PUSH1 0xA0 SHL SUB SWAP1 DUP2 AND SWAP2 AND EQ PUSH2 0xBDB JUMPI PUSH1 0x40 MLOAD PUSH3 0x461BCD PUSH1 0xE5 SHL DUP2 MSTORE PUSH1 0x4 ADD PUSH2 0x429 SWAP1 PUSH2 0x2976 JUMP JUMPDEST PUSH2 0xBE3 PUSH2 0x1DE3 JUMP JUMPDEST JUMP JUMPDEST PUSH1 0x1 SLOAD PUSH1 0x40 MLOAD PUSH4 0x46327525 PUSH1 0xE1 SHL DUP2 MSTORE PUSH1 0x1 PUSH1 0x1 PUSH1 0xA0 SHL SUB SWAP1 SWAP2 AND SWAP1 PUSH4 0x8C64EA4A SWAP1 PUSH2 0xC15 SWAP1 DUP6 SWAP1 PUSH1 0x4 ADD PUSH2 0x2A92 JUMP JUMPDEST PUSH1 0x20 PUSH1 0x40 MLOAD DUP1 DUP4 SUB DUP2 DUP7 DUP1 EXTCODESIZE ISZERO DUP1 ISZERO PUSH2 0xC2D JUMPI PUSH1 0x0 DUP1 REVERT JUMPDEST POP GAS STATICCALL ISZERO DUP1 ISZERO PUSH2 0xC41 JUMPI RETURNDATASIZE PUSH1 0x0 DUP1 RETURNDATACOPY RETURNDATASIZE PUSH1 0x0 REVERT JUMPDEST POP POP POP POP PUSH1 0x40 MLOAD RETURNDATASIZE PUSH1 0x1F NOT PUSH1 0x1F DUP3 ADD AND DUP3 ADD DUP1 PUSH1 0x40 MSTORE POP DUP2 ADD SWAP1 PUSH2 0xC65 SWAP2 SWAP1 PUSH2 0x21F0 JUMP JUMPDEST PUSH1 0x1 PUSH1 0x1 PUSH1 0xA0 SHL SUB AND PUSH4 0xF3FEF3A3 CALLER DUP4 PUSH1 0x40 MLOAD DUP4 PUSH4 0xFFFFFFFF AND PUSH1 0xE0 SHL DUP2 MSTORE PUSH1 0x4 ADD PUSH2 0xC92 SWAP3 SWAP2 SWAP1 PUSH2 0x26E7 JUMP JUMPDEST PUSH1 0x0 PUSH1 0x40 MLOAD DUP1 DUP4 SUB DUP2 PUSH1 0x0 DUP8 DUP1 EXTCODESIZE ISZERO DUP1 ISZERO PUSH2 0xCAC JUMPI PUSH1 0x0 DUP1 REVERT JUMPDEST POP GAS CALL ISZERO DUP1 ISZERO PUSH2 0xCC0 JUMPI RETURNDATASIZE PUSH1 0x0 DUP1 RETURNDATACOPY RETURNDATASIZE PUSH1 0x0 REVERT JUMPDEST POP POP POP POP POP POP JUMP JUMPDEST PUSH1 0x60 PUSH1 0x0 DUP1 JUMPDEST PUSH1 0x1 PUSH1 0x0 SWAP1 SLOAD SWAP1 PUSH2 0x100 EXP SWAP1 DIV PUSH1 0x1 PUSH1 0x1 PUSH1 0xA0 SHL SUB AND PUSH1 0x1 PUSH1 0x1 PUSH1 0xA0 SHL SUB AND PUSH4 0x82AF54C9 PUSH1 0x40 MLOAD DUP2 PUSH4 0xFFFFFFFF AND PUSH1 0xE0 SHL DUP2 MSTORE PUSH1 0x4 ADD PUSH1 0x20 PUSH1 0x40 MLOAD DUP1 DUP4 SUB DUP2 DUP7 DUP1 EXTCODESIZE ISZERO DUP1 ISZERO PUSH2 0xD1C JUMPI PUSH1 0x0 DUP1 REVERT JUMPDEST POP GAS STATICCALL ISZERO DUP1 ISZERO PUSH2 0xD30 JUMPI RETURNDATASIZE PUSH1 0x0 DUP1 RETURNDATACOPY RETURNDATASIZE PUSH1 0x0 REVERT JUMPDEST POP POP POP POP PUSH1 0x40 MLOAD RETURNDATASIZE PUSH1 0x1F NOT PUSH1 0x1F DUP3 ADD AND DUP3 ADD DUP1 PUSH1 0x40 MSTORE POP DUP2 ADD SWAP1 PUSH2 0xD54 SWAP2 SWAP1 PUSH2 0x232E JUMP JUMPDEST DUP2 LT ISZERO PUSH2 0xE62 JUMPI PUSH1 0x1 SLOAD PUSH1 0x40 MLOAD PUSH4 0x46327525 PUSH1 0xE1 SHL DUP2 MSTORE PUSH1 0x1 PUSH1 0x1 PUSH1 0xA0 SHL SUB SWAP1 SWAP2 AND SWAP1 PUSH4 0x8C64EA4A SWAP1 PUSH2 0xD8B SWAP1 DUP5 SWAP1 PUSH1 0x4 ADD PUSH2 0x2A92 JUMP JUMPDEST PUSH1 0x20 PUSH1 0x40 MLOAD DUP1 DUP4 SUB DUP2 DUP7 DUP1 EXTCODESIZE ISZERO DUP1 ISZERO PUSH2 0xDA3 JUMPI PUSH1 0x0 DUP1 REVERT JUMPDEST POP GAS STATICCALL ISZERO DUP1 ISZERO PUSH2 0xDB7 JUMPI RETURNDATASIZE PUSH1 0x0 DUP1 RETURNDATACOPY RETURNDATASIZE PUSH1 0x0 REVERT JUMPDEST POP POP POP POP PUSH1 0x40 MLOAD RETURNDATASIZE PUSH1 0x1F NOT PUSH1 0x1F DUP3 ADD AND DUP3 ADD DUP1 PUSH1 0x40 MSTORE POP DUP2 ADD SWAP1 PUSH2 0xDDB SWAP2 SWAP1 PUSH2 0x21F0 JUMP JUMPDEST PUSH1 0x1 PUSH1 0x1 PUSH1 0xA0 SHL SUB AND PUSH4 0x70A08231 DUP6 PUSH1 0x40 MLOAD DUP3 PUSH4 0xFFFFFFFF AND PUSH1 0xE0 SHL DUP2 MSTORE PUSH1 0x4 ADD PUSH2 0xE06 SWAP2 SWAP1 PUSH2 0x267E JUMP JUMPDEST PUSH1 0x20 PUSH1 0x40 MLOAD DUP1 DUP4 SUB DUP2 DUP7 DUP1 EXTCODESIZE ISZERO DUP1 ISZERO PUSH2 0xE1E JUMPI PUSH1 0x0 DUP1 REVERT JUMPDEST POP GAS STATICCALL ISZERO DUP1 ISZERO PUSH2 0xE32 JUMPI RETURNDATASIZE PUSH1 0x0 DUP1 RETURNDATACOPY RETURNDATASIZE PUSH1 0x0 REVERT JUMPDEST POP POP POP POP PUSH1 0x40 MLOAD RETURNDATASIZE PUSH1 0x1F NOT PUSH1 0x1F DUP3 ADD AND DUP3 ADD DUP1 PUSH1 0x40 MSTORE POP DUP2 ADD SWAP1 PUSH2 0xE56 SWAP2 SWAP1 PUSH2 0x232E JUMP JUMPDEST SWAP1 SWAP2 ADD SWAP1 PUSH1 0x1 ADD PUSH2 0xCCE JUMP JUMPDEST POP PUSH1 0x60 DUP2 PUSH1 0x1 PUSH1 0x1 PUSH1 0x40 SHL SUB DUP2 GT DUP1 ISZERO PUSH2 0xE7B JUMPI PUSH1 0x0 DUP1 REVERT JUMPDEST POP PUSH1 0x40 MLOAD SWAP1 DUP1 DUP3 MSTORE DUP1 PUSH1 0x20 MUL PUSH1 0x20 ADD DUP3 ADD PUSH1 0x40 MSTORE DUP1 ISZERO PUSH2 0xEB5 JUMPI DUP2 PUSH1 0x20 ADD JUMPDEST PUSH2 0xEA2 PUSH2 0x1F9B JUMP JUMPDEST DUP2 MSTORE PUSH1 0x20 ADD SWAP1 PUSH1 0x1 SWAP1 SUB SWAP1 DUP2 PUSH2 0xE9A JUMPI SWAP1 POP JUMPDEST POP SWAP1 POP PUSH1 0x0 DUP1 JUMPDEST PUSH1 0x1 PUSH1 0x0 SWAP1 SLOAD SWAP1 PUSH2 0x100 EXP SWAP1 DIV PUSH1 0x1 PUSH1 0x1 PUSH1 0xA0 SHL SUB AND PUSH1 0x1 PUSH1 0x1 PUSH1 0xA0 SHL SUB AND PUSH4 0x82AF54C9 PUSH1 0x40 MLOAD DUP2 PUSH4 0xFFFFFFFF AND PUSH1 0xE0 SHL DUP2 MSTORE PUSH1 0x4 ADD PUSH1 0x20 PUSH1 0x40 MLOAD DUP1 DUP4 SUB DUP2 DUP7 DUP1 EXTCODESIZE ISZERO DUP1 ISZERO PUSH2 0xF0A JUMPI PUSH1 0x0 DUP1 REVERT JUMPDEST POP GAS STATICCALL ISZERO DUP1 ISZERO PUSH2 0xF1E JUMPI RETURNDATASIZE PUSH1 0x0 DUP1 RETURNDATACOPY RETURNDATASIZE PUSH1 0x0 REVERT JUMPDEST POP POP POP POP PUSH1 0x40 MLOAD RETURNDATASIZE PUSH1 0x1F NOT PUSH1 0x1F DUP3 ADD AND DUP3 ADD DUP1 PUSH1 0x40 MSTORE POP DUP2 ADD SWAP1 PUSH2 0xF42 SWAP2 SWAP1 PUSH2 0x232E JUMP JUMPDEST DUP2 LT ISZERO PUSH2 0x120B JUMPI PUSH1 0x0 JUMPDEST PUSH1 0x1 SLOAD PUSH1 0x40 MLOAD PUSH4 0x46327525 PUSH1 0xE1 SHL DUP2 MSTORE PUSH1 0x1 PUSH1 0x1 PUSH1 0xA0 SHL SUB SWAP1 SWAP2 AND SWAP1 PUSH4 0x8C64EA4A SWAP1 PUSH2 0xF7C SWAP1 DUP6 SWAP1 PUSH1 0x4 ADD PUSH2 0x2A92 JUMP JUMPDEST PUSH1 0x20 PUSH1 0x40 MLOAD DUP1 DUP4 SUB DUP2 DUP7 DUP1 EXTCODESIZE ISZERO DUP1 ISZERO PUSH2 0xF94 JUMPI PUSH1 0x0 DUP1 REVERT JUMPDEST POP GAS STATICCALL ISZERO DUP1 ISZERO PUSH2 0xFA8 JUMPI RETURNDATASIZE PUSH1 0x0 DUP1 RETURNDATACOPY RETURNDATASIZE PUSH1 0x0 REVERT JUMPDEST POP POP POP POP PUSH1 0x40 MLOAD RETURNDATASIZE PUSH1 0x1F NOT PUSH1 0x1F DUP3 ADD AND DUP3 ADD DUP1 PUSH1 0x40 MSTORE POP DUP2 ADD SWAP1 PUSH2 0xFCC SWAP2 SWAP1 PUSH2 0x21F0 JUMP JUMPDEST PUSH1 0x1 PUSH1 0x1 PUSH1 0xA0 SHL SUB AND PUSH4 0x70A08231 DUP9 PUSH1 0x40 MLOAD DUP3 PUSH4 0xFFFFFFFF AND PUSH1 0xE0 SHL DUP2 MSTORE PUSH1 0x4 ADD PUSH2 0xFF7 SWAP2 SWAP1 PUSH2 0x267E JUMP JUMPDEST PUSH1 0x20 PUSH1 0x40 MLOAD DUP1 DUP4 SUB DUP2 DUP7 DUP1 EXTCODESIZE ISZERO DUP1 ISZERO PUSH2 0x100F JUMPI PUSH1 0x0 DUP1 REVERT JUMPDEST POP GAS STATICCALL ISZERO DUP1 ISZERO PUSH2 0x1023 JUMPI RETURNDATASIZE PUSH1 0x0 DUP1 RETURNDATACOPY RETURNDATASIZE PUSH1 0x0 REVERT JUMPDEST POP POP POP POP PUSH1 0x40 MLOAD RETURNDATASIZE PUSH1 0x1F NOT PUSH1 0x1F DUP3 ADD AND DUP3 ADD DUP1 PUSH1 0x40 MSTORE POP DUP2 ADD SWAP1 PUSH2 0x1047 SWAP2 SWAP1 PUSH2 0x232E JUMP JUMPDEST DUP2 LT ISZERO PUSH2 0x1202 JUMPI PUSH1 0x40 DUP1 MLOAD DUP1 DUP3 ADD SWAP2 DUP3 SWAP1 MSTORE PUSH1 0x1 SLOAD PUSH4 0x46327525 PUSH1 0xE1 SHL SWAP1 SWAP3 MSTORE SWAP1 DUP2 SWAP1 PUSH1 0x1 PUSH1 0x1 PUSH1 0xA0 SHL SUB AND PUSH4 0x8C64EA4A PUSH2 0x1085 DUP7 PUSH1 0x44 DUP6 ADD PUSH2 0x2A92 JUMP JUMPDEST PUSH1 0x20 PUSH1 0x40 MLOAD DUP1 DUP4 SUB DUP2 DUP7 DUP1 EXTCODESIZE ISZERO DUP1 ISZERO PUSH2 0x109D JUMPI PUSH1 0x0 DUP1 REVERT JUMPDEST POP GAS STATICCALL ISZERO DUP1 ISZERO PUSH2 0x10B1 JUMPI RETURNDATASIZE PUSH1 0x0 DUP1 RETURNDATACOPY RETURNDATASIZE PUSH1 0x0 REVERT JUMPDEST POP POP POP POP PUSH1 0x40 MLOAD RETURNDATASIZE PUSH1 0x1F NOT PUSH1 0x1F DUP3 ADD AND DUP3 ADD DUP1 PUSH1 0x40 MSTORE POP DUP2 ADD SWAP1 PUSH2 0x10D5 SWAP2 SWAP1 PUSH2 0x21F0 JUMP JUMPDEST PUSH1 0x1 PUSH1 0x1 PUSH1 0xA0 SHL SUB SWAP1 DUP2 AND DUP3 MSTORE PUSH1 0x1 SLOAD PUSH1 0x40 MLOAD PUSH4 0x46327525 PUSH1 0xE1 SHL DUP2 MSTORE PUSH1 0x20 SWAP1 SWAP4 ADD SWAP3 SWAP2 AND SWAP1 PUSH4 0x8C64EA4A SWAP1 PUSH2 0x110F SWAP1 DUP8 SWAP1 PUSH1 0x4 ADD PUSH2 0x2A92 JUMP JUMPDEST PUSH1 0x20 PUSH1 0x40 MLOAD DUP1 DUP4 SUB DUP2 DUP7 DUP1 EXTCODESIZE ISZERO DUP1 ISZERO PUSH2 0x1127 JUMPI PUSH1 0x0 DUP1 REVERT JUMPDEST POP GAS STATICCALL ISZERO DUP1 ISZERO PUSH2 0x113B JUMPI RETURNDATASIZE PUSH1 0x0 DUP1 RETURNDATACOPY RETURNDATASIZE PUSH1 0x0 REVERT JUMPDEST POP POP POP POP PUSH1 0x40 MLOAD RETURNDATASIZE PUSH1 0x1F NOT PUSH1 0x1F DUP3 ADD AND DUP3 ADD DUP1 PUSH1 0x40 MSTORE POP DUP2 ADD SWAP1 PUSH2 0x115F SWAP2 SWAP1 PUSH2 0x21F0 JUMP JUMPDEST PUSH1 0x1 PUSH1 0x1 PUSH1 0xA0 SHL SUB AND PUSH4 0x2F745C59 DUP11 DUP6 PUSH1 0x40 MLOAD DUP4 PUSH4 0xFFFFFFFF AND PUSH1 0xE0 SHL DUP2 MSTORE PUSH1 0x4 ADD PUSH2 0x118C SWAP3 SWAP2 SWAP1 PUSH2 0x26E7 JUMP JUMPDEST PUSH1 0x20 PUSH1 0x40 MLOAD DUP1 DUP4 SUB DUP2 DUP7 DUP1 EXTCODESIZE ISZERO DUP1 ISZERO PUSH2 0x11A4 JUMPI PUSH1 0x0 DUP1 REVERT JUMPDEST POP GAS STATICCALL ISZERO DUP1 ISZERO PUSH2 0x11B8 JUMPI RETURNDATASIZE PUSH1 0x0 DUP1 RETURNDATACOPY RETURNDATASIZE PUSH1 0x0 REVERT JUMPDEST POP POP POP POP PUSH1 0x40 MLOAD RETURNDATASIZE PUSH1 0x1F NOT PUSH1 0x1F DUP3 ADD AND DUP3 ADD DUP1 PUSH1 0x40 MSTORE POP DUP2 ADD SWAP1 PUSH2 0x11DC SWAP2 SWAP1 PUSH2 0x232E JUMP JUMPDEST SWAP1 MSTORE DUP5 MLOAD PUSH1 0x1 DUP6 ADD SWAP5 DUP7 SWAP2 DUP2 LT PUSH2 0x11EF JUMPI INVALID JUMPDEST PUSH1 0x20 SWAP1 DUP2 MUL SWAP2 SWAP1 SWAP2 ADD ADD MSTORE PUSH1 0x1 ADD PUSH2 0xF4C JUMP JUMPDEST POP PUSH1 0x1 ADD PUSH2 0xEBC JUMP JUMPDEST POP SWAP1 SWAP5 SWAP4 POP POP POP POP JUMP JUMPDEST PUSH1 0x0 SLOAD PUSH1 0x1 PUSH1 0xA0 SHL SWAP1 DIV PUSH1 0xFF AND SWAP1 JUMP JUMPDEST PUSH1 0x1 SLOAD PUSH1 0x40 MLOAD PUSH4 0x46327525 PUSH1 0xE1 SHL DUP2 MSTORE PUSH1 0x0 SWAP2 DUP3 SWAP2 PUSH1 0x1 PUSH1 0x1 PUSH1 0xA0 SHL SUB SWAP1 SWAP2 AND SWAP1 PUSH4 0x8C64EA4A SWAP1 PUSH2 0x125A SWAP1 DUP8 SWAP1 PUSH1 0x4 ADD PUSH2 0x2A92 JUMP JUMPDEST PUSH1 0x20 PUSH1 0x40 MLOAD DUP1 DUP4 SUB DUP2 DUP7 DUP1 EXTCODESIZE ISZERO DUP1 ISZERO PUSH2 0x1272 JUMPI PUSH1 0x0 DUP1 REVERT JUMPDEST POP GAS STATICCALL ISZERO DUP1 ISZERO PUSH2 0x1286 JUMPI RETURNDATASIZE PUSH1 0x0 DUP1 RETURNDATACOPY RETURNDATASIZE PUSH1 0x0 REVERT JUMPDEST POP POP POP POP PUSH1 0x40 MLOAD RETURNDATASIZE PUSH1 0x1F NOT PUSH1 0x1F DUP3 ADD AND DUP3 ADD DUP1 PUSH1 0x40 MSTORE POP DUP2 ADD SWAP1 PUSH2 0x12AA SWAP2 SWAP1 PUSH2 0x21F0 JUMP JUMPDEST PUSH1 0x40 MLOAD PUSH4 0x1BF744DB PUSH1 0xE0 SHL DUP2 MSTORE SWAP1 SWAP2 POP PUSH1 0x1 PUSH1 0x1 PUSH1 0xA0 SHL SUB DUP3 AND SWAP1 PUSH4 0x1BF744DB SWAP1 PUSH2 0x12D9 SWAP1 DUP7 SWAP1 PUSH1 0x4 ADD PUSH2 0x2A92 JUMP JUMPDEST PUSH1 0x20 PUSH1 0x40 MLOAD DUP1 DUP4 SUB DUP2 DUP7 DUP1 EXTCODESIZE ISZERO DUP1 ISZERO PUSH2 0x12F1 JUMPI PUSH1 0x0 DUP1 REVERT JUMPDEST POP GAS STATICCALL ISZERO DUP1 ISZERO PUSH2 0x1305 JUMPI RETURNDATASIZE PUSH1 0x0 DUP1 RETURNDATACOPY RETURNDATASIZE PUSH1 0x0 REVERT JUMPDEST POP POP POP POP PUSH1 0x40 MLOAD RETURNDATASIZE PUSH1 0x1F NOT PUSH1 0x1F DUP3 ADD AND DUP3 ADD DUP1 PUSH1 0x40 MSTORE POP DUP2 ADD SWAP1 PUSH2 0x1329 SWAP2 SWAP1 PUSH2 0x232E JUMP JUMPDEST SWAP5 SWAP4 POP POP POP POP JUMP JUMPDEST PUSH2 0x1339 PUSH2 0x1DDF JUMP JUMPDEST PUSH1 0x0 SLOAD PUSH1 0x1 PUSH1 0x1 PUSH1 0xA0 SHL SUB SWAP1 DUP2 AND SWAP2 AND EQ PUSH2 0x1366 JUMPI PUSH1 0x40 MLOAD PUSH3 0x461BCD PUSH1 0xE5 SHL DUP2 MSTORE PUSH1 0x4 ADD PUSH2 0x429 SWAP1 PUSH2 0x2976 JUMP JUMPDEST PUSH1 0x0 DUP1 SLOAD PUSH1 0x40 MLOAD PUSH1 0x1 PUSH1 0x1 PUSH1 0xA0 SHL SUB SWAP1 SWAP2 AND SWAP1 PUSH32 0x8BE0079C531659141344CD1FD0A4F28419497F9722A3DAAFE3B4186F6B6457E0 SWAP1 DUP4 SWAP1 LOG3 PUSH1 0x0 DUP1 SLOAD PUSH1 0x1 PUSH1 0x1 PUSH1 0xA0 SHL SUB NOT AND SWAP1 SSTORE JUMP JUMPDEST PUSH1 0x1 SLOAD PUSH1 0x40 MLOAD PUSH4 0x46327525 PUSH1 0xE1 SHL DUP2 MSTORE PUSH1 0x0 SWAP2 DUP3 SWAP2 PUSH1 0x1 PUSH1 0x1 PUSH1 0xA0 SHL SUB SWAP1 SWAP2 AND SWAP1 PUSH4 0x8C64EA4A SWAP1 PUSH2 0x13E5 SWAP1 DUP7 SWAP1 PUSH1 0x4 ADD PUSH2 0x2A92 JUMP JUMPDEST PUSH1 0x20 PUSH1 0x40 MLOAD DUP1 DUP4 SUB DUP2 DUP7 DUP1 EXTCODESIZE ISZERO DUP1 ISZERO PUSH2 0x13FD JUMPI PUSH1 0x0 DUP1 REVERT JUMPDEST POP GAS STATICCALL ISZERO DUP1 ISZERO PUSH2 0x1411 JUMPI RETURNDATASIZE PUSH1 0x0 DUP1 RETURNDATACOPY RETURNDATASIZE PUSH1 0x0 REVERT JUMPDEST POP POP POP POP PUSH1 0x40 MLOAD RETURNDATASIZE PUSH1 0x1F NOT PUSH1 0x1F DUP3 ADD AND DUP3 ADD DUP1 PUSH1 0x40 MSTORE POP DUP2 ADD SWAP1 PUSH2 0x1435 SWAP2 SWAP1 PUSH2 0x21F0 JUMP JUMPDEST SWAP1 POP DUP1 PUSH1 0x1 PUSH1 0x1 PUSH1 0xA0 SHL SUB AND PUSH4 0xBE8ACD3F PUSH1 0x40 MLOAD DUP2 PUSH4 0xFFFFFFFF AND PUSH1 0xE0 SHL DUP2 MSTORE PUSH1 0x4 ADD PUSH1 0x20 PUSH1 0x40 MLOAD DUP1 DUP4 SUB DUP2 DUP7 DUP1 EXTCODESIZE ISZERO DUP1 ISZERO PUSH2 0x3C0 JUMPI PUSH1 0x0 DUP1 REVERT JUMPDEST PUSH2 0x1478 PUSH2 0x1DDF JUMP JUMPDEST PUSH1 0x0 SLOAD PUSH1 0x1 PUSH1 0x1 PUSH1 0xA0 SHL SUB SWAP1 DUP2 AND SWAP2 AND EQ PUSH2 0x14A5 JUMPI PUSH1 0x40 MLOAD PUSH3 0x461BCD PUSH1 0xE5 SHL DUP2 MSTORE PUSH1 0x4 ADD PUSH2 0x429 SWAP1 PUSH2 0x2976 JUMP JUMPDEST PUSH2 0xBE3 PUSH2 0x1E59 JUMP JUMPDEST PUSH1 0x0 SLOAD PUSH1 0x1 PUSH1 0x1 PUSH1 0xA0 SHL SUB AND SWAP1 JUMP JUMPDEST PUSH1 0x1 SLOAD PUSH1 0x40 MLOAD PUSH4 0x46327525 PUSH1 0xE1 SHL DUP2 MSTORE PUSH1 0x0 SWAP2 DUP3 SWAP2 PUSH1 0x1 PUSH1 0x1 PUSH1 0xA0 SHL SUB SWAP1 SWAP2 AND SWAP1 PUSH4 0x8C64EA4A SWAP1 PUSH2 0x14F1 SWAP1 DUP7 SWAP1 PUSH1 0x4 ADD PUSH2 0x2A92 JUMP JUMPDEST PUSH1 0x20 PUSH1 0x40 MLOAD DUP1 DUP4 SUB DUP2 DUP7 DUP1 EXTCODESIZE ISZERO DUP1 ISZERO PUSH2 0x1509 JUMPI PUSH1 0x0 DUP1 REVERT JUMPDEST POP GAS STATICCALL ISZERO DUP1 ISZERO PUSH2 0x151D JUMPI RETURNDATASIZE PUSH1 0x0 DUP1 RETURNDATACOPY RETURNDATASIZE PUSH1 0x0 REVERT JUMPDEST POP POP POP POP PUSH1 0x40 MLOAD RETURNDATASIZE PUSH1 0x1F NOT PUSH1 0x1F DUP3 ADD AND DUP3 ADD DUP1 PUSH1 0x40 MSTORE POP DUP2 ADD SWAP1 PUSH2 0x1541 SWAP2 SWAP1 PUSH2 0x21F0 JUMP JUMPDEST SWAP1 POP DUP1 PUSH1 0x1 PUSH1 0x1 PUSH1 0xA0 SHL SUB AND PUSH4 0xD082E381 PUSH1 0x40 MLOAD DUP2 PUSH4 0xFFFFFFFF AND PUSH1 0xE0 SHL DUP2 MSTORE PUSH1 0x4 ADD PUSH1 0x20 PUSH1 0x40 MLOAD DUP1 DUP4 SUB DUP2 DUP7 DUP1 EXTCODESIZE ISZERO DUP1 ISZERO PUSH2 0x3C0 JUMPI PUSH1 0x0 DUP1 REVERT JUMPDEST PUSH1 0x0 SLOAD PUSH1 0x1 PUSH1 0xA0 SHL SWAP1 DIV PUSH1 0xFF AND ISZERO PUSH2 0x15A6 JUMPI PUSH1 0x40 MLOAD PUSH3 0x461BCD PUSH1 0xE5 SHL DUP2 MSTORE PUSH1 0x4 ADD PUSH2 0x429 SWAP1 PUSH2 0x2904 JUMP JUMPDEST PUSH1 0x1 SLOAD PUSH1 0x40 MLOAD PUSH4 0x46327525 PUSH1 0xE1 SHL DUP2 MSTORE PUSH1 0x1 PUSH1 0x1 PUSH1 0xA0 SHL SUB SWAP1 SWAP2 AND SWAP1 PUSH4 0xF815C03D SWAP1 DUP3 SWAP1 PUSH4 0x8C64EA4A SWAP1 PUSH2 0x15DE SWAP1 DUP10 SWAP1 PUSH1 0x4 ADD PUSH2 0x2A92 JUMP JUMPDEST PUSH1 0x20 PUSH1 0x40 MLOAD DUP1 DUP4 SUB DUP2 DUP7 DUP1 EXTCODESIZE ISZERO DUP1 ISZERO PUSH2 0x15F6 JUMPI PUSH1 0x0 DUP1 REVERT JUMPDEST POP GAS STATICCALL ISZERO DUP1 ISZERO PUSH2 0x160A JUMPI RETURNDATASIZE PUSH1 0x0 DUP1 RETURNDATACOPY RETURNDATASIZE PUSH1 0x0 REVERT JUMPDEST POP POP POP POP PUSH1 0x40 MLOAD RETURNDATASIZE PUSH1 0x1F NOT PUSH1 0x1F DUP3 ADD AND DUP3 ADD DUP1 PUSH1 0x40 MSTORE POP DUP2 ADD SWAP1 PUSH2 0x162E SWAP2 SWAP1 PUSH2 0x21F0 JUMP JUMPDEST PUSH1 0x40 MLOAD DUP3 PUSH4 0xFFFFFFFF AND PUSH1 0xE0 SHL DUP2 MSTORE PUSH1 0x4 ADD PUSH2 0x164A SWAP2 SWAP1 PUSH2 0x267E JUMP JUMPDEST PUSH1 0x20 PUSH1 0x40 MLOAD DUP1 DUP4 SUB DUP2 DUP7 DUP1 EXTCODESIZE ISZERO DUP1 ISZERO PUSH2 0x1662 JUMPI PUSH1 0x0 DUP1 REVERT JUMPDEST POP GAS STATICCALL ISZERO DUP1 ISZERO PUSH2 0x1676 JUMPI RETURNDATASIZE PUSH1 0x0 DUP1 RETURNDATACOPY RETURNDATASIZE PUSH1 0x0 REVERT JUMPDEST POP POP POP POP PUSH1 0x40 MLOAD RETURNDATASIZE PUSH1 0x1F NOT PUSH1 0x1F DUP3 ADD AND DUP3 ADD DUP1 PUSH1 0x40 MSTORE POP DUP2 ADD SWAP1 PUSH2 0x169A SWAP2 SWAP1 PUSH2 0x223E JUMP JUMPDEST PUSH2 0x16B6 JUMPI PUSH1 0x40 MLOAD PUSH3 0x461BCD PUSH1 0xE5 SHL DUP2 MSTORE PUSH1 0x4 ADD PUSH2 0x429 SWAP1 PUSH2 0x2A51 JUMP JUMPDEST PUSH1 0x1 SLOAD PUSH1 0x40 MLOAD PUSH4 0x46327525 PUSH1 0xE1 SHL DUP2 MSTORE PUSH1 0x1 PUSH1 0x1 PUSH1 0xA0 SHL SUB SWAP1 SWAP2 AND SWAP1 PUSH4 0x8C64EA4A SWAP1 PUSH2 0x16E6 SWAP1 DUP8 SWAP1 PUSH1 0x4 ADD PUSH2 0x2A92 JUMP JUMPDEST PUSH1 0x20 PUSH1 0x40 MLOAD DUP1 DUP4 SUB DUP2 DUP7 DUP1 EXTCODESIZE ISZERO DUP1 ISZERO PUSH2 0x16FE JUMPI PUSH1 0x0 DUP1 REVERT JUMPDEST POP GAS STATICCALL ISZERO DUP1 ISZERO PUSH2 0x1712 JUMPI RETURNDATASIZE PUSH1 0x0 DUP1 RETURNDATACOPY RETURNDATASIZE PUSH1 0x0 REVERT JUMPDEST POP POP POP POP PUSH1 0x40 MLOAD RETURNDATASIZE PUSH1 0x1F NOT PUSH1 0x1F DUP3 ADD AND DUP3 ADD DUP1 PUSH1 0x40 MSTORE POP DUP2 ADD SWAP1 PUSH2 0x1736 SWAP2 SWAP1 PUSH2 0x21F0 JUMP JUMPDEST PUSH1 0x1 PUSH1 0x1 PUSH1 0xA0 SHL SUB AND PUSH4 0xDBB03711 CALLER DUP6 DUP6 DUP6 PUSH1 0x40 MLOAD DUP6 PUSH4 0xFFFFFFFF AND PUSH1 0xE0 SHL DUP2 MSTORE PUSH1 0x4 ADD PUSH2 0x4E3 SWAP5 SWAP4 SWAP3 SWAP2 SWAP1 PUSH2 0x2692 JUMP JUMPDEST PUSH2 0x176F PUSH2 0x1DDF JUMP JUMPDEST PUSH1 0x0 SLOAD PUSH1 0x1 PUSH1 0x1 PUSH1 0xA0 SHL SUB SWAP1 DUP2 AND SWAP2 AND EQ PUSH2 0x179C JUMPI PUSH1 0x40 MLOAD PUSH3 0x461BCD PUSH1 0xE5 SHL DUP2 MSTORE PUSH1 0x4 ADD PUSH2 0x429 SWAP1 PUSH2 0x2976 JUMP JUMPDEST PUSH1 0x1 DUP1 SLOAD PUSH1 0x1 PUSH1 0x1 PUSH1 0xA0 SHL SUB NOT AND PUSH1 0x1 PUSH1 0x1 PUSH1 0xA0 SHL SUB SWAP3 SWAP1 SWAP3 AND SWAP2 SWAP1 SWAP2 OR SWAP1 SSTORE JUMP JUMPDEST PUSH1 0x0 SLOAD PUSH1 0x1 PUSH1 0xA0 SHL SWAP1 DIV PUSH1 0xFF AND ISZERO PUSH2 0x17E8 JUMPI PUSH1 0x40 MLOAD PUSH3 0x461BCD PUSH1 0xE5 SHL DUP2 MSTORE PUSH1 0x4 ADD PUSH2 0x429 SWAP1 PUSH2 0x2904 JUMP JUMPDEST PUSH1 0x1 SLOAD PUSH1 0x40 MLOAD PUSH4 0x46327525 PUSH1 0xE1 SHL DUP2 MSTORE PUSH1 0x1 PUSH1 0x1 PUSH1 0xA0 SHL SUB SWAP1 SWAP2 AND SWAP1 PUSH4 0x8C64EA4A SWAP1 PUSH2 0x1818 SWAP1 DUP6 SWAP1 PUSH1 0x4 ADD PUSH2 0x2A92 JUMP JUMPDEST PUSH1 0x20 PUSH1 0x40 MLOAD DUP1 DUP4 SUB DUP2 DUP7 DUP1 EXTCODESIZE ISZERO DUP1 ISZERO PUSH2 0x1830 JUMPI PUSH1 0x0 DUP1 REVERT JUMPDEST POP GAS STATICCALL ISZERO DUP1 ISZERO PUSH2 0x1844 JUMPI RETURNDATASIZE PUSH1 0x0 DUP1 RETURNDATACOPY RETURNDATASIZE PUSH1 0x0 REVERT JUMPDEST POP POP POP POP PUSH1 0x40 MLOAD RETURNDATASIZE PUSH1 0x1F NOT PUSH1 0x1F DUP3 ADD AND DUP3 ADD DUP1 PUSH1 0x40 MSTORE POP DUP2 ADD SWAP1 PUSH2 0x1868 SWAP2 SWAP1 PUSH2 0x21F0 JUMP JUMPDEST PUSH1 0x1 PUSH1 0x1 PUSH1 0xA0 SHL SUB AND PUSH4 0x9C7264D7 CALLER DUP4 PUSH1 0x40 MLOAD DUP4 PUSH4 0xFFFFFFFF AND PUSH1 0xE0 SHL DUP2 MSTORE PUSH1 0x4 ADD PUSH2 0xC92 SWAP3 SWAP2 SWAP1 PUSH2 0x26E7 JUMP JUMPDEST PUSH1 0x1 SLOAD PUSH1 0x40 MLOAD PUSH4 0x46327525 PUSH1 0xE1 SHL DUP2 MSTORE PUSH1 0x60 SWAP2 PUSH1 0x0 SWAP2 PUSH1 0x1 PUSH1 0x1 PUSH1 0xA0 SHL SUB SWAP1 SWAP2 AND SWAP1 PUSH4 0x8C64EA4A SWAP1 PUSH2 0x18CB SWAP1 DUP9 SWAP1 PUSH1 0x4 ADD PUSH2 0x2A92 JUMP JUMPDEST PUSH1 0x20 PUSH1 0x40 MLOAD DUP1 DUP4 SUB DUP2 DUP7 DUP1 EXTCODESIZE ISZERO DUP1 ISZERO PUSH2 0x18E3 JUMPI PUSH1 0x0 DUP1 REVERT JUMPDEST POP GAS STATICCALL ISZERO DUP1 ISZERO PUSH2 0x18F7 JUMPI RETURNDATASIZE PUSH1 0x0 DUP1 RETURNDATACOPY RETURNDATASIZE PUSH1 0x0 REVERT JUMPDEST POP POP POP POP PUSH1 0x40 MLOAD RETURNDATASIZE PUSH1 0x1F NOT PUSH1 0x1F DUP3 ADD AND DUP3 ADD DUP1 PUSH1 0x40 MSTORE POP DUP2 ADD SWAP1 PUSH2 0x191B SWAP2 SWAP1 PUSH2 0x21F0 JUMP JUMPDEST SWAP1 POP DUP3 DUP5 GT ISZERO PUSH2 0x193D JUMPI PUSH1 0x40 MLOAD PUSH3 0x461BCD PUSH1 0xE5 SHL DUP2 MSTORE PUSH1 0x4 ADD PUSH2 0x429 SWAP1 PUSH2 0x29F4 JUMP JUMPDEST PUSH1 0x60 PUSH2 0x1954 PUSH1 0x1 PUSH2 0x194E DUP7 DUP9 PUSH2 0x1EBF JUMP JUMPDEST SWAP1 PUSH2 0x1F01 JUMP JUMPDEST PUSH1 0x1 PUSH1 0x1 PUSH1 0x40 SHL SUB DUP2 GT DUP1 ISZERO PUSH2 0x1969 JUMPI PUSH1 0x0 DUP1 REVERT JUMPDEST POP PUSH1 0x40 MLOAD SWAP1 DUP1 DUP3 MSTORE DUP1 PUSH1 0x20 MUL PUSH1 0x20 ADD DUP3 ADD PUSH1 0x40 MSTORE DUP1 ISZERO PUSH2 0x19A3 JUMPI DUP2 PUSH1 0x20 ADD JUMPDEST PUSH2 0x1990 PUSH2 0x1F52 JUMP JUMPDEST DUP2 MSTORE PUSH1 0x20 ADD SWAP1 PUSH1 0x1 SWAP1 SUB SWAP1 DUP2 PUSH2 0x1988 JUMPI SWAP1 POP JUMPDEST POP SWAP1 POP DUP5 JUMPDEST DUP5 DUP2 GT PUSH2 0x91F JUMPI PUSH1 0x40 MLOAD PUSH4 0xA5F40303 PUSH1 0xE0 SHL DUP2 MSTORE PUSH1 0x1 PUSH1 0x1 PUSH1 0xA0 SHL SUB DUP5 AND SWAP1 PUSH4 0x21603F43 SWAP1 DUP3 SWAP1 PUSH4 0xA5F40303 SWAP1 PUSH2 0x19E3 SWAP1 DUP7 SWAP1 PUSH1 0x4 ADD PUSH2 0x2A92 JUMP JUMPDEST PUSH1 0x20 PUSH1 0x40 MLOAD DUP1 DUP4 SUB DUP2 DUP7 DUP1 EXTCODESIZE ISZERO DUP1 ISZERO PUSH2 0x19FB JUMPI PUSH1 0x0 DUP1 REVERT JUMPDEST POP GAS STATICCALL ISZERO DUP1 ISZERO PUSH2 0x1A0F JUMPI RETURNDATASIZE PUSH1 0x0 DUP1 RETURNDATACOPY RETURNDATASIZE PUSH1 0x0 REVERT JUMPDEST POP POP POP POP PUSH1 0x40 MLOAD RETURNDATASIZE PUSH1 0x1F NOT PUSH1 0x1F DUP3 ADD AND DUP3 ADD DUP1 PUSH1 0x40 MSTORE POP DUP2 ADD SWAP1 PUSH2 0x1A33 SWAP2 SWAP1 PUSH2 0x232E JUMP JUMPDEST PUSH1 0x40 MLOAD DUP3 PUSH4 0xFFFFFFFF AND PUSH1 0xE0 SHL DUP2 MSTORE PUSH1 0x4 ADD PUSH2 0x1A4F SWAP2 SWAP1 PUSH2 0x2A92 JUMP JUMPDEST PUSH1 0x0 PUSH1 0x40 MLOAD DUP1 DUP4 SUB DUP2 DUP7 DUP1 EXTCODESIZE ISZERO DUP1 ISZERO PUSH2 0x1A67 JUMPI PUSH1 0x0 DUP1 REVERT JUMPDEST POP GAS STATICCALL ISZERO DUP1 ISZERO PUSH2 0x1A7B JUMPI RETURNDATASIZE PUSH1 0x0 DUP1 RETURNDATACOPY RETURNDATASIZE PUSH1 0x0 REVERT JUMPDEST POP POP POP POP PUSH1 0x40 MLOAD RETURNDATASIZE PUSH1 0x0 DUP3 RETURNDATACOPY PUSH1 0x1F RETURNDATASIZE SWAP1 DUP2 ADD PUSH1 0x1F NOT AND DUP3 ADD PUSH1 0x40 MSTORE PUSH2 0x1AA3 SWAP2 SWAP1 DUP2 ADD SWAP1 PUSH2 0x225E JUMP JUMPDEST DUP3 PUSH2 0x1AAE DUP4 DUP10 PUSH2 0x1EBF JUMP JUMPDEST DUP2 MLOAD DUP2 LT PUSH2 0x1AB8 JUMPI INVALID JUMPDEST PUSH1 0x20 SWAP1 DUP2 MUL SWAP2 SWAP1 SWAP2 ADD ADD MSTORE PUSH1 0x1 ADD PUSH2 0x19A8 JUMP JUMPDEST PUSH1 0x1 SLOAD PUSH1 0x1 PUSH1 0x1 PUSH1 0xA0 SHL SUB AND DUP2 JUMP JUMPDEST PUSH1 0x1 SLOAD PUSH1 0x40 MLOAD PUSH4 0x46327525 PUSH1 0xE1 SHL DUP2 MSTORE PUSH1 0x0 SWAP2 DUP3 SWAP2 PUSH1 0x1 PUSH1 0x1 PUSH1 0xA0 SHL SUB SWAP1 SWAP2 AND SWAP1 PUSH4 0x8C64EA4A SWAP1 PUSH2 0x1B0F SWAP1 DUP8 SWAP1 PUSH1 0x4 ADD PUSH2 0x2A92 JUMP JUMPDEST PUSH1 0x20 PUSH1 0x40 MLOAD DUP1 DUP4 SUB DUP2 DUP7 DUP1 EXTCODESIZE ISZERO DUP1 ISZERO PUSH2 0x1B27 JUMPI PUSH1 0x0 DUP1 REVERT JUMPDEST POP GAS STATICCALL ISZERO DUP1 ISZERO PUSH2 0x1B3B JUMPI RETURNDATASIZE PUSH1 0x0 DUP1 RETURNDATACOPY RETURNDATASIZE PUSH1 0x0 REVERT JUMPDEST POP POP POP POP PUSH1 0x40 MLOAD RETURNDATASIZE PUSH1 0x1F NOT PUSH1 0x1F DUP3 ADD AND DUP3 ADD DUP1 PUSH1 0x40 MSTORE POP DUP2 ADD SWAP1 PUSH2 0x1B5F SWAP2 SWAP1 PUSH2 0x21F0 JUMP JUMPDEST PUSH1 0x40 MLOAD PUSH4 0x4FE8CEC9 PUSH1 0xE1 SHL DUP2 MSTORE SWAP1 SWAP2 POP PUSH1 0x1 PUSH1 0x1 PUSH1 0xA0 SHL SUB DUP3 AND SWAP1 PUSH4 0x9FD19D92 SWAP1 PUSH2 0x12D9 SWAP1 DUP7 SWAP1 PUSH1 0x4 ADD PUSH2 0x2A92 JUMP JUMPDEST PUSH2 0x1B96 PUSH2 0x1DDF JUMP JUMPDEST PUSH1 0x0 SLOAD PUSH1 0x1 PUSH1 0x1 PUSH1 0xA0 SHL SUB SWAP1 DUP2 AND SWAP2 AND EQ PUSH2 0x1BC3 JUMPI PUSH1 0x40 MLOAD PUSH3 0x461BCD PUSH1 0xE5 SHL DUP2 MSTORE PUSH1 0x4 ADD PUSH2 0x429 SWAP1 PUSH2 0x2976 JUMP JUMPDEST PUSH1 0x1 PUSH1 0x1 PUSH1 0xA0 SHL SUB DUP2 AND PUSH2 0x1BE9 JUMPI PUSH1 0x40 MLOAD PUSH3 0x461BCD PUSH1 0xE5 SHL DUP2 MSTORE PUSH1 0x4 ADD PUSH2 0x429 SWAP1 PUSH2 0x2887 JUMP JUMPDEST PUSH1 0x0 DUP1 SLOAD PUSH1 0x40 MLOAD PUSH1 0x1 PUSH1 0x1 PUSH1 0xA0 SHL SUB DUP1 DUP6 AND SWAP4 SWAP3 AND SWAP2 PUSH32 0x8BE0079C531659141344CD1FD0A4F28419497F9722A3DAAFE3B4186F6B6457E0 SWAP2 LOG3 PUSH1 0x0 DUP1 SLOAD PUSH1 0x1 PUSH1 0x1 PUSH1 0xA0 SHL SUB NOT AND PUSH1 0x1 PUSH1 0x1 PUSH1 0xA0 SHL SUB SWAP3 SWAP1 SWAP3 AND SWAP2 SWAP1 SWAP2 OR SWAP1 SSTORE JUMP JUMPDEST PUSH1 0x60 DUP1 DUP5 PUSH1 0x1 PUSH1 0x1 PUSH1 0xA0 SHL SUB AND PUSH4 0xE20BE69A DUP6 DUP6 PUSH1 0x40 MLOAD DUP4 PUSH4 0xFFFFFFFF AND PUSH1 0xE0 SHL DUP2 MSTORE PUSH1 0x4 ADD PUSH2 0x1C75 SWAP3 SWAP2 SWAP1 PUSH2 0x2A9B JUMP JUMPDEST PUSH1 0x0 PUSH1 0x40 MLOAD DUP1 DUP4 SUB DUP2 DUP7 DUP1 EXTCODESIZE ISZERO DUP1 ISZERO PUSH2 0x1C8D JUMPI PUSH1 0x0 DUP1 REVERT JUMPDEST POP GAS STATICCALL ISZERO DUP1 ISZERO PUSH2 0x1CA1 JUMPI RETURNDATASIZE PUSH1 0x0 DUP1 RETURNDATACOPY RETURNDATASIZE PUSH1 0x0 REVERT JUMPDEST POP POP POP POP PUSH1 0x40 MLOAD RETURNDATASIZE PUSH1 0x0 DUP3 RETURNDATACOPY PUSH1 0x1F RETURNDATASIZE SWAP1 DUP2 ADD PUSH1 0x1F NOT AND DUP3 ADD PUSH1 0x40 MSTORE PUSH2 0x1CC9 SWAP2 SWAP1 DUP2 ADD SWAP1 PUSH2 0x220C JUMP JUMPDEST SWAP1 POP PUSH1 0x60 DUP2 MLOAD PUSH1 0x1 PUSH1 0x1 PUSH1 0x40 SHL SUB DUP2 GT DUP1 ISZERO PUSH2 0x1CE4 JUMPI PUSH1 0x0 DUP1 REVERT JUMPDEST POP PUSH1 0x40 MLOAD SWAP1 DUP1 DUP3 MSTORE DUP1 PUSH1 0x20 MUL PUSH1 0x20 ADD DUP3 ADD PUSH1 0x40 MSTORE DUP1 ISZERO PUSH2 0x1D1E JUMPI DUP2 PUSH1 0x20 ADD JUMPDEST PUSH2 0x1D0B PUSH2 0x1F52 JUMP JUMPDEST DUP2 MSTORE PUSH1 0x20 ADD SWAP1 PUSH1 0x1 SWAP1 SUB SWAP1 DUP2 PUSH2 0x1D03 JUMPI SWAP1 POP JUMPDEST POP SWAP1 POP PUSH1 0x0 JUMPDEST DUP3 MLOAD DUP2 LT ISZERO PUSH2 0x91F JUMPI DUP7 PUSH1 0x1 PUSH1 0x1 PUSH1 0xA0 SHL SUB AND PUSH4 0x21603F43 DUP5 DUP4 DUP2 MLOAD DUP2 LT PUSH2 0x1D48 JUMPI INVALID JUMPDEST PUSH1 0x20 MUL PUSH1 0x20 ADD ADD MLOAD PUSH1 0x40 MLOAD DUP3 PUSH4 0xFFFFFFFF AND PUSH1 0xE0 SHL DUP2 MSTORE PUSH1 0x4 ADD PUSH2 0x1D6C SWAP2 SWAP1 PUSH2 0x2A92 JUMP JUMPDEST PUSH1 0x0 PUSH1 0x40 MLOAD DUP1 DUP4 SUB DUP2 DUP7 DUP1 EXTCODESIZE ISZERO DUP1 ISZERO PUSH2 0x1D84 JUMPI PUSH1 0x0 DUP1 REVERT JUMPDEST POP GAS STATICCALL ISZERO DUP1 ISZERO PUSH2 0x1D98 JUMPI RETURNDATASIZE PUSH1 0x0 DUP1 RETURNDATACOPY RETURNDATASIZE PUSH1 0x0 REVERT JUMPDEST POP POP POP POP PUSH1 0x40 MLOAD RETURNDATASIZE PUSH1 0x0 DUP3 RETURNDATACOPY PUSH1 0x1F RETURNDATASIZE SWAP1 DUP2 ADD PUSH1 0x1F NOT AND DUP3 ADD PUSH1 0x40 MSTORE PUSH2 0x1DC0 SWAP2 SWAP1 DUP2 ADD SWAP1 PUSH2 0x225E JUMP JUMPDEST DUP3 DUP3 DUP2 MLOAD DUP2 LT PUSH2 0x1DCC JUMPI INVALID JUMPDEST PUSH1 0x20 SWAP1 DUP2 MUL SWAP2 SWAP1 SWAP2 ADD ADD MSTORE PUSH1 0x1 ADD PUSH2 0x1D24 JUMP JUMPDEST CALLER SWAP1 JUMP JUMPDEST PUSH1 0x0 SLOAD PUSH1 0x1 PUSH1 0xA0 SHL SWAP1 DIV PUSH1 0xFF AND PUSH2 0x1E0C JUMPI PUSH1 0x40 MLOAD PUSH3 0x461BCD PUSH1 0xE5 SHL DUP2 MSTORE PUSH1 0x4 ADD PUSH2 0x429 SWAP1 PUSH2 0x2859 JUMP JUMPDEST PUSH1 0x0 DUP1 SLOAD PUSH1 0xFF PUSH1 0xA0 SHL NOT AND SWAP1 SSTORE PUSH32 0x5DB9EE0A495BF2E6FF9C91A7834C1BA4FDD244A5E8AA4E537BD38AEAE4B073AA PUSH2 0x1E42 PUSH2 0x1DDF JUMP JUMPDEST PUSH1 0x40 MLOAD PUSH2 0x1E4F SWAP2 SWAP1 PUSH2 0x267E JUMP JUMPDEST PUSH1 0x40 MLOAD DUP1 SWAP2 SUB SWAP1 LOG1 JUMP JUMPDEST PUSH1 0x0 SLOAD PUSH1 0x1 PUSH1 0xA0 SHL SWAP1 DIV PUSH1 0xFF AND ISZERO PUSH2 0x1E83 JUMPI PUSH1 0x40 MLOAD PUSH3 0x461BCD PUSH1 0xE5 SHL DUP2 MSTORE PUSH1 0x4 ADD PUSH2 0x429 SWAP1 PUSH2 0x2904 JUMP JUMPDEST PUSH1 0x0 DUP1 SLOAD PUSH1 0xFF PUSH1 0xA0 SHL NOT AND PUSH1 0x1 PUSH1 0xA0 SHL OR SWAP1 SSTORE PUSH32 0x62E78CEA01BEE320CD4E420270B5EA74000D11B0C9F74754EBDBFC544B05A258 PUSH2 0x1E42 PUSH2 0x1DDF JUMP JUMPDEST PUSH1 0x0 PUSH2 0x3F8 DUP4 DUP4 PUSH1 0x40 MLOAD DUP1 PUSH1 0x40 ADD PUSH1 0x40 MSTORE DUP1 PUSH1 0x1E DUP2 MSTORE PUSH1 0x20 ADD PUSH32 0x536166654D6174683A207375627472616374696F6E206F766572666C6F770000 DUP2 MSTORE POP PUSH2 0x1F26 JUMP JUMPDEST PUSH1 0x0 DUP3 DUP3 ADD DUP4 DUP2 LT ISZERO PUSH2 0x3F8 JUMPI PUSH1 0x40 MLOAD PUSH3 0x461BCD PUSH1 0xE5 SHL DUP2 MSTORE PUSH1 0x4 ADD PUSH2 0x429 SWAP1 PUSH2 0x28CD JUMP JUMPDEST PUSH1 0x0 DUP2 DUP5 DUP5 GT ISZERO PUSH2 0x1F4A JUMPI PUSH1 0x40 MLOAD PUSH3 0x461BCD PUSH1 0xE5 SHL DUP2 MSTORE PUSH1 0x4 ADD PUSH2 0x429 SWAP2 SWAP1 PUSH2 0x2806 JUMP JUMPDEST POP POP POP SWAP1 SUB SWAP1 JUMP JUMPDEST PUSH1 0x40 MLOAD DUP1 PUSH1 0xE0 ADD PUSH1 0x40 MSTORE DUP1 PUSH1 0x0 DUP2 MSTORE PUSH1 0x20 ADD PUSH1 0x0 DUP2 MSTORE PUSH1 0x20 ADD PUSH1 0x0 DUP2 MSTORE PUSH1 0x20 ADD PUSH1 0x0 DUP2 MSTORE PUSH1 0x20 ADD PUSH2 0x1F81 PUSH2 0x1FB2 JUMP JUMPDEST DUP2 MSTORE PUSH1 0x20 ADD PUSH2 0x1F8E PUSH2 0x1FD0 JUMP JUMPDEST DUP2 MSTORE PUSH1 0x20 ADD PUSH1 0x60 DUP2 MSTORE POP SWAP1 JUMP JUMPDEST PUSH1 0x40 DUP1 MLOAD DUP1 DUP3 ADD SWAP1 SWAP2 MSTORE PUSH1 0x0 DUP1 DUP3 MSTORE PUSH1 0x20 DUP3 ADD MSTORE SWAP1 JUMP JUMPDEST PUSH1 0x40 MLOAD DUP1 PUSH1 0x40 ADD PUSH1 0x40 MSTORE DUP1 PUSH1 0x2 SWAP1 PUSH1 0x20 DUP3 MUL DUP1 CALLDATASIZE DUP4 CALLDATACOPY POP SWAP2 SWAP3 SWAP2 POP POP JUMP JUMPDEST PUSH1 0x40 MLOAD DUP1 PUSH1 0x60 ADD PUSH1 0x40 MSTORE DUP1 PUSH1 0x3 SWAP1 PUSH1 0x20 DUP3 MUL DUP1 CALLDATASIZE DUP4 CALLDATACOPY POP SWAP2 SWAP3 SWAP2 POP POP JUMP JUMPDEST PUSH1 0x0 DUP3 PUSH1 0x1F DUP4 ADD SLT PUSH2 0x1FFE JUMPI DUP1 DUP2 REVERT JUMPDEST PUSH2 0x2008 PUSH1 0x40 PUSH2 0x2AA9 JUMP JUMPDEST SWAP1 POP DUP1 DUP3 DUP5 PUSH1 0x40 DUP6 ADD GT ISZERO PUSH2 0x201C JUMPI PUSH1 0x0 DUP1 REVERT JUMPDEST PUSH1 0x0 JUMPDEST PUSH1 0x2 DUP2 LT ISZERO PUSH2 0x2048 JUMPI DUP2 MLOAD PUSH2 0x2033 DUP2 PUSH2 0x2AEE JUMP JUMPDEST DUP4 MSTORE PUSH1 0x20 SWAP3 DUP4 ADD SWAP3 SWAP2 SWAP1 SWAP2 ADD SWAP1 PUSH1 0x1 ADD PUSH2 0x201F JUMP JUMPDEST POP POP POP SWAP3 SWAP2 POP POP JUMP JUMPDEST PUSH1 0x0 DUP3 PUSH1 0x1F DUP4 ADD SLT PUSH2 0x2061 JUMPI DUP1 DUP2 REVERT JUMPDEST DUP2 CALLDATALOAD PUSH2 0x2074 PUSH2 0x206F DUP3 PUSH2 0x2ACF JUMP JUMPDEST PUSH2 0x2AA9 JUMP JUMPDEST DUP2 DUP2 MSTORE SWAP2 POP PUSH1 0x20 DUP1 DUP4 ADD SWAP1 DUP5 DUP2 ADD DUP2 DUP5 MUL DUP7 ADD DUP3 ADD DUP8 LT ISZERO PUSH2 0x2095 JUMPI PUSH1 0x0 DUP1 REVERT JUMPDEST PUSH1 0x0 JUMPDEST DUP5 DUP2 LT ISZERO PUSH2 0x20BD JUMPI DUP2 CALLDATALOAD PUSH2 0x20AB DUP2 PUSH2 0x2AEE JUMP JUMPDEST DUP5 MSTORE SWAP3 DUP3 ADD SWAP3 SWAP1 DUP3 ADD SWAP1 PUSH1 0x1 ADD PUSH2 0x2098 JUMP JUMPDEST POP POP POP POP POP SWAP3 SWAP2 POP POP JUMP JUMPDEST PUSH1 0x0 DUP3 PUSH1 0x1F DUP4 ADD SLT PUSH2 0x20D8 JUMPI DUP1 DUP2 REVERT JUMPDEST PUSH2 0x20E2 PUSH1 0x60 PUSH2 0x2AA9 JUMP JUMPDEST SWAP1 POP DUP1 DUP3 DUP5 PUSH1 0x60 DUP6 ADD GT ISZERO PUSH2 0x20F6 JUMPI PUSH1 0x0 DUP1 REVERT JUMPDEST PUSH1 0x0 JUMPDEST PUSH1 0x3 DUP2 LT ISZERO PUSH2 0x2048 JUMPI DUP2 MLOAD DUP4 MSTORE PUSH1 0x20 SWAP3 DUP4 ADD SWAP3 SWAP1 SWAP2 ADD SWAP1 PUSH1 0x1 ADD PUSH2 0x20F9 JUMP JUMPDEST PUSH1 0x0 DUP3 PUSH1 0x1F DUP4 ADD SLT PUSH2 0x2128 JUMPI DUP1 DUP2 REVERT JUMPDEST DUP2 CALLDATALOAD PUSH2 0x2136 PUSH2 0x206F DUP3 PUSH2 0x2ACF JUMP JUMPDEST DUP2 DUP2 MSTORE SWAP2 POP PUSH1 0x20 DUP1 DUP4 ADD SWAP1 DUP5 DUP2 ADD DUP2 DUP5 MUL DUP7 ADD DUP3 ADD DUP8 LT ISZERO PUSH2 0x2157 JUMPI PUSH1 0x0 DUP1 REVERT JUMPDEST PUSH1 0x0 JUMPDEST DUP5 DUP2 LT ISZERO PUSH2 0x20BD JUMPI DUP2 CALLDATALOAD DUP5 MSTORE SWAP3 DUP3 ADD SWAP3 SWAP1 DUP3 ADD SWAP1 PUSH1 0x1 ADD PUSH2 0x215A JUMP JUMPDEST PUSH1 0x0 DUP3 PUSH1 0x1F DUP4 ADD SLT PUSH2 0x2186 JUMPI DUP1 DUP2 REVERT JUMPDEST DUP2 MLOAD PUSH2 0x2194 PUSH2 0x206F DUP3 PUSH2 0x2ACF JUMP JUMPDEST DUP2 DUP2 MSTORE SWAP2 POP PUSH1 0x20 DUP1 DUP4 ADD SWAP1 DUP5 DUP2 ADD DUP2 DUP5 MUL DUP7 ADD DUP3 ADD DUP8 LT ISZERO PUSH2 0x21B5 JUMPI PUSH1 0x0 DUP1 REVERT JUMPDEST PUSH1 0x0 JUMPDEST DUP5 DUP2 LT ISZERO PUSH2 0x20BD JUMPI DUP2 MLOAD DUP5 MSTORE SWAP3 DUP3 ADD SWAP3 SWAP1 DUP3 ADD SWAP1 PUSH1 0x1 ADD PUSH2 0x21B8 JUMP JUMPDEST PUSH1 0x0 PUSH1 0x20 DUP3 DUP5 SUB SLT ISZERO PUSH2 0x21E5 JUMPI DUP1 DUP2 REVERT JUMPDEST DUP2 CALLDATALOAD PUSH2 0x3F8 DUP2 PUSH2 0x2AEE JUMP JUMPDEST PUSH1 0x0 PUSH1 0x20 DUP3 DUP5 SUB SLT ISZERO PUSH2 0x2201 JUMPI DUP1 DUP2 REVERT JUMPDEST DUP2 MLOAD PUSH2 0x3F8 DUP2 PUSH2 0x2AEE JUMP JUMPDEST PUSH1 0x0 PUSH1 0x20 DUP3 DUP5 SUB SLT ISZERO PUSH2 0x221D JUMPI DUP1 DUP2 REVERT JUMPDEST DUP2 MLOAD PUSH1 0x1 PUSH1 0x1 PUSH1 0x40 SHL SUB DUP2 GT ISZERO PUSH2 0x2232 JUMPI DUP2 DUP3 REVERT JUMPDEST PUSH2 0x1329 DUP5 DUP3 DUP6 ADD PUSH2 0x2176 JUMP JUMPDEST PUSH1 0x0 PUSH1 0x20 DUP3 DUP5 SUB SLT ISZERO PUSH2 0x224F JUMPI DUP1 DUP2 REVERT JUMPDEST DUP2 MLOAD DUP1 ISZERO ISZERO DUP2 EQ PUSH2 0x3F8 JUMPI DUP2 DUP3 REVERT JUMPDEST PUSH1 0x0 PUSH1 0x20 DUP3 DUP5 SUB SLT ISZERO PUSH2 0x226F JUMPI DUP1 DUP2 REVERT JUMPDEST DUP2 MLOAD PUSH1 0x1 PUSH1 0x1 PUSH1 0x40 SHL SUB DUP1 DUP3 GT ISZERO PUSH2 0x2285 JUMPI DUP3 DUP4 REVERT JUMPDEST SWAP1 DUP4 ADD SWAP1 PUSH2 0x140 DUP3 DUP7 SUB SLT ISZERO PUSH2 0x2299 JUMPI DUP3 DUP4 REVERT JUMPDEST PUSH2 0x22A3 PUSH1 0xE0 PUSH2 0x2AA9 JUMP JUMPDEST DUP3 MLOAD DUP2 MSTORE PUSH1 0x20 DUP4 ADD MLOAD PUSH1 0x20 DUP3 ADD MSTORE PUSH1 0x40 DUP4 ADD MLOAD PUSH1 0x40 DUP3 ADD MSTORE PUSH1 0x60 DUP4 ADD MLOAD PUSH1 0x60 DUP3 ADD MSTORE PUSH2 0x22D2 DUP7 PUSH1 0x80 DUP6 ADD PUSH2 0x1FEE JUMP JUMPDEST PUSH1 0x80 DUP3 ADD MSTORE PUSH2 0x22E4 DUP7 PUSH1 0xC0 DUP6 ADD PUSH2 0x20C8 JUMP JUMPDEST PUSH1 0xA0 DUP3 ADD MSTORE PUSH2 0x120 DUP4 ADD MLOAD DUP3 DUP2 GT ISZERO PUSH2 0x22FB JUMPI DUP5 DUP6 REVERT JUMPDEST PUSH2 0x2307 DUP8 DUP3 DUP7 ADD PUSH2 0x2176 JUMP JUMPDEST PUSH1 0xC0 DUP4 ADD MSTORE POP SWAP6 SWAP5 POP POP POP POP POP JUMP JUMPDEST PUSH1 0x0 PUSH1 0x20 DUP3 DUP5 SUB SLT ISZERO PUSH2 0x2327 JUMPI DUP1 DUP2 REVERT JUMPDEST POP CALLDATALOAD SWAP2 SWAP1 POP JUMP JUMPDEST PUSH1 0x0 PUSH1 0x20 DUP3 DUP5 SUB SLT ISZERO PUSH2 0x233F JUMPI DUP1 DUP2 REVERT JUMPDEST POP MLOAD SWAP2 SWAP1 POP JUMP JUMPDEST PUSH1 0x0 DUP1 PUSH1 0x0 DUP1 PUSH1 0x80 DUP6 DUP8 SUB SLT ISZERO PUSH2 0x235B JUMPI DUP3 DUP4 REVERT JUMPDEST DUP5 CALLDATALOAD SWAP4 POP PUSH1 0x20 DUP6 ADD CALLDATALOAD PUSH1 0x1 PUSH1 0x1 PUSH1 0x40 SHL SUB DUP1 DUP3 GT ISZERO PUSH2 0x2378 JUMPI DUP5 DUP6 REVERT JUMPDEST PUSH2 0x2384 DUP9 DUP4 DUP10 ADD PUSH2 0x2051 JUMP JUMPDEST SWAP5 POP PUSH1 0x40 DUP8 ADD CALLDATALOAD SWAP2 POP DUP1 DUP3 GT ISZERO PUSH2 0x2399 JUMPI DUP4 DUP5 REVERT JUMPDEST PUSH2 0x23A5 DUP9 DUP4 DUP10 ADD PUSH2 0x2118 JUMP JUMPDEST SWAP4 POP PUSH1 0x60 DUP8 ADD CALLDATALOAD SWAP2 POP DUP1 DUP3 GT ISZERO PUSH2 0x23BA JUMPI DUP3 DUP4 REVERT JUMPDEST POP PUSH2 0x23C7 DUP8 DUP3 DUP9 ADD PUSH2 0x2118 JUMP JUMPDEST SWAP2 POP POP SWAP3 SWAP6 SWAP2 SWAP5 POP SWAP3 POP JUMP JUMPDEST PUSH1 0x0 DUP1 PUSH1 0x40 DUP4 DUP6 SUB SLT ISZERO PUSH2 0x23E5 JUMPI DUP2 DUP3 REVERT JUMPDEST DUP3 CALLDATALOAD SWAP2 POP PUSH1 0x20 DUP4 ADD CALLDATALOAD PUSH1 0x1 PUSH1 0x1 PUSH1 0x40 SHL SUB DUP2 GT ISZERO PUSH2 0x2401 JUMPI DUP2 DUP3 REVERT JUMPDEST PUSH2 0x240D DUP6 DUP3 DUP7 ADD PUSH2 0x2118 JUMP JUMPDEST SWAP2 POP POP SWAP3 POP SWAP3 SWAP1 POP JUMP JUMPDEST PUSH1 0x0 DUP1 PUSH1 0x40 DUP4 DUP6 SUB SLT ISZERO PUSH2 0x2429 JUMPI DUP2 DUP3 REVERT JUMPDEST POP POP DUP1 CALLDATALOAD SWAP3 PUSH1 0x20 SWAP1 SWAP2 ADD CALLDATALOAD SWAP2 POP JUMP JUMPDEST PUSH1 0x0 DUP1 PUSH1 0x0 PUSH1 0x60 DUP5 DUP7 SUB SLT ISZERO PUSH2 0x244C JUMPI DUP1 DUP2 REVERT JUMPDEST DUP4 CALLDATALOAD SWAP3 POP PUSH1 0x20 DUP5 ADD CALLDATALOAD SWAP2 POP PUSH1 0x40 DUP5 ADD CALLDATALOAD PUSH1 0x1 PUSH1 0x1 PUSH1 0x40 SHL SUB DUP2 GT ISZERO PUSH2 0x246F JUMPI DUP2 DUP3 REVERT JUMPDEST PUSH2 0x247B DUP7 DUP3 DUP8 ADD PUSH2 0x2118 JUMP JUMPDEST SWAP2 POP POP SWAP3 POP SWAP3 POP SWAP3 JUMP JUMPDEST PUSH1 0x0 DUP1 PUSH1 0x0 DUP1 PUSH1 0x80 DUP6 DUP8 SUB SLT ISZERO PUSH2 0x249A JUMPI DUP2 DUP3 REVERT JUMPDEST DUP5 CALLDATALOAD SWAP4 POP PUSH1 0x20 DUP6 ADD CALLDATALOAD SWAP3 POP PUSH1 0x40 DUP6 ADD CALLDATALOAD PUSH2 0x24B3 DUP2 PUSH2 0x2AEE JUMP JUMPDEST SWAP2 POP PUSH1 0x60 DUP6 ADD CALLDATALOAD PUSH1 0x1 PUSH1 0x1 PUSH1 0x40 SHL SUB DUP2 GT ISZERO PUSH2 0x24CD JUMPI DUP2 DUP3 REVERT JUMPDEST PUSH2 0x23C7 DUP8 DUP3 DUP9 ADD PUSH2 0x2051 JUMP JUMPDEST PUSH1 0x0 DUP1 PUSH1 0x0 PUSH1 0x60 DUP5 DUP7 SUB SLT ISZERO PUSH2 0x24ED JUMPI DUP1 DUP2 REVERT JUMPDEST POP POP DUP2 CALLDATALOAD SWAP4 PUSH1 0x20 DUP4 ADD CALLDATALOAD SWAP4 POP PUSH1 0x40 SWAP1 SWAP3 ADD CALLDATALOAD SWAP2 SWAP1 POP JUMP JUMPDEST PUSH1 0x1 PUSH1 0x1 PUSH1 0xA0 SHL SUB AND DUP2 MSTORE PUSH1 0x20 ADD SWAP1 JUMP JUMPDEST PUSH1 0x0 DUP2 MLOAD DUP1 DUP5 MSTORE PUSH1 0x20 DUP1 DUP6 ADD SWAP5 POP DUP1 DUP5 ADD DUP4 JUMPDEST DUP4 DUP2 LT ISZERO PUSH2 0x254D JUMPI DUP2 MLOAD PUSH1 0x1 PUSH1 0x1 PUSH1 0xA0 SHL SUB AND DUP8 MSTORE SWAP6 DUP3 ADD SWAP6 SWAP1 DUP3 ADD SWAP1 PUSH1 0x1 ADD PUSH2 0x2528 JUMP JUMPDEST POP SWAP5 SWAP6 SWAP5 POP POP POP POP POP JUMP JUMPDEST PUSH1 0x0 DUP2 MLOAD DUP1 DUP5 MSTORE PUSH1 0x20 DUP1 DUP6 ADD DUP1 DUP2 SWAP7 POP DUP3 DUP5 MUL DUP2 ADD SWAP2 POP DUP3 DUP7 ADD DUP6 JUMPDEST DUP6 DUP2 LT ISZERO PUSH2 0x2619 JUMPI DUP3 DUP5 SUB DUP10 MSTORE DUP2 MLOAD DUP1 MLOAD DUP6 MSTORE DUP6 DUP2 ADD MLOAD DUP7 DUP7 ADD MSTORE PUSH1 0x40 DUP1 DUP3 ADD MLOAD SWAP1 DUP7 ADD MSTORE PUSH1 0x60 DUP1 DUP3 ADD MLOAD SWAP1 DUP7 ADD MSTORE PUSH1 0x80 DUP1 DUP3 ADD MLOAD PUSH2 0x140 SWAP2 DUP8 ADD SWAP1 DUP11 JUMPDEST PUSH1 0x2 DUP2 LT ISZERO PUSH2 0x25D4 JUMPI PUSH2 0x25C6 DUP4 DUP4 MLOAD PUSH2 0x2504 JUMP JUMPDEST SWAP3 POP SWAP1 DUP10 ADD SWAP1 PUSH1 0x1 ADD PUSH2 0x25B2 JUMP JUMPDEST POP POP POP PUSH1 0xA0 DUP3 ADD MLOAD PUSH1 0xC0 PUSH2 0x25EA DUP2 DUP10 ADD DUP4 PUSH2 0x2626 JUMP JUMPDEST DUP1 DUP5 ADD MLOAD SWAP4 POP POP POP DUP1 PUSH2 0x120 DUP8 ADD MSTORE PUSH2 0x2605 DUP2 DUP8 ADD DUP4 PUSH2 0x264F JUMP JUMPDEST SWAP11 DUP8 ADD SWAP11 SWAP6 POP POP POP SWAP1 DUP5 ADD SWAP1 PUSH1 0x1 ADD PUSH2 0x2574 JUMP JUMPDEST POP SWAP2 SWAP8 SWAP7 POP POP POP POP POP POP POP JUMP JUMPDEST DUP1 PUSH1 0x0 JUMPDEST PUSH1 0x3 DUP2 LT ISZERO PUSH2 0x2649 JUMPI DUP2 MLOAD DUP5 MSTORE PUSH1 0x20 SWAP4 DUP5 ADD SWAP4 SWAP1 SWAP2 ADD SWAP1 PUSH1 0x1 ADD PUSH2 0x262A JUMP JUMPDEST POP POP POP POP JUMP JUMPDEST PUSH1 0x0 DUP2 MLOAD DUP1 DUP5 MSTORE PUSH1 0x20 DUP1 DUP6 ADD SWAP5 POP DUP1 DUP5 ADD DUP4 JUMPDEST DUP4 DUP2 LT ISZERO PUSH2 0x254D JUMPI DUP2 MLOAD DUP8 MSTORE SWAP6 DUP3 ADD SWAP6 SWAP1 DUP3 ADD SWAP1 PUSH1 0x1 ADD PUSH2 0x2662 JUMP JUMPDEST PUSH1 0x1 PUSH1 0x1 PUSH1 0xA0 SHL SUB SWAP2 SWAP1 SWAP2 AND DUP2 MSTORE PUSH1 0x20 ADD SWAP1 JUMP JUMPDEST PUSH1 0x1 PUSH1 0x1 PUSH1 0xA0 SHL SUB DUP6 AND DUP2 MSTORE PUSH1 0x80 PUSH1 0x20 DUP3 ADD DUP2 SWAP1 MSTORE PUSH1 0x0 SWAP1 PUSH2 0x26B6 SWAP1 DUP4 ADD DUP7 PUSH2 0x2515 JUMP JUMPDEST DUP3 DUP2 SUB PUSH1 0x40 DUP5 ADD MSTORE PUSH2 0x26C8 DUP2 DUP7 PUSH2 0x264F JUMP JUMPDEST SWAP1 POP DUP3 DUP2 SUB PUSH1 0x60 DUP5 ADD MSTORE PUSH2 0x26DC DUP2 DUP6 PUSH2 0x264F JUMP JUMPDEST SWAP8 SWAP7 POP POP POP POP POP POP POP JUMP JUMPDEST PUSH1 0x1 PUSH1 0x1 PUSH1 0xA0 SHL SUB SWAP3 SWAP1 SWAP3 AND DUP3 MSTORE PUSH1 0x20 DUP3 ADD MSTORE PUSH1 0x40 ADD SWAP1 JUMP JUMPDEST PUSH1 0x1 PUSH1 0x1 PUSH1 0xA0 SHL SUB DUP6 DUP2 AND DUP3 MSTORE PUSH1 0x20 DUP3 ADD DUP6 SWAP1 MSTORE DUP4 AND PUSH1 0x40 DUP3 ADD MSTORE PUSH1 0x80 PUSH1 0x60 DUP3 ADD DUP2 SWAP1 MSTORE PUSH1 0x0 SWAP1 PUSH2 0x2733 SWAP1 DUP4 ADD DUP5 PUSH2 0x2515 JUMP JUMPDEST SWAP7 SWAP6 POP POP POP POP POP POP JUMP JUMPDEST PUSH1 0x0 PUSH1 0x20 DUP1 DUP4 ADD DUP2 DUP5 MSTORE DUP1 DUP6 MLOAD DUP1 DUP4 MSTORE PUSH1 0x40 DUP7 ADD SWAP2 POP PUSH1 0x40 DUP5 DUP3 MUL DUP8 ADD ADD SWAP3 POP DUP4 DUP8 ADD DUP6 JUMPDEST DUP3 DUP2 LT ISZERO PUSH2 0x2790 JUMPI PUSH1 0x3F NOT DUP9 DUP7 SUB ADD DUP5 MSTORE PUSH2 0x277E DUP6 DUP4 MLOAD PUSH2 0x2558 JUMP JUMPDEST SWAP5 POP SWAP3 DUP6 ADD SWAP3 SWAP1 DUP6 ADD SWAP1 PUSH1 0x1 ADD PUSH2 0x2762 JUMP JUMPDEST POP SWAP3 SWAP8 SWAP7 POP POP POP POP POP POP POP JUMP JUMPDEST PUSH1 0x0 PUSH1 0x20 DUP3 MSTORE PUSH2 0x3F8 PUSH1 0x20 DUP4 ADD DUP5 PUSH2 0x2558 JUMP JUMPDEST PUSH1 0x20 DUP1 DUP3 MSTORE DUP3 MLOAD DUP3 DUP3 ADD DUP2 SWAP1 MSTORE PUSH1 0x0 SWAP2 SWAP1 PUSH1 0x40 SWAP1 DUP2 DUP6 ADD SWAP1 DUP7 DUP5 ADD DUP6 JUMPDEST DUP3 DUP2 LT ISZERO PUSH2 0x2619 JUMPI DUP2 MLOAD DUP1 MLOAD PUSH1 0x1 PUSH1 0x1 PUSH1 0xA0 SHL SUB AND DUP6 MSTORE DUP7 ADD MLOAD DUP7 DUP6 ADD MSTORE SWAP3 DUP5 ADD SWAP3 SWAP1 DUP6 ADD SWAP1 PUSH1 0x1 ADD PUSH2 0x27CD JUMP JUMPDEST SWAP1 ISZERO ISZERO DUP2 MSTORE PUSH1 0x20 ADD SWAP1 JUMP JUMPDEST PUSH1 0x0 PUSH1 0x20 DUP1 DUP4 MSTORE DUP4 MLOAD DUP1 DUP3 DUP6 ADD MSTORE DUP3 JUMPDEST DUP2 DUP2 LT ISZERO PUSH2 0x2832 JUMPI DUP6 DUP2 ADD DUP4 ADD MLOAD DUP6 DUP3 ADD PUSH1 0x40 ADD MSTORE DUP3 ADD PUSH2 0x2816 JUMP JUMPDEST DUP2 DUP2 GT ISZERO PUSH2 0x2843 JUMPI DUP4 PUSH1 0x40 DUP4 DUP8 ADD ADD MSTORE JUMPDEST POP PUSH1 0x1F ADD PUSH1 0x1F NOT AND SWAP3 SWAP1 SWAP3 ADD PUSH1 0x40 ADD SWAP4 SWAP3 POP POP POP JUMP JUMPDEST PUSH1 0x20 DUP1 DUP3 MSTORE PUSH1 0x14 SWAP1 DUP3 ADD MSTORE PUSH20 0x14185D5CD8589B194E881B9BDD081C185D5CD959 PUSH1 0x62 SHL PUSH1 0x40 DUP3 ADD MSTORE PUSH1 0x60 ADD SWAP1 JUMP JUMPDEST PUSH1 0x20 DUP1 DUP3 MSTORE PUSH1 0x26 SWAP1 DUP3 ADD MSTORE PUSH32 0x4F776E61626C653A206E6577206F776E657220697320746865207A65726F2061 PUSH1 0x40 DUP3 ADD MSTORE PUSH6 0x646472657373 PUSH1 0xD0 SHL PUSH1 0x60 DUP3 ADD MSTORE PUSH1 0x80 ADD SWAP1 JUMP JUMPDEST PUSH1 0x20 DUP1 DUP3 MSTORE PUSH1 0x1B SWAP1 DUP3 ADD MSTORE PUSH32 0x536166654D6174683A206164646974696F6E206F766572666C6F770000000000 PUSH1 0x40 DUP3 ADD MSTORE PUSH1 0x60 ADD SWAP1 JUMP JUMPDEST PUSH1 0x20 DUP1 DUP3 MSTORE PUSH1 0x10 SWAP1 DUP3 ADD MSTORE PUSH16 0x14185D5CD8589B194E881C185D5CD959 PUSH1 0x82 SHL PUSH1 0x40 DUP3 ADD MSTORE PUSH1 0x60 ADD SWAP1 JUMP JUMPDEST PUSH1 0x20 DUP1 DUP3 MSTORE PUSH1 0x28 SWAP1 DUP3 ADD MSTORE PUSH32 0x436F726E4669205661756C7420426173653A205472616465204944204F757420 PUSH1 0x40 DUP3 ADD MSTORE PUSH8 0x6F662052616E6765 PUSH1 0xC0 SHL PUSH1 0x60 DUP3 ADD MSTORE PUSH1 0x80 ADD SWAP1 JUMP JUMPDEST PUSH1 0x20 DUP1 DUP3 MSTORE DUP2 DUP2 ADD MSTORE PUSH32 0x4F776E61626C653A2063616C6C6572206973206E6F7420746865206F776E6572 PUSH1 0x40 DUP3 ADD MSTORE PUSH1 0x60 ADD SWAP1 JUMP JUMPDEST PUSH1 0x20 DUP1 DUP3 MSTORE PUSH1 0x29 SWAP1 DUP3 ADD MSTORE PUSH32 0x436F726E4669205661756C742051756572793A20546F6B656E204944204F7574 PUSH1 0x40 DUP3 ADD MSTORE PUSH9 0x206F662052616E6765 PUSH1 0xB8 SHL PUSH1 0x60 DUP3 ADD MSTORE PUSH1 0x80 ADD SWAP1 JUMP JUMPDEST PUSH1 0x20 DUP1 DUP3 MSTORE PUSH1 0x3B SWAP1 DUP3 ADD MSTORE PUSH32 0x436F726E4669205661756C7420426173653A205374617274696E6720496E6465 PUSH1 0x40 DUP3 ADD MSTORE PUSH32 0x782047726561746572205468616E20456E64696E6720496E6465780000000000 PUSH1 0x60 DUP3 ADD MSTORE PUSH1 0x80 ADD SWAP1 JUMP JUMPDEST PUSH1 0x20 DUP1 DUP3 MSTORE PUSH1 0x21 SWAP1 DUP3 ADD MSTORE PUSH32 0x436F726E466920436F6E74726F6C6C65723A20496E616374697665205661756C PUSH1 0x40 DUP3 ADD MSTORE PUSH1 0x1D PUSH1 0xFA SHL PUSH1 0x60 DUP3 ADD MSTORE PUSH1 0x80 ADD SWAP1 JUMP JUMPDEST SWAP1 DUP2 MSTORE PUSH1 0x20 ADD SWAP1 JUMP JUMPDEST SWAP2 DUP3 MSTORE PUSH1 0x20 DUP3 ADD MSTORE PUSH1 0x40 ADD SWAP1 JUMP JUMPDEST PUSH1 0x40 MLOAD DUP2 DUP2 ADD PUSH1 0x1 PUSH1 0x1 PUSH1 0x40 SHL SUB DUP2 GT DUP3 DUP3 LT OR ISZERO PUSH2 0x2AC7 JUMPI PUSH1 0x0 DUP1 REVERT JUMPDEST PUSH1 0x40 MSTORE SWAP2 SWAP1 POP JUMP JUMPDEST PUSH1 0x0 PUSH1 0x1 PUSH1 0x1 PUSH1 0x40 SHL SUB DUP3 GT ISZERO PUSH2 0x2AE4 JUMPI DUP1 DUP2 REVERT JUMPDEST POP PUSH1 0x20 SWAP1 DUP2 MUL ADD SWAP1 JUMP JUMPDEST PUSH1 0x1 PUSH1 0x1 PUSH1 0xA0 SHL SUB DUP2 AND DUP2 EQ PUSH2 0x2B03 JUMPI PUSH1 0x0 DUP1 REVERT JUMPDEST POP JUMP INVALID LOG2 PUSH5 0x6970667358 0x22 SLT KECCAK256 CALLDATASIZE DUP9 SAR PUSH3 0x90BA14 0x5D SWAP13 SLT 0xD8 0xB8 0x24 0x26 0xB4 SWAP1 KECCAK256 STATICCALL BLOCKHASH SELFBALANCE 0xC1 PUSH14 0xC7212B9B419F362E990064736F6C PUSH4 0x4300060C STOP CALLER ",
  "sha1": "9fe4a6e919c5a35f0ede7f63085baa906d920578",
  "source": "// SPDX-License-Identifier: MIT\npragma solidity 0.6.12;\n\nimport \"./Vaults/VaultBase.sol\";\nimport \"./Settings.sol\";\nimport \"../interfaces/IVaultBase.sol\";\nimport \"../interfaces/IUniswapV2Router02.sol\";\nimport \"./openzeppelin/contracts/math/SafeMath.sol\";\nimport \"./openzeppelin/contracts/access/Ownable.sol\";\nimport \"./openzeppelin/contracts/utils/Pausable.sol\";\n\n\n\npragma experimental ABIEncoderV2;\n\ncontract Controller is Ownable, Pausable {\n    using SafeMath for uint256;\n\n    struct UserTokens {\n        address vault;\n        uint256 tokenId;\n    }\n\n    Settings public settings;\n\n\n    constructor(\n        address _feeAddress,\n        uint256 _slippagePoints,\n        uint256 _slippageBasePoints,\n        address[] memory _routers\n    ) public {\n        settings = new Settings(_feeAddress, address(this), _slippagePoints, _slippageBasePoints, _routers);\n        settings.transferOwnership(msg.sender);\n    }\n\n\n    function viewTrades(uint256 _vaultId, uint256 _tokenId, uint256[] memory _tradeIds) public view returns (VaultBase.Order[][] memory) {\n        VaultBase _vault = VaultBase(settings.vaults(_vaultId));\n        require(_tokenId <= _vault.tokenCounter(), \"CornFi Vault Query: Token ID Out of Range\");\n        VaultBase.Order[][] memory tradeOrders = new VaultBase.Order[][](_tradeIds.length);\n        for(uint i = 0; i < _tradeIds.length; i++) {\n            require(_tradeIds[i] <= _vault._tokenTradeLength(_tokenId), \"CornFi Vault Base: Trade ID Out of Range\");\n            tradeOrders[i] = _viewTrade(_vault, _tokenId, _tradeIds[i]);\n        }\n        return tradeOrders;\n    }\n\n\n    // --------------------------------------------------------------------------------\n    // --------------------------------------------------------------------------------\n\n\n    function viewOrders(uint256 _vaultId, uint256[] memory _orderIds) public view returns (VaultBase.Order[] memory) {\n        VaultBase _vault = VaultBase(settings.vaults(_vaultId));\n        VaultBase.Order[] memory _orders = new VaultBase.Order[](_orderIds.length);\n        for(uint i = 0; i < _orderIds.length; i++) {\n            //require(_orderIds[i] < _vault.ordersLength(), \"CornFi Vault Base: Order ID Out of Range\");\n            _orders[i] = _vault.order(_orderIds[i]);\n        }\n        return _orders;\n    }\n\n\n    // --------------------------------------------------------------------------------\n    // --------------------------------------------------------------------------------\n\n\n    function viewOpenOrdersByToken(uint256 _vaultId, uint256 _tokenId) public view returns (VaultBase.Order[] memory) {\n        VaultBase _vault = VaultBase(settings.vaults(_vaultId));\n        //require(_tokenId <= tokenCounter, \"CornFi Vault Base: Token ID Out of Range\");\n        uint256 orderLength = _vault.tokenOpenOrdersLength(_tokenId);\n        VaultBase.Order[] memory _orders = new VaultBase.Order[](orderLength);\n        for(uint i = 0; i < orderLength; i++) {\n            _orders[i] = _vault.order(_vault.tokenOpenOrderId(_tokenId, i));\n        }\n        return _orders;\n    }\n\n\n    // --------------------------------------------------------------------------------\n    // --------------------------------------------------------------------------------\n\n\n    function viewOpenOrdersInRange(uint256 _vaultId, uint256 _start, uint256 _end) public view returns (VaultBase.Order[] memory) {\n        VaultBase _vault = VaultBase(settings.vaults(_vaultId));\n        require(_start <= _end, \"CornFi Vault Base: Starting Index Greater Than Ending Index\");\n        //require(_end < openOrderIds.length, \"CornFi Vault Base: End Index Out of Range\");\n        VaultBase.Order[] memory _orders = new VaultBase.Order[](_end.sub(_start).add(1));\n        for(uint i = _start; i <= _end; i++) {\n            _orders[i.sub(_start)] = _vault.order(_vault.openOrderId(i));\n        }\n        return _orders;\n    }\n\n\n    // --------------------------------------------------------------------------------\n    // --------------------------------------------------------------------------------\n\n\n    function ordersLength(uint256 _vaultId) public view returns (uint256) {\n        VaultBase _vault = VaultBase(settings.vaults(_vaultId));\n        return _vault.ordersLength();\n    }\n\n\n    // --------------------------------------------------------------------------------\n    // --------------------------------------------------------------------------------\n\n\n    function openOrdersLength(uint256 _vaultId) public view returns (uint256) {\n        VaultBase _vault = VaultBase(settings.vaults(_vaultId));\n        return _vault.openOrdersLength();\n    }\n\n\n    // --------------------------------------------------------------------------------\n    // --------------------------------------------------------------------------------\n\n\n    function tokenOpenOrdersLength(uint256 _vaultId, uint256 _tokenId) public view returns (uint256) {\n        VaultBase _vault = VaultBase(settings.vaults(_vaultId));\n        return _vault.tokenOpenOrdersLength(_tokenId);\n    }\n\n\n    // --------------------------------------------------------------------------------\n    // --------------------------------------------------------------------------------\n\n\n    function tokenLength(uint256 _vaultId) public view returns (uint256) {\n        VaultBase _vault = VaultBase(settings.vaults(_vaultId));\n        return _vault.tokenCounter();\n    }\n\n\n    // --------------------------------------------------------------------------------\n    // --------------------------------------------------------------------------------\n\n\n    function tokenTradeLength(uint256 _vaultId, uint256 _tokenId) public view returns (uint256) {\n        VaultBase _vault = VaultBase(settings.vaults(_vaultId));\n        //require(_tokenId <= tokenCounter, \"CornFi Vault Base: Token ID Out of Range\");\n        return _vault._tokenTradeLength(_tokenId);\n    }\n\n\n    // --------------------------------------------------------------------------------\n    // --------------------------------------------------------------------------------\n\n\n    function vaultTokensByOwner(address _owner) public view returns (UserTokens[] memory) {\n        uint256 tokensLength = 0;\n        for(uint256 k = 0; k < settings.vaultsLength(); k++) {\n            tokensLength += VaultBase(settings.vaults(k)).balanceOf(_owner);\n        }\n\n        UserTokens[] memory userTokens = new UserTokens[](tokensLength);\n        uint256 counter = 0;\n        for(uint256 i = 0; i < settings.vaultsLength(); i++) {\n            for(uint256 j = 0; j < VaultBase(settings.vaults(i)).balanceOf(_owner); j++) {\n                userTokens[counter++] = UserTokens(settings.vaults(i), VaultBase(settings.vaults(i)).tokenOfOwnerByIndex(_owner, j));\n            }\n        }\n\n        return userTokens;\n    }\n\n\n    // --------------------------------------------------------------------------------\n    // --------------------------------------------------------------------------------\n\n\n    function createTrade(uint256 _vaultId, address[] memory _tokens, uint256[] memory _amounts, uint[] memory _times) public whenNotPaused {\n        require(settings.vault(settings.vaults(_vaultId)), \"CornFi Controller: Inactive Vault\");\n        IVaultBase(settings.vaults(_vaultId)).createTrade(msg.sender, _tokens, _amounts, _times);\n    }\n\n\n    // --------------------------------------------------------------------------------\n    // --------------------------------------------------------------------------------\n\n\n    function fillOrder(uint256 _vaultId, uint256 _orderId) public whenNotPaused {\n        IVaultBase(settings.vaults(_vaultId)).fillOrder(msg.sender, _orderId);\n    }\n\n\n    // --------------------------------------------------------------------------------\n    // --------------------------------------------------------------------------------\n\n\n    function fillOrder(uint256 _vaultId, uint256 _orderId, IUniswapV2Router02 _router, address[] memory _path) public whenNotPaused {\n        IVaultBase(settings.vaults(_vaultId)).fillOrder(msg.sender, _orderId, _router, _path);\n    }\n\n\n    // --------------------------------------------------------------------------------\n    // --------------------------------------------------------------------------------\n\n\n    function withdraw(uint256 _vaultId, uint256 _tokenId) public {\n        IVaultBase(settings.vaults(_vaultId)).withdraw(msg.sender, _tokenId);\n    }\n\n\n    // --------------------------------------------------------------------------------\n    // --------------------------------------------------------------------------------\n\n\n    function setSettings(Settings _settings) public onlyOwner {\n        settings = _settings;\n    }\n\n\n    // --------------------------------------------------------------------------------\n    // --------------------------------------------------------------------------------\n\n\n    function pause() public onlyOwner {\n        _pause();\n    }\n\n\n    // --------------------------------------------------------------------------------\n    // --------------------------------------------------------------------------------\n\n\n    function unpause() public onlyOwner {\n        _unpause();\n    }\n\n\n    // --------------------------------------------------------------------------------\n    // --------------------------------------------------------------------------------\n\n\n    function _viewTrade(VaultBase _vault, uint256 _tokenId, uint256 _tradeId) internal view returns (VaultBase.Order[] memory) {\n        uint256[] memory tradeOrderIds = _vault.trade(_tokenId, _tradeId);\n        VaultBase.Order[] memory tradeOrders = new VaultBase.Order[](tradeOrderIds.length);\n        for(uint i = 0; i < tradeOrderIds.length; i++) {\n            tradeOrders[i] = _vault.order(tradeOrderIds[i]);\n        }\n        return tradeOrders;\n    }\n}",
  "sourcePath": "contracts/Controller.sol",
  "type": "contract"
}