{
  "_format": "hh-sol-artifact-1",
  "contractName": "Controller",
  "sourceName": "contracts/Controller.sol",
  "abi": [
    {
      "inputs": [
        {
          "internalType": "uint256",
          "name": "_slippagePoints",
          "type": "uint256"
        },
        {
          "internalType": "uint256",
          "name": "_slippageBasePoints",
          "type": "uint256"
        },
        {
          "internalType": "contract IUniswapV2Router02[]",
          "name": "_routers",
          "type": "address[]"
        },
        {
          "internalType": "address",
          "name": "_resolver",
          "type": "address"
        }
      ],
      "stateMutability": "nonpayable",
      "type": "constructor"
    },
    {
      "anonymous": false,
      "inputs": [
        {
          "indexed": true,
          "internalType": "address",
          "name": "_creator",
          "type": "address"
        },
        {
          "indexed": true,
          "internalType": "uint256",
          "name": "_vaultId",
          "type": "uint256"
        },
        {
          "indexed": false,
          "internalType": "uint256",
          "name": "_orderId",
          "type": "uint256"
        }
      ],
      "name": "CreateOrder",
      "type": "event"
    },
    {
      "anonymous": false,
      "inputs": [
        {
          "indexed": true,
          "internalType": "address",
          "name": "_creator",
          "type": "address"
        },
        {
          "indexed": true,
          "internalType": "uint256",
          "name": "_vaultId",
          "type": "uint256"
        },
        {
          "indexed": false,
          "internalType": "uint256",
          "name": "_tokenId",
          "type": "uint256"
        }
      ],
      "name": "CreateTrade",
      "type": "event"
    },
    {
      "anonymous": false,
      "inputs": [
        {
          "indexed": true,
          "internalType": "address",
          "name": "_orderOwner",
          "type": "address"
        },
        {
          "indexed": true,
          "internalType": "uint256",
          "name": "_vaultId",
          "type": "uint256"
        },
        {
          "indexed": true,
          "internalType": "uint256",
          "name": "_tokenId",
          "type": "uint256"
        },
        {
          "indexed": false,
          "internalType": "uint256",
          "name": "_orderId",
          "type": "uint256"
        }
      ],
      "name": "FillOrder",
      "type": "event"
    },
    {
      "anonymous": false,
      "inputs": [
        {
          "indexed": true,
          "internalType": "address",
          "name": "previousOwner",
          "type": "address"
        },
        {
          "indexed": true,
          "internalType": "address",
          "name": "newOwner",
          "type": "address"
        }
      ],
      "name": "OwnershipTransferred",
      "type": "event"
    },
    {
      "anonymous": false,
      "inputs": [
        {
          "indexed": false,
          "internalType": "address",
          "name": "account",
          "type": "address"
        }
      ],
      "name": "Paused",
      "type": "event"
    },
    {
      "anonymous": false,
      "inputs": [
        {
          "indexed": false,
          "internalType": "address",
          "name": "account",
          "type": "address"
        }
      ],
      "name": "Unpaused",
      "type": "event"
    },
    {
      "anonymous": false,
      "inputs": [
        {
          "indexed": true,
          "internalType": "address",
          "name": "_owner",
          "type": "address"
        },
        {
          "indexed": true,
          "internalType": "uint256",
          "name": "_vaultId",
          "type": "uint256"
        },
        {
          "indexed": true,
          "internalType": "uint256",
          "name": "_tokenId",
          "type": "uint256"
        }
      ],
      "name": "Withdraw",
      "type": "event"
    },
    {
      "inputs": [],
      "name": "ACTIVE_VAULT",
      "outputs": [
        {
          "internalType": "uint8",
          "name": "",
          "type": "uint8"
        }
      ],
      "stateMutability": "view",
      "type": "function"
    },
    {
      "inputs": [],
      "name": "DEACTIVATED_VAULT",
      "outputs": [
        {
          "internalType": "uint8",
          "name": "",
          "type": "uint8"
        }
      ],
      "stateMutability": "view",
      "type": "function"
    },
    {
      "inputs": [],
      "name": "DepositFees",
      "outputs": [
        {
          "internalType": "address",
          "name": "",
          "type": "address"
        }
      ],
      "stateMutability": "view",
      "type": "function"
    },
    {
      "inputs": [],
      "name": "ETH",
      "outputs": [
        {
          "internalType": "address",
          "name": "",
          "type": "address"
        }
      ],
      "stateMutability": "view",
      "type": "function"
    },
    {
      "inputs": [],
      "name": "Fees",
      "outputs": [
        {
          "internalType": "address",
          "name": "",
          "type": "address"
        }
      ],
      "stateMutability": "view",
      "type": "function"
    },
    {
      "inputs": [],
      "name": "GasTank",
      "outputs": [
        {
          "internalType": "contract IGasTank",
          "name": "",
          "type": "address"
        }
      ],
      "stateMutability": "view",
      "type": "function"
    },
    {
      "inputs": [],
      "name": "GasToken",
      "outputs": [
        {
          "internalType": "address",
          "name": "",
          "type": "address"
        }
      ],
      "stateMutability": "view",
      "type": "function"
    },
    {
      "inputs": [],
      "name": "Gelato",
      "outputs": [
        {
          "internalType": "bool",
          "name": "",
          "type": "bool"
        }
      ],
      "stateMutability": "view",
      "type": "function"
    },
    {
      "inputs": [],
      "name": "NOT_A_VAULT",
      "outputs": [
        {
          "internalType": "uint8",
          "name": "",
          "type": "uint8"
        }
      ],
      "stateMutability": "view",
      "type": "function"
    },
    {
      "inputs": [],
      "name": "PokeMe",
      "outputs": [
        {
          "internalType": "contract IPokeMe",
          "name": "",
          "type": "address"
        }
      ],
      "stateMutability": "view",
      "type": "function"
    },
    {
      "inputs": [],
      "name": "Resolver",
      "outputs": [
        {
          "internalType": "contract IResolver",
          "name": "",
          "type": "address"
        }
      ],
      "stateMutability": "view",
      "type": "function"
    },
    {
      "inputs": [],
      "name": "SLIPPAGE_BASE_POINTS",
      "outputs": [
        {
          "internalType": "uint256",
          "name": "",
          "type": "uint256"
        }
      ],
      "stateMutability": "view",
      "type": "function"
    },
    {
      "inputs": [],
      "name": "SLIPPAGE_POINTS",
      "outputs": [
        {
          "internalType": "uint256",
          "name": "",
          "type": "uint256"
        }
      ],
      "stateMutability": "view",
      "type": "function"
    },
    {
      "inputs": [
        {
          "internalType": "contract IUniswapV2Router02",
          "name": "",
          "type": "address"
        }
      ],
      "name": "activeRouters",
      "outputs": [
        {
          "internalType": "bool",
          "name": "",
          "type": "bool"
        }
      ],
      "stateMutability": "view",
      "type": "function"
    },
    {
      "inputs": [
        {
          "internalType": "contract IUniswapV2Router02",
          "name": "_router",
          "type": "address"
        }
      ],
      "name": "addRouter",
      "outputs": [],
      "stateMutability": "nonpayable",
      "type": "function"
    },
    {
      "inputs": [
        {
          "internalType": "address",
          "name": "_vault",
          "type": "address"
        }
      ],
      "name": "addVault",
      "outputs": [],
      "stateMutability": "nonpayable",
      "type": "function"
    },
    {
      "inputs": [
        {
          "internalType": "uint256",
          "name": "_vaultId",
          "type": "uint256"
        },
        {
          "internalType": "address",
          "name": "_token",
          "type": "address"
        },
        {
          "internalType": "uint256",
          "name": "_minDeposit",
          "type": "uint256"
        }
      ],
      "name": "changeTokenMinimumDeposit",
      "outputs": [],
      "stateMutability": "nonpayable",
      "type": "function"
    },
    {
      "inputs": [
        {
          "internalType": "uint256",
          "name": "_vaultId",
          "type": "uint256"
        },
        {
          "internalType": "address[]",
          "name": "_tokens",
          "type": "address[]"
        },
        {
          "internalType": "uint256[]",
          "name": "_amounts",
          "type": "uint256[]"
        },
        {
          "internalType": "uint256[]",
          "name": "_times",
          "type": "uint256[]"
        },
        {
          "internalType": "uint256",
          "name": "_maxGas",
          "type": "uint256"
        }
      ],
      "name": "createTrade",
      "outputs": [],
      "stateMutability": "nonpayable",
      "type": "function"
    },
    {
      "inputs": [
        {
          "internalType": "contract IUniswapV2Router02",
          "name": "_router",
          "type": "address"
        }
      ],
      "name": "deactivateRouter",
      "outputs": [],
      "stateMutability": "nonpayable",
      "type": "function"
    },
    {
      "inputs": [
        {
          "internalType": "uint256",
          "name": "_vaultId",
          "type": "uint256"
        },
        {
          "internalType": "address",
          "name": "_token",
          "type": "address"
        }
      ],
      "name": "deactivateToken",
      "outputs": [],
      "stateMutability": "nonpayable",
      "type": "function"
    },
    {
      "inputs": [
        {
          "internalType": "address",
          "name": "_vault",
          "type": "address"
        }
      ],
      "name": "deactivateVault",
      "outputs": [],
      "stateMutability": "nonpayable",
      "type": "function"
    },
    {
      "inputs": [
        {
          "internalType": "uint256",
          "name": "_vaultId",
          "type": "uint256"
        },
        {
          "internalType": "uint256",
          "name": "_orderId",
          "type": "uint256"
        },
        {
          "internalType": "contract IUniswapV2Router02",
          "name": "_router",
          "type": "address"
        },
        {
          "internalType": "address[]",
          "name": "_path",
          "type": "address[]"
        }
      ],
      "name": "fillOrderGelato",
      "outputs": [],
      "stateMutability": "nonpayable",
      "type": "function"
    },
    {
      "inputs": [],
      "name": "gelato",
      "outputs": [
        {
          "internalType": "address payable",
          "name": "",
          "type": "address"
        }
      ],
      "stateMutability": "view",
      "type": "function"
    },
    {
      "inputs": [
        {
          "internalType": "contract IPokeMe",
          "name": "_pokeMe",
          "type": "address"
        },
        {
          "internalType": "contract IResolver",
          "name": "_resolver",
          "type": "address"
        },
        {
          "internalType": "bool",
          "name": "_gelato",
          "type": "bool"
        },
        {
          "internalType": "contract IGasTank",
          "name": "_gasTank",
          "type": "address"
        }
      ],
      "name": "gelatoSettings",
      "outputs": [],
      "stateMutability": "nonpayable",
      "type": "function"
    },
    {
      "inputs": [
        {
          "internalType": "uint256",
          "name": "",
          "type": "uint256"
        }
      ],
      "name": "holdingStrategies",
      "outputs": [
        {
          "internalType": "address",
          "name": "",
          "type": "address"
        }
      ],
      "stateMutability": "view",
      "type": "function"
    },
    {
      "inputs": [],
      "name": "owner",
      "outputs": [
        {
          "internalType": "address",
          "name": "",
          "type": "address"
        }
      ],
      "stateMutability": "view",
      "type": "function"
    },
    {
      "inputs": [],
      "name": "pause",
      "outputs": [],
      "stateMutability": "nonpayable",
      "type": "function"
    },
    {
      "inputs": [],
      "name": "paused",
      "outputs": [
        {
          "internalType": "bool",
          "name": "",
          "type": "bool"
        }
      ],
      "stateMutability": "view",
      "type": "function"
    },
    {
      "inputs": [
        {
          "internalType": "uint256",
          "name": "_vaultId",
          "type": "uint256"
        }
      ],
      "name": "priceMultiplier",
      "outputs": [
        {
          "internalType": "uint256",
          "name": "",
          "type": "uint256"
        }
      ],
      "stateMutability": "view",
      "type": "function"
    },
    {
      "inputs": [],
      "name": "renounceOwnership",
      "outputs": [],
      "stateMutability": "nonpayable",
      "type": "function"
    },
    {
      "inputs": [
        {
          "internalType": "uint256",
          "name": "",
          "type": "uint256"
        }
      ],
      "name": "routers",
      "outputs": [
        {
          "internalType": "contract IUniswapV2Router02",
          "name": "",
          "type": "address"
        }
      ],
      "stateMutability": "view",
      "type": "function"
    },
    {
      "inputs": [
        {
          "internalType": "uint256",
          "name": "_slippagePoints",
          "type": "uint256"
        },
        {
          "internalType": "uint256",
          "name": "_slippageBasePoints",
          "type": "uint256"
        }
      ],
      "name": "setSlippage",
      "outputs": [],
      "stateMutability": "nonpayable",
      "type": "function"
    },
    {
      "inputs": [
        {
          "internalType": "uint256",
          "name": "_vaultId",
          "type": "uint256"
        },
        {
          "internalType": "address[]",
          "name": "_tokens",
          "type": "address[]"
        },
        {
          "internalType": "address[]",
          "name": "_strategies",
          "type": "address[]"
        },
        {
          "internalType": "uint256[]",
          "name": "_minDeposits",
          "type": "uint256[]"
        }
      ],
      "name": "setTokenStrategies",
      "outputs": [],
      "stateMutability": "nonpayable",
      "type": "function"
    },
    {
      "inputs": [
        {
          "internalType": "uint256",
          "name": "_vaultId",
          "type": "uint256"
        },
        {
          "internalType": "address",
          "name": "_token",
          "type": "address"
        },
        {
          "internalType": "address",
          "name": "_strategy",
          "type": "address"
        },
        {
          "internalType": "uint256",
          "name": "_minDeposit",
          "type": "uint256"
        }
      ],
      "name": "setTokenStrategy",
      "outputs": [],
      "stateMutability": "nonpayable",
      "type": "function"
    },
    {
      "inputs": [
        {
          "internalType": "uint256",
          "name": "_vaultId",
          "type": "uint256"
        },
        {
          "internalType": "string",
          "name": "_URI",
          "type": "string"
        }
      ],
      "name": "setVaultURI",
      "outputs": [],
      "stateMutability": "nonpayable",
      "type": "function"
    },
    {
      "inputs": [
        {
          "internalType": "uint256",
          "name": "_amountIn",
          "type": "uint256"
        }
      ],
      "name": "slippage",
      "outputs": [
        {
          "internalType": "uint256",
          "name": "",
          "type": "uint256"
        }
      ],
      "stateMutability": "view",
      "type": "function"
    },
    {
      "inputs": [
        {
          "internalType": "uint256",
          "name": "",
          "type": "uint256"
        },
        {
          "internalType": "uint256",
          "name": "",
          "type": "uint256"
        }
      ],
      "name": "taskIds",
      "outputs": [
        {
          "internalType": "bytes32",
          "name": "",
          "type": "bytes32"
        }
      ],
      "stateMutability": "view",
      "type": "function"
    },
    {
      "inputs": [
        {
          "internalType": "uint256",
          "name": "",
          "type": "uint256"
        },
        {
          "internalType": "uint256",
          "name": "",
          "type": "uint256"
        }
      ],
      "name": "tokenMaxGas",
      "outputs": [
        {
          "internalType": "uint256",
          "name": "",
          "type": "uint256"
        }
      ],
      "stateMutability": "view",
      "type": "function"
    },
    {
      "inputs": [
        {
          "internalType": "address",
          "name": "newOwner",
          "type": "address"
        }
      ],
      "name": "transferOwnership",
      "outputs": [],
      "stateMutability": "nonpayable",
      "type": "function"
    },
    {
      "inputs": [],
      "name": "unpause",
      "outputs": [],
      "stateMutability": "nonpayable",
      "type": "function"
    },
    {
      "inputs": [
        {
          "internalType": "address",
          "name": "_vault",
          "type": "address"
        }
      ],
      "name": "vault",
      "outputs": [
        {
          "internalType": "uint8",
          "name": "",
          "type": "uint8"
        }
      ],
      "stateMutability": "view",
      "type": "function"
    },
    {
      "inputs": [
        {
          "internalType": "address",
          "name": "_vault",
          "type": "address"
        }
      ],
      "name": "vaultId",
      "outputs": [
        {
          "internalType": "uint256",
          "name": "",
          "type": "uint256"
        }
      ],
      "stateMutability": "view",
      "type": "function"
    },
    {
      "inputs": [
        {
          "internalType": "uint256",
          "name": "",
          "type": "uint256"
        }
      ],
      "name": "vaults",
      "outputs": [
        {
          "internalType": "contract IVaultBase",
          "name": "",
          "type": "address"
        }
      ],
      "stateMutability": "view",
      "type": "function"
    },
    {
      "inputs": [],
      "name": "vaultsLength",
      "outputs": [
        {
          "internalType": "uint256",
          "name": "",
          "type": "uint256"
        }
      ],
      "stateMutability": "view",
      "type": "function"
    },
    {
      "inputs": [
        {
          "internalType": "uint256",
          "name": "_vaultId",
          "type": "uint256"
        },
        {
          "internalType": "uint256",
          "name": "_tokenId",
          "type": "uint256"
        }
      ],
      "name": "withdraw",
      "outputs": [],
      "stateMutability": "nonpayable",
      "type": "function"
    }
  ],
  "bytecode": "0x6080604052600280546001600160a01b031990811673527a819db1eb0e34426297b03bae11f2f8b3a19e1790915560048054821673eeeeeeeeeeeeeeeeeeeeeeeeeeeeeeeeeeeeeeee1790556010805490911673cfbccc95e48d481128783fa962a1828f47fc8a421790553480156200007757600080fd5b506040516200346c3803806200346c8339810160408190526200009a91620002d6565b620000a5336200014c565b6000805460ff60a01b1916905560018055620000c284846200019c565b6004805460ff60a01b1916600160a01b179055600380546001600160a01b0383166001600160a01b031990911617905560005b825181101562000141576200012c838281518110620001185762000118620003d2565b60200260200101516200022760201b60201c565b806200013881620003fe565b915050620000f5565b50505050506200043c565b600080546001600160a01b038381166001600160a01b0319831681178455604051919092169283917f8be0079c531659141344cd1fd0a4f28419497f9722a3daafe3b4186f6b6457e09190a35050565b80620001b86032846200028e60201b620019731790919060201c565b11156200021c5760405162461bcd60e51b815260206004820152602860248201527f436f726e466920436f6e74726f6c6c65723a204d617820536c69707061676520604482015267115e18d95959195960c21b606482015260840160405180910390fd5b600c91909155600d55565b6007805460018181019092557fa66cc928b5edb82af9bd49922954155ab7b0942694bea4ce44661d9a8736c6880180546001600160a01b039093166001600160a01b031990931683179055600091825260086020526040909120805460ff19169091179055565b60006200029c82846200041a565b9392505050565b634e487b7160e01b600052604160045260246000fd5b80516001600160a01b0381168114620002d157600080fd5b919050565b60008060008060808587031215620002ed57600080fd5b845160208087015160408801519296509450906001600160401b03808211156200031657600080fd5b818801915088601f8301126200032b57600080fd5b815181811115620003405762000340620002a3565b8060051b604051601f19603f83011681018181108582111715620003685762000368620002a3565b60405291825284820192508381018501918b8311156200038757600080fd5b938501935b82851015620003b057620003a085620002b9565b845293850193928501926200038c565b809750505050505050620003c760608601620002b9565b905092959194509250565b634e487b7160e01b600052603260045260246000fd5b634e487b7160e01b600052601160045260246000fd5b600060018201620004135762000413620003e8565b5060010190565b6000816000190483118215151615620004375762000437620003e8565b500290565b613020806200044c6000396000f3fe608060405234801561001057600080fd5b506004361061027f5760003560e01c80638322fff21161015c578063bc9ef3e0116100ce578063e20371e311610087578063e20371e3146105d5578063e3f54499146105e8578063e9fcd6ce146105fb578063eeb8b93414610604578063f2fde38b14610617578063f815c03d1461062a57600080fd5b8063bc9ef3e014610546578063bcb5703d14610559578063c05d6c4114610561578063c71a6d0614610584578063cb306f0214610597578063dc516876146105c257600080fd5b80638da5cb5b116101205780638da5cb5b146104e05780639670e0de146104f15780639b2aa77214610504578063aa9f621714610517578063aee164071461052a578063b86e3dc91461053357600080fd5b80638322fff2146104645780638456cb591461047f5780638909f553146104875780638c64ea4a146104a25780638d3a513e146104b557600080fd5b8063548a99ad116101f5578063659755f9116101b9578063659755f9146103e45780636840339a146103f7578063715018a61461040a5780637726a73c146104125780637c04d11f1461044957806382af54c91461045c57600080fd5b8063548a99ad1461038957806355eaf8f11461039c578063573ea575146103a45780635c975abb146103bf5780636319c4bc146103d157600080fd5b80633aaa36e6116102475780633aaa36e6146103095780633e84b51d146103245780633f4ba83a14610337578063441a3e701461033f5780634e9c1118146103525780634fec8c341461036557600080fd5b8063043b99cc146102845780631ac36471146102b457806324ca984e146102c957806324e702ed146102dc578063256b5a02146102f6575b600080fd5b600454610297906001600160a01b031681565b6040516001600160a01b0390911681526020015b60405180910390f35b6102c76102c23660046124b6565b610656565b005b6102c76102d73660046124b6565b6106aa565b6102e4600081565b60405160ff90911681526020016102ab565b6102c76103043660046124b6565b6107b6565b6102977393f835b9a2eec7d2e289c1e0d50ad4ded88b253f81565b6102c76103323660046124d3565b61087e565b6102c7610904565b6102c761034d366004612534565b610938565b610297610360366004612556565b610b33565b60045461037990600160a01b900460ff1681565b60405190151581526020016102ab565b6102c761039736600461256f565b610b5d565b6102e4600281565b610297737598e84b2e114ab62cab288ce5f7d5f6bad35bba81565b600054600160a01b900460ff16610379565b601054610297906001600160a01b031681565b600354610297906001600160a01b031681565b610297610405366004612556565b610c0e565b6102c7610c1e565b61043b6104203660046124b6565b6001600160a01b03166000908152600b602052604090205490565b6040519081526020016102ab565b6102c7610457366004612615565b610c52565b60095461043b565b61029773eeeeeeeeeeeeeeeeeeeeeeeeeeeeeeeeeeeeeeee81565b6102c7610cfe565b61029773fc484afb55d9ea9e186d8de55a0aa24cbe772a1981565b6102976104b0366004612556565b610d30565b61043b6104c3366004612534565b600560209081526000928352604080842090915290825290205481565b6000546001600160a01b0316610297565b61043b6104ff366004612556565b610d40565b6102c76105123660046127a5565b610d73565b6102c76105253660046124b6565b610fff565b61043b600c5481565b6102c7610541366004612836565b61104d565b6102c7610554366004612534565b6112a1565b6102e4600181565b61037961056f3660046124b6565b60086020526000908152604090205460ff1681565b6102c76105923660046128cf565b6112d9565b61043b6105a5366004612534565b600660209081526000928352604080842090915290825290205481565b6102c76105d0366004612925565b61169e565b6102c76105e336600461296d565b6117dc565b600254610297906001600160a01b031681565b61043b600d5481565b61043b610612366004612556565b611854565b6102c76106253660046124b6565b6118db565b6102e46106383660046124b6565b6001600160a01b03166000908152600a602052604090205460ff1690565b6000546001600160a01b031633146106895760405162461bcd60e51b81526004016106809061299d565b60405180910390fd5b6001600160a01b03166000908152600860205260409020805460ff19169055565b6000546001600160a01b031633146106d45760405162461bcd60e51b81526004016106809061299d565b6001600160a01b03811660009081526008602052604090205460ff161561074d5760405162461bcd60e51b815260206004820152602760248201527f436f726e466920436f6e74726f6c6c65723a20526f7574657220616c726561646044820152661e48185919195960ca1b6064820152608401610680565b6007805460018082019092557fa66cc928b5edb82af9bd49922954155ab7b0942694bea4ce44661d9a8736c6880180546001600160a01b0319166001600160a01b0384169081179091556000908152600860205260409020805460ff1916909117905550565b50565b6000546001600160a01b031633146107e05760405162461bcd60e51b81526004016106809061299d565b6001600160a01b0381166000908152600a602052604090205460ff161561080657600080fd5b600980546001600160a01b039092166000818152600b6020908152604080832086905560018087019095557f6e1540171b6c0c960b71a7020d9f60077f6af931a8bbf590da0223dacf75c7af90950180546001600160a01b03191684179055918152600a90915291909120805460ff19169091179055565b6000546001600160a01b031633146108a85760405162461bcd60e51b81526004016106809061299d565b600280546001600160a01b039586166001600160a01b031991821617909155600380549486169482169490941790935560048054921515600160a01b0260ff60a01b199093169290921790915560108054919093169116179055565b6000546001600160a01b0316331461092e5760405162461bcd60e51b81526004016106809061299d565b610936611986565b565b60026001540361095a5760405162461bcd60e51b8152600401610680906129d2565b6002600155600061096b8383611a23565b905060005b8151811015610a7a576005600085815260200190815260200160002060008383815181106109a0576109a0612a09565b6020026020010151604001518152602001908152602001600020546000801b14610a6857600254600085815260056020526040812084516001600160a01b039093169263ee8ca3b592908690869081106109fc576109fc612a09565b6020026020010151604001518152602001908152602001600020546040518263ffffffff1660e01b8152600401610a3591815260200190565b600060405180830381600087803b158015610a4f57600080fd5b505af1158015610a63573d6000803e3d6000fd5b505050505b80610a7281612a35565b915050610970565b5060098381548110610a8e57610a8e612a09565b60009182526020909120015460405163f3fef3a360e01b8152336004820152602481018490526001600160a01b039091169063f3fef3a390604401600060405180830381600087803b158015610ae357600080fd5b505af1158015610af7573d6000803e3d6000fd5b505060405184925085915033907ff279e6a1f5e320cca91135676d9cb6e44ca8a08c0b88342bcdb1144f6511b56890600090a450506001805550565b60078181548110610b4357600080fd5b6000918252602090912001546001600160a01b0316905081565b6000546001600160a01b03163314610b875760405162461bcd60e51b81526004016106809061299d565b60098381548110610b9a57610b9a612a09565b60009182526020909120015460405163575272dd60e11b81526001600160a01b038481166004830152602482018490529091169063aea4e5ba90604401600060405180830381600087803b158015610bf157600080fd5b505af1158015610c05573d6000803e3d6000fd5b50505050505050565b600e8181548110610b4357600080fd5b6000546001600160a01b03163314610c485760405162461bcd60e51b81526004016106809061299d565b6109366000611c2a565b6000546001600160a01b03163314610c7c5760405162461bcd60e51b81526004016106809061299d565b60098281548110610c8f57610c8f612a09565b6000918252602090912001546040516355f804b360e01b81526001600160a01b03909116906355f804b390610cc8908490600401612a9b565b600060405180830381600087803b158015610ce257600080fd5b505af1158015610cf6573d6000803e3d6000fd5b505050505050565b6000546001600160a01b03163314610d285760405162461bcd60e51b81526004016106809061299d565b610936611c7a565b60098181548110610b4357600080fd5b6000610d6d610d66600d54610d60600c548661197390919063ffffffff16565b90611cdf565b8390611ceb565b92915050565b6000546001600160a01b03163314610d9d5760405162461bcd60e51b81526004016106809061299d565b81518351148015610daf575080518351145b610e065760405162461bcd60e51b815260206004820152602260248201527f436f726e466920436f6e74726f6c6c65723a20496e76616c6964204c656e6774604482015261687360f01b6064820152608401610680565b60005b8351811015610ff85760098581548110610e2557610e25612a09565b60009182526020909120015484516001600160a01b03909116906390a83dc290869084908110610e5757610e57612a09565b6020026020010151858481518110610e7157610e71612a09565b6020026020010151858581518110610e8b57610e8b612a09565b60209081029190910101516040516001600160e01b031960e086901b1681526001600160a01b0393841660048201529290911660248301526044820152606401600060405180830381600087803b158015610ee557600080fd5b505af1158015610ef9573d6000803e3d6000fd5b50505050600f6000848381518110610f1357610f13612a09565b6020908102919091018101516001600160a01b031682528101919091526040016000205460ff16610fe657600e838281518110610f5257610f52612a09565b60209081029190910181015182546001808201855560009485529284200180546001600160a01b0319166001600160a01b0390921691909117905584519091600f91869085908110610fa657610fa6612a09565b60200260200101516001600160a01b03166001600160a01b0316815260200190815260200160002060006101000a81548160ff0219169083151502179055505b80610ff081612a35565b915050610e09565b5050505050565b6000546001600160a01b031633146110295760405162461bcd60e51b81526004016106809061299d565b6001600160a01b03166000908152600a60205260409020805460ff19166002179055565b600054600160a01b900460ff16156110775760405162461bcd60e51b815260040161068090612aae565b6002600154036110995760405162461bcd60e51b8152600401610680906129d2565b60026001908155600980546110e19190889081106110b9576110b9612a09565b60009182526020808320909101546001600160a01b03168252600a9052604090205460ff1690565b60ff161461113b5760405162461bcd60e51b815260206004820152602160248201527f436f726e466920436f6e74726f6c6c65723a20496e616374697665205661756c6044820152601d60fa1b6064820152608401610680565b60006009868154811061115057611150612a09565b60009182526020909120015460405163dbb0371160e01b81526001600160a01b039091169063dbb037119061118f903390899089908990600401612b4c565b6000604051808303816000875af11580156111ae573d6000803e3d6000fd5b505050506040513d6000823e601f3d908101601f191682016040526111d69190810190612bfc565b905060006111e48783611cf7565b905086336001600160a01b03167f8f64ca6a175f84df6403fba2601d4c5c734ee77f375196788648aedc05ff57d58360008151811061122557611225612a09565b60200260200101516000015160405161124091815260200190565b60405180910390a3600087815260066020526040812082518592908490829061126b5761126b612a09565b602002602001015160000151815260200190815260200160002081905550611294338883611e4c565b5050600180555050505050565b6000546001600160a01b031633146112cb5760405162461bcd60e51b81526004016106809061299d565b6112d58282612109565b5050565b600054600160a01b900460ff16156113035760405162461bcd60e51b815260040161068090612aae565b6002546001600160a01b0316331461136d5760405162461bcd60e51b815260206004820152602760248201527f436f726e466920436f6e74726f6c6c65723a2047656c61746f204f6e6c7920466044820152663ab731ba34b7b760c91b6064820152608401610680565b600454600160a01b900460ff166113d15760405162461bcd60e51b815260206004820152602260248201527f436f726e466920436f6e74726f6c6c65723a2047656c61746f2044697361626c604482015261195960f21b6064820152608401610680565b6002600154036113f35760405162461bcd60e51b8152600401610680906129d2565b60026001556000611404858561217f565b9050611411838683612214565b6000806009878154811061142757611427612a09565b6000918252602090912001546040516364e4e15160e01b81526001600160a01b03909116906364e4e1519061146490899089908990600401612c38565b6000604051808303816000875af1158015611483573d6000803e3d6000fd5b505050506040513d6000823e601f3d908101601f191682016040526114ab9190810190612dda565b915091506000600988815481106114c4576114c4612a09565b60009182526020909120015484516040516331a9108f60e11b81526001600160a01b0390921691636352211e916115019160040190815260200190565b602060405180830381865afa15801561151e573d6000803e3d6000fd5b505050506040513d601f19601f820116820180604052508101906115429190612eb0565b9050836000015188826001600160a01b03167f37aacca185d8a700a40142541d808e10bc61ca82eb929cb3df05de903a64dc848a60405161158591815260200190565b60405180910390a4611597888361231e565b6115a2818985611e4c565b60025460408051635c08631b60e11b815281516000936001600160a01b03169263b810c63692600480820193918290030181865afa1580156115e8573d6000803e3d6000fd5b505050506040513d601f19601f8201168201806040525081019061160c9190612ecd565b5060105460405163167aec3160e31b81526001600160a01b038581166004830152737598e84b2e114ab62cab288ce5f7d5f6bad35bba60248301526044820184905292935091169063b3d7618890606401600060405180830381600087803b15801561167757600080fd5b505af115801561168b573d6000803e3d6000fd5b5050600180555050505050505050505050565b6000546001600160a01b031633146116c85760405162461bcd60e51b81526004016106809061299d565b600984815481106116db576116db612a09565b6000918252602090912001546040516348541ee160e11b81526001600160a01b038581166004830152848116602483015260448201849052909116906390a83dc290606401600060405180830381600087803b15801561173a57600080fd5b505af115801561174e573d6000803e3d6000fd5b505050506001600160a01b0382166000908152600f602052604090205460ff166117d657600e805460018082019092557fbb7b4a454dc3493923482f07822329ed19e8244eff582cc204f8554c3620c3fd0180546001600160a01b0319166001600160a01b0385169081179091556000908152600f60205260409020805460ff191690911790555b50505050565b6000546001600160a01b031633146118065760405162461bcd60e51b81526004016106809061299d565b6009828154811061181957611819612a09565b6000918252602090912001546040516368173bcf60e01b81526001600160a01b038381166004830152909116906368173bcf90602401610cc8565b60006009828154811061186957611869612a09565b6000918252602091829020015460408051630227321760e31b815290516001600160a01b039092169263113990b8926004808401938290030181865afa1580156118b7573d6000803e3d6000fd5b505050506040513d601f19601f82011682018060405250810190610d6d9190612ef2565b6000546001600160a01b031633146119055760405162461bcd60e51b81526004016106809061299d565b6001600160a01b03811661196a5760405162461bcd60e51b815260206004820152602660248201527f4f776e61626c653a206e6577206f776e657220697320746865207a65726f206160448201526564647265737360d01b6064820152608401610680565b6107b381611c2a565b600061197f8284612f0b565b9392505050565b600054600160a01b900460ff166119d65760405162461bcd60e51b815260206004820152601460248201527314185d5cd8589b194e881b9bdd081c185d5cd95960621b6044820152606401610680565b6000805460ff60a01b191690557f5db9ee0a495bf2e6ff9c91a7834c1ba4fdd244a5e8aa4e537bd38aeae4b073aa335b6040516001600160a01b03909116815260200160405180910390a1565b6060600060098481548110611a3a57611a3a612a09565b6000918252602082200154604051631bf744db60e01b8152600481018690526001600160a01b0390911692508290631bf744db90602401602060405180830381865afa158015611a8e573d6000803e3d6000fd5b505050506040513d601f19601f82011682018060405250810190611ab29190612ef2565b90506000816001600160401b03811115611ace57611ace6125a7565b604051908082528060200260200182016040528015611b0757816020015b611af461241c565b815260200190600190039081611aec5790505b50905060005b82811015611c205760405163915b985960e01b815260048101879052602481018290526001600160a01b038516906321603f4390829063915b985990604401602060405180830381865afa158015611b69573d6000803e3d6000fd5b505050506040513d601f19601f82011682018060405250810190611b8d9190612ef2565b6040518263ffffffff1660e01b8152600401611bab91815260200190565b600060405180830381865afa158015611bc8573d6000803e3d6000fd5b505050506040513d6000823e601f3d908101601f19168201604052611bf09190810190612f2a565b828281518110611c0257611c02612a09565b60200260200101819052508080611c1890612a35565b915050611b0d565b5095945050505050565b600080546001600160a01b038381166001600160a01b0319831681178455604051919092169283917f8be0079c531659141344cd1fd0a4f28419497f9722a3daafe3b4186f6b6457e09190a35050565b600054600160a01b900460ff1615611ca45760405162461bcd60e51b815260040161068090612aae565b6000805460ff60a01b1916600160a01b1790557f62e78cea01bee320cd4e420270b5ea74000d11b0c9f74754ebdbfc544b05a258611a063390565b600061197f8284612f5e565b600061197f8284612f80565b6060600060098481548110611d0e57611d0e612a09565b600091825260208220015484516001600160a01b0390911692506001600160401b03811115611d3f57611d3f6125a7565b604051908082528060200260200182016040528015611d7857816020015b611d6561241c565b815260200190600190039081611d5d5790505b50905060005b8451811015611e4357826001600160a01b03166321603f43868381518110611da857611da8612a09565b60200260200101516040518263ffffffff1660e01b8152600401611dce91815260200190565b600060405180830381865afa158015611deb573d6000803e3d6000fd5b505050506040513d6000823e601f3d908101601f19168201604052611e139190810190612f2a565b828281518110611e2557611e25612a09565b60200260200101819052508080611e3b90612a35565b915050611d7e565b50949350505050565b600454600160a01b900460ff16156121045760005b81518110156117d657818181518110611e7c57611e7c612a09565b6020026020010151604001516000146120f25782846001600160a01b03167faf1b9133e30ada3fee6cb47a46b80b2dfee808dc5bc919f712beb9ee33b465d6848481518110611ecd57611ecd612a09565b602002602001015160400151604051611ee891815260200190565b60405180910390a360025460035483516001600160a01b039283169263b9f45adb92309263638d368360e11b929091169063e34ca65d60e01b908990899089908110611f3657611f36612a09565b602002602001015160400151898981518110611f5457611f54612a09565b602002602001015160800151600060028110611f7257611f72612a09565b60200201518a8a81518110611f8957611f89612a09565b602002602001015160800151600160028110611fa757611fa7612a09565b60200201518b8b81518110611fbe57611fbe612a09565b602002602001015160a00151600060038110611fdc57611fdc612a09565b6020020151604051602481019590955260448501939093526001600160a01b03918216606485015216608483015260a482015260c40160408051601f198184030181529181526020820180516001600160e01b03166001600160e01b031994851617905260048054915160e089901b9094168452612069969594936001600160a01b039092169101612f97565b6020604051808303816000875af1158015612088573d6000803e3d6000fd5b505050506040513d601f19601f820116820180604052508101906120ac9190612ef2565b6005600085815260200190815260200160002060008484815181106120d3576120d3612a09565b6020026020010151604001518152602001908152602001600020819055505b806120fc81612a35565b915050611e61565b505050565b80612115836032611973565b11156121745760405162461bcd60e51b815260206004820152602860248201527f436f726e466920436f6e74726f6c6c65723a204d617820536c69707061676520604482015267115e18d95959195960c21b6064820152608401610680565b600c91909155600d55565b61218761241c565b6009838154811061219a5761219a612a09565b6000918252602090912001546040516321603f4360e01b8152600481018490526001600160a01b03909116906321603f4390602401600060405180830381865afa1580156121ec573d6000803e3d6000fd5b505050506040513d6000823e601f3d908101601f1916820160405261197f9190810190612f2a565b6001600160a01b03831660009081526008602052604090205460ff166122865760405162461bcd60e51b815260206004820152602160248201527f436f726e466920436f6e74726f6c6c65723a20496e76616c696420526f7574656044820152603960f91b6064820152608401610680565b60008281526006602090815260408083208451845290915290205415612104576000828152600660209081526040808320845184529091529020543a11156121045760405162461bcd60e51b815260206004820152602560248201527f436f726e466920436f6e74726f6c6c65723a2047617320507269636520546f6f60448201526404090d2ced60db1b6064820152608401610680565b60005b81518110156121045760008381526005602052604081208351829085908590811061234e5761234e612a09565b60200260200101518152602001908152602001600020541461240a57600254600084815260056020526040812084516001600160a01b039093169263ee8ca3b592908690869081106123a2576123a2612a09565b60200260200101518152602001908152602001600020546040518263ffffffff1660e01b81526004016123d791815260200190565b600060405180830381600087803b1580156123f157600080fd5b505af1158015612405573d6000803e3d6000fd5b505050505b8061241481612a35565b915050612321565b6040518060e001604052806000815260200160008152602001600081526020016000815260200161244b612465565b8152602001612458612483565b8152602001606081525090565b60405180604001604052806002906020820280368337509192915050565b60405180606001604052806003906020820280368337509192915050565b6001600160a01b03811681146107b357600080fd5b6000602082840312156124c857600080fd5b813561197f816124a1565b600080600080608085870312156124e957600080fd5b84356124f4816124a1565b93506020850135612504816124a1565b92506040850135801515811461251957600080fd5b91506060850135612529816124a1565b939692955090935050565b6000806040838503121561254757600080fd5b50508035926020909101359150565b60006020828403121561256857600080fd5b5035919050565b60008060006060848603121561258457600080fd5b833592506020840135612596816124a1565b929592945050506040919091013590565b634e487b7160e01b600052604160045260246000fd5b60405160e081016001600160401b03811182821017156125df576125df6125a7565b60405290565b604051601f8201601f191681016001600160401b038111828210171561260d5761260d6125a7565b604052919050565b6000806040838503121561262857600080fd5b823591506020808401356001600160401b038082111561264757600080fd5b818601915086601f83011261265b57600080fd5b81358181111561266d5761266d6125a7565b61267f601f8201601f191685016125e5565b9150808252878482850101111561269557600080fd5b80848401858401376000848284010152508093505050509250929050565b60006001600160401b038211156126cc576126cc6125a7565b5060051b60200190565b600082601f8301126126e757600080fd5b813560206126fc6126f7836126b3565b6125e5565b82815260059290921b8401810191818101908684111561271b57600080fd5b8286015b8481101561273f578035612732816124a1565b835291830191830161271f565b509695505050505050565b600082601f83011261275b57600080fd5b8135602061276b6126f7836126b3565b82815260059290921b8401810191818101908684111561278a57600080fd5b8286015b8481101561273f578035835291830191830161278e565b600080600080608085870312156127bb57600080fd5b8435935060208501356001600160401b03808211156127d957600080fd5b6127e5888389016126d6565b945060408701359150808211156127fb57600080fd5b612807888389016126d6565b9350606087013591508082111561281d57600080fd5b5061282a8782880161274a565b91505092959194509250565b600080600080600060a0868803121561284e57600080fd5b8535945060208601356001600160401b038082111561286c57600080fd5b61287889838a016126d6565b9550604088013591508082111561288e57600080fd5b61289a89838a0161274a565b945060608801359150808211156128b057600080fd5b506128bd8882890161274a565b95989497509295608001359392505050565b600080600080608085870312156128e557600080fd5b843593506020850135925060408501356128fe816124a1565b915060608501356001600160401b0381111561291957600080fd5b61282a878288016126d6565b6000806000806080858703121561293b57600080fd5b84359350602085013561294d816124a1565b9250604085013561295d816124a1565b9396929550929360600135925050565b6000806040838503121561298057600080fd5b823591506020830135612992816124a1565b809150509250929050565b6020808252818101527f4f776e61626c653a2063616c6c6572206973206e6f7420746865206f776e6572604082015260600190565b6020808252601f908201527f5265656e7472616e637947756172643a207265656e7472616e742063616c6c00604082015260600190565b634e487b7160e01b600052603260045260246000fd5b634e487b7160e01b600052601160045260246000fd5b600060018201612a4757612a47612a1f565b5060010190565b6000815180845260005b81811015612a7457602081850181015186830182015201612a58565b81811115612a86576000602083870101525b50601f01601f19169290920160200192915050565b60208152600061197f6020830184612a4e565b60208082526010908201526f14185d5cd8589b194e881c185d5cd95960821b604082015260600190565b600081518084526020808501945080840160005b83811015612b115781516001600160a01b031687529582019590820190600101612aec565b509495945050505050565b600081518084526020808501945080840160005b83811015612b1157815187529582019590820190600101612b30565b6001600160a01b0385168152608060208201819052600090612b7090830186612ad8565b8281036040840152612b828186612b1c565b90508281036060840152612b968185612b1c565b979650505050505050565b600082601f830112612bb257600080fd5b81516020612bc26126f7836126b3565b82815260059290921b84018101918181019086841115612be157600080fd5b8286015b8481101561273f5780518352918301918301612be5565b600060208284031215612c0e57600080fd5b81516001600160401b03811115612c2457600080fd5b612c3084828501612ba1565b949350505050565b8381526001600160a01b0383166020820152606060408201819052600090612c6290830184612ad8565b95945050505050565b600082601f830112612c7c57600080fd5b604051604081018181106001600160401b0382111715612c9e57612c9e6125a7565b8060405250806040840185811115612cb557600080fd5b845b81811015612cd8578051612cca816124a1565b835260209283019201612cb7565b509195945050505050565b600082601f830112612cf457600080fd5b604051606081018181106001600160401b0382111715612d1657612d166125a7565b604052806060840185811115612d2b57600080fd5b845b81811015612cd8578051835260209283019201612d2d565b60006101408284031215612d5857600080fd5b612d606125bd565b905081518152602082015160208201526040820151604082015260608201516060820152612d918360808401612c6b565b6080820152612da38360c08401612ce3565b60a08201526101208201516001600160401b03811115612dc257600080fd5b612dce84828501612ba1565b60c08301525092915050565b60008060408385031215612ded57600080fd5b82516001600160401b0380821115612e0457600080fd5b818501915085601f830112612e1857600080fd5b81516020612e286126f7836126b3565b82815260059290921b84018101918181019089841115612e4757600080fd5b8286015b84811015612e7f57805186811115612e635760008081fd5b612e718c86838b0101612d45565b845250918301918301612e4b565b5091880151919650909350505080821115612e9957600080fd5b50612ea685828601612ba1565b9150509250929050565b600060208284031215612ec257600080fd5b815161197f816124a1565b60008060408385031215612ee057600080fd5b825191506020830151612992816124a1565b600060208284031215612f0457600080fd5b5051919050565b6000816000190483118215151615612f2557612f25612a1f565b500290565b600060208284031215612f3c57600080fd5b81516001600160401b03811115612f5257600080fd5b612c3084828501612d45565b600082612f7b57634e487b7160e01b600052601260045260246000fd5b500490565b600082821015612f9257612f92612a1f565b500390565b6001600160a01b0386811682526001600160e01b031986166020830152848116604083015260a06060830181905260009190612fd590840186612a4e565b9150808416608084015250969550505050505056fea26469706673582212206cfacdeeb9b93515110513a1bfc58e785938f45879d24eb550ab35b5a44ff70d64736f6c634300080d0033",
  "linkReferences": {},
  "deployedLinkReferences": {}
}