{
  "_format": "hh-sol-artifact-1",
  "contractName": "ControllerView",
  "sourceName": "contracts/ControllerView.sol",
  "abi": [
    {
      "inputs": [
        {
          "internalType": "address",
          "name": "_controller",
          "type": "address"
        },
        {
          "internalType": "address",
          "name": "_resolver",
          "type": "address"
        }
      ],
      "stateMutability": "nonpayable",
      "type": "constructor"
    },
    {
      "anonymous": false,
      "inputs": [
        {
          "indexed": true,
          "internalType": "address",
          "name": "previousOwner",
          "type": "address"
        },
        {
          "indexed": true,
          "internalType": "address",
          "name": "newOwner",
          "type": "address"
        }
      ],
      "name": "OwnershipTransferred",
      "type": "event"
    },
    {
      "inputs": [],
      "name": "Controller",
      "outputs": [
        {
          "internalType": "contract IController",
          "name": "",
          "type": "address"
        }
      ],
      "stateMutability": "view",
      "type": "function"
    },
    {
      "inputs": [],
      "name": "Resolver",
      "outputs": [
        {
          "internalType": "contract IResolver",
          "name": "",
          "type": "address"
        }
      ],
      "stateMutability": "view",
      "type": "function"
    },
    {
      "inputs": [
        {
          "internalType": "uint256",
          "name": "_vaultId",
          "type": "uint256"
        },
        {
          "internalType": "address",
          "name": "_token",
          "type": "address"
        }
      ],
      "name": "activeTokens",
      "outputs": [
        {
          "internalType": "bool",
          "name": "",
          "type": "bool"
        }
      ],
      "stateMutability": "view",
      "type": "function"
    },
    {
      "inputs": [
        {
          "internalType": "address",
          "name": "_fromToken",
          "type": "address"
        },
        {
          "internalType": "address",
          "name": "_toToken",
          "type": "address"
        },
        {
          "internalType": "uint256",
          "name": "_amountIn",
          "type": "uint256"
        }
      ],
      "name": "findBestPathExactIn",
      "outputs": [
        {
          "internalType": "address",
          "name": "",
          "type": "address"
        },
        {
          "internalType": "address[]",
          "name": "",
          "type": "address[]"
        },
        {
          "internalType": "uint256",
          "name": "",
          "type": "uint256"
        }
      ],
      "stateMutability": "view",
      "type": "function"
    },
    {
      "inputs": [
        {
          "internalType": "address",
          "name": "_fromToken",
          "type": "address"
        },
        {
          "internalType": "address",
          "name": "_toToken",
          "type": "address"
        },
        {
          "internalType": "uint256",
          "name": "_amountOut",
          "type": "uint256"
        }
      ],
      "name": "findBestPathExactOut",
      "outputs": [
        {
          "internalType": "address",
          "name": "",
          "type": "address"
        },
        {
          "internalType": "address[]",
          "name": "",
          "type": "address[]"
        },
        {
          "internalType": "uint256",
          "name": "",
          "type": "uint256"
        }
      ],
      "stateMutability": "view",
      "type": "function"
    },
    {
      "inputs": [
        {
          "internalType": "uint256",
          "name": "_vaultId",
          "type": "uint256"
        }
      ],
      "name": "openOrdersLength",
      "outputs": [
        {
          "internalType": "uint256",
          "name": "",
          "type": "uint256"
        }
      ],
      "stateMutability": "view",
      "type": "function"
    },
    {
      "inputs": [
        {
          "internalType": "uint256",
          "name": "_vaultId",
          "type": "uint256"
        }
      ],
      "name": "ordersLength",
      "outputs": [
        {
          "internalType": "uint256",
          "name": "",
          "type": "uint256"
        }
      ],
      "stateMutability": "view",
      "type": "function"
    },
    {
      "inputs": [],
      "name": "owner",
      "outputs": [
        {
          "internalType": "address",
          "name": "",
          "type": "address"
        }
      ],
      "stateMutability": "view",
      "type": "function"
    },
    {
      "inputs": [
        {
          "internalType": "uint256",
          "name": "_vaultId",
          "type": "uint256"
        }
      ],
      "name": "priceMultiplier",
      "outputs": [
        {
          "internalType": "uint256",
          "name": "",
          "type": "uint256"
        }
      ],
      "stateMutability": "view",
      "type": "function"
    },
    {
      "inputs": [],
      "name": "renounceOwnership",
      "outputs": [],
      "stateMutability": "nonpayable",
      "type": "function"
    },
    {
      "inputs": [
        {
          "internalType": "address",
          "name": "_controller",
          "type": "address"
        },
        {
          "internalType": "address",
          "name": "_resolver",
          "type": "address"
        }
      ],
      "name": "setContracts",
      "outputs": [],
      "stateMutability": "nonpayable",
      "type": "function"
    },
    {
      "inputs": [
        {
          "internalType": "uint256",
          "name": "_vaultId",
          "type": "uint256"
        },
        {
          "internalType": "uint256",
          "name": "_tokenId",
          "type": "uint256"
        }
      ],
      "name": "tokenAmounts",
      "outputs": [
        {
          "components": [
            {
              "internalType": "address",
              "name": "token",
              "type": "address"
            },
            {
              "internalType": "uint256",
              "name": "amount",
              "type": "uint256"
            }
          ],
          "internalType": "struct IVaultBase.Token[]",
          "name": "",
          "type": "tuple[]"
        }
      ],
      "stateMutability": "view",
      "type": "function"
    },
    {
      "inputs": [
        {
          "internalType": "uint256",
          "name": "_vaultId",
          "type": "uint256"
        },
        {
          "internalType": "address",
          "name": "_token",
          "type": "address"
        }
      ],
      "name": "tokenFees",
      "outputs": [
        {
          "internalType": "uint256",
          "name": "",
          "type": "uint256"
        },
        {
          "internalType": "uint256",
          "name": "",
          "type": "uint256"
        },
        {
          "internalType": "uint256",
          "name": "",
          "type": "uint256"
        },
        {
          "internalType": "uint256",
          "name": "",
          "type": "uint256"
        }
      ],
      "stateMutability": "view",
      "type": "function"
    },
    {
      "inputs": [
        {
          "internalType": "uint256",
          "name": "_vaultId",
          "type": "uint256"
        }
      ],
      "name": "tokenLength",
      "outputs": [
        {
          "internalType": "uint256",
          "name": "",
          "type": "uint256"
        }
      ],
      "stateMutability": "view",
      "type": "function"
    },
    {
      "inputs": [
        {
          "internalType": "uint256",
          "name": "_vaultId",
          "type": "uint256"
        },
        {
          "internalType": "uint256",
          "name": "_tokenId",
          "type": "uint256"
        }
      ],
      "name": "tokenMaxGas",
      "outputs": [
        {
          "internalType": "uint256",
          "name": "",
          "type": "uint256"
        }
      ],
      "stateMutability": "view",
      "type": "function"
    },
    {
      "inputs": [
        {
          "internalType": "uint256",
          "name": "_vaultId",
          "type": "uint256"
        },
        {
          "internalType": "address",
          "name": "_token",
          "type": "address"
        }
      ],
      "name": "tokenMinimumDeposit",
      "outputs": [
        {
          "internalType": "uint256",
          "name": "",
          "type": "uint256"
        }
      ],
      "stateMutability": "view",
      "type": "function"
    },
    {
      "inputs": [
        {
          "internalType": "uint256",
          "name": "_vaultId",
          "type": "uint256"
        },
        {
          "internalType": "uint256",
          "name": "_tokenId",
          "type": "uint256"
        }
      ],
      "name": "tokenOpenOrdersLength",
      "outputs": [
        {
          "internalType": "uint256",
          "name": "",
          "type": "uint256"
        }
      ],
      "stateMutability": "view",
      "type": "function"
    },
    {
      "inputs": [
        {
          "internalType": "uint256",
          "name": "_vaultId",
          "type": "uint256"
        },
        {
          "internalType": "uint256",
          "name": "_tokenId",
          "type": "uint256"
        }
      ],
      "name": "tokenTradeLength",
      "outputs": [
        {
          "internalType": "uint256",
          "name": "",
          "type": "uint256"
        }
      ],
      "stateMutability": "view",
      "type": "function"
    },
    {
      "inputs": [
        {
          "internalType": "uint256",
          "name": "_vaultId",
          "type": "uint256"
        },
        {
          "internalType": "uint256",
          "name": "_index",
          "type": "uint256"
        }
      ],
      "name": "tokens",
      "outputs": [
        {
          "internalType": "address",
          "name": "",
          "type": "address"
        }
      ],
      "stateMutability": "view",
      "type": "function"
    },
    {
      "inputs": [
        {
          "internalType": "uint256",
          "name": "_vaultId",
          "type": "uint256"
        }
      ],
      "name": "tokensLength",
      "outputs": [
        {
          "internalType": "uint256",
          "name": "",
          "type": "uint256"
        }
      ],
      "stateMutability": "view",
      "type": "function"
    },
    {
      "inputs": [
        {
          "internalType": "address",
          "name": "newOwner",
          "type": "address"
        }
      ],
      "name": "transferOwnership",
      "outputs": [],
      "stateMutability": "nonpayable",
      "type": "function"
    },
    {
      "inputs": [
        {
          "internalType": "address",
          "name": "_user",
          "type": "address"
        }
      ],
      "name": "userGasAmounts",
      "outputs": [
        {
          "internalType": "uint256",
          "name": "",
          "type": "uint256"
        }
      ],
      "stateMutability": "view",
      "type": "function"
    },
    {
      "inputs": [
        {
          "internalType": "address",
          "name": "_vault",
          "type": "address"
        }
      ],
      "name": "vault",
      "outputs": [
        {
          "internalType": "uint8",
          "name": "",
          "type": "uint8"
        }
      ],
      "stateMutability": "view",
      "type": "function"
    },
    {
      "inputs": [
        {
          "internalType": "uint256",
          "name": "_vaultId",
          "type": "uint256"
        }
      ],
      "name": "vaultDetails",
      "outputs": [
        {
          "internalType": "string",
          "name": "",
          "type": "string"
        },
        {
          "internalType": "string",
          "name": "",
          "type": "string"
        },
        {
          "internalType": "string",
          "name": "",
          "type": "string"
        },
        {
          "internalType": "address",
          "name": "",
          "type": "address"
        }
      ],
      "stateMutability": "view",
      "type": "function"
    },
    {
      "inputs": [
        {
          "internalType": "address",
          "name": "_vault",
          "type": "address"
        }
      ],
      "name": "vaultId",
      "outputs": [
        {
          "internalType": "uint256",
          "name": "",
          "type": "uint256"
        }
      ],
      "stateMutability": "view",
      "type": "function"
    },
    {
      "inputs": [
        {
          "internalType": "address",
          "name": "_owner",
          "type": "address"
        }
      ],
      "name": "vaultTokensByOwner",
      "outputs": [
        {
          "components": [
            {
              "internalType": "address",
              "name": "vault",
              "type": "address"
            },
            {
              "internalType": "uint256",
              "name": "tokenId",
              "type": "uint256"
            }
          ],
          "internalType": "struct ControllerView.UserTokens[]",
          "name": "",
          "type": "tuple[]"
        }
      ],
      "stateMutability": "view",
      "type": "function"
    },
    {
      "inputs": [
        {
          "internalType": "uint256",
          "name": "_index",
          "type": "uint256"
        }
      ],
      "name": "vaults",
      "outputs": [
        {
          "internalType": "contract IVaultBase",
          "name": "",
          "type": "address"
        }
      ],
      "stateMutability": "view",
      "type": "function"
    },
    {
      "inputs": [],
      "name": "vaultsLength",
      "outputs": [
        {
          "internalType": "uint256",
          "name": "",
          "type": "uint256"
        }
      ],
      "stateMutability": "view",
      "type": "function"
    },
    {
      "inputs": [
        {
          "internalType": "uint256",
          "name": "_vaultId",
          "type": "uint256"
        },
        {
          "internalType": "uint256",
          "name": "_tokenId",
          "type": "uint256"
        }
      ],
      "name": "viewOpenOrdersByToken",
      "outputs": [
        {
          "components": [
            {
              "internalType": "uint256",
              "name": "tokenId",
              "type": "uint256"
            },
            {
              "internalType": "uint256",
              "name": "tradeId",
              "type": "uint256"
            },
            {
              "internalType": "uint256",
              "name": "orderId",
              "type": "uint256"
            },
            {
              "internalType": "uint256",
              "name": "timestamp",
              "type": "uint256"
            },
            {
              "internalType": "address[2]",
              "name": "tokens",
              "type": "address[2]"
            },
            {
              "internalType": "uint256[3]",
              "name": "amounts",
              "type": "uint256[3]"
            },
            {
              "internalType": "uint256[]",
              "name": "times",
              "type": "uint256[]"
            }
          ],
          "internalType": "struct IVaultBase.Order[]",
          "name": "",
          "type": "tuple[]"
        }
      ],
      "stateMutability": "view",
      "type": "function"
    },
    {
      "inputs": [
        {
          "internalType": "uint256",
          "name": "_vaultId",
          "type": "uint256"
        },
        {
          "internalType": "uint256",
          "name": "_start",
          "type": "uint256"
        },
        {
          "internalType": "uint256",
          "name": "_end",
          "type": "uint256"
        }
      ],
      "name": "viewOpenOrdersInRange",
      "outputs": [
        {
          "components": [
            {
              "internalType": "uint256",
              "name": "tokenId",
              "type": "uint256"
            },
            {
              "internalType": "uint256",
              "name": "tradeId",
              "type": "uint256"
            },
            {
              "internalType": "uint256",
              "name": "orderId",
              "type": "uint256"
            },
            {
              "internalType": "uint256",
              "name": "timestamp",
              "type": "uint256"
            },
            {
              "internalType": "address[2]",
              "name": "tokens",
              "type": "address[2]"
            },
            {
              "internalType": "uint256[3]",
              "name": "amounts",
              "type": "uint256[3]"
            },
            {
              "internalType": "uint256[]",
              "name": "times",
              "type": "uint256[]"
            }
          ],
          "internalType": "struct IVaultBase.Order[]",
          "name": "",
          "type": "tuple[]"
        }
      ],
      "stateMutability": "view",
      "type": "function"
    },
    {
      "inputs": [
        {
          "internalType": "uint256",
          "name": "_vaultId",
          "type": "uint256"
        },
        {
          "internalType": "uint256",
          "name": "_orderId",
          "type": "uint256"
        }
      ],
      "name": "viewOrder",
      "outputs": [
        {
          "components": [
            {
              "internalType": "uint256",
              "name": "tokenId",
              "type": "uint256"
            },
            {
              "internalType": "uint256",
              "name": "tradeId",
              "type": "uint256"
            },
            {
              "internalType": "uint256",
              "name": "orderId",
              "type": "uint256"
            },
            {
              "internalType": "uint256",
              "name": "timestamp",
              "type": "uint256"
            },
            {
              "internalType": "address[2]",
              "name": "tokens",
              "type": "address[2]"
            },
            {
              "internalType": "uint256[3]",
              "name": "amounts",
              "type": "uint256[3]"
            },
            {
              "internalType": "uint256[]",
              "name": "times",
              "type": "uint256[]"
            }
          ],
          "internalType": "struct IVaultBase.Order",
          "name": "",
          "type": "tuple"
        }
      ],
      "stateMutability": "view",
      "type": "function"
    },
    {
      "inputs": [
        {
          "internalType": "uint256",
          "name": "_vaultId",
          "type": "uint256"
        },
        {
          "internalType": "uint256[]",
          "name": "_orderIds",
          "type": "uint256[]"
        }
      ],
      "name": "viewOrders",
      "outputs": [
        {
          "components": [
            {
              "internalType": "uint256",
              "name": "tokenId",
              "type": "uint256"
            },
            {
              "internalType": "uint256",
              "name": "tradeId",
              "type": "uint256"
            },
            {
              "internalType": "uint256",
              "name": "orderId",
              "type": "uint256"
            },
            {
              "internalType": "uint256",
              "name": "timestamp",
              "type": "uint256"
            },
            {
              "internalType": "address[2]",
              "name": "tokens",
              "type": "address[2]"
            },
            {
              "internalType": "uint256[3]",
              "name": "amounts",
              "type": "uint256[3]"
            },
            {
              "internalType": "uint256[]",
              "name": "times",
              "type": "uint256[]"
            }
          ],
          "internalType": "struct IVaultBase.Order[]",
          "name": "",
          "type": "tuple[]"
        }
      ],
      "stateMutability": "view",
      "type": "function"
    },
    {
      "inputs": [
        {
          "internalType": "uint256",
          "name": "_vaultId",
          "type": "uint256"
        },
        {
          "internalType": "uint256",
          "name": "_tokenId",
          "type": "uint256"
        },
        {
          "internalType": "uint256[]",
          "name": "_tradeIds",
          "type": "uint256[]"
        }
      ],
      "name": "viewTrades",
      "outputs": [
        {
          "components": [
            {
              "internalType": "uint256",
              "name": "tokenId",
              "type": "uint256"
            },
            {
              "internalType": "uint256",
              "name": "tradeId",
              "type": "uint256"
            },
            {
              "internalType": "uint256",
              "name": "orderId",
              "type": "uint256"
            },
            {
              "internalType": "uint256",
              "name": "timestamp",
              "type": "uint256"
            },
            {
              "internalType": "address[2]",
              "name": "tokens",
              "type": "address[2]"
            },
            {
              "internalType": "uint256[3]",
              "name": "amounts",
              "type": "uint256[3]"
            },
            {
              "internalType": "uint256[]",
              "name": "times",
              "type": "uint256[]"
            }
          ],
          "internalType": "struct IVaultBase.Order[][]",
          "name": "",
          "type": "tuple[][]"
        }
      ],
      "stateMutability": "view",
      "type": "function"
    }
  ],
  "bytecode": "0x60806040523480156200001157600080fd5b506040516200358a3803806200358a8339810160408190526200003491620000de565b6200003f3362000071565b600180546001600160a01b039384166001600160a01b0319918216179091556002805492909316911617905562000116565b600080546001600160a01b038381166001600160a01b0319831681178455604051919092169283917f8be0079c531659141344cd1fd0a4f28419497f9722a3daafe3b4186f6b6457e09190a35050565b80516001600160a01b0381168114620000d957600080fd5b919050565b60008060408385031215620000f257600080fd5b620000fd83620000c1565b91506200010d60208401620000c1565b90509250929050565b61346480620001266000396000f3fe608060405234801561001057600080fd5b50600436106101fb5760003560e01c80638b4864d61161011a578063c631353f116100ad578063eeb8b9341161007c578063eeb8b9341461049c578063eeed491a146104af578063f190a539146104cf578063f2fde38b146104f2578063f815c03d1461050557600080fd5b8063c631353f14610450578063cb306f0214610463578063d8952a4914610476578063e25fa1221461048957600080fd5b806398fb7061116100e957806398fb7061146103f4578063bd64643214610417578063c14c07131461042a578063c20b08ea1461043d57600080fd5b80638b4864d6146103aa5780638c64ea4a146103bd5780638da5cb5b146103d057806390181d28146103e157600080fd5b80636467935611610192578063715018a611610161578063715018a6146103725780637726a73c1461037c5780637dc24f491461038f57806382af54c9146103a257600080fd5b806364679356146102df578063659755f91461030a57806365c53d421461031d5780637064ae531461033f57600080fd5b80633b94a42b116101ce5780633b94a42b1461027957806355d6dc2f1461028c5780635711be12146102ac57806362d4a36a146102cc57600080fd5b80630445ea4b1461020057806309fc72aa146102265780632a2925c21461023957806330d33f8014610259575b600080fd5b61021361020e366004612880565b61052a565b6040519081526020015b60405180910390f35b61021361023436600461289d565b61060b565b61024c6102473660046129d4565b6106b6565b60405161021d9190612b64565b61026c610267366004612b77565b610853565b60405161021d9190612bc6565b61024c610287366004612c28565b610b36565b61029f61029a366004612880565b610d86565b60405161021d9190612c4a565b6102bf6102ba366004612c28565b6111a5565b60405161021d9190612c9d565b6102136102da366004612c28565b611293565b6001546102f2906001600160a01b031681565b6040516001600160a01b03909116815260200161021d565b6002546102f2906001600160a01b031681565b61033061032b366004612cb0565b61136f565b60405161021d93929190612cf1565b61035261034d366004612d56565b611408565b60408051948552602085019390935291830152606082015260800161021d565b61037a611685565b005b61021361038a366004612880565b6116bb565b61021361039d36600461289d565b6116ee565b610213611799565b6102f26103b8366004612c28565b61180c565b6102f26103cb36600461289d565b6118e8565b6000546001600160a01b03166102f2565b6102136103ef36600461289d565b611956565b61040761040236600461289d565b611a01565b60405161021d9493929190612dde565b610330610425366004612cb0565b611cfd565b61021361043836600461289d565b611d46565b61021361044b366004612d56565b611df1565b61024c61045e366004612e31565b611e8f565b610213610471366004612c28565b612148565b61037a610484366004612e5d565b612181565b610213610497366004612c28565b6121d9565b6102136104aa36600461289d565b612274565b6104c26104bd366004612c28565b61231f565b60405161021d9190612e8b565b6104e26104dd366004612d56565b6123ff565b604051901515815260200161021d565b61037a610500366004612880565b6124d9565b610518610513366004612880565b612574565b60405160ff909116815260200161021d565b600154604080516318c6712f60e21b815290516000926001600160a01b031691636319c4bc9160048083019260209291908290030181865afa158015610574573d6000803e3d6000fd5b505050506040513d601f19601f820116820180604052508101906105989190612ede565b604051630445ea4b60e01b81526001600160a01b0384811660048301529190911690630445ea4b906024015b602060405180830381865afa1580156105e1573d6000803e3d6000fd5b505050506040513d601f19601f820116820180604052508101906106059190612efb565b92915050565b600154604051634632752560e11b8152600481018390526000916001600160a01b031690638c64ea4a90602401602060405180830381865afa158015610655573d6000803e3d6000fd5b505050506040513d601f19601f820116820180604052508101906106799190612ede565b6001600160a01b031663198e4ce66040518163ffffffff1660e01b8152600401602060405180830381865afa1580156105e1573d6000803e3d6000fd5b600154604051634632752560e11b8152600481018490526060916000916001600160a01b0390911690638c64ea4a90602401602060405180830381865afa158015610705573d6000803e3d6000fd5b505050506040513d601f19601f820116820180604052508101906107299190612ede565b9050600083516001600160401b03811115610746576107466128b6565b60405190808252806020026020018201604052801561077f57816020015b61076c6127e6565b8152602001906001900390816107645790505b50905060005b845181101561084a57826001600160a01b03166321603f438683815181106107af576107af612f14565b60200260200101516040518263ffffffff1660e01b81526004016107d591815260200190565b600060405180830381865afa1580156107f2573d6000803e3d6000fd5b505050506040513d6000823e601f3d908101601f1916820160405261081a919081019061305f565b82828151811061082c5761082c612f14565b602002602001018190525080806108429061312f565b915050610785565b50949350505050565b600154604051634632752560e11b8152600481018590526060916000916001600160a01b0390911690638c64ea4a90602401602060405180830381865afa1580156108a2573d6000803e3d6000fd5b505050506040513d601f19601f820116820180604052508101906108c69190612ede565b9050806001600160a01b031663d082e3816040518163ffffffff1660e01b8152600401602060405180830381865afa158015610906573d6000803e3d6000fd5b505050506040513d601f19601f8201168201806040525081019061092a9190612efb565b8411156109945760405162461bcd60e51b815260206004820152602d60248201527f436f726e466920436f6e74726f6c6c657220566965773a20546f6b656e20494460448201526c204f7574206f662052616e676560981b60648201526084015b60405180910390fd5b600083516001600160401b038111156109af576109af6128b6565b6040519080825280602002602001820160405280156109e257816020015b60608152602001906001900390816109cd5790505b50905060005b8451811015610b2c57604051634fe8cec960e11b8152600481018790526001600160a01b03841690639fd19d9290602401602060405180830381865afa158015610a36573d6000803e3d6000fd5b505050506040513d601f19601f82011682018060405250810190610a5a9190612efb565b858281518110610a6c57610a6c612f14565b60200260200101511115610ad85760405162461bcd60e51b815260206004820152602d60248201527f436f726e466920436f6e74726f6c6c657220566965773a20547261646520494460448201526c204f7574206f662052616e676560981b606482015260840161098b565b610afc8387878481518110610aef57610aef612f14565b60200260200101516125e3565b828281518110610b0e57610b0e612f14565b60200260200101819052508080610b249061312f565b9150506109e8565b5095945050505050565b600154604051634632752560e11b8152600481018490526060916000916001600160a01b0390911690638c64ea4a90602401602060405180830381865afa158015610b85573d6000803e3d6000fd5b505050506040513d601f19601f82011682018060405250810190610ba99190612ede565b604051631bf744db60e01b8152600481018590529091506000906001600160a01b03831690631bf744db90602401602060405180830381865afa158015610bf4573d6000803e3d6000fd5b505050506040513d601f19601f82011682018060405250810190610c189190612efb565b90506000816001600160401b03811115610c3457610c346128b6565b604051908082528060200260200182016040528015610c6d57816020015b610c5a6127e6565b815260200190600190039081610c525790505b50905060005b82811015610b2c5760405163915b985960e01b815260048101879052602481018290526001600160a01b038516906321603f4390829063915b985990604401602060405180830381865afa158015610ccf573d6000803e3d6000fd5b505050506040513d601f19601f82011682018060405250810190610cf39190612efb565b6040518263ffffffff1660e01b8152600401610d1191815260200190565b600060405180830381865afa158015610d2e573d6000803e3d6000fd5b505050506040513d6000823e601f3d908101601f19168201604052610d56919081019061305f565b828281518110610d6857610d68612f14565b60200260200101819052508080610d7e9061312f565b915050610c73565b60606000805b610d94611799565b811015610e9257600154604051634632752560e11b8152600481018390526001600160a01b0390911690638c64ea4a90602401602060405180830381865afa158015610de4573d6000803e3d6000fd5b505050506040513d601f19601f82011682018060405250810190610e089190612ede565b6040516370a0823160e01b81526001600160a01b03868116600483015291909116906370a0823190602401602060405180830381865afa158015610e50573d6000803e3d6000fd5b505050506040513d601f19601f82011682018060405250810190610e749190612efb565b610e7e9083613148565b915080610e8a8161312f565b915050610d8c565b506000816001600160401b03811115610ead57610ead6128b6565b604051908082528060200260200182016040528015610ef257816020015b6040805180820190915260008082526020820152815260200190600190039081610ecb5790505b5090506000805b610f01611799565b81101561119b5760005b600154604051634632752560e11b8152600481018490526001600160a01b0390911690638c64ea4a90602401602060405180830381865afa158015610f54573d6000803e3d6000fd5b505050506040513d601f19601f82011682018060405250810190610f789190612ede565b6040516370a0823160e01b81526001600160a01b03898116600483015291909116906370a0823190602401602060405180830381865afa158015610fc0573d6000803e3d6000fd5b505050506040513d601f19601f82011682018060405250810190610fe49190612efb565b811015611188576040805180820191829052600154634632752560e11b909252604481018490529081906001600160a01b0316638c64ea4a60648301602060405180830381865afa15801561103d573d6000803e3d6000fd5b505050506040513d601f19601f820116820180604052508101906110619190612ede565b6001600160a01b039081168252600154604051634632752560e11b815260048101879052602090930192911690638c64ea4a90602401602060405180830381865afa1580156110b4573d6000803e3d6000fd5b505050506040513d601f19601f820116820180604052508101906110d89190612ede565b604051632f745c5960e01b81526001600160a01b038b81166004830152602482018690529190911690632f745c5990604401602060405180830381865afa158015611127573d6000803e3d6000fd5b505050506040513d601f19601f8201168201806040525081019061114b9190612efb565b905284846111588161312f565b95508151811061116a5761116a612f14565b602002602001018190525080806111809061312f565b915050610f0b565b50806111938161312f565b915050610ef9565b5090949350505050565b6111ad6127e6565b600154604051634632752560e11b8152600481018590526001600160a01b0390911690638c64ea4a90602401602060405180830381865afa1580156111f6573d6000803e3d6000fd5b505050506040513d601f19601f8201168201806040525081019061121a9190612ede565b6001600160a01b03166321603f43836040518263ffffffff1660e01b815260040161124791815260200190565b600060405180830381865afa158015611264573d6000803e3d6000fd5b505050506040513d6000823e601f3d908101601f1916820160405261128c919081019061305f565b9392505050565b600154604051634632752560e11b8152600481018490526000916001600160a01b031690638c64ea4a90602401602060405180830381865afa1580156112dd573d6000803e3d6000fd5b505050506040513d601f19601f820116820180604052508101906113019190612ede565b6001600160a01b0316631bf744db836040518263ffffffff1660e01b815260040161132e91815260200190565b602060405180830381865afa15801561134b573d6000803e3d6000fd5b505050506040513d601f19601f8201168201806040525081019061128c9190612efb565b6002546040516332e29ea160e11b81526001600160a01b0385811660048301528481166024830152604482018490526000926060928492909116906365c53d42906064015b600060405180830381865afa1580156113d1573d6000803e3d6000fd5b505050506040513d6000823e601f3d908101601f191682016040526113f99190810190613160565b92509250925093509350939050565b600154604051634632752560e11b81526004810184905260009182918291829182916001600160a01b031690638c64ea4a90602401602060405180830381865afa15801561145a573d6000803e3d6000fd5b505050506040513d601f19601f8201168201806040525081019061147e9190612ede565b60405163228bfd9f60e01b81526001600160a01b038881166004830152919091169063228bfd9f90602401602060405180830381865afa1580156114c6573d6000803e3d6000fd5b505050506040513d601f19601f820116820180604052508101906114ea9190612ede565b9050806001600160a01b0316634c46eaaa6040518163ffffffff1660e01b8152600401602060405180830381865afa15801561152a573d6000803e3d6000fd5b505050506040513d601f19601f8201168201806040525081019061154e9190612efb565b816001600160a01b031663d9f2613e6040518163ffffffff1660e01b8152600401602060405180830381865afa15801561158c573d6000803e3d6000fd5b505050506040513d601f19601f820116820180604052508101906115b09190612efb565b826001600160a01b0316639814278e6040518163ffffffff1660e01b8152600401602060405180830381865afa1580156115ee573d6000803e3d6000fd5b505050506040513d601f19601f820116820180604052508101906116129190612efb565b836001600160a01b031663d7eedd5e6040518163ffffffff1660e01b8152600401602060405180830381865afa158015611650573d6000803e3d6000fd5b505050506040513d601f19601f820116820180604052508101906116749190612efb565b929a91995097509095509350505050565b6000546001600160a01b031633146116af5760405162461bcd60e51b815260040161098b90613219565b6116b9600061277e565b565b600154604051631dc9a9cf60e21b81526001600160a01b0383811660048301526000921690637726a73c906024016105c4565b600154604051634632752560e11b8152600481018390526000916001600160a01b031690638c64ea4a90602401602060405180830381865afa158015611738573d6000803e3d6000fd5b505050506040513d601f19601f8201168201806040525081019061175c9190612ede565b6001600160a01b031663be8acd3f6040518163ffffffff1660e01b8152600401602060405180830381865afa1580156105e1573d6000803e3d6000fd5b600154604080516382af54c960e01b815290516000926001600160a01b0316916382af54c99160048083019260209291908290030181865afa1580156117e3573d6000803e3d6000fd5b505050506040513d601f19601f820116820180604052508101906118079190612efb565b905090565b600154604051634632752560e11b8152600481018490526000916001600160a01b031690638c64ea4a90602401602060405180830381865afa158015611856573d6000803e3d6000fd5b505050506040513d601f19601f8201168201806040525081019061187a9190612ede565b6001600160a01b0316634f64b2be836040518263ffffffff1660e01b81526004016118a791815260200190565b602060405180830381865afa1580156118c4573d6000803e3d6000fd5b505050506040513d601f19601f8201168201806040525081019061128c9190612ede565b600154604051634632752560e11b8152600481018390526000916001600160a01b031690638c64ea4a90602401602060405180830381865afa158015611932573d6000803e3d6000fd5b505050506040513d601f19601f820116820180604052508101906106059190612ede565b600154604051634632752560e11b8152600481018390526000916001600160a01b031690638c64ea4a90602401602060405180830381865afa1580156119a0573d6000803e3d6000fd5b505050506040513d601f19601f820116820180604052508101906119c49190612ede565b6001600160a01b031663d082e3816040518163ffffffff1660e01b8152600401602060405180830381865afa1580156105e1573d6000803e3d6000fd5b600154604051634632752560e11b815260048101839052606091829182916000916001600160a01b0390911690638c64ea4a90602401602060405180830381865afa158015611a54573d6000803e3d6000fd5b505050506040513d601f19601f82011682018060405250810190611a789190612ede565b6001600160a01b03166306fdde036040518163ffffffff1660e01b8152600401600060405180830381865afa158015611ab5573d6000803e3d6000fd5b505050506040513d6000823e601f3d908101601f19168201604052611add919081019061324e565b600154604051634632752560e11b8152600481018890526001600160a01b0390911690638c64ea4a90602401602060405180830381865afa158015611b26573d6000803e3d6000fd5b505050506040513d601f19601f82011682018060405250810190611b4a9190612ede565b6001600160a01b03166395d89b416040518163ffffffff1660e01b8152600401600060405180830381865afa158015611b87573d6000803e3d6000fd5b505050506040513d6000823e601f3d908101601f19168201604052611baf919081019061324e565b600154604051634632752560e11b8152600481018990526001600160a01b0390911690638c64ea4a90602401602060405180830381865afa158015611bf8573d6000803e3d6000fd5b505050506040513d601f19601f82011682018060405250810190611c1c9190612ede565b6001600160a01b031663dbddb26a6040518163ffffffff1660e01b8152600401600060405180830381865afa158015611c59573d6000803e3d6000fd5b505050506040513d6000823e601f3d908101601f19168201604052611c81919081019061324e565b600154604051634632752560e11b8152600481018a90526001600160a01b0390911690638c64ea4a90602401602060405180830381865afa158015611cca573d6000803e3d6000fd5b505050506040513d601f19601f82011682018060405250810190611cee9190612ede565b93509350935093509193509193565b600254604051635eb2321960e11b81526001600160a01b03858116600483015284811660248301526044820184905260009260609284929091169063bd646432906064016113b4565b600154604051634632752560e11b8152600481018390526000916001600160a01b031690638c64ea4a90602401602060405180830381865afa158015611d90573d6000803e3d6000fd5b505050506040513d601f19601f82011682018060405250810190611db49190612ede565b6001600160a01b031663d92fc67b6040518163ffffffff1660e01b8152600401602060405180830381865afa1580156105e1573d6000803e3d6000fd5b600154604051634632752560e11b8152600481018490526000916001600160a01b031690638c64ea4a90602401602060405180830381865afa158015611e3b573d6000803e3d6000fd5b505050506040513d601f19601f82011682018060405250810190611e5f9190612ede565b604051633f2acb8560e21b81526001600160a01b038481166004830152919091169063fcab2e149060240161132e565b600154604051634632752560e11b8152600481018590526060916000916001600160a01b0390911690638c64ea4a90602401602060405180830381865afa158015611ede573d6000803e3d6000fd5b505050506040513d601f19601f82011682018060405250810190611f029190612ede565b9050806001600160a01b031663198e4ce66040518163ffffffff1660e01b8152600401602060405180830381865afa158015611f42573d6000803e3d6000fd5b505050506040513d601f19601f82011682018060405250810190611f669190612efb565b831115611fc85760405162461bcd60e51b815260206004820152602a60248201527f436f726e466920436f6e74726f6c6c657220566965773a205175657279204f7560448201526974206f662052616e676560b01b606482015260840161098b565b6000611fdf6001611fd986886127ce565b906127da565b6001600160401b03811115611ff657611ff66128b6565b60405190808252806020026020018201604052801561202f57816020015b61201c6127e6565b8152602001906001900390816120145790505b509050845b848111610b2c5760405163a5f4030360e01b8152600481018290526001600160a01b038416906321603f4390829063a5f4030390602401602060405180830381865afa158015612088573d6000803e3d6000fd5b505050506040513d601f19601f820116820180604052508101906120ac9190612efb565b6040518263ffffffff1660e01b81526004016120ca91815260200190565b600060405180830381865afa1580156120e7573d6000803e3d6000fd5b505050506040513d6000823e601f3d908101601f1916820160405261210f919081019061305f565b8261211a83896127ce565b8151811061212a5761212a612f14565b602002602001018190525080806121409061312f565b915050612034565b600154604051636598378160e11b815260048101849052602481018390526000916001600160a01b03169063cb306f029060440161132e565b6000546001600160a01b031633146121ab5760405162461bcd60e51b815260040161098b90613219565b600180546001600160a01b039384166001600160a01b03199182161790915560028054929093169116179055565b600154604051634632752560e11b8152600481018490526000916001600160a01b031690638c64ea4a90602401602060405180830381865afa158015612223573d6000803e3d6000fd5b505050506040513d601f19601f820116820180604052508101906122479190612ede565b6001600160a01b0316639fd19d92836040518263ffffffff1660e01b815260040161132e91815260200190565b600154604051634632752560e11b8152600481018390526000916001600160a01b031690638c64ea4a90602401602060405180830381865afa1580156122be573d6000803e3d6000fd5b505050506040513d601f19601f820116820180604052508101906122e29190612ede565b6001600160a01b031663113990b86040518163ffffffff1660e01b8152600401602060405180830381865afa1580156105e1573d6000803e3d6000fd5b600154604051634632752560e11b8152600481018490526060916001600160a01b031690638c64ea4a90602401602060405180830381865afa158015612369573d6000803e3d6000fd5b505050506040513d601f19601f8201168201806040525081019061238d9190612ede565b6001600160a01b031663b8dc7414836040518263ffffffff1660e01b81526004016123ba91815260200190565b600060405180830381865afa1580156123d7573d6000803e3d6000fd5b505050506040513d6000823e601f3d908101601f1916820160405261128c91908101906132d8565b600154604051634632752560e11b8152600481018490526000916001600160a01b031690638c64ea4a90602401602060405180830381865afa158015612449573d6000803e3d6000fd5b505050506040513d601f19601f8201168201806040525081019061246d9190612ede565b604051635acf690360e01b81526001600160a01b0384811660048301529190911690635acf690390602401602060405180830381865afa1580156124b5573d6000803e3d6000fd5b505050506040513d601f19601f8201168201806040525081019061128c9190613396565b6000546001600160a01b031633146125035760405162461bcd60e51b815260040161098b90613219565b6001600160a01b0381166125685760405162461bcd60e51b815260206004820152602660248201527f4f776e61626c653a206e6577206f776e657220697320746865207a65726f206160448201526564647265737360d01b606482015260840161098b565b6125718161277e565b50565b60015460405163f815c03d60e01b81526001600160a01b038381166004830152600092169063f815c03d90602401602060405180830381865afa1580156125bf573d6000803e3d6000fd5b505050506040513d601f19601f8201168201806040525081019061060591906133b8565b604051637105f34d60e11b815260048101839052602481018290526060906000906001600160a01b0386169063e20be69a90604401600060405180830381865afa158015612635573d6000803e3d6000fd5b505050506040513d6000823e601f3d908101601f1916820160405261265d91908101906133db565b9050600081516001600160401b0381111561267a5761267a6128b6565b6040519080825280602002602001820160405280156126b357816020015b6126a06127e6565b8152602001906001900390816126985790505b50905060005b8251811015610b2c57866001600160a01b03166321603f438483815181106126e3576126e3612f14565b60200260200101516040518263ffffffff1660e01b815260040161270991815260200190565b600060405180830381865afa158015612726573d6000803e3d6000fd5b505050506040513d6000823e601f3d908101601f1916820160405261274e919081019061305f565b82828151811061276057612760612f14565b602002602001018190525080806127769061312f565b9150506126b9565b600080546001600160a01b038381166001600160a01b0319831681178455604051919092169283917f8be0079c531659141344cd1fd0a4f28419497f9722a3daafe3b4186f6b6457e09190a35050565b600061128c8284613417565b600061128c8284613148565b6040518060e001604052806000815260200160008152602001600081526020016000815260200161281561282f565b815260200161282261284d565b8152602001606081525090565b60405180604001604052806002906020820280368337509192915050565b60405180606001604052806003906020820280368337509192915050565b6001600160a01b038116811461257157600080fd5b60006020828403121561289257600080fd5b813561128c8161286b565b6000602082840312156128af57600080fd5b5035919050565b634e487b7160e01b600052604160045260246000fd5b60405160e081016001600160401b03811182821017156128ee576128ee6128b6565b60405290565b604080519081016001600160401b03811182821017156128ee576128ee6128b6565b604051601f8201601f191681016001600160401b038111828210171561293e5761293e6128b6565b604052919050565b60006001600160401b0382111561295f5761295f6128b6565b5060051b60200190565b600082601f83011261297a57600080fd5b8135602061298f61298a83612946565b612916565b82815260059290921b840181019181810190868411156129ae57600080fd5b8286015b848110156129c957803583529183019183016129b2565b509695505050505050565b600080604083850312156129e757600080fd5b8235915060208301356001600160401b03811115612a0457600080fd5b612a1085828601612969565b9150509250929050565b8060005b6003811015612a3d578151845260209384019390910190600101612a1e565b50505050565b600081518084526020808501945080840160005b83811015612a7357815187529582019590820190600101612a57565b509495945050505050565b60006101408251845260208084015181860152604084015160408601526060840151606086015260808401516080860160005b6002811015612ad75782516001600160a01b031682529183019190830190600101612ab1565b5050505060a0830151612aed60c0860182612a1a565b5060c083015181610120860152612b0682860182612a43565b95945050505050565b600081518084526020808501808196508360051b8101915082860160005b85811015612b57578284038952612b45848351612a7e565b98850198935090840190600101612b2d565b5091979650505050505050565b60208152600061128c6020830184612b0f565b600080600060608486031215612b8c57600080fd5b833592506020840135915060408401356001600160401b03811115612bb057600080fd5b612bbc86828701612969565b9150509250925092565b6000602080830181845280855180835260408601915060408160051b870101925083870160005b82811015612c1b57603f19888603018452612c09858351612b0f565b94509285019290850190600101612bed565b5092979650505050505050565b60008060408385031215612c3b57600080fd5b50508035926020909101359150565b602080825282518282018190526000919060409081850190868401855b82811015612b5757612c8d84835180516001600160a01b03168252602090810151910152565b9284019290850190600101612c67565b60208152600061128c6020830184612a7e565b600080600060608486031215612cc557600080fd5b8335612cd08161286b565b92506020840135612ce08161286b565b929592945050506040919091013590565b6001600160a01b038481168252606060208084018290528551918401829052600092868201929091906080860190855b81811015612d3f578551851683529483019491830191600101612d21565b505080945050505050826040830152949350505050565b60008060408385031215612d6957600080fd5b823591506020830135612d7b8161286b565b809150509250929050565b60005b83811015612da1578181015183820152602001612d89565b83811115612a3d5750506000910152565b60008151808452612dca816020860160208601612d86565b601f01601f19169290920160200192915050565b608081526000612df16080830187612db2565b8281036020840152612e038187612db2565b90508281036040840152612e178186612db2565b91505060018060a01b038316606083015295945050505050565b600080600060608486031215612e4657600080fd5b505081359360208301359350604090920135919050565b60008060408385031215612e7057600080fd5b8235612e7b8161286b565b91506020830135612d7b8161286b565b602080825282518282018190526000919060409081850190868401855b82811015612b5757612ece84835180516001600160a01b03168252602090810151910152565b9284019290850190600101612ea8565b600060208284031215612ef057600080fd5b815161128c8161286b565b600060208284031215612f0d57600080fd5b5051919050565b634e487b7160e01b600052603260045260246000fd5b600082601f830112612f3b57600080fd5b604051604081018181106001600160401b0382111715612f5d57612f5d6128b6565b8060405250806040840185811115612f7457600080fd5b845b81811015612f97578051612f898161286b565b835260209283019201612f76565b509195945050505050565b600082601f830112612fb357600080fd5b604051606081018181106001600160401b0382111715612fd557612fd56128b6565b604052806060840185811115612fea57600080fd5b845b81811015612f97578051835260209283019201612fec565b600082601f83011261301557600080fd5b8151602061302561298a83612946565b82815260059290921b8401810191818101908684111561304457600080fd5b8286015b848110156129c95780518352918301918301613048565b60006020828403121561307157600080fd5b81516001600160401b038082111561308857600080fd5b90830190610140828603121561309d57600080fd5b6130a56128cc565b825181526020830151602082015260408301516040820152606083015160608201526130d48660808501612f2a565b60808201526130e68660c08501612fa2565b60a0820152610120830151828111156130fe57600080fd5b61310a87828601613004565b60c08301525095945050505050565b634e487b7160e01b600052601160045260246000fd5b60006001820161314157613141613119565b5060010190565b6000821982111561315b5761315b613119565b500190565b60008060006060848603121561317557600080fd5b83516131808161286b565b809350506020808501516001600160401b0381111561319e57600080fd5b8501601f810187136131af57600080fd5b80516131bd61298a82612946565b81815260059190911b820183019083810190898311156131dc57600080fd5b928401925b828410156132035783516131f48161286b565b825292840192908401906131e1565b8096505050505050604084015190509250925092565b6020808252818101527f4f776e61626c653a2063616c6c6572206973206e6f7420746865206f776e6572604082015260600190565b60006020828403121561326057600080fd5b81516001600160401b038082111561327757600080fd5b818401915084601f83011261328b57600080fd5b81518181111561329d5761329d6128b6565b6132b0601f8201601f1916602001612916565b91508082528560208285010111156132c757600080fd5b61084a816020840160208601612d86565b600060208083850312156132eb57600080fd5b82516001600160401b0381111561330157600080fd5b8301601f8101851361331257600080fd5b805161332061298a82612946565b81815260069190911b8201830190838101908783111561333f57600080fd5b928401925b8284101561338b576040848903121561335d5760008081fd5b6133656128f4565b84516133708161286b565b81528486015186820152825260409093019290840190613344565b979650505050505050565b6000602082840312156133a857600080fd5b8151801515811461128c57600080fd5b6000602082840312156133ca57600080fd5b815160ff8116811461128c57600080fd5b6000602082840312156133ed57600080fd5b81516001600160401b0381111561340357600080fd5b61340f84828501613004565b949350505050565b60008282101561342957613429613119565b50039056fea264697066735822122050758aa4ac44ec3aafe6272c440c70eb9d7edb8f73a5f416975ac11626fcc05f64736f6c634300080d0033",
  "linkReferences": {},
  "deployedLinkReferences": {}
}