{
  "abi": [
    {
      "anonymous": false,
      "inputs": [
        {
          "indexed": false,
          "internalType": "bytes",
          "name": "data",
          "type": "bytes"
        },
        {
          "indexed": false,
          "internalType": "uint256",
          "name": "integerValue",
          "type": "uint256"
        },
        {
          "indexed": false,
          "internalType": "string",
          "name": "stringValue",
          "type": "string"
        }
      ],
      "name": "Data",
      "type": "event"
    },
    {
      "anonymous": false,
      "inputs": [
        {
          "indexed": true,
          "internalType": "address",
          "name": "oldRelayHub",
          "type": "address"
        },
        {
          "indexed": true,
          "internalType": "address",
          "name": "newRelayHub",
          "type": "address"
        }
      ],
      "name": "RelayHubChanged",
      "type": "event"
    },
    {
      "anonymous": false,
      "inputs": [
        {
          "indexed": false,
          "internalType": "address",
          "name": "sender",
          "type": "address"
        }
      ],
      "name": "Sender",
      "type": "event"
    },
    {
      "inputs": [
        {
          "internalType": "address",
          "name": "",
          "type": "address"
        },
        {
          "internalType": "address",
          "name": "",
          "type": "address"
        },
        {
          "internalType": "bytes",
          "name": "",
          "type": "bytes"
        },
        {
          "internalType": "uint256",
          "name": "",
          "type": "uint256"
        },
        {
          "internalType": "uint256",
          "name": "",
          "type": "uint256"
        },
        {
          "internalType": "uint256",
          "name": "",
          "type": "uint256"
        },
        {
          "internalType": "uint256",
          "name": "",
          "type": "uint256"
        },
        {
          "internalType": "bytes",
          "name": "",
          "type": "bytes"
        },
        {
          "internalType": "uint256",
          "name": "",
          "type": "uint256"
        }
      ],
      "name": "acceptRelayedCall",
      "outputs": [
        {
          "internalType": "uint256",
          "name": "",
          "type": "uint256"
        },
        {
          "internalType": "bytes",
          "name": "",
          "type": "bytes"
        }
      ],
      "stateMutability": "view",
      "type": "function"
    },
    {
      "inputs": [],
      "name": "getHubAddr",
      "outputs": [
        {
          "internalType": "address",
          "name": "",
          "type": "address"
        }
      ],
      "stateMutability": "view",
      "type": "function"
    },
    {
      "inputs": [
        {
          "internalType": "uint256",
          "name": "integerValue",
          "type": "uint256"
        },
        {
          "internalType": "string",
          "name": "stringValue",
          "type": "string"
        }
      ],
      "name": "msgData",
      "outputs": [],
      "stateMutability": "nonpayable",
      "type": "function"
    },
    {
      "inputs": [],
      "name": "msgSender",
      "outputs": [],
      "stateMutability": "nonpayable",
      "type": "function"
    },
    {
      "inputs": [
        {
          "internalType": "bytes",
          "name": "context",
          "type": "bytes"
        },
        {
          "internalType": "bool",
          "name": "success",
          "type": "bool"
        },
        {
          "internalType": "uint256",
          "name": "actualCharge",
          "type": "uint256"
        },
        {
          "internalType": "bytes32",
          "name": "preRetVal",
          "type": "bytes32"
        }
      ],
      "name": "postRelayedCall",
      "outputs": [],
      "stateMutability": "nonpayable",
      "type": "function"
    },
    {
      "inputs": [
        {
          "internalType": "bytes",
          "name": "context",
          "type": "bytes"
        }
      ],
      "name": "preRelayedCall",
      "outputs": [
        {
          "internalType": "bytes32",
          "name": "",
          "type": "bytes32"
        }
      ],
      "stateMutability": "nonpayable",
      "type": "function"
    },
    {
      "inputs": [],
      "name": "relayHubVersion",
      "outputs": [
        {
          "internalType": "string",
          "name": "",
          "type": "string"
        }
      ],
      "stateMutability": "view",
      "type": "function"
    },
    {
      "inputs": [
        {
          "internalType": "address",
          "name": "newRelayHub",
          "type": "address"
        }
      ],
      "name": "upgradeRelayHub",
      "outputs": [],
      "stateMutability": "nonpayable",
      "type": "function"
    },
    {
      "inputs": [
        {
          "internalType": "uint256",
          "name": "amount",
          "type": "uint256"
        },
        {
          "internalType": "address payable",
          "name": "payee",
          "type": "address"
        }
      ],
      "name": "withdrawDeposits",
      "outputs": [],
      "stateMutability": "nonpayable",
      "type": "function"
    }
  ],
  "bytecode": "6080604052600080546001600160a01b03191673d216153c06e857cd7f72665e0af1d7d82172f49417905534801561003657600080fd5b50610b58806100466000396000f3fe608060405234801561001057600080fd5b50600436106100935760003560e01c80639e30a590116100665780639e30a5901461038c578063ad61ccd5146103b2578063c2db1abe1461042f578063d737d0c71461045b578063e06e0e221461046357610093565b8063376bf2621461009857806374e861d61461014557806380274db71461016957806383947ea01461021f575b600080fd5b610143600480360360408110156100ae57600080fd5b81359190810190604081016020820135600160201b8111156100cf57600080fd5b8201836020820111156100e157600080fd5b803590602001918460018302840111600160201b8311171561010257600080fd5b91908080601f016020809104026020016040519081016040528093929190818152602001838380828437600092019190915250929550610514945050505050565b005b61014d610627565b604080516001600160a01b039092168252519081900360200190f35b61020d6004803603602081101561017f57600080fd5b810190602081018135600160201b81111561019957600080fd5b8201836020820111156101ab57600080fd5b803590602001918460018302840111600160201b831117156101cc57600080fd5b91908080601f016020809104026020016040519081016040528093929190818152602001838380828437600092019190915250929550610637945050505050565b60408051918252519081900360200190f35b61030d600480360361012081101561023657600080fd5b6001600160a01b038235811692602081013590911691810190606081016040820135600160201b81111561026957600080fd5b82018360208201111561027b57600080fd5b803590602001918460018302840111600160201b8311171561029c57600080fd5b9193909282359260208101359260408201359260608301359260a081019060800135600160201b8111156102cf57600080fd5b8201836020820111156102e157600080fd5b803590602001918460018302840111600160201b8311171561030257600080fd5b91935091503561069f565b6040518083815260200180602001828103825283818151815260200191508051906020019080838360005b83811015610350578181015183820152602001610338565b50505050905090810190601f16801561037d5780820380516001836020036101000a031916815260200191505b50935050505060405180910390f35b610143600480360360208110156103a257600080fd5b50356001600160a01b03166106c0565b6103ba6106cc565b6040805160208082528351818301528351919283929083019185019080838360005b838110156103f45781810151838201526020016103dc565b50505050905090810190601f1680156104215780820380516001836020036101000a031916815260200191505b509250505060405180910390f35b6101436004803603604081101561044557600080fd5b50803590602001356001600160a01b03166106eb565b6101436106f9565b6101436004803603608081101561047957600080fd5b810190602081018135600160201b81111561049357600080fd5b8201836020820111156104a557600080fd5b803590602001918460018302840111600160201b831117156104c657600080fd5b91908080601f0160208091040260200160405190810160405280939291908181526020018383808284376000920191909152509295505050508035151591506020810135906040013561073f565b7faf235354a0a47c91ee171961326335cb2d1a8e55b8a89859b0e61eb049e50ea061053d6107a4565b8383604051808060200184815260200180602001838103835286818151815260200191508051906020019080838360005b8381101561058657818101518382015260200161056e565b50505050905090810190601f1680156105b35780820380516001836020036101000a031916815260200191505b50838103825284518152845160209182019186019080838360005b838110156105e65781810151838201526020016105ce565b50505050905090810190601f1680156106135780820380516001836020036101000a031916815260200191505b509550505050505060405180910390a15050565b6000546001600160a01b03165b90565b6000610641610627565b6001600160a01b0316336001600160a01b0316146106905760405162461bcd60e51b8152600401808060200182810382526024815260200180610aff6024913960400191505060405180910390fd5b610699826107b3565b92915050565b60408051602081019091526000808252909b509b9950505050505050505050565b6106c9816107b9565b50565b6040805180820190915260058152640312e302e360dc1b602082015290565b6106f582826108b9565b5050565b7fd6558c3ed910d959271054471fd1c326679d9fece99c5091b00ed89627cf2bfc610722610925565b604080516001600160a01b039092168252519081900360200190a1565b610747610627565b6001600160a01b0316336001600160a01b0316146107965760405162461bcd60e51b8152600401808060200182810382526024815260200180610aff6024913960400191505060405180910390fd5b61079e848484845b50505050565b60606107ae61092f565b905090565b50600090565b6000546001600160a01b039081169082166108055760405162461bcd60e51b815260040180806020018281038252602e815260200180610aa4602e913960400191505060405180910390fd5b806001600160a01b0316826001600160a01b031614156108565760405162461bcd60e51b815260040180806020018281038252602d815260200180610ad2602d913960400191505060405180910390fd5b816001600160a01b0316816001600160a01b03167fb9f84b8e65164b14439ae3620df0a4d8786d896996c0282b683f9d8c08f046e860405160405180910390a350600080546001600160a01b0319166001600160a01b0392909216919091179055565b6000805460408051627b8a6760e11b8152600481018690526001600160a01b0385811660248301529151919092169262f714ce926044808201939182900301818387803b15801561090957600080fd5b505af115801561091d573d6000803e3d6000fd5b505050505050565b60006107ae610993565b6000546060906001600160a01b03163314610984576000368080601f01602080910402602001604051908101604052809392919081815260200183838082843760009201919091525092935061063492505050565b61098c6109b5565b9050610634565b600080546001600160a01b031633146109ad575033610634565b61098c610a56565b60606013193601818167ffffffffffffffff811180156109d457600080fd5b506040519080825280601f01601f1916602001820160405280156109ff576020820181803683370190505b50905060005b82811015610a4f5760003682818110610a1a57fe5b9050013560f81c60f81b828281518110610a3057fe5b60200101906001600160f81b031916908160001a905350600101610a05565b5091505090565b600060606000368080601f0160208091040260200160405190810160405280939291908181526020018383808284376000920191909152505050503601516001600160a01b03169291505056fe47534e526563697069656e743a206e65772052656c617948756220697320746865207a65726f206164647265737347534e526563697069656e743a206e65772052656c6179487562206973207468652063757272656e74206f6e6547534e526563697069656e743a2063616c6c6572206973206e6f742052656c6179487562a26469706673582212208c67e01a430ee66214b5a27bb60207381db85d0f35b1a1cf206a4ad7db495b0864736f6c634300060c0033",
  "bytecodeSha1": "b83a0512d275a98880f8d52a9a6e5da0be69e930",
  "compiler": {
    "evm_version": "istanbul",
    "optimizer": {
      "enabled": true,
      "runs": 200
    },
    "version": "0.6.12+commit.27d51765"
  },
  "contractName": "GSNRecipientMock",
  "language": "Solidity",
  "natspec": {
    "kind": "dev",
    "methods": {
      "getHubAddr()": {
        "details": "Returns the address of the {IRelayHub} contract for this recipient."
      },
      "postRelayedCall(bytes,bool,uint256,bytes32)": {
        "details": "See `IRelayRecipient.postRelayedCall`. This function should not be overriden directly, use `_postRelayedCall` instead. * Requirements: - the caller must be the `RelayHub` contract."
      },
      "preRelayedCall(bytes)": {
        "details": "See `IRelayRecipient.preRelayedCall`. This function should not be overriden directly, use `_preRelayedCall` instead. * Requirements: - the caller must be the `RelayHub` contract."
      },
      "relayHubVersion()": {
        "details": "Returns the version string of the {IRelayHub} for which this recipient implementation was built. If {_upgradeRelayHub} is used, the new {IRelayHub} instance should be compatible with this version."
      }
    },
    "version": 1
  },
  "opcodes": "PUSH1 0x80 PUSH1 0x40 MSTORE CALLVALUE DUP1 ISZERO PUSH2 0x10 JUMPI PUSH1 0x0 DUP1 REVERT JUMPDEST POP PUSH1 0x4 CALLDATASIZE LT PUSH2 0x93 JUMPI PUSH1 0x0 CALLDATALOAD PUSH1 0xE0 SHR DUP1 PUSH4 0x9E30A590 GT PUSH2 0x66 JUMPI DUP1 PUSH4 0x9E30A590 EQ PUSH2 0x38C JUMPI DUP1 PUSH4 0xAD61CCD5 EQ PUSH2 0x3B2 JUMPI DUP1 PUSH4 0xC2DB1ABE EQ PUSH2 0x42F JUMPI DUP1 PUSH4 0xD737D0C7 EQ PUSH2 0x45B JUMPI DUP1 PUSH4 0xE06E0E22 EQ PUSH2 0x463 JUMPI PUSH2 0x93 JUMP JUMPDEST DUP1 PUSH4 0x376BF262 EQ PUSH2 0x98 JUMPI DUP1 PUSH4 0x74E861D6 EQ PUSH2 0x145 JUMPI DUP1 PUSH4 0x80274DB7 EQ PUSH2 0x169 JUMPI DUP1 PUSH4 0x83947EA0 EQ PUSH2 0x21F JUMPI JUMPDEST PUSH1 0x0 DUP1 REVERT JUMPDEST PUSH2 0x143 PUSH1 0x4 DUP1 CALLDATASIZE SUB PUSH1 0x40 DUP2 LT ISZERO PUSH2 0xAE JUMPI PUSH1 0x0 DUP1 REVERT JUMPDEST DUP2 CALLDATALOAD SWAP2 SWAP1 DUP2 ADD SWAP1 PUSH1 0x40 DUP2 ADD PUSH1 0x20 DUP3 ADD CALLDATALOAD PUSH1 0x1 PUSH1 0x20 SHL DUP2 GT ISZERO PUSH2 0xCF JUMPI PUSH1 0x0 DUP1 REVERT JUMPDEST DUP3 ADD DUP4 PUSH1 0x20 DUP3 ADD GT ISZERO PUSH2 0xE1 JUMPI PUSH1 0x0 DUP1 REVERT JUMPDEST DUP1 CALLDATALOAD SWAP1 PUSH1 0x20 ADD SWAP2 DUP5 PUSH1 0x1 DUP4 MUL DUP5 ADD GT PUSH1 0x1 PUSH1 0x20 SHL DUP4 GT OR ISZERO PUSH2 0x102 JUMPI PUSH1 0x0 DUP1 REVERT JUMPDEST SWAP2 SWAP1 DUP1 DUP1 PUSH1 0x1F ADD PUSH1 0x20 DUP1 SWAP2 DIV MUL PUSH1 0x20 ADD PUSH1 0x40 MLOAD SWAP1 DUP2 ADD PUSH1 0x40 MSTORE DUP1 SWAP4 SWAP3 SWAP2 SWAP1 DUP2 DUP2 MSTORE PUSH1 0x20 ADD DUP4 DUP4 DUP1 DUP3 DUP5 CALLDATACOPY PUSH1 0x0 SWAP3 ADD SWAP2 SWAP1 SWAP2 MSTORE POP SWAP3 SWAP6 POP PUSH2 0x514 SWAP5 POP POP POP POP POP JUMP JUMPDEST STOP JUMPDEST PUSH2 0x14D PUSH2 0x627 JUMP JUMPDEST PUSH1 0x40 DUP1 MLOAD PUSH1 0x1 PUSH1 0x1 PUSH1 0xA0 SHL SUB SWAP1 SWAP3 AND DUP3 MSTORE MLOAD SWAP1 DUP2 SWAP1 SUB PUSH1 0x20 ADD SWAP1 RETURN JUMPDEST PUSH2 0x20D PUSH1 0x4 DUP1 CALLDATASIZE SUB PUSH1 0x20 DUP2 LT ISZERO PUSH2 0x17F JUMPI PUSH1 0x0 DUP1 REVERT JUMPDEST DUP2 ADD SWAP1 PUSH1 0x20 DUP2 ADD DUP2 CALLDATALOAD PUSH1 0x1 PUSH1 0x20 SHL DUP2 GT ISZERO PUSH2 0x199 JUMPI PUSH1 0x0 DUP1 REVERT JUMPDEST DUP3 ADD DUP4 PUSH1 0x20 DUP3 ADD GT ISZERO PUSH2 0x1AB JUMPI PUSH1 0x0 DUP1 REVERT JUMPDEST DUP1 CALLDATALOAD SWAP1 PUSH1 0x20 ADD SWAP2 DUP5 PUSH1 0x1 DUP4 MUL DUP5 ADD GT PUSH1 0x1 PUSH1 0x20 SHL DUP4 GT OR ISZERO PUSH2 0x1CC JUMPI PUSH1 0x0 DUP1 REVERT JUMPDEST SWAP2 SWAP1 DUP1 DUP1 PUSH1 0x1F ADD PUSH1 0x20 DUP1 SWAP2 DIV MUL PUSH1 0x20 ADD PUSH1 0x40 MLOAD SWAP1 DUP2 ADD PUSH1 0x40 MSTORE DUP1 SWAP4 SWAP3 SWAP2 SWAP1 DUP2 DUP2 MSTORE PUSH1 0x20 ADD DUP4 DUP4 DUP1 DUP3 DUP5 CALLDATACOPY PUSH1 0x0 SWAP3 ADD SWAP2 SWAP1 SWAP2 MSTORE POP SWAP3 SWAP6 POP PUSH2 0x637 SWAP5 POP POP POP POP POP JUMP JUMPDEST PUSH1 0x40 DUP1 MLOAD SWAP2 DUP3 MSTORE MLOAD SWAP1 DUP2 SWAP1 SUB PUSH1 0x20 ADD SWAP1 RETURN JUMPDEST PUSH2 0x30D PUSH1 0x4 DUP1 CALLDATASIZE SUB PUSH2 0x120 DUP2 LT ISZERO PUSH2 0x236 JUMPI PUSH1 0x0 DUP1 REVERT JUMPDEST PUSH1 0x1 PUSH1 0x1 PUSH1 0xA0 SHL SUB DUP3 CALLDATALOAD DUP2 AND SWAP3 PUSH1 0x20 DUP2 ADD CALLDATALOAD SWAP1 SWAP2 AND SWAP2 DUP2 ADD SWAP1 PUSH1 0x60 DUP2 ADD PUSH1 0x40 DUP3 ADD CALLDATALOAD PUSH1 0x1 PUSH1 0x20 SHL DUP2 GT ISZERO PUSH2 0x269 JUMPI PUSH1 0x0 DUP1 REVERT JUMPDEST DUP3 ADD DUP4 PUSH1 0x20 DUP3 ADD GT ISZERO PUSH2 0x27B JUMPI PUSH1 0x0 DUP1 REVERT JUMPDEST DUP1 CALLDATALOAD SWAP1 PUSH1 0x20 ADD SWAP2 DUP5 PUSH1 0x1 DUP4 MUL DUP5 ADD GT PUSH1 0x1 PUSH1 0x20 SHL DUP4 GT OR ISZERO PUSH2 0x29C JUMPI PUSH1 0x0 DUP1 REVERT JUMPDEST SWAP2 SWAP4 SWAP1 SWAP3 DUP3 CALLDATALOAD SWAP3 PUSH1 0x20 DUP2 ADD CALLDATALOAD SWAP3 PUSH1 0x40 DUP3 ADD CALLDATALOAD SWAP3 PUSH1 0x60 DUP4 ADD CALLDATALOAD SWAP3 PUSH1 0xA0 DUP2 ADD SWAP1 PUSH1 0x80 ADD CALLDATALOAD PUSH1 0x1 PUSH1 0x20 SHL DUP2 GT ISZERO PUSH2 0x2CF JUMPI PUSH1 0x0 DUP1 REVERT JUMPDEST DUP3 ADD DUP4 PUSH1 0x20 DUP3 ADD GT ISZERO PUSH2 0x2E1 JUMPI PUSH1 0x0 DUP1 REVERT JUMPDEST DUP1 CALLDATALOAD SWAP1 PUSH1 0x20 ADD SWAP2 DUP5 PUSH1 0x1 DUP4 MUL DUP5 ADD GT PUSH1 0x1 PUSH1 0x20 SHL DUP4 GT OR ISZERO PUSH2 0x302 JUMPI PUSH1 0x0 DUP1 REVERT JUMPDEST SWAP2 SWAP4 POP SWAP2 POP CALLDATALOAD PUSH2 0x69F JUMP JUMPDEST PUSH1 0x40 MLOAD DUP1 DUP4 DUP2 MSTORE PUSH1 0x20 ADD DUP1 PUSH1 0x20 ADD DUP3 DUP2 SUB DUP3 MSTORE DUP4 DUP2 DUP2 MLOAD DUP2 MSTORE PUSH1 0x20 ADD SWAP2 POP DUP1 MLOAD SWAP1 PUSH1 0x20 ADD SWAP1 DUP1 DUP4 DUP4 PUSH1 0x0 JUMPDEST DUP4 DUP2 LT ISZERO PUSH2 0x350 JUMPI DUP2 DUP2 ADD MLOAD DUP4 DUP3 ADD MSTORE PUSH1 0x20 ADD PUSH2 0x338 JUMP JUMPDEST POP POP POP POP SWAP1 POP SWAP1 DUP2 ADD SWAP1 PUSH1 0x1F AND DUP1 ISZERO PUSH2 0x37D JUMPI DUP1 DUP3 SUB DUP1 MLOAD PUSH1 0x1 DUP4 PUSH1 0x20 SUB PUSH2 0x100 EXP SUB NOT AND DUP2 MSTORE PUSH1 0x20 ADD SWAP2 POP JUMPDEST POP SWAP4 POP POP POP POP PUSH1 0x40 MLOAD DUP1 SWAP2 SUB SWAP1 RETURN JUMPDEST PUSH2 0x143 PUSH1 0x4 DUP1 CALLDATASIZE SUB PUSH1 0x20 DUP2 LT ISZERO PUSH2 0x3A2 JUMPI PUSH1 0x0 DUP1 REVERT JUMPDEST POP CALLDATALOAD PUSH1 0x1 PUSH1 0x1 PUSH1 0xA0 SHL SUB AND PUSH2 0x6C0 JUMP JUMPDEST PUSH2 0x3BA PUSH2 0x6CC JUMP JUMPDEST PUSH1 0x40 DUP1 MLOAD PUSH1 0x20 DUP1 DUP3 MSTORE DUP4 MLOAD DUP2 DUP4 ADD MSTORE DUP4 MLOAD SWAP2 SWAP3 DUP4 SWAP3 SWAP1 DUP4 ADD SWAP2 DUP6 ADD SWAP1 DUP1 DUP4 DUP4 PUSH1 0x0 JUMPDEST DUP4 DUP2 LT ISZERO PUSH2 0x3F4 JUMPI DUP2 DUP2 ADD MLOAD DUP4 DUP3 ADD MSTORE PUSH1 0x20 ADD PUSH2 0x3DC JUMP JUMPDEST POP POP POP POP SWAP1 POP SWAP1 DUP2 ADD SWAP1 PUSH1 0x1F AND DUP1 ISZERO PUSH2 0x421 JUMPI DUP1 DUP3 SUB DUP1 MLOAD PUSH1 0x1 DUP4 PUSH1 0x20 SUB PUSH2 0x100 EXP SUB NOT AND DUP2 MSTORE PUSH1 0x20 ADD SWAP2 POP JUMPDEST POP SWAP3 POP POP POP PUSH1 0x40 MLOAD DUP1 SWAP2 SUB SWAP1 RETURN JUMPDEST PUSH2 0x143 PUSH1 0x4 DUP1 CALLDATASIZE SUB PUSH1 0x40 DUP2 LT ISZERO PUSH2 0x445 JUMPI PUSH1 0x0 DUP1 REVERT JUMPDEST POP DUP1 CALLDATALOAD SWAP1 PUSH1 0x20 ADD CALLDATALOAD PUSH1 0x1 PUSH1 0x1 PUSH1 0xA0 SHL SUB AND PUSH2 0x6EB JUMP JUMPDEST PUSH2 0x143 PUSH2 0x6F9 JUMP JUMPDEST PUSH2 0x143 PUSH1 0x4 DUP1 CALLDATASIZE SUB PUSH1 0x80 DUP2 LT ISZERO PUSH2 0x479 JUMPI PUSH1 0x0 DUP1 REVERT JUMPDEST DUP2 ADD SWAP1 PUSH1 0x20 DUP2 ADD DUP2 CALLDATALOAD PUSH1 0x1 PUSH1 0x20 SHL DUP2 GT ISZERO PUSH2 0x493 JUMPI PUSH1 0x0 DUP1 REVERT JUMPDEST DUP3 ADD DUP4 PUSH1 0x20 DUP3 ADD GT ISZERO PUSH2 0x4A5 JUMPI PUSH1 0x0 DUP1 REVERT JUMPDEST DUP1 CALLDATALOAD SWAP1 PUSH1 0x20 ADD SWAP2 DUP5 PUSH1 0x1 DUP4 MUL DUP5 ADD GT PUSH1 0x1 PUSH1 0x20 SHL DUP4 GT OR ISZERO PUSH2 0x4C6 JUMPI PUSH1 0x0 DUP1 REVERT JUMPDEST SWAP2 SWAP1 DUP1 DUP1 PUSH1 0x1F ADD PUSH1 0x20 DUP1 SWAP2 DIV MUL PUSH1 0x20 ADD PUSH1 0x40 MLOAD SWAP1 DUP2 ADD PUSH1 0x40 MSTORE DUP1 SWAP4 SWAP3 SWAP2 SWAP1 DUP2 DUP2 MSTORE PUSH1 0x20 ADD DUP4 DUP4 DUP1 DUP3 DUP5 CALLDATACOPY PUSH1 0x0 SWAP3 ADD SWAP2 SWAP1 SWAP2 MSTORE POP SWAP3 SWAP6 POP POP POP POP DUP1 CALLDATALOAD ISZERO ISZERO SWAP2 POP PUSH1 0x20 DUP2 ADD CALLDATALOAD SWAP1 PUSH1 0x40 ADD CALLDATALOAD PUSH2 0x73F JUMP JUMPDEST PUSH32 0xAF235354A0A47C91EE171961326335CB2D1A8E55B8A89859B0E61EB049E50EA0 PUSH2 0x53D PUSH2 0x7A4 JUMP JUMPDEST DUP4 DUP4 PUSH1 0x40 MLOAD DUP1 DUP1 PUSH1 0x20 ADD DUP5 DUP2 MSTORE PUSH1 0x20 ADD DUP1 PUSH1 0x20 ADD DUP4 DUP2 SUB DUP4 MSTORE DUP7 DUP2 DUP2 MLOAD DUP2 MSTORE PUSH1 0x20 ADD SWAP2 POP DUP1 MLOAD SWAP1 PUSH1 0x20 ADD SWAP1 DUP1 DUP4 DUP4 PUSH1 0x0 JUMPDEST DUP4 DUP2 LT ISZERO PUSH2 0x586 JUMPI DUP2 DUP2 ADD MLOAD DUP4 DUP3 ADD MSTORE PUSH1 0x20 ADD PUSH2 0x56E JUMP JUMPDEST POP POP POP POP SWAP1 POP SWAP1 DUP2 ADD SWAP1 PUSH1 0x1F AND DUP1 ISZERO PUSH2 0x5B3 JUMPI DUP1 DUP3 SUB DUP1 MLOAD PUSH1 0x1 DUP4 PUSH1 0x20 SUB PUSH2 0x100 EXP SUB NOT AND DUP2 MSTORE PUSH1 0x20 ADD SWAP2 POP JUMPDEST POP DUP4 DUP2 SUB DUP3 MSTORE DUP5 MLOAD DUP2 MSTORE DUP5 MLOAD PUSH1 0x20 SWAP2 DUP3 ADD SWAP2 DUP7 ADD SWAP1 DUP1 DUP4 DUP4 PUSH1 0x0 JUMPDEST DUP4 DUP2 LT ISZERO PUSH2 0x5E6 JUMPI DUP2 DUP2 ADD MLOAD DUP4 DUP3 ADD MSTORE PUSH1 0x20 ADD PUSH2 0x5CE JUMP JUMPDEST POP POP POP POP SWAP1 POP SWAP1 DUP2 ADD SWAP1 PUSH1 0x1F AND DUP1 ISZERO PUSH2 0x613 JUMPI DUP1 DUP3 SUB DUP1 MLOAD PUSH1 0x1 DUP4 PUSH1 0x20 SUB PUSH2 0x100 EXP SUB NOT AND DUP2 MSTORE PUSH1 0x20 ADD SWAP2 POP JUMPDEST POP SWAP6 POP POP POP POP POP POP PUSH1 0x40 MLOAD DUP1 SWAP2 SUB SWAP1 LOG1 POP POP JUMP JUMPDEST PUSH1 0x0 SLOAD PUSH1 0x1 PUSH1 0x1 PUSH1 0xA0 SHL SUB AND JUMPDEST SWAP1 JUMP JUMPDEST PUSH1 0x0 PUSH2 0x641 PUSH2 0x627 JUMP JUMPDEST PUSH1 0x1 PUSH1 0x1 PUSH1 0xA0 SHL SUB AND CALLER PUSH1 0x1 PUSH1 0x1 PUSH1 0xA0 SHL SUB AND EQ PUSH2 0x690 JUMPI PUSH1 0x40 MLOAD PUSH3 0x461BCD PUSH1 0xE5 SHL DUP2 MSTORE PUSH1 0x4 ADD DUP1 DUP1 PUSH1 0x20 ADD DUP3 DUP2 SUB DUP3 MSTORE PUSH1 0x24 DUP2 MSTORE PUSH1 0x20 ADD DUP1 PUSH2 0xAFF PUSH1 0x24 SWAP2 CODECOPY PUSH1 0x40 ADD SWAP2 POP POP PUSH1 0x40 MLOAD DUP1 SWAP2 SUB SWAP1 REVERT JUMPDEST PUSH2 0x699 DUP3 PUSH2 0x7B3 JUMP JUMPDEST SWAP3 SWAP2 POP POP JUMP JUMPDEST PUSH1 0x40 DUP1 MLOAD PUSH1 0x20 DUP2 ADD SWAP1 SWAP2 MSTORE PUSH1 0x0 DUP1 DUP3 MSTORE SWAP1 SWAP12 POP SWAP12 SWAP10 POP POP POP POP POP POP POP POP POP POP JUMP JUMPDEST PUSH2 0x6C9 DUP2 PUSH2 0x7B9 JUMP JUMPDEST POP JUMP JUMPDEST PUSH1 0x40 DUP1 MLOAD DUP1 DUP3 ADD SWAP1 SWAP2 MSTORE PUSH1 0x5 DUP2 MSTORE PUSH5 0x312E302E3 PUSH1 0xDC SHL PUSH1 0x20 DUP3 ADD MSTORE SWAP1 JUMP JUMPDEST PUSH2 0x6F5 DUP3 DUP3 PUSH2 0x8B9 JUMP JUMPDEST POP POP JUMP JUMPDEST PUSH32 0xD6558C3ED910D959271054471FD1C326679D9FECE99C5091B00ED89627CF2BFC PUSH2 0x722 PUSH2 0x925 JUMP JUMPDEST PUSH1 0x40 DUP1 MLOAD PUSH1 0x1 PUSH1 0x1 PUSH1 0xA0 SHL SUB SWAP1 SWAP3 AND DUP3 MSTORE MLOAD SWAP1 DUP2 SWAP1 SUB PUSH1 0x20 ADD SWAP1 LOG1 JUMP JUMPDEST PUSH2 0x747 PUSH2 0x627 JUMP JUMPDEST PUSH1 0x1 PUSH1 0x1 PUSH1 0xA0 SHL SUB AND CALLER PUSH1 0x1 PUSH1 0x1 PUSH1 0xA0 SHL SUB AND EQ PUSH2 0x796 JUMPI PUSH1 0x40 MLOAD PUSH3 0x461BCD PUSH1 0xE5 SHL DUP2 MSTORE PUSH1 0x4 ADD DUP1 DUP1 PUSH1 0x20 ADD DUP3 DUP2 SUB DUP3 MSTORE PUSH1 0x24 DUP2 MSTORE PUSH1 0x20 ADD DUP1 PUSH2 0xAFF PUSH1 0x24 SWAP2 CODECOPY PUSH1 0x40 ADD SWAP2 POP POP PUSH1 0x40 MLOAD DUP1 SWAP2 SUB SWAP1 REVERT JUMPDEST PUSH2 0x79E DUP5 DUP5 DUP5 DUP5 JUMPDEST POP POP POP POP JUMP JUMPDEST PUSH1 0x60 PUSH2 0x7AE PUSH2 0x92F JUMP JUMPDEST SWAP1 POP SWAP1 JUMP JUMPDEST POP PUSH1 0x0 SWAP1 JUMP JUMPDEST PUSH1 0x0 SLOAD PUSH1 0x1 PUSH1 0x1 PUSH1 0xA0 SHL SUB SWAP1 DUP2 AND SWAP1 DUP3 AND PUSH2 0x805 JUMPI PUSH1 0x40 MLOAD PUSH3 0x461BCD PUSH1 0xE5 SHL DUP2 MSTORE PUSH1 0x4 ADD DUP1 DUP1 PUSH1 0x20 ADD DUP3 DUP2 SUB DUP3 MSTORE PUSH1 0x2E DUP2 MSTORE PUSH1 0x20 ADD DUP1 PUSH2 0xAA4 PUSH1 0x2E SWAP2 CODECOPY PUSH1 0x40 ADD SWAP2 POP POP PUSH1 0x40 MLOAD DUP1 SWAP2 SUB SWAP1 REVERT JUMPDEST DUP1 PUSH1 0x1 PUSH1 0x1 PUSH1 0xA0 SHL SUB AND DUP3 PUSH1 0x1 PUSH1 0x1 PUSH1 0xA0 SHL SUB AND EQ ISZERO PUSH2 0x856 JUMPI PUSH1 0x40 MLOAD PUSH3 0x461BCD PUSH1 0xE5 SHL DUP2 MSTORE PUSH1 0x4 ADD DUP1 DUP1 PUSH1 0x20 ADD DUP3 DUP2 SUB DUP3 MSTORE PUSH1 0x2D DUP2 MSTORE PUSH1 0x20 ADD DUP1 PUSH2 0xAD2 PUSH1 0x2D SWAP2 CODECOPY PUSH1 0x40 ADD SWAP2 POP POP PUSH1 0x40 MLOAD DUP1 SWAP2 SUB SWAP1 REVERT JUMPDEST DUP2 PUSH1 0x1 PUSH1 0x1 PUSH1 0xA0 SHL SUB AND DUP2 PUSH1 0x1 PUSH1 0x1 PUSH1 0xA0 SHL SUB AND PUSH32 0xB9F84B8E65164B14439AE3620DF0A4D8786D896996C0282B683F9D8C08F046E8 PUSH1 0x40 MLOAD PUSH1 0x40 MLOAD DUP1 SWAP2 SUB SWAP1 LOG3 POP PUSH1 0x0 DUP1 SLOAD PUSH1 0x1 PUSH1 0x1 PUSH1 0xA0 SHL SUB NOT AND PUSH1 0x1 PUSH1 0x1 PUSH1 0xA0 SHL SUB SWAP3 SWAP1 SWAP3 AND SWAP2 SWAP1 SWAP2 OR SWAP1 SSTORE JUMP JUMPDEST PUSH1 0x0 DUP1 SLOAD PUSH1 0x40 DUP1 MLOAD PUSH3 0x7B8A67 PUSH1 0xE1 SHL DUP2 MSTORE PUSH1 0x4 DUP2 ADD DUP7 SWAP1 MSTORE PUSH1 0x1 PUSH1 0x1 PUSH1 0xA0 SHL SUB DUP6 DUP2 AND PUSH1 0x24 DUP4 ADD MSTORE SWAP2 MLOAD SWAP2 SWAP1 SWAP3 AND SWAP3 PUSH3 0xF714CE SWAP3 PUSH1 0x44 DUP1 DUP3 ADD SWAP4 SWAP2 DUP3 SWAP1 SUB ADD DUP2 DUP4 DUP8 DUP1 EXTCODESIZE ISZERO DUP1 ISZERO PUSH2 0x909 JUMPI PUSH1 0x0 DUP1 REVERT JUMPDEST POP GAS CALL ISZERO DUP1 ISZERO PUSH2 0x91D JUMPI RETURNDATASIZE PUSH1 0x0 DUP1 RETURNDATACOPY RETURNDATASIZE PUSH1 0x0 REVERT JUMPDEST POP POP POP POP POP POP JUMP JUMPDEST PUSH1 0x0 PUSH2 0x7AE PUSH2 0x993 JUMP JUMPDEST PUSH1 0x0 SLOAD PUSH1 0x60 SWAP1 PUSH1 0x1 PUSH1 0x1 PUSH1 0xA0 SHL SUB AND CALLER EQ PUSH2 0x984 JUMPI PUSH1 0x0 CALLDATASIZE DUP1 DUP1 PUSH1 0x1F ADD PUSH1 0x20 DUP1 SWAP2 DIV MUL PUSH1 0x20 ADD PUSH1 0x40 MLOAD SWAP1 DUP2 ADD PUSH1 0x40 MSTORE DUP1 SWAP4 SWAP3 SWAP2 SWAP1 DUP2 DUP2 MSTORE PUSH1 0x20 ADD DUP4 DUP4 DUP1 DUP3 DUP5 CALLDATACOPY PUSH1 0x0 SWAP3 ADD SWAP2 SWAP1 SWAP2 MSTORE POP SWAP3 SWAP4 POP PUSH2 0x634 SWAP3 POP POP POP JUMP JUMPDEST PUSH2 0x98C PUSH2 0x9B5 JUMP JUMPDEST SWAP1 POP PUSH2 0x634 JUMP JUMPDEST PUSH1 0x0 DUP1 SLOAD PUSH1 0x1 PUSH1 0x1 PUSH1 0xA0 SHL SUB AND CALLER EQ PUSH2 0x9AD JUMPI POP CALLER PUSH2 0x634 JUMP JUMPDEST PUSH2 0x98C PUSH2 0xA56 JUMP JUMPDEST PUSH1 0x60 PUSH1 0x13 NOT CALLDATASIZE ADD DUP2 DUP2 PUSH8 0xFFFFFFFFFFFFFFFF DUP2 GT DUP1 ISZERO PUSH2 0x9D4 JUMPI PUSH1 0x0 DUP1 REVERT JUMPDEST POP PUSH1 0x40 MLOAD SWAP1 DUP1 DUP3 MSTORE DUP1 PUSH1 0x1F ADD PUSH1 0x1F NOT AND PUSH1 0x20 ADD DUP3 ADD PUSH1 0x40 MSTORE DUP1 ISZERO PUSH2 0x9FF JUMPI PUSH1 0x20 DUP3 ADD DUP2 DUP1 CALLDATASIZE DUP4 CALLDATACOPY ADD SWAP1 POP JUMPDEST POP SWAP1 POP PUSH1 0x0 JUMPDEST DUP3 DUP2 LT ISZERO PUSH2 0xA4F JUMPI PUSH1 0x0 CALLDATASIZE DUP3 DUP2 DUP2 LT PUSH2 0xA1A JUMPI INVALID JUMPDEST SWAP1 POP ADD CALLDATALOAD PUSH1 0xF8 SHR PUSH1 0xF8 SHL DUP3 DUP3 DUP2 MLOAD DUP2 LT PUSH2 0xA30 JUMPI INVALID JUMPDEST PUSH1 0x20 ADD ADD SWAP1 PUSH1 0x1 PUSH1 0x1 PUSH1 0xF8 SHL SUB NOT AND SWAP1 DUP2 PUSH1 0x0 BYTE SWAP1 MSTORE8 POP PUSH1 0x1 ADD PUSH2 0xA05 JUMP JUMPDEST POP SWAP2 POP POP SWAP1 JUMP JUMPDEST PUSH1 0x0 PUSH1 0x60 PUSH1 0x0 CALLDATASIZE DUP1 DUP1 PUSH1 0x1F ADD PUSH1 0x20 DUP1 SWAP2 DIV MUL PUSH1 0x20 ADD PUSH1 0x40 MLOAD SWAP1 DUP2 ADD PUSH1 0x40 MSTORE DUP1 SWAP4 SWAP3 SWAP2 SWAP1 DUP2 DUP2 MSTORE PUSH1 0x20 ADD DUP4 DUP4 DUP1 DUP3 DUP5 CALLDATACOPY PUSH1 0x0 SWAP3 ADD SWAP2 SWAP1 SWAP2 MSTORE POP POP POP POP CALLDATASIZE ADD MLOAD PUSH1 0x1 PUSH1 0x1 PUSH1 0xA0 SHL SUB AND SWAP3 SWAP2 POP POP JUMP INVALID SELFBALANCE MSTORE8 0x4E MSTORE PUSH6 0x63697069656E PUSH21 0x3A206E65772052656C617948756220697320746865 KECCAK256 PUSH27 0x65726F206164647265737347534E526563697069656E743A206E65 PUSH24 0x2052656C6179487562206973207468652063757272656E74 KECCAK256 PUSH16 0x6E6547534E526563697069656E743A20 PUSH4 0x616C6C65 PUSH19 0x206973206E6F742052656C6179487562A26469 PUSH17 0x6673582212208C67E01A430EE66214B5A2 PUSH28 0xB60207381DB85D0F35B1A1CF206A4AD7DB495B0864736F6C63430006 0xC STOP CALLER ",
  "sha1": "b6506829fe9a2b59868b2d091931cb434544632b",
  "source": "pragma solidity ^0.6.0;\n\nimport \"./ContextMock.sol\";\nimport \"../GSN/GSNRecipient.sol\";\n\n// By inheriting from GSNRecipient, Context's internal functions are overridden automatically\ncontract GSNRecipientMock is ContextMock, GSNRecipient {\n    function withdrawDeposits(uint256 amount, address payable payee) public {\n        _withdrawDeposits(amount, payee);\n    }\n\n    function acceptRelayedCall(address, address, bytes calldata, uint256, uint256, uint256, uint256, bytes calldata, uint256)\n        external\n        view\n        override\n        returns (uint256, bytes memory)\n    {\n        return (0, \"\");\n    }\n\n    function _preRelayedCall(bytes memory) internal override returns (bytes32) { }\n\n    function _postRelayedCall(bytes memory, bool, uint256, bytes32) internal override { }\n\n    function upgradeRelayHub(address newRelayHub) public {\n        return _upgradeRelayHub(newRelayHub);\n    }\n\n    function _msgSender() internal override(Context, GSNRecipient) view virtual returns (address payable) {\n        return GSNRecipient._msgSender();\n    }\n\n    function _msgData() internal override(Context, GSNRecipient) view virtual returns (bytes memory) {\n        return GSNRecipient._msgData();\n    }\n}\n",
  "sourcePath": "contracts/openzeppelin/contracts/mocks/GSNRecipientMock.sol",
  "type": "contract"
}