{
  "abi": [
    {
      "inputs": [
        {
          "internalType": "contract IVaultchef",
          "name": "_vaultChef",
          "type": "address"
        },
        {
          "internalType": "contract ISettings",
          "name": "_settings",
          "type": "address"
        },
        {
          "components": [
            {
              "internalType": "address",
              "name": "token",
              "type": "address"
            },
            {
              "internalType": "uint256",
              "name": "poolId",
              "type": "uint256"
            }
          ],
          "internalType": "struct PolycatStrategy.Pools[]",
          "name": "_pools",
          "type": "tuple[]"
        }
      ],
      "stateMutability": "nonpayable",
      "type": "constructor"
    },
    {
      "anonymous": false,
      "inputs": [
        {
          "indexed": true,
          "internalType": "address",
          "name": "previousOwner",
          "type": "address"
        },
        {
          "indexed": true,
          "internalType": "address",
          "name": "newOwner",
          "type": "address"
        }
      ],
      "name": "OwnershipTransferred",
      "type": "event"
    },
    {
      "inputs": [],
      "name": "Settings",
      "outputs": [
        {
          "internalType": "contract ISettings",
          "name": "",
          "type": "address"
        }
      ],
      "stateMutability": "view",
      "type": "function"
    },
    {
      "inputs": [],
      "name": "VaultChef",
      "outputs": [
        {
          "internalType": "contract IVaultchef",
          "name": "",
          "type": "address"
        }
      ],
      "stateMutability": "view",
      "type": "function"
    },
    {
      "inputs": [
        {
          "components": [
            {
              "internalType": "address",
              "name": "token",
              "type": "address"
            },
            {
              "internalType": "uint256",
              "name": "poolId",
              "type": "uint256"
            }
          ],
          "internalType": "struct PolycatStrategy.Pools",
          "name": "_pool",
          "type": "tuple"
        }
      ],
      "name": "addPool",
      "outputs": [],
      "stateMutability": "nonpayable",
      "type": "function"
    },
    {
      "inputs": [],
      "name": "claimRewards",
      "outputs": [],
      "stateMutability": "nonpayable",
      "type": "function"
    },
    {
      "inputs": [
        {
          "internalType": "address",
          "name": "_from",
          "type": "address"
        },
        {
          "internalType": "address",
          "name": "_token",
          "type": "address"
        },
        {
          "internalType": "uint256",
          "name": "_amount",
          "type": "uint256"
        }
      ],
      "name": "deposit",
      "outputs": [],
      "stateMutability": "nonpayable",
      "type": "function"
    },
    {
      "inputs": [],
      "name": "owner",
      "outputs": [
        {
          "internalType": "address",
          "name": "",
          "type": "address"
        }
      ],
      "stateMutability": "view",
      "type": "function"
    },
    {
      "inputs": [
        {
          "internalType": "address",
          "name": "",
          "type": "address"
        }
      ],
      "name": "poolIds",
      "outputs": [
        {
          "internalType": "uint256",
          "name": "",
          "type": "uint256"
        }
      ],
      "stateMutability": "view",
      "type": "function"
    },
    {
      "inputs": [],
      "name": "renounceOwnership",
      "outputs": [],
      "stateMutability": "nonpayable",
      "type": "function"
    },
    {
      "inputs": [
        {
          "internalType": "uint256",
          "name": "",
          "type": "uint256"
        }
      ],
      "name": "tokens",
      "outputs": [
        {
          "internalType": "address",
          "name": "",
          "type": "address"
        }
      ],
      "stateMutability": "view",
      "type": "function"
    },
    {
      "inputs": [
        {
          "internalType": "address",
          "name": "",
          "type": "address"
        }
      ],
      "name": "totalDeposits",
      "outputs": [
        {
          "internalType": "uint256",
          "name": "",
          "type": "uint256"
        }
      ],
      "stateMutability": "view",
      "type": "function"
    },
    {
      "inputs": [
        {
          "internalType": "address",
          "name": "newOwner",
          "type": "address"
        }
      ],
      "name": "transferOwnership",
      "outputs": [],
      "stateMutability": "nonpayable",
      "type": "function"
    },
    {
      "inputs": [
        {
          "internalType": "address",
          "name": "",
          "type": "address"
        }
      ],
      "name": "vaultDeposits",
      "outputs": [
        {
          "internalType": "uint256",
          "name": "",
          "type": "uint256"
        }
      ],
      "stateMutability": "view",
      "type": "function"
    },
    {
      "inputs": [
        {
          "internalType": "address",
          "name": "_from",
          "type": "address"
        },
        {
          "internalType": "address",
          "name": "_token",
          "type": "address"
        },
        {
          "internalType": "uint256",
          "name": "_amount",
          "type": "uint256"
        }
      ],
      "name": "withdraw",
      "outputs": [],
      "stateMutability": "nonpayable",
      "type": "function"
    }
  ],
  "bytecode": "60806040523480156200001157600080fd5b5060405162001265380380620012658339810160408190526200003491620001f7565b6000620000406200011c565b600080546001600160a01b0319166001600160a01b0383169081178255604051929350917f8be0079c531659141344cd1fd0a4f28419497f9722a3daafe3b4186f6b6457e0908290a350600180546001600160a01b038086166001600160a01b031992831617909255600280549285169290911691909117905560005b8151811015620001125762000109828281518110620000d857fe5b602002602001015160000151838381518110620000f157fe5b6020026020010151602001516200012060201b60201c565b600101620000bd565b505050506200031c565b3390565b6001600160a01b0382166000908152600560209081526040808320849055600490915290205460ff16620001b2576003805460018082019092557fc2575a0e9e593c00f959f8c92f12db2869c3395a3b0502d05e2516446f71f85b0180546001600160a01b0319166001600160a01b0385169081179091556000908152600460205260409020805460ff191690911790555b5050565b600060408284031215620001c8578081fd5b620001d46040620002dc565b90508151620001e38162000303565b808252506020820151602082015292915050565b6000806000606084860312156200020c578283fd5b8351620002198162000303565b809350506020808501516200022e8162000303565b604086810151919450906001600160401b03808211156200024d578485fd5b818801915088601f83011262000261578485fd5b81518181111562000270578586fd5b6200027f8586830201620002dc565b8181528581019250838601858302850187018c10156200029d578788fd5b8794505b82851015620002cb57620002b68c82620001b6565b845260019490940193928601928501620002a1565b508096505050505050509250925092565b6040518181016001600160401b0381118282101715620002fb57600080fd5b604052919050565b6001600160a01b03811681146200031957600080fd5b50565b610f39806200032c6000396000f3fe608060405234801561001057600080fd5b50600436106100ce5760003560e01c80638340f5491161008c578063d9caed1211610066578063d9caed1214610177578063decf3f471461018a578063e940325614610192578063f2fde38b146101a5576100ce565b80638340f549146101495780638da5cb5b1461015c578063d4175be214610164576100ce565b8062ed7c0c146100d357806328b9a81b146100e8578063372500ab146101065780634f64b2be1461010e5780635293a8ae14610121578063715018a614610141575b600080fd5b6100e66100e1366004610c59565b6101b8565b005b6100f061020b565b6040516100fd9190610cc4565b60405180910390f35b6100e661021a565b6100f061011c366004610cac565b61037b565b61013461012f366004610bc1565b6103a2565b6040516100fd9190610ec0565b6100e66103b4565b6100e6610157366004610bf9565b610433565b6100f06106e9565b610134610172366004610bc1565b6106f8565b6100e6610185366004610bf9565b61070a565b6100f06109bc565b6101346101a0366004610bc1565b6109cb565b6100e66101b3366004610bc1565b6109dd565b6101c0610a93565b6000546001600160a01b039081169116146101f65760405162461bcd60e51b81526004016101ed90610e8b565b60405180910390fd5b61020881600001518260200151610a97565b50565b6002546001600160a01b031681565b610222610a93565b6000546001600160a01b0390811691161461024f5760405162461bcd60e51b81526004016101ed90610e8b565b60005b60035481101561020857600154600380546001600160a01b03909216916318fccc7691600591600091908690811061028657fe5b60009182526020808320909101546001600160a01b039081168452838201949094526040928301909120546002548351630824ea6b60e31b81529351919416926341275358926004808301939192829003018186803b1580156102e857600080fd5b505afa1580156102fc573d6000803e3d6000fd5b505050506040513d601f19601f820116820180604052508101906103209190610bdd565b6040518363ffffffff1660e01b815260040161033d929190610ec9565b600060405180830381600087803b15801561035757600080fd5b505af115801561036b573d6000803e3d6000fd5b5050600190920191506102529050565b6003818154811061038857fe5b6000918252602090912001546001600160a01b0316905081565b60076020526000908152604090205481565b6103bc610a93565b6000546001600160a01b039081169116146103e95760405162461bcd60e51b81526004016101ed90610e8b565b600080546040516001600160a01b03909116907f8be0079c531659141344cd1fd0a4f28419497f9722a3daafe3b4186f6b6457e0908390a3600080546001600160a01b0319169055565b60025460405163f815c03d60e01b81526001600160a01b039091169063f815c03d90610463903390600401610cc4565b60206040518083038186803b15801561047b57600080fd5b505afa15801561048f573d6000803e3d6000fd5b505050506040513d601f19601f820116820180604052508101906104b39190610c39565b6104cf5760405162461bcd60e51b81526004016101ed90610e42565b6001600160a01b0382166000908152600560205260409020546104f157600080fd5b80156106e4576040516323b872dd60e01b81526001600160a01b038316906323b872dd9061052790869030908690600401610cd8565b602060405180830381600087803b15801561054157600080fd5b505af1158015610555573d6000803e3d6000fd5b505050506040513d601f19601f820116820180604052508101906105799190610c39565b5060015460405163095ea7b360e01b81526001600160a01b038481169263095ea7b3926105ae92909116908590600401610cfc565b602060405180830381600087803b1580156105c857600080fd5b505af11580156105dc573d6000803e3d6000fd5b505050506040513d601f19601f820116820180604052508101906106009190610c39565b506001546001600160a01b0383811660009081526005602052604090819020549051631c57762b60e31b8152919092169163e2bbb1589161064691908590600401610ee0565b600060405180830381600087803b15801561066057600080fd5b505af1158015610674573d6000803e3d6000fd5b5050506001600160a01b03831660009081526006602052604090205461069b915082610b2c565b6001600160a01b0383166000908152600660209081526040808320939093556007905220546106ca9082610b2c565b6001600160a01b0383166000908152600760205260409020555b505050565b6000546001600160a01b031690565b60056020526000908152604090205481565b60025460405163f815c03d60e01b81526001600160a01b039091169063f815c03d9061073a903390600401610cc4565b60206040518083038186803b15801561075257600080fd5b505afa158015610766573d6000803e3d6000fd5b505050506040513d601f19601f8201168201806040525081019061078a9190610c39565b6107a65760405162461bcd60e51b81526004016101ed90610e42565b6001600160a01b0382166000908152600560205260409020546107c857600080fd5b6001600160a01b0382166000908152600760205260409020548111156108005760405162461bcd60e51b81526004016101ed90610de5565b6001546001600160a01b03838116600090815260056020908152604091829020546002548351630824ea6b60e31b81529351958516956318fccc769592949190921692634127535892600480840193829003018186803b15801561086357600080fd5b505afa158015610877573d6000803e3d6000fd5b505050506040513d601f19601f8201168201806040525081019061089b9190610bdd565b6040518363ffffffff1660e01b81526004016108b8929190610ec9565b600060405180830381600087803b1580156108d257600080fd5b505af11580156108e6573d6000803e3d6000fd5b5050505060008111156106e4576001546001600160a01b0383811660009081526005602052604090819020549051630441a3e760e41b8152919092169163441a3e709161093891908590600401610ee0565b600060405180830381600087803b15801561095257600080fd5b505af1158015610966573d6000803e3d6000fd5b5050506001600160a01b03831660009081526006602052604090205461098d915082610b58565b6001600160a01b0383166000908152600660209081526040808320939093556007905220546106ca9082610b58565b6001546001600160a01b031681565b60066020526000908152604090205481565b6109e5610a93565b6000546001600160a01b03908116911614610a125760405162461bcd60e51b81526004016101ed90610e8b565b6001600160a01b038116610a385760405162461bcd60e51b81526004016101ed90610d68565b600080546040516001600160a01b03808516939216917f8be0079c531659141344cd1fd0a4f28419497f9722a3daafe3b4186f6b6457e091a3600080546001600160a01b0319166001600160a01b0392909216919091179055565b3390565b6001600160a01b0382166000908152600560209081526040808320849055600490915290205460ff16610b28576003805460018082019092557fc2575a0e9e593c00f959f8c92f12db2869c3395a3b0502d05e2516446f71f85b0180546001600160a01b0319166001600160a01b0385169081179091556000908152600460205260409020805460ff191690911790555b5050565b600082820183811015610b515760405162461bcd60e51b81526004016101ed90610dae565b9392505050565b6000610b5183836040518060400160405280601e81526020017f536166654d6174683a207375627472616374696f6e206f766572666c6f77000081525060008184841115610bb95760405162461bcd60e51b81526004016101ed9190610d15565b505050900390565b600060208284031215610bd2578081fd5b8135610b5181610eee565b600060208284031215610bee578081fd5b8151610b5181610eee565b600080600060608486031215610c0d578182fd5b8335610c1881610eee565b92506020840135610c2881610eee565b929592945050506040919091013590565b600060208284031215610c4a578081fd5b81518015158114610b51578182fd5b600060408284031215610c6a578081fd5b6040516040810181811067ffffffffffffffff82111715610c89578283fd5b6040528235610c9781610eee565b81526020928301359281019290925250919050565b600060208284031215610cbd578081fd5b5035919050565b6001600160a01b0391909116815260200190565b6001600160a01b039384168152919092166020820152604081019190915260600190565b6001600160a01b03929092168252602082015260400190565b6000602080835283518082850152825b81811015610d4157858101830151858201604001528201610d25565b81811115610d525783604083870101525b50601f01601f1916929092016040019392505050565b60208082526026908201527f4f776e61626c653a206e6577206f776e657220697320746865207a65726f206160408201526564647265737360d01b606082015260800190565b6020808252601b908201527f536166654d6174683a206164646974696f6e206f766572666c6f770000000000604082015260600190565b60208082526037908201527f436f726e466920506f6c796361742053747261746567793a205661756c74205760408201527f6974686472617720416d6f756e74204578636565646564000000000000000000606082015260800190565b60208082526029908201527f436f726e466920414156452053747261746567793a205661756c74204f6e6c7960408201526810233ab731ba34b7b760b91b606082015260800190565b6020808252818101527f4f776e61626c653a2063616c6c6572206973206e6f7420746865206f776e6572604082015260600190565b90815260200190565b9182526001600160a01b0316602082015260400190565b918252602082015260400190565b6001600160a01b038116811461020857600080fdfea2646970667358221220c89fac0a167674fb2fa18f97453c08b5f50333d4ba5ec38c26967279307fd42c64736f6c634300060c0033",
  "bytecodeSha1": "42e7224f0e34b7ca809d7d94b3442a7412c28dc2",
  "compiler": {
    "evm_version": "istanbul",
    "optimizer": {
      "enabled": true,
      "runs": 200
    },
    "version": "0.6.12+commit.27d51765"
  },
  "contractName": "PolycatStrategy",
  "language": "Solidity",
  "natspec": {
    "kind": "dev",
    "methods": {
      "owner()": {
        "details": "Returns the address of the current owner."
      },
      "renounceOwnership()": {
        "details": "Leaves the contract without owner. It will not be possible to call `onlyOwner` functions anymore. Can only be called by the current owner. NOTE: Renouncing ownership will leave the contract without an owner, thereby removing any functionality that is only available to the owner."
      },
      "transferOwnership(address)": {
        "details": "Transfers ownership of the contract to a new account (`newOwner`). Can only be called by the current owner."
      }
    },
    "version": 1
  },
  "opcodes": "PUSH1 0x80 PUSH1 0x40 MSTORE CALLVALUE DUP1 ISZERO PUSH2 0x10 JUMPI PUSH1 0x0 DUP1 REVERT JUMPDEST POP PUSH1 0x4 CALLDATASIZE LT PUSH2 0xCE JUMPI PUSH1 0x0 CALLDATALOAD PUSH1 0xE0 SHR DUP1 PUSH4 0x8340F549 GT PUSH2 0x8C JUMPI DUP1 PUSH4 0xD9CAED12 GT PUSH2 0x66 JUMPI DUP1 PUSH4 0xD9CAED12 EQ PUSH2 0x177 JUMPI DUP1 PUSH4 0xDECF3F47 EQ PUSH2 0x18A JUMPI DUP1 PUSH4 0xE9403256 EQ PUSH2 0x192 JUMPI DUP1 PUSH4 0xF2FDE38B EQ PUSH2 0x1A5 JUMPI PUSH2 0xCE JUMP JUMPDEST DUP1 PUSH4 0x8340F549 EQ PUSH2 0x149 JUMPI DUP1 PUSH4 0x8DA5CB5B EQ PUSH2 0x15C JUMPI DUP1 PUSH4 0xD4175BE2 EQ PUSH2 0x164 JUMPI PUSH2 0xCE JUMP JUMPDEST DUP1 PUSH3 0xED7C0C EQ PUSH2 0xD3 JUMPI DUP1 PUSH4 0x28B9A81B EQ PUSH2 0xE8 JUMPI DUP1 PUSH4 0x372500AB EQ PUSH2 0x106 JUMPI DUP1 PUSH4 0x4F64B2BE EQ PUSH2 0x10E JUMPI DUP1 PUSH4 0x5293A8AE EQ PUSH2 0x121 JUMPI DUP1 PUSH4 0x715018A6 EQ PUSH2 0x141 JUMPI JUMPDEST PUSH1 0x0 DUP1 REVERT JUMPDEST PUSH2 0xE6 PUSH2 0xE1 CALLDATASIZE PUSH1 0x4 PUSH2 0xC59 JUMP JUMPDEST PUSH2 0x1B8 JUMP JUMPDEST STOP JUMPDEST PUSH2 0xF0 PUSH2 0x20B JUMP JUMPDEST PUSH1 0x40 MLOAD PUSH2 0xFD SWAP2 SWAP1 PUSH2 0xCC4 JUMP JUMPDEST PUSH1 0x40 MLOAD DUP1 SWAP2 SUB SWAP1 RETURN JUMPDEST PUSH2 0xE6 PUSH2 0x21A JUMP JUMPDEST PUSH2 0xF0 PUSH2 0x11C CALLDATASIZE PUSH1 0x4 PUSH2 0xCAC JUMP JUMPDEST PUSH2 0x37B JUMP JUMPDEST PUSH2 0x134 PUSH2 0x12F CALLDATASIZE PUSH1 0x4 PUSH2 0xBC1 JUMP JUMPDEST PUSH2 0x3A2 JUMP JUMPDEST PUSH1 0x40 MLOAD PUSH2 0xFD SWAP2 SWAP1 PUSH2 0xEC0 JUMP JUMPDEST PUSH2 0xE6 PUSH2 0x3B4 JUMP JUMPDEST PUSH2 0xE6 PUSH2 0x157 CALLDATASIZE PUSH1 0x4 PUSH2 0xBF9 JUMP JUMPDEST PUSH2 0x433 JUMP JUMPDEST PUSH2 0xF0 PUSH2 0x6E9 JUMP JUMPDEST PUSH2 0x134 PUSH2 0x172 CALLDATASIZE PUSH1 0x4 PUSH2 0xBC1 JUMP JUMPDEST PUSH2 0x6F8 JUMP JUMPDEST PUSH2 0xE6 PUSH2 0x185 CALLDATASIZE PUSH1 0x4 PUSH2 0xBF9 JUMP JUMPDEST PUSH2 0x70A JUMP JUMPDEST PUSH2 0xF0 PUSH2 0x9BC JUMP JUMPDEST PUSH2 0x134 PUSH2 0x1A0 CALLDATASIZE PUSH1 0x4 PUSH2 0xBC1 JUMP JUMPDEST PUSH2 0x9CB JUMP JUMPDEST PUSH2 0xE6 PUSH2 0x1B3 CALLDATASIZE PUSH1 0x4 PUSH2 0xBC1 JUMP JUMPDEST PUSH2 0x9DD JUMP JUMPDEST PUSH2 0x1C0 PUSH2 0xA93 JUMP JUMPDEST PUSH1 0x0 SLOAD PUSH1 0x1 PUSH1 0x1 PUSH1 0xA0 SHL SUB SWAP1 DUP2 AND SWAP2 AND EQ PUSH2 0x1F6 JUMPI PUSH1 0x40 MLOAD PUSH3 0x461BCD PUSH1 0xE5 SHL DUP2 MSTORE PUSH1 0x4 ADD PUSH2 0x1ED SWAP1 PUSH2 0xE8B JUMP JUMPDEST PUSH1 0x40 MLOAD DUP1 SWAP2 SUB SWAP1 REVERT JUMPDEST PUSH2 0x208 DUP2 PUSH1 0x0 ADD MLOAD DUP3 PUSH1 0x20 ADD MLOAD PUSH2 0xA97 JUMP JUMPDEST POP JUMP JUMPDEST PUSH1 0x2 SLOAD PUSH1 0x1 PUSH1 0x1 PUSH1 0xA0 SHL SUB AND DUP2 JUMP JUMPDEST PUSH2 0x222 PUSH2 0xA93 JUMP JUMPDEST PUSH1 0x0 SLOAD PUSH1 0x1 PUSH1 0x1 PUSH1 0xA0 SHL SUB SWAP1 DUP2 AND SWAP2 AND EQ PUSH2 0x24F JUMPI PUSH1 0x40 MLOAD PUSH3 0x461BCD PUSH1 0xE5 SHL DUP2 MSTORE PUSH1 0x4 ADD PUSH2 0x1ED SWAP1 PUSH2 0xE8B JUMP JUMPDEST PUSH1 0x0 JUMPDEST PUSH1 0x3 SLOAD DUP2 LT ISZERO PUSH2 0x208 JUMPI PUSH1 0x1 SLOAD PUSH1 0x3 DUP1 SLOAD PUSH1 0x1 PUSH1 0x1 PUSH1 0xA0 SHL SUB SWAP1 SWAP3 AND SWAP2 PUSH4 0x18FCCC76 SWAP2 PUSH1 0x5 SWAP2 PUSH1 0x0 SWAP2 SWAP1 DUP7 SWAP1 DUP2 LT PUSH2 0x286 JUMPI INVALID JUMPDEST PUSH1 0x0 SWAP2 DUP3 MSTORE PUSH1 0x20 DUP1 DUP4 KECCAK256 SWAP1 SWAP2 ADD SLOAD PUSH1 0x1 PUSH1 0x1 PUSH1 0xA0 SHL SUB SWAP1 DUP2 AND DUP5 MSTORE DUP4 DUP3 ADD SWAP5 SWAP1 SWAP5 MSTORE PUSH1 0x40 SWAP3 DUP4 ADD SWAP1 SWAP2 KECCAK256 SLOAD PUSH1 0x2 SLOAD DUP4 MLOAD PUSH4 0x824EA6B PUSH1 0xE3 SHL DUP2 MSTORE SWAP4 MLOAD SWAP2 SWAP5 AND SWAP3 PUSH4 0x41275358 SWAP3 PUSH1 0x4 DUP1 DUP4 ADD SWAP4 SWAP2 SWAP3 DUP3 SWAP1 SUB ADD DUP2 DUP7 DUP1 EXTCODESIZE ISZERO DUP1 ISZERO PUSH2 0x2E8 JUMPI PUSH1 0x0 DUP1 REVERT JUMPDEST POP GAS STATICCALL ISZERO DUP1 ISZERO PUSH2 0x2FC JUMPI RETURNDATASIZE PUSH1 0x0 DUP1 RETURNDATACOPY RETURNDATASIZE PUSH1 0x0 REVERT JUMPDEST POP POP POP POP PUSH1 0x40 MLOAD RETURNDATASIZE PUSH1 0x1F NOT PUSH1 0x1F DUP3 ADD AND DUP3 ADD DUP1 PUSH1 0x40 MSTORE POP DUP2 ADD SWAP1 PUSH2 0x320 SWAP2 SWAP1 PUSH2 0xBDD JUMP JUMPDEST PUSH1 0x40 MLOAD DUP4 PUSH4 0xFFFFFFFF AND PUSH1 0xE0 SHL DUP2 MSTORE PUSH1 0x4 ADD PUSH2 0x33D SWAP3 SWAP2 SWAP1 PUSH2 0xEC9 JUMP JUMPDEST PUSH1 0x0 PUSH1 0x40 MLOAD DUP1 DUP4 SUB DUP2 PUSH1 0x0 DUP8 DUP1 EXTCODESIZE ISZERO DUP1 ISZERO PUSH2 0x357 JUMPI PUSH1 0x0 DUP1 REVERT JUMPDEST POP GAS CALL ISZERO DUP1 ISZERO PUSH2 0x36B JUMPI RETURNDATASIZE PUSH1 0x0 DUP1 RETURNDATACOPY RETURNDATASIZE PUSH1 0x0 REVERT JUMPDEST POP POP PUSH1 0x1 SWAP1 SWAP3 ADD SWAP2 POP PUSH2 0x252 SWAP1 POP JUMP JUMPDEST PUSH1 0x3 DUP2 DUP2 SLOAD DUP2 LT PUSH2 0x388 JUMPI INVALID JUMPDEST PUSH1 0x0 SWAP2 DUP3 MSTORE PUSH1 0x20 SWAP1 SWAP2 KECCAK256 ADD SLOAD PUSH1 0x1 PUSH1 0x1 PUSH1 0xA0 SHL SUB AND SWAP1 POP DUP2 JUMP JUMPDEST PUSH1 0x7 PUSH1 0x20 MSTORE PUSH1 0x0 SWAP1 DUP2 MSTORE PUSH1 0x40 SWAP1 KECCAK256 SLOAD DUP2 JUMP JUMPDEST PUSH2 0x3BC PUSH2 0xA93 JUMP JUMPDEST PUSH1 0x0 SLOAD PUSH1 0x1 PUSH1 0x1 PUSH1 0xA0 SHL SUB SWAP1 DUP2 AND SWAP2 AND EQ PUSH2 0x3E9 JUMPI PUSH1 0x40 MLOAD PUSH3 0x461BCD PUSH1 0xE5 SHL DUP2 MSTORE PUSH1 0x4 ADD PUSH2 0x1ED SWAP1 PUSH2 0xE8B JUMP JUMPDEST PUSH1 0x0 DUP1 SLOAD PUSH1 0x40 MLOAD PUSH1 0x1 PUSH1 0x1 PUSH1 0xA0 SHL SUB SWAP1 SWAP2 AND SWAP1 PUSH32 0x8BE0079C531659141344CD1FD0A4F28419497F9722A3DAAFE3B4186F6B6457E0 SWAP1 DUP4 SWAP1 LOG3 PUSH1 0x0 DUP1 SLOAD PUSH1 0x1 PUSH1 0x1 PUSH1 0xA0 SHL SUB NOT AND SWAP1 SSTORE JUMP JUMPDEST PUSH1 0x2 SLOAD PUSH1 0x40 MLOAD PUSH4 0xF815C03D PUSH1 0xE0 SHL DUP2 MSTORE PUSH1 0x1 PUSH1 0x1 PUSH1 0xA0 SHL SUB SWAP1 SWAP2 AND SWAP1 PUSH4 0xF815C03D SWAP1 PUSH2 0x463 SWAP1 CALLER SWAP1 PUSH1 0x4 ADD PUSH2 0xCC4 JUMP JUMPDEST PUSH1 0x20 PUSH1 0x40 MLOAD DUP1 DUP4 SUB DUP2 DUP7 DUP1 EXTCODESIZE ISZERO DUP1 ISZERO PUSH2 0x47B JUMPI PUSH1 0x0 DUP1 REVERT JUMPDEST POP GAS STATICCALL ISZERO DUP1 ISZERO PUSH2 0x48F JUMPI RETURNDATASIZE PUSH1 0x0 DUP1 RETURNDATACOPY RETURNDATASIZE PUSH1 0x0 REVERT JUMPDEST POP POP POP POP PUSH1 0x40 MLOAD RETURNDATASIZE PUSH1 0x1F NOT PUSH1 0x1F DUP3 ADD AND DUP3 ADD DUP1 PUSH1 0x40 MSTORE POP DUP2 ADD SWAP1 PUSH2 0x4B3 SWAP2 SWAP1 PUSH2 0xC39 JUMP JUMPDEST PUSH2 0x4CF JUMPI PUSH1 0x40 MLOAD PUSH3 0x461BCD PUSH1 0xE5 SHL DUP2 MSTORE PUSH1 0x4 ADD PUSH2 0x1ED SWAP1 PUSH2 0xE42 JUMP JUMPDEST PUSH1 0x1 PUSH1 0x1 PUSH1 0xA0 SHL SUB DUP3 AND PUSH1 0x0 SWAP1 DUP2 MSTORE PUSH1 0x5 PUSH1 0x20 MSTORE PUSH1 0x40 SWAP1 KECCAK256 SLOAD PUSH2 0x4F1 JUMPI PUSH1 0x0 DUP1 REVERT JUMPDEST DUP1 ISZERO PUSH2 0x6E4 JUMPI PUSH1 0x40 MLOAD PUSH4 0x23B872DD PUSH1 0xE0 SHL DUP2 MSTORE PUSH1 0x1 PUSH1 0x1 PUSH1 0xA0 SHL SUB DUP4 AND SWAP1 PUSH4 0x23B872DD SWAP1 PUSH2 0x527 SWAP1 DUP7 SWAP1 ADDRESS SWAP1 DUP7 SWAP1 PUSH1 0x4 ADD PUSH2 0xCD8 JUMP JUMPDEST PUSH1 0x20 PUSH1 0x40 MLOAD DUP1 DUP4 SUB DUP2 PUSH1 0x0 DUP8 DUP1 EXTCODESIZE ISZERO DUP1 ISZERO PUSH2 0x541 JUMPI PUSH1 0x0 DUP1 REVERT JUMPDEST POP GAS CALL ISZERO DUP1 ISZERO PUSH2 0x555 JUMPI RETURNDATASIZE PUSH1 0x0 DUP1 RETURNDATACOPY RETURNDATASIZE PUSH1 0x0 REVERT JUMPDEST POP POP POP POP PUSH1 0x40 MLOAD RETURNDATASIZE PUSH1 0x1F NOT PUSH1 0x1F DUP3 ADD AND DUP3 ADD DUP1 PUSH1 0x40 MSTORE POP DUP2 ADD SWAP1 PUSH2 0x579 SWAP2 SWAP1 PUSH2 0xC39 JUMP JUMPDEST POP PUSH1 0x1 SLOAD PUSH1 0x40 MLOAD PUSH4 0x95EA7B3 PUSH1 0xE0 SHL DUP2 MSTORE PUSH1 0x1 PUSH1 0x1 PUSH1 0xA0 SHL SUB DUP5 DUP2 AND SWAP3 PUSH4 0x95EA7B3 SWAP3 PUSH2 0x5AE SWAP3 SWAP1 SWAP2 AND SWAP1 DUP6 SWAP1 PUSH1 0x4 ADD PUSH2 0xCFC JUMP JUMPDEST PUSH1 0x20 PUSH1 0x40 MLOAD DUP1 DUP4 SUB DUP2 PUSH1 0x0 DUP8 DUP1 EXTCODESIZE ISZERO DUP1 ISZERO PUSH2 0x5C8 JUMPI PUSH1 0x0 DUP1 REVERT JUMPDEST POP GAS CALL ISZERO DUP1 ISZERO PUSH2 0x5DC JUMPI RETURNDATASIZE PUSH1 0x0 DUP1 RETURNDATACOPY RETURNDATASIZE PUSH1 0x0 REVERT JUMPDEST POP POP POP POP PUSH1 0x40 MLOAD RETURNDATASIZE PUSH1 0x1F NOT PUSH1 0x1F DUP3 ADD AND DUP3 ADD DUP1 PUSH1 0x40 MSTORE POP DUP2 ADD SWAP1 PUSH2 0x600 SWAP2 SWAP1 PUSH2 0xC39 JUMP JUMPDEST POP PUSH1 0x1 SLOAD PUSH1 0x1 PUSH1 0x1 PUSH1 0xA0 SHL SUB DUP4 DUP2 AND PUSH1 0x0 SWAP1 DUP2 MSTORE PUSH1 0x5 PUSH1 0x20 MSTORE PUSH1 0x40 SWAP1 DUP2 SWAP1 KECCAK256 SLOAD SWAP1 MLOAD PUSH4 0x1C57762B PUSH1 0xE3 SHL DUP2 MSTORE SWAP2 SWAP1 SWAP3 AND SWAP2 PUSH4 0xE2BBB158 SWAP2 PUSH2 0x646 SWAP2 SWAP1 DUP6 SWAP1 PUSH1 0x4 ADD PUSH2 0xEE0 JUMP JUMPDEST PUSH1 0x0 PUSH1 0x40 MLOAD DUP1 DUP4 SUB DUP2 PUSH1 0x0 DUP8 DUP1 EXTCODESIZE ISZERO DUP1 ISZERO PUSH2 0x660 JUMPI PUSH1 0x0 DUP1 REVERT JUMPDEST POP GAS CALL ISZERO DUP1 ISZERO PUSH2 0x674 JUMPI RETURNDATASIZE PUSH1 0x0 DUP1 RETURNDATACOPY RETURNDATASIZE PUSH1 0x0 REVERT JUMPDEST POP POP POP PUSH1 0x1 PUSH1 0x1 PUSH1 0xA0 SHL SUB DUP4 AND PUSH1 0x0 SWAP1 DUP2 MSTORE PUSH1 0x6 PUSH1 0x20 MSTORE PUSH1 0x40 SWAP1 KECCAK256 SLOAD PUSH2 0x69B SWAP2 POP DUP3 PUSH2 0xB2C JUMP JUMPDEST PUSH1 0x1 PUSH1 0x1 PUSH1 0xA0 SHL SUB DUP4 AND PUSH1 0x0 SWAP1 DUP2 MSTORE PUSH1 0x6 PUSH1 0x20 SWAP1 DUP2 MSTORE PUSH1 0x40 DUP1 DUP4 KECCAK256 SWAP4 SWAP1 SWAP4 SSTORE PUSH1 0x7 SWAP1 MSTORE KECCAK256 SLOAD PUSH2 0x6CA SWAP1 DUP3 PUSH2 0xB2C JUMP JUMPDEST PUSH1 0x1 PUSH1 0x1 PUSH1 0xA0 SHL SUB DUP4 AND PUSH1 0x0 SWAP1 DUP2 MSTORE PUSH1 0x7 PUSH1 0x20 MSTORE PUSH1 0x40 SWAP1 KECCAK256 SSTORE JUMPDEST POP POP POP JUMP JUMPDEST PUSH1 0x0 SLOAD PUSH1 0x1 PUSH1 0x1 PUSH1 0xA0 SHL SUB AND SWAP1 JUMP JUMPDEST PUSH1 0x5 PUSH1 0x20 MSTORE PUSH1 0x0 SWAP1 DUP2 MSTORE PUSH1 0x40 SWAP1 KECCAK256 SLOAD DUP2 JUMP JUMPDEST PUSH1 0x2 SLOAD PUSH1 0x40 MLOAD PUSH4 0xF815C03D PUSH1 0xE0 SHL DUP2 MSTORE PUSH1 0x1 PUSH1 0x1 PUSH1 0xA0 SHL SUB SWAP1 SWAP2 AND SWAP1 PUSH4 0xF815C03D SWAP1 PUSH2 0x73A SWAP1 CALLER SWAP1 PUSH1 0x4 ADD PUSH2 0xCC4 JUMP JUMPDEST PUSH1 0x20 PUSH1 0x40 MLOAD DUP1 DUP4 SUB DUP2 DUP7 DUP1 EXTCODESIZE ISZERO DUP1 ISZERO PUSH2 0x752 JUMPI PUSH1 0x0 DUP1 REVERT JUMPDEST POP GAS STATICCALL ISZERO DUP1 ISZERO PUSH2 0x766 JUMPI RETURNDATASIZE PUSH1 0x0 DUP1 RETURNDATACOPY RETURNDATASIZE PUSH1 0x0 REVERT JUMPDEST POP POP POP POP PUSH1 0x40 MLOAD RETURNDATASIZE PUSH1 0x1F NOT PUSH1 0x1F DUP3 ADD AND DUP3 ADD DUP1 PUSH1 0x40 MSTORE POP DUP2 ADD SWAP1 PUSH2 0x78A SWAP2 SWAP1 PUSH2 0xC39 JUMP JUMPDEST PUSH2 0x7A6 JUMPI PUSH1 0x40 MLOAD PUSH3 0x461BCD PUSH1 0xE5 SHL DUP2 MSTORE PUSH1 0x4 ADD PUSH2 0x1ED SWAP1 PUSH2 0xE42 JUMP JUMPDEST PUSH1 0x1 PUSH1 0x1 PUSH1 0xA0 SHL SUB DUP3 AND PUSH1 0x0 SWAP1 DUP2 MSTORE PUSH1 0x5 PUSH1 0x20 MSTORE PUSH1 0x40 SWAP1 KECCAK256 SLOAD PUSH2 0x7C8 JUMPI PUSH1 0x0 DUP1 REVERT JUMPDEST PUSH1 0x1 PUSH1 0x1 PUSH1 0xA0 SHL SUB DUP3 AND PUSH1 0x0 SWAP1 DUP2 MSTORE PUSH1 0x7 PUSH1 0x20 MSTORE PUSH1 0x40 SWAP1 KECCAK256 SLOAD DUP2 GT ISZERO PUSH2 0x800 JUMPI PUSH1 0x40 MLOAD PUSH3 0x461BCD PUSH1 0xE5 SHL DUP2 MSTORE PUSH1 0x4 ADD PUSH2 0x1ED SWAP1 PUSH2 0xDE5 JUMP JUMPDEST PUSH1 0x1 SLOAD PUSH1 0x1 PUSH1 0x1 PUSH1 0xA0 SHL SUB DUP4 DUP2 AND PUSH1 0x0 SWAP1 DUP2 MSTORE PUSH1 0x5 PUSH1 0x20 SWAP1 DUP2 MSTORE PUSH1 0x40 SWAP2 DUP3 SWAP1 KECCAK256 SLOAD PUSH1 0x2 SLOAD DUP4 MLOAD PUSH4 0x824EA6B PUSH1 0xE3 SHL DUP2 MSTORE SWAP4 MLOAD SWAP6 DUP6 AND SWAP6 PUSH4 0x18FCCC76 SWAP6 SWAP3 SWAP5 SWAP2 SWAP1 SWAP3 AND SWAP3 PUSH4 0x41275358 SWAP3 PUSH1 0x4 DUP1 DUP5 ADD SWAP4 DUP3 SWAP1 SUB ADD DUP2 DUP7 DUP1 EXTCODESIZE ISZERO DUP1 ISZERO PUSH2 0x863 JUMPI PUSH1 0x0 DUP1 REVERT JUMPDEST POP GAS STATICCALL ISZERO DUP1 ISZERO PUSH2 0x877 JUMPI RETURNDATASIZE PUSH1 0x0 DUP1 RETURNDATACOPY RETURNDATASIZE PUSH1 0x0 REVERT JUMPDEST POP POP POP POP PUSH1 0x40 MLOAD RETURNDATASIZE PUSH1 0x1F NOT PUSH1 0x1F DUP3 ADD AND DUP3 ADD DUP1 PUSH1 0x40 MSTORE POP DUP2 ADD SWAP1 PUSH2 0x89B SWAP2 SWAP1 PUSH2 0xBDD JUMP JUMPDEST PUSH1 0x40 MLOAD DUP4 PUSH4 0xFFFFFFFF AND PUSH1 0xE0 SHL DUP2 MSTORE PUSH1 0x4 ADD PUSH2 0x8B8 SWAP3 SWAP2 SWAP1 PUSH2 0xEC9 JUMP JUMPDEST PUSH1 0x0 PUSH1 0x40 MLOAD DUP1 DUP4 SUB DUP2 PUSH1 0x0 DUP8 DUP1 EXTCODESIZE ISZERO DUP1 ISZERO PUSH2 0x8D2 JUMPI PUSH1 0x0 DUP1 REVERT JUMPDEST POP GAS CALL ISZERO DUP1 ISZERO PUSH2 0x8E6 JUMPI RETURNDATASIZE PUSH1 0x0 DUP1 RETURNDATACOPY RETURNDATASIZE PUSH1 0x0 REVERT JUMPDEST POP POP POP POP PUSH1 0x0 DUP2 GT ISZERO PUSH2 0x6E4 JUMPI PUSH1 0x1 SLOAD PUSH1 0x1 PUSH1 0x1 PUSH1 0xA0 SHL SUB DUP4 DUP2 AND PUSH1 0x0 SWAP1 DUP2 MSTORE PUSH1 0x5 PUSH1 0x20 MSTORE PUSH1 0x40 SWAP1 DUP2 SWAP1 KECCAK256 SLOAD SWAP1 MLOAD PUSH4 0x441A3E7 PUSH1 0xE4 SHL DUP2 MSTORE SWAP2 SWAP1 SWAP3 AND SWAP2 PUSH4 0x441A3E70 SWAP2 PUSH2 0x938 SWAP2 SWAP1 DUP6 SWAP1 PUSH1 0x4 ADD PUSH2 0xEE0 JUMP JUMPDEST PUSH1 0x0 PUSH1 0x40 MLOAD DUP1 DUP4 SUB DUP2 PUSH1 0x0 DUP8 DUP1 EXTCODESIZE ISZERO DUP1 ISZERO PUSH2 0x952 JUMPI PUSH1 0x0 DUP1 REVERT JUMPDEST POP GAS CALL ISZERO DUP1 ISZERO PUSH2 0x966 JUMPI RETURNDATASIZE PUSH1 0x0 DUP1 RETURNDATACOPY RETURNDATASIZE PUSH1 0x0 REVERT JUMPDEST POP POP POP PUSH1 0x1 PUSH1 0x1 PUSH1 0xA0 SHL SUB DUP4 AND PUSH1 0x0 SWAP1 DUP2 MSTORE PUSH1 0x6 PUSH1 0x20 MSTORE PUSH1 0x40 SWAP1 KECCAK256 SLOAD PUSH2 0x98D SWAP2 POP DUP3 PUSH2 0xB58 JUMP JUMPDEST PUSH1 0x1 PUSH1 0x1 PUSH1 0xA0 SHL SUB DUP4 AND PUSH1 0x0 SWAP1 DUP2 MSTORE PUSH1 0x6 PUSH1 0x20 SWAP1 DUP2 MSTORE PUSH1 0x40 DUP1 DUP4 KECCAK256 SWAP4 SWAP1 SWAP4 SSTORE PUSH1 0x7 SWAP1 MSTORE KECCAK256 SLOAD PUSH2 0x6CA SWAP1 DUP3 PUSH2 0xB58 JUMP JUMPDEST PUSH1 0x1 SLOAD PUSH1 0x1 PUSH1 0x1 PUSH1 0xA0 SHL SUB AND DUP2 JUMP JUMPDEST PUSH1 0x6 PUSH1 0x20 MSTORE PUSH1 0x0 SWAP1 DUP2 MSTORE PUSH1 0x40 SWAP1 KECCAK256 SLOAD DUP2 JUMP JUMPDEST PUSH2 0x9E5 PUSH2 0xA93 JUMP JUMPDEST PUSH1 0x0 SLOAD PUSH1 0x1 PUSH1 0x1 PUSH1 0xA0 SHL SUB SWAP1 DUP2 AND SWAP2 AND EQ PUSH2 0xA12 JUMPI PUSH1 0x40 MLOAD PUSH3 0x461BCD PUSH1 0xE5 SHL DUP2 MSTORE PUSH1 0x4 ADD PUSH2 0x1ED SWAP1 PUSH2 0xE8B JUMP JUMPDEST PUSH1 0x1 PUSH1 0x1 PUSH1 0xA0 SHL SUB DUP2 AND PUSH2 0xA38 JUMPI PUSH1 0x40 MLOAD PUSH3 0x461BCD PUSH1 0xE5 SHL DUP2 MSTORE PUSH1 0x4 ADD PUSH2 0x1ED SWAP1 PUSH2 0xD68 JUMP JUMPDEST PUSH1 0x0 DUP1 SLOAD PUSH1 0x40 MLOAD PUSH1 0x1 PUSH1 0x1 PUSH1 0xA0 SHL SUB DUP1 DUP6 AND SWAP4 SWAP3 AND SWAP2 PUSH32 0x8BE0079C531659141344CD1FD0A4F28419497F9722A3DAAFE3B4186F6B6457E0 SWAP2 LOG3 PUSH1 0x0 DUP1 SLOAD PUSH1 0x1 PUSH1 0x1 PUSH1 0xA0 SHL SUB NOT AND PUSH1 0x1 PUSH1 0x1 PUSH1 0xA0 SHL SUB SWAP3 SWAP1 SWAP3 AND SWAP2 SWAP1 SWAP2 OR SWAP1 SSTORE JUMP JUMPDEST CALLER SWAP1 JUMP JUMPDEST PUSH1 0x1 PUSH1 0x1 PUSH1 0xA0 SHL SUB DUP3 AND PUSH1 0x0 SWAP1 DUP2 MSTORE PUSH1 0x5 PUSH1 0x20 SWAP1 DUP2 MSTORE PUSH1 0x40 DUP1 DUP4 KECCAK256 DUP5 SWAP1 SSTORE PUSH1 0x4 SWAP1 SWAP2 MSTORE SWAP1 KECCAK256 SLOAD PUSH1 0xFF AND PUSH2 0xB28 JUMPI PUSH1 0x3 DUP1 SLOAD PUSH1 0x1 DUP1 DUP3 ADD SWAP1 SWAP3 SSTORE PUSH32 0xC2575A0E9E593C00F959F8C92F12DB2869C3395A3B0502D05E2516446F71F85B ADD DUP1 SLOAD PUSH1 0x1 PUSH1 0x1 PUSH1 0xA0 SHL SUB NOT AND PUSH1 0x1 PUSH1 0x1 PUSH1 0xA0 SHL SUB DUP6 AND SWAP1 DUP2 OR SWAP1 SWAP2 SSTORE PUSH1 0x0 SWAP1 DUP2 MSTORE PUSH1 0x4 PUSH1 0x20 MSTORE PUSH1 0x40 SWAP1 KECCAK256 DUP1 SLOAD PUSH1 0xFF NOT AND SWAP1 SWAP2 OR SWAP1 SSTORE JUMPDEST POP POP JUMP JUMPDEST PUSH1 0x0 DUP3 DUP3 ADD DUP4 DUP2 LT ISZERO PUSH2 0xB51 JUMPI PUSH1 0x40 MLOAD PUSH3 0x461BCD PUSH1 0xE5 SHL DUP2 MSTORE PUSH1 0x4 ADD PUSH2 0x1ED SWAP1 PUSH2 0xDAE JUMP JUMPDEST SWAP4 SWAP3 POP POP POP JUMP JUMPDEST PUSH1 0x0 PUSH2 0xB51 DUP4 DUP4 PUSH1 0x40 MLOAD DUP1 PUSH1 0x40 ADD PUSH1 0x40 MSTORE DUP1 PUSH1 0x1E DUP2 MSTORE PUSH1 0x20 ADD PUSH32 0x536166654D6174683A207375627472616374696F6E206F766572666C6F770000 DUP2 MSTORE POP PUSH1 0x0 DUP2 DUP5 DUP5 GT ISZERO PUSH2 0xBB9 JUMPI PUSH1 0x40 MLOAD PUSH3 0x461BCD PUSH1 0xE5 SHL DUP2 MSTORE PUSH1 0x4 ADD PUSH2 0x1ED SWAP2 SWAP1 PUSH2 0xD15 JUMP JUMPDEST POP POP POP SWAP1 SUB SWAP1 JUMP JUMPDEST PUSH1 0x0 PUSH1 0x20 DUP3 DUP5 SUB SLT ISZERO PUSH2 0xBD2 JUMPI DUP1 DUP2 REVERT JUMPDEST DUP2 CALLDATALOAD PUSH2 0xB51 DUP2 PUSH2 0xEEE JUMP JUMPDEST PUSH1 0x0 PUSH1 0x20 DUP3 DUP5 SUB SLT ISZERO PUSH2 0xBEE JUMPI DUP1 DUP2 REVERT JUMPDEST DUP2 MLOAD PUSH2 0xB51 DUP2 PUSH2 0xEEE JUMP JUMPDEST PUSH1 0x0 DUP1 PUSH1 0x0 PUSH1 0x60 DUP5 DUP7 SUB SLT ISZERO PUSH2 0xC0D JUMPI DUP2 DUP3 REVERT JUMPDEST DUP4 CALLDATALOAD PUSH2 0xC18 DUP2 PUSH2 0xEEE JUMP JUMPDEST SWAP3 POP PUSH1 0x20 DUP5 ADD CALLDATALOAD PUSH2 0xC28 DUP2 PUSH2 0xEEE JUMP JUMPDEST SWAP3 SWAP6 SWAP3 SWAP5 POP POP POP PUSH1 0x40 SWAP2 SWAP1 SWAP2 ADD CALLDATALOAD SWAP1 JUMP JUMPDEST PUSH1 0x0 PUSH1 0x20 DUP3 DUP5 SUB SLT ISZERO PUSH2 0xC4A JUMPI DUP1 DUP2 REVERT JUMPDEST DUP2 MLOAD DUP1 ISZERO ISZERO DUP2 EQ PUSH2 0xB51 JUMPI DUP2 DUP3 REVERT JUMPDEST PUSH1 0x0 PUSH1 0x40 DUP3 DUP5 SUB SLT ISZERO PUSH2 0xC6A JUMPI DUP1 DUP2 REVERT JUMPDEST PUSH1 0x40 MLOAD PUSH1 0x40 DUP2 ADD DUP2 DUP2 LT PUSH8 0xFFFFFFFFFFFFFFFF DUP3 GT OR ISZERO PUSH2 0xC89 JUMPI DUP3 DUP4 REVERT JUMPDEST PUSH1 0x40 MSTORE DUP3 CALLDATALOAD PUSH2 0xC97 DUP2 PUSH2 0xEEE JUMP JUMPDEST DUP2 MSTORE PUSH1 0x20 SWAP3 DUP4 ADD CALLDATALOAD SWAP3 DUP2 ADD SWAP3 SWAP1 SWAP3 MSTORE POP SWAP2 SWAP1 POP JUMP JUMPDEST PUSH1 0x0 PUSH1 0x20 DUP3 DUP5 SUB SLT ISZERO PUSH2 0xCBD JUMPI DUP1 DUP2 REVERT JUMPDEST POP CALLDATALOAD SWAP2 SWAP1 POP JUMP JUMPDEST PUSH1 0x1 PUSH1 0x1 PUSH1 0xA0 SHL SUB SWAP2 SWAP1 SWAP2 AND DUP2 MSTORE PUSH1 0x20 ADD SWAP1 JUMP JUMPDEST PUSH1 0x1 PUSH1 0x1 PUSH1 0xA0 SHL SUB SWAP4 DUP5 AND DUP2 MSTORE SWAP2 SWAP1 SWAP3 AND PUSH1 0x20 DUP3 ADD MSTORE PUSH1 0x40 DUP2 ADD SWAP2 SWAP1 SWAP2 MSTORE PUSH1 0x60 ADD SWAP1 JUMP JUMPDEST PUSH1 0x1 PUSH1 0x1 PUSH1 0xA0 SHL SUB SWAP3 SWAP1 SWAP3 AND DUP3 MSTORE PUSH1 0x20 DUP3 ADD MSTORE PUSH1 0x40 ADD SWAP1 JUMP JUMPDEST PUSH1 0x0 PUSH1 0x20 DUP1 DUP4 MSTORE DUP4 MLOAD DUP1 DUP3 DUP6 ADD MSTORE DUP3 JUMPDEST DUP2 DUP2 LT ISZERO PUSH2 0xD41 JUMPI DUP6 DUP2 ADD DUP4 ADD MLOAD DUP6 DUP3 ADD PUSH1 0x40 ADD MSTORE DUP3 ADD PUSH2 0xD25 JUMP JUMPDEST DUP2 DUP2 GT ISZERO PUSH2 0xD52 JUMPI DUP4 PUSH1 0x40 DUP4 DUP8 ADD ADD MSTORE JUMPDEST POP PUSH1 0x1F ADD PUSH1 0x1F NOT AND SWAP3 SWAP1 SWAP3 ADD PUSH1 0x40 ADD SWAP4 SWAP3 POP POP POP JUMP JUMPDEST PUSH1 0x20 DUP1 DUP3 MSTORE PUSH1 0x26 SWAP1 DUP3 ADD MSTORE PUSH32 0x4F776E61626C653A206E6577206F776E657220697320746865207A65726F2061 PUSH1 0x40 DUP3 ADD MSTORE PUSH6 0x646472657373 PUSH1 0xD0 SHL PUSH1 0x60 DUP3 ADD MSTORE PUSH1 0x80 ADD SWAP1 JUMP JUMPDEST PUSH1 0x20 DUP1 DUP3 MSTORE PUSH1 0x1B SWAP1 DUP3 ADD MSTORE PUSH32 0x536166654D6174683A206164646974696F6E206F766572666C6F770000000000 PUSH1 0x40 DUP3 ADD MSTORE PUSH1 0x60 ADD SWAP1 JUMP JUMPDEST PUSH1 0x20 DUP1 DUP3 MSTORE PUSH1 0x37 SWAP1 DUP3 ADD MSTORE PUSH32 0x436F726E466920506F6C796361742053747261746567793A205661756C742057 PUSH1 0x40 DUP3 ADD MSTORE PUSH32 0x6974686472617720416D6F756E74204578636565646564000000000000000000 PUSH1 0x60 DUP3 ADD MSTORE PUSH1 0x80 ADD SWAP1 JUMP JUMPDEST PUSH1 0x20 DUP1 DUP3 MSTORE PUSH1 0x29 SWAP1 DUP3 ADD MSTORE PUSH32 0x436F726E466920414156452053747261746567793A205661756C74204F6E6C79 PUSH1 0x40 DUP3 ADD MSTORE PUSH9 0x10233AB731BA34B7B7 PUSH1 0xB9 SHL PUSH1 0x60 DUP3 ADD MSTORE PUSH1 0x80 ADD SWAP1 JUMP JUMPDEST PUSH1 0x20 DUP1 DUP3 MSTORE DUP2 DUP2 ADD MSTORE PUSH32 0x4F776E61626C653A2063616C6C6572206973206E6F7420746865206F776E6572 PUSH1 0x40 DUP3 ADD MSTORE PUSH1 0x60 ADD SWAP1 JUMP JUMPDEST SWAP1 DUP2 MSTORE PUSH1 0x20 ADD SWAP1 JUMP JUMPDEST SWAP2 DUP3 MSTORE PUSH1 0x1 PUSH1 0x1 PUSH1 0xA0 SHL SUB AND PUSH1 0x20 DUP3 ADD MSTORE PUSH1 0x40 ADD SWAP1 JUMP JUMPDEST SWAP2 DUP3 MSTORE PUSH1 0x20 DUP3 ADD MSTORE PUSH1 0x40 ADD SWAP1 JUMP JUMPDEST PUSH1 0x1 PUSH1 0x1 PUSH1 0xA0 SHL SUB DUP2 AND DUP2 EQ PUSH2 0x208 JUMPI PUSH1 0x0 DUP1 REVERT INVALID LOG2 PUSH5 0x6970667358 0x22 SLT KECCAK256 0xC8 SWAP16 0xAC EXP AND PUSH23 0x74FB2FA18F97453C08B5F50333D4BA5EC38C2696727930 PUSH32 0xD42C64736F6C634300060C003300000000000000000000000000000000000000 ",
  "sha1": "d310d7322c1c245b400d48202a58e0a15281481a",
  "source": "// SPDX-License-Identifier: MIT\npragma solidity 0.6.12;\n\nimport \"../../interfaces/ISettings.sol\";\nimport \"../openzeppelin/contracts/access/Ownable.sol\";\nimport \"../openzeppelin/contracts/token/ERC20/SafeERC20.sol\";\nimport \"../../interfaces/IVaultchef.sol\";\n\n\npragma experimental ABIEncoderV2;\n\ncontract PolycatStrategy is Ownable {\n    using SafeERC20 for IERC20;\n    using SafeMath for uint256;\n\n\n    struct Pools {\n        address token;\n        uint256 poolId;\n    }\n\n    IVaultchef public VaultChef;\n    ISettings public Settings;\n\n    address[] public tokens;\n    mapping(address => bool) internal _tokens;\n\n    mapping(address => uint256) public poolIds;\n\n    mapping(address => uint256) public totalDeposits;\n\n    mapping(address => uint256) public vaultDeposits;\n\n\n    modifier onlyVault {\n        require(Settings.vault(msg.sender), \"CornFi AAVE Strategy: Vault Only Function\");\n      _;\n   }\n\n\n    constructor(IVaultchef _vaultChef, ISettings _settings, Pools[] memory _pools) public {\n        VaultChef = _vaultChef;\n        Settings = _settings;\n        for(uint i = 0; i < _pools.length; i++) {\n            _addPool(_pools[i].token, _pools[i].poolId);\n        }\n    }\n\n\n    function addPool(Pools memory _pool) public onlyOwner {\n        _addPool(_pool.token, _pool.poolId);\n    }\n\n\n    function _addPool(address _token, uint256 _poolId) internal {\n        //require(VaultChef.poolInfo(_poolId).want.address == _token);\n        poolIds[_token] = _poolId;\n        if(!_tokens[_token]) {\n            tokens.push(_token);\n            _tokens[_token] = true;\n        }\n    }\n\n\n    function deposit(address _from, address _token, uint256 _amount) public onlyVault {\n        require(poolIds[_token] != 0);\n        if(_amount > 0) {\n            IERC20(_token).transferFrom(_from, address(this), _amount);\n\n            // Approve Aave lending pool to take (deposit) a token\n            IERC20(_token).approve(address(VaultChef), _amount);\n\n            // Deposit assets into Aave lending pool\n            VaultChef.deposit(poolIds[_token], _amount);\n\n            totalDeposits[_token] = totalDeposits[_token].add(_amount);\n            vaultDeposits[_token] = vaultDeposits[_token].add(_amount);\n        }\n    }\n\n\n    function withdraw(address _from, address _token, uint256 _amount) public onlyVault {\n        require(poolIds[_token] != 0);\n\n        // This prevents the owner from creating a malicious vault that could withdraw all tokens\n        require(_amount <= vaultDeposits[_token], \"CornFi Polycat Strategy: Vault Withdraw Amount Exceeded\");\n\n        VaultChef.harvest(poolIds[_token], Settings.feeAddress());\n        \n        if(_amount > 0) {\n            VaultChef.withdraw(poolIds[_token], _amount);\n            totalDeposits[_token] = totalDeposits[_token].sub(_amount);\n            vaultDeposits[_token] = vaultDeposits[_token].sub(_amount);\n        }\n    }\n\n\n    function claimRewards() public onlyOwner {\n        for(uint i = 0; i < tokens.length; i++) {\n            VaultChef.harvest(poolIds[tokens[i]], Settings.feeAddress());\n        }\n    }\n}",
  "sourcePath": "contracts/strategies/PolycatStrategy.sol",
  "type": "contract"
}