{
  "abi": [
    {
      "inputs": [
        {
          "internalType": "address",
          "name": "_feeAddress",
          "type": "address"
        },
        {
          "internalType": "address",
          "name": "_controller",
          "type": "address"
        },
        {
          "internalType": "uint256",
          "name": "_slippagePoints",
          "type": "uint256"
        },
        {
          "internalType": "uint256",
          "name": "_slippageBasePoints",
          "type": "uint256"
        },
        {
          "internalType": "address[]",
          "name": "_routers",
          "type": "address[]"
        }
      ],
      "stateMutability": "nonpayable",
      "type": "constructor"
    },
    {
      "anonymous": false,
      "inputs": [
        {
          "indexed": true,
          "internalType": "address",
          "name": "previousOwner",
          "type": "address"
        },
        {
          "indexed": true,
          "internalType": "address",
          "name": "newOwner",
          "type": "address"
        }
      ],
      "name": "OwnershipTransferred",
      "type": "event"
    },
    {
      "inputs": [],
      "name": "Fees",
      "outputs": [
        {
          "internalType": "address",
          "name": "",
          "type": "address"
        }
      ],
      "stateMutability": "view",
      "type": "function"
    },
    {
      "inputs": [],
      "name": "SLIPPAGE_BASE_POINTS",
      "outputs": [
        {
          "internalType": "uint256",
          "name": "",
          "type": "uint256"
        }
      ],
      "stateMutability": "view",
      "type": "function"
    },
    {
      "inputs": [],
      "name": "SLIPPAGE_POINTS",
      "outputs": [
        {
          "internalType": "uint256",
          "name": "",
          "type": "uint256"
        }
      ],
      "stateMutability": "view",
      "type": "function"
    },
    {
      "inputs": [
        {
          "internalType": "address",
          "name": "_vault",
          "type": "address"
        }
      ],
      "name": "addVault",
      "outputs": [],
      "stateMutability": "nonpayable",
      "type": "function"
    },
    {
      "inputs": [
        {
          "internalType": "address",
          "name": "_token",
          "type": "address"
        },
        {
          "internalType": "uint256",
          "name": "_minDeposit",
          "type": "uint256"
        }
      ],
      "name": "changeMinimumDeposit",
      "outputs": [],
      "stateMutability": "nonpayable",
      "type": "function"
    },
    {
      "inputs": [],
      "name": "controller",
      "outputs": [
        {
          "internalType": "address",
          "name": "",
          "type": "address"
        }
      ],
      "stateMutability": "view",
      "type": "function"
    },
    {
      "inputs": [
        {
          "internalType": "address",
          "name": "_router",
          "type": "address"
        }
      ],
      "name": "deactivateRouter",
      "outputs": [],
      "stateMutability": "nonpayable",
      "type": "function"
    },
    {
      "inputs": [
        {
          "internalType": "address",
          "name": "_vault",
          "type": "address"
        }
      ],
      "name": "deactivateVault",
      "outputs": [],
      "stateMutability": "nonpayable",
      "type": "function"
    },
    {
      "inputs": [
        {
          "internalType": "address",
          "name": "_token",
          "type": "address"
        }
      ],
      "name": "minimumDeposit",
      "outputs": [
        {
          "internalType": "uint256",
          "name": "",
          "type": "uint256"
        }
      ],
      "stateMutability": "view",
      "type": "function"
    },
    {
      "inputs": [],
      "name": "owner",
      "outputs": [
        {
          "internalType": "address",
          "name": "",
          "type": "address"
        }
      ],
      "stateMutability": "view",
      "type": "function"
    },
    {
      "inputs": [],
      "name": "renounceOwnership",
      "outputs": [],
      "stateMutability": "nonpayable",
      "type": "function"
    },
    {
      "inputs": [
        {
          "internalType": "address",
          "name": "_router",
          "type": "address"
        }
      ],
      "name": "router",
      "outputs": [
        {
          "internalType": "bool",
          "name": "",
          "type": "bool"
        }
      ],
      "stateMutability": "view",
      "type": "function"
    },
    {
      "inputs": [
        {
          "internalType": "uint256",
          "name": "",
          "type": "uint256"
        }
      ],
      "name": "routers",
      "outputs": [
        {
          "internalType": "address",
          "name": "",
          "type": "address"
        }
      ],
      "stateMutability": "view",
      "type": "function"
    },
    {
      "inputs": [],
      "name": "routersLength",
      "outputs": [
        {
          "internalType": "uint256",
          "name": "",
          "type": "uint256"
        }
      ],
      "stateMutability": "view",
      "type": "function"
    },
    {
      "inputs": [
        {
          "internalType": "address",
          "name": "_feeAddress",
          "type": "address"
        }
      ],
      "name": "setFeeAddress",
      "outputs": [],
      "stateMutability": "nonpayable",
      "type": "function"
    },
    {
      "inputs": [
        {
          "internalType": "uint256",
          "name": "_slippagePoints",
          "type": "uint256"
        },
        {
          "internalType": "uint256",
          "name": "_slippageBasePoints",
          "type": "uint256"
        }
      ],
      "name": "setSlippage",
      "outputs": [],
      "stateMutability": "nonpayable",
      "type": "function"
    },
    {
      "inputs": [
        {
          "internalType": "address",
          "name": "_token",
          "type": "address"
        },
        {
          "internalType": "contract IStrategy",
          "name": "_strategy",
          "type": "address"
        },
        {
          "internalType": "uint256",
          "name": "_minDeposit",
          "type": "uint256"
        }
      ],
      "name": "setStrategy",
      "outputs": [],
      "stateMutability": "nonpayable",
      "type": "function"
    },
    {
      "inputs": [
        {
          "internalType": "uint256",
          "name": "_amountIn",
          "type": "uint256"
        }
      ],
      "name": "slippage",
      "outputs": [
        {
          "internalType": "uint256",
          "name": "",
          "type": "uint256"
        }
      ],
      "stateMutability": "view",
      "type": "function"
    },
    {
      "inputs": [
        {
          "internalType": "address",
          "name": "_token",
          "type": "address"
        }
      ],
      "name": "strategy",
      "outputs": [
        {
          "internalType": "contract IStrategy",
          "name": "",
          "type": "address"
        }
      ],
      "stateMutability": "view",
      "type": "function"
    },
    {
      "inputs": [
        {
          "internalType": "address",
          "name": "newOwner",
          "type": "address"
        }
      ],
      "name": "transferOwnership",
      "outputs": [],
      "stateMutability": "nonpayable",
      "type": "function"
    },
    {
      "inputs": [
        {
          "internalType": "address",
          "name": "_vault",
          "type": "address"
        }
      ],
      "name": "vault",
      "outputs": [
        {
          "internalType": "bool",
          "name": "",
          "type": "bool"
        }
      ],
      "stateMutability": "view",
      "type": "function"
    },
    {
      "inputs": [
        {
          "internalType": "address",
          "name": "_vault",
          "type": "address"
        }
      ],
      "name": "vaultId",
      "outputs": [
        {
          "internalType": "uint256",
          "name": "",
          "type": "uint256"
        }
      ],
      "stateMutability": "view",
      "type": "function"
    },
    {
      "inputs": [
        {
          "internalType": "uint256",
          "name": "",
          "type": "uint256"
        }
      ],
      "name": "vaults",
      "outputs": [
        {
          "internalType": "address",
          "name": "",
          "type": "address"
        }
      ],
      "stateMutability": "view",
      "type": "function"
    },
    {
      "inputs": [],
      "name": "vaultsLength",
      "outputs": [
        {
          "internalType": "uint256",
          "name": "",
          "type": "uint256"
        }
      ],
      "stateMutability": "view",
      "type": "function"
    }
  ],
  "bytecode": "60a06040523480156200001157600080fd5b50604051620010f3380380620010f3833981810160405260a08110156200003757600080fd5b81516020830151604080850151606086015160808701805193519597949692959194919392820192846401000000008211156200007357600080fd5b9083019060208201858111156200008957600080fd5b8251866020820283011164010000000082111715620000a757600080fd5b82525081516020918201928201910280838360005b83811015620000d6578181015183820152602001620000bc565b505050509050016040525050506000620000f5620001bf60201b60201c565b600080546001600160a01b0319166001600160a01b0383169081178255604051929350917f8be0079c531659141344cd1fd0a4f28419497f9722a3daafe3b4186f6b6457e0908290a350600180546001600160a01b0319166001600160a01b038716179055606084901b6001600160601b031916608052620001788383620001c3565b60005b8151811015620001b357620001aa8282815181106200019657fe5b6020026020010151620001ce60201b60201c565b6001016200017b565b5050505050506200025c565b3390565b600291909155600355565b6001600160a01b03811660009081526005602052604090205460ff1615620001f557600080fd5b6004805460018181019092557f8a35acfbc15ff81a39ae7d344fd709f28e8600b4aa8c65c6b64bfe7fe36bd19b0180546001600160a01b039093166001600160a01b031990931683179055600091825260056020526040909120805460ff19169091179055565b60805160601c610e796200027a60003980610b585250610e796000f3fe608060405234801561001057600080fd5b50600436106101585760003560e01c806390a83dc2116100c3578063e4b643e31161007c578063e4b643e31461037d578063e9fcd6ce146103b7578063f2fde38b146103bf578063f77c4791146103e5578063f815c03d146103ed578063fcab2e141461041357610158565b806390a83dc2146102ad5780639670e0de146102e3578063aa9f621714610300578063aea4e5ba14610326578063aee1640714610352578063bc9ef3e01461035a57610158565b8063715018a611610115578063715018a61461022c5780637726a73c1461023457806382af54c91461025a5780638705fcd4146102625780638c64ea4a146102885780638da5cb5b146102a557610158565b80631ac364711461015d578063228bfd9f14610185578063256b5a02146101c75780633aaa36e6146101ed5780634e9c1118146101f5578063530c8fe714610212575b600080fd5b6101836004803603602081101561017357600080fd5b50356001600160a01b0316610439565b005b6101ab6004803603602081101561019b57600080fd5b50356001600160a01b03166104d7565b604080516001600160a01b039092168252519081900360200190f35b610183600480360360208110156101dd57600080fd5b50356001600160a01b03166104f5565b6101ab6105eb565b6101ab6004803603602081101561020b57600080fd5b50356105fa565b61021a610621565b60408051918252519081900360200190f35b610183610627565b61021a6004803603602081101561024a57600080fd5b50356001600160a01b03166106c9565b61021a6106e4565b6101836004803603602081101561027857600080fd5b50356001600160a01b03166106ea565b6101ab6004803603602081101561029e57600080fd5b50356107b1565b6101ab6107be565b610183600480360360608110156102c357600080fd5b506001600160a01b038135811691602081013590911690604001356107cd565b61021a600480360360208110156102f957600080fd5b5035610887565b6101836004803603602081101561031657600080fd5b50356001600160a01b03166108ba565b6101836004803603604081101561033c57600080fd5b506001600160a01b038135169060200135610936565b61021a6109ce565b6101836004803603604081101561037057600080fd5b50803590602001356109d4565b6103a36004803603602081101561039357600080fd5b50356001600160a01b0316610a3a565b604080519115158252519081900360200190f35b61021a610a58565b610183600480360360208110156103d557600080fd5b50356001600160a01b0316610a5e565b6101ab610b56565b6103a36004803603602081101561040357600080fd5b50356001600160a01b0316610b7a565b61021a6004803603602081101561042957600080fd5b50356001600160a01b0316610bac565b610441610bc7565b6000546001600160a01b03908116911614610491576040805162461bcd60e51b81526020600482018190526024820152600080516020610dfe833981519152604482015290519081900360640190fd5b6001600160a01b03811660009081526005602052604090205460ff166104b657600080fd5b6001600160a01b03166000908152600560205260409020805460ff19169055565b6001600160a01b039081166000908152600960205260409020541690565b6104fd610bc7565b6000546001600160a01b0390811691161461054d576040805162461bcd60e51b81526020600482018190526024820152600080516020610dfe833981519152604482015290519081900360640190fd5b6001600160a01b03811660009081526007602052604090205460ff161561057357600080fd5b600680546001600160a01b03909216600081815260086020908152604080832086905560018087019095557ff652222313e28459528d920b65115c16c04f3efc82aaedc97be59f3f377c0d3f90950180546001600160a01b03191684179055918152600790915291909120805460ff19169091179055565b6001546001600160a01b031681565b6004818154811061060757fe5b6000918252602090912001546001600160a01b0316905081565b60045490565b61062f610bc7565b6000546001600160a01b0390811691161461067f576040805162461bcd60e51b81526020600482018190526024820152600080516020610dfe833981519152604482015290519081900360640190fd5b600080546040516001600160a01b03909116907f8be0079c531659141344cd1fd0a4f28419497f9722a3daafe3b4186f6b6457e0908390a3600080546001600160a01b0319169055565b6001600160a01b031660009081526008602052604090205490565b60065490565b6106f2610bc7565b6000546001600160a01b03908116911614610742576040805162461bcd60e51b81526020600482018190526024820152600080516020610dfe833981519152604482015290519081900360640190fd5b6001546001600160a01b038281169116141561078f5760405162461bcd60e51b8152600401808060200182810382526026815260200180610e1e6026913960400191505060405180910390fd5b600180546001600160a01b0319166001600160a01b0392909216919091179055565b6006818154811061060757fe5b6000546001600160a01b031690565b6107d5610bc7565b6000546001600160a01b03908116911614610825576040805162461bcd60e51b81526020600482018190526024820152600080516020610dfe833981519152604482015290519081900360640190fd5b6001600160a01b03838116600090815260096020526040902054161561084a57600080fd5b6001600160a01b03928316600090815260096020908152604080832080546001600160a01b0319169590961694909417909455600a909352912055565b60006108b46108ad6003546108a760025486610bcb90919063ffffffff16565b90610c2b565b8390610c6d565b92915050565b6108c2610bc7565b6000546001600160a01b03908116911614610912576040805162461bcd60e51b81526020600482018190526024820152600080516020610dfe833981519152604482015290519081900360640190fd5b6001600160a01b03166000908152600760205260409020805460ff19166002179055565b61093e610bc7565b6000546001600160a01b0390811691161461098e576040805162461bcd60e51b81526020600482018190526024820152600080516020610dfe833981519152604482015290519081900360640190fd5b6001600160a01b03828116600090815260096020526040902054166109b257600080fd5b6001600160a01b039091166000908152600a6020526040902055565b60025481565b6109dc610bc7565b6000546001600160a01b03908116911614610a2c576040805162461bcd60e51b81526020600482018190526024820152600080516020610dfe833981519152604482015290519081900360640190fd5b610a368282610caf565b5050565b6001600160a01b031660009081526005602052604090205460ff1690565b60035481565b610a66610bc7565b6000546001600160a01b03908116911614610ab6576040805162461bcd60e51b81526020600482018190526024820152600080516020610dfe833981519152604482015290519081900360640190fd5b6001600160a01b038116610afb5760405162461bcd60e51b8152600401808060200182810382526026815260200180610db76026913960400191505060405180910390fd5b600080546040516001600160a01b03808516939216917f8be0079c531659141344cd1fd0a4f28419497f9722a3daafe3b4186f6b6457e091a3600080546001600160a01b0319166001600160a01b0392909216919091179055565b7f000000000000000000000000000000000000000000000000000000000000000081565b6001600160a01b03811660009081526007602052604081205460ff16600114610ba45760006108b4565b506001919050565b6001600160a01b03166000908152600a602052604090205490565b3390565b600082610bda575060006108b4565b82820282848281610be757fe5b0414610c245760405162461bcd60e51b8152600401808060200182810382526021815260200180610ddd6021913960400191505060405180910390fd5b9392505050565b6000610c2483836040518060400160405280601a81526020017f536166654d6174683a206469766973696f6e206279207a65726f000000000000815250610cba565b6000610c2483836040518060400160405280601e81526020017f536166654d6174683a207375627472616374696f6e206f766572666c6f770000815250610d5c565b600291909155600355565b60008183610d465760405162461bcd60e51b81526004018080602001828103825283818151815260200191508051906020019080838360005b83811015610d0b578181015183820152602001610cf3565b50505050905090810190601f168015610d385780820380516001836020036101000a031916815260200191505b509250505060405180910390fd5b506000838581610d5257fe5b0495945050505050565b60008184841115610dae5760405162461bcd60e51b8152602060048201818152835160248401528351909283926044909101919085019080838360008315610d0b578181015183820152602001610cf3565b50505090039056fe4f776e61626c653a206e6577206f776e657220697320746865207a65726f2061646472657373536166654d6174683a206d756c7469706c69636174696f6e206f766572666c6f774f776e61626c653a2063616c6c6572206973206e6f7420746865206f776e6572436f726e46692053657474696e67733a204e6f742061204e6577204665652041646472657373a26469706673582212204901156f11673a3fc217ba58f2d308a2d14a21a73d6fdc0101989c2945e5658964736f6c634300060c0033",
  "bytecodeSha1": "1cb930d184c1b835aca786dba24c793f8b4153c2",
  "compiler": {
    "evm_version": "istanbul",
    "optimizer": {
      "enabled": true,
      "runs": 200
    },
    "version": "0.6.12+commit.27d51765"
  },
  "contractName": "Settings",
  "language": "Solidity",
  "natspec": {
    "kind": "dev",
    "methods": {
      "owner()": {
        "details": "Returns the address of the current owner."
      },
      "renounceOwnership()": {
        "details": "Leaves the contract without owner. It will not be possible to call `onlyOwner` functions anymore. Can only be called by the current owner. NOTE: Renouncing ownership will leave the contract without an owner, thereby removing any functionality that is only available to the owner."
      },
      "transferOwnership(address)": {
        "details": "Transfers ownership of the contract to a new account (`newOwner`). Can only be called by the current owner."
      }
    },
    "version": 1
  },
  "opcodes": "PUSH1 0x80 PUSH1 0x40 MSTORE CALLVALUE DUP1 ISZERO PUSH2 0x10 JUMPI PUSH1 0x0 DUP1 REVERT JUMPDEST POP PUSH1 0x4 CALLDATASIZE LT PUSH2 0x158 JUMPI PUSH1 0x0 CALLDATALOAD PUSH1 0xE0 SHR DUP1 PUSH4 0x90A83DC2 GT PUSH2 0xC3 JUMPI DUP1 PUSH4 0xE4B643E3 GT PUSH2 0x7C JUMPI DUP1 PUSH4 0xE4B643E3 EQ PUSH2 0x37D JUMPI DUP1 PUSH4 0xE9FCD6CE EQ PUSH2 0x3B7 JUMPI DUP1 PUSH4 0xF2FDE38B EQ PUSH2 0x3BF JUMPI DUP1 PUSH4 0xF77C4791 EQ PUSH2 0x3E5 JUMPI DUP1 PUSH4 0xF815C03D EQ PUSH2 0x3ED JUMPI DUP1 PUSH4 0xFCAB2E14 EQ PUSH2 0x413 JUMPI PUSH2 0x158 JUMP JUMPDEST DUP1 PUSH4 0x90A83DC2 EQ PUSH2 0x2AD JUMPI DUP1 PUSH4 0x9670E0DE EQ PUSH2 0x2E3 JUMPI DUP1 PUSH4 0xAA9F6217 EQ PUSH2 0x300 JUMPI DUP1 PUSH4 0xAEA4E5BA EQ PUSH2 0x326 JUMPI DUP1 PUSH4 0xAEE16407 EQ PUSH2 0x352 JUMPI DUP1 PUSH4 0xBC9EF3E0 EQ PUSH2 0x35A JUMPI PUSH2 0x158 JUMP JUMPDEST DUP1 PUSH4 0x715018A6 GT PUSH2 0x115 JUMPI DUP1 PUSH4 0x715018A6 EQ PUSH2 0x22C JUMPI DUP1 PUSH4 0x7726A73C EQ PUSH2 0x234 JUMPI DUP1 PUSH4 0x82AF54C9 EQ PUSH2 0x25A JUMPI DUP1 PUSH4 0x8705FCD4 EQ PUSH2 0x262 JUMPI DUP1 PUSH4 0x8C64EA4A EQ PUSH2 0x288 JUMPI DUP1 PUSH4 0x8DA5CB5B EQ PUSH2 0x2A5 JUMPI PUSH2 0x158 JUMP JUMPDEST DUP1 PUSH4 0x1AC36471 EQ PUSH2 0x15D JUMPI DUP1 PUSH4 0x228BFD9F EQ PUSH2 0x185 JUMPI DUP1 PUSH4 0x256B5A02 EQ PUSH2 0x1C7 JUMPI DUP1 PUSH4 0x3AAA36E6 EQ PUSH2 0x1ED JUMPI DUP1 PUSH4 0x4E9C1118 EQ PUSH2 0x1F5 JUMPI DUP1 PUSH4 0x530C8FE7 EQ PUSH2 0x212 JUMPI JUMPDEST PUSH1 0x0 DUP1 REVERT JUMPDEST PUSH2 0x183 PUSH1 0x4 DUP1 CALLDATASIZE SUB PUSH1 0x20 DUP2 LT ISZERO PUSH2 0x173 JUMPI PUSH1 0x0 DUP1 REVERT JUMPDEST POP CALLDATALOAD PUSH1 0x1 PUSH1 0x1 PUSH1 0xA0 SHL SUB AND PUSH2 0x439 JUMP JUMPDEST STOP JUMPDEST PUSH2 0x1AB PUSH1 0x4 DUP1 CALLDATASIZE SUB PUSH1 0x20 DUP2 LT ISZERO PUSH2 0x19B JUMPI PUSH1 0x0 DUP1 REVERT JUMPDEST POP CALLDATALOAD PUSH1 0x1 PUSH1 0x1 PUSH1 0xA0 SHL SUB AND PUSH2 0x4D7 JUMP JUMPDEST PUSH1 0x40 DUP1 MLOAD PUSH1 0x1 PUSH1 0x1 PUSH1 0xA0 SHL SUB SWAP1 SWAP3 AND DUP3 MSTORE MLOAD SWAP1 DUP2 SWAP1 SUB PUSH1 0x20 ADD SWAP1 RETURN JUMPDEST PUSH2 0x183 PUSH1 0x4 DUP1 CALLDATASIZE SUB PUSH1 0x20 DUP2 LT ISZERO PUSH2 0x1DD JUMPI PUSH1 0x0 DUP1 REVERT JUMPDEST POP CALLDATALOAD PUSH1 0x1 PUSH1 0x1 PUSH1 0xA0 SHL SUB AND PUSH2 0x4F5 JUMP JUMPDEST PUSH2 0x1AB PUSH2 0x5EB JUMP JUMPDEST PUSH2 0x1AB PUSH1 0x4 DUP1 CALLDATASIZE SUB PUSH1 0x20 DUP2 LT ISZERO PUSH2 0x20B JUMPI PUSH1 0x0 DUP1 REVERT JUMPDEST POP CALLDATALOAD PUSH2 0x5FA JUMP JUMPDEST PUSH2 0x21A PUSH2 0x621 JUMP JUMPDEST PUSH1 0x40 DUP1 MLOAD SWAP2 DUP3 MSTORE MLOAD SWAP1 DUP2 SWAP1 SUB PUSH1 0x20 ADD SWAP1 RETURN JUMPDEST PUSH2 0x183 PUSH2 0x627 JUMP JUMPDEST PUSH2 0x21A PUSH1 0x4 DUP1 CALLDATASIZE SUB PUSH1 0x20 DUP2 LT ISZERO PUSH2 0x24A JUMPI PUSH1 0x0 DUP1 REVERT JUMPDEST POP CALLDATALOAD PUSH1 0x1 PUSH1 0x1 PUSH1 0xA0 SHL SUB AND PUSH2 0x6C9 JUMP JUMPDEST PUSH2 0x21A PUSH2 0x6E4 JUMP JUMPDEST PUSH2 0x183 PUSH1 0x4 DUP1 CALLDATASIZE SUB PUSH1 0x20 DUP2 LT ISZERO PUSH2 0x278 JUMPI PUSH1 0x0 DUP1 REVERT JUMPDEST POP CALLDATALOAD PUSH1 0x1 PUSH1 0x1 PUSH1 0xA0 SHL SUB AND PUSH2 0x6EA JUMP JUMPDEST PUSH2 0x1AB PUSH1 0x4 DUP1 CALLDATASIZE SUB PUSH1 0x20 DUP2 LT ISZERO PUSH2 0x29E JUMPI PUSH1 0x0 DUP1 REVERT JUMPDEST POP CALLDATALOAD PUSH2 0x7B1 JUMP JUMPDEST PUSH2 0x1AB PUSH2 0x7BE JUMP JUMPDEST PUSH2 0x183 PUSH1 0x4 DUP1 CALLDATASIZE SUB PUSH1 0x60 DUP2 LT ISZERO PUSH2 0x2C3 JUMPI PUSH1 0x0 DUP1 REVERT JUMPDEST POP PUSH1 0x1 PUSH1 0x1 PUSH1 0xA0 SHL SUB DUP2 CALLDATALOAD DUP2 AND SWAP2 PUSH1 0x20 DUP2 ADD CALLDATALOAD SWAP1 SWAP2 AND SWAP1 PUSH1 0x40 ADD CALLDATALOAD PUSH2 0x7CD JUMP JUMPDEST PUSH2 0x21A PUSH1 0x4 DUP1 CALLDATASIZE SUB PUSH1 0x20 DUP2 LT ISZERO PUSH2 0x2F9 JUMPI PUSH1 0x0 DUP1 REVERT JUMPDEST POP CALLDATALOAD PUSH2 0x887 JUMP JUMPDEST PUSH2 0x183 PUSH1 0x4 DUP1 CALLDATASIZE SUB PUSH1 0x20 DUP2 LT ISZERO PUSH2 0x316 JUMPI PUSH1 0x0 DUP1 REVERT JUMPDEST POP CALLDATALOAD PUSH1 0x1 PUSH1 0x1 PUSH1 0xA0 SHL SUB AND PUSH2 0x8BA JUMP JUMPDEST PUSH2 0x183 PUSH1 0x4 DUP1 CALLDATASIZE SUB PUSH1 0x40 DUP2 LT ISZERO PUSH2 0x33C JUMPI PUSH1 0x0 DUP1 REVERT JUMPDEST POP PUSH1 0x1 PUSH1 0x1 PUSH1 0xA0 SHL SUB DUP2 CALLDATALOAD AND SWAP1 PUSH1 0x20 ADD CALLDATALOAD PUSH2 0x936 JUMP JUMPDEST PUSH2 0x21A PUSH2 0x9CE JUMP JUMPDEST PUSH2 0x183 PUSH1 0x4 DUP1 CALLDATASIZE SUB PUSH1 0x40 DUP2 LT ISZERO PUSH2 0x370 JUMPI PUSH1 0x0 DUP1 REVERT JUMPDEST POP DUP1 CALLDATALOAD SWAP1 PUSH1 0x20 ADD CALLDATALOAD PUSH2 0x9D4 JUMP JUMPDEST PUSH2 0x3A3 PUSH1 0x4 DUP1 CALLDATASIZE SUB PUSH1 0x20 DUP2 LT ISZERO PUSH2 0x393 JUMPI PUSH1 0x0 DUP1 REVERT JUMPDEST POP CALLDATALOAD PUSH1 0x1 PUSH1 0x1 PUSH1 0xA0 SHL SUB AND PUSH2 0xA3A JUMP JUMPDEST PUSH1 0x40 DUP1 MLOAD SWAP2 ISZERO ISZERO DUP3 MSTORE MLOAD SWAP1 DUP2 SWAP1 SUB PUSH1 0x20 ADD SWAP1 RETURN JUMPDEST PUSH2 0x21A PUSH2 0xA58 JUMP JUMPDEST PUSH2 0x183 PUSH1 0x4 DUP1 CALLDATASIZE SUB PUSH1 0x20 DUP2 LT ISZERO PUSH2 0x3D5 JUMPI PUSH1 0x0 DUP1 REVERT JUMPDEST POP CALLDATALOAD PUSH1 0x1 PUSH1 0x1 PUSH1 0xA0 SHL SUB AND PUSH2 0xA5E JUMP JUMPDEST PUSH2 0x1AB PUSH2 0xB56 JUMP JUMPDEST PUSH2 0x3A3 PUSH1 0x4 DUP1 CALLDATASIZE SUB PUSH1 0x20 DUP2 LT ISZERO PUSH2 0x403 JUMPI PUSH1 0x0 DUP1 REVERT JUMPDEST POP CALLDATALOAD PUSH1 0x1 PUSH1 0x1 PUSH1 0xA0 SHL SUB AND PUSH2 0xB7A JUMP JUMPDEST PUSH2 0x21A PUSH1 0x4 DUP1 CALLDATASIZE SUB PUSH1 0x20 DUP2 LT ISZERO PUSH2 0x429 JUMPI PUSH1 0x0 DUP1 REVERT JUMPDEST POP CALLDATALOAD PUSH1 0x1 PUSH1 0x1 PUSH1 0xA0 SHL SUB AND PUSH2 0xBAC JUMP JUMPDEST PUSH2 0x441 PUSH2 0xBC7 JUMP JUMPDEST PUSH1 0x0 SLOAD PUSH1 0x1 PUSH1 0x1 PUSH1 0xA0 SHL SUB SWAP1 DUP2 AND SWAP2 AND EQ PUSH2 0x491 JUMPI PUSH1 0x40 DUP1 MLOAD PUSH3 0x461BCD PUSH1 0xE5 SHL DUP2 MSTORE PUSH1 0x20 PUSH1 0x4 DUP3 ADD DUP2 SWAP1 MSTORE PUSH1 0x24 DUP3 ADD MSTORE PUSH1 0x0 DUP1 MLOAD PUSH1 0x20 PUSH2 0xDFE DUP4 CODECOPY DUP2 MLOAD SWAP2 MSTORE PUSH1 0x44 DUP3 ADD MSTORE SWAP1 MLOAD SWAP1 DUP2 SWAP1 SUB PUSH1 0x64 ADD SWAP1 REVERT JUMPDEST PUSH1 0x1 PUSH1 0x1 PUSH1 0xA0 SHL SUB DUP2 AND PUSH1 0x0 SWAP1 DUP2 MSTORE PUSH1 0x5 PUSH1 0x20 MSTORE PUSH1 0x40 SWAP1 KECCAK256 SLOAD PUSH1 0xFF AND PUSH2 0x4B6 JUMPI PUSH1 0x0 DUP1 REVERT JUMPDEST PUSH1 0x1 PUSH1 0x1 PUSH1 0xA0 SHL SUB AND PUSH1 0x0 SWAP1 DUP2 MSTORE PUSH1 0x5 PUSH1 0x20 MSTORE PUSH1 0x40 SWAP1 KECCAK256 DUP1 SLOAD PUSH1 0xFF NOT AND SWAP1 SSTORE JUMP JUMPDEST PUSH1 0x1 PUSH1 0x1 PUSH1 0xA0 SHL SUB SWAP1 DUP2 AND PUSH1 0x0 SWAP1 DUP2 MSTORE PUSH1 0x9 PUSH1 0x20 MSTORE PUSH1 0x40 SWAP1 KECCAK256 SLOAD AND SWAP1 JUMP JUMPDEST PUSH2 0x4FD PUSH2 0xBC7 JUMP JUMPDEST PUSH1 0x0 SLOAD PUSH1 0x1 PUSH1 0x1 PUSH1 0xA0 SHL SUB SWAP1 DUP2 AND SWAP2 AND EQ PUSH2 0x54D JUMPI PUSH1 0x40 DUP1 MLOAD PUSH3 0x461BCD PUSH1 0xE5 SHL DUP2 MSTORE PUSH1 0x20 PUSH1 0x4 DUP3 ADD DUP2 SWAP1 MSTORE PUSH1 0x24 DUP3 ADD MSTORE PUSH1 0x0 DUP1 MLOAD PUSH1 0x20 PUSH2 0xDFE DUP4 CODECOPY DUP2 MLOAD SWAP2 MSTORE PUSH1 0x44 DUP3 ADD MSTORE SWAP1 MLOAD SWAP1 DUP2 SWAP1 SUB PUSH1 0x64 ADD SWAP1 REVERT JUMPDEST PUSH1 0x1 PUSH1 0x1 PUSH1 0xA0 SHL SUB DUP2 AND PUSH1 0x0 SWAP1 DUP2 MSTORE PUSH1 0x7 PUSH1 0x20 MSTORE PUSH1 0x40 SWAP1 KECCAK256 SLOAD PUSH1 0xFF AND ISZERO PUSH2 0x573 JUMPI PUSH1 0x0 DUP1 REVERT JUMPDEST PUSH1 0x6 DUP1 SLOAD PUSH1 0x1 PUSH1 0x1 PUSH1 0xA0 SHL SUB SWAP1 SWAP3 AND PUSH1 0x0 DUP2 DUP2 MSTORE PUSH1 0x8 PUSH1 0x20 SWAP1 DUP2 MSTORE PUSH1 0x40 DUP1 DUP4 KECCAK256 DUP7 SWAP1 SSTORE PUSH1 0x1 DUP1 DUP8 ADD SWAP1 SWAP6 SSTORE PUSH32 0xF652222313E28459528D920B65115C16C04F3EFC82AAEDC97BE59F3F377C0D3F SWAP1 SWAP6 ADD DUP1 SLOAD PUSH1 0x1 PUSH1 0x1 PUSH1 0xA0 SHL SUB NOT AND DUP5 OR SWAP1 SSTORE SWAP2 DUP2 MSTORE PUSH1 0x7 SWAP1 SWAP2 MSTORE SWAP2 SWAP1 SWAP2 KECCAK256 DUP1 SLOAD PUSH1 0xFF NOT AND SWAP1 SWAP2 OR SWAP1 SSTORE JUMP JUMPDEST PUSH1 0x1 SLOAD PUSH1 0x1 PUSH1 0x1 PUSH1 0xA0 SHL SUB AND DUP2 JUMP JUMPDEST PUSH1 0x4 DUP2 DUP2 SLOAD DUP2 LT PUSH2 0x607 JUMPI INVALID JUMPDEST PUSH1 0x0 SWAP2 DUP3 MSTORE PUSH1 0x20 SWAP1 SWAP2 KECCAK256 ADD SLOAD PUSH1 0x1 PUSH1 0x1 PUSH1 0xA0 SHL SUB AND SWAP1 POP DUP2 JUMP JUMPDEST PUSH1 0x4 SLOAD SWAP1 JUMP JUMPDEST PUSH2 0x62F PUSH2 0xBC7 JUMP JUMPDEST PUSH1 0x0 SLOAD PUSH1 0x1 PUSH1 0x1 PUSH1 0xA0 SHL SUB SWAP1 DUP2 AND SWAP2 AND EQ PUSH2 0x67F JUMPI PUSH1 0x40 DUP1 MLOAD PUSH3 0x461BCD PUSH1 0xE5 SHL DUP2 MSTORE PUSH1 0x20 PUSH1 0x4 DUP3 ADD DUP2 SWAP1 MSTORE PUSH1 0x24 DUP3 ADD MSTORE PUSH1 0x0 DUP1 MLOAD PUSH1 0x20 PUSH2 0xDFE DUP4 CODECOPY DUP2 MLOAD SWAP2 MSTORE PUSH1 0x44 DUP3 ADD MSTORE SWAP1 MLOAD SWAP1 DUP2 SWAP1 SUB PUSH1 0x64 ADD SWAP1 REVERT JUMPDEST PUSH1 0x0 DUP1 SLOAD PUSH1 0x40 MLOAD PUSH1 0x1 PUSH1 0x1 PUSH1 0xA0 SHL SUB SWAP1 SWAP2 AND SWAP1 PUSH32 0x8BE0079C531659141344CD1FD0A4F28419497F9722A3DAAFE3B4186F6B6457E0 SWAP1 DUP4 SWAP1 LOG3 PUSH1 0x0 DUP1 SLOAD PUSH1 0x1 PUSH1 0x1 PUSH1 0xA0 SHL SUB NOT AND SWAP1 SSTORE JUMP JUMPDEST PUSH1 0x1 PUSH1 0x1 PUSH1 0xA0 SHL SUB AND PUSH1 0x0 SWAP1 DUP2 MSTORE PUSH1 0x8 PUSH1 0x20 MSTORE PUSH1 0x40 SWAP1 KECCAK256 SLOAD SWAP1 JUMP JUMPDEST PUSH1 0x6 SLOAD SWAP1 JUMP JUMPDEST PUSH2 0x6F2 PUSH2 0xBC7 JUMP JUMPDEST PUSH1 0x0 SLOAD PUSH1 0x1 PUSH1 0x1 PUSH1 0xA0 SHL SUB SWAP1 DUP2 AND SWAP2 AND EQ PUSH2 0x742 JUMPI PUSH1 0x40 DUP1 MLOAD PUSH3 0x461BCD PUSH1 0xE5 SHL DUP2 MSTORE PUSH1 0x20 PUSH1 0x4 DUP3 ADD DUP2 SWAP1 MSTORE PUSH1 0x24 DUP3 ADD MSTORE PUSH1 0x0 DUP1 MLOAD PUSH1 0x20 PUSH2 0xDFE DUP4 CODECOPY DUP2 MLOAD SWAP2 MSTORE PUSH1 0x44 DUP3 ADD MSTORE SWAP1 MLOAD SWAP1 DUP2 SWAP1 SUB PUSH1 0x64 ADD SWAP1 REVERT JUMPDEST PUSH1 0x1 SLOAD PUSH1 0x1 PUSH1 0x1 PUSH1 0xA0 SHL SUB DUP3 DUP2 AND SWAP2 AND EQ ISZERO PUSH2 0x78F JUMPI PUSH1 0x40 MLOAD PUSH3 0x461BCD PUSH1 0xE5 SHL DUP2 MSTORE PUSH1 0x4 ADD DUP1 DUP1 PUSH1 0x20 ADD DUP3 DUP2 SUB DUP3 MSTORE PUSH1 0x26 DUP2 MSTORE PUSH1 0x20 ADD DUP1 PUSH2 0xE1E PUSH1 0x26 SWAP2 CODECOPY PUSH1 0x40 ADD SWAP2 POP POP PUSH1 0x40 MLOAD DUP1 SWAP2 SUB SWAP1 REVERT JUMPDEST PUSH1 0x1 DUP1 SLOAD PUSH1 0x1 PUSH1 0x1 PUSH1 0xA0 SHL SUB NOT AND PUSH1 0x1 PUSH1 0x1 PUSH1 0xA0 SHL SUB SWAP3 SWAP1 SWAP3 AND SWAP2 SWAP1 SWAP2 OR SWAP1 SSTORE JUMP JUMPDEST PUSH1 0x6 DUP2 DUP2 SLOAD DUP2 LT PUSH2 0x607 JUMPI INVALID JUMPDEST PUSH1 0x0 SLOAD PUSH1 0x1 PUSH1 0x1 PUSH1 0xA0 SHL SUB AND SWAP1 JUMP JUMPDEST PUSH2 0x7D5 PUSH2 0xBC7 JUMP JUMPDEST PUSH1 0x0 SLOAD PUSH1 0x1 PUSH1 0x1 PUSH1 0xA0 SHL SUB SWAP1 DUP2 AND SWAP2 AND EQ PUSH2 0x825 JUMPI PUSH1 0x40 DUP1 MLOAD PUSH3 0x461BCD PUSH1 0xE5 SHL DUP2 MSTORE PUSH1 0x20 PUSH1 0x4 DUP3 ADD DUP2 SWAP1 MSTORE PUSH1 0x24 DUP3 ADD MSTORE PUSH1 0x0 DUP1 MLOAD PUSH1 0x20 PUSH2 0xDFE DUP4 CODECOPY DUP2 MLOAD SWAP2 MSTORE PUSH1 0x44 DUP3 ADD MSTORE SWAP1 MLOAD SWAP1 DUP2 SWAP1 SUB PUSH1 0x64 ADD SWAP1 REVERT JUMPDEST PUSH1 0x1 PUSH1 0x1 PUSH1 0xA0 SHL SUB DUP4 DUP2 AND PUSH1 0x0 SWAP1 DUP2 MSTORE PUSH1 0x9 PUSH1 0x20 MSTORE PUSH1 0x40 SWAP1 KECCAK256 SLOAD AND ISZERO PUSH2 0x84A JUMPI PUSH1 0x0 DUP1 REVERT JUMPDEST PUSH1 0x1 PUSH1 0x1 PUSH1 0xA0 SHL SUB SWAP3 DUP4 AND PUSH1 0x0 SWAP1 DUP2 MSTORE PUSH1 0x9 PUSH1 0x20 SWAP1 DUP2 MSTORE PUSH1 0x40 DUP1 DUP4 KECCAK256 DUP1 SLOAD PUSH1 0x1 PUSH1 0x1 PUSH1 0xA0 SHL SUB NOT AND SWAP6 SWAP1 SWAP7 AND SWAP5 SWAP1 SWAP5 OR SWAP1 SWAP5 SSTORE PUSH1 0xA SWAP1 SWAP4 MSTORE SWAP2 KECCAK256 SSTORE JUMP JUMPDEST PUSH1 0x0 PUSH2 0x8B4 PUSH2 0x8AD PUSH1 0x3 SLOAD PUSH2 0x8A7 PUSH1 0x2 SLOAD DUP7 PUSH2 0xBCB SWAP1 SWAP2 SWAP1 PUSH4 0xFFFFFFFF AND JUMP JUMPDEST SWAP1 PUSH2 0xC2B JUMP JUMPDEST DUP4 SWAP1 PUSH2 0xC6D JUMP JUMPDEST SWAP3 SWAP2 POP POP JUMP JUMPDEST PUSH2 0x8C2 PUSH2 0xBC7 JUMP JUMPDEST PUSH1 0x0 SLOAD PUSH1 0x1 PUSH1 0x1 PUSH1 0xA0 SHL SUB SWAP1 DUP2 AND SWAP2 AND EQ PUSH2 0x912 JUMPI PUSH1 0x40 DUP1 MLOAD PUSH3 0x461BCD PUSH1 0xE5 SHL DUP2 MSTORE PUSH1 0x20 PUSH1 0x4 DUP3 ADD DUP2 SWAP1 MSTORE PUSH1 0x24 DUP3 ADD MSTORE PUSH1 0x0 DUP1 MLOAD PUSH1 0x20 PUSH2 0xDFE DUP4 CODECOPY DUP2 MLOAD SWAP2 MSTORE PUSH1 0x44 DUP3 ADD MSTORE SWAP1 MLOAD SWAP1 DUP2 SWAP1 SUB PUSH1 0x64 ADD SWAP1 REVERT JUMPDEST PUSH1 0x1 PUSH1 0x1 PUSH1 0xA0 SHL SUB AND PUSH1 0x0 SWAP1 DUP2 MSTORE PUSH1 0x7 PUSH1 0x20 MSTORE PUSH1 0x40 SWAP1 KECCAK256 DUP1 SLOAD PUSH1 0xFF NOT AND PUSH1 0x2 OR SWAP1 SSTORE JUMP JUMPDEST PUSH2 0x93E PUSH2 0xBC7 JUMP JUMPDEST PUSH1 0x0 SLOAD PUSH1 0x1 PUSH1 0x1 PUSH1 0xA0 SHL SUB SWAP1 DUP2 AND SWAP2 AND EQ PUSH2 0x98E JUMPI PUSH1 0x40 DUP1 MLOAD PUSH3 0x461BCD PUSH1 0xE5 SHL DUP2 MSTORE PUSH1 0x20 PUSH1 0x4 DUP3 ADD DUP2 SWAP1 MSTORE PUSH1 0x24 DUP3 ADD MSTORE PUSH1 0x0 DUP1 MLOAD PUSH1 0x20 PUSH2 0xDFE DUP4 CODECOPY DUP2 MLOAD SWAP2 MSTORE PUSH1 0x44 DUP3 ADD MSTORE SWAP1 MLOAD SWAP1 DUP2 SWAP1 SUB PUSH1 0x64 ADD SWAP1 REVERT JUMPDEST PUSH1 0x1 PUSH1 0x1 PUSH1 0xA0 SHL SUB DUP3 DUP2 AND PUSH1 0x0 SWAP1 DUP2 MSTORE PUSH1 0x9 PUSH1 0x20 MSTORE PUSH1 0x40 SWAP1 KECCAK256 SLOAD AND PUSH2 0x9B2 JUMPI PUSH1 0x0 DUP1 REVERT JUMPDEST PUSH1 0x1 PUSH1 0x1 PUSH1 0xA0 SHL SUB SWAP1 SWAP2 AND PUSH1 0x0 SWAP1 DUP2 MSTORE PUSH1 0xA PUSH1 0x20 MSTORE PUSH1 0x40 SWAP1 KECCAK256 SSTORE JUMP JUMPDEST PUSH1 0x2 SLOAD DUP2 JUMP JUMPDEST PUSH2 0x9DC PUSH2 0xBC7 JUMP JUMPDEST PUSH1 0x0 SLOAD PUSH1 0x1 PUSH1 0x1 PUSH1 0xA0 SHL SUB SWAP1 DUP2 AND SWAP2 AND EQ PUSH2 0xA2C JUMPI PUSH1 0x40 DUP1 MLOAD PUSH3 0x461BCD PUSH1 0xE5 SHL DUP2 MSTORE PUSH1 0x20 PUSH1 0x4 DUP3 ADD DUP2 SWAP1 MSTORE PUSH1 0x24 DUP3 ADD MSTORE PUSH1 0x0 DUP1 MLOAD PUSH1 0x20 PUSH2 0xDFE DUP4 CODECOPY DUP2 MLOAD SWAP2 MSTORE PUSH1 0x44 DUP3 ADD MSTORE SWAP1 MLOAD SWAP1 DUP2 SWAP1 SUB PUSH1 0x64 ADD SWAP1 REVERT JUMPDEST PUSH2 0xA36 DUP3 DUP3 PUSH2 0xCAF JUMP JUMPDEST POP POP JUMP JUMPDEST PUSH1 0x1 PUSH1 0x1 PUSH1 0xA0 SHL SUB AND PUSH1 0x0 SWAP1 DUP2 MSTORE PUSH1 0x5 PUSH1 0x20 MSTORE PUSH1 0x40 SWAP1 KECCAK256 SLOAD PUSH1 0xFF AND SWAP1 JUMP JUMPDEST PUSH1 0x3 SLOAD DUP2 JUMP JUMPDEST PUSH2 0xA66 PUSH2 0xBC7 JUMP JUMPDEST PUSH1 0x0 SLOAD PUSH1 0x1 PUSH1 0x1 PUSH1 0xA0 SHL SUB SWAP1 DUP2 AND SWAP2 AND EQ PUSH2 0xAB6 JUMPI PUSH1 0x40 DUP1 MLOAD PUSH3 0x461BCD PUSH1 0xE5 SHL DUP2 MSTORE PUSH1 0x20 PUSH1 0x4 DUP3 ADD DUP2 SWAP1 MSTORE PUSH1 0x24 DUP3 ADD MSTORE PUSH1 0x0 DUP1 MLOAD PUSH1 0x20 PUSH2 0xDFE DUP4 CODECOPY DUP2 MLOAD SWAP2 MSTORE PUSH1 0x44 DUP3 ADD MSTORE SWAP1 MLOAD SWAP1 DUP2 SWAP1 SUB PUSH1 0x64 ADD SWAP1 REVERT JUMPDEST PUSH1 0x1 PUSH1 0x1 PUSH1 0xA0 SHL SUB DUP2 AND PUSH2 0xAFB JUMPI PUSH1 0x40 MLOAD PUSH3 0x461BCD PUSH1 0xE5 SHL DUP2 MSTORE PUSH1 0x4 ADD DUP1 DUP1 PUSH1 0x20 ADD DUP3 DUP2 SUB DUP3 MSTORE PUSH1 0x26 DUP2 MSTORE PUSH1 0x20 ADD DUP1 PUSH2 0xDB7 PUSH1 0x26 SWAP2 CODECOPY PUSH1 0x40 ADD SWAP2 POP POP PUSH1 0x40 MLOAD DUP1 SWAP2 SUB SWAP1 REVERT JUMPDEST PUSH1 0x0 DUP1 SLOAD PUSH1 0x40 MLOAD PUSH1 0x1 PUSH1 0x1 PUSH1 0xA0 SHL SUB DUP1 DUP6 AND SWAP4 SWAP3 AND SWAP2 PUSH32 0x8BE0079C531659141344CD1FD0A4F28419497F9722A3DAAFE3B4186F6B6457E0 SWAP2 LOG3 PUSH1 0x0 DUP1 SLOAD PUSH1 0x1 PUSH1 0x1 PUSH1 0xA0 SHL SUB NOT AND PUSH1 0x1 PUSH1 0x1 PUSH1 0xA0 SHL SUB SWAP3 SWAP1 SWAP3 AND SWAP2 SWAP1 SWAP2 OR SWAP1 SSTORE JUMP JUMPDEST PUSH32 0x0 DUP2 JUMP JUMPDEST PUSH1 0x1 PUSH1 0x1 PUSH1 0xA0 SHL SUB DUP2 AND PUSH1 0x0 SWAP1 DUP2 MSTORE PUSH1 0x7 PUSH1 0x20 MSTORE PUSH1 0x40 DUP2 KECCAK256 SLOAD PUSH1 0xFF AND PUSH1 0x1 EQ PUSH2 0xBA4 JUMPI PUSH1 0x0 PUSH2 0x8B4 JUMP JUMPDEST POP PUSH1 0x1 SWAP2 SWAP1 POP JUMP JUMPDEST PUSH1 0x1 PUSH1 0x1 PUSH1 0xA0 SHL SUB AND PUSH1 0x0 SWAP1 DUP2 MSTORE PUSH1 0xA PUSH1 0x20 MSTORE PUSH1 0x40 SWAP1 KECCAK256 SLOAD SWAP1 JUMP JUMPDEST CALLER SWAP1 JUMP JUMPDEST PUSH1 0x0 DUP3 PUSH2 0xBDA JUMPI POP PUSH1 0x0 PUSH2 0x8B4 JUMP JUMPDEST DUP3 DUP3 MUL DUP3 DUP5 DUP3 DUP2 PUSH2 0xBE7 JUMPI INVALID JUMPDEST DIV EQ PUSH2 0xC24 JUMPI PUSH1 0x40 MLOAD PUSH3 0x461BCD PUSH1 0xE5 SHL DUP2 MSTORE PUSH1 0x4 ADD DUP1 DUP1 PUSH1 0x20 ADD DUP3 DUP2 SUB DUP3 MSTORE PUSH1 0x21 DUP2 MSTORE PUSH1 0x20 ADD DUP1 PUSH2 0xDDD PUSH1 0x21 SWAP2 CODECOPY PUSH1 0x40 ADD SWAP2 POP POP PUSH1 0x40 MLOAD DUP1 SWAP2 SUB SWAP1 REVERT JUMPDEST SWAP4 SWAP3 POP POP POP JUMP JUMPDEST PUSH1 0x0 PUSH2 0xC24 DUP4 DUP4 PUSH1 0x40 MLOAD DUP1 PUSH1 0x40 ADD PUSH1 0x40 MSTORE DUP1 PUSH1 0x1A DUP2 MSTORE PUSH1 0x20 ADD PUSH32 0x536166654D6174683A206469766973696F6E206279207A65726F000000000000 DUP2 MSTORE POP PUSH2 0xCBA JUMP JUMPDEST PUSH1 0x0 PUSH2 0xC24 DUP4 DUP4 PUSH1 0x40 MLOAD DUP1 PUSH1 0x40 ADD PUSH1 0x40 MSTORE DUP1 PUSH1 0x1E DUP2 MSTORE PUSH1 0x20 ADD PUSH32 0x536166654D6174683A207375627472616374696F6E206F766572666C6F770000 DUP2 MSTORE POP PUSH2 0xD5C JUMP JUMPDEST PUSH1 0x2 SWAP2 SWAP1 SWAP2 SSTORE PUSH1 0x3 SSTORE JUMP JUMPDEST PUSH1 0x0 DUP2 DUP4 PUSH2 0xD46 JUMPI PUSH1 0x40 MLOAD PUSH3 0x461BCD PUSH1 0xE5 SHL DUP2 MSTORE PUSH1 0x4 ADD DUP1 DUP1 PUSH1 0x20 ADD DUP3 DUP2 SUB DUP3 MSTORE DUP4 DUP2 DUP2 MLOAD DUP2 MSTORE PUSH1 0x20 ADD SWAP2 POP DUP1 MLOAD SWAP1 PUSH1 0x20 ADD SWAP1 DUP1 DUP4 DUP4 PUSH1 0x0 JUMPDEST DUP4 DUP2 LT ISZERO PUSH2 0xD0B JUMPI DUP2 DUP2 ADD MLOAD DUP4 DUP3 ADD MSTORE PUSH1 0x20 ADD PUSH2 0xCF3 JUMP JUMPDEST POP POP POP POP SWAP1 POP SWAP1 DUP2 ADD SWAP1 PUSH1 0x1F AND DUP1 ISZERO PUSH2 0xD38 JUMPI DUP1 DUP3 SUB DUP1 MLOAD PUSH1 0x1 DUP4 PUSH1 0x20 SUB PUSH2 0x100 EXP SUB NOT AND DUP2 MSTORE PUSH1 0x20 ADD SWAP2 POP JUMPDEST POP SWAP3 POP POP POP PUSH1 0x40 MLOAD DUP1 SWAP2 SUB SWAP1 REVERT JUMPDEST POP PUSH1 0x0 DUP4 DUP6 DUP2 PUSH2 0xD52 JUMPI INVALID JUMPDEST DIV SWAP6 SWAP5 POP POP POP POP POP JUMP JUMPDEST PUSH1 0x0 DUP2 DUP5 DUP5 GT ISZERO PUSH2 0xDAE JUMPI PUSH1 0x40 MLOAD PUSH3 0x461BCD PUSH1 0xE5 SHL DUP2 MSTORE PUSH1 0x20 PUSH1 0x4 DUP3 ADD DUP2 DUP2 MSTORE DUP4 MLOAD PUSH1 0x24 DUP5 ADD MSTORE DUP4 MLOAD SWAP1 SWAP3 DUP4 SWAP3 PUSH1 0x44 SWAP1 SWAP2 ADD SWAP2 SWAP1 DUP6 ADD SWAP1 DUP1 DUP4 DUP4 PUSH1 0x0 DUP4 ISZERO PUSH2 0xD0B JUMPI DUP2 DUP2 ADD MLOAD DUP4 DUP3 ADD MSTORE PUSH1 0x20 ADD PUSH2 0xCF3 JUMP JUMPDEST POP POP POP SWAP1 SUB SWAP1 JUMP INVALID 0x4F PUSH24 0x6E61626C653A206E6577206F776E65722069732074686520 PUSH27 0x65726F2061646472657373536166654D6174683A206D756C746970 PUSH13 0x69636174696F6E206F76657266 PUSH13 0x6F774F776E61626C653A206361 PUSH13 0x6C6572206973206E6F74207468 PUSH6 0x206F776E6572 NUMBER PUSH16 0x726E46692053657474696E67733A204E PUSH16 0x742061204E6577204665652041646472 PUSH6 0x7373A2646970 PUSH7 0x73582212204901 ISZERO PUSH16 0x11673A3FC217BA58F2D308A2D14A21A7 RETURNDATASIZE PUSH16 0xDC0101989C2945E5658964736F6C6343 STOP MOD 0xC STOP CALLER ",
  "sha1": "08c515ce3479fe7d447bfcbc5bcab32a6945f2bd",
  "source": "pragma solidity ^0.6.0;\n\nimport {SafeMath} from \"./openzeppelin/contracts/token/ERC20/SafeERC20.sol\";\nimport \"./openzeppelin/contracts/access/Ownable.sol\";\nimport \"../interfaces/IStrategy.sol\";\n\ncontract Settings is Ownable {\n    using SafeMath for uint256;\n\n\n    // Dev wallet\n    address public Fees;\n\n    address public immutable controller;\n\n\n    uint256 public SLIPPAGE_POINTS;\n    uint256 public SLIPPAGE_BASE_POINTS;\n\n\n    address[] public routers;\n    mapping(address => bool) internal _Routers;\n\n    address[] public vaults;\n    mapping(address => uint8) internal _vaults;\n    mapping(address => uint256) internal _vaultId;\n\n    mapping(address => IStrategy) internal _tokenStrategies;\n    mapping(address => uint256) internal _minimumDeposit;\n\n\n    constructor(\n        address _feeAddress,\n        address _controller,\n        uint256 _slippagePoints,\n        uint256 _slippageBasePoints,\n        address[] memory _routers\n    ) public {\n        Fees = _feeAddress;\n        controller = _controller;\n        _setSlippage(_slippagePoints, _slippageBasePoints);\n        for(uint i = 0; i < _routers.length; i++) {\n            _addRouter(_routers[i]);\n        }\n    }\n\n    /* --------------------------------------------------------------- */\n\n    function vault(address _vault) public view returns (bool) {\n        return _vaults[_vault] == 1 ? true : false;\n    }\n\n\n    function vaultId(address _vault) public view returns (uint256) {\n        return _vaultId[_vault];\n    }\n\n\n    function strategy(address _token) public view returns (IStrategy) {\n        return _tokenStrategies[_token];\n    }\n\n\n    function slippage(uint256 _amountIn) public view returns (uint256) {\n        return _amountIn.sub(_amountIn.mul(SLIPPAGE_POINTS).div(SLIPPAGE_BASE_POINTS));\n    }\n\n\n    function minimumDeposit(address _token) public view returns (uint256) {\n        return _minimumDeposit[_token];\n    }\n\n\n    function router(address _router) public view returns (bool) {\n        return _Routers[_router];\n    }\n\n\n    function vaultsLength() public view returns (uint256) {\n        return vaults.length;\n    }\n\n\n    function routersLength() public view returns (uint256) {\n        return routers.length;\n    }\n\n    /* --------------------------------------------------------------- */\n\n\n    function deactivateRouter(address _router) public onlyOwner {\n        require(_Routers[_router]);\n        _Routers[_router] = false;\n    }\n\n\n    function setFeeAddress(address _feeAddress) public onlyOwner {\n        require(Fees != _feeAddress, \"CornFi Settings: Not a New Fee Address\");\n        Fees = _feeAddress;\n    }\n\n\n    function setSlippage(uint256 _slippagePoints, uint256 _slippageBasePoints) public onlyOwner {\n        _setSlippage(_slippagePoints, _slippageBasePoints);\n    }\n\n\n    function addVault(address _vault) public onlyOwner {\n        require(_vaults[_vault] == 0);\n        _vaultId[_vault] = vaults.length;\n        vaults.push(_vault);\n        _vaults[_vault] = 1;\n    }\n\n    \n    function deactivateVault(address _vault) public onlyOwner {\n        _vaults[_vault] = 2;\n    }\n\n\n    function setStrategy(address _token, IStrategy _strategy, uint256 _minDeposit) public onlyOwner {\n        require(address(_tokenStrategies[_token]) == address(0));\n        _tokenStrategies[_token] = _strategy;\n        _minimumDeposit[_token] = _minDeposit;\n    }\n\n\n    function changeMinimumDeposit(address _token, uint256 _minDeposit) public onlyOwner {\n        require(address(_tokenStrategies[_token]) != address(0));\n        _minimumDeposit[_token] = _minDeposit;\n    }\n\n    /* --------------------------------------------------------------- */\n\n    function _setSlippage(uint256 _slippagePoints, uint256 _slippageBasePoints) internal {\n        SLIPPAGE_POINTS = _slippagePoints;\n        SLIPPAGE_BASE_POINTS = _slippageBasePoints;\n    }\n\n\n    function _addRouter(address _router) internal {\n        require(!_Routers[_router]);\n        routers.push(_router);\n        _Routers[_router] = true;\n    }\n}",
  "sourcePath": "contracts/Settings.sol",
  "type": "contract"
}