{
  "abi": [
    {
      "inputs": [
        {
          "internalType": "contract ISettings",
          "name": "_settings",
          "type": "address"
        }
      ],
      "stateMutability": "nonpayable",
      "type": "constructor"
    },
    {
      "anonymous": false,
      "inputs": [
        {
          "indexed": true,
          "internalType": "address",
          "name": "previousOwner",
          "type": "address"
        },
        {
          "indexed": true,
          "internalType": "address",
          "name": "newOwner",
          "type": "address"
        }
      ],
      "name": "OwnershipTransferred",
      "type": "event"
    },
    {
      "inputs": [],
      "name": "DEPOSIT_FEE_BASE_POINTS",
      "outputs": [
        {
          "internalType": "uint256",
          "name": "",
          "type": "uint256"
        }
      ],
      "stateMutability": "view",
      "type": "function"
    },
    {
      "inputs": [],
      "name": "DEPOSIT_FEE_POINTS",
      "outputs": [
        {
          "internalType": "uint256",
          "name": "",
          "type": "uint256"
        }
      ],
      "stateMutability": "view",
      "type": "function"
    },
    {
      "inputs": [],
      "name": "FILLER_FEE_BASE_POINTS",
      "outputs": [
        {
          "internalType": "uint256",
          "name": "",
          "type": "uint256"
        }
      ],
      "stateMutability": "view",
      "type": "function"
    },
    {
      "inputs": [],
      "name": "FILLER_FEE_POINTS",
      "outputs": [
        {
          "internalType": "uint256",
          "name": "",
          "type": "uint256"
        }
      ],
      "stateMutability": "view",
      "type": "function"
    },
    {
      "inputs": [],
      "name": "Settings",
      "outputs": [
        {
          "internalType": "contract ISettings",
          "name": "",
          "type": "address"
        }
      ],
      "stateMutability": "view",
      "type": "function"
    },
    {
      "inputs": [],
      "name": "TX_FEE_BASE_POINTS",
      "outputs": [
        {
          "internalType": "uint256",
          "name": "",
          "type": "uint256"
        }
      ],
      "stateMutability": "view",
      "type": "function"
    },
    {
      "inputs": [],
      "name": "TX_FEE_POINTS",
      "outputs": [
        {
          "internalType": "uint256",
          "name": "",
          "type": "uint256"
        }
      ],
      "stateMutability": "view",
      "type": "function"
    },
    {
      "inputs": [],
      "name": "claimRewards",
      "outputs": [],
      "stateMutability": "nonpayable",
      "type": "function"
    },
    {
      "inputs": [
        {
          "internalType": "address",
          "name": "_from",
          "type": "address"
        },
        {
          "internalType": "address",
          "name": "_token",
          "type": "address"
        },
        {
          "internalType": "uint256",
          "name": "_amount",
          "type": "uint256"
        }
      ],
      "name": "deposit",
      "outputs": [],
      "stateMutability": "nonpayable",
      "type": "function"
    },
    {
      "inputs": [
        {
          "internalType": "uint256",
          "name": "_amountIn",
          "type": "uint256"
        }
      ],
      "name": "depositFee",
      "outputs": [
        {
          "internalType": "uint256",
          "name": "",
          "type": "uint256"
        }
      ],
      "stateMutability": "view",
      "type": "function"
    },
    {
      "inputs": [
        {
          "internalType": "uint256",
          "name": "_amountIn",
          "type": "uint256"
        }
      ],
      "name": "fillerFee",
      "outputs": [
        {
          "internalType": "uint256",
          "name": "",
          "type": "uint256"
        }
      ],
      "stateMutability": "view",
      "type": "function"
    },
    {
      "inputs": [],
      "name": "owner",
      "outputs": [
        {
          "internalType": "address",
          "name": "",
          "type": "address"
        }
      ],
      "stateMutability": "view",
      "type": "function"
    },
    {
      "inputs": [],
      "name": "renounceOwnership",
      "outputs": [],
      "stateMutability": "nonpayable",
      "type": "function"
    },
    {
      "inputs": [
        {
          "internalType": "address",
          "name": "",
          "type": "address"
        }
      ],
      "name": "totalDeposits",
      "outputs": [
        {
          "internalType": "uint256",
          "name": "",
          "type": "uint256"
        }
      ],
      "stateMutability": "view",
      "type": "function"
    },
    {
      "inputs": [
        {
          "internalType": "address",
          "name": "newOwner",
          "type": "address"
        }
      ],
      "name": "transferOwnership",
      "outputs": [],
      "stateMutability": "nonpayable",
      "type": "function"
    },
    {
      "inputs": [
        {
          "internalType": "uint256",
          "name": "_amountIn",
          "type": "uint256"
        }
      ],
      "name": "txFee",
      "outputs": [
        {
          "internalType": "uint256",
          "name": "",
          "type": "uint256"
        }
      ],
      "stateMutability": "view",
      "type": "function"
    },
    {
      "inputs": [
        {
          "internalType": "address",
          "name": "",
          "type": "address"
        },
        {
          "internalType": "address",
          "name": "",
          "type": "address"
        }
      ],
      "name": "vaultDeposits",
      "outputs": [
        {
          "internalType": "uint256",
          "name": "",
          "type": "uint256"
        }
      ],
      "stateMutability": "view",
      "type": "function"
    },
    {
      "inputs": [
        {
          "internalType": "address",
          "name": "_from",
          "type": "address"
        },
        {
          "internalType": "address",
          "name": "_token",
          "type": "address"
        },
        {
          "internalType": "uint256",
          "name": "_amount",
          "type": "uint256"
        }
      ],
      "name": "withdraw",
      "outputs": [],
      "stateMutability": "nonpayable",
      "type": "function"
    }
  ],
  "bytecode": "608060405234801561001057600080fd5b50604051610dad380380610dad83398101604081905261002f916100ac565b60006100396100a8565b600080546001600160a01b0319166001600160a01b0383169081178255604051929350917f8be0079c531659141344cd1fd0a4f28419497f9722a3daafe3b4186f6b6457e0908290a350600180546001600160a01b0319166001600160a01b03929092169190911790556100da565b3390565b6000602082840312156100bd578081fd5b81516001600160a01b03811681146100d3578182fd5b9392505050565b610cc4806100e96000396000f3fe608060405234801561001057600080fd5b50600436106101165760003560e01c80638d4e4fa8116100a2578063d7eedd5e11610071578063d7eedd5e146101d7578063d9caed12146101df578063d9f2613e146101d7578063e9403256146101f2578063f2fde38b1461020557610116565b80638d4e4fa8146101b45780638da5cb5b146101c75780639814278e146101cf578063a653a76c146101d757610116565b80635017f9fb116100e95780635017f9fb1461016b5780635a23ecb21461017e5780635f6501ab14610186578063715018a6146101995780638340f549146101a157610116565b806328b9a81b1461011b578063372500ab14610139578063423c485a146101435780634c46eaaa14610163575b600080fd5b610123610218565b60405161013091906109ec565b60405180910390f35b610141610227565b005b6101566101513660046109d4565b61027d565b6040516101309190610c6d565b61015661029c565b6101566101793660046109d4565b6102a1565b6101566102b4565b610156610194366004610940565b6102b9565b6101416102d6565b6101416101af366004610974565b610355565b6101566101c23660046109d4565b610503565b610123610516565b610156610525565b61015661052a565b6101416101ed366004610974565b610530565b610156610200366004610925565b6106f5565b610141610213366004610925565b610707565b6001546001600160a01b031681565b61022f6107bd565b6000546001600160a01b039081169116146102655760405162461bcd60e51b815260040161025c90610ba4565b60405180910390fd5b60405162461bcd60e51b815260040161025c90610c24565b60006102966103e86102908460056107c1565b90610802565b92915050565b600581565b60006102966103e86102908460076107c1565b600381565b600360209081526000928352604080842090915290825290205481565b6102de6107bd565b6000546001600160a01b0390811691161461030b5760405162461bcd60e51b815260040161025c90610ba4565b600080546040516001600160a01b03909116907f8be0079c531659141344cd1fd0a4f28419497f9722a3daafe3b4186f6b6457e0908390a3600080546001600160a01b0319169055565b60015460405163f815c03d60e01b81526001600160a01b039091169063f815c03d906103859033906004016109ec565b60206040518083038186803b15801561039d57600080fd5b505afa1580156103b1573d6000803e3d6000fd5b505050506040513d601f19601f820116820180604052508101906103d591906109b4565b6103f15760405162461bcd60e51b815260040161025c90610bd9565b80156104fe576040516323b872dd60e01b81526001600160a01b038316906323b872dd9061042790869030908690600401610a00565b602060405180830381600087803b15801561044157600080fd5b505af1158015610455573d6000803e3d6000fd5b505050506040513d601f19601f8201168201806040525081019061047991906109b4565b506001600160a01b03821660009081526002602052604090205461049d9082610844565b6001600160a01b038316600081815260026020908152604080832094909455338252600381528382209282529190915220546104d99082610844565b3360009081526003602090815260408083206001600160a01b03871684529091529020555b505050565b60006102966103e86102908460036107c1565b6000546001600160a01b031690565b600781565b6103e881565b60015460405163f815c03d60e01b81526001600160a01b039091169063f815c03d906105609033906004016109ec565b60206040518083038186803b15801561057857600080fd5b505afa15801561058c573d6000803e3d6000fd5b505050506040513d601f19601f820116820180604052508101906105b091906109b4565b6105cc5760405162461bcd60e51b815260040161025c90610bd9565b3360009081526003602090815260408083206001600160a01b038616845290915290205481111561060f5760405162461bcd60e51b815260040161025c90610b0d565b80156104fe5760405163a9059cbb60e01b81526001600160a01b0383169063a9059cbb906106439086908590600401610a24565b602060405180830381600087803b15801561065d57600080fd5b505af1158015610671573d6000803e3d6000fd5b505050506040513d601f19601f8201168201806040525081019061069591906109b4565b506001600160a01b0382166000908152600260205260409020546106b99082610869565b6001600160a01b038316600081815260026020908152604080832094909455338252600381528382209282529190915220546104d99082610869565b60026020526000908152604090205481565b61070f6107bd565b6000546001600160a01b0390811691161461073c5760405162461bcd60e51b815260040161025c90610ba4565b6001600160a01b0381166107625760405162461bcd60e51b815260040161025c90610a90565b600080546040516001600160a01b03808516939216917f8be0079c531659141344cd1fd0a4f28419497f9722a3daafe3b4186f6b6457e091a3600080546001600160a01b0319166001600160a01b0392909216919091179055565b3390565b6000826107d057506000610296565b828202828482816107dd57fe5b04146107fb5760405162461bcd60e51b815260040161025c90610b63565b9392505050565b60006107fb83836040518060400160405280601a81526020017f536166654d6174683a206469766973696f6e206279207a65726f0000000000008152506108ab565b6000828201838110156107fb5760405162461bcd60e51b815260040161025c90610ad6565b60006107fb83836040518060400160405280601e81526020017f536166654d6174683a207375627472616374696f6e206f766572666c6f7700008152506108e2565b600081836108cc5760405162461bcd60e51b815260040161025c9190610a3d565b5060008385816108d857fe5b0495945050505050565b600081848411156109065760405162461bcd60e51b815260040161025c9190610a3d565b505050900390565b80356001600160a01b038116811461029657600080fd5b600060208284031215610936578081fd5b6107fb838361090e565b60008060408385031215610952578081fd5b61095c848461090e565b915061096b846020850161090e565b90509250929050565b600080600060608486031215610988578081fd5b833561099381610c76565b925060208401356109a381610c76565b929592945050506040919091013590565b6000602082840312156109c5578081fd5b815180151581146107fb578182fd5b6000602082840312156109e5578081fd5b5035919050565b6001600160a01b0391909116815260200190565b6001600160a01b039384168152919092166020820152604081019190915260600190565b6001600160a01b03929092168252602082015260400190565b6000602080835283518082850152825b81811015610a6957858101830151858201604001528201610a4d565b81811115610a7a5783604083870101525b50601f01601f1916929092016040019392505050565b60208082526026908201527f4f776e61626c653a206e6577206f776e657220697320746865207a65726f206160408201526564647265737360d01b606082015260800190565b6020808252601b908201527f536166654d6174683a206164646974696f6e206f766572666c6f770000000000604082015260600190565b60208082526036908201527f436f726e46692053696d706c652053747261746567793a205661756c742057696040820152751d1a191c985dc8105b5bdd5b9d08115e18d95959195960521b606082015260800190565b60208082526021908201527f536166654d6174683a206d756c7469706c69636174696f6e206f766572666c6f6040820152607760f81b606082015260800190565b6020808252818101527f4f776e61626c653a2063616c6c6572206973206e6f7420746865206f776e6572604082015260600190565b6020808252602b908201527f436f726e46692053696d706c652053747261746567793a205661756c74204f6e60408201526a363c90233ab731ba34b7b760a91b606082015260800190565b60208082526029908201527f436f726e46692053696d706c652053747261746567793a2046756e6374696f6e60408201526808111a5cd8589b195960ba1b606082015260800190565b90815260200190565b6001600160a01b0381168114610c8b57600080fd5b5056fea2646970667358221220e6cfed31ebc093f905bcecad01d37276d088259d54274591c5cccd0f136dc30564736f6c634300060c0033",
  "bytecodeSha1": "7578e8eb2776e0373a59e7515364656fd400686f",
  "compiler": {
    "evm_version": "istanbul",
    "optimizer": {
      "enabled": true,
      "runs": 200
    },
    "version": "0.6.12+commit.27d51765"
  },
  "contractName": "SimpleStrategy",
  "language": "Solidity",
  "natspec": {
    "kind": "dev",
    "methods": {
      "owner()": {
        "details": "Returns the address of the current owner."
      },
      "renounceOwnership()": {
        "details": "Leaves the contract without owner. It will not be possible to call `onlyOwner` functions anymore. Can only be called by the current owner. NOTE: Renouncing ownership will leave the contract without an owner, thereby removing any functionality that is only available to the owner."
      },
      "transferOwnership(address)": {
        "details": "Transfers ownership of the contract to a new account (`newOwner`). Can only be called by the current owner."
      }
    },
    "version": 1
  },
  "opcodes": "PUSH1 0x80 PUSH1 0x40 MSTORE CALLVALUE DUP1 ISZERO PUSH2 0x10 JUMPI PUSH1 0x0 DUP1 REVERT JUMPDEST POP PUSH1 0x4 CALLDATASIZE LT PUSH2 0x116 JUMPI PUSH1 0x0 CALLDATALOAD PUSH1 0xE0 SHR DUP1 PUSH4 0x8D4E4FA8 GT PUSH2 0xA2 JUMPI DUP1 PUSH4 0xD7EEDD5E GT PUSH2 0x71 JUMPI DUP1 PUSH4 0xD7EEDD5E EQ PUSH2 0x1D7 JUMPI DUP1 PUSH4 0xD9CAED12 EQ PUSH2 0x1DF JUMPI DUP1 PUSH4 0xD9F2613E EQ PUSH2 0x1D7 JUMPI DUP1 PUSH4 0xE9403256 EQ PUSH2 0x1F2 JUMPI DUP1 PUSH4 0xF2FDE38B EQ PUSH2 0x205 JUMPI PUSH2 0x116 JUMP JUMPDEST DUP1 PUSH4 0x8D4E4FA8 EQ PUSH2 0x1B4 JUMPI DUP1 PUSH4 0x8DA5CB5B EQ PUSH2 0x1C7 JUMPI DUP1 PUSH4 0x9814278E EQ PUSH2 0x1CF JUMPI DUP1 PUSH4 0xA653A76C EQ PUSH2 0x1D7 JUMPI PUSH2 0x116 JUMP JUMPDEST DUP1 PUSH4 0x5017F9FB GT PUSH2 0xE9 JUMPI DUP1 PUSH4 0x5017F9FB EQ PUSH2 0x16B JUMPI DUP1 PUSH4 0x5A23ECB2 EQ PUSH2 0x17E JUMPI DUP1 PUSH4 0x5F6501AB EQ PUSH2 0x186 JUMPI DUP1 PUSH4 0x715018A6 EQ PUSH2 0x199 JUMPI DUP1 PUSH4 0x8340F549 EQ PUSH2 0x1A1 JUMPI PUSH2 0x116 JUMP JUMPDEST DUP1 PUSH4 0x28B9A81B EQ PUSH2 0x11B JUMPI DUP1 PUSH4 0x372500AB EQ PUSH2 0x139 JUMPI DUP1 PUSH4 0x423C485A EQ PUSH2 0x143 JUMPI DUP1 PUSH4 0x4C46EAAA EQ PUSH2 0x163 JUMPI JUMPDEST PUSH1 0x0 DUP1 REVERT JUMPDEST PUSH2 0x123 PUSH2 0x218 JUMP JUMPDEST PUSH1 0x40 MLOAD PUSH2 0x130 SWAP2 SWAP1 PUSH2 0x9EC JUMP JUMPDEST PUSH1 0x40 MLOAD DUP1 SWAP2 SUB SWAP1 RETURN JUMPDEST PUSH2 0x141 PUSH2 0x227 JUMP JUMPDEST STOP JUMPDEST PUSH2 0x156 PUSH2 0x151 CALLDATASIZE PUSH1 0x4 PUSH2 0x9D4 JUMP JUMPDEST PUSH2 0x27D JUMP JUMPDEST PUSH1 0x40 MLOAD PUSH2 0x130 SWAP2 SWAP1 PUSH2 0xC6D JUMP JUMPDEST PUSH2 0x156 PUSH2 0x29C JUMP JUMPDEST PUSH2 0x156 PUSH2 0x179 CALLDATASIZE PUSH1 0x4 PUSH2 0x9D4 JUMP JUMPDEST PUSH2 0x2A1 JUMP JUMPDEST PUSH2 0x156 PUSH2 0x2B4 JUMP JUMPDEST PUSH2 0x156 PUSH2 0x194 CALLDATASIZE PUSH1 0x4 PUSH2 0x940 JUMP JUMPDEST PUSH2 0x2B9 JUMP JUMPDEST PUSH2 0x141 PUSH2 0x2D6 JUMP JUMPDEST PUSH2 0x141 PUSH2 0x1AF CALLDATASIZE PUSH1 0x4 PUSH2 0x974 JUMP JUMPDEST PUSH2 0x355 JUMP JUMPDEST PUSH2 0x156 PUSH2 0x1C2 CALLDATASIZE PUSH1 0x4 PUSH2 0x9D4 JUMP JUMPDEST PUSH2 0x503 JUMP JUMPDEST PUSH2 0x123 PUSH2 0x516 JUMP JUMPDEST PUSH2 0x156 PUSH2 0x525 JUMP JUMPDEST PUSH2 0x156 PUSH2 0x52A JUMP JUMPDEST PUSH2 0x141 PUSH2 0x1ED CALLDATASIZE PUSH1 0x4 PUSH2 0x974 JUMP JUMPDEST PUSH2 0x530 JUMP JUMPDEST PUSH2 0x156 PUSH2 0x200 CALLDATASIZE PUSH1 0x4 PUSH2 0x925 JUMP JUMPDEST PUSH2 0x6F5 JUMP JUMPDEST PUSH2 0x141 PUSH2 0x213 CALLDATASIZE PUSH1 0x4 PUSH2 0x925 JUMP JUMPDEST PUSH2 0x707 JUMP JUMPDEST PUSH1 0x1 SLOAD PUSH1 0x1 PUSH1 0x1 PUSH1 0xA0 SHL SUB AND DUP2 JUMP JUMPDEST PUSH2 0x22F PUSH2 0x7BD JUMP JUMPDEST PUSH1 0x0 SLOAD PUSH1 0x1 PUSH1 0x1 PUSH1 0xA0 SHL SUB SWAP1 DUP2 AND SWAP2 AND EQ PUSH2 0x265 JUMPI PUSH1 0x40 MLOAD PUSH3 0x461BCD PUSH1 0xE5 SHL DUP2 MSTORE PUSH1 0x4 ADD PUSH2 0x25C SWAP1 PUSH2 0xBA4 JUMP JUMPDEST PUSH1 0x40 MLOAD DUP1 SWAP2 SUB SWAP1 REVERT JUMPDEST PUSH1 0x40 MLOAD PUSH3 0x461BCD PUSH1 0xE5 SHL DUP2 MSTORE PUSH1 0x4 ADD PUSH2 0x25C SWAP1 PUSH2 0xC24 JUMP JUMPDEST PUSH1 0x0 PUSH2 0x296 PUSH2 0x3E8 PUSH2 0x290 DUP5 PUSH1 0x5 PUSH2 0x7C1 JUMP JUMPDEST SWAP1 PUSH2 0x802 JUMP JUMPDEST SWAP3 SWAP2 POP POP JUMP JUMPDEST PUSH1 0x5 DUP2 JUMP JUMPDEST PUSH1 0x0 PUSH2 0x296 PUSH2 0x3E8 PUSH2 0x290 DUP5 PUSH1 0x7 PUSH2 0x7C1 JUMP JUMPDEST PUSH1 0x3 DUP2 JUMP JUMPDEST PUSH1 0x3 PUSH1 0x20 SWAP1 DUP2 MSTORE PUSH1 0x0 SWAP3 DUP4 MSTORE PUSH1 0x40 DUP1 DUP5 KECCAK256 SWAP1 SWAP2 MSTORE SWAP1 DUP3 MSTORE SWAP1 KECCAK256 SLOAD DUP2 JUMP JUMPDEST PUSH2 0x2DE PUSH2 0x7BD JUMP JUMPDEST PUSH1 0x0 SLOAD PUSH1 0x1 PUSH1 0x1 PUSH1 0xA0 SHL SUB SWAP1 DUP2 AND SWAP2 AND EQ PUSH2 0x30B JUMPI PUSH1 0x40 MLOAD PUSH3 0x461BCD PUSH1 0xE5 SHL DUP2 MSTORE PUSH1 0x4 ADD PUSH2 0x25C SWAP1 PUSH2 0xBA4 JUMP JUMPDEST PUSH1 0x0 DUP1 SLOAD PUSH1 0x40 MLOAD PUSH1 0x1 PUSH1 0x1 PUSH1 0xA0 SHL SUB SWAP1 SWAP2 AND SWAP1 PUSH32 0x8BE0079C531659141344CD1FD0A4F28419497F9722A3DAAFE3B4186F6B6457E0 SWAP1 DUP4 SWAP1 LOG3 PUSH1 0x0 DUP1 SLOAD PUSH1 0x1 PUSH1 0x1 PUSH1 0xA0 SHL SUB NOT AND SWAP1 SSTORE JUMP JUMPDEST PUSH1 0x1 SLOAD PUSH1 0x40 MLOAD PUSH4 0xF815C03D PUSH1 0xE0 SHL DUP2 MSTORE PUSH1 0x1 PUSH1 0x1 PUSH1 0xA0 SHL SUB SWAP1 SWAP2 AND SWAP1 PUSH4 0xF815C03D SWAP1 PUSH2 0x385 SWAP1 CALLER SWAP1 PUSH1 0x4 ADD PUSH2 0x9EC JUMP JUMPDEST PUSH1 0x20 PUSH1 0x40 MLOAD DUP1 DUP4 SUB DUP2 DUP7 DUP1 EXTCODESIZE ISZERO DUP1 ISZERO PUSH2 0x39D JUMPI PUSH1 0x0 DUP1 REVERT JUMPDEST POP GAS STATICCALL ISZERO DUP1 ISZERO PUSH2 0x3B1 JUMPI RETURNDATASIZE PUSH1 0x0 DUP1 RETURNDATACOPY RETURNDATASIZE PUSH1 0x0 REVERT JUMPDEST POP POP POP POP PUSH1 0x40 MLOAD RETURNDATASIZE PUSH1 0x1F NOT PUSH1 0x1F DUP3 ADD AND DUP3 ADD DUP1 PUSH1 0x40 MSTORE POP DUP2 ADD SWAP1 PUSH2 0x3D5 SWAP2 SWAP1 PUSH2 0x9B4 JUMP JUMPDEST PUSH2 0x3F1 JUMPI PUSH1 0x40 MLOAD PUSH3 0x461BCD PUSH1 0xE5 SHL DUP2 MSTORE PUSH1 0x4 ADD PUSH2 0x25C SWAP1 PUSH2 0xBD9 JUMP JUMPDEST DUP1 ISZERO PUSH2 0x4FE JUMPI PUSH1 0x40 MLOAD PUSH4 0x23B872DD PUSH1 0xE0 SHL DUP2 MSTORE PUSH1 0x1 PUSH1 0x1 PUSH1 0xA0 SHL SUB DUP4 AND SWAP1 PUSH4 0x23B872DD SWAP1 PUSH2 0x427 SWAP1 DUP7 SWAP1 ADDRESS SWAP1 DUP7 SWAP1 PUSH1 0x4 ADD PUSH2 0xA00 JUMP JUMPDEST PUSH1 0x20 PUSH1 0x40 MLOAD DUP1 DUP4 SUB DUP2 PUSH1 0x0 DUP8 DUP1 EXTCODESIZE ISZERO DUP1 ISZERO PUSH2 0x441 JUMPI PUSH1 0x0 DUP1 REVERT JUMPDEST POP GAS CALL ISZERO DUP1 ISZERO PUSH2 0x455 JUMPI RETURNDATASIZE PUSH1 0x0 DUP1 RETURNDATACOPY RETURNDATASIZE PUSH1 0x0 REVERT JUMPDEST POP POP POP POP PUSH1 0x40 MLOAD RETURNDATASIZE PUSH1 0x1F NOT PUSH1 0x1F DUP3 ADD AND DUP3 ADD DUP1 PUSH1 0x40 MSTORE POP DUP2 ADD SWAP1 PUSH2 0x479 SWAP2 SWAP1 PUSH2 0x9B4 JUMP JUMPDEST POP PUSH1 0x1 PUSH1 0x1 PUSH1 0xA0 SHL SUB DUP3 AND PUSH1 0x0 SWAP1 DUP2 MSTORE PUSH1 0x2 PUSH1 0x20 MSTORE PUSH1 0x40 SWAP1 KECCAK256 SLOAD PUSH2 0x49D SWAP1 DUP3 PUSH2 0x844 JUMP JUMPDEST PUSH1 0x1 PUSH1 0x1 PUSH1 0xA0 SHL SUB DUP4 AND PUSH1 0x0 DUP2 DUP2 MSTORE PUSH1 0x2 PUSH1 0x20 SWAP1 DUP2 MSTORE PUSH1 0x40 DUP1 DUP4 KECCAK256 SWAP5 SWAP1 SWAP5 SSTORE CALLER DUP3 MSTORE PUSH1 0x3 DUP2 MSTORE DUP4 DUP3 KECCAK256 SWAP3 DUP3 MSTORE SWAP2 SWAP1 SWAP2 MSTORE KECCAK256 SLOAD PUSH2 0x4D9 SWAP1 DUP3 PUSH2 0x844 JUMP JUMPDEST CALLER PUSH1 0x0 SWAP1 DUP2 MSTORE PUSH1 0x3 PUSH1 0x20 SWAP1 DUP2 MSTORE PUSH1 0x40 DUP1 DUP4 KECCAK256 PUSH1 0x1 PUSH1 0x1 PUSH1 0xA0 SHL SUB DUP8 AND DUP5 MSTORE SWAP1 SWAP2 MSTORE SWAP1 KECCAK256 SSTORE JUMPDEST POP POP POP JUMP JUMPDEST PUSH1 0x0 PUSH2 0x296 PUSH2 0x3E8 PUSH2 0x290 DUP5 PUSH1 0x3 PUSH2 0x7C1 JUMP JUMPDEST PUSH1 0x0 SLOAD PUSH1 0x1 PUSH1 0x1 PUSH1 0xA0 SHL SUB AND SWAP1 JUMP JUMPDEST PUSH1 0x7 DUP2 JUMP JUMPDEST PUSH2 0x3E8 DUP2 JUMP JUMPDEST PUSH1 0x1 SLOAD PUSH1 0x40 MLOAD PUSH4 0xF815C03D PUSH1 0xE0 SHL DUP2 MSTORE PUSH1 0x1 PUSH1 0x1 PUSH1 0xA0 SHL SUB SWAP1 SWAP2 AND SWAP1 PUSH4 0xF815C03D SWAP1 PUSH2 0x560 SWAP1 CALLER SWAP1 PUSH1 0x4 ADD PUSH2 0x9EC JUMP JUMPDEST PUSH1 0x20 PUSH1 0x40 MLOAD DUP1 DUP4 SUB DUP2 DUP7 DUP1 EXTCODESIZE ISZERO DUP1 ISZERO PUSH2 0x578 JUMPI PUSH1 0x0 DUP1 REVERT JUMPDEST POP GAS STATICCALL ISZERO DUP1 ISZERO PUSH2 0x58C JUMPI RETURNDATASIZE PUSH1 0x0 DUP1 RETURNDATACOPY RETURNDATASIZE PUSH1 0x0 REVERT JUMPDEST POP POP POP POP PUSH1 0x40 MLOAD RETURNDATASIZE PUSH1 0x1F NOT PUSH1 0x1F DUP3 ADD AND DUP3 ADD DUP1 PUSH1 0x40 MSTORE POP DUP2 ADD SWAP1 PUSH2 0x5B0 SWAP2 SWAP1 PUSH2 0x9B4 JUMP JUMPDEST PUSH2 0x5CC JUMPI PUSH1 0x40 MLOAD PUSH3 0x461BCD PUSH1 0xE5 SHL DUP2 MSTORE PUSH1 0x4 ADD PUSH2 0x25C SWAP1 PUSH2 0xBD9 JUMP JUMPDEST CALLER PUSH1 0x0 SWAP1 DUP2 MSTORE PUSH1 0x3 PUSH1 0x20 SWAP1 DUP2 MSTORE PUSH1 0x40 DUP1 DUP4 KECCAK256 PUSH1 0x1 PUSH1 0x1 PUSH1 0xA0 SHL SUB DUP7 AND DUP5 MSTORE SWAP1 SWAP2 MSTORE SWAP1 KECCAK256 SLOAD DUP2 GT ISZERO PUSH2 0x60F JUMPI PUSH1 0x40 MLOAD PUSH3 0x461BCD PUSH1 0xE5 SHL DUP2 MSTORE PUSH1 0x4 ADD PUSH2 0x25C SWAP1 PUSH2 0xB0D JUMP JUMPDEST DUP1 ISZERO PUSH2 0x4FE JUMPI PUSH1 0x40 MLOAD PUSH4 0xA9059CBB PUSH1 0xE0 SHL DUP2 MSTORE PUSH1 0x1 PUSH1 0x1 PUSH1 0xA0 SHL SUB DUP4 AND SWAP1 PUSH4 0xA9059CBB SWAP1 PUSH2 0x643 SWAP1 DUP7 SWAP1 DUP6 SWAP1 PUSH1 0x4 ADD PUSH2 0xA24 JUMP JUMPDEST PUSH1 0x20 PUSH1 0x40 MLOAD DUP1 DUP4 SUB DUP2 PUSH1 0x0 DUP8 DUP1 EXTCODESIZE ISZERO DUP1 ISZERO PUSH2 0x65D JUMPI PUSH1 0x0 DUP1 REVERT JUMPDEST POP GAS CALL ISZERO DUP1 ISZERO PUSH2 0x671 JUMPI RETURNDATASIZE PUSH1 0x0 DUP1 RETURNDATACOPY RETURNDATASIZE PUSH1 0x0 REVERT JUMPDEST POP POP POP POP PUSH1 0x40 MLOAD RETURNDATASIZE PUSH1 0x1F NOT PUSH1 0x1F DUP3 ADD AND DUP3 ADD DUP1 PUSH1 0x40 MSTORE POP DUP2 ADD SWAP1 PUSH2 0x695 SWAP2 SWAP1 PUSH2 0x9B4 JUMP JUMPDEST POP PUSH1 0x1 PUSH1 0x1 PUSH1 0xA0 SHL SUB DUP3 AND PUSH1 0x0 SWAP1 DUP2 MSTORE PUSH1 0x2 PUSH1 0x20 MSTORE PUSH1 0x40 SWAP1 KECCAK256 SLOAD PUSH2 0x6B9 SWAP1 DUP3 PUSH2 0x869 JUMP JUMPDEST PUSH1 0x1 PUSH1 0x1 PUSH1 0xA0 SHL SUB DUP4 AND PUSH1 0x0 DUP2 DUP2 MSTORE PUSH1 0x2 PUSH1 0x20 SWAP1 DUP2 MSTORE PUSH1 0x40 DUP1 DUP4 KECCAK256 SWAP5 SWAP1 SWAP5 SSTORE CALLER DUP3 MSTORE PUSH1 0x3 DUP2 MSTORE DUP4 DUP3 KECCAK256 SWAP3 DUP3 MSTORE SWAP2 SWAP1 SWAP2 MSTORE KECCAK256 SLOAD PUSH2 0x4D9 SWAP1 DUP3 PUSH2 0x869 JUMP JUMPDEST PUSH1 0x2 PUSH1 0x20 MSTORE PUSH1 0x0 SWAP1 DUP2 MSTORE PUSH1 0x40 SWAP1 KECCAK256 SLOAD DUP2 JUMP JUMPDEST PUSH2 0x70F PUSH2 0x7BD JUMP JUMPDEST PUSH1 0x0 SLOAD PUSH1 0x1 PUSH1 0x1 PUSH1 0xA0 SHL SUB SWAP1 DUP2 AND SWAP2 AND EQ PUSH2 0x73C JUMPI PUSH1 0x40 MLOAD PUSH3 0x461BCD PUSH1 0xE5 SHL DUP2 MSTORE PUSH1 0x4 ADD PUSH2 0x25C SWAP1 PUSH2 0xBA4 JUMP JUMPDEST PUSH1 0x1 PUSH1 0x1 PUSH1 0xA0 SHL SUB DUP2 AND PUSH2 0x762 JUMPI PUSH1 0x40 MLOAD PUSH3 0x461BCD PUSH1 0xE5 SHL DUP2 MSTORE PUSH1 0x4 ADD PUSH2 0x25C SWAP1 PUSH2 0xA90 JUMP JUMPDEST PUSH1 0x0 DUP1 SLOAD PUSH1 0x40 MLOAD PUSH1 0x1 PUSH1 0x1 PUSH1 0xA0 SHL SUB DUP1 DUP6 AND SWAP4 SWAP3 AND SWAP2 PUSH32 0x8BE0079C531659141344CD1FD0A4F28419497F9722A3DAAFE3B4186F6B6457E0 SWAP2 LOG3 PUSH1 0x0 DUP1 SLOAD PUSH1 0x1 PUSH1 0x1 PUSH1 0xA0 SHL SUB NOT AND PUSH1 0x1 PUSH1 0x1 PUSH1 0xA0 SHL SUB SWAP3 SWAP1 SWAP3 AND SWAP2 SWAP1 SWAP2 OR SWAP1 SSTORE JUMP JUMPDEST CALLER SWAP1 JUMP JUMPDEST PUSH1 0x0 DUP3 PUSH2 0x7D0 JUMPI POP PUSH1 0x0 PUSH2 0x296 JUMP JUMPDEST DUP3 DUP3 MUL DUP3 DUP5 DUP3 DUP2 PUSH2 0x7DD JUMPI INVALID JUMPDEST DIV EQ PUSH2 0x7FB JUMPI PUSH1 0x40 MLOAD PUSH3 0x461BCD PUSH1 0xE5 SHL DUP2 MSTORE PUSH1 0x4 ADD PUSH2 0x25C SWAP1 PUSH2 0xB63 JUMP JUMPDEST SWAP4 SWAP3 POP POP POP JUMP JUMPDEST PUSH1 0x0 PUSH2 0x7FB DUP4 DUP4 PUSH1 0x40 MLOAD DUP1 PUSH1 0x40 ADD PUSH1 0x40 MSTORE DUP1 PUSH1 0x1A DUP2 MSTORE PUSH1 0x20 ADD PUSH32 0x536166654D6174683A206469766973696F6E206279207A65726F000000000000 DUP2 MSTORE POP PUSH2 0x8AB JUMP JUMPDEST PUSH1 0x0 DUP3 DUP3 ADD DUP4 DUP2 LT ISZERO PUSH2 0x7FB JUMPI PUSH1 0x40 MLOAD PUSH3 0x461BCD PUSH1 0xE5 SHL DUP2 MSTORE PUSH1 0x4 ADD PUSH2 0x25C SWAP1 PUSH2 0xAD6 JUMP JUMPDEST PUSH1 0x0 PUSH2 0x7FB DUP4 DUP4 PUSH1 0x40 MLOAD DUP1 PUSH1 0x40 ADD PUSH1 0x40 MSTORE DUP1 PUSH1 0x1E DUP2 MSTORE PUSH1 0x20 ADD PUSH32 0x536166654D6174683A207375627472616374696F6E206F766572666C6F770000 DUP2 MSTORE POP PUSH2 0x8E2 JUMP JUMPDEST PUSH1 0x0 DUP2 DUP4 PUSH2 0x8CC JUMPI PUSH1 0x40 MLOAD PUSH3 0x461BCD PUSH1 0xE5 SHL DUP2 MSTORE PUSH1 0x4 ADD PUSH2 0x25C SWAP2 SWAP1 PUSH2 0xA3D JUMP JUMPDEST POP PUSH1 0x0 DUP4 DUP6 DUP2 PUSH2 0x8D8 JUMPI INVALID JUMPDEST DIV SWAP6 SWAP5 POP POP POP POP POP JUMP JUMPDEST PUSH1 0x0 DUP2 DUP5 DUP5 GT ISZERO PUSH2 0x906 JUMPI PUSH1 0x40 MLOAD PUSH3 0x461BCD PUSH1 0xE5 SHL DUP2 MSTORE PUSH1 0x4 ADD PUSH2 0x25C SWAP2 SWAP1 PUSH2 0xA3D JUMP JUMPDEST POP POP POP SWAP1 SUB SWAP1 JUMP JUMPDEST DUP1 CALLDATALOAD PUSH1 0x1 PUSH1 0x1 PUSH1 0xA0 SHL SUB DUP2 AND DUP2 EQ PUSH2 0x296 JUMPI PUSH1 0x0 DUP1 REVERT JUMPDEST PUSH1 0x0 PUSH1 0x20 DUP3 DUP5 SUB SLT ISZERO PUSH2 0x936 JUMPI DUP1 DUP2 REVERT JUMPDEST PUSH2 0x7FB DUP4 DUP4 PUSH2 0x90E JUMP JUMPDEST PUSH1 0x0 DUP1 PUSH1 0x40 DUP4 DUP6 SUB SLT ISZERO PUSH2 0x952 JUMPI DUP1 DUP2 REVERT JUMPDEST PUSH2 0x95C DUP5 DUP5 PUSH2 0x90E JUMP JUMPDEST SWAP2 POP PUSH2 0x96B DUP5 PUSH1 0x20 DUP6 ADD PUSH2 0x90E JUMP JUMPDEST SWAP1 POP SWAP3 POP SWAP3 SWAP1 POP JUMP JUMPDEST PUSH1 0x0 DUP1 PUSH1 0x0 PUSH1 0x60 DUP5 DUP7 SUB SLT ISZERO PUSH2 0x988 JUMPI DUP1 DUP2 REVERT JUMPDEST DUP4 CALLDATALOAD PUSH2 0x993 DUP2 PUSH2 0xC76 JUMP JUMPDEST SWAP3 POP PUSH1 0x20 DUP5 ADD CALLDATALOAD PUSH2 0x9A3 DUP2 PUSH2 0xC76 JUMP JUMPDEST SWAP3 SWAP6 SWAP3 SWAP5 POP POP POP PUSH1 0x40 SWAP2 SWAP1 SWAP2 ADD CALLDATALOAD SWAP1 JUMP JUMPDEST PUSH1 0x0 PUSH1 0x20 DUP3 DUP5 SUB SLT ISZERO PUSH2 0x9C5 JUMPI DUP1 DUP2 REVERT JUMPDEST DUP2 MLOAD DUP1 ISZERO ISZERO DUP2 EQ PUSH2 0x7FB JUMPI DUP2 DUP3 REVERT JUMPDEST PUSH1 0x0 PUSH1 0x20 DUP3 DUP5 SUB SLT ISZERO PUSH2 0x9E5 JUMPI DUP1 DUP2 REVERT JUMPDEST POP CALLDATALOAD SWAP2 SWAP1 POP JUMP JUMPDEST PUSH1 0x1 PUSH1 0x1 PUSH1 0xA0 SHL SUB SWAP2 SWAP1 SWAP2 AND DUP2 MSTORE PUSH1 0x20 ADD SWAP1 JUMP JUMPDEST PUSH1 0x1 PUSH1 0x1 PUSH1 0xA0 SHL SUB SWAP4 DUP5 AND DUP2 MSTORE SWAP2 SWAP1 SWAP3 AND PUSH1 0x20 DUP3 ADD MSTORE PUSH1 0x40 DUP2 ADD SWAP2 SWAP1 SWAP2 MSTORE PUSH1 0x60 ADD SWAP1 JUMP JUMPDEST PUSH1 0x1 PUSH1 0x1 PUSH1 0xA0 SHL SUB SWAP3 SWAP1 SWAP3 AND DUP3 MSTORE PUSH1 0x20 DUP3 ADD MSTORE PUSH1 0x40 ADD SWAP1 JUMP JUMPDEST PUSH1 0x0 PUSH1 0x20 DUP1 DUP4 MSTORE DUP4 MLOAD DUP1 DUP3 DUP6 ADD MSTORE DUP3 JUMPDEST DUP2 DUP2 LT ISZERO PUSH2 0xA69 JUMPI DUP6 DUP2 ADD DUP4 ADD MLOAD DUP6 DUP3 ADD PUSH1 0x40 ADD MSTORE DUP3 ADD PUSH2 0xA4D JUMP JUMPDEST DUP2 DUP2 GT ISZERO PUSH2 0xA7A JUMPI DUP4 PUSH1 0x40 DUP4 DUP8 ADD ADD MSTORE JUMPDEST POP PUSH1 0x1F ADD PUSH1 0x1F NOT AND SWAP3 SWAP1 SWAP3 ADD PUSH1 0x40 ADD SWAP4 SWAP3 POP POP POP JUMP JUMPDEST PUSH1 0x20 DUP1 DUP3 MSTORE PUSH1 0x26 SWAP1 DUP3 ADD MSTORE PUSH32 0x4F776E61626C653A206E6577206F776E657220697320746865207A65726F2061 PUSH1 0x40 DUP3 ADD MSTORE PUSH6 0x646472657373 PUSH1 0xD0 SHL PUSH1 0x60 DUP3 ADD MSTORE PUSH1 0x80 ADD SWAP1 JUMP JUMPDEST PUSH1 0x20 DUP1 DUP3 MSTORE PUSH1 0x1B SWAP1 DUP3 ADD MSTORE PUSH32 0x536166654D6174683A206164646974696F6E206F766572666C6F770000000000 PUSH1 0x40 DUP3 ADD MSTORE PUSH1 0x60 ADD SWAP1 JUMP JUMPDEST PUSH1 0x20 DUP1 DUP3 MSTORE PUSH1 0x36 SWAP1 DUP3 ADD MSTORE PUSH32 0x436F726E46692053696D706C652053747261746567793A205661756C74205769 PUSH1 0x40 DUP3 ADD MSTORE PUSH22 0x1D1A191C985DC8105B5BDD5B9D08115E18D959591959 PUSH1 0x52 SHL PUSH1 0x60 DUP3 ADD MSTORE PUSH1 0x80 ADD SWAP1 JUMP JUMPDEST PUSH1 0x20 DUP1 DUP3 MSTORE PUSH1 0x21 SWAP1 DUP3 ADD MSTORE PUSH32 0x536166654D6174683A206D756C7469706C69636174696F6E206F766572666C6F PUSH1 0x40 DUP3 ADD MSTORE PUSH1 0x77 PUSH1 0xF8 SHL PUSH1 0x60 DUP3 ADD MSTORE PUSH1 0x80 ADD SWAP1 JUMP JUMPDEST PUSH1 0x20 DUP1 DUP3 MSTORE DUP2 DUP2 ADD MSTORE PUSH32 0x4F776E61626C653A2063616C6C6572206973206E6F7420746865206F776E6572 PUSH1 0x40 DUP3 ADD MSTORE PUSH1 0x60 ADD SWAP1 JUMP JUMPDEST PUSH1 0x20 DUP1 DUP3 MSTORE PUSH1 0x2B SWAP1 DUP3 ADD MSTORE PUSH32 0x436F726E46692053696D706C652053747261746567793A205661756C74204F6E PUSH1 0x40 DUP3 ADD MSTORE PUSH11 0x363C90233AB731BA34B7B7 PUSH1 0xA9 SHL PUSH1 0x60 DUP3 ADD MSTORE PUSH1 0x80 ADD SWAP1 JUMP JUMPDEST PUSH1 0x20 DUP1 DUP3 MSTORE PUSH1 0x29 SWAP1 DUP3 ADD MSTORE PUSH32 0x436F726E46692053696D706C652053747261746567793A2046756E6374696F6E PUSH1 0x40 DUP3 ADD MSTORE PUSH9 0x8111A5CD8589B1959 PUSH1 0xBA SHL PUSH1 0x60 DUP3 ADD MSTORE PUSH1 0x80 ADD SWAP1 JUMP JUMPDEST SWAP1 DUP2 MSTORE PUSH1 0x20 ADD SWAP1 JUMP JUMPDEST PUSH1 0x1 PUSH1 0x1 PUSH1 0xA0 SHL SUB DUP2 AND DUP2 EQ PUSH2 0xC8B JUMPI PUSH1 0x0 DUP1 REVERT JUMPDEST POP JUMP INVALID LOG2 PUSH5 0x6970667358 0x22 SLT KECCAK256 0xE6 0xCF 0xED BALANCE 0xEB 0xC0 SWAP4 0xF9 SDIV 0xBC 0xEC 0xAD ADD 0xD3 PUSH19 0x76D088259D54274591C5CCCD0F136DC3056473 PUSH16 0x6C634300060C00330000000000000000 ",
  "sha1": "50b717486593965b7c75269c646fd3a5d6a325d3",
  "source": "// SPDX-License-Identifier: MIT\npragma solidity 0.6.12;\n\nimport \"../../interfaces/ISettings.sol\";\nimport \"../openzeppelin/contracts/access/Ownable.sol\";\nimport \"../openzeppelin/contracts/token/ERC20/SafeERC20.sol\";\n\n\n\npragma experimental ABIEncoderV2;\n\ncontract SimpleStrategy is Ownable {\n    using SafeERC20 for IERC20;\n    using SafeMath for uint256;\n\n    ISettings public Settings;\n    \n    mapping(address => uint256) public totalDeposits;\n\n    mapping(address => mapping(address => uint256)) public vaultDeposits;\n\n    uint256 public constant DEPOSIT_FEE_POINTS = 5;\n    uint256 public constant DEPOSIT_FEE_BASE_POINTS = 1000;\n    uint256 public constant FILLER_FEE_POINTS = 3;\n    uint256 public constant FILLER_FEE_BASE_POINTS = 1000;\n    uint256 public constant TX_FEE_POINTS = 7;\n    uint256 public constant TX_FEE_BASE_POINTS = 1000;\n\n\n    modifier onlyVault {\n        require(Settings.vault(msg.sender), \"CornFi Simple Strategy: Vault Only Function\");\n      _;\n   }\n\n\n    constructor(ISettings _settings) public {\n        Settings = _settings;\n    }\n\n\n    function depositFee(uint256 _amountIn) public view returns (uint256) {\n        return _amountIn.mul(DEPOSIT_FEE_POINTS).div(DEPOSIT_FEE_BASE_POINTS);\n    }\n\n\n    function txFee(uint256 _amountIn) public view returns (uint256) {\n        return _amountIn.mul(TX_FEE_POINTS).div(TX_FEE_BASE_POINTS);\n    }\n\n\n    function fillerFee(uint256 _amountIn) public view returns (uint256) {\n        return _amountIn.mul(FILLER_FEE_POINTS).div(FILLER_FEE_BASE_POINTS);\n    }\n\n\n    function deposit(address _from, address _token, uint256 _amount) public onlyVault {\n        if(_amount > 0) {\n            IERC20(_token).transferFrom(_from, address(this), _amount);\n            totalDeposits[_token] = totalDeposits[_token].add(_amount);\n            vaultDeposits[msg.sender][_token] = vaultDeposits[msg.sender][_token].add(_amount);\n        }\n    }\n\n\n    function withdraw(address _from, address _token, uint256 _amount) public onlyVault {\n        // This prevents the owner from creating a malicious vault that could withdraw all tokens\n        require(_amount <= vaultDeposits[msg.sender][_token], \"CornFi Simple Strategy: Vault Withdraw Amount Exceeded\");\n        \n        if(_amount > 0) {\n            IERC20(_token).transfer(_from, _amount);\n            totalDeposits[_token] = totalDeposits[_token].sub(_amount);\n            vaultDeposits[msg.sender][_token] = vaultDeposits[msg.sender][_token].sub(_amount);\n        }\n    }\n\n\n    function claimRewards() public onlyOwner {\n        revert(\"CornFi Simple Strategy: Function Disabled\");\n    }\n}",
  "sourcePath": "contracts/strategies/SimpleStrategy.sol",
  "type": "contract"
}