{"abi":[{"inputs":[{"internalType":"string","name":"name_","type":"string"},{"internalType":"string","name":"symbol_","type":"string"},{"internalType":"string","name":"URI_","type":"string"}],"stateMutability":"nonpayable","type":"constructor","name":"constructor"},{"anonymous":false,"inputs":[{"indexed":true,"internalType":"address","name":"owner","type":"address"},{"indexed":true,"internalType":"address","name":"approved","type":"address"},{"indexed":true,"internalType":"uint256","name":"tokenId","type":"uint256"}],"name":"Approval","type":"event"},{"anonymous":false,"inputs":[{"indexed":true,"internalType":"address","name":"owner","type":"address"},{"indexed":true,"internalType":"address","name":"operator","type":"address"},{"indexed":false,"internalType":"bool","name":"approved","type":"bool"}],"name":"ApprovalForAll","type":"event"},{"anonymous":false,"inputs":[{"indexed":true,"internalType":"address","name":"previousOwner","type":"address"},{"indexed":true,"internalType":"address","name":"newOwner","type":"address"}],"name":"OwnershipTransferred","type":"event"},{"anonymous":false,"inputs":[{"indexed":false,"internalType":"address","name":"account","type":"address"}],"name":"Paused","type":"event"},{"anonymous":false,"inputs":[{"indexed":true,"internalType":"address","name":"from","type":"address"},{"indexed":true,"internalType":"address","name":"to","type":"address"},{"indexed":true,"internalType":"uint256","name":"tokenId","type":"uint256"}],"name":"Transfer","type":"event"},{"anonymous":false,"inputs":[{"indexed":false,"internalType":"address","name":"account","type":"address"}],"name":"Unpaused","type":"event"},{"inputs":[{"internalType":"address","name":"to","type":"address"},{"internalType":"uint256","name":"tokenId","type":"uint256"}],"name":"approve","outputs":[],"stateMutability":"nonpayable","type":"function"},{"inputs":[{"internalType":"address","name":"owner","type":"address"}],"name":"balanceOf","outputs":[{"internalType":"uint256","name":"","type":"uint256"}],"stateMutability":"view","type":"function"},{"inputs":[],"name":"businessCardURI","outputs":[{"internalType":"string","name":"","type":"string"}],"stateMutability":"view","type":"function"},{"inputs":[{"internalType":"uint256","name":"tokenId","type":"uint256"}],"name":"getApproved","outputs":[{"internalType":"address","name":"","type":"address"}],"stateMutability":"view","type":"function"},{"inputs":[{"internalType":"address","name":"owner","type":"address"},{"internalType":"address","name":"operator","type":"address"}],"name":"isApprovedForAll","outputs":[{"internalType":"bool","name":"","type":"bool"}],"stateMutability":"view","type":"function"},{"inputs":[],"name":"mint","outputs":[],"stateMutability":"nonpayable","type":"function"},{"inputs":[],"name":"name","outputs":[{"internalType":"string","name":"","type":"string"}],"stateMutability":"view","type":"function"},{"inputs":[],"name":"owner","outputs":[{"internalType":"address","name":"","type":"address"}],"stateMutability":"view","type":"function"},{"inputs":[{"internalType":"uint256","name":"tokenId","type":"uint256"}],"name":"ownerOf","outputs":[{"internalType":"address","name":"","type":"address"}],"stateMutability":"view","type":"function"},{"inputs":[],"name":"pause","outputs":[],"stateMutability":"nonpayable","type":"function"},{"inputs":[],"name":"paused","outputs":[{"internalType":"bool","name":"","type":"bool"}],"stateMutability":"view","type":"function"},{"inputs":[],"name":"renounceOwnership","outputs":[],"stateMutability":"nonpayable","type":"function"},{"inputs":[{"internalType":"address","name":"from","type":"address"},{"internalType":"address","name":"to","type":"address"},{"internalType":"uint256","name":"tokenId","type":"uint256"}],"name":"safeTransferFrom","outputs":[],"stateMutability":"nonpayable","type":"function"},{"inputs":[{"internalType":"address","name":"from","type":"address"},{"internalType":"address","name":"to","type":"address"},{"internalType":"uint256","name":"tokenId","type":"uint256"},{"internalType":"bytes","name":"_data","type":"bytes"}],"name":"safeTransferFrom","outputs":[],"stateMutability":"nonpayable","type":"function"},{"inputs":[{"internalType":"address","name":"operator","type":"address"},{"internalType":"bool","name":"approved","type":"bool"}],"name":"setApprovalForAll","outputs":[],"stateMutability":"nonpayable","type":"function"},{"inputs":[{"internalType":"bytes4","name":"interfaceId","type":"bytes4"}],"name":"supportsInterface","outputs":[{"internalType":"bool","name":"","type":"bool"}],"stateMutability":"view","type":"function"},{"inputs":[],"name":"symbol","outputs":[{"internalType":"string","name":"","type":"string"}],"stateMutability":"view","type":"function"},{"inputs":[{"internalType":"uint256","name":"tokenId","type":"uint256"}],"name":"tokenURI","outputs":[{"internalType":"string","name":"","type":"string"}],"stateMutability":"view","type":"function"},{"inputs":[],"name":"totalSupply","outputs":[{"internalType":"uint256","name":"","type":"uint256"}],"stateMutability":"view","type":"function"},{"inputs":[{"internalType":"address","name":"from","type":"address"},{"internalType":"address","name":"to","type":"address"},{"internalType":"uint256","name":"tokenId","type":"uint256"}],"name":"transferFrom","outputs":[],"stateMutability":"nonpayable","type":"function"},{"inputs":[{"internalType":"address","name":"newOwner","type":"address"}],"name":"transferOwnership","outputs":[],"stateMutability":"nonpayable","type":"function"},{"inputs":[],"name":"unpause","outputs":[],"stateMutability":"nonpayable","type":"function"}],"bytecode":"60806040523480156200001157600080fd5b5060405162001bd238038062001bd2833981016040819052620000349162000267565b8251839083906200004d906000906020850190620000f4565b50805162000063906001906020840190620000f4565b50506006805460ff19169055506200007b336200009a565b805162000090906008906020840190620000f4565b5050505062000335565b600680546001600160a01b03838116610100818102610100600160a81b031985161790945560405193909204169182907f8be0079c531659141344cd1fd0a4f28419497f9722a3daafe3b4186f6b6457e090600090a35050565b8280546200010290620002f8565b90600052602060002090601f01602090048101928262000126576000855562000171565b82601f106200014157805160ff191683800117855562000171565b8280016001018555821562000171579182015b828111156200017157825182559160200191906001019062000154565b506200017f92915062000183565b5090565b5b808211156200017f576000815560010162000184565b634e487b7160e01b600052604160045260246000fd5b600082601f830112620001c257600080fd5b81516001600160401b0380821115620001df57620001df6200019a565b604051601f8301601f19908116603f011681019082821181831017156200020a576200020a6200019a565b816040528381526020925086838588010111156200022757600080fd5b600091505b838210156200024b57858201830151818301840152908201906200022c565b838211156200025d5760008385830101525b9695505050505050565b6000806000606084860312156200027d57600080fd5b83516001600160401b03808211156200029557600080fd5b620002a387838801620001b0565b94506020860151915080821115620002ba57600080fd5b620002c887838801620001b0565b93506040860151915080821115620002df57600080fd5b50620002ee86828701620001b0565b9150509250925092565b600181811c908216806200030d57607f821691505b602082108114156200032f57634e487b7160e01b600052602260045260246000fd5b50919050565b61188d80620003456000396000f3fe608060405234801561001057600080fd5b50600436106101425760003560e01c806370a08231116100b8578063a22cb4651161007c578063a22cb46514610270578063b88d4fde14610283578063baa5faf814610296578063c87b56dd1461029e578063e985e9c5146102b1578063f2fde38b146102ed57600080fd5b806370a082311461022f578063715018a6146102425780638456cb591461024a5780638da5cb5b1461025257806395d89b411461026857600080fd5b806318160ddd1161010a57806318160ddd146101cc57806323b872dd146101e35780633f4ba83a146101f657806342842e0e146101fe5780635c975abb146102115780636352211e1461021c57600080fd5b806301ffc9a71461014757806306fdde031461016f578063081812fc14610184578063095ea7b3146101af5780631249c58b146101c4575b600080fd5b61015a610155366004611368565b610300565b60405190151581526020015b60405180910390f35b610177610352565b60405161016691906113dd565b6101976101923660046113f0565b6103e4565b6040516001600160a01b039091168152602001610166565b6101c26101bd366004611425565b61047e565b005b6101c2610594565b6101d560075481565b604051908152602001610166565b6101c26101f136600461144f565b6105fb565b6101c261062c565b6101c261020c36600461144f565b610664565b60065460ff1661015a565b61019761022a3660046113f0565b61067f565b6101d561023d36600461148b565b6106f6565b6101c261077d565b6101c26107b7565b60065461010090046001600160a01b0316610197565b6101776107ef565b6101c261027e3660046114a6565b6107fe565b6101c26102913660046114f8565b61080d565b610177610845565b6101776102ac3660046113f0565b6108d3565b61015a6102bf3660046115d4565b6001600160a01b03918216600090815260056020908152604080832093909416825291909152205460ff1690565b6101c26102fb36600461148b565b6109bb565b60006001600160e01b031982166380ac58cd60e01b148061033157506001600160e01b03198216635b5e139f60e01b145b8061034c57506301ffc9a760e01b6001600160e01b03198316145b92915050565b60606000805461036190611607565b80601f016020809104026020016040519081016040528092919081815260200182805461038d90611607565b80156103da5780601f106103af576101008083540402835291602001916103da565b820191906000526020600020905b8154815290600101906020018083116103bd57829003601f168201915b5050505050905090565b6000818152600260205260408120546001600160a01b03166104625760405162461bcd60e51b815260206004820152602c60248201527f4552433732313a20617070726f76656420717565727920666f72206e6f6e657860448201526b34b9ba32b73a103a37b5b2b760a11b60648201526084015b60405180910390fd5b506000908152600460205260409020546001600160a01b031690565b60006104898261067f565b9050806001600160a01b0316836001600160a01b031614156104f75760405162461bcd60e51b815260206004820152602160248201527f4552433732313a20617070726f76616c20746f2063757272656e74206f776e656044820152603960f91b6064820152608401610459565b336001600160a01b0382161480610513575061051381336102bf565b6105855760405162461bcd60e51b815260206004820152603860248201527f4552433732313a20617070726f76652063616c6c6572206973206e6f74206f7760448201527f6e6572206e6f7220617070726f76656420666f7220616c6c00000000000000006064820152608401610459565b61058f8383610a5c565b505050565b60065460ff16156105da5760405162461bcd60e51b815260206004820152601060248201526f14185d5cd8589b194e881c185d5cd95960821b6044820152606401610459565b600780546105f99133919060006105f083611658565b91905055610aca565b565b6106053382610ae4565b6106215760405162461bcd60e51b815260040161045990611673565b61058f838383610bdb565b6006546001600160a01b0361010090910416331461065c5760405162461bcd60e51b8152600401610459906116c4565b6105f9610d77565b61058f8383836040518060200160405280600081525061080d565b6000818152600260205260408120546001600160a01b03168061034c5760405162461bcd60e51b815260206004820152602960248201527f4552433732313a206f776e657220717565727920666f72206e6f6e657869737460448201526832b73a103a37b5b2b760b91b6064820152608401610459565b60006001600160a01b0382166107615760405162461bcd60e51b815260206004820152602a60248201527f4552433732313a2062616c616e636520717565727920666f7220746865207a65604482015269726f206164647265737360b01b6064820152608401610459565b506001600160a01b031660009081526003602052604090205490565b6006546001600160a01b036101009091041633146107ad5760405162461bcd60e51b8152600401610459906116c4565b6105f96000610e0a565b6006546001600160a01b036101009091041633146107e75760405162461bcd60e51b8152600401610459906116c4565b6105f9610e64565b60606001805461036190611607565b610809338383610edf565b5050565b6108173383610ae4565b6108335760405162461bcd60e51b815260040161045990611673565b61083f84848484610fae565b50505050565b6008805461085290611607565b80601f016020809104026020016040519081016040528092919081815260200182805461087e90611607565b80156108cb5780601f106108a0576101008083540402835291602001916108cb565b820191906000526020600020905b8154815290600101906020018083116108ae57829003601f168201915b505050505081565b6000818152600260205260409020546060906001600160a01b03166109525760405162461bcd60e51b815260206004820152602f60248201527f4552433732314d657461646174613a2055524920717565727920666f72206e6f60448201526e3732bc34b9ba32b73a103a37b5b2b760891b6064820152608401610459565b600061096960408051602081019091526000815290565b9050600081511161098957604051806020016040528060008152506109b4565b8061099384610fe1565b6040516020016109a49291906116f9565b6040516020818303038152906040525b9392505050565b6006546001600160a01b036101009091041633146109eb5760405162461bcd60e51b8152600401610459906116c4565b6001600160a01b038116610a505760405162461bcd60e51b815260206004820152602660248201527f4f776e61626c653a206e6577206f776e657220697320746865207a65726f206160448201526564647265737360d01b6064820152608401610459565b610a5981610e0a565b50565b600081815260046020526040902080546001600160a01b0319166001600160a01b0384169081179091558190610a918261067f565b6001600160a01b03167f8c5be1e5ebec7d5bd14f71427d1e84f3dd0314c0f7b2291e5b200ac8c7c3b92560405160405180910390a45050565b6108098282604051806020016040528060008152506110df565b6000818152600260205260408120546001600160a01b0316610b5d5760405162461bcd60e51b815260206004820152602c60248201527f4552433732313a206f70657261746f7220717565727920666f72206e6f6e657860448201526b34b9ba32b73a103a37b5b2b760a11b6064820152608401610459565b6000610b688361067f565b9050806001600160a01b0316846001600160a01b03161480610ba35750836001600160a01b0316610b98846103e4565b6001600160a01b0316145b80610bd357506001600160a01b0380821660009081526005602090815260408083209388168352929052205460ff165b949350505050565b826001600160a01b0316610bee8261067f565b6001600160a01b031614610c525760405162461bcd60e51b815260206004820152602560248201527f4552433732313a207472616e736665722066726f6d20696e636f72726563742060448201526437bbb732b960d91b6064820152608401610459565b6001600160a01b038216610cb45760405162461bcd60e51b8152602060048201526024808201527f4552433732313a207472616e7366657220746f20746865207a65726f206164646044820152637265737360e01b6064820152608401610459565b610cbf600082610a5c565b6001600160a01b0383166000908152600360205260408120805460019290610ce8908490611728565b90915550506001600160a01b0382166000908152600360205260408120805460019290610d1690849061173f565b909155505060008181526002602052604080822080546001600160a01b0319166001600160a01b0386811691821790925591518493918716917fddf252ad1be2c89b69c2b068fc378daa952ba7f163c4a11628f55a4df523b3ef91a4505050565b60065460ff16610dc05760405162461bcd60e51b815260206004820152601460248201527314185d5cd8589b194e881b9bdd081c185d5cd95960621b6044820152606401610459565b6006805460ff191690557f5db9ee0a495bf2e6ff9c91a7834c1ba4fdd244a5e8aa4e537bd38aeae4b073aa335b6040516001600160a01b03909116815260200160405180910390a1565b600680546001600160a01b03838116610100818102610100600160a81b031985161790945560405193909204169182907f8be0079c531659141344cd1fd0a4f28419497f9722a3daafe3b4186f6b6457e090600090a35050565b60065460ff1615610eaa5760405162461bcd60e51b815260206004820152601060248201526f14185d5cd8589b194e881c185d5cd95960821b6044820152606401610459565b6006805460ff191660011790557f62e78cea01bee320cd4e420270b5ea74000d11b0c9f74754ebdbfc544b05a258610ded3390565b816001600160a01b0316836001600160a01b03161415610f415760405162461bcd60e51b815260206004820152601960248201527f4552433732313a20617070726f766520746f2063616c6c6572000000000000006044820152606401610459565b6001600160a01b03838116600081815260056020908152604080832094871680845294825291829020805460ff191686151590811790915591519182527f17307eab39ab6107e8899845ad3d59bd9653f200f220920489ca2b5937696c31910160405180910390a3505050565b610fb9848484610bdb565b610fc584848484611112565b61083f5760405162461bcd60e51b815260040161045990611757565b6060816110055750506040805180820190915260018152600360fc1b602082015290565b8160005b811561102f578061101981611658565b91506110289050600a836117bf565b9150611009565b60008167ffffffffffffffff81111561104a5761104a6114e2565b6040519080825280601f01601f191660200182016040528015611074576020820181803683370190505b5090505b8415610bd357611089600183611728565b9150611096600a866117d3565b6110a190603061173f565b60f81b8183815181106110b6576110b66117e7565b60200101906001600160f81b031916908160001a9053506110d8600a866117bf565b9450611078565b6110e98383611210565b6110f66000848484611112565b61058f5760405162461bcd60e51b815260040161045990611757565b60006001600160a01b0384163b1561120557604051630a85bd0160e11b81526001600160a01b0385169063150b7a02906111569033908990889088906004016117fd565b6020604051808303816000875af1925050508015611191575060408051601f3d908101601f1916820190925261118e9181019061183a565b60015b6111eb573d8080156111bf576040519150601f19603f3d011682016040523d82523d6000602084013e6111c4565b606091505b5080516111e35760405162461bcd60e51b815260040161045990611757565b805181602001fd5b6001600160e01b031916630a85bd0160e11b149050610bd3565b506001949350505050565b6001600160a01b0382166112665760405162461bcd60e51b815260206004820181905260248201527f4552433732313a206d696e7420746f20746865207a65726f20616464726573736044820152606401610459565b6000818152600260205260409020546001600160a01b0316156112cb5760405162461bcd60e51b815260206004820152601c60248201527f4552433732313a20746f6b656e20616c7265616479206d696e746564000000006044820152606401610459565b6001600160a01b03821660009081526003602052604081208054600192906112f490849061173f565b909155505060008181526002602052604080822080546001600160a01b0319166001600160a01b03861690811790915590518392907fddf252ad1be2c89b69c2b068fc378daa952ba7f163c4a11628f55a4df523b3ef908290a45050565b6001600160e01b031981168114610a5957600080fd5b60006020828403121561137a57600080fd5b81356109b481611352565b60005b838110156113a0578181015183820152602001611388565b8381111561083f5750506000910152565b600081518084526113c9816020860160208601611385565b601f01601f19169290920160200192915050565b6020815260006109b460208301846113b1565b60006020828403121561140257600080fd5b5035919050565b80356001600160a01b038116811461142057600080fd5b919050565b6000806040838503121561143857600080fd5b61144183611409565b946020939093013593505050565b60008060006060848603121561146457600080fd5b61146d84611409565b925061147b60208501611409565b9150604084013590509250925092565b60006020828403121561149d57600080fd5b6109b482611409565b600080604083850312156114b957600080fd5b6114c283611409565b9150602083013580151581146114d757600080fd5b809150509250929050565b634e487b7160e01b600052604160045260246000fd5b6000806000806080858703121561150e57600080fd5b61151785611409565b935061152560208601611409565b925060408501359150606085013567ffffffffffffffff8082111561154957600080fd5b818701915087601f83011261155d57600080fd5b81358181111561156f5761156f6114e2565b604051601f8201601f19908116603f01168101908382118183101715611597576115976114e2565b816040528281528a60208487010111156115b057600080fd5b82602086016020830137600060208483010152809550505050505092959194509250565b600080604083850312156115e757600080fd5b6115f083611409565b91506115fe60208401611409565b90509250929050565b600181811c9082168061161b57607f821691505b6020821081141561163c57634e487b7160e01b600052602260045260246000fd5b50919050565b634e487b7160e01b600052601160045260246000fd5b600060001982141561166c5761166c611642565b5060010190565b60208082526031908201527f4552433732313a207472616e736665722063616c6c6572206973206e6f74206f6040820152701ddb995c881b9bdc88185c1c1c9bdd9959607a1b606082015260800190565b6020808252818101527f4f776e61626c653a2063616c6c6572206973206e6f7420746865206f776e6572604082015260600190565b6000835161170b818460208801611385565b83519083019061171f818360208801611385565b01949350505050565b60008282101561173a5761173a611642565b500390565b6000821982111561175257611752611642565b500190565b60208082526032908201527f4552433732313a207472616e7366657220746f206e6f6e20455243373231526560408201527131b2b4bb32b91034b6b83632b6b2b73a32b960711b606082015260800190565b634e487b7160e01b600052601260045260246000fd5b6000826117ce576117ce6117a9565b500490565b6000826117e2576117e26117a9565b500690565b634e487b7160e01b600052603260045260246000fd5b6001600160a01b0385811682528416602082015260408101839052608060608201819052600090611830908301846113b1565b9695505050505050565b60006020828403121561184c57600080fd5b81516109b48161135256fea2646970667358221220c4d4770165667db922e9f83158dffe0505ff6f4b7085ce0b74d9cb6a479b348a64736f6c634300080c0033","bytecodeSha1":"3e10a80ba03dd746d553615822817cb6b223b9d4","compiler":{"evm_version":"istanbul","optimizer":{"enabled":true,"runs":200},"version":"0.8.12+commit.f00d7308"},"contractName":"BusinessCardNFTV2","language":"Solidity","natspec":{"kind":"dev","methods":{"approve(address,uint256)":{"details":"See {IERC721-approve}."},"balanceOf(address)":{"details":"See {IERC721-balanceOf}."},"getApproved(uint256)":{"details":"See {IERC721-getApproved}."},"isApprovedForAll(address,address)":{"details":"See {IERC721-isApprovedForAll}."},"name()":{"details":"See {IERC721Metadata-name}."},"owner()":{"details":"Returns the address of the current owner."},"ownerOf(uint256)":{"details":"See {IERC721-ownerOf}."},"paused()":{"details":"Returns true if the contract is paused, and false otherwise."},"renounceOwnership()":{"details":"Leaves the contract without owner. It will not be possible to call `onlyOwner` functions anymore. Can only be called by the current owner. NOTE: Renouncing ownership will leave the contract without an owner, thereby removing any functionality that is only available to the owner."},"safeTransferFrom(address,address,uint256)":{"details":"See {IERC721-safeTransferFrom}."},"safeTransferFrom(address,address,uint256,bytes)":{"details":"See {IERC721-safeTransferFrom}."},"setApprovalForAll(address,bool)":{"details":"See {IERC721-setApprovalForAll}."},"supportsInterface(bytes4)":{"details":"See {IERC165-supportsInterface}."},"symbol()":{"details":"See {IERC721Metadata-symbol}."},"tokenURI(uint256)":{"details":"See {IERC721Metadata-tokenURI}."},"transferFrom(address,address,uint256)":{"details":"See {IERC721-transferFrom}."},"transferOwnership(address)":{"details":"Transfers ownership of the contract to a new account (`newOwner`). Can only be called by the current owner."}},"version":1},"opcodes":"PUSH1 0x80 PUSH1 0x40 MSTORE CALLVALUE DUP1 ISZERO PUSH2 0x10 JUMPI PUSH1 0x0 DUP1 REVERT JUMPDEST POP PUSH1 0x4 CALLDATASIZE LT PUSH2 0x142 JUMPI PUSH1 0x0 CALLDATALOAD PUSH1 0xE0 SHR DUP1 PUSH4 0x70A08231 GT PUSH2 0xB8 JUMPI DUP1 PUSH4 0xA22CB465 GT PUSH2 0x7C JUMPI DUP1 PUSH4 0xA22CB465 EQ PUSH2 0x270 JUMPI DUP1 PUSH4 0xB88D4FDE EQ PUSH2 0x283 JUMPI DUP1 PUSH4 0xBAA5FAF8 EQ PUSH2 0x296 JUMPI DUP1 PUSH4 0xC87B56DD EQ PUSH2 0x29E JUMPI DUP1 PUSH4 0xE985E9C5 EQ PUSH2 0x2B1 JUMPI DUP1 PUSH4 0xF2FDE38B EQ PUSH2 0x2ED JUMPI PUSH1 0x0 DUP1 REVERT JUMPDEST DUP1 PUSH4 0x70A08231 EQ PUSH2 0x22F JUMPI DUP1 PUSH4 0x715018A6 EQ PUSH2 0x242 JUMPI DUP1 PUSH4 0x8456CB59 EQ PUSH2 0x24A JUMPI DUP1 PUSH4 0x8DA5CB5B EQ PUSH2 0x252 JUMPI DUP1 PUSH4 0x95D89B41 EQ PUSH2 0x268 JUMPI PUSH1 0x0 DUP1 REVERT JUMPDEST DUP1 PUSH4 0x18160DDD GT PUSH2 0x10A JUMPI DUP1 PUSH4 0x18160DDD EQ PUSH2 0x1CC JUMPI DUP1 PUSH4 0x23B872DD EQ PUSH2 0x1E3 JUMPI DUP1 PUSH4 0x3F4BA83A EQ PUSH2 0x1F6 JUMPI DUP1 PUSH4 0x42842E0E EQ PUSH2 0x1FE JUMPI DUP1 PUSH4 0x5C975ABB EQ PUSH2 0x211 JUMPI DUP1 PUSH4 0x6352211E EQ PUSH2 0x21C JUMPI PUSH1 0x0 DUP1 REVERT JUMPDEST DUP1 PUSH4 0x1FFC9A7 EQ PUSH2 0x147 JUMPI DUP1 PUSH4 0x6FDDE03 EQ PUSH2 0x16F JUMPI DUP1 PUSH4 0x81812FC EQ PUSH2 0x184 JUMPI DUP1 PUSH4 0x95EA7B3 EQ PUSH2 0x1AF JUMPI DUP1 PUSH4 0x1249C58B EQ PUSH2 0x1C4 JUMPI JUMPDEST PUSH1 0x0 DUP1 REVERT JUMPDEST PUSH2 0x15A PUSH2 0x155 CALLDATASIZE PUSH1 0x4 PUSH2 0x1368 JUMP JUMPDEST PUSH2 0x300 JUMP JUMPDEST PUSH1 0x40 MLOAD SWAP1 ISZERO ISZERO DUP2 MSTORE PUSH1 0x20 ADD JUMPDEST PUSH1 0x40 MLOAD DUP1 SWAP2 SUB SWAP1 RETURN JUMPDEST PUSH2 0x177 PUSH2 0x352 JUMP JUMPDEST PUSH1 0x40 MLOAD PUSH2 0x166 SWAP2 SWAP1 PUSH2 0x13DD JUMP JUMPDEST PUSH2 0x197 PUSH2 0x192 CALLDATASIZE PUSH1 0x4 PUSH2 0x13F0 JUMP JUMPDEST PUSH2 0x3E4 JUMP JUMPDEST PUSH1 0x40 MLOAD PUSH1 0x1 PUSH1 0x1 PUSH1 0xA0 SHL SUB SWAP1 SWAP2 AND DUP2 MSTORE PUSH1 0x20 ADD PUSH2 0x166 JUMP JUMPDEST PUSH2 0x1C2 PUSH2 0x1BD CALLDATASIZE PUSH1 0x4 PUSH2 0x1425 JUMP JUMPDEST PUSH2 0x47E JUMP JUMPDEST STOP JUMPDEST PUSH2 0x1C2 PUSH2 0x594 JUMP JUMPDEST PUSH2 0x1D5 PUSH1 0x7 SLOAD DUP2 JUMP JUMPDEST PUSH1 0x40 MLOAD SWAP1 DUP2 MSTORE PUSH1 0x20 ADD PUSH2 0x166 JUMP JUMPDEST PUSH2 0x1C2 PUSH2 0x1F1 CALLDATASIZE PUSH1 0x4 PUSH2 0x144F JUMP JUMPDEST PUSH2 0x5FB JUMP JUMPDEST PUSH2 0x1C2 PUSH2 0x62C JUMP JUMPDEST PUSH2 0x1C2 PUSH2 0x20C CALLDATASIZE PUSH1 0x4 PUSH2 0x144F JUMP JUMPDEST PUSH2 0x664 JUMP JUMPDEST PUSH1 0x6 SLOAD PUSH1 0xFF AND PUSH2 0x15A JUMP JUMPDEST PUSH2 0x197 PUSH2 0x22A CALLDATASIZE PUSH1 0x4 PUSH2 0x13F0 JUMP JUMPDEST PUSH2 0x67F JUMP JUMPDEST PUSH2 0x1D5 PUSH2 0x23D CALLDATASIZE PUSH1 0x4 PUSH2 0x148B JUMP JUMPDEST PUSH2 0x6F6 JUMP JUMPDEST PUSH2 0x1C2 PUSH2 0x77D JUMP JUMPDEST PUSH2 0x1C2 PUSH2 0x7B7 JUMP JUMPDEST PUSH1 0x6 SLOAD PUSH2 0x100 SWAP1 DIV PUSH1 0x1 PUSH1 0x1 PUSH1 0xA0 SHL SUB AND PUSH2 0x197 JUMP JUMPDEST PUSH2 0x177 PUSH2 0x7EF JUMP JUMPDEST PUSH2 0x1C2 PUSH2 0x27E CALLDATASIZE PUSH1 0x4 PUSH2 0x14A6 JUMP JUMPDEST PUSH2 0x7FE JUMP JUMPDEST PUSH2 0x1C2 PUSH2 0x291 CALLDATASIZE PUSH1 0x4 PUSH2 0x14F8 JUMP JUMPDEST PUSH2 0x80D JUMP JUMPDEST PUSH2 0x177 PUSH2 0x845 JUMP JUMPDEST PUSH2 0x177 PUSH2 0x2AC CALLDATASIZE PUSH1 0x4 PUSH2 0x13F0 JUMP JUMPDEST PUSH2 0x8D3 JUMP JUMPDEST PUSH2 0x15A PUSH2 0x2BF CALLDATASIZE PUSH1 0x4 PUSH2 0x15D4 JUMP JUMPDEST PUSH1 0x1 PUSH1 0x1 PUSH1 0xA0 SHL SUB SWAP2 DUP3 AND PUSH1 0x0 SWAP1 DUP2 MSTORE PUSH1 0x5 PUSH1 0x20 SWAP1 DUP2 MSTORE PUSH1 0x40 DUP1 DUP4 KECCAK256 SWAP4 SWAP1 SWAP5 AND DUP3 MSTORE SWAP2 SWAP1 SWAP2 MSTORE KECCAK256 SLOAD PUSH1 0xFF AND SWAP1 JUMP JUMPDEST PUSH2 0x1C2 PUSH2 0x2FB CALLDATASIZE PUSH1 0x4 PUSH2 0x148B JUMP JUMPDEST PUSH2 0x9BB JUMP JUMPDEST PUSH1 0x0 PUSH1 0x1 PUSH1 0x1 PUSH1 0xE0 SHL SUB NOT DUP3 AND PUSH4 0x80AC58CD PUSH1 0xE0 SHL EQ DUP1 PUSH2 0x331 JUMPI POP PUSH1 0x1 PUSH1 0x1 PUSH1 0xE0 SHL SUB NOT DUP3 AND PUSH4 0x5B5E139F PUSH1 0xE0 SHL EQ JUMPDEST DUP1 PUSH2 0x34C JUMPI POP PUSH4 0x1FFC9A7 PUSH1 0xE0 SHL PUSH1 0x1 PUSH1 0x1 PUSH1 0xE0 SHL SUB NOT DUP4 AND EQ JUMPDEST SWAP3 SWAP2 POP POP JUMP JUMPDEST PUSH1 0x60 PUSH1 0x0 DUP1 SLOAD PUSH2 0x361 SWAP1 PUSH2 0x1607 JUMP JUMPDEST DUP1 PUSH1 0x1F ADD PUSH1 0x20 DUP1 SWAP2 DIV MUL PUSH1 0x20 ADD PUSH1 0x40 MLOAD SWAP1 DUP2 ADD PUSH1 0x40 MSTORE DUP1 SWAP3 SWAP2 SWAP1 DUP2 DUP2 MSTORE PUSH1 0x20 ADD DUP3 DUP1 SLOAD PUSH2 0x38D SWAP1 PUSH2 0x1607 JUMP JUMPDEST DUP1 ISZERO PUSH2 0x3DA JUMPI DUP1 PUSH1 0x1F LT PUSH2 0x3AF JUMPI PUSH2 0x100 DUP1 DUP4 SLOAD DIV MUL DUP4 MSTORE SWAP2 PUSH1 0x20 ADD SWAP2 PUSH2 0x3DA JUMP JUMPDEST DUP3 ADD SWAP2 SWAP1 PUSH1 0x0 MSTORE PUSH1 0x20 PUSH1 0x0 KECCAK256 SWAP1 JUMPDEST DUP2 SLOAD DUP2 MSTORE SWAP1 PUSH1 0x1 ADD SWAP1 PUSH1 0x20 ADD DUP1 DUP4 GT PUSH2 0x3BD JUMPI DUP3 SWAP1 SUB PUSH1 0x1F AND DUP3 ADD SWAP2 JUMPDEST POP POP POP POP POP SWAP1 POP SWAP1 JUMP JUMPDEST PUSH1 0x0 DUP2 DUP2 MSTORE PUSH1 0x2 PUSH1 0x20 MSTORE PUSH1 0x40 DUP2 KECCAK256 SLOAD PUSH1 0x1 PUSH1 0x1 PUSH1 0xA0 SHL SUB AND PUSH2 0x462 JUMPI PUSH1 0x40 MLOAD PUSH3 0x461BCD PUSH1 0xE5 SHL DUP2 MSTORE PUSH1 0x20 PUSH1 0x4 DUP3 ADD MSTORE PUSH1 0x2C PUSH1 0x24 DUP3 ADD MSTORE PUSH32 0x4552433732313A20617070726F76656420717565727920666F72206E6F6E6578 PUSH1 0x44 DUP3 ADD MSTORE PUSH12 0x34B9BA32B73A103A37B5B2B7 PUSH1 0xA1 SHL PUSH1 0x64 DUP3 ADD MSTORE PUSH1 0x84 ADD JUMPDEST PUSH1 0x40 MLOAD DUP1 SWAP2 SUB SWAP1 REVERT JUMPDEST POP PUSH1 0x0 SWAP1 DUP2 MSTORE PUSH1 0x4 PUSH1 0x20 MSTORE PUSH1 0x40 SWAP1 KECCAK256 SLOAD PUSH1 0x1 PUSH1 0x1 PUSH1 0xA0 SHL SUB AND SWAP1 JUMP JUMPDEST PUSH1 0x0 PUSH2 0x489 DUP3 PUSH2 0x67F JUMP JUMPDEST SWAP1 POP DUP1 PUSH1 0x1 PUSH1 0x1 PUSH1 0xA0 SHL SUB AND DUP4 PUSH1 0x1 PUSH1 0x1 PUSH1 0xA0 SHL SUB AND EQ ISZERO PUSH2 0x4F7 JUMPI PUSH1 0x40 MLOAD PUSH3 0x461BCD PUSH1 0xE5 SHL DUP2 MSTORE PUSH1 0x20 PUSH1 0x4 DUP3 ADD MSTORE PUSH1 0x21 PUSH1 0x24 DUP3 ADD MSTORE PUSH32 0x4552433732313A20617070726F76616C20746F2063757272656E74206F776E65 PUSH1 0x44 DUP3 ADD MSTORE PUSH1 0x39 PUSH1 0xF9 SHL PUSH1 0x64 DUP3 ADD MSTORE PUSH1 0x84 ADD PUSH2 0x459 JUMP JUMPDEST CALLER PUSH1 0x1 PUSH1 0x1 PUSH1 0xA0 SHL SUB DUP3 AND EQ DUP1 PUSH2 0x513 JUMPI POP PUSH2 0x513 DUP2 CALLER PUSH2 0x2BF JUMP JUMPDEST PUSH2 0x585 JUMPI PUSH1 0x40 MLOAD PUSH3 0x461BCD PUSH1 0xE5 SHL DUP2 MSTORE PUSH1 0x20 PUSH1 0x4 DUP3 ADD MSTORE PUSH1 0x38 PUSH1 0x24 DUP3 ADD MSTORE PUSH32 0x4552433732313A20617070726F76652063616C6C6572206973206E6F74206F77 PUSH1 0x44 DUP3 ADD MSTORE PUSH32 0x6E6572206E6F7220617070726F76656420666F7220616C6C0000000000000000 PUSH1 0x64 DUP3 ADD MSTORE PUSH1 0x84 ADD PUSH2 0x459 JUMP JUMPDEST PUSH2 0x58F DUP4 DUP4 PUSH2 0xA5C JUMP JUMPDEST POP POP POP JUMP JUMPDEST PUSH1 0x6 SLOAD PUSH1 0xFF AND ISZERO PUSH2 0x5DA JUMPI PUSH1 0x40 MLOAD PUSH3 0x461BCD PUSH1 0xE5 SHL DUP2 MSTORE PUSH1 0x20 PUSH1 0x4 DUP3 ADD MSTORE PUSH1 0x10 PUSH1 0x24 DUP3 ADD MSTORE PUSH16 0x14185D5CD8589B194E881C185D5CD959 PUSH1 0x82 SHL PUSH1 0x44 DUP3 ADD MSTORE PUSH1 0x64 ADD PUSH2 0x459 JUMP JUMPDEST PUSH1 0x7 DUP1 SLOAD PUSH2 0x5F9 SWAP2 CALLER SWAP2 SWAP1 PUSH1 0x0 PUSH2 0x5F0 DUP4 PUSH2 0x1658 JUMP JUMPDEST SWAP2 SWAP1 POP SSTORE PUSH2 0xACA JUMP JUMPDEST JUMP JUMPDEST PUSH2 0x605 CALLER DUP3 PUSH2 0xAE4 JUMP JUMPDEST PUSH2 0x621 JUMPI PUSH1 0x40 MLOAD PUSH3 0x461BCD PUSH1 0xE5 SHL DUP2 MSTORE PUSH1 0x4 ADD PUSH2 0x459 SWAP1 PUSH2 0x1673 JUMP JUMPDEST PUSH2 0x58F DUP4 DUP4 DUP4 PUSH2 0xBDB JUMP JUMPDEST PUSH1 0x6 SLOAD PUSH1 0x1 PUSH1 0x1 PUSH1 0xA0 SHL SUB PUSH2 0x100 SWAP1 SWAP2 DIV AND CALLER EQ PUSH2 0x65C JUMPI PUSH1 0x40 MLOAD PUSH3 0x461BCD PUSH1 0xE5 SHL DUP2 MSTORE PUSH1 0x4 ADD PUSH2 0x459 SWAP1 PUSH2 0x16C4 JUMP JUMPDEST PUSH2 0x5F9 PUSH2 0xD77 JUMP JUMPDEST PUSH2 0x58F DUP4 DUP4 DUP4 PUSH1 0x40 MLOAD DUP1 PUSH1 0x20 ADD PUSH1 0x40 MSTORE DUP1 PUSH1 0x0 DUP2 MSTORE POP PUSH2 0x80D JUMP JUMPDEST PUSH1 0x0 DUP2 DUP2 MSTORE PUSH1 0x2 PUSH1 0x20 MSTORE PUSH1 0x40 DUP2 KECCAK256 SLOAD PUSH1 0x1 PUSH1 0x1 PUSH1 0xA0 SHL SUB AND DUP1 PUSH2 0x34C JUMPI PUSH1 0x40 MLOAD PUSH3 0x461BCD PUSH1 0xE5 SHL DUP2 MSTORE PUSH1 0x20 PUSH1 0x4 DUP3 ADD MSTORE PUSH1 0x29 PUSH1 0x24 DUP3 ADD MSTORE PUSH32 0x4552433732313A206F776E657220717565727920666F72206E6F6E6578697374 PUSH1 0x44 DUP3 ADD MSTORE PUSH9 0x32B73A103A37B5B2B7 PUSH1 0xB9 SHL PUSH1 0x64 DUP3 ADD MSTORE PUSH1 0x84 ADD PUSH2 0x459 JUMP JUMPDEST PUSH1 0x0 PUSH1 0x1 PUSH1 0x1 PUSH1 0xA0 SHL SUB DUP3 AND PUSH2 0x761 JUMPI PUSH1 0x40 MLOAD PUSH3 0x461BCD PUSH1 0xE5 SHL DUP2 MSTORE PUSH1 0x20 PUSH1 0x4 DUP3 ADD MSTORE PUSH1 0x2A PUSH1 0x24 DUP3 ADD MSTORE PUSH32 0x4552433732313A2062616C616E636520717565727920666F7220746865207A65 PUSH1 0x44 DUP3 ADD MSTORE PUSH10 0x726F2061646472657373 PUSH1 0xB0 SHL PUSH1 0x64 DUP3 ADD MSTORE PUSH1 0x84 ADD PUSH2 0x459 JUMP JUMPDEST POP PUSH1 0x1 PUSH1 0x1 PUSH1 0xA0 SHL SUB AND PUSH1 0x0 SWAP1 DUP2 MSTORE PUSH1 0x3 PUSH1 0x20 MSTORE PUSH1 0x40 SWAP1 KECCAK256 SLOAD SWAP1 JUMP JUMPDEST PUSH1 0x6 SLOAD PUSH1 0x1 PUSH1 0x1 PUSH1 0xA0 SHL SUB PUSH2 0x100 SWAP1 SWAP2 DIV AND CALLER EQ PUSH2 0x7AD JUMPI PUSH1 0x40 MLOAD PUSH3 0x461BCD PUSH1 0xE5 SHL DUP2 MSTORE PUSH1 0x4 ADD PUSH2 0x459 SWAP1 PUSH2 0x16C4 JUMP JUMPDEST PUSH2 0x5F9 PUSH1 0x0 PUSH2 0xE0A JUMP JUMPDEST PUSH1 0x6 SLOAD PUSH1 0x1 PUSH1 0x1 PUSH1 0xA0 SHL SUB PUSH2 0x100 SWAP1 SWAP2 DIV AND CALLER EQ PUSH2 0x7E7 JUMPI PUSH1 0x40 MLOAD PUSH3 0x461BCD PUSH1 0xE5 SHL DUP2 MSTORE PUSH1 0x4 ADD PUSH2 0x459 SWAP1 PUSH2 0x16C4 JUMP JUMPDEST PUSH2 0x5F9 PUSH2 0xE64 JUMP JUMPDEST PUSH1 0x60 PUSH1 0x1 DUP1 SLOAD PUSH2 0x361 SWAP1 PUSH2 0x1607 JUMP JUMPDEST PUSH2 0x809 CALLER DUP4 DUP4 PUSH2 0xEDF JUMP JUMPDEST POP POP JUMP JUMPDEST PUSH2 0x817 CALLER DUP4 PUSH2 0xAE4 JUMP JUMPDEST PUSH2 0x833 JUMPI PUSH1 0x40 MLOAD PUSH3 0x461BCD PUSH1 0xE5 SHL DUP2 MSTORE PUSH1 0x4 ADD PUSH2 0x459 SWAP1 PUSH2 0x1673 JUMP JUMPDEST PUSH2 0x83F DUP5 DUP5 DUP5 DUP5 PUSH2 0xFAE JUMP JUMPDEST POP POP POP POP JUMP JUMPDEST PUSH1 0x8 DUP1 SLOAD PUSH2 0x852 SWAP1 PUSH2 0x1607 JUMP JUMPDEST DUP1 PUSH1 0x1F ADD PUSH1 0x20 DUP1 SWAP2 DIV MUL PUSH1 0x20 ADD PUSH1 0x40 MLOAD SWAP1 DUP2 ADD PUSH1 0x40 MSTORE DUP1 SWAP3 SWAP2 SWAP1 DUP2 DUP2 MSTORE PUSH1 0x20 ADD DUP3 DUP1 SLOAD PUSH2 0x87E SWAP1 PUSH2 0x1607 JUMP JUMPDEST DUP1 ISZERO PUSH2 0x8CB JUMPI DUP1 PUSH1 0x1F LT PUSH2 0x8A0 JUMPI PUSH2 0x100 DUP1 DUP4 SLOAD DIV MUL DUP4 MSTORE SWAP2 PUSH1 0x20 ADD SWAP2 PUSH2 0x8CB JUMP JUMPDEST DUP3 ADD SWAP2 SWAP1 PUSH1 0x0 MSTORE PUSH1 0x20 PUSH1 0x0 KECCAK256 SWAP1 JUMPDEST DUP2 SLOAD DUP2 MSTORE SWAP1 PUSH1 0x1 ADD SWAP1 PUSH1 0x20 ADD DUP1 DUP4 GT PUSH2 0x8AE JUMPI DUP3 SWAP1 SUB PUSH1 0x1F AND DUP3 ADD SWAP2 JUMPDEST POP POP POP POP POP DUP2 JUMP JUMPDEST PUSH1 0x0 DUP2 DUP2 MSTORE PUSH1 0x2 PUSH1 0x20 MSTORE PUSH1 0x40 SWAP1 KECCAK256 SLOAD PUSH1 0x60 SWAP1 PUSH1 0x1 PUSH1 0x1 PUSH1 0xA0 SHL SUB AND PUSH2 0x952 JUMPI PUSH1 0x40 MLOAD PUSH3 0x461BCD PUSH1 0xE5 SHL DUP2 MSTORE PUSH1 0x20 PUSH1 0x4 DUP3 ADD MSTORE PUSH1 0x2F PUSH1 0x24 DUP3 ADD MSTORE PUSH32 0x4552433732314D657461646174613A2055524920717565727920666F72206E6F PUSH1 0x44 DUP3 ADD MSTORE PUSH15 0x3732BC34B9BA32B73A103A37B5B2B7 PUSH1 0x89 SHL PUSH1 0x64 DUP3 ADD MSTORE PUSH1 0x84 ADD PUSH2 0x459 JUMP JUMPDEST PUSH1 0x0 PUSH2 0x969 PUSH1 0x40 DUP1 MLOAD PUSH1 0x20 DUP2 ADD SWAP1 SWAP2 MSTORE PUSH1 0x0 DUP2 MSTORE SWAP1 JUMP JUMPDEST SWAP1 POP PUSH1 0x0 DUP2 MLOAD GT PUSH2 0x989 JUMPI PUSH1 0x40 MLOAD DUP1 PUSH1 0x20 ADD PUSH1 0x40 MSTORE DUP1 PUSH1 0x0 DUP2 MSTORE POP PUSH2 0x9B4 JUMP JUMPDEST DUP1 PUSH2 0x993 DUP5 PUSH2 0xFE1 JUMP JUMPDEST PUSH1 0x40 MLOAD PUSH1 0x20 ADD PUSH2 0x9A4 SWAP3 SWAP2 SWAP1 PUSH2 0x16F9 JUMP JUMPDEST PUSH1 0x40 MLOAD PUSH1 0x20 DUP2 DUP4 SUB SUB DUP2 MSTORE SWAP1 PUSH1 0x40 MSTORE JUMPDEST SWAP4 SWAP3 POP POP POP JUMP JUMPDEST PUSH1 0x6 SLOAD PUSH1 0x1 PUSH1 0x1 PUSH1 0xA0 SHL SUB PUSH2 0x100 SWAP1 SWAP2 DIV AND CALLER EQ PUSH2 0x9EB JUMPI PUSH1 0x40 MLOAD PUSH3 0x461BCD PUSH1 0xE5 SHL DUP2 MSTORE PUSH1 0x4 ADD PUSH2 0x459 SWAP1 PUSH2 0x16C4 JUMP JUMPDEST PUSH1 0x1 PUSH1 0x1 PUSH1 0xA0 SHL SUB DUP2 AND PUSH2 0xA50 JUMPI PUSH1 0x40 MLOAD PUSH3 0x461BCD PUSH1 0xE5 SHL DUP2 MSTORE PUSH1 0x20 PUSH1 0x4 DUP3 ADD MSTORE PUSH1 0x26 PUSH1 0x24 DUP3 ADD MSTORE PUSH32 0x4F776E61626C653A206E6577206F776E657220697320746865207A65726F2061 PUSH1 0x44 DUP3 ADD MSTORE PUSH6 0x646472657373 PUSH1 0xD0 SHL PUSH1 0x64 DUP3 ADD MSTORE PUSH1 0x84 ADD PUSH2 0x459 JUMP JUMPDEST PUSH2 0xA59 DUP2 PUSH2 0xE0A JUMP JUMPDEST POP JUMP JUMPDEST PUSH1 0x0 DUP2 DUP2 MSTORE PUSH1 0x4 PUSH1 0x20 MSTORE PUSH1 0x40 SWAP1 KECCAK256 DUP1 SLOAD PUSH1 0x1 PUSH1 0x1 PUSH1 0xA0 SHL SUB NOT AND PUSH1 0x1 PUSH1 0x1 PUSH1 0xA0 SHL SUB DUP5 AND SWAP1 DUP2 OR SWAP1 SWAP2 SSTORE DUP2 SWAP1 PUSH2 0xA91 DUP3 PUSH2 0x67F JUMP JUMPDEST PUSH1 0x1 PUSH1 0x1 PUSH1 0xA0 SHL SUB AND PUSH32 0x8C5BE1E5EBEC7D5BD14F71427D1E84F3DD0314C0F7B2291E5B200AC8C7C3B925 PUSH1 0x40 MLOAD PUSH1 0x40 MLOAD DUP1 SWAP2 SUB SWAP1 LOG4 POP POP JUMP JUMPDEST PUSH2 0x809 DUP3 DUP3 PUSH1 0x40 MLOAD DUP1 PUSH1 0x20 ADD PUSH1 0x40 MSTORE DUP1 PUSH1 0x0 DUP2 MSTORE POP PUSH2 0x10DF JUMP JUMPDEST PUSH1 0x0 DUP2 DUP2 MSTORE PUSH1 0x2 PUSH1 0x20 MSTORE PUSH1 0x40 DUP2 KECCAK256 SLOAD PUSH1 0x1 PUSH1 0x1 PUSH1 0xA0 SHL SUB AND PUSH2 0xB5D JUMPI PUSH1 0x40 MLOAD PUSH3 0x461BCD PUSH1 0xE5 SHL DUP2 MSTORE PUSH1 0x20 PUSH1 0x4 DUP3 ADD MSTORE PUSH1 0x2C PUSH1 0x24 DUP3 ADD MSTORE PUSH32 0x4552433732313A206F70657261746F7220717565727920666F72206E6F6E6578 PUSH1 0x44 DUP3 ADD MSTORE PUSH12 0x34B9BA32B73A103A37B5B2B7 PUSH1 0xA1 SHL PUSH1 0x64 DUP3 ADD MSTORE PUSH1 0x84 ADD PUSH2 0x459 JUMP JUMPDEST PUSH1 0x0 PUSH2 0xB68 DUP4 PUSH2 0x67F JUMP JUMPDEST SWAP1 POP DUP1 PUSH1 0x1 PUSH1 0x1 PUSH1 0xA0 SHL SUB AND DUP5 PUSH1 0x1 PUSH1 0x1 PUSH1 0xA0 SHL SUB AND EQ DUP1 PUSH2 0xBA3 JUMPI POP DUP4 PUSH1 0x1 PUSH1 0x1 PUSH1 0xA0 SHL SUB AND PUSH2 0xB98 DUP5 PUSH2 0x3E4 JUMP JUMPDEST PUSH1 0x1 PUSH1 0x1 PUSH1 0xA0 SHL SUB AND EQ JUMPDEST DUP1 PUSH2 0xBD3 JUMPI POP PUSH1 0x1 PUSH1 0x1 PUSH1 0xA0 SHL SUB DUP1 DUP3 AND PUSH1 0x0 SWAP1 DUP2 MSTORE PUSH1 0x5 PUSH1 0x20 SWAP1 DUP2 MSTORE PUSH1 0x40 DUP1 DUP4 KECCAK256 SWAP4 DUP9 AND DUP4 MSTORE SWAP3 SWAP1 MSTORE KECCAK256 SLOAD PUSH1 0xFF AND JUMPDEST SWAP5 SWAP4 POP POP POP POP JUMP JUMPDEST DUP3 PUSH1 0x1 PUSH1 0x1 PUSH1 0xA0 SHL SUB AND PUSH2 0xBEE DUP3 PUSH2 0x67F JUMP JUMPDEST PUSH1 0x1 PUSH1 0x1 PUSH1 0xA0 SHL SUB AND EQ PUSH2 0xC52 JUMPI PUSH1 0x40 MLOAD PUSH3 0x461BCD PUSH1 0xE5 SHL DUP2 MSTORE PUSH1 0x20 PUSH1 0x4 DUP3 ADD MSTORE PUSH1 0x25 PUSH1 0x24 DUP3 ADD MSTORE PUSH32 0x4552433732313A207472616E736665722066726F6D20696E636F727265637420 PUSH1 0x44 DUP3 ADD MSTORE PUSH5 0x37BBB732B9 PUSH1 0xD9 SHL PUSH1 0x64 DUP3 ADD MSTORE PUSH1 0x84 ADD PUSH2 0x459 JUMP JUMPDEST PUSH1 0x1 PUSH1 0x1 PUSH1 0xA0 SHL SUB DUP3 AND PUSH2 0xCB4 JUMPI PUSH1 0x40 MLOAD PUSH3 0x461BCD PUSH1 0xE5 SHL DUP2 MSTORE PUSH1 0x20 PUSH1 0x4 DUP3 ADD MSTORE PUSH1 0x24 DUP1 DUP3 ADD MSTORE PUSH32 0x4552433732313A207472616E7366657220746F20746865207A65726F20616464 PUSH1 0x44 DUP3 ADD MSTORE PUSH4 0x72657373 PUSH1 0xE0 SHL PUSH1 0x64 DUP3 ADD MSTORE PUSH1 0x84 ADD PUSH2 0x459 JUMP JUMPDEST PUSH2 0xCBF PUSH1 0x0 DUP3 PUSH2 0xA5C JUMP JUMPDEST PUSH1 0x1 PUSH1 0x1 PUSH1 0xA0 SHL SUB DUP4 AND PUSH1 0x0 SWAP1 DUP2 MSTORE PUSH1 0x3 PUSH1 0x20 MSTORE PUSH1 0x40 DUP2 KECCAK256 DUP1 SLOAD PUSH1 0x1 SWAP3 SWAP1 PUSH2 0xCE8 SWAP1 DUP5 SWAP1 PUSH2 0x1728 JUMP JUMPDEST SWAP1 SWAP2 SSTORE POP POP PUSH1 0x1 PUSH1 0x1 PUSH1 0xA0 SHL SUB DUP3 AND PUSH1 0x0 SWAP1 DUP2 MSTORE PUSH1 0x3 PUSH1 0x20 MSTORE PUSH1 0x40 DUP2 KECCAK256 DUP1 SLOAD PUSH1 0x1 SWAP3 SWAP1 PUSH2 0xD16 SWAP1 DUP5 SWAP1 PUSH2 0x173F JUMP JUMPDEST SWAP1 SWAP2 SSTORE POP POP PUSH1 0x0 DUP2 DUP2 MSTORE PUSH1 0x2 PUSH1 0x20 MSTORE PUSH1 0x40 DUP1 DUP3 KECCAK256 DUP1 SLOAD PUSH1 0x1 PUSH1 0x1 PUSH1 0xA0 SHL SUB NOT AND PUSH1 0x1 PUSH1 0x1 PUSH1 0xA0 SHL SUB DUP7 DUP2 AND SWAP2 DUP3 OR SWAP1 SWAP3 SSTORE SWAP2 MLOAD DUP5 SWAP4 SWAP2 DUP8 AND SWAP2 PUSH32 0xDDF252AD1BE2C89B69C2B068FC378DAA952BA7F163C4A11628F55A4DF523B3EF SWAP2 LOG4 POP POP POP JUMP JUMPDEST PUSH1 0x6 SLOAD PUSH1 0xFF AND PUSH2 0xDC0 JUMPI PUSH1 0x40 MLOAD PUSH3 0x461BCD PUSH1 0xE5 SHL DUP2 MSTORE PUSH1 0x20 PUSH1 0x4 DUP3 ADD MSTORE PUSH1 0x14 PUSH1 0x24 DUP3 ADD MSTORE PUSH20 0x14185D5CD8589B194E881B9BDD081C185D5CD959 PUSH1 0x62 SHL PUSH1 0x44 DUP3 ADD MSTORE PUSH1 0x64 ADD PUSH2 0x459 JUMP JUMPDEST PUSH1 0x6 DUP1 SLOAD PUSH1 0xFF NOT AND SWAP1 SSTORE PUSH32 0x5DB9EE0A495BF2E6FF9C91A7834C1BA4FDD244A5E8AA4E537BD38AEAE4B073AA CALLER JUMPDEST PUSH1 0x40 MLOAD PUSH1 0x1 PUSH1 0x1 PUSH1 0xA0 SHL SUB SWAP1 SWAP2 AND DUP2 MSTORE PUSH1 0x20 ADD PUSH1 0x40 MLOAD DUP1 SWAP2 SUB SWAP1 LOG1 JUMP JUMPDEST PUSH1 0x6 DUP1 SLOAD PUSH1 0x1 PUSH1 0x1 PUSH1 0xA0 SHL SUB DUP4 DUP2 AND PUSH2 0x100 DUP2 DUP2 MUL PUSH2 0x100 PUSH1 0x1 PUSH1 0xA8 SHL SUB NOT DUP6 AND OR SWAP1 SWAP5 SSTORE PUSH1 0x40 MLOAD SWAP4 SWAP1 SWAP3 DIV AND SWAP2 DUP3 SWAP1 PUSH32 0x8BE0079C531659141344CD1FD0A4F28419497F9722A3DAAFE3B4186F6B6457E0 SWAP1 PUSH1 0x0 SWAP1 LOG3 POP POP JUMP JUMPDEST PUSH1 0x6 SLOAD PUSH1 0xFF AND ISZERO PUSH2 0xEAA JUMPI PUSH1 0x40 MLOAD PUSH3 0x461BCD PUSH1 0xE5 SHL DUP2 MSTORE PUSH1 0x20 PUSH1 0x4 DUP3 ADD MSTORE PUSH1 0x10 PUSH1 0x24 DUP3 ADD MSTORE PUSH16 0x14185D5CD8589B194E881C185D5CD959 PUSH1 0x82 SHL PUSH1 0x44 DUP3 ADD MSTORE PUSH1 0x64 ADD PUSH2 0x459 JUMP JUMPDEST PUSH1 0x6 DUP1 SLOAD PUSH1 0xFF NOT AND PUSH1 0x1 OR SWAP1 SSTORE PUSH32 0x62E78CEA01BEE320CD4E420270B5EA74000D11B0C9F74754EBDBFC544B05A258 PUSH2 0xDED CALLER SWAP1 JUMP JUMPDEST DUP2 PUSH1 0x1 PUSH1 0x1 PUSH1 0xA0 SHL SUB AND DUP4 PUSH1 0x1 PUSH1 0x1 PUSH1 0xA0 SHL SUB AND EQ ISZERO PUSH2 0xF41 JUMPI PUSH1 0x40 MLOAD PUSH3 0x461BCD PUSH1 0xE5 SHL DUP2 MSTORE PUSH1 0x20 PUSH1 0x4 DUP3 ADD MSTORE PUSH1 0x19 PUSH1 0x24 DUP3 ADD MSTORE PUSH32 0x4552433732313A20617070726F766520746F2063616C6C657200000000000000 PUSH1 0x44 DUP3 ADD MSTORE PUSH1 0x64 ADD PUSH2 0x459 JUMP JUMPDEST PUSH1 0x1 PUSH1 0x1 PUSH1 0xA0 SHL SUB DUP4 DUP2 AND PUSH1 0x0 DUP2 DUP2 MSTORE PUSH1 0x5 PUSH1 0x20 SWAP1 DUP2 MSTORE PUSH1 0x40 DUP1 DUP4 KECCAK256 SWAP5 DUP8 AND DUP1 DUP5 MSTORE SWAP5 DUP3 MSTORE SWAP2 DUP3 SWAP1 KECCAK256 DUP1 SLOAD PUSH1 0xFF NOT AND DUP7 ISZERO ISZERO SWAP1 DUP2 OR SWAP1 SWAP2 SSTORE SWAP2 MLOAD SWAP2 DUP3 MSTORE PUSH32 0x17307EAB39AB6107E8899845AD3D59BD9653F200F220920489CA2B5937696C31 SWAP2 ADD PUSH1 0x40 MLOAD DUP1 SWAP2 SUB SWAP1 LOG3 POP POP POP JUMP JUMPDEST PUSH2 0xFB9 DUP5 DUP5 DUP5 PUSH2 0xBDB JUMP JUMPDEST PUSH2 0xFC5 DUP5 DUP5 DUP5 DUP5 PUSH2 0x1112 JUMP JUMPDEST PUSH2 0x83F JUMPI PUSH1 0x40 MLOAD PUSH3 0x461BCD PUSH1 0xE5 SHL DUP2 MSTORE PUSH1 0x4 ADD PUSH2 0x459 SWAP1 PUSH2 0x1757 JUMP JUMPDEST PUSH1 0x60 DUP2 PUSH2 0x1005 JUMPI POP POP PUSH1 0x40 DUP1 MLOAD DUP1 DUP3 ADD SWAP1 SWAP2 MSTORE PUSH1 0x1 DUP2 MSTORE PUSH1 0x3 PUSH1 0xFC SHL PUSH1 0x20 DUP3 ADD MSTORE SWAP1 JUMP JUMPDEST DUP2 PUSH1 0x0 JUMPDEST DUP2 ISZERO PUSH2 0x102F JUMPI DUP1 PUSH2 0x1019 DUP2 PUSH2 0x1658 JUMP JUMPDEST SWAP2 POP PUSH2 0x1028 SWAP1 POP PUSH1 0xA DUP4 PUSH2 0x17BF JUMP JUMPDEST SWAP2 POP PUSH2 0x1009 JUMP JUMPDEST PUSH1 0x0 DUP2 PUSH8 0xFFFFFFFFFFFFFFFF DUP2 GT ISZERO PUSH2 0x104A JUMPI PUSH2 0x104A PUSH2 0x14E2 JUMP JUMPDEST PUSH1 0x40 MLOAD SWAP1 DUP1 DUP3 MSTORE DUP1 PUSH1 0x1F ADD PUSH1 0x1F NOT AND PUSH1 0x20 ADD DUP3 ADD PUSH1 0x40 MSTORE DUP1 ISZERO PUSH2 0x1074 JUMPI PUSH1 0x20 DUP3 ADD DUP2 DUP1 CALLDATASIZE DUP4 CALLDATACOPY ADD SWAP1 POP JUMPDEST POP SWAP1 POP JUMPDEST DUP5 ISZERO PUSH2 0xBD3 JUMPI PUSH2 0x1089 PUSH1 0x1 DUP4 PUSH2 0x1728 JUMP JUMPDEST SWAP2 POP PUSH2 0x1096 PUSH1 0xA DUP7 PUSH2 0x17D3 JUMP JUMPDEST PUSH2 0x10A1 SWAP1 PUSH1 0x30 PUSH2 0x173F JUMP JUMPDEST PUSH1 0xF8 SHL DUP2 DUP4 DUP2 MLOAD DUP2 LT PUSH2 0x10B6 JUMPI PUSH2 0x10B6 PUSH2 0x17E7 JUMP JUMPDEST PUSH1 0x20 ADD ADD SWAP1 PUSH1 0x1 PUSH1 0x1 PUSH1 0xF8 SHL SUB NOT AND SWAP1 DUP2 PUSH1 0x0 BYTE SWAP1 MSTORE8 POP PUSH2 0x10D8 PUSH1 0xA DUP7 PUSH2 0x17BF JUMP JUMPDEST SWAP5 POP PUSH2 0x1078 JUMP JUMPDEST PUSH2 0x10E9 DUP4 DUP4 PUSH2 0x1210 JUMP JUMPDEST PUSH2 0x10F6 PUSH1 0x0 DUP5 DUP5 DUP5 PUSH2 0x1112 JUMP JUMPDEST PUSH2 0x58F JUMPI PUSH1 0x40 MLOAD PUSH3 0x461BCD PUSH1 0xE5 SHL DUP2 MSTORE PUSH1 0x4 ADD PUSH2 0x459 SWAP1 PUSH2 0x1757 JUMP JUMPDEST PUSH1 0x0 PUSH1 0x1 PUSH1 0x1 PUSH1 0xA0 SHL SUB DUP5 AND EXTCODESIZE ISZERO PUSH2 0x1205 JUMPI PUSH1 0x40 MLOAD PUSH4 0xA85BD01 PUSH1 0xE1 SHL DUP2 MSTORE PUSH1 0x1 PUSH1 0x1 PUSH1 0xA0 SHL SUB DUP6 AND SWAP1 PUSH4 0x150B7A02 SWAP1 PUSH2 0x1156 SWAP1 CALLER SWAP1 DUP10 SWAP1 DUP9 SWAP1 DUP9 SWAP1 PUSH1 0x4 ADD PUSH2 0x17FD JUMP JUMPDEST PUSH1 0x20 PUSH1 0x40 MLOAD DUP1 DUP4 SUB DUP2 PUSH1 0x0 DUP8 GAS CALL SWAP3 POP POP POP DUP1 ISZERO PUSH2 0x1191 JUMPI POP PUSH1 0x40 DUP1 MLOAD PUSH1 0x1F RETURNDATASIZE SWAP1 DUP2 ADD PUSH1 0x1F NOT AND DUP3 ADD SWAP1 SWAP3 MSTORE PUSH2 0x118E SWAP2 DUP2 ADD SWAP1 PUSH2 0x183A JUMP JUMPDEST PUSH1 0x1 JUMPDEST PUSH2 0x11EB JUMPI RETURNDATASIZE DUP1 DUP1 ISZERO PUSH2 0x11BF JUMPI PUSH1 0x40 MLOAD SWAP2 POP PUSH1 0x1F NOT PUSH1 0x3F RETURNDATASIZE ADD AND DUP3 ADD PUSH1 0x40 MSTORE RETURNDATASIZE DUP3 MSTORE RETURNDATASIZE PUSH1 0x0 PUSH1 0x20 DUP5 ADD RETURNDATACOPY PUSH2 0x11C4 JUMP JUMPDEST PUSH1 0x60 SWAP2 POP JUMPDEST POP DUP1 MLOAD PUSH2 0x11E3 JUMPI PUSH1 0x40 MLOAD PUSH3 0x461BCD PUSH1 0xE5 SHL DUP2 MSTORE PUSH1 0x4 ADD PUSH2 0x459 SWAP1 PUSH2 0x1757 JUMP JUMPDEST DUP1 MLOAD DUP2 PUSH1 0x20 ADD REVERT JUMPDEST PUSH1 0x1 PUSH1 0x1 PUSH1 0xE0 SHL SUB NOT AND PUSH4 0xA85BD01 PUSH1 0xE1 SHL EQ SWAP1 POP PUSH2 0xBD3 JUMP JUMPDEST POP PUSH1 0x1 SWAP5 SWAP4 POP POP POP POP JUMP JUMPDEST PUSH1 0x1 PUSH1 0x1 PUSH1 0xA0 SHL SUB DUP3 AND PUSH2 0x1266 JUMPI PUSH1 0x40 MLOAD PUSH3 0x461BCD PUSH1 0xE5 SHL DUP2 MSTORE PUSH1 0x20 PUSH1 0x4 DUP3 ADD DUP2 SWAP1 MSTORE PUSH1 0x24 DUP3 ADD MSTORE PUSH32 0x4552433732313A206D696E7420746F20746865207A65726F2061646472657373 PUSH1 0x44 DUP3 ADD MSTORE PUSH1 0x64 ADD PUSH2 0x459 JUMP JUMPDEST PUSH1 0x0 DUP2 DUP2 MSTORE PUSH1 0x2 PUSH1 0x20 MSTORE PUSH1 0x40 SWAP1 KECCAK256 SLOAD PUSH1 0x1 PUSH1 0x1 PUSH1 0xA0 SHL SUB AND ISZERO PUSH2 0x12CB JUMPI PUSH1 0x40 MLOAD PUSH3 0x461BCD PUSH1 0xE5 SHL DUP2 MSTORE PUSH1 0x20 PUSH1 0x4 DUP3 ADD MSTORE PUSH1 0x1C PUSH1 0x24 DUP3 ADD MSTORE PUSH32 0x4552433732313A20746F6B656E20616C7265616479206D696E74656400000000 PUSH1 0x44 DUP3 ADD MSTORE PUSH1 0x64 ADD PUSH2 0x459 JUMP JUMPDEST PUSH1 0x1 PUSH1 0x1 PUSH1 0xA0 SHL SUB DUP3 AND PUSH1 0x0 SWAP1 DUP2 MSTORE PUSH1 0x3 PUSH1 0x20 MSTORE PUSH1 0x40 DUP2 KECCAK256 DUP1 SLOAD PUSH1 0x1 SWAP3 SWAP1 PUSH2 0x12F4 SWAP1 DUP5 SWAP1 PUSH2 0x173F JUMP JUMPDEST SWAP1 SWAP2 SSTORE POP POP PUSH1 0x0 DUP2 DUP2 MSTORE PUSH1 0x2 PUSH1 0x20 MSTORE PUSH1 0x40 DUP1 DUP3 KECCAK256 DUP1 SLOAD PUSH1 0x1 PUSH1 0x1 PUSH1 0xA0 SHL SUB NOT AND PUSH1 0x1 PUSH1 0x1 PUSH1 0xA0 SHL SUB DUP7 AND SWAP1 DUP2 OR SWAP1 SWAP2 SSTORE SWAP1 MLOAD DUP4 SWAP3 SWAP1 PUSH32 0xDDF252AD1BE2C89B69C2B068FC378DAA952BA7F163C4A11628F55A4DF523B3EF SWAP1 DUP3 SWAP1 LOG4 POP POP JUMP JUMPDEST PUSH1 0x1 PUSH1 0x1 PUSH1 0xE0 SHL SUB NOT DUP2 AND DUP2 EQ PUSH2 0xA59 JUMPI PUSH1 0x0 DUP1 REVERT JUMPDEST PUSH1 0x0 PUSH1 0x20 DUP3 DUP5 SUB SLT ISZERO PUSH2 0x137A JUMPI PUSH1 0x0 DUP1 REVERT JUMPDEST DUP2 CALLDATALOAD PUSH2 0x9B4 DUP2 PUSH2 0x1352 JUMP JUMPDEST PUSH1 0x0 JUMPDEST DUP4 DUP2 LT ISZERO PUSH2 0x13A0 JUMPI DUP2 DUP2 ADD MLOAD DUP4 DUP3 ADD MSTORE PUSH1 0x20 ADD PUSH2 0x1388 JUMP JUMPDEST DUP4 DUP2 GT ISZERO PUSH2 0x83F JUMPI POP POP PUSH1 0x0 SWAP2 ADD MSTORE JUMP JUMPDEST PUSH1 0x0 DUP2 MLOAD DUP1 DUP5 MSTORE PUSH2 0x13C9 DUP2 PUSH1 0x20 DUP7 ADD PUSH1 0x20 DUP7 ADD PUSH2 0x1385 JUMP JUMPDEST PUSH1 0x1F ADD PUSH1 0x1F NOT AND SWAP3 SWAP1 SWAP3 ADD PUSH1 0x20 ADD SWAP3 SWAP2 POP POP JUMP JUMPDEST PUSH1 0x20 DUP2 MSTORE PUSH1 0x0 PUSH2 0x9B4 PUSH1 0x20 DUP4 ADD DUP5 PUSH2 0x13B1 JUMP JUMPDEST PUSH1 0x0 PUSH1 0x20 DUP3 DUP5 SUB SLT ISZERO PUSH2 0x1402 JUMPI PUSH1 0x0 DUP1 REVERT JUMPDEST POP CALLDATALOAD SWAP2 SWAP1 POP JUMP JUMPDEST DUP1 CALLDATALOAD PUSH1 0x1 PUSH1 0x1 PUSH1 0xA0 SHL SUB DUP2 AND DUP2 EQ PUSH2 0x1420 JUMPI PUSH1 0x0 DUP1 REVERT JUMPDEST SWAP2 SWAP1 POP JUMP JUMPDEST PUSH1 0x0 DUP1 PUSH1 0x40 DUP4 DUP6 SUB SLT ISZERO PUSH2 0x1438 JUMPI PUSH1 0x0 DUP1 REVERT JUMPDEST PUSH2 0x1441 DUP4 PUSH2 0x1409 JUMP JUMPDEST SWAP5 PUSH1 0x20 SWAP4 SWAP1 SWAP4 ADD CALLDATALOAD SWAP4 POP POP POP JUMP JUMPDEST PUSH1 0x0 DUP1 PUSH1 0x0 PUSH1 0x60 DUP5 DUP7 SUB SLT ISZERO PUSH2 0x1464 JUMPI PUSH1 0x0 DUP1 REVERT JUMPDEST PUSH2 0x146D DUP5 PUSH2 0x1409 JUMP JUMPDEST SWAP3 POP PUSH2 0x147B PUSH1 0x20 DUP6 ADD PUSH2 0x1409 JUMP JUMPDEST SWAP2 POP PUSH1 0x40 DUP5 ADD CALLDATALOAD SWAP1 POP SWAP3 POP SWAP3 POP SWAP3 JUMP JUMPDEST PUSH1 0x0 PUSH1 0x20 DUP3 DUP5 SUB SLT ISZERO PUSH2 0x149D JUMPI PUSH1 0x0 DUP1 REVERT JUMPDEST PUSH2 0x9B4 DUP3 PUSH2 0x1409 JUMP JUMPDEST PUSH1 0x0 DUP1 PUSH1 0x40 DUP4 DUP6 SUB SLT ISZERO PUSH2 0x14B9 JUMPI PUSH1 0x0 DUP1 REVERT JUMPDEST PUSH2 0x14C2 DUP4 PUSH2 0x1409 JUMP JUMPDEST SWAP2 POP PUSH1 0x20 DUP4 ADD CALLDATALOAD DUP1 ISZERO ISZERO DUP2 EQ PUSH2 0x14D7 JUMPI PUSH1 0x0 DUP1 REVERT JUMPDEST DUP1 SWAP2 POP POP SWAP3 POP SWAP3 SWAP1 POP JUMP JUMPDEST PUSH4 0x4E487B71 PUSH1 0xE0 SHL PUSH1 0x0 MSTORE PUSH1 0x41 PUSH1 0x4 MSTORE PUSH1 0x24 PUSH1 0x0 REVERT JUMPDEST PUSH1 0x0 DUP1 PUSH1 0x0 DUP1 PUSH1 0x80 DUP6 DUP8 SUB SLT ISZERO PUSH2 0x150E JUMPI PUSH1 0x0 DUP1 REVERT JUMPDEST PUSH2 0x1517 DUP6 PUSH2 0x1409 JUMP JUMPDEST SWAP4 POP PUSH2 0x1525 PUSH1 0x20 DUP7 ADD PUSH2 0x1409 JUMP JUMPDEST SWAP3 POP PUSH1 0x40 DUP6 ADD CALLDATALOAD SWAP2 POP PUSH1 0x60 DUP6 ADD CALLDATALOAD PUSH8 0xFFFFFFFFFFFFFFFF DUP1 DUP3 GT ISZERO PUSH2 0x1549 JUMPI PUSH1 0x0 DUP1 REVERT JUMPDEST DUP2 DUP8 ADD SWAP2 POP DUP8 PUSH1 0x1F DUP4 ADD SLT PUSH2 0x155D JUMPI PUSH1 0x0 DUP1 REVERT JUMPDEST DUP2 CALLDATALOAD DUP2 DUP2 GT ISZERO PUSH2 0x156F JUMPI PUSH2 0x156F PUSH2 0x14E2 JUMP JUMPDEST PUSH1 0x40 MLOAD PUSH1 0x1F DUP3 ADD PUSH1 0x1F NOT SWAP1 DUP2 AND PUSH1 0x3F ADD AND DUP2 ADD SWAP1 DUP4 DUP3 GT DUP2 DUP4 LT OR ISZERO PUSH2 0x1597 JUMPI PUSH2 0x1597 PUSH2 0x14E2 JUMP JUMPDEST DUP2 PUSH1 0x40 MSTORE DUP3 DUP2 MSTORE DUP11 PUSH1 0x20 DUP5 DUP8 ADD ADD GT ISZERO PUSH2 0x15B0 JUMPI PUSH1 0x0 DUP1 REVERT JUMPDEST DUP3 PUSH1 0x20 DUP7 ADD PUSH1 0x20 DUP4 ADD CALLDATACOPY PUSH1 0x0 PUSH1 0x20 DUP5 DUP4 ADD ADD MSTORE DUP1 SWAP6 POP POP POP POP POP POP SWAP3 SWAP6 SWAP2 SWAP5 POP SWAP3 POP JUMP JUMPDEST PUSH1 0x0 DUP1 PUSH1 0x40 DUP4 DUP6 SUB SLT ISZERO PUSH2 0x15E7 JUMPI PUSH1 0x0 DUP1 REVERT JUMPDEST PUSH2 0x15F0 DUP4 PUSH2 0x1409 JUMP JUMPDEST SWAP2 POP PUSH2 0x15FE PUSH1 0x20 DUP5 ADD PUSH2 0x1409 JUMP JUMPDEST SWAP1 POP SWAP3 POP SWAP3 SWAP1 POP JUMP JUMPDEST PUSH1 0x1 DUP2 DUP2 SHR SWAP1 DUP3 AND DUP1 PUSH2 0x161B JUMPI PUSH1 0x7F DUP3 AND SWAP2 POP JUMPDEST PUSH1 0x20 DUP3 LT DUP2 EQ ISZERO PUSH2 0x163C JUMPI PUSH4 0x4E487B71 PUSH1 0xE0 SHL PUSH1 0x0 MSTORE PUSH1 0x22 PUSH1 0x4 MSTORE PUSH1 0x24 PUSH1 0x0 REVERT JUMPDEST POP SWAP2 SWAP1 POP JUMP JUMPDEST PUSH4 0x4E487B71 PUSH1 0xE0 SHL PUSH1 0x0 MSTORE PUSH1 0x11 PUSH1 0x4 MSTORE PUSH1 0x24 PUSH1 0x0 REVERT JUMPDEST PUSH1 0x0 PUSH1 0x0 NOT DUP3 EQ ISZERO PUSH2 0x166C JUMPI PUSH2 0x166C PUSH2 0x1642 JUMP JUMPDEST POP PUSH1 0x1 ADD SWAP1 JUMP JUMPDEST PUSH1 0x20 DUP1 DUP3 MSTORE PUSH1 0x31 SWAP1 DUP3 ADD MSTORE PUSH32 0x4552433732313A207472616E736665722063616C6C6572206973206E6F74206F PUSH1 0x40 DUP3 ADD MSTORE PUSH17 0x1DDB995C881B9BDC88185C1C1C9BDD9959 PUSH1 0x7A SHL PUSH1 0x60 DUP3 ADD MSTORE PUSH1 0x80 ADD SWAP1 JUMP JUMPDEST PUSH1 0x20 DUP1 DUP3 MSTORE DUP2 DUP2 ADD MSTORE PUSH32 0x4F776E61626C653A2063616C6C6572206973206E6F7420746865206F776E6572 PUSH1 0x40 DUP3 ADD MSTORE PUSH1 0x60 ADD SWAP1 JUMP JUMPDEST PUSH1 0x0 DUP4 MLOAD PUSH2 0x170B DUP2 DUP5 PUSH1 0x20 DUP9 ADD PUSH2 0x1385 JUMP JUMPDEST DUP4 MLOAD SWAP1 DUP4 ADD SWAP1 PUSH2 0x171F DUP2 DUP4 PUSH1 0x20 DUP9 ADD PUSH2 0x1385 JUMP JUMPDEST ADD SWAP5 SWAP4 POP POP POP POP JUMP JUMPDEST PUSH1 0x0 DUP3 DUP3 LT ISZERO PUSH2 0x173A JUMPI PUSH2 0x173A PUSH2 0x1642 JUMP JUMPDEST POP SUB SWAP1 JUMP JUMPDEST PUSH1 0x0 DUP3 NOT DUP3 GT ISZERO PUSH2 0x1752 JUMPI PUSH2 0x1752 PUSH2 0x1642 JUMP JUMPDEST POP ADD SWAP1 JUMP JUMPDEST PUSH1 0x20 DUP1 DUP3 MSTORE PUSH1 0x32 SWAP1 DUP3 ADD MSTORE PUSH32 0x4552433732313A207472616E7366657220746F206E6F6E204552433732315265 PUSH1 0x40 DUP3 ADD MSTORE PUSH18 0x31B2B4BB32B91034B6B83632B6B2B73A32B9 PUSH1 0x71 SHL PUSH1 0x60 DUP3 ADD MSTORE PUSH1 0x80 ADD SWAP1 JUMP JUMPDEST PUSH4 0x4E487B71 PUSH1 0xE0 SHL PUSH1 0x0 MSTORE PUSH1 0x12 PUSH1 0x4 MSTORE PUSH1 0x24 PUSH1 0x0 REVERT JUMPDEST PUSH1 0x0 DUP3 PUSH2 0x17CE JUMPI PUSH2 0x17CE PUSH2 0x17A9 JUMP JUMPDEST POP DIV SWAP1 JUMP JUMPDEST PUSH1 0x0 DUP3 PUSH2 0x17E2 JUMPI PUSH2 0x17E2 PUSH2 0x17A9 JUMP JUMPDEST POP MOD SWAP1 JUMP JUMPDEST PUSH4 0x4E487B71 PUSH1 0xE0 SHL PUSH1 0x0 MSTORE PUSH1 0x32 PUSH1 0x4 MSTORE PUSH1 0x24 PUSH1 0x0 REVERT JUMPDEST PUSH1 0x1 PUSH1 0x1 PUSH1 0xA0 SHL SUB DUP6 DUP2 AND DUP3 MSTORE DUP5 AND PUSH1 0x20 DUP3 ADD MSTORE PUSH1 0x40 DUP2 ADD DUP4 SWAP1 MSTORE PUSH1 0x80 PUSH1 0x60 DUP3 ADD DUP2 SWAP1 MSTORE PUSH1 0x0 SWAP1 PUSH2 0x1830 SWAP1 DUP4 ADD DUP5 PUSH2 0x13B1 JUMP JUMPDEST SWAP7 SWAP6 POP POP POP POP POP POP JUMP JUMPDEST PUSH1 0x0 PUSH1 0x20 DUP3 DUP5 SUB SLT ISZERO PUSH2 0x184C JUMPI PUSH1 0x0 DUP1 REVERT JUMPDEST DUP2 MLOAD PUSH2 0x9B4 DUP2 PUSH2 0x1352 JUMP INVALID LOG2 PUSH5 0x6970667358 0x22 SLT KECCAK256 0xC4 0xD4 PUSH24 0x165667DB922E9F83158DFFE0505FF6F4B7085CE0B74D9CB PUSH11 0x479B348A64736F6C634300 ADDMOD 0xC STOP CALLER ","sha1":"87c0063670c8f8fccfad72cd79527a0af4e9780a","source":"// SPDX-License-Identifier: MIT\n\npragma solidity ^0.8.0;\n\nimport \"./openzeppelin/contracts/token/ERC721/ERC721.sol\";\nimport \"./openzeppelin/contracts/security/Pausable.sol\";\nimport \"./openzeppelin/contracts/access/Ownable.sol\";\nimport \"./openzeppelin/contracts/utils/math/SafeMath.sol\";\n\n\ncontract BusinessCardNFTV2 is ERC721, Pausable, Ownable {\n    using SafeMath for uint256;\n\n    uint256 public totalSupply;\n    string public businessCardURI;\n\n    constructor(\n        string memory name_, \n        string memory symbol_,\n        string memory URI_\n    ) ERC721(name_, symbol_) {\n        businessCardURI = URI_;\n    }\n\n    function mint() public whenNotPaused {\n        _safeMint(msg.sender, totalSupply++);\n    }\n\n    function pause() external onlyOwner {\n        _pause();\n    }\n\n    function unpause() external onlyOwner {\n        _unpause();\n    }\n}","sourcePath":"contracts/BusinessCardNFTV2.sol","type":"contract","deployment":{"address":"0x3eD7a91A3274E2548d74063dF5AF7c306Efb6f51","chainid":"137","blockHeight":26287747}}