{
  "abi": [
    {
      "inputs": [
        {
          "internalType": "contract IController",
          "name": "_controller",
          "type": "address"
        }
      ],
      "stateMutability": "nonpayable",
      "type": "constructor"
    },
    {
      "anonymous": false,
      "inputs": [
        {
          "indexed": true,
          "internalType": "address",
          "name": "token",
          "type": "address"
        },
        {
          "indexed": false,
          "internalType": "uint256",
          "name": "amount",
          "type": "uint256"
        }
      ],
      "name": "Claim",
      "type": "event"
    },
    {
      "anonymous": false,
      "inputs": [
        {
          "indexed": true,
          "internalType": "address",
          "name": "vault",
          "type": "address"
        },
        {
          "indexed": true,
          "internalType": "address",
          "name": "token",
          "type": "address"
        },
        {
          "indexed": false,
          "internalType": "uint256",
          "name": "amount",
          "type": "uint256"
        }
      ],
      "name": "Deposit",
      "type": "event"
    },
    {
      "anonymous": false,
      "inputs": [
        {
          "indexed": true,
          "internalType": "address",
          "name": "previousOwner",
          "type": "address"
        },
        {
          "indexed": true,
          "internalType": "address",
          "name": "newOwner",
          "type": "address"
        }
      ],
      "name": "OwnershipTransferred",
      "type": "event"
    },
    {
      "anonymous": false,
      "inputs": [
        {
          "indexed": false,
          "internalType": "address",
          "name": "token",
          "type": "address"
        },
        {
          "indexed": false,
          "internalType": "address",
          "name": "amToken",
          "type": "address"
        }
      ],
      "name": "TokenAdded",
      "type": "event"
    },
    {
      "anonymous": false,
      "inputs": [
        {
          "indexed": true,
          "internalType": "address",
          "name": "vault",
          "type": "address"
        },
        {
          "indexed": true,
          "internalType": "address",
          "name": "token",
          "type": "address"
        },
        {
          "indexed": false,
          "internalType": "uint256",
          "name": "amount",
          "type": "uint256"
        }
      ],
      "name": "Withdraw",
      "type": "event"
    },
    {
      "inputs": [],
      "name": "DEPOSIT_FEE_BASE_POINTS",
      "outputs": [
        {
          "internalType": "uint256",
          "name": "",
          "type": "uint256"
        }
      ],
      "stateMutability": "view",
      "type": "function"
    },
    {
      "inputs": [],
      "name": "DEPOSIT_FEE_POINTS",
      "outputs": [
        {
          "internalType": "uint256",
          "name": "",
          "type": "uint256"
        }
      ],
      "stateMutability": "view",
      "type": "function"
    },
    {
      "inputs": [],
      "name": "LendingPool",
      "outputs": [
        {
          "internalType": "contract IAaveStake",
          "name": "",
          "type": "address"
        }
      ],
      "stateMutability": "view",
      "type": "function"
    },
    {
      "inputs": [],
      "name": "Rebalancer",
      "outputs": [
        {
          "internalType": "address",
          "name": "",
          "type": "address"
        }
      ],
      "stateMutability": "view",
      "type": "function"
    },
    {
      "inputs": [],
      "name": "Rewards",
      "outputs": [
        {
          "internalType": "contract IAaveStake",
          "name": "",
          "type": "address"
        }
      ],
      "stateMutability": "view",
      "type": "function"
    },
    {
      "inputs": [],
      "name": "TX_FEE_BASE_POINTS",
      "outputs": [
        {
          "internalType": "uint256",
          "name": "",
          "type": "uint256"
        }
      ],
      "stateMutability": "view",
      "type": "function"
    },
    {
      "inputs": [],
      "name": "TX_FEE_POINTS",
      "outputs": [
        {
          "internalType": "uint256",
          "name": "",
          "type": "uint256"
        }
      ],
      "stateMutability": "view",
      "type": "function"
    },
    {
      "inputs": [
        {
          "internalType": "uint256",
          "name": "",
          "type": "uint256"
        }
      ],
      "name": "aaveMarketTokens",
      "outputs": [
        {
          "internalType": "address",
          "name": "",
          "type": "address"
        }
      ],
      "stateMutability": "view",
      "type": "function"
    },
    {
      "inputs": [
        {
          "components": [
            {
              "internalType": "address",
              "name": "token",
              "type": "address"
            },
            {
              "internalType": "address",
              "name": "amToken",
              "type": "address"
            }
          ],
          "internalType": "struct AAVEBalancedStrategy.Tokens",
          "name": "_token",
          "type": "tuple"
        }
      ],
      "name": "addToken",
      "outputs": [],
      "stateMutability": "nonpayable",
      "type": "function"
    },
    {
      "inputs": [
        {
          "internalType": "address",
          "name": "_token",
          "type": "address"
        }
      ],
      "name": "balanceRatio",
      "outputs": [
        {
          "internalType": "uint256",
          "name": "",
          "type": "uint256"
        },
        {
          "internalType": "uint256",
          "name": "",
          "type": "uint256"
        }
      ],
      "stateMutability": "view",
      "type": "function"
    },
    {
      "inputs": [],
      "name": "claim",
      "outputs": [],
      "stateMutability": "nonpayable",
      "type": "function"
    },
    {
      "inputs": [],
      "name": "controller",
      "outputs": [
        {
          "internalType": "contract IController",
          "name": "",
          "type": "address"
        }
      ],
      "stateMutability": "view",
      "type": "function"
    },
    {
      "inputs": [
        {
          "internalType": "address",
          "name": "_from",
          "type": "address"
        },
        {
          "internalType": "address",
          "name": "_token",
          "type": "address"
        },
        {
          "internalType": "uint256",
          "name": "_amount",
          "type": "uint256"
        }
      ],
      "name": "deposit",
      "outputs": [],
      "stateMutability": "nonpayable",
      "type": "function"
    },
    {
      "inputs": [
        {
          "internalType": "uint256",
          "name": "_amountIn",
          "type": "uint256"
        }
      ],
      "name": "depositFee",
      "outputs": [
        {
          "internalType": "uint256",
          "name": "",
          "type": "uint256"
        }
      ],
      "stateMutability": "view",
      "type": "function"
    },
    {
      "inputs": [],
      "name": "feeAddress",
      "outputs": [
        {
          "internalType": "address",
          "name": "",
          "type": "address"
        }
      ],
      "stateMutability": "view",
      "type": "function"
    },
    {
      "inputs": [],
      "name": "owner",
      "outputs": [
        {
          "internalType": "address",
          "name": "",
          "type": "address"
        }
      ],
      "stateMutability": "view",
      "type": "function"
    },
    {
      "inputs": [],
      "name": "rebalanceBasePoints",
      "outputs": [
        {
          "internalType": "uint256",
          "name": "",
          "type": "uint256"
        }
      ],
      "stateMutability": "view",
      "type": "function"
    },
    {
      "inputs": [],
      "name": "rebalancePoints",
      "outputs": [
        {
          "internalType": "uint256",
          "name": "",
          "type": "uint256"
        }
      ],
      "stateMutability": "view",
      "type": "function"
    },
    {
      "inputs": [
        {
          "internalType": "address",
          "name": "_rebalancer",
          "type": "address"
        },
        {
          "internalType": "uint256",
          "name": "_rebalancePoints",
          "type": "uint256"
        },
        {
          "internalType": "uint256",
          "name": "_rebalanceBasePoints",
          "type": "uint256"
        }
      ],
      "name": "rebalanceSettings",
      "outputs": [],
      "stateMutability": "nonpayable",
      "type": "function"
    },
    {
      "inputs": [
        {
          "internalType": "address",
          "name": "_token",
          "type": "address"
        }
      ],
      "name": "rebalanceToken",
      "outputs": [],
      "stateMutability": "nonpayable",
      "type": "function"
    },
    {
      "inputs": [],
      "name": "renounceOwnership",
      "outputs": [],
      "stateMutability": "nonpayable",
      "type": "function"
    },
    {
      "inputs": [],
      "name": "reset",
      "outputs": [],
      "stateMutability": "nonpayable",
      "type": "function"
    },
    {
      "inputs": [],
      "name": "rewardToken",
      "outputs": [
        {
          "internalType": "address",
          "name": "",
          "type": "address"
        }
      ],
      "stateMutability": "view",
      "type": "function"
    },
    {
      "inputs": [],
      "name": "set",
      "outputs": [],
      "stateMutability": "nonpayable",
      "type": "function"
    },
    {
      "inputs": [],
      "name": "stake",
      "outputs": [
        {
          "internalType": "bool",
          "name": "",
          "type": "bool"
        }
      ],
      "stateMutability": "view",
      "type": "function"
    },
    {
      "inputs": [
        {
          "internalType": "address",
          "name": "",
          "type": "address"
        }
      ],
      "name": "tokenToAm",
      "outputs": [
        {
          "internalType": "address",
          "name": "",
          "type": "address"
        }
      ],
      "stateMutability": "view",
      "type": "function"
    },
    {
      "inputs": [
        {
          "internalType": "uint256",
          "name": "",
          "type": "uint256"
        }
      ],
      "name": "tokens",
      "outputs": [
        {
          "internalType": "address",
          "name": "",
          "type": "address"
        }
      ],
      "stateMutability": "view",
      "type": "function"
    },
    {
      "inputs": [
        {
          "internalType": "address",
          "name": "",
          "type": "address"
        }
      ],
      "name": "totalDeposits",
      "outputs": [
        {
          "internalType": "uint256",
          "name": "",
          "type": "uint256"
        }
      ],
      "stateMutability": "view",
      "type": "function"
    },
    {
      "inputs": [
        {
          "internalType": "address",
          "name": "newOwner",
          "type": "address"
        }
      ],
      "name": "transferOwnership",
      "outputs": [],
      "stateMutability": "nonpayable",
      "type": "function"
    },
    {
      "inputs": [
        {
          "internalType": "uint256",
          "name": "_amountIn",
          "type": "uint256"
        }
      ],
      "name": "txFee",
      "outputs": [
        {
          "internalType": "uint256",
          "name": "",
          "type": "uint256"
        }
      ],
      "stateMutability": "view",
      "type": "function"
    },
    {
      "inputs": [
        {
          "internalType": "address",
          "name": "",
          "type": "address"
        },
        {
          "internalType": "address",
          "name": "",
          "type": "address"
        }
      ],
      "name": "vaultDeposits",
      "outputs": [
        {
          "internalType": "uint256",
          "name": "",
          "type": "uint256"
        }
      ],
      "stateMutability": "view",
      "type": "function"
    },
    {
      "inputs": [
        {
          "internalType": "address",
          "name": "_from",
          "type": "address"
        },
        {
          "internalType": "address",
          "name": "_token",
          "type": "address"
        },
        {
          "internalType": "uint256",
          "name": "_amount",
          "type": "uint256"
        }
      ],
      "name": "withdraw",
      "outputs": [],
      "stateMutability": "nonpayable",
      "type": "function"
    }
  ],
  "bytecode": "6101206040523480156200001257600080fd5b5060405162003647380380620036478339810160408190526200003591620005e5565b8060006103e881813360016004846200004d62000467565b600080546001600160a01b0319166001600160a01b0383169081178255604051929350917f8be0079c531659141344cd1fd0a4f28419497f9722a3daafe3b4186f6b6457e0908290a3506001600160601b0319606089901b1660805260a087905260c086905260e0859052610100849052620000cb8383836200046b565b5050505050505050620000dd6200059d565b50604080516101e081018252738f3cf7ad23cd3cadbd9735aff958023239c6a0636101a082019081527327f8d03b3a2196956ed754badc28d73be8830a6e6101c0830152815281518083018352732791bca1f2de4661ed88a30c99a7a9449aa841748152731a13f4ca1d028320a707d99520abfefca3998b7f602082810191909152808301919091528251808401845273c2132d05d31c914a87c6611c10748aeb04b58e8f81527360d55f02a771d515e077c9c2403a1ef324885cec818301528284015282518084018452731bfd67037b42cf73acf2047067bd4f2c47d9bfd68152735c2ed810328349100a66b82b78a1791b101c9d6181830152606083015282518084018452737ceb23fd6bc0add59e62ac25578270cff1b9f61981527328424507fefb6f7f8e9d3860f56504e4e5f5f39081830152608083015282518084018452730d500b1d8e8ef31e21c99d1db9a6444d3adf12708152738df3aad3a84da6b69a4da8aec3ea40d9091b2ac48183015260a0830152825180840184527385955046df4668e1dd369d2de9f3aeb98dd2a36981527381fb82aacb4abe262fc57f06fd4c1d2de347d7b18183015260c08301528251808401845273172370d5cd63279efa6d502dab29171933a610af8152733df8f92b7e798820ddcca2ebea7babda2c90c4ad8183015260e0830152825180840184527353e0bca35ec356bd5dddfebbd1fc0fd03fabad398152730ca2e42e8c21954af73bc9af1213e4e81d6a669a8183015261010083015282518084018452730b3f868e0be5597d5db7feb59e1cadbb0fdda50a81527321ec9431b5b55c5339eb1ae7582763087f98fac28183015261012083015282518084018452739a71012b13ca4d3d0cdc72a177df3ef03b0e76a3815273c4195d4060daeac44058ed668aa5efec50d77ff6818301526101408301528251808401845273385eeac5cb85a38a9a07a70c73e0a3271cfb54a7815273080b5bf8f360f624628e0fb961f4e67c9e3c7cf181830152610160830152825180840190935273d6df932a45c0f255f85145f286ea0b292b21c90b8352731d2a0e5ec8e5bbdca5cb219e649b565d8e5c33609083015261018081019190915260005b600d8110156200045157620004488282600d81106200042057fe5b6020020151518383600d81106200043357fe5b602002015160200151620004be60201b60201c565b60010162000405565b50506009805460ff19166001179055506200067c565b3390565b600380546001600160a01b0319166001600160a01b03851617905580821115620004b25760405162461bcd60e51b8152600401620004a9906200062f565b60405180910390fd5b60049190915560055550565b6001600160a01b0380831660008181526008602052604080822080549486166001600160a01b031995861681179091556006805460018181019092557ff652222313e28459528d920b65115c16c04f3efc82aaedc97be59f3f377c0d3f01805487169095179094556007805494850181559092527fa66cc928b5edb82af9bd49922954155ab7b0942694bea4ce44661d9a8736c688909201805490931617909155517fdffbd9ded1c09446f09377de547142dcce7dc541c8b0b028142b1eba7026b9e79062000591908490849062000615565b60405180910390a15050565b604051806101a00160405280600d905b620005b7620005ce565b815260200190600190039081620005ad5790505090565b604080518082019091526000808252602082015290565b600060208284031215620005f7578081fd5b81516001600160a01b03811681146200060e578182fd5b9392505050565b6001600160a01b0392831681529116602082015260400190565b6020808252602d908201527f436f726e466920537472617465677920426173653a20496e76616c696420526560408201526c62616c616e636520526174696f60981b606082015260800190565b60805160601c60a05160c05160e05161010051612f56620006f1600039806106de52806111785250806106b5528061070352806109c152508061041d52806119e55250806103f45280610442528061047e52508061081b52806108af52806116af52806117435280611ae95250612f566000f3fe608060405234801561001057600080fd5b50600436106101f05760003560e01c8063b363b1c81161010f578063d9caed12116100a2578063f575993b11610071578063f575993b146103a4578063f77c4791146103ac578063f7c618c1146103b4578063fe4093c8146103bc576101f0565b8063d9caed1214610363578063d9f2613e14610376578063e94032561461037e578063f2fde38b14610391576101f0565b8063d342c402116100de578063d342c4021461032d578063d656c16a14610340578063d7eedd5e14610353578063d826f88f1461035b576101f0565b8063b363b1c8146102e9578063b8e010de146102fc578063bea0d7fb14610304578063c280895414610325576101f0565b80636a117e61116101875780638340f549116101565780638340f549146102be5780638da5cb5b146102d15780639814278e146102d9578063a4871394146102e1576101f0565b80636a117e61146102935780636d880f521461029b578063715018a6146102ae57806377a430ea146102b6576101f0565b80634e71d92d116101c35780634e71d92d146102505780634f64b2be1461025a5780635017f9fb1461026d5780635f6501ab14610280576101f0565b80633a4b66f1146101f55780634127535814610213578063423c485a146102285780634c46eaaa14610248575b600080fd5b6101fd6103cf565b60405161020a91906128f7565b60405180910390f35b61021b6103d8565b60405161020a91906127df565b61023b61023636600461272c565b6103f0565b60405161020a9190612ec8565b61023b61047c565b6102586104a0565b005b61021b61026836600461272c565b61068a565b61023b61027b36600461272c565b6106b1565b61023b61028e36600461260d565b610727565b61023b610744565b6102586102a93660046126d4565b61074a565b610258610794565b61023b610813565b6102586102cc366004612641565b610819565b61021b6109b0565b61023b6109bf565b61021b6109e3565b61021b6102f736600461272c565b6109f2565b6102586109ff565b6103176103123660046125f2565b610a66565b60405161020a929190612ed1565b61021b610b7d565b61021b61033b3660046125f2565b610b95565b61025861034e3660046125f2565b610bb0565b61023b611176565b61025861119a565b610258610371366004612641565b6116ad565b61023b6119e3565b61023b61038c3660046125f2565b611a07565b61025861039f3660046125f2565b611a19565b61021b611acf565b61021b611ae7565b61021b611b0b565b6102586103ca366004612681565b611b23565b60095460ff1681565b7322b20054bbd6dc5c23d7c7595e092ca728a00c3281565b60007f0000000000000000000000000000000000000000000000000000000000000000156104735761046c7f0000000000000000000000000000000000000000000000000000000000000000610466847f0000000000000000000000000000000000000000000000000000000000000000611b63565b90611ba6565b9050610477565b5060005b919050565b7f000000000000000000000000000000000000000000000000000000000000000081565b6003546001600160a01b031633146104d35760405162461bcd60e51b81526004016104ca90612afd565b60405180910390fd5b60095460ff166104f55760405162461bcd60e51b81526004016104ca90612979565b6040516345accf9360e11b815260009073357d51124f59836ded84c8a1730d72b749d8bc2390638b599f269061053290600790309060040161289a565b60206040518083038186803b15801561054a57600080fd5b505afa15801561055e573d6000803e3d6000fd5b505050506040513d601f19601f820116820180604052508101906105829190612744565b111561068857604051633111e7b360e01b815260009073357d51124f59836ded84c8a1730d72b749d8bc2390633111e7b3906105dd90600790600019907322b20054bbd6dc5c23d7c7595e092ca728a00c32906004016128c4565b602060405180830381600087803b1580156105f757600080fd5b505af115801561060b573d6000803e3d6000fd5b505050506040513d601f19601f8201168201806040525081019061062f9190612744565b9050730d500b1d8e8ef31e21c99d1db9a6444d3adf12706001600160a01b03167f47cee97cb7acd717b3c0aa1435d004cd5b3c8c57d70dbceb4e4458bbd60e39d48260405161067e9190612ec8565b60405180910390a2505b565b6006818154811061069757fe5b6000918252602090912001546001600160a01b0316905081565b60007f0000000000000000000000000000000000000000000000000000000000000000156104735761046c7f0000000000000000000000000000000000000000000000000000000000000000610466847f0000000000000000000000000000000000000000000000000000000000000000611b63565b600260209081526000928352604080842090915290825290205481565b60055481565b610752611be8565b6000546001600160a01b0390811691161461077f5760405162461bcd60e51b81526004016104ca90612ce2565b61079181600001518260200151611bec565b50565b61079c611be8565b6000546001600160a01b039081169116146107c95760405162461bcd60e51b81526004016104ca90612ce2565b600080546040516001600160a01b03909116907f8be0079c531659141344cd1fd0a4f28419497f9722a3daafe3b4186f6b6457e0908390a3600080546001600160a01b0319169055565b60045481565b7f00000000000000000000000000000000000000000000000000000000000000006001600160a01b031663bcb5703d6040518163ffffffff1660e01b815260040160206040518083038186803b15801561087257600080fd5b505afa158015610886573d6000803e3d6000fd5b505050506040513d601f19601f820116820180604052508101906108aa919061275c565b60ff167f00000000000000000000000000000000000000000000000000000000000000006001600160a01b031663f815c03d336040518263ffffffff1660e01b81526004016108f991906127df565b60206040518083038186803b15801561091157600080fd5b505afa158015610925573d6000803e3d6000fd5b505050506040513d601f19601f82011682018060405250810190610949919061275c565b60ff16146109695760405162461bcd60e51b81526004016104ca90612d6b565b6001600160a01b03828116600090815260086020526040902054166109a05760405162461bcd60e51b81526004016104ca90612a3d565b6109ab838383611cc9565b505050565b6000546001600160a01b031690565b7f000000000000000000000000000000000000000000000000000000000000000081565b6003546001600160a01b031681565b6007818154811061069757fe5b610a07611be8565b6000546001600160a01b03908116911614610a345760405162461bcd60e51b81526004016104ca90612ce2565b60095460ff1615610a575760405162461bcd60e51b81526004016104ca90612935565b6009805460ff19166001179055565b600080826001600160a01b03166370a08231306040518263ffffffff1660e01b8152600401610a9591906127df565b60206040518083038186803b158015610aad57600080fd5b505afa158015610ac1573d6000803e3d6000fd5b505050506040513d601f19601f82011682018060405250810190610ae59190612744565b6001600160a01b03808516600090815260086020526040908190205490516370a0823160e01b81529116906370a0823190610b249030906004016127df565b60206040518083038186803b158015610b3c57600080fd5b505afa158015610b50573d6000803e3d6000fd5b505050506040513d601f19601f82011682018060405250810190610b749190612744565b91509150915091565b73357d51124f59836ded84c8a1730d72b749d8bc2381565b6008602052600090815260409020546001600160a01b031681565b6003546001600160a01b03163314610bda5760405162461bcd60e51b81526004016104ca90612afd565b60095460ff16610bfc5760405162461bcd60e51b81526004016104ca90612979565b6040516370a0823160e01b81526000906001600160a01b038316906370a0823190610c2b9030906004016127df565b60206040518083038186803b158015610c4357600080fd5b505afa158015610c57573d6000803e3d6000fd5b505050506040513d601f19601f82011682018060405250810190610c7b9190612744565b90508015610d895760405163095ea7b360e01b81526001600160a01b0383169063095ea7b390610cc590738dff5e27ea6b7ac08ebfdf9eb090f32ee9a30fcf908590600401612831565b602060405180830381600087803b158015610cdf57600080fd5b505af1158015610cf3573d6000803e3d6000fd5b505050506040513d601f19601f82011682018060405250810190610d1791906126b4565b5060405163e8eda9df60e01b8152738dff5e27ea6b7ac08ebfdf9eb090f32ee9a30fcf9063e8eda9df90610d569085908590309060009060040161286d565b600060405180830381600087803b158015610d7057600080fd5b505af1158015610d84573d6000803e3d6000fd5b505050505b6001600160a01b0380831660009081526001602090815260408083205460089092528083205490516370a0823160e01b81529293610e2e939116906370a0823190610dd89030906004016127df565b60206040518083038186803b158015610df057600080fd5b505afa158015610e04573d6000803e3d6000fd5b505050506040513d601f19601f82011682018060405250810190610e289190612744565b90611e92565b6005546004546001600160a01b03861660009081526001602052604081205493945092610e6092916104669190611b63565b90508115610f6d57738dff5e27ea6b7ac08ebfdf9eb090f32ee9a30fcf6369328dec85610e8d8585611ed4565b306040518463ffffffff1660e01b8152600401610eac9392919061284a565b602060405180830381600087803b158015610ec657600080fd5b505af1158015610eda573d6000803e3d6000fd5b505050506040513d601f19601f82011682018060405250810190610efe9190612744565b50610f276001600160a01b0385167322b20054bbd6dc5c23d7c7595e092ca728a00c3284611ef9565b836001600160a01b03167f47cee97cb7acd717b3c0aa1435d004cd5b3c8c57d70dbceb4e4458bbd60e39d483604051610f609190612ec8565b60405180910390a261101e565b801561100657604051631a4ca37b60e21b8152738dff5e27ea6b7ac08ebfdf9eb090f32ee9a30fcf906369328dec90610fae9087908590309060040161284a565b602060405180830381600087803b158015610fc857600080fd5b505af1158015610fdc573d6000803e3d6000fd5b505050506040513d601f19601f820116820180604052508101906110009190612744565b5061101e565b60405162461bcd60e51b81526004016104ca90612b76565b6000611134856001600160a01b03166370a08231306040518263ffffffff1660e01b815260040161104f91906127df565b60206040518083038186803b15801561106757600080fd5b505afa15801561107b573d6000803e3d6000fd5b505050506040513d601f19601f8201168201806040525081019061109f9190612744565b6001600160a01b03808816600090815260086020526040908190205490516370a0823160e01b81529116906370a08231906110de9030906004016127df565b60206040518083038186803b1580156110f657600080fd5b505afa15801561110a573d6000803e3d6000fd5b505050506040513d601f19601f8201168201806040525081019061112e9190612744565b90611ed4565b6001600160a01b03861660009081526001602052604090205490915081101561116f5760405162461bcd60e51b81526004016104ca90612e05565b5050505050565b7f000000000000000000000000000000000000000000000000000000000000000081565b6111a2611be8565b6000546001600160a01b039081169116146111cf5760405162461bcd60e51b81526004016104ca90612ce2565b60095460ff166111f15760405162461bcd60e51b81526004016104ca90612e82565b6009805460ff191690556040516345accf9360e11b815260009073357d51124f59836ded84c8a1730d72b749d8bc2390638b599f269061123890600790309060040161289a565b60206040518083038186803b15801561125057600080fd5b505afa158015611264573d6000803e3d6000fd5b505050506040513d601f19601f820116820180604052508101906112889190612744565b111561138e57604051633111e7b360e01b815260009073357d51124f59836ded84c8a1730d72b749d8bc2390633111e7b3906112e390600790600019907322b20054bbd6dc5c23d7c7595e092ca728a00c32906004016128c4565b602060405180830381600087803b1580156112fd57600080fd5b505af1158015611311573d6000803e3d6000fd5b505050506040513d601f19601f820116820180604052508101906113359190612744565b9050730d500b1d8e8ef31e21c99d1db9a6444d3adf12706001600160a01b03167f47cee97cb7acd717b3c0aa1435d004cd5b3c8c57d70dbceb4e4458bbd60e39d4826040516113849190612ec8565b60405180910390a2505b60005b60065481101561079157738dff5e27ea6b7ac08ebfdf9eb090f32ee9a30fcf6001600160a01b03166369328dec600683815481106113cb57fe5b6000918252602090912001546040516001600160e01b031960e084901b168152611407916001600160a01b03169060001990309060040161284a565b602060405180830381600087803b15801561142157600080fd5b505af1158015611435573d6000803e3d6000fd5b505050506040513d601f19601f820116820180604052508101906114599190612744565b5060006006828154811061146957fe5b6000918252602090912001546040516370a0823160e01b81526001600160a01b03909116906370a08231906114a29030906004016127df565b60206040518083038186803b1580156114ba57600080fd5b505afa1580156114ce573d6000803e3d6000fd5b505050506040513d601f19601f820116820180604052508101906114f29190612744565b9050600160006006848154811061150557fe5b60009182526020808320909101546001600160a01b031683528201929092526040019020548111156115b9576000611573600160006006868154811061154757fe5b60009182526020808320909101546001600160a01b031683528201929092526040019020548390611e92565b90506115b77322b20054bbd6dc5c23d7c7595e092ca728a00c32826006868154811061159b57fe5b6000918252602090912001546001600160a01b03169190611ef9565b505b60016000600684815481106115ca57fe5b60009182526020808320909101546001600160a01b0316835282019290925260400190205460068054849081106115fd57fe5b6000918252602090912001546040516370a0823160e01b81526001600160a01b03909116906370a08231906116369030906004016127df565b60206040518083038186803b15801561164e57600080fd5b505afa158015611662573d6000803e3d6000fd5b505050506040513d601f19601f820116820180604052508101906116869190612744565b10156116a45760405162461bcd60e51b81526004016104ca906129b0565b50600101611391565b7f00000000000000000000000000000000000000000000000000000000000000006001600160a01b03166324e702ed6040518163ffffffff1660e01b815260040160206040518083038186803b15801561170657600080fd5b505afa15801561171a573d6000803e3d6000fd5b505050506040513d601f19601f8201168201806040525081019061173e919061275c565b60ff167f00000000000000000000000000000000000000000000000000000000000000006001600160a01b031663f815c03d336040518263ffffffff1660e01b815260040161178d91906127df565b60206040518083038186803b1580156117a557600080fd5b505afa1580156117b9573d6000803e3d6000fd5b505050506040513d601f19601f820116820180604052508101906117dd919061275c565b60ff1614156117fe5760405162461bcd60e51b81526004016104ca90612c0b565b6001600160a01b03828116600090815260086020526040902054166118355760405162461bcd60e51b81526004016104ca90612a3d565b6040516370a0823160e01b81526000906001600160a01b038416906370a08231906118649030906004016127df565b60206040518083038186803b15801561187c57600080fd5b505afa158015611890573d6000803e3d6000fd5b505050506040513d601f19601f820116820180604052508101906118b49190612744565b905080821115806118c8575060095460ff16155b156118dd576118d8848484611f4f565b6118e8565b6118e884848461206f565b60006119a8846001600160a01b03166370a08231306040518263ffffffff1660e01b815260040161191991906127df565b60206040518083038186803b15801561193157600080fd5b505afa158015611945573d6000803e3d6000fd5b505050506040513d601f19601f820116820180604052508101906119699190612744565b6001600160a01b03808716600090815260086020526040908190205490516370a0823160e01b81529116906370a08231906110de9030906004016127df565b6001600160a01b03851660009081526001602052604090205490915081101561116f5760405162461bcd60e51b81526004016104ca90612e05565b7f000000000000000000000000000000000000000000000000000000000000000081565b60016020526000908152604090205481565b611a21611be8565b6000546001600160a01b03908116911614611a4e5760405162461bcd60e51b81526004016104ca90612ce2565b6001600160a01b038116611a745760405162461bcd60e51b81526004016104ca906129f7565b600080546040516001600160a01b03808516939216917f8be0079c531659141344cd1fd0a4f28419497f9722a3daafe3b4186f6b6457e091a3600080546001600160a01b0319166001600160a01b0392909216919091179055565b738dff5e27ea6b7ac08ebfdf9eb090f32ee9a30fcf81565b7f000000000000000000000000000000000000000000000000000000000000000081565b730d500b1d8e8ef31e21c99d1db9a6444d3adf127081565b611b2b611be8565b6000546001600160a01b03908116911614611b585760405162461bcd60e51b81526004016104ca90612ce2565b6109ab83838361237d565b600082611b7257506000611ba0565b82820282848281611b7f57fe5b0414611b9d5760405162461bcd60e51b81526004016104ca90612ca1565b90505b92915050565b6000611b9d83836040518060400160405280601a81526020017f536166654d6174683a206469766973696f6e206279207a65726f0000000000008152506123c4565b3390565b6001600160a01b0380831660008181526008602052604080822080549486166001600160a01b031995861681179091556006805460018181019092557ff652222313e28459528d920b65115c16c04f3efc82aaedc97be59f3f377c0d3f01805487169095179094556007805494850181559092527fa66cc928b5edb82af9bd49922954155ab7b0942694bea4ce44661d9a8736c688909201805490931617909155517fdffbd9ded1c09446f09377de547142dcce7dc541c8b0b028142b1eba7026b9e790611cbd90849084906127f3565b60405180910390a15050565b8015611e7a576040516370a0823160e01b815282906000906001600160a01b038316906370a0823190611d009030906004016127df565b60206040518083038186803b158015611d1857600080fd5b505afa158015611d2c573d6000803e3d6000fd5b505050506040513d601f19601f82011682018060405250810190611d509190612744565b9050611d676001600160a01b0383168630866123fb565b82611d9882846001600160a01b03166370a08231306040518263ffffffff1660e01b8152600401610dd891906127df565b14611db55760405162461bcd60e51b81526004016104ca90612a83565b6001600160a01b038416600090815260016020526040902054611dd89084611ed4565b6001600160a01b03851660008181526001602090815260408083209490945533825260028152838220928252919091522054611e149084611ed4565b3360008181526002602090815260408083206001600160a01b038a1680855292529182902093909355517f5548c837ab068cf56a2c2479df0882a4922fd203edb7517321831d95078c5f6290611e6b908790612ec8565b60405180910390a350506109ab565b60405162461bcd60e51b81526004016104ca90612bc3565b6000611b9d83836040518060400160405280601e81526020017f536166654d6174683a207375627472616374696f6e206f766572666c6f770000815250612422565b600082820183811015611b9d5760405162461bcd60e51b81526004016104ca90612ac6565b6109ab8363a9059cbb60e01b8484604051602401611f18929190612831565b60408051601f198184030181529190526020810180516001600160e01b03166001600160e01b03199093169290921790915261244e565b3360009081526002602090815260408083206001600160a01b0386168452909152902054811115611f925760405162461bcd60e51b81526004016104ca90612d17565b80156109ab57611fac6001600160a01b0383168483611ef9565b6001600160a01b038216600090815260016020526040902054611fcf9082611e92565b6001600160a01b0383166000818152600160209081526040808320949094553382526002815283822092825291909152205461200b9082611e92565b3360008181526002602090815260408083206001600160a01b03881680855292529182902093909355517f9b1bfa7fa9ee420a16e124f794c35ac9f90472acc99140eb2f6447c714cad8eb90612062908590612ec8565b60405180910390a3505050565b61207a838383612533565b6040516370a0823160e01b81526000906001600160a01b038416906370a08231906120a99030906004016127df565b60206040518083038186803b1580156120c157600080fd5b505afa1580156120d5573d6000803e3d6000fd5b505050506040513d601f19601f820116820180604052508101906120f99190612744565b905080156122075760405163095ea7b360e01b81526001600160a01b0384169063095ea7b39061214390738dff5e27ea6b7ac08ebfdf9eb090f32ee9a30fcf908590600401612831565b602060405180830381600087803b15801561215d57600080fd5b505af1158015612171573d6000803e3d6000fd5b505050506040513d601f19601f8201168201806040525081019061219591906126b4565b5060405163e8eda9df60e01b8152738dff5e27ea6b7ac08ebfdf9eb090f32ee9a30fcf9063e8eda9df906121d49086908590309060009060040161286d565b600060405180830381600087803b1580156121ee57600080fd5b505af1158015612202573d6000803e3d6000fd5b505050505b6001600160a01b038084166000908152600860205260408082205490516370a0823160e01b8152919216906370a08231906122469030906004016127df565b60206040518083038186803b15801561225e57600080fd5b505afa158015612272573d6000803e3d6000fd5b505050506040513d601f19601f820116820180604052508101906122969190612744565b6005546004546001600160a01b038716600090815260016020526040812054939450926122c892916104669190611b63565b9050738dff5e27ea6b7ac08ebfdf9eb090f32ee9a30fcf6369328dec866122ef8488611ed4565b306040518463ffffffff1660e01b815260040161230e9392919061284a565b602060405180830381600087803b15801561232857600080fd5b505af115801561233c573d6000803e3d6000fd5b505050506040513d601f19601f820116820180604052508101906123609190612744565b506123756001600160a01b0386168786611ef9565b505050505050565b600380546001600160a01b0319166001600160a01b038516179055808211156123b85760405162461bcd60e51b81526004016104ca90612c54565b60049190915560055550565b600081836123e55760405162461bcd60e51b81526004016104ca9190612902565b5060008385816123f157fe5b0495945050505050565b61241c846323b872dd60e01b858585604051602401611f189392919061280d565b50505050565b600081848411156124465760405162461bcd60e51b81526004016104ca9190612902565b505050900390565b612460826001600160a01b031661259f565b61247c5760405162461bcd60e51b81526004016104ca90612e4b565b60006060836001600160a01b03168360405161249891906127c3565b6000604051808303816000865af19150503d80600081146124d5576040519150601f19603f3d011682016040523d82523d6000602084013e6124da565b606091505b5091509150816124fc5760405162461bcd60e51b81526004016104ca90612b41565b80511561241c578080602001905181019061251791906126b4565b61241c5760405162461bcd60e51b81526004016104ca90612dbb565b3360009081526002602090815260408083206001600160a01b03861684529091529020548111156125765760405162461bcd60e51b81526004016104ca90612d17565b80156109ab576001600160a01b038216600090815260016020526040902054611fcf9082611e92565b6000813f7fc5d2460186f7233c927e7db2dcc703c0e500b653ca82273b7bfad8045d85a4708181148015906125d357508115155b949350505050565b80356001600160a01b0381168114611ba057600080fd5b600060208284031215612603578081fd5b611b9d83836125db565b6000806040838503121561261f578081fd5b61262984846125db565b915061263884602085016125db565b90509250929050565b600080600060608486031215612655578081fd5b833561266081612f0b565b9250602084013561267081612f0b565b929592945050506040919091013590565b600080600060608486031215612695578283fd5b61269f85856125db565b95602085013595506040909401359392505050565b6000602082840312156126c5578081fd5b81518015158114611b9d578182fd5b6000604082840312156126e5578081fd5b6040516040810181811067ffffffffffffffff82111715612704578283fd5b60405261271184846125db565b815261272084602085016125db565b60208201529392505050565b60006020828403121561273d578081fd5b5035919050565b600060208284031215612755578081fd5b5051919050565b60006020828403121561276d578081fd5b815160ff81168114611b9d578182fd5b6000815480845260208085019450838352808320835b838110156127b85781546001600160a01b031687529582019560019182019101612793565b509495945050505050565b600082516127d5818460208701612edf565b9190910192915050565b6001600160a01b0391909116815260200190565b6001600160a01b0392831681529116602082015260400190565b6001600160a01b039384168152919092166020820152604081019190915260600190565b6001600160a01b03929092168252602082015260400190565b6001600160a01b0393841681526020810192909252909116604082015260600190565b6001600160a01b03948516815260208101939093529216604082015261ffff909116606082015260800190565b6000604082526128ad604083018561277d565b905060018060a01b03831660208301529392505050565b6000606082526128d7606083018661277d565b6020830194909452506001600160a01b0391909116604090910152919050565b901515815260200190565b6000602082528251806020840152612921816040850160208701612edf565b601f01601f19169190910160400192915050565b60208082526024908201527f436f726e4669204141564520422e2053747261746567793a20416c72656164796040820152630814d95d60e21b606082015260800190565b60208082526018908201527f436f726e46693a205374616b696e672044697361626c65640000000000000000604082015260600190565b60208082526027908201527f436f726e4669204141564520422e2053747261746567793a2042616c616e63656040820152661022b93937b91d60c91b606082015260800190565b60208082526026908201527f4f776e61626c653a206e6577206f776e657220697320746865207a65726f206160408201526564647265737360d01b606082015260800190565b60208082526026908201527f436f726e4669204141564520422e2053747261746567793a20496e76616c6964604082015265102a37b5b2b760d11b606082015260800190565b60208082526023908201527f436f726e466920537472617465677920426173653a204465706f7369742045726040820152623937b960e91b606082015260800190565b6020808252601b908201527f536166654d6174683a206164646974696f6e206f766572666c6f770000000000604082015260600190565b60208082526024908201527f436f726e466920537472617465677920426173653a20496e76616c6964204361604082015263363632b960e11b606082015260800190565b6020808252818101527f5361666545524332303a206c6f772d6c6576656c2063616c6c206661696c6564604082015260600190565b6020808252602d908201527f436f726e4669204141564520422e2053747261746567793a204e6f7468696e6760408201526c20746f20526562616c616e636560981b606082015260800190565b60208082526028908201527f436f726e466920537472617465677920426173653a204465706f73697420416d6040820152676f756e742027302760c01b606082015260800190565b60208082526029908201527f436f726e466920537472617465677920426173653a205661756c74204f6e6c7960408201526810233ab731ba34b7b760b91b606082015260800190565b6020808252602d908201527f436f726e466920537472617465677920426173653a20496e76616c696420526560408201526c62616c616e636520526174696f60981b606082015260800190565b60208082526021908201527f536166654d6174683a206d756c7469706c69636174696f6e206f766572666c6f6040820152607760f81b606082015260800190565b6020808252818101527f4f776e61626c653a2063616c6c6572206973206e6f7420746865206f776e6572604082015260600190565b60208082526034908201527f436f726e466920537472617465677920426173653a205661756c742057697468604082015273191c985dc8105b5bdd5b9d08115e18d95959195960621b606082015260800190565b60208082526030908201527f436f726e466920537472617465677920426173653a204163746976652056617560408201526f363a1027b7363c90233ab731ba34b7b760811b606082015260800190565b6020808252602a908201527f5361666545524332303a204552433230206f7065726174696f6e20646964206e6040820152691bdd081cdd58d8d9595960b21b606082015260800190565b60208082526026908201527f436f726e4669204141564520422e2053747261746567793a2042616c616e63656040820152651022b93937b960d11b606082015260800190565b6020808252601f908201527f5361666545524332303a2063616c6c20746f206e6f6e2d636f6e747261637400604082015260600190565b60208082526026908201527f436f726e4669204141564520422e2053747261746567793a20416c72656164796040820152650814995cd95d60d21b606082015260800190565b90815260200190565b918252602082015260400190565b60005b83811015612efa578181015183820152602001612ee2565b8381111561241c5750506000910152565b6001600160a01b038116811461079157600080fdfea264697066735822122005f6b4bfa12080d984fb5c5dc7e4b92bec8e1182dc2ea81f117b0bc035399c5b64736f6c634300060c0033",
  "bytecodeSha1": "639b445a7b10c829cf05cd1e3d300af7e865c60b",
  "compiler": {
    "evm_version": "istanbul",
    "optimizer": {
      "enabled": true,
      "runs": 200
    },
    "version": "0.6.12+commit.27d51765"
  },
  "contractName": "AAVEBalancedStrategy",
  "language": "Solidity",
  "natspec": {
    "author": "C.W.B.",
    "kind": "dev",
    "methods": {
      "addToken((address,address))": {
        "details": "Use to add an ERC20 token and its respective AAVE market token. Only add tokens that can be deposited into AAVE. This function is restricted to only the owner of this contract.",
        "params": {
          "_token": ": Tokens(ERC20 token address, AAVE market token equivalent)"
        }
      },
      "balanceRatio(address)": {
        "details": "View the ratio of unstaked to staked tokens",
        "params": {
          "_token": ": ERC20 token address"
        },
        "returns": {
          "_0": "(unstaked balance, staked balance) "
        }
      },
      "claim()": {
        "notice": "OoOoOoOoOoOoOoOoOoOoOoOoOoOoOoOoOoOoOoOoOoOoOoOoOoOoOoOoOoOoOoOoOoOoOoOoOoOoOoOo"
      },
      "constructor": {
        "params": {
          "_controller": ": Corn Finance Controller contract "
        }
      },
      "deposit(address,address,uint256)": {
        "details": "Only currently active vaults can deposits tokens into this holding strategy. This function can only be called from one of the approved vaults added to the Controller contract. Tokens are deposited into holding strategies when calling 'createTrade()' and 'fillOrder()' in the Controller contract.",
        "params": {
          "_amount": ": Amount of '_token' to deposit",
          "_from": ": Vault token owner",
          "_token": ": ERC20 token address"
        }
      },
      "depositFee(uint256)": {
        "params": {
          "_amountIn": ": Amount of an ERC20 token"
        },
        "returns": {
          "_0": "The corresponding deposit fee amount "
        }
      },
      "owner()": {
        "details": "Returns the address of the current owner."
      },
      "rebalanceSettings(address,uint256,uint256)": {
        "notice": "OoOoOoOoOoOoOoOoOoOoOoOoOoOoOoOoOoOoOoOoOoOoOoOoOoOoOoOoOoOoOoOoOoOoOoOoOoOoOoOo"
      },
      "rebalanceToken(address)": {
        "notice": "OoOoOoOoOoOoOoOoOoOoOoOoOoOoOoOoOoOoOoOoOoOoOoOoOoOoOoOoOoOoOoOoOoOoOoOoOoOoOoOo"
      },
      "renounceOwnership()": {
        "details": "Leaves the contract without owner. It will not be possible to call `onlyOwner` functions anymore. Can only be called by the current owner. NOTE: Renouncing ownership will leave the contract without an owner, thereby removing any functionality that is only available to the owner."
      },
      "reset()": {
        "notice": "OoOoOoOoOoOoOoOoOoOoOoOoOoOoOoOoOoOoOoOoOoOoOoOoOoOoOoOoOoOoOoOoOoOoOoOoOoOoOoOo"
      },
      "set()": {
        "notice": "OoOoOoOoOoOoOoOoOoOoOoOoOoOoOoOoOoOoOoOoOoOoOoOoOoOoOoOoOoOoOoOoOoOoOoOoOoOoOoOo"
      },
      "transferOwnership(address)": {
        "details": "Transfers ownership of the contract to a new account (`newOwner`). Can only be called by the current owner."
      },
      "txFee(uint256)": {
        "params": {
          "_amountIn": ": Amount of an ERC20 token"
        },
        "returns": {
          "_0": "The corresponding transaction fee amount "
        }
      },
      "withdraw(address,address,uint256)": {
        "details": "Any vault that has deposited tokens into this strategy can withdraw their tokens even after a vault is deactivated. This function can only be called from  one of the approved vaults added to the Controller contract. Users are only able to withdraw tokens from a holding strategy through withdrawing their vault token by calling 'withdraw()' in the Controller contract.",
        "params": {
          "_amount": ": Amount of '_token' to withdraw",
          "_from": ": Vault token owner",
          "_token": ": ERC20 token address"
        }
      }
    },
    "title": "Corn Finance AAVE Holding Strategy",
    "version": 1
  },
  "opcodes": "PUSH1 0x80 PUSH1 0x40 MSTORE CALLVALUE DUP1 ISZERO PUSH2 0x10 JUMPI PUSH1 0x0 DUP1 REVERT JUMPDEST POP PUSH1 0x4 CALLDATASIZE LT PUSH2 0x1F0 JUMPI PUSH1 0x0 CALLDATALOAD PUSH1 0xE0 SHR DUP1 PUSH4 0xB363B1C8 GT PUSH2 0x10F JUMPI DUP1 PUSH4 0xD9CAED12 GT PUSH2 0xA2 JUMPI DUP1 PUSH4 0xF575993B GT PUSH2 0x71 JUMPI DUP1 PUSH4 0xF575993B EQ PUSH2 0x3A4 JUMPI DUP1 PUSH4 0xF77C4791 EQ PUSH2 0x3AC JUMPI DUP1 PUSH4 0xF7C618C1 EQ PUSH2 0x3B4 JUMPI DUP1 PUSH4 0xFE4093C8 EQ PUSH2 0x3BC JUMPI PUSH2 0x1F0 JUMP JUMPDEST DUP1 PUSH4 0xD9CAED12 EQ PUSH2 0x363 JUMPI DUP1 PUSH4 0xD9F2613E EQ PUSH2 0x376 JUMPI DUP1 PUSH4 0xE9403256 EQ PUSH2 0x37E JUMPI DUP1 PUSH4 0xF2FDE38B EQ PUSH2 0x391 JUMPI PUSH2 0x1F0 JUMP JUMPDEST DUP1 PUSH4 0xD342C402 GT PUSH2 0xDE JUMPI DUP1 PUSH4 0xD342C402 EQ PUSH2 0x32D JUMPI DUP1 PUSH4 0xD656C16A EQ PUSH2 0x340 JUMPI DUP1 PUSH4 0xD7EEDD5E EQ PUSH2 0x353 JUMPI DUP1 PUSH4 0xD826F88F EQ PUSH2 0x35B JUMPI PUSH2 0x1F0 JUMP JUMPDEST DUP1 PUSH4 0xB363B1C8 EQ PUSH2 0x2E9 JUMPI DUP1 PUSH4 0xB8E010DE EQ PUSH2 0x2FC JUMPI DUP1 PUSH4 0xBEA0D7FB EQ PUSH2 0x304 JUMPI DUP1 PUSH4 0xC2808954 EQ PUSH2 0x325 JUMPI PUSH2 0x1F0 JUMP JUMPDEST DUP1 PUSH4 0x6A117E61 GT PUSH2 0x187 JUMPI DUP1 PUSH4 0x8340F549 GT PUSH2 0x156 JUMPI DUP1 PUSH4 0x8340F549 EQ PUSH2 0x2BE JUMPI DUP1 PUSH4 0x8DA5CB5B EQ PUSH2 0x2D1 JUMPI DUP1 PUSH4 0x9814278E EQ PUSH2 0x2D9 JUMPI DUP1 PUSH4 0xA4871394 EQ PUSH2 0x2E1 JUMPI PUSH2 0x1F0 JUMP JUMPDEST DUP1 PUSH4 0x6A117E61 EQ PUSH2 0x293 JUMPI DUP1 PUSH4 0x6D880F52 EQ PUSH2 0x29B JUMPI DUP1 PUSH4 0x715018A6 EQ PUSH2 0x2AE JUMPI DUP1 PUSH4 0x77A430EA EQ PUSH2 0x2B6 JUMPI PUSH2 0x1F0 JUMP JUMPDEST DUP1 PUSH4 0x4E71D92D GT PUSH2 0x1C3 JUMPI DUP1 PUSH4 0x4E71D92D EQ PUSH2 0x250 JUMPI DUP1 PUSH4 0x4F64B2BE EQ PUSH2 0x25A JUMPI DUP1 PUSH4 0x5017F9FB EQ PUSH2 0x26D JUMPI DUP1 PUSH4 0x5F6501AB EQ PUSH2 0x280 JUMPI PUSH2 0x1F0 JUMP JUMPDEST DUP1 PUSH4 0x3A4B66F1 EQ PUSH2 0x1F5 JUMPI DUP1 PUSH4 0x41275358 EQ PUSH2 0x213 JUMPI DUP1 PUSH4 0x423C485A EQ PUSH2 0x228 JUMPI DUP1 PUSH4 0x4C46EAAA EQ PUSH2 0x248 JUMPI JUMPDEST PUSH1 0x0 DUP1 REVERT JUMPDEST PUSH2 0x1FD PUSH2 0x3CF JUMP JUMPDEST PUSH1 0x40 MLOAD PUSH2 0x20A SWAP2 SWAP1 PUSH2 0x28F7 JUMP JUMPDEST PUSH1 0x40 MLOAD DUP1 SWAP2 SUB SWAP1 RETURN JUMPDEST PUSH2 0x21B PUSH2 0x3D8 JUMP JUMPDEST PUSH1 0x40 MLOAD PUSH2 0x20A SWAP2 SWAP1 PUSH2 0x27DF JUMP JUMPDEST PUSH2 0x23B PUSH2 0x236 CALLDATASIZE PUSH1 0x4 PUSH2 0x272C JUMP JUMPDEST PUSH2 0x3F0 JUMP JUMPDEST PUSH1 0x40 MLOAD PUSH2 0x20A SWAP2 SWAP1 PUSH2 0x2EC8 JUMP JUMPDEST PUSH2 0x23B PUSH2 0x47C JUMP JUMPDEST PUSH2 0x258 PUSH2 0x4A0 JUMP JUMPDEST STOP JUMPDEST PUSH2 0x21B PUSH2 0x268 CALLDATASIZE PUSH1 0x4 PUSH2 0x272C JUMP JUMPDEST PUSH2 0x68A JUMP JUMPDEST PUSH2 0x23B PUSH2 0x27B CALLDATASIZE PUSH1 0x4 PUSH2 0x272C JUMP JUMPDEST PUSH2 0x6B1 JUMP JUMPDEST PUSH2 0x23B PUSH2 0x28E CALLDATASIZE PUSH1 0x4 PUSH2 0x260D JUMP JUMPDEST PUSH2 0x727 JUMP JUMPDEST PUSH2 0x23B PUSH2 0x744 JUMP JUMPDEST PUSH2 0x258 PUSH2 0x2A9 CALLDATASIZE PUSH1 0x4 PUSH2 0x26D4 JUMP JUMPDEST PUSH2 0x74A JUMP JUMPDEST PUSH2 0x258 PUSH2 0x794 JUMP JUMPDEST PUSH2 0x23B PUSH2 0x813 JUMP JUMPDEST PUSH2 0x258 PUSH2 0x2CC CALLDATASIZE PUSH1 0x4 PUSH2 0x2641 JUMP JUMPDEST PUSH2 0x819 JUMP JUMPDEST PUSH2 0x21B PUSH2 0x9B0 JUMP JUMPDEST PUSH2 0x23B PUSH2 0x9BF JUMP JUMPDEST PUSH2 0x21B PUSH2 0x9E3 JUMP JUMPDEST PUSH2 0x21B PUSH2 0x2F7 CALLDATASIZE PUSH1 0x4 PUSH2 0x272C JUMP JUMPDEST PUSH2 0x9F2 JUMP JUMPDEST PUSH2 0x258 PUSH2 0x9FF JUMP JUMPDEST PUSH2 0x317 PUSH2 0x312 CALLDATASIZE PUSH1 0x4 PUSH2 0x25F2 JUMP JUMPDEST PUSH2 0xA66 JUMP JUMPDEST PUSH1 0x40 MLOAD PUSH2 0x20A SWAP3 SWAP2 SWAP1 PUSH2 0x2ED1 JUMP JUMPDEST PUSH2 0x21B PUSH2 0xB7D JUMP JUMPDEST PUSH2 0x21B PUSH2 0x33B CALLDATASIZE PUSH1 0x4 PUSH2 0x25F2 JUMP JUMPDEST PUSH2 0xB95 JUMP JUMPDEST PUSH2 0x258 PUSH2 0x34E CALLDATASIZE PUSH1 0x4 PUSH2 0x25F2 JUMP JUMPDEST PUSH2 0xBB0 JUMP JUMPDEST PUSH2 0x23B PUSH2 0x1176 JUMP JUMPDEST PUSH2 0x258 PUSH2 0x119A JUMP JUMPDEST PUSH2 0x258 PUSH2 0x371 CALLDATASIZE PUSH1 0x4 PUSH2 0x2641 JUMP JUMPDEST PUSH2 0x16AD JUMP JUMPDEST PUSH2 0x23B PUSH2 0x19E3 JUMP JUMPDEST PUSH2 0x23B PUSH2 0x38C CALLDATASIZE PUSH1 0x4 PUSH2 0x25F2 JUMP JUMPDEST PUSH2 0x1A07 JUMP JUMPDEST PUSH2 0x258 PUSH2 0x39F CALLDATASIZE PUSH1 0x4 PUSH2 0x25F2 JUMP JUMPDEST PUSH2 0x1A19 JUMP JUMPDEST PUSH2 0x21B PUSH2 0x1ACF JUMP JUMPDEST PUSH2 0x21B PUSH2 0x1AE7 JUMP JUMPDEST PUSH2 0x21B PUSH2 0x1B0B JUMP JUMPDEST PUSH2 0x258 PUSH2 0x3CA CALLDATASIZE PUSH1 0x4 PUSH2 0x2681 JUMP JUMPDEST PUSH2 0x1B23 JUMP JUMPDEST PUSH1 0x9 SLOAD PUSH1 0xFF AND DUP2 JUMP JUMPDEST PUSH20 0x22B20054BBD6DC5C23D7C7595E092CA728A00C32 DUP2 JUMP JUMPDEST PUSH1 0x0 PUSH32 0x0 ISZERO PUSH2 0x473 JUMPI PUSH2 0x46C PUSH32 0x0 PUSH2 0x466 DUP5 PUSH32 0x0 PUSH2 0x1B63 JUMP JUMPDEST SWAP1 PUSH2 0x1BA6 JUMP JUMPDEST SWAP1 POP PUSH2 0x477 JUMP JUMPDEST POP PUSH1 0x0 JUMPDEST SWAP2 SWAP1 POP JUMP JUMPDEST PUSH32 0x0 DUP2 JUMP JUMPDEST PUSH1 0x3 SLOAD PUSH1 0x1 PUSH1 0x1 PUSH1 0xA0 SHL SUB AND CALLER EQ PUSH2 0x4D3 JUMPI PUSH1 0x40 MLOAD PUSH3 0x461BCD PUSH1 0xE5 SHL DUP2 MSTORE PUSH1 0x4 ADD PUSH2 0x4CA SWAP1 PUSH2 0x2AFD JUMP JUMPDEST PUSH1 0x40 MLOAD DUP1 SWAP2 SUB SWAP1 REVERT JUMPDEST PUSH1 0x9 SLOAD PUSH1 0xFF AND PUSH2 0x4F5 JUMPI PUSH1 0x40 MLOAD PUSH3 0x461BCD PUSH1 0xE5 SHL DUP2 MSTORE PUSH1 0x4 ADD PUSH2 0x4CA SWAP1 PUSH2 0x2979 JUMP JUMPDEST PUSH1 0x40 MLOAD PUSH4 0x45ACCF93 PUSH1 0xE1 SHL DUP2 MSTORE PUSH1 0x0 SWAP1 PUSH20 0x357D51124F59836DED84C8A1730D72B749D8BC23 SWAP1 PUSH4 0x8B599F26 SWAP1 PUSH2 0x532 SWAP1 PUSH1 0x7 SWAP1 ADDRESS SWAP1 PUSH1 0x4 ADD PUSH2 0x289A JUMP JUMPDEST PUSH1 0x20 PUSH1 0x40 MLOAD DUP1 DUP4 SUB DUP2 DUP7 DUP1 EXTCODESIZE ISZERO DUP1 ISZERO PUSH2 0x54A JUMPI PUSH1 0x0 DUP1 REVERT JUMPDEST POP GAS STATICCALL ISZERO DUP1 ISZERO PUSH2 0x55E JUMPI RETURNDATASIZE PUSH1 0x0 DUP1 RETURNDATACOPY RETURNDATASIZE PUSH1 0x0 REVERT JUMPDEST POP POP POP POP PUSH1 0x40 MLOAD RETURNDATASIZE PUSH1 0x1F NOT PUSH1 0x1F DUP3 ADD AND DUP3 ADD DUP1 PUSH1 0x40 MSTORE POP DUP2 ADD SWAP1 PUSH2 0x582 SWAP2 SWAP1 PUSH2 0x2744 JUMP JUMPDEST GT ISZERO PUSH2 0x688 JUMPI PUSH1 0x40 MLOAD PUSH4 0x3111E7B3 PUSH1 0xE0 SHL DUP2 MSTORE PUSH1 0x0 SWAP1 PUSH20 0x357D51124F59836DED84C8A1730D72B749D8BC23 SWAP1 PUSH4 0x3111E7B3 SWAP1 PUSH2 0x5DD SWAP1 PUSH1 0x7 SWAP1 PUSH1 0x0 NOT SWAP1 PUSH20 0x22B20054BBD6DC5C23D7C7595E092CA728A00C32 SWAP1 PUSH1 0x4 ADD PUSH2 0x28C4 JUMP JUMPDEST PUSH1 0x20 PUSH1 0x40 MLOAD DUP1 DUP4 SUB DUP2 PUSH1 0x0 DUP8 DUP1 EXTCODESIZE ISZERO DUP1 ISZERO PUSH2 0x5F7 JUMPI PUSH1 0x0 DUP1 REVERT JUMPDEST POP GAS CALL ISZERO DUP1 ISZERO PUSH2 0x60B JUMPI RETURNDATASIZE PUSH1 0x0 DUP1 RETURNDATACOPY RETURNDATASIZE PUSH1 0x0 REVERT JUMPDEST POP POP POP POP PUSH1 0x40 MLOAD RETURNDATASIZE PUSH1 0x1F NOT PUSH1 0x1F DUP3 ADD AND DUP3 ADD DUP1 PUSH1 0x40 MSTORE POP DUP2 ADD SWAP1 PUSH2 0x62F SWAP2 SWAP1 PUSH2 0x2744 JUMP JUMPDEST SWAP1 POP PUSH20 0xD500B1D8E8EF31E21C99D1DB9A6444D3ADF1270 PUSH1 0x1 PUSH1 0x1 PUSH1 0xA0 SHL SUB AND PUSH32 0x47CEE97CB7ACD717B3C0AA1435D004CD5B3C8C57D70DBCEB4E4458BBD60E39D4 DUP3 PUSH1 0x40 MLOAD PUSH2 0x67E SWAP2 SWAP1 PUSH2 0x2EC8 JUMP JUMPDEST PUSH1 0x40 MLOAD DUP1 SWAP2 SUB SWAP1 LOG2 POP JUMPDEST JUMP JUMPDEST PUSH1 0x6 DUP2 DUP2 SLOAD DUP2 LT PUSH2 0x697 JUMPI INVALID JUMPDEST PUSH1 0x0 SWAP2 DUP3 MSTORE PUSH1 0x20 SWAP1 SWAP2 KECCAK256 ADD SLOAD PUSH1 0x1 PUSH1 0x1 PUSH1 0xA0 SHL SUB AND SWAP1 POP DUP2 JUMP JUMPDEST PUSH1 0x0 PUSH32 0x0 ISZERO PUSH2 0x473 JUMPI PUSH2 0x46C PUSH32 0x0 PUSH2 0x466 DUP5 PUSH32 0x0 PUSH2 0x1B63 JUMP JUMPDEST PUSH1 0x2 PUSH1 0x20 SWAP1 DUP2 MSTORE PUSH1 0x0 SWAP3 DUP4 MSTORE PUSH1 0x40 DUP1 DUP5 KECCAK256 SWAP1 SWAP2 MSTORE SWAP1 DUP3 MSTORE SWAP1 KECCAK256 SLOAD DUP2 JUMP JUMPDEST PUSH1 0x5 SLOAD DUP2 JUMP JUMPDEST PUSH2 0x752 PUSH2 0x1BE8 JUMP JUMPDEST PUSH1 0x0 SLOAD PUSH1 0x1 PUSH1 0x1 PUSH1 0xA0 SHL SUB SWAP1 DUP2 AND SWAP2 AND EQ PUSH2 0x77F JUMPI PUSH1 0x40 MLOAD PUSH3 0x461BCD PUSH1 0xE5 SHL DUP2 MSTORE PUSH1 0x4 ADD PUSH2 0x4CA SWAP1 PUSH2 0x2CE2 JUMP JUMPDEST PUSH2 0x791 DUP2 PUSH1 0x0 ADD MLOAD DUP3 PUSH1 0x20 ADD MLOAD PUSH2 0x1BEC JUMP JUMPDEST POP JUMP JUMPDEST PUSH2 0x79C PUSH2 0x1BE8 JUMP JUMPDEST PUSH1 0x0 SLOAD PUSH1 0x1 PUSH1 0x1 PUSH1 0xA0 SHL SUB SWAP1 DUP2 AND SWAP2 AND EQ PUSH2 0x7C9 JUMPI PUSH1 0x40 MLOAD PUSH3 0x461BCD PUSH1 0xE5 SHL DUP2 MSTORE PUSH1 0x4 ADD PUSH2 0x4CA SWAP1 PUSH2 0x2CE2 JUMP JUMPDEST PUSH1 0x0 DUP1 SLOAD PUSH1 0x40 MLOAD PUSH1 0x1 PUSH1 0x1 PUSH1 0xA0 SHL SUB SWAP1 SWAP2 AND SWAP1 PUSH32 0x8BE0079C531659141344CD1FD0A4F28419497F9722A3DAAFE3B4186F6B6457E0 SWAP1 DUP4 SWAP1 LOG3 PUSH1 0x0 DUP1 SLOAD PUSH1 0x1 PUSH1 0x1 PUSH1 0xA0 SHL SUB NOT AND SWAP1 SSTORE JUMP JUMPDEST PUSH1 0x4 SLOAD DUP2 JUMP JUMPDEST PUSH32 0x0 PUSH1 0x1 PUSH1 0x1 PUSH1 0xA0 SHL SUB AND PUSH4 0xBCB5703D PUSH1 0x40 MLOAD DUP2 PUSH4 0xFFFFFFFF AND PUSH1 0xE0 SHL DUP2 MSTORE PUSH1 0x4 ADD PUSH1 0x20 PUSH1 0x40 MLOAD DUP1 DUP4 SUB DUP2 DUP7 DUP1 EXTCODESIZE ISZERO DUP1 ISZERO PUSH2 0x872 JUMPI PUSH1 0x0 DUP1 REVERT JUMPDEST POP GAS STATICCALL ISZERO DUP1 ISZERO PUSH2 0x886 JUMPI RETURNDATASIZE PUSH1 0x0 DUP1 RETURNDATACOPY RETURNDATASIZE PUSH1 0x0 REVERT JUMPDEST POP POP POP POP PUSH1 0x40 MLOAD RETURNDATASIZE PUSH1 0x1F NOT PUSH1 0x1F DUP3 ADD AND DUP3 ADD DUP1 PUSH1 0x40 MSTORE POP DUP2 ADD SWAP1 PUSH2 0x8AA SWAP2 SWAP1 PUSH2 0x275C JUMP JUMPDEST PUSH1 0xFF AND PUSH32 0x0 PUSH1 0x1 PUSH1 0x1 PUSH1 0xA0 SHL SUB AND PUSH4 0xF815C03D CALLER PUSH1 0x40 MLOAD DUP3 PUSH4 0xFFFFFFFF AND PUSH1 0xE0 SHL DUP2 MSTORE PUSH1 0x4 ADD PUSH2 0x8F9 SWAP2 SWAP1 PUSH2 0x27DF JUMP JUMPDEST PUSH1 0x20 PUSH1 0x40 MLOAD DUP1 DUP4 SUB DUP2 DUP7 DUP1 EXTCODESIZE ISZERO DUP1 ISZERO PUSH2 0x911 JUMPI PUSH1 0x0 DUP1 REVERT JUMPDEST POP GAS STATICCALL ISZERO DUP1 ISZERO PUSH2 0x925 JUMPI RETURNDATASIZE PUSH1 0x0 DUP1 RETURNDATACOPY RETURNDATASIZE PUSH1 0x0 REVERT JUMPDEST POP POP POP POP PUSH1 0x40 MLOAD RETURNDATASIZE PUSH1 0x1F NOT PUSH1 0x1F DUP3 ADD AND DUP3 ADD DUP1 PUSH1 0x40 MSTORE POP DUP2 ADD SWAP1 PUSH2 0x949 SWAP2 SWAP1 PUSH2 0x275C JUMP JUMPDEST PUSH1 0xFF AND EQ PUSH2 0x969 JUMPI PUSH1 0x40 MLOAD PUSH3 0x461BCD PUSH1 0xE5 SHL DUP2 MSTORE PUSH1 0x4 ADD PUSH2 0x4CA SWAP1 PUSH2 0x2D6B JUMP JUMPDEST PUSH1 0x1 PUSH1 0x1 PUSH1 0xA0 SHL SUB DUP3 DUP2 AND PUSH1 0x0 SWAP1 DUP2 MSTORE PUSH1 0x8 PUSH1 0x20 MSTORE PUSH1 0x40 SWAP1 KECCAK256 SLOAD AND PUSH2 0x9A0 JUMPI PUSH1 0x40 MLOAD PUSH3 0x461BCD PUSH1 0xE5 SHL DUP2 MSTORE PUSH1 0x4 ADD PUSH2 0x4CA SWAP1 PUSH2 0x2A3D JUMP JUMPDEST PUSH2 0x9AB DUP4 DUP4 DUP4 PUSH2 0x1CC9 JUMP JUMPDEST POP POP POP JUMP JUMPDEST PUSH1 0x0 SLOAD PUSH1 0x1 PUSH1 0x1 PUSH1 0xA0 SHL SUB AND SWAP1 JUMP JUMPDEST PUSH32 0x0 DUP2 JUMP JUMPDEST PUSH1 0x3 SLOAD PUSH1 0x1 PUSH1 0x1 PUSH1 0xA0 SHL SUB AND DUP2 JUMP JUMPDEST PUSH1 0x7 DUP2 DUP2 SLOAD DUP2 LT PUSH2 0x697 JUMPI INVALID JUMPDEST PUSH2 0xA07 PUSH2 0x1BE8 JUMP JUMPDEST PUSH1 0x0 SLOAD PUSH1 0x1 PUSH1 0x1 PUSH1 0xA0 SHL SUB SWAP1 DUP2 AND SWAP2 AND EQ PUSH2 0xA34 JUMPI PUSH1 0x40 MLOAD PUSH3 0x461BCD PUSH1 0xE5 SHL DUP2 MSTORE PUSH1 0x4 ADD PUSH2 0x4CA SWAP1 PUSH2 0x2CE2 JUMP JUMPDEST PUSH1 0x9 SLOAD PUSH1 0xFF AND ISZERO PUSH2 0xA57 JUMPI PUSH1 0x40 MLOAD PUSH3 0x461BCD PUSH1 0xE5 SHL DUP2 MSTORE PUSH1 0x4 ADD PUSH2 0x4CA SWAP1 PUSH2 0x2935 JUMP JUMPDEST PUSH1 0x9 DUP1 SLOAD PUSH1 0xFF NOT AND PUSH1 0x1 OR SWAP1 SSTORE JUMP JUMPDEST PUSH1 0x0 DUP1 DUP3 PUSH1 0x1 PUSH1 0x1 PUSH1 0xA0 SHL SUB AND PUSH4 0x70A08231 ADDRESS PUSH1 0x40 MLOAD DUP3 PUSH4 0xFFFFFFFF AND PUSH1 0xE0 SHL DUP2 MSTORE PUSH1 0x4 ADD PUSH2 0xA95 SWAP2 SWAP1 PUSH2 0x27DF JUMP JUMPDEST PUSH1 0x20 PUSH1 0x40 MLOAD DUP1 DUP4 SUB DUP2 DUP7 DUP1 EXTCODESIZE ISZERO DUP1 ISZERO PUSH2 0xAAD JUMPI PUSH1 0x0 DUP1 REVERT JUMPDEST POP GAS STATICCALL ISZERO DUP1 ISZERO PUSH2 0xAC1 JUMPI RETURNDATASIZE PUSH1 0x0 DUP1 RETURNDATACOPY RETURNDATASIZE PUSH1 0x0 REVERT JUMPDEST POP POP POP POP PUSH1 0x40 MLOAD RETURNDATASIZE PUSH1 0x1F NOT PUSH1 0x1F DUP3 ADD AND DUP3 ADD DUP1 PUSH1 0x40 MSTORE POP DUP2 ADD SWAP1 PUSH2 0xAE5 SWAP2 SWAP1 PUSH2 0x2744 JUMP JUMPDEST PUSH1 0x1 PUSH1 0x1 PUSH1 0xA0 SHL SUB DUP1 DUP6 AND PUSH1 0x0 SWAP1 DUP2 MSTORE PUSH1 0x8 PUSH1 0x20 MSTORE PUSH1 0x40 SWAP1 DUP2 SWAP1 KECCAK256 SLOAD SWAP1 MLOAD PUSH4 0x70A08231 PUSH1 0xE0 SHL DUP2 MSTORE SWAP2 AND SWAP1 PUSH4 0x70A08231 SWAP1 PUSH2 0xB24 SWAP1 ADDRESS SWAP1 PUSH1 0x4 ADD PUSH2 0x27DF JUMP JUMPDEST PUSH1 0x20 PUSH1 0x40 MLOAD DUP1 DUP4 SUB DUP2 DUP7 DUP1 EXTCODESIZE ISZERO DUP1 ISZERO PUSH2 0xB3C JUMPI PUSH1 0x0 DUP1 REVERT JUMPDEST POP GAS STATICCALL ISZERO DUP1 ISZERO PUSH2 0xB50 JUMPI RETURNDATASIZE PUSH1 0x0 DUP1 RETURNDATACOPY RETURNDATASIZE PUSH1 0x0 REVERT JUMPDEST POP POP POP POP PUSH1 0x40 MLOAD RETURNDATASIZE PUSH1 0x1F NOT PUSH1 0x1F DUP3 ADD AND DUP3 ADD DUP1 PUSH1 0x40 MSTORE POP DUP2 ADD SWAP1 PUSH2 0xB74 SWAP2 SWAP1 PUSH2 0x2744 JUMP JUMPDEST SWAP2 POP SWAP2 POP SWAP2 POP SWAP2 JUMP JUMPDEST PUSH20 0x357D51124F59836DED84C8A1730D72B749D8BC23 DUP2 JUMP JUMPDEST PUSH1 0x8 PUSH1 0x20 MSTORE PUSH1 0x0 SWAP1 DUP2 MSTORE PUSH1 0x40 SWAP1 KECCAK256 SLOAD PUSH1 0x1 PUSH1 0x1 PUSH1 0xA0 SHL SUB AND DUP2 JUMP JUMPDEST PUSH1 0x3 SLOAD PUSH1 0x1 PUSH1 0x1 PUSH1 0xA0 SHL SUB AND CALLER EQ PUSH2 0xBDA JUMPI PUSH1 0x40 MLOAD PUSH3 0x461BCD PUSH1 0xE5 SHL DUP2 MSTORE PUSH1 0x4 ADD PUSH2 0x4CA SWAP1 PUSH2 0x2AFD JUMP JUMPDEST PUSH1 0x9 SLOAD PUSH1 0xFF AND PUSH2 0xBFC JUMPI PUSH1 0x40 MLOAD PUSH3 0x461BCD PUSH1 0xE5 SHL DUP2 MSTORE PUSH1 0x4 ADD PUSH2 0x4CA SWAP1 PUSH2 0x2979 JUMP JUMPDEST PUSH1 0x40 MLOAD PUSH4 0x70A08231 PUSH1 0xE0 SHL DUP2 MSTORE PUSH1 0x0 SWAP1 PUSH1 0x1 PUSH1 0x1 PUSH1 0xA0 SHL SUB DUP4 AND SWAP1 PUSH4 0x70A08231 SWAP1 PUSH2 0xC2B SWAP1 ADDRESS SWAP1 PUSH1 0x4 ADD PUSH2 0x27DF JUMP JUMPDEST PUSH1 0x20 PUSH1 0x40 MLOAD DUP1 DUP4 SUB DUP2 DUP7 DUP1 EXTCODESIZE ISZERO DUP1 ISZERO PUSH2 0xC43 JUMPI PUSH1 0x0 DUP1 REVERT JUMPDEST POP GAS STATICCALL ISZERO DUP1 ISZERO PUSH2 0xC57 JUMPI RETURNDATASIZE PUSH1 0x0 DUP1 RETURNDATACOPY RETURNDATASIZE PUSH1 0x0 REVERT JUMPDEST POP POP POP POP PUSH1 0x40 MLOAD RETURNDATASIZE PUSH1 0x1F NOT PUSH1 0x1F DUP3 ADD AND DUP3 ADD DUP1 PUSH1 0x40 MSTORE POP DUP2 ADD SWAP1 PUSH2 0xC7B SWAP2 SWAP1 PUSH2 0x2744 JUMP JUMPDEST SWAP1 POP DUP1 ISZERO PUSH2 0xD89 JUMPI PUSH1 0x40 MLOAD PUSH4 0x95EA7B3 PUSH1 0xE0 SHL DUP2 MSTORE PUSH1 0x1 PUSH1 0x1 PUSH1 0xA0 SHL SUB DUP4 AND SWAP1 PUSH4 0x95EA7B3 SWAP1 PUSH2 0xCC5 SWAP1 PUSH20 0x8DFF5E27EA6B7AC08EBFDF9EB090F32EE9A30FCF SWAP1 DUP6 SWAP1 PUSH1 0x4 ADD PUSH2 0x2831 JUMP JUMPDEST PUSH1 0x20 PUSH1 0x40 MLOAD DUP1 DUP4 SUB DUP2 PUSH1 0x0 DUP8 DUP1 EXTCODESIZE ISZERO DUP1 ISZERO PUSH2 0xCDF JUMPI PUSH1 0x0 DUP1 REVERT JUMPDEST POP GAS CALL ISZERO DUP1 ISZERO PUSH2 0xCF3 JUMPI RETURNDATASIZE PUSH1 0x0 DUP1 RETURNDATACOPY RETURNDATASIZE PUSH1 0x0 REVERT JUMPDEST POP POP POP POP PUSH1 0x40 MLOAD RETURNDATASIZE PUSH1 0x1F NOT PUSH1 0x1F DUP3 ADD AND DUP3 ADD DUP1 PUSH1 0x40 MSTORE POP DUP2 ADD SWAP1 PUSH2 0xD17 SWAP2 SWAP1 PUSH2 0x26B4 JUMP JUMPDEST POP PUSH1 0x40 MLOAD PUSH4 0xE8EDA9DF PUSH1 0xE0 SHL DUP2 MSTORE PUSH20 0x8DFF5E27EA6B7AC08EBFDF9EB090F32EE9A30FCF SWAP1 PUSH4 0xE8EDA9DF SWAP1 PUSH2 0xD56 SWAP1 DUP6 SWAP1 DUP6 SWAP1 ADDRESS SWAP1 PUSH1 0x0 SWAP1 PUSH1 0x4 ADD PUSH2 0x286D JUMP JUMPDEST PUSH1 0x0 PUSH1 0x40 MLOAD DUP1 DUP4 SUB DUP2 PUSH1 0x0 DUP8 DUP1 EXTCODESIZE ISZERO DUP1 ISZERO PUSH2 0xD70 JUMPI PUSH1 0x0 DUP1 REVERT JUMPDEST POP GAS CALL ISZERO DUP1 ISZERO PUSH2 0xD84 JUMPI RETURNDATASIZE PUSH1 0x0 DUP1 RETURNDATACOPY RETURNDATASIZE PUSH1 0x0 REVERT JUMPDEST POP POP POP POP JUMPDEST PUSH1 0x1 PUSH1 0x1 PUSH1 0xA0 SHL SUB DUP1 DUP4 AND PUSH1 0x0 SWAP1 DUP2 MSTORE PUSH1 0x1 PUSH1 0x20 SWAP1 DUP2 MSTORE PUSH1 0x40 DUP1 DUP4 KECCAK256 SLOAD PUSH1 0x8 SWAP1 SWAP3 MSTORE DUP1 DUP4 KECCAK256 SLOAD SWAP1 MLOAD PUSH4 0x70A08231 PUSH1 0xE0 SHL DUP2 MSTORE SWAP3 SWAP4 PUSH2 0xE2E SWAP4 SWAP2 AND SWAP1 PUSH4 0x70A08231 SWAP1 PUSH2 0xDD8 SWAP1 ADDRESS SWAP1 PUSH1 0x4 ADD PUSH2 0x27DF JUMP JUMPDEST PUSH1 0x20 PUSH1 0x40 MLOAD DUP1 DUP4 SUB DUP2 DUP7 DUP1 EXTCODESIZE ISZERO DUP1 ISZERO PUSH2 0xDF0 JUMPI PUSH1 0x0 DUP1 REVERT JUMPDEST POP GAS STATICCALL ISZERO DUP1 ISZERO PUSH2 0xE04 JUMPI RETURNDATASIZE PUSH1 0x0 DUP1 RETURNDATACOPY RETURNDATASIZE PUSH1 0x0 REVERT JUMPDEST POP POP POP POP PUSH1 0x40 MLOAD RETURNDATASIZE PUSH1 0x1F NOT PUSH1 0x1F DUP3 ADD AND DUP3 ADD DUP1 PUSH1 0x40 MSTORE POP DUP2 ADD SWAP1 PUSH2 0xE28 SWAP2 SWAP1 PUSH2 0x2744 JUMP JUMPDEST SWAP1 PUSH2 0x1E92 JUMP JUMPDEST PUSH1 0x5 SLOAD PUSH1 0x4 SLOAD PUSH1 0x1 PUSH1 0x1 PUSH1 0xA0 SHL SUB DUP7 AND PUSH1 0x0 SWAP1 DUP2 MSTORE PUSH1 0x1 PUSH1 0x20 MSTORE PUSH1 0x40 DUP2 KECCAK256 SLOAD SWAP4 SWAP5 POP SWAP3 PUSH2 0xE60 SWAP3 SWAP2 PUSH2 0x466 SWAP2 SWAP1 PUSH2 0x1B63 JUMP JUMPDEST SWAP1 POP DUP2 ISZERO PUSH2 0xF6D JUMPI PUSH20 0x8DFF5E27EA6B7AC08EBFDF9EB090F32EE9A30FCF PUSH4 0x69328DEC DUP6 PUSH2 0xE8D DUP6 DUP6 PUSH2 0x1ED4 JUMP JUMPDEST ADDRESS PUSH1 0x40 MLOAD DUP5 PUSH4 0xFFFFFFFF AND PUSH1 0xE0 SHL DUP2 MSTORE PUSH1 0x4 ADD PUSH2 0xEAC SWAP4 SWAP3 SWAP2 SWAP1 PUSH2 0x284A JUMP JUMPDEST PUSH1 0x20 PUSH1 0x40 MLOAD DUP1 DUP4 SUB DUP2 PUSH1 0x0 DUP8 DUP1 EXTCODESIZE ISZERO DUP1 ISZERO PUSH2 0xEC6 JUMPI PUSH1 0x0 DUP1 REVERT JUMPDEST POP GAS CALL ISZERO DUP1 ISZERO PUSH2 0xEDA JUMPI RETURNDATASIZE PUSH1 0x0 DUP1 RETURNDATACOPY RETURNDATASIZE PUSH1 0x0 REVERT JUMPDEST POP POP POP POP PUSH1 0x40 MLOAD RETURNDATASIZE PUSH1 0x1F NOT PUSH1 0x1F DUP3 ADD AND DUP3 ADD DUP1 PUSH1 0x40 MSTORE POP DUP2 ADD SWAP1 PUSH2 0xEFE SWAP2 SWAP1 PUSH2 0x2744 JUMP JUMPDEST POP PUSH2 0xF27 PUSH1 0x1 PUSH1 0x1 PUSH1 0xA0 SHL SUB DUP6 AND PUSH20 0x22B20054BBD6DC5C23D7C7595E092CA728A00C32 DUP5 PUSH2 0x1EF9 JUMP JUMPDEST DUP4 PUSH1 0x1 PUSH1 0x1 PUSH1 0xA0 SHL SUB AND PUSH32 0x47CEE97CB7ACD717B3C0AA1435D004CD5B3C8C57D70DBCEB4E4458BBD60E39D4 DUP4 PUSH1 0x40 MLOAD PUSH2 0xF60 SWAP2 SWAP1 PUSH2 0x2EC8 JUMP JUMPDEST PUSH1 0x40 MLOAD DUP1 SWAP2 SUB SWAP1 LOG2 PUSH2 0x101E JUMP JUMPDEST DUP1 ISZERO PUSH2 0x1006 JUMPI PUSH1 0x40 MLOAD PUSH4 0x1A4CA37B PUSH1 0xE2 SHL DUP2 MSTORE PUSH20 0x8DFF5E27EA6B7AC08EBFDF9EB090F32EE9A30FCF SWAP1 PUSH4 0x69328DEC SWAP1 PUSH2 0xFAE SWAP1 DUP8 SWAP1 DUP6 SWAP1 ADDRESS SWAP1 PUSH1 0x4 ADD PUSH2 0x284A JUMP JUMPDEST PUSH1 0x20 PUSH1 0x40 MLOAD DUP1 DUP4 SUB DUP2 PUSH1 0x0 DUP8 DUP1 EXTCODESIZE ISZERO DUP1 ISZERO PUSH2 0xFC8 JUMPI PUSH1 0x0 DUP1 REVERT JUMPDEST POP GAS CALL ISZERO DUP1 ISZERO PUSH2 0xFDC JUMPI RETURNDATASIZE PUSH1 0x0 DUP1 RETURNDATACOPY RETURNDATASIZE PUSH1 0x0 REVERT JUMPDEST POP POP POP POP PUSH1 0x40 MLOAD RETURNDATASIZE PUSH1 0x1F NOT PUSH1 0x1F DUP3 ADD AND DUP3 ADD DUP1 PUSH1 0x40 MSTORE POP DUP2 ADD SWAP1 PUSH2 0x1000 SWAP2 SWAP1 PUSH2 0x2744 JUMP JUMPDEST POP PUSH2 0x101E JUMP JUMPDEST PUSH1 0x40 MLOAD PUSH3 0x461BCD PUSH1 0xE5 SHL DUP2 MSTORE PUSH1 0x4 ADD PUSH2 0x4CA SWAP1 PUSH2 0x2B76 JUMP JUMPDEST PUSH1 0x0 PUSH2 0x1134 DUP6 PUSH1 0x1 PUSH1 0x1 PUSH1 0xA0 SHL SUB AND PUSH4 0x70A08231 ADDRESS PUSH1 0x40 MLOAD DUP3 PUSH4 0xFFFFFFFF AND PUSH1 0xE0 SHL DUP2 MSTORE PUSH1 0x4 ADD PUSH2 0x104F SWAP2 SWAP1 PUSH2 0x27DF JUMP JUMPDEST PUSH1 0x20 PUSH1 0x40 MLOAD DUP1 DUP4 SUB DUP2 DUP7 DUP1 EXTCODESIZE ISZERO DUP1 ISZERO PUSH2 0x1067 JUMPI PUSH1 0x0 DUP1 REVERT JUMPDEST POP GAS STATICCALL ISZERO DUP1 ISZERO PUSH2 0x107B JUMPI RETURNDATASIZE PUSH1 0x0 DUP1 RETURNDATACOPY RETURNDATASIZE PUSH1 0x0 REVERT JUMPDEST POP POP POP POP PUSH1 0x40 MLOAD RETURNDATASIZE PUSH1 0x1F NOT PUSH1 0x1F DUP3 ADD AND DUP3 ADD DUP1 PUSH1 0x40 MSTORE POP DUP2 ADD SWAP1 PUSH2 0x109F SWAP2 SWAP1 PUSH2 0x2744 JUMP JUMPDEST PUSH1 0x1 PUSH1 0x1 PUSH1 0xA0 SHL SUB DUP1 DUP9 AND PUSH1 0x0 SWAP1 DUP2 MSTORE PUSH1 0x8 PUSH1 0x20 MSTORE PUSH1 0x40 SWAP1 DUP2 SWAP1 KECCAK256 SLOAD SWAP1 MLOAD PUSH4 0x70A08231 PUSH1 0xE0 SHL DUP2 MSTORE SWAP2 AND SWAP1 PUSH4 0x70A08231 SWAP1 PUSH2 0x10DE SWAP1 ADDRESS SWAP1 PUSH1 0x4 ADD PUSH2 0x27DF JUMP JUMPDEST PUSH1 0x20 PUSH1 0x40 MLOAD DUP1 DUP4 SUB DUP2 DUP7 DUP1 EXTCODESIZE ISZERO DUP1 ISZERO PUSH2 0x10F6 JUMPI PUSH1 0x0 DUP1 REVERT JUMPDEST POP GAS STATICCALL ISZERO DUP1 ISZERO PUSH2 0x110A JUMPI RETURNDATASIZE PUSH1 0x0 DUP1 RETURNDATACOPY RETURNDATASIZE PUSH1 0x0 REVERT JUMPDEST POP POP POP POP PUSH1 0x40 MLOAD RETURNDATASIZE PUSH1 0x1F NOT PUSH1 0x1F DUP3 ADD AND DUP3 ADD DUP1 PUSH1 0x40 MSTORE POP DUP2 ADD SWAP1 PUSH2 0x112E SWAP2 SWAP1 PUSH2 0x2744 JUMP JUMPDEST SWAP1 PUSH2 0x1ED4 JUMP JUMPDEST PUSH1 0x1 PUSH1 0x1 PUSH1 0xA0 SHL SUB DUP7 AND PUSH1 0x0 SWAP1 DUP2 MSTORE PUSH1 0x1 PUSH1 0x20 MSTORE PUSH1 0x40 SWAP1 KECCAK256 SLOAD SWAP1 SWAP2 POP DUP2 LT ISZERO PUSH2 0x116F JUMPI PUSH1 0x40 MLOAD PUSH3 0x461BCD PUSH1 0xE5 SHL DUP2 MSTORE PUSH1 0x4 ADD PUSH2 0x4CA SWAP1 PUSH2 0x2E05 JUMP JUMPDEST POP POP POP POP POP JUMP JUMPDEST PUSH32 0x0 DUP2 JUMP JUMPDEST PUSH2 0x11A2 PUSH2 0x1BE8 JUMP JUMPDEST PUSH1 0x0 SLOAD PUSH1 0x1 PUSH1 0x1 PUSH1 0xA0 SHL SUB SWAP1 DUP2 AND SWAP2 AND EQ PUSH2 0x11CF JUMPI PUSH1 0x40 MLOAD PUSH3 0x461BCD PUSH1 0xE5 SHL DUP2 MSTORE PUSH1 0x4 ADD PUSH2 0x4CA SWAP1 PUSH2 0x2CE2 JUMP JUMPDEST PUSH1 0x9 SLOAD PUSH1 0xFF AND PUSH2 0x11F1 JUMPI PUSH1 0x40 MLOAD PUSH3 0x461BCD PUSH1 0xE5 SHL DUP2 MSTORE PUSH1 0x4 ADD PUSH2 0x4CA SWAP1 PUSH2 0x2E82 JUMP JUMPDEST PUSH1 0x9 DUP1 SLOAD PUSH1 0xFF NOT AND SWAP1 SSTORE PUSH1 0x40 MLOAD PUSH4 0x45ACCF93 PUSH1 0xE1 SHL DUP2 MSTORE PUSH1 0x0 SWAP1 PUSH20 0x357D51124F59836DED84C8A1730D72B749D8BC23 SWAP1 PUSH4 0x8B599F26 SWAP1 PUSH2 0x1238 SWAP1 PUSH1 0x7 SWAP1 ADDRESS SWAP1 PUSH1 0x4 ADD PUSH2 0x289A JUMP JUMPDEST PUSH1 0x20 PUSH1 0x40 MLOAD DUP1 DUP4 SUB DUP2 DUP7 DUP1 EXTCODESIZE ISZERO DUP1 ISZERO PUSH2 0x1250 JUMPI PUSH1 0x0 DUP1 REVERT JUMPDEST POP GAS STATICCALL ISZERO DUP1 ISZERO PUSH2 0x1264 JUMPI RETURNDATASIZE PUSH1 0x0 DUP1 RETURNDATACOPY RETURNDATASIZE PUSH1 0x0 REVERT JUMPDEST POP POP POP POP PUSH1 0x40 MLOAD RETURNDATASIZE PUSH1 0x1F NOT PUSH1 0x1F DUP3 ADD AND DUP3 ADD DUP1 PUSH1 0x40 MSTORE POP DUP2 ADD SWAP1 PUSH2 0x1288 SWAP2 SWAP1 PUSH2 0x2744 JUMP JUMPDEST GT ISZERO PUSH2 0x138E JUMPI PUSH1 0x40 MLOAD PUSH4 0x3111E7B3 PUSH1 0xE0 SHL DUP2 MSTORE PUSH1 0x0 SWAP1 PUSH20 0x357D51124F59836DED84C8A1730D72B749D8BC23 SWAP1 PUSH4 0x3111E7B3 SWAP1 PUSH2 0x12E3 SWAP1 PUSH1 0x7 SWAP1 PUSH1 0x0 NOT SWAP1 PUSH20 0x22B20054BBD6DC5C23D7C7595E092CA728A00C32 SWAP1 PUSH1 0x4 ADD PUSH2 0x28C4 JUMP JUMPDEST PUSH1 0x20 PUSH1 0x40 MLOAD DUP1 DUP4 SUB DUP2 PUSH1 0x0 DUP8 DUP1 EXTCODESIZE ISZERO DUP1 ISZERO PUSH2 0x12FD JUMPI PUSH1 0x0 DUP1 REVERT JUMPDEST POP GAS CALL ISZERO DUP1 ISZERO PUSH2 0x1311 JUMPI RETURNDATASIZE PUSH1 0x0 DUP1 RETURNDATACOPY RETURNDATASIZE PUSH1 0x0 REVERT JUMPDEST POP POP POP POP PUSH1 0x40 MLOAD RETURNDATASIZE PUSH1 0x1F NOT PUSH1 0x1F DUP3 ADD AND DUP3 ADD DUP1 PUSH1 0x40 MSTORE POP DUP2 ADD SWAP1 PUSH2 0x1335 SWAP2 SWAP1 PUSH2 0x2744 JUMP JUMPDEST SWAP1 POP PUSH20 0xD500B1D8E8EF31E21C99D1DB9A6444D3ADF1270 PUSH1 0x1 PUSH1 0x1 PUSH1 0xA0 SHL SUB AND PUSH32 0x47CEE97CB7ACD717B3C0AA1435D004CD5B3C8C57D70DBCEB4E4458BBD60E39D4 DUP3 PUSH1 0x40 MLOAD PUSH2 0x1384 SWAP2 SWAP1 PUSH2 0x2EC8 JUMP JUMPDEST PUSH1 0x40 MLOAD DUP1 SWAP2 SUB SWAP1 LOG2 POP JUMPDEST PUSH1 0x0 JUMPDEST PUSH1 0x6 SLOAD DUP2 LT ISZERO PUSH2 0x791 JUMPI PUSH20 0x8DFF5E27EA6B7AC08EBFDF9EB090F32EE9A30FCF PUSH1 0x1 PUSH1 0x1 PUSH1 0xA0 SHL SUB AND PUSH4 0x69328DEC PUSH1 0x6 DUP4 DUP2 SLOAD DUP2 LT PUSH2 0x13CB JUMPI INVALID JUMPDEST PUSH1 0x0 SWAP2 DUP3 MSTORE PUSH1 0x20 SWAP1 SWAP2 KECCAK256 ADD SLOAD PUSH1 0x40 MLOAD PUSH1 0x1 PUSH1 0x1 PUSH1 0xE0 SHL SUB NOT PUSH1 0xE0 DUP5 SWAP1 SHL AND DUP2 MSTORE PUSH2 0x1407 SWAP2 PUSH1 0x1 PUSH1 0x1 PUSH1 0xA0 SHL SUB AND SWAP1 PUSH1 0x0 NOT SWAP1 ADDRESS SWAP1 PUSH1 0x4 ADD PUSH2 0x284A JUMP JUMPDEST PUSH1 0x20 PUSH1 0x40 MLOAD DUP1 DUP4 SUB DUP2 PUSH1 0x0 DUP8 DUP1 EXTCODESIZE ISZERO DUP1 ISZERO PUSH2 0x1421 JUMPI PUSH1 0x0 DUP1 REVERT JUMPDEST POP GAS CALL ISZERO DUP1 ISZERO PUSH2 0x1435 JUMPI RETURNDATASIZE PUSH1 0x0 DUP1 RETURNDATACOPY RETURNDATASIZE PUSH1 0x0 REVERT JUMPDEST POP POP POP POP PUSH1 0x40 MLOAD RETURNDATASIZE PUSH1 0x1F NOT PUSH1 0x1F DUP3 ADD AND DUP3 ADD DUP1 PUSH1 0x40 MSTORE POP DUP2 ADD SWAP1 PUSH2 0x1459 SWAP2 SWAP1 PUSH2 0x2744 JUMP JUMPDEST POP PUSH1 0x0 PUSH1 0x6 DUP3 DUP2 SLOAD DUP2 LT PUSH2 0x1469 JUMPI INVALID JUMPDEST PUSH1 0x0 SWAP2 DUP3 MSTORE PUSH1 0x20 SWAP1 SWAP2 KECCAK256 ADD SLOAD PUSH1 0x40 MLOAD PUSH4 0x70A08231 PUSH1 0xE0 SHL DUP2 MSTORE PUSH1 0x1 PUSH1 0x1 PUSH1 0xA0 SHL SUB SWAP1 SWAP2 AND SWAP1 PUSH4 0x70A08231 SWAP1 PUSH2 0x14A2 SWAP1 ADDRESS SWAP1 PUSH1 0x4 ADD PUSH2 0x27DF JUMP JUMPDEST PUSH1 0x20 PUSH1 0x40 MLOAD DUP1 DUP4 SUB DUP2 DUP7 DUP1 EXTCODESIZE ISZERO DUP1 ISZERO PUSH2 0x14BA JUMPI PUSH1 0x0 DUP1 REVERT JUMPDEST POP GAS STATICCALL ISZERO DUP1 ISZERO PUSH2 0x14CE JUMPI RETURNDATASIZE PUSH1 0x0 DUP1 RETURNDATACOPY RETURNDATASIZE PUSH1 0x0 REVERT JUMPDEST POP POP POP POP PUSH1 0x40 MLOAD RETURNDATASIZE PUSH1 0x1F NOT PUSH1 0x1F DUP3 ADD AND DUP3 ADD DUP1 PUSH1 0x40 MSTORE POP DUP2 ADD SWAP1 PUSH2 0x14F2 SWAP2 SWAP1 PUSH2 0x2744 JUMP JUMPDEST SWAP1 POP PUSH1 0x1 PUSH1 0x0 PUSH1 0x6 DUP5 DUP2 SLOAD DUP2 LT PUSH2 0x1505 JUMPI INVALID JUMPDEST PUSH1 0x0 SWAP2 DUP3 MSTORE PUSH1 0x20 DUP1 DUP4 KECCAK256 SWAP1 SWAP2 ADD SLOAD PUSH1 0x1 PUSH1 0x1 PUSH1 0xA0 SHL SUB AND DUP4 MSTORE DUP3 ADD SWAP3 SWAP1 SWAP3 MSTORE PUSH1 0x40 ADD SWAP1 KECCAK256 SLOAD DUP2 GT ISZERO PUSH2 0x15B9 JUMPI PUSH1 0x0 PUSH2 0x1573 PUSH1 0x1 PUSH1 0x0 PUSH1 0x6 DUP7 DUP2 SLOAD DUP2 LT PUSH2 0x1547 JUMPI INVALID JUMPDEST PUSH1 0x0 SWAP2 DUP3 MSTORE PUSH1 0x20 DUP1 DUP4 KECCAK256 SWAP1 SWAP2 ADD SLOAD PUSH1 0x1 PUSH1 0x1 PUSH1 0xA0 SHL SUB AND DUP4 MSTORE DUP3 ADD SWAP3 SWAP1 SWAP3 MSTORE PUSH1 0x40 ADD SWAP1 KECCAK256 SLOAD DUP4 SWAP1 PUSH2 0x1E92 JUMP JUMPDEST SWAP1 POP PUSH2 0x15B7 PUSH20 0x22B20054BBD6DC5C23D7C7595E092CA728A00C32 DUP3 PUSH1 0x6 DUP7 DUP2 SLOAD DUP2 LT PUSH2 0x159B JUMPI INVALID JUMPDEST PUSH1 0x0 SWAP2 DUP3 MSTORE PUSH1 0x20 SWAP1 SWAP2 KECCAK256 ADD SLOAD PUSH1 0x1 PUSH1 0x1 PUSH1 0xA0 SHL SUB AND SWAP2 SWAP1 PUSH2 0x1EF9 JUMP JUMPDEST POP JUMPDEST PUSH1 0x1 PUSH1 0x0 PUSH1 0x6 DUP5 DUP2 SLOAD DUP2 LT PUSH2 0x15CA JUMPI INVALID JUMPDEST PUSH1 0x0 SWAP2 DUP3 MSTORE PUSH1 0x20 DUP1 DUP4 KECCAK256 SWAP1 SWAP2 ADD SLOAD PUSH1 0x1 PUSH1 0x1 PUSH1 0xA0 SHL SUB AND DUP4 MSTORE DUP3 ADD SWAP3 SWAP1 SWAP3 MSTORE PUSH1 0x40 ADD SWAP1 KECCAK256 SLOAD PUSH1 0x6 DUP1 SLOAD DUP5 SWAP1 DUP2 LT PUSH2 0x15FD JUMPI INVALID JUMPDEST PUSH1 0x0 SWAP2 DUP3 MSTORE PUSH1 0x20 SWAP1 SWAP2 KECCAK256 ADD SLOAD PUSH1 0x40 MLOAD PUSH4 0x70A08231 PUSH1 0xE0 SHL DUP2 MSTORE PUSH1 0x1 PUSH1 0x1 PUSH1 0xA0 SHL SUB SWAP1 SWAP2 AND SWAP1 PUSH4 0x70A08231 SWAP1 PUSH2 0x1636 SWAP1 ADDRESS SWAP1 PUSH1 0x4 ADD PUSH2 0x27DF JUMP JUMPDEST PUSH1 0x20 PUSH1 0x40 MLOAD DUP1 DUP4 SUB DUP2 DUP7 DUP1 EXTCODESIZE ISZERO DUP1 ISZERO PUSH2 0x164E JUMPI PUSH1 0x0 DUP1 REVERT JUMPDEST POP GAS STATICCALL ISZERO DUP1 ISZERO PUSH2 0x1662 JUMPI RETURNDATASIZE PUSH1 0x0 DUP1 RETURNDATACOPY RETURNDATASIZE PUSH1 0x0 REVERT JUMPDEST POP POP POP POP PUSH1 0x40 MLOAD RETURNDATASIZE PUSH1 0x1F NOT PUSH1 0x1F DUP3 ADD AND DUP3 ADD DUP1 PUSH1 0x40 MSTORE POP DUP2 ADD SWAP1 PUSH2 0x1686 SWAP2 SWAP1 PUSH2 0x2744 JUMP JUMPDEST LT ISZERO PUSH2 0x16A4 JUMPI PUSH1 0x40 MLOAD PUSH3 0x461BCD PUSH1 0xE5 SHL DUP2 MSTORE PUSH1 0x4 ADD PUSH2 0x4CA SWAP1 PUSH2 0x29B0 JUMP JUMPDEST POP PUSH1 0x1 ADD PUSH2 0x1391 JUMP JUMPDEST PUSH32 0x0 PUSH1 0x1 PUSH1 0x1 PUSH1 0xA0 SHL SUB AND PUSH4 0x24E702ED PUSH1 0x40 MLOAD DUP2 PUSH4 0xFFFFFFFF AND PUSH1 0xE0 SHL DUP2 MSTORE PUSH1 0x4 ADD PUSH1 0x20 PUSH1 0x40 MLOAD DUP1 DUP4 SUB DUP2 DUP7 DUP1 EXTCODESIZE ISZERO DUP1 ISZERO PUSH2 0x1706 JUMPI PUSH1 0x0 DUP1 REVERT JUMPDEST POP GAS STATICCALL ISZERO DUP1 ISZERO PUSH2 0x171A JUMPI RETURNDATASIZE PUSH1 0x0 DUP1 RETURNDATACOPY RETURNDATASIZE PUSH1 0x0 REVERT JUMPDEST POP POP POP POP PUSH1 0x40 MLOAD RETURNDATASIZE PUSH1 0x1F NOT PUSH1 0x1F DUP3 ADD AND DUP3 ADD DUP1 PUSH1 0x40 MSTORE POP DUP2 ADD SWAP1 PUSH2 0x173E SWAP2 SWAP1 PUSH2 0x275C JUMP JUMPDEST PUSH1 0xFF AND PUSH32 0x0 PUSH1 0x1 PUSH1 0x1 PUSH1 0xA0 SHL SUB AND PUSH4 0xF815C03D CALLER PUSH1 0x40 MLOAD DUP3 PUSH4 0xFFFFFFFF AND PUSH1 0xE0 SHL DUP2 MSTORE PUSH1 0x4 ADD PUSH2 0x178D SWAP2 SWAP1 PUSH2 0x27DF JUMP JUMPDEST PUSH1 0x20 PUSH1 0x40 MLOAD DUP1 DUP4 SUB DUP2 DUP7 DUP1 EXTCODESIZE ISZERO DUP1 ISZERO PUSH2 0x17A5 JUMPI PUSH1 0x0 DUP1 REVERT JUMPDEST POP GAS STATICCALL ISZERO DUP1 ISZERO PUSH2 0x17B9 JUMPI RETURNDATASIZE PUSH1 0x0 DUP1 RETURNDATACOPY RETURNDATASIZE PUSH1 0x0 REVERT JUMPDEST POP POP POP POP PUSH1 0x40 MLOAD RETURNDATASIZE PUSH1 0x1F NOT PUSH1 0x1F DUP3 ADD AND DUP3 ADD DUP1 PUSH1 0x40 MSTORE POP DUP2 ADD SWAP1 PUSH2 0x17DD SWAP2 SWAP1 PUSH2 0x275C JUMP JUMPDEST PUSH1 0xFF AND EQ ISZERO PUSH2 0x17FE JUMPI PUSH1 0x40 MLOAD PUSH3 0x461BCD PUSH1 0xE5 SHL DUP2 MSTORE PUSH1 0x4 ADD PUSH2 0x4CA SWAP1 PUSH2 0x2C0B JUMP JUMPDEST PUSH1 0x1 PUSH1 0x1 PUSH1 0xA0 SHL SUB DUP3 DUP2 AND PUSH1 0x0 SWAP1 DUP2 MSTORE PUSH1 0x8 PUSH1 0x20 MSTORE PUSH1 0x40 SWAP1 KECCAK256 SLOAD AND PUSH2 0x1835 JUMPI PUSH1 0x40 MLOAD PUSH3 0x461BCD PUSH1 0xE5 SHL DUP2 MSTORE PUSH1 0x4 ADD PUSH2 0x4CA SWAP1 PUSH2 0x2A3D JUMP JUMPDEST PUSH1 0x40 MLOAD PUSH4 0x70A08231 PUSH1 0xE0 SHL DUP2 MSTORE PUSH1 0x0 SWAP1 PUSH1 0x1 PUSH1 0x1 PUSH1 0xA0 SHL SUB DUP5 AND SWAP1 PUSH4 0x70A08231 SWAP1 PUSH2 0x1864 SWAP1 ADDRESS SWAP1 PUSH1 0x4 ADD PUSH2 0x27DF JUMP JUMPDEST PUSH1 0x20 PUSH1 0x40 MLOAD DUP1 DUP4 SUB DUP2 DUP7 DUP1 EXTCODESIZE ISZERO DUP1 ISZERO PUSH2 0x187C JUMPI PUSH1 0x0 DUP1 REVERT JUMPDEST POP GAS STATICCALL ISZERO DUP1 ISZERO PUSH2 0x1890 JUMPI RETURNDATASIZE PUSH1 0x0 DUP1 RETURNDATACOPY RETURNDATASIZE PUSH1 0x0 REVERT JUMPDEST POP POP POP POP PUSH1 0x40 MLOAD RETURNDATASIZE PUSH1 0x1F NOT PUSH1 0x1F DUP3 ADD AND DUP3 ADD DUP1 PUSH1 0x40 MSTORE POP DUP2 ADD SWAP1 PUSH2 0x18B4 SWAP2 SWAP1 PUSH2 0x2744 JUMP JUMPDEST SWAP1 POP DUP1 DUP3 GT ISZERO DUP1 PUSH2 0x18C8 JUMPI POP PUSH1 0x9 SLOAD PUSH1 0xFF AND ISZERO JUMPDEST ISZERO PUSH2 0x18DD JUMPI PUSH2 0x18D8 DUP5 DUP5 DUP5 PUSH2 0x1F4F JUMP JUMPDEST PUSH2 0x18E8 JUMP JUMPDEST PUSH2 0x18E8 DUP5 DUP5 DUP5 PUSH2 0x206F JUMP JUMPDEST PUSH1 0x0 PUSH2 0x19A8 DUP5 PUSH1 0x1 PUSH1 0x1 PUSH1 0xA0 SHL SUB AND PUSH4 0x70A08231 ADDRESS PUSH1 0x40 MLOAD DUP3 PUSH4 0xFFFFFFFF AND PUSH1 0xE0 SHL DUP2 MSTORE PUSH1 0x4 ADD PUSH2 0x1919 SWAP2 SWAP1 PUSH2 0x27DF JUMP JUMPDEST PUSH1 0x20 PUSH1 0x40 MLOAD DUP1 DUP4 SUB DUP2 DUP7 DUP1 EXTCODESIZE ISZERO DUP1 ISZERO PUSH2 0x1931 JUMPI PUSH1 0x0 DUP1 REVERT JUMPDEST POP GAS STATICCALL ISZERO DUP1 ISZERO PUSH2 0x1945 JUMPI RETURNDATASIZE PUSH1 0x0 DUP1 RETURNDATACOPY RETURNDATASIZE PUSH1 0x0 REVERT JUMPDEST POP POP POP POP PUSH1 0x40 MLOAD RETURNDATASIZE PUSH1 0x1F NOT PUSH1 0x1F DUP3 ADD AND DUP3 ADD DUP1 PUSH1 0x40 MSTORE POP DUP2 ADD SWAP1 PUSH2 0x1969 SWAP2 SWAP1 PUSH2 0x2744 JUMP JUMPDEST PUSH1 0x1 PUSH1 0x1 PUSH1 0xA0 SHL SUB DUP1 DUP8 AND PUSH1 0x0 SWAP1 DUP2 MSTORE PUSH1 0x8 PUSH1 0x20 MSTORE PUSH1 0x40 SWAP1 DUP2 SWAP1 KECCAK256 SLOAD SWAP1 MLOAD PUSH4 0x70A08231 PUSH1 0xE0 SHL DUP2 MSTORE SWAP2 AND SWAP1 PUSH4 0x70A08231 SWAP1 PUSH2 0x10DE SWAP1 ADDRESS SWAP1 PUSH1 0x4 ADD PUSH2 0x27DF JUMP JUMPDEST PUSH1 0x1 PUSH1 0x1 PUSH1 0xA0 SHL SUB DUP6 AND PUSH1 0x0 SWAP1 DUP2 MSTORE PUSH1 0x1 PUSH1 0x20 MSTORE PUSH1 0x40 SWAP1 KECCAK256 SLOAD SWAP1 SWAP2 POP DUP2 LT ISZERO PUSH2 0x116F JUMPI PUSH1 0x40 MLOAD PUSH3 0x461BCD PUSH1 0xE5 SHL DUP2 MSTORE PUSH1 0x4 ADD PUSH2 0x4CA SWAP1 PUSH2 0x2E05 JUMP JUMPDEST PUSH32 0x0 DUP2 JUMP JUMPDEST PUSH1 0x1 PUSH1 0x20 MSTORE PUSH1 0x0 SWAP1 DUP2 MSTORE PUSH1 0x40 SWAP1 KECCAK256 SLOAD DUP2 JUMP JUMPDEST PUSH2 0x1A21 PUSH2 0x1BE8 JUMP JUMPDEST PUSH1 0x0 SLOAD PUSH1 0x1 PUSH1 0x1 PUSH1 0xA0 SHL SUB SWAP1 DUP2 AND SWAP2 AND EQ PUSH2 0x1A4E JUMPI PUSH1 0x40 MLOAD PUSH3 0x461BCD PUSH1 0xE5 SHL DUP2 MSTORE PUSH1 0x4 ADD PUSH2 0x4CA SWAP1 PUSH2 0x2CE2 JUMP JUMPDEST PUSH1 0x1 PUSH1 0x1 PUSH1 0xA0 SHL SUB DUP2 AND PUSH2 0x1A74 JUMPI PUSH1 0x40 MLOAD PUSH3 0x461BCD PUSH1 0xE5 SHL DUP2 MSTORE PUSH1 0x4 ADD PUSH2 0x4CA SWAP1 PUSH2 0x29F7 JUMP JUMPDEST PUSH1 0x0 DUP1 SLOAD PUSH1 0x40 MLOAD PUSH1 0x1 PUSH1 0x1 PUSH1 0xA0 SHL SUB DUP1 DUP6 AND SWAP4 SWAP3 AND SWAP2 PUSH32 0x8BE0079C531659141344CD1FD0A4F28419497F9722A3DAAFE3B4186F6B6457E0 SWAP2 LOG3 PUSH1 0x0 DUP1 SLOAD PUSH1 0x1 PUSH1 0x1 PUSH1 0xA0 SHL SUB NOT AND PUSH1 0x1 PUSH1 0x1 PUSH1 0xA0 SHL SUB SWAP3 SWAP1 SWAP3 AND SWAP2 SWAP1 SWAP2 OR SWAP1 SSTORE JUMP JUMPDEST PUSH20 0x8DFF5E27EA6B7AC08EBFDF9EB090F32EE9A30FCF DUP2 JUMP JUMPDEST PUSH32 0x0 DUP2 JUMP JUMPDEST PUSH20 0xD500B1D8E8EF31E21C99D1DB9A6444D3ADF1270 DUP2 JUMP JUMPDEST PUSH2 0x1B2B PUSH2 0x1BE8 JUMP JUMPDEST PUSH1 0x0 SLOAD PUSH1 0x1 PUSH1 0x1 PUSH1 0xA0 SHL SUB SWAP1 DUP2 AND SWAP2 AND EQ PUSH2 0x1B58 JUMPI PUSH1 0x40 MLOAD PUSH3 0x461BCD PUSH1 0xE5 SHL DUP2 MSTORE PUSH1 0x4 ADD PUSH2 0x4CA SWAP1 PUSH2 0x2CE2 JUMP JUMPDEST PUSH2 0x9AB DUP4 DUP4 DUP4 PUSH2 0x237D JUMP JUMPDEST PUSH1 0x0 DUP3 PUSH2 0x1B72 JUMPI POP PUSH1 0x0 PUSH2 0x1BA0 JUMP JUMPDEST DUP3 DUP3 MUL DUP3 DUP5 DUP3 DUP2 PUSH2 0x1B7F JUMPI INVALID JUMPDEST DIV EQ PUSH2 0x1B9D JUMPI PUSH1 0x40 MLOAD PUSH3 0x461BCD PUSH1 0xE5 SHL DUP2 MSTORE PUSH1 0x4 ADD PUSH2 0x4CA SWAP1 PUSH2 0x2CA1 JUMP JUMPDEST SWAP1 POP JUMPDEST SWAP3 SWAP2 POP POP JUMP JUMPDEST PUSH1 0x0 PUSH2 0x1B9D DUP4 DUP4 PUSH1 0x40 MLOAD DUP1 PUSH1 0x40 ADD PUSH1 0x40 MSTORE DUP1 PUSH1 0x1A DUP2 MSTORE PUSH1 0x20 ADD PUSH32 0x536166654D6174683A206469766973696F6E206279207A65726F000000000000 DUP2 MSTORE POP PUSH2 0x23C4 JUMP JUMPDEST CALLER SWAP1 JUMP JUMPDEST PUSH1 0x1 PUSH1 0x1 PUSH1 0xA0 SHL SUB DUP1 DUP4 AND PUSH1 0x0 DUP2 DUP2 MSTORE PUSH1 0x8 PUSH1 0x20 MSTORE PUSH1 0x40 DUP1 DUP3 KECCAK256 DUP1 SLOAD SWAP5 DUP7 AND PUSH1 0x1 PUSH1 0x1 PUSH1 0xA0 SHL SUB NOT SWAP6 DUP7 AND DUP2 OR SWAP1 SWAP2 SSTORE PUSH1 0x6 DUP1 SLOAD PUSH1 0x1 DUP2 DUP2 ADD SWAP1 SWAP3 SSTORE PUSH32 0xF652222313E28459528D920B65115C16C04F3EFC82AAEDC97BE59F3F377C0D3F ADD DUP1 SLOAD DUP8 AND SWAP1 SWAP6 OR SWAP1 SWAP5 SSTORE PUSH1 0x7 DUP1 SLOAD SWAP5 DUP6 ADD DUP2 SSTORE SWAP1 SWAP3 MSTORE PUSH32 0xA66CC928B5EDB82AF9BD49922954155AB7B0942694BEA4CE44661D9A8736C688 SWAP1 SWAP3 ADD DUP1 SLOAD SWAP1 SWAP4 AND OR SWAP1 SWAP2 SSTORE MLOAD PUSH32 0xDFFBD9DED1C09446F09377DE547142DCCE7DC541C8B0B028142B1EBA7026B9E7 SWAP1 PUSH2 0x1CBD SWAP1 DUP5 SWAP1 DUP5 SWAP1 PUSH2 0x27F3 JUMP JUMPDEST PUSH1 0x40 MLOAD DUP1 SWAP2 SUB SWAP1 LOG1 POP POP JUMP JUMPDEST DUP1 ISZERO PUSH2 0x1E7A JUMPI PUSH1 0x40 MLOAD PUSH4 0x70A08231 PUSH1 0xE0 SHL DUP2 MSTORE DUP3 SWAP1 PUSH1 0x0 SWAP1 PUSH1 0x1 PUSH1 0x1 PUSH1 0xA0 SHL SUB DUP4 AND SWAP1 PUSH4 0x70A08231 SWAP1 PUSH2 0x1D00 SWAP1 ADDRESS SWAP1 PUSH1 0x4 ADD PUSH2 0x27DF JUMP JUMPDEST PUSH1 0x20 PUSH1 0x40 MLOAD DUP1 DUP4 SUB DUP2 DUP7 DUP1 EXTCODESIZE ISZERO DUP1 ISZERO PUSH2 0x1D18 JUMPI PUSH1 0x0 DUP1 REVERT JUMPDEST POP GAS STATICCALL ISZERO DUP1 ISZERO PUSH2 0x1D2C JUMPI RETURNDATASIZE PUSH1 0x0 DUP1 RETURNDATACOPY RETURNDATASIZE PUSH1 0x0 REVERT JUMPDEST POP POP POP POP PUSH1 0x40 MLOAD RETURNDATASIZE PUSH1 0x1F NOT PUSH1 0x1F DUP3 ADD AND DUP3 ADD DUP1 PUSH1 0x40 MSTORE POP DUP2 ADD SWAP1 PUSH2 0x1D50 SWAP2 SWAP1 PUSH2 0x2744 JUMP JUMPDEST SWAP1 POP PUSH2 0x1D67 PUSH1 0x1 PUSH1 0x1 PUSH1 0xA0 SHL SUB DUP4 AND DUP7 ADDRESS DUP7 PUSH2 0x23FB JUMP JUMPDEST DUP3 PUSH2 0x1D98 DUP3 DUP5 PUSH1 0x1 PUSH1 0x1 PUSH1 0xA0 SHL SUB AND PUSH4 0x70A08231 ADDRESS PUSH1 0x40 MLOAD DUP3 PUSH4 0xFFFFFFFF AND PUSH1 0xE0 SHL DUP2 MSTORE PUSH1 0x4 ADD PUSH2 0xDD8 SWAP2 SWAP1 PUSH2 0x27DF JUMP JUMPDEST EQ PUSH2 0x1DB5 JUMPI PUSH1 0x40 MLOAD PUSH3 0x461BCD PUSH1 0xE5 SHL DUP2 MSTORE PUSH1 0x4 ADD PUSH2 0x4CA SWAP1 PUSH2 0x2A83 JUMP JUMPDEST PUSH1 0x1 PUSH1 0x1 PUSH1 0xA0 SHL SUB DUP5 AND PUSH1 0x0 SWAP1 DUP2 MSTORE PUSH1 0x1 PUSH1 0x20 MSTORE PUSH1 0x40 SWAP1 KECCAK256 SLOAD PUSH2 0x1DD8 SWAP1 DUP5 PUSH2 0x1ED4 JUMP JUMPDEST PUSH1 0x1 PUSH1 0x1 PUSH1 0xA0 SHL SUB DUP6 AND PUSH1 0x0 DUP2 DUP2 MSTORE PUSH1 0x1 PUSH1 0x20 SWAP1 DUP2 MSTORE PUSH1 0x40 DUP1 DUP4 KECCAK256 SWAP5 SWAP1 SWAP5 SSTORE CALLER DUP3 MSTORE PUSH1 0x2 DUP2 MSTORE DUP4 DUP3 KECCAK256 SWAP3 DUP3 MSTORE SWAP2 SWAP1 SWAP2 MSTORE KECCAK256 SLOAD PUSH2 0x1E14 SWAP1 DUP5 PUSH2 0x1ED4 JUMP JUMPDEST CALLER PUSH1 0x0 DUP2 DUP2 MSTORE PUSH1 0x2 PUSH1 0x20 SWAP1 DUP2 MSTORE PUSH1 0x40 DUP1 DUP4 KECCAK256 PUSH1 0x1 PUSH1 0x1 PUSH1 0xA0 SHL SUB DUP11 AND DUP1 DUP6 MSTORE SWAP3 MSTORE SWAP2 DUP3 SWAP1 KECCAK256 SWAP4 SWAP1 SWAP4 SSTORE MLOAD PUSH32 0x5548C837AB068CF56A2C2479DF0882A4922FD203EDB7517321831D95078C5F62 SWAP1 PUSH2 0x1E6B SWAP1 DUP8 SWAP1 PUSH2 0x2EC8 JUMP JUMPDEST PUSH1 0x40 MLOAD DUP1 SWAP2 SUB SWAP1 LOG3 POP POP PUSH2 0x9AB JUMP JUMPDEST PUSH1 0x40 MLOAD PUSH3 0x461BCD PUSH1 0xE5 SHL DUP2 MSTORE PUSH1 0x4 ADD PUSH2 0x4CA SWAP1 PUSH2 0x2BC3 JUMP JUMPDEST PUSH1 0x0 PUSH2 0x1B9D DUP4 DUP4 PUSH1 0x40 MLOAD DUP1 PUSH1 0x40 ADD PUSH1 0x40 MSTORE DUP1 PUSH1 0x1E DUP2 MSTORE PUSH1 0x20 ADD PUSH32 0x536166654D6174683A207375627472616374696F6E206F766572666C6F770000 DUP2 MSTORE POP PUSH2 0x2422 JUMP JUMPDEST PUSH1 0x0 DUP3 DUP3 ADD DUP4 DUP2 LT ISZERO PUSH2 0x1B9D JUMPI PUSH1 0x40 MLOAD PUSH3 0x461BCD PUSH1 0xE5 SHL DUP2 MSTORE PUSH1 0x4 ADD PUSH2 0x4CA SWAP1 PUSH2 0x2AC6 JUMP JUMPDEST PUSH2 0x9AB DUP4 PUSH4 0xA9059CBB PUSH1 0xE0 SHL DUP5 DUP5 PUSH1 0x40 MLOAD PUSH1 0x24 ADD PUSH2 0x1F18 SWAP3 SWAP2 SWAP1 PUSH2 0x2831 JUMP JUMPDEST PUSH1 0x40 DUP1 MLOAD PUSH1 0x1F NOT DUP2 DUP5 SUB ADD DUP2 MSTORE SWAP2 SWAP1 MSTORE PUSH1 0x20 DUP2 ADD DUP1 MLOAD PUSH1 0x1 PUSH1 0x1 PUSH1 0xE0 SHL SUB AND PUSH1 0x1 PUSH1 0x1 PUSH1 0xE0 SHL SUB NOT SWAP1 SWAP4 AND SWAP3 SWAP1 SWAP3 OR SWAP1 SWAP2 MSTORE PUSH2 0x244E JUMP JUMPDEST CALLER PUSH1 0x0 SWAP1 DUP2 MSTORE PUSH1 0x2 PUSH1 0x20 SWAP1 DUP2 MSTORE PUSH1 0x40 DUP1 DUP4 KECCAK256 PUSH1 0x1 PUSH1 0x1 PUSH1 0xA0 SHL SUB DUP7 AND DUP5 MSTORE SWAP1 SWAP2 MSTORE SWAP1 KECCAK256 SLOAD DUP2 GT ISZERO PUSH2 0x1F92 JUMPI PUSH1 0x40 MLOAD PUSH3 0x461BCD PUSH1 0xE5 SHL DUP2 MSTORE PUSH1 0x4 ADD PUSH2 0x4CA SWAP1 PUSH2 0x2D17 JUMP JUMPDEST DUP1 ISZERO PUSH2 0x9AB JUMPI PUSH2 0x1FAC PUSH1 0x1 PUSH1 0x1 PUSH1 0xA0 SHL SUB DUP4 AND DUP5 DUP4 PUSH2 0x1EF9 JUMP JUMPDEST PUSH1 0x1 PUSH1 0x1 PUSH1 0xA0 SHL SUB DUP3 AND PUSH1 0x0 SWAP1 DUP2 MSTORE PUSH1 0x1 PUSH1 0x20 MSTORE PUSH1 0x40 SWAP1 KECCAK256 SLOAD PUSH2 0x1FCF SWAP1 DUP3 PUSH2 0x1E92 JUMP JUMPDEST PUSH1 0x1 PUSH1 0x1 PUSH1 0xA0 SHL SUB DUP4 AND PUSH1 0x0 DUP2 DUP2 MSTORE PUSH1 0x1 PUSH1 0x20 SWAP1 DUP2 MSTORE PUSH1 0x40 DUP1 DUP4 KECCAK256 SWAP5 SWAP1 SWAP5 SSTORE CALLER DUP3 MSTORE PUSH1 0x2 DUP2 MSTORE DUP4 DUP3 KECCAK256 SWAP3 DUP3 MSTORE SWAP2 SWAP1 SWAP2 MSTORE KECCAK256 SLOAD PUSH2 0x200B SWAP1 DUP3 PUSH2 0x1E92 JUMP JUMPDEST CALLER PUSH1 0x0 DUP2 DUP2 MSTORE PUSH1 0x2 PUSH1 0x20 SWAP1 DUP2 MSTORE PUSH1 0x40 DUP1 DUP4 KECCAK256 PUSH1 0x1 PUSH1 0x1 PUSH1 0xA0 SHL SUB DUP9 AND DUP1 DUP6 MSTORE SWAP3 MSTORE SWAP2 DUP3 SWAP1 KECCAK256 SWAP4 SWAP1 SWAP4 SSTORE MLOAD PUSH32 0x9B1BFA7FA9EE420A16E124F794C35AC9F90472ACC99140EB2F6447C714CAD8EB SWAP1 PUSH2 0x2062 SWAP1 DUP6 SWAP1 PUSH2 0x2EC8 JUMP JUMPDEST PUSH1 0x40 MLOAD DUP1 SWAP2 SUB SWAP1 LOG3 POP POP POP JUMP JUMPDEST PUSH2 0x207A DUP4 DUP4 DUP4 PUSH2 0x2533 JUMP JUMPDEST PUSH1 0x40 MLOAD PUSH4 0x70A08231 PUSH1 0xE0 SHL DUP2 MSTORE PUSH1 0x0 SWAP1 PUSH1 0x1 PUSH1 0x1 PUSH1 0xA0 SHL SUB DUP5 AND SWAP1 PUSH4 0x70A08231 SWAP1 PUSH2 0x20A9 SWAP1 ADDRESS SWAP1 PUSH1 0x4 ADD PUSH2 0x27DF JUMP JUMPDEST PUSH1 0x20 PUSH1 0x40 MLOAD DUP1 DUP4 SUB DUP2 DUP7 DUP1 EXTCODESIZE ISZERO DUP1 ISZERO PUSH2 0x20C1 JUMPI PUSH1 0x0 DUP1 REVERT JUMPDEST POP GAS STATICCALL ISZERO DUP1 ISZERO PUSH2 0x20D5 JUMPI RETURNDATASIZE PUSH1 0x0 DUP1 RETURNDATACOPY RETURNDATASIZE PUSH1 0x0 REVERT JUMPDEST POP POP POP POP PUSH1 0x40 MLOAD RETURNDATASIZE PUSH1 0x1F NOT PUSH1 0x1F DUP3 ADD AND DUP3 ADD DUP1 PUSH1 0x40 MSTORE POP DUP2 ADD SWAP1 PUSH2 0x20F9 SWAP2 SWAP1 PUSH2 0x2744 JUMP JUMPDEST SWAP1 POP DUP1 ISZERO PUSH2 0x2207 JUMPI PUSH1 0x40 MLOAD PUSH4 0x95EA7B3 PUSH1 0xE0 SHL DUP2 MSTORE PUSH1 0x1 PUSH1 0x1 PUSH1 0xA0 SHL SUB DUP5 AND SWAP1 PUSH4 0x95EA7B3 SWAP1 PUSH2 0x2143 SWAP1 PUSH20 0x8DFF5E27EA6B7AC08EBFDF9EB090F32EE9A30FCF SWAP1 DUP6 SWAP1 PUSH1 0x4 ADD PUSH2 0x2831 JUMP JUMPDEST PUSH1 0x20 PUSH1 0x40 MLOAD DUP1 DUP4 SUB DUP2 PUSH1 0x0 DUP8 DUP1 EXTCODESIZE ISZERO DUP1 ISZERO PUSH2 0x215D JUMPI PUSH1 0x0 DUP1 REVERT JUMPDEST POP GAS CALL ISZERO DUP1 ISZERO PUSH2 0x2171 JUMPI RETURNDATASIZE PUSH1 0x0 DUP1 RETURNDATACOPY RETURNDATASIZE PUSH1 0x0 REVERT JUMPDEST POP POP POP POP PUSH1 0x40 MLOAD RETURNDATASIZE PUSH1 0x1F NOT PUSH1 0x1F DUP3 ADD AND DUP3 ADD DUP1 PUSH1 0x40 MSTORE POP DUP2 ADD SWAP1 PUSH2 0x2195 SWAP2 SWAP1 PUSH2 0x26B4 JUMP JUMPDEST POP PUSH1 0x40 MLOAD PUSH4 0xE8EDA9DF PUSH1 0xE0 SHL DUP2 MSTORE PUSH20 0x8DFF5E27EA6B7AC08EBFDF9EB090F32EE9A30FCF SWAP1 PUSH4 0xE8EDA9DF SWAP1 PUSH2 0x21D4 SWAP1 DUP7 SWAP1 DUP6 SWAP1 ADDRESS SWAP1 PUSH1 0x0 SWAP1 PUSH1 0x4 ADD PUSH2 0x286D JUMP JUMPDEST PUSH1 0x0 PUSH1 0x40 MLOAD DUP1 DUP4 SUB DUP2 PUSH1 0x0 DUP8 DUP1 EXTCODESIZE ISZERO DUP1 ISZERO PUSH2 0x21EE JUMPI PUSH1 0x0 DUP1 REVERT JUMPDEST POP GAS CALL ISZERO DUP1 ISZERO PUSH2 0x2202 JUMPI RETURNDATASIZE PUSH1 0x0 DUP1 RETURNDATACOPY RETURNDATASIZE PUSH1 0x0 REVERT JUMPDEST POP POP POP POP JUMPDEST PUSH1 0x1 PUSH1 0x1 PUSH1 0xA0 SHL SUB DUP1 DUP5 AND PUSH1 0x0 SWAP1 DUP2 MSTORE PUSH1 0x8 PUSH1 0x20 MSTORE PUSH1 0x40 DUP1 DUP3 KECCAK256 SLOAD SWAP1 MLOAD PUSH4 0x70A08231 PUSH1 0xE0 SHL DUP2 MSTORE SWAP2 SWAP3 AND SWAP1 PUSH4 0x70A08231 SWAP1 PUSH2 0x2246 SWAP1 ADDRESS SWAP1 PUSH1 0x4 ADD PUSH2 0x27DF JUMP JUMPDEST PUSH1 0x20 PUSH1 0x40 MLOAD DUP1 DUP4 SUB DUP2 DUP7 DUP1 EXTCODESIZE ISZERO DUP1 ISZERO PUSH2 0x225E JUMPI PUSH1 0x0 DUP1 REVERT JUMPDEST POP GAS STATICCALL ISZERO DUP1 ISZERO PUSH2 0x2272 JUMPI RETURNDATASIZE PUSH1 0x0 DUP1 RETURNDATACOPY RETURNDATASIZE PUSH1 0x0 REVERT JUMPDEST POP POP POP POP PUSH1 0x40 MLOAD RETURNDATASIZE PUSH1 0x1F NOT PUSH1 0x1F DUP3 ADD AND DUP3 ADD DUP1 PUSH1 0x40 MSTORE POP DUP2 ADD SWAP1 PUSH2 0x2296 SWAP2 SWAP1 PUSH2 0x2744 JUMP JUMPDEST PUSH1 0x5 SLOAD PUSH1 0x4 SLOAD PUSH1 0x1 PUSH1 0x1 PUSH1 0xA0 SHL SUB DUP8 AND PUSH1 0x0 SWAP1 DUP2 MSTORE PUSH1 0x1 PUSH1 0x20 MSTORE PUSH1 0x40 DUP2 KECCAK256 SLOAD SWAP4 SWAP5 POP SWAP3 PUSH2 0x22C8 SWAP3 SWAP2 PUSH2 0x466 SWAP2 SWAP1 PUSH2 0x1B63 JUMP JUMPDEST SWAP1 POP PUSH20 0x8DFF5E27EA6B7AC08EBFDF9EB090F32EE9A30FCF PUSH4 0x69328DEC DUP7 PUSH2 0x22EF DUP5 DUP9 PUSH2 0x1ED4 JUMP JUMPDEST ADDRESS PUSH1 0x40 MLOAD DUP5 PUSH4 0xFFFFFFFF AND PUSH1 0xE0 SHL DUP2 MSTORE PUSH1 0x4 ADD PUSH2 0x230E SWAP4 SWAP3 SWAP2 SWAP1 PUSH2 0x284A JUMP JUMPDEST PUSH1 0x20 PUSH1 0x40 MLOAD DUP1 DUP4 SUB DUP2 PUSH1 0x0 DUP8 DUP1 EXTCODESIZE ISZERO DUP1 ISZERO PUSH2 0x2328 JUMPI PUSH1 0x0 DUP1 REVERT JUMPDEST POP GAS CALL ISZERO DUP1 ISZERO PUSH2 0x233C JUMPI RETURNDATASIZE PUSH1 0x0 DUP1 RETURNDATACOPY RETURNDATASIZE PUSH1 0x0 REVERT JUMPDEST POP POP POP POP PUSH1 0x40 MLOAD RETURNDATASIZE PUSH1 0x1F NOT PUSH1 0x1F DUP3 ADD AND DUP3 ADD DUP1 PUSH1 0x40 MSTORE POP DUP2 ADD SWAP1 PUSH2 0x2360 SWAP2 SWAP1 PUSH2 0x2744 JUMP JUMPDEST POP PUSH2 0x2375 PUSH1 0x1 PUSH1 0x1 PUSH1 0xA0 SHL SUB DUP7 AND DUP8 DUP7 PUSH2 0x1EF9 JUMP JUMPDEST POP POP POP POP POP POP JUMP JUMPDEST PUSH1 0x3 DUP1 SLOAD PUSH1 0x1 PUSH1 0x1 PUSH1 0xA0 SHL SUB NOT AND PUSH1 0x1 PUSH1 0x1 PUSH1 0xA0 SHL SUB DUP6 AND OR SWAP1 SSTORE DUP1 DUP3 GT ISZERO PUSH2 0x23B8 JUMPI PUSH1 0x40 MLOAD PUSH3 0x461BCD PUSH1 0xE5 SHL DUP2 MSTORE PUSH1 0x4 ADD PUSH2 0x4CA SWAP1 PUSH2 0x2C54 JUMP JUMPDEST PUSH1 0x4 SWAP2 SWAP1 SWAP2 SSTORE PUSH1 0x5 SSTORE POP JUMP JUMPDEST PUSH1 0x0 DUP2 DUP4 PUSH2 0x23E5 JUMPI PUSH1 0x40 MLOAD PUSH3 0x461BCD PUSH1 0xE5 SHL DUP2 MSTORE PUSH1 0x4 ADD PUSH2 0x4CA SWAP2 SWAP1 PUSH2 0x2902 JUMP JUMPDEST POP PUSH1 0x0 DUP4 DUP6 DUP2 PUSH2 0x23F1 JUMPI INVALID JUMPDEST DIV SWAP6 SWAP5 POP POP POP POP POP JUMP JUMPDEST PUSH2 0x241C DUP5 PUSH4 0x23B872DD PUSH1 0xE0 SHL DUP6 DUP6 DUP6 PUSH1 0x40 MLOAD PUSH1 0x24 ADD PUSH2 0x1F18 SWAP4 SWAP3 SWAP2 SWAP1 PUSH2 0x280D JUMP JUMPDEST POP POP POP POP JUMP JUMPDEST PUSH1 0x0 DUP2 DUP5 DUP5 GT ISZERO PUSH2 0x2446 JUMPI PUSH1 0x40 MLOAD PUSH3 0x461BCD PUSH1 0xE5 SHL DUP2 MSTORE PUSH1 0x4 ADD PUSH2 0x4CA SWAP2 SWAP1 PUSH2 0x2902 JUMP JUMPDEST POP POP POP SWAP1 SUB SWAP1 JUMP JUMPDEST PUSH2 0x2460 DUP3 PUSH1 0x1 PUSH1 0x1 PUSH1 0xA0 SHL SUB AND PUSH2 0x259F JUMP JUMPDEST PUSH2 0x247C JUMPI PUSH1 0x40 MLOAD PUSH3 0x461BCD PUSH1 0xE5 SHL DUP2 MSTORE PUSH1 0x4 ADD PUSH2 0x4CA SWAP1 PUSH2 0x2E4B JUMP JUMPDEST PUSH1 0x0 PUSH1 0x60 DUP4 PUSH1 0x1 PUSH1 0x1 PUSH1 0xA0 SHL SUB AND DUP4 PUSH1 0x40 MLOAD PUSH2 0x2498 SWAP2 SWAP1 PUSH2 0x27C3 JUMP JUMPDEST PUSH1 0x0 PUSH1 0x40 MLOAD DUP1 DUP4 SUB DUP2 PUSH1 0x0 DUP7 GAS CALL SWAP2 POP POP RETURNDATASIZE DUP1 PUSH1 0x0 DUP2 EQ PUSH2 0x24D5 JUMPI PUSH1 0x40 MLOAD SWAP2 POP PUSH1 0x1F NOT PUSH1 0x3F RETURNDATASIZE ADD AND DUP3 ADD PUSH1 0x40 MSTORE RETURNDATASIZE DUP3 MSTORE RETURNDATASIZE PUSH1 0x0 PUSH1 0x20 DUP5 ADD RETURNDATACOPY PUSH2 0x24DA JUMP JUMPDEST PUSH1 0x60 SWAP2 POP JUMPDEST POP SWAP2 POP SWAP2 POP DUP2 PUSH2 0x24FC JUMPI PUSH1 0x40 MLOAD PUSH3 0x461BCD PUSH1 0xE5 SHL DUP2 MSTORE PUSH1 0x4 ADD PUSH2 0x4CA SWAP1 PUSH2 0x2B41 JUMP JUMPDEST DUP1 MLOAD ISZERO PUSH2 0x241C JUMPI DUP1 DUP1 PUSH1 0x20 ADD SWAP1 MLOAD DUP2 ADD SWAP1 PUSH2 0x2517 SWAP2 SWAP1 PUSH2 0x26B4 JUMP JUMPDEST PUSH2 0x241C JUMPI PUSH1 0x40 MLOAD PUSH3 0x461BCD PUSH1 0xE5 SHL DUP2 MSTORE PUSH1 0x4 ADD PUSH2 0x4CA SWAP1 PUSH2 0x2DBB JUMP JUMPDEST CALLER PUSH1 0x0 SWAP1 DUP2 MSTORE PUSH1 0x2 PUSH1 0x20 SWAP1 DUP2 MSTORE PUSH1 0x40 DUP1 DUP4 KECCAK256 PUSH1 0x1 PUSH1 0x1 PUSH1 0xA0 SHL SUB DUP7 AND DUP5 MSTORE SWAP1 SWAP2 MSTORE SWAP1 KECCAK256 SLOAD DUP2 GT ISZERO PUSH2 0x2576 JUMPI PUSH1 0x40 MLOAD PUSH3 0x461BCD PUSH1 0xE5 SHL DUP2 MSTORE PUSH1 0x4 ADD PUSH2 0x4CA SWAP1 PUSH2 0x2D17 JUMP JUMPDEST DUP1 ISZERO PUSH2 0x9AB JUMPI PUSH1 0x1 PUSH1 0x1 PUSH1 0xA0 SHL SUB DUP3 AND PUSH1 0x0 SWAP1 DUP2 MSTORE PUSH1 0x1 PUSH1 0x20 MSTORE PUSH1 0x40 SWAP1 KECCAK256 SLOAD PUSH2 0x1FCF SWAP1 DUP3 PUSH2 0x1E92 JUMP JUMPDEST PUSH1 0x0 DUP2 EXTCODEHASH PUSH32 0xC5D2460186F7233C927E7DB2DCC703C0E500B653CA82273B7BFAD8045D85A470 DUP2 DUP2 EQ DUP1 ISZERO SWAP1 PUSH2 0x25D3 JUMPI POP DUP2 ISZERO ISZERO JUMPDEST SWAP5 SWAP4 POP POP POP POP JUMP JUMPDEST DUP1 CALLDATALOAD PUSH1 0x1 PUSH1 0x1 PUSH1 0xA0 SHL SUB DUP2 AND DUP2 EQ PUSH2 0x1BA0 JUMPI PUSH1 0x0 DUP1 REVERT JUMPDEST PUSH1 0x0 PUSH1 0x20 DUP3 DUP5 SUB SLT ISZERO PUSH2 0x2603 JUMPI DUP1 DUP2 REVERT JUMPDEST PUSH2 0x1B9D DUP4 DUP4 PUSH2 0x25DB JUMP JUMPDEST PUSH1 0x0 DUP1 PUSH1 0x40 DUP4 DUP6 SUB SLT ISZERO PUSH2 0x261F JUMPI DUP1 DUP2 REVERT JUMPDEST PUSH2 0x2629 DUP5 DUP5 PUSH2 0x25DB JUMP JUMPDEST SWAP2 POP PUSH2 0x2638 DUP5 PUSH1 0x20 DUP6 ADD PUSH2 0x25DB JUMP JUMPDEST SWAP1 POP SWAP3 POP SWAP3 SWAP1 POP JUMP JUMPDEST PUSH1 0x0 DUP1 PUSH1 0x0 PUSH1 0x60 DUP5 DUP7 SUB SLT ISZERO PUSH2 0x2655 JUMPI DUP1 DUP2 REVERT JUMPDEST DUP4 CALLDATALOAD PUSH2 0x2660 DUP2 PUSH2 0x2F0B JUMP JUMPDEST SWAP3 POP PUSH1 0x20 DUP5 ADD CALLDATALOAD PUSH2 0x2670 DUP2 PUSH2 0x2F0B JUMP JUMPDEST SWAP3 SWAP6 SWAP3 SWAP5 POP POP POP PUSH1 0x40 SWAP2 SWAP1 SWAP2 ADD CALLDATALOAD SWAP1 JUMP JUMPDEST PUSH1 0x0 DUP1 PUSH1 0x0 PUSH1 0x60 DUP5 DUP7 SUB SLT ISZERO PUSH2 0x2695 JUMPI DUP3 DUP4 REVERT JUMPDEST PUSH2 0x269F DUP6 DUP6 PUSH2 0x25DB JUMP JUMPDEST SWAP6 PUSH1 0x20 DUP6 ADD CALLDATALOAD SWAP6 POP PUSH1 0x40 SWAP1 SWAP5 ADD CALLDATALOAD SWAP4 SWAP3 POP POP POP JUMP JUMPDEST PUSH1 0x0 PUSH1 0x20 DUP3 DUP5 SUB SLT ISZERO PUSH2 0x26C5 JUMPI DUP1 DUP2 REVERT JUMPDEST DUP2 MLOAD DUP1 ISZERO ISZERO DUP2 EQ PUSH2 0x1B9D JUMPI DUP2 DUP3 REVERT JUMPDEST PUSH1 0x0 PUSH1 0x40 DUP3 DUP5 SUB SLT ISZERO PUSH2 0x26E5 JUMPI DUP1 DUP2 REVERT JUMPDEST PUSH1 0x40 MLOAD PUSH1 0x40 DUP2 ADD DUP2 DUP2 LT PUSH8 0xFFFFFFFFFFFFFFFF DUP3 GT OR ISZERO PUSH2 0x2704 JUMPI DUP3 DUP4 REVERT JUMPDEST PUSH1 0x40 MSTORE PUSH2 0x2711 DUP5 DUP5 PUSH2 0x25DB JUMP JUMPDEST DUP2 MSTORE PUSH2 0x2720 DUP5 PUSH1 0x20 DUP6 ADD PUSH2 0x25DB JUMP JUMPDEST PUSH1 0x20 DUP3 ADD MSTORE SWAP4 SWAP3 POP POP POP JUMP JUMPDEST PUSH1 0x0 PUSH1 0x20 DUP3 DUP5 SUB SLT ISZERO PUSH2 0x273D JUMPI DUP1 DUP2 REVERT JUMPDEST POP CALLDATALOAD SWAP2 SWAP1 POP JUMP JUMPDEST PUSH1 0x0 PUSH1 0x20 DUP3 DUP5 SUB SLT ISZERO PUSH2 0x2755 JUMPI DUP1 DUP2 REVERT JUMPDEST POP MLOAD SWAP2 SWAP1 POP JUMP JUMPDEST PUSH1 0x0 PUSH1 0x20 DUP3 DUP5 SUB SLT ISZERO PUSH2 0x276D JUMPI DUP1 DUP2 REVERT JUMPDEST DUP2 MLOAD PUSH1 0xFF DUP2 AND DUP2 EQ PUSH2 0x1B9D JUMPI DUP2 DUP3 REVERT JUMPDEST PUSH1 0x0 DUP2 SLOAD DUP1 DUP5 MSTORE PUSH1 0x20 DUP1 DUP6 ADD SWAP5 POP DUP4 DUP4 MSTORE DUP1 DUP4 KECCAK256 DUP4 JUMPDEST DUP4 DUP2 LT ISZERO PUSH2 0x27B8 JUMPI DUP2 SLOAD PUSH1 0x1 PUSH1 0x1 PUSH1 0xA0 SHL SUB AND DUP8 MSTORE SWAP6 DUP3 ADD SWAP6 PUSH1 0x1 SWAP2 DUP3 ADD SWAP2 ADD PUSH2 0x2793 JUMP JUMPDEST POP SWAP5 SWAP6 SWAP5 POP POP POP POP POP JUMP JUMPDEST PUSH1 0x0 DUP3 MLOAD PUSH2 0x27D5 DUP2 DUP5 PUSH1 0x20 DUP8 ADD PUSH2 0x2EDF JUMP JUMPDEST SWAP2 SWAP1 SWAP2 ADD SWAP3 SWAP2 POP POP JUMP JUMPDEST PUSH1 0x1 PUSH1 0x1 PUSH1 0xA0 SHL SUB SWAP2 SWAP1 SWAP2 AND DUP2 MSTORE PUSH1 0x20 ADD SWAP1 JUMP JUMPDEST PUSH1 0x1 PUSH1 0x1 PUSH1 0xA0 SHL SUB SWAP3 DUP4 AND DUP2 MSTORE SWAP2 AND PUSH1 0x20 DUP3 ADD MSTORE PUSH1 0x40 ADD SWAP1 JUMP JUMPDEST PUSH1 0x1 PUSH1 0x1 PUSH1 0xA0 SHL SUB SWAP4 DUP5 AND DUP2 MSTORE SWAP2 SWAP1 SWAP3 AND PUSH1 0x20 DUP3 ADD MSTORE PUSH1 0x40 DUP2 ADD SWAP2 SWAP1 SWAP2 MSTORE PUSH1 0x60 ADD SWAP1 JUMP JUMPDEST PUSH1 0x1 PUSH1 0x1 PUSH1 0xA0 SHL SUB SWAP3 SWAP1 SWAP3 AND DUP3 MSTORE PUSH1 0x20 DUP3 ADD MSTORE PUSH1 0x40 ADD SWAP1 JUMP JUMPDEST PUSH1 0x1 PUSH1 0x1 PUSH1 0xA0 SHL SUB SWAP4 DUP5 AND DUP2 MSTORE PUSH1 0x20 DUP2 ADD SWAP3 SWAP1 SWAP3 MSTORE SWAP1 SWAP2 AND PUSH1 0x40 DUP3 ADD MSTORE PUSH1 0x60 ADD SWAP1 JUMP JUMPDEST PUSH1 0x1 PUSH1 0x1 PUSH1 0xA0 SHL SUB SWAP5 DUP6 AND DUP2 MSTORE PUSH1 0x20 DUP2 ADD SWAP4 SWAP1 SWAP4 MSTORE SWAP3 AND PUSH1 0x40 DUP3 ADD MSTORE PUSH2 0xFFFF SWAP1 SWAP2 AND PUSH1 0x60 DUP3 ADD MSTORE PUSH1 0x80 ADD SWAP1 JUMP JUMPDEST PUSH1 0x0 PUSH1 0x40 DUP3 MSTORE PUSH2 0x28AD PUSH1 0x40 DUP4 ADD DUP6 PUSH2 0x277D JUMP JUMPDEST SWAP1 POP PUSH1 0x1 DUP1 PUSH1 0xA0 SHL SUB DUP4 AND PUSH1 0x20 DUP4 ADD MSTORE SWAP4 SWAP3 POP POP POP JUMP JUMPDEST PUSH1 0x0 PUSH1 0x60 DUP3 MSTORE PUSH2 0x28D7 PUSH1 0x60 DUP4 ADD DUP7 PUSH2 0x277D JUMP JUMPDEST PUSH1 0x20 DUP4 ADD SWAP5 SWAP1 SWAP5 MSTORE POP PUSH1 0x1 PUSH1 0x1 PUSH1 0xA0 SHL SUB SWAP2 SWAP1 SWAP2 AND PUSH1 0x40 SWAP1 SWAP2 ADD MSTORE SWAP2 SWAP1 POP JUMP JUMPDEST SWAP1 ISZERO ISZERO DUP2 MSTORE PUSH1 0x20 ADD SWAP1 JUMP JUMPDEST PUSH1 0x0 PUSH1 0x20 DUP3 MSTORE DUP3 MLOAD DUP1 PUSH1 0x20 DUP5 ADD MSTORE PUSH2 0x2921 DUP2 PUSH1 0x40 DUP6 ADD PUSH1 0x20 DUP8 ADD PUSH2 0x2EDF JUMP JUMPDEST PUSH1 0x1F ADD PUSH1 0x1F NOT AND SWAP2 SWAP1 SWAP2 ADD PUSH1 0x40 ADD SWAP3 SWAP2 POP POP JUMP JUMPDEST PUSH1 0x20 DUP1 DUP3 MSTORE PUSH1 0x24 SWAP1 DUP3 ADD MSTORE PUSH32 0x436F726E4669204141564520422E2053747261746567793A20416C7265616479 PUSH1 0x40 DUP3 ADD MSTORE PUSH4 0x814D95D PUSH1 0xE2 SHL PUSH1 0x60 DUP3 ADD MSTORE PUSH1 0x80 ADD SWAP1 JUMP JUMPDEST PUSH1 0x20 DUP1 DUP3 MSTORE PUSH1 0x18 SWAP1 DUP3 ADD MSTORE PUSH32 0x436F726E46693A205374616B696E672044697361626C65640000000000000000 PUSH1 0x40 DUP3 ADD MSTORE PUSH1 0x60 ADD SWAP1 JUMP JUMPDEST PUSH1 0x20 DUP1 DUP3 MSTORE PUSH1 0x27 SWAP1 DUP3 ADD MSTORE PUSH32 0x436F726E4669204141564520422E2053747261746567793A2042616C616E6365 PUSH1 0x40 DUP3 ADD MSTORE PUSH7 0x1022B93937B91D PUSH1 0xC9 SHL PUSH1 0x60 DUP3 ADD MSTORE PUSH1 0x80 ADD SWAP1 JUMP JUMPDEST PUSH1 0x20 DUP1 DUP3 MSTORE PUSH1 0x26 SWAP1 DUP3 ADD MSTORE PUSH32 0x4F776E61626C653A206E6577206F776E657220697320746865207A65726F2061 PUSH1 0x40 DUP3 ADD MSTORE PUSH6 0x646472657373 PUSH1 0xD0 SHL PUSH1 0x60 DUP3 ADD MSTORE PUSH1 0x80 ADD SWAP1 JUMP JUMPDEST PUSH1 0x20 DUP1 DUP3 MSTORE PUSH1 0x26 SWAP1 DUP3 ADD MSTORE PUSH32 0x436F726E4669204141564520422E2053747261746567793A20496E76616C6964 PUSH1 0x40 DUP3 ADD MSTORE PUSH6 0x102A37B5B2B7 PUSH1 0xD1 SHL PUSH1 0x60 DUP3 ADD MSTORE PUSH1 0x80 ADD SWAP1 JUMP JUMPDEST PUSH1 0x20 DUP1 DUP3 MSTORE PUSH1 0x23 SWAP1 DUP3 ADD MSTORE PUSH32 0x436F726E466920537472617465677920426173653A204465706F736974204572 PUSH1 0x40 DUP3 ADD MSTORE PUSH3 0x3937B9 PUSH1 0xE9 SHL PUSH1 0x60 DUP3 ADD MSTORE PUSH1 0x80 ADD SWAP1 JUMP JUMPDEST PUSH1 0x20 DUP1 DUP3 MSTORE PUSH1 0x1B SWAP1 DUP3 ADD MSTORE PUSH32 0x536166654D6174683A206164646974696F6E206F766572666C6F770000000000 PUSH1 0x40 DUP3 ADD MSTORE PUSH1 0x60 ADD SWAP1 JUMP JUMPDEST PUSH1 0x20 DUP1 DUP3 MSTORE PUSH1 0x24 SWAP1 DUP3 ADD MSTORE PUSH32 0x436F726E466920537472617465677920426173653A20496E76616C6964204361 PUSH1 0x40 DUP3 ADD MSTORE PUSH4 0x363632B9 PUSH1 0xE1 SHL PUSH1 0x60 DUP3 ADD MSTORE PUSH1 0x80 ADD SWAP1 JUMP JUMPDEST PUSH1 0x20 DUP1 DUP3 MSTORE DUP2 DUP2 ADD MSTORE PUSH32 0x5361666545524332303A206C6F772D6C6576656C2063616C6C206661696C6564 PUSH1 0x40 DUP3 ADD MSTORE PUSH1 0x60 ADD SWAP1 JUMP JUMPDEST PUSH1 0x20 DUP1 DUP3 MSTORE PUSH1 0x2D SWAP1 DUP3 ADD MSTORE PUSH32 0x436F726E4669204141564520422E2053747261746567793A204E6F7468696E67 PUSH1 0x40 DUP3 ADD MSTORE PUSH13 0x20746F20526562616C616E6365 PUSH1 0x98 SHL PUSH1 0x60 DUP3 ADD MSTORE PUSH1 0x80 ADD SWAP1 JUMP JUMPDEST PUSH1 0x20 DUP1 DUP3 MSTORE PUSH1 0x28 SWAP1 DUP3 ADD MSTORE PUSH32 0x436F726E466920537472617465677920426173653A204465706F73697420416D PUSH1 0x40 DUP3 ADD MSTORE PUSH8 0x6F756E7420273027 PUSH1 0xC0 SHL PUSH1 0x60 DUP3 ADD MSTORE PUSH1 0x80 ADD SWAP1 JUMP JUMPDEST PUSH1 0x20 DUP1 DUP3 MSTORE PUSH1 0x29 SWAP1 DUP3 ADD MSTORE PUSH32 0x436F726E466920537472617465677920426173653A205661756C74204F6E6C79 PUSH1 0x40 DUP3 ADD MSTORE PUSH9 0x10233AB731BA34B7B7 PUSH1 0xB9 SHL PUSH1 0x60 DUP3 ADD MSTORE PUSH1 0x80 ADD SWAP1 JUMP JUMPDEST PUSH1 0x20 DUP1 DUP3 MSTORE PUSH1 0x2D SWAP1 DUP3 ADD MSTORE PUSH32 0x436F726E466920537472617465677920426173653A20496E76616C6964205265 PUSH1 0x40 DUP3 ADD MSTORE PUSH13 0x62616C616E636520526174696F PUSH1 0x98 SHL PUSH1 0x60 DUP3 ADD MSTORE PUSH1 0x80 ADD SWAP1 JUMP JUMPDEST PUSH1 0x20 DUP1 DUP3 MSTORE PUSH1 0x21 SWAP1 DUP3 ADD MSTORE PUSH32 0x536166654D6174683A206D756C7469706C69636174696F6E206F766572666C6F PUSH1 0x40 DUP3 ADD MSTORE PUSH1 0x77 PUSH1 0xF8 SHL PUSH1 0x60 DUP3 ADD MSTORE PUSH1 0x80 ADD SWAP1 JUMP JUMPDEST PUSH1 0x20 DUP1 DUP3 MSTORE DUP2 DUP2 ADD MSTORE PUSH32 0x4F776E61626C653A2063616C6C6572206973206E6F7420746865206F776E6572 PUSH1 0x40 DUP3 ADD MSTORE PUSH1 0x60 ADD SWAP1 JUMP JUMPDEST PUSH1 0x20 DUP1 DUP3 MSTORE PUSH1 0x34 SWAP1 DUP3 ADD MSTORE PUSH32 0x436F726E466920537472617465677920426173653A205661756C742057697468 PUSH1 0x40 DUP3 ADD MSTORE PUSH20 0x191C985DC8105B5BDD5B9D08115E18D959591959 PUSH1 0x62 SHL PUSH1 0x60 DUP3 ADD MSTORE PUSH1 0x80 ADD SWAP1 JUMP JUMPDEST PUSH1 0x20 DUP1 DUP3 MSTORE PUSH1 0x30 SWAP1 DUP3 ADD MSTORE PUSH32 0x436F726E466920537472617465677920426173653A2041637469766520566175 PUSH1 0x40 DUP3 ADD MSTORE PUSH16 0x363A1027B7363C90233AB731BA34B7B7 PUSH1 0x81 SHL PUSH1 0x60 DUP3 ADD MSTORE PUSH1 0x80 ADD SWAP1 JUMP JUMPDEST PUSH1 0x20 DUP1 DUP3 MSTORE PUSH1 0x2A SWAP1 DUP3 ADD MSTORE PUSH32 0x5361666545524332303A204552433230206F7065726174696F6E20646964206E PUSH1 0x40 DUP3 ADD MSTORE PUSH10 0x1BDD081CDD58D8D95959 PUSH1 0xB2 SHL PUSH1 0x60 DUP3 ADD MSTORE PUSH1 0x80 ADD SWAP1 JUMP JUMPDEST PUSH1 0x20 DUP1 DUP3 MSTORE PUSH1 0x26 SWAP1 DUP3 ADD MSTORE PUSH32 0x436F726E4669204141564520422E2053747261746567793A2042616C616E6365 PUSH1 0x40 DUP3 ADD MSTORE PUSH6 0x1022B93937B9 PUSH1 0xD1 SHL PUSH1 0x60 DUP3 ADD MSTORE PUSH1 0x80 ADD SWAP1 JUMP JUMPDEST PUSH1 0x20 DUP1 DUP3 MSTORE PUSH1 0x1F SWAP1 DUP3 ADD MSTORE PUSH32 0x5361666545524332303A2063616C6C20746F206E6F6E2D636F6E747261637400 PUSH1 0x40 DUP3 ADD MSTORE PUSH1 0x60 ADD SWAP1 JUMP JUMPDEST PUSH1 0x20 DUP1 DUP3 MSTORE PUSH1 0x26 SWAP1 DUP3 ADD MSTORE PUSH32 0x436F726E4669204141564520422E2053747261746567793A20416C7265616479 PUSH1 0x40 DUP3 ADD MSTORE PUSH6 0x814995CD95D PUSH1 0xD2 SHL PUSH1 0x60 DUP3 ADD MSTORE PUSH1 0x80 ADD SWAP1 JUMP JUMPDEST SWAP1 DUP2 MSTORE PUSH1 0x20 ADD SWAP1 JUMP JUMPDEST SWAP2 DUP3 MSTORE PUSH1 0x20 DUP3 ADD MSTORE PUSH1 0x40 ADD SWAP1 JUMP JUMPDEST PUSH1 0x0 JUMPDEST DUP4 DUP2 LT ISZERO PUSH2 0x2EFA JUMPI DUP2 DUP2 ADD MLOAD DUP4 DUP3 ADD MSTORE PUSH1 0x20 ADD PUSH2 0x2EE2 JUMP JUMPDEST DUP4 DUP2 GT ISZERO PUSH2 0x241C JUMPI POP POP PUSH1 0x0 SWAP2 ADD MSTORE JUMP JUMPDEST PUSH1 0x1 PUSH1 0x1 PUSH1 0xA0 SHL SUB DUP2 AND DUP2 EQ PUSH2 0x791 JUMPI PUSH1 0x0 DUP1 REVERT INVALID LOG2 PUSH5 0x6970667358 0x22 SLT KECCAK256 SDIV 0xF6 0xB4 0xBF LOG1 KECCAK256 DUP1 0xD9 DUP5 0xFB 0x5C 0x5D 0xC7 0xE4 0xB9 0x2B 0xEC DUP15 GT DUP3 0xDC 0x2E 0xA8 0x1F GT PUSH28 0xBC035399C5B64736F6C634300060C00330000000000000000000000 ",
  "sha1": "f7c209bd19fafdf13d2f8f967df7b2251515f736",
  "source": "// SPDX-License-Identifier: MIT\npragma solidity 0.6.12;\n\nimport \"./StrategyBase.sol\";\nimport \"../../interfaces/IAaveStake.sol\";\n\n\npragma experimental ABIEncoderV2;\n\n/**\n* @title Corn Finance AAVE Holding Strategy\n* @author C.W.B.\n*/\ncontract AAVEBalancedStrategy is StrategyBase {\n\n    struct Tokens {\n        address token;\n        address amToken;\n    }\n\n    // AAVE lending pool\n    IAaveStake public constant LendingPool = IAaveStake(0x8dFf5E27EA6b7AC08EbFdf9eB090F32ee9a30fcf);\n\n    // AAVE rewards contract\n    IAaveStake public constant Rewards = IAaveStake(0x357D51124f59836DeD84c8a1730D72B749d8BC23);\n\n    // Whitelisted ERC20 tokens that can be deposited into this contract\n    address[] public tokens;\n\n    // AAVE market tokens associated with 'tokens'\n    address[] public aaveMarketTokens;\n\n    // tokenToAm[ERC20] --> AAVE market token\n    // ex. tokenToAm[USDC] --> amUSDC\n    mapping(address => address) public tokenToAm;\n\n    // Token rewarded from AAVE\n    address public constant rewardToken = 0x0d500B1d8E8eF31E21C99d1Db9A6444d3ADf1270;\n\n    // true: staking enabled; false: staking disabled\n    bool public stake;\n\n\n    // --------------------------------------------------------------------------------\n    // //////////////////////////////////// Events ////////////////////////////////////\n    // --------------------------------------------------------------------------------\n    event TokenAdded(address token, address amToken);\n\n\n    // --------------------------------------------------------------------------------\n    // --------------------------------------------------------------------------------\n    // --------------------------------------------------------------------------------\n\n    /**\n    * @param _controller: Corn Finance Controller contract \n    */\n    constructor( \n        IController _controller\n    ) public StrategyBase(_controller, 0, 1000, 0, 1000, msg.sender, 1, 4) {\n\n        Tokens[13] memory _tokens = [\n            Tokens(0x8f3Cf7ad23Cd3CaDbD9735AFf958023239c6A063, 0x27F8D03b3a2196956ED754baDc28D73be8830A6e), // DAI, amDAI\n            Tokens(0x2791Bca1f2de4661ED88A30C99A7a9449Aa84174, 0x1a13F4Ca1d028320A707D99520AbFefca3998b7F), // USDC, amUSDC\n            Tokens(0xc2132D05D31c914a87C6611C10748AEb04B58e8F, 0x60D55F02A771d515e077c9C2403a1ef324885CeC), // USDT, amUSDT\n            Tokens(0x1BFD67037B42Cf73acF2047067bd4F2C47D9BfD6, 0x5c2ed810328349100A66B82b78a1791B101C9D61), // WBTC, amWBTC\n            Tokens(0x7ceB23fD6bC0adD59E62ac25578270cFf1b9f619, 0x28424507fefb6f7f8E9D3860F56504E4e5f5f390), // WETH, amWETH\n            Tokens(0x0d500B1d8E8eF31E21C99d1Db9A6444d3ADf1270, 0x8dF3aad3a84da6b69A4DA8aeC3eA40d9091B2Ac4), // WMATIC, amWMATIC\n            Tokens(0x85955046DF4668e1DD369D2DE9f3AEB98DD2A369, 0x81fB82aAcB4aBE262fc57F06fD4c1d2De347D7B1), // DPI, amDPI\n            Tokens(0x172370d5Cd63279eFa6d502DAB29171933a610AF, 0x3Df8f92b7E798820ddcCA2EBEA7BAbda2c90c4aD), // CRV, amCRV\n            Tokens(0x53E0bca35eC356BD5ddDFebbD1Fc0fD03FaBad39, 0x0Ca2e42e8c21954af73Bc9af1213E4e81D6a669A), // LINK, amLINK\n            Tokens(0x0b3F868E0BE5597D5DB7fEB59E1CADBb0fdDa50a, 0x21eC9431B5B55c5339Eb1AE7582763087F98FAc2), // SUSHI, amSUSHI\n            Tokens(0x9a71012B13CA4d3D0Cdc72A177DF3ef03b0E76A3, 0xc4195D4060DaEac44058Ed668AA5EfEc50D77ff6), // BAL, amBAL\n            Tokens(0x385Eeac5cB85A38A9a07A70c73e0a3271CfB54A7, 0x080b5BF8f360F624628E0fb961F4e67c9e3c7CF1), // GHST, amGHST\n            Tokens(0xD6DF932A45C0f255f85145f286eA0b292B21C90B, 0x1d2a0E5EC8E5bBDCA5CB219e649B565d8e5c3360)  // AAVE, amAAVE\n        ];\n        for(uint i = 0; i < _tokens.length; i++) {\n            _addToken(_tokens[i].token, _tokens[i].amToken);\n        }\n        stake = true;\n    }\n\n    // --------------------------------------------------------------------------------\n\n    /**\n    * @dev View the ratio of unstaked to staked tokens\n    * @param _token: ERC20 token address\n    * @return (unstaked balance, staked balance) \n    */\n    function balanceRatio(address _token) external view returns (uint256, uint256) {\n        return (\n            IERC20(_token).balanceOf(address(this)),\n            IERC20(tokenToAm[_token]).balanceOf(address(this))\n        );\n    }\n\n    // --------------------------------------------------------------------------------\n\n    /**\n    * @dev Use to add an ERC20 token and its respective AAVE market token. Only add\n    * tokens that can be deposited into AAVE. This function is restricted to only the\n    * owner of this contract.\n    * @param _token: Tokens(ERC20 token address, AAVE market token equivalent)\n    */\n    function addToken(Tokens memory _token) external onlyOwner {\n        _addToken(_token.token, _token.amToken);\n    }\n\n    // --------------------------------------------------------------------------------\n\n    /**\n    * @dev Only currently active vaults can deposits tokens into this holding strategy.\n    * This function can only be called from one of the approved vaults added to the\n    * Controller contract. Tokens are deposited into holding strategies when calling\n    * 'createTrade()' and 'fillOrder()' in the Controller contract.\n    * @param _from: Vault token owner\n    * @param _token: ERC20 token address\n    * @param _amount: Amount of '_token' to deposit\n    */\n    function deposit(address _from, address _token, uint256 _amount) external onlyActiveVault {\n        require(tokenToAm[_token] != address(0), \"CornFi AAVE B. Strategy: Invalid Token\");\n\n        _deposit(_from, _token, _amount);\n    }\n\n    // --------------------------------------------------------------------------------\n\n    /**\n    * @dev Any vault that has deposited tokens into this strategy can withdraw their\n    * tokens even after a vault is deactivated. This function can only be called from \n    * one of the approved vaults added to the Controller contract. Users are only able\n    * to withdraw tokens from a holding strategy through withdrawing their vault token\n    * by calling 'withdraw()' in the Controller contract.\n    * @param _from: Vault token owner\n    * @param _token: ERC20 token address\n    * @param _amount: Amount of '_token' to withdraw\n    */\n    function withdraw(address _from, address _token, uint256 _amount) external onlyVault {\n        require(tokenToAm[_token] != address(0), \"CornFi AAVE B. Strategy: Invalid Token\");\n\n        // Amount unstaked is enough to cover the order\n        // Or staking feature is disabled\n        // This case is ideal as it costs the least amount of gas\n        uint256 balance = IERC20(_token).balanceOf(address(this));\n        if(_amount <= balance || !stake) {\n            // Transfer withdraw amount to the vault\n            _withdrawTransfer(_from, _token, _amount);\n        }\n        // Amount unstaked does not cover the amount needed for the order\n        // Withdraw amount from AAVE and rebalance the staked/unstaked ratio\n        else {\n            _withdrawAndRebalanceToken(_from, _token, _amount);\n        }\n\n        // Sum of staked and unstaked tokens is the total balance\n        uint256 totalBalance = IERC20(tokenToAm[_token]).balanceOf(address(this)).add(\n            IERC20(_token).balanceOf(address(this))\n        );\n\n        // Security check to ensure only the withdraw amount was taken\n        require(\n            totalBalance >= totalDeposits[_token],\n            \"CornFi AAVE B. Strategy: Balance Error\"\n        );  \n    }\n\n    // --------------------------------------------------------------------------------\n\n    /**\n    * OoOoOoOoOoOoOoOoOoOoOoOoOoOoOoOoOoOoOoOoOoOoOoOoOoOoOoOoOoOoOoOoOoOoOoOoOoOoOoOo\n    */\n    function reset() external onlyOwner {\n        require(stake, \"CornFi AAVE B. Strategy: Already Reset\");\n\n        // Disable staking\n        stake = false;\n\n        // Claim AAVE rewards\n        if(Rewards.getRewardsBalance(aaveMarketTokens, address(this)) > 0) {\n            uint256 reward = Rewards.claimRewards(aaveMarketTokens, uint256(-1), feeAddress);\n\n            emit Claim(rewardToken, reward);\n        }\n\n        // Withdraw all tokens from AAVE \n        for(uint i = 0; i < tokens.length; i++) {\n            // Withdraw from AAVE\n            LendingPool.withdraw(tokens[i], uint256(-1), address(this));\n\n            // Rebalance the contract\n            uint256 balance = IERC20(tokens[i]).balanceOf(address(this));\n            if(balance > totalDeposits[tokens[i]]) {\n                uint256 interest = balance.sub(totalDeposits[tokens[i]]);\n                IERC20(tokens[i]).safeTransfer(feeAddress, interest);\n            }\n\n            // Ensure that all deposited tokens are accounted for\n            require(\n                IERC20(tokens[i]).balanceOf(address(this)) >= totalDeposits[tokens[i]], \n                \"CornFi AAVE B. Strategy: Balance Error:\"\n            );\n        }\n    } \n\n    // --------------------------------------------------------------------------------\n\n    /**\n    * OoOoOoOoOoOoOoOoOoOoOoOoOoOoOoOoOoOoOoOoOoOoOoOoOoOoOoOoOoOoOoOoOoOoOoOoOoOoOoOo\n    */\n    function set() external onlyOwner {\n        require(!stake, \"CornFi AAVE B. Strategy: Already Set\");\n\n        // Enable staking\n        stake = true;\n    }\n\n    // --------------------------------------------------------------------------------\n\n    /**\n    * OoOoOoOoOoOoOoOoOoOoOoOoOoOoOoOoOoOoOoOoOoOoOoOoOoOoOoOoOoOoOoOoOoOoOoOoOoOoOoOo\n    */\n    function rebalanceSettings(address _rebalancer, uint256 _rebalancePoints, uint256 _rebalanceBasePoints) external onlyOwner {\n        _rebalanceSettings(_rebalancer, _rebalancePoints, _rebalanceBasePoints);\n    }\n\n    // --------------------------------------------------------------------------------\n\n    /**\n    * OoOoOoOoOoOoOoOoOoOoOoOoOoOoOoOoOoOoOoOoOoOoOoOoOoOoOoOoOoOoOoOoOoOoOoOoOoOoOoOo\n    */\n    function rebalanceToken(address _token) external onlyRebalancer {\n        require(stake, \"CornFi: Staking Disabled\");\n\n        // Deposit all tokens into AAVE\n        uint256 tokenBalance = IERC20(_token).balanceOf(address(this));\n        if(tokenBalance > 0) {\n            IERC20(_token).approve(address(LendingPool), tokenBalance);\n            LendingPool.deposit(_token, tokenBalance, address(this), uint16(0));\n        }\n\n        // Difference between current balance and total deposits is the interest made\n        uint256 interest = IERC20(tokenToAm[_token]).balanceOf(address(this)).sub(totalDeposits[_token]);\n\n        // Calculate amount to unstake\n        uint256 unstakedAmount = totalDeposits[_token].mul(rebalancePoints).div(rebalanceBasePoints);\n\n        // Withdraw the interest made and send to the fee wallet\n        if(interest > 0) {\n            LendingPool.withdraw(_token, interest.add(unstakedAmount), address(this));\n            IERC20(_token).safeTransfer(feeAddress, interest);\n            emit Claim(_token, interest);\n        }\n        // Withdraw unstaked amount from AAVE\n        else if(unstakedAmount > 0) {\n            LendingPool.withdraw(_token, unstakedAmount, address(this));\n        }\n        else {\n            revert(\"CornFi AAVE B. Strategy: Nothing to Rebalance\");\n        }\n\n        // Sum of aave market tokens and tokens is the total balance\n        uint256 totalBalance = IERC20(tokenToAm[_token]).balanceOf(address(this)).add(\n            IERC20(_token).balanceOf(address(this))\n        );\n\n        // Ensure all deposited tokens are accounted for\n        require(\n            totalBalance >= totalDeposits[_token],\n            \"CornFi AAVE B. Strategy: Balance Error\"\n        );  \n    }\n\n    // --------------------------------------------------------------------------------\n\n    /**\n    * OoOoOoOoOoOoOoOoOoOoOoOoOoOoOoOoOoOoOoOoOoOoOoOoOoOoOoOoOoOoOoOoOoOoOoOoOoOoOoOo\n    */\n    function claim() external onlyRebalancer {\n        require(stake, \"CornFi: Staking Disabled\");\n        // Claim Aave WMATIC rewards, if any\n        if(Rewards.getRewardsBalance(aaveMarketTokens, address(this)) > 0) {\n            uint256 reward = Rewards.claimRewards(aaveMarketTokens, uint256(-1), feeAddress);\n\n            emit Claim(rewardToken, reward);\n        }\n    }\n\n    // --------------------------------------------------------------------------------\n\n    /**\n    * @dev Use to add an ERC20 token and its respective AAVE market token. Only add\n    * tokens that can be deposited into AAVE.\n    * @param _token: ERC20 token address\n    * @param _amToken: AAVE market token equivalent of '_token' \n    */\n    function _addToken(address _token, address _amToken) internal {\n        // Map token to AAVE market token\n        tokenToAm[_token] = _amToken;\n\n        // Add the token\n        tokens.push(_token);\n\n        // Add the AAVE market token\n        aaveMarketTokens.push(_amToken);\n\n        emit TokenAdded(_token, _amToken);\n    }\n\n    // --------------------------------------------------------------------------------\n\n    /**\n    * OoOoOoOoOoOoOoOoOoOoOoOoOoOoOoOoOoOoOoOoOoOoOoOoOoOoOoOoOoOoOoOoOoOoOoOoOoOoOoOo\n    */\n    function _withdrawAndRebalanceToken(address _from, address _token, uint256 _amount) internal {\n        // Handles deposit amounts to reflect the withdrawn amount\n        _withdraw(_from, _token, _amount);\n\n        // Deposit all tokens into AAVE\n        uint256 tokenBalance = IERC20(_token).balanceOf(address(this));\n        if(tokenBalance > 0) {\n            IERC20(_token).approve(address(LendingPool), tokenBalance);\n            LendingPool.deposit(_token, tokenBalance, address(this), uint16(0));\n        }\n\n        // Total deposits amount\n        uint256 amBalance = IERC20(tokenToAm[_token]).balanceOf(address(this));\n\n        // Calculate the amount to unstake\n        uint256 unstakedAmount = totalDeposits[_token].mul(rebalancePoints).div(rebalanceBasePoints);\n\n        // Remove tokens from AAVE (includes withdraw amount) to balance the strategy\n        LendingPool.withdraw(_token, unstakedAmount.add(_amount), address(this));\n\n        // Transfer withdraw amount\n        IERC20(_token).safeTransfer(_from, _amount);\n    }\n}",
  "sourcePath": "contracts/strategies/AAVEBalancedStrategy.sol",
  "type": "contract"
}