{
  "abi": [
    {
      "inputs": [
        {
          "internalType": "uint256",
          "name": "_slippagePoints",
          "type": "uint256"
        },
        {
          "internalType": "uint256",
          "name": "_slippageBasePoints",
          "type": "uint256"
        },
        {
          "internalType": "contract IUniswapV2Router02[]",
          "name": "_routers",
          "type": "address[]"
        },
        {
          "internalType": "address",
          "name": "_resolver",
          "type": "address"
        }
      ],
      "stateMutability": "nonpayable",
      "type": "constructor"
    },
    {
      "anonymous": false,
      "inputs": [
        {
          "indexed": true,
          "internalType": "address",
          "name": "_creator",
          "type": "address"
        },
        {
          "indexed": true,
          "internalType": "uint256",
          "name": "_vaultId",
          "type": "uint256"
        },
        {
          "indexed": false,
          "internalType": "uint256",
          "name": "_orderId",
          "type": "uint256"
        }
      ],
      "name": "CreateOrder",
      "type": "event"
    },
    {
      "anonymous": false,
      "inputs": [
        {
          "indexed": true,
          "internalType": "address",
          "name": "_creator",
          "type": "address"
        },
        {
          "indexed": true,
          "internalType": "uint256",
          "name": "_vaultId",
          "type": "uint256"
        },
        {
          "indexed": false,
          "internalType": "uint256",
          "name": "_tokenId",
          "type": "uint256"
        }
      ],
      "name": "CreateTrade",
      "type": "event"
    },
    {
      "anonymous": false,
      "inputs": [
        {
          "indexed": true,
          "internalType": "address",
          "name": "_receiver",
          "type": "address"
        },
        {
          "indexed": false,
          "internalType": "address",
          "name": "_gasToken",
          "type": "address"
        },
        {
          "indexed": false,
          "internalType": "uint256",
          "name": "_amount",
          "type": "uint256"
        }
      ],
      "name": "DepositGas",
      "type": "event"
    },
    {
      "anonymous": false,
      "inputs": [
        {
          "indexed": true,
          "internalType": "address",
          "name": "_orderOwner",
          "type": "address"
        },
        {
          "indexed": true,
          "internalType": "uint256",
          "name": "_vaultId",
          "type": "uint256"
        },
        {
          "indexed": true,
          "internalType": "uint256",
          "name": "_tokenId",
          "type": "uint256"
        },
        {
          "indexed": false,
          "internalType": "uint256",
          "name": "_orderId",
          "type": "uint256"
        }
      ],
      "name": "FillOrder",
      "type": "event"
    },
    {
      "anonymous": false,
      "inputs": [
        {
          "indexed": true,
          "internalType": "address",
          "name": "previousOwner",
          "type": "address"
        },
        {
          "indexed": true,
          "internalType": "address",
          "name": "newOwner",
          "type": "address"
        }
      ],
      "name": "OwnershipTransferred",
      "type": "event"
    },
    {
      "anonymous": false,
      "inputs": [
        {
          "indexed": false,
          "internalType": "address",
          "name": "account",
          "type": "address"
        }
      ],
      "name": "Paused",
      "type": "event"
    },
    {
      "anonymous": false,
      "inputs": [
        {
          "indexed": false,
          "internalType": "address",
          "name": "account",
          "type": "address"
        }
      ],
      "name": "Unpaused",
      "type": "event"
    },
    {
      "anonymous": false,
      "inputs": [
        {
          "indexed": true,
          "internalType": "address",
          "name": "_owner",
          "type": "address"
        },
        {
          "indexed": true,
          "internalType": "uint256",
          "name": "_vaultId",
          "type": "uint256"
        },
        {
          "indexed": true,
          "internalType": "uint256",
          "name": "_tokenId",
          "type": "uint256"
        }
      ],
      "name": "Withdraw",
      "type": "event"
    },
    {
      "inputs": [],
      "name": "ACTIVE_VAULT",
      "outputs": [
        {
          "internalType": "uint8",
          "name": "",
          "type": "uint8"
        }
      ],
      "stateMutability": "view",
      "type": "function"
    },
    {
      "inputs": [],
      "name": "DEACTIVATED_VAULT",
      "outputs": [
        {
          "internalType": "uint8",
          "name": "",
          "type": "uint8"
        }
      ],
      "stateMutability": "view",
      "type": "function"
    },
    {
      "inputs": [],
      "name": "ETH",
      "outputs": [
        {
          "internalType": "address",
          "name": "",
          "type": "address"
        }
      ],
      "stateMutability": "view",
      "type": "function"
    },
    {
      "inputs": [],
      "name": "Fees",
      "outputs": [
        {
          "internalType": "address",
          "name": "",
          "type": "address"
        }
      ],
      "stateMutability": "view",
      "type": "function"
    },
    {
      "inputs": [],
      "name": "GasToken",
      "outputs": [
        {
          "internalType": "address",
          "name": "",
          "type": "address"
        }
      ],
      "stateMutability": "view",
      "type": "function"
    },
    {
      "inputs": [],
      "name": "Gelato",
      "outputs": [
        {
          "internalType": "bool",
          "name": "",
          "type": "bool"
        }
      ],
      "stateMutability": "view",
      "type": "function"
    },
    {
      "inputs": [],
      "name": "NOT_A_VAULT",
      "outputs": [
        {
          "internalType": "uint8",
          "name": "",
          "type": "uint8"
        }
      ],
      "stateMutability": "view",
      "type": "function"
    },
    {
      "inputs": [],
      "name": "PokeMe",
      "outputs": [
        {
          "internalType": "contract IPokeMe",
          "name": "",
          "type": "address"
        }
      ],
      "stateMutability": "view",
      "type": "function"
    },
    {
      "inputs": [],
      "name": "Resolver",
      "outputs": [
        {
          "internalType": "contract IResolver",
          "name": "",
          "type": "address"
        }
      ],
      "stateMutability": "view",
      "type": "function"
    },
    {
      "inputs": [],
      "name": "SLIPPAGE_BASE_POINTS",
      "outputs": [
        {
          "internalType": "uint256",
          "name": "",
          "type": "uint256"
        }
      ],
      "stateMutability": "view",
      "type": "function"
    },
    {
      "inputs": [],
      "name": "SLIPPAGE_POINTS",
      "outputs": [
        {
          "internalType": "uint256",
          "name": "",
          "type": "uint256"
        }
      ],
      "stateMutability": "view",
      "type": "function"
    },
    {
      "inputs": [
        {
          "internalType": "address",
          "name": "",
          "type": "address"
        }
      ],
      "name": "activeOrderFillers",
      "outputs": [
        {
          "internalType": "uint8",
          "name": "",
          "type": "uint8"
        }
      ],
      "stateMutability": "view",
      "type": "function"
    },
    {
      "inputs": [
        {
          "internalType": "contract IUniswapV2Router02",
          "name": "",
          "type": "address"
        }
      ],
      "name": "activeRouters",
      "outputs": [
        {
          "internalType": "bool",
          "name": "",
          "type": "bool"
        }
      ],
      "stateMutability": "view",
      "type": "function"
    },
    {
      "inputs": [
        {
          "internalType": "address",
          "name": "_filler",
          "type": "address"
        }
      ],
      "name": "addOrderFiller",
      "outputs": [],
      "stateMutability": "nonpayable",
      "type": "function"
    },
    {
      "inputs": [
        {
          "internalType": "address",
          "name": "_vault",
          "type": "address"
        }
      ],
      "name": "addVault",
      "outputs": [],
      "stateMutability": "nonpayable",
      "type": "function"
    },
    {
      "inputs": [
        {
          "internalType": "uint256",
          "name": "_vaultId",
          "type": "uint256"
        },
        {
          "internalType": "address",
          "name": "_token",
          "type": "address"
        },
        {
          "internalType": "uint256",
          "name": "_minDeposit",
          "type": "uint256"
        }
      ],
      "name": "changeTokenMinimumDeposit",
      "outputs": [],
      "stateMutability": "nonpayable",
      "type": "function"
    },
    {
      "inputs": [
        {
          "internalType": "uint256",
          "name": "_vaultId",
          "type": "uint256"
        },
        {
          "internalType": "address[]",
          "name": "_tokens",
          "type": "address[]"
        },
        {
          "internalType": "uint256[]",
          "name": "_amounts",
          "type": "uint256[]"
        },
        {
          "internalType": "uint256[]",
          "name": "_times",
          "type": "uint256[]"
        },
        {
          "internalType": "uint256",
          "name": "_maxGas",
          "type": "uint256"
        }
      ],
      "name": "createTrade",
      "outputs": [],
      "stateMutability": "nonpayable",
      "type": "function"
    },
    {
      "inputs": [
        {
          "internalType": "address",
          "name": "_filler",
          "type": "address"
        }
      ],
      "name": "deactivateOrderFiller",
      "outputs": [],
      "stateMutability": "nonpayable",
      "type": "function"
    },
    {
      "inputs": [
        {
          "internalType": "contract IUniswapV2Router02",
          "name": "_router",
          "type": "address"
        }
      ],
      "name": "deactivateRouter",
      "outputs": [],
      "stateMutability": "nonpayable",
      "type": "function"
    },
    {
      "inputs": [
        {
          "internalType": "uint256",
          "name": "_vaultId",
          "type": "uint256"
        },
        {
          "internalType": "address",
          "name": "_token",
          "type": "address"
        }
      ],
      "name": "deactivateToken",
      "outputs": [],
      "stateMutability": "nonpayable",
      "type": "function"
    },
    {
      "inputs": [
        {
          "internalType": "address",
          "name": "_vault",
          "type": "address"
        }
      ],
      "name": "deactivateVault",
      "outputs": [],
      "stateMutability": "nonpayable",
      "type": "function"
    },
    {
      "inputs": [
        {
          "internalType": "address",
          "name": "_receiver",
          "type": "address"
        }
      ],
      "name": "depositGas",
      "outputs": [],
      "stateMutability": "payable",
      "type": "function"
    },
    {
      "inputs": [
        {
          "internalType": "uint256",
          "name": "_vaultId",
          "type": "uint256"
        },
        {
          "internalType": "uint256",
          "name": "_orderId",
          "type": "uint256"
        },
        {
          "internalType": "contract IUniswapV2Router02",
          "name": "_router",
          "type": "address"
        },
        {
          "internalType": "address[]",
          "name": "_path",
          "type": "address[]"
        }
      ],
      "name": "fillOrder",
      "outputs": [],
      "stateMutability": "nonpayable",
      "type": "function"
    },
    {
      "inputs": [
        {
          "internalType": "uint256",
          "name": "_vaultId",
          "type": "uint256"
        },
        {
          "internalType": "uint256",
          "name": "_orderId",
          "type": "uint256"
        },
        {
          "internalType": "contract IUniswapV2Router02",
          "name": "_router",
          "type": "address"
        },
        {
          "internalType": "address[]",
          "name": "_path",
          "type": "address[]"
        }
      ],
      "name": "fillOrderGelato",
      "outputs": [],
      "stateMutability": "nonpayable",
      "type": "function"
    },
    {
      "inputs": [],
      "name": "gelato",
      "outputs": [
        {
          "internalType": "address payable",
          "name": "",
          "type": "address"
        }
      ],
      "stateMutability": "view",
      "type": "function"
    },
    {
      "inputs": [
        {
          "internalType": "contract IPokeMe",
          "name": "_pokeMe",
          "type": "address"
        },
        {
          "internalType": "contract IResolver",
          "name": "_resolver",
          "type": "address"
        },
        {
          "internalType": "bool",
          "name": "_gelato",
          "type": "bool"
        }
      ],
      "name": "gelatoSettings",
      "outputs": [],
      "stateMutability": "nonpayable",
      "type": "function"
    },
    {
      "inputs": [
        {
          "internalType": "uint256",
          "name": "",
          "type": "uint256"
        }
      ],
      "name": "holdingStrategies",
      "outputs": [
        {
          "internalType": "address",
          "name": "",
          "type": "address"
        }
      ],
      "stateMutability": "view",
      "type": "function"
    },
    {
      "inputs": [
        {
          "internalType": "uint256",
          "name": "",
          "type": "uint256"
        }
      ],
      "name": "orderFillers",
      "outputs": [
        {
          "internalType": "address",
          "name": "",
          "type": "address"
        }
      ],
      "stateMutability": "view",
      "type": "function"
    },
    {
      "inputs": [],
      "name": "owner",
      "outputs": [
        {
          "internalType": "address",
          "name": "",
          "type": "address"
        }
      ],
      "stateMutability": "view",
      "type": "function"
    },
    {
      "inputs": [],
      "name": "pause",
      "outputs": [],
      "stateMutability": "nonpayable",
      "type": "function"
    },
    {
      "inputs": [],
      "name": "paused",
      "outputs": [
        {
          "internalType": "bool",
          "name": "",
          "type": "bool"
        }
      ],
      "stateMutability": "view",
      "type": "function"
    },
    {
      "inputs": [
        {
          "internalType": "uint256",
          "name": "_vaultId",
          "type": "uint256"
        }
      ],
      "name": "priceMultiplier",
      "outputs": [
        {
          "internalType": "uint256",
          "name": "",
          "type": "uint256"
        }
      ],
      "stateMutability": "view",
      "type": "function"
    },
    {
      "inputs": [],
      "name": "renounceOwnership",
      "outputs": [],
      "stateMutability": "nonpayable",
      "type": "function"
    },
    {
      "inputs": [
        {
          "internalType": "uint256",
          "name": "",
          "type": "uint256"
        }
      ],
      "name": "routers",
      "outputs": [
        {
          "internalType": "contract IUniswapV2Router02",
          "name": "",
          "type": "address"
        }
      ],
      "stateMutability": "view",
      "type": "function"
    },
    {
      "inputs": [
        {
          "internalType": "bool",
          "name": "_whitelist",
          "type": "bool"
        }
      ],
      "name": "setOrderFillers",
      "outputs": [],
      "stateMutability": "nonpayable",
      "type": "function"
    },
    {
      "inputs": [
        {
          "internalType": "uint256",
          "name": "_slippagePoints",
          "type": "uint256"
        },
        {
          "internalType": "uint256",
          "name": "_slippageBasePoints",
          "type": "uint256"
        }
      ],
      "name": "setSlippage",
      "outputs": [],
      "stateMutability": "nonpayable",
      "type": "function"
    },
    {
      "inputs": [
        {
          "internalType": "uint256",
          "name": "_vaultId",
          "type": "uint256"
        },
        {
          "internalType": "address[]",
          "name": "_tokens",
          "type": "address[]"
        },
        {
          "internalType": "address[]",
          "name": "_strategies",
          "type": "address[]"
        },
        {
          "internalType": "uint256[]",
          "name": "_minDeposits",
          "type": "uint256[]"
        }
      ],
      "name": "setTokenStrategies",
      "outputs": [],
      "stateMutability": "nonpayable",
      "type": "function"
    },
    {
      "inputs": [
        {
          "internalType": "uint256",
          "name": "_vaultId",
          "type": "uint256"
        },
        {
          "internalType": "address",
          "name": "_token",
          "type": "address"
        },
        {
          "internalType": "address",
          "name": "_strategy",
          "type": "address"
        },
        {
          "internalType": "uint256",
          "name": "_minDeposit",
          "type": "uint256"
        }
      ],
      "name": "setTokenStrategy",
      "outputs": [],
      "stateMutability": "nonpayable",
      "type": "function"
    },
    {
      "inputs": [
        {
          "internalType": "uint256",
          "name": "_vaultId",
          "type": "uint256"
        },
        {
          "internalType": "string",
          "name": "_URI",
          "type": "string"
        }
      ],
      "name": "setVaultURI",
      "outputs": [],
      "stateMutability": "nonpayable",
      "type": "function"
    },
    {
      "inputs": [
        {
          "internalType": "uint256",
          "name": "_amountIn",
          "type": "uint256"
        }
      ],
      "name": "slippage",
      "outputs": [
        {
          "internalType": "uint256",
          "name": "",
          "type": "uint256"
        }
      ],
      "stateMutability": "view",
      "type": "function"
    },
    {
      "inputs": [
        {
          "internalType": "uint256",
          "name": "",
          "type": "uint256"
        },
        {
          "internalType": "uint256",
          "name": "",
          "type": "uint256"
        }
      ],
      "name": "taskIds",
      "outputs": [
        {
          "internalType": "bytes32",
          "name": "",
          "type": "bytes32"
        }
      ],
      "stateMutability": "view",
      "type": "function"
    },
    {
      "inputs": [
        {
          "internalType": "uint256",
          "name": "",
          "type": "uint256"
        },
        {
          "internalType": "uint256",
          "name": "",
          "type": "uint256"
        }
      ],
      "name": "tokenMaxGas",
      "outputs": [
        {
          "internalType": "uint256",
          "name": "",
          "type": "uint256"
        }
      ],
      "stateMutability": "view",
      "type": "function"
    },
    {
      "inputs": [
        {
          "internalType": "address",
          "name": "newOwner",
          "type": "address"
        }
      ],
      "name": "transferOwnership",
      "outputs": [],
      "stateMutability": "nonpayable",
      "type": "function"
    },
    {
      "inputs": [],
      "name": "unpause",
      "outputs": [],
      "stateMutability": "nonpayable",
      "type": "function"
    },
    {
      "inputs": [
        {
          "internalType": "address",
          "name": "",
          "type": "address"
        }
      ],
      "name": "userGasAmounts",
      "outputs": [
        {
          "internalType": "uint256",
          "name": "",
          "type": "uint256"
        }
      ],
      "stateMutability": "view",
      "type": "function"
    },
    {
      "inputs": [
        {
          "internalType": "address",
          "name": "_vault",
          "type": "address"
        }
      ],
      "name": "vault",
      "outputs": [
        {
          "internalType": "uint8",
          "name": "",
          "type": "uint8"
        }
      ],
      "stateMutability": "view",
      "type": "function"
    },
    {
      "inputs": [
        {
          "internalType": "address",
          "name": "_vault",
          "type": "address"
        }
      ],
      "name": "vaultId",
      "outputs": [
        {
          "internalType": "uint256",
          "name": "",
          "type": "uint256"
        }
      ],
      "stateMutability": "view",
      "type": "function"
    },
    {
      "inputs": [
        {
          "internalType": "uint256",
          "name": "",
          "type": "uint256"
        }
      ],
      "name": "vaults",
      "outputs": [
        {
          "internalType": "contract IVaultBase",
          "name": "",
          "type": "address"
        }
      ],
      "stateMutability": "view",
      "type": "function"
    },
    {
      "inputs": [],
      "name": "vaultsLength",
      "outputs": [
        {
          "internalType": "uint256",
          "name": "",
          "type": "uint256"
        }
      ],
      "stateMutability": "view",
      "type": "function"
    },
    {
      "inputs": [
        {
          "internalType": "uint256",
          "name": "_vaultId",
          "type": "uint256"
        },
        {
          "internalType": "uint256",
          "name": "_tokenId",
          "type": "uint256"
        }
      ],
      "name": "viewOpenOrdersByToken",
      "outputs": [
        {
          "components": [
            {
              "internalType": "uint256",
              "name": "tokenId",
              "type": "uint256"
            },
            {
              "internalType": "uint256",
              "name": "tradeId",
              "type": "uint256"
            },
            {
              "internalType": "uint256",
              "name": "orderId",
              "type": "uint256"
            },
            {
              "internalType": "uint256",
              "name": "timestamp",
              "type": "uint256"
            },
            {
              "internalType": "address[2]",
              "name": "tokens",
              "type": "address[2]"
            },
            {
              "internalType": "uint256[3]",
              "name": "amounts",
              "type": "uint256[3]"
            },
            {
              "internalType": "uint256[]",
              "name": "times",
              "type": "uint256[]"
            }
          ],
          "internalType": "struct IVaultBase.Order[]",
          "name": "",
          "type": "tuple[]"
        }
      ],
      "stateMutability": "view",
      "type": "function"
    },
    {
      "inputs": [
        {
          "internalType": "uint256",
          "name": "_vaultId",
          "type": "uint256"
        },
        {
          "internalType": "uint256",
          "name": "_orderId",
          "type": "uint256"
        }
      ],
      "name": "viewOrder",
      "outputs": [
        {
          "components": [
            {
              "internalType": "uint256",
              "name": "tokenId",
              "type": "uint256"
            },
            {
              "internalType": "uint256",
              "name": "tradeId",
              "type": "uint256"
            },
            {
              "internalType": "uint256",
              "name": "orderId",
              "type": "uint256"
            },
            {
              "internalType": "uint256",
              "name": "timestamp",
              "type": "uint256"
            },
            {
              "internalType": "address[2]",
              "name": "tokens",
              "type": "address[2]"
            },
            {
              "internalType": "uint256[3]",
              "name": "amounts",
              "type": "uint256[3]"
            },
            {
              "internalType": "uint256[]",
              "name": "times",
              "type": "uint256[]"
            }
          ],
          "internalType": "struct IVaultBase.Order",
          "name": "",
          "type": "tuple"
        }
      ],
      "stateMutability": "view",
      "type": "function"
    },
    {
      "inputs": [
        {
          "internalType": "uint256",
          "name": "_vaultId",
          "type": "uint256"
        },
        {
          "internalType": "uint256[]",
          "name": "_orderIds",
          "type": "uint256[]"
        }
      ],
      "name": "viewOrders",
      "outputs": [
        {
          "components": [
            {
              "internalType": "uint256",
              "name": "tokenId",
              "type": "uint256"
            },
            {
              "internalType": "uint256",
              "name": "tradeId",
              "type": "uint256"
            },
            {
              "internalType": "uint256",
              "name": "orderId",
              "type": "uint256"
            },
            {
              "internalType": "uint256",
              "name": "timestamp",
              "type": "uint256"
            },
            {
              "internalType": "address[2]",
              "name": "tokens",
              "type": "address[2]"
            },
            {
              "internalType": "uint256[3]",
              "name": "amounts",
              "type": "uint256[3]"
            },
            {
              "internalType": "uint256[]",
              "name": "times",
              "type": "uint256[]"
            }
          ],
          "internalType": "struct IVaultBase.Order[]",
          "name": "",
          "type": "tuple[]"
        }
      ],
      "stateMutability": "view",
      "type": "function"
    },
    {
      "inputs": [],
      "name": "whitelistOrderFillers",
      "outputs": [
        {
          "internalType": "bool",
          "name": "",
          "type": "bool"
        }
      ],
      "stateMutability": "view",
      "type": "function"
    },
    {
      "inputs": [
        {
          "internalType": "uint256",
          "name": "_vaultId",
          "type": "uint256"
        },
        {
          "internalType": "uint256",
          "name": "_tokenId",
          "type": "uint256"
        }
      ],
      "name": "withdraw",
      "outputs": [],
      "stateMutability": "nonpayable",
      "type": "function"
    },
    {
      "inputs": [],
      "name": "withdrawGas",
      "outputs": [],
      "stateMutability": "nonpayable",
      "type": "function"
    }
  ],
  "bytecode": "6080604052600180546001600160a01b031990811673527a819db1eb0e34426297b03bae11f2f8b3a19e179091556003805490911673eeeeeeeeeeeeeeeeeeeeeeeeeeeeeeeeeeeeeeee1790553480156200005957600080fd5b5060405162004c1338038062004c138339810160408190526200007c9162000340565b60006200008862000180565b600080546001600160a01b0319166001600160a01b0383169081178255604051929350917f8be0079c531659141344cd1fd0a4f28419497f9722a3daafe3b4186f6b6457e0908290a3506000805461ffff60a01b1916600160a81b179055620000f2848462000184565b6003805460ff60a01b1916600160a01b179055600280546001600160a01b0383166001600160a01b031990911617905560005b82518110156200015d57620001548382815181106200014057fe5b6020026020010151620001d560201b60201c565b60010162000125565b50600e805460ff1916600117905562000176336200023c565b505050506200052a565b3390565b80620001a0603284620002df60201b620031931790919060201c565b1115620001ca5760405162461bcd60e51b8152600401620001c19062000413565b60405180910390fd5b600c91909155600d55565b6007805460018181019092557fa66cc928b5edb82af9bd49922954155ab7b0942694bea4ce44661d9a8736c6880180546001600160a01b039093166001600160a01b031990931683179055600091825260086020526040909120805460ff19169091179055565b6001600160a01b03811660009081526010602052604090205460ff1615620002785760405162461bcd60e51b8152600401620001c1906200049c565b600f805460018181019092557f8d1108e10bcb7c27dddfc02ed9d693a074039d026cf4ea4240b40f7d581ac8020180546001600160a01b039093166001600160a01b031990931683179055600091825260106020526040909120805460ff19169091179055565b600082620002f05750600062000322565b82820282848281620002fe57fe5b04146200031f5760405162461bcd60e51b8152600401620001c1906200045b565b90505b92915050565b80516001600160a01b03811681146200032257600080fd5b6000806000806080858703121562000356578384fd5b845160208087015160408801519296509450906001600160401b038111156200037d578384fd5b8601601f810188136200038e578384fd5b8051620003a56200039f826200050a565b620004e3565b81815283810190838501858402850186018c1015620003c2578788fd5b8794505b83851015620003f057620003db8c8262000328565b835260019490940193918501918501620003c6565b50809650505050505062000408866060870162000328565b905092959194509250565b60208082526028908201527f436f726e466920436f6e74726f6c6c65723a204d617820536c69707061676520604082015267115e18d95959195960c21b606082015260800190565b60208082526021908201527f536166654d6174683a206d756c7469706c69636174696f6e206f766572666c6f6040820152607760f81b606082015260800190565b60208082526027908201527f436f726e466920436f6e74726f6c6c65723a20496e76616c6964204f72646572604082015266102334b63632b960c91b606082015260800190565b6040518181016001600160401b03811182821017156200050257600080fd5b604052919050565b60006001600160401b0382111562000520578081fd5b5060209081020190565b6146d9806200053a6000396000f3fe6080604052600436106103505760003560e01c80638322fff2116101c6578063c05d6c41116100f7578063e3f5449911610095578063eeb8b9341161006f578063eeb8b93414610925578063f2fde38b14610945578063f815c03d14610965578063fd6766f61461098557610350565b8063e3f54499146108db578063e9fcd6ce146108f0578063eb03c98c1461090557610350565b8063cb306f02116100d1578063cb306f021461085b578063d8e093161461087b578063dc5168761461089b578063e20371e3146108bb57610350565b8063c05d6c4114610808578063c123cb4414610828578063c71a6d061461083b57610350565b80639b2aa77211610164578063aee164071161013e578063aee164071461079e578063b86e3dc9146107b3578063bc9ef3e0146107d3578063bcb5703d146107f357610350565b80639b2aa7721461073e578063aa9f62171461075e578063ab27feea1461077e57610350565b80638d3a513e116101a05780638d3a513e146106d45780638da5cb5b146106f457806396582cb5146107095780639670e0de1461071e57610350565b80638322fff21461068a5780638456cb591461069f5780638c64ea4a146106b457610350565b8063441a3e70116102a05780635c975abb1161023e578063715018a611610218578063715018a6146106205780637726a73c146106355780637c04d11f1461065557806382af54c91461067557610350565b80635c975abb146105d6578063659755f9146105eb5780636840339a1461060057610350565b8063548a99ad1161027a578063548a99ad1461055f57806355eaf8f11461057f5780635711be1214610594578063573ea575146105c157610350565b8063441a3e70146104fd5780634e9c11181461051d5780634fec8c341461053d57610350565b806324e702ed1161030d5780633aaa36e6116102e75780633aaa36e6146104935780633b94a42b146104a85780633f4ba83a146104c8578063408198c5146104dd57610350565b806324e702ed14610424578063256b5a02146104465780632a2925c21461046657610350565b8063043b99cc146103555780630445ea4b1461038057806312320bca146103ad5780631261795d146103cf5780631ac36471146103e4578063230f9b9d14610404575b600080fd5b34801561036157600080fd5b5061036a6109a5565b6040516103779190613f00565b60405180910390f35b34801561038c57600080fd5b506103a061039b366004613860565b6109b4565b60405161037791906140a1565b3480156103b957600080fd5b506103cd6103c8366004613d2c565b6109c6565b005b3480156103db57600080fd5b506103cd61113e565b3480156103f057600080fd5b506103cd6103ff366004613860565b61123d565b34801561041057600080fd5b506103cd61041f366004613860565b611293565b34801561043057600080fd5b50610439611327565b604051610377919061462d565b34801561045257600080fd5b506103cd610461366004613860565b61132c565b34801561047257600080fd5b50610486610481366004613c3d565b6113ff565b6040516103779190614036565b34801561049f57600080fd5b5061036a611549565b3480156104b457600080fd5b506104866104c3366004613d0b565b611561565b3480156104d457600080fd5b506103cd61177e565b3480156104e957600080fd5b506104396104f8366004613860565b6117bd565b34801561050957600080fd5b506103cd610518366004613d0b565b6117d2565b34801561052957600080fd5b5061036a610538366004613a32565b6119cd565b34801561054957600080fd5b506105526119f4565b6040516103779190614096565b34801561056b57600080fd5b506103cd61057a366004613ae4565b611a04565b34801561058b57600080fd5b50610439611ab8565b3480156105a057600080fd5b506105b46105af366004613d0b565b611abd565b60405161037791906145e0565b3480156105cd57600080fd5b5061036a611b66565b3480156105e257600080fd5b50610552611b7e565b3480156105f757600080fd5b5061036a611b8e565b34801561060c57600080fd5b5061036a61061b366004613a32565b611b9d565b34801561062c57600080fd5b506103cd611baa565b34801561064157600080fd5b506103a0610650366004613860565b611c29565b34801561066157600080fd5b506103cd610670366004613c77565b611c44565b34801561068157600080fd5b506103a0611cf5565b34801561069657600080fd5b5061036a611cfb565b3480156106ab57600080fd5b506103cd611d13565b3480156106c057600080fd5b5061036a6106cf366004613a32565b611d50565b3480156106e057600080fd5b506103a06106ef366004613d0b565b611d5d565b34801561070057600080fd5b5061036a611d7a565b34801561071557600080fd5b50610552611d89565b34801561072a57600080fd5b506103a0610739366004613a32565b611d92565b34801561074a57600080fd5b506103cd610759366004613b1b565b611dbf565b34801561076a57600080fd5b506103cd610779366004613860565b611fcd565b34801561078a57600080fd5b506103cd610799366004613982565b612026565b3480156107aa57600080fd5b506103a061206e565b3480156107bf57600080fd5b506103cd6107ce366004613ba8565b612074565b3480156107df57600080fd5b506103cd6107ee366004613d0b565b6124d0565b3480156107ff57600080fd5b50610439612513565b34801561081457600080fd5b50610552610823366004613860565b612518565b6103cd610836366004613860565b61252d565b34801561084757600080fd5b506103cd610856366004613d2c565b612626565b34801561086757600080fd5b506103a0610876366004613d0b565b612d76565b34801561088757600080fd5b506103cd6108963660046139b6565b612d93565b3480156108a757600080fd5b506103cd6108b6366004613a9d565b612e16565b3480156108c757600080fd5b506103cd6108d6366004613a4a565b612f51565b3480156108e757600080fd5b5061036a612fcc565b3480156108fc57600080fd5b506103a0612fdb565b34801561091157600080fd5b5061036a610920366004613a32565b612fe1565b34801561093157600080fd5b506103a0610940366004613a32565b612fee565b34801561095157600080fd5b506103cd610960366004613860565b61307e565b34801561097157600080fd5b50610439610980366004613860565b613134565b34801561099157600080fd5b506103cd6109a0366004613860565b613152565b6003546001600160a01b031681565b60066020526000908152604090205481565b600054600160a01b900460ff16156109f95760405162461bcd60e51b81526004016109f090614329565b60405180910390fd5b600e5460ff1615610a36573360009081526010602052604090205460ff16600114610a365760405162461bcd60e51b81526004016109f090614446565b600054600160a81b900460ff16610a5f5760405162461bcd60e51b81526004016109f09061451b565b6000805460ff60a81b191681555a6001600160a01b03841660009081526008602052604090205490915060ff16610aa85760405162461bcd60e51b81526004016109f090614130565b610ab061355f565b610aba8686611abd565b60008781526005602090815260408083208451845290915290205490915015610b17576000868152600560209081526040808320845184529091529020543a1115610b175760405162461bcd60e51b81526004016109f0906140eb565b60608060098881548110610b2757fe5b600091825260209091200154604051632ca5159f60e11b81526001600160a01b039091169063594a2b3e90610b669033908b908b908b90600401613f82565b600060405180830381600087803b158015610b8057600080fd5b505af1158015610b94573d6000803e3d6000fd5b505050506040513d6000823e601f3d908101601f19168201604052610bbc9190810190613898565b9150915060005b8151811015610ca657600089815260046020526040812083518290859085908110610bea57fe5b602002602001015181526020019081526020016000205414610c9e5760015460008a815260046020526040812084516001600160a01b039093169263ee8ca3b59290869086908110610c3857fe5b60200260200101518152602001908152602001600020546040518263ffffffff1660e01b8152600401610c6b91906140a1565b600060405180830381600087803b158015610c8557600080fd5b505af1158015610c99573d6000803e3d6000fd5b505050505b600101610bc3565b50600060098981548110610cb657fe5b60009182526020909120015484516040516331a9108f60e11b81526001600160a01b0390921691636352211e91610cef916004016140a1565b60206040518083038186803b158015610d0757600080fd5b505afa158015610d1b573d6000803e3d6000fd5b505050506040513d601f19601f82011682018060405250810190610d3f919061387c565b9050836000015189826001600160a01b03167f37aacca185d8a700a40142541d808e10bc61ca82eb929cb3df05de903a64dc848b604051610d8091906140a1565b60405180910390a460005b835181101561100857600354600160a01b900460ff168015610dc55750838181518110610db457fe5b602002602001015160400151600014155b156110005789826001600160a01b03167faf1b9133e30ada3fee6cb47a46b80b2dfee808dc5bc919f712beb9ee33b465d6868481518110610e0257fe5b602002602001015160400151604051610e1b91906140a1565b60405180910390a3600160009054906101000a90046001600160a01b03166001600160a01b031663b9f45adb3063c71a6d0660e01b600260009054906101000a90046001600160a01b031663e34ca65d60e01b8f8a8881518110610e7b57fe5b6020026020010151604001518b8981518110610e9357fe5b602002602001015160800151600060028110610eab57fe5b60200201518c8a81518110610ebc57fe5b602002602001015160800151600160028110610ed457fe5b60200201518d8b81518110610ee557fe5b602002602001015160a00151600060038110610efd57fe5b6020020151604051602401610f16959493929190614601565b60408051601f198184030181529181526020820180516001600160e01b03166001600160e01b0319948516179052600354905160e088901b9093168352610f6e959493926001600160a01b0390911690600401613fe3565b602060405180830381600087803b158015610f8857600080fd5b505af1158015610f9c573d6000803e3d6000fd5b505050506040513d601f19601f82011682018060405250810190610fc0919061399e565b600460008c81526020019081526020016000206000868481518110610fe157fe5b6020026020010151604001518152602001908152602001600020819055505b600101610d8b565b50600061102261753061101c5a89906131cd565b9061320f565b90506000611030823a613193565b6001600160a01b03841660009081526006602052604090205490915081111561106b5760405162461bcd60e51b81526004016109f090614593565b6001600160a01b03831660009081526006602052604090205461108e90826131cd565b6001600160a01b038416600090815260066020526040808220929092559051339083906110ba90613efd565b60006040518083038185875af1925050503d80600081146110f7576040519150601f19603f3d011682016040523d82523d6000602084013e6110fc565b606091505b505090508061111d5760405162461bcd60e51b81526004016109f090614400565b50506000805460ff60a81b1916600160a81b17905550505050505050505050565b600054600160a81b900460ff166111675760405162461bcd60e51b81526004016109f09061451b565b6000805460ff60a81b191681553381526006602052604090205461119d5760405162461bcd60e51b81526004016109f090614160565b33600081815260066020526040808220805490839055905190929083906111c390613efd565b60006040518083038185875af1925050503d8060008114611200576040519150601f19603f3d011682016040523d82523d6000602084013e611205565b606091505b50509050806112265760405162461bcd60e51b81526004016109f090614400565b50506000805460ff60a81b1916600160a81b179055565b611245613234565b6000546001600160a01b039081169116146112725760405162461bcd60e51b81526004016109f0906143cb565b6001600160a01b03166000908152600860205260409020805460ff19169055565b61129b613234565b6000546001600160a01b039081169116146112c85760405162461bcd60e51b81526004016109f0906143cb565b6001600160a01b03811660009081526010602052604090205460ff166001146113035760405162461bcd60e51b81526004016109f0906144cf565b6001600160a01b03166000908152601060205260409020805460ff19166002179055565b600081565b611334613234565b6000546001600160a01b039081169116146113615760405162461bcd60e51b81526004016109f0906143cb565b6001600160a01b0381166000908152600a602052604090205460ff161561138757600080fd5b600980546001600160a01b039092166000818152600b6020908152604080832086905560018087019095557f6e1540171b6c0c960b71a7020d9f60077f6af931a8bbf590da0223dacf75c7af90950180546001600160a01b03191684179055918152600a90915291909120805460ff19169091179055565b606060006009848154811061141057fe5b60009182526020909120015483516001600160a01b0390911691506060906001600160401b038111801561144357600080fd5b5060405190808252806020026020018201604052801561147d57816020015b61146a61355f565b8152602001906001900390816114625790505b50905060005b845181101561153e57826001600160a01b03166321603f438683815181106114a757fe5b60200260200101516040518263ffffffff1660e01b81526004016114cb91906140a1565b60006040518083038186803b1580156114e357600080fd5b505afa1580156114f7573d6000803e3d6000fd5b505050506040513d6000823e601f3d908101601f1916820160405261151f9190810190613a00565b82828151811061152b57fe5b6020908102919091010152600101611483565b509150505b92915050565b7322b20054bbd6dc5c23d7c7595e092ca728a00c3281565b606060006009848154811061157257fe5b6000918252602082200154604051631bf744db60e01b81526001600160a01b0390911692508290631bf744db906115ad9087906004016140a1565b60206040518083038186803b1580156115c557600080fd5b505afa1580156115d9573d6000803e3d6000fd5b505050506040513d601f19601f820116820180604052508101906115fd919061399e565b90506060816001600160401b038111801561161757600080fd5b5060405190808252806020026020018201604052801561165157816020015b61163e61355f565b8152602001906001900390816116365790505b50905060005b828110156117745760405163915b985960e01b81526001600160a01b038516906321603f4390829063915b985990611695908b9087906004016145f3565b60206040518083038186803b1580156116ad57600080fd5b505afa1580156116c1573d6000803e3d6000fd5b505050506040513d601f19601f820116820180604052508101906116e5919061399e565b6040518263ffffffff1660e01b815260040161170191906140a1565b60006040518083038186803b15801561171957600080fd5b505afa15801561172d573d6000803e3d6000fd5b505050506040513d6000823e601f3d908101601f191682016040526117559190810190613a00565b82828151811061176157fe5b6020908102919091010152600101611657565b5095945050505050565b611786613234565b6000546001600160a01b039081169116146117b35760405162461bcd60e51b81526004016109f0906143cb565b6117bb613238565b565b60106020526000908152604090205460ff1681565b600054600160a81b900460ff166117fb5760405162461bcd60e51b81526004016109f09061451b565b6000805460ff60a81b1916905560606118148383611561565b905060005b815181101561190b5760046000858152602001908152602001600020600083838151811061184357fe5b6020026020010151604001518152602001908152602001600020546000801b1461190357600154600085815260046020526040812084516001600160a01b039093169263ee8ca3b5929086908690811061189957fe5b6020026020010151604001518152602001908152602001600020546040518263ffffffff1660e01b81526004016118d091906140a1565b600060405180830381600087803b1580156118ea57600080fd5b505af11580156118fe573d6000803e3d6000fd5b505050505b600101611819565b506009838154811061191957fe5b60009182526020909120015460405163f3fef3a360e01b81526001600160a01b039091169063f3fef3a3906119549033908690600401613f69565b600060405180830381600087803b15801561196e57600080fd5b505af1158015611982573d6000803e3d6000fd5b505060405184925085915033907ff279e6a1f5e320cca91135676d9cb6e44ca8a08c0b88342bcdb1144f6511b56890600090a450506000805460ff60a81b1916600160a81b17905550565b600781815481106119da57fe5b6000918252602090912001546001600160a01b0316905081565b600354600160a01b900460ff1681565b611a0c613234565b6000546001600160a01b03908116911614611a395760405162461bcd60e51b81526004016109f0906143cb565b60098381548110611a4657fe5b60009182526020909120015460405163575272dd60e11b81526001600160a01b039091169063aea4e5ba90611a819085908590600401613f69565b600060405180830381600087803b158015611a9b57600080fd5b505af1158015611aaf573d6000803e3d6000fd5b50505050505050565b600281565b611ac561355f565b60098381548110611ad257fe5b6000918252602090912001546040516321603f4360e01b81526001600160a01b03909116906321603f4390611b0b9085906004016140a1565b60006040518083038186803b158015611b2357600080fd5b505afa158015611b37573d6000803e3d6000fd5b505050506040513d6000823e601f3d908101601f19168201604052611b5f9190810190613a00565b9392505050565b737598e84b2e114ab62cab288ce5f7d5f6bad35bba81565b600054600160a01b900460ff1690565b6002546001600160a01b031681565b601181815481106119da57fe5b611bb2613234565b6000546001600160a01b03908116911614611bdf5760405162461bcd60e51b81526004016109f0906143cb565b600080546040516001600160a01b03909116907f8be0079c531659141344cd1fd0a4f28419497f9722a3daafe3b4186f6b6457e0908390a3600080546001600160a01b0319169055565b6001600160a01b03166000908152600b602052604090205490565b611c4c613234565b6000546001600160a01b03908116911614611c795760405162461bcd60e51b81526004016109f0906143cb565b60098281548110611c8657fe5b6000918252602090912001546040516355f804b360e01b81526001600160a01b03909116906355f804b390611cbf9084906004016140aa565b600060405180830381600087803b158015611cd957600080fd5b505af1158015611ced573d6000803e3d6000fd5b505050505050565b60095490565b73eeeeeeeeeeeeeeeeeeeeeeeeeeeeeeeeeeeeeeee81565b611d1b613234565b6000546001600160a01b03908116911614611d485760405162461bcd60e51b81526004016109f0906143cb565b6117bb6132ae565b600981815481106119da57fe5b600460209081526000928352604080842090915290825290205481565b6000546001600160a01b031690565b600e5460ff1681565b6000611543611db8600d54611db2600c548661319390919063ffffffff16565b90613314565b83906131cd565b611dc7613234565b6000546001600160a01b03908116911614611df45760405162461bcd60e51b81526004016109f0906143cb565b81518351148015611e06575080518351145b611e225760405162461bcd60e51b81526004016109f090614239565b60005b8351811015611fc65760098581548110611e3b57fe5b60009182526020909120015484516001600160a01b03909116906390a83dc290869084908110611e6757fe5b6020026020010151858481518110611e7b57fe5b6020026020010151858581518110611e8f57fe5b60200260200101516040518463ffffffff1660e01b8152600401611eb593929190613fbf565b600060405180830381600087803b158015611ecf57600080fd5b505af1158015611ee3573d6000803e3d6000fd5b5050505060126000848381518110611ef757fe5b6020908102919091018101516001600160a01b031682528101919091526040016000205460ff16611fbe576011838281518110611f3057fe5b60209081029190910181015182546001808201855560009485529284200180546001600160a01b0319166001600160a01b0390921691909117905584519091601291869085908110611f7e57fe5b60200260200101516001600160a01b03166001600160a01b0316815260200190815260200160002060006101000a81548160ff0219169083151502179055505b600101611e25565b5050505050565b611fd5613234565b6000546001600160a01b039081169116146120025760405162461bcd60e51b81526004016109f0906143cb565b6001600160a01b03166000908152600a60205260409020805460ff19166002179055565b61202e613234565b6000546001600160a01b0390811691161461205b5760405162461bcd60e51b81526004016109f0906143cb565b600e805460ff1916911515919091179055565b600c5481565b600054600160a01b900460ff161561209e5760405162461bcd60e51b81526004016109f090614329565b600054600160a81b900460ff166120c75760405162461bcd60e51b81526004016109f09061451b565b6000805460ff60a81b191690556009805460019161210391889081106120e957fe5b6000918252602090912001546001600160a01b0316613134565b60ff16146121235760405162461bcd60e51b81526004016109f090614552565b60606009868154811061213257fe5b60009182526020909120015460405163dbb0371160e01b81526001600160a01b039091169063dbb0371190612171903390899089908990600401613f14565b600060405180830381600087803b15801561218b57600080fd5b505af115801561219f573d6000803e3d6000fd5b505050506040513d6000823e601f3d908101601f191682016040526121c79190810190613948565b905060606121d587836113ff565b905086336001600160a01b03167f8f64ca6a175f84df6403fba2601d4c5c734ee77f375196788648aedc05ff57d58360008151811061221057fe5b60200260200101516000015160405161222991906140a1565b60405180910390a3600087815260056020526040812082518592908490829061224e57fe5b60209081029190910181015151825281019190915260400160002055600354600160a01b900460ff16156124b45760005b81518110156124b25787336001600160a01b03167faf1b9133e30ada3fee6cb47a46b80b2dfee808dc5bc919f712beb9ee33b465d68484815181106122c057fe5b6020026020010151604001516040516122d991906140a1565b60405180910390a360015460025483516001600160a01b039283169263b9f45adb92309263638d368360e11b929091169063e34ca65d60e01b908e9089908990811061232157fe5b60200260200101516040015189898151811061233957fe5b60200260200101516080015160006002811061235157fe5b60200201518a8a8151811061236257fe5b60200260200101516080015160016002811061237a57fe5b60200201518b8b8151811061238b57fe5b602002602001015160a001516000600381106123a357fe5b60200201516040516024016123bc959493929190614601565b60408051601f198184030181529181526020820180516001600160e01b03166001600160e01b0319948516179052600354905160e088901b9093168352612414959493926001600160a01b0390911690600401613fe3565b602060405180830381600087803b15801561242e57600080fd5b505af1158015612442573d6000803e3d6000fd5b505050506040513d601f19601f82011682018060405250810190612466919061399e565b600460008a8152602001908152602001600020600084848151811061248757fe5b602002602001015160400151815260200190815260200160002081905550808060010191505061227f565b505b50506000805460ff60a81b1916600160a81b1790555050505050565b6124d8613234565b6000546001600160a01b039081169116146125055760405162461bcd60e51b81526004016109f0906143cb565b61250f8282613356565b5050565b600181565b60086020526000908152604090205460ff1681565b600054600160a81b900460ff166125565760405162461bcd60e51b81526004016109f09061451b565b6000805460ff60a81b191690819055600160a01b900460ff161561258c5760405162461bcd60e51b81526004016109f090614329565b6001600160a01b03811660009081526006602052604090205434906125b1908261320f565b6001600160a01b038084166000818152600660205260409081902093909355600354925190927fd0efd3e06609faf7821ca1899afe6f2ac4ce1514e0935434607ca0e80a81d0f292612607929116908590613f69565b60405180910390a250506000805460ff60a81b1916600160a81b179055565b600054600160a01b900460ff16156126505760405162461bcd60e51b81526004016109f090614329565b6001546001600160a01b0316331461267a5760405162461bcd60e51b81526004016109f0906141f2565b600354600160a01b900460ff166126a35760405162461bcd60e51b81526004016109f09061448d565b600054600160a81b900460ff166126cc5760405162461bcd60e51b81526004016109f09061451b565b6000805460ff60a81b191681556001600160a01b03831681526008602052604090205460ff1661270e5760405162461bcd60e51b81526004016109f090614130565b61271661355f565b6127208585611abd565b6000868152600560209081526040808320845184529091529020549091501561277d576000858152600560209081526040808320845184529091529020543a111561277d5760405162461bcd60e51b81526004016109f0906140eb565b6060806009878154811061278d57fe5b600091825260209091200154604051632ca5159f60e11b81526001600160a01b039091169063594a2b3e906127cc9033908a908a908a90600401613f82565b600060405180830381600087803b1580156127e657600080fd5b505af11580156127fa573d6000803e3d6000fd5b505050506040513d6000823e601f3d908101601f191682016040526128229190810190613898565b9150915060005b815181101561290c5760008881526004602052604081208351829085908590811061285057fe5b60200260200101518152602001908152602001600020541461290457600154600089815260046020526040812084516001600160a01b039093169263ee8ca3b5929086908690811061289e57fe5b60200260200101518152602001908152602001600020546040518263ffffffff1660e01b81526004016128d191906140a1565b600060405180830381600087803b1580156128eb57600080fd5b505af11580156128ff573d6000803e3d6000fd5b505050505b600101612829565b5060006009888154811061291c57fe5b60009182526020909120015484516040516331a9108f60e11b81526001600160a01b0390921691636352211e91612955916004016140a1565b60206040518083038186803b15801561296d57600080fd5b505afa158015612981573d6000803e3d6000fd5b505050506040513d601f19601f820116820180604052508101906129a5919061387c565b9050836000015188826001600160a01b03167f37aacca185d8a700a40142541d808e10bc61ca82eb929cb3df05de903a64dc848a6040516129e691906140a1565b60405180910390a460005b8351811015612c5657600354600160a01b900460ff168015612a2b5750838181518110612a1a57fe5b602002602001015160400151600014155b15612c4e5788826001600160a01b03167faf1b9133e30ada3fee6cb47a46b80b2dfee808dc5bc919f712beb9ee33b465d6868481518110612a6857fe5b602002602001015160400151604051612a8191906140a1565b60405180910390a360015460025485516001600160a01b039283169263b9f45adb92309263638d368360e11b929091169063e34ca65d60e01b908f908b9089908110612ac957fe5b6020026020010151604001518b8981518110612ae157fe5b602002602001015160800151600060028110612af957fe5b60200201518c8a81518110612b0a57fe5b602002602001015160800151600160028110612b2257fe5b60200201518d8b81518110612b3357fe5b602002602001015160a00151600060038110612b4b57fe5b6020020151604051602401612b64959493929190614601565b60408051601f198184030181529181526020820180516001600160e01b03166001600160e01b0319948516179052600354905160e088901b9093168352612bbc959493926001600160a01b0390911690600401613fe3565b602060405180830381600087803b158015612bd657600080fd5b505af1158015612bea573d6000803e3d6000fd5b505050506040513d601f19601f82011682018060405250810190612c0e919061399e565b600460008b81526020019081526020016000206000868481518110612c2f57fe5b6020026020010151604001518152602001908152602001600020819055505b6001016129f1565b5060015460408051635c08631b60e11b8152815160009384936001600160a01b039091169263b810c6369260048083019392829003018186803b158015612c9c57600080fd5b505afa158015612cb0573d6000803e3d6000fd5b505050506040513d601f19601f82011682018060405250810190612cd49190613a79565b6001600160a01b0385166000908152600660205260409020549193509150821115612d115760405162461bcd60e51b81526004016109f090614593565b6001600160a01b038316600090815260066020526040902054612d3490836131cd565b6001600160a01b038416600090815260066020526040902055612d57828261338b565b50506000805460ff60a81b1916600160a81b1790555050505050505050565b600560209081526000928352604080842090915290825290205481565b612d9b613234565b6000546001600160a01b03908116911614612dc85760405162461bcd60e51b81526004016109f0906143cb565b600180546001600160a01b039485166001600160a01b031991821617909155600280549390941692169190911790915560038054911515600160a01b0260ff60a01b19909216919091179055565b612e1e613234565b6000546001600160a01b03908116911614612e4b5760405162461bcd60e51b81526004016109f0906143cb565b60098481548110612e5857fe5b6000918252602090912001546040516348541ee160e11b81526001600160a01b03909116906390a83dc290612e9590869086908690600401613fbf565b600060405180830381600087803b158015612eaf57600080fd5b505af1158015612ec3573d6000803e3d6000fd5b505050506001600160a01b03821660009081526012602052604090205460ff16612f4b576011805460018082019092557f31ecc21a745e3968a04e9570e4425bc18fa8019c68028196b546d1669c200c680180546001600160a01b0319166001600160a01b0385169081179091556000908152601260205260409020805460ff191690911790555b50505050565b612f59613234565b6000546001600160a01b03908116911614612f865760405162461bcd60e51b81526004016109f0906143cb565b60098281548110612f9357fe5b6000918252602090912001546040516368173bcf60e01b81526001600160a01b03909116906368173bcf90611cbf908490600401613f00565b6001546001600160a01b031681565b600d5481565b600f81815481106119da57fe5b600060098281548110612ffd57fe5b6000918252602091829020015460408051630227321760e31b815290516001600160a01b039092169263113990b892600480840193829003018186803b15801561304657600080fd5b505afa15801561305a573d6000803e3d6000fd5b505050506040513d601f19601f82011682018060405250810190611543919061399e565b613086613234565b6000546001600160a01b039081169116146130b35760405162461bcd60e51b81526004016109f0906143cb565b6001600160a01b0381166130d95760405162461bcd60e51b81526004016109f0906141ac565b600080546040516001600160a01b03808516939216917f8be0079c531659141344cd1fd0a4f28419497f9722a3daafe3b4186f6b6457e091a3600080546001600160a01b0319166001600160a01b0392909216919091179055565b6001600160a01b03166000908152600a602052604090205460ff1690565b61315a613234565b6000546001600160a01b039081169116146131875760405162461bcd60e51b81526004016109f0906143cb565b6131908161345c565b50565b6000826131a257506000611543565b828202828482816131af57fe5b0414611b5f5760405162461bcd60e51b81526004016109f09061438a565b6000611b5f83836040518060400160405280601e81526020017f536166654d6174683a207375627472616374696f6e206f766572666c6f7700008152506134fc565b600082820183811015611b5f5760405162461bcd60e51b81526004016109f0906142aa565b3390565b600054600160a01b900460ff166132615760405162461bcd60e51b81526004016109f0906140bd565b6000805460ff60a01b191690557f5db9ee0a495bf2e6ff9c91a7834c1ba4fdd244a5e8aa4e537bd38aeae4b073aa613297613234565b6040516132a49190613f00565b60405180910390a1565b600054600160a01b900460ff16156132d85760405162461bcd60e51b81526004016109f090614329565b6000805460ff60a01b1916600160a01b1790557f62e78cea01bee320cd4e420270b5ea74000d11b0c9f74754ebdbfc544b05a258613297613234565b6000611b5f83836040518060400160405280601a81526020017f536166654d6174683a206469766973696f6e206279207a65726f000000000000815250613528565b80613362836032613193565b11156133805760405162461bcd60e51b81526004016109f090614262565b600c91909155600d55565b6001600160a01b03811673eeeeeeeeeeeeeeeeeeeeeeeeeeeeeeeeeeeeeeee146133c75760405162461bcd60e51b81526004016109f0906142e1565b6000737598e84b2e114ab62cab288ce5f7d5f6bad35bba6001600160a01b0316836040516133f490613efd565b60006040518083038185875af1925050503d8060008114613431576040519150601f19603f3d011682016040523d82523d6000602084013e613436565b606091505b50509050806134575760405162461bcd60e51b81526004016109f090614353565b505050565b6001600160a01b03811660009081526010602052604090205460ff16156134955760405162461bcd60e51b81526004016109f090614446565b600f805460018181019092557f8d1108e10bcb7c27dddfc02ed9d693a074039d026cf4ea4240b40f7d581ac8020180546001600160a01b039093166001600160a01b031990931683179055600091825260106020526040909120805460ff19169091179055565b600081848411156135205760405162461bcd60e51b81526004016109f091906140aa565b505050900390565b600081836135495760405162461bcd60e51b81526004016109f091906140aa565b50600083858161355557fe5b0495945050505050565b6040518060e001604052806000815260200160008152602001600081526020016000815260200161358e6135a8565b815260200161359b6135c6565b8152602001606081525090565b60405180604001604052806002906020820280368337509192915050565b60405180606001604052806003906020820280368337509192915050565b600082601f8301126135f4578081fd5b6135fe604061463b565b905080828460408501111561361257600080fd5b60005b600281101561363e57815161362981614680565b83526020928301929190910190600101613615565b50505092915050565b600082601f830112613657578081fd5b813561366a61366582614661565b61463b565b81815291506020808301908481018184028601820187101561368b57600080fd5b60005b848110156136b35781356136a181614680565b8452928201929082019060010161368e565b505050505092915050565b600082601f8301126136ce578081fd5b6136d8606061463b565b90508082846060850111156136ec57600080fd5b60005b600381101561363e5781518352602092830192909101906001016136ef565b600082601f83011261371e578081fd5b813561372c61366582614661565b81815291506020808301908481018184028601820187101561374d57600080fd5b60005b848110156136b357813584529282019290820190600101613750565b600082601f83011261377c578081fd5b815161378a61366582614661565b8181529150602080830190848101818402860182018710156137ab57600080fd5b60005b848110156136b3578151845292820192908201906001016137ae565b600061014082840312156137dc578081fd5b6137e660e061463b565b90508151815260208201516020820152604082015160408201526060820151606082015261381783608084016135e4565b60808201526138298360c084016136be565b60a08201526101208201516001600160401b0381111561384857600080fd5b6138548482850161376c565b60c08301525092915050565b600060208284031215613871578081fd5b8135611b5f81614680565b60006020828403121561388d578081fd5b8151611b5f81614680565b600080604083850312156138aa578081fd5b82516001600160401b03808211156138c0578283fd5b818501915085601f8301126138d3578283fd5b81516138e161366582614661565b81815260208082019190858101875b85811015613919576139078c8484518b01016137ca565b855293820193908201906001016138f0565b50508801519096509350505080821115613931578283fd5b5061393e8582860161376c565b9150509250929050565b600060208284031215613959578081fd5b81516001600160401b0381111561396e578182fd5b61397a8482850161376c565b949350505050565b600060208284031215613993578081fd5b8135611b5f81614695565b6000602082840312156139af578081fd5b5051919050565b6000806000606084860312156139ca578081fd5b83356139d581614680565b925060208401356139e581614680565b915060408401356139f581614695565b809150509250925092565b600060208284031215613a11578081fd5b81516001600160401b03811115613a26578182fd5b61397a848285016137ca565b600060208284031215613a43578081fd5b5035919050565b60008060408385031215613a5c578182fd5b823591506020830135613a6e81614680565b809150509250929050565b60008060408385031215613a8b578182fd5b825191506020830151613a6e81614680565b60008060008060808587031215613ab2578182fd5b843593506020850135613ac481614680565b92506040850135613ad481614680565b9396929550929360600135925050565b600080600060608486031215613af8578081fd5b833592506020840135613b0a81614680565b929592945050506040919091013590565b60008060008060808587031215613b30578182fd5b8435935060208501356001600160401b0380821115613b4d578384fd5b613b5988838901613647565b94506040870135915080821115613b6e578384fd5b613b7a88838901613647565b93506060870135915080821115613b8f578283fd5b50613b9c8782880161370e565b91505092959194509250565b600080600080600060a08688031215613bbf578283fd5b8535945060208601356001600160401b0380821115613bdc578485fd5b613be889838a01613647565b95506040880135915080821115613bfd578485fd5b613c0989838a0161370e565b94506060880135915080821115613c1e578283fd5b50613c2b8882890161370e565b95989497509295608001359392505050565b60008060408385031215613c4f578182fd5b8235915060208301356001600160401b03811115613c6b578182fd5b61393e8582860161370e565b60008060408385031215613c89578182fd5b823591506020808401356001600160401b0380821115613ca7578384fd5b818601915086601f830112613cba578384fd5b813581811115613cc8578485fd5b613cda601f8201601f1916850161463b565b91508082528784828501011115613cef578485fd5b8084840185840137810190920192909252919491935090915050565b60008060408385031215613d1d578182fd5b50508035926020909101359150565b60008060008060808587031215613d41578182fd5b84359350602085013592506040850135613d5a81614680565b915060608501356001600160401b03811115613d74578182fd5b613b9c87828801613647565b6001600160a01b0316815260200190565b6000815180845260208085019450808401835b83811015613dc95781516001600160a01b031687529582019590820190600101613da4565b509495945050505050565b8060005b6003811015612f4b578151845260209384019390910190600101613dd8565b6000815180845260208085019450808401835b83811015613dc957815187529582019590820190600101613e0a565b60008151808452815b81811015613e4b57602081850181015186830182015201613e2f565b81811115613e5c5782602083870101525b50601f01601f19169290920160200192915050565b600061014082518452602080840151818601526040840151604086015260608401516060860152608084015160808601845b6002811015613ec557613eb7828451613d80565b928401929150600101613ea3565b5050505060a0830151613edb60c0860182613dd4565b5060c083015181610120860152613ef482860182613df7565b95945050505050565b90565b6001600160a01b0391909116815260200190565b6001600160a01b0385168152608060208201819052600090613f3890830186613d91565b8281036040840152613f4a8186613df7565b90508281036060840152613f5e8185613df7565b979650505050505050565b6001600160a01b03929092168252602082015260400190565b6001600160a01b0385811682526020820185905283166040820152608060608201819052600090613fb590830184613d91565b9695505050505050565b6001600160a01b039384168152919092166020820152604081019190915260600190565b6001600160a01b0386811682526001600160e01b031986166020830152848116604083015260a0606083018190526000919061402190840186613e26565b91508084166080840152509695505050505050565b6000602080830181845280855180835260408601915060408482028701019250838701855b8281101561408957603f19888603018452614077858351613e71565b9450928501929085019060010161405b565b5092979650505050505050565b901515815260200190565b90815260200190565b600060208252611b5f6020830184613e26565b60208082526014908201527314185d5cd8589b194e881b9bdd081c185d5cd95960621b604082015260600190565b60208082526025908201527f436f726e466920436f6e74726f6c6c65723a2047617320507269636520546f6f60408201526404090d2ced60db1b606082015260800190565b60208082526016908201527521b7b93723349d1024b73b30b634b2102937baba32b960511b604082015260600190565b6020808252602c908201527f436f726e466920436f6e74726f6c6c65723a204e6f20557365722046756e647360408201526b20746f20576974686472617760a01b606082015260800190565b60208082526026908201527f4f776e61626c653a206e6577206f776e657220697320746865207a65726f206160408201526564647265737360d01b606082015260800190565b60208082526027908201527f436f726e466920436f6e74726f6c6c65723a2047656c61746f204f6e6c7920466040820152663ab731ba34b7b760c91b606082015260800190565b6020808252600f908201526e496e76616c6964204c656e6774687360881b604082015260600190565b60208082526028908201527f436f726e466920436f6e74726f6c6c65723a204d617820536c69707061676520604082015267115e18d95959195960c21b606082015260800190565b6020808252601b908201527f536166654d6174683a206164646974696f6e206f766572666c6f770000000000604082015260600190565b60208082526028908201527f436f726e466920436f6e74726f6c6c65723a20496e76616c6964205061796d65604082015267373a102a37b5b2b760c11b606082015260800190565b60208082526010908201526f14185d5cd8589b194e881c185d5cd95960821b604082015260600190565b6020808252601e908201527f5f7472616e736665723a20455448207472616e73666572206661696c65640000604082015260600190565b60208082526021908201527f536166654d6174683a206d756c7469706c69636174696f6e206f766572666c6f6040820152607760f81b606082015260800190565b6020808252818101527f4f776e61626c653a2063616c6c6572206973206e6f7420746865206f776e6572604082015260600190565b60208082526026908201527f436f726e466920436f6e74726f6c6c65723a20455448207472616e736665722060408201526519985a5b195960d21b606082015260800190565b60208082526027908201527f436f726e466920436f6e74726f6c6c65723a20496e76616c6964204f72646572604082015266102334b63632b960c91b606082015260800190565b60208082526022908201527f436f726e466920436f6e74726f6c6c65723a2047656c61746f2044697361626c604082015261195960f21b606082015260800190565b6020808252602c908201527f436f726e466920436f6e74726f6c6c65723a204f6e6c7920416374697665204f60408201526b726465722046696c6c65727360a01b606082015260800190565b6020808252601f908201527f5265656e7472616e637947756172643a207265656e7472616e742063616c6c00604082015260600190565b60208082526021908201527f436f726e466920436f6e74726f6c6c65723a20496e616374697665205661756c6040820152601d60fa1b606082015260800190565b6020808252602d908201527f436f726e466920436f6e74726f6c6c65723a20496e737566666963656e74205560408201526c736572204761732046756e647360981b606082015260800190565b600060208252611b5f6020830184613e71565b918252602082015260400190565b94855260208501939093526001600160a01b039182166040850152166060830152608082015260a00190565b60ff91909116815260200190565b6040518181016001600160401b038111828210171561465957600080fd5b604052919050565b60006001600160401b03821115614676578081fd5b5060209081020190565b6001600160a01b038116811461319057600080fd5b801515811461319057600080fdfea26469706673582212201b15129eb8e3f9b16aa598581d064ef48f8ab266dc49d3c8bb9e8bbbbb3f257c64736f6c634300060c0033",
  "bytecodeSha1": "7995838274a3be4ff586f02b2d02063bf0ff849a",
  "compiler": {
    "evm_version": "istanbul",
    "optimizer": {
      "enabled": true,
      "runs": 200
    },
    "version": "0.6.12+commit.27d51765"
  },
  "contractName": "ControllerOld",
  "language": "Solidity",
  "natspec": {
    "kind": "dev",
    "methods": {
      "addOrderFiller(address)": {
        "details": "Whitelist an order filler. Only the owner of this contract can call this  function.",
        "params": {
          "_filler": ": Address that will call 'fillOrder()' within this contract"
        }
      },
      "addVault(address)": {
        "details": "Add a vault for trading. Vault must inherit 'VaultBase.sol' and meet the vault standard for proper functionality. Only the owner of this contract can call  this function.",
        "params": {
          "_vault": ": Address of vault to add"
        }
      },
      "changeTokenMinimumDeposit(uint256,address,uint256)": {
        "details": "Change the minimum deposit amount for an ERC20 token when creating a trade. ERC20 token must already be mapped to a holding strategy before calling this function. Only the owner of this contract can call this function. "
      },
      "constructor": {
        "params": {
          "_resolver": ": Gelato resolver contract used to find the router and swap path that provides the highest output amount.",
          "_routers": ": Approved routers used for executing swaps. No new routers can be added after deploying this contract.",
          "_slippageBasePoints": ": (_slippagePoints / _slippageBasePoints) --> slippage %",
          "_slippagePoints": ": Highest acceptable slippage amount when executing swaps"
        }
      },
      "createTrade(uint256,address[],uint256[],uint256[],uint256)": {
        "notice": "Create a trade with one of the approved vaults. The format for '_tokens', '_amounts', and '_times' is specific to the vault. Refer to the vault being used to verify the correct data format. Trades are only created with active vaults. The strating amount of the trade is deposited upon creating a trade. A deposit fee is taken from the deposited amount. When Gelato is active, a task is created for each open order.",
        "params": {
          "_amounts": ": Specific to the vault used. Refer to vault documentation.",
          "_maxGas": ": In gwei. The maximum gas price that any order within this trade can be executed at.",
          "_times": ": Specific to the vault used. Refer to vault documentation.",
          "_tokens": ": Specific to the vault used. Refer to vault documentation.",
          "_vaultId": ": Index of vault in 'vaults'"
        }
      },
      "deactivateOrderFiller(address)": {
        "details": "Revokes order filling permissions from an address. Only the owner of this  contract can call this function.",
        "params": {
          "_filler": ": Address that will have its order filling permissions revoked"
        }
      },
      "deactivateRouter(address)": {
        "details": "Deactivated router will no longer be able to be used for filling orders. A deactivated router cannot be reactivated. Only the owner of this contract can  call this function.",
        "params": {
          "_router": ": Router to deactivate "
        }
      },
      "deactivateToken(uint256,address)": {
        "details": "Deactivate an ERC20 token for a vault. Once a token is deactivated, it cannot be reactivated. Only the owner can call this function.",
        "params": {
          "_token": ": ERC20 token address  ",
          "_vaultId": ": Index of vault in 'vaults'"
        }
      },
      "deactivateVault(address)": {
        "details": "Disables the 'createTrade', 'fillOrder', and 'fillOrderGelato' functions. Once a vault is deactivated, users will only be able to withdraw their trades. Deactivated vaults cannot be reactivated. Only the owner of this contract can  call this function.",
        "params": {
          "_vault": ": Address of vault to deactivate"
        }
      },
      "depositGas(address)": {
        "notice": "Deposit ETH to pay for gas cost accrued from filling orders. ETH deposited is automatically taken from the order owners balance when their orders are filled. User is able to withdraw their balance of ETH at any point in time. This function is not callable when 'isPaused()' == true.",
        "params": {
          "_receiver": ": Address that is credited with the deposited ETH"
        }
      },
      "fillOrder(uint256,uint256,address,address[])": {
        "notice": "Fill open orders when trade conditions are met. Only approved order fillers can call this function. This function will only be used if the use of Gelato is stopped. Call 'findBestPath()' in Resolver.sol first to get the router and path with the highest output amount. Caller is refunded the gas cost from the ETH the order owner has deposited.",
        "params": {
          "_orderId": ": Order to fill",
          "_path": ": Swap path used to fill the order",
          "_router": ": Router used to fill the order",
          "_vaultId": ": Index of vault in 'vaults'"
        }
      },
      "fillOrderGelato(uint256,uint256,address,address[])": {
        "notice": "Fill open orders when trade conditions are met. Only Gelato executors can call this function. This function is the primary method used to fill orders.  If Gelato is no longer used, orders are filled through calling 'fillOrder()' instead. Gelato executor will call 'checker()' in Resolver.sol first to get the  router and path with the highest output amount. Gelato executor is refunded the  gas cost from the ETH the order owner has deposited.",
        "params": {
          "_orderId": ": Order to fill",
          "_path": ": Swap path used to fill the order",
          "_router": ": Router used to fill the order",
          "_vaultId": ": Index of vault in 'vaults'"
        }
      },
      "gelatoSettings(address,address,bool)": {
        "details": "Configure Gelato settings. Enable/disable filling orders with Gelato. Only  the owner of this contract can call this function.",
        "params": {
          "_gelato": ": true: Gelato fills orders; false: Dev fills orders",
          "_pokeMe": ": Gelato contract that will call this contract",
          "_resolver": ": Contract that the Gelato executor will call for the input data used when calling this contract."
        }
      },
      "owner()": {
        "details": "Returns the address of the current owner."
      },
      "pause()": {
        "details": "After calling, 'createTrade', 'fillOrder', 'fillOrderGelato', and 'depositGas' functions will be disabled. Users will only be able to withdraw their trades and any deposited gas. Only the owner of this contract can call this function."
      },
      "paused()": {
        "details": "Returns true if the contract is paused, and false otherwise."
      },
      "priceMultiplier(uint256)": {
        "notice": "The prices used when creating trades need to be multiplied by the value returned from this function. This is done to handle the decimals.",
        "params": {
          "_vaultId": ": Index of vault in 'vaults'"
        },
        "returns": {
          "_0": "Value to multiply with the price "
        }
      },
      "renounceOwnership()": {
        "details": "Leaves the contract without owner. It will not be possible to call `onlyOwner` functions anymore. Can only be called by the current owner. NOTE: Renouncing ownership will leave the contract without an owner, thereby removing any functionality that is only available to the owner."
      },
      "setOrderFillers(bool)": {
        "details": "Restrict order filling to a whitelist of addresses or allow any address to fill orders. Only the owner of this contract can call this function.",
        "params": {
          "_whitelist": ": true: Only whitelisted addresses can fill orders; false: Any address can fill orders"
        }
      },
      "setSlippage(uint256,uint256)": {
        "details": "Set the slippage amount for each order being filled. Only the owner of this  contract can call this function.",
        "params": {
          "_slippageBasePoints": ": Max amount of slippage points",
          "_slippagePoints": ": This value divided by '_slippageBasePoints' gives the  slippage percentage."
        }
      },
      "setTokenStrategy(uint256,address,address,uint256)": {
        "details": "Map a holding strategy contract to an ERC20 token. A token can only be mapped to holding strategy once. Only the owner of this contract can call this function.",
        "params": {
          "_minDeposit": ": Minimum amount of '_token' that can be deposited when creating a trade. ",
          "_strategy": ": Holding strategy contract",
          "_token": ": ERC20 token address",
          "_vaultId": ": Index of vault in 'vaults'"
        }
      },
      "setVaultURI(uint256,string)": {
        "details": "Set the URI of a vault to display an image. Only the owner of this contract  can call this function.",
        "params": {
          "_URI": ": IPFS link",
          "_vaultId": ": Vault that will have its URI set"
        }
      },
      "slippage(uint256)": {
        "notice": "Use to get the minimum amount out of a swap",
        "params": {
          "_amountIn": ": Amount of a given ERC20 token"
        },
        "returns": {
          "_0": "Adjusts '_amountIn' to account for slippage"
        }
      },
      "transferOwnership(address)": {
        "details": "Transfers ownership of the contract to a new account (`newOwner`). Can only be called by the current owner."
      },
      "unpause()": {
        "details": "Enables 'createTrade', 'fillOrder', 'fillOrderGelato', and 'depositGas' functions. Only the owner of this contract can call this function."
      },
      "vault(address)": {
        "params": {
          "_vault": ": Address of vault"
        },
        "returns": {
          "_0": "0: Not added to this contract; 1 = Active vault; 2 = Deactivated vault"
        }
      },
      "vaultId(address)": {
        "params": {
          "_vault": ": Address of vault"
        },
        "returns": {
          "_0": "Reverse mapping vault address to index in 'vaults'"
        }
      },
      "vaultsLength()": {
        "notice": "Includes active and added then deactivated vaults",
        "returns": {
          "_0": "Number of added vaults "
        }
      },
      "viewOpenOrdersByToken(uint256,uint256)": {
        "params": {
          "_tokenId": ": Vault token",
          "_vaultId": ": Index of vault in 'vaults'"
        },
        "returns": {
          "_0": "All open orders for a given vault token"
        }
      },
      "viewOrder(uint256,uint256)": {
        "notice": "View a single order. Order can be open or closed.",
        "params": {
          "_orderId": ": Order to view",
          "_vaultId": ": Index of vault in 'vaults'"
        },
        "returns": {
          "_0": "Order details "
        }
      },
      "viewOrders(uint256,uint256[])": {
        "notice": "View multiple orders. ",
        "params": {
          "_orderIds": ": Orders to view",
          "_vaultId": ": Index of vault in 'vaults'"
        },
        "returns": {
          "_0": "Array of order details "
        }
      },
      "withdraw(uint256,uint256)": {
        "notice": "Withdraws the ERC20 tokens owned by a vault token and returns to the token owner. All open orders associated with the vault token are closed and the vault token is burnt.",
        "params": {
          "_tokenId": ": Vault token  ",
          "_vaultId": ": Index of vault in 'vaults'"
        }
      },
      "withdrawGas()": {
        "notice": "Remove the deposited ETH balance of a user. Any amount of ETH not used to pay for gas is able to be withdrawn. Withdrawing ETH while still having open orders will result in the orders not being filled. A user must maintain a certian amount of ETH deposited to cover gas costs.  "
      }
    },
    "version": 1
  },
  "opcodes": "PUSH1 0x80 PUSH1 0x40 MSTORE PUSH1 0x4 CALLDATASIZE LT PUSH2 0x350 JUMPI PUSH1 0x0 CALLDATALOAD PUSH1 0xE0 SHR DUP1 PUSH4 0x8322FFF2 GT PUSH2 0x1C6 JUMPI DUP1 PUSH4 0xC05D6C41 GT PUSH2 0xF7 JUMPI DUP1 PUSH4 0xE3F54499 GT PUSH2 0x95 JUMPI DUP1 PUSH4 0xEEB8B934 GT PUSH2 0x6F JUMPI DUP1 PUSH4 0xEEB8B934 EQ PUSH2 0x925 JUMPI DUP1 PUSH4 0xF2FDE38B EQ PUSH2 0x945 JUMPI DUP1 PUSH4 0xF815C03D EQ PUSH2 0x965 JUMPI DUP1 PUSH4 0xFD6766F6 EQ PUSH2 0x985 JUMPI PUSH2 0x350 JUMP JUMPDEST DUP1 PUSH4 0xE3F54499 EQ PUSH2 0x8DB JUMPI DUP1 PUSH4 0xE9FCD6CE EQ PUSH2 0x8F0 JUMPI DUP1 PUSH4 0xEB03C98C EQ PUSH2 0x905 JUMPI PUSH2 0x350 JUMP JUMPDEST DUP1 PUSH4 0xCB306F02 GT PUSH2 0xD1 JUMPI DUP1 PUSH4 0xCB306F02 EQ PUSH2 0x85B JUMPI DUP1 PUSH4 0xD8E09316 EQ PUSH2 0x87B JUMPI DUP1 PUSH4 0xDC516876 EQ PUSH2 0x89B JUMPI DUP1 PUSH4 0xE20371E3 EQ PUSH2 0x8BB JUMPI PUSH2 0x350 JUMP JUMPDEST DUP1 PUSH4 0xC05D6C41 EQ PUSH2 0x808 JUMPI DUP1 PUSH4 0xC123CB44 EQ PUSH2 0x828 JUMPI DUP1 PUSH4 0xC71A6D06 EQ PUSH2 0x83B JUMPI PUSH2 0x350 JUMP JUMPDEST DUP1 PUSH4 0x9B2AA772 GT PUSH2 0x164 JUMPI DUP1 PUSH4 0xAEE16407 GT PUSH2 0x13E JUMPI DUP1 PUSH4 0xAEE16407 EQ PUSH2 0x79E JUMPI DUP1 PUSH4 0xB86E3DC9 EQ PUSH2 0x7B3 JUMPI DUP1 PUSH4 0xBC9EF3E0 EQ PUSH2 0x7D3 JUMPI DUP1 PUSH4 0xBCB5703D EQ PUSH2 0x7F3 JUMPI PUSH2 0x350 JUMP JUMPDEST DUP1 PUSH4 0x9B2AA772 EQ PUSH2 0x73E JUMPI DUP1 PUSH4 0xAA9F6217 EQ PUSH2 0x75E JUMPI DUP1 PUSH4 0xAB27FEEA EQ PUSH2 0x77E JUMPI PUSH2 0x350 JUMP JUMPDEST DUP1 PUSH4 0x8D3A513E GT PUSH2 0x1A0 JUMPI DUP1 PUSH4 0x8D3A513E EQ PUSH2 0x6D4 JUMPI DUP1 PUSH4 0x8DA5CB5B EQ PUSH2 0x6F4 JUMPI DUP1 PUSH4 0x96582CB5 EQ PUSH2 0x709 JUMPI DUP1 PUSH4 0x9670E0DE EQ PUSH2 0x71E JUMPI PUSH2 0x350 JUMP JUMPDEST DUP1 PUSH4 0x8322FFF2 EQ PUSH2 0x68A JUMPI DUP1 PUSH4 0x8456CB59 EQ PUSH2 0x69F JUMPI DUP1 PUSH4 0x8C64EA4A EQ PUSH2 0x6B4 JUMPI PUSH2 0x350 JUMP JUMPDEST DUP1 PUSH4 0x441A3E70 GT PUSH2 0x2A0 JUMPI DUP1 PUSH4 0x5C975ABB GT PUSH2 0x23E JUMPI DUP1 PUSH4 0x715018A6 GT PUSH2 0x218 JUMPI DUP1 PUSH4 0x715018A6 EQ PUSH2 0x620 JUMPI DUP1 PUSH4 0x7726A73C EQ PUSH2 0x635 JUMPI DUP1 PUSH4 0x7C04D11F EQ PUSH2 0x655 JUMPI DUP1 PUSH4 0x82AF54C9 EQ PUSH2 0x675 JUMPI PUSH2 0x350 JUMP JUMPDEST DUP1 PUSH4 0x5C975ABB EQ PUSH2 0x5D6 JUMPI DUP1 PUSH4 0x659755F9 EQ PUSH2 0x5EB JUMPI DUP1 PUSH4 0x6840339A EQ PUSH2 0x600 JUMPI PUSH2 0x350 JUMP JUMPDEST DUP1 PUSH4 0x548A99AD GT PUSH2 0x27A JUMPI DUP1 PUSH4 0x548A99AD EQ PUSH2 0x55F JUMPI DUP1 PUSH4 0x55EAF8F1 EQ PUSH2 0x57F JUMPI DUP1 PUSH4 0x5711BE12 EQ PUSH2 0x594 JUMPI DUP1 PUSH4 0x573EA575 EQ PUSH2 0x5C1 JUMPI PUSH2 0x350 JUMP JUMPDEST DUP1 PUSH4 0x441A3E70 EQ PUSH2 0x4FD JUMPI DUP1 PUSH4 0x4E9C1118 EQ PUSH2 0x51D JUMPI DUP1 PUSH4 0x4FEC8C34 EQ PUSH2 0x53D JUMPI PUSH2 0x350 JUMP JUMPDEST DUP1 PUSH4 0x24E702ED GT PUSH2 0x30D JUMPI DUP1 PUSH4 0x3AAA36E6 GT PUSH2 0x2E7 JUMPI DUP1 PUSH4 0x3AAA36E6 EQ PUSH2 0x493 JUMPI DUP1 PUSH4 0x3B94A42B EQ PUSH2 0x4A8 JUMPI DUP1 PUSH4 0x3F4BA83A EQ PUSH2 0x4C8 JUMPI DUP1 PUSH4 0x408198C5 EQ PUSH2 0x4DD JUMPI PUSH2 0x350 JUMP JUMPDEST DUP1 PUSH4 0x24E702ED EQ PUSH2 0x424 JUMPI DUP1 PUSH4 0x256B5A02 EQ PUSH2 0x446 JUMPI DUP1 PUSH4 0x2A2925C2 EQ PUSH2 0x466 JUMPI PUSH2 0x350 JUMP JUMPDEST DUP1 PUSH4 0x43B99CC EQ PUSH2 0x355 JUMPI DUP1 PUSH4 0x445EA4B EQ PUSH2 0x380 JUMPI DUP1 PUSH4 0x12320BCA EQ PUSH2 0x3AD JUMPI DUP1 PUSH4 0x1261795D EQ PUSH2 0x3CF JUMPI DUP1 PUSH4 0x1AC36471 EQ PUSH2 0x3E4 JUMPI DUP1 PUSH4 0x230F9B9D EQ PUSH2 0x404 JUMPI JUMPDEST PUSH1 0x0 DUP1 REVERT JUMPDEST CALLVALUE DUP1 ISZERO PUSH2 0x361 JUMPI PUSH1 0x0 DUP1 REVERT JUMPDEST POP PUSH2 0x36A PUSH2 0x9A5 JUMP JUMPDEST PUSH1 0x40 MLOAD PUSH2 0x377 SWAP2 SWAP1 PUSH2 0x3F00 JUMP JUMPDEST PUSH1 0x40 MLOAD DUP1 SWAP2 SUB SWAP1 RETURN JUMPDEST CALLVALUE DUP1 ISZERO PUSH2 0x38C JUMPI PUSH1 0x0 DUP1 REVERT JUMPDEST POP PUSH2 0x3A0 PUSH2 0x39B CALLDATASIZE PUSH1 0x4 PUSH2 0x3860 JUMP JUMPDEST PUSH2 0x9B4 JUMP JUMPDEST PUSH1 0x40 MLOAD PUSH2 0x377 SWAP2 SWAP1 PUSH2 0x40A1 JUMP JUMPDEST CALLVALUE DUP1 ISZERO PUSH2 0x3B9 JUMPI PUSH1 0x0 DUP1 REVERT JUMPDEST POP PUSH2 0x3CD PUSH2 0x3C8 CALLDATASIZE PUSH1 0x4 PUSH2 0x3D2C JUMP JUMPDEST PUSH2 0x9C6 JUMP JUMPDEST STOP JUMPDEST CALLVALUE DUP1 ISZERO PUSH2 0x3DB JUMPI PUSH1 0x0 DUP1 REVERT JUMPDEST POP PUSH2 0x3CD PUSH2 0x113E JUMP JUMPDEST CALLVALUE DUP1 ISZERO PUSH2 0x3F0 JUMPI PUSH1 0x0 DUP1 REVERT JUMPDEST POP PUSH2 0x3CD PUSH2 0x3FF CALLDATASIZE PUSH1 0x4 PUSH2 0x3860 JUMP JUMPDEST PUSH2 0x123D JUMP JUMPDEST CALLVALUE DUP1 ISZERO PUSH2 0x410 JUMPI PUSH1 0x0 DUP1 REVERT JUMPDEST POP PUSH2 0x3CD PUSH2 0x41F CALLDATASIZE PUSH1 0x4 PUSH2 0x3860 JUMP JUMPDEST PUSH2 0x1293 JUMP JUMPDEST CALLVALUE DUP1 ISZERO PUSH2 0x430 JUMPI PUSH1 0x0 DUP1 REVERT JUMPDEST POP PUSH2 0x439 PUSH2 0x1327 JUMP JUMPDEST PUSH1 0x40 MLOAD PUSH2 0x377 SWAP2 SWAP1 PUSH2 0x462D JUMP JUMPDEST CALLVALUE DUP1 ISZERO PUSH2 0x452 JUMPI PUSH1 0x0 DUP1 REVERT JUMPDEST POP PUSH2 0x3CD PUSH2 0x461 CALLDATASIZE PUSH1 0x4 PUSH2 0x3860 JUMP JUMPDEST PUSH2 0x132C JUMP JUMPDEST CALLVALUE DUP1 ISZERO PUSH2 0x472 JUMPI PUSH1 0x0 DUP1 REVERT JUMPDEST POP PUSH2 0x486 PUSH2 0x481 CALLDATASIZE PUSH1 0x4 PUSH2 0x3C3D JUMP JUMPDEST PUSH2 0x13FF JUMP JUMPDEST PUSH1 0x40 MLOAD PUSH2 0x377 SWAP2 SWAP1 PUSH2 0x4036 JUMP JUMPDEST CALLVALUE DUP1 ISZERO PUSH2 0x49F JUMPI PUSH1 0x0 DUP1 REVERT JUMPDEST POP PUSH2 0x36A PUSH2 0x1549 JUMP JUMPDEST CALLVALUE DUP1 ISZERO PUSH2 0x4B4 JUMPI PUSH1 0x0 DUP1 REVERT JUMPDEST POP PUSH2 0x486 PUSH2 0x4C3 CALLDATASIZE PUSH1 0x4 PUSH2 0x3D0B JUMP JUMPDEST PUSH2 0x1561 JUMP JUMPDEST CALLVALUE DUP1 ISZERO PUSH2 0x4D4 JUMPI PUSH1 0x0 DUP1 REVERT JUMPDEST POP PUSH2 0x3CD PUSH2 0x177E JUMP JUMPDEST CALLVALUE DUP1 ISZERO PUSH2 0x4E9 JUMPI PUSH1 0x0 DUP1 REVERT JUMPDEST POP PUSH2 0x439 PUSH2 0x4F8 CALLDATASIZE PUSH1 0x4 PUSH2 0x3860 JUMP JUMPDEST PUSH2 0x17BD JUMP JUMPDEST CALLVALUE DUP1 ISZERO PUSH2 0x509 JUMPI PUSH1 0x0 DUP1 REVERT JUMPDEST POP PUSH2 0x3CD PUSH2 0x518 CALLDATASIZE PUSH1 0x4 PUSH2 0x3D0B JUMP JUMPDEST PUSH2 0x17D2 JUMP JUMPDEST CALLVALUE DUP1 ISZERO PUSH2 0x529 JUMPI PUSH1 0x0 DUP1 REVERT JUMPDEST POP PUSH2 0x36A PUSH2 0x538 CALLDATASIZE PUSH1 0x4 PUSH2 0x3A32 JUMP JUMPDEST PUSH2 0x19CD JUMP JUMPDEST CALLVALUE DUP1 ISZERO PUSH2 0x549 JUMPI PUSH1 0x0 DUP1 REVERT JUMPDEST POP PUSH2 0x552 PUSH2 0x19F4 JUMP JUMPDEST PUSH1 0x40 MLOAD PUSH2 0x377 SWAP2 SWAP1 PUSH2 0x4096 JUMP JUMPDEST CALLVALUE DUP1 ISZERO PUSH2 0x56B JUMPI PUSH1 0x0 DUP1 REVERT JUMPDEST POP PUSH2 0x3CD PUSH2 0x57A CALLDATASIZE PUSH1 0x4 PUSH2 0x3AE4 JUMP JUMPDEST PUSH2 0x1A04 JUMP JUMPDEST CALLVALUE DUP1 ISZERO PUSH2 0x58B JUMPI PUSH1 0x0 DUP1 REVERT JUMPDEST POP PUSH2 0x439 PUSH2 0x1AB8 JUMP JUMPDEST CALLVALUE DUP1 ISZERO PUSH2 0x5A0 JUMPI PUSH1 0x0 DUP1 REVERT JUMPDEST POP PUSH2 0x5B4 PUSH2 0x5AF CALLDATASIZE PUSH1 0x4 PUSH2 0x3D0B JUMP JUMPDEST PUSH2 0x1ABD JUMP JUMPDEST PUSH1 0x40 MLOAD PUSH2 0x377 SWAP2 SWAP1 PUSH2 0x45E0 JUMP JUMPDEST CALLVALUE DUP1 ISZERO PUSH2 0x5CD JUMPI PUSH1 0x0 DUP1 REVERT JUMPDEST POP PUSH2 0x36A PUSH2 0x1B66 JUMP JUMPDEST CALLVALUE DUP1 ISZERO PUSH2 0x5E2 JUMPI PUSH1 0x0 DUP1 REVERT JUMPDEST POP PUSH2 0x552 PUSH2 0x1B7E JUMP JUMPDEST CALLVALUE DUP1 ISZERO PUSH2 0x5F7 JUMPI PUSH1 0x0 DUP1 REVERT JUMPDEST POP PUSH2 0x36A PUSH2 0x1B8E JUMP JUMPDEST CALLVALUE DUP1 ISZERO PUSH2 0x60C JUMPI PUSH1 0x0 DUP1 REVERT JUMPDEST POP PUSH2 0x36A PUSH2 0x61B CALLDATASIZE PUSH1 0x4 PUSH2 0x3A32 JUMP JUMPDEST PUSH2 0x1B9D JUMP JUMPDEST CALLVALUE DUP1 ISZERO PUSH2 0x62C JUMPI PUSH1 0x0 DUP1 REVERT JUMPDEST POP PUSH2 0x3CD PUSH2 0x1BAA JUMP JUMPDEST CALLVALUE DUP1 ISZERO PUSH2 0x641 JUMPI PUSH1 0x0 DUP1 REVERT JUMPDEST POP PUSH2 0x3A0 PUSH2 0x650 CALLDATASIZE PUSH1 0x4 PUSH2 0x3860 JUMP JUMPDEST PUSH2 0x1C29 JUMP JUMPDEST CALLVALUE DUP1 ISZERO PUSH2 0x661 JUMPI PUSH1 0x0 DUP1 REVERT JUMPDEST POP PUSH2 0x3CD PUSH2 0x670 CALLDATASIZE PUSH1 0x4 PUSH2 0x3C77 JUMP JUMPDEST PUSH2 0x1C44 JUMP JUMPDEST CALLVALUE DUP1 ISZERO PUSH2 0x681 JUMPI PUSH1 0x0 DUP1 REVERT JUMPDEST POP PUSH2 0x3A0 PUSH2 0x1CF5 JUMP JUMPDEST CALLVALUE DUP1 ISZERO PUSH2 0x696 JUMPI PUSH1 0x0 DUP1 REVERT JUMPDEST POP PUSH2 0x36A PUSH2 0x1CFB JUMP JUMPDEST CALLVALUE DUP1 ISZERO PUSH2 0x6AB JUMPI PUSH1 0x0 DUP1 REVERT JUMPDEST POP PUSH2 0x3CD PUSH2 0x1D13 JUMP JUMPDEST CALLVALUE DUP1 ISZERO PUSH2 0x6C0 JUMPI PUSH1 0x0 DUP1 REVERT JUMPDEST POP PUSH2 0x36A PUSH2 0x6CF CALLDATASIZE PUSH1 0x4 PUSH2 0x3A32 JUMP JUMPDEST PUSH2 0x1D50 JUMP JUMPDEST CALLVALUE DUP1 ISZERO PUSH2 0x6E0 JUMPI PUSH1 0x0 DUP1 REVERT JUMPDEST POP PUSH2 0x3A0 PUSH2 0x6EF CALLDATASIZE PUSH1 0x4 PUSH2 0x3D0B JUMP JUMPDEST PUSH2 0x1D5D JUMP JUMPDEST CALLVALUE DUP1 ISZERO PUSH2 0x700 JUMPI PUSH1 0x0 DUP1 REVERT JUMPDEST POP PUSH2 0x36A PUSH2 0x1D7A JUMP JUMPDEST CALLVALUE DUP1 ISZERO PUSH2 0x715 JUMPI PUSH1 0x0 DUP1 REVERT JUMPDEST POP PUSH2 0x552 PUSH2 0x1D89 JUMP JUMPDEST CALLVALUE DUP1 ISZERO PUSH2 0x72A JUMPI PUSH1 0x0 DUP1 REVERT JUMPDEST POP PUSH2 0x3A0 PUSH2 0x739 CALLDATASIZE PUSH1 0x4 PUSH2 0x3A32 JUMP JUMPDEST PUSH2 0x1D92 JUMP JUMPDEST CALLVALUE DUP1 ISZERO PUSH2 0x74A JUMPI PUSH1 0x0 DUP1 REVERT JUMPDEST POP PUSH2 0x3CD PUSH2 0x759 CALLDATASIZE PUSH1 0x4 PUSH2 0x3B1B JUMP JUMPDEST PUSH2 0x1DBF JUMP JUMPDEST CALLVALUE DUP1 ISZERO PUSH2 0x76A JUMPI PUSH1 0x0 DUP1 REVERT JUMPDEST POP PUSH2 0x3CD PUSH2 0x779 CALLDATASIZE PUSH1 0x4 PUSH2 0x3860 JUMP JUMPDEST PUSH2 0x1FCD JUMP JUMPDEST CALLVALUE DUP1 ISZERO PUSH2 0x78A JUMPI PUSH1 0x0 DUP1 REVERT JUMPDEST POP PUSH2 0x3CD PUSH2 0x799 CALLDATASIZE PUSH1 0x4 PUSH2 0x3982 JUMP JUMPDEST PUSH2 0x2026 JUMP JUMPDEST CALLVALUE DUP1 ISZERO PUSH2 0x7AA JUMPI PUSH1 0x0 DUP1 REVERT JUMPDEST POP PUSH2 0x3A0 PUSH2 0x206E JUMP JUMPDEST CALLVALUE DUP1 ISZERO PUSH2 0x7BF JUMPI PUSH1 0x0 DUP1 REVERT JUMPDEST POP PUSH2 0x3CD PUSH2 0x7CE CALLDATASIZE PUSH1 0x4 PUSH2 0x3BA8 JUMP JUMPDEST PUSH2 0x2074 JUMP JUMPDEST CALLVALUE DUP1 ISZERO PUSH2 0x7DF JUMPI PUSH1 0x0 DUP1 REVERT JUMPDEST POP PUSH2 0x3CD PUSH2 0x7EE CALLDATASIZE PUSH1 0x4 PUSH2 0x3D0B JUMP JUMPDEST PUSH2 0x24D0 JUMP JUMPDEST CALLVALUE DUP1 ISZERO PUSH2 0x7FF JUMPI PUSH1 0x0 DUP1 REVERT JUMPDEST POP PUSH2 0x439 PUSH2 0x2513 JUMP JUMPDEST CALLVALUE DUP1 ISZERO PUSH2 0x814 JUMPI PUSH1 0x0 DUP1 REVERT JUMPDEST POP PUSH2 0x552 PUSH2 0x823 CALLDATASIZE PUSH1 0x4 PUSH2 0x3860 JUMP JUMPDEST PUSH2 0x2518 JUMP JUMPDEST PUSH2 0x3CD PUSH2 0x836 CALLDATASIZE PUSH1 0x4 PUSH2 0x3860 JUMP JUMPDEST PUSH2 0x252D JUMP JUMPDEST CALLVALUE DUP1 ISZERO PUSH2 0x847 JUMPI PUSH1 0x0 DUP1 REVERT JUMPDEST POP PUSH2 0x3CD PUSH2 0x856 CALLDATASIZE PUSH1 0x4 PUSH2 0x3D2C JUMP JUMPDEST PUSH2 0x2626 JUMP JUMPDEST CALLVALUE DUP1 ISZERO PUSH2 0x867 JUMPI PUSH1 0x0 DUP1 REVERT JUMPDEST POP PUSH2 0x3A0 PUSH2 0x876 CALLDATASIZE PUSH1 0x4 PUSH2 0x3D0B JUMP JUMPDEST PUSH2 0x2D76 JUMP JUMPDEST CALLVALUE DUP1 ISZERO PUSH2 0x887 JUMPI PUSH1 0x0 DUP1 REVERT JUMPDEST POP PUSH2 0x3CD PUSH2 0x896 CALLDATASIZE PUSH1 0x4 PUSH2 0x39B6 JUMP JUMPDEST PUSH2 0x2D93 JUMP JUMPDEST CALLVALUE DUP1 ISZERO PUSH2 0x8A7 JUMPI PUSH1 0x0 DUP1 REVERT JUMPDEST POP PUSH2 0x3CD PUSH2 0x8B6 CALLDATASIZE PUSH1 0x4 PUSH2 0x3A9D JUMP JUMPDEST PUSH2 0x2E16 JUMP JUMPDEST CALLVALUE DUP1 ISZERO PUSH2 0x8C7 JUMPI PUSH1 0x0 DUP1 REVERT JUMPDEST POP PUSH2 0x3CD PUSH2 0x8D6 CALLDATASIZE PUSH1 0x4 PUSH2 0x3A4A JUMP JUMPDEST PUSH2 0x2F51 JUMP JUMPDEST CALLVALUE DUP1 ISZERO PUSH2 0x8E7 JUMPI PUSH1 0x0 DUP1 REVERT JUMPDEST POP PUSH2 0x36A PUSH2 0x2FCC JUMP JUMPDEST CALLVALUE DUP1 ISZERO PUSH2 0x8FC JUMPI PUSH1 0x0 DUP1 REVERT JUMPDEST POP PUSH2 0x3A0 PUSH2 0x2FDB JUMP JUMPDEST CALLVALUE DUP1 ISZERO PUSH2 0x911 JUMPI PUSH1 0x0 DUP1 REVERT JUMPDEST POP PUSH2 0x36A PUSH2 0x920 CALLDATASIZE PUSH1 0x4 PUSH2 0x3A32 JUMP JUMPDEST PUSH2 0x2FE1 JUMP JUMPDEST CALLVALUE DUP1 ISZERO PUSH2 0x931 JUMPI PUSH1 0x0 DUP1 REVERT JUMPDEST POP PUSH2 0x3A0 PUSH2 0x940 CALLDATASIZE PUSH1 0x4 PUSH2 0x3A32 JUMP JUMPDEST PUSH2 0x2FEE JUMP JUMPDEST CALLVALUE DUP1 ISZERO PUSH2 0x951 JUMPI PUSH1 0x0 DUP1 REVERT JUMPDEST POP PUSH2 0x3CD PUSH2 0x960 CALLDATASIZE PUSH1 0x4 PUSH2 0x3860 JUMP JUMPDEST PUSH2 0x307E JUMP JUMPDEST CALLVALUE DUP1 ISZERO PUSH2 0x971 JUMPI PUSH1 0x0 DUP1 REVERT JUMPDEST POP PUSH2 0x439 PUSH2 0x980 CALLDATASIZE PUSH1 0x4 PUSH2 0x3860 JUMP JUMPDEST PUSH2 0x3134 JUMP JUMPDEST CALLVALUE DUP1 ISZERO PUSH2 0x991 JUMPI PUSH1 0x0 DUP1 REVERT JUMPDEST POP PUSH2 0x3CD PUSH2 0x9A0 CALLDATASIZE PUSH1 0x4 PUSH2 0x3860 JUMP JUMPDEST PUSH2 0x3152 JUMP JUMPDEST PUSH1 0x3 SLOAD PUSH1 0x1 PUSH1 0x1 PUSH1 0xA0 SHL SUB AND DUP2 JUMP JUMPDEST PUSH1 0x6 PUSH1 0x20 MSTORE PUSH1 0x0 SWAP1 DUP2 MSTORE PUSH1 0x40 SWAP1 KECCAK256 SLOAD DUP2 JUMP JUMPDEST PUSH1 0x0 SLOAD PUSH1 0x1 PUSH1 0xA0 SHL SWAP1 DIV PUSH1 0xFF AND ISZERO PUSH2 0x9F9 JUMPI PUSH1 0x40 MLOAD PUSH3 0x461BCD PUSH1 0xE5 SHL DUP2 MSTORE PUSH1 0x4 ADD PUSH2 0x9F0 SWAP1 PUSH2 0x4329 JUMP JUMPDEST PUSH1 0x40 MLOAD DUP1 SWAP2 SUB SWAP1 REVERT JUMPDEST PUSH1 0xE SLOAD PUSH1 0xFF AND ISZERO PUSH2 0xA36 JUMPI CALLER PUSH1 0x0 SWAP1 DUP2 MSTORE PUSH1 0x10 PUSH1 0x20 MSTORE PUSH1 0x40 SWAP1 KECCAK256 SLOAD PUSH1 0xFF AND PUSH1 0x1 EQ PUSH2 0xA36 JUMPI PUSH1 0x40 MLOAD PUSH3 0x461BCD PUSH1 0xE5 SHL DUP2 MSTORE PUSH1 0x4 ADD PUSH2 0x9F0 SWAP1 PUSH2 0x4446 JUMP JUMPDEST PUSH1 0x0 SLOAD PUSH1 0x1 PUSH1 0xA8 SHL SWAP1 DIV PUSH1 0xFF AND PUSH2 0xA5F JUMPI PUSH1 0x40 MLOAD PUSH3 0x461BCD PUSH1 0xE5 SHL DUP2 MSTORE PUSH1 0x4 ADD PUSH2 0x9F0 SWAP1 PUSH2 0x451B JUMP JUMPDEST PUSH1 0x0 DUP1 SLOAD PUSH1 0xFF PUSH1 0xA8 SHL NOT AND DUP2 SSTORE GAS PUSH1 0x1 PUSH1 0x1 PUSH1 0xA0 SHL SUB DUP5 AND PUSH1 0x0 SWAP1 DUP2 MSTORE PUSH1 0x8 PUSH1 0x20 MSTORE PUSH1 0x40 SWAP1 KECCAK256 SLOAD SWAP1 SWAP2 POP PUSH1 0xFF AND PUSH2 0xAA8 JUMPI PUSH1 0x40 MLOAD PUSH3 0x461BCD PUSH1 0xE5 SHL DUP2 MSTORE PUSH1 0x4 ADD PUSH2 0x9F0 SWAP1 PUSH2 0x4130 JUMP JUMPDEST PUSH2 0xAB0 PUSH2 0x355F JUMP JUMPDEST PUSH2 0xABA DUP7 DUP7 PUSH2 0x1ABD JUMP JUMPDEST PUSH1 0x0 DUP8 DUP2 MSTORE PUSH1 0x5 PUSH1 0x20 SWAP1 DUP2 MSTORE PUSH1 0x40 DUP1 DUP4 KECCAK256 DUP5 MLOAD DUP5 MSTORE SWAP1 SWAP2 MSTORE SWAP1 KECCAK256 SLOAD SWAP1 SWAP2 POP ISZERO PUSH2 0xB17 JUMPI PUSH1 0x0 DUP7 DUP2 MSTORE PUSH1 0x5 PUSH1 0x20 SWAP1 DUP2 MSTORE PUSH1 0x40 DUP1 DUP4 KECCAK256 DUP5 MLOAD DUP5 MSTORE SWAP1 SWAP2 MSTORE SWAP1 KECCAK256 SLOAD GASPRICE GT ISZERO PUSH2 0xB17 JUMPI PUSH1 0x40 MLOAD PUSH3 0x461BCD PUSH1 0xE5 SHL DUP2 MSTORE PUSH1 0x4 ADD PUSH2 0x9F0 SWAP1 PUSH2 0x40EB JUMP JUMPDEST PUSH1 0x60 DUP1 PUSH1 0x9 DUP9 DUP2 SLOAD DUP2 LT PUSH2 0xB27 JUMPI INVALID JUMPDEST PUSH1 0x0 SWAP2 DUP3 MSTORE PUSH1 0x20 SWAP1 SWAP2 KECCAK256 ADD SLOAD PUSH1 0x40 MLOAD PUSH4 0x2CA5159F PUSH1 0xE1 SHL DUP2 MSTORE PUSH1 0x1 PUSH1 0x1 PUSH1 0xA0 SHL SUB SWAP1 SWAP2 AND SWAP1 PUSH4 0x594A2B3E SWAP1 PUSH2 0xB66 SWAP1 CALLER SWAP1 DUP12 SWAP1 DUP12 SWAP1 DUP12 SWAP1 PUSH1 0x4 ADD PUSH2 0x3F82 JUMP JUMPDEST PUSH1 0x0 PUSH1 0x40 MLOAD DUP1 DUP4 SUB DUP2 PUSH1 0x0 DUP8 DUP1 EXTCODESIZE ISZERO DUP1 ISZERO PUSH2 0xB80 JUMPI PUSH1 0x0 DUP1 REVERT JUMPDEST POP GAS CALL ISZERO DUP1 ISZERO PUSH2 0xB94 JUMPI RETURNDATASIZE PUSH1 0x0 DUP1 RETURNDATACOPY RETURNDATASIZE PUSH1 0x0 REVERT JUMPDEST POP POP POP POP PUSH1 0x40 MLOAD RETURNDATASIZE PUSH1 0x0 DUP3 RETURNDATACOPY PUSH1 0x1F RETURNDATASIZE SWAP1 DUP2 ADD PUSH1 0x1F NOT AND DUP3 ADD PUSH1 0x40 MSTORE PUSH2 0xBBC SWAP2 SWAP1 DUP2 ADD SWAP1 PUSH2 0x3898 JUMP JUMPDEST SWAP2 POP SWAP2 POP PUSH1 0x0 JUMPDEST DUP2 MLOAD DUP2 LT ISZERO PUSH2 0xCA6 JUMPI PUSH1 0x0 DUP10 DUP2 MSTORE PUSH1 0x4 PUSH1 0x20 MSTORE PUSH1 0x40 DUP2 KECCAK256 DUP4 MLOAD DUP3 SWAP1 DUP6 SWAP1 DUP6 SWAP1 DUP2 LT PUSH2 0xBEA JUMPI INVALID JUMPDEST PUSH1 0x20 MUL PUSH1 0x20 ADD ADD MLOAD DUP2 MSTORE PUSH1 0x20 ADD SWAP1 DUP2 MSTORE PUSH1 0x20 ADD PUSH1 0x0 KECCAK256 SLOAD EQ PUSH2 0xC9E JUMPI PUSH1 0x1 SLOAD PUSH1 0x0 DUP11 DUP2 MSTORE PUSH1 0x4 PUSH1 0x20 MSTORE PUSH1 0x40 DUP2 KECCAK256 DUP5 MLOAD PUSH1 0x1 PUSH1 0x1 PUSH1 0xA0 SHL SUB SWAP1 SWAP4 AND SWAP3 PUSH4 0xEE8CA3B5 SWAP3 SWAP1 DUP7 SWAP1 DUP7 SWAP1 DUP2 LT PUSH2 0xC38 JUMPI INVALID JUMPDEST PUSH1 0x20 MUL PUSH1 0x20 ADD ADD MLOAD DUP2 MSTORE PUSH1 0x20 ADD SWAP1 DUP2 MSTORE PUSH1 0x20 ADD PUSH1 0x0 KECCAK256 SLOAD PUSH1 0x40 MLOAD DUP3 PUSH4 0xFFFFFFFF AND PUSH1 0xE0 SHL DUP2 MSTORE PUSH1 0x4 ADD PUSH2 0xC6B SWAP2 SWAP1 PUSH2 0x40A1 JUMP JUMPDEST PUSH1 0x0 PUSH1 0x40 MLOAD DUP1 DUP4 SUB DUP2 PUSH1 0x0 DUP8 DUP1 EXTCODESIZE ISZERO DUP1 ISZERO PUSH2 0xC85 JUMPI PUSH1 0x0 DUP1 REVERT JUMPDEST POP GAS CALL ISZERO DUP1 ISZERO PUSH2 0xC99 JUMPI RETURNDATASIZE PUSH1 0x0 DUP1 RETURNDATACOPY RETURNDATASIZE PUSH1 0x0 REVERT JUMPDEST POP POP POP POP JUMPDEST PUSH1 0x1 ADD PUSH2 0xBC3 JUMP JUMPDEST POP PUSH1 0x0 PUSH1 0x9 DUP10 DUP2 SLOAD DUP2 LT PUSH2 0xCB6 JUMPI INVALID JUMPDEST PUSH1 0x0 SWAP2 DUP3 MSTORE PUSH1 0x20 SWAP1 SWAP2 KECCAK256 ADD SLOAD DUP5 MLOAD PUSH1 0x40 MLOAD PUSH4 0x31A9108F PUSH1 0xE1 SHL DUP2 MSTORE PUSH1 0x1 PUSH1 0x1 PUSH1 0xA0 SHL SUB SWAP1 SWAP3 AND SWAP2 PUSH4 0x6352211E SWAP2 PUSH2 0xCEF SWAP2 PUSH1 0x4 ADD PUSH2 0x40A1 JUMP JUMPDEST PUSH1 0x20 PUSH1 0x40 MLOAD DUP1 DUP4 SUB DUP2 DUP7 DUP1 EXTCODESIZE ISZERO DUP1 ISZERO PUSH2 0xD07 JUMPI PUSH1 0x0 DUP1 REVERT JUMPDEST POP GAS STATICCALL ISZERO DUP1 ISZERO PUSH2 0xD1B JUMPI RETURNDATASIZE PUSH1 0x0 DUP1 RETURNDATACOPY RETURNDATASIZE PUSH1 0x0 REVERT JUMPDEST POP POP POP POP PUSH1 0x40 MLOAD RETURNDATASIZE PUSH1 0x1F NOT PUSH1 0x1F DUP3 ADD AND DUP3 ADD DUP1 PUSH1 0x40 MSTORE POP DUP2 ADD SWAP1 PUSH2 0xD3F SWAP2 SWAP1 PUSH2 0x387C JUMP JUMPDEST SWAP1 POP DUP4 PUSH1 0x0 ADD MLOAD DUP10 DUP3 PUSH1 0x1 PUSH1 0x1 PUSH1 0xA0 SHL SUB AND PUSH32 0x37AACCA185D8A700A40142541D808E10BC61CA82EB929CB3DF05DE903A64DC84 DUP12 PUSH1 0x40 MLOAD PUSH2 0xD80 SWAP2 SWAP1 PUSH2 0x40A1 JUMP JUMPDEST PUSH1 0x40 MLOAD DUP1 SWAP2 SUB SWAP1 LOG4 PUSH1 0x0 JUMPDEST DUP4 MLOAD DUP2 LT ISZERO PUSH2 0x1008 JUMPI PUSH1 0x3 SLOAD PUSH1 0x1 PUSH1 0xA0 SHL SWAP1 DIV PUSH1 0xFF AND DUP1 ISZERO PUSH2 0xDC5 JUMPI POP DUP4 DUP2 DUP2 MLOAD DUP2 LT PUSH2 0xDB4 JUMPI INVALID JUMPDEST PUSH1 0x20 MUL PUSH1 0x20 ADD ADD MLOAD PUSH1 0x40 ADD MLOAD PUSH1 0x0 EQ ISZERO JUMPDEST ISZERO PUSH2 0x1000 JUMPI DUP10 DUP3 PUSH1 0x1 PUSH1 0x1 PUSH1 0xA0 SHL SUB AND PUSH32 0xAF1B9133E30ADA3FEE6CB47A46B80B2DFEE808DC5BC919F712BEB9EE33B465D6 DUP7 DUP5 DUP2 MLOAD DUP2 LT PUSH2 0xE02 JUMPI INVALID JUMPDEST PUSH1 0x20 MUL PUSH1 0x20 ADD ADD MLOAD PUSH1 0x40 ADD MLOAD PUSH1 0x40 MLOAD PUSH2 0xE1B SWAP2 SWAP1 PUSH2 0x40A1 JUMP JUMPDEST PUSH1 0x40 MLOAD DUP1 SWAP2 SUB SWAP1 LOG3 PUSH1 0x1 PUSH1 0x0 SWAP1 SLOAD SWAP1 PUSH2 0x100 EXP SWAP1 DIV PUSH1 0x1 PUSH1 0x1 PUSH1 0xA0 SHL SUB AND PUSH1 0x1 PUSH1 0x1 PUSH1 0xA0 SHL SUB AND PUSH4 0xB9F45ADB ADDRESS PUSH4 0xC71A6D06 PUSH1 0xE0 SHL PUSH1 0x2 PUSH1 0x0 SWAP1 SLOAD SWAP1 PUSH2 0x100 EXP SWAP1 DIV PUSH1 0x1 PUSH1 0x1 PUSH1 0xA0 SHL SUB AND PUSH4 0xE34CA65D PUSH1 0xE0 SHL DUP16 DUP11 DUP9 DUP2 MLOAD DUP2 LT PUSH2 0xE7B JUMPI INVALID JUMPDEST PUSH1 0x20 MUL PUSH1 0x20 ADD ADD MLOAD PUSH1 0x40 ADD MLOAD DUP12 DUP10 DUP2 MLOAD DUP2 LT PUSH2 0xE93 JUMPI INVALID JUMPDEST PUSH1 0x20 MUL PUSH1 0x20 ADD ADD MLOAD PUSH1 0x80 ADD MLOAD PUSH1 0x0 PUSH1 0x2 DUP2 LT PUSH2 0xEAB JUMPI INVALID JUMPDEST PUSH1 0x20 MUL ADD MLOAD DUP13 DUP11 DUP2 MLOAD DUP2 LT PUSH2 0xEBC JUMPI INVALID JUMPDEST PUSH1 0x20 MUL PUSH1 0x20 ADD ADD MLOAD PUSH1 0x80 ADD MLOAD PUSH1 0x1 PUSH1 0x2 DUP2 LT PUSH2 0xED4 JUMPI INVALID JUMPDEST PUSH1 0x20 MUL ADD MLOAD DUP14 DUP12 DUP2 MLOAD DUP2 LT PUSH2 0xEE5 JUMPI INVALID JUMPDEST PUSH1 0x20 MUL PUSH1 0x20 ADD ADD MLOAD PUSH1 0xA0 ADD MLOAD PUSH1 0x0 PUSH1 0x3 DUP2 LT PUSH2 0xEFD JUMPI INVALID JUMPDEST PUSH1 0x20 MUL ADD MLOAD PUSH1 0x40 MLOAD PUSH1 0x24 ADD PUSH2 0xF16 SWAP6 SWAP5 SWAP4 SWAP3 SWAP2 SWAP1 PUSH2 0x4601 JUMP JUMPDEST PUSH1 0x40 DUP1 MLOAD PUSH1 0x1F NOT DUP2 DUP5 SUB ADD DUP2 MSTORE SWAP2 DUP2 MSTORE PUSH1 0x20 DUP3 ADD DUP1 MLOAD PUSH1 0x1 PUSH1 0x1 PUSH1 0xE0 SHL SUB AND PUSH1 0x1 PUSH1 0x1 PUSH1 0xE0 SHL SUB NOT SWAP5 DUP6 AND OR SWAP1 MSTORE PUSH1 0x3 SLOAD SWAP1 MLOAD PUSH1 0xE0 DUP9 SWAP1 SHL SWAP1 SWAP4 AND DUP4 MSTORE PUSH2 0xF6E SWAP6 SWAP5 SWAP4 SWAP3 PUSH1 0x1 PUSH1 0x1 PUSH1 0xA0 SHL SUB SWAP1 SWAP2 AND SWAP1 PUSH1 0x4 ADD PUSH2 0x3FE3 JUMP JUMPDEST PUSH1 0x20 PUSH1 0x40 MLOAD DUP1 DUP4 SUB DUP2 PUSH1 0x0 DUP8 DUP1 EXTCODESIZE ISZERO DUP1 ISZERO PUSH2 0xF88 JUMPI PUSH1 0x0 DUP1 REVERT JUMPDEST POP GAS CALL ISZERO DUP1 ISZERO PUSH2 0xF9C JUMPI RETURNDATASIZE PUSH1 0x0 DUP1 RETURNDATACOPY RETURNDATASIZE PUSH1 0x0 REVERT JUMPDEST POP POP POP POP PUSH1 0x40 MLOAD RETURNDATASIZE PUSH1 0x1F NOT PUSH1 0x1F DUP3 ADD AND DUP3 ADD DUP1 PUSH1 0x40 MSTORE POP DUP2 ADD SWAP1 PUSH2 0xFC0 SWAP2 SWAP1 PUSH2 0x399E JUMP JUMPDEST PUSH1 0x4 PUSH1 0x0 DUP13 DUP2 MSTORE PUSH1 0x20 ADD SWAP1 DUP2 MSTORE PUSH1 0x20 ADD PUSH1 0x0 KECCAK256 PUSH1 0x0 DUP7 DUP5 DUP2 MLOAD DUP2 LT PUSH2 0xFE1 JUMPI INVALID JUMPDEST PUSH1 0x20 MUL PUSH1 0x20 ADD ADD MLOAD PUSH1 0x40 ADD MLOAD DUP2 MSTORE PUSH1 0x20 ADD SWAP1 DUP2 MSTORE PUSH1 0x20 ADD PUSH1 0x0 KECCAK256 DUP2 SWAP1 SSTORE POP JUMPDEST PUSH1 0x1 ADD PUSH2 0xD8B JUMP JUMPDEST POP PUSH1 0x0 PUSH2 0x1022 PUSH2 0x7530 PUSH2 0x101C GAS DUP10 SWAP1 PUSH2 0x31CD JUMP JUMPDEST SWAP1 PUSH2 0x320F JUMP JUMPDEST SWAP1 POP PUSH1 0x0 PUSH2 0x1030 DUP3 GASPRICE PUSH2 0x3193 JUMP JUMPDEST PUSH1 0x1 PUSH1 0x1 PUSH1 0xA0 SHL SUB DUP5 AND PUSH1 0x0 SWAP1 DUP2 MSTORE PUSH1 0x6 PUSH1 0x20 MSTORE PUSH1 0x40 SWAP1 KECCAK256 SLOAD SWAP1 SWAP2 POP DUP2 GT ISZERO PUSH2 0x106B JUMPI PUSH1 0x40 MLOAD PUSH3 0x461BCD PUSH1 0xE5 SHL DUP2 MSTORE PUSH1 0x4 ADD PUSH2 0x9F0 SWAP1 PUSH2 0x4593 JUMP JUMPDEST PUSH1 0x1 PUSH1 0x1 PUSH1 0xA0 SHL SUB DUP4 AND PUSH1 0x0 SWAP1 DUP2 MSTORE PUSH1 0x6 PUSH1 0x20 MSTORE PUSH1 0x40 SWAP1 KECCAK256 SLOAD PUSH2 0x108E SWAP1 DUP3 PUSH2 0x31CD JUMP JUMPDEST PUSH1 0x1 PUSH1 0x1 PUSH1 0xA0 SHL SUB DUP5 AND PUSH1 0x0 SWAP1 DUP2 MSTORE PUSH1 0x6 PUSH1 0x20 MSTORE PUSH1 0x40 DUP1 DUP3 KECCAK256 SWAP3 SWAP1 SWAP3 SSTORE SWAP1 MLOAD CALLER SWAP1 DUP4 SWAP1 PUSH2 0x10BA SWAP1 PUSH2 0x3EFD JUMP JUMPDEST PUSH1 0x0 PUSH1 0x40 MLOAD DUP1 DUP4 SUB DUP2 DUP6 DUP8 GAS CALL SWAP3 POP POP POP RETURNDATASIZE DUP1 PUSH1 0x0 DUP2 EQ PUSH2 0x10F7 JUMPI PUSH1 0x40 MLOAD SWAP2 POP PUSH1 0x1F NOT PUSH1 0x3F RETURNDATASIZE ADD AND DUP3 ADD PUSH1 0x40 MSTORE RETURNDATASIZE DUP3 MSTORE RETURNDATASIZE PUSH1 0x0 PUSH1 0x20 DUP5 ADD RETURNDATACOPY PUSH2 0x10FC JUMP JUMPDEST PUSH1 0x60 SWAP2 POP JUMPDEST POP POP SWAP1 POP DUP1 PUSH2 0x111D JUMPI PUSH1 0x40 MLOAD PUSH3 0x461BCD PUSH1 0xE5 SHL DUP2 MSTORE PUSH1 0x4 ADD PUSH2 0x9F0 SWAP1 PUSH2 0x4400 JUMP JUMPDEST POP POP PUSH1 0x0 DUP1 SLOAD PUSH1 0xFF PUSH1 0xA8 SHL NOT AND PUSH1 0x1 PUSH1 0xA8 SHL OR SWAP1 SSTORE POP POP POP POP POP POP POP POP POP POP JUMP JUMPDEST PUSH1 0x0 SLOAD PUSH1 0x1 PUSH1 0xA8 SHL SWAP1 DIV PUSH1 0xFF AND PUSH2 0x1167 JUMPI PUSH1 0x40 MLOAD PUSH3 0x461BCD PUSH1 0xE5 SHL DUP2 MSTORE PUSH1 0x4 ADD PUSH2 0x9F0 SWAP1 PUSH2 0x451B JUMP JUMPDEST PUSH1 0x0 DUP1 SLOAD PUSH1 0xFF PUSH1 0xA8 SHL NOT AND DUP2 SSTORE CALLER DUP2 MSTORE PUSH1 0x6 PUSH1 0x20 MSTORE PUSH1 0x40 SWAP1 KECCAK256 SLOAD PUSH2 0x119D JUMPI PUSH1 0x40 MLOAD PUSH3 0x461BCD PUSH1 0xE5 SHL DUP2 MSTORE PUSH1 0x4 ADD PUSH2 0x9F0 SWAP1 PUSH2 0x4160 JUMP JUMPDEST CALLER PUSH1 0x0 DUP2 DUP2 MSTORE PUSH1 0x6 PUSH1 0x20 MSTORE PUSH1 0x40 DUP1 DUP3 KECCAK256 DUP1 SLOAD SWAP1 DUP4 SWAP1 SSTORE SWAP1 MLOAD SWAP1 SWAP3 SWAP1 DUP4 SWAP1 PUSH2 0x11C3 SWAP1 PUSH2 0x3EFD JUMP JUMPDEST PUSH1 0x0 PUSH1 0x40 MLOAD DUP1 DUP4 SUB DUP2 DUP6 DUP8 GAS CALL SWAP3 POP POP POP RETURNDATASIZE DUP1 PUSH1 0x0 DUP2 EQ PUSH2 0x1200 JUMPI PUSH1 0x40 MLOAD SWAP2 POP PUSH1 0x1F NOT PUSH1 0x3F RETURNDATASIZE ADD AND DUP3 ADD PUSH1 0x40 MSTORE RETURNDATASIZE DUP3 MSTORE RETURNDATASIZE PUSH1 0x0 PUSH1 0x20 DUP5 ADD RETURNDATACOPY PUSH2 0x1205 JUMP JUMPDEST PUSH1 0x60 SWAP2 POP JUMPDEST POP POP SWAP1 POP DUP1 PUSH2 0x1226 JUMPI PUSH1 0x40 MLOAD PUSH3 0x461BCD PUSH1 0xE5 SHL DUP2 MSTORE PUSH1 0x4 ADD PUSH2 0x9F0 SWAP1 PUSH2 0x4400 JUMP JUMPDEST POP POP PUSH1 0x0 DUP1 SLOAD PUSH1 0xFF PUSH1 0xA8 SHL NOT AND PUSH1 0x1 PUSH1 0xA8 SHL OR SWAP1 SSTORE JUMP JUMPDEST PUSH2 0x1245 PUSH2 0x3234 JUMP JUMPDEST PUSH1 0x0 SLOAD PUSH1 0x1 PUSH1 0x1 PUSH1 0xA0 SHL SUB SWAP1 DUP2 AND SWAP2 AND EQ PUSH2 0x1272 JUMPI PUSH1 0x40 MLOAD PUSH3 0x461BCD PUSH1 0xE5 SHL DUP2 MSTORE PUSH1 0x4 ADD PUSH2 0x9F0 SWAP1 PUSH2 0x43CB JUMP JUMPDEST PUSH1 0x1 PUSH1 0x1 PUSH1 0xA0 SHL SUB AND PUSH1 0x0 SWAP1 DUP2 MSTORE PUSH1 0x8 PUSH1 0x20 MSTORE PUSH1 0x40 SWAP1 KECCAK256 DUP1 SLOAD PUSH1 0xFF NOT AND SWAP1 SSTORE JUMP JUMPDEST PUSH2 0x129B PUSH2 0x3234 JUMP JUMPDEST PUSH1 0x0 SLOAD PUSH1 0x1 PUSH1 0x1 PUSH1 0xA0 SHL SUB SWAP1 DUP2 AND SWAP2 AND EQ PUSH2 0x12C8 JUMPI PUSH1 0x40 MLOAD PUSH3 0x461BCD PUSH1 0xE5 SHL DUP2 MSTORE PUSH1 0x4 ADD PUSH2 0x9F0 SWAP1 PUSH2 0x43CB JUMP JUMPDEST PUSH1 0x1 PUSH1 0x1 PUSH1 0xA0 SHL SUB DUP2 AND PUSH1 0x0 SWAP1 DUP2 MSTORE PUSH1 0x10 PUSH1 0x20 MSTORE PUSH1 0x40 SWAP1 KECCAK256 SLOAD PUSH1 0xFF AND PUSH1 0x1 EQ PUSH2 0x1303 JUMPI PUSH1 0x40 MLOAD PUSH3 0x461BCD PUSH1 0xE5 SHL DUP2 MSTORE PUSH1 0x4 ADD PUSH2 0x9F0 SWAP1 PUSH2 0x44CF JUMP JUMPDEST PUSH1 0x1 PUSH1 0x1 PUSH1 0xA0 SHL SUB AND PUSH1 0x0 SWAP1 DUP2 MSTORE PUSH1 0x10 PUSH1 0x20 MSTORE PUSH1 0x40 SWAP1 KECCAK256 DUP1 SLOAD PUSH1 0xFF NOT AND PUSH1 0x2 OR SWAP1 SSTORE JUMP JUMPDEST PUSH1 0x0 DUP2 JUMP JUMPDEST PUSH2 0x1334 PUSH2 0x3234 JUMP JUMPDEST PUSH1 0x0 SLOAD PUSH1 0x1 PUSH1 0x1 PUSH1 0xA0 SHL SUB SWAP1 DUP2 AND SWAP2 AND EQ PUSH2 0x1361 JUMPI PUSH1 0x40 MLOAD PUSH3 0x461BCD PUSH1 0xE5 SHL DUP2 MSTORE PUSH1 0x4 ADD PUSH2 0x9F0 SWAP1 PUSH2 0x43CB JUMP JUMPDEST PUSH1 0x1 PUSH1 0x1 PUSH1 0xA0 SHL SUB DUP2 AND PUSH1 0x0 SWAP1 DUP2 MSTORE PUSH1 0xA PUSH1 0x20 MSTORE PUSH1 0x40 SWAP1 KECCAK256 SLOAD PUSH1 0xFF AND ISZERO PUSH2 0x1387 JUMPI PUSH1 0x0 DUP1 REVERT JUMPDEST PUSH1 0x9 DUP1 SLOAD PUSH1 0x1 PUSH1 0x1 PUSH1 0xA0 SHL SUB SWAP1 SWAP3 AND PUSH1 0x0 DUP2 DUP2 MSTORE PUSH1 0xB PUSH1 0x20 SWAP1 DUP2 MSTORE PUSH1 0x40 DUP1 DUP4 KECCAK256 DUP7 SWAP1 SSTORE PUSH1 0x1 DUP1 DUP8 ADD SWAP1 SWAP6 SSTORE PUSH32 0x6E1540171B6C0C960B71A7020D9F60077F6AF931A8BBF590DA0223DACF75C7AF SWAP1 SWAP6 ADD DUP1 SLOAD PUSH1 0x1 PUSH1 0x1 PUSH1 0xA0 SHL SUB NOT AND DUP5 OR SWAP1 SSTORE SWAP2 DUP2 MSTORE PUSH1 0xA SWAP1 SWAP2 MSTORE SWAP2 SWAP1 SWAP2 KECCAK256 DUP1 SLOAD PUSH1 0xFF NOT AND SWAP1 SWAP2 OR SWAP1 SSTORE JUMP JUMPDEST PUSH1 0x60 PUSH1 0x0 PUSH1 0x9 DUP5 DUP2 SLOAD DUP2 LT PUSH2 0x1410 JUMPI INVALID JUMPDEST PUSH1 0x0 SWAP2 DUP3 MSTORE PUSH1 0x20 SWAP1 SWAP2 KECCAK256 ADD SLOAD DUP4 MLOAD PUSH1 0x1 PUSH1 0x1 PUSH1 0xA0 SHL SUB SWAP1 SWAP2 AND SWAP2 POP PUSH1 0x60 SWAP1 PUSH1 0x1 PUSH1 0x1 PUSH1 0x40 SHL SUB DUP2 GT DUP1 ISZERO PUSH2 0x1443 JUMPI PUSH1 0x0 DUP1 REVERT JUMPDEST POP PUSH1 0x40 MLOAD SWAP1 DUP1 DUP3 MSTORE DUP1 PUSH1 0x20 MUL PUSH1 0x20 ADD DUP3 ADD PUSH1 0x40 MSTORE DUP1 ISZERO PUSH2 0x147D JUMPI DUP2 PUSH1 0x20 ADD JUMPDEST PUSH2 0x146A PUSH2 0x355F JUMP JUMPDEST DUP2 MSTORE PUSH1 0x20 ADD SWAP1 PUSH1 0x1 SWAP1 SUB SWAP1 DUP2 PUSH2 0x1462 JUMPI SWAP1 POP JUMPDEST POP SWAP1 POP PUSH1 0x0 JUMPDEST DUP5 MLOAD DUP2 LT ISZERO PUSH2 0x153E JUMPI DUP3 PUSH1 0x1 PUSH1 0x1 PUSH1 0xA0 SHL SUB AND PUSH4 0x21603F43 DUP7 DUP4 DUP2 MLOAD DUP2 LT PUSH2 0x14A7 JUMPI INVALID JUMPDEST PUSH1 0x20 MUL PUSH1 0x20 ADD ADD MLOAD PUSH1 0x40 MLOAD DUP3 PUSH4 0xFFFFFFFF AND PUSH1 0xE0 SHL DUP2 MSTORE PUSH1 0x4 ADD PUSH2 0x14CB SWAP2 SWAP1 PUSH2 0x40A1 JUMP JUMPDEST PUSH1 0x0 PUSH1 0x40 MLOAD DUP1 DUP4 SUB DUP2 DUP7 DUP1 EXTCODESIZE ISZERO DUP1 ISZERO PUSH2 0x14E3 JUMPI PUSH1 0x0 DUP1 REVERT JUMPDEST POP GAS STATICCALL ISZERO DUP1 ISZERO PUSH2 0x14F7 JUMPI RETURNDATASIZE PUSH1 0x0 DUP1 RETURNDATACOPY RETURNDATASIZE PUSH1 0x0 REVERT JUMPDEST POP POP POP POP PUSH1 0x40 MLOAD RETURNDATASIZE PUSH1 0x0 DUP3 RETURNDATACOPY PUSH1 0x1F RETURNDATASIZE SWAP1 DUP2 ADD PUSH1 0x1F NOT AND DUP3 ADD PUSH1 0x40 MSTORE PUSH2 0x151F SWAP2 SWAP1 DUP2 ADD SWAP1 PUSH2 0x3A00 JUMP JUMPDEST DUP3 DUP3 DUP2 MLOAD DUP2 LT PUSH2 0x152B JUMPI INVALID JUMPDEST PUSH1 0x20 SWAP1 DUP2 MUL SWAP2 SWAP1 SWAP2 ADD ADD MSTORE PUSH1 0x1 ADD PUSH2 0x1483 JUMP JUMPDEST POP SWAP2 POP POP JUMPDEST SWAP3 SWAP2 POP POP JUMP JUMPDEST PUSH20 0x22B20054BBD6DC5C23D7C7595E092CA728A00C32 DUP2 JUMP JUMPDEST PUSH1 0x60 PUSH1 0x0 PUSH1 0x9 DUP5 DUP2 SLOAD DUP2 LT PUSH2 0x1572 JUMPI INVALID JUMPDEST PUSH1 0x0 SWAP2 DUP3 MSTORE PUSH1 0x20 DUP3 KECCAK256 ADD SLOAD PUSH1 0x40 MLOAD PUSH4 0x1BF744DB PUSH1 0xE0 SHL DUP2 MSTORE PUSH1 0x1 PUSH1 0x1 PUSH1 0xA0 SHL SUB SWAP1 SWAP2 AND SWAP3 POP DUP3 SWAP1 PUSH4 0x1BF744DB SWAP1 PUSH2 0x15AD SWAP1 DUP8 SWAP1 PUSH1 0x4 ADD PUSH2 0x40A1 JUMP JUMPDEST PUSH1 0x20 PUSH1 0x40 MLOAD DUP1 DUP4 SUB DUP2 DUP7 DUP1 EXTCODESIZE ISZERO DUP1 ISZERO PUSH2 0x15C5 JUMPI PUSH1 0x0 DUP1 REVERT JUMPDEST POP GAS STATICCALL ISZERO DUP1 ISZERO PUSH2 0x15D9 JUMPI RETURNDATASIZE PUSH1 0x0 DUP1 RETURNDATACOPY RETURNDATASIZE PUSH1 0x0 REVERT JUMPDEST POP POP POP POP PUSH1 0x40 MLOAD RETURNDATASIZE PUSH1 0x1F NOT PUSH1 0x1F DUP3 ADD AND DUP3 ADD DUP1 PUSH1 0x40 MSTORE POP DUP2 ADD SWAP1 PUSH2 0x15FD SWAP2 SWAP1 PUSH2 0x399E JUMP JUMPDEST SWAP1 POP PUSH1 0x60 DUP2 PUSH1 0x1 PUSH1 0x1 PUSH1 0x40 SHL SUB DUP2 GT DUP1 ISZERO PUSH2 0x1617 JUMPI PUSH1 0x0 DUP1 REVERT JUMPDEST POP PUSH1 0x40 MLOAD SWAP1 DUP1 DUP3 MSTORE DUP1 PUSH1 0x20 MUL PUSH1 0x20 ADD DUP3 ADD PUSH1 0x40 MSTORE DUP1 ISZERO PUSH2 0x1651 JUMPI DUP2 PUSH1 0x20 ADD JUMPDEST PUSH2 0x163E PUSH2 0x355F JUMP JUMPDEST DUP2 MSTORE PUSH1 0x20 ADD SWAP1 PUSH1 0x1 SWAP1 SUB SWAP1 DUP2 PUSH2 0x1636 JUMPI SWAP1 POP JUMPDEST POP SWAP1 POP PUSH1 0x0 JUMPDEST DUP3 DUP2 LT ISZERO PUSH2 0x1774 JUMPI PUSH1 0x40 MLOAD PUSH4 0x915B9859 PUSH1 0xE0 SHL DUP2 MSTORE PUSH1 0x1 PUSH1 0x1 PUSH1 0xA0 SHL SUB DUP6 AND SWAP1 PUSH4 0x21603F43 SWAP1 DUP3 SWAP1 PUSH4 0x915B9859 SWAP1 PUSH2 0x1695 SWAP1 DUP12 SWAP1 DUP8 SWAP1 PUSH1 0x4 ADD PUSH2 0x45F3 JUMP JUMPDEST PUSH1 0x20 PUSH1 0x40 MLOAD DUP1 DUP4 SUB DUP2 DUP7 DUP1 EXTCODESIZE ISZERO DUP1 ISZERO PUSH2 0x16AD JUMPI PUSH1 0x0 DUP1 REVERT JUMPDEST POP GAS STATICCALL ISZERO DUP1 ISZERO PUSH2 0x16C1 JUMPI RETURNDATASIZE PUSH1 0x0 DUP1 RETURNDATACOPY RETURNDATASIZE PUSH1 0x0 REVERT JUMPDEST POP POP POP POP PUSH1 0x40 MLOAD RETURNDATASIZE PUSH1 0x1F NOT PUSH1 0x1F DUP3 ADD AND DUP3 ADD DUP1 PUSH1 0x40 MSTORE POP DUP2 ADD SWAP1 PUSH2 0x16E5 SWAP2 SWAP1 PUSH2 0x399E JUMP JUMPDEST PUSH1 0x40 MLOAD DUP3 PUSH4 0xFFFFFFFF AND PUSH1 0xE0 SHL DUP2 MSTORE PUSH1 0x4 ADD PUSH2 0x1701 SWAP2 SWAP1 PUSH2 0x40A1 JUMP JUMPDEST PUSH1 0x0 PUSH1 0x40 MLOAD DUP1 DUP4 SUB DUP2 DUP7 DUP1 EXTCODESIZE ISZERO DUP1 ISZERO PUSH2 0x1719 JUMPI PUSH1 0x0 DUP1 REVERT JUMPDEST POP GAS STATICCALL ISZERO DUP1 ISZERO PUSH2 0x172D JUMPI RETURNDATASIZE PUSH1 0x0 DUP1 RETURNDATACOPY RETURNDATASIZE PUSH1 0x0 REVERT JUMPDEST POP POP POP POP PUSH1 0x40 MLOAD RETURNDATASIZE PUSH1 0x0 DUP3 RETURNDATACOPY PUSH1 0x1F RETURNDATASIZE SWAP1 DUP2 ADD PUSH1 0x1F NOT AND DUP3 ADD PUSH1 0x40 MSTORE PUSH2 0x1755 SWAP2 SWAP1 DUP2 ADD SWAP1 PUSH2 0x3A00 JUMP JUMPDEST DUP3 DUP3 DUP2 MLOAD DUP2 LT PUSH2 0x1761 JUMPI INVALID JUMPDEST PUSH1 0x20 SWAP1 DUP2 MUL SWAP2 SWAP1 SWAP2 ADD ADD MSTORE PUSH1 0x1 ADD PUSH2 0x1657 JUMP JUMPDEST POP SWAP6 SWAP5 POP POP POP POP POP JUMP JUMPDEST PUSH2 0x1786 PUSH2 0x3234 JUMP JUMPDEST PUSH1 0x0 SLOAD PUSH1 0x1 PUSH1 0x1 PUSH1 0xA0 SHL SUB SWAP1 DUP2 AND SWAP2 AND EQ PUSH2 0x17B3 JUMPI PUSH1 0x40 MLOAD PUSH3 0x461BCD PUSH1 0xE5 SHL DUP2 MSTORE PUSH1 0x4 ADD PUSH2 0x9F0 SWAP1 PUSH2 0x43CB JUMP JUMPDEST PUSH2 0x17BB PUSH2 0x3238 JUMP JUMPDEST JUMP JUMPDEST PUSH1 0x10 PUSH1 0x20 MSTORE PUSH1 0x0 SWAP1 DUP2 MSTORE PUSH1 0x40 SWAP1 KECCAK256 SLOAD PUSH1 0xFF AND DUP2 JUMP JUMPDEST PUSH1 0x0 SLOAD PUSH1 0x1 PUSH1 0xA8 SHL SWAP1 DIV PUSH1 0xFF AND PUSH2 0x17FB JUMPI PUSH1 0x40 MLOAD PUSH3 0x461BCD PUSH1 0xE5 SHL DUP2 MSTORE PUSH1 0x4 ADD PUSH2 0x9F0 SWAP1 PUSH2 0x451B JUMP JUMPDEST PUSH1 0x0 DUP1 SLOAD PUSH1 0xFF PUSH1 0xA8 SHL NOT AND SWAP1 SSTORE PUSH1 0x60 PUSH2 0x1814 DUP4 DUP4 PUSH2 0x1561 JUMP JUMPDEST SWAP1 POP PUSH1 0x0 JUMPDEST DUP2 MLOAD DUP2 LT ISZERO PUSH2 0x190B JUMPI PUSH1 0x4 PUSH1 0x0 DUP6 DUP2 MSTORE PUSH1 0x20 ADD SWAP1 DUP2 MSTORE PUSH1 0x20 ADD PUSH1 0x0 KECCAK256 PUSH1 0x0 DUP4 DUP4 DUP2 MLOAD DUP2 LT PUSH2 0x1843 JUMPI INVALID JUMPDEST PUSH1 0x20 MUL PUSH1 0x20 ADD ADD MLOAD PUSH1 0x40 ADD MLOAD DUP2 MSTORE PUSH1 0x20 ADD SWAP1 DUP2 MSTORE PUSH1 0x20 ADD PUSH1 0x0 KECCAK256 SLOAD PUSH1 0x0 DUP1 SHL EQ PUSH2 0x1903 JUMPI PUSH1 0x1 SLOAD PUSH1 0x0 DUP6 DUP2 MSTORE PUSH1 0x4 PUSH1 0x20 MSTORE PUSH1 0x40 DUP2 KECCAK256 DUP5 MLOAD PUSH1 0x1 PUSH1 0x1 PUSH1 0xA0 SHL SUB SWAP1 SWAP4 AND SWAP3 PUSH4 0xEE8CA3B5 SWAP3 SWAP1 DUP7 SWAP1 DUP7 SWAP1 DUP2 LT PUSH2 0x1899 JUMPI INVALID JUMPDEST PUSH1 0x20 MUL PUSH1 0x20 ADD ADD MLOAD PUSH1 0x40 ADD MLOAD DUP2 MSTORE PUSH1 0x20 ADD SWAP1 DUP2 MSTORE PUSH1 0x20 ADD PUSH1 0x0 KECCAK256 SLOAD PUSH1 0x40 MLOAD DUP3 PUSH4 0xFFFFFFFF AND PUSH1 0xE0 SHL DUP2 MSTORE PUSH1 0x4 ADD PUSH2 0x18D0 SWAP2 SWAP1 PUSH2 0x40A1 JUMP JUMPDEST PUSH1 0x0 PUSH1 0x40 MLOAD DUP1 DUP4 SUB DUP2 PUSH1 0x0 DUP8 DUP1 EXTCODESIZE ISZERO DUP1 ISZERO PUSH2 0x18EA JUMPI PUSH1 0x0 DUP1 REVERT JUMPDEST POP GAS CALL ISZERO DUP1 ISZERO PUSH2 0x18FE JUMPI RETURNDATASIZE PUSH1 0x0 DUP1 RETURNDATACOPY RETURNDATASIZE PUSH1 0x0 REVERT JUMPDEST POP POP POP POP JUMPDEST PUSH1 0x1 ADD PUSH2 0x1819 JUMP JUMPDEST POP PUSH1 0x9 DUP4 DUP2 SLOAD DUP2 LT PUSH2 0x1919 JUMPI INVALID JUMPDEST PUSH1 0x0 SWAP2 DUP3 MSTORE PUSH1 0x20 SWAP1 SWAP2 KECCAK256 ADD SLOAD PUSH1 0x40 MLOAD PUSH4 0xF3FEF3A3 PUSH1 0xE0 SHL DUP2 MSTORE PUSH1 0x1 PUSH1 0x1 PUSH1 0xA0 SHL SUB SWAP1 SWAP2 AND SWAP1 PUSH4 0xF3FEF3A3 SWAP1 PUSH2 0x1954 SWAP1 CALLER SWAP1 DUP7 SWAP1 PUSH1 0x4 ADD PUSH2 0x3F69 JUMP JUMPDEST PUSH1 0x0 PUSH1 0x40 MLOAD DUP1 DUP4 SUB DUP2 PUSH1 0x0 DUP8 DUP1 EXTCODESIZE ISZERO DUP1 ISZERO PUSH2 0x196E JUMPI PUSH1 0x0 DUP1 REVERT JUMPDEST POP GAS CALL ISZERO DUP1 ISZERO PUSH2 0x1982 JUMPI RETURNDATASIZE PUSH1 0x0 DUP1 RETURNDATACOPY RETURNDATASIZE PUSH1 0x0 REVERT JUMPDEST POP POP PUSH1 0x40 MLOAD DUP5 SWAP3 POP DUP6 SWAP2 POP CALLER SWAP1 PUSH32 0xF279E6A1F5E320CCA91135676D9CB6E44CA8A08C0B88342BCDB1144F6511B568 SWAP1 PUSH1 0x0 SWAP1 LOG4 POP POP PUSH1 0x0 DUP1 SLOAD PUSH1 0xFF PUSH1 0xA8 SHL NOT AND PUSH1 0x1 PUSH1 0xA8 SHL OR SWAP1 SSTORE POP JUMP JUMPDEST PUSH1 0x7 DUP2 DUP2 SLOAD DUP2 LT PUSH2 0x19DA JUMPI INVALID JUMPDEST PUSH1 0x0 SWAP2 DUP3 MSTORE PUSH1 0x20 SWAP1 SWAP2 KECCAK256 ADD SLOAD PUSH1 0x1 PUSH1 0x1 PUSH1 0xA0 SHL SUB AND SWAP1 POP DUP2 JUMP JUMPDEST PUSH1 0x3 SLOAD PUSH1 0x1 PUSH1 0xA0 SHL SWAP1 DIV PUSH1 0xFF AND DUP2 JUMP JUMPDEST PUSH2 0x1A0C PUSH2 0x3234 JUMP JUMPDEST PUSH1 0x0 SLOAD PUSH1 0x1 PUSH1 0x1 PUSH1 0xA0 SHL SUB SWAP1 DUP2 AND SWAP2 AND EQ PUSH2 0x1A39 JUMPI PUSH1 0x40 MLOAD PUSH3 0x461BCD PUSH1 0xE5 SHL DUP2 MSTORE PUSH1 0x4 ADD PUSH2 0x9F0 SWAP1 PUSH2 0x43CB JUMP JUMPDEST PUSH1 0x9 DUP4 DUP2 SLOAD DUP2 LT PUSH2 0x1A46 JUMPI INVALID JUMPDEST PUSH1 0x0 SWAP2 DUP3 MSTORE PUSH1 0x20 SWAP1 SWAP2 KECCAK256 ADD SLOAD PUSH1 0x40 MLOAD PUSH4 0x575272DD PUSH1 0xE1 SHL DUP2 MSTORE PUSH1 0x1 PUSH1 0x1 PUSH1 0xA0 SHL SUB SWAP1 SWAP2 AND SWAP1 PUSH4 0xAEA4E5BA SWAP1 PUSH2 0x1A81 SWAP1 DUP6 SWAP1 DUP6 SWAP1 PUSH1 0x4 ADD PUSH2 0x3F69 JUMP JUMPDEST PUSH1 0x0 PUSH1 0x40 MLOAD DUP1 DUP4 SUB DUP2 PUSH1 0x0 DUP8 DUP1 EXTCODESIZE ISZERO DUP1 ISZERO PUSH2 0x1A9B JUMPI PUSH1 0x0 DUP1 REVERT JUMPDEST POP GAS CALL ISZERO DUP1 ISZERO PUSH2 0x1AAF JUMPI RETURNDATASIZE PUSH1 0x0 DUP1 RETURNDATACOPY RETURNDATASIZE PUSH1 0x0 REVERT JUMPDEST POP POP POP POP POP POP POP JUMP JUMPDEST PUSH1 0x2 DUP2 JUMP JUMPDEST PUSH2 0x1AC5 PUSH2 0x355F JUMP JUMPDEST PUSH1 0x9 DUP4 DUP2 SLOAD DUP2 LT PUSH2 0x1AD2 JUMPI INVALID JUMPDEST PUSH1 0x0 SWAP2 DUP3 MSTORE PUSH1 0x20 SWAP1 SWAP2 KECCAK256 ADD SLOAD PUSH1 0x40 MLOAD PUSH4 0x21603F43 PUSH1 0xE0 SHL DUP2 MSTORE PUSH1 0x1 PUSH1 0x1 PUSH1 0xA0 SHL SUB SWAP1 SWAP2 AND SWAP1 PUSH4 0x21603F43 SWAP1 PUSH2 0x1B0B SWAP1 DUP6 SWAP1 PUSH1 0x4 ADD PUSH2 0x40A1 JUMP JUMPDEST PUSH1 0x0 PUSH1 0x40 MLOAD DUP1 DUP4 SUB DUP2 DUP7 DUP1 EXTCODESIZE ISZERO DUP1 ISZERO PUSH2 0x1B23 JUMPI PUSH1 0x0 DUP1 REVERT JUMPDEST POP GAS STATICCALL ISZERO DUP1 ISZERO PUSH2 0x1B37 JUMPI RETURNDATASIZE PUSH1 0x0 DUP1 RETURNDATACOPY RETURNDATASIZE PUSH1 0x0 REVERT JUMPDEST POP POP POP POP PUSH1 0x40 MLOAD RETURNDATASIZE PUSH1 0x0 DUP3 RETURNDATACOPY PUSH1 0x1F RETURNDATASIZE SWAP1 DUP2 ADD PUSH1 0x1F NOT AND DUP3 ADD PUSH1 0x40 MSTORE PUSH2 0x1B5F SWAP2 SWAP1 DUP2 ADD SWAP1 PUSH2 0x3A00 JUMP JUMPDEST SWAP4 SWAP3 POP POP POP JUMP JUMPDEST PUSH20 0x7598E84B2E114AB62CAB288CE5F7D5F6BAD35BBA DUP2 JUMP JUMPDEST PUSH1 0x0 SLOAD PUSH1 0x1 PUSH1 0xA0 SHL SWAP1 DIV PUSH1 0xFF AND SWAP1 JUMP JUMPDEST PUSH1 0x2 SLOAD PUSH1 0x1 PUSH1 0x1 PUSH1 0xA0 SHL SUB AND DUP2 JUMP JUMPDEST PUSH1 0x11 DUP2 DUP2 SLOAD DUP2 LT PUSH2 0x19DA JUMPI INVALID JUMPDEST PUSH2 0x1BB2 PUSH2 0x3234 JUMP JUMPDEST PUSH1 0x0 SLOAD PUSH1 0x1 PUSH1 0x1 PUSH1 0xA0 SHL SUB SWAP1 DUP2 AND SWAP2 AND EQ PUSH2 0x1BDF JUMPI PUSH1 0x40 MLOAD PUSH3 0x461BCD PUSH1 0xE5 SHL DUP2 MSTORE PUSH1 0x4 ADD PUSH2 0x9F0 SWAP1 PUSH2 0x43CB JUMP JUMPDEST PUSH1 0x0 DUP1 SLOAD PUSH1 0x40 MLOAD PUSH1 0x1 PUSH1 0x1 PUSH1 0xA0 SHL SUB SWAP1 SWAP2 AND SWAP1 PUSH32 0x8BE0079C531659141344CD1FD0A4F28419497F9722A3DAAFE3B4186F6B6457E0 SWAP1 DUP4 SWAP1 LOG3 PUSH1 0x0 DUP1 SLOAD PUSH1 0x1 PUSH1 0x1 PUSH1 0xA0 SHL SUB NOT AND SWAP1 SSTORE JUMP JUMPDEST PUSH1 0x1 PUSH1 0x1 PUSH1 0xA0 SHL SUB AND PUSH1 0x0 SWAP1 DUP2 MSTORE PUSH1 0xB PUSH1 0x20 MSTORE PUSH1 0x40 SWAP1 KECCAK256 SLOAD SWAP1 JUMP JUMPDEST PUSH2 0x1C4C PUSH2 0x3234 JUMP JUMPDEST PUSH1 0x0 SLOAD PUSH1 0x1 PUSH1 0x1 PUSH1 0xA0 SHL SUB SWAP1 DUP2 AND SWAP2 AND EQ PUSH2 0x1C79 JUMPI PUSH1 0x40 MLOAD PUSH3 0x461BCD PUSH1 0xE5 SHL DUP2 MSTORE PUSH1 0x4 ADD PUSH2 0x9F0 SWAP1 PUSH2 0x43CB JUMP JUMPDEST PUSH1 0x9 DUP3 DUP2 SLOAD DUP2 LT PUSH2 0x1C86 JUMPI INVALID JUMPDEST PUSH1 0x0 SWAP2 DUP3 MSTORE PUSH1 0x20 SWAP1 SWAP2 KECCAK256 ADD SLOAD PUSH1 0x40 MLOAD PUSH4 0x55F804B3 PUSH1 0xE0 SHL DUP2 MSTORE PUSH1 0x1 PUSH1 0x1 PUSH1 0xA0 SHL SUB SWAP1 SWAP2 AND SWAP1 PUSH4 0x55F804B3 SWAP1 PUSH2 0x1CBF SWAP1 DUP5 SWAP1 PUSH1 0x4 ADD PUSH2 0x40AA JUMP JUMPDEST PUSH1 0x0 PUSH1 0x40 MLOAD DUP1 DUP4 SUB DUP2 PUSH1 0x0 DUP8 DUP1 EXTCODESIZE ISZERO DUP1 ISZERO PUSH2 0x1CD9 JUMPI PUSH1 0x0 DUP1 REVERT JUMPDEST POP GAS CALL ISZERO DUP1 ISZERO PUSH2 0x1CED JUMPI RETURNDATASIZE PUSH1 0x0 DUP1 RETURNDATACOPY RETURNDATASIZE PUSH1 0x0 REVERT JUMPDEST POP POP POP POP POP POP JUMP JUMPDEST PUSH1 0x9 SLOAD SWAP1 JUMP JUMPDEST PUSH20 0xEEEEEEEEEEEEEEEEEEEEEEEEEEEEEEEEEEEEEEEE DUP2 JUMP JUMPDEST PUSH2 0x1D1B PUSH2 0x3234 JUMP JUMPDEST PUSH1 0x0 SLOAD PUSH1 0x1 PUSH1 0x1 PUSH1 0xA0 SHL SUB SWAP1 DUP2 AND SWAP2 AND EQ PUSH2 0x1D48 JUMPI PUSH1 0x40 MLOAD PUSH3 0x461BCD PUSH1 0xE5 SHL DUP2 MSTORE PUSH1 0x4 ADD PUSH2 0x9F0 SWAP1 PUSH2 0x43CB JUMP JUMPDEST PUSH2 0x17BB PUSH2 0x32AE JUMP JUMPDEST PUSH1 0x9 DUP2 DUP2 SLOAD DUP2 LT PUSH2 0x19DA JUMPI INVALID JUMPDEST PUSH1 0x4 PUSH1 0x20 SWAP1 DUP2 MSTORE PUSH1 0x0 SWAP3 DUP4 MSTORE PUSH1 0x40 DUP1 DUP5 KECCAK256 SWAP1 SWAP2 MSTORE SWAP1 DUP3 MSTORE SWAP1 KECCAK256 SLOAD DUP2 JUMP JUMPDEST PUSH1 0x0 SLOAD PUSH1 0x1 PUSH1 0x1 PUSH1 0xA0 SHL SUB AND SWAP1 JUMP JUMPDEST PUSH1 0xE SLOAD PUSH1 0xFF AND DUP2 JUMP JUMPDEST PUSH1 0x0 PUSH2 0x1543 PUSH2 0x1DB8 PUSH1 0xD SLOAD PUSH2 0x1DB2 PUSH1 0xC SLOAD DUP7 PUSH2 0x3193 SWAP1 SWAP2 SWAP1 PUSH4 0xFFFFFFFF AND JUMP JUMPDEST SWAP1 PUSH2 0x3314 JUMP JUMPDEST DUP4 SWAP1 PUSH2 0x31CD JUMP JUMPDEST PUSH2 0x1DC7 PUSH2 0x3234 JUMP JUMPDEST PUSH1 0x0 SLOAD PUSH1 0x1 PUSH1 0x1 PUSH1 0xA0 SHL SUB SWAP1 DUP2 AND SWAP2 AND EQ PUSH2 0x1DF4 JUMPI PUSH1 0x40 MLOAD PUSH3 0x461BCD PUSH1 0xE5 SHL DUP2 MSTORE PUSH1 0x4 ADD PUSH2 0x9F0 SWAP1 PUSH2 0x43CB JUMP JUMPDEST DUP2 MLOAD DUP4 MLOAD EQ DUP1 ISZERO PUSH2 0x1E06 JUMPI POP DUP1 MLOAD DUP4 MLOAD EQ JUMPDEST PUSH2 0x1E22 JUMPI PUSH1 0x40 MLOAD PUSH3 0x461BCD PUSH1 0xE5 SHL DUP2 MSTORE PUSH1 0x4 ADD PUSH2 0x9F0 SWAP1 PUSH2 0x4239 JUMP JUMPDEST PUSH1 0x0 JUMPDEST DUP4 MLOAD DUP2 LT ISZERO PUSH2 0x1FC6 JUMPI PUSH1 0x9 DUP6 DUP2 SLOAD DUP2 LT PUSH2 0x1E3B JUMPI INVALID JUMPDEST PUSH1 0x0 SWAP2 DUP3 MSTORE PUSH1 0x20 SWAP1 SWAP2 KECCAK256 ADD SLOAD DUP5 MLOAD PUSH1 0x1 PUSH1 0x1 PUSH1 0xA0 SHL SUB SWAP1 SWAP2 AND SWAP1 PUSH4 0x90A83DC2 SWAP1 DUP7 SWAP1 DUP5 SWAP1 DUP2 LT PUSH2 0x1E67 JUMPI INVALID JUMPDEST PUSH1 0x20 MUL PUSH1 0x20 ADD ADD MLOAD DUP6 DUP5 DUP2 MLOAD DUP2 LT PUSH2 0x1E7B JUMPI INVALID JUMPDEST PUSH1 0x20 MUL PUSH1 0x20 ADD ADD MLOAD DUP6 DUP6 DUP2 MLOAD DUP2 LT PUSH2 0x1E8F JUMPI INVALID JUMPDEST PUSH1 0x20 MUL PUSH1 0x20 ADD ADD MLOAD PUSH1 0x40 MLOAD DUP5 PUSH4 0xFFFFFFFF AND PUSH1 0xE0 SHL DUP2 MSTORE PUSH1 0x4 ADD PUSH2 0x1EB5 SWAP4 SWAP3 SWAP2 SWAP1 PUSH2 0x3FBF JUMP JUMPDEST PUSH1 0x0 PUSH1 0x40 MLOAD DUP1 DUP4 SUB DUP2 PUSH1 0x0 DUP8 DUP1 EXTCODESIZE ISZERO DUP1 ISZERO PUSH2 0x1ECF JUMPI PUSH1 0x0 DUP1 REVERT JUMPDEST POP GAS CALL ISZERO DUP1 ISZERO PUSH2 0x1EE3 JUMPI RETURNDATASIZE PUSH1 0x0 DUP1 RETURNDATACOPY RETURNDATASIZE PUSH1 0x0 REVERT JUMPDEST POP POP POP POP PUSH1 0x12 PUSH1 0x0 DUP5 DUP4 DUP2 MLOAD DUP2 LT PUSH2 0x1EF7 JUMPI INVALID JUMPDEST PUSH1 0x20 SWAP1 DUP2 MUL SWAP2 SWAP1 SWAP2 ADD DUP2 ADD MLOAD PUSH1 0x1 PUSH1 0x1 PUSH1 0xA0 SHL SUB AND DUP3 MSTORE DUP2 ADD SWAP2 SWAP1 SWAP2 MSTORE PUSH1 0x40 ADD PUSH1 0x0 KECCAK256 SLOAD PUSH1 0xFF AND PUSH2 0x1FBE JUMPI PUSH1 0x11 DUP4 DUP3 DUP2 MLOAD DUP2 LT PUSH2 0x1F30 JUMPI INVALID JUMPDEST PUSH1 0x20 SWAP1 DUP2 MUL SWAP2 SWAP1 SWAP2 ADD DUP2 ADD MLOAD DUP3 SLOAD PUSH1 0x1 DUP1 DUP3 ADD DUP6 SSTORE PUSH1 0x0 SWAP5 DUP6 MSTORE SWAP3 DUP5 KECCAK256 ADD DUP1 SLOAD PUSH1 0x1 PUSH1 0x1 PUSH1 0xA0 SHL SUB NOT AND PUSH1 0x1 PUSH1 0x1 PUSH1 0xA0 SHL SUB SWAP1 SWAP3 AND SWAP2 SWAP1 SWAP2 OR SWAP1 SSTORE DUP5 MLOAD SWAP1 SWAP2 PUSH1 0x12 SWAP2 DUP7 SWAP1 DUP6 SWAP1 DUP2 LT PUSH2 0x1F7E JUMPI INVALID JUMPDEST PUSH1 0x20 MUL PUSH1 0x20 ADD ADD MLOAD PUSH1 0x1 PUSH1 0x1 PUSH1 0xA0 SHL SUB AND PUSH1 0x1 PUSH1 0x1 PUSH1 0xA0 SHL SUB AND DUP2 MSTORE PUSH1 0x20 ADD SWAP1 DUP2 MSTORE PUSH1 0x20 ADD PUSH1 0x0 KECCAK256 PUSH1 0x0 PUSH2 0x100 EXP DUP2 SLOAD DUP2 PUSH1 0xFF MUL NOT AND SWAP1 DUP4 ISZERO ISZERO MUL OR SWAP1 SSTORE POP JUMPDEST PUSH1 0x1 ADD PUSH2 0x1E25 JUMP JUMPDEST POP POP POP POP POP JUMP JUMPDEST PUSH2 0x1FD5 PUSH2 0x3234 JUMP JUMPDEST PUSH1 0x0 SLOAD PUSH1 0x1 PUSH1 0x1 PUSH1 0xA0 SHL SUB SWAP1 DUP2 AND SWAP2 AND EQ PUSH2 0x2002 JUMPI PUSH1 0x40 MLOAD PUSH3 0x461BCD PUSH1 0xE5 SHL DUP2 MSTORE PUSH1 0x4 ADD PUSH2 0x9F0 SWAP1 PUSH2 0x43CB JUMP JUMPDEST PUSH1 0x1 PUSH1 0x1 PUSH1 0xA0 SHL SUB AND PUSH1 0x0 SWAP1 DUP2 MSTORE PUSH1 0xA PUSH1 0x20 MSTORE PUSH1 0x40 SWAP1 KECCAK256 DUP1 SLOAD PUSH1 0xFF NOT AND PUSH1 0x2 OR SWAP1 SSTORE JUMP JUMPDEST PUSH2 0x202E PUSH2 0x3234 JUMP JUMPDEST PUSH1 0x0 SLOAD PUSH1 0x1 PUSH1 0x1 PUSH1 0xA0 SHL SUB SWAP1 DUP2 AND SWAP2 AND EQ PUSH2 0x205B JUMPI PUSH1 0x40 MLOAD PUSH3 0x461BCD PUSH1 0xE5 SHL DUP2 MSTORE PUSH1 0x4 ADD PUSH2 0x9F0 SWAP1 PUSH2 0x43CB JUMP JUMPDEST PUSH1 0xE DUP1 SLOAD PUSH1 0xFF NOT AND SWAP2 ISZERO ISZERO SWAP2 SWAP1 SWAP2 OR SWAP1 SSTORE JUMP JUMPDEST PUSH1 0xC SLOAD DUP2 JUMP JUMPDEST PUSH1 0x0 SLOAD PUSH1 0x1 PUSH1 0xA0 SHL SWAP1 DIV PUSH1 0xFF AND ISZERO PUSH2 0x209E JUMPI PUSH1 0x40 MLOAD PUSH3 0x461BCD PUSH1 0xE5 SHL DUP2 MSTORE PUSH1 0x4 ADD PUSH2 0x9F0 SWAP1 PUSH2 0x4329 JUMP JUMPDEST PUSH1 0x0 SLOAD PUSH1 0x1 PUSH1 0xA8 SHL SWAP1 DIV PUSH1 0xFF AND PUSH2 0x20C7 JUMPI PUSH1 0x40 MLOAD PUSH3 0x461BCD PUSH1 0xE5 SHL DUP2 MSTORE PUSH1 0x4 ADD PUSH2 0x9F0 SWAP1 PUSH2 0x451B JUMP JUMPDEST PUSH1 0x0 DUP1 SLOAD PUSH1 0xFF PUSH1 0xA8 SHL NOT AND SWAP1 SSTORE PUSH1 0x9 DUP1 SLOAD PUSH1 0x1 SWAP2 PUSH2 0x2103 SWAP2 DUP9 SWAP1 DUP2 LT PUSH2 0x20E9 JUMPI INVALID JUMPDEST PUSH1 0x0 SWAP2 DUP3 MSTORE PUSH1 0x20 SWAP1 SWAP2 KECCAK256 ADD SLOAD PUSH1 0x1 PUSH1 0x1 PUSH1 0xA0 SHL SUB AND PUSH2 0x3134 JUMP JUMPDEST PUSH1 0xFF AND EQ PUSH2 0x2123 JUMPI PUSH1 0x40 MLOAD PUSH3 0x461BCD PUSH1 0xE5 SHL DUP2 MSTORE PUSH1 0x4 ADD PUSH2 0x9F0 SWAP1 PUSH2 0x4552 JUMP JUMPDEST PUSH1 0x60 PUSH1 0x9 DUP7 DUP2 SLOAD DUP2 LT PUSH2 0x2132 JUMPI INVALID JUMPDEST PUSH1 0x0 SWAP2 DUP3 MSTORE PUSH1 0x20 SWAP1 SWAP2 KECCAK256 ADD SLOAD PUSH1 0x40 MLOAD PUSH4 0xDBB03711 PUSH1 0xE0 SHL DUP2 MSTORE PUSH1 0x1 PUSH1 0x1 PUSH1 0xA0 SHL SUB SWAP1 SWAP2 AND SWAP1 PUSH4 0xDBB03711 SWAP1 PUSH2 0x2171 SWAP1 CALLER SWAP1 DUP10 SWAP1 DUP10 SWAP1 DUP10 SWAP1 PUSH1 0x4 ADD PUSH2 0x3F14 JUMP JUMPDEST PUSH1 0x0 PUSH1 0x40 MLOAD DUP1 DUP4 SUB DUP2 PUSH1 0x0 DUP8 DUP1 EXTCODESIZE ISZERO DUP1 ISZERO PUSH2 0x218B JUMPI PUSH1 0x0 DUP1 REVERT JUMPDEST POP GAS CALL ISZERO DUP1 ISZERO PUSH2 0x219F JUMPI RETURNDATASIZE PUSH1 0x0 DUP1 RETURNDATACOPY RETURNDATASIZE PUSH1 0x0 REVERT JUMPDEST POP POP POP POP PUSH1 0x40 MLOAD RETURNDATASIZE PUSH1 0x0 DUP3 RETURNDATACOPY PUSH1 0x1F RETURNDATASIZE SWAP1 DUP2 ADD PUSH1 0x1F NOT AND DUP3 ADD PUSH1 0x40 MSTORE PUSH2 0x21C7 SWAP2 SWAP1 DUP2 ADD SWAP1 PUSH2 0x3948 JUMP JUMPDEST SWAP1 POP PUSH1 0x60 PUSH2 0x21D5 DUP8 DUP4 PUSH2 0x13FF JUMP JUMPDEST SWAP1 POP DUP7 CALLER PUSH1 0x1 PUSH1 0x1 PUSH1 0xA0 SHL SUB AND PUSH32 0x8F64CA6A175F84DF6403FBA2601D4C5C734EE77F375196788648AEDC05FF57D5 DUP4 PUSH1 0x0 DUP2 MLOAD DUP2 LT PUSH2 0x2210 JUMPI INVALID JUMPDEST PUSH1 0x20 MUL PUSH1 0x20 ADD ADD MLOAD PUSH1 0x0 ADD MLOAD PUSH1 0x40 MLOAD PUSH2 0x2229 SWAP2 SWAP1 PUSH2 0x40A1 JUMP JUMPDEST PUSH1 0x40 MLOAD DUP1 SWAP2 SUB SWAP1 LOG3 PUSH1 0x0 DUP8 DUP2 MSTORE PUSH1 0x5 PUSH1 0x20 MSTORE PUSH1 0x40 DUP2 KECCAK256 DUP3 MLOAD DUP6 SWAP3 SWAP1 DUP5 SWAP1 DUP3 SWAP1 PUSH2 0x224E JUMPI INVALID JUMPDEST PUSH1 0x20 SWAP1 DUP2 MUL SWAP2 SWAP1 SWAP2 ADD DUP2 ADD MLOAD MLOAD DUP3 MSTORE DUP2 ADD SWAP2 SWAP1 SWAP2 MSTORE PUSH1 0x40 ADD PUSH1 0x0 KECCAK256 SSTORE PUSH1 0x3 SLOAD PUSH1 0x1 PUSH1 0xA0 SHL SWAP1 DIV PUSH1 0xFF AND ISZERO PUSH2 0x24B4 JUMPI PUSH1 0x0 JUMPDEST DUP2 MLOAD DUP2 LT ISZERO PUSH2 0x24B2 JUMPI DUP8 CALLER PUSH1 0x1 PUSH1 0x1 PUSH1 0xA0 SHL SUB AND PUSH32 0xAF1B9133E30ADA3FEE6CB47A46B80B2DFEE808DC5BC919F712BEB9EE33B465D6 DUP5 DUP5 DUP2 MLOAD DUP2 LT PUSH2 0x22C0 JUMPI INVALID JUMPDEST PUSH1 0x20 MUL PUSH1 0x20 ADD ADD MLOAD PUSH1 0x40 ADD MLOAD PUSH1 0x40 MLOAD PUSH2 0x22D9 SWAP2 SWAP1 PUSH2 0x40A1 JUMP JUMPDEST PUSH1 0x40 MLOAD DUP1 SWAP2 SUB SWAP1 LOG3 PUSH1 0x1 SLOAD PUSH1 0x2 SLOAD DUP4 MLOAD PUSH1 0x1 PUSH1 0x1 PUSH1 0xA0 SHL SUB SWAP3 DUP4 AND SWAP3 PUSH4 0xB9F45ADB SWAP3 ADDRESS SWAP3 PUSH4 0x638D3683 PUSH1 0xE1 SHL SWAP3 SWAP1 SWAP2 AND SWAP1 PUSH4 0xE34CA65D PUSH1 0xE0 SHL SWAP1 DUP15 SWAP1 DUP10 SWAP1 DUP10 SWAP1 DUP2 LT PUSH2 0x2321 JUMPI INVALID JUMPDEST PUSH1 0x20 MUL PUSH1 0x20 ADD ADD MLOAD PUSH1 0x40 ADD MLOAD DUP10 DUP10 DUP2 MLOAD DUP2 LT PUSH2 0x2339 JUMPI INVALID JUMPDEST PUSH1 0x20 MUL PUSH1 0x20 ADD ADD MLOAD PUSH1 0x80 ADD MLOAD PUSH1 0x0 PUSH1 0x2 DUP2 LT PUSH2 0x2351 JUMPI INVALID JUMPDEST PUSH1 0x20 MUL ADD MLOAD DUP11 DUP11 DUP2 MLOAD DUP2 LT PUSH2 0x2362 JUMPI INVALID JUMPDEST PUSH1 0x20 MUL PUSH1 0x20 ADD ADD MLOAD PUSH1 0x80 ADD MLOAD PUSH1 0x1 PUSH1 0x2 DUP2 LT PUSH2 0x237A JUMPI INVALID JUMPDEST PUSH1 0x20 MUL ADD MLOAD DUP12 DUP12 DUP2 MLOAD DUP2 LT PUSH2 0x238B JUMPI INVALID JUMPDEST PUSH1 0x20 MUL PUSH1 0x20 ADD ADD MLOAD PUSH1 0xA0 ADD MLOAD PUSH1 0x0 PUSH1 0x3 DUP2 LT PUSH2 0x23A3 JUMPI INVALID JUMPDEST PUSH1 0x20 MUL ADD MLOAD PUSH1 0x40 MLOAD PUSH1 0x24 ADD PUSH2 0x23BC SWAP6 SWAP5 SWAP4 SWAP3 SWAP2 SWAP1 PUSH2 0x4601 JUMP JUMPDEST PUSH1 0x40 DUP1 MLOAD PUSH1 0x1F NOT DUP2 DUP5 SUB ADD DUP2 MSTORE SWAP2 DUP2 MSTORE PUSH1 0x20 DUP3 ADD DUP1 MLOAD PUSH1 0x1 PUSH1 0x1 PUSH1 0xE0 SHL SUB AND PUSH1 0x1 PUSH1 0x1 PUSH1 0xE0 SHL SUB NOT SWAP5 DUP6 AND OR SWAP1 MSTORE PUSH1 0x3 SLOAD SWAP1 MLOAD PUSH1 0xE0 DUP9 SWAP1 SHL SWAP1 SWAP4 AND DUP4 MSTORE PUSH2 0x2414 SWAP6 SWAP5 SWAP4 SWAP3 PUSH1 0x1 PUSH1 0x1 PUSH1 0xA0 SHL SUB SWAP1 SWAP2 AND SWAP1 PUSH1 0x4 ADD PUSH2 0x3FE3 JUMP JUMPDEST PUSH1 0x20 PUSH1 0x40 MLOAD DUP1 DUP4 SUB DUP2 PUSH1 0x0 DUP8 DUP1 EXTCODESIZE ISZERO DUP1 ISZERO PUSH2 0x242E JUMPI PUSH1 0x0 DUP1 REVERT JUMPDEST POP GAS CALL ISZERO DUP1 ISZERO PUSH2 0x2442 JUMPI RETURNDATASIZE PUSH1 0x0 DUP1 RETURNDATACOPY RETURNDATASIZE PUSH1 0x0 REVERT JUMPDEST POP POP POP POP PUSH1 0x40 MLOAD RETURNDATASIZE PUSH1 0x1F NOT PUSH1 0x1F DUP3 ADD AND DUP3 ADD DUP1 PUSH1 0x40 MSTORE POP DUP2 ADD SWAP1 PUSH2 0x2466 SWAP2 SWAP1 PUSH2 0x399E JUMP JUMPDEST PUSH1 0x4 PUSH1 0x0 DUP11 DUP2 MSTORE PUSH1 0x20 ADD SWAP1 DUP2 MSTORE PUSH1 0x20 ADD PUSH1 0x0 KECCAK256 PUSH1 0x0 DUP5 DUP5 DUP2 MLOAD DUP2 LT PUSH2 0x2487 JUMPI INVALID JUMPDEST PUSH1 0x20 MUL PUSH1 0x20 ADD ADD MLOAD PUSH1 0x40 ADD MLOAD DUP2 MSTORE PUSH1 0x20 ADD SWAP1 DUP2 MSTORE PUSH1 0x20 ADD PUSH1 0x0 KECCAK256 DUP2 SWAP1 SSTORE POP DUP1 DUP1 PUSH1 0x1 ADD SWAP2 POP POP PUSH2 0x227F JUMP JUMPDEST POP JUMPDEST POP POP PUSH1 0x0 DUP1 SLOAD PUSH1 0xFF PUSH1 0xA8 SHL NOT AND PUSH1 0x1 PUSH1 0xA8 SHL OR SWAP1 SSTORE POP POP POP POP POP JUMP JUMPDEST PUSH2 0x24D8 PUSH2 0x3234 JUMP JUMPDEST PUSH1 0x0 SLOAD PUSH1 0x1 PUSH1 0x1 PUSH1 0xA0 SHL SUB SWAP1 DUP2 AND SWAP2 AND EQ PUSH2 0x2505 JUMPI PUSH1 0x40 MLOAD PUSH3 0x461BCD PUSH1 0xE5 SHL DUP2 MSTORE PUSH1 0x4 ADD PUSH2 0x9F0 SWAP1 PUSH2 0x43CB JUMP JUMPDEST PUSH2 0x250F DUP3 DUP3 PUSH2 0x3356 JUMP JUMPDEST POP POP JUMP JUMPDEST PUSH1 0x1 DUP2 JUMP JUMPDEST PUSH1 0x8 PUSH1 0x20 MSTORE PUSH1 0x0 SWAP1 DUP2 MSTORE PUSH1 0x40 SWAP1 KECCAK256 SLOAD PUSH1 0xFF AND DUP2 JUMP JUMPDEST PUSH1 0x0 SLOAD PUSH1 0x1 PUSH1 0xA8 SHL SWAP1 DIV PUSH1 0xFF AND PUSH2 0x2556 JUMPI PUSH1 0x40 MLOAD PUSH3 0x461BCD PUSH1 0xE5 SHL DUP2 MSTORE PUSH1 0x4 ADD PUSH2 0x9F0 SWAP1 PUSH2 0x451B JUMP JUMPDEST PUSH1 0x0 DUP1 SLOAD PUSH1 0xFF PUSH1 0xA8 SHL NOT AND SWAP1 DUP2 SWAP1 SSTORE PUSH1 0x1 PUSH1 0xA0 SHL SWAP1 DIV PUSH1 0xFF AND ISZERO PUSH2 0x258C JUMPI PUSH1 0x40 MLOAD PUSH3 0x461BCD PUSH1 0xE5 SHL DUP2 MSTORE PUSH1 0x4 ADD PUSH2 0x9F0 SWAP1 PUSH2 0x4329 JUMP JUMPDEST PUSH1 0x1 PUSH1 0x1 PUSH1 0xA0 SHL SUB DUP2 AND PUSH1 0x0 SWAP1 DUP2 MSTORE PUSH1 0x6 PUSH1 0x20 MSTORE PUSH1 0x40 SWAP1 KECCAK256 SLOAD CALLVALUE SWAP1 PUSH2 0x25B1 SWAP1 DUP3 PUSH2 0x320F JUMP JUMPDEST PUSH1 0x1 PUSH1 0x1 PUSH1 0xA0 SHL SUB DUP1 DUP5 AND PUSH1 0x0 DUP2 DUP2 MSTORE PUSH1 0x6 PUSH1 0x20 MSTORE PUSH1 0x40 SWAP1 DUP2 SWAP1 KECCAK256 SWAP4 SWAP1 SWAP4 SSTORE PUSH1 0x3 SLOAD SWAP3 MLOAD SWAP1 SWAP3 PUSH32 0xD0EFD3E06609FAF7821CA1899AFE6F2AC4CE1514E0935434607CA0E80A81D0F2 SWAP3 PUSH2 0x2607 SWAP3 SWAP2 AND SWAP1 DUP6 SWAP1 PUSH2 0x3F69 JUMP JUMPDEST PUSH1 0x40 MLOAD DUP1 SWAP2 SUB SWAP1 LOG2 POP POP PUSH1 0x0 DUP1 SLOAD PUSH1 0xFF PUSH1 0xA8 SHL NOT AND PUSH1 0x1 PUSH1 0xA8 SHL OR SWAP1 SSTORE JUMP JUMPDEST PUSH1 0x0 SLOAD PUSH1 0x1 PUSH1 0xA0 SHL SWAP1 DIV PUSH1 0xFF AND ISZERO PUSH2 0x2650 JUMPI PUSH1 0x40 MLOAD PUSH3 0x461BCD PUSH1 0xE5 SHL DUP2 MSTORE PUSH1 0x4 ADD PUSH2 0x9F0 SWAP1 PUSH2 0x4329 JUMP JUMPDEST PUSH1 0x1 SLOAD PUSH1 0x1 PUSH1 0x1 PUSH1 0xA0 SHL SUB AND CALLER EQ PUSH2 0x267A JUMPI PUSH1 0x40 MLOAD PUSH3 0x461BCD PUSH1 0xE5 SHL DUP2 MSTORE PUSH1 0x4 ADD PUSH2 0x9F0 SWAP1 PUSH2 0x41F2 JUMP JUMPDEST PUSH1 0x3 SLOAD PUSH1 0x1 PUSH1 0xA0 SHL SWAP1 DIV PUSH1 0xFF AND PUSH2 0x26A3 JUMPI PUSH1 0x40 MLOAD PUSH3 0x461BCD PUSH1 0xE5 SHL DUP2 MSTORE PUSH1 0x4 ADD PUSH2 0x9F0 SWAP1 PUSH2 0x448D JUMP JUMPDEST PUSH1 0x0 SLOAD PUSH1 0x1 PUSH1 0xA8 SHL SWAP1 DIV PUSH1 0xFF AND PUSH2 0x26CC JUMPI PUSH1 0x40 MLOAD PUSH3 0x461BCD PUSH1 0xE5 SHL DUP2 MSTORE PUSH1 0x4 ADD PUSH2 0x9F0 SWAP1 PUSH2 0x451B JUMP JUMPDEST PUSH1 0x0 DUP1 SLOAD PUSH1 0xFF PUSH1 0xA8 SHL NOT AND DUP2 SSTORE PUSH1 0x1 PUSH1 0x1 PUSH1 0xA0 SHL SUB DUP4 AND DUP2 MSTORE PUSH1 0x8 PUSH1 0x20 MSTORE PUSH1 0x40 SWAP1 KECCAK256 SLOAD PUSH1 0xFF AND PUSH2 0x270E JUMPI PUSH1 0x40 MLOAD PUSH3 0x461BCD PUSH1 0xE5 SHL DUP2 MSTORE PUSH1 0x4 ADD PUSH2 0x9F0 SWAP1 PUSH2 0x4130 JUMP JUMPDEST PUSH2 0x2716 PUSH2 0x355F JUMP JUMPDEST PUSH2 0x2720 DUP6 DUP6 PUSH2 0x1ABD JUMP JUMPDEST PUSH1 0x0 DUP7 DUP2 MSTORE PUSH1 0x5 PUSH1 0x20 SWAP1 DUP2 MSTORE PUSH1 0x40 DUP1 DUP4 KECCAK256 DUP5 MLOAD DUP5 MSTORE SWAP1 SWAP2 MSTORE SWAP1 KECCAK256 SLOAD SWAP1 SWAP2 POP ISZERO PUSH2 0x277D JUMPI PUSH1 0x0 DUP6 DUP2 MSTORE PUSH1 0x5 PUSH1 0x20 SWAP1 DUP2 MSTORE PUSH1 0x40 DUP1 DUP4 KECCAK256 DUP5 MLOAD DUP5 MSTORE SWAP1 SWAP2 MSTORE SWAP1 KECCAK256 SLOAD GASPRICE GT ISZERO PUSH2 0x277D JUMPI PUSH1 0x40 MLOAD PUSH3 0x461BCD PUSH1 0xE5 SHL DUP2 MSTORE PUSH1 0x4 ADD PUSH2 0x9F0 SWAP1 PUSH2 0x40EB JUMP JUMPDEST PUSH1 0x60 DUP1 PUSH1 0x9 DUP8 DUP2 SLOAD DUP2 LT PUSH2 0x278D JUMPI INVALID JUMPDEST PUSH1 0x0 SWAP2 DUP3 MSTORE PUSH1 0x20 SWAP1 SWAP2 KECCAK256 ADD SLOAD PUSH1 0x40 MLOAD PUSH4 0x2CA5159F PUSH1 0xE1 SHL DUP2 MSTORE PUSH1 0x1 PUSH1 0x1 PUSH1 0xA0 SHL SUB SWAP1 SWAP2 AND SWAP1 PUSH4 0x594A2B3E SWAP1 PUSH2 0x27CC SWAP1 CALLER SWAP1 DUP11 SWAP1 DUP11 SWAP1 DUP11 SWAP1 PUSH1 0x4 ADD PUSH2 0x3F82 JUMP JUMPDEST PUSH1 0x0 PUSH1 0x40 MLOAD DUP1 DUP4 SUB DUP2 PUSH1 0x0 DUP8 DUP1 EXTCODESIZE ISZERO DUP1 ISZERO PUSH2 0x27E6 JUMPI PUSH1 0x0 DUP1 REVERT JUMPDEST POP GAS CALL ISZERO DUP1 ISZERO PUSH2 0x27FA JUMPI RETURNDATASIZE PUSH1 0x0 DUP1 RETURNDATACOPY RETURNDATASIZE PUSH1 0x0 REVERT JUMPDEST POP POP POP POP PUSH1 0x40 MLOAD RETURNDATASIZE PUSH1 0x0 DUP3 RETURNDATACOPY PUSH1 0x1F RETURNDATASIZE SWAP1 DUP2 ADD PUSH1 0x1F NOT AND DUP3 ADD PUSH1 0x40 MSTORE PUSH2 0x2822 SWAP2 SWAP1 DUP2 ADD SWAP1 PUSH2 0x3898 JUMP JUMPDEST SWAP2 POP SWAP2 POP PUSH1 0x0 JUMPDEST DUP2 MLOAD DUP2 LT ISZERO PUSH2 0x290C JUMPI PUSH1 0x0 DUP9 DUP2 MSTORE PUSH1 0x4 PUSH1 0x20 MSTORE PUSH1 0x40 DUP2 KECCAK256 DUP4 MLOAD DUP3 SWAP1 DUP6 SWAP1 DUP6 SWAP1 DUP2 LT PUSH2 0x2850 JUMPI INVALID JUMPDEST PUSH1 0x20 MUL PUSH1 0x20 ADD ADD MLOAD DUP2 MSTORE PUSH1 0x20 ADD SWAP1 DUP2 MSTORE PUSH1 0x20 ADD PUSH1 0x0 KECCAK256 SLOAD EQ PUSH2 0x2904 JUMPI PUSH1 0x1 SLOAD PUSH1 0x0 DUP10 DUP2 MSTORE PUSH1 0x4 PUSH1 0x20 MSTORE PUSH1 0x40 DUP2 KECCAK256 DUP5 MLOAD PUSH1 0x1 PUSH1 0x1 PUSH1 0xA0 SHL SUB SWAP1 SWAP4 AND SWAP3 PUSH4 0xEE8CA3B5 SWAP3 SWAP1 DUP7 SWAP1 DUP7 SWAP1 DUP2 LT PUSH2 0x289E JUMPI INVALID JUMPDEST PUSH1 0x20 MUL PUSH1 0x20 ADD ADD MLOAD DUP2 MSTORE PUSH1 0x20 ADD SWAP1 DUP2 MSTORE PUSH1 0x20 ADD PUSH1 0x0 KECCAK256 SLOAD PUSH1 0x40 MLOAD DUP3 PUSH4 0xFFFFFFFF AND PUSH1 0xE0 SHL DUP2 MSTORE PUSH1 0x4 ADD PUSH2 0x28D1 SWAP2 SWAP1 PUSH2 0x40A1 JUMP JUMPDEST PUSH1 0x0 PUSH1 0x40 MLOAD DUP1 DUP4 SUB DUP2 PUSH1 0x0 DUP8 DUP1 EXTCODESIZE ISZERO DUP1 ISZERO PUSH2 0x28EB JUMPI PUSH1 0x0 DUP1 REVERT JUMPDEST POP GAS CALL ISZERO DUP1 ISZERO PUSH2 0x28FF JUMPI RETURNDATASIZE PUSH1 0x0 DUP1 RETURNDATACOPY RETURNDATASIZE PUSH1 0x0 REVERT JUMPDEST POP POP POP POP JUMPDEST PUSH1 0x1 ADD PUSH2 0x2829 JUMP JUMPDEST POP PUSH1 0x0 PUSH1 0x9 DUP9 DUP2 SLOAD DUP2 LT PUSH2 0x291C JUMPI INVALID JUMPDEST PUSH1 0x0 SWAP2 DUP3 MSTORE PUSH1 0x20 SWAP1 SWAP2 KECCAK256 ADD SLOAD DUP5 MLOAD PUSH1 0x40 MLOAD PUSH4 0x31A9108F PUSH1 0xE1 SHL DUP2 MSTORE PUSH1 0x1 PUSH1 0x1 PUSH1 0xA0 SHL SUB SWAP1 SWAP3 AND SWAP2 PUSH4 0x6352211E SWAP2 PUSH2 0x2955 SWAP2 PUSH1 0x4 ADD PUSH2 0x40A1 JUMP JUMPDEST PUSH1 0x20 PUSH1 0x40 MLOAD DUP1 DUP4 SUB DUP2 DUP7 DUP1 EXTCODESIZE ISZERO DUP1 ISZERO PUSH2 0x296D JUMPI PUSH1 0x0 DUP1 REVERT JUMPDEST POP GAS STATICCALL ISZERO DUP1 ISZERO PUSH2 0x2981 JUMPI RETURNDATASIZE PUSH1 0x0 DUP1 RETURNDATACOPY RETURNDATASIZE PUSH1 0x0 REVERT JUMPDEST POP POP POP POP PUSH1 0x40 MLOAD RETURNDATASIZE PUSH1 0x1F NOT PUSH1 0x1F DUP3 ADD AND DUP3 ADD DUP1 PUSH1 0x40 MSTORE POP DUP2 ADD SWAP1 PUSH2 0x29A5 SWAP2 SWAP1 PUSH2 0x387C JUMP JUMPDEST SWAP1 POP DUP4 PUSH1 0x0 ADD MLOAD DUP9 DUP3 PUSH1 0x1 PUSH1 0x1 PUSH1 0xA0 SHL SUB AND PUSH32 0x37AACCA185D8A700A40142541D808E10BC61CA82EB929CB3DF05DE903A64DC84 DUP11 PUSH1 0x40 MLOAD PUSH2 0x29E6 SWAP2 SWAP1 PUSH2 0x40A1 JUMP JUMPDEST PUSH1 0x40 MLOAD DUP1 SWAP2 SUB SWAP1 LOG4 PUSH1 0x0 JUMPDEST DUP4 MLOAD DUP2 LT ISZERO PUSH2 0x2C56 JUMPI PUSH1 0x3 SLOAD PUSH1 0x1 PUSH1 0xA0 SHL SWAP1 DIV PUSH1 0xFF AND DUP1 ISZERO PUSH2 0x2A2B JUMPI POP DUP4 DUP2 DUP2 MLOAD DUP2 LT PUSH2 0x2A1A JUMPI INVALID JUMPDEST PUSH1 0x20 MUL PUSH1 0x20 ADD ADD MLOAD PUSH1 0x40 ADD MLOAD PUSH1 0x0 EQ ISZERO JUMPDEST ISZERO PUSH2 0x2C4E JUMPI DUP9 DUP3 PUSH1 0x1 PUSH1 0x1 PUSH1 0xA0 SHL SUB AND PUSH32 0xAF1B9133E30ADA3FEE6CB47A46B80B2DFEE808DC5BC919F712BEB9EE33B465D6 DUP7 DUP5 DUP2 MLOAD DUP2 LT PUSH2 0x2A68 JUMPI INVALID JUMPDEST PUSH1 0x20 MUL PUSH1 0x20 ADD ADD MLOAD PUSH1 0x40 ADD MLOAD PUSH1 0x40 MLOAD PUSH2 0x2A81 SWAP2 SWAP1 PUSH2 0x40A1 JUMP JUMPDEST PUSH1 0x40 MLOAD DUP1 SWAP2 SUB SWAP1 LOG3 PUSH1 0x1 SLOAD PUSH1 0x2 SLOAD DUP6 MLOAD PUSH1 0x1 PUSH1 0x1 PUSH1 0xA0 SHL SUB SWAP3 DUP4 AND SWAP3 PUSH4 0xB9F45ADB SWAP3 ADDRESS SWAP3 PUSH4 0x638D3683 PUSH1 0xE1 SHL SWAP3 SWAP1 SWAP2 AND SWAP1 PUSH4 0xE34CA65D PUSH1 0xE0 SHL SWAP1 DUP16 SWAP1 DUP12 SWAP1 DUP10 SWAP1 DUP2 LT PUSH2 0x2AC9 JUMPI INVALID JUMPDEST PUSH1 0x20 MUL PUSH1 0x20 ADD ADD MLOAD PUSH1 0x40 ADD MLOAD DUP12 DUP10 DUP2 MLOAD DUP2 LT PUSH2 0x2AE1 JUMPI INVALID JUMPDEST PUSH1 0x20 MUL PUSH1 0x20 ADD ADD MLOAD PUSH1 0x80 ADD MLOAD PUSH1 0x0 PUSH1 0x2 DUP2 LT PUSH2 0x2AF9 JUMPI INVALID JUMPDEST PUSH1 0x20 MUL ADD MLOAD DUP13 DUP11 DUP2 MLOAD DUP2 LT PUSH2 0x2B0A JUMPI INVALID JUMPDEST PUSH1 0x20 MUL PUSH1 0x20 ADD ADD MLOAD PUSH1 0x80 ADD MLOAD PUSH1 0x1 PUSH1 0x2 DUP2 LT PUSH2 0x2B22 JUMPI INVALID JUMPDEST PUSH1 0x20 MUL ADD MLOAD DUP14 DUP12 DUP2 MLOAD DUP2 LT PUSH2 0x2B33 JUMPI INVALID JUMPDEST PUSH1 0x20 MUL PUSH1 0x20 ADD ADD MLOAD PUSH1 0xA0 ADD MLOAD PUSH1 0x0 PUSH1 0x3 DUP2 LT PUSH2 0x2B4B JUMPI INVALID JUMPDEST PUSH1 0x20 MUL ADD MLOAD PUSH1 0x40 MLOAD PUSH1 0x24 ADD PUSH2 0x2B64 SWAP6 SWAP5 SWAP4 SWAP3 SWAP2 SWAP1 PUSH2 0x4601 JUMP JUMPDEST PUSH1 0x40 DUP1 MLOAD PUSH1 0x1F NOT DUP2 DUP5 SUB ADD DUP2 MSTORE SWAP2 DUP2 MSTORE PUSH1 0x20 DUP3 ADD DUP1 MLOAD PUSH1 0x1 PUSH1 0x1 PUSH1 0xE0 SHL SUB AND PUSH1 0x1 PUSH1 0x1 PUSH1 0xE0 SHL SUB NOT SWAP5 DUP6 AND OR SWAP1 MSTORE PUSH1 0x3 SLOAD SWAP1 MLOAD PUSH1 0xE0 DUP9 SWAP1 SHL SWAP1 SWAP4 AND DUP4 MSTORE PUSH2 0x2BBC SWAP6 SWAP5 SWAP4 SWAP3 PUSH1 0x1 PUSH1 0x1 PUSH1 0xA0 SHL SUB SWAP1 SWAP2 AND SWAP1 PUSH1 0x4 ADD PUSH2 0x3FE3 JUMP JUMPDEST PUSH1 0x20 PUSH1 0x40 MLOAD DUP1 DUP4 SUB DUP2 PUSH1 0x0 DUP8 DUP1 EXTCODESIZE ISZERO DUP1 ISZERO PUSH2 0x2BD6 JUMPI PUSH1 0x0 DUP1 REVERT JUMPDEST POP GAS CALL ISZERO DUP1 ISZERO PUSH2 0x2BEA JUMPI RETURNDATASIZE PUSH1 0x0 DUP1 RETURNDATACOPY RETURNDATASIZE PUSH1 0x0 REVERT JUMPDEST POP POP POP POP PUSH1 0x40 MLOAD RETURNDATASIZE PUSH1 0x1F NOT PUSH1 0x1F DUP3 ADD AND DUP3 ADD DUP1 PUSH1 0x40 MSTORE POP DUP2 ADD SWAP1 PUSH2 0x2C0E SWAP2 SWAP1 PUSH2 0x399E JUMP JUMPDEST PUSH1 0x4 PUSH1 0x0 DUP12 DUP2 MSTORE PUSH1 0x20 ADD SWAP1 DUP2 MSTORE PUSH1 0x20 ADD PUSH1 0x0 KECCAK256 PUSH1 0x0 DUP7 DUP5 DUP2 MLOAD DUP2 LT PUSH2 0x2C2F JUMPI INVALID JUMPDEST PUSH1 0x20 MUL PUSH1 0x20 ADD ADD MLOAD PUSH1 0x40 ADD MLOAD DUP2 MSTORE PUSH1 0x20 ADD SWAP1 DUP2 MSTORE PUSH1 0x20 ADD PUSH1 0x0 KECCAK256 DUP2 SWAP1 SSTORE POP JUMPDEST PUSH1 0x1 ADD PUSH2 0x29F1 JUMP JUMPDEST POP PUSH1 0x1 SLOAD PUSH1 0x40 DUP1 MLOAD PUSH4 0x5C08631B PUSH1 0xE1 SHL DUP2 MSTORE DUP2 MLOAD PUSH1 0x0 SWAP4 DUP5 SWAP4 PUSH1 0x1 PUSH1 0x1 PUSH1 0xA0 SHL SUB SWAP1 SWAP2 AND SWAP3 PUSH4 0xB810C636 SWAP3 PUSH1 0x4 DUP1 DUP4 ADD SWAP4 SWAP3 DUP3 SWAP1 SUB ADD DUP2 DUP7 DUP1 EXTCODESIZE ISZERO DUP1 ISZERO PUSH2 0x2C9C JUMPI PUSH1 0x0 DUP1 REVERT JUMPDEST POP GAS STATICCALL ISZERO DUP1 ISZERO PUSH2 0x2CB0 JUMPI RETURNDATASIZE PUSH1 0x0 DUP1 RETURNDATACOPY RETURNDATASIZE PUSH1 0x0 REVERT JUMPDEST POP POP POP POP PUSH1 0x40 MLOAD RETURNDATASIZE PUSH1 0x1F NOT PUSH1 0x1F DUP3 ADD AND DUP3 ADD DUP1 PUSH1 0x40 MSTORE POP DUP2 ADD SWAP1 PUSH2 0x2CD4 SWAP2 SWAP1 PUSH2 0x3A79 JUMP JUMPDEST PUSH1 0x1 PUSH1 0x1 PUSH1 0xA0 SHL SUB DUP6 AND PUSH1 0x0 SWAP1 DUP2 MSTORE PUSH1 0x6 PUSH1 0x20 MSTORE PUSH1 0x40 SWAP1 KECCAK256 SLOAD SWAP2 SWAP4 POP SWAP2 POP DUP3 GT ISZERO PUSH2 0x2D11 JUMPI PUSH1 0x40 MLOAD PUSH3 0x461BCD PUSH1 0xE5 SHL DUP2 MSTORE PUSH1 0x4 ADD PUSH2 0x9F0 SWAP1 PUSH2 0x4593 JUMP JUMPDEST PUSH1 0x1 PUSH1 0x1 PUSH1 0xA0 SHL SUB DUP4 AND PUSH1 0x0 SWAP1 DUP2 MSTORE PUSH1 0x6 PUSH1 0x20 MSTORE PUSH1 0x40 SWAP1 KECCAK256 SLOAD PUSH2 0x2D34 SWAP1 DUP4 PUSH2 0x31CD JUMP JUMPDEST PUSH1 0x1 PUSH1 0x1 PUSH1 0xA0 SHL SUB DUP5 AND PUSH1 0x0 SWAP1 DUP2 MSTORE PUSH1 0x6 PUSH1 0x20 MSTORE PUSH1 0x40 SWAP1 KECCAK256 SSTORE PUSH2 0x2D57 DUP3 DUP3 PUSH2 0x338B JUMP JUMPDEST POP POP PUSH1 0x0 DUP1 SLOAD PUSH1 0xFF PUSH1 0xA8 SHL NOT AND PUSH1 0x1 PUSH1 0xA8 SHL OR SWAP1 SSTORE POP POP POP POP POP POP POP POP JUMP JUMPDEST PUSH1 0x5 PUSH1 0x20 SWAP1 DUP2 MSTORE PUSH1 0x0 SWAP3 DUP4 MSTORE PUSH1 0x40 DUP1 DUP5 KECCAK256 SWAP1 SWAP2 MSTORE SWAP1 DUP3 MSTORE SWAP1 KECCAK256 SLOAD DUP2 JUMP JUMPDEST PUSH2 0x2D9B PUSH2 0x3234 JUMP JUMPDEST PUSH1 0x0 SLOAD PUSH1 0x1 PUSH1 0x1 PUSH1 0xA0 SHL SUB SWAP1 DUP2 AND SWAP2 AND EQ PUSH2 0x2DC8 JUMPI PUSH1 0x40 MLOAD PUSH3 0x461BCD PUSH1 0xE5 SHL DUP2 MSTORE PUSH1 0x4 ADD PUSH2 0x9F0 SWAP1 PUSH2 0x43CB JUMP JUMPDEST PUSH1 0x1 DUP1 SLOAD PUSH1 0x1 PUSH1 0x1 PUSH1 0xA0 SHL SUB SWAP5 DUP6 AND PUSH1 0x1 PUSH1 0x1 PUSH1 0xA0 SHL SUB NOT SWAP2 DUP3 AND OR SWAP1 SWAP2 SSTORE PUSH1 0x2 DUP1 SLOAD SWAP4 SWAP1 SWAP5 AND SWAP3 AND SWAP2 SWAP1 SWAP2 OR SWAP1 SWAP2 SSTORE PUSH1 0x3 DUP1 SLOAD SWAP2 ISZERO ISZERO PUSH1 0x1 PUSH1 0xA0 SHL MUL PUSH1 0xFF PUSH1 0xA0 SHL NOT SWAP1 SWAP3 AND SWAP2 SWAP1 SWAP2 OR SWAP1 SSTORE JUMP JUMPDEST PUSH2 0x2E1E PUSH2 0x3234 JUMP JUMPDEST PUSH1 0x0 SLOAD PUSH1 0x1 PUSH1 0x1 PUSH1 0xA0 SHL SUB SWAP1 DUP2 AND SWAP2 AND EQ PUSH2 0x2E4B JUMPI PUSH1 0x40 MLOAD PUSH3 0x461BCD PUSH1 0xE5 SHL DUP2 MSTORE PUSH1 0x4 ADD PUSH2 0x9F0 SWAP1 PUSH2 0x43CB JUMP JUMPDEST PUSH1 0x9 DUP5 DUP2 SLOAD DUP2 LT PUSH2 0x2E58 JUMPI INVALID JUMPDEST PUSH1 0x0 SWAP2 DUP3 MSTORE PUSH1 0x20 SWAP1 SWAP2 KECCAK256 ADD SLOAD PUSH1 0x40 MLOAD PUSH4 0x48541EE1 PUSH1 0xE1 SHL DUP2 MSTORE PUSH1 0x1 PUSH1 0x1 PUSH1 0xA0 SHL SUB SWAP1 SWAP2 AND SWAP1 PUSH4 0x90A83DC2 SWAP1 PUSH2 0x2E95 SWAP1 DUP7 SWAP1 DUP7 SWAP1 DUP7 SWAP1 PUSH1 0x4 ADD PUSH2 0x3FBF JUMP JUMPDEST PUSH1 0x0 PUSH1 0x40 MLOAD DUP1 DUP4 SUB DUP2 PUSH1 0x0 DUP8 DUP1 EXTCODESIZE ISZERO DUP1 ISZERO PUSH2 0x2EAF JUMPI PUSH1 0x0 DUP1 REVERT JUMPDEST POP GAS CALL ISZERO DUP1 ISZERO PUSH2 0x2EC3 JUMPI RETURNDATASIZE PUSH1 0x0 DUP1 RETURNDATACOPY RETURNDATASIZE PUSH1 0x0 REVERT JUMPDEST POP POP POP POP PUSH1 0x1 PUSH1 0x1 PUSH1 0xA0 SHL SUB DUP3 AND PUSH1 0x0 SWAP1 DUP2 MSTORE PUSH1 0x12 PUSH1 0x20 MSTORE PUSH1 0x40 SWAP1 KECCAK256 SLOAD PUSH1 0xFF AND PUSH2 0x2F4B JUMPI PUSH1 0x11 DUP1 SLOAD PUSH1 0x1 DUP1 DUP3 ADD SWAP1 SWAP3 SSTORE PUSH32 0x31ECC21A745E3968A04E9570E4425BC18FA8019C68028196B546D1669C200C68 ADD DUP1 SLOAD PUSH1 0x1 PUSH1 0x1 PUSH1 0xA0 SHL SUB NOT AND PUSH1 0x1 PUSH1 0x1 PUSH1 0xA0 SHL SUB DUP6 AND SWAP1 DUP2 OR SWAP1 SWAP2 SSTORE PUSH1 0x0 SWAP1 DUP2 MSTORE PUSH1 0x12 PUSH1 0x20 MSTORE PUSH1 0x40 SWAP1 KECCAK256 DUP1 SLOAD PUSH1 0xFF NOT AND SWAP1 SWAP2 OR SWAP1 SSTORE JUMPDEST POP POP POP POP JUMP JUMPDEST PUSH2 0x2F59 PUSH2 0x3234 JUMP JUMPDEST PUSH1 0x0 SLOAD PUSH1 0x1 PUSH1 0x1 PUSH1 0xA0 SHL SUB SWAP1 DUP2 AND SWAP2 AND EQ PUSH2 0x2F86 JUMPI PUSH1 0x40 MLOAD PUSH3 0x461BCD PUSH1 0xE5 SHL DUP2 MSTORE PUSH1 0x4 ADD PUSH2 0x9F0 SWAP1 PUSH2 0x43CB JUMP JUMPDEST PUSH1 0x9 DUP3 DUP2 SLOAD DUP2 LT PUSH2 0x2F93 JUMPI INVALID JUMPDEST PUSH1 0x0 SWAP2 DUP3 MSTORE PUSH1 0x20 SWAP1 SWAP2 KECCAK256 ADD SLOAD PUSH1 0x40 MLOAD PUSH4 0x68173BCF PUSH1 0xE0 SHL DUP2 MSTORE PUSH1 0x1 PUSH1 0x1 PUSH1 0xA0 SHL SUB SWAP1 SWAP2 AND SWAP1 PUSH4 0x68173BCF SWAP1 PUSH2 0x1CBF SWAP1 DUP5 SWAP1 PUSH1 0x4 ADD PUSH2 0x3F00 JUMP JUMPDEST PUSH1 0x1 SLOAD PUSH1 0x1 PUSH1 0x1 PUSH1 0xA0 SHL SUB AND DUP2 JUMP JUMPDEST PUSH1 0xD SLOAD DUP2 JUMP JUMPDEST PUSH1 0xF DUP2 DUP2 SLOAD DUP2 LT PUSH2 0x19DA JUMPI INVALID JUMPDEST PUSH1 0x0 PUSH1 0x9 DUP3 DUP2 SLOAD DUP2 LT PUSH2 0x2FFD JUMPI INVALID JUMPDEST PUSH1 0x0 SWAP2 DUP3 MSTORE PUSH1 0x20 SWAP2 DUP3 SWAP1 KECCAK256 ADD SLOAD PUSH1 0x40 DUP1 MLOAD PUSH4 0x2273217 PUSH1 0xE3 SHL DUP2 MSTORE SWAP1 MLOAD PUSH1 0x1 PUSH1 0x1 PUSH1 0xA0 SHL SUB SWAP1 SWAP3 AND SWAP3 PUSH4 0x113990B8 SWAP3 PUSH1 0x4 DUP1 DUP5 ADD SWAP4 DUP3 SWAP1 SUB ADD DUP2 DUP7 DUP1 EXTCODESIZE ISZERO DUP1 ISZERO PUSH2 0x3046 JUMPI PUSH1 0x0 DUP1 REVERT JUMPDEST POP GAS STATICCALL ISZERO DUP1 ISZERO PUSH2 0x305A JUMPI RETURNDATASIZE PUSH1 0x0 DUP1 RETURNDATACOPY RETURNDATASIZE PUSH1 0x0 REVERT JUMPDEST POP POP POP POP PUSH1 0x40 MLOAD RETURNDATASIZE PUSH1 0x1F NOT PUSH1 0x1F DUP3 ADD AND DUP3 ADD DUP1 PUSH1 0x40 MSTORE POP DUP2 ADD SWAP1 PUSH2 0x1543 SWAP2 SWAP1 PUSH2 0x399E JUMP JUMPDEST PUSH2 0x3086 PUSH2 0x3234 JUMP JUMPDEST PUSH1 0x0 SLOAD PUSH1 0x1 PUSH1 0x1 PUSH1 0xA0 SHL SUB SWAP1 DUP2 AND SWAP2 AND EQ PUSH2 0x30B3 JUMPI PUSH1 0x40 MLOAD PUSH3 0x461BCD PUSH1 0xE5 SHL DUP2 MSTORE PUSH1 0x4 ADD PUSH2 0x9F0 SWAP1 PUSH2 0x43CB JUMP JUMPDEST PUSH1 0x1 PUSH1 0x1 PUSH1 0xA0 SHL SUB DUP2 AND PUSH2 0x30D9 JUMPI PUSH1 0x40 MLOAD PUSH3 0x461BCD PUSH1 0xE5 SHL DUP2 MSTORE PUSH1 0x4 ADD PUSH2 0x9F0 SWAP1 PUSH2 0x41AC JUMP JUMPDEST PUSH1 0x0 DUP1 SLOAD PUSH1 0x40 MLOAD PUSH1 0x1 PUSH1 0x1 PUSH1 0xA0 SHL SUB DUP1 DUP6 AND SWAP4 SWAP3 AND SWAP2 PUSH32 0x8BE0079C531659141344CD1FD0A4F28419497F9722A3DAAFE3B4186F6B6457E0 SWAP2 LOG3 PUSH1 0x0 DUP1 SLOAD PUSH1 0x1 PUSH1 0x1 PUSH1 0xA0 SHL SUB NOT AND PUSH1 0x1 PUSH1 0x1 PUSH1 0xA0 SHL SUB SWAP3 SWAP1 SWAP3 AND SWAP2 SWAP1 SWAP2 OR SWAP1 SSTORE JUMP JUMPDEST PUSH1 0x1 PUSH1 0x1 PUSH1 0xA0 SHL SUB AND PUSH1 0x0 SWAP1 DUP2 MSTORE PUSH1 0xA PUSH1 0x20 MSTORE PUSH1 0x40 SWAP1 KECCAK256 SLOAD PUSH1 0xFF AND SWAP1 JUMP JUMPDEST PUSH2 0x315A PUSH2 0x3234 JUMP JUMPDEST PUSH1 0x0 SLOAD PUSH1 0x1 PUSH1 0x1 PUSH1 0xA0 SHL SUB SWAP1 DUP2 AND SWAP2 AND EQ PUSH2 0x3187 JUMPI PUSH1 0x40 MLOAD PUSH3 0x461BCD PUSH1 0xE5 SHL DUP2 MSTORE PUSH1 0x4 ADD PUSH2 0x9F0 SWAP1 PUSH2 0x43CB JUMP JUMPDEST PUSH2 0x3190 DUP2 PUSH2 0x345C JUMP JUMPDEST POP JUMP JUMPDEST PUSH1 0x0 DUP3 PUSH2 0x31A2 JUMPI POP PUSH1 0x0 PUSH2 0x1543 JUMP JUMPDEST DUP3 DUP3 MUL DUP3 DUP5 DUP3 DUP2 PUSH2 0x31AF JUMPI INVALID JUMPDEST DIV EQ PUSH2 0x1B5F JUMPI PUSH1 0x40 MLOAD PUSH3 0x461BCD PUSH1 0xE5 SHL DUP2 MSTORE PUSH1 0x4 ADD PUSH2 0x9F0 SWAP1 PUSH2 0x438A JUMP JUMPDEST PUSH1 0x0 PUSH2 0x1B5F DUP4 DUP4 PUSH1 0x40 MLOAD DUP1 PUSH1 0x40 ADD PUSH1 0x40 MSTORE DUP1 PUSH1 0x1E DUP2 MSTORE PUSH1 0x20 ADD PUSH32 0x536166654D6174683A207375627472616374696F6E206F766572666C6F770000 DUP2 MSTORE POP PUSH2 0x34FC JUMP JUMPDEST PUSH1 0x0 DUP3 DUP3 ADD DUP4 DUP2 LT ISZERO PUSH2 0x1B5F JUMPI PUSH1 0x40 MLOAD PUSH3 0x461BCD PUSH1 0xE5 SHL DUP2 MSTORE PUSH1 0x4 ADD PUSH2 0x9F0 SWAP1 PUSH2 0x42AA JUMP JUMPDEST CALLER SWAP1 JUMP JUMPDEST PUSH1 0x0 SLOAD PUSH1 0x1 PUSH1 0xA0 SHL SWAP1 DIV PUSH1 0xFF AND PUSH2 0x3261 JUMPI PUSH1 0x40 MLOAD PUSH3 0x461BCD PUSH1 0xE5 SHL DUP2 MSTORE PUSH1 0x4 ADD PUSH2 0x9F0 SWAP1 PUSH2 0x40BD JUMP JUMPDEST PUSH1 0x0 DUP1 SLOAD PUSH1 0xFF PUSH1 0xA0 SHL NOT AND SWAP1 SSTORE PUSH32 0x5DB9EE0A495BF2E6FF9C91A7834C1BA4FDD244A5E8AA4E537BD38AEAE4B073AA PUSH2 0x3297 PUSH2 0x3234 JUMP JUMPDEST PUSH1 0x40 MLOAD PUSH2 0x32A4 SWAP2 SWAP1 PUSH2 0x3F00 JUMP JUMPDEST PUSH1 0x40 MLOAD DUP1 SWAP2 SUB SWAP1 LOG1 JUMP JUMPDEST PUSH1 0x0 SLOAD PUSH1 0x1 PUSH1 0xA0 SHL SWAP1 DIV PUSH1 0xFF AND ISZERO PUSH2 0x32D8 JUMPI PUSH1 0x40 MLOAD PUSH3 0x461BCD PUSH1 0xE5 SHL DUP2 MSTORE PUSH1 0x4 ADD PUSH2 0x9F0 SWAP1 PUSH2 0x4329 JUMP JUMPDEST PUSH1 0x0 DUP1 SLOAD PUSH1 0xFF PUSH1 0xA0 SHL NOT AND PUSH1 0x1 PUSH1 0xA0 SHL OR SWAP1 SSTORE PUSH32 0x62E78CEA01BEE320CD4E420270B5EA74000D11B0C9F74754EBDBFC544B05A258 PUSH2 0x3297 PUSH2 0x3234 JUMP JUMPDEST PUSH1 0x0 PUSH2 0x1B5F DUP4 DUP4 PUSH1 0x40 MLOAD DUP1 PUSH1 0x40 ADD PUSH1 0x40 MSTORE DUP1 PUSH1 0x1A DUP2 MSTORE PUSH1 0x20 ADD PUSH32 0x536166654D6174683A206469766973696F6E206279207A65726F000000000000 DUP2 MSTORE POP PUSH2 0x3528 JUMP JUMPDEST DUP1 PUSH2 0x3362 DUP4 PUSH1 0x32 PUSH2 0x3193 JUMP JUMPDEST GT ISZERO PUSH2 0x3380 JUMPI PUSH1 0x40 MLOAD PUSH3 0x461BCD PUSH1 0xE5 SHL DUP2 MSTORE PUSH1 0x4 ADD PUSH2 0x9F0 SWAP1 PUSH2 0x4262 JUMP JUMPDEST PUSH1 0xC SWAP2 SWAP1 SWAP2 SSTORE PUSH1 0xD SSTORE JUMP JUMPDEST PUSH1 0x1 PUSH1 0x1 PUSH1 0xA0 SHL SUB DUP2 AND PUSH20 0xEEEEEEEEEEEEEEEEEEEEEEEEEEEEEEEEEEEEEEEE EQ PUSH2 0x33C7 JUMPI PUSH1 0x40 MLOAD PUSH3 0x461BCD PUSH1 0xE5 SHL DUP2 MSTORE PUSH1 0x4 ADD PUSH2 0x9F0 SWAP1 PUSH2 0x42E1 JUMP JUMPDEST PUSH1 0x0 PUSH20 0x7598E84B2E114AB62CAB288CE5F7D5F6BAD35BBA PUSH1 0x1 PUSH1 0x1 PUSH1 0xA0 SHL SUB AND DUP4 PUSH1 0x40 MLOAD PUSH2 0x33F4 SWAP1 PUSH2 0x3EFD JUMP JUMPDEST PUSH1 0x0 PUSH1 0x40 MLOAD DUP1 DUP4 SUB DUP2 DUP6 DUP8 GAS CALL SWAP3 POP POP POP RETURNDATASIZE DUP1 PUSH1 0x0 DUP2 EQ PUSH2 0x3431 JUMPI PUSH1 0x40 MLOAD SWAP2 POP PUSH1 0x1F NOT PUSH1 0x3F RETURNDATASIZE ADD AND DUP3 ADD PUSH1 0x40 MSTORE RETURNDATASIZE DUP3 MSTORE RETURNDATASIZE PUSH1 0x0 PUSH1 0x20 DUP5 ADD RETURNDATACOPY PUSH2 0x3436 JUMP JUMPDEST PUSH1 0x60 SWAP2 POP JUMPDEST POP POP SWAP1 POP DUP1 PUSH2 0x3457 JUMPI PUSH1 0x40 MLOAD PUSH3 0x461BCD PUSH1 0xE5 SHL DUP2 MSTORE PUSH1 0x4 ADD PUSH2 0x9F0 SWAP1 PUSH2 0x4353 JUMP JUMPDEST POP POP POP JUMP JUMPDEST PUSH1 0x1 PUSH1 0x1 PUSH1 0xA0 SHL SUB DUP2 AND PUSH1 0x0 SWAP1 DUP2 MSTORE PUSH1 0x10 PUSH1 0x20 MSTORE PUSH1 0x40 SWAP1 KECCAK256 SLOAD PUSH1 0xFF AND ISZERO PUSH2 0x3495 JUMPI PUSH1 0x40 MLOAD PUSH3 0x461BCD PUSH1 0xE5 SHL DUP2 MSTORE PUSH1 0x4 ADD PUSH2 0x9F0 SWAP1 PUSH2 0x4446 JUMP JUMPDEST PUSH1 0xF DUP1 SLOAD PUSH1 0x1 DUP2 DUP2 ADD SWAP1 SWAP3 SSTORE PUSH32 0x8D1108E10BCB7C27DDDFC02ED9D693A074039D026CF4EA4240B40F7D581AC802 ADD DUP1 SLOAD PUSH1 0x1 PUSH1 0x1 PUSH1 0xA0 SHL SUB SWAP1 SWAP4 AND PUSH1 0x1 PUSH1 0x1 PUSH1 0xA0 SHL SUB NOT SWAP1 SWAP4 AND DUP4 OR SWAP1 SSTORE PUSH1 0x0 SWAP2 DUP3 MSTORE PUSH1 0x10 PUSH1 0x20 MSTORE PUSH1 0x40 SWAP1 SWAP2 KECCAK256 DUP1 SLOAD PUSH1 0xFF NOT AND SWAP1 SWAP2 OR SWAP1 SSTORE JUMP JUMPDEST PUSH1 0x0 DUP2 DUP5 DUP5 GT ISZERO PUSH2 0x3520 JUMPI PUSH1 0x40 MLOAD PUSH3 0x461BCD PUSH1 0xE5 SHL DUP2 MSTORE PUSH1 0x4 ADD PUSH2 0x9F0 SWAP2 SWAP1 PUSH2 0x40AA JUMP JUMPDEST POP POP POP SWAP1 SUB SWAP1 JUMP JUMPDEST PUSH1 0x0 DUP2 DUP4 PUSH2 0x3549 JUMPI PUSH1 0x40 MLOAD PUSH3 0x461BCD PUSH1 0xE5 SHL DUP2 MSTORE PUSH1 0x4 ADD PUSH2 0x9F0 SWAP2 SWAP1 PUSH2 0x40AA JUMP JUMPDEST POP PUSH1 0x0 DUP4 DUP6 DUP2 PUSH2 0x3555 JUMPI INVALID JUMPDEST DIV SWAP6 SWAP5 POP POP POP POP POP JUMP JUMPDEST PUSH1 0x40 MLOAD DUP1 PUSH1 0xE0 ADD PUSH1 0x40 MSTORE DUP1 PUSH1 0x0 DUP2 MSTORE PUSH1 0x20 ADD PUSH1 0x0 DUP2 MSTORE PUSH1 0x20 ADD PUSH1 0x0 DUP2 MSTORE PUSH1 0x20 ADD PUSH1 0x0 DUP2 MSTORE PUSH1 0x20 ADD PUSH2 0x358E PUSH2 0x35A8 JUMP JUMPDEST DUP2 MSTORE PUSH1 0x20 ADD PUSH2 0x359B PUSH2 0x35C6 JUMP JUMPDEST DUP2 MSTORE PUSH1 0x20 ADD PUSH1 0x60 DUP2 MSTORE POP SWAP1 JUMP JUMPDEST PUSH1 0x40 MLOAD DUP1 PUSH1 0x40 ADD PUSH1 0x40 MSTORE DUP1 PUSH1 0x2 SWAP1 PUSH1 0x20 DUP3 MUL DUP1 CALLDATASIZE DUP4 CALLDATACOPY POP SWAP2 SWAP3 SWAP2 POP POP JUMP JUMPDEST PUSH1 0x40 MLOAD DUP1 PUSH1 0x60 ADD PUSH1 0x40 MSTORE DUP1 PUSH1 0x3 SWAP1 PUSH1 0x20 DUP3 MUL DUP1 CALLDATASIZE DUP4 CALLDATACOPY POP SWAP2 SWAP3 SWAP2 POP POP JUMP JUMPDEST PUSH1 0x0 DUP3 PUSH1 0x1F DUP4 ADD SLT PUSH2 0x35F4 JUMPI DUP1 DUP2 REVERT JUMPDEST PUSH2 0x35FE PUSH1 0x40 PUSH2 0x463B JUMP JUMPDEST SWAP1 POP DUP1 DUP3 DUP5 PUSH1 0x40 DUP6 ADD GT ISZERO PUSH2 0x3612 JUMPI PUSH1 0x0 DUP1 REVERT JUMPDEST PUSH1 0x0 JUMPDEST PUSH1 0x2 DUP2 LT ISZERO PUSH2 0x363E JUMPI DUP2 MLOAD PUSH2 0x3629 DUP2 PUSH2 0x4680 JUMP JUMPDEST DUP4 MSTORE PUSH1 0x20 SWAP3 DUP4 ADD SWAP3 SWAP2 SWAP1 SWAP2 ADD SWAP1 PUSH1 0x1 ADD PUSH2 0x3615 JUMP JUMPDEST POP POP POP SWAP3 SWAP2 POP POP JUMP JUMPDEST PUSH1 0x0 DUP3 PUSH1 0x1F DUP4 ADD SLT PUSH2 0x3657 JUMPI DUP1 DUP2 REVERT JUMPDEST DUP2 CALLDATALOAD PUSH2 0x366A PUSH2 0x3665 DUP3 PUSH2 0x4661 JUMP JUMPDEST PUSH2 0x463B JUMP JUMPDEST DUP2 DUP2 MSTORE SWAP2 POP PUSH1 0x20 DUP1 DUP4 ADD SWAP1 DUP5 DUP2 ADD DUP2 DUP5 MUL DUP7 ADD DUP3 ADD DUP8 LT ISZERO PUSH2 0x368B JUMPI PUSH1 0x0 DUP1 REVERT JUMPDEST PUSH1 0x0 JUMPDEST DUP5 DUP2 LT ISZERO PUSH2 0x36B3 JUMPI DUP2 CALLDATALOAD PUSH2 0x36A1 DUP2 PUSH2 0x4680 JUMP JUMPDEST DUP5 MSTORE SWAP3 DUP3 ADD SWAP3 SWAP1 DUP3 ADD SWAP1 PUSH1 0x1 ADD PUSH2 0x368E JUMP JUMPDEST POP POP POP POP POP SWAP3 SWAP2 POP POP JUMP JUMPDEST PUSH1 0x0 DUP3 PUSH1 0x1F DUP4 ADD SLT PUSH2 0x36CE JUMPI DUP1 DUP2 REVERT JUMPDEST PUSH2 0x36D8 PUSH1 0x60 PUSH2 0x463B JUMP JUMPDEST SWAP1 POP DUP1 DUP3 DUP5 PUSH1 0x60 DUP6 ADD GT ISZERO PUSH2 0x36EC JUMPI PUSH1 0x0 DUP1 REVERT JUMPDEST PUSH1 0x0 JUMPDEST PUSH1 0x3 DUP2 LT ISZERO PUSH2 0x363E JUMPI DUP2 MLOAD DUP4 MSTORE PUSH1 0x20 SWAP3 DUP4 ADD SWAP3 SWAP1 SWAP2 ADD SWAP1 PUSH1 0x1 ADD PUSH2 0x36EF JUMP JUMPDEST PUSH1 0x0 DUP3 PUSH1 0x1F DUP4 ADD SLT PUSH2 0x371E JUMPI DUP1 DUP2 REVERT JUMPDEST DUP2 CALLDATALOAD PUSH2 0x372C PUSH2 0x3665 DUP3 PUSH2 0x4661 JUMP JUMPDEST DUP2 DUP2 MSTORE SWAP2 POP PUSH1 0x20 DUP1 DUP4 ADD SWAP1 DUP5 DUP2 ADD DUP2 DUP5 MUL DUP7 ADD DUP3 ADD DUP8 LT ISZERO PUSH2 0x374D JUMPI PUSH1 0x0 DUP1 REVERT JUMPDEST PUSH1 0x0 JUMPDEST DUP5 DUP2 LT ISZERO PUSH2 0x36B3 JUMPI DUP2 CALLDATALOAD DUP5 MSTORE SWAP3 DUP3 ADD SWAP3 SWAP1 DUP3 ADD SWAP1 PUSH1 0x1 ADD PUSH2 0x3750 JUMP JUMPDEST PUSH1 0x0 DUP3 PUSH1 0x1F DUP4 ADD SLT PUSH2 0x377C JUMPI DUP1 DUP2 REVERT JUMPDEST DUP2 MLOAD PUSH2 0x378A PUSH2 0x3665 DUP3 PUSH2 0x4661 JUMP JUMPDEST DUP2 DUP2 MSTORE SWAP2 POP PUSH1 0x20 DUP1 DUP4 ADD SWAP1 DUP5 DUP2 ADD DUP2 DUP5 MUL DUP7 ADD DUP3 ADD DUP8 LT ISZERO PUSH2 0x37AB JUMPI PUSH1 0x0 DUP1 REVERT JUMPDEST PUSH1 0x0 JUMPDEST DUP5 DUP2 LT ISZERO PUSH2 0x36B3 JUMPI DUP2 MLOAD DUP5 MSTORE SWAP3 DUP3 ADD SWAP3 SWAP1 DUP3 ADD SWAP1 PUSH1 0x1 ADD PUSH2 0x37AE JUMP JUMPDEST PUSH1 0x0 PUSH2 0x140 DUP3 DUP5 SUB SLT ISZERO PUSH2 0x37DC JUMPI DUP1 DUP2 REVERT JUMPDEST PUSH2 0x37E6 PUSH1 0xE0 PUSH2 0x463B JUMP JUMPDEST SWAP1 POP DUP2 MLOAD DUP2 MSTORE PUSH1 0x20 DUP3 ADD MLOAD PUSH1 0x20 DUP3 ADD MSTORE PUSH1 0x40 DUP3 ADD MLOAD PUSH1 0x40 DUP3 ADD MSTORE PUSH1 0x60 DUP3 ADD MLOAD PUSH1 0x60 DUP3 ADD MSTORE PUSH2 0x3817 DUP4 PUSH1 0x80 DUP5 ADD PUSH2 0x35E4 JUMP JUMPDEST PUSH1 0x80 DUP3 ADD MSTORE PUSH2 0x3829 DUP4 PUSH1 0xC0 DUP5 ADD PUSH2 0x36BE JUMP JUMPDEST PUSH1 0xA0 DUP3 ADD MSTORE PUSH2 0x120 DUP3 ADD MLOAD PUSH1 0x1 PUSH1 0x1 PUSH1 0x40 SHL SUB DUP2 GT ISZERO PUSH2 0x3848 JUMPI PUSH1 0x0 DUP1 REVERT JUMPDEST PUSH2 0x3854 DUP5 DUP3 DUP6 ADD PUSH2 0x376C JUMP JUMPDEST PUSH1 0xC0 DUP4 ADD MSTORE POP SWAP3 SWAP2 POP POP JUMP JUMPDEST PUSH1 0x0 PUSH1 0x20 DUP3 DUP5 SUB SLT ISZERO PUSH2 0x3871 JUMPI DUP1 DUP2 REVERT JUMPDEST DUP2 CALLDATALOAD PUSH2 0x1B5F DUP2 PUSH2 0x4680 JUMP JUMPDEST PUSH1 0x0 PUSH1 0x20 DUP3 DUP5 SUB SLT ISZERO PUSH2 0x388D JUMPI DUP1 DUP2 REVERT JUMPDEST DUP2 MLOAD PUSH2 0x1B5F DUP2 PUSH2 0x4680 JUMP JUMPDEST PUSH1 0x0 DUP1 PUSH1 0x40 DUP4 DUP6 SUB SLT ISZERO PUSH2 0x38AA JUMPI DUP1 DUP2 REVERT JUMPDEST DUP3 MLOAD PUSH1 0x1 PUSH1 0x1 PUSH1 0x40 SHL SUB DUP1 DUP3 GT ISZERO PUSH2 0x38C0 JUMPI DUP3 DUP4 REVERT JUMPDEST DUP2 DUP6 ADD SWAP2 POP DUP6 PUSH1 0x1F DUP4 ADD SLT PUSH2 0x38D3 JUMPI DUP3 DUP4 REVERT JUMPDEST DUP2 MLOAD PUSH2 0x38E1 PUSH2 0x3665 DUP3 PUSH2 0x4661 JUMP JUMPDEST DUP2 DUP2 MSTORE PUSH1 0x20 DUP1 DUP3 ADD SWAP2 SWAP1 DUP6 DUP2 ADD DUP8 JUMPDEST DUP6 DUP2 LT ISZERO PUSH2 0x3919 JUMPI PUSH2 0x3907 DUP13 DUP5 DUP5 MLOAD DUP12 ADD ADD PUSH2 0x37CA JUMP JUMPDEST DUP6 MSTORE SWAP4 DUP3 ADD SWAP4 SWAP1 DUP3 ADD SWAP1 PUSH1 0x1 ADD PUSH2 0x38F0 JUMP JUMPDEST POP POP DUP9 ADD MLOAD SWAP1 SWAP7 POP SWAP4 POP POP POP DUP1 DUP3 GT ISZERO PUSH2 0x3931 JUMPI DUP3 DUP4 REVERT JUMPDEST POP PUSH2 0x393E DUP6 DUP3 DUP7 ADD PUSH2 0x376C JUMP JUMPDEST SWAP2 POP POP SWAP3 POP SWAP3 SWAP1 POP JUMP JUMPDEST PUSH1 0x0 PUSH1 0x20 DUP3 DUP5 SUB SLT ISZERO PUSH2 0x3959 JUMPI DUP1 DUP2 REVERT JUMPDEST DUP2 MLOAD PUSH1 0x1 PUSH1 0x1 PUSH1 0x40 SHL SUB DUP2 GT ISZERO PUSH2 0x396E JUMPI DUP2 DUP3 REVERT JUMPDEST PUSH2 0x397A DUP5 DUP3 DUP6 ADD PUSH2 0x376C JUMP JUMPDEST SWAP5 SWAP4 POP POP POP POP JUMP JUMPDEST PUSH1 0x0 PUSH1 0x20 DUP3 DUP5 SUB SLT ISZERO PUSH2 0x3993 JUMPI DUP1 DUP2 REVERT JUMPDEST DUP2 CALLDATALOAD PUSH2 0x1B5F DUP2 PUSH2 0x4695 JUMP JUMPDEST PUSH1 0x0 PUSH1 0x20 DUP3 DUP5 SUB SLT ISZERO PUSH2 0x39AF JUMPI DUP1 DUP2 REVERT JUMPDEST POP MLOAD SWAP2 SWAP1 POP JUMP JUMPDEST PUSH1 0x0 DUP1 PUSH1 0x0 PUSH1 0x60 DUP5 DUP7 SUB SLT ISZERO PUSH2 0x39CA JUMPI DUP1 DUP2 REVERT JUMPDEST DUP4 CALLDATALOAD PUSH2 0x39D5 DUP2 PUSH2 0x4680 JUMP JUMPDEST SWAP3 POP PUSH1 0x20 DUP5 ADD CALLDATALOAD PUSH2 0x39E5 DUP2 PUSH2 0x4680 JUMP JUMPDEST SWAP2 POP PUSH1 0x40 DUP5 ADD CALLDATALOAD PUSH2 0x39F5 DUP2 PUSH2 0x4695 JUMP JUMPDEST DUP1 SWAP2 POP POP SWAP3 POP SWAP3 POP SWAP3 JUMP JUMPDEST PUSH1 0x0 PUSH1 0x20 DUP3 DUP5 SUB SLT ISZERO PUSH2 0x3A11 JUMPI DUP1 DUP2 REVERT JUMPDEST DUP2 MLOAD PUSH1 0x1 PUSH1 0x1 PUSH1 0x40 SHL SUB DUP2 GT ISZERO PUSH2 0x3A26 JUMPI DUP2 DUP3 REVERT JUMPDEST PUSH2 0x397A DUP5 DUP3 DUP6 ADD PUSH2 0x37CA JUMP JUMPDEST PUSH1 0x0 PUSH1 0x20 DUP3 DUP5 SUB SLT ISZERO PUSH2 0x3A43 JUMPI DUP1 DUP2 REVERT JUMPDEST POP CALLDATALOAD SWAP2 SWAP1 POP JUMP JUMPDEST PUSH1 0x0 DUP1 PUSH1 0x40 DUP4 DUP6 SUB SLT ISZERO PUSH2 0x3A5C JUMPI DUP2 DUP3 REVERT JUMPDEST DUP3 CALLDATALOAD SWAP2 POP PUSH1 0x20 DUP4 ADD CALLDATALOAD PUSH2 0x3A6E DUP2 PUSH2 0x4680 JUMP JUMPDEST DUP1 SWAP2 POP POP SWAP3 POP SWAP3 SWAP1 POP JUMP JUMPDEST PUSH1 0x0 DUP1 PUSH1 0x40 DUP4 DUP6 SUB SLT ISZERO PUSH2 0x3A8B JUMPI DUP2 DUP3 REVERT JUMPDEST DUP3 MLOAD SWAP2 POP PUSH1 0x20 DUP4 ADD MLOAD PUSH2 0x3A6E DUP2 PUSH2 0x4680 JUMP JUMPDEST PUSH1 0x0 DUP1 PUSH1 0x0 DUP1 PUSH1 0x80 DUP6 DUP8 SUB SLT ISZERO PUSH2 0x3AB2 JUMPI DUP2 DUP3 REVERT JUMPDEST DUP5 CALLDATALOAD SWAP4 POP PUSH1 0x20 DUP6 ADD CALLDATALOAD PUSH2 0x3AC4 DUP2 PUSH2 0x4680 JUMP JUMPDEST SWAP3 POP PUSH1 0x40 DUP6 ADD CALLDATALOAD PUSH2 0x3AD4 DUP2 PUSH2 0x4680 JUMP JUMPDEST SWAP4 SWAP7 SWAP3 SWAP6 POP SWAP3 SWAP4 PUSH1 0x60 ADD CALLDATALOAD SWAP3 POP POP JUMP JUMPDEST PUSH1 0x0 DUP1 PUSH1 0x0 PUSH1 0x60 DUP5 DUP7 SUB SLT ISZERO PUSH2 0x3AF8 JUMPI DUP1 DUP2 REVERT JUMPDEST DUP4 CALLDATALOAD SWAP3 POP PUSH1 0x20 DUP5 ADD CALLDATALOAD PUSH2 0x3B0A DUP2 PUSH2 0x4680 JUMP JUMPDEST SWAP3 SWAP6 SWAP3 SWAP5 POP POP POP PUSH1 0x40 SWAP2 SWAP1 SWAP2 ADD CALLDATALOAD SWAP1 JUMP JUMPDEST PUSH1 0x0 DUP1 PUSH1 0x0 DUP1 PUSH1 0x80 DUP6 DUP8 SUB SLT ISZERO PUSH2 0x3B30 JUMPI DUP2 DUP3 REVERT JUMPDEST DUP5 CALLDATALOAD SWAP4 POP PUSH1 0x20 DUP6 ADD CALLDATALOAD PUSH1 0x1 PUSH1 0x1 PUSH1 0x40 SHL SUB DUP1 DUP3 GT ISZERO PUSH2 0x3B4D JUMPI DUP4 DUP5 REVERT JUMPDEST PUSH2 0x3B59 DUP9 DUP4 DUP10 ADD PUSH2 0x3647 JUMP JUMPDEST SWAP5 POP PUSH1 0x40 DUP8 ADD CALLDATALOAD SWAP2 POP DUP1 DUP3 GT ISZERO PUSH2 0x3B6E JUMPI DUP4 DUP5 REVERT JUMPDEST PUSH2 0x3B7A DUP9 DUP4 DUP10 ADD PUSH2 0x3647 JUMP JUMPDEST SWAP4 POP PUSH1 0x60 DUP8 ADD CALLDATALOAD SWAP2 POP DUP1 DUP3 GT ISZERO PUSH2 0x3B8F JUMPI DUP3 DUP4 REVERT JUMPDEST POP PUSH2 0x3B9C DUP8 DUP3 DUP9 ADD PUSH2 0x370E JUMP JUMPDEST SWAP2 POP POP SWAP3 SWAP6 SWAP2 SWAP5 POP SWAP3 POP JUMP JUMPDEST PUSH1 0x0 DUP1 PUSH1 0x0 DUP1 PUSH1 0x0 PUSH1 0xA0 DUP7 DUP9 SUB SLT ISZERO PUSH2 0x3BBF JUMPI DUP3 DUP4 REVERT JUMPDEST DUP6 CALLDATALOAD SWAP5 POP PUSH1 0x20 DUP7 ADD CALLDATALOAD PUSH1 0x1 PUSH1 0x1 PUSH1 0x40 SHL SUB DUP1 DUP3 GT ISZERO PUSH2 0x3BDC JUMPI DUP5 DUP6 REVERT JUMPDEST PUSH2 0x3BE8 DUP10 DUP4 DUP11 ADD PUSH2 0x3647 JUMP JUMPDEST SWAP6 POP PUSH1 0x40 DUP9 ADD CALLDATALOAD SWAP2 POP DUP1 DUP3 GT ISZERO PUSH2 0x3BFD JUMPI DUP5 DUP6 REVERT JUMPDEST PUSH2 0x3C09 DUP10 DUP4 DUP11 ADD PUSH2 0x370E JUMP JUMPDEST SWAP5 POP PUSH1 0x60 DUP9 ADD CALLDATALOAD SWAP2 POP DUP1 DUP3 GT ISZERO PUSH2 0x3C1E JUMPI DUP3 DUP4 REVERT JUMPDEST POP PUSH2 0x3C2B DUP9 DUP3 DUP10 ADD PUSH2 0x370E JUMP JUMPDEST SWAP6 SWAP9 SWAP5 SWAP8 POP SWAP3 SWAP6 PUSH1 0x80 ADD CALLDATALOAD SWAP4 SWAP3 POP POP POP JUMP JUMPDEST PUSH1 0x0 DUP1 PUSH1 0x40 DUP4 DUP6 SUB SLT ISZERO PUSH2 0x3C4F JUMPI DUP2 DUP3 REVERT JUMPDEST DUP3 CALLDATALOAD SWAP2 POP PUSH1 0x20 DUP4 ADD CALLDATALOAD PUSH1 0x1 PUSH1 0x1 PUSH1 0x40 SHL SUB DUP2 GT ISZERO PUSH2 0x3C6B JUMPI DUP2 DUP3 REVERT JUMPDEST PUSH2 0x393E DUP6 DUP3 DUP7 ADD PUSH2 0x370E JUMP JUMPDEST PUSH1 0x0 DUP1 PUSH1 0x40 DUP4 DUP6 SUB SLT ISZERO PUSH2 0x3C89 JUMPI DUP2 DUP3 REVERT JUMPDEST DUP3 CALLDATALOAD SWAP2 POP PUSH1 0x20 DUP1 DUP5 ADD CALLDATALOAD PUSH1 0x1 PUSH1 0x1 PUSH1 0x40 SHL SUB DUP1 DUP3 GT ISZERO PUSH2 0x3CA7 JUMPI DUP4 DUP5 REVERT JUMPDEST DUP2 DUP7 ADD SWAP2 POP DUP7 PUSH1 0x1F DUP4 ADD SLT PUSH2 0x3CBA JUMPI DUP4 DUP5 REVERT JUMPDEST DUP2 CALLDATALOAD DUP2 DUP2 GT ISZERO PUSH2 0x3CC8 JUMPI DUP5 DUP6 REVERT JUMPDEST PUSH2 0x3CDA PUSH1 0x1F DUP3 ADD PUSH1 0x1F NOT AND DUP6 ADD PUSH2 0x463B JUMP JUMPDEST SWAP2 POP DUP1 DUP3 MSTORE DUP8 DUP5 DUP3 DUP6 ADD ADD GT ISZERO PUSH2 0x3CEF JUMPI DUP5 DUP6 REVERT JUMPDEST DUP1 DUP5 DUP5 ADD DUP6 DUP5 ADD CALLDATACOPY DUP2 ADD SWAP1 SWAP3 ADD SWAP3 SWAP1 SWAP3 MSTORE SWAP2 SWAP5 SWAP2 SWAP4 POP SWAP1 SWAP2 POP POP JUMP JUMPDEST PUSH1 0x0 DUP1 PUSH1 0x40 DUP4 DUP6 SUB SLT ISZERO PUSH2 0x3D1D JUMPI DUP2 DUP3 REVERT JUMPDEST POP POP DUP1 CALLDATALOAD SWAP3 PUSH1 0x20 SWAP1 SWAP2 ADD CALLDATALOAD SWAP2 POP JUMP JUMPDEST PUSH1 0x0 DUP1 PUSH1 0x0 DUP1 PUSH1 0x80 DUP6 DUP8 SUB SLT ISZERO PUSH2 0x3D41 JUMPI DUP2 DUP3 REVERT JUMPDEST DUP5 CALLDATALOAD SWAP4 POP PUSH1 0x20 DUP6 ADD CALLDATALOAD SWAP3 POP PUSH1 0x40 DUP6 ADD CALLDATALOAD PUSH2 0x3D5A DUP2 PUSH2 0x4680 JUMP JUMPDEST SWAP2 POP PUSH1 0x60 DUP6 ADD CALLDATALOAD PUSH1 0x1 PUSH1 0x1 PUSH1 0x40 SHL SUB DUP2 GT ISZERO PUSH2 0x3D74 JUMPI DUP2 DUP3 REVERT JUMPDEST PUSH2 0x3B9C DUP8 DUP3 DUP9 ADD PUSH2 0x3647 JUMP JUMPDEST PUSH1 0x1 PUSH1 0x1 PUSH1 0xA0 SHL SUB AND DUP2 MSTORE PUSH1 0x20 ADD SWAP1 JUMP JUMPDEST PUSH1 0x0 DUP2 MLOAD DUP1 DUP5 MSTORE PUSH1 0x20 DUP1 DUP6 ADD SWAP5 POP DUP1 DUP5 ADD DUP4 JUMPDEST DUP4 DUP2 LT ISZERO PUSH2 0x3DC9 JUMPI DUP2 MLOAD PUSH1 0x1 PUSH1 0x1 PUSH1 0xA0 SHL SUB AND DUP8 MSTORE SWAP6 DUP3 ADD SWAP6 SWAP1 DUP3 ADD SWAP1 PUSH1 0x1 ADD PUSH2 0x3DA4 JUMP JUMPDEST POP SWAP5 SWAP6 SWAP5 POP POP POP POP POP JUMP JUMPDEST DUP1 PUSH1 0x0 JUMPDEST PUSH1 0x3 DUP2 LT ISZERO PUSH2 0x2F4B JUMPI DUP2 MLOAD DUP5 MSTORE PUSH1 0x20 SWAP4 DUP5 ADD SWAP4 SWAP1 SWAP2 ADD SWAP1 PUSH1 0x1 ADD PUSH2 0x3DD8 JUMP JUMPDEST PUSH1 0x0 DUP2 MLOAD DUP1 DUP5 MSTORE PUSH1 0x20 DUP1 DUP6 ADD SWAP5 POP DUP1 DUP5 ADD DUP4 JUMPDEST DUP4 DUP2 LT ISZERO PUSH2 0x3DC9 JUMPI DUP2 MLOAD DUP8 MSTORE SWAP6 DUP3 ADD SWAP6 SWAP1 DUP3 ADD SWAP1 PUSH1 0x1 ADD PUSH2 0x3E0A JUMP JUMPDEST PUSH1 0x0 DUP2 MLOAD DUP1 DUP5 MSTORE DUP2 JUMPDEST DUP2 DUP2 LT ISZERO PUSH2 0x3E4B JUMPI PUSH1 0x20 DUP2 DUP6 ADD DUP2 ADD MLOAD DUP7 DUP4 ADD DUP3 ADD MSTORE ADD PUSH2 0x3E2F JUMP JUMPDEST DUP2 DUP2 GT ISZERO PUSH2 0x3E5C JUMPI DUP3 PUSH1 0x20 DUP4 DUP8 ADD ADD MSTORE JUMPDEST POP PUSH1 0x1F ADD PUSH1 0x1F NOT AND SWAP3 SWAP1 SWAP3 ADD PUSH1 0x20 ADD SWAP3 SWAP2 POP POP JUMP JUMPDEST PUSH1 0x0 PUSH2 0x140 DUP3 MLOAD DUP5 MSTORE PUSH1 0x20 DUP1 DUP5 ADD MLOAD DUP2 DUP7 ADD MSTORE PUSH1 0x40 DUP5 ADD MLOAD PUSH1 0x40 DUP7 ADD MSTORE PUSH1 0x60 DUP5 ADD MLOAD PUSH1 0x60 DUP7 ADD MSTORE PUSH1 0x80 DUP5 ADD MLOAD PUSH1 0x80 DUP7 ADD DUP5 JUMPDEST PUSH1 0x2 DUP2 LT ISZERO PUSH2 0x3EC5 JUMPI PUSH2 0x3EB7 DUP3 DUP5 MLOAD PUSH2 0x3D80 JUMP JUMPDEST SWAP3 DUP5 ADD SWAP3 SWAP2 POP PUSH1 0x1 ADD PUSH2 0x3EA3 JUMP JUMPDEST POP POP POP POP PUSH1 0xA0 DUP4 ADD MLOAD PUSH2 0x3EDB PUSH1 0xC0 DUP7 ADD DUP3 PUSH2 0x3DD4 JUMP JUMPDEST POP PUSH1 0xC0 DUP4 ADD MLOAD DUP2 PUSH2 0x120 DUP7 ADD MSTORE PUSH2 0x3EF4 DUP3 DUP7 ADD DUP3 PUSH2 0x3DF7 JUMP JUMPDEST SWAP6 SWAP5 POP POP POP POP POP JUMP JUMPDEST SWAP1 JUMP JUMPDEST PUSH1 0x1 PUSH1 0x1 PUSH1 0xA0 SHL SUB SWAP2 SWAP1 SWAP2 AND DUP2 MSTORE PUSH1 0x20 ADD SWAP1 JUMP JUMPDEST PUSH1 0x1 PUSH1 0x1 PUSH1 0xA0 SHL SUB DUP6 AND DUP2 MSTORE PUSH1 0x80 PUSH1 0x20 DUP3 ADD DUP2 SWAP1 MSTORE PUSH1 0x0 SWAP1 PUSH2 0x3F38 SWAP1 DUP4 ADD DUP7 PUSH2 0x3D91 JUMP JUMPDEST DUP3 DUP2 SUB PUSH1 0x40 DUP5 ADD MSTORE PUSH2 0x3F4A DUP2 DUP7 PUSH2 0x3DF7 JUMP JUMPDEST SWAP1 POP DUP3 DUP2 SUB PUSH1 0x60 DUP5 ADD MSTORE PUSH2 0x3F5E DUP2 DUP6 PUSH2 0x3DF7 JUMP JUMPDEST SWAP8 SWAP7 POP POP POP POP POP POP POP JUMP JUMPDEST PUSH1 0x1 PUSH1 0x1 PUSH1 0xA0 SHL SUB SWAP3 SWAP1 SWAP3 AND DUP3 MSTORE PUSH1 0x20 DUP3 ADD MSTORE PUSH1 0x40 ADD SWAP1 JUMP JUMPDEST PUSH1 0x1 PUSH1 0x1 PUSH1 0xA0 SHL SUB DUP6 DUP2 AND DUP3 MSTORE PUSH1 0x20 DUP3 ADD DUP6 SWAP1 MSTORE DUP4 AND PUSH1 0x40 DUP3 ADD MSTORE PUSH1 0x80 PUSH1 0x60 DUP3 ADD DUP2 SWAP1 MSTORE PUSH1 0x0 SWAP1 PUSH2 0x3FB5 SWAP1 DUP4 ADD DUP5 PUSH2 0x3D91 JUMP JUMPDEST SWAP7 SWAP6 POP POP POP POP POP POP JUMP JUMPDEST PUSH1 0x1 PUSH1 0x1 PUSH1 0xA0 SHL SUB SWAP4 DUP5 AND DUP2 MSTORE SWAP2 SWAP1 SWAP3 AND PUSH1 0x20 DUP3 ADD MSTORE PUSH1 0x40 DUP2 ADD SWAP2 SWAP1 SWAP2 MSTORE PUSH1 0x60 ADD SWAP1 JUMP JUMPDEST PUSH1 0x1 PUSH1 0x1 PUSH1 0xA0 SHL SUB DUP7 DUP2 AND DUP3 MSTORE PUSH1 0x1 PUSH1 0x1 PUSH1 0xE0 SHL SUB NOT DUP7 AND PUSH1 0x20 DUP4 ADD MSTORE DUP5 DUP2 AND PUSH1 0x40 DUP4 ADD MSTORE PUSH1 0xA0 PUSH1 0x60 DUP4 ADD DUP2 SWAP1 MSTORE PUSH1 0x0 SWAP2 SWAP1 PUSH2 0x4021 SWAP1 DUP5 ADD DUP7 PUSH2 0x3E26 JUMP JUMPDEST SWAP2 POP DUP1 DUP5 AND PUSH1 0x80 DUP5 ADD MSTORE POP SWAP7 SWAP6 POP POP POP POP POP POP JUMP JUMPDEST PUSH1 0x0 PUSH1 0x20 DUP1 DUP4 ADD DUP2 DUP5 MSTORE DUP1 DUP6 MLOAD DUP1 DUP4 MSTORE PUSH1 0x40 DUP7 ADD SWAP2 POP PUSH1 0x40 DUP5 DUP3 MUL DUP8 ADD ADD SWAP3 POP DUP4 DUP8 ADD DUP6 JUMPDEST DUP3 DUP2 LT ISZERO PUSH2 0x4089 JUMPI PUSH1 0x3F NOT DUP9 DUP7 SUB ADD DUP5 MSTORE PUSH2 0x4077 DUP6 DUP4 MLOAD PUSH2 0x3E71 JUMP JUMPDEST SWAP5 POP SWAP3 DUP6 ADD SWAP3 SWAP1 DUP6 ADD SWAP1 PUSH1 0x1 ADD PUSH2 0x405B JUMP JUMPDEST POP SWAP3 SWAP8 SWAP7 POP POP POP POP POP POP POP JUMP JUMPDEST SWAP1 ISZERO ISZERO DUP2 MSTORE PUSH1 0x20 ADD SWAP1 JUMP JUMPDEST SWAP1 DUP2 MSTORE PUSH1 0x20 ADD SWAP1 JUMP JUMPDEST PUSH1 0x0 PUSH1 0x20 DUP3 MSTORE PUSH2 0x1B5F PUSH1 0x20 DUP4 ADD DUP5 PUSH2 0x3E26 JUMP JUMPDEST PUSH1 0x20 DUP1 DUP3 MSTORE PUSH1 0x14 SWAP1 DUP3 ADD MSTORE PUSH20 0x14185D5CD8589B194E881B9BDD081C185D5CD959 PUSH1 0x62 SHL PUSH1 0x40 DUP3 ADD MSTORE PUSH1 0x60 ADD SWAP1 JUMP JUMPDEST PUSH1 0x20 DUP1 DUP3 MSTORE PUSH1 0x25 SWAP1 DUP3 ADD MSTORE PUSH32 0x436F726E466920436F6E74726F6C6C65723A2047617320507269636520546F6F PUSH1 0x40 DUP3 ADD MSTORE PUSH5 0x4090D2CED PUSH1 0xDB SHL PUSH1 0x60 DUP3 ADD MSTORE PUSH1 0x80 ADD SWAP1 JUMP JUMPDEST PUSH1 0x20 DUP1 DUP3 MSTORE PUSH1 0x16 SWAP1 DUP3 ADD MSTORE PUSH22 0x21B7B93723349D1024B73B30B634B2102937BABA32B9 PUSH1 0x51 SHL PUSH1 0x40 DUP3 ADD MSTORE PUSH1 0x60 ADD SWAP1 JUMP JUMPDEST PUSH1 0x20 DUP1 DUP3 MSTORE PUSH1 0x2C SWAP1 DUP3 ADD MSTORE PUSH32 0x436F726E466920436F6E74726F6C6C65723A204E6F20557365722046756E6473 PUSH1 0x40 DUP3 ADD MSTORE PUSH12 0x20746F205769746864726177 PUSH1 0xA0 SHL PUSH1 0x60 DUP3 ADD MSTORE PUSH1 0x80 ADD SWAP1 JUMP JUMPDEST PUSH1 0x20 DUP1 DUP3 MSTORE PUSH1 0x26 SWAP1 DUP3 ADD MSTORE PUSH32 0x4F776E61626C653A206E6577206F776E657220697320746865207A65726F2061 PUSH1 0x40 DUP3 ADD MSTORE PUSH6 0x646472657373 PUSH1 0xD0 SHL PUSH1 0x60 DUP3 ADD MSTORE PUSH1 0x80 ADD SWAP1 JUMP JUMPDEST PUSH1 0x20 DUP1 DUP3 MSTORE PUSH1 0x27 SWAP1 DUP3 ADD MSTORE PUSH32 0x436F726E466920436F6E74726F6C6C65723A2047656C61746F204F6E6C792046 PUSH1 0x40 DUP3 ADD MSTORE PUSH7 0x3AB731BA34B7B7 PUSH1 0xC9 SHL PUSH1 0x60 DUP3 ADD MSTORE PUSH1 0x80 ADD SWAP1 JUMP JUMPDEST PUSH1 0x20 DUP1 DUP3 MSTORE PUSH1 0xF SWAP1 DUP3 ADD MSTORE PUSH15 0x496E76616C6964204C656E67746873 PUSH1 0x88 SHL PUSH1 0x40 DUP3 ADD MSTORE PUSH1 0x60 ADD SWAP1 JUMP JUMPDEST PUSH1 0x20 DUP1 DUP3 MSTORE PUSH1 0x28 SWAP1 DUP3 ADD MSTORE PUSH32 0x436F726E466920436F6E74726F6C6C65723A204D617820536C69707061676520 PUSH1 0x40 DUP3 ADD MSTORE PUSH8 0x115E18D959591959 PUSH1 0xC2 SHL PUSH1 0x60 DUP3 ADD MSTORE PUSH1 0x80 ADD SWAP1 JUMP JUMPDEST PUSH1 0x20 DUP1 DUP3 MSTORE PUSH1 0x1B SWAP1 DUP3 ADD MSTORE PUSH32 0x536166654D6174683A206164646974696F6E206F766572666C6F770000000000 PUSH1 0x40 DUP3 ADD MSTORE PUSH1 0x60 ADD SWAP1 JUMP JUMPDEST PUSH1 0x20 DUP1 DUP3 MSTORE PUSH1 0x28 SWAP1 DUP3 ADD MSTORE PUSH32 0x436F726E466920436F6E74726F6C6C65723A20496E76616C6964205061796D65 PUSH1 0x40 DUP3 ADD MSTORE PUSH8 0x373A102A37B5B2B7 PUSH1 0xC1 SHL PUSH1 0x60 DUP3 ADD MSTORE PUSH1 0x80 ADD SWAP1 JUMP JUMPDEST PUSH1 0x20 DUP1 DUP3 MSTORE PUSH1 0x10 SWAP1 DUP3 ADD MSTORE PUSH16 0x14185D5CD8589B194E881C185D5CD959 PUSH1 0x82 SHL PUSH1 0x40 DUP3 ADD MSTORE PUSH1 0x60 ADD SWAP1 JUMP JUMPDEST PUSH1 0x20 DUP1 DUP3 MSTORE PUSH1 0x1E SWAP1 DUP3 ADD MSTORE PUSH32 0x5F7472616E736665723A20455448207472616E73666572206661696C65640000 PUSH1 0x40 DUP3 ADD MSTORE PUSH1 0x60 ADD SWAP1 JUMP JUMPDEST PUSH1 0x20 DUP1 DUP3 MSTORE PUSH1 0x21 SWAP1 DUP3 ADD MSTORE PUSH32 0x536166654D6174683A206D756C7469706C69636174696F6E206F766572666C6F PUSH1 0x40 DUP3 ADD MSTORE PUSH1 0x77 PUSH1 0xF8 SHL PUSH1 0x60 DUP3 ADD MSTORE PUSH1 0x80 ADD SWAP1 JUMP JUMPDEST PUSH1 0x20 DUP1 DUP3 MSTORE DUP2 DUP2 ADD MSTORE PUSH32 0x4F776E61626C653A2063616C6C6572206973206E6F7420746865206F776E6572 PUSH1 0x40 DUP3 ADD MSTORE PUSH1 0x60 ADD SWAP1 JUMP JUMPDEST PUSH1 0x20 DUP1 DUP3 MSTORE PUSH1 0x26 SWAP1 DUP3 ADD MSTORE PUSH32 0x436F726E466920436F6E74726F6C6C65723A20455448207472616E7366657220 PUSH1 0x40 DUP3 ADD MSTORE PUSH6 0x19985A5B1959 PUSH1 0xD2 SHL PUSH1 0x60 DUP3 ADD MSTORE PUSH1 0x80 ADD SWAP1 JUMP JUMPDEST PUSH1 0x20 DUP1 DUP3 MSTORE PUSH1 0x27 SWAP1 DUP3 ADD MSTORE PUSH32 0x436F726E466920436F6E74726F6C6C65723A20496E76616C6964204F72646572 PUSH1 0x40 DUP3 ADD MSTORE PUSH7 0x102334B63632B9 PUSH1 0xC9 SHL PUSH1 0x60 DUP3 ADD MSTORE PUSH1 0x80 ADD SWAP1 JUMP JUMPDEST PUSH1 0x20 DUP1 DUP3 MSTORE PUSH1 0x22 SWAP1 DUP3 ADD MSTORE PUSH32 0x436F726E466920436F6E74726F6C6C65723A2047656C61746F2044697361626C PUSH1 0x40 DUP3 ADD MSTORE PUSH2 0x1959 PUSH1 0xF2 SHL PUSH1 0x60 DUP3 ADD MSTORE PUSH1 0x80 ADD SWAP1 JUMP JUMPDEST PUSH1 0x20 DUP1 DUP3 MSTORE PUSH1 0x2C SWAP1 DUP3 ADD MSTORE PUSH32 0x436F726E466920436F6E74726F6C6C65723A204F6E6C7920416374697665204F PUSH1 0x40 DUP3 ADD MSTORE PUSH12 0x726465722046696C6C657273 PUSH1 0xA0 SHL PUSH1 0x60 DUP3 ADD MSTORE PUSH1 0x80 ADD SWAP1 JUMP JUMPDEST PUSH1 0x20 DUP1 DUP3 MSTORE PUSH1 0x1F SWAP1 DUP3 ADD MSTORE PUSH32 0x5265656E7472616E637947756172643A207265656E7472616E742063616C6C00 PUSH1 0x40 DUP3 ADD MSTORE PUSH1 0x60 ADD SWAP1 JUMP JUMPDEST PUSH1 0x20 DUP1 DUP3 MSTORE PUSH1 0x21 SWAP1 DUP3 ADD MSTORE PUSH32 0x436F726E466920436F6E74726F6C6C65723A20496E616374697665205661756C PUSH1 0x40 DUP3 ADD MSTORE PUSH1 0x1D PUSH1 0xFA SHL PUSH1 0x60 DUP3 ADD MSTORE PUSH1 0x80 ADD SWAP1 JUMP JUMPDEST PUSH1 0x20 DUP1 DUP3 MSTORE PUSH1 0x2D SWAP1 DUP3 ADD MSTORE PUSH32 0x436F726E466920436F6E74726F6C6C65723A20496E737566666963656E742055 PUSH1 0x40 DUP3 ADD MSTORE PUSH13 0x736572204761732046756E6473 PUSH1 0x98 SHL PUSH1 0x60 DUP3 ADD MSTORE PUSH1 0x80 ADD SWAP1 JUMP JUMPDEST PUSH1 0x0 PUSH1 0x20 DUP3 MSTORE PUSH2 0x1B5F PUSH1 0x20 DUP4 ADD DUP5 PUSH2 0x3E71 JUMP JUMPDEST SWAP2 DUP3 MSTORE PUSH1 0x20 DUP3 ADD MSTORE PUSH1 0x40 ADD SWAP1 JUMP JUMPDEST SWAP5 DUP6 MSTORE PUSH1 0x20 DUP6 ADD SWAP4 SWAP1 SWAP4 MSTORE PUSH1 0x1 PUSH1 0x1 PUSH1 0xA0 SHL SUB SWAP2 DUP3 AND PUSH1 0x40 DUP6 ADD MSTORE AND PUSH1 0x60 DUP4 ADD MSTORE PUSH1 0x80 DUP3 ADD MSTORE PUSH1 0xA0 ADD SWAP1 JUMP JUMPDEST PUSH1 0xFF SWAP2 SWAP1 SWAP2 AND DUP2 MSTORE PUSH1 0x20 ADD SWAP1 JUMP JUMPDEST PUSH1 0x40 MLOAD DUP2 DUP2 ADD PUSH1 0x1 PUSH1 0x1 PUSH1 0x40 SHL SUB DUP2 GT DUP3 DUP3 LT OR ISZERO PUSH2 0x4659 JUMPI PUSH1 0x0 DUP1 REVERT JUMPDEST PUSH1 0x40 MSTORE SWAP2 SWAP1 POP JUMP JUMPDEST PUSH1 0x0 PUSH1 0x1 PUSH1 0x1 PUSH1 0x40 SHL SUB DUP3 GT ISZERO PUSH2 0x4676 JUMPI DUP1 DUP2 REVERT JUMPDEST POP PUSH1 0x20 SWAP1 DUP2 MUL ADD SWAP1 JUMP JUMPDEST PUSH1 0x1 PUSH1 0x1 PUSH1 0xA0 SHL SUB DUP2 AND DUP2 EQ PUSH2 0x3190 JUMPI PUSH1 0x0 DUP1 REVERT JUMPDEST DUP1 ISZERO ISZERO DUP2 EQ PUSH2 0x3190 JUMPI PUSH1 0x0 DUP1 REVERT INVALID LOG2 PUSH5 0x6970667358 0x22 SLT KECCAK256 SHL ISZERO SLT SWAP15 0xB8 0xE3 0xF9 0xB1 PUSH11 0xA598581D064EF48F8AB266 0xDC 0x49 0xD3 0xC8 0xBB SWAP15 DUP12 0xBB 0xBB EXTCODEHASH 0x25 PUSH29 0x64736F6C634300060C0033000000000000000000000000000000000000 ",
  "sha1": "09c2cc0dff6fa0bc88d2c9c940b18c831fef675d",
  "source": "// SPDX-License-Identifier: MIT\npragma solidity 0.6.12;\n\nimport \"../interfaces/IVaultBase.sol\";\nimport \"../interfaces/IUniswapV2Router02.sol\";\nimport \"./openzeppelin/contracts/token/ERC20/SafeERC20.sol\";\nimport \"./openzeppelin/contracts/access/Ownable.sol\";\nimport \"./openzeppelin/contracts/utils/Pausable.sol\";\nimport \"./openzeppelin/contracts/utils/ReentrancyGuard.sol\";\nimport \"../interfaces/IPokeMe.sol\";\nimport \"../interfaces/IResolver.sol\";\nimport \"../interfaces/IStrategy.sol\";\n\n\npragma experimental ABIEncoderV2;\n\ncontract ControllerOld is Ownable, Pausable, ReentrancyGuard {\n    using SafeERC20 for IERC20;\n    using SafeMath for uint256;\n\n    struct UserTokens {\n        address vault;\n        uint256 tokenId;\n    }\n\n    uint8 public constant NOT_A_VAULT = 0;\n    uint8 public constant ACTIVE_VAULT = 1;\n    uint8 public constant DEACTIVATED_VAULT = 2;\n\n    // Gelato address that receives the gas fee after execution\n    address payable public constant gelato = 0x7598e84B2E114AB62CAB288CE5f7d5f6bad35BbA;\n\n    // Native token\n    address public constant ETH = 0xEeeeeEeeeEeEeeEeEeEeeEEEeeeeEeeeeeeeEEeE;\n\n    // Contract that will call this contract to fill orders\n    IPokeMe public PokeMe = IPokeMe(0x527a819db1eb0e34426297b03bae11F2f8B3A19E);\n\n    // Contract for finding the best router and path for a given swap\n    IResolver public Resolver;\n\n    // Token used to pay Gelato for executing transactions\n    address public GasToken = 0xEeeeeEeeeEeEeeEeEeEeeEEEeeeeEeeeeeeeEEeE;\n\n    // true: Gelato is active - Gelato will monitor orders and fill when executable\n    // false: Gelato is inactive - Dev will monitor orders and fill when executable\n    bool public Gelato;\n\n    // taskIds[vaultId][tokenId] --> Gelato task ID\n    // Gelato tasks are only created when 'Gelato' = true\n    mapping(uint256 => mapping(uint256 => bytes32)) public taskIds;\n\n    // tokenMaxGas[vaultId][tokenId] --> Max gas price (gwei)\n    // Filling order txs will revert if the gas price exceeds what the user set\n    mapping(uint256 => mapping(uint256 => uint256)) public tokenMaxGas;\n\n    // Amount of gas a user has deposited\n    mapping(address => uint256) public userGasAmounts;\n\n    // All routers used for filling orders\n    IUniswapV2Router02[] public routers;\n\n    // activeRouters[router] --> true: Router is active; false: Router is inactive\n    // Note: Deactivated routers are not removed from 'routers', be sure that the\n    // router being used returns 'true' from the mapping below before using to \n    // fill orders.\n    mapping(IUniswapV2Router02 => bool) public activeRouters;\n\n    // All vaults\n    IVaultBase[] public vaults;\n\n    // _vaults[vault] --> 0: Vault not present in Controller; 1: Vault is active;\n    // 2: Vault is deactivated\n    mapping(address => uint8) internal _vaults;\n\n    // _vaultIds[vault] --> Vault index of 'vaults' (i.e. vault ID)\n    mapping(address => uint256) internal _vaultIds;\n\n    // Dev wallet for protocol fees\n    address public constant Fees = 0x22B20054BBD6dC5C23D7c7595e092ca728a00c32;\n\n    // Slippage setting for when filling orders\n    // slippage = SLIPPAGE_POINTS / SLIPPAGE_BASE_POINTS\n    // 0.5% slippage --> SLIPPAGE_POINTS = 5; SLIPPAGE_BASE_POINTS = 1000\n    uint256 public SLIPPAGE_POINTS;\n    uint256 public SLIPPAGE_BASE_POINTS;\n\n    // true: Only whitelisted addresses can fill orders\n    // false: Any address can fill orders\n    bool public whitelistOrderFillers;\n\n    // Whitelisted addresses that can fill orders\n    address[] public orderFillers;\n\n    // activeOrderFillers[filler] --> 0: Filler not whitelisted; 1: Filler is whitelisted;\n    // 2: Filler has permissions revoked\n    mapping(address => uint8) public activeOrderFillers;\n\n    // Contracts that hold trade tokens\n    address[] public holdingStrategies;\n\n    // _holdingStrategies[strategy] --> true: Active holding strategy; false: Holding\n    // strategy not added yet.\n    mapping(address => bool) internal _holdingStrategies;\n\n\n    // --------------------------------------------------------------------------------\n    // //////////////////////////////////// Events ////////////////////////////////////\n    // --------------------------------------------------------------------------------\n    event DepositGas(address indexed _receiver, address _gasToken, uint256 _amount);\n    event CreateTrade(address indexed _creator, uint256 indexed _vaultId, uint256 _tokenId);\n    event CreateOrder(address indexed _creator, uint256 indexed _vaultId, uint256 _orderId);\n    event FillOrder(address indexed _orderOwner, uint256 indexed _vaultId, uint256 indexed _tokenId, uint256 _orderId);\n    event Withdraw(address indexed _owner, uint256 indexed _vaultId, uint256 indexed _tokenId);\n\n    \n    // --------------------------------------------------------------------------------\n    // ////////////////////////////////// Modifiers ///////////////////////////////////\n    // --------------------------------------------------------------------------------\n\n    /**\n    * @dev Restricts the caller to only the Gelato 'PokeMe' contract \n    */\n    modifier onlyGelato() {\n        require(\n            msg.sender == address(PokeMe), \n            \"CornFi Controller: Gelato Only Function\"\n        );\n        require(Gelato, \"CornFi Controller: Gelato Disabled\");\n        _;\n    }\n\n    // --------------------------------------------------------------------------------\n\n    /**\n    * @dev Restricts the caller to only addresses that are whitelisted \n    */\n    modifier onlyApprovedFillers() {\n        if(whitelistOrderFillers) {\n            require(\n                activeOrderFillers[msg.sender] == 1, \n                \"CornFi Controller: Invalid Order Filler\"\n            );\n        }\n        _;\n    }\n\n\n    // --------------------------------------------------------------------------------\n    // --------------------------------------------------------------------------------\n    // --------------------------------------------------------------------------------\n    // --------------------------------------------------------------------------------\n\n    /**\n    * @param _slippagePoints: Highest acceptable slippage amount when executing swaps\n    * @param _slippageBasePoints: (_slippagePoints / _slippageBasePoints) --> slippage %\n    * @param _routers: Approved routers used for executing swaps. No new routers can be\n    * added after deploying this contract.\n    * @param _resolver: Gelato resolver contract used to find the router and swap path\n    * that provides the highest output amount.\n    */\n    constructor(\n        uint256 _slippagePoints,\n        uint256 _slippageBasePoints,\n        IUniswapV2Router02[] memory _routers,\n        address _resolver\n    ) public {\n        _setSlippage(_slippagePoints, _slippageBasePoints);\n        Gelato = true;\n        \n        Resolver = IResolver(_resolver);\n        for(uint i = 0; i < _routers.length; i++) {\n            _addRouter(_routers[i]);\n        }\n        whitelistOrderFillers = true;\n        _addOrderFiller(msg.sender);\n    }\n\n\n    // --------------------------------------------------------------------------------\n    // //////////////////////// Contract Settings - Only Owner ////////////////////////\n    // --------------------------------------------------------------------------------\n\n    /**\n    * @dev After calling, 'createTrade', 'fillOrder', 'fillOrderGelato', and 'depositGas'\n    * functions will be disabled. Users will only be able to withdraw their trades and\n    * any deposited gas. Only the owner of this contract can call this function.\n    */\n    function pause() external onlyOwner {\n        _pause();\n    }\n\n    // --------------------------------------------------------------------------------\n\n    /**\n    * @dev Enables 'createTrade', 'fillOrder', 'fillOrderGelato', and 'depositGas'\n    * functions. Only the owner of this contract can call this function.\n    */\n    function unpause() external onlyOwner {\n        _unpause();\n    }\n\n    // --------------------------------------------------------------------------------\n\n    /**\n    * @dev Whitelist an order filler. Only the owner of this contract can call this \n    * function.\n    * @param _filler: Address that will call 'fillOrder()' within this contract\n    */\n    function addOrderFiller(address _filler) external onlyOwner {\n        _addOrderFiller(_filler);\n    }\n\n    // --------------------------------------------------------------------------------\n\n    /**\n    * @dev Restrict order filling to a whitelist of addresses or allow any address to\n    * fill orders. Only the owner of this contract can call this function.\n    * @param _whitelist: true: Only whitelisted addresses can fill orders; false: Any\n    * address can fill orders\n    */\n    function setOrderFillers(bool _whitelist) external onlyOwner {\n        whitelistOrderFillers = _whitelist;\n    }\n\n    // --------------------------------------------------------------------------------\n\n    /**\n    * @dev Revokes order filling permissions from an address. Only the owner of this \n    * contract can call this function.\n    * @param _filler: Address that will have its order filling permissions revoked\n    */\n    function deactivateOrderFiller(address _filler) external onlyOwner {\n        require(\n            activeOrderFillers[_filler] == 1, \n            \"CornFi Controller: Only Active Order Fillers\"\n        );\n        activeOrderFillers[_filler] = 2;\n    }\n\n    // --------------------------------------------------------------------------------\n\n    /**\n    * @dev Set the URI of a vault to display an image. Only the owner of this contract \n    * can call this function.\n    * @param _vaultId: Vault that will have its URI set\n    * @param _URI: IPFS link\n    */\n    function setVaultURI(uint256 _vaultId, string memory _URI) external onlyOwner {\n        vaults[_vaultId].setBaseURI(_URI);\n    }\n\n    // --------------------------------------------------------------------------------\n\n    /**\n    * @dev Deactivated router will no longer be able to be used for filling orders.\n    * A deactivated router cannot be reactivated. Only the owner of this contract can \n    * call this function.\n    * @param _router: Router to deactivate \n    */\n    function deactivateRouter(IUniswapV2Router02 _router) external onlyOwner {\n        activeRouters[_router] = false;\n    }\n\n    // --------------------------------------------------------------------------------\n\n    /**\n    * @dev Add a vault for trading. Vault must inherit 'VaultBase.sol' and meet the\n    * vault standard for proper functionality. Only the owner of this contract can call \n    * this function.\n    * @param _vault: Address of vault to add\n    */\n    function addVault(address _vault) external onlyOwner {\n        require(_vaults[_vault] == NOT_A_VAULT);\n        _vaultIds[_vault] = vaults.length;\n        vaults.push(IVaultBase(_vault));\n        _vaults[_vault] = ACTIVE_VAULT;\n    }\n\n    // --------------------------------------------------------------------------------\n\n    /**\n    * @dev Disables the 'createTrade', 'fillOrder', and 'fillOrderGelato' functions.\n    * Once a vault is deactivated, users will only be able to withdraw their trades.\n    * Deactivated vaults cannot be reactivated. Only the owner of this contract can \n    * call this function.\n    * @param _vault: Address of vault to deactivate\n    */\n    function deactivateVault(address _vault) external onlyOwner {\n        _vaults[_vault] = DEACTIVATED_VAULT;\n    }\n\n    // --------------------------------------------------------------------------------\n\n    /**\n    * @dev Set the slippage amount for each order being filled. Only the owner of this \n    * contract can call this function.\n    * @param _slippagePoints: This value divided by '_slippageBasePoints' gives the \n    * slippage percentage.\n    * @param _slippageBasePoints: Max amount of slippage points\n    */\n    function setSlippage(uint256 _slippagePoints, uint256 _slippageBasePoints) external onlyOwner {\n        _setSlippage(_slippagePoints, _slippageBasePoints);\n    }\n\n    // --------------------------------------------------------------------------------\n\n    /**\n    * @dev Configure Gelato settings. Enable/disable filling orders with Gelato. Only \n    * the owner of this contract can call this function.\n    * @param _pokeMe: Gelato contract that will call this contract\n    * @param _resolver: Contract that the Gelato executor will call for the input data\n    * used when calling this contract.\n    * @param _gelato: true: Gelato fills orders; false: Dev fills orders\n    */\n    function gelatoSettings(IPokeMe _pokeMe, IResolver _resolver, bool _gelato) external onlyOwner {\n        PokeMe = _pokeMe;\n        Resolver = _resolver;\n        Gelato = _gelato;\n    }\n\n    // --------------------------------------------------------------------------------\n\n    /**\n    * @dev Deactivate an ERC20 token for a vault. Once a token is deactivated, it cannot\n    * be reactivated. Only the owner can call this function.\n    * @param _vaultId: Index of vault in 'vaults'\n    * @param _token: ERC20 token address  \n    */\n    function deactivateToken(uint256 _vaultId, address _token) external onlyOwner {\n        return vaults[_vaultId].deactivateToken(_token);\n    } \n\n    // --------------------------------------------------------------------------------\n\n    /**\n    * @dev Map a holding strategy contract to an ERC20 token. A token can only be mapped\n    * to holding strategy once. Only the owner of this contract can call this function.\n    * @param _vaultId: Index of vault in 'vaults'\n    * @param _token: ERC20 token address\n    * @param _strategy: Holding strategy contract\n    * @param _minDeposit: Minimum amount of '_token' that can be deposited when creating\n    * a trade. \n    */\n    function setTokenStrategy(\n        uint256 _vaultId, \n        address _token, \n        address _strategy, \n        uint256 _minDeposit\n    ) external onlyOwner {\n        // Map the holding strategy to the ERC20 token\n        vaults[_vaultId].setStrategy(_token, _strategy, _minDeposit);\n\n        // Add the holding strategy address if not already done\n        if(!_holdingStrategies[_strategy]) {\n            holdingStrategies.push(_strategy);\n            _holdingStrategies[_strategy] = true;\n        }\n    } \n\n    function setTokenStrategies(\n        uint256 _vaultId, \n        address[] memory _tokens, \n        address [] memory _strategies, \n        uint256 [] memory _minDeposits\n    ) external onlyOwner {\n        require(_tokens.length == _strategies.length && _tokens.length == _minDeposits.length, \"Invalid Lengths\");\n\n        for(uint i = 0; i < _tokens.length; i++) {\n            // Map the holding strategy to the ERC20 token\n            vaults[_vaultId].setStrategy(_tokens[i], _strategies[i], _minDeposits[i]);\n\n            // Add the holding strategy address if not already done\n            if(!_holdingStrategies[_strategies[i]]) {\n                holdingStrategies.push(_strategies[i]);\n                _holdingStrategies[_strategies[i]] = true;\n            }\n        }\n    } \n\n    // --------------------------------------------------------------------------------\n\n    /**\n    * @dev Change the minimum deposit amount for an ERC20 token when creating a trade.\n    * ERC20 token must already be mapped to a holding strategy before calling this\n    * function. Only the owner of this contract can call this function. \n    */\n    function changeTokenMinimumDeposit(\n        uint256 _vaultId, \n        address _token, \n        uint256 _minDeposit\n    ) external onlyOwner {              \n        vaults[_vaultId].changeMinimumDeposit(_token, _minDeposit);\n    }\n\n\n    // --------------------------------------------------------------------------------\n    // ///////////////////////////// Read-Only Functions //////////////////////////////\n    // --------------------------------------------------------------------------------\n\n    // /**\n    // * @param _vaultId: Index of vault in 'vaults'\n    // * @param _token: ERC20 token address\n    // * @return Holding strategy mapped to '_token'\n    // */\n    // function tokenStrategy(\n    //     uint256 _vaultId, \n    //     address _token\n    // ) external view returns (IStrategy) {                                     \n    //     return vaults[_vaultId].strategy(_token);                                                                   \n    // }                                                                                                       \n\n    // // --------------------------------------------------------------------------------\n\n    // /**\n    // * @param _vaultId: Index of vault in 'vaults'\n    // * @param _token: ERC20 token address\n    // * @return Minimum amount of '_token' that can be deposited while creating a trade\n    // */\n    // function tokenMinimumDeposit(uint256 _vaultId, address _token) external view returns (uint256) {                                 \n    //     return vaults[_vaultId].minimumDeposit(_token);                                                                     \n    // }   \n\n    // // --------------------------------------------------------------------------------\n\n    // /**\n    // * @notice Array of all ERC20 tokens mapped to a holding strategy within a vault.\n    // * Active and deactivated tokens are included. Use 'activeTokens()' to verify if the\n    // * token is active or not.\n    // * @param _vaultId: Index of vault in 'vaults'\n    // * @param _index: Index of 'tokens' within a vault\n    // * @return ERC20 token address\n    // */\n    // function tokens(uint256 _vaultId, uint256 _index) public view returns (address) {\n    //     return vaults[_vaultId].tokens(_index);\n    // }  \n\n    // // --------------------------------------------------------------------------------\n\n    // /**\n    // * @param _vaultId: Index of vault in 'vaults'\n    // * @param _token: ERC20 token address\n    // * @return true: ERC20 token is active and can be used to create a trade; false: ERC20\n    // * token is inactive and cannot be used to create a trade\n    // */\n    // function activeTokens(uint256 _vaultId, address _token) external view returns (bool) {\n    //     return vaults[_vaultId].activeTokens(_token);\n    // }   \n\n    // // --------------------------------------------------------------------------------\n \n    // /**\n    // * @param _vaultId: Index of vault in 'vaults'\n    // * @return Number of ERC20 tokens mapped to a holding strategy in a vault\n    // */\n    // function tokensLength(uint256 _vaultId) external view returns (uint256) {\n    //     return vaults[_vaultId].tokensLength();\n    // }                        \n\n    // --------------------------------------------------------------------------------\n\n    /**\n    * @notice Use to get the minimum amount out of a swap\n    * @param _amountIn: Amount of a given ERC20 token\n    * @return Adjusts '_amountIn' to account for slippage\n    */\n    function slippage(uint256 _amountIn) public view returns (uint256) {\n        return _amountIn.sub(_amountIn.mul(SLIPPAGE_POINTS).div(SLIPPAGE_BASE_POINTS));\n    }\n\n\n\n\n\n    // function tokenFees(uint256 _vaultId, address _token) external view returns (uint256, uint256, uint256, uint256) {\n    //     IStrategy strat = vaults[_vaultId].strategy(_token);\n    //     return (\n    //         strat.DEPOSIT_FEE_POINTS(), \n    //         strat.DEPOSIT_FEE_BASE_POINTS(),\n    //         strat.TX_FEE_POINTS(),\n    //         strat.TX_FEE_BASE_POINTS()\n    //     );\n    // }\n\n\n    // function tokenAmounts(uint256 _vaultId, uint256 _tokenId) external view returns (IVaultBase.Token[] memory) {\n    //     return vaults[_vaultId].viewTokenAmounts(_tokenId);\n    // }\n\n\n    // // --------------------------------------------------------------------------------\n    // // /////////////////////////////// Vault Functions ////////////////////////////////\n    // // --------------------------------------------------------------------------------\n\n    // /**\n    // * @dev Change vault URI with 'setVaultURI'\n    // * @notice Vault URI is mutable\n    // * @param _vaultId: Vault to view URI of\n    // * @return Vault URI\n    // */\n    // function vaultURI(uint256 _vaultId) external view returns (string memory) {\n    //     return vaults[_vaultId].baseURI();\n    // }\n\n    // --------------------------------------------------------------------------------\n\n    /**\n    * @param _vault: Address of vault\n    * @return 0: Not added to this contract; 1 = Active vault; 2 = Deactivated vault\n    */\n    function vault(address _vault) public view returns (uint8) {\n        return _vaults[_vault];\n    }\n\n    // --------------------------------------------------------------------------------\n\n    /**\n    * @param _vault: Address of vault\n    * @return Reverse mapping vault address to index in 'vaults'\n    */\n    function vaultId(address _vault) public view returns (uint256) {\n        return _vaultIds[_vault];\n    }\n\n    // --------------------------------------------------------------------------------\n\n    /**\n    * @notice Includes active and added then deactivated vaults\n    * @return Number of added vaults \n    */\n    function vaultsLength() public view returns (uint256) {\n        return vaults.length;\n    }\n\n    // --------------------------------------------------------------------------------\n\n    /**\n    * @notice The prices used when creating trades need to be multiplied by the value\n    * returned from this function. This is done to handle the decimals.\n    * @param _vaultId: Index of vault in 'vaults'\n    * @return Value to multiply with the price \n    */\n    function priceMultiplier(uint256 _vaultId) external view returns (uint256) {\n        return vaults[_vaultId].PRICE_MULTIPLIER();\n    }\n\n    // // --------------------------------------------------------------------------------\n\n    // /**\n    // * @param _vaultId: Index of vault in 'vaults'\n    // * @param _tokenId: Vault token\n    // * @param _tradeIds: Trades within the vault token\n    // * @return Order[trade ID][order index] - Returns the trades and their orders \n    // */\n    // function viewTrades(\n    //     uint256 _vaultId, \n    //     uint256 _tokenId, \n    //     uint256[] memory _tradeIds\n    // ) external view returns (IVaultBase.Order[][] memory) {\n    //     IVaultBase _vault = vaults[_vaultId];\n\n    //     // Check for valid token ID\n    //     require(\n    //         _tokenId <= _vault.tokenCounter(), \n    //         \"CornFi Vault Query: Token ID Out of Range\"\n    //     );\n\n    //     IVaultBase.Order[][] memory tradeOrders = new IVaultBase.Order[][](_tradeIds.length);\n\n    //     // Loop through the trades\n    //     for(uint i = 0; i < _tradeIds.length; i++) {\n\n    //         // Check for valid trade ID\n    //         require(\n    //             _tradeIds[i] <= _vault._tokenTradeLength(_tokenId), \n    //             \"CornFi Vault Base: Trade ID Out of Range\"\n    //         );\n\n    //         // Get the trade and its orders\n    //         tradeOrders[i] = _viewTrade(_vault, _tokenId, _tradeIds[i]);\n    //     }\n    //     return tradeOrders;\n    // }\n\n    // --------------------------------------------------------------------------------\n\n    /**\n    * @notice View a single order. Order can be open or closed.\n    * @param _vaultId: Index of vault in 'vaults'\n    * @param _orderId: Order to view\n    * @return Order details \n    */\n    function viewOrder(\n        uint256 _vaultId, \n        uint256 _orderId\n    ) public view returns (IVaultBase.Order memory) {\n        return vaults[_vaultId].order(_orderId);\n    }\n\n    // --------------------------------------------------------------------------------\n\n    /**\n    * @notice View multiple orders. \n    * @param _vaultId: Index of vault in 'vaults'\n    * @param _orderIds: Orders to view\n    * @return Array of order details \n    */\n    function viewOrders(\n        uint256 _vaultId, \n        uint256[] memory _orderIds\n    ) public view returns (IVaultBase.Order[] memory) {\n        IVaultBase _vault = vaults[_vaultId];\n        IVaultBase.Order[] memory _orders = new IVaultBase.Order[](_orderIds.length);\n\n        // Loop through orders\n        for(uint i = 0; i < _orderIds.length; i++) {\n            _orders[i] = _vault.order(_orderIds[i]);\n        }\n        return _orders;\n    }\n\n    // --------------------------------------------------------------------------------\n\n    /**\n    * @param _vaultId: Index of vault in 'vaults'\n    * @param _tokenId: Vault token\n    * @return All open orders for a given vault token\n    */ \n    function viewOpenOrdersByToken(\n        uint256 _vaultId, \n        uint256 _tokenId\n    ) public view returns (IVaultBase.Order[] memory) {\n        IVaultBase _vault = vaults[_vaultId];\n\n        // Get number of open orders for a vault token\n        uint256 orderLength = _vault.tokenOpenOrdersLength(_tokenId);\n\n        IVaultBase.Order[] memory _orders = new IVaultBase.Order[](orderLength);\n\n        // Loop through open orders\n        for(uint i = 0; i < orderLength; i++) {\n            _orders[i] = _vault.order(_vault.tokenOpenOrderId(_tokenId, i));\n        }\n        return _orders;\n    }\n\n    // --------------------------------------------------------------------------------\n\n    // /**\n    // * @notice View multiple open orders in one call. Call may revert if the range is\n    // * too big.\n    // * @param _vaultId: Index of vault in 'vaults'\n    // * @param _start: Start index of 'openOrderIds' within the vault\n    // * @param _end: End index of 'openOrderIds' within the vault\n    // * @return Open orders inside the given range\n    // */ \n    // function viewOpenOrdersInRange(\n    //     uint256 _vaultId, \n    //     uint256 _start, \n    //     uint256 _end\n    // ) external view returns (IVaultBase.Order[] memory) {\n    //     IVaultBase _vault = vaults[_vaultId];\n    //     require(_end <= _vault.openOrdersLength(), \"CornFi Controller: Query Out of Range\");\n    //     IVaultBase.Order[] memory _orders = new IVaultBase.Order[](_end.sub(_start).add(1));\n    //     for(uint i = _start; i <= _end; i++) {\n    //         _orders[i.sub(_start)] = _vault.order(_vault.openOrderId(i));\n    //     }\n    //     return _orders;\n    // }\n\n    // // --------------------------------------------------------------------------------\n\n    // /**\n    // * @param _vaultId: Index of vault in 'vaults'\n    // * @return Number of orders created in the vault \n    // */\n    // function ordersLength(uint256 _vaultId) external view returns (uint256) {\n    //     return vaults[_vaultId].ordersLength();\n    // }\n\n    // // --------------------------------------------------------------------------------\n\n    // /**\n    // * @param _vaultId: Index of vault in 'vaults'\n    // * @return Number of open orders in the vault \n    // */\n    // function openOrdersLength(uint256 _vaultId) external view returns (uint256) {\n    //     return vaults[_vaultId].openOrdersLength();\n    // }\n\n    // // --------------------------------------------------------------------------------\n\n    // /**\n    // * @param _vaultId: Index of vault in 'vaults'\n    // * @param _tokenId: Vault token\n    // * @return Number of open orders for a token in a vault \n    // */\n    // function tokenOpenOrdersLength(\n    //     uint256 _vaultId, \n    //     uint256 _tokenId\n    // ) external view returns (uint256) {\n    //     return vaults[_vaultId].tokenOpenOrdersLength(_tokenId);\n    // }\n\n    // // --------------------------------------------------------------------------------\n\n    // /**\n    // * @param _vaultId: Index of vault in 'vaults'\n    // * @return Number of all minted tokens in a vault (includes burnt tokens) \n    // */\n    // function tokenLength(uint256 _vaultId) external view returns (uint256) {\n    //     return vaults[_vaultId].tokenCounter();\n    // }\n\n    // // --------------------------------------------------------------------------------\n\n    // /**\n    // * @param _vaultId: Index of vault in 'vaults'\n    // * @param _tokenId: Vault token\n    // * @return Number of trades within a vault token \n    // */\n    // function tokenTradeLength(\n    //     uint256 _vaultId, \n    //     uint256 _tokenId\n    // ) external view returns (uint256) {\n    //     return vaults[_vaultId]._tokenTradeLength(_tokenId);\n    // }\n\n    // // --------------------------------------------------------------------------------\n\n    // /**\n    // * @param _owner: Owner of vault tokens\n    // * @return All vault tokens the user owns. Returns the vault address and token ID\n    // */\n    // function vaultTokensByOwner(address _owner) external view returns (UserTokens[] memory) {\n    //     uint256 _tokensLength = 0;\n\n    //     // Get number of tokens the user owns accross all vaults\n    //     for(uint256 k = 0; k < vaultsLength(); k++) {\n    //         _tokensLength += vaults[k].balanceOf(_owner);\n    //     }\n\n    //     UserTokens[] memory userTokens = new UserTokens[](_tokensLength);\n    //     uint256 counter = 0;\n\n    //     // Loop through all vaults\n    //     for(uint256 i = 0; i < vaultsLength(); i++) {\n    //         // Loop through all tokens user owns within a vault\n    //         for(uint256 j = 0; j < vaults[i].balanceOf(_owner); j++) {\n    //             userTokens[counter++] = UserTokens(\n    //                 address(vaults[i]), \n    //                 vaults[i].tokenOfOwnerByIndex(_owner, j)\n    //             );\n    //         }\n    //     }\n\n    //     return userTokens;\n    // }\n\n    // --------------------------------------------------------------------------------\n\n    /**\n    * @notice Create a trade with one of the approved vaults. The format for '_tokens',\n    * '_amounts', and '_times' is specific to the vault. Refer to the vault being used\n    * to verify the correct data format. Trades are only created with active vaults.\n    * The strating amount of the trade is deposited upon creating a trade. A deposit fee\n    * is taken from the deposited amount. When Gelato is active, a task is created for\n    * each open order.\n    * @param _vaultId: Index of vault in 'vaults'\n    * @param _tokens: Specific to the vault used. Refer to vault documentation.\n    * @param _amounts: Specific to the vault used. Refer to vault documentation.\n    * @param _times: Specific to the vault used. Refer to vault documentation.\n    * @param _maxGas: In gwei. The maximum gas price that any order within this trade\n    * can be executed at.\n    */\n    function createTrade(\n        uint256 _vaultId, \n        address[] memory _tokens, \n        uint256[] memory _amounts, \n        uint[] memory _times, \n        uint256 _maxGas\n    ) external whenNotPaused nonReentrant {\n        // Active vaults only\n        require(\n            vault(address(vaults[_vaultId])) == ACTIVE_VAULT, \n            \"CornFi Controller: Inactive Vault\"\n        );\n\n        // Create a trade and get the created orders \n        uint256[] memory orderIds = vaults[_vaultId].createTrade(msg.sender, _tokens, _amounts, _times);\n        IVaultBase.Order[] memory orders = viewOrders(_vaultId, orderIds);\n\n        emit CreateTrade(msg.sender, _vaultId, orders[0].tokenId);\n\n        // Max gas price for when filling orders. Lower gas price saves the user ETH,\n        // but increases the risk that their orders will not get filled during network\n        // congestion.\n        tokenMaxGas[_vaultId][orders[0].tokenId] = _maxGas;\n\n        // When Gelato is active, create a task for the orders created. Gelato will monitor\n        // each order and execute when trade conditions are met.\n        if(Gelato) {\n            for(uint i = 0; i < orders.length; i++) {\n\n                emit CreateOrder(msg.sender, _vaultId, orders[i].orderId);\n\n                // Gelato executors will call the Resolver contract with encoded\n                // data to get the input data for filling an order. Specifically,\n                // the Resolver will find the best path and router for the order\n                // then encode the input data for 'fillOrderGelato'\n                taskIds[_vaultId][orders[i].orderId] = PokeMe.createTaskNoPrepayment(\n                    address(this), \n                    this.fillOrderGelato.selector, \n                    address(Resolver), \n                    abi.encodeWithSelector(\n                        Resolver.checker.selector, \n                        _vaultId, \n                        orders[i].orderId, \n                        orders[i].tokens[0], \n                        orders[i].tokens[1], \n                        orders[i].amounts[0]\n                    ),\n                    GasToken\n                );\n            }\n        }\n    }\n\n    // --------------------------------------------------------------------------------\n\n    /**\n    * @notice Fill open orders when trade conditions are met. Only Gelato executors\n    * can call this function. This function is the primary method used to fill orders. \n    * If Gelato is no longer used, orders are filled through calling 'fillOrder()'\n    * instead. Gelato executor will call 'checker()' in Resolver.sol first to get the \n    * router and path with the highest output amount. Gelato executor is refunded the \n    * gas cost from the ETH the order owner has deposited.\n    * @param _vaultId: Index of vault in 'vaults'\n    * @param _orderId: Order to fill\n    * @param _router: Router used to fill the order\n    * @param _path: Swap path used to fill the order\n    */\n    function fillOrderGelato(\n        uint256 _vaultId, \n        uint256 _orderId, \n        IUniswapV2Router02 _router, \n        address[] memory _path\n    ) external whenNotPaused onlyGelato nonReentrant {\n        // Revert if the router is not whitelisted. \n        require(activeRouters[_router], \"CornFi: Invalid Router\");\n\n        // Order to fill\n        IVaultBase.Order memory _order = viewOrder(_vaultId, _orderId);\n\n        // When tokenMaxGas = 0, the order can be fill at any gas price.\n        // Otherwise, ensure that the gas price is below the user set max.\n        if(tokenMaxGas[_vaultId][_order.tokenId] > 0) {\n            require(\n                tx.gasprice <= tokenMaxGas[_vaultId][_order.tokenId], \n                \"CornFi Controller: Gas Price Too High\"\n            );\n        }\n\n\n        // Fill the order\n        (IVaultBase.Order[] memory orders, uint256[] memory filledOrders) = vaults[_vaultId].fillOrder(msg.sender, _orderId, _router, _path);       ////\n\n        // If the order has an associated task ID, cancel the task\n        for(uint i = 0; i < filledOrders.length; i++) {                                                                                             ////\n            if(taskIds[_vaultId][filledOrders[i]] != bytes32(0)) PokeMe.cancelTask(taskIds[_vaultId][filledOrders[i]]);                             ////\n        }                                                                                                                                           ////\n\n        // Owner of the order being filled\n        address orderOwner = vaults[_vaultId].ownerOf(_order.tokenId);\n\n        emit FillOrder(orderOwner, _vaultId, _order.tokenId, _orderId);\n\n\n\n        // When using Gelato to fill orders.\n        // An order ID greater than '0' indicates a new order was created. Create a new\n        // task with Gelato to monitor and fill the created order.\n        for(uint j = 0; j < orders.length; j++) {                                                               ////\n            if(Gelato && orders[j].orderId != 0) {                                                              ////\n\n                emit CreateOrder(orderOwner, _vaultId, orders[j].orderId);\n\n                // Create a task with Gelato to monitor and fill the created order\n                taskIds[_vaultId][orders[j].orderId] = PokeMe.createTaskNoPrepayment(\n                    address(this), \n                    this.fillOrderGelato.selector, \n                    address(Resolver), \n                    abi.encodeWithSelector(\n                        Resolver.checker.selector, \n                        _vaultId, \n                        orders[j].orderId, \n                        orders[j].tokens[0], \n                        orders[j].tokens[1], \n                        orders[j].amounts[0]\n                    ),\n                    GasToken\n                );\n            }\n        }                                                                                                       ////\n\n        (uint256 fee, address feeToken) = PokeMe.getFeeDetails();\n        \n        // Check that the order owner has enough ETH deposited to cover the gas\n        require(\n            userGasAmounts[orderOwner] >= fee, \n            \"CornFi Controller: Insufficent User Gas Funds\"\n        );\n\n        // Subtract the gas spent from the order owners deposited amount of ETH\n        userGasAmounts[orderOwner] = userGasAmounts[orderOwner].sub(fee);\n\n        // Reimburse the caller for the gas spent filling the order\n        _transfer(fee, feeToken);\n    }\n\n    // --------------------------------------------------------------------------------\n\n    /**\n    * @notice Fill open orders when trade conditions are met. Only approved order fillers\n    * can call this function. This function will only be used if the use of Gelato is\n    * stopped. Call 'findBestPath()' in Resolver.sol first to get the router and path\n    * with the highest output amount. Caller is refunded the gas cost from the ETH the\n    * order owner has deposited.\n    * @param _vaultId: Index of vault in 'vaults'\n    * @param _orderId: Order to fill\n    * @param _router: Router used to fill the order\n    * @param _path: Swap path used to fill the order\n    */\n    function fillOrder(\n        uint256 _vaultId,\n        uint256 _orderId, \n        IUniswapV2Router02 _router, \n        address[] memory _path\n    ) external whenNotPaused onlyApprovedFillers nonReentrant {\n        // Starting amount of gas\n        uint256 startGas = gasleft();\n\n        // Revert if the router is not whitelisted. \n        require(activeRouters[_router], \"CornFi: Invalid Router\");\n\n        // Order to fill\n        IVaultBase.Order memory _order = viewOrder(_vaultId, _orderId);\n\n        // When tokenMaxGas = 0, the order can be fill at any gas price.\n        // Otherwise, ensure that the gas price is below the user set max.\n        if(tokenMaxGas[_vaultId][_order.tokenId] > 0) {\n            require(\n                tx.gasprice <= tokenMaxGas[_vaultId][_order.tokenId], \n                \"CornFi Controller: Gas Price Too High\"\n            );\n        }\n\n        // Fill the order\n        (IVaultBase.Order[] memory orders, uint256[] memory filledOrders) = vaults[_vaultId].fillOrder(msg.sender, _orderId, _router, _path);   ////\n\n        // If the order has an associated task ID, cancel the task\n        for(uint i = 0; i < filledOrders.length; i++) {                                                                                         ////\n            if(taskIds[_vaultId][filledOrders[i]] != bytes32(0)) PokeMe.cancelTask(taskIds[_vaultId][filledOrders[i]]);                         ////\n        }                                                                                                                                       ////\n\n        // Owner of the order being filled\n        address orderOwner = vaults[_vaultId].ownerOf(_order.tokenId);\n\n        emit FillOrder(orderOwner, _vaultId, _order.tokenId, _orderId);\n\n        // When using Gelato to fill orders.\n        // An order ID greater than '0' indicates a new order was created. Create a new\n        // task with Gelato to monitor and fill the created order.\n        for(uint j = 0; j < orders.length; j++) {                                               ////vvvvv\n            if(Gelato && orders[j].orderId != 0) {\n\n                emit CreateOrder(orderOwner, _vaultId, orders[j].orderId);\n\n                // Create a task with Gelato to monitor and fill the created order\n                taskIds[_vaultId][orders[j].orderId] = PokeMe.createTaskNoPrepayment(\n                    address(this), \n                    this.fillOrderGelato.selector, \n                    address(Resolver), \n                    abi.encodeWithSelector(\n                        Resolver.checker.selector, \n                        _vaultId, \n                        orders[j].orderId, \n                        orders[j].tokens[0], \n                        orders[j].tokens[1], \n                        orders[j].amounts[0]\n                    ),\n                    GasToken\n                );\n            }\n        }                                                                                       ////^^^^^^^^\n        \n        // Calculate the gas used for this tx.\n        // Add 30,000 gas to account for the remaining instructions\n        uint256 gasUsed = startGas.sub(gasleft()).add(30000);\n\n        // Calculate the amount of ETH used for gas\n        uint256 fee = gasUsed.mul(tx.gasprice);\n\n        // Check that the order owner has enough ETH deposited to cover the gas\n        require(\n            userGasAmounts[orderOwner] >= fee, \n            \"CornFi Controller: Insufficent User Gas Funds\"\n        );\n\n        // Subtract the gas spent from the order owners deposited amount of ETH\n        userGasAmounts[orderOwner] = userGasAmounts[orderOwner].sub(fee);\n\n        // Reimburse the caller for the gas spent filling the order\n        (bool success, ) = msg.sender.call{value: fee}(\"\");\n\n        // Check that the ETH transfer was successful\n        require(success, \"CornFi Controller: ETH transfer failed\");\n    }\n\n    // --------------------------------------------------------------------------------\n\n    /**\n    * @notice Withdraws the ERC20 tokens owned by a vault token and returns to the token\n    * owner. All open orders associated with the vault token are closed and the vault\n    * token is burnt.\n    * @param _vaultId: Index of vault in 'vaults'\n    * @param _tokenId: Vault token  \n    */\n    function withdraw(uint256 _vaultId, uint256 _tokenId) external nonReentrant {\n        // Get open orders for the vault token\n        IVaultBase.Order[] memory _orders = viewOpenOrdersByToken(_vaultId, _tokenId);\n\n        // Cancel the tasks with Gelato \n        for(uint i = 0; i < _orders.length; i++) {\n            if(taskIds[_vaultId][_orders[i].orderId] != 0) {\n                PokeMe.cancelTask(taskIds[_vaultId][_orders[i].orderId]);\n            }\n        }\n\n        // Withdraw ERC20 tokens and burn vault token\n        vaults[_vaultId].withdraw(msg.sender, _tokenId);\n\n        emit Withdraw(msg.sender, _vaultId, _tokenId);\n    }\n\n    // --------------------------------------------------------------------------------\n\n    /**\n    * @notice Deposit ETH to pay for gas cost accrued from filling orders. ETH deposited\n    * is automatically taken from the order owners balance when their orders are filled.\n    * User is able to withdraw their balance of ETH at any point in time. This function\n    * is not callable when 'isPaused()' == true.\n    * @param _receiver: Address that is credited with the deposited ETH\n    */\n    function depositGas(address _receiver) external payable nonReentrant whenNotPaused {\n        // User can only deposit ETH. Amount to deposit is msg.value.\n        uint256 depositAmount = msg.value;\n\n        // Add the deposited ETH to the '_receiver' balance\n        userGasAmounts[_receiver] = userGasAmounts[_receiver].add(depositAmount);\n\n        emit DepositGas(_receiver, GasToken, depositAmount);\n    }\n\n    // --------------------------------------------------------------------------------\n\n    /**\n    * @notice Remove the deposited ETH balance of a user. Any amount of ETH not used to\n    * pay for gas is able to be withdrawn. Withdrawing ETH while still having open orders\n    * will result in the orders not being filled. A user must maintain a certian amount\n    * of ETH deposited to cover gas costs.  \n    */\n    function withdrawGas() external nonReentrant {\n        // Revert if the user does not have any deposited ETH\n        require(\n            userGasAmounts[msg.sender] > 0, \n            \"CornFi Controller: No User Funds to Withdraw\"\n        );\n\n        // Get the balance of ETH the user has deposited\n        uint256 amount = userGasAmounts[msg.sender];\n\n        // Set user ETH balance to '0'\n        delete userGasAmounts[msg.sender];\n\n        // Transfer ETH balance to the user\n        (bool success, ) = msg.sender.call{value: amount}(\"\");\n\n        // Revert if the transfer fails\n        require(success, \"CornFi Controller: ETH transfer failed\");\n    }\n\n\n    // --------------------------------------------------------------------------------\n    // ////////////////////////////// Internal Functions //////////////////////////////\n    // --------------------------------------------------------------------------------    \n\n    // /**\n    // * @param _vault: Vault holding the trade\n    // * @param _tokenId: Vault token\n    // * @param _tradeId: Trade owned by the vault token\n    // * @return Orders within the trade \n    // */\n    // function _viewTrade(\n    //     IVaultBase _vault, \n    //     uint256 _tokenId, \n    //     uint256 _tradeId\n    // ) internal view returns (IVaultBase.Order[] memory) {\n    //     // Get IDs of the orders within the trade \n    //     uint256[] memory tradeOrderIds = _vault.trade(_tokenId, _tradeId);\n\n    //     IVaultBase.Order[] memory tradeOrders = new IVaultBase.Order[](tradeOrderIds.length);\n\n    //     // Loop through the orders\n    //     for(uint i = 0; i < tradeOrderIds.length; i++) {\n    //         tradeOrders[i] = _vault.order(tradeOrderIds[i]);\n    //     }\n    //     return tradeOrders;\n    // }\n\n    // --------------------------------------------------------------------------------\n\n    /**\n    * @dev Transfers the gas cost of filling an order to the Gelato executor. Payment\n    * token must be ETH.\n    * @param _amount: Amount of ETH to transfer\n    * @param _paymentToken: ETH or ERC20 token used to pay for gas costs  \n    */\n    function _transfer(uint256 _amount, address _paymentToken) internal {\n        require(_paymentToken == ETH, \"CornFi Controller: Invalid Payment Token\");\n        (bool success, ) = gelato.call{value: _amount}(\"\");\n        require(success, \"_transfer: ETH transfer failed\");\n    }\n\n    // --------------------------------------------------------------------------------\n\n    /**\n    * @dev Whitelists an order filler and sets their state as active\n    * @param _filler: Address that will fill orders \n    */\n    function _addOrderFiller(address _filler) internal {\n        // 0 = order filler not whitelisted\n        require(\n            activeOrderFillers[_filler] == 0, \n            \"CornFi Controller: Invalid Order Filler\"\n        );\n\n        // Add the order filler\n        orderFillers.push(_filler);\n\n        // Set order filler state to active\n        activeOrderFillers[_filler] = 1;\n    }\n\n    // --------------------------------------------------------------------------------\n\n    /**\n    * @dev Whitelists a Uniswap V2 router for filling orders\n    * @param _router: Router address\n    */\n    function _addRouter(IUniswapV2Router02 _router) internal {\n        routers.push(_router);\n        activeRouters[_router] = true;\n    }\n\n    // --------------------------------------------------------------------------------\n\n    /**\n    * @dev Sets the slippage amount used when filling orders\n    * @param _slippagePoints: This value divided by '_slippageBasePoints' gives the \n    * slippage percentage.\n    * @param _slippageBasePoints: Max amount of slippage points\n    */\n    function _setSlippage(uint256 _slippagePoints, uint256 _slippageBasePoints) internal {\n        // Max slippage allowed is 2%\n        require(\n            _slippagePoints.mul(50) <= _slippageBasePoints, \n            \"CornFi Controller: Max Slippage Exceeded\"\n        );\n        SLIPPAGE_POINTS = _slippagePoints;\n        SLIPPAGE_BASE_POINTS = _slippageBasePoints;\n    }\n}",
  "sourcePath": "contracts/ControllerOld.sol",
  "type": "contract"
}