{
  "abi": [
    {
      "inputs": [
        {
          "internalType": "address",
          "name": "account",
          "type": "address"
        },
        {
          "internalType": "bytes4[]",
          "name": "interfaceIds",
          "type": "bytes4[]"
        }
      ],
      "name": "supportsAllInterfaces",
      "outputs": [
        {
          "internalType": "bool",
          "name": "",
          "type": "bool"
        }
      ],
      "stateMutability": "view",
      "type": "function"
    },
    {
      "inputs": [
        {
          "internalType": "address",
          "name": "account",
          "type": "address"
        }
      ],
      "name": "supportsERC165",
      "outputs": [
        {
          "internalType": "bool",
          "name": "",
          "type": "bool"
        }
      ],
      "stateMutability": "view",
      "type": "function"
    },
    {
      "inputs": [
        {
          "internalType": "address",
          "name": "account",
          "type": "address"
        },
        {
          "internalType": "bytes4",
          "name": "interfaceId",
          "type": "bytes4"
        }
      ],
      "name": "supportsInterface",
      "outputs": [
        {
          "internalType": "bool",
          "name": "",
          "type": "bool"
        }
      ],
      "stateMutability": "view",
      "type": "function"
    }
  ],
  "bytecode": "608060405234801561001057600080fd5b506103eb806100206000396000f3fe608060405234801561001057600080fd5b50600436106100415760003560e01c80634b9dd90414610046578063c398a9251461010d578063d905700714610133575b600080fd5b6100f96004803603604081101561005c57600080fd5b6001600160a01b03823516919081019060408101602082013564010000000081111561008757600080fd5b82018360208201111561009957600080fd5b803590602001918460208302840111640100000000831117156100bb57600080fd5b919080806020026020016040519081016040528093929190818152602001838360200280828437600092019190915250929550610169945050505050565b604080519115158252519081900360200190f35b6100f96004803603602081101561012357600080fd5b50356001600160a01b0316610187565b6100f96004803603604081101561014957600080fd5b5080356001600160a01b031690602001356001600160e01b03191661019b565b600061017e6001600160a01b038416836101b0565b90505b92915050565b6000610181826001600160a01b0316610210565b600061017e6001600160a01b03841683610243565b60006101bb83610210565b6101c757506000610181565b60005b8251811015610206576101f0848483815181106101e357fe5b602002602001015161025b565b6101fe576000915050610181565b6001016101ca565b5060019392505050565b6000610223826301ffc9a760e01b61025b565b8015610181575061023c826001600160e01b031961025b565b1592915050565b600061024e83610210565b801561017e575061017e83835b600080600061026a8585610281565b915091508180156102785750805b95945050505050565b604080516001600160e01b0319831660248083019190915282518083039091018152604490910182526020810180516001600160e01b03166301ffc9a760e01b1781529151815160009384939284926060926001600160a01b038a169261753092879282918083835b602083106103095780518252601f1990920191602091820191016102ea565b6001836020036101000a0380198251168184511680821785525050505050509050019150506000604051808303818686fa925050503d806000811461036a576040519150601f19603f3d011682016040523d82523d6000602084013e61036f565b606091505b509150915060208151101561038d57600080945094505050506103ae565b818180602001905160208110156103a357600080fd5b505190955093505050505b925092905056fea26469706673582212205844a7b2ed3e5adc6b30afe8c786a44c72d8048d46ddb3877c0eb649c670addd64736f6c634300060c0033",
  "bytecodeSha1": "1306570ecee1eeaff6dccd9dfcb2107672c82185",
  "compiler": {
    "evm_version": "istanbul",
    "optimizer": {
      "enabled": true,
      "runs": 200
    },
    "version": "0.6.12+commit.27d51765"
  },
  "contractName": "ERC165CheckerMock",
  "language": "Solidity",
  "natspec": {
    "kind": "dev",
    "methods": {},
    "version": 1
  },
  "opcodes": "PUSH1 0x80 PUSH1 0x40 MSTORE CALLVALUE DUP1 ISZERO PUSH2 0x10 JUMPI PUSH1 0x0 DUP1 REVERT JUMPDEST POP PUSH1 0x4 CALLDATASIZE LT PUSH2 0x41 JUMPI PUSH1 0x0 CALLDATALOAD PUSH1 0xE0 SHR DUP1 PUSH4 0x4B9DD904 EQ PUSH2 0x46 JUMPI DUP1 PUSH4 0xC398A925 EQ PUSH2 0x10D JUMPI DUP1 PUSH4 0xD9057007 EQ PUSH2 0x133 JUMPI JUMPDEST PUSH1 0x0 DUP1 REVERT JUMPDEST PUSH2 0xF9 PUSH1 0x4 DUP1 CALLDATASIZE SUB PUSH1 0x40 DUP2 LT ISZERO PUSH2 0x5C JUMPI PUSH1 0x0 DUP1 REVERT JUMPDEST PUSH1 0x1 PUSH1 0x1 PUSH1 0xA0 SHL SUB DUP3 CALLDATALOAD AND SWAP2 SWAP1 DUP2 ADD SWAP1 PUSH1 0x40 DUP2 ADD PUSH1 0x20 DUP3 ADD CALLDATALOAD PUSH5 0x100000000 DUP2 GT ISZERO PUSH2 0x87 JUMPI PUSH1 0x0 DUP1 REVERT JUMPDEST DUP3 ADD DUP4 PUSH1 0x20 DUP3 ADD GT ISZERO PUSH2 0x99 JUMPI PUSH1 0x0 DUP1 REVERT JUMPDEST DUP1 CALLDATALOAD SWAP1 PUSH1 0x20 ADD SWAP2 DUP5 PUSH1 0x20 DUP4 MUL DUP5 ADD GT PUSH5 0x100000000 DUP4 GT OR ISZERO PUSH2 0xBB JUMPI PUSH1 0x0 DUP1 REVERT JUMPDEST SWAP2 SWAP1 DUP1 DUP1 PUSH1 0x20 MUL PUSH1 0x20 ADD PUSH1 0x40 MLOAD SWAP1 DUP2 ADD PUSH1 0x40 MSTORE DUP1 SWAP4 SWAP3 SWAP2 SWAP1 DUP2 DUP2 MSTORE PUSH1 0x20 ADD DUP4 DUP4 PUSH1 0x20 MUL DUP1 DUP3 DUP5 CALLDATACOPY PUSH1 0x0 SWAP3 ADD SWAP2 SWAP1 SWAP2 MSTORE POP SWAP3 SWAP6 POP PUSH2 0x169 SWAP5 POP POP POP POP POP JUMP JUMPDEST PUSH1 0x40 DUP1 MLOAD SWAP2 ISZERO ISZERO DUP3 MSTORE MLOAD SWAP1 DUP2 SWAP1 SUB PUSH1 0x20 ADD SWAP1 RETURN JUMPDEST PUSH2 0xF9 PUSH1 0x4 DUP1 CALLDATASIZE SUB PUSH1 0x20 DUP2 LT ISZERO PUSH2 0x123 JUMPI PUSH1 0x0 DUP1 REVERT JUMPDEST POP CALLDATALOAD PUSH1 0x1 PUSH1 0x1 PUSH1 0xA0 SHL SUB AND PUSH2 0x187 JUMP JUMPDEST PUSH2 0xF9 PUSH1 0x4 DUP1 CALLDATASIZE SUB PUSH1 0x40 DUP2 LT ISZERO PUSH2 0x149 JUMPI PUSH1 0x0 DUP1 REVERT JUMPDEST POP DUP1 CALLDATALOAD PUSH1 0x1 PUSH1 0x1 PUSH1 0xA0 SHL SUB AND SWAP1 PUSH1 0x20 ADD CALLDATALOAD PUSH1 0x1 PUSH1 0x1 PUSH1 0xE0 SHL SUB NOT AND PUSH2 0x19B JUMP JUMPDEST PUSH1 0x0 PUSH2 0x17E PUSH1 0x1 PUSH1 0x1 PUSH1 0xA0 SHL SUB DUP5 AND DUP4 PUSH2 0x1B0 JUMP JUMPDEST SWAP1 POP JUMPDEST SWAP3 SWAP2 POP POP JUMP JUMPDEST PUSH1 0x0 PUSH2 0x181 DUP3 PUSH1 0x1 PUSH1 0x1 PUSH1 0xA0 SHL SUB AND PUSH2 0x210 JUMP JUMPDEST PUSH1 0x0 PUSH2 0x17E PUSH1 0x1 PUSH1 0x1 PUSH1 0xA0 SHL SUB DUP5 AND DUP4 PUSH2 0x243 JUMP JUMPDEST PUSH1 0x0 PUSH2 0x1BB DUP4 PUSH2 0x210 JUMP JUMPDEST PUSH2 0x1C7 JUMPI POP PUSH1 0x0 PUSH2 0x181 JUMP JUMPDEST PUSH1 0x0 JUMPDEST DUP3 MLOAD DUP2 LT ISZERO PUSH2 0x206 JUMPI PUSH2 0x1F0 DUP5 DUP5 DUP4 DUP2 MLOAD DUP2 LT PUSH2 0x1E3 JUMPI INVALID JUMPDEST PUSH1 0x20 MUL PUSH1 0x20 ADD ADD MLOAD PUSH2 0x25B JUMP JUMPDEST PUSH2 0x1FE JUMPI PUSH1 0x0 SWAP2 POP POP PUSH2 0x181 JUMP JUMPDEST PUSH1 0x1 ADD PUSH2 0x1CA JUMP JUMPDEST POP PUSH1 0x1 SWAP4 SWAP3 POP POP POP JUMP JUMPDEST PUSH1 0x0 PUSH2 0x223 DUP3 PUSH4 0x1FFC9A7 PUSH1 0xE0 SHL PUSH2 0x25B JUMP JUMPDEST DUP1 ISZERO PUSH2 0x181 JUMPI POP PUSH2 0x23C DUP3 PUSH1 0x1 PUSH1 0x1 PUSH1 0xE0 SHL SUB NOT PUSH2 0x25B JUMP JUMPDEST ISZERO SWAP3 SWAP2 POP POP JUMP JUMPDEST PUSH1 0x0 PUSH2 0x24E DUP4 PUSH2 0x210 JUMP JUMPDEST DUP1 ISZERO PUSH2 0x17E JUMPI POP PUSH2 0x17E DUP4 DUP4 JUMPDEST PUSH1 0x0 DUP1 PUSH1 0x0 PUSH2 0x26A DUP6 DUP6 PUSH2 0x281 JUMP JUMPDEST SWAP2 POP SWAP2 POP DUP2 DUP1 ISZERO PUSH2 0x278 JUMPI POP DUP1 JUMPDEST SWAP6 SWAP5 POP POP POP POP POP JUMP JUMPDEST PUSH1 0x40 DUP1 MLOAD PUSH1 0x1 PUSH1 0x1 PUSH1 0xE0 SHL SUB NOT DUP4 AND PUSH1 0x24 DUP1 DUP4 ADD SWAP2 SWAP1 SWAP2 MSTORE DUP3 MLOAD DUP1 DUP4 SUB SWAP1 SWAP2 ADD DUP2 MSTORE PUSH1 0x44 SWAP1 SWAP2 ADD DUP3 MSTORE PUSH1 0x20 DUP2 ADD DUP1 MLOAD PUSH1 0x1 PUSH1 0x1 PUSH1 0xE0 SHL SUB AND PUSH4 0x1FFC9A7 PUSH1 0xE0 SHL OR DUP2 MSTORE SWAP2 MLOAD DUP2 MLOAD PUSH1 0x0 SWAP4 DUP5 SWAP4 SWAP3 DUP5 SWAP3 PUSH1 0x60 SWAP3 PUSH1 0x1 PUSH1 0x1 PUSH1 0xA0 SHL SUB DUP11 AND SWAP3 PUSH2 0x7530 SWAP3 DUP8 SWAP3 DUP3 SWAP2 DUP1 DUP4 DUP4 JUMPDEST PUSH1 0x20 DUP4 LT PUSH2 0x309 JUMPI DUP1 MLOAD DUP3 MSTORE PUSH1 0x1F NOT SWAP1 SWAP3 ADD SWAP2 PUSH1 0x20 SWAP2 DUP3 ADD SWAP2 ADD PUSH2 0x2EA JUMP JUMPDEST PUSH1 0x1 DUP4 PUSH1 0x20 SUB PUSH2 0x100 EXP SUB DUP1 NOT DUP3 MLOAD AND DUP2 DUP5 MLOAD AND DUP1 DUP3 OR DUP6 MSTORE POP POP POP POP POP POP SWAP1 POP ADD SWAP2 POP POP PUSH1 0x0 PUSH1 0x40 MLOAD DUP1 DUP4 SUB DUP2 DUP7 DUP7 STATICCALL SWAP3 POP POP POP RETURNDATASIZE DUP1 PUSH1 0x0 DUP2 EQ PUSH2 0x36A JUMPI PUSH1 0x40 MLOAD SWAP2 POP PUSH1 0x1F NOT PUSH1 0x3F RETURNDATASIZE ADD AND DUP3 ADD PUSH1 0x40 MSTORE RETURNDATASIZE DUP3 MSTORE RETURNDATASIZE PUSH1 0x0 PUSH1 0x20 DUP5 ADD RETURNDATACOPY PUSH2 0x36F JUMP JUMPDEST PUSH1 0x60 SWAP2 POP JUMPDEST POP SWAP2 POP SWAP2 POP PUSH1 0x20 DUP2 MLOAD LT ISZERO PUSH2 0x38D JUMPI PUSH1 0x0 DUP1 SWAP5 POP SWAP5 POP POP POP POP PUSH2 0x3AE JUMP JUMPDEST DUP2 DUP2 DUP1 PUSH1 0x20 ADD SWAP1 MLOAD PUSH1 0x20 DUP2 LT ISZERO PUSH2 0x3A3 JUMPI PUSH1 0x0 DUP1 REVERT JUMPDEST POP MLOAD SWAP1 SWAP6 POP SWAP4 POP POP POP POP JUMPDEST SWAP3 POP SWAP3 SWAP1 POP JUMP INVALID LOG2 PUSH5 0x6970667358 0x22 SLT KECCAK256 PC DIFFICULTY 0xA7 0xB2 0xED RETURNDATACOPY GAS 0xDC PUSH12 0x30AFE8C786A44C72D8048D46 0xDD 0xB3 DUP8 PUSH29 0xEB649C670ADDD64736F6C634300060C00330000000000000000000000 ",
  "sha1": "952bb57bb2502e98d8333f7d5491a104622385ce",
  "source": "pragma solidity ^0.6.0;\n\nimport \"../introspection/ERC165Checker.sol\";\n\ncontract ERC165CheckerMock {\n    using ERC165Checker for address;\n\n    function supportsERC165(address account) public view returns (bool) {\n        return account.supportsERC165();\n    }\n\n    function supportsInterface(address account, bytes4 interfaceId) public view returns (bool) {\n        return account.supportsInterface(interfaceId);\n    }\n\n    function supportsAllInterfaces(address account, bytes4[] memory interfaceIds) public view returns (bool) {\n        return account.supportsAllInterfaces(interfaceIds);\n    }\n}\n",
  "sourcePath": "contracts/openzeppelin/contracts/mocks/ERC165CheckerMock.sol",
  "type": "contract"
}