{
  "abi": [
    {
      "inputs": [
        {
          "internalType": "address",
          "name": "initialHolder",
          "type": "address"
        },
        {
          "internalType": "uint256",
          "name": "initialBalance",
          "type": "uint256"
        },
        {
          "internalType": "string",
          "name": "name",
          "type": "string"
        },
        {
          "internalType": "string",
          "name": "symbol",
          "type": "string"
        },
        {
          "internalType": "address[]",
          "name": "defaultOperators",
          "type": "address[]"
        }
      ],
      "stateMutability": "nonpayable",
      "type": "constructor"
    },
    {
      "anonymous": false,
      "inputs": [
        {
          "indexed": true,
          "internalType": "address",
          "name": "owner",
          "type": "address"
        },
        {
          "indexed": true,
          "internalType": "address",
          "name": "spender",
          "type": "address"
        },
        {
          "indexed": false,
          "internalType": "uint256",
          "name": "value",
          "type": "uint256"
        }
      ],
      "name": "Approval",
      "type": "event"
    },
    {
      "anonymous": false,
      "inputs": [
        {
          "indexed": true,
          "internalType": "address",
          "name": "operator",
          "type": "address"
        },
        {
          "indexed": true,
          "internalType": "address",
          "name": "tokenHolder",
          "type": "address"
        }
      ],
      "name": "AuthorizedOperator",
      "type": "event"
    },
    {
      "anonymous": false,
      "inputs": [
        {
          "indexed": true,
          "internalType": "address",
          "name": "operator",
          "type": "address"
        },
        {
          "indexed": true,
          "internalType": "address",
          "name": "from",
          "type": "address"
        },
        {
          "indexed": false,
          "internalType": "uint256",
          "name": "amount",
          "type": "uint256"
        },
        {
          "indexed": false,
          "internalType": "bytes",
          "name": "data",
          "type": "bytes"
        },
        {
          "indexed": false,
          "internalType": "bytes",
          "name": "operatorData",
          "type": "bytes"
        }
      ],
      "name": "Burned",
      "type": "event"
    },
    {
      "anonymous": false,
      "inputs": [
        {
          "indexed": true,
          "internalType": "address",
          "name": "operator",
          "type": "address"
        },
        {
          "indexed": true,
          "internalType": "address",
          "name": "to",
          "type": "address"
        },
        {
          "indexed": false,
          "internalType": "uint256",
          "name": "amount",
          "type": "uint256"
        },
        {
          "indexed": false,
          "internalType": "bytes",
          "name": "data",
          "type": "bytes"
        },
        {
          "indexed": false,
          "internalType": "bytes",
          "name": "operatorData",
          "type": "bytes"
        }
      ],
      "name": "Minted",
      "type": "event"
    },
    {
      "anonymous": false,
      "inputs": [
        {
          "indexed": true,
          "internalType": "address",
          "name": "operator",
          "type": "address"
        },
        {
          "indexed": true,
          "internalType": "address",
          "name": "tokenHolder",
          "type": "address"
        }
      ],
      "name": "RevokedOperator",
      "type": "event"
    },
    {
      "anonymous": false,
      "inputs": [
        {
          "indexed": true,
          "internalType": "address",
          "name": "operator",
          "type": "address"
        },
        {
          "indexed": true,
          "internalType": "address",
          "name": "from",
          "type": "address"
        },
        {
          "indexed": true,
          "internalType": "address",
          "name": "to",
          "type": "address"
        },
        {
          "indexed": false,
          "internalType": "uint256",
          "name": "amount",
          "type": "uint256"
        },
        {
          "indexed": false,
          "internalType": "bytes",
          "name": "data",
          "type": "bytes"
        },
        {
          "indexed": false,
          "internalType": "bytes",
          "name": "operatorData",
          "type": "bytes"
        }
      ],
      "name": "Sent",
      "type": "event"
    },
    {
      "anonymous": false,
      "inputs": [
        {
          "indexed": true,
          "internalType": "address",
          "name": "from",
          "type": "address"
        },
        {
          "indexed": true,
          "internalType": "address",
          "name": "to",
          "type": "address"
        },
        {
          "indexed": false,
          "internalType": "uint256",
          "name": "value",
          "type": "uint256"
        }
      ],
      "name": "Transfer",
      "type": "event"
    },
    {
      "inputs": [
        {
          "internalType": "address",
          "name": "holder",
          "type": "address"
        },
        {
          "internalType": "address",
          "name": "spender",
          "type": "address"
        }
      ],
      "name": "allowance",
      "outputs": [
        {
          "internalType": "uint256",
          "name": "",
          "type": "uint256"
        }
      ],
      "stateMutability": "view",
      "type": "function"
    },
    {
      "inputs": [
        {
          "internalType": "address",
          "name": "spender",
          "type": "address"
        },
        {
          "internalType": "uint256",
          "name": "value",
          "type": "uint256"
        }
      ],
      "name": "approve",
      "outputs": [
        {
          "internalType": "bool",
          "name": "",
          "type": "bool"
        }
      ],
      "stateMutability": "nonpayable",
      "type": "function"
    },
    {
      "inputs": [
        {
          "internalType": "address",
          "name": "operator",
          "type": "address"
        }
      ],
      "name": "authorizeOperator",
      "outputs": [],
      "stateMutability": "nonpayable",
      "type": "function"
    },
    {
      "inputs": [
        {
          "internalType": "address",
          "name": "tokenHolder",
          "type": "address"
        }
      ],
      "name": "balanceOf",
      "outputs": [
        {
          "internalType": "uint256",
          "name": "",
          "type": "uint256"
        }
      ],
      "stateMutability": "view",
      "type": "function"
    },
    {
      "inputs": [
        {
          "internalType": "uint256",
          "name": "amount",
          "type": "uint256"
        },
        {
          "internalType": "bytes",
          "name": "data",
          "type": "bytes"
        }
      ],
      "name": "burn",
      "outputs": [],
      "stateMutability": "nonpayable",
      "type": "function"
    },
    {
      "inputs": [],
      "name": "decimals",
      "outputs": [
        {
          "internalType": "uint8",
          "name": "",
          "type": "uint8"
        }
      ],
      "stateMutability": "pure",
      "type": "function"
    },
    {
      "inputs": [],
      "name": "defaultOperators",
      "outputs": [
        {
          "internalType": "address[]",
          "name": "",
          "type": "address[]"
        }
      ],
      "stateMutability": "view",
      "type": "function"
    },
    {
      "inputs": [],
      "name": "granularity",
      "outputs": [
        {
          "internalType": "uint256",
          "name": "",
          "type": "uint256"
        }
      ],
      "stateMutability": "view",
      "type": "function"
    },
    {
      "inputs": [
        {
          "internalType": "address",
          "name": "operator",
          "type": "address"
        },
        {
          "internalType": "address",
          "name": "tokenHolder",
          "type": "address"
        }
      ],
      "name": "isOperatorFor",
      "outputs": [
        {
          "internalType": "bool",
          "name": "",
          "type": "bool"
        }
      ],
      "stateMutability": "view",
      "type": "function"
    },
    {
      "inputs": [
        {
          "internalType": "address",
          "name": "to",
          "type": "address"
        },
        {
          "internalType": "uint256",
          "name": "amount",
          "type": "uint256"
        },
        {
          "internalType": "bytes",
          "name": "userData",
          "type": "bytes"
        },
        {
          "internalType": "bytes",
          "name": "operatorData",
          "type": "bytes"
        }
      ],
      "name": "mintInternal",
      "outputs": [],
      "stateMutability": "nonpayable",
      "type": "function"
    },
    {
      "inputs": [],
      "name": "name",
      "outputs": [
        {
          "internalType": "string",
          "name": "",
          "type": "string"
        }
      ],
      "stateMutability": "view",
      "type": "function"
    },
    {
      "inputs": [
        {
          "internalType": "address",
          "name": "account",
          "type": "address"
        },
        {
          "internalType": "uint256",
          "name": "amount",
          "type": "uint256"
        },
        {
          "internalType": "bytes",
          "name": "data",
          "type": "bytes"
        },
        {
          "internalType": "bytes",
          "name": "operatorData",
          "type": "bytes"
        }
      ],
      "name": "operatorBurn",
      "outputs": [],
      "stateMutability": "nonpayable",
      "type": "function"
    },
    {
      "inputs": [
        {
          "internalType": "address",
          "name": "sender",
          "type": "address"
        },
        {
          "internalType": "address",
          "name": "recipient",
          "type": "address"
        },
        {
          "internalType": "uint256",
          "name": "amount",
          "type": "uint256"
        },
        {
          "internalType": "bytes",
          "name": "data",
          "type": "bytes"
        },
        {
          "internalType": "bytes",
          "name": "operatorData",
          "type": "bytes"
        }
      ],
      "name": "operatorSend",
      "outputs": [],
      "stateMutability": "nonpayable",
      "type": "function"
    },
    {
      "inputs": [
        {
          "internalType": "address",
          "name": "operator",
          "type": "address"
        }
      ],
      "name": "revokeOperator",
      "outputs": [],
      "stateMutability": "nonpayable",
      "type": "function"
    },
    {
      "inputs": [
        {
          "internalType": "address",
          "name": "recipient",
          "type": "address"
        },
        {
          "internalType": "uint256",
          "name": "amount",
          "type": "uint256"
        },
        {
          "internalType": "bytes",
          "name": "data",
          "type": "bytes"
        }
      ],
      "name": "send",
      "outputs": [],
      "stateMutability": "nonpayable",
      "type": "function"
    },
    {
      "inputs": [],
      "name": "symbol",
      "outputs": [
        {
          "internalType": "string",
          "name": "",
          "type": "string"
        }
      ],
      "stateMutability": "view",
      "type": "function"
    },
    {
      "inputs": [],
      "name": "totalSupply",
      "outputs": [
        {
          "internalType": "uint256",
          "name": "",
          "type": "uint256"
        }
      ],
      "stateMutability": "view",
      "type": "function"
    },
    {
      "inputs": [
        {
          "internalType": "address",
          "name": "recipient",
          "type": "address"
        },
        {
          "internalType": "uint256",
          "name": "amount",
          "type": "uint256"
        }
      ],
      "name": "transfer",
      "outputs": [
        {
          "internalType": "bool",
          "name": "",
          "type": "bool"
        }
      ],
      "stateMutability": "nonpayable",
      "type": "function"
    },
    {
      "inputs": [
        {
          "internalType": "address",
          "name": "holder",
          "type": "address"
        },
        {
          "internalType": "address",
          "name": "recipient",
          "type": "address"
        },
        {
          "internalType": "uint256",
          "name": "amount",
          "type": "uint256"
        }
      ],
      "name": "transferFrom",
      "outputs": [
        {
          "internalType": "bool",
          "name": "",
          "type": "bool"
        }
      ],
      "stateMutability": "nonpayable",
      "type": "function"
    }
  ],
  "bytecode": "60806040523480156200001157600080fd5b5060405162002d1238038062002d12833981810160405260a08110156200003757600080fd5b815160208301516040808501805191519395929483019291846401000000008211156200006357600080fd5b9083019060208201858111156200007957600080fd5b82516401000000008111828201881017156200009457600080fd5b82525081516020918201929091019080838360005b83811015620000c3578181015183820152602001620000a9565b50505050905090810190601f168015620000f15780820380516001836020036101000a031916815260200191505b50604052602001805160405193929190846401000000008211156200011557600080fd5b9083019060208201858111156200012b57600080fd5b82516401000000008111828201881017156200014657600080fd5b82525081516020918201929091019080838360005b83811015620001755781810151838201526020016200015b565b50505050905090810190601f168015620001a35780820380516001836020036101000a031916815260200191505b5060405260200180516040519392919084640100000000821115620001c757600080fd5b908301906020820185811115620001dd57600080fd5b8251866020820283011164010000000082111715620001fb57600080fd5b82525081516020918201928201910280838360005b838110156200022a57818101518382015260200162000210565b50505050905001604052505050828282826002908051906020019062000252929190620009fd565b50815162000268906003906020850190620009fd565b5080516200027e90600490602084019062000a82565b5060005b600454811015620002de5760016005600060048481548110620002a157fe5b6000918252602080832091909101546001600160a01b031683528201929092526040019020805460ff191691151591909117905560010162000282565b50604080516329965a1d60e01b815230600482018190527fac7fbab5f54a3ca8194167523c6753bfeb96a445279294b6125b68cce2177054602483015260448201529051731820a4b7618bde71dce8cdc73aab6c95905fad24916329965a1d91606480830192600092919082900301818387803b1580156200035f57600080fd5b505af115801562000374573d6000803e3d6000fd5b5050604080516329965a1d60e01b815230600482018190527faea199e31a596269b42cdafd93407f14436db6e4cad65417994c2eb37381e05a602483015260448201529051731820a4b7618bde71dce8cdc73aab6c95905fad2493506329965a1d9250606480830192600092919082900301818387803b158015620003f857600080fd5b505af11580156200040d573d6000803e3d6000fd5b5050505050505062000446858560405180602001604052806000815250604051806020016040528060008152506200045160201b60201c565b505050505062000b20565b6001600160a01b038416620004ad576040805162461bcd60e51b815260206004820181905260248201527f4552433737373a206d696e7420746f20746865207a65726f2061646472657373604482015290519081900360640190fd5b6000620004b9620006b2565b9050620004ca8160008787620006b6565b620004e684600154620006bc60201b6200114f1790919060201c565b6001556001600160a01b03851660009081526020818152604090912054620005199186906200114f620006bc821b17901c565b6001600160a01b038616600090815260208190526040812091909155620005489082908787878760016200071e565b846001600160a01b0316816001600160a01b03167f2fe5be0146f74c5bce36c0b80911af6c7d86ff27e89d5cfa61fc681327954e5d868686604051808481526020018060200180602001838103835285818151815260200191508051906020019080838360005b83811015620005c9578181015183820152602001620005af565b50505050905090810190601f168015620005f75780820380516001836020036101000a031916815260200191505b50838103825284518152845160209182019186019080838360005b838110156200062c57818101518382015260200162000612565b50505050905090810190601f1680156200065a5780820380516001836020036101000a031916815260200191505b509550505050505060405180910390a36040805185815290516001600160a01b038716916000917fddf252ad1be2c89b69c2b068fc378daa952ba7f163c4a11628f55a4df523b3ef9181900360200190a35050505050565b3390565b50505050565b60008282018381101562000717576040805162461bcd60e51b815260206004820152601b60248201527f536166654d6174683a206164646974696f6e206f766572666c6f770000000000604482015290519081900360640190fd5b9392505050565b6040805163555ddc6560e11b81526001600160a01b03871660048201527fb281fc8c12954d22544db45de3159a39272895b169a852b314f9cc762e44c53b60248201529051600091731820a4b7618bde71dce8cdc73aab6c95905fad249163aabbb8ca91604480820192602092909190829003018186803b158015620007a357600080fd5b505afa158015620007b8573d6000803e3d6000fd5b505050506040513d6020811015620007cf57600080fd5b505190506001600160a01b038116156200095257806001600160a01b03166223de298989898989896040518763ffffffff1660e01b815260040180876001600160a01b03168152602001866001600160a01b03168152602001856001600160a01b031681526020018481526020018060200180602001838103835285818151815260200191508051906020019080838360005b838110156200087c57818101518382015260200162000862565b50505050905090810190601f168015620008aa5780820380516001836020036101000a031916815260200191505b50838103825284518152845160209182019186019080838360005b83811015620008df578181015183820152602001620008c5565b50505050905090810190601f1680156200090d5780820380516001836020036101000a031916815260200191505b5098505050505050505050600060405180830381600087803b1580156200093357600080fd5b505af115801562000948573d6000803e3d6000fd5b50505050620009b6565b8115620009b65762000978866001600160a01b0316620009c060201b620011a91760201c565b15620009b65760405162461bcd60e51b815260040180806020018281038252604d81526020018062002cc5604d913960600191505060405180910390fd5b5050505050505050565b6000813f7fc5d2460186f7233c927e7db2dcc703c0e500b653ca82273b7bfad8045d85a470818114801590620009f557508115155b949350505050565b828054600181600116156101000203166002900490600052602060002090601f016020900481019282601f1062000a4057805160ff191683800117855562000a70565b8280016001018555821562000a70579182015b8281111562000a7057825182559160200191906001019062000a53565b5062000a7e92915062000ae8565b5090565b82805482825590600052602060002090810192821562000ada579160200282015b8281111562000ada57825182546001600160a01b0319166001600160a01b0390911617825560209092019160019091019062000aa3565b5062000a7e92915062000aff565b5b8082111562000a7e576000815560010162000ae9565b5b8082111562000a7e5780546001600160a01b031916815560010162000b00565b6121958062000b306000396000f3fe608060405234801561001057600080fd5b50600436106101215760003560e01c8063959b8c3f116100ad578063d95b637111610071578063d95b637114610673578063dd62ed3e146106a1578063fad8b32a146106cf578063fc673c4f146106f5578063fe9d93031461083357610121565b8063959b8c3f1461042257806395d89b41146104485780639bd9bbc614610450578063a9059cbb14610509578063b1f0b5be1461053557610121565b806323b872dd116100f457806323b872dd14610255578063313ce5671461028b578063556f0dc7146102a957806362ad1b83146102b157806370a08231146103fc57610121565b806306e485381461012657806306fdde031461017e578063095ea7b3146101fb57806318160ddd1461023b575b600080fd5b61012e6108de565b60408051602080825283518183015283519192839290830191858101910280838360005b8381101561016a578181015183820152602001610152565b505050509050019250505060405180910390f35b610186610940565b6040805160208082528351818301528351919283929083019185019080838360005b838110156101c05781810151838201526020016101a8565b50505050905090810190601f1680156101ed5780820380516001836020036101000a031916815260200191505b509250505060405180910390f35b6102276004803603604081101561021157600080fd5b506001600160a01b0381351690602001356109ca565b604080519115158252519081900360200190f35b6102436109ec565b60408051918252519081900360200190f35b6102276004803603606081101561026b57600080fd5b506001600160a01b038135811691602081013590911690604001356109f2565b610293610b6f565b6040805160ff9092168252519081900360200190f35b610243610b74565b6103fa600480360360a08110156102c757600080fd5b6001600160a01b03823581169260208101359091169160408201359190810190608081016060820135600160201b81111561030157600080fd5b82018360208201111561031357600080fd5b803590602001918460018302840111600160201b8311171561033457600080fd5b91908080601f0160208091040260200160405190810160405280939291908181526020018383808284376000920191909152509295949360208101935035915050600160201b81111561038657600080fd5b82018360208201111561039857600080fd5b803590602001918460018302840111600160201b831117156103b957600080fd5b91908080601f016020809104026020016040519081016040528093929190818152602001838380828437600092019190915250929550610b79945050505050565b005b6102436004803603602081101561041257600080fd5b50356001600160a01b0316610bdb565b6103fa6004803603602081101561043857600080fd5b50356001600160a01b0316610bf6565b610186610d42565b6103fa6004803603606081101561046657600080fd5b6001600160a01b0382351691602081013591810190606081016040820135600160201b81111561049557600080fd5b8201836020820111156104a757600080fd5b803590602001918460018302840111600160201b831117156104c857600080fd5b91908080601f016020809104026020016040519081016040528093929190818152602001838380828437600092019190915250929550610da3945050505050565b6102276004803603604081101561051f57600080fd5b506001600160a01b038135169060200135610dcd565b6103fa6004803603608081101561054b57600080fd5b6001600160a01b0382351691602081013591810190606081016040820135600160201b81111561057a57600080fd5b82018360208201111561058c57600080fd5b803590602001918460018302840111600160201b831117156105ad57600080fd5b91908080601f0160208091040260200160405190810160405280939291908181526020018383808284376000920191909152509295949360208101935035915050600160201b8111156105ff57600080fd5b82018360208201111561061157600080fd5b803590602001918460018302840111600160201b8311171561063257600080fd5b91908080601f016020809104026020016040519081016040528093929190818152602001838380828437600092019190915250929550610ea6945050505050565b6102276004803603604081101561068957600080fd5b506001600160a01b0381358116916020013516610eb8565b610243600480360360408110156106b757600080fd5b506001600160a01b0381358116916020013516610f5a565b6103fa600480360360208110156106e557600080fd5b50356001600160a01b0316610f85565b6103fa6004803603608081101561070b57600080fd5b6001600160a01b0382351691602081013591810190606081016040820135600160201b81111561073a57600080fd5b82018360208201111561074c57600080fd5b803590602001918460018302840111600160201b8311171561076d57600080fd5b91908080601f0160208091040260200160405190810160405280939291908181526020018383808284376000920191909152509295949360208101935035915050600160201b8111156107bf57600080fd5b8201836020820111156107d157600080fd5b803590602001918460018302840111600160201b831117156107f257600080fd5b91908080601f0160208091040260200160405190810160405280939291908181526020018383808284376000920191909152509295506110d1945050505050565b6103fa6004803603604081101561084957600080fd5b81359190810190604081016020820135600160201b81111561086a57600080fd5b82018360208201111561087c57600080fd5b803590602001918460018302840111600160201b8311171561089d57600080fd5b91908080601f016020809104026020016040519081016040528093929190818152602001838380828437600092019190915250929550611129945050505050565b6060600480548060200260200160405190810160405280929190818152602001828054801561093657602002820191906000526020600020905b81546001600160a01b03168152600190910190602001808311610918575b5050505050905090565b60028054604080516020601f60001961010060018716150201909416859004938401819004810282018101909252828152606093909290918301828280156109365780601f1061099e57610100808354040283529160200191610936565b820191906000526020600020905b8154815290600101906020018083116109ac57509395945050505050565b6000806109d56111e5565b90506109e28185856111e9565b5060019392505050565b60015490565b60006001600160a01b038316610a395760405162461bcd60e51b815260040180806020018281038252602481526020018061207b6024913960400191505060405180910390fd5b6001600160a01b038416610a7e5760405162461bcd60e51b81526004018080602001828103825260268152602001806120f46026913960400191505060405180910390fd5b6000610a886111e5565b9050610ab6818686866040518060200160405280600081525060405180602001604052806000815250611290565b610ae28186868660405180602001604052806000815250604051806020016040528060008152506114bd565b610b368582610b31866040518060600160405280602981526020016120cb602991396001600160a01b03808c166000908152600860209081526040808320938b168352929052205491906116d6565b6111e9565b610b64818686866040518060200160405280600081525060405180602001604052806000815250600061176d565b506001949350505050565b601290565b600190565b610b8a610b846111e5565b86610eb8565b610bc55760405162461bcd60e51b815260040180806020018281038252602c81526020018061209f602c913960400191505060405180910390fd5b610bd4858585858560016119f2565b5050505050565b6001600160a01b031660009081526020819052604090205490565b806001600160a01b0316610c086111e5565b6001600160a01b03161415610c4e5760405162461bcd60e51b8152600401808060200182810382526024815260200180611fe96024913960400191505060405180910390fd5b6001600160a01b03811660009081526005602052604090205460ff1615610cb15760076000610c7b6111e5565b6001600160a01b03908116825260208083019390935260409182016000908120918516815292529020805460ff19169055610cf8565b600160066000610cbf6111e5565b6001600160a01b03908116825260208083019390935260409182016000908120918616815292529020805460ff19169115159190911790555b610d006111e5565b6001600160a01b0316816001600160a01b03167ff4caeb2d6ca8932a215a353d0703c326ec2d81fc68170f320eb2ab49e9df61f960405160405180910390a350565b60038054604080516020601f60026000196101006001881615020190951694909404938401819004810282018101909252828152606093909290918301828280156109365780601f1061099e57610100808354040283529160200191610936565b610dc8610dae6111e5565b8484846040518060200160405280600081525060016119f2565b505050565b60006001600160a01b038316610e145760405162461bcd60e51b815260040180806020018281038252602481526020018061207b6024913960400191505060405180910390fd5b6000610e1e6111e5565b9050610e4c818286866040518060200160405280600081525060405180602001604052806000815250611290565b610e788182868660405180602001604052806000815250604051806020016040528060008152506114bd565b6109e2818286866040518060200160405280600081525060405180602001604052806000815250600061176d565b610eb284848484611ac9565b50505050565b6000816001600160a01b0316836001600160a01b03161480610f2357506001600160a01b03831660009081526005602052604090205460ff168015610f2357506001600160a01b0380831660009081526007602090815260408083209387168352929052205460ff16155b80610f5357506001600160a01b0380831660009081526006602090815260408083209387168352929052205460ff165b9392505050565b6001600160a01b03918216600090815260086020908152604080832093909416825291909152205490565b610f8d6111e5565b6001600160a01b0316816001600160a01b03161415610fdd5760405162461bcd60e51b815260040180806020018281038252602181526020018061200d6021913960400191505060405180910390fd5b6001600160a01b03811660009081526005602052604090205460ff16156110495760016007600061100c6111e5565b6001600160a01b03908116825260208083019390935260409182016000908120918616815292529020805460ff1916911515919091179055611087565b600660006110556111e5565b6001600160a01b03908116825260208083019390935260409182016000908120918516815292529020805460ff191690555b61108f6111e5565b6001600160a01b0316816001600160a01b03167f50546e66e5f44d728365dc3908c63bc5cfeeab470722c1677e3073a6ac294aa160405160405180910390a350565b6110e26110dc6111e5565b85610eb8565b61111d5760405162461bcd60e51b815260040180806020018281038252602c81526020018061209f602c913960400191505060405180910390fd5b610eb284848484611d01565b61114b6111346111e5565b838360405180602001604052806000815250611d01565b5050565b600082820183811015610f53576040805162461bcd60e51b815260206004820152601b60248201527f536166654d6174683a206164646974696f6e206f766572666c6f770000000000604482015290519081900360640190fd5b6000813f7fc5d2460186f7233c927e7db2dcc703c0e500b653ca82273b7bfad8045d85a4708181148015906111dd57508115155b949350505050565b3390565b6001600160a01b03821661122e5760405162461bcd60e51b815260040180806020018281038252602381526020018061213d6023913960400191505060405180910390fd5b6001600160a01b03808416600081815260086020908152604080832094871680845294825291829020859055815185815291517f8c5be1e5ebec7d5bd14f71427d1e84f3dd0314c0f7b2291e5b200ac8c7c3b9259281900390910190a3505050565b6040805163555ddc6560e11b81526001600160a01b03871660048201527f29ddb589b1fb5fc7cf394961c1adf5f8c6454761adf795e67fe149f658abe89560248201529051600091731820a4b7618bde71dce8cdc73aab6c95905fad249163aabbb8ca91604480820192602092909190829003018186803b15801561131457600080fd5b505afa158015611328573d6000803e3d6000fd5b505050506040513d602081101561133e57600080fd5b505190506001600160a01b038116156114b457806001600160a01b03166375ab97828888888888886040518763ffffffff1660e01b815260040180876001600160a01b03168152602001866001600160a01b03168152602001856001600160a01b031681526020018481526020018060200180602001838103835285818151815260200191508051906020019080838360005b838110156113e95781810151838201526020016113d1565b50505050905090810190601f1680156114165780820380516001836020036101000a031916815260200191505b50838103825284518152845160209182019186019080838360005b83811015611449578181015183820152602001611431565b50505050905090810190601f1680156114765780820380516001836020036101000a031916815260200191505b5098505050505050505050600060405180830381600087803b15801561149b57600080fd5b505af11580156114af573d6000803e3d6000fd5b505050505b50505050505050565b6114c986868686610eb2565b61150683604051806060016040528060278152602001611fa0602791396001600160a01b03881660009081526020819052604090205491906116d6565b6001600160a01b038087166000908152602081905260408082209390935590861681522054611535908461114f565b600080866001600160a01b03166001600160a01b0316815260200190815260200160002081905550836001600160a01b0316856001600160a01b0316876001600160a01b03167f06b541ddaa720db2b10a4d0cdac39b8d360425fc073085fac19bc82614677987868686604051808481526020018060200180602001838103835285818151815260200191508051906020019080838360005b838110156115e65781810151838201526020016115ce565b50505050905090810190601f1680156116135780820380516001836020036101000a031916815260200191505b50838103825284518152845160209182019186019080838360005b8381101561164657818101518382015260200161162e565b50505050905090810190601f1680156116735780820380516001836020036101000a031916815260200191505b509550505050505060405180910390a4836001600160a01b0316856001600160a01b03167fddf252ad1be2c89b69c2b068fc378daa952ba7f163c4a11628f55a4df523b3ef856040518082815260200191505060405180910390a3505050505050565b600081848411156117655760405162461bcd60e51b81526004018080602001828103825283818151815260200191508051906020019080838360005b8381101561172a578181015183820152602001611712565b50505050905090810190601f1680156117575780820380516001836020036101000a031916815260200191505b509250505060405180910390fd5b505050900390565b6040805163555ddc6560e11b81526001600160a01b03871660048201527fb281fc8c12954d22544db45de3159a39272895b169a852b314f9cc762e44c53b60248201529051600091731820a4b7618bde71dce8cdc73aab6c95905fad249163aabbb8ca91604480820192602092909190829003018186803b1580156117f157600080fd5b505afa158015611805573d6000803e3d6000fd5b505050506040513d602081101561181b57600080fd5b505190506001600160a01b0381161561199457806001600160a01b03166223de298989898989896040518763ffffffff1660e01b815260040180876001600160a01b03168152602001866001600160a01b03168152602001856001600160a01b031681526020018481526020018060200180602001838103835285818151815260200191508051906020019080838360005b838110156118c55781810151838201526020016118ad565b50505050905090810190601f1680156118f25780820380516001836020036101000a031916815260200191505b50838103825284518152845160209182019186019080838360005b8381101561192557818101518382015260200161190d565b50505050905090810190601f1680156119525780820380516001836020036101000a031916815260200191505b5098505050505050505050600060405180830381600087803b15801561197757600080fd5b505af115801561198b573d6000803e3d6000fd5b505050506119e8565b81156119e8576119ac866001600160a01b03166111a9565b156119e85760405162461bcd60e51b815260040180806020018281038252604d81526020018061202e604d913960600191505060405180910390fd5b5050505050505050565b6001600160a01b038616611a375760405162461bcd60e51b8152600401808060200182810382526022815260200180611f7e6022913960400191505060405180910390fd5b6001600160a01b038516611a92576040805162461bcd60e51b815260206004820181905260248201527f4552433737373a2073656e6420746f20746865207a65726f2061646472657373604482015290519081900360640190fd5b6000611a9c6111e5565b9050611aac818888888888611290565b611aba8188888888886114bd565b6114b48188888888888861176d565b6001600160a01b038416611b24576040805162461bcd60e51b815260206004820181905260248201527f4552433737373a206d696e7420746f20746865207a65726f2061646472657373604482015290519081900360640190fd5b6000611b2e6111e5565b9050611b3d8160008787610eb2565b600154611b4a908561114f565b6001556001600160a01b038516600090815260208190526040902054611b70908561114f565b6001600160a01b038616600090815260208190526040812091909155611b9d90829087878787600161176d565b846001600160a01b0316816001600160a01b03167f2fe5be0146f74c5bce36c0b80911af6c7d86ff27e89d5cfa61fc681327954e5d868686604051808481526020018060200180602001838103835285818151815260200191508051906020019080838360005b83811015611c1c578181015183820152602001611c04565b50505050905090810190601f168015611c495780820380516001836020036101000a031916815260200191505b50838103825284518152845160209182019186019080838360005b83811015611c7c578181015183820152602001611c64565b50505050905090810190601f168015611ca95780820380516001836020036101000a031916815260200191505b509550505050505060405180910390a36040805185815290516001600160a01b038716916000917fddf252ad1be2c89b69c2b068fc378daa952ba7f163c4a11628f55a4df523b3ef9181900360200190a35050505050565b6001600160a01b038416611d465760405162461bcd60e51b8152600401808060200182810382526022815260200180611fc76022913960400191505060405180910390fd5b6000611d506111e5565b9050611d5f8186600087610eb2565b611d6e81866000878787611290565b611dab8460405180606001604052806023815260200161211a602391396001600160a01b03881660009081526020819052604090205491906116d6565b6001600160a01b038616600090815260208190526040902055600154611dd19085611f3b565b600181905550846001600160a01b0316816001600160a01b03167fa78a9be3a7b862d26933ad85fb11d80ef66b8f972d7cbba06621d583943a4098868686604051808481526020018060200180602001838103835285818151815260200191508051906020019080838360005b83811015611e56578181015183820152602001611e3e565b50505050905090810190601f168015611e835780820380516001836020036101000a031916815260200191505b50838103825284518152845160209182019186019080838360005b83811015611eb6578181015183820152602001611e9e565b50505050905090810190601f168015611ee35780820380516001836020036101000a031916815260200191505b509550505050505060405180910390a36040805185815290516000916001600160a01b038816917fddf252ad1be2c89b69c2b068fc378daa952ba7f163c4a11628f55a4df523b3ef9181900360200190a35050505050565b6000610f5383836040518060400160405280601e81526020017f536166654d6174683a207375627472616374696f6e206f766572666c6f7700008152506116d656fe4552433737373a2073656e642066726f6d20746865207a65726f20616464726573734552433737373a207472616e7366657220616d6f756e7420657863656564732062616c616e63654552433737373a206275726e2066726f6d20746865207a65726f20616464726573734552433737373a20617574686f72697a696e672073656c66206173206f70657261746f724552433737373a207265766f6b696e672073656c66206173206f70657261746f724552433737373a20746f6b656e20726563697069656e7420636f6e747261637420686173206e6f20696d706c656d656e74657220666f7220455243373737546f6b656e73526563697069656e744552433737373a207472616e7366657220746f20746865207a65726f20616464726573734552433737373a2063616c6c6572206973206e6f7420616e206f70657261746f7220666f7220686f6c6465724552433737373a207472616e7366657220616d6f756e74206578636565647320616c6c6f77616e63654552433737373a207472616e736665722066726f6d20746865207a65726f20616464726573734552433737373a206275726e20616d6f756e7420657863656564732062616c616e63654552433737373a20617070726f766520746f20746865207a65726f2061646472657373a26469706673582212203031ffa0433ca489b5b3a6d3a9dd0e77bcd3bbfc3e536bc8e716c760c02b404964736f6c634300060c00334552433737373a20746f6b656e20726563697069656e7420636f6e747261637420686173206e6f20696d706c656d656e74657220666f7220455243373737546f6b656e73526563697069656e74",
  "bytecodeSha1": "da39a3ee5e6b4b0d3255bfef95601890afd80709",
  "compiler": {
    "evm_version": "istanbul",
    "optimizer": {
      "enabled": true,
      "runs": 200
    },
    "version": "0.6.12+commit.27d51765"
  },
  "contractName": "ERC777Mock",
  "language": "Solidity",
  "natspec": {
    "kind": "dev",
    "methods": {
      "allowance(address,address)": {
        "details": "See {IERC20-allowance}. Note that operator and allowance concepts are orthogonal: operators may not have allowance, and accounts with allowance may not be operators themselves."
      },
      "approve(address,uint256)": {
        "details": "See {IERC20-approve}. Note that accounts cannot have allowance issued by their operators."
      },
      "authorizeOperator(address)": {
        "details": "See {IERC777-authorizeOperator}."
      },
      "balanceOf(address)": {
        "details": "Returns the amount of tokens owned by an account (`tokenHolder`)."
      },
      "burn(uint256,bytes)": {
        "details": "See {IERC777-burn}. Also emits a {IERC20-Transfer} event for ERC20 compatibility."
      },
      "decimals()": {
        "details": "See {ERC20-decimals}. Always returns 18, as per the [ERC777 EIP](https://eips.ethereum.org/EIPS/eip-777#backward-compatibility)."
      },
      "defaultOperators()": {
        "details": "See {IERC777-defaultOperators}."
      },
      "granularity()": {
        "details": "See {IERC777-granularity}. This implementation always returns `1`."
      },
      "isOperatorFor(address,address)": {
        "details": "See {IERC777-isOperatorFor}."
      },
      "name()": {
        "details": "See {IERC777-name}."
      },
      "operatorBurn(address,uint256,bytes,bytes)": {
        "details": "See {IERC777-operatorBurn}. Emits {Burned} and {IERC20-Transfer} events."
      },
      "operatorSend(address,address,uint256,bytes,bytes)": {
        "details": "See {IERC777-operatorSend}. Emits {Sent} and {IERC20-Transfer} events."
      },
      "revokeOperator(address)": {
        "details": "See {IERC777-revokeOperator}."
      },
      "send(address,uint256,bytes)": {
        "details": "See {IERC777-send}. Also emits a {IERC20-Transfer} event for ERC20 compatibility."
      },
      "symbol()": {
        "details": "See {IERC777-symbol}."
      },
      "totalSupply()": {
        "details": "See {IERC777-totalSupply}."
      },
      "transfer(address,uint256)": {
        "details": "See {IERC20-transfer}. Unlike `send`, `recipient` is _not_ required to implement the {IERC777Recipient} interface if it is a contract. Also emits a {Sent} event."
      },
      "transferFrom(address,address,uint256)": {
        "details": "See {IERC20-transferFrom}. Note that operator and allowance concepts are orthogonal: operators cannot call `transferFrom` (unless they have allowance), and accounts with allowance cannot call `operatorSend` (unless they are operators). Emits {Sent}, {IERC20-Transfer} and {IERC20-Approval} events."
      }
    },
    "version": 1
  },
  "opcodes": "PUSH1 0x80 PUSH1 0x40 MSTORE CALLVALUE DUP1 ISZERO PUSH2 0x10 JUMPI PUSH1 0x0 DUP1 REVERT JUMPDEST POP PUSH1 0x4 CALLDATASIZE LT PUSH2 0x121 JUMPI PUSH1 0x0 CALLDATALOAD PUSH1 0xE0 SHR DUP1 PUSH4 0x959B8C3F GT PUSH2 0xAD JUMPI DUP1 PUSH4 0xD95B6371 GT PUSH2 0x71 JUMPI DUP1 PUSH4 0xD95B6371 EQ PUSH2 0x673 JUMPI DUP1 PUSH4 0xDD62ED3E EQ PUSH2 0x6A1 JUMPI DUP1 PUSH4 0xFAD8B32A EQ PUSH2 0x6CF JUMPI DUP1 PUSH4 0xFC673C4F EQ PUSH2 0x6F5 JUMPI DUP1 PUSH4 0xFE9D9303 EQ PUSH2 0x833 JUMPI PUSH2 0x121 JUMP JUMPDEST DUP1 PUSH4 0x959B8C3F EQ PUSH2 0x422 JUMPI DUP1 PUSH4 0x95D89B41 EQ PUSH2 0x448 JUMPI DUP1 PUSH4 0x9BD9BBC6 EQ PUSH2 0x450 JUMPI DUP1 PUSH4 0xA9059CBB EQ PUSH2 0x509 JUMPI DUP1 PUSH4 0xB1F0B5BE EQ PUSH2 0x535 JUMPI PUSH2 0x121 JUMP JUMPDEST DUP1 PUSH4 0x23B872DD GT PUSH2 0xF4 JUMPI DUP1 PUSH4 0x23B872DD EQ PUSH2 0x255 JUMPI DUP1 PUSH4 0x313CE567 EQ PUSH2 0x28B JUMPI DUP1 PUSH4 0x556F0DC7 EQ PUSH2 0x2A9 JUMPI DUP1 PUSH4 0x62AD1B83 EQ PUSH2 0x2B1 JUMPI DUP1 PUSH4 0x70A08231 EQ PUSH2 0x3FC JUMPI PUSH2 0x121 JUMP JUMPDEST DUP1 PUSH4 0x6E48538 EQ PUSH2 0x126 JUMPI DUP1 PUSH4 0x6FDDE03 EQ PUSH2 0x17E JUMPI DUP1 PUSH4 0x95EA7B3 EQ PUSH2 0x1FB JUMPI DUP1 PUSH4 0x18160DDD EQ PUSH2 0x23B JUMPI JUMPDEST PUSH1 0x0 DUP1 REVERT JUMPDEST PUSH2 0x12E PUSH2 0x8DE JUMP JUMPDEST PUSH1 0x40 DUP1 MLOAD PUSH1 0x20 DUP1 DUP3 MSTORE DUP4 MLOAD DUP2 DUP4 ADD MSTORE DUP4 MLOAD SWAP2 SWAP3 DUP4 SWAP3 SWAP1 DUP4 ADD SWAP2 DUP6 DUP2 ADD SWAP2 MUL DUP1 DUP4 DUP4 PUSH1 0x0 JUMPDEST DUP4 DUP2 LT ISZERO PUSH2 0x16A JUMPI DUP2 DUP2 ADD MLOAD DUP4 DUP3 ADD MSTORE PUSH1 0x20 ADD PUSH2 0x152 JUMP JUMPDEST POP POP POP POP SWAP1 POP ADD SWAP3 POP POP POP PUSH1 0x40 MLOAD DUP1 SWAP2 SUB SWAP1 RETURN JUMPDEST PUSH2 0x186 PUSH2 0x940 JUMP JUMPDEST PUSH1 0x40 DUP1 MLOAD PUSH1 0x20 DUP1 DUP3 MSTORE DUP4 MLOAD DUP2 DUP4 ADD MSTORE DUP4 MLOAD SWAP2 SWAP3 DUP4 SWAP3 SWAP1 DUP4 ADD SWAP2 DUP6 ADD SWAP1 DUP1 DUP4 DUP4 PUSH1 0x0 JUMPDEST DUP4 DUP2 LT ISZERO PUSH2 0x1C0 JUMPI DUP2 DUP2 ADD MLOAD DUP4 DUP3 ADD MSTORE PUSH1 0x20 ADD PUSH2 0x1A8 JUMP JUMPDEST POP POP POP POP SWAP1 POP SWAP1 DUP2 ADD SWAP1 PUSH1 0x1F AND DUP1 ISZERO PUSH2 0x1ED JUMPI DUP1 DUP3 SUB DUP1 MLOAD PUSH1 0x1 DUP4 PUSH1 0x20 SUB PUSH2 0x100 EXP SUB NOT AND DUP2 MSTORE PUSH1 0x20 ADD SWAP2 POP JUMPDEST POP SWAP3 POP POP POP PUSH1 0x40 MLOAD DUP1 SWAP2 SUB SWAP1 RETURN JUMPDEST PUSH2 0x227 PUSH1 0x4 DUP1 CALLDATASIZE SUB PUSH1 0x40 DUP2 LT ISZERO PUSH2 0x211 JUMPI PUSH1 0x0 DUP1 REVERT JUMPDEST POP PUSH1 0x1 PUSH1 0x1 PUSH1 0xA0 SHL SUB DUP2 CALLDATALOAD AND SWAP1 PUSH1 0x20 ADD CALLDATALOAD PUSH2 0x9CA JUMP JUMPDEST PUSH1 0x40 DUP1 MLOAD SWAP2 ISZERO ISZERO DUP3 MSTORE MLOAD SWAP1 DUP2 SWAP1 SUB PUSH1 0x20 ADD SWAP1 RETURN JUMPDEST PUSH2 0x243 PUSH2 0x9EC JUMP JUMPDEST PUSH1 0x40 DUP1 MLOAD SWAP2 DUP3 MSTORE MLOAD SWAP1 DUP2 SWAP1 SUB PUSH1 0x20 ADD SWAP1 RETURN JUMPDEST PUSH2 0x227 PUSH1 0x4 DUP1 CALLDATASIZE SUB PUSH1 0x60 DUP2 LT ISZERO PUSH2 0x26B JUMPI PUSH1 0x0 DUP1 REVERT JUMPDEST POP PUSH1 0x1 PUSH1 0x1 PUSH1 0xA0 SHL SUB DUP2 CALLDATALOAD DUP2 AND SWAP2 PUSH1 0x20 DUP2 ADD CALLDATALOAD SWAP1 SWAP2 AND SWAP1 PUSH1 0x40 ADD CALLDATALOAD PUSH2 0x9F2 JUMP JUMPDEST PUSH2 0x293 PUSH2 0xB6F JUMP JUMPDEST PUSH1 0x40 DUP1 MLOAD PUSH1 0xFF SWAP1 SWAP3 AND DUP3 MSTORE MLOAD SWAP1 DUP2 SWAP1 SUB PUSH1 0x20 ADD SWAP1 RETURN JUMPDEST PUSH2 0x243 PUSH2 0xB74 JUMP JUMPDEST PUSH2 0x3FA PUSH1 0x4 DUP1 CALLDATASIZE SUB PUSH1 0xA0 DUP2 LT ISZERO PUSH2 0x2C7 JUMPI PUSH1 0x0 DUP1 REVERT JUMPDEST PUSH1 0x1 PUSH1 0x1 PUSH1 0xA0 SHL SUB DUP3 CALLDATALOAD DUP2 AND SWAP3 PUSH1 0x20 DUP2 ADD CALLDATALOAD SWAP1 SWAP2 AND SWAP2 PUSH1 0x40 DUP3 ADD CALLDATALOAD SWAP2 SWAP1 DUP2 ADD SWAP1 PUSH1 0x80 DUP2 ADD PUSH1 0x60 DUP3 ADD CALLDATALOAD PUSH1 0x1 PUSH1 0x20 SHL DUP2 GT ISZERO PUSH2 0x301 JUMPI PUSH1 0x0 DUP1 REVERT JUMPDEST DUP3 ADD DUP4 PUSH1 0x20 DUP3 ADD GT ISZERO PUSH2 0x313 JUMPI PUSH1 0x0 DUP1 REVERT JUMPDEST DUP1 CALLDATALOAD SWAP1 PUSH1 0x20 ADD SWAP2 DUP5 PUSH1 0x1 DUP4 MUL DUP5 ADD GT PUSH1 0x1 PUSH1 0x20 SHL DUP4 GT OR ISZERO PUSH2 0x334 JUMPI PUSH1 0x0 DUP1 REVERT JUMPDEST SWAP2 SWAP1 DUP1 DUP1 PUSH1 0x1F ADD PUSH1 0x20 DUP1 SWAP2 DIV MUL PUSH1 0x20 ADD PUSH1 0x40 MLOAD SWAP1 DUP2 ADD PUSH1 0x40 MSTORE DUP1 SWAP4 SWAP3 SWAP2 SWAP1 DUP2 DUP2 MSTORE PUSH1 0x20 ADD DUP4 DUP4 DUP1 DUP3 DUP5 CALLDATACOPY PUSH1 0x0 SWAP3 ADD SWAP2 SWAP1 SWAP2 MSTORE POP SWAP3 SWAP6 SWAP5 SWAP4 PUSH1 0x20 DUP2 ADD SWAP4 POP CALLDATALOAD SWAP2 POP POP PUSH1 0x1 PUSH1 0x20 SHL DUP2 GT ISZERO PUSH2 0x386 JUMPI PUSH1 0x0 DUP1 REVERT JUMPDEST DUP3 ADD DUP4 PUSH1 0x20 DUP3 ADD GT ISZERO PUSH2 0x398 JUMPI PUSH1 0x0 DUP1 REVERT JUMPDEST DUP1 CALLDATALOAD SWAP1 PUSH1 0x20 ADD SWAP2 DUP5 PUSH1 0x1 DUP4 MUL DUP5 ADD GT PUSH1 0x1 PUSH1 0x20 SHL DUP4 GT OR ISZERO PUSH2 0x3B9 JUMPI PUSH1 0x0 DUP1 REVERT JUMPDEST SWAP2 SWAP1 DUP1 DUP1 PUSH1 0x1F ADD PUSH1 0x20 DUP1 SWAP2 DIV MUL PUSH1 0x20 ADD PUSH1 0x40 MLOAD SWAP1 DUP2 ADD PUSH1 0x40 MSTORE DUP1 SWAP4 SWAP3 SWAP2 SWAP1 DUP2 DUP2 MSTORE PUSH1 0x20 ADD DUP4 DUP4 DUP1 DUP3 DUP5 CALLDATACOPY PUSH1 0x0 SWAP3 ADD SWAP2 SWAP1 SWAP2 MSTORE POP SWAP3 SWAP6 POP PUSH2 0xB79 SWAP5 POP POP POP POP POP JUMP JUMPDEST STOP JUMPDEST PUSH2 0x243 PUSH1 0x4 DUP1 CALLDATASIZE SUB PUSH1 0x20 DUP2 LT ISZERO PUSH2 0x412 JUMPI PUSH1 0x0 DUP1 REVERT JUMPDEST POP CALLDATALOAD PUSH1 0x1 PUSH1 0x1 PUSH1 0xA0 SHL SUB AND PUSH2 0xBDB JUMP JUMPDEST PUSH2 0x3FA PUSH1 0x4 DUP1 CALLDATASIZE SUB PUSH1 0x20 DUP2 LT ISZERO PUSH2 0x438 JUMPI PUSH1 0x0 DUP1 REVERT JUMPDEST POP CALLDATALOAD PUSH1 0x1 PUSH1 0x1 PUSH1 0xA0 SHL SUB AND PUSH2 0xBF6 JUMP JUMPDEST PUSH2 0x186 PUSH2 0xD42 JUMP JUMPDEST PUSH2 0x3FA PUSH1 0x4 DUP1 CALLDATASIZE SUB PUSH1 0x60 DUP2 LT ISZERO PUSH2 0x466 JUMPI PUSH1 0x0 DUP1 REVERT JUMPDEST PUSH1 0x1 PUSH1 0x1 PUSH1 0xA0 SHL SUB DUP3 CALLDATALOAD AND SWAP2 PUSH1 0x20 DUP2 ADD CALLDATALOAD SWAP2 DUP2 ADD SWAP1 PUSH1 0x60 DUP2 ADD PUSH1 0x40 DUP3 ADD CALLDATALOAD PUSH1 0x1 PUSH1 0x20 SHL DUP2 GT ISZERO PUSH2 0x495 JUMPI PUSH1 0x0 DUP1 REVERT JUMPDEST DUP3 ADD DUP4 PUSH1 0x20 DUP3 ADD GT ISZERO PUSH2 0x4A7 JUMPI PUSH1 0x0 DUP1 REVERT JUMPDEST DUP1 CALLDATALOAD SWAP1 PUSH1 0x20 ADD SWAP2 DUP5 PUSH1 0x1 DUP4 MUL DUP5 ADD GT PUSH1 0x1 PUSH1 0x20 SHL DUP4 GT OR ISZERO PUSH2 0x4C8 JUMPI PUSH1 0x0 DUP1 REVERT JUMPDEST SWAP2 SWAP1 DUP1 DUP1 PUSH1 0x1F ADD PUSH1 0x20 DUP1 SWAP2 DIV MUL PUSH1 0x20 ADD PUSH1 0x40 MLOAD SWAP1 DUP2 ADD PUSH1 0x40 MSTORE DUP1 SWAP4 SWAP3 SWAP2 SWAP1 DUP2 DUP2 MSTORE PUSH1 0x20 ADD DUP4 DUP4 DUP1 DUP3 DUP5 CALLDATACOPY PUSH1 0x0 SWAP3 ADD SWAP2 SWAP1 SWAP2 MSTORE POP SWAP3 SWAP6 POP PUSH2 0xDA3 SWAP5 POP POP POP POP POP JUMP JUMPDEST PUSH2 0x227 PUSH1 0x4 DUP1 CALLDATASIZE SUB PUSH1 0x40 DUP2 LT ISZERO PUSH2 0x51F JUMPI PUSH1 0x0 DUP1 REVERT JUMPDEST POP PUSH1 0x1 PUSH1 0x1 PUSH1 0xA0 SHL SUB DUP2 CALLDATALOAD AND SWAP1 PUSH1 0x20 ADD CALLDATALOAD PUSH2 0xDCD JUMP JUMPDEST PUSH2 0x3FA PUSH1 0x4 DUP1 CALLDATASIZE SUB PUSH1 0x80 DUP2 LT ISZERO PUSH2 0x54B JUMPI PUSH1 0x0 DUP1 REVERT JUMPDEST PUSH1 0x1 PUSH1 0x1 PUSH1 0xA0 SHL SUB DUP3 CALLDATALOAD AND SWAP2 PUSH1 0x20 DUP2 ADD CALLDATALOAD SWAP2 DUP2 ADD SWAP1 PUSH1 0x60 DUP2 ADD PUSH1 0x40 DUP3 ADD CALLDATALOAD PUSH1 0x1 PUSH1 0x20 SHL DUP2 GT ISZERO PUSH2 0x57A JUMPI PUSH1 0x0 DUP1 REVERT JUMPDEST DUP3 ADD DUP4 PUSH1 0x20 DUP3 ADD GT ISZERO PUSH2 0x58C JUMPI PUSH1 0x0 DUP1 REVERT JUMPDEST DUP1 CALLDATALOAD SWAP1 PUSH1 0x20 ADD SWAP2 DUP5 PUSH1 0x1 DUP4 MUL DUP5 ADD GT PUSH1 0x1 PUSH1 0x20 SHL DUP4 GT OR ISZERO PUSH2 0x5AD JUMPI PUSH1 0x0 DUP1 REVERT JUMPDEST SWAP2 SWAP1 DUP1 DUP1 PUSH1 0x1F ADD PUSH1 0x20 DUP1 SWAP2 DIV MUL PUSH1 0x20 ADD PUSH1 0x40 MLOAD SWAP1 DUP2 ADD PUSH1 0x40 MSTORE DUP1 SWAP4 SWAP3 SWAP2 SWAP1 DUP2 DUP2 MSTORE PUSH1 0x20 ADD DUP4 DUP4 DUP1 DUP3 DUP5 CALLDATACOPY PUSH1 0x0 SWAP3 ADD SWAP2 SWAP1 SWAP2 MSTORE POP SWAP3 SWAP6 SWAP5 SWAP4 PUSH1 0x20 DUP2 ADD SWAP4 POP CALLDATALOAD SWAP2 POP POP PUSH1 0x1 PUSH1 0x20 SHL DUP2 GT ISZERO PUSH2 0x5FF JUMPI PUSH1 0x0 DUP1 REVERT JUMPDEST DUP3 ADD DUP4 PUSH1 0x20 DUP3 ADD GT ISZERO PUSH2 0x611 JUMPI PUSH1 0x0 DUP1 REVERT JUMPDEST DUP1 CALLDATALOAD SWAP1 PUSH1 0x20 ADD SWAP2 DUP5 PUSH1 0x1 DUP4 MUL DUP5 ADD GT PUSH1 0x1 PUSH1 0x20 SHL DUP4 GT OR ISZERO PUSH2 0x632 JUMPI PUSH1 0x0 DUP1 REVERT JUMPDEST SWAP2 SWAP1 DUP1 DUP1 PUSH1 0x1F ADD PUSH1 0x20 DUP1 SWAP2 DIV MUL PUSH1 0x20 ADD PUSH1 0x40 MLOAD SWAP1 DUP2 ADD PUSH1 0x40 MSTORE DUP1 SWAP4 SWAP3 SWAP2 SWAP1 DUP2 DUP2 MSTORE PUSH1 0x20 ADD DUP4 DUP4 DUP1 DUP3 DUP5 CALLDATACOPY PUSH1 0x0 SWAP3 ADD SWAP2 SWAP1 SWAP2 MSTORE POP SWAP3 SWAP6 POP PUSH2 0xEA6 SWAP5 POP POP POP POP POP JUMP JUMPDEST PUSH2 0x227 PUSH1 0x4 DUP1 CALLDATASIZE SUB PUSH1 0x40 DUP2 LT ISZERO PUSH2 0x689 JUMPI PUSH1 0x0 DUP1 REVERT JUMPDEST POP PUSH1 0x1 PUSH1 0x1 PUSH1 0xA0 SHL SUB DUP2 CALLDATALOAD DUP2 AND SWAP2 PUSH1 0x20 ADD CALLDATALOAD AND PUSH2 0xEB8 JUMP JUMPDEST PUSH2 0x243 PUSH1 0x4 DUP1 CALLDATASIZE SUB PUSH1 0x40 DUP2 LT ISZERO PUSH2 0x6B7 JUMPI PUSH1 0x0 DUP1 REVERT JUMPDEST POP PUSH1 0x1 PUSH1 0x1 PUSH1 0xA0 SHL SUB DUP2 CALLDATALOAD DUP2 AND SWAP2 PUSH1 0x20 ADD CALLDATALOAD AND PUSH2 0xF5A JUMP JUMPDEST PUSH2 0x3FA PUSH1 0x4 DUP1 CALLDATASIZE SUB PUSH1 0x20 DUP2 LT ISZERO PUSH2 0x6E5 JUMPI PUSH1 0x0 DUP1 REVERT JUMPDEST POP CALLDATALOAD PUSH1 0x1 PUSH1 0x1 PUSH1 0xA0 SHL SUB AND PUSH2 0xF85 JUMP JUMPDEST PUSH2 0x3FA PUSH1 0x4 DUP1 CALLDATASIZE SUB PUSH1 0x80 DUP2 LT ISZERO PUSH2 0x70B JUMPI PUSH1 0x0 DUP1 REVERT JUMPDEST PUSH1 0x1 PUSH1 0x1 PUSH1 0xA0 SHL SUB DUP3 CALLDATALOAD AND SWAP2 PUSH1 0x20 DUP2 ADD CALLDATALOAD SWAP2 DUP2 ADD SWAP1 PUSH1 0x60 DUP2 ADD PUSH1 0x40 DUP3 ADD CALLDATALOAD PUSH1 0x1 PUSH1 0x20 SHL DUP2 GT ISZERO PUSH2 0x73A JUMPI PUSH1 0x0 DUP1 REVERT JUMPDEST DUP3 ADD DUP4 PUSH1 0x20 DUP3 ADD GT ISZERO PUSH2 0x74C JUMPI PUSH1 0x0 DUP1 REVERT JUMPDEST DUP1 CALLDATALOAD SWAP1 PUSH1 0x20 ADD SWAP2 DUP5 PUSH1 0x1 DUP4 MUL DUP5 ADD GT PUSH1 0x1 PUSH1 0x20 SHL DUP4 GT OR ISZERO PUSH2 0x76D JUMPI PUSH1 0x0 DUP1 REVERT JUMPDEST SWAP2 SWAP1 DUP1 DUP1 PUSH1 0x1F ADD PUSH1 0x20 DUP1 SWAP2 DIV MUL PUSH1 0x20 ADD PUSH1 0x40 MLOAD SWAP1 DUP2 ADD PUSH1 0x40 MSTORE DUP1 SWAP4 SWAP3 SWAP2 SWAP1 DUP2 DUP2 MSTORE PUSH1 0x20 ADD DUP4 DUP4 DUP1 DUP3 DUP5 CALLDATACOPY PUSH1 0x0 SWAP3 ADD SWAP2 SWAP1 SWAP2 MSTORE POP SWAP3 SWAP6 SWAP5 SWAP4 PUSH1 0x20 DUP2 ADD SWAP4 POP CALLDATALOAD SWAP2 POP POP PUSH1 0x1 PUSH1 0x20 SHL DUP2 GT ISZERO PUSH2 0x7BF JUMPI PUSH1 0x0 DUP1 REVERT JUMPDEST DUP3 ADD DUP4 PUSH1 0x20 DUP3 ADD GT ISZERO PUSH2 0x7D1 JUMPI PUSH1 0x0 DUP1 REVERT JUMPDEST DUP1 CALLDATALOAD SWAP1 PUSH1 0x20 ADD SWAP2 DUP5 PUSH1 0x1 DUP4 MUL DUP5 ADD GT PUSH1 0x1 PUSH1 0x20 SHL DUP4 GT OR ISZERO PUSH2 0x7F2 JUMPI PUSH1 0x0 DUP1 REVERT JUMPDEST SWAP2 SWAP1 DUP1 DUP1 PUSH1 0x1F ADD PUSH1 0x20 DUP1 SWAP2 DIV MUL PUSH1 0x20 ADD PUSH1 0x40 MLOAD SWAP1 DUP2 ADD PUSH1 0x40 MSTORE DUP1 SWAP4 SWAP3 SWAP2 SWAP1 DUP2 DUP2 MSTORE PUSH1 0x20 ADD DUP4 DUP4 DUP1 DUP3 DUP5 CALLDATACOPY PUSH1 0x0 SWAP3 ADD SWAP2 SWAP1 SWAP2 MSTORE POP SWAP3 SWAP6 POP PUSH2 0x10D1 SWAP5 POP POP POP POP POP JUMP JUMPDEST PUSH2 0x3FA PUSH1 0x4 DUP1 CALLDATASIZE SUB PUSH1 0x40 DUP2 LT ISZERO PUSH2 0x849 JUMPI PUSH1 0x0 DUP1 REVERT JUMPDEST DUP2 CALLDATALOAD SWAP2 SWAP1 DUP2 ADD SWAP1 PUSH1 0x40 DUP2 ADD PUSH1 0x20 DUP3 ADD CALLDATALOAD PUSH1 0x1 PUSH1 0x20 SHL DUP2 GT ISZERO PUSH2 0x86A JUMPI PUSH1 0x0 DUP1 REVERT JUMPDEST DUP3 ADD DUP4 PUSH1 0x20 DUP3 ADD GT ISZERO PUSH2 0x87C JUMPI PUSH1 0x0 DUP1 REVERT JUMPDEST DUP1 CALLDATALOAD SWAP1 PUSH1 0x20 ADD SWAP2 DUP5 PUSH1 0x1 DUP4 MUL DUP5 ADD GT PUSH1 0x1 PUSH1 0x20 SHL DUP4 GT OR ISZERO PUSH2 0x89D JUMPI PUSH1 0x0 DUP1 REVERT JUMPDEST SWAP2 SWAP1 DUP1 DUP1 PUSH1 0x1F ADD PUSH1 0x20 DUP1 SWAP2 DIV MUL PUSH1 0x20 ADD PUSH1 0x40 MLOAD SWAP1 DUP2 ADD PUSH1 0x40 MSTORE DUP1 SWAP4 SWAP3 SWAP2 SWAP1 DUP2 DUP2 MSTORE PUSH1 0x20 ADD DUP4 DUP4 DUP1 DUP3 DUP5 CALLDATACOPY PUSH1 0x0 SWAP3 ADD SWAP2 SWAP1 SWAP2 MSTORE POP SWAP3 SWAP6 POP PUSH2 0x1129 SWAP5 POP POP POP POP POP JUMP JUMPDEST PUSH1 0x60 PUSH1 0x4 DUP1 SLOAD DUP1 PUSH1 0x20 MUL PUSH1 0x20 ADD PUSH1 0x40 MLOAD SWAP1 DUP2 ADD PUSH1 0x40 MSTORE DUP1 SWAP3 SWAP2 SWAP1 DUP2 DUP2 MSTORE PUSH1 0x20 ADD DUP3 DUP1 SLOAD DUP1 ISZERO PUSH2 0x936 JUMPI PUSH1 0x20 MUL DUP3 ADD SWAP2 SWAP1 PUSH1 0x0 MSTORE PUSH1 0x20 PUSH1 0x0 KECCAK256 SWAP1 JUMPDEST DUP2 SLOAD PUSH1 0x1 PUSH1 0x1 PUSH1 0xA0 SHL SUB AND DUP2 MSTORE PUSH1 0x1 SWAP1 SWAP2 ADD SWAP1 PUSH1 0x20 ADD DUP1 DUP4 GT PUSH2 0x918 JUMPI JUMPDEST POP POP POP POP POP SWAP1 POP SWAP1 JUMP JUMPDEST PUSH1 0x2 DUP1 SLOAD PUSH1 0x40 DUP1 MLOAD PUSH1 0x20 PUSH1 0x1F PUSH1 0x0 NOT PUSH2 0x100 PUSH1 0x1 DUP8 AND ISZERO MUL ADD SWAP1 SWAP5 AND DUP6 SWAP1 DIV SWAP4 DUP5 ADD DUP2 SWAP1 DIV DUP2 MUL DUP3 ADD DUP2 ADD SWAP1 SWAP3 MSTORE DUP3 DUP2 MSTORE PUSH1 0x60 SWAP4 SWAP1 SWAP3 SWAP1 SWAP2 DUP4 ADD DUP3 DUP3 DUP1 ISZERO PUSH2 0x936 JUMPI DUP1 PUSH1 0x1F LT PUSH2 0x99E JUMPI PUSH2 0x100 DUP1 DUP4 SLOAD DIV MUL DUP4 MSTORE SWAP2 PUSH1 0x20 ADD SWAP2 PUSH2 0x936 JUMP JUMPDEST DUP3 ADD SWAP2 SWAP1 PUSH1 0x0 MSTORE PUSH1 0x20 PUSH1 0x0 KECCAK256 SWAP1 JUMPDEST DUP2 SLOAD DUP2 MSTORE SWAP1 PUSH1 0x1 ADD SWAP1 PUSH1 0x20 ADD DUP1 DUP4 GT PUSH2 0x9AC JUMPI POP SWAP4 SWAP6 SWAP5 POP POP POP POP POP JUMP JUMPDEST PUSH1 0x0 DUP1 PUSH2 0x9D5 PUSH2 0x11E5 JUMP JUMPDEST SWAP1 POP PUSH2 0x9E2 DUP2 DUP6 DUP6 PUSH2 0x11E9 JUMP JUMPDEST POP PUSH1 0x1 SWAP4 SWAP3 POP POP POP JUMP JUMPDEST PUSH1 0x1 SLOAD SWAP1 JUMP JUMPDEST PUSH1 0x0 PUSH1 0x1 PUSH1 0x1 PUSH1 0xA0 SHL SUB DUP4 AND PUSH2 0xA39 JUMPI PUSH1 0x40 MLOAD PUSH3 0x461BCD PUSH1 0xE5 SHL DUP2 MSTORE PUSH1 0x4 ADD DUP1 DUP1 PUSH1 0x20 ADD DUP3 DUP2 SUB DUP3 MSTORE PUSH1 0x24 DUP2 MSTORE PUSH1 0x20 ADD DUP1 PUSH2 0x207B PUSH1 0x24 SWAP2 CODECOPY PUSH1 0x40 ADD SWAP2 POP POP PUSH1 0x40 MLOAD DUP1 SWAP2 SUB SWAP1 REVERT JUMPDEST PUSH1 0x1 PUSH1 0x1 PUSH1 0xA0 SHL SUB DUP5 AND PUSH2 0xA7E JUMPI PUSH1 0x40 MLOAD PUSH3 0x461BCD PUSH1 0xE5 SHL DUP2 MSTORE PUSH1 0x4 ADD DUP1 DUP1 PUSH1 0x20 ADD DUP3 DUP2 SUB DUP3 MSTORE PUSH1 0x26 DUP2 MSTORE PUSH1 0x20 ADD DUP1 PUSH2 0x20F4 PUSH1 0x26 SWAP2 CODECOPY PUSH1 0x40 ADD SWAP2 POP POP PUSH1 0x40 MLOAD DUP1 SWAP2 SUB SWAP1 REVERT JUMPDEST PUSH1 0x0 PUSH2 0xA88 PUSH2 0x11E5 JUMP JUMPDEST SWAP1 POP PUSH2 0xAB6 DUP2 DUP7 DUP7 DUP7 PUSH1 0x40 MLOAD DUP1 PUSH1 0x20 ADD PUSH1 0x40 MSTORE DUP1 PUSH1 0x0 DUP2 MSTORE POP PUSH1 0x40 MLOAD DUP1 PUSH1 0x20 ADD PUSH1 0x40 MSTORE DUP1 PUSH1 0x0 DUP2 MSTORE POP PUSH2 0x1290 JUMP JUMPDEST PUSH2 0xAE2 DUP2 DUP7 DUP7 DUP7 PUSH1 0x40 MLOAD DUP1 PUSH1 0x20 ADD PUSH1 0x40 MSTORE DUP1 PUSH1 0x0 DUP2 MSTORE POP PUSH1 0x40 MLOAD DUP1 PUSH1 0x20 ADD PUSH1 0x40 MSTORE DUP1 PUSH1 0x0 DUP2 MSTORE POP PUSH2 0x14BD JUMP JUMPDEST PUSH2 0xB36 DUP6 DUP3 PUSH2 0xB31 DUP7 PUSH1 0x40 MLOAD DUP1 PUSH1 0x60 ADD PUSH1 0x40 MSTORE DUP1 PUSH1 0x29 DUP2 MSTORE PUSH1 0x20 ADD PUSH2 0x20CB PUSH1 0x29 SWAP2 CODECOPY PUSH1 0x1 PUSH1 0x1 PUSH1 0xA0 SHL SUB DUP1 DUP13 AND PUSH1 0x0 SWAP1 DUP2 MSTORE PUSH1 0x8 PUSH1 0x20 SWAP1 DUP2 MSTORE PUSH1 0x40 DUP1 DUP4 KECCAK256 SWAP4 DUP12 AND DUP4 MSTORE SWAP3 SWAP1 MSTORE KECCAK256 SLOAD SWAP2 SWAP1 PUSH2 0x16D6 JUMP JUMPDEST PUSH2 0x11E9 JUMP JUMPDEST PUSH2 0xB64 DUP2 DUP7 DUP7 DUP7 PUSH1 0x40 MLOAD DUP1 PUSH1 0x20 ADD PUSH1 0x40 MSTORE DUP1 PUSH1 0x0 DUP2 MSTORE POP PUSH1 0x40 MLOAD DUP1 PUSH1 0x20 ADD PUSH1 0x40 MSTORE DUP1 PUSH1 0x0 DUP2 MSTORE POP PUSH1 0x0 PUSH2 0x176D JUMP JUMPDEST POP PUSH1 0x1 SWAP5 SWAP4 POP POP POP POP JUMP JUMPDEST PUSH1 0x12 SWAP1 JUMP JUMPDEST PUSH1 0x1 SWAP1 JUMP JUMPDEST PUSH2 0xB8A PUSH2 0xB84 PUSH2 0x11E5 JUMP JUMPDEST DUP7 PUSH2 0xEB8 JUMP JUMPDEST PUSH2 0xBC5 JUMPI PUSH1 0x40 MLOAD PUSH3 0x461BCD PUSH1 0xE5 SHL DUP2 MSTORE PUSH1 0x4 ADD DUP1 DUP1 PUSH1 0x20 ADD DUP3 DUP2 SUB DUP3 MSTORE PUSH1 0x2C DUP2 MSTORE PUSH1 0x20 ADD DUP1 PUSH2 0x209F PUSH1 0x2C SWAP2 CODECOPY PUSH1 0x40 ADD SWAP2 POP POP PUSH1 0x40 MLOAD DUP1 SWAP2 SUB SWAP1 REVERT JUMPDEST PUSH2 0xBD4 DUP6 DUP6 DUP6 DUP6 DUP6 PUSH1 0x1 PUSH2 0x19F2 JUMP JUMPDEST POP POP POP POP POP JUMP JUMPDEST PUSH1 0x1 PUSH1 0x1 PUSH1 0xA0 SHL SUB AND PUSH1 0x0 SWAP1 DUP2 MSTORE PUSH1 0x20 DUP2 SWAP1 MSTORE PUSH1 0x40 SWAP1 KECCAK256 SLOAD SWAP1 JUMP JUMPDEST DUP1 PUSH1 0x1 PUSH1 0x1 PUSH1 0xA0 SHL SUB AND PUSH2 0xC08 PUSH2 0x11E5 JUMP JUMPDEST PUSH1 0x1 PUSH1 0x1 PUSH1 0xA0 SHL SUB AND EQ ISZERO PUSH2 0xC4E JUMPI PUSH1 0x40 MLOAD PUSH3 0x461BCD PUSH1 0xE5 SHL DUP2 MSTORE PUSH1 0x4 ADD DUP1 DUP1 PUSH1 0x20 ADD DUP3 DUP2 SUB DUP3 MSTORE PUSH1 0x24 DUP2 MSTORE PUSH1 0x20 ADD DUP1 PUSH2 0x1FE9 PUSH1 0x24 SWAP2 CODECOPY PUSH1 0x40 ADD SWAP2 POP POP PUSH1 0x40 MLOAD DUP1 SWAP2 SUB SWAP1 REVERT JUMPDEST PUSH1 0x1 PUSH1 0x1 PUSH1 0xA0 SHL SUB DUP2 AND PUSH1 0x0 SWAP1 DUP2 MSTORE PUSH1 0x5 PUSH1 0x20 MSTORE PUSH1 0x40 SWAP1 KECCAK256 SLOAD PUSH1 0xFF AND ISZERO PUSH2 0xCB1 JUMPI PUSH1 0x7 PUSH1 0x0 PUSH2 0xC7B PUSH2 0x11E5 JUMP JUMPDEST PUSH1 0x1 PUSH1 0x1 PUSH1 0xA0 SHL SUB SWAP1 DUP2 AND DUP3 MSTORE PUSH1 0x20 DUP1 DUP4 ADD SWAP4 SWAP1 SWAP4 MSTORE PUSH1 0x40 SWAP2 DUP3 ADD PUSH1 0x0 SWAP1 DUP2 KECCAK256 SWAP2 DUP6 AND DUP2 MSTORE SWAP3 MSTORE SWAP1 KECCAK256 DUP1 SLOAD PUSH1 0xFF NOT AND SWAP1 SSTORE PUSH2 0xCF8 JUMP JUMPDEST PUSH1 0x1 PUSH1 0x6 PUSH1 0x0 PUSH2 0xCBF PUSH2 0x11E5 JUMP JUMPDEST PUSH1 0x1 PUSH1 0x1 PUSH1 0xA0 SHL SUB SWAP1 DUP2 AND DUP3 MSTORE PUSH1 0x20 DUP1 DUP4 ADD SWAP4 SWAP1 SWAP4 MSTORE PUSH1 0x40 SWAP2 DUP3 ADD PUSH1 0x0 SWAP1 DUP2 KECCAK256 SWAP2 DUP7 AND DUP2 MSTORE SWAP3 MSTORE SWAP1 KECCAK256 DUP1 SLOAD PUSH1 0xFF NOT AND SWAP2 ISZERO ISZERO SWAP2 SWAP1 SWAP2 OR SWAP1 SSTORE JUMPDEST PUSH2 0xD00 PUSH2 0x11E5 JUMP JUMPDEST PUSH1 0x1 PUSH1 0x1 PUSH1 0xA0 SHL SUB AND DUP2 PUSH1 0x1 PUSH1 0x1 PUSH1 0xA0 SHL SUB AND PUSH32 0xF4CAEB2D6CA8932A215A353D0703C326EC2D81FC68170F320EB2AB49E9DF61F9 PUSH1 0x40 MLOAD PUSH1 0x40 MLOAD DUP1 SWAP2 SUB SWAP1 LOG3 POP JUMP JUMPDEST PUSH1 0x3 DUP1 SLOAD PUSH1 0x40 DUP1 MLOAD PUSH1 0x20 PUSH1 0x1F PUSH1 0x2 PUSH1 0x0 NOT PUSH2 0x100 PUSH1 0x1 DUP9 AND ISZERO MUL ADD SWAP1 SWAP6 AND SWAP5 SWAP1 SWAP5 DIV SWAP4 DUP5 ADD DUP2 SWAP1 DIV DUP2 MUL DUP3 ADD DUP2 ADD SWAP1 SWAP3 MSTORE DUP3 DUP2 MSTORE PUSH1 0x60 SWAP4 SWAP1 SWAP3 SWAP1 SWAP2 DUP4 ADD DUP3 DUP3 DUP1 ISZERO PUSH2 0x936 JUMPI DUP1 PUSH1 0x1F LT PUSH2 0x99E JUMPI PUSH2 0x100 DUP1 DUP4 SLOAD DIV MUL DUP4 MSTORE SWAP2 PUSH1 0x20 ADD SWAP2 PUSH2 0x936 JUMP JUMPDEST PUSH2 0xDC8 PUSH2 0xDAE PUSH2 0x11E5 JUMP JUMPDEST DUP5 DUP5 DUP5 PUSH1 0x40 MLOAD DUP1 PUSH1 0x20 ADD PUSH1 0x40 MSTORE DUP1 PUSH1 0x0 DUP2 MSTORE POP PUSH1 0x1 PUSH2 0x19F2 JUMP JUMPDEST POP POP POP JUMP JUMPDEST PUSH1 0x0 PUSH1 0x1 PUSH1 0x1 PUSH1 0xA0 SHL SUB DUP4 AND PUSH2 0xE14 JUMPI PUSH1 0x40 MLOAD PUSH3 0x461BCD PUSH1 0xE5 SHL DUP2 MSTORE PUSH1 0x4 ADD DUP1 DUP1 PUSH1 0x20 ADD DUP3 DUP2 SUB DUP3 MSTORE PUSH1 0x24 DUP2 MSTORE PUSH1 0x20 ADD DUP1 PUSH2 0x207B PUSH1 0x24 SWAP2 CODECOPY PUSH1 0x40 ADD SWAP2 POP POP PUSH1 0x40 MLOAD DUP1 SWAP2 SUB SWAP1 REVERT JUMPDEST PUSH1 0x0 PUSH2 0xE1E PUSH2 0x11E5 JUMP JUMPDEST SWAP1 POP PUSH2 0xE4C DUP2 DUP3 DUP7 DUP7 PUSH1 0x40 MLOAD DUP1 PUSH1 0x20 ADD PUSH1 0x40 MSTORE DUP1 PUSH1 0x0 DUP2 MSTORE POP PUSH1 0x40 MLOAD DUP1 PUSH1 0x20 ADD PUSH1 0x40 MSTORE DUP1 PUSH1 0x0 DUP2 MSTORE POP PUSH2 0x1290 JUMP JUMPDEST PUSH2 0xE78 DUP2 DUP3 DUP7 DUP7 PUSH1 0x40 MLOAD DUP1 PUSH1 0x20 ADD PUSH1 0x40 MSTORE DUP1 PUSH1 0x0 DUP2 MSTORE POP PUSH1 0x40 MLOAD DUP1 PUSH1 0x20 ADD PUSH1 0x40 MSTORE DUP1 PUSH1 0x0 DUP2 MSTORE POP PUSH2 0x14BD JUMP JUMPDEST PUSH2 0x9E2 DUP2 DUP3 DUP7 DUP7 PUSH1 0x40 MLOAD DUP1 PUSH1 0x20 ADD PUSH1 0x40 MSTORE DUP1 PUSH1 0x0 DUP2 MSTORE POP PUSH1 0x40 MLOAD DUP1 PUSH1 0x20 ADD PUSH1 0x40 MSTORE DUP1 PUSH1 0x0 DUP2 MSTORE POP PUSH1 0x0 PUSH2 0x176D JUMP JUMPDEST PUSH2 0xEB2 DUP5 DUP5 DUP5 DUP5 PUSH2 0x1AC9 JUMP JUMPDEST POP POP POP POP JUMP JUMPDEST PUSH1 0x0 DUP2 PUSH1 0x1 PUSH1 0x1 PUSH1 0xA0 SHL SUB AND DUP4 PUSH1 0x1 PUSH1 0x1 PUSH1 0xA0 SHL SUB AND EQ DUP1 PUSH2 0xF23 JUMPI POP PUSH1 0x1 PUSH1 0x1 PUSH1 0xA0 SHL SUB DUP4 AND PUSH1 0x0 SWAP1 DUP2 MSTORE PUSH1 0x5 PUSH1 0x20 MSTORE PUSH1 0x40 SWAP1 KECCAK256 SLOAD PUSH1 0xFF AND DUP1 ISZERO PUSH2 0xF23 JUMPI POP PUSH1 0x1 PUSH1 0x1 PUSH1 0xA0 SHL SUB DUP1 DUP4 AND PUSH1 0x0 SWAP1 DUP2 MSTORE PUSH1 0x7 PUSH1 0x20 SWAP1 DUP2 MSTORE PUSH1 0x40 DUP1 DUP4 KECCAK256 SWAP4 DUP8 AND DUP4 MSTORE SWAP3 SWAP1 MSTORE KECCAK256 SLOAD PUSH1 0xFF AND ISZERO JUMPDEST DUP1 PUSH2 0xF53 JUMPI POP PUSH1 0x1 PUSH1 0x1 PUSH1 0xA0 SHL SUB DUP1 DUP4 AND PUSH1 0x0 SWAP1 DUP2 MSTORE PUSH1 0x6 PUSH1 0x20 SWAP1 DUP2 MSTORE PUSH1 0x40 DUP1 DUP4 KECCAK256 SWAP4 DUP8 AND DUP4 MSTORE SWAP3 SWAP1 MSTORE KECCAK256 SLOAD PUSH1 0xFF AND JUMPDEST SWAP4 SWAP3 POP POP POP JUMP JUMPDEST PUSH1 0x1 PUSH1 0x1 PUSH1 0xA0 SHL SUB SWAP2 DUP3 AND PUSH1 0x0 SWAP1 DUP2 MSTORE PUSH1 0x8 PUSH1 0x20 SWAP1 DUP2 MSTORE PUSH1 0x40 DUP1 DUP4 KECCAK256 SWAP4 SWAP1 SWAP5 AND DUP3 MSTORE SWAP2 SWAP1 SWAP2 MSTORE KECCAK256 SLOAD SWAP1 JUMP JUMPDEST PUSH2 0xF8D PUSH2 0x11E5 JUMP JUMPDEST PUSH1 0x1 PUSH1 0x1 PUSH1 0xA0 SHL SUB AND DUP2 PUSH1 0x1 PUSH1 0x1 PUSH1 0xA0 SHL SUB AND EQ ISZERO PUSH2 0xFDD JUMPI PUSH1 0x40 MLOAD PUSH3 0x461BCD PUSH1 0xE5 SHL DUP2 MSTORE PUSH1 0x4 ADD DUP1 DUP1 PUSH1 0x20 ADD DUP3 DUP2 SUB DUP3 MSTORE PUSH1 0x21 DUP2 MSTORE PUSH1 0x20 ADD DUP1 PUSH2 0x200D PUSH1 0x21 SWAP2 CODECOPY PUSH1 0x40 ADD SWAP2 POP POP PUSH1 0x40 MLOAD DUP1 SWAP2 SUB SWAP1 REVERT JUMPDEST PUSH1 0x1 PUSH1 0x1 PUSH1 0xA0 SHL SUB DUP2 AND PUSH1 0x0 SWAP1 DUP2 MSTORE PUSH1 0x5 PUSH1 0x20 MSTORE PUSH1 0x40 SWAP1 KECCAK256 SLOAD PUSH1 0xFF AND ISZERO PUSH2 0x1049 JUMPI PUSH1 0x1 PUSH1 0x7 PUSH1 0x0 PUSH2 0x100C PUSH2 0x11E5 JUMP JUMPDEST PUSH1 0x1 PUSH1 0x1 PUSH1 0xA0 SHL SUB SWAP1 DUP2 AND DUP3 MSTORE PUSH1 0x20 DUP1 DUP4 ADD SWAP4 SWAP1 SWAP4 MSTORE PUSH1 0x40 SWAP2 DUP3 ADD PUSH1 0x0 SWAP1 DUP2 KECCAK256 SWAP2 DUP7 AND DUP2 MSTORE SWAP3 MSTORE SWAP1 KECCAK256 DUP1 SLOAD PUSH1 0xFF NOT AND SWAP2 ISZERO ISZERO SWAP2 SWAP1 SWAP2 OR SWAP1 SSTORE PUSH2 0x1087 JUMP JUMPDEST PUSH1 0x6 PUSH1 0x0 PUSH2 0x1055 PUSH2 0x11E5 JUMP JUMPDEST PUSH1 0x1 PUSH1 0x1 PUSH1 0xA0 SHL SUB SWAP1 DUP2 AND DUP3 MSTORE PUSH1 0x20 DUP1 DUP4 ADD SWAP4 SWAP1 SWAP4 MSTORE PUSH1 0x40 SWAP2 DUP3 ADD PUSH1 0x0 SWAP1 DUP2 KECCAK256 SWAP2 DUP6 AND DUP2 MSTORE SWAP3 MSTORE SWAP1 KECCAK256 DUP1 SLOAD PUSH1 0xFF NOT AND SWAP1 SSTORE JUMPDEST PUSH2 0x108F PUSH2 0x11E5 JUMP JUMPDEST PUSH1 0x1 PUSH1 0x1 PUSH1 0xA0 SHL SUB AND DUP2 PUSH1 0x1 PUSH1 0x1 PUSH1 0xA0 SHL SUB AND PUSH32 0x50546E66E5F44D728365DC3908C63BC5CFEEAB470722C1677E3073A6AC294AA1 PUSH1 0x40 MLOAD PUSH1 0x40 MLOAD DUP1 SWAP2 SUB SWAP1 LOG3 POP JUMP JUMPDEST PUSH2 0x10E2 PUSH2 0x10DC PUSH2 0x11E5 JUMP JUMPDEST DUP6 PUSH2 0xEB8 JUMP JUMPDEST PUSH2 0x111D JUMPI PUSH1 0x40 MLOAD PUSH3 0x461BCD PUSH1 0xE5 SHL DUP2 MSTORE PUSH1 0x4 ADD DUP1 DUP1 PUSH1 0x20 ADD DUP3 DUP2 SUB DUP3 MSTORE PUSH1 0x2C DUP2 MSTORE PUSH1 0x20 ADD DUP1 PUSH2 0x209F PUSH1 0x2C SWAP2 CODECOPY PUSH1 0x40 ADD SWAP2 POP POP PUSH1 0x40 MLOAD DUP1 SWAP2 SUB SWAP1 REVERT JUMPDEST PUSH2 0xEB2 DUP5 DUP5 DUP5 DUP5 PUSH2 0x1D01 JUMP JUMPDEST PUSH2 0x114B PUSH2 0x1134 PUSH2 0x11E5 JUMP JUMPDEST DUP4 DUP4 PUSH1 0x40 MLOAD DUP1 PUSH1 0x20 ADD PUSH1 0x40 MSTORE DUP1 PUSH1 0x0 DUP2 MSTORE POP PUSH2 0x1D01 JUMP JUMPDEST POP POP JUMP JUMPDEST PUSH1 0x0 DUP3 DUP3 ADD DUP4 DUP2 LT ISZERO PUSH2 0xF53 JUMPI PUSH1 0x40 DUP1 MLOAD PUSH3 0x461BCD PUSH1 0xE5 SHL DUP2 MSTORE PUSH1 0x20 PUSH1 0x4 DUP3 ADD MSTORE PUSH1 0x1B PUSH1 0x24 DUP3 ADD MSTORE PUSH32 0x536166654D6174683A206164646974696F6E206F766572666C6F770000000000 PUSH1 0x44 DUP3 ADD MSTORE SWAP1 MLOAD SWAP1 DUP2 SWAP1 SUB PUSH1 0x64 ADD SWAP1 REVERT JUMPDEST PUSH1 0x0 DUP2 EXTCODEHASH PUSH32 0xC5D2460186F7233C927E7DB2DCC703C0E500B653CA82273B7BFAD8045D85A470 DUP2 DUP2 EQ DUP1 ISZERO SWAP1 PUSH2 0x11DD JUMPI POP DUP2 ISZERO ISZERO JUMPDEST SWAP5 SWAP4 POP POP POP POP JUMP JUMPDEST CALLER SWAP1 JUMP JUMPDEST PUSH1 0x1 PUSH1 0x1 PUSH1 0xA0 SHL SUB DUP3 AND PUSH2 0x122E JUMPI PUSH1 0x40 MLOAD PUSH3 0x461BCD PUSH1 0xE5 SHL DUP2 MSTORE PUSH1 0x4 ADD DUP1 DUP1 PUSH1 0x20 ADD DUP3 DUP2 SUB DUP3 MSTORE PUSH1 0x23 DUP2 MSTORE PUSH1 0x20 ADD DUP1 PUSH2 0x213D PUSH1 0x23 SWAP2 CODECOPY PUSH1 0x40 ADD SWAP2 POP POP PUSH1 0x40 MLOAD DUP1 SWAP2 SUB SWAP1 REVERT JUMPDEST PUSH1 0x1 PUSH1 0x1 PUSH1 0xA0 SHL SUB DUP1 DUP5 AND PUSH1 0x0 DUP2 DUP2 MSTORE PUSH1 0x8 PUSH1 0x20 SWAP1 DUP2 MSTORE PUSH1 0x40 DUP1 DUP4 KECCAK256 SWAP5 DUP8 AND DUP1 DUP5 MSTORE SWAP5 DUP3 MSTORE SWAP2 DUP3 SWAP1 KECCAK256 DUP6 SWAP1 SSTORE DUP2 MLOAD DUP6 DUP2 MSTORE SWAP2 MLOAD PUSH32 0x8C5BE1E5EBEC7D5BD14F71427D1E84F3DD0314C0F7B2291E5B200AC8C7C3B925 SWAP3 DUP2 SWAP1 SUB SWAP1 SWAP2 ADD SWAP1 LOG3 POP POP POP JUMP JUMPDEST PUSH1 0x40 DUP1 MLOAD PUSH4 0x555DDC65 PUSH1 0xE1 SHL DUP2 MSTORE PUSH1 0x1 PUSH1 0x1 PUSH1 0xA0 SHL SUB DUP8 AND PUSH1 0x4 DUP3 ADD MSTORE PUSH32 0x29DDB589B1FB5FC7CF394961C1ADF5F8C6454761ADF795E67FE149F658ABE895 PUSH1 0x24 DUP3 ADD MSTORE SWAP1 MLOAD PUSH1 0x0 SWAP2 PUSH20 0x1820A4B7618BDE71DCE8CDC73AAB6C95905FAD24 SWAP2 PUSH4 0xAABBB8CA SWAP2 PUSH1 0x44 DUP1 DUP3 ADD SWAP3 PUSH1 0x20 SWAP3 SWAP1 SWAP2 SWAP1 DUP3 SWAP1 SUB ADD DUP2 DUP7 DUP1 EXTCODESIZE ISZERO DUP1 ISZERO PUSH2 0x1314 JUMPI PUSH1 0x0 DUP1 REVERT JUMPDEST POP GAS STATICCALL ISZERO DUP1 ISZERO PUSH2 0x1328 JUMPI RETURNDATASIZE PUSH1 0x0 DUP1 RETURNDATACOPY RETURNDATASIZE PUSH1 0x0 REVERT JUMPDEST POP POP POP POP PUSH1 0x40 MLOAD RETURNDATASIZE PUSH1 0x20 DUP2 LT ISZERO PUSH2 0x133E JUMPI PUSH1 0x0 DUP1 REVERT JUMPDEST POP MLOAD SWAP1 POP PUSH1 0x1 PUSH1 0x1 PUSH1 0xA0 SHL SUB DUP2 AND ISZERO PUSH2 0x14B4 JUMPI DUP1 PUSH1 0x1 PUSH1 0x1 PUSH1 0xA0 SHL SUB AND PUSH4 0x75AB9782 DUP9 DUP9 DUP9 DUP9 DUP9 DUP9 PUSH1 0x40 MLOAD DUP8 PUSH4 0xFFFFFFFF AND PUSH1 0xE0 SHL DUP2 MSTORE PUSH1 0x4 ADD DUP1 DUP8 PUSH1 0x1 PUSH1 0x1 PUSH1 0xA0 SHL SUB AND DUP2 MSTORE PUSH1 0x20 ADD DUP7 PUSH1 0x1 PUSH1 0x1 PUSH1 0xA0 SHL SUB AND DUP2 MSTORE PUSH1 0x20 ADD DUP6 PUSH1 0x1 PUSH1 0x1 PUSH1 0xA0 SHL SUB AND DUP2 MSTORE PUSH1 0x20 ADD DUP5 DUP2 MSTORE PUSH1 0x20 ADD DUP1 PUSH1 0x20 ADD DUP1 PUSH1 0x20 ADD DUP4 DUP2 SUB DUP4 MSTORE DUP6 DUP2 DUP2 MLOAD DUP2 MSTORE PUSH1 0x20 ADD SWAP2 POP DUP1 MLOAD SWAP1 PUSH1 0x20 ADD SWAP1 DUP1 DUP4 DUP4 PUSH1 0x0 JUMPDEST DUP4 DUP2 LT ISZERO PUSH2 0x13E9 JUMPI DUP2 DUP2 ADD MLOAD DUP4 DUP3 ADD MSTORE PUSH1 0x20 ADD PUSH2 0x13D1 JUMP JUMPDEST POP POP POP POP SWAP1 POP SWAP1 DUP2 ADD SWAP1 PUSH1 0x1F AND DUP1 ISZERO PUSH2 0x1416 JUMPI DUP1 DUP3 SUB DUP1 MLOAD PUSH1 0x1 DUP4 PUSH1 0x20 SUB PUSH2 0x100 EXP SUB NOT AND DUP2 MSTORE PUSH1 0x20 ADD SWAP2 POP JUMPDEST POP DUP4 DUP2 SUB DUP3 MSTORE DUP5 MLOAD DUP2 MSTORE DUP5 MLOAD PUSH1 0x20 SWAP2 DUP3 ADD SWAP2 DUP7 ADD SWAP1 DUP1 DUP4 DUP4 PUSH1 0x0 JUMPDEST DUP4 DUP2 LT ISZERO PUSH2 0x1449 JUMPI DUP2 DUP2 ADD MLOAD DUP4 DUP3 ADD MSTORE PUSH1 0x20 ADD PUSH2 0x1431 JUMP JUMPDEST POP POP POP POP SWAP1 POP SWAP1 DUP2 ADD SWAP1 PUSH1 0x1F AND DUP1 ISZERO PUSH2 0x1476 JUMPI DUP1 DUP3 SUB DUP1 MLOAD PUSH1 0x1 DUP4 PUSH1 0x20 SUB PUSH2 0x100 EXP SUB NOT AND DUP2 MSTORE PUSH1 0x20 ADD SWAP2 POP JUMPDEST POP SWAP9 POP POP POP POP POP POP POP POP POP PUSH1 0x0 PUSH1 0x40 MLOAD DUP1 DUP4 SUB DUP2 PUSH1 0x0 DUP8 DUP1 EXTCODESIZE ISZERO DUP1 ISZERO PUSH2 0x149B JUMPI PUSH1 0x0 DUP1 REVERT JUMPDEST POP GAS CALL ISZERO DUP1 ISZERO PUSH2 0x14AF JUMPI RETURNDATASIZE PUSH1 0x0 DUP1 RETURNDATACOPY RETURNDATASIZE PUSH1 0x0 REVERT JUMPDEST POP POP POP POP JUMPDEST POP POP POP POP POP POP POP JUMP JUMPDEST PUSH2 0x14C9 DUP7 DUP7 DUP7 DUP7 PUSH2 0xEB2 JUMP JUMPDEST PUSH2 0x1506 DUP4 PUSH1 0x40 MLOAD DUP1 PUSH1 0x60 ADD PUSH1 0x40 MSTORE DUP1 PUSH1 0x27 DUP2 MSTORE PUSH1 0x20 ADD PUSH2 0x1FA0 PUSH1 0x27 SWAP2 CODECOPY PUSH1 0x1 PUSH1 0x1 PUSH1 0xA0 SHL SUB DUP9 AND PUSH1 0x0 SWAP1 DUP2 MSTORE PUSH1 0x20 DUP2 SWAP1 MSTORE PUSH1 0x40 SWAP1 KECCAK256 SLOAD SWAP2 SWAP1 PUSH2 0x16D6 JUMP JUMPDEST PUSH1 0x1 PUSH1 0x1 PUSH1 0xA0 SHL SUB DUP1 DUP8 AND PUSH1 0x0 SWAP1 DUP2 MSTORE PUSH1 0x20 DUP2 SWAP1 MSTORE PUSH1 0x40 DUP1 DUP3 KECCAK256 SWAP4 SWAP1 SWAP4 SSTORE SWAP1 DUP7 AND DUP2 MSTORE KECCAK256 SLOAD PUSH2 0x1535 SWAP1 DUP5 PUSH2 0x114F JUMP JUMPDEST PUSH1 0x0 DUP1 DUP7 PUSH1 0x1 PUSH1 0x1 PUSH1 0xA0 SHL SUB AND PUSH1 0x1 PUSH1 0x1 PUSH1 0xA0 SHL SUB AND DUP2 MSTORE PUSH1 0x20 ADD SWAP1 DUP2 MSTORE PUSH1 0x20 ADD PUSH1 0x0 KECCAK256 DUP2 SWAP1 SSTORE POP DUP4 PUSH1 0x1 PUSH1 0x1 PUSH1 0xA0 SHL SUB AND DUP6 PUSH1 0x1 PUSH1 0x1 PUSH1 0xA0 SHL SUB AND DUP8 PUSH1 0x1 PUSH1 0x1 PUSH1 0xA0 SHL SUB AND PUSH32 0x6B541DDAA720DB2B10A4D0CDAC39B8D360425FC073085FAC19BC82614677987 DUP7 DUP7 DUP7 PUSH1 0x40 MLOAD DUP1 DUP5 DUP2 MSTORE PUSH1 0x20 ADD DUP1 PUSH1 0x20 ADD DUP1 PUSH1 0x20 ADD DUP4 DUP2 SUB DUP4 MSTORE DUP6 DUP2 DUP2 MLOAD DUP2 MSTORE PUSH1 0x20 ADD SWAP2 POP DUP1 MLOAD SWAP1 PUSH1 0x20 ADD SWAP1 DUP1 DUP4 DUP4 PUSH1 0x0 JUMPDEST DUP4 DUP2 LT ISZERO PUSH2 0x15E6 JUMPI DUP2 DUP2 ADD MLOAD DUP4 DUP3 ADD MSTORE PUSH1 0x20 ADD PUSH2 0x15CE JUMP JUMPDEST POP POP POP POP SWAP1 POP SWAP1 DUP2 ADD SWAP1 PUSH1 0x1F AND DUP1 ISZERO PUSH2 0x1613 JUMPI DUP1 DUP3 SUB DUP1 MLOAD PUSH1 0x1 DUP4 PUSH1 0x20 SUB PUSH2 0x100 EXP SUB NOT AND DUP2 MSTORE PUSH1 0x20 ADD SWAP2 POP JUMPDEST POP DUP4 DUP2 SUB DUP3 MSTORE DUP5 MLOAD DUP2 MSTORE DUP5 MLOAD PUSH1 0x20 SWAP2 DUP3 ADD SWAP2 DUP7 ADD SWAP1 DUP1 DUP4 DUP4 PUSH1 0x0 JUMPDEST DUP4 DUP2 LT ISZERO PUSH2 0x1646 JUMPI DUP2 DUP2 ADD MLOAD DUP4 DUP3 ADD MSTORE PUSH1 0x20 ADD PUSH2 0x162E JUMP JUMPDEST POP POP POP POP SWAP1 POP SWAP1 DUP2 ADD SWAP1 PUSH1 0x1F AND DUP1 ISZERO PUSH2 0x1673 JUMPI DUP1 DUP3 SUB DUP1 MLOAD PUSH1 0x1 DUP4 PUSH1 0x20 SUB PUSH2 0x100 EXP SUB NOT AND DUP2 MSTORE PUSH1 0x20 ADD SWAP2 POP JUMPDEST POP SWAP6 POP POP POP POP POP POP PUSH1 0x40 MLOAD DUP1 SWAP2 SUB SWAP1 LOG4 DUP4 PUSH1 0x1 PUSH1 0x1 PUSH1 0xA0 SHL SUB AND DUP6 PUSH1 0x1 PUSH1 0x1 PUSH1 0xA0 SHL SUB AND PUSH32 0xDDF252AD1BE2C89B69C2B068FC378DAA952BA7F163C4A11628F55A4DF523B3EF DUP6 PUSH1 0x40 MLOAD DUP1 DUP3 DUP2 MSTORE PUSH1 0x20 ADD SWAP2 POP POP PUSH1 0x40 MLOAD DUP1 SWAP2 SUB SWAP1 LOG3 POP POP POP POP POP POP JUMP JUMPDEST PUSH1 0x0 DUP2 DUP5 DUP5 GT ISZERO PUSH2 0x1765 JUMPI PUSH1 0x40 MLOAD PUSH3 0x461BCD PUSH1 0xE5 SHL DUP2 MSTORE PUSH1 0x4 ADD DUP1 DUP1 PUSH1 0x20 ADD DUP3 DUP2 SUB DUP3 MSTORE DUP4 DUP2 DUP2 MLOAD DUP2 MSTORE PUSH1 0x20 ADD SWAP2 POP DUP1 MLOAD SWAP1 PUSH1 0x20 ADD SWAP1 DUP1 DUP4 DUP4 PUSH1 0x0 JUMPDEST DUP4 DUP2 LT ISZERO PUSH2 0x172A JUMPI DUP2 DUP2 ADD MLOAD DUP4 DUP3 ADD MSTORE PUSH1 0x20 ADD PUSH2 0x1712 JUMP JUMPDEST POP POP POP POP SWAP1 POP SWAP1 DUP2 ADD SWAP1 PUSH1 0x1F AND DUP1 ISZERO PUSH2 0x1757 JUMPI DUP1 DUP3 SUB DUP1 MLOAD PUSH1 0x1 DUP4 PUSH1 0x20 SUB PUSH2 0x100 EXP SUB NOT AND DUP2 MSTORE PUSH1 0x20 ADD SWAP2 POP JUMPDEST POP SWAP3 POP POP POP PUSH1 0x40 MLOAD DUP1 SWAP2 SUB SWAP1 REVERT JUMPDEST POP POP POP SWAP1 SUB SWAP1 JUMP JUMPDEST PUSH1 0x40 DUP1 MLOAD PUSH4 0x555DDC65 PUSH1 0xE1 SHL DUP2 MSTORE PUSH1 0x1 PUSH1 0x1 PUSH1 0xA0 SHL SUB DUP8 AND PUSH1 0x4 DUP3 ADD MSTORE PUSH32 0xB281FC8C12954D22544DB45DE3159A39272895B169A852B314F9CC762E44C53B PUSH1 0x24 DUP3 ADD MSTORE SWAP1 MLOAD PUSH1 0x0 SWAP2 PUSH20 0x1820A4B7618BDE71DCE8CDC73AAB6C95905FAD24 SWAP2 PUSH4 0xAABBB8CA SWAP2 PUSH1 0x44 DUP1 DUP3 ADD SWAP3 PUSH1 0x20 SWAP3 SWAP1 SWAP2 SWAP1 DUP3 SWAP1 SUB ADD DUP2 DUP7 DUP1 EXTCODESIZE ISZERO DUP1 ISZERO PUSH2 0x17F1 JUMPI PUSH1 0x0 DUP1 REVERT JUMPDEST POP GAS STATICCALL ISZERO DUP1 ISZERO PUSH2 0x1805 JUMPI RETURNDATASIZE PUSH1 0x0 DUP1 RETURNDATACOPY RETURNDATASIZE PUSH1 0x0 REVERT JUMPDEST POP POP POP POP PUSH1 0x40 MLOAD RETURNDATASIZE PUSH1 0x20 DUP2 LT ISZERO PUSH2 0x181B JUMPI PUSH1 0x0 DUP1 REVERT JUMPDEST POP MLOAD SWAP1 POP PUSH1 0x1 PUSH1 0x1 PUSH1 0xA0 SHL SUB DUP2 AND ISZERO PUSH2 0x1994 JUMPI DUP1 PUSH1 0x1 PUSH1 0x1 PUSH1 0xA0 SHL SUB AND PUSH3 0x23DE29 DUP10 DUP10 DUP10 DUP10 DUP10 DUP10 PUSH1 0x40 MLOAD DUP8 PUSH4 0xFFFFFFFF AND PUSH1 0xE0 SHL DUP2 MSTORE PUSH1 0x4 ADD DUP1 DUP8 PUSH1 0x1 PUSH1 0x1 PUSH1 0xA0 SHL SUB AND DUP2 MSTORE PUSH1 0x20 ADD DUP7 PUSH1 0x1 PUSH1 0x1 PUSH1 0xA0 SHL SUB AND DUP2 MSTORE PUSH1 0x20 ADD DUP6 PUSH1 0x1 PUSH1 0x1 PUSH1 0xA0 SHL SUB AND DUP2 MSTORE PUSH1 0x20 ADD DUP5 DUP2 MSTORE PUSH1 0x20 ADD DUP1 PUSH1 0x20 ADD DUP1 PUSH1 0x20 ADD DUP4 DUP2 SUB DUP4 MSTORE DUP6 DUP2 DUP2 MLOAD DUP2 MSTORE PUSH1 0x20 ADD SWAP2 POP DUP1 MLOAD SWAP1 PUSH1 0x20 ADD SWAP1 DUP1 DUP4 DUP4 PUSH1 0x0 JUMPDEST DUP4 DUP2 LT ISZERO PUSH2 0x18C5 JUMPI DUP2 DUP2 ADD MLOAD DUP4 DUP3 ADD MSTORE PUSH1 0x20 ADD PUSH2 0x18AD JUMP JUMPDEST POP POP POP POP SWAP1 POP SWAP1 DUP2 ADD SWAP1 PUSH1 0x1F AND DUP1 ISZERO PUSH2 0x18F2 JUMPI DUP1 DUP3 SUB DUP1 MLOAD PUSH1 0x1 DUP4 PUSH1 0x20 SUB PUSH2 0x100 EXP SUB NOT AND DUP2 MSTORE PUSH1 0x20 ADD SWAP2 POP JUMPDEST POP DUP4 DUP2 SUB DUP3 MSTORE DUP5 MLOAD DUP2 MSTORE DUP5 MLOAD PUSH1 0x20 SWAP2 DUP3 ADD SWAP2 DUP7 ADD SWAP1 DUP1 DUP4 DUP4 PUSH1 0x0 JUMPDEST DUP4 DUP2 LT ISZERO PUSH2 0x1925 JUMPI DUP2 DUP2 ADD MLOAD DUP4 DUP3 ADD MSTORE PUSH1 0x20 ADD PUSH2 0x190D JUMP JUMPDEST POP POP POP POP SWAP1 POP SWAP1 DUP2 ADD SWAP1 PUSH1 0x1F AND DUP1 ISZERO PUSH2 0x1952 JUMPI DUP1 DUP3 SUB DUP1 MLOAD PUSH1 0x1 DUP4 PUSH1 0x20 SUB PUSH2 0x100 EXP SUB NOT AND DUP2 MSTORE PUSH1 0x20 ADD SWAP2 POP JUMPDEST POP SWAP9 POP POP POP POP POP POP POP POP POP PUSH1 0x0 PUSH1 0x40 MLOAD DUP1 DUP4 SUB DUP2 PUSH1 0x0 DUP8 DUP1 EXTCODESIZE ISZERO DUP1 ISZERO PUSH2 0x1977 JUMPI PUSH1 0x0 DUP1 REVERT JUMPDEST POP GAS CALL ISZERO DUP1 ISZERO PUSH2 0x198B JUMPI RETURNDATASIZE PUSH1 0x0 DUP1 RETURNDATACOPY RETURNDATASIZE PUSH1 0x0 REVERT JUMPDEST POP POP POP POP PUSH2 0x19E8 JUMP JUMPDEST DUP2 ISZERO PUSH2 0x19E8 JUMPI PUSH2 0x19AC DUP7 PUSH1 0x1 PUSH1 0x1 PUSH1 0xA0 SHL SUB AND PUSH2 0x11A9 JUMP JUMPDEST ISZERO PUSH2 0x19E8 JUMPI PUSH1 0x40 MLOAD PUSH3 0x461BCD PUSH1 0xE5 SHL DUP2 MSTORE PUSH1 0x4 ADD DUP1 DUP1 PUSH1 0x20 ADD DUP3 DUP2 SUB DUP3 MSTORE PUSH1 0x4D DUP2 MSTORE PUSH1 0x20 ADD DUP1 PUSH2 0x202E PUSH1 0x4D SWAP2 CODECOPY PUSH1 0x60 ADD SWAP2 POP POP PUSH1 0x40 MLOAD DUP1 SWAP2 SUB SWAP1 REVERT JUMPDEST POP POP POP POP POP POP POP POP JUMP JUMPDEST PUSH1 0x1 PUSH1 0x1 PUSH1 0xA0 SHL SUB DUP7 AND PUSH2 0x1A37 JUMPI PUSH1 0x40 MLOAD PUSH3 0x461BCD PUSH1 0xE5 SHL DUP2 MSTORE PUSH1 0x4 ADD DUP1 DUP1 PUSH1 0x20 ADD DUP3 DUP2 SUB DUP3 MSTORE PUSH1 0x22 DUP2 MSTORE PUSH1 0x20 ADD DUP1 PUSH2 0x1F7E PUSH1 0x22 SWAP2 CODECOPY PUSH1 0x40 ADD SWAP2 POP POP PUSH1 0x40 MLOAD DUP1 SWAP2 SUB SWAP1 REVERT JUMPDEST PUSH1 0x1 PUSH1 0x1 PUSH1 0xA0 SHL SUB DUP6 AND PUSH2 0x1A92 JUMPI PUSH1 0x40 DUP1 MLOAD PUSH3 0x461BCD PUSH1 0xE5 SHL DUP2 MSTORE PUSH1 0x20 PUSH1 0x4 DUP3 ADD DUP2 SWAP1 MSTORE PUSH1 0x24 DUP3 ADD MSTORE PUSH32 0x4552433737373A2073656E6420746F20746865207A65726F2061646472657373 PUSH1 0x44 DUP3 ADD MSTORE SWAP1 MLOAD SWAP1 DUP2 SWAP1 SUB PUSH1 0x64 ADD SWAP1 REVERT JUMPDEST PUSH1 0x0 PUSH2 0x1A9C PUSH2 0x11E5 JUMP JUMPDEST SWAP1 POP PUSH2 0x1AAC DUP2 DUP9 DUP9 DUP9 DUP9 DUP9 PUSH2 0x1290 JUMP JUMPDEST PUSH2 0x1ABA DUP2 DUP9 DUP9 DUP9 DUP9 DUP9 PUSH2 0x14BD JUMP JUMPDEST PUSH2 0x14B4 DUP2 DUP9 DUP9 DUP9 DUP9 DUP9 DUP9 PUSH2 0x176D JUMP JUMPDEST PUSH1 0x1 PUSH1 0x1 PUSH1 0xA0 SHL SUB DUP5 AND PUSH2 0x1B24 JUMPI PUSH1 0x40 DUP1 MLOAD PUSH3 0x461BCD PUSH1 0xE5 SHL DUP2 MSTORE PUSH1 0x20 PUSH1 0x4 DUP3 ADD DUP2 SWAP1 MSTORE PUSH1 0x24 DUP3 ADD MSTORE PUSH32 0x4552433737373A206D696E7420746F20746865207A65726F2061646472657373 PUSH1 0x44 DUP3 ADD MSTORE SWAP1 MLOAD SWAP1 DUP2 SWAP1 SUB PUSH1 0x64 ADD SWAP1 REVERT JUMPDEST PUSH1 0x0 PUSH2 0x1B2E PUSH2 0x11E5 JUMP JUMPDEST SWAP1 POP PUSH2 0x1B3D DUP2 PUSH1 0x0 DUP8 DUP8 PUSH2 0xEB2 JUMP JUMPDEST PUSH1 0x1 SLOAD PUSH2 0x1B4A SWAP1 DUP6 PUSH2 0x114F JUMP JUMPDEST PUSH1 0x1 SSTORE PUSH1 0x1 PUSH1 0x1 PUSH1 0xA0 SHL SUB DUP6 AND PUSH1 0x0 SWAP1 DUP2 MSTORE PUSH1 0x20 DUP2 SWAP1 MSTORE PUSH1 0x40 SWAP1 KECCAK256 SLOAD PUSH2 0x1B70 SWAP1 DUP6 PUSH2 0x114F JUMP JUMPDEST PUSH1 0x1 PUSH1 0x1 PUSH1 0xA0 SHL SUB DUP7 AND PUSH1 0x0 SWAP1 DUP2 MSTORE PUSH1 0x20 DUP2 SWAP1 MSTORE PUSH1 0x40 DUP2 KECCAK256 SWAP2 SWAP1 SWAP2 SSTORE PUSH2 0x1B9D SWAP1 DUP3 SWAP1 DUP8 DUP8 DUP8 DUP8 PUSH1 0x1 PUSH2 0x176D JUMP JUMPDEST DUP5 PUSH1 0x1 PUSH1 0x1 PUSH1 0xA0 SHL SUB AND DUP2 PUSH1 0x1 PUSH1 0x1 PUSH1 0xA0 SHL SUB AND PUSH32 0x2FE5BE0146F74C5BCE36C0B80911AF6C7D86FF27E89D5CFA61FC681327954E5D DUP7 DUP7 DUP7 PUSH1 0x40 MLOAD DUP1 DUP5 DUP2 MSTORE PUSH1 0x20 ADD DUP1 PUSH1 0x20 ADD DUP1 PUSH1 0x20 ADD DUP4 DUP2 SUB DUP4 MSTORE DUP6 DUP2 DUP2 MLOAD DUP2 MSTORE PUSH1 0x20 ADD SWAP2 POP DUP1 MLOAD SWAP1 PUSH1 0x20 ADD SWAP1 DUP1 DUP4 DUP4 PUSH1 0x0 JUMPDEST DUP4 DUP2 LT ISZERO PUSH2 0x1C1C JUMPI DUP2 DUP2 ADD MLOAD DUP4 DUP3 ADD MSTORE PUSH1 0x20 ADD PUSH2 0x1C04 JUMP JUMPDEST POP POP POP POP SWAP1 POP SWAP1 DUP2 ADD SWAP1 PUSH1 0x1F AND DUP1 ISZERO PUSH2 0x1C49 JUMPI DUP1 DUP3 SUB DUP1 MLOAD PUSH1 0x1 DUP4 PUSH1 0x20 SUB PUSH2 0x100 EXP SUB NOT AND DUP2 MSTORE PUSH1 0x20 ADD SWAP2 POP JUMPDEST POP DUP4 DUP2 SUB DUP3 MSTORE DUP5 MLOAD DUP2 MSTORE DUP5 MLOAD PUSH1 0x20 SWAP2 DUP3 ADD SWAP2 DUP7 ADD SWAP1 DUP1 DUP4 DUP4 PUSH1 0x0 JUMPDEST DUP4 DUP2 LT ISZERO PUSH2 0x1C7C JUMPI DUP2 DUP2 ADD MLOAD DUP4 DUP3 ADD MSTORE PUSH1 0x20 ADD PUSH2 0x1C64 JUMP JUMPDEST POP POP POP POP SWAP1 POP SWAP1 DUP2 ADD SWAP1 PUSH1 0x1F AND DUP1 ISZERO PUSH2 0x1CA9 JUMPI DUP1 DUP3 SUB DUP1 MLOAD PUSH1 0x1 DUP4 PUSH1 0x20 SUB PUSH2 0x100 EXP SUB NOT AND DUP2 MSTORE PUSH1 0x20 ADD SWAP2 POP JUMPDEST POP SWAP6 POP POP POP POP POP POP PUSH1 0x40 MLOAD DUP1 SWAP2 SUB SWAP1 LOG3 PUSH1 0x40 DUP1 MLOAD DUP6 DUP2 MSTORE SWAP1 MLOAD PUSH1 0x1 PUSH1 0x1 PUSH1 0xA0 SHL SUB DUP8 AND SWAP2 PUSH1 0x0 SWAP2 PUSH32 0xDDF252AD1BE2C89B69C2B068FC378DAA952BA7F163C4A11628F55A4DF523B3EF SWAP2 DUP2 SWAP1 SUB PUSH1 0x20 ADD SWAP1 LOG3 POP POP POP POP POP JUMP JUMPDEST PUSH1 0x1 PUSH1 0x1 PUSH1 0xA0 SHL SUB DUP5 AND PUSH2 0x1D46 JUMPI PUSH1 0x40 MLOAD PUSH3 0x461BCD PUSH1 0xE5 SHL DUP2 MSTORE PUSH1 0x4 ADD DUP1 DUP1 PUSH1 0x20 ADD DUP3 DUP2 SUB DUP3 MSTORE PUSH1 0x22 DUP2 MSTORE PUSH1 0x20 ADD DUP1 PUSH2 0x1FC7 PUSH1 0x22 SWAP2 CODECOPY PUSH1 0x40 ADD SWAP2 POP POP PUSH1 0x40 MLOAD DUP1 SWAP2 SUB SWAP1 REVERT JUMPDEST PUSH1 0x0 PUSH2 0x1D50 PUSH2 0x11E5 JUMP JUMPDEST SWAP1 POP PUSH2 0x1D5F DUP2 DUP7 PUSH1 0x0 DUP8 PUSH2 0xEB2 JUMP JUMPDEST PUSH2 0x1D6E DUP2 DUP7 PUSH1 0x0 DUP8 DUP8 DUP8 PUSH2 0x1290 JUMP JUMPDEST PUSH2 0x1DAB DUP5 PUSH1 0x40 MLOAD DUP1 PUSH1 0x60 ADD PUSH1 0x40 MSTORE DUP1 PUSH1 0x23 DUP2 MSTORE PUSH1 0x20 ADD PUSH2 0x211A PUSH1 0x23 SWAP2 CODECOPY PUSH1 0x1 PUSH1 0x1 PUSH1 0xA0 SHL SUB DUP9 AND PUSH1 0x0 SWAP1 DUP2 MSTORE PUSH1 0x20 DUP2 SWAP1 MSTORE PUSH1 0x40 SWAP1 KECCAK256 SLOAD SWAP2 SWAP1 PUSH2 0x16D6 JUMP JUMPDEST PUSH1 0x1 PUSH1 0x1 PUSH1 0xA0 SHL SUB DUP7 AND PUSH1 0x0 SWAP1 DUP2 MSTORE PUSH1 0x20 DUP2 SWAP1 MSTORE PUSH1 0x40 SWAP1 KECCAK256 SSTORE PUSH1 0x1 SLOAD PUSH2 0x1DD1 SWAP1 DUP6 PUSH2 0x1F3B JUMP JUMPDEST PUSH1 0x1 DUP2 SWAP1 SSTORE POP DUP5 PUSH1 0x1 PUSH1 0x1 PUSH1 0xA0 SHL SUB AND DUP2 PUSH1 0x1 PUSH1 0x1 PUSH1 0xA0 SHL SUB AND PUSH32 0xA78A9BE3A7B862D26933AD85FB11D80EF66B8F972D7CBBA06621D583943A4098 DUP7 DUP7 DUP7 PUSH1 0x40 MLOAD DUP1 DUP5 DUP2 MSTORE PUSH1 0x20 ADD DUP1 PUSH1 0x20 ADD DUP1 PUSH1 0x20 ADD DUP4 DUP2 SUB DUP4 MSTORE DUP6 DUP2 DUP2 MLOAD DUP2 MSTORE PUSH1 0x20 ADD SWAP2 POP DUP1 MLOAD SWAP1 PUSH1 0x20 ADD SWAP1 DUP1 DUP4 DUP4 PUSH1 0x0 JUMPDEST DUP4 DUP2 LT ISZERO PUSH2 0x1E56 JUMPI DUP2 DUP2 ADD MLOAD DUP4 DUP3 ADD MSTORE PUSH1 0x20 ADD PUSH2 0x1E3E JUMP JUMPDEST POP POP POP POP SWAP1 POP SWAP1 DUP2 ADD SWAP1 PUSH1 0x1F AND DUP1 ISZERO PUSH2 0x1E83 JUMPI DUP1 DUP3 SUB DUP1 MLOAD PUSH1 0x1 DUP4 PUSH1 0x20 SUB PUSH2 0x100 EXP SUB NOT AND DUP2 MSTORE PUSH1 0x20 ADD SWAP2 POP JUMPDEST POP DUP4 DUP2 SUB DUP3 MSTORE DUP5 MLOAD DUP2 MSTORE DUP5 MLOAD PUSH1 0x20 SWAP2 DUP3 ADD SWAP2 DUP7 ADD SWAP1 DUP1 DUP4 DUP4 PUSH1 0x0 JUMPDEST DUP4 DUP2 LT ISZERO PUSH2 0x1EB6 JUMPI DUP2 DUP2 ADD MLOAD DUP4 DUP3 ADD MSTORE PUSH1 0x20 ADD PUSH2 0x1E9E JUMP JUMPDEST POP POP POP POP SWAP1 POP SWAP1 DUP2 ADD SWAP1 PUSH1 0x1F AND DUP1 ISZERO PUSH2 0x1EE3 JUMPI DUP1 DUP3 SUB DUP1 MLOAD PUSH1 0x1 DUP4 PUSH1 0x20 SUB PUSH2 0x100 EXP SUB NOT AND DUP2 MSTORE PUSH1 0x20 ADD SWAP2 POP JUMPDEST POP SWAP6 POP POP POP POP POP POP PUSH1 0x40 MLOAD DUP1 SWAP2 SUB SWAP1 LOG3 PUSH1 0x40 DUP1 MLOAD DUP6 DUP2 MSTORE SWAP1 MLOAD PUSH1 0x0 SWAP2 PUSH1 0x1 PUSH1 0x1 PUSH1 0xA0 SHL SUB DUP9 AND SWAP2 PUSH32 0xDDF252AD1BE2C89B69C2B068FC378DAA952BA7F163C4A11628F55A4DF523B3EF SWAP2 DUP2 SWAP1 SUB PUSH1 0x20 ADD SWAP1 LOG3 POP POP POP POP POP JUMP JUMPDEST PUSH1 0x0 PUSH2 0xF53 DUP4 DUP4 PUSH1 0x40 MLOAD DUP1 PUSH1 0x40 ADD PUSH1 0x40 MSTORE DUP1 PUSH1 0x1E DUP2 MSTORE PUSH1 0x20 ADD PUSH32 0x536166654D6174683A207375627472616374696F6E206F766572666C6F770000 DUP2 MSTORE POP PUSH2 0x16D6 JUMP INVALID GASLIMIT MSTORE NUMBER CALLDATACOPY CALLDATACOPY CALLDATACOPY GASPRICE KECCAK256 PUSH20 0x656E642066726F6D20746865207A65726F206164 PUSH5 0x7265737345 MSTORE NUMBER CALLDATACOPY CALLDATACOPY CALLDATACOPY GASPRICE KECCAK256 PUSH21 0x72616E7366657220616D6F756E7420657863656564 PUSH20 0x2062616C616E63654552433737373A206275726E KECCAK256 PUSH7 0x726F6D20746865 KECCAK256 PUSH27 0x65726F20616464726573734552433737373A20617574686F72697A PUSH10 0x6E672073656C66206173 KECCAK256 PUSH16 0x70657261746F724552433737373A2072 PUSH6 0x766F6B696E67 KECCAK256 PUSH20 0x656C66206173206F70657261746F724552433737 CALLDATACOPY GASPRICE KECCAK256 PUSH21 0x6F6B656E20726563697069656E7420636F6E747261 PUSH4 0x74206861 PUSH20 0x206E6F20696D706C656D656E74657220666F7220 GASLIMIT MSTORE NUMBER CALLDATACOPY CALLDATACOPY CALLDATACOPY SLOAD PUSH16 0x6B656E73526563697069656E74455243 CALLDATACOPY CALLDATACOPY CALLDATACOPY GASPRICE KECCAK256 PUSH21 0x72616E7366657220746F20746865207A65726F2061 PUSH5 0x6472657373 GASLIMIT MSTORE NUMBER CALLDATACOPY CALLDATACOPY CALLDATACOPY GASPRICE KECCAK256 PUSH4 0x616C6C65 PUSH19 0x206973206E6F7420616E206F70657261746F72 KECCAK256 PUSH7 0x6F7220686F6C64 PUSH6 0x724552433737 CALLDATACOPY GASPRICE KECCAK256 PUSH21 0x72616E7366657220616D6F756E7420657863656564 PUSH20 0x20616C6C6F77616E63654552433737373A207472 PUSH2 0x6E73 PUSH7 0x65722066726F6D KECCAK256 PUSH21 0x6865207A65726F2061646472657373455243373737 GASPRICE KECCAK256 PUSH3 0x75726E KECCAK256 PUSH2 0x6D6F PUSH22 0x6E7420657863656564732062616C616E636545524337 CALLDATACOPY CALLDATACOPY GASPRICE KECCAK256 PUSH2 0x7070 PUSH19 0x6F766520746F20746865207A65726F20616464 PUSH19 0x657373A26469706673582212203031FFA0433C LOG4 DUP10 0xB5 0xB3 0xA6 0xD3 0xA9 0xDD 0xE PUSH24 0xBCD3BBFC3E536BC8E716C760C02B404964736F6C63430006 0xC STOP CALLER ",
  "sha1": "6b3bd5e69fa31013b306942cbb1f9681110956c1",
  "source": "pragma solidity ^0.6.0;\n\nimport \"../GSN/Context.sol\";\nimport \"../token/ERC777/ERC777.sol\";\n\ncontract ERC777Mock is Context, ERC777 {\n    constructor(\n        address initialHolder,\n        uint256 initialBalance,\n        string memory name,\n        string memory symbol,\n        address[] memory defaultOperators\n    ) public ERC777(name, symbol, defaultOperators) {\n        _mint(initialHolder, initialBalance, \"\", \"\");\n    }\n\n    function mintInternal (\n        address to,\n        uint256 amount,\n        bytes memory userData,\n        bytes memory operatorData\n    ) public {\n        _mint(to, amount, userData, operatorData);\n    }\n}\n",
  "sourcePath": "contracts/openzeppelin/contracts/mocks/ERC777Mock.sol",
  "type": "contract"
}