{
  "abi": [
    {
      "anonymous": false,
      "inputs": [
        {
          "indexed": false,
          "internalType": "address",
          "name": "operator",
          "type": "address"
        },
        {
          "indexed": false,
          "internalType": "address",
          "name": "from",
          "type": "address"
        },
        {
          "indexed": false,
          "internalType": "address",
          "name": "to",
          "type": "address"
        },
        {
          "indexed": false,
          "internalType": "uint256",
          "name": "amount",
          "type": "uint256"
        },
        {
          "indexed": false,
          "internalType": "bytes",
          "name": "data",
          "type": "bytes"
        },
        {
          "indexed": false,
          "internalType": "bytes",
          "name": "operatorData",
          "type": "bytes"
        },
        {
          "indexed": false,
          "internalType": "address",
          "name": "token",
          "type": "address"
        },
        {
          "indexed": false,
          "internalType": "uint256",
          "name": "fromBalance",
          "type": "uint256"
        },
        {
          "indexed": false,
          "internalType": "uint256",
          "name": "toBalance",
          "type": "uint256"
        }
      ],
      "name": "TokensReceivedCalled",
      "type": "event"
    },
    {
      "anonymous": false,
      "inputs": [
        {
          "indexed": false,
          "internalType": "address",
          "name": "operator",
          "type": "address"
        },
        {
          "indexed": false,
          "internalType": "address",
          "name": "from",
          "type": "address"
        },
        {
          "indexed": false,
          "internalType": "address",
          "name": "to",
          "type": "address"
        },
        {
          "indexed": false,
          "internalType": "uint256",
          "name": "amount",
          "type": "uint256"
        },
        {
          "indexed": false,
          "internalType": "bytes",
          "name": "data",
          "type": "bytes"
        },
        {
          "indexed": false,
          "internalType": "bytes",
          "name": "operatorData",
          "type": "bytes"
        },
        {
          "indexed": false,
          "internalType": "address",
          "name": "token",
          "type": "address"
        },
        {
          "indexed": false,
          "internalType": "uint256",
          "name": "fromBalance",
          "type": "uint256"
        },
        {
          "indexed": false,
          "internalType": "uint256",
          "name": "toBalance",
          "type": "uint256"
        }
      ],
      "name": "TokensToSendCalled",
      "type": "event"
    },
    {
      "inputs": [
        {
          "internalType": "contract IERC777",
          "name": "token",
          "type": "address"
        },
        {
          "internalType": "uint256",
          "name": "amount",
          "type": "uint256"
        },
        {
          "internalType": "bytes",
          "name": "data",
          "type": "bytes"
        }
      ],
      "name": "burn",
      "outputs": [],
      "stateMutability": "nonpayable",
      "type": "function"
    },
    {
      "inputs": [
        {
          "internalType": "bytes32",
          "name": "interfaceHash",
          "type": "bytes32"
        },
        {
          "internalType": "address",
          "name": "account",
          "type": "address"
        }
      ],
      "name": "canImplementInterfaceForAddress",
      "outputs": [
        {
          "internalType": "bytes32",
          "name": "",
          "type": "bytes32"
        }
      ],
      "stateMutability": "view",
      "type": "function"
    },
    {
      "inputs": [
        {
          "internalType": "address",
          "name": "account",
          "type": "address"
        }
      ],
      "name": "recipientFor",
      "outputs": [],
      "stateMutability": "nonpayable",
      "type": "function"
    },
    {
      "inputs": [
        {
          "internalType": "address",
          "name": "recipient",
          "type": "address"
        }
      ],
      "name": "registerRecipient",
      "outputs": [],
      "stateMutability": "nonpayable",
      "type": "function"
    },
    {
      "inputs": [
        {
          "internalType": "address",
          "name": "sender",
          "type": "address"
        }
      ],
      "name": "registerSender",
      "outputs": [],
      "stateMutability": "nonpayable",
      "type": "function"
    },
    {
      "inputs": [
        {
          "internalType": "contract IERC777",
          "name": "token",
          "type": "address"
        },
        {
          "internalType": "address",
          "name": "to",
          "type": "address"
        },
        {
          "internalType": "uint256",
          "name": "amount",
          "type": "uint256"
        },
        {
          "internalType": "bytes",
          "name": "data",
          "type": "bytes"
        }
      ],
      "name": "send",
      "outputs": [],
      "stateMutability": "nonpayable",
      "type": "function"
    },
    {
      "inputs": [
        {
          "internalType": "address",
          "name": "account",
          "type": "address"
        }
      ],
      "name": "senderFor",
      "outputs": [],
      "stateMutability": "nonpayable",
      "type": "function"
    },
    {
      "inputs": [
        {
          "internalType": "bool",
          "name": "shouldRevert",
          "type": "bool"
        }
      ],
      "name": "setShouldRevertReceive",
      "outputs": [],
      "stateMutability": "nonpayable",
      "type": "function"
    },
    {
      "inputs": [
        {
          "internalType": "bool",
          "name": "shouldRevert",
          "type": "bool"
        }
      ],
      "name": "setShouldRevertSend",
      "outputs": [],
      "stateMutability": "nonpayable",
      "type": "function"
    },
    {
      "inputs": [
        {
          "internalType": "address",
          "name": "operator",
          "type": "address"
        },
        {
          "internalType": "address",
          "name": "from",
          "type": "address"
        },
        {
          "internalType": "address",
          "name": "to",
          "type": "address"
        },
        {
          "internalType": "uint256",
          "name": "amount",
          "type": "uint256"
        },
        {
          "internalType": "bytes",
          "name": "userData",
          "type": "bytes"
        },
        {
          "internalType": "bytes",
          "name": "operatorData",
          "type": "bytes"
        }
      ],
      "name": "tokensReceived",
      "outputs": [],
      "stateMutability": "nonpayable",
      "type": "function"
    },
    {
      "inputs": [
        {
          "internalType": "address",
          "name": "operator",
          "type": "address"
        },
        {
          "internalType": "address",
          "name": "from",
          "type": "address"
        },
        {
          "internalType": "address",
          "name": "to",
          "type": "address"
        },
        {
          "internalType": "uint256",
          "name": "amount",
          "type": "uint256"
        },
        {
          "internalType": "bytes",
          "name": "userData",
          "type": "bytes"
        },
        {
          "internalType": "bytes",
          "name": "operatorData",
          "type": "bytes"
        }
      ],
      "name": "tokensToSend",
      "outputs": [],
      "stateMutability": "nonpayable",
      "type": "function"
    }
  ],
  "bytecode": "60806040526001805462010000600160b01b031916751820a4b7618bde71dce8cdc73aab6c95905fad24000017905534801561003a57600080fd5b50610da58061004a6000396000f3fe608060405234801561001057600080fd5b50600436106100a85760003560e01c806375ab97821161007157806375ab97821461036f578063a8badaa514610455578063c97e18fc1461047b578063d2de64741461049a578063e0eb2180146104c0578063e1ecbd30146104e6576100a8565b806223de29146100ad578063249cb3fa146101955780633836ef89146101d357806344d17187146102975780634e4ae5a514610350575b600080fd5b610193600480360360c08110156100c357600080fd5b6001600160a01b03823581169260208101358216926040820135909216916060820135919081019060a081016080820135600160201b81111561010557600080fd5b82018360208201111561011757600080fd5b803590602001918460018302840111600160201b8311171561013857600080fd5b919390929091602081019035600160201b81111561015557600080fd5b82018360208201111561016757600080fd5b803590602001918460018302840111600160201b8311171561018857600080fd5b50909250905061050c565b005b6101c1600480360360408110156101ab57600080fd5b50803590602001356001600160a01b031661072a565b60408051918252519081900360200190f35b610193600480360360808110156101e957600080fd5b6001600160a01b03823581169260208101359091169160408201359190810190608081016060820135600160201b81111561022357600080fd5b82018360208201111561023557600080fd5b803590602001918460018302840111600160201b8311171561025657600080fd5b91908080601f01602080910402602001604051908101604052809392919081815260200183838082843760009201919091525092955061079f945050505050565b610193600480360360608110156102ad57600080fd5b6001600160a01b0382351691602081013591810190606081016040820135600160201b8111156102dc57600080fd5b8201836020820111156102ee57600080fd5b803590602001918460018302840111600160201b8311171561030f57600080fd5b91908080601f01602080910402602001604051908101604052809392919081815260200183838082843760009201919091525092955061087e945050505050565b6101936004803603602081101561036657600080fd5b5035151561094c565b610193600480360360c081101561038557600080fd5b6001600160a01b03823581169260208101358216926040820135909216916060820135919081019060a081016080820135600160201b8111156103c757600080fd5b8201836020820111156103d957600080fd5b803590602001918460018302840111600160201b831117156103fa57600080fd5b919390929091602081019035600160201b81111561041757600080fd5b82018360208201111561042957600080fd5b803590602001918460018302840111600160201b8311171561044a57600080fd5b50909250905061095f565b6101936004803603602081101561046b57600080fd5b50356001600160a01b0316610b78565b6101936004803603602081101561049157600080fd5b50351515610c14565b610193600480360360208110156104b057600080fd5b50356001600160a01b0316610c2e565b610193600480360360208110156104d657600080fd5b50356001600160a01b0316610c77565b610193600480360360208110156104fc57600080fd5b50356001600160a01b0316610cbc565b600154610100900460ff161561052157600080fd5b600061052b610d3d565b90506000816001600160a01b03166370a082318a6040518263ffffffff1660e01b815260040180826001600160a01b0316815260200191505060206040518083038186803b15801561057c57600080fd5b505afa158015610590573d6000803e3d6000fd5b505050506040513d60208110156105a657600080fd5b5051604080516370a0823160e01b81526001600160a01b038b811660048301529151929350600092918516916370a0823191602480820192602092909190829003018186803b1580156105f857600080fd5b505afa15801561060c573d6000803e3d6000fd5b505050506040513d602081101561062257600080fd5b810190808051906020019092919050505090507f47e915878c47f3ec4d7ff646a2becb229f64fd2abe4d2b5e2bb4275b0cf50d4e8b8b8b8b8b8b8b8b8b8b8b604051808c6001600160a01b031681526020018b6001600160a01b031681526020018a6001600160a01b031681526020018981526020018060200180602001866001600160a01b0316815260200185815260200184815260200183810383528a8a82818152602001925080828437600083820152601f01601f191690910184810383528881526020019050888880828437600083820152604051601f909101601f19169092018290039f50909d5050505050505050505050505050a15050505050505050505050565b6000828152602081815260408083206001600160a01b038516845290915281205460ff16610759576000610798565b604051602001808073455243313832305f4143434550545f4d4147494360601b8152506014019050604051602081830303815290604052805190602001205b9392505050565b836001600160a01b0316639bd9bbc68484846040518463ffffffff1660e01b815260040180846001600160a01b0316815260200183815260200180602001828103825283818151815260200191508051906020019080838360005b838110156108125781810151838201526020016107fa565b50505050905090810190601f16801561083f5780820380516001836020036101000a031916815260200191505b50945050505050600060405180830381600087803b15801561086057600080fd5b505af1158015610874573d6000803e3d6000fd5b5050505050505050565b6040805163fe9d930360e01b815260048101848152602482019283528351604483015283516001600160a01b0387169363fe9d9303938793879390929160640190602085019080838360005b838110156108e25781810151838201526020016108ca565b50505050905090810190601f16801561090f5780820380516001836020036101000a031916815260200191505b509350505050600060405180830381600087803b15801561092f57600080fd5b505af1158015610943573d6000803e3d6000fd5b50505050505050565b6001805460ff1916911515919091179055565b60015460ff161561096f57600080fd5b6000610979610d3d565b90506000816001600160a01b03166370a082318a6040518263ffffffff1660e01b815260040180826001600160a01b0316815260200191505060206040518083038186803b1580156109ca57600080fd5b505afa1580156109de573d6000803e3d6000fd5b505050506040513d60208110156109f457600080fd5b5051604080516370a0823160e01b81526001600160a01b038b811660048301529151929350600092918516916370a0823191602480820192602092909190829003018186803b158015610a4657600080fd5b505afa158015610a5a573d6000803e3d6000fd5b505050506040513d6020811015610a7057600080fd5b810190808051906020019092919050505090507faa3e88aca472e90221daf7d3d601abafb62b120319089d7a2c2f63588da855298b8b8b8b8b8b8b8b8b8b8b604051808c6001600160a01b031681526020018b6001600160a01b031681526020018a6001600160a01b031681526020018981526020018060200180602001866001600160a01b0316815260200185815260200184815260200183810383528a8a82818152602001925080828437600083820152601f01601f191690910184810383528881526020019050888880828437600083820152604051601f909101601f19169092018290039f50909d5050505050505050505050505050a15050505050505050505050565b600154604080516329965a1d60e01b81523060048201527fb281fc8c12954d22544db45de3159a39272895b169a852b314f9cc762e44c53b60248201526001600160a01b038481166044830152915162010000909304909116916329965a1d9160648082019260009290919082900301818387803b158015610bf957600080fd5b505af1158015610c0d573d6000803e3d6000fd5b5050505050565b600180549115156101000261ff0019909216919091179055565b610c587f29ddb589b1fb5fc7cf394961c1adf5f8c6454761adf795e67fe149f658abe89582610d41565b306001600160a01b038216811415610c7357610c7381610cbc565b5050565b610ca17fb281fc8c12954d22544db45de3159a39272895b169a852b314f9cc762e44c53b82610d41565b306001600160a01b038216811415610c7357610c7381610b78565b600154604080516329965a1d60e01b81523060048201527f29ddb589b1fb5fc7cf394961c1adf5f8c6454761adf795e67fe149f658abe89560248201526001600160a01b038481166044830152915162010000909304909116916329965a1d9160648082019260009290919082900301818387803b158015610bf957600080fd5b3390565b6000918252602082815260408084206001600160a01b0390931684529190529020805460ff1916600117905556fea2646970667358221220bf2ea15a2fdf26056c304485d912c00c196b55a6b41dfa773714c9a6b9a2db9264736f6c634300060c0033",
  "bytecodeSha1": "f3f1cc83a9575ce5a39a61f996a0d6eac5c9b3cb",
  "compiler": {
    "evm_version": "istanbul",
    "optimizer": {
      "enabled": true,
      "runs": 200
    },
    "version": "0.6.12+commit.27d51765"
  },
  "contractName": "ERC777SenderRecipientMock",
  "language": "Solidity",
  "natspec": {
    "kind": "dev",
    "methods": {
      "canImplementInterfaceForAddress(bytes32,address)": {
        "notice": "See {IERC1820Implementer-canImplementInterfaceForAddress}."
      },
      "tokensReceived(address,address,address,uint256,bytes,bytes)": {
        "details": "Called by an {IERC777} token contract whenever tokens are being moved or created into a registered account (`to`). The type of operation is conveyed by `from` being the zero address or not. This call occurs _after_ the token contract's state is updated, so {IERC777-balanceOf}, etc., can be used to query the post-operation state. This function may revert to prevent the operation from being executed."
      },
      "tokensToSend(address,address,address,uint256,bytes,bytes)": {
        "details": "Called by an {IERC777} token contract whenever a registered holder's (`from`) tokens are about to be moved or destroyed. The type of operation is conveyed by `to` being the zero address or not. This call occurs _before_ the token contract's state is updated, so {IERC777-balanceOf}, etc., can be used to query the pre-operation state. This function may revert to prevent the operation from being executed."
      }
    },
    "version": 1
  },
  "opcodes": "PUSH1 0x80 PUSH1 0x40 MSTORE CALLVALUE DUP1 ISZERO PUSH2 0x10 JUMPI PUSH1 0x0 DUP1 REVERT JUMPDEST POP PUSH1 0x4 CALLDATASIZE LT PUSH2 0xA8 JUMPI PUSH1 0x0 CALLDATALOAD PUSH1 0xE0 SHR DUP1 PUSH4 0x75AB9782 GT PUSH2 0x71 JUMPI DUP1 PUSH4 0x75AB9782 EQ PUSH2 0x36F JUMPI DUP1 PUSH4 0xA8BADAA5 EQ PUSH2 0x455 JUMPI DUP1 PUSH4 0xC97E18FC EQ PUSH2 0x47B JUMPI DUP1 PUSH4 0xD2DE6474 EQ PUSH2 0x49A JUMPI DUP1 PUSH4 0xE0EB2180 EQ PUSH2 0x4C0 JUMPI DUP1 PUSH4 0xE1ECBD30 EQ PUSH2 0x4E6 JUMPI PUSH2 0xA8 JUMP JUMPDEST DUP1 PUSH3 0x23DE29 EQ PUSH2 0xAD JUMPI DUP1 PUSH4 0x249CB3FA EQ PUSH2 0x195 JUMPI DUP1 PUSH4 0x3836EF89 EQ PUSH2 0x1D3 JUMPI DUP1 PUSH4 0x44D17187 EQ PUSH2 0x297 JUMPI DUP1 PUSH4 0x4E4AE5A5 EQ PUSH2 0x350 JUMPI JUMPDEST PUSH1 0x0 DUP1 REVERT JUMPDEST PUSH2 0x193 PUSH1 0x4 DUP1 CALLDATASIZE SUB PUSH1 0xC0 DUP2 LT ISZERO PUSH2 0xC3 JUMPI PUSH1 0x0 DUP1 REVERT JUMPDEST PUSH1 0x1 PUSH1 0x1 PUSH1 0xA0 SHL SUB DUP3 CALLDATALOAD DUP2 AND SWAP3 PUSH1 0x20 DUP2 ADD CALLDATALOAD DUP3 AND SWAP3 PUSH1 0x40 DUP3 ADD CALLDATALOAD SWAP1 SWAP3 AND SWAP2 PUSH1 0x60 DUP3 ADD CALLDATALOAD SWAP2 SWAP1 DUP2 ADD SWAP1 PUSH1 0xA0 DUP2 ADD PUSH1 0x80 DUP3 ADD CALLDATALOAD PUSH1 0x1 PUSH1 0x20 SHL DUP2 GT ISZERO PUSH2 0x105 JUMPI PUSH1 0x0 DUP1 REVERT JUMPDEST DUP3 ADD DUP4 PUSH1 0x20 DUP3 ADD GT ISZERO PUSH2 0x117 JUMPI PUSH1 0x0 DUP1 REVERT JUMPDEST DUP1 CALLDATALOAD SWAP1 PUSH1 0x20 ADD SWAP2 DUP5 PUSH1 0x1 DUP4 MUL DUP5 ADD GT PUSH1 0x1 PUSH1 0x20 SHL DUP4 GT OR ISZERO PUSH2 0x138 JUMPI PUSH1 0x0 DUP1 REVERT JUMPDEST SWAP2 SWAP4 SWAP1 SWAP3 SWAP1 SWAP2 PUSH1 0x20 DUP2 ADD SWAP1 CALLDATALOAD PUSH1 0x1 PUSH1 0x20 SHL DUP2 GT ISZERO PUSH2 0x155 JUMPI PUSH1 0x0 DUP1 REVERT JUMPDEST DUP3 ADD DUP4 PUSH1 0x20 DUP3 ADD GT ISZERO PUSH2 0x167 JUMPI PUSH1 0x0 DUP1 REVERT JUMPDEST DUP1 CALLDATALOAD SWAP1 PUSH1 0x20 ADD SWAP2 DUP5 PUSH1 0x1 DUP4 MUL DUP5 ADD GT PUSH1 0x1 PUSH1 0x20 SHL DUP4 GT OR ISZERO PUSH2 0x188 JUMPI PUSH1 0x0 DUP1 REVERT JUMPDEST POP SWAP1 SWAP3 POP SWAP1 POP PUSH2 0x50C JUMP JUMPDEST STOP JUMPDEST PUSH2 0x1C1 PUSH1 0x4 DUP1 CALLDATASIZE SUB PUSH1 0x40 DUP2 LT ISZERO PUSH2 0x1AB JUMPI PUSH1 0x0 DUP1 REVERT JUMPDEST POP DUP1 CALLDATALOAD SWAP1 PUSH1 0x20 ADD CALLDATALOAD PUSH1 0x1 PUSH1 0x1 PUSH1 0xA0 SHL SUB AND PUSH2 0x72A JUMP JUMPDEST PUSH1 0x40 DUP1 MLOAD SWAP2 DUP3 MSTORE MLOAD SWAP1 DUP2 SWAP1 SUB PUSH1 0x20 ADD SWAP1 RETURN JUMPDEST PUSH2 0x193 PUSH1 0x4 DUP1 CALLDATASIZE SUB PUSH1 0x80 DUP2 LT ISZERO PUSH2 0x1E9 JUMPI PUSH1 0x0 DUP1 REVERT JUMPDEST PUSH1 0x1 PUSH1 0x1 PUSH1 0xA0 SHL SUB DUP3 CALLDATALOAD DUP2 AND SWAP3 PUSH1 0x20 DUP2 ADD CALLDATALOAD SWAP1 SWAP2 AND SWAP2 PUSH1 0x40 DUP3 ADD CALLDATALOAD SWAP2 SWAP1 DUP2 ADD SWAP1 PUSH1 0x80 DUP2 ADD PUSH1 0x60 DUP3 ADD CALLDATALOAD PUSH1 0x1 PUSH1 0x20 SHL DUP2 GT ISZERO PUSH2 0x223 JUMPI PUSH1 0x0 DUP1 REVERT JUMPDEST DUP3 ADD DUP4 PUSH1 0x20 DUP3 ADD GT ISZERO PUSH2 0x235 JUMPI PUSH1 0x0 DUP1 REVERT JUMPDEST DUP1 CALLDATALOAD SWAP1 PUSH1 0x20 ADD SWAP2 DUP5 PUSH1 0x1 DUP4 MUL DUP5 ADD GT PUSH1 0x1 PUSH1 0x20 SHL DUP4 GT OR ISZERO PUSH2 0x256 JUMPI PUSH1 0x0 DUP1 REVERT JUMPDEST SWAP2 SWAP1 DUP1 DUP1 PUSH1 0x1F ADD PUSH1 0x20 DUP1 SWAP2 DIV MUL PUSH1 0x20 ADD PUSH1 0x40 MLOAD SWAP1 DUP2 ADD PUSH1 0x40 MSTORE DUP1 SWAP4 SWAP3 SWAP2 SWAP1 DUP2 DUP2 MSTORE PUSH1 0x20 ADD DUP4 DUP4 DUP1 DUP3 DUP5 CALLDATACOPY PUSH1 0x0 SWAP3 ADD SWAP2 SWAP1 SWAP2 MSTORE POP SWAP3 SWAP6 POP PUSH2 0x79F SWAP5 POP POP POP POP POP JUMP JUMPDEST PUSH2 0x193 PUSH1 0x4 DUP1 CALLDATASIZE SUB PUSH1 0x60 DUP2 LT ISZERO PUSH2 0x2AD JUMPI PUSH1 0x0 DUP1 REVERT JUMPDEST PUSH1 0x1 PUSH1 0x1 PUSH1 0xA0 SHL SUB DUP3 CALLDATALOAD AND SWAP2 PUSH1 0x20 DUP2 ADD CALLDATALOAD SWAP2 DUP2 ADD SWAP1 PUSH1 0x60 DUP2 ADD PUSH1 0x40 DUP3 ADD CALLDATALOAD PUSH1 0x1 PUSH1 0x20 SHL DUP2 GT ISZERO PUSH2 0x2DC JUMPI PUSH1 0x0 DUP1 REVERT JUMPDEST DUP3 ADD DUP4 PUSH1 0x20 DUP3 ADD GT ISZERO PUSH2 0x2EE JUMPI PUSH1 0x0 DUP1 REVERT JUMPDEST DUP1 CALLDATALOAD SWAP1 PUSH1 0x20 ADD SWAP2 DUP5 PUSH1 0x1 DUP4 MUL DUP5 ADD GT PUSH1 0x1 PUSH1 0x20 SHL DUP4 GT OR ISZERO PUSH2 0x30F JUMPI PUSH1 0x0 DUP1 REVERT JUMPDEST SWAP2 SWAP1 DUP1 DUP1 PUSH1 0x1F ADD PUSH1 0x20 DUP1 SWAP2 DIV MUL PUSH1 0x20 ADD PUSH1 0x40 MLOAD SWAP1 DUP2 ADD PUSH1 0x40 MSTORE DUP1 SWAP4 SWAP3 SWAP2 SWAP1 DUP2 DUP2 MSTORE PUSH1 0x20 ADD DUP4 DUP4 DUP1 DUP3 DUP5 CALLDATACOPY PUSH1 0x0 SWAP3 ADD SWAP2 SWAP1 SWAP2 MSTORE POP SWAP3 SWAP6 POP PUSH2 0x87E SWAP5 POP POP POP POP POP JUMP JUMPDEST PUSH2 0x193 PUSH1 0x4 DUP1 CALLDATASIZE SUB PUSH1 0x20 DUP2 LT ISZERO PUSH2 0x366 JUMPI PUSH1 0x0 DUP1 REVERT JUMPDEST POP CALLDATALOAD ISZERO ISZERO PUSH2 0x94C JUMP JUMPDEST PUSH2 0x193 PUSH1 0x4 DUP1 CALLDATASIZE SUB PUSH1 0xC0 DUP2 LT ISZERO PUSH2 0x385 JUMPI PUSH1 0x0 DUP1 REVERT JUMPDEST PUSH1 0x1 PUSH1 0x1 PUSH1 0xA0 SHL SUB DUP3 CALLDATALOAD DUP2 AND SWAP3 PUSH1 0x20 DUP2 ADD CALLDATALOAD DUP3 AND SWAP3 PUSH1 0x40 DUP3 ADD CALLDATALOAD SWAP1 SWAP3 AND SWAP2 PUSH1 0x60 DUP3 ADD CALLDATALOAD SWAP2 SWAP1 DUP2 ADD SWAP1 PUSH1 0xA0 DUP2 ADD PUSH1 0x80 DUP3 ADD CALLDATALOAD PUSH1 0x1 PUSH1 0x20 SHL DUP2 GT ISZERO PUSH2 0x3C7 JUMPI PUSH1 0x0 DUP1 REVERT JUMPDEST DUP3 ADD DUP4 PUSH1 0x20 DUP3 ADD GT ISZERO PUSH2 0x3D9 JUMPI PUSH1 0x0 DUP1 REVERT JUMPDEST DUP1 CALLDATALOAD SWAP1 PUSH1 0x20 ADD SWAP2 DUP5 PUSH1 0x1 DUP4 MUL DUP5 ADD GT PUSH1 0x1 PUSH1 0x20 SHL DUP4 GT OR ISZERO PUSH2 0x3FA JUMPI PUSH1 0x0 DUP1 REVERT JUMPDEST SWAP2 SWAP4 SWAP1 SWAP3 SWAP1 SWAP2 PUSH1 0x20 DUP2 ADD SWAP1 CALLDATALOAD PUSH1 0x1 PUSH1 0x20 SHL DUP2 GT ISZERO PUSH2 0x417 JUMPI PUSH1 0x0 DUP1 REVERT JUMPDEST DUP3 ADD DUP4 PUSH1 0x20 DUP3 ADD GT ISZERO PUSH2 0x429 JUMPI PUSH1 0x0 DUP1 REVERT JUMPDEST DUP1 CALLDATALOAD SWAP1 PUSH1 0x20 ADD SWAP2 DUP5 PUSH1 0x1 DUP4 MUL DUP5 ADD GT PUSH1 0x1 PUSH1 0x20 SHL DUP4 GT OR ISZERO PUSH2 0x44A JUMPI PUSH1 0x0 DUP1 REVERT JUMPDEST POP SWAP1 SWAP3 POP SWAP1 POP PUSH2 0x95F JUMP JUMPDEST PUSH2 0x193 PUSH1 0x4 DUP1 CALLDATASIZE SUB PUSH1 0x20 DUP2 LT ISZERO PUSH2 0x46B JUMPI PUSH1 0x0 DUP1 REVERT JUMPDEST POP CALLDATALOAD PUSH1 0x1 PUSH1 0x1 PUSH1 0xA0 SHL SUB AND PUSH2 0xB78 JUMP JUMPDEST PUSH2 0x193 PUSH1 0x4 DUP1 CALLDATASIZE SUB PUSH1 0x20 DUP2 LT ISZERO PUSH2 0x491 JUMPI PUSH1 0x0 DUP1 REVERT JUMPDEST POP CALLDATALOAD ISZERO ISZERO PUSH2 0xC14 JUMP JUMPDEST PUSH2 0x193 PUSH1 0x4 DUP1 CALLDATASIZE SUB PUSH1 0x20 DUP2 LT ISZERO PUSH2 0x4B0 JUMPI PUSH1 0x0 DUP1 REVERT JUMPDEST POP CALLDATALOAD PUSH1 0x1 PUSH1 0x1 PUSH1 0xA0 SHL SUB AND PUSH2 0xC2E JUMP JUMPDEST PUSH2 0x193 PUSH1 0x4 DUP1 CALLDATASIZE SUB PUSH1 0x20 DUP2 LT ISZERO PUSH2 0x4D6 JUMPI PUSH1 0x0 DUP1 REVERT JUMPDEST POP CALLDATALOAD PUSH1 0x1 PUSH1 0x1 PUSH1 0xA0 SHL SUB AND PUSH2 0xC77 JUMP JUMPDEST PUSH2 0x193 PUSH1 0x4 DUP1 CALLDATASIZE SUB PUSH1 0x20 DUP2 LT ISZERO PUSH2 0x4FC JUMPI PUSH1 0x0 DUP1 REVERT JUMPDEST POP CALLDATALOAD PUSH1 0x1 PUSH1 0x1 PUSH1 0xA0 SHL SUB AND PUSH2 0xCBC JUMP JUMPDEST PUSH1 0x1 SLOAD PUSH2 0x100 SWAP1 DIV PUSH1 0xFF AND ISZERO PUSH2 0x521 JUMPI PUSH1 0x0 DUP1 REVERT JUMPDEST PUSH1 0x0 PUSH2 0x52B PUSH2 0xD3D JUMP JUMPDEST SWAP1 POP PUSH1 0x0 DUP2 PUSH1 0x1 PUSH1 0x1 PUSH1 0xA0 SHL SUB AND PUSH4 0x70A08231 DUP11 PUSH1 0x40 MLOAD DUP3 PUSH4 0xFFFFFFFF AND PUSH1 0xE0 SHL DUP2 MSTORE PUSH1 0x4 ADD DUP1 DUP3 PUSH1 0x1 PUSH1 0x1 PUSH1 0xA0 SHL SUB AND DUP2 MSTORE PUSH1 0x20 ADD SWAP2 POP POP PUSH1 0x20 PUSH1 0x40 MLOAD DUP1 DUP4 SUB DUP2 DUP7 DUP1 EXTCODESIZE ISZERO DUP1 ISZERO PUSH2 0x57C JUMPI PUSH1 0x0 DUP1 REVERT JUMPDEST POP GAS STATICCALL ISZERO DUP1 ISZERO PUSH2 0x590 JUMPI RETURNDATASIZE PUSH1 0x0 DUP1 RETURNDATACOPY RETURNDATASIZE PUSH1 0x0 REVERT JUMPDEST POP POP POP POP PUSH1 0x40 MLOAD RETURNDATASIZE PUSH1 0x20 DUP2 LT ISZERO PUSH2 0x5A6 JUMPI PUSH1 0x0 DUP1 REVERT JUMPDEST POP MLOAD PUSH1 0x40 DUP1 MLOAD PUSH4 0x70A08231 PUSH1 0xE0 SHL DUP2 MSTORE PUSH1 0x1 PUSH1 0x1 PUSH1 0xA0 SHL SUB DUP12 DUP2 AND PUSH1 0x4 DUP4 ADD MSTORE SWAP2 MLOAD SWAP3 SWAP4 POP PUSH1 0x0 SWAP3 SWAP2 DUP6 AND SWAP2 PUSH4 0x70A08231 SWAP2 PUSH1 0x24 DUP1 DUP3 ADD SWAP3 PUSH1 0x20 SWAP3 SWAP1 SWAP2 SWAP1 DUP3 SWAP1 SUB ADD DUP2 DUP7 DUP1 EXTCODESIZE ISZERO DUP1 ISZERO PUSH2 0x5F8 JUMPI PUSH1 0x0 DUP1 REVERT JUMPDEST POP GAS STATICCALL ISZERO DUP1 ISZERO PUSH2 0x60C JUMPI RETURNDATASIZE PUSH1 0x0 DUP1 RETURNDATACOPY RETURNDATASIZE PUSH1 0x0 REVERT JUMPDEST POP POP POP POP PUSH1 0x40 MLOAD RETURNDATASIZE PUSH1 0x20 DUP2 LT ISZERO PUSH2 0x622 JUMPI PUSH1 0x0 DUP1 REVERT JUMPDEST DUP2 ADD SWAP1 DUP1 DUP1 MLOAD SWAP1 PUSH1 0x20 ADD SWAP1 SWAP3 SWAP2 SWAP1 POP POP POP SWAP1 POP PUSH32 0x47E915878C47F3EC4D7FF646A2BECB229F64FD2ABE4D2B5E2BB4275B0CF50D4E DUP12 DUP12 DUP12 DUP12 DUP12 DUP12 DUP12 DUP12 DUP12 DUP12 DUP12 PUSH1 0x40 MLOAD DUP1 DUP13 PUSH1 0x1 PUSH1 0x1 PUSH1 0xA0 SHL SUB AND DUP2 MSTORE PUSH1 0x20 ADD DUP12 PUSH1 0x1 PUSH1 0x1 PUSH1 0xA0 SHL SUB AND DUP2 MSTORE PUSH1 0x20 ADD DUP11 PUSH1 0x1 PUSH1 0x1 PUSH1 0xA0 SHL SUB AND DUP2 MSTORE PUSH1 0x20 ADD DUP10 DUP2 MSTORE PUSH1 0x20 ADD DUP1 PUSH1 0x20 ADD DUP1 PUSH1 0x20 ADD DUP7 PUSH1 0x1 PUSH1 0x1 PUSH1 0xA0 SHL SUB AND DUP2 MSTORE PUSH1 0x20 ADD DUP6 DUP2 MSTORE PUSH1 0x20 ADD DUP5 DUP2 MSTORE PUSH1 0x20 ADD DUP4 DUP2 SUB DUP4 MSTORE DUP11 DUP11 DUP3 DUP2 DUP2 MSTORE PUSH1 0x20 ADD SWAP3 POP DUP1 DUP3 DUP5 CALLDATACOPY PUSH1 0x0 DUP4 DUP3 ADD MSTORE PUSH1 0x1F ADD PUSH1 0x1F NOT AND SWAP1 SWAP2 ADD DUP5 DUP2 SUB DUP4 MSTORE DUP9 DUP2 MSTORE PUSH1 0x20 ADD SWAP1 POP DUP9 DUP9 DUP1 DUP3 DUP5 CALLDATACOPY PUSH1 0x0 DUP4 DUP3 ADD MSTORE PUSH1 0x40 MLOAD PUSH1 0x1F SWAP1 SWAP2 ADD PUSH1 0x1F NOT AND SWAP1 SWAP3 ADD DUP3 SWAP1 SUB SWAP16 POP SWAP1 SWAP14 POP POP POP POP POP POP POP POP POP POP POP POP POP POP LOG1 POP POP POP POP POP POP POP POP POP POP POP JUMP JUMPDEST PUSH1 0x0 DUP3 DUP2 MSTORE PUSH1 0x20 DUP2 DUP2 MSTORE PUSH1 0x40 DUP1 DUP4 KECCAK256 PUSH1 0x1 PUSH1 0x1 PUSH1 0xA0 SHL SUB DUP6 AND DUP5 MSTORE SWAP1 SWAP2 MSTORE DUP2 KECCAK256 SLOAD PUSH1 0xFF AND PUSH2 0x759 JUMPI PUSH1 0x0 PUSH2 0x798 JUMP JUMPDEST PUSH1 0x40 MLOAD PUSH1 0x20 ADD DUP1 DUP1 PUSH20 0x455243313832305F4143434550545F4D41474943 PUSH1 0x60 SHL DUP2 MSTORE POP PUSH1 0x14 ADD SWAP1 POP PUSH1 0x40 MLOAD PUSH1 0x20 DUP2 DUP4 SUB SUB DUP2 MSTORE SWAP1 PUSH1 0x40 MSTORE DUP1 MLOAD SWAP1 PUSH1 0x20 ADD KECCAK256 JUMPDEST SWAP4 SWAP3 POP POP POP JUMP JUMPDEST DUP4 PUSH1 0x1 PUSH1 0x1 PUSH1 0xA0 SHL SUB AND PUSH4 0x9BD9BBC6 DUP5 DUP5 DUP5 PUSH1 0x40 MLOAD DUP5 PUSH4 0xFFFFFFFF AND PUSH1 0xE0 SHL DUP2 MSTORE PUSH1 0x4 ADD DUP1 DUP5 PUSH1 0x1 PUSH1 0x1 PUSH1 0xA0 SHL SUB AND DUP2 MSTORE PUSH1 0x20 ADD DUP4 DUP2 MSTORE PUSH1 0x20 ADD DUP1 PUSH1 0x20 ADD DUP3 DUP2 SUB DUP3 MSTORE DUP4 DUP2 DUP2 MLOAD DUP2 MSTORE PUSH1 0x20 ADD SWAP2 POP DUP1 MLOAD SWAP1 PUSH1 0x20 ADD SWAP1 DUP1 DUP4 DUP4 PUSH1 0x0 JUMPDEST DUP4 DUP2 LT ISZERO PUSH2 0x812 JUMPI DUP2 DUP2 ADD MLOAD DUP4 DUP3 ADD MSTORE PUSH1 0x20 ADD PUSH2 0x7FA JUMP JUMPDEST POP POP POP POP SWAP1 POP SWAP1 DUP2 ADD SWAP1 PUSH1 0x1F AND DUP1 ISZERO PUSH2 0x83F JUMPI DUP1 DUP3 SUB DUP1 MLOAD PUSH1 0x1 DUP4 PUSH1 0x20 SUB PUSH2 0x100 EXP SUB NOT AND DUP2 MSTORE PUSH1 0x20 ADD SWAP2 POP JUMPDEST POP SWAP5 POP POP POP POP POP PUSH1 0x0 PUSH1 0x40 MLOAD DUP1 DUP4 SUB DUP2 PUSH1 0x0 DUP8 DUP1 EXTCODESIZE ISZERO DUP1 ISZERO PUSH2 0x860 JUMPI PUSH1 0x0 DUP1 REVERT JUMPDEST POP GAS CALL ISZERO DUP1 ISZERO PUSH2 0x874 JUMPI RETURNDATASIZE PUSH1 0x0 DUP1 RETURNDATACOPY RETURNDATASIZE PUSH1 0x0 REVERT JUMPDEST POP POP POP POP POP POP POP POP JUMP JUMPDEST PUSH1 0x40 DUP1 MLOAD PUSH4 0xFE9D9303 PUSH1 0xE0 SHL DUP2 MSTORE PUSH1 0x4 DUP2 ADD DUP5 DUP2 MSTORE PUSH1 0x24 DUP3 ADD SWAP3 DUP4 MSTORE DUP4 MLOAD PUSH1 0x44 DUP4 ADD MSTORE DUP4 MLOAD PUSH1 0x1 PUSH1 0x1 PUSH1 0xA0 SHL SUB DUP8 AND SWAP4 PUSH4 0xFE9D9303 SWAP4 DUP8 SWAP4 DUP8 SWAP4 SWAP1 SWAP3 SWAP2 PUSH1 0x64 ADD SWAP1 PUSH1 0x20 DUP6 ADD SWAP1 DUP1 DUP4 DUP4 PUSH1 0x0 JUMPDEST DUP4 DUP2 LT ISZERO PUSH2 0x8E2 JUMPI DUP2 DUP2 ADD MLOAD DUP4 DUP3 ADD MSTORE PUSH1 0x20 ADD PUSH2 0x8CA JUMP JUMPDEST POP POP POP POP SWAP1 POP SWAP1 DUP2 ADD SWAP1 PUSH1 0x1F AND DUP1 ISZERO PUSH2 0x90F JUMPI DUP1 DUP3 SUB DUP1 MLOAD PUSH1 0x1 DUP4 PUSH1 0x20 SUB PUSH2 0x100 EXP SUB NOT AND DUP2 MSTORE PUSH1 0x20 ADD SWAP2 POP JUMPDEST POP SWAP4 POP POP POP POP PUSH1 0x0 PUSH1 0x40 MLOAD DUP1 DUP4 SUB DUP2 PUSH1 0x0 DUP8 DUP1 EXTCODESIZE ISZERO DUP1 ISZERO PUSH2 0x92F JUMPI PUSH1 0x0 DUP1 REVERT JUMPDEST POP GAS CALL ISZERO DUP1 ISZERO PUSH2 0x943 JUMPI RETURNDATASIZE PUSH1 0x0 DUP1 RETURNDATACOPY RETURNDATASIZE PUSH1 0x0 REVERT JUMPDEST POP POP POP POP POP POP POP JUMP JUMPDEST PUSH1 0x1 DUP1 SLOAD PUSH1 0xFF NOT AND SWAP2 ISZERO ISZERO SWAP2 SWAP1 SWAP2 OR SWAP1 SSTORE JUMP JUMPDEST PUSH1 0x1 SLOAD PUSH1 0xFF AND ISZERO PUSH2 0x96F JUMPI PUSH1 0x0 DUP1 REVERT JUMPDEST PUSH1 0x0 PUSH2 0x979 PUSH2 0xD3D JUMP JUMPDEST SWAP1 POP PUSH1 0x0 DUP2 PUSH1 0x1 PUSH1 0x1 PUSH1 0xA0 SHL SUB AND PUSH4 0x70A08231 DUP11 PUSH1 0x40 MLOAD DUP3 PUSH4 0xFFFFFFFF AND PUSH1 0xE0 SHL DUP2 MSTORE PUSH1 0x4 ADD DUP1 DUP3 PUSH1 0x1 PUSH1 0x1 PUSH1 0xA0 SHL SUB AND DUP2 MSTORE PUSH1 0x20 ADD SWAP2 POP POP PUSH1 0x20 PUSH1 0x40 MLOAD DUP1 DUP4 SUB DUP2 DUP7 DUP1 EXTCODESIZE ISZERO DUP1 ISZERO PUSH2 0x9CA JUMPI PUSH1 0x0 DUP1 REVERT JUMPDEST POP GAS STATICCALL ISZERO DUP1 ISZERO PUSH2 0x9DE JUMPI RETURNDATASIZE PUSH1 0x0 DUP1 RETURNDATACOPY RETURNDATASIZE PUSH1 0x0 REVERT JUMPDEST POP POP POP POP PUSH1 0x40 MLOAD RETURNDATASIZE PUSH1 0x20 DUP2 LT ISZERO PUSH2 0x9F4 JUMPI PUSH1 0x0 DUP1 REVERT JUMPDEST POP MLOAD PUSH1 0x40 DUP1 MLOAD PUSH4 0x70A08231 PUSH1 0xE0 SHL DUP2 MSTORE PUSH1 0x1 PUSH1 0x1 PUSH1 0xA0 SHL SUB DUP12 DUP2 AND PUSH1 0x4 DUP4 ADD MSTORE SWAP2 MLOAD SWAP3 SWAP4 POP PUSH1 0x0 SWAP3 SWAP2 DUP6 AND SWAP2 PUSH4 0x70A08231 SWAP2 PUSH1 0x24 DUP1 DUP3 ADD SWAP3 PUSH1 0x20 SWAP3 SWAP1 SWAP2 SWAP1 DUP3 SWAP1 SUB ADD DUP2 DUP7 DUP1 EXTCODESIZE ISZERO DUP1 ISZERO PUSH2 0xA46 JUMPI PUSH1 0x0 DUP1 REVERT JUMPDEST POP GAS STATICCALL ISZERO DUP1 ISZERO PUSH2 0xA5A JUMPI RETURNDATASIZE PUSH1 0x0 DUP1 RETURNDATACOPY RETURNDATASIZE PUSH1 0x0 REVERT JUMPDEST POP POP POP POP PUSH1 0x40 MLOAD RETURNDATASIZE PUSH1 0x20 DUP2 LT ISZERO PUSH2 0xA70 JUMPI PUSH1 0x0 DUP1 REVERT JUMPDEST DUP2 ADD SWAP1 DUP1 DUP1 MLOAD SWAP1 PUSH1 0x20 ADD SWAP1 SWAP3 SWAP2 SWAP1 POP POP POP SWAP1 POP PUSH32 0xAA3E88ACA472E90221DAF7D3D601ABAFB62B120319089D7A2C2F63588DA85529 DUP12 DUP12 DUP12 DUP12 DUP12 DUP12 DUP12 DUP12 DUP12 DUP12 DUP12 PUSH1 0x40 MLOAD DUP1 DUP13 PUSH1 0x1 PUSH1 0x1 PUSH1 0xA0 SHL SUB AND DUP2 MSTORE PUSH1 0x20 ADD DUP12 PUSH1 0x1 PUSH1 0x1 PUSH1 0xA0 SHL SUB AND DUP2 MSTORE PUSH1 0x20 ADD DUP11 PUSH1 0x1 PUSH1 0x1 PUSH1 0xA0 SHL SUB AND DUP2 MSTORE PUSH1 0x20 ADD DUP10 DUP2 MSTORE PUSH1 0x20 ADD DUP1 PUSH1 0x20 ADD DUP1 PUSH1 0x20 ADD DUP7 PUSH1 0x1 PUSH1 0x1 PUSH1 0xA0 SHL SUB AND DUP2 MSTORE PUSH1 0x20 ADD DUP6 DUP2 MSTORE PUSH1 0x20 ADD DUP5 DUP2 MSTORE PUSH1 0x20 ADD DUP4 DUP2 SUB DUP4 MSTORE DUP11 DUP11 DUP3 DUP2 DUP2 MSTORE PUSH1 0x20 ADD SWAP3 POP DUP1 DUP3 DUP5 CALLDATACOPY PUSH1 0x0 DUP4 DUP3 ADD MSTORE PUSH1 0x1F ADD PUSH1 0x1F NOT AND SWAP1 SWAP2 ADD DUP5 DUP2 SUB DUP4 MSTORE DUP9 DUP2 MSTORE PUSH1 0x20 ADD SWAP1 POP DUP9 DUP9 DUP1 DUP3 DUP5 CALLDATACOPY PUSH1 0x0 DUP4 DUP3 ADD MSTORE PUSH1 0x40 MLOAD PUSH1 0x1F SWAP1 SWAP2 ADD PUSH1 0x1F NOT AND SWAP1 SWAP3 ADD DUP3 SWAP1 SUB SWAP16 POP SWAP1 SWAP14 POP POP POP POP POP POP POP POP POP POP POP POP POP POP LOG1 POP POP POP POP POP POP POP POP POP POP POP JUMP JUMPDEST PUSH1 0x1 SLOAD PUSH1 0x40 DUP1 MLOAD PUSH4 0x29965A1D PUSH1 0xE0 SHL DUP2 MSTORE ADDRESS PUSH1 0x4 DUP3 ADD MSTORE PUSH32 0xB281FC8C12954D22544DB45DE3159A39272895B169A852B314F9CC762E44C53B PUSH1 0x24 DUP3 ADD MSTORE PUSH1 0x1 PUSH1 0x1 PUSH1 0xA0 SHL SUB DUP5 DUP2 AND PUSH1 0x44 DUP4 ADD MSTORE SWAP2 MLOAD PUSH3 0x10000 SWAP1 SWAP4 DIV SWAP1 SWAP2 AND SWAP2 PUSH4 0x29965A1D SWAP2 PUSH1 0x64 DUP1 DUP3 ADD SWAP3 PUSH1 0x0 SWAP3 SWAP1 SWAP2 SWAP1 DUP3 SWAP1 SUB ADD DUP2 DUP4 DUP8 DUP1 EXTCODESIZE ISZERO DUP1 ISZERO PUSH2 0xBF9 JUMPI PUSH1 0x0 DUP1 REVERT JUMPDEST POP GAS CALL ISZERO DUP1 ISZERO PUSH2 0xC0D JUMPI RETURNDATASIZE PUSH1 0x0 DUP1 RETURNDATACOPY RETURNDATASIZE PUSH1 0x0 REVERT JUMPDEST POP POP POP POP POP JUMP JUMPDEST PUSH1 0x1 DUP1 SLOAD SWAP2 ISZERO ISZERO PUSH2 0x100 MUL PUSH2 0xFF00 NOT SWAP1 SWAP3 AND SWAP2 SWAP1 SWAP2 OR SWAP1 SSTORE JUMP JUMPDEST PUSH2 0xC58 PUSH32 0x29DDB589B1FB5FC7CF394961C1ADF5F8C6454761ADF795E67FE149F658ABE895 DUP3 PUSH2 0xD41 JUMP JUMPDEST ADDRESS PUSH1 0x1 PUSH1 0x1 PUSH1 0xA0 SHL SUB DUP3 AND DUP2 EQ ISZERO PUSH2 0xC73 JUMPI PUSH2 0xC73 DUP2 PUSH2 0xCBC JUMP JUMPDEST POP POP JUMP JUMPDEST PUSH2 0xCA1 PUSH32 0xB281FC8C12954D22544DB45DE3159A39272895B169A852B314F9CC762E44C53B DUP3 PUSH2 0xD41 JUMP JUMPDEST ADDRESS PUSH1 0x1 PUSH1 0x1 PUSH1 0xA0 SHL SUB DUP3 AND DUP2 EQ ISZERO PUSH2 0xC73 JUMPI PUSH2 0xC73 DUP2 PUSH2 0xB78 JUMP JUMPDEST PUSH1 0x1 SLOAD PUSH1 0x40 DUP1 MLOAD PUSH4 0x29965A1D PUSH1 0xE0 SHL DUP2 MSTORE ADDRESS PUSH1 0x4 DUP3 ADD MSTORE PUSH32 0x29DDB589B1FB5FC7CF394961C1ADF5F8C6454761ADF795E67FE149F658ABE895 PUSH1 0x24 DUP3 ADD MSTORE PUSH1 0x1 PUSH1 0x1 PUSH1 0xA0 SHL SUB DUP5 DUP2 AND PUSH1 0x44 DUP4 ADD MSTORE SWAP2 MLOAD PUSH3 0x10000 SWAP1 SWAP4 DIV SWAP1 SWAP2 AND SWAP2 PUSH4 0x29965A1D SWAP2 PUSH1 0x64 DUP1 DUP3 ADD SWAP3 PUSH1 0x0 SWAP3 SWAP1 SWAP2 SWAP1 DUP3 SWAP1 SUB ADD DUP2 DUP4 DUP8 DUP1 EXTCODESIZE ISZERO DUP1 ISZERO PUSH2 0xBF9 JUMPI PUSH1 0x0 DUP1 REVERT JUMPDEST CALLER SWAP1 JUMP JUMPDEST PUSH1 0x0 SWAP2 DUP3 MSTORE PUSH1 0x20 DUP3 DUP2 MSTORE PUSH1 0x40 DUP1 DUP5 KECCAK256 PUSH1 0x1 PUSH1 0x1 PUSH1 0xA0 SHL SUB SWAP1 SWAP4 AND DUP5 MSTORE SWAP2 SWAP1 MSTORE SWAP1 KECCAK256 DUP1 SLOAD PUSH1 0xFF NOT AND PUSH1 0x1 OR SWAP1 SSTORE JUMP INVALID LOG2 PUSH5 0x6970667358 0x22 SLT KECCAK256 0xBF 0x2E LOG1 GAS 0x2F 0xDF 0x26 SDIV PUSH13 0x304485D912C00C196B55A6B41D STATICCALL PUSH24 0x3714C9A6B9A2DB9264736F6C634300060C00330000000000 ",
  "sha1": "0bf437126f520a6247ecca1acbca3a1e38d356de",
  "source": "pragma solidity ^0.6.0;\n\nimport \"../GSN/Context.sol\";\nimport \"../token/ERC777/IERC777.sol\";\nimport \"../token/ERC777/IERC777Sender.sol\";\nimport \"../token/ERC777/IERC777Recipient.sol\";\nimport \"../introspection/IERC1820Registry.sol\";\nimport \"../introspection/ERC1820Implementer.sol\";\n\ncontract ERC777SenderRecipientMock is Context, IERC777Sender, IERC777Recipient, ERC1820Implementer {\n    event TokensToSendCalled(\n        address operator,\n        address from,\n        address to,\n        uint256 amount,\n        bytes data,\n        bytes operatorData,\n        address token,\n        uint256 fromBalance,\n        uint256 toBalance\n    );\n\n    event TokensReceivedCalled(\n        address operator,\n        address from,\n        address to,\n        uint256 amount,\n        bytes data,\n        bytes operatorData,\n        address token,\n        uint256 fromBalance,\n        uint256 toBalance\n    );\n\n    bool private _shouldRevertSend;\n    bool private _shouldRevertReceive;\n\n    IERC1820Registry private _erc1820 = IERC1820Registry(0x1820a4B7618BdE71Dce8cdc73aAB6C95905faD24);\n\n    bytes32 constant private _TOKENS_SENDER_INTERFACE_HASH = keccak256(\"ERC777TokensSender\");\n    bytes32 constant private _TOKENS_RECIPIENT_INTERFACE_HASH = keccak256(\"ERC777TokensRecipient\");\n\n    function tokensToSend(\n        address operator,\n        address from,\n        address to,\n        uint256 amount,\n        bytes calldata userData,\n        bytes calldata operatorData\n    ) external override {\n        if (_shouldRevertSend) {\n            revert();\n        }\n\n        IERC777 token = IERC777(_msgSender());\n\n        uint256 fromBalance = token.balanceOf(from);\n        // when called due to burn, to will be the zero address, which will have a balance of 0\n        uint256 toBalance = token.balanceOf(to);\n\n        emit TokensToSendCalled(\n            operator,\n            from,\n            to,\n            amount,\n            userData,\n            operatorData,\n            address(token),\n            fromBalance,\n            toBalance\n        );\n    }\n\n    function tokensReceived(\n        address operator,\n        address from,\n        address to,\n        uint256 amount,\n        bytes calldata userData,\n        bytes calldata operatorData\n    ) external override {\n        if (_shouldRevertReceive) {\n            revert();\n        }\n\n        IERC777 token = IERC777(_msgSender());\n\n        uint256 fromBalance = token.balanceOf(from);\n        // when called due to burn, to will be the zero address, which will have a balance of 0\n        uint256 toBalance = token.balanceOf(to);\n\n        emit TokensReceivedCalled(\n            operator,\n            from,\n            to,\n            amount,\n            userData,\n            operatorData,\n            address(token),\n            fromBalance,\n            toBalance\n        );\n    }\n\n    function senderFor(address account) public {\n        _registerInterfaceForAddress(_TOKENS_SENDER_INTERFACE_HASH, account);\n\n        address self = address(this);\n        if (account == self) {\n            registerSender(self);\n        }\n    }\n\n    function registerSender(address sender) public {\n        _erc1820.setInterfaceImplementer(address(this), _TOKENS_SENDER_INTERFACE_HASH, sender);\n    }\n\n    function recipientFor(address account) public {\n        _registerInterfaceForAddress(_TOKENS_RECIPIENT_INTERFACE_HASH, account);\n\n        address self = address(this);\n        if (account == self) {\n            registerRecipient(self);\n        }\n    }\n\n    function registerRecipient(address recipient) public {\n        _erc1820.setInterfaceImplementer(address(this), _TOKENS_RECIPIENT_INTERFACE_HASH, recipient);\n    }\n\n    function setShouldRevertSend(bool shouldRevert) public {\n        _shouldRevertSend = shouldRevert;\n    }\n\n    function setShouldRevertReceive(bool shouldRevert) public {\n        _shouldRevertReceive = shouldRevert;\n    }\n\n    function send(IERC777 token, address to, uint256 amount, bytes memory data) public {\n        // This is 777's send function, not the Solidity send function\n        token.send(to, amount, data); // solhint-disable-line check-send-result\n    }\n\n    function burn(IERC777 token, uint256 amount, bytes memory data) public {\n        token.burn(amount, data);\n    }\n}\n\n",
  "sourcePath": "contracts/openzeppelin/contracts/mocks/ERC777SenderRecipientMock.sol",
  "type": "contract"
}