{
  "abi": [
    {
      "inputs": [
        {
          "internalType": "string",
          "name": "name",
          "type": "string"
        },
        {
          "internalType": "string",
          "name": "symbol",
          "type": "string"
        }
      ],
      "stateMutability": "nonpayable",
      "type": "constructor"
    },
    {
      "anonymous": false,
      "inputs": [
        {
          "indexed": false,
          "internalType": "uint256",
          "name": "senderBalance",
          "type": "uint256"
        }
      ],
      "name": "MockFunctionCalled",
      "type": "event"
    },
    {
      "anonymous": false,
      "inputs": [
        {
          "indexed": true,
          "internalType": "address",
          "name": "oldRelayHub",
          "type": "address"
        },
        {
          "indexed": true,
          "internalType": "address",
          "name": "newRelayHub",
          "type": "address"
        }
      ],
      "name": "RelayHubChanged",
      "type": "event"
    },
    {
      "inputs": [
        {
          "internalType": "address",
          "name": "",
          "type": "address"
        },
        {
          "internalType": "address",
          "name": "from",
          "type": "address"
        },
        {
          "internalType": "bytes",
          "name": "",
          "type": "bytes"
        },
        {
          "internalType": "uint256",
          "name": "transactionFee",
          "type": "uint256"
        },
        {
          "internalType": "uint256",
          "name": "gasPrice",
          "type": "uint256"
        },
        {
          "internalType": "uint256",
          "name": "",
          "type": "uint256"
        },
        {
          "internalType": "uint256",
          "name": "",
          "type": "uint256"
        },
        {
          "internalType": "bytes",
          "name": "",
          "type": "bytes"
        },
        {
          "internalType": "uint256",
          "name": "maxPossibleCharge",
          "type": "uint256"
        }
      ],
      "name": "acceptRelayedCall",
      "outputs": [
        {
          "internalType": "uint256",
          "name": "",
          "type": "uint256"
        },
        {
          "internalType": "bytes",
          "name": "",
          "type": "bytes"
        }
      ],
      "stateMutability": "view",
      "type": "function"
    },
    {
      "inputs": [],
      "name": "getHubAddr",
      "outputs": [
        {
          "internalType": "address",
          "name": "",
          "type": "address"
        }
      ],
      "stateMutability": "view",
      "type": "function"
    },
    {
      "inputs": [
        {
          "internalType": "address",
          "name": "account",
          "type": "address"
        },
        {
          "internalType": "uint256",
          "name": "amount",
          "type": "uint256"
        }
      ],
      "name": "mint",
      "outputs": [],
      "stateMutability": "nonpayable",
      "type": "function"
    },
    {
      "inputs": [],
      "name": "mockFunction",
      "outputs": [],
      "stateMutability": "nonpayable",
      "type": "function"
    },
    {
      "inputs": [
        {
          "internalType": "bytes",
          "name": "context",
          "type": "bytes"
        },
        {
          "internalType": "bool",
          "name": "success",
          "type": "bool"
        },
        {
          "internalType": "uint256",
          "name": "actualCharge",
          "type": "uint256"
        },
        {
          "internalType": "bytes32",
          "name": "preRetVal",
          "type": "bytes32"
        }
      ],
      "name": "postRelayedCall",
      "outputs": [],
      "stateMutability": "nonpayable",
      "type": "function"
    },
    {
      "inputs": [
        {
          "internalType": "bytes",
          "name": "context",
          "type": "bytes"
        }
      ],
      "name": "preRelayedCall",
      "outputs": [
        {
          "internalType": "bytes32",
          "name": "",
          "type": "bytes32"
        }
      ],
      "stateMutability": "nonpayable",
      "type": "function"
    },
    {
      "inputs": [],
      "name": "relayHubVersion",
      "outputs": [
        {
          "internalType": "string",
          "name": "",
          "type": "string"
        }
      ],
      "stateMutability": "view",
      "type": "function"
    },
    {
      "inputs": [],
      "name": "token",
      "outputs": [
        {
          "internalType": "contract IERC20",
          "name": "",
          "type": "address"
        }
      ],
      "stateMutability": "view",
      "type": "function"
    }
  ],
  "bytecode": "6080604052600080546001600160a01b03191673d216153c06e857cd7f72665e0af1d7d82172f4941790553480156200003757600080fd5b506040516200226238038062002262833981810160405260408110156200005d57600080fd5b81019080805160405193929190846401000000008211156200007e57600080fd5b9083019060208201858111156200009457600080fd5b8251640100000000811182820188101715620000af57600080fd5b82525081516020918201929091019080838360005b83811015620000de578181015183820152602001620000c4565b50505050905090810190601f1680156200010c5780820380516001836020036101000a031916815260200191505b50604052602001805160405193929190846401000000008211156200013057600080fd5b9083019060208201858111156200014657600080fd5b82516401000000008111828201881017156200016157600080fd5b82525081516020918201929091019080838360005b838110156200019057818101518382015260200162000176565b50505050905090810190601f168015620001be5780820380516001836020036101000a031916815260200191505b5060405250505081818181604051620001d790620002f5565b604080825283519082015282518190602080830191606084019187019080838360005b8381101562000214578181015183820152602001620001fa565b50505050905090810190601f168015620002425780820380516001836020036101000a031916815260200191505b50838103825284518152845160209182019186019080838360005b83811015620002775781810151838201526020016200025d565b50505050905090810190601f168015620002a55780820380516001836020036101000a031916815260200191505b50945050505050604051809103906000f080158015620002c9573d6000803e3d6000fd5b50600180546001600160a01b0319166001600160a01b0392909216919091179055506200030392505050565b6111ea806200107883390190565b610d6580620003136000396000f3fe608060405234801561001057600080fd5b50600436106100885760003560e01c806383947ea01161005b57806383947ea01461019d578063ad61ccd514610379578063e06e0e22146103f6578063fc0c546a146104a757610088565b80633e6fec041461008d57806340c10f191461009757806374e861d6146100c357806380274db7146100e7575b600080fd5b6100956104af565b005b610095600480360360408110156100ad57600080fd5b506001600160a01b03813516906020013561056a565b6100cb610578565b604080516001600160a01b039092168252519081900360200190f35b61018b600480360360208110156100fd57600080fd5b810190602081018135600160201b81111561011757600080fd5b82018360208201111561012957600080fd5b803590602001918460018302840111600160201b8311171561014a57600080fd5b91908080601f016020809104026020016040519081016040528093929190818152602001838380828437600092019190915250929550610588945050505050565b60408051918252519081900360200190f35b6102fa60048036036101208110156101b457600080fd5b6001600160a01b038235811692602081013590911691810190606081016040820135600160201b8111156101e757600080fd5b8201836020820111156101f957600080fd5b803590602001918460018302840111600160201b8311171561021a57600080fd5b91908080601f016020809104026020016040519081016040528093929190818152602001838380828437600092019190915250929584359560208601359560408101359550606081013594509192509060a081019060800135600160201b81111561028457600080fd5b82018360208201111561029657600080fd5b803590602001918460018302840111600160201b831117156102b757600080fd5b91908080601f01602080910402602001604051908101604052809392919081815260200183838082843760009201919091525092955050913592506105f0915050565b6040518083815260200180602001828103825283818151815260200191508051906020019080838360005b8381101561033d578181015183820152602001610325565b50505050905090810190601f16801561036a5780820380516001836020036101000a031916815260200191505b50935050505060405180910390f35b6103816106df565b6040805160208082528351818301528351919283929083019185019080838360005b838110156103bb5781810151838201526020016103a3565b50505050905090810190601f1680156103e85780820380516001836020036101000a031916815260200191505b509250505060405180910390f35b6100956004803603608081101561040c57600080fd5b810190602081018135600160201b81111561042657600080fd5b82018360208201111561043857600080fd5b803590602001918460018302840111600160201b8311171561045957600080fd5b91908080601f016020809104026020016040519081016040528093929190818152602001838380828437600092019190915250929550505050803515159150602081013590604001356106fe565b6100cb610767565b7fde4813f7525e49908b98ef6c9c80c5bc8c7d0842981a49420eb45ef36a60e0c06104d8610767565b6001600160a01b03166370a082316104ee610776565b6040518263ffffffff1660e01b815260040180826001600160a01b0316815260200191505060206040518083038186803b15801561052b57600080fd5b505afa15801561053f573d6000803e3d6000fd5b505050506040513d602081101561055557600080fd5b505160408051918252519081900360200190a1565b610574828261079f565b5050565b6000546001600160a01b03165b90565b6000610592610578565b6001600160a01b0316336001600160a01b0316146105e15760405162461bcd60e51b8152600401808060200182810382526024815260200180610ce26024913960400191505060405180910390fd5b6105ea82610810565b92915050565b600154604080516370a0823160e01b81526001600160a01b038b81166004830152915160009360609386939116916370a0823191602480820192602092909190829003018186803b15801561064457600080fd5b505afa158015610658573d6000803e3d6000fd5b505050506040513d602081101561066e57600080fd5b50511015610689576106806000610857565b915091506106d1565b604080516001600160a01b038c166020820152808201859052606081018a905260808082018a90528251808303909101815260a09091019091526106cc9061086f565b915091505b995099975050505050505050565b6040805180820190915260058152640312e302e360dc1b602082015290565b610706610578565b6001600160a01b0316336001600160a01b0316146107555760405162461bcd60e51b8152600401808060200182810382526024815260200180610ce26024913960400191505060405180910390fd5b61076184848484610874565b50505050565b6001546001600160a01b031690565b600080546001600160a01b03163314610790575033610585565b610798610901565b9050610585565b600154604080516340c10f1960e01b81526001600160a01b03858116600483015260248201859052915191909216916340c10f1991604480830192600092919082900301818387803b1580156107f457600080fd5b505af1158015610808573d6000803e3d6000fd5b505050505050565b600080600083806020019051604081101561082a57600080fd5b5080516020909101516001549193509150610850906001600160a01b031683308461094e565b5050919050565b604080516020810190915260008152600b9190910191565b600091565b60008060008087806020019051608081101561088f57600080fd5b508051602082015160408301516060909301519196509450909250905060006108c76108c0620186a06127106109a8565b83856109f1565b90506108d387826109a8565b96506108f6856108e3868a6109a8565b6001546001600160a01b031691906109ff565b505050505050505050565b600060606000368080601f0160208091040260200160405190810160405280939291908181526020018383808284376000920191909152505050503601516001600160a01b031692915050565b604080516001600160a01b0380861660248301528416604482015260648082018490528251808303909101815260849091019091526020810180516001600160e01b03166323b872dd60e01b179052610761908590610a56565b60006109ea83836040518060400160405280601e81526020017f536166654d6174683a207375627472616374696f6e206f766572666c6f770000815250610c0e565b9392505050565b606490810191909202020490565b604080516001600160a01b038416602482015260448082018490528251808303909101815260649091019091526020810180516001600160e01b031663a9059cbb60e01b179052610a51908490610a56565b505050565b610a68826001600160a01b0316610ca5565b610ab9576040805162461bcd60e51b815260206004820152601f60248201527f5361666545524332303a2063616c6c20746f206e6f6e2d636f6e747261637400604482015290519081900360640190fd5b60006060836001600160a01b0316836040518082805190602001908083835b60208310610af75780518252601f199092019160209182019101610ad8565b6001836020036101000a0380198251168184511680821785525050505050509050019150506000604051808303816000865af19150503d8060008114610b59576040519150601f19603f3d011682016040523d82523d6000602084013e610b5e565b606091505b509150915081610bb5576040805162461bcd60e51b815260206004820181905260248201527f5361666545524332303a206c6f772d6c6576656c2063616c6c206661696c6564604482015290519081900360640190fd5b80511561076157808060200190516020811015610bd157600080fd5b50516107615760405162461bcd60e51b815260040180806020018281038252602a815260200180610d06602a913960400191505060405180910390fd5b60008184841115610c9d5760405162461bcd60e51b81526004018080602001828103825283818151815260200191508051906020019080838360005b83811015610c62578181015183820152602001610c4a565b50505050905090810190601f168015610c8f5780820380516001836020036101000a031916815260200191505b509250505060405180910390fd5b505050900390565b6000813f7fc5d2460186f7233c927e7db2dcc703c0e500b653ca82273b7bfad8045d85a470818114801590610cd957508115155b94935050505056fe47534e526563697069656e743a2063616c6c6572206973206e6f742052656c61794875625361666545524332303a204552433230206f7065726174696f6e20646964206e6f742073756363656564a264697066735822122005633f97fd750a2a8ec16493d5f822ccbd42e4dcbfc7c3556286383eebc8d7c964736f6c634300060c003360806040523480156200001157600080fd5b50604051620011ea380380620011ea833981810160405260408110156200003757600080fd5b81019080805160405193929190846401000000008211156200005857600080fd5b9083019060208201858111156200006e57600080fd5b82516401000000008111828201881017156200008957600080fd5b82525081516020918201929091019080838360005b83811015620000b85781810151838201526020016200009e565b50505050905090810190601f168015620000e65780820380516001836020036101000a031916815260200191505b50604052602001805160405193929190846401000000008211156200010a57600080fd5b9083019060208201858111156200012057600080fd5b82516401000000008111828201881017156200013b57600080fd5b82525081516020918201929091019080838360005b838110156200016a57818101518382015260200162000150565b50505050905090810190601f168015620001985780820380516001836020036101000a031916815260200191505b50604052505082518391508290620001b89060039060208501906200024c565b508051620001ce9060049060208401906200024c565b50506005805460ff19166012179055506000620001ea62000248565b60058054610100600160a81b0319166101006001600160a01b03841690810291909117909155604051919250906000907f8be0079c531659141344cd1fd0a4f28419497f9722a3daafe3b4186f6b6457e0908290a3505050620002e8565b3390565b828054600181600116156101000203166002900490600052602060002090601f016020900481019282601f106200028f57805160ff1916838001178555620002bf565b82800160010185558215620002bf579182015b82811115620002bf578251825591602001919060010190620002a2565b50620002cd929150620002d1565b5090565b5b80821115620002cd5760008155600101620002d2565b610ef280620002f86000396000f3fe608060405234801561001057600080fd5b50600436106100f55760003560e01c806370a0823111610097578063a457c2d711610066578063a457c2d7146102d9578063a9059cbb14610305578063dd62ed3e14610331578063f2fde38b1461035f576100f5565b806370a082311461027f578063715018a6146102a55780638da5cb5b146102ad57806395d89b41146102d1576100f5565b806323b872dd116100d357806323b872dd146101d1578063313ce56714610207578063395093511461022557806340c10f1914610251576100f5565b806306fdde03146100fa578063095ea7b31461017757806318160ddd146101b7575b600080fd5b610102610385565b6040805160208082528351818301528351919283929083019185019080838360005b8381101561013c578181015183820152602001610124565b50505050905090810190601f1680156101695780820380516001836020036101000a031916815260200191505b509250505060405180910390f35b6101a36004803603604081101561018d57600080fd5b506001600160a01b03813516906020013561041b565b604080519115158252519081900360200190f35b6101bf610439565b60408051918252519081900360200190f35b6101a3600480360360608110156101e757600080fd5b506001600160a01b0381358116916020810135909116906040013561043f565b61020f61048a565b6040805160ff9092168252519081900360200190f35b6101a36004803603604081101561023b57600080fd5b506001600160a01b038135169060200135610493565b61027d6004803603604081101561026757600080fd5b506001600160a01b0381351690602001356104e6565b005b6101bf6004803603602081101561029557600080fd5b50356001600160a01b0316610563565b61027d61057e565b6102b561063d565b604080516001600160a01b039092168252519081900360200190f35b610102610651565b6101a3600480360360408110156102ef57600080fd5b506001600160a01b0381351690602001356106b2565b6101a36004803603604081101561031b57600080fd5b506001600160a01b03813516906020013561071a565b6101bf6004803603604081101561034757600080fd5b506001600160a01b038135811691602001351661072e565b61027d6004803603602081101561037557600080fd5b50356001600160a01b031661076b565b60038054604080516020601f60026000196101006001881615020190951694909404938401819004810282018101909252828152606093909290918301828280156104115780601f106103e657610100808354040283529160200191610411565b820191906000526020600020905b8154815290600101906020018083116103f457829003601f168201915b5050505050905090565b600061042f610428610886565b848461088a565b5060015b92915050565b60025490565b600061044961063d565b6001600160a01b0316836001600160a01b031614156104755761046d8484846108c0565b506001610483565b610480848484610a1b565b90505b9392505050565b60055460ff1690565b600061042f6104a0610886565b846104e185600160006104b1610886565b6001600160a01b03908116825260208083019390935260409182016000908120918c168152925290205490610a9d565b61088a565b6104ee610886565b60055461010090046001600160a01b03908116911614610555576040805162461bcd60e51b815260206004820181905260248201527f4f776e61626c653a2063616c6c6572206973206e6f7420746865206f776e6572604482015290519081900360640190fd5b61055f8282610af7565b5050565b6001600160a01b031660009081526020819052604090205490565b610586610886565b60055461010090046001600160a01b039081169116146105ed576040805162461bcd60e51b815260206004820181905260248201527f4f776e61626c653a2063616c6c6572206973206e6f7420746865206f776e6572604482015290519081900360640190fd5b60055460405160009161010090046001600160a01b0316907f8be0079c531659141344cd1fd0a4f28419497f9722a3daafe3b4186f6b6457e0908390a360058054610100600160a81b0319169055565b60055461010090046001600160a01b031690565b60048054604080516020601f60026000196101006001881615020190951694909404938401819004810282018101909252828152606093909290918301828280156104115780601f106103e657610100808354040283529160200191610411565b600061042f6106bf610886565b846104e185604051806060016040528060258152602001610e9860259139600160006106e9610886565b6001600160a01b03908116825260208083019390935260409182016000908120918d16815292529020549190610be7565b600061042f610727610886565b84846108c0565b600061073861063d565b6001600160a01b0316826001600160a01b0316141561075a5750600019610433565b6107648383610c7e565b9050610433565b610773610886565b60055461010090046001600160a01b039081169116146107da576040805162461bcd60e51b815260206004820181905260248201527f4f776e61626c653a2063616c6c6572206973206e6f7420746865206f776e6572604482015290519081900360640190fd5b6001600160a01b03811661081f5760405162461bcd60e51b8152600401808060200182810382526026815260200180610db96026913960400191505060405180910390fd5b6005546040516001600160a01b0380841692610100900416907f8be0079c531659141344cd1fd0a4f28419497f9722a3daafe3b4186f6b6457e090600090a3600580546001600160a01b0390921661010002610100600160a81b0319909216919091179055565b3390565b61089261063d565b6001600160a01b0316826001600160a01b031614156108b0576108bb565b6108bb838383610ca9565b505050565b6001600160a01b0383166109055760405162461bcd60e51b8152600401808060200182810382526025815260200180610e4f6025913960400191505060405180910390fd5b6001600160a01b03821661094a5760405162461bcd60e51b8152600401808060200182810382526023815260200180610d966023913960400191505060405180910390fd5b6109558383836108bb565b61099281604051806060016040528060268152602001610e01602691396001600160a01b0386166000908152602081905260409020549190610be7565b6001600160a01b0380851660009081526020819052604080822093909355908416815220546109c19082610a9d565b6001600160a01b038084166000818152602081815260409182902094909455805185815290519193928716927fddf252ad1be2c89b69c2b068fc378daa952ba7f163c4a11628f55a4df523b3ef92918290030190a3505050565b6000610a288484846108c0565b610a9384610a34610886565b6104e185604051806060016040528060288152602001610e27602891396001600160a01b038a16600090815260016020526040812090610a72610886565b6001600160a01b031681526020810191909152604001600020549190610be7565b5060019392505050565b600082820183811015610483576040805162461bcd60e51b815260206004820152601b60248201527f536166654d6174683a206164646974696f6e206f766572666c6f770000000000604482015290519081900360640190fd5b6001600160a01b038216610b52576040805162461bcd60e51b815260206004820152601f60248201527f45524332303a206d696e7420746f20746865207a65726f206164647265737300604482015290519081900360640190fd5b610b5e600083836108bb565b600254610b6b9082610a9d565b6002556001600160a01b038216600090815260208190526040902054610b919082610a9d565b6001600160a01b0383166000818152602081815260408083209490945583518581529351929391927fddf252ad1be2c89b69c2b068fc378daa952ba7f163c4a11628f55a4df523b3ef9281900390910190a35050565b60008184841115610c765760405162461bcd60e51b81526004018080602001828103825283818151815260200191508051906020019080838360005b83811015610c3b578181015183820152602001610c23565b50505050905090810190601f168015610c685780820380516001836020036101000a031916815260200191505b509250505060405180910390fd5b505050900390565b6001600160a01b03918216600090815260016020908152604080832093909416825291909152205490565b6001600160a01b038316610cee5760405162461bcd60e51b8152600401808060200182810382526024815260200180610e746024913960400191505060405180910390fd5b6001600160a01b038216610d335760405162461bcd60e51b8152600401808060200182810382526022815260200180610ddf6022913960400191505060405180910390fd5b6001600160a01b03808416600081815260016020908152604080832094871680845294825291829020859055815185815291517f8c5be1e5ebec7d5bd14f71427d1e84f3dd0314c0f7b2291e5b200ac8c7c3b9259281900390910190a350505056fe45524332303a207472616e7366657220746f20746865207a65726f20616464726573734f776e61626c653a206e6577206f776e657220697320746865207a65726f206164647265737345524332303a20617070726f766520746f20746865207a65726f206164647265737345524332303a207472616e7366657220616d6f756e7420657863656564732062616c616e636545524332303a207472616e7366657220616d6f756e74206578636565647320616c6c6f77616e636545524332303a207472616e736665722066726f6d20746865207a65726f206164647265737345524332303a20617070726f76652066726f6d20746865207a65726f206164647265737345524332303a2064656372656173656420616c6c6f77616e63652062656c6f77207a65726fa264697066735822122097a97d062431efa01fbf3179bd5cbbbe81a19b9bb4aefadebf0973ecf168690764736f6c634300060c0033",
  "bytecodeSha1": "ab4927c6493c169af8b596e9777f5388a2bc036f",
  "compiler": {
    "evm_version": "istanbul",
    "optimizer": {
      "enabled": true,
      "runs": 200
    },
    "version": "0.6.12+commit.27d51765"
  },
  "contractName": "GSNRecipientERC20FeeMock",
  "language": "Solidity",
  "natspec": {
    "kind": "dev",
    "methods": {
      "acceptRelayedCall(address,address,bytes,uint256,uint256,uint256,uint256,bytes,uint256)": {
        "details": "Ensures that only users with enough gas payment token balance can have transactions relayed through the GSN."
      },
      "getHubAddr()": {
        "details": "Returns the address of the {IRelayHub} contract for this recipient."
      },
      "postRelayedCall(bytes,bool,uint256,bytes32)": {
        "details": "See `IRelayRecipient.postRelayedCall`. This function should not be overriden directly, use `_postRelayedCall` instead. * Requirements: - the caller must be the `RelayHub` contract."
      },
      "preRelayedCall(bytes)": {
        "details": "See `IRelayRecipient.preRelayedCall`. This function should not be overriden directly, use `_preRelayedCall` instead. * Requirements: - the caller must be the `RelayHub` contract."
      },
      "relayHubVersion()": {
        "details": "Returns the version string of the {IRelayHub} for which this recipient implementation was built. If {_upgradeRelayHub} is used, the new {IRelayHub} instance should be compatible with this version."
      },
      "token()": {
        "details": "Returns the gas payment token."
      }
    },
    "version": 1
  },
  "opcodes": "PUSH1 0x80 PUSH1 0x40 MSTORE CALLVALUE DUP1 ISZERO PUSH2 0x10 JUMPI PUSH1 0x0 DUP1 REVERT JUMPDEST POP PUSH1 0x4 CALLDATASIZE LT PUSH2 0x88 JUMPI PUSH1 0x0 CALLDATALOAD PUSH1 0xE0 SHR DUP1 PUSH4 0x83947EA0 GT PUSH2 0x5B JUMPI DUP1 PUSH4 0x83947EA0 EQ PUSH2 0x19D JUMPI DUP1 PUSH4 0xAD61CCD5 EQ PUSH2 0x379 JUMPI DUP1 PUSH4 0xE06E0E22 EQ PUSH2 0x3F6 JUMPI DUP1 PUSH4 0xFC0C546A EQ PUSH2 0x4A7 JUMPI PUSH2 0x88 JUMP JUMPDEST DUP1 PUSH4 0x3E6FEC04 EQ PUSH2 0x8D JUMPI DUP1 PUSH4 0x40C10F19 EQ PUSH2 0x97 JUMPI DUP1 PUSH4 0x74E861D6 EQ PUSH2 0xC3 JUMPI DUP1 PUSH4 0x80274DB7 EQ PUSH2 0xE7 JUMPI JUMPDEST PUSH1 0x0 DUP1 REVERT JUMPDEST PUSH2 0x95 PUSH2 0x4AF JUMP JUMPDEST STOP JUMPDEST PUSH2 0x95 PUSH1 0x4 DUP1 CALLDATASIZE SUB PUSH1 0x40 DUP2 LT ISZERO PUSH2 0xAD JUMPI PUSH1 0x0 DUP1 REVERT JUMPDEST POP PUSH1 0x1 PUSH1 0x1 PUSH1 0xA0 SHL SUB DUP2 CALLDATALOAD AND SWAP1 PUSH1 0x20 ADD CALLDATALOAD PUSH2 0x56A JUMP JUMPDEST PUSH2 0xCB PUSH2 0x578 JUMP JUMPDEST PUSH1 0x40 DUP1 MLOAD PUSH1 0x1 PUSH1 0x1 PUSH1 0xA0 SHL SUB SWAP1 SWAP3 AND DUP3 MSTORE MLOAD SWAP1 DUP2 SWAP1 SUB PUSH1 0x20 ADD SWAP1 RETURN JUMPDEST PUSH2 0x18B PUSH1 0x4 DUP1 CALLDATASIZE SUB PUSH1 0x20 DUP2 LT ISZERO PUSH2 0xFD JUMPI PUSH1 0x0 DUP1 REVERT JUMPDEST DUP2 ADD SWAP1 PUSH1 0x20 DUP2 ADD DUP2 CALLDATALOAD PUSH1 0x1 PUSH1 0x20 SHL DUP2 GT ISZERO PUSH2 0x117 JUMPI PUSH1 0x0 DUP1 REVERT JUMPDEST DUP3 ADD DUP4 PUSH1 0x20 DUP3 ADD GT ISZERO PUSH2 0x129 JUMPI PUSH1 0x0 DUP1 REVERT JUMPDEST DUP1 CALLDATALOAD SWAP1 PUSH1 0x20 ADD SWAP2 DUP5 PUSH1 0x1 DUP4 MUL DUP5 ADD GT PUSH1 0x1 PUSH1 0x20 SHL DUP4 GT OR ISZERO PUSH2 0x14A JUMPI PUSH1 0x0 DUP1 REVERT JUMPDEST SWAP2 SWAP1 DUP1 DUP1 PUSH1 0x1F ADD PUSH1 0x20 DUP1 SWAP2 DIV MUL PUSH1 0x20 ADD PUSH1 0x40 MLOAD SWAP1 DUP2 ADD PUSH1 0x40 MSTORE DUP1 SWAP4 SWAP3 SWAP2 SWAP1 DUP2 DUP2 MSTORE PUSH1 0x20 ADD DUP4 DUP4 DUP1 DUP3 DUP5 CALLDATACOPY PUSH1 0x0 SWAP3 ADD SWAP2 SWAP1 SWAP2 MSTORE POP SWAP3 SWAP6 POP PUSH2 0x588 SWAP5 POP POP POP POP POP JUMP JUMPDEST PUSH1 0x40 DUP1 MLOAD SWAP2 DUP3 MSTORE MLOAD SWAP1 DUP2 SWAP1 SUB PUSH1 0x20 ADD SWAP1 RETURN JUMPDEST PUSH2 0x2FA PUSH1 0x4 DUP1 CALLDATASIZE SUB PUSH2 0x120 DUP2 LT ISZERO PUSH2 0x1B4 JUMPI PUSH1 0x0 DUP1 REVERT JUMPDEST PUSH1 0x1 PUSH1 0x1 PUSH1 0xA0 SHL SUB DUP3 CALLDATALOAD DUP2 AND SWAP3 PUSH1 0x20 DUP2 ADD CALLDATALOAD SWAP1 SWAP2 AND SWAP2 DUP2 ADD SWAP1 PUSH1 0x60 DUP2 ADD PUSH1 0x40 DUP3 ADD CALLDATALOAD PUSH1 0x1 PUSH1 0x20 SHL DUP2 GT ISZERO PUSH2 0x1E7 JUMPI PUSH1 0x0 DUP1 REVERT JUMPDEST DUP3 ADD DUP4 PUSH1 0x20 DUP3 ADD GT ISZERO PUSH2 0x1F9 JUMPI PUSH1 0x0 DUP1 REVERT JUMPDEST DUP1 CALLDATALOAD SWAP1 PUSH1 0x20 ADD SWAP2 DUP5 PUSH1 0x1 DUP4 MUL DUP5 ADD GT PUSH1 0x1 PUSH1 0x20 SHL DUP4 GT OR ISZERO PUSH2 0x21A JUMPI PUSH1 0x0 DUP1 REVERT JUMPDEST SWAP2 SWAP1 DUP1 DUP1 PUSH1 0x1F ADD PUSH1 0x20 DUP1 SWAP2 DIV MUL PUSH1 0x20 ADD PUSH1 0x40 MLOAD SWAP1 DUP2 ADD PUSH1 0x40 MSTORE DUP1 SWAP4 SWAP3 SWAP2 SWAP1 DUP2 DUP2 MSTORE PUSH1 0x20 ADD DUP4 DUP4 DUP1 DUP3 DUP5 CALLDATACOPY PUSH1 0x0 SWAP3 ADD SWAP2 SWAP1 SWAP2 MSTORE POP SWAP3 SWAP6 DUP5 CALLDATALOAD SWAP6 PUSH1 0x20 DUP7 ADD CALLDATALOAD SWAP6 PUSH1 0x40 DUP2 ADD CALLDATALOAD SWAP6 POP PUSH1 0x60 DUP2 ADD CALLDATALOAD SWAP5 POP SWAP2 SWAP3 POP SWAP1 PUSH1 0xA0 DUP2 ADD SWAP1 PUSH1 0x80 ADD CALLDATALOAD PUSH1 0x1 PUSH1 0x20 SHL DUP2 GT ISZERO PUSH2 0x284 JUMPI PUSH1 0x0 DUP1 REVERT JUMPDEST DUP3 ADD DUP4 PUSH1 0x20 DUP3 ADD GT ISZERO PUSH2 0x296 JUMPI PUSH1 0x0 DUP1 REVERT JUMPDEST DUP1 CALLDATALOAD SWAP1 PUSH1 0x20 ADD SWAP2 DUP5 PUSH1 0x1 DUP4 MUL DUP5 ADD GT PUSH1 0x1 PUSH1 0x20 SHL DUP4 GT OR ISZERO PUSH2 0x2B7 JUMPI PUSH1 0x0 DUP1 REVERT JUMPDEST SWAP2 SWAP1 DUP1 DUP1 PUSH1 0x1F ADD PUSH1 0x20 DUP1 SWAP2 DIV MUL PUSH1 0x20 ADD PUSH1 0x40 MLOAD SWAP1 DUP2 ADD PUSH1 0x40 MSTORE DUP1 SWAP4 SWAP3 SWAP2 SWAP1 DUP2 DUP2 MSTORE PUSH1 0x20 ADD DUP4 DUP4 DUP1 DUP3 DUP5 CALLDATACOPY PUSH1 0x0 SWAP3 ADD SWAP2 SWAP1 SWAP2 MSTORE POP SWAP3 SWAP6 POP POP SWAP2 CALLDATALOAD SWAP3 POP PUSH2 0x5F0 SWAP2 POP POP JUMP JUMPDEST PUSH1 0x40 MLOAD DUP1 DUP4 DUP2 MSTORE PUSH1 0x20 ADD DUP1 PUSH1 0x20 ADD DUP3 DUP2 SUB DUP3 MSTORE DUP4 DUP2 DUP2 MLOAD DUP2 MSTORE PUSH1 0x20 ADD SWAP2 POP DUP1 MLOAD SWAP1 PUSH1 0x20 ADD SWAP1 DUP1 DUP4 DUP4 PUSH1 0x0 JUMPDEST DUP4 DUP2 LT ISZERO PUSH2 0x33D JUMPI DUP2 DUP2 ADD MLOAD DUP4 DUP3 ADD MSTORE PUSH1 0x20 ADD PUSH2 0x325 JUMP JUMPDEST POP POP POP POP SWAP1 POP SWAP1 DUP2 ADD SWAP1 PUSH1 0x1F AND DUP1 ISZERO PUSH2 0x36A JUMPI DUP1 DUP3 SUB DUP1 MLOAD PUSH1 0x1 DUP4 PUSH1 0x20 SUB PUSH2 0x100 EXP SUB NOT AND DUP2 MSTORE PUSH1 0x20 ADD SWAP2 POP JUMPDEST POP SWAP4 POP POP POP POP PUSH1 0x40 MLOAD DUP1 SWAP2 SUB SWAP1 RETURN JUMPDEST PUSH2 0x381 PUSH2 0x6DF JUMP JUMPDEST PUSH1 0x40 DUP1 MLOAD PUSH1 0x20 DUP1 DUP3 MSTORE DUP4 MLOAD DUP2 DUP4 ADD MSTORE DUP4 MLOAD SWAP2 SWAP3 DUP4 SWAP3 SWAP1 DUP4 ADD SWAP2 DUP6 ADD SWAP1 DUP1 DUP4 DUP4 PUSH1 0x0 JUMPDEST DUP4 DUP2 LT ISZERO PUSH2 0x3BB JUMPI DUP2 DUP2 ADD MLOAD DUP4 DUP3 ADD MSTORE PUSH1 0x20 ADD PUSH2 0x3A3 JUMP JUMPDEST POP POP POP POP SWAP1 POP SWAP1 DUP2 ADD SWAP1 PUSH1 0x1F AND DUP1 ISZERO PUSH2 0x3E8 JUMPI DUP1 DUP3 SUB DUP1 MLOAD PUSH1 0x1 DUP4 PUSH1 0x20 SUB PUSH2 0x100 EXP SUB NOT AND DUP2 MSTORE PUSH1 0x20 ADD SWAP2 POP JUMPDEST POP SWAP3 POP POP POP PUSH1 0x40 MLOAD DUP1 SWAP2 SUB SWAP1 RETURN JUMPDEST PUSH2 0x95 PUSH1 0x4 DUP1 CALLDATASIZE SUB PUSH1 0x80 DUP2 LT ISZERO PUSH2 0x40C JUMPI PUSH1 0x0 DUP1 REVERT JUMPDEST DUP2 ADD SWAP1 PUSH1 0x20 DUP2 ADD DUP2 CALLDATALOAD PUSH1 0x1 PUSH1 0x20 SHL DUP2 GT ISZERO PUSH2 0x426 JUMPI PUSH1 0x0 DUP1 REVERT JUMPDEST DUP3 ADD DUP4 PUSH1 0x20 DUP3 ADD GT ISZERO PUSH2 0x438 JUMPI PUSH1 0x0 DUP1 REVERT JUMPDEST DUP1 CALLDATALOAD SWAP1 PUSH1 0x20 ADD SWAP2 DUP5 PUSH1 0x1 DUP4 MUL DUP5 ADD GT PUSH1 0x1 PUSH1 0x20 SHL DUP4 GT OR ISZERO PUSH2 0x459 JUMPI PUSH1 0x0 DUP1 REVERT JUMPDEST SWAP2 SWAP1 DUP1 DUP1 PUSH1 0x1F ADD PUSH1 0x20 DUP1 SWAP2 DIV MUL PUSH1 0x20 ADD PUSH1 0x40 MLOAD SWAP1 DUP2 ADD PUSH1 0x40 MSTORE DUP1 SWAP4 SWAP3 SWAP2 SWAP1 DUP2 DUP2 MSTORE PUSH1 0x20 ADD DUP4 DUP4 DUP1 DUP3 DUP5 CALLDATACOPY PUSH1 0x0 SWAP3 ADD SWAP2 SWAP1 SWAP2 MSTORE POP SWAP3 SWAP6 POP POP POP POP DUP1 CALLDATALOAD ISZERO ISZERO SWAP2 POP PUSH1 0x20 DUP2 ADD CALLDATALOAD SWAP1 PUSH1 0x40 ADD CALLDATALOAD PUSH2 0x6FE JUMP JUMPDEST PUSH2 0xCB PUSH2 0x767 JUMP JUMPDEST PUSH32 0xDE4813F7525E49908B98EF6C9C80C5BC8C7D0842981A49420EB45EF36A60E0C0 PUSH2 0x4D8 PUSH2 0x767 JUMP JUMPDEST PUSH1 0x1 PUSH1 0x1 PUSH1 0xA0 SHL SUB AND PUSH4 0x70A08231 PUSH2 0x4EE PUSH2 0x776 JUMP JUMPDEST PUSH1 0x40 MLOAD DUP3 PUSH4 0xFFFFFFFF AND PUSH1 0xE0 SHL DUP2 MSTORE PUSH1 0x4 ADD DUP1 DUP3 PUSH1 0x1 PUSH1 0x1 PUSH1 0xA0 SHL SUB AND DUP2 MSTORE PUSH1 0x20 ADD SWAP2 POP POP PUSH1 0x20 PUSH1 0x40 MLOAD DUP1 DUP4 SUB DUP2 DUP7 DUP1 EXTCODESIZE ISZERO DUP1 ISZERO PUSH2 0x52B JUMPI PUSH1 0x0 DUP1 REVERT JUMPDEST POP GAS STATICCALL ISZERO DUP1 ISZERO PUSH2 0x53F JUMPI RETURNDATASIZE PUSH1 0x0 DUP1 RETURNDATACOPY RETURNDATASIZE PUSH1 0x0 REVERT JUMPDEST POP POP POP POP PUSH1 0x40 MLOAD RETURNDATASIZE PUSH1 0x20 DUP2 LT ISZERO PUSH2 0x555 JUMPI PUSH1 0x0 DUP1 REVERT JUMPDEST POP MLOAD PUSH1 0x40 DUP1 MLOAD SWAP2 DUP3 MSTORE MLOAD SWAP1 DUP2 SWAP1 SUB PUSH1 0x20 ADD SWAP1 LOG1 JUMP JUMPDEST PUSH2 0x574 DUP3 DUP3 PUSH2 0x79F JUMP JUMPDEST POP POP JUMP JUMPDEST PUSH1 0x0 SLOAD PUSH1 0x1 PUSH1 0x1 PUSH1 0xA0 SHL SUB AND JUMPDEST SWAP1 JUMP JUMPDEST PUSH1 0x0 PUSH2 0x592 PUSH2 0x578 JUMP JUMPDEST PUSH1 0x1 PUSH1 0x1 PUSH1 0xA0 SHL SUB AND CALLER PUSH1 0x1 PUSH1 0x1 PUSH1 0xA0 SHL SUB AND EQ PUSH2 0x5E1 JUMPI PUSH1 0x40 MLOAD PUSH3 0x461BCD PUSH1 0xE5 SHL DUP2 MSTORE PUSH1 0x4 ADD DUP1 DUP1 PUSH1 0x20 ADD DUP3 DUP2 SUB DUP3 MSTORE PUSH1 0x24 DUP2 MSTORE PUSH1 0x20 ADD DUP1 PUSH2 0xCE2 PUSH1 0x24 SWAP2 CODECOPY PUSH1 0x40 ADD SWAP2 POP POP PUSH1 0x40 MLOAD DUP1 SWAP2 SUB SWAP1 REVERT JUMPDEST PUSH2 0x5EA DUP3 PUSH2 0x810 JUMP JUMPDEST SWAP3 SWAP2 POP POP JUMP JUMPDEST PUSH1 0x1 SLOAD PUSH1 0x40 DUP1 MLOAD PUSH4 0x70A08231 PUSH1 0xE0 SHL DUP2 MSTORE PUSH1 0x1 PUSH1 0x1 PUSH1 0xA0 SHL SUB DUP12 DUP2 AND PUSH1 0x4 DUP4 ADD MSTORE SWAP2 MLOAD PUSH1 0x0 SWAP4 PUSH1 0x60 SWAP4 DUP7 SWAP4 SWAP2 AND SWAP2 PUSH4 0x70A08231 SWAP2 PUSH1 0x24 DUP1 DUP3 ADD SWAP3 PUSH1 0x20 SWAP3 SWAP1 SWAP2 SWAP1 DUP3 SWAP1 SUB ADD DUP2 DUP7 DUP1 EXTCODESIZE ISZERO DUP1 ISZERO PUSH2 0x644 JUMPI PUSH1 0x0 DUP1 REVERT JUMPDEST POP GAS STATICCALL ISZERO DUP1 ISZERO PUSH2 0x658 JUMPI RETURNDATASIZE PUSH1 0x0 DUP1 RETURNDATACOPY RETURNDATASIZE PUSH1 0x0 REVERT JUMPDEST POP POP POP POP PUSH1 0x40 MLOAD RETURNDATASIZE PUSH1 0x20 DUP2 LT ISZERO PUSH2 0x66E JUMPI PUSH1 0x0 DUP1 REVERT JUMPDEST POP MLOAD LT ISZERO PUSH2 0x689 JUMPI PUSH2 0x680 PUSH1 0x0 PUSH2 0x857 JUMP JUMPDEST SWAP2 POP SWAP2 POP PUSH2 0x6D1 JUMP JUMPDEST PUSH1 0x40 DUP1 MLOAD PUSH1 0x1 PUSH1 0x1 PUSH1 0xA0 SHL SUB DUP13 AND PUSH1 0x20 DUP3 ADD MSTORE DUP1 DUP3 ADD DUP6 SWAP1 MSTORE PUSH1 0x60 DUP2 ADD DUP11 SWAP1 MSTORE PUSH1 0x80 DUP1 DUP3 ADD DUP11 SWAP1 MSTORE DUP3 MLOAD DUP1 DUP4 SUB SWAP1 SWAP2 ADD DUP2 MSTORE PUSH1 0xA0 SWAP1 SWAP2 ADD SWAP1 SWAP2 MSTORE PUSH2 0x6CC SWAP1 PUSH2 0x86F JUMP JUMPDEST SWAP2 POP SWAP2 POP JUMPDEST SWAP10 POP SWAP10 SWAP8 POP POP POP POP POP POP POP POP JUMP JUMPDEST PUSH1 0x40 DUP1 MLOAD DUP1 DUP3 ADD SWAP1 SWAP2 MSTORE PUSH1 0x5 DUP2 MSTORE PUSH5 0x312E302E3 PUSH1 0xDC SHL PUSH1 0x20 DUP3 ADD MSTORE SWAP1 JUMP JUMPDEST PUSH2 0x706 PUSH2 0x578 JUMP JUMPDEST PUSH1 0x1 PUSH1 0x1 PUSH1 0xA0 SHL SUB AND CALLER PUSH1 0x1 PUSH1 0x1 PUSH1 0xA0 SHL SUB AND EQ PUSH2 0x755 JUMPI PUSH1 0x40 MLOAD PUSH3 0x461BCD PUSH1 0xE5 SHL DUP2 MSTORE PUSH1 0x4 ADD DUP1 DUP1 PUSH1 0x20 ADD DUP3 DUP2 SUB DUP3 MSTORE PUSH1 0x24 DUP2 MSTORE PUSH1 0x20 ADD DUP1 PUSH2 0xCE2 PUSH1 0x24 SWAP2 CODECOPY PUSH1 0x40 ADD SWAP2 POP POP PUSH1 0x40 MLOAD DUP1 SWAP2 SUB SWAP1 REVERT JUMPDEST PUSH2 0x761 DUP5 DUP5 DUP5 DUP5 PUSH2 0x874 JUMP JUMPDEST POP POP POP POP JUMP JUMPDEST PUSH1 0x1 SLOAD PUSH1 0x1 PUSH1 0x1 PUSH1 0xA0 SHL SUB AND SWAP1 JUMP JUMPDEST PUSH1 0x0 DUP1 SLOAD PUSH1 0x1 PUSH1 0x1 PUSH1 0xA0 SHL SUB AND CALLER EQ PUSH2 0x790 JUMPI POP CALLER PUSH2 0x585 JUMP JUMPDEST PUSH2 0x798 PUSH2 0x901 JUMP JUMPDEST SWAP1 POP PUSH2 0x585 JUMP JUMPDEST PUSH1 0x1 SLOAD PUSH1 0x40 DUP1 MLOAD PUSH4 0x40C10F19 PUSH1 0xE0 SHL DUP2 MSTORE PUSH1 0x1 PUSH1 0x1 PUSH1 0xA0 SHL SUB DUP6 DUP2 AND PUSH1 0x4 DUP4 ADD MSTORE PUSH1 0x24 DUP3 ADD DUP6 SWAP1 MSTORE SWAP2 MLOAD SWAP2 SWAP1 SWAP3 AND SWAP2 PUSH4 0x40C10F19 SWAP2 PUSH1 0x44 DUP1 DUP4 ADD SWAP3 PUSH1 0x0 SWAP3 SWAP2 SWAP1 DUP3 SWAP1 SUB ADD DUP2 DUP4 DUP8 DUP1 EXTCODESIZE ISZERO DUP1 ISZERO PUSH2 0x7F4 JUMPI PUSH1 0x0 DUP1 REVERT JUMPDEST POP GAS CALL ISZERO DUP1 ISZERO PUSH2 0x808 JUMPI RETURNDATASIZE PUSH1 0x0 DUP1 RETURNDATACOPY RETURNDATASIZE PUSH1 0x0 REVERT JUMPDEST POP POP POP POP POP POP JUMP JUMPDEST PUSH1 0x0 DUP1 PUSH1 0x0 DUP4 DUP1 PUSH1 0x20 ADD SWAP1 MLOAD PUSH1 0x40 DUP2 LT ISZERO PUSH2 0x82A JUMPI PUSH1 0x0 DUP1 REVERT JUMPDEST POP DUP1 MLOAD PUSH1 0x20 SWAP1 SWAP2 ADD MLOAD PUSH1 0x1 SLOAD SWAP2 SWAP4 POP SWAP2 POP PUSH2 0x850 SWAP1 PUSH1 0x1 PUSH1 0x1 PUSH1 0xA0 SHL SUB AND DUP4 ADDRESS DUP5 PUSH2 0x94E JUMP JUMPDEST POP POP SWAP2 SWAP1 POP JUMP JUMPDEST PUSH1 0x40 DUP1 MLOAD PUSH1 0x20 DUP2 ADD SWAP1 SWAP2 MSTORE PUSH1 0x0 DUP2 MSTORE PUSH1 0xB SWAP2 SWAP1 SWAP2 ADD SWAP2 JUMP JUMPDEST PUSH1 0x0 SWAP2 JUMP JUMPDEST PUSH1 0x0 DUP1 PUSH1 0x0 DUP1 DUP8 DUP1 PUSH1 0x20 ADD SWAP1 MLOAD PUSH1 0x80 DUP2 LT ISZERO PUSH2 0x88F JUMPI PUSH1 0x0 DUP1 REVERT JUMPDEST POP DUP1 MLOAD PUSH1 0x20 DUP3 ADD MLOAD PUSH1 0x40 DUP4 ADD MLOAD PUSH1 0x60 SWAP1 SWAP4 ADD MLOAD SWAP2 SWAP7 POP SWAP5 POP SWAP1 SWAP3 POP SWAP1 POP PUSH1 0x0 PUSH2 0x8C7 PUSH2 0x8C0 PUSH3 0x186A0 PUSH2 0x2710 PUSH2 0x9A8 JUMP JUMPDEST DUP4 DUP6 PUSH2 0x9F1 JUMP JUMPDEST SWAP1 POP PUSH2 0x8D3 DUP8 DUP3 PUSH2 0x9A8 JUMP JUMPDEST SWAP7 POP PUSH2 0x8F6 DUP6 PUSH2 0x8E3 DUP7 DUP11 PUSH2 0x9A8 JUMP JUMPDEST PUSH1 0x1 SLOAD PUSH1 0x1 PUSH1 0x1 PUSH1 0xA0 SHL SUB AND SWAP2 SWAP1 PUSH2 0x9FF JUMP JUMPDEST POP POP POP POP POP POP POP POP POP JUMP JUMPDEST PUSH1 0x0 PUSH1 0x60 PUSH1 0x0 CALLDATASIZE DUP1 DUP1 PUSH1 0x1F ADD PUSH1 0x20 DUP1 SWAP2 DIV MUL PUSH1 0x20 ADD PUSH1 0x40 MLOAD SWAP1 DUP2 ADD PUSH1 0x40 MSTORE DUP1 SWAP4 SWAP3 SWAP2 SWAP1 DUP2 DUP2 MSTORE PUSH1 0x20 ADD DUP4 DUP4 DUP1 DUP3 DUP5 CALLDATACOPY PUSH1 0x0 SWAP3 ADD SWAP2 SWAP1 SWAP2 MSTORE POP POP POP POP CALLDATASIZE ADD MLOAD PUSH1 0x1 PUSH1 0x1 PUSH1 0xA0 SHL SUB AND SWAP3 SWAP2 POP POP JUMP JUMPDEST PUSH1 0x40 DUP1 MLOAD PUSH1 0x1 PUSH1 0x1 PUSH1 0xA0 SHL SUB DUP1 DUP7 AND PUSH1 0x24 DUP4 ADD MSTORE DUP5 AND PUSH1 0x44 DUP3 ADD MSTORE PUSH1 0x64 DUP1 DUP3 ADD DUP5 SWAP1 MSTORE DUP3 MLOAD DUP1 DUP4 SUB SWAP1 SWAP2 ADD DUP2 MSTORE PUSH1 0x84 SWAP1 SWAP2 ADD SWAP1 SWAP2 MSTORE PUSH1 0x20 DUP2 ADD DUP1 MLOAD PUSH1 0x1 PUSH1 0x1 PUSH1 0xE0 SHL SUB AND PUSH4 0x23B872DD PUSH1 0xE0 SHL OR SWAP1 MSTORE PUSH2 0x761 SWAP1 DUP6 SWAP1 PUSH2 0xA56 JUMP JUMPDEST PUSH1 0x0 PUSH2 0x9EA DUP4 DUP4 PUSH1 0x40 MLOAD DUP1 PUSH1 0x40 ADD PUSH1 0x40 MSTORE DUP1 PUSH1 0x1E DUP2 MSTORE PUSH1 0x20 ADD PUSH32 0x536166654D6174683A207375627472616374696F6E206F766572666C6F770000 DUP2 MSTORE POP PUSH2 0xC0E JUMP JUMPDEST SWAP4 SWAP3 POP POP POP JUMP JUMPDEST PUSH1 0x64 SWAP1 DUP2 ADD SWAP2 SWAP1 SWAP3 MUL MUL DIV SWAP1 JUMP JUMPDEST PUSH1 0x40 DUP1 MLOAD PUSH1 0x1 PUSH1 0x1 PUSH1 0xA0 SHL SUB DUP5 AND PUSH1 0x24 DUP3 ADD MSTORE PUSH1 0x44 DUP1 DUP3 ADD DUP5 SWAP1 MSTORE DUP3 MLOAD DUP1 DUP4 SUB SWAP1 SWAP2 ADD DUP2 MSTORE PUSH1 0x64 SWAP1 SWAP2 ADD SWAP1 SWAP2 MSTORE PUSH1 0x20 DUP2 ADD DUP1 MLOAD PUSH1 0x1 PUSH1 0x1 PUSH1 0xE0 SHL SUB AND PUSH4 0xA9059CBB PUSH1 0xE0 SHL OR SWAP1 MSTORE PUSH2 0xA51 SWAP1 DUP5 SWAP1 PUSH2 0xA56 JUMP JUMPDEST POP POP POP JUMP JUMPDEST PUSH2 0xA68 DUP3 PUSH1 0x1 PUSH1 0x1 PUSH1 0xA0 SHL SUB AND PUSH2 0xCA5 JUMP JUMPDEST PUSH2 0xAB9 JUMPI PUSH1 0x40 DUP1 MLOAD PUSH3 0x461BCD PUSH1 0xE5 SHL DUP2 MSTORE PUSH1 0x20 PUSH1 0x4 DUP3 ADD MSTORE PUSH1 0x1F PUSH1 0x24 DUP3 ADD MSTORE PUSH32 0x5361666545524332303A2063616C6C20746F206E6F6E2D636F6E747261637400 PUSH1 0x44 DUP3 ADD MSTORE SWAP1 MLOAD SWAP1 DUP2 SWAP1 SUB PUSH1 0x64 ADD SWAP1 REVERT JUMPDEST PUSH1 0x0 PUSH1 0x60 DUP4 PUSH1 0x1 PUSH1 0x1 PUSH1 0xA0 SHL SUB AND DUP4 PUSH1 0x40 MLOAD DUP1 DUP3 DUP1 MLOAD SWAP1 PUSH1 0x20 ADD SWAP1 DUP1 DUP4 DUP4 JUMPDEST PUSH1 0x20 DUP4 LT PUSH2 0xAF7 JUMPI DUP1 MLOAD DUP3 MSTORE PUSH1 0x1F NOT SWAP1 SWAP3 ADD SWAP2 PUSH1 0x20 SWAP2 DUP3 ADD SWAP2 ADD PUSH2 0xAD8 JUMP JUMPDEST PUSH1 0x1 DUP4 PUSH1 0x20 SUB PUSH2 0x100 EXP SUB DUP1 NOT DUP3 MLOAD AND DUP2 DUP5 MLOAD AND DUP1 DUP3 OR DUP6 MSTORE POP POP POP POP POP POP SWAP1 POP ADD SWAP2 POP POP PUSH1 0x0 PUSH1 0x40 MLOAD DUP1 DUP4 SUB DUP2 PUSH1 0x0 DUP7 GAS CALL SWAP2 POP POP RETURNDATASIZE DUP1 PUSH1 0x0 DUP2 EQ PUSH2 0xB59 JUMPI PUSH1 0x40 MLOAD SWAP2 POP PUSH1 0x1F NOT PUSH1 0x3F RETURNDATASIZE ADD AND DUP3 ADD PUSH1 0x40 MSTORE RETURNDATASIZE DUP3 MSTORE RETURNDATASIZE PUSH1 0x0 PUSH1 0x20 DUP5 ADD RETURNDATACOPY PUSH2 0xB5E JUMP JUMPDEST PUSH1 0x60 SWAP2 POP JUMPDEST POP SWAP2 POP SWAP2 POP DUP2 PUSH2 0xBB5 JUMPI PUSH1 0x40 DUP1 MLOAD PUSH3 0x461BCD PUSH1 0xE5 SHL DUP2 MSTORE PUSH1 0x20 PUSH1 0x4 DUP3 ADD DUP2 SWAP1 MSTORE PUSH1 0x24 DUP3 ADD MSTORE PUSH32 0x5361666545524332303A206C6F772D6C6576656C2063616C6C206661696C6564 PUSH1 0x44 DUP3 ADD MSTORE SWAP1 MLOAD SWAP1 DUP2 SWAP1 SUB PUSH1 0x64 ADD SWAP1 REVERT JUMPDEST DUP1 MLOAD ISZERO PUSH2 0x761 JUMPI DUP1 DUP1 PUSH1 0x20 ADD SWAP1 MLOAD PUSH1 0x20 DUP2 LT ISZERO PUSH2 0xBD1 JUMPI PUSH1 0x0 DUP1 REVERT JUMPDEST POP MLOAD PUSH2 0x761 JUMPI PUSH1 0x40 MLOAD PUSH3 0x461BCD PUSH1 0xE5 SHL DUP2 MSTORE PUSH1 0x4 ADD DUP1 DUP1 PUSH1 0x20 ADD DUP3 DUP2 SUB DUP3 MSTORE PUSH1 0x2A DUP2 MSTORE PUSH1 0x20 ADD DUP1 PUSH2 0xD06 PUSH1 0x2A SWAP2 CODECOPY PUSH1 0x40 ADD SWAP2 POP POP PUSH1 0x40 MLOAD DUP1 SWAP2 SUB SWAP1 REVERT JUMPDEST PUSH1 0x0 DUP2 DUP5 DUP5 GT ISZERO PUSH2 0xC9D JUMPI PUSH1 0x40 MLOAD PUSH3 0x461BCD PUSH1 0xE5 SHL DUP2 MSTORE PUSH1 0x4 ADD DUP1 DUP1 PUSH1 0x20 ADD DUP3 DUP2 SUB DUP3 MSTORE DUP4 DUP2 DUP2 MLOAD DUP2 MSTORE PUSH1 0x20 ADD SWAP2 POP DUP1 MLOAD SWAP1 PUSH1 0x20 ADD SWAP1 DUP1 DUP4 DUP4 PUSH1 0x0 JUMPDEST DUP4 DUP2 LT ISZERO PUSH2 0xC62 JUMPI DUP2 DUP2 ADD MLOAD DUP4 DUP3 ADD MSTORE PUSH1 0x20 ADD PUSH2 0xC4A JUMP JUMPDEST POP POP POP POP SWAP1 POP SWAP1 DUP2 ADD SWAP1 PUSH1 0x1F AND DUP1 ISZERO PUSH2 0xC8F JUMPI DUP1 DUP3 SUB DUP1 MLOAD PUSH1 0x1 DUP4 PUSH1 0x20 SUB PUSH2 0x100 EXP SUB NOT AND DUP2 MSTORE PUSH1 0x20 ADD SWAP2 POP JUMPDEST POP SWAP3 POP POP POP PUSH1 0x40 MLOAD DUP1 SWAP2 SUB SWAP1 REVERT JUMPDEST POP POP POP SWAP1 SUB SWAP1 JUMP JUMPDEST PUSH1 0x0 DUP2 EXTCODEHASH PUSH32 0xC5D2460186F7233C927E7DB2DCC703C0E500B653CA82273B7BFAD8045D85A470 DUP2 DUP2 EQ DUP1 ISZERO SWAP1 PUSH2 0xCD9 JUMPI POP DUP2 ISZERO ISZERO JUMPDEST SWAP5 SWAP4 POP POP POP POP JUMP INVALID SELFBALANCE MSTORE8 0x4E MSTORE PUSH6 0x63697069656E PUSH21 0x3A2063616C6C6572206973206E6F742052656C6179 0x48 PUSH22 0x625361666545524332303A204552433230206F706572 PUSH2 0x7469 PUSH16 0x6E20646964206E6F7420737563636565 PUSH5 0xA264697066 PUSH20 0x5822122005633F97FD750A2A8EC16493D5F822CC 0xBD TIMESTAMP 0xE4 0xDC 0xBF 0xC7 0xC3 SSTORE PUSH3 0x86383E 0xEB 0xC8 0xD7 0xC9 PUSH5 0x736F6C6343 STOP MOD 0xC STOP CALLER ",
  "sha1": "dc7b1b752bd31d7a1fc49b8e5f25db5e7fa5e736",
  "source": "pragma solidity ^0.6.0;\n\nimport \"../GSN/GSNRecipient.sol\";\nimport \"../GSN/GSNRecipientERC20Fee.sol\";\n\ncontract GSNRecipientERC20FeeMock is GSNRecipient, GSNRecipientERC20Fee {\n    constructor(string memory name, string memory symbol) public GSNRecipientERC20Fee(name, symbol) { }\n\n    function mint(address account, uint256 amount) public {\n        _mint(account, amount);\n    }\n\n    event MockFunctionCalled(uint256 senderBalance);\n\n    function mockFunction() public {\n        emit MockFunctionCalled(token().balanceOf(_msgSender()));\n    }\n}\n",
  "sourcePath": "contracts/openzeppelin/contracts/mocks/GSNRecipientERC20FeeMock.sol",
  "type": "contract"
}