{
  "_format": "hh-sol-artifact-1",
  "contractName": "MasterChefV2",
  "sourceName": "contracts/MasterChefV2.sol",
  "abi": [
    {
      "inputs": [
        {
          "internalType": "contract CobToken",
          "name": "_cob",
          "type": "address"
        },
        {
          "internalType": "address",
          "name": "_devaddr",
          "type": "address"
        },
        {
          "internalType": "address",
          "name": "_feeAddress",
          "type": "address"
        },
        {
          "internalType": "uint256",
          "name": "_cobPerBlock",
          "type": "uint256"
        },
        {
          "internalType": "uint256",
          "name": "_startBlock",
          "type": "uint256"
        }
      ],
      "stateMutability": "nonpayable",
      "type": "constructor"
    },
    {
      "anonymous": false,
      "inputs": [
        {
          "indexed": true,
          "internalType": "address",
          "name": "user",
          "type": "address"
        },
        {
          "indexed": true,
          "internalType": "uint256",
          "name": "pid",
          "type": "uint256"
        },
        {
          "indexed": false,
          "internalType": "uint256",
          "name": "amount",
          "type": "uint256"
        }
      ],
      "name": "Deposit",
      "type": "event"
    },
    {
      "anonymous": false,
      "inputs": [
        {
          "indexed": true,
          "internalType": "address",
          "name": "user",
          "type": "address"
        },
        {
          "indexed": true,
          "internalType": "uint256",
          "name": "pid",
          "type": "uint256"
        },
        {
          "indexed": false,
          "internalType": "uint256",
          "name": "amount",
          "type": "uint256"
        }
      ],
      "name": "EmergencyWithdraw",
      "type": "event"
    },
    {
      "anonymous": false,
      "inputs": [
        {
          "indexed": true,
          "internalType": "address",
          "name": "previousOwner",
          "type": "address"
        },
        {
          "indexed": true,
          "internalType": "address",
          "name": "newOwner",
          "type": "address"
        }
      ],
      "name": "OwnershipTransferred",
      "type": "event"
    },
    {
      "anonymous": false,
      "inputs": [
        {
          "indexed": true,
          "internalType": "address",
          "name": "user",
          "type": "address"
        },
        {
          "indexed": true,
          "internalType": "address",
          "name": "newAddress",
          "type": "address"
        }
      ],
      "name": "SetDevAddress",
      "type": "event"
    },
    {
      "anonymous": false,
      "inputs": [
        {
          "indexed": true,
          "internalType": "address",
          "name": "user",
          "type": "address"
        },
        {
          "indexed": true,
          "internalType": "address",
          "name": "newAddress",
          "type": "address"
        }
      ],
      "name": "SetFeeAddress",
      "type": "event"
    },
    {
      "anonymous": false,
      "inputs": [
        {
          "indexed": true,
          "internalType": "address",
          "name": "user",
          "type": "address"
        },
        {
          "indexed": false,
          "internalType": "uint256",
          "name": "goosePerBlock",
          "type": "uint256"
        }
      ],
      "name": "UpdateEmissionRate",
      "type": "event"
    },
    {
      "anonymous": false,
      "inputs": [
        {
          "indexed": true,
          "internalType": "address",
          "name": "user",
          "type": "address"
        },
        {
          "indexed": true,
          "internalType": "uint256",
          "name": "pid",
          "type": "uint256"
        },
        {
          "indexed": false,
          "internalType": "uint256",
          "name": "amount",
          "type": "uint256"
        }
      ],
      "name": "Withdraw",
      "type": "event"
    },
    {
      "inputs": [],
      "name": "BONUS_MULTIPLIER",
      "outputs": [
        {
          "internalType": "uint256",
          "name": "",
          "type": "uint256"
        }
      ],
      "stateMutability": "view",
      "type": "function"
    },
    {
      "inputs": [
        {
          "internalType": "uint256",
          "name": "_allocPoint",
          "type": "uint256"
        },
        {
          "internalType": "contract IERC20",
          "name": "_lpToken",
          "type": "address"
        },
        {
          "internalType": "uint16",
          "name": "_depositFeeBP",
          "type": "uint16"
        },
        {
          "internalType": "bool",
          "name": "_withUpdate",
          "type": "bool"
        }
      ],
      "name": "add",
      "outputs": [],
      "stateMutability": "nonpayable",
      "type": "function"
    },
    {
      "inputs": [],
      "name": "cob",
      "outputs": [
        {
          "internalType": "contract CobToken",
          "name": "",
          "type": "address"
        }
      ],
      "stateMutability": "view",
      "type": "function"
    },
    {
      "inputs": [],
      "name": "cobPerBlock",
      "outputs": [
        {
          "internalType": "uint256",
          "name": "",
          "type": "uint256"
        }
      ],
      "stateMutability": "view",
      "type": "function"
    },
    {
      "inputs": [
        {
          "internalType": "uint256",
          "name": "_pid",
          "type": "uint256"
        },
        {
          "internalType": "uint256",
          "name": "_amount",
          "type": "uint256"
        }
      ],
      "name": "deposit",
      "outputs": [],
      "stateMutability": "nonpayable",
      "type": "function"
    },
    {
      "inputs": [
        {
          "internalType": "address",
          "name": "_devaddr",
          "type": "address"
        }
      ],
      "name": "dev",
      "outputs": [],
      "stateMutability": "nonpayable",
      "type": "function"
    },
    {
      "inputs": [],
      "name": "devaddr",
      "outputs": [
        {
          "internalType": "address",
          "name": "",
          "type": "address"
        }
      ],
      "stateMutability": "view",
      "type": "function"
    },
    {
      "inputs": [
        {
          "internalType": "uint256",
          "name": "_pid",
          "type": "uint256"
        }
      ],
      "name": "emergencyWithdraw",
      "outputs": [],
      "stateMutability": "nonpayable",
      "type": "function"
    },
    {
      "inputs": [],
      "name": "feeAddress",
      "outputs": [
        {
          "internalType": "address",
          "name": "",
          "type": "address"
        }
      ],
      "stateMutability": "view",
      "type": "function"
    },
    {
      "inputs": [],
      "name": "feeBasisPoints",
      "outputs": [
        {
          "internalType": "uint256",
          "name": "",
          "type": "uint256"
        }
      ],
      "stateMutability": "view",
      "type": "function"
    },
    {
      "inputs": [
        {
          "internalType": "uint256",
          "name": "_from",
          "type": "uint256"
        },
        {
          "internalType": "uint256",
          "name": "_to",
          "type": "uint256"
        }
      ],
      "name": "getMultiplier",
      "outputs": [
        {
          "internalType": "uint256",
          "name": "",
          "type": "uint256"
        }
      ],
      "stateMutability": "view",
      "type": "function"
    },
    {
      "inputs": [],
      "name": "massUpdatePools",
      "outputs": [],
      "stateMutability": "nonpayable",
      "type": "function"
    },
    {
      "inputs": [],
      "name": "owner",
      "outputs": [
        {
          "internalType": "address",
          "name": "",
          "type": "address"
        }
      ],
      "stateMutability": "view",
      "type": "function"
    },
    {
      "inputs": [
        {
          "internalType": "uint256",
          "name": "_pid",
          "type": "uint256"
        },
        {
          "internalType": "address",
          "name": "_user",
          "type": "address"
        }
      ],
      "name": "pendingCob",
      "outputs": [
        {
          "internalType": "uint256",
          "name": "",
          "type": "uint256"
        }
      ],
      "stateMutability": "view",
      "type": "function"
    },
    {
      "inputs": [
        {
          "internalType": "contract IERC20",
          "name": "",
          "type": "address"
        }
      ],
      "name": "poolExistence",
      "outputs": [
        {
          "internalType": "bool",
          "name": "",
          "type": "bool"
        }
      ],
      "stateMutability": "view",
      "type": "function"
    },
    {
      "inputs": [
        {
          "internalType": "uint256",
          "name": "",
          "type": "uint256"
        }
      ],
      "name": "poolInfo",
      "outputs": [
        {
          "internalType": "contract IERC20",
          "name": "lpToken",
          "type": "address"
        },
        {
          "internalType": "uint256",
          "name": "allocPoint",
          "type": "uint256"
        },
        {
          "internalType": "uint256",
          "name": "lastRewardBlock",
          "type": "uint256"
        },
        {
          "internalType": "uint256",
          "name": "accCobPerShare",
          "type": "uint256"
        },
        {
          "internalType": "uint16",
          "name": "depositFeeBP",
          "type": "uint16"
        }
      ],
      "stateMutability": "view",
      "type": "function"
    },
    {
      "inputs": [],
      "name": "poolLength",
      "outputs": [
        {
          "internalType": "uint256",
          "name": "",
          "type": "uint256"
        }
      ],
      "stateMutability": "view",
      "type": "function"
    },
    {
      "inputs": [],
      "name": "renounceOwnership",
      "outputs": [],
      "stateMutability": "nonpayable",
      "type": "function"
    },
    {
      "inputs": [
        {
          "internalType": "uint256",
          "name": "_pid",
          "type": "uint256"
        },
        {
          "internalType": "uint256",
          "name": "_allocPoint",
          "type": "uint256"
        },
        {
          "internalType": "uint16",
          "name": "_depositFeeBP",
          "type": "uint16"
        },
        {
          "internalType": "bool",
          "name": "_withUpdate",
          "type": "bool"
        }
      ],
      "name": "set",
      "outputs": [],
      "stateMutability": "nonpayable",
      "type": "function"
    },
    {
      "inputs": [
        {
          "internalType": "address",
          "name": "_feeAddress",
          "type": "address"
        }
      ],
      "name": "setFeeAddress",
      "outputs": [],
      "stateMutability": "nonpayable",
      "type": "function"
    },
    {
      "inputs": [],
      "name": "startBlock",
      "outputs": [
        {
          "internalType": "uint256",
          "name": "",
          "type": "uint256"
        }
      ],
      "stateMutability": "view",
      "type": "function"
    },
    {
      "inputs": [],
      "name": "totalAllocPoint",
      "outputs": [
        {
          "internalType": "uint256",
          "name": "",
          "type": "uint256"
        }
      ],
      "stateMutability": "view",
      "type": "function"
    },
    {
      "inputs": [
        {
          "internalType": "address",
          "name": "newOwner",
          "type": "address"
        }
      ],
      "name": "transferOwnership",
      "outputs": [],
      "stateMutability": "nonpayable",
      "type": "function"
    },
    {
      "inputs": [
        {
          "internalType": "uint256",
          "name": "_cobPerBlock",
          "type": "uint256"
        }
      ],
      "name": "updateEmissionRate",
      "outputs": [],
      "stateMutability": "nonpayable",
      "type": "function"
    },
    {
      "inputs": [
        {
          "internalType": "uint256",
          "name": "_pid",
          "type": "uint256"
        }
      ],
      "name": "updatePool",
      "outputs": [],
      "stateMutability": "nonpayable",
      "type": "function"
    },
    {
      "inputs": [
        {
          "internalType": "uint256",
          "name": "",
          "type": "uint256"
        },
        {
          "internalType": "address",
          "name": "",
          "type": "address"
        }
      ],
      "name": "userInfo",
      "outputs": [
        {
          "internalType": "uint256",
          "name": "amount",
          "type": "uint256"
        },
        {
          "internalType": "uint256",
          "name": "rewardDebt",
          "type": "uint256"
        }
      ],
      "stateMutability": "view",
      "type": "function"
    },
    {
      "inputs": [
        {
          "internalType": "uint256",
          "name": "_pid",
          "type": "uint256"
        },
        {
          "internalType": "uint256",
          "name": "_amount",
          "type": "uint256"
        }
      ],
      "name": "withdraw",
      "outputs": [],
      "stateMutability": "nonpayable",
      "type": "function"
    }
  ],
  "bytecode": "0x608060405261271060065560006009553480156200001c57600080fd5b506040516200367f3803806200367f833981810160405281019062000042919062000256565b62000062620000566200014560201b60201c565b6200014d60201b60201c565b6001808190555084600260006101000a81548173ffffffffffffffffffffffffffffffffffffffff021916908373ffffffffffffffffffffffffffffffffffffffff16021790555083600360006101000a81548173ffffffffffffffffffffffffffffffffffffffff021916908373ffffffffffffffffffffffffffffffffffffffff16021790555082600560006101000a81548173ffffffffffffffffffffffffffffffffffffffff021916908373ffffffffffffffffffffffffffffffffffffffff1602179055508160048190555080600a81905550505050505062000378565b600033905090565b60008060009054906101000a900473ffffffffffffffffffffffffffffffffffffffff169050816000806101000a81548173ffffffffffffffffffffffffffffffffffffffff021916908373ffffffffffffffffffffffffffffffffffffffff1602179055508173ffffffffffffffffffffffffffffffffffffffff168173ffffffffffffffffffffffffffffffffffffffff167f8be0079c531659141344cd1fd0a4f28419497f9722a3daafe3b4186f6b6457e060405160405180910390a35050565b60008151905062000222816200032a565b92915050565b600081519050620002398162000344565b92915050565b60008151905062000250816200035e565b92915050565b600080600080600060a086880312156200026f57600080fd5b60006200027f8882890162000228565b9550506020620002928882890162000211565b9450506040620002a58882890162000211565b9350506060620002b8888289016200023f565b9250506080620002cb888289016200023f565b9150509295509295909350565b6000620002e58262000300565b9050919050565b6000620002f982620002d8565b9050919050565b600073ffffffffffffffffffffffffffffffffffffffff82169050919050565b6000819050919050565b6200033581620002d8565b81146200034157600080fd5b50565b6200034f81620002ec565b81146200035b57600080fd5b50565b620003698162000320565b81146200037557600080fd5b50565b6132f780620003886000396000f3fe608060405234801561001057600080fd5b50600436106101a95760003560e01c80638705fcd4116100f9578063a6ca860b11610097578063d49e77cd11610071578063d49e77cd14610489578063d9638422146104a7578063e2bbb158146104c3578063f2fde38b146104df576101a9565b8063a6ca860b1461041d578063b8606eef1461043b578063cbd258b514610459576101a9565b80638d88a90e116100d35780638d88a90e146103825780638da5cb5b1461039e5780638dbb1e3a146103bc57806393f1a40b146103ec576101a9565b80638705fcd4146103185780638aa28550146103345780638ca68bf814610352576101a9565b806348cd4cb111610166578063630b5ba111610140578063630b5ba1146102ca5780637143d843146102d4578063715018a6146102f257806384e82a33146102fc576101a9565b806348cd4cb11461027457806351eb05a6146102925780635312ea8e146102ae576101a9565b8063081e3eda146101ae5780630ba84cd2146101cc5780631526fe27146101e857806317caf6f11461021c578063412753581461023a578063441a3e7014610258575b600080fd5b6101b66104fb565b6040516101c39190612c55565b60405180910390f35b6101e660048036038101906101e1919061255d565b610508565b005b61020260048036038101906101fd919061255d565b6105e4565b604051610213959493929190612a40565b60405180910390f35b610224610658565b6040516102319190612c55565b60405180910390f35b61024261065e565b60405161024f919061298f565b60405180910390f35b610272600480360381019061026d919061264e565b610684565b005b61027c610931565b6040516102899190612c55565b60405180910390f35b6102ac60048036038101906102a7919061255d565b610937565b005b6102c860048036038101906102c3919061255d565b610baa565b005b6102d2610d60565b005b6102dc610d93565b6040516102e99190612c55565b60405180910390f35b6102fa610d99565b005b610316600480360381019061031191906125eb565b610e21565b005b610332600480360381019061032d91906124e2565b611112565b005b61033c611240565b6040516103499190612c55565b60405180910390f35b61036c600480360381019061036791906125af565b611245565b6040516103799190612c55565b60405180910390f35b61039c600480360381019061039791906124e2565b61149f565b005b6103a66115cd565b6040516103b3919061298f565b60405180910390f35b6103d660048036038101906103d1919061264e565b6115f6565b6040516103e39190612c55565b60405180910390f35b610406600480360381019061040191906125af565b611626565b604051610414929190612c70565b60405180910390f35b610425611657565b6040516104329190612a25565b60405180910390f35b61044361167d565b6040516104509190612c55565b60405180910390f35b610473600480360381019061046e9190612534565b611683565b6040516104809190612a0a565b60405180910390f35b6104916116a3565b60405161049e919061298f565b60405180910390f35b6104c160048036038101906104bc919061268a565b6116c9565b005b6104dd60048036038101906104d8919061264e565b6118d1565b005b6104f960048036038101906104f491906124e2565b611c50565b005b6000600780549050905090565b610510611d48565b73ffffffffffffffffffffffffffffffffffffffff1661052e6115cd565b73ffffffffffffffffffffffffffffffffffffffff1614610584576040517f08c379a000000000000000000000000000000000000000000000000000000000815260040161057b90612b75565b60405180910390fd5b61058c610d60565b806004819055503373ffffffffffffffffffffffffffffffffffffffff167fe2492e003bbe8afa53088b406f0c1cb5d9e280370fc72a74cf116ffd343c4053826040516105d99190612c55565b60405180910390a250565b600781815481106105f457600080fd5b90600052602060002090600502016000915090508060000160009054906101000a900473ffffffffffffffffffffffffffffffffffffffff16908060010154908060020154908060030154908060040160009054906101000a900461ffff16905085565b60095481565b600560009054906101000a900473ffffffffffffffffffffffffffffffffffffffff1681565b600260015414156106ca576040517f08c379a00000000000000000000000000000000000000000000000000000000081526004016106c190612c35565b60405180910390fd5b600260018190555060006007838154811061070e577f4e487b7100000000000000000000000000000000000000000000000000000000600052603260045260246000fd5b9060005260206000209060050201905060006008600085815260200190815260200160002060003373ffffffffffffffffffffffffffffffffffffffff1673ffffffffffffffffffffffffffffffffffffffff168152602001908152602001600020905082816000015410156107b9576040517f08c379a00000000000000000000000000000000000000000000000000000000081526004016107b090612bb5565b60405180910390fd5b6107c284610937565b600061080c82600101546107fe64e8d4a510006107f087600301548760000154611d5090919063ffffffff16565b611d6690919063ffffffff16565b611d7c90919063ffffffff16565b90506000811115610822576108213382611d92565b5b600084111561089a57610842848360000154611d7c90919063ffffffff16565b826000018190555061089933858560000160009054906101000a900473ffffffffffffffffffffffffffffffffffffffff1673ffffffffffffffffffffffffffffffffffffffff16611ff99092919063ffffffff16565b5b6108cc64e8d4a510006108be85600301548560000154611d5090919063ffffffff16565b611d6690919063ffffffff16565b8260010181905550843373ffffffffffffffffffffffffffffffffffffffff167ff279e6a1f5e320cca91135676d9cb6e44ca8a08c0b88342bcdb1144f6511b5688660405161091b9190612c55565b60405180910390a3505050600180819055505050565b600a5481565b600060078281548110610973577f4e487b7100000000000000000000000000000000000000000000000000000000600052603260045260246000fd5b90600052602060002090600502019050806002015443116109945750610ba7565b60008160000160009054906101000a900473ffffffffffffffffffffffffffffffffffffffff1673ffffffffffffffffffffffffffffffffffffffff166370a08231306040518263ffffffff1660e01b81526004016109f3919061298f565b60206040518083038186803b158015610a0b57600080fd5b505afa158015610a1f573d6000803e3d6000fd5b505050506040513d601f19601f82011682018060405250810190610a439190612586565b90506000811480610a58575060008260010154145b15610a6d574382600201819055505050610ba7565b6000610a7d8360020154436115f6565b90506000610ac0600954610ab28660010154610aa460045487611d5090919063ffffffff16565b611d5090919063ffffffff16565b611d6690919063ffffffff16565b9050600260009054906101000a900473ffffffffffffffffffffffffffffffffffffffff1673ffffffffffffffffffffffffffffffffffffffff166340c10f1930836040518363ffffffff1660e01b8152600401610b1f9291906129e1565b600060405180830381600087803b158015610b3957600080fd5b505af1158015610b4d573d6000803e3d6000fd5b50505050610b91610b7e84610b7064e8d4a5100085611d5090919063ffffffff16565b611d6690919063ffffffff16565b856003015461207f90919063ffffffff16565b8460030181905550438460020181905550505050505b50565b60026001541415610bf0576040517f08c379a0000000000000000000000000000000000000000000000000000000008152600401610be790612c35565b60405180910390fd5b6002600181905550600060078281548110610c34577f4e487b7100000000000000000000000000000000000000000000000000000000600052603260045260246000fd5b9060005260206000209060050201905060006008600084815260200190815260200160002060003373ffffffffffffffffffffffffffffffffffffffff1673ffffffffffffffffffffffffffffffffffffffff16815260200190815260200160002090506000816000015490506000826000018190555060008260010181905550610d0433828560000160009054906101000a900473ffffffffffffffffffffffffffffffffffffffff1673ffffffffffffffffffffffffffffffffffffffff16611ff99092919063ffffffff16565b833373ffffffffffffffffffffffffffffffffffffffff167fbb757047c2b5f3974fe26b7c10f732e7bce710b0952a71082702781e62ae059583604051610d4b9190612c55565b60405180910390a35050506001808190555050565b6000600780549050905060005b81811015610d8f57610d7e81610937565b80610d8890612ec3565b9050610d6d565b5050565b60045481565b610da1611d48565b73ffffffffffffffffffffffffffffffffffffffff16610dbf6115cd565b73ffffffffffffffffffffffffffffffffffffffff1614610e15576040517f08c379a0000000000000000000000000000000000000000000000000000000008152600401610e0c90612b75565b60405180910390fd5b610e1f6000612095565b565b610e29611d48565b73ffffffffffffffffffffffffffffffffffffffff16610e476115cd565b73ffffffffffffffffffffffffffffffffffffffff1614610e9d576040517f08c379a0000000000000000000000000000000000000000000000000000000008152600401610e9490612b75565b60405180910390fd5b8260001515600b60008373ffffffffffffffffffffffffffffffffffffffff1673ffffffffffffffffffffffffffffffffffffffff16815260200190815260200160002060009054906101000a900460ff16151514610f31576040517f08c379a0000000000000000000000000000000000000000000000000000000008152600401610f2890612bd5565b60405180910390fd5b6006548361ffff161115610f7a576040517f08c379a0000000000000000000000000000000000000000000000000000000008152600401610f7190612ab5565b60405180910390fd5b8115610f8957610f88610d60565b5b6000600a544311610f9c57600a54610f9e565b435b9050610fb58660095461207f90919063ffffffff16565b6009819055506001600b60008773ffffffffffffffffffffffffffffffffffffffff1673ffffffffffffffffffffffffffffffffffffffff16815260200190815260200160002060006101000a81548160ff02191690831515021790555060076040518060a001604052808773ffffffffffffffffffffffffffffffffffffffff168152602001888152602001838152602001600081526020018661ffff16815250908060018154018082558091505060019003906000526020600020906005020160009091909190915060008201518160000160006101000a81548173ffffffffffffffffffffffffffffffffffffffff021916908373ffffffffffffffffffffffffffffffffffffffff16021790555060208201518160010155604082015181600201556060820151816003015560808201518160040160006101000a81548161ffff021916908361ffff1602179055505050505050505050565b600560009054906101000a900473ffffffffffffffffffffffffffffffffffffffff1673ffffffffffffffffffffffffffffffffffffffff163373ffffffffffffffffffffffffffffffffffffffff16146111a2576040517f08c379a000000000000000000000000000000000000000000000000000000000815260040161119990612bf5565b60405180910390fd5b80600560006101000a81548173ffffffffffffffffffffffffffffffffffffffff021916908373ffffffffffffffffffffffffffffffffffffffff1602179055508073ffffffffffffffffffffffffffffffffffffffff163373ffffffffffffffffffffffffffffffffffffffff167fd44190acf9d04bdb5d3a1aafff7e6dee8b40b93dfb8c5d3f0eea4b9f4539c3f760405160405180910390a350565b600181565b60008060078481548110611282577f4e487b7100000000000000000000000000000000000000000000000000000000600052603260045260246000fd5b9060005260206000209060050201905060006008600086815260200190815260200160002060008573ffffffffffffffffffffffffffffffffffffffff1673ffffffffffffffffffffffffffffffffffffffff168152602001908152602001600020905060008260030154905060008360000160009054906101000a900473ffffffffffffffffffffffffffffffffffffffff1673ffffffffffffffffffffffffffffffffffffffff166370a08231306040518263ffffffff1660e01b815260040161134e919061298f565b60206040518083038186803b15801561136657600080fd5b505afa15801561137a573d6000803e3d6000fd5b505050506040513d601f19601f8201168201806040525081019061139e9190612586565b90508360020154431180156113b4575060008114155b1561144f5760006113c98560020154436115f6565b9050600061140c6009546113fe88600101546113f060045487611d5090919063ffffffff16565b611d5090919063ffffffff16565b611d6690919063ffffffff16565b905061144a61143b8461142d64e8d4a5100085611d5090919063ffffffff16565b611d6690919063ffffffff16565b8561207f90919063ffffffff16565b935050505b611493836001015461148564e8d4a51000611477868860000154611d5090919063ffffffff16565b611d6690919063ffffffff16565b611d7c90919063ffffffff16565b94505050505092915050565b600360009054906101000a900473ffffffffffffffffffffffffffffffffffffffff1673ffffffffffffffffffffffffffffffffffffffff163373ffffffffffffffffffffffffffffffffffffffff161461152f576040517f08c379a000000000000000000000000000000000000000000000000000000000815260040161152690612b35565b60405180910390fd5b80600360006101000a81548173ffffffffffffffffffffffffffffffffffffffff021916908373ffffffffffffffffffffffffffffffffffffffff1602179055508073ffffffffffffffffffffffffffffffffffffffff163373ffffffffffffffffffffffffffffffffffffffff167f618c54559e94f1499a808aad71ee8729f8e74e8c48e979616328ce493a1a52e760405160405180910390a350565b60008060009054906101000a900473ffffffffffffffffffffffffffffffffffffffff16905090565b600061161e60016116108585611d7c90919063ffffffff16565b611d5090919063ffffffff16565b905092915050565b6008602052816000526040600020602052806000526040600020600091509150508060000154908060010154905082565b600260009054906101000a900473ffffffffffffffffffffffffffffffffffffffff1681565b60065481565b600b6020528060005260406000206000915054906101000a900460ff1681565b600360009054906101000a900473ffffffffffffffffffffffffffffffffffffffff1681565b6116d1611d48565b73ffffffffffffffffffffffffffffffffffffffff166116ef6115cd565b73ffffffffffffffffffffffffffffffffffffffff1614611745576040517f08c379a000000000000000000000000000000000000000000000000000000000815260040161173c90612b75565b60405180910390fd5b6006548261ffff16111561178e576040517f08c379a000000000000000000000000000000000000000000000000000000000815260040161178590612b55565b60405180910390fd5b801561179d5761179c610d60565b5b61180f83611801600787815481106117de577f4e487b7100000000000000000000000000000000000000000000000000000000600052603260045260246000fd5b906000526020600020906005020160010154600954611d7c90919063ffffffff16565b61207f90919063ffffffff16565b6009819055508260078581548110611850577f4e487b7100000000000000000000000000000000000000000000000000000000600052603260045260246000fd5b90600052602060002090600502016001018190555081600785815481106118a0577f4e487b7100000000000000000000000000000000000000000000000000000000600052603260045260246000fd5b906000526020600020906005020160040160006101000a81548161ffff021916908361ffff16021790555050505050565b60026001541415611917576040517f08c379a000000000000000000000000000000000000000000000000000000000815260040161190e90612c35565b60405180910390fd5b600260018190555060006007838154811061195b577f4e487b7100000000000000000000000000000000000000000000000000000000600052603260045260246000fd5b9060005260206000209060050201905060006008600085815260200190815260200160002060003373ffffffffffffffffffffffffffffffffffffffff1673ffffffffffffffffffffffffffffffffffffffff16815260200190815260200160002090506119c884610937565b600081600001541115611a37576000611a1f8260010154611a1164e8d4a51000611a0387600301548760000154611d5090919063ffffffff16565b611d6690919063ffffffff16565b611d7c90919063ffffffff16565b90506000811115611a3557611a343382611d92565b5b505b6000831115611bba57611a913330858560000160009054906101000a900473ffffffffffffffffffffffffffffffffffffffff1673ffffffffffffffffffffffffffffffffffffffff16612159909392919063ffffffff16565b60008260040160009054906101000a900461ffff1661ffff161115611b99576000611aef600654611ae18560040160009054906101000a900461ffff1661ffff1687611d5090919063ffffffff16565b611d6690919063ffffffff16565b9050611b62600560009054906101000a900473ffffffffffffffffffffffffffffffffffffffff16828560000160009054906101000a900473ffffffffffffffffffffffffffffffffffffffff1673ffffffffffffffffffffffffffffffffffffffff16611ff99092919063ffffffff16565b611b8b81611b7d86856000015461207f90919063ffffffff16565b611d7c90919063ffffffff16565b826000018190555050611bb9565b611bb083826000015461207f90919063ffffffff16565b81600001819055505b5b611bec64e8d4a51000611bde84600301548460000154611d5090919063ffffffff16565b611d6690919063ffffffff16565b8160010181905550833373ffffffffffffffffffffffffffffffffffffffff167f90890809c654f11d6e72a28fa60149770a0d11ec6c92319d6ceb2bb0a4ea1a1585604051611c3b9190612c55565b60405180910390a35050600180819055505050565b611c58611d48565b73ffffffffffffffffffffffffffffffffffffffff16611c766115cd565b73ffffffffffffffffffffffffffffffffffffffff1614611ccc576040517f08c379a0000000000000000000000000000000000000000000000000000000008152600401611cc390612b75565b60405180910390fd5b600073ffffffffffffffffffffffffffffffffffffffff168173ffffffffffffffffffffffffffffffffffffffff161415611d3c576040517f08c379a0000000000000000000000000000000000000000000000000000000008152600401611d3390612ad5565b60405180910390fd5b611d4581612095565b50565b600033905090565b60008183611d5e9190612d52565b905092915050565b60008183611d749190612d21565b905092915050565b60008183611d8a9190612dac565b905092915050565b6000600260009054906101000a900473ffffffffffffffffffffffffffffffffffffffff1673ffffffffffffffffffffffffffffffffffffffff166370a08231306040518263ffffffff1660e01b8152600401611def919061298f565b60206040518083038186803b158015611e0757600080fd5b505afa158015611e1b573d6000803e3d6000fd5b505050506040513d601f19601f82011682018060405250810190611e3f9190612586565b9050600081831115611f0157600260009054906101000a900473ffffffffffffffffffffffffffffffffffffffff1673ffffffffffffffffffffffffffffffffffffffff1663a9059cbb85846040518363ffffffff1660e01b8152600401611ea89291906129e1565b602060405180830381600087803b158015611ec257600080fd5b505af1158015611ed6573d6000803e3d6000fd5b505050506040513d601f19601f82011682018060405250810190611efa919061250b565b9050611fb3565b600260009054906101000a900473ffffffffffffffffffffffffffffffffffffffff1673ffffffffffffffffffffffffffffffffffffffff1663a9059cbb85856040518363ffffffff1660e01b8152600401611f5e9291906129e1565b602060405180830381600087803b158015611f7857600080fd5b505af1158015611f8c573d6000803e3d6000fd5b505050506040513d601f19601f82011682018060405250810190611fb0919061250b565b90505b80611ff3576040517f08c379a0000000000000000000000000000000000000000000000000000000008152600401611fea90612af5565b60405180910390fd5b50505050565b61207a8363a9059cbb60e01b84846040516024016120189291906129e1565b604051602081830303815290604052907bffffffffffffffffffffffffffffffffffffffffffffffffffffffff19166020820180517bffffffffffffffffffffffffffffffffffffffffffffffffffffffff83818316178352505050506121e2565b505050565b6000818361208d9190612ccb565b905092915050565b60008060009054906101000a900473ffffffffffffffffffffffffffffffffffffffff169050816000806101000a81548173ffffffffffffffffffffffffffffffffffffffff021916908373ffffffffffffffffffffffffffffffffffffffff1602179055508173ffffffffffffffffffffffffffffffffffffffff168173ffffffffffffffffffffffffffffffffffffffff167f8be0079c531659141344cd1fd0a4f28419497f9722a3daafe3b4186f6b6457e060405160405180910390a35050565b6121dc846323b872dd60e01b85858560405160240161217a939291906129aa565b604051602081830303815290604052907bffffffffffffffffffffffffffffffffffffffffffffffffffffffff19166020820180517bffffffffffffffffffffffffffffffffffffffffffffffffffffffff83818316178352505050506121e2565b50505050565b6000612244826040518060400160405280602081526020017f5361666545524332303a206c6f772d6c6576656c2063616c6c206661696c65648152508573ffffffffffffffffffffffffffffffffffffffff166122a99092919063ffffffff16565b90506000815111156122a45780806020019051810190612264919061250b565b6122a3576040517f08c379a000000000000000000000000000000000000000000000000000000000815260040161229a90612c15565b60405180910390fd5b5b505050565b60606122b884846000856122c1565b90509392505050565b606082471015612306576040517f08c379a00000000000000000000000000000000000000000000000000000000081526004016122fd90612b15565b60405180910390fd5b61230f856123d5565b61234e576040517f08c379a000000000000000000000000000000000000000000000000000000000815260040161234590612b95565b60405180910390fd5b6000808673ffffffffffffffffffffffffffffffffffffffff1685876040516123779190612978565b60006040518083038185875af1925050503d80600081146123b4576040519150601f19603f3d011682016040523d82523d6000602084013e6123b9565b606091505b50915091506123c98282866123e8565b92505050949350505050565b600080823b905060008111915050919050565b606083156123f857829050612448565b60008351111561240b5782518084602001fd5b816040517f08c379a000000000000000000000000000000000000000000000000000000000815260040161243f9190612a93565b60405180910390fd5b9392505050565b60008135905061245e8161324e565b92915050565b60008135905061247381613265565b92915050565b60008151905061248881613265565b92915050565b60008135905061249d8161327c565b92915050565b6000813590506124b281613293565b92915050565b6000813590506124c7816132aa565b92915050565b6000815190506124dc816132aa565b92915050565b6000602082840312156124f457600080fd5b60006125028482850161244f565b91505092915050565b60006020828403121561251d57600080fd5b600061252b84828501612479565b91505092915050565b60006020828403121561254657600080fd5b60006125548482850161248e565b91505092915050565b60006020828403121561256f57600080fd5b600061257d848285016124b8565b91505092915050565b60006020828403121561259857600080fd5b60006125a6848285016124cd565b91505092915050565b600080604083850312156125c257600080fd5b60006125d0858286016124b8565b92505060206125e18582860161244f565b9150509250929050565b6000806000806080858703121561260157600080fd5b600061260f878288016124b8565b94505060206126208782880161248e565b9350506040612631878288016124a3565b925050606061264287828801612464565b91505092959194509250565b6000806040838503121561266157600080fd5b600061266f858286016124b8565b9250506020612680858286016124b8565b9150509250929050565b600080600080608085870312156126a057600080fd5b60006126ae878288016124b8565b94505060206126bf878288016124b8565b93505060406126d0878288016124a3565b92505060606126e187828801612464565b91505092959194509250565b6126f681612de0565b82525050565b61270581612df2565b82525050565b600061271682612c99565b6127208185612caf565b9350612730818560208601612e90565b80840191505092915050565b61274581612e48565b82525050565b61275481612e6c565b82525050565b600061276582612ca4565b61276f8185612cba565b935061277f818560208601612e90565b61278881612f6a565b840191505092915050565b60006127a0602583612cba565b91506127ab82612f7b565b604082019050919050565b60006127c3602683612cba565b91506127ce82612fca565b604082019050919050565b60006127e6602083612cba565b91506127f182613019565b602082019050919050565b6000612809602683612cba565b915061281482613042565b604082019050919050565b600061282c600983612cba565b915061283782613091565b602082019050919050565b600061284f602583612cba565b915061285a826130ba565b604082019050919050565b6000612872602083612cba565b915061287d82613109565b602082019050919050565b6000612895601d83612cba565b91506128a082613132565b602082019050919050565b60006128b8601283612cba565b91506128c38261315b565b602082019050919050565b60006128db601983612cba565b91506128e682613184565b602082019050919050565b60006128fe601883612cba565b9150612909826131ad565b602082019050919050565b6000612921602a83612cba565b915061292c826131d6565b604082019050919050565b6000612944601f83612cba565b915061294f82613225565b602082019050919050565b61296381612e10565b82525050565b61297281612e3e565b82525050565b6000612984828461270b565b915081905092915050565b60006020820190506129a460008301846126ed565b92915050565b60006060820190506129bf60008301866126ed565b6129cc60208301856126ed565b6129d96040830184612969565b949350505050565b60006040820190506129f660008301856126ed565b612a036020830184612969565b9392505050565b6000602082019050612a1f60008301846126fc565b92915050565b6000602082019050612a3a600083018461273c565b92915050565b600060a082019050612a55600083018861274b565b612a626020830187612969565b612a6f6040830186612969565b612a7c6060830185612969565b612a89608083018461295a565b9695505050505050565b60006020820190508181036000830152612aad818461275a565b905092915050565b60006020820190508181036000830152612ace81612793565b9050919050565b60006020820190508181036000830152612aee816127b6565b9050919050565b60006020820190508181036000830152612b0e816127d9565b9050919050565b60006020820190508181036000830152612b2e816127fc565b9050919050565b60006020820190508181036000830152612b4e8161281f565b9050919050565b60006020820190508181036000830152612b6e81612842565b9050919050565b60006020820190508181036000830152612b8e81612865565b9050919050565b60006020820190508181036000830152612bae81612888565b9050919050565b60006020820190508181036000830152612bce816128ab565b9050919050565b60006020820190508181036000830152612bee816128ce565b9050919050565b60006020820190508181036000830152612c0e816128f1565b9050919050565b60006020820190508181036000830152612c2e81612914565b9050919050565b60006020820190508181036000830152612c4e81612937565b9050919050565b6000602082019050612c6a6000830184612969565b92915050565b6000604082019050612c856000830185612969565b612c926020830184612969565b9392505050565b600081519050919050565b600081519050919050565b600081905092915050565b600082825260208201905092915050565b6000612cd682612e3e565b9150612ce183612e3e565b9250827fffffffffffffffffffffffffffffffffffffffffffffffffffffffffffffffff03821115612d1657612d15612f0c565b5b828201905092915050565b6000612d2c82612e3e565b9150612d3783612e3e565b925082612d4757612d46612f3b565b5b828204905092915050565b6000612d5d82612e3e565b9150612d6883612e3e565b9250817fffffffffffffffffffffffffffffffffffffffffffffffffffffffffffffffff0483118215151615612da157612da0612f0c565b5b828202905092915050565b6000612db782612e3e565b9150612dc283612e3e565b925082821015612dd557612dd4612f0c565b5b828203905092915050565b6000612deb82612e1e565b9050919050565b60008115159050919050565b6000612e0982612de0565b9050919050565b600061ffff82169050919050565b600073ffffffffffffffffffffffffffffffffffffffff82169050919050565b6000819050919050565b6000612e5382612e5a565b9050919050565b6000612e6582612e1e565b9050919050565b6000612e7782612e7e565b9050919050565b6000612e8982612e1e565b9050919050565b60005b83811015612eae578082015181840152602081019050612e93565b83811115612ebd576000848401525b50505050565b6000612ece82612e3e565b91507fffffffffffffffffffffffffffffffffffffffffffffffffffffffffffffffff821415612f0157612f00612f0c565b5b600182019050919050565b7f4e487b7100000000000000000000000000000000000000000000000000000000600052601160045260246000fd5b7f4e487b7100000000000000000000000000000000000000000000000000000000600052601260045260246000fd5b6000601f19601f8301169050919050565b7f6164643a20696e76616c6964206465706f73697420666565206261736973207060008201527f6f696e7473000000000000000000000000000000000000000000000000000000602082015250565b7f4f776e61626c653a206e6577206f776e657220697320746865207a65726f206160008201527f6464726573730000000000000000000000000000000000000000000000000000602082015250565b7f73616665436f625472616e736665723a207472616e73666572206661696c6564600082015250565b7f416464726573733a20696e73756666696369656e742062616c616e636520666f60008201527f722063616c6c0000000000000000000000000000000000000000000000000000602082015250565b7f6465763a207775743f0000000000000000000000000000000000000000000000600082015250565b7f7365743a20696e76616c6964206465706f73697420666565206261736973207060008201527f6f696e7473000000000000000000000000000000000000000000000000000000602082015250565b7f4f776e61626c653a2063616c6c6572206973206e6f7420746865206f776e6572600082015250565b7f416464726573733a2063616c6c20746f206e6f6e2d636f6e7472616374000000600082015250565b7f77697468647261773a206e6f7420676f6f640000000000000000000000000000600082015250565b7f6e6f6e4475706c6963617465643a206475706c69636174656400000000000000600082015250565b7f736574466565416464726573733a20464f5242494444454e0000000000000000600082015250565b7f5361666545524332303a204552433230206f7065726174696f6e20646964206e60008201527f6f74207375636365656400000000000000000000000000000000000000000000602082015250565b7f5265656e7472616e637947756172643a207265656e7472616e742063616c6c00600082015250565b61325781612de0565b811461326257600080fd5b50565b61326e81612df2565b811461327957600080fd5b50565b61328581612dfe565b811461329057600080fd5b50565b61329c81612e10565b81146132a757600080fd5b50565b6132b381612e3e565b81146132be57600080fd5b5056fea2646970667358221220fcc291595bf4ec34d8a7b43931aa4ea873b556186c1e9622094b7bb5b55222d564736f6c63430008040033",
  "linkReferences": {},
  "deployedLinkReferences": {}
}