{
  "abi": [
    {
      "inputs": [],
      "stateMutability": "nonpayable",
      "type": "constructor"
    },
    {
      "anonymous": false,
      "inputs": [
        {
          "indexed": false,
          "internalType": "address",
          "name": "account",
          "type": "address"
        }
      ],
      "name": "Paused",
      "type": "event"
    },
    {
      "anonymous": false,
      "inputs": [
        {
          "indexed": false,
          "internalType": "address",
          "name": "account",
          "type": "address"
        }
      ],
      "name": "Unpaused",
      "type": "event"
    },
    {
      "inputs": [],
      "name": "count",
      "outputs": [
        {
          "internalType": "uint256",
          "name": "",
          "type": "uint256"
        }
      ],
      "stateMutability": "view",
      "type": "function"
    },
    {
      "inputs": [],
      "name": "drasticMeasure",
      "outputs": [],
      "stateMutability": "nonpayable",
      "type": "function"
    },
    {
      "inputs": [],
      "name": "drasticMeasureTaken",
      "outputs": [
        {
          "internalType": "bool",
          "name": "",
          "type": "bool"
        }
      ],
      "stateMutability": "view",
      "type": "function"
    },
    {
      "inputs": [],
      "name": "normalProcess",
      "outputs": [],
      "stateMutability": "nonpayable",
      "type": "function"
    },
    {
      "inputs": [],
      "name": "pause",
      "outputs": [],
      "stateMutability": "nonpayable",
      "type": "function"
    },
    {
      "inputs": [],
      "name": "paused",
      "outputs": [
        {
          "internalType": "bool",
          "name": "",
          "type": "bool"
        }
      ],
      "stateMutability": "view",
      "type": "function"
    },
    {
      "inputs": [],
      "name": "unpause",
      "outputs": [],
      "stateMutability": "nonpayable",
      "type": "function"
    }
  ],
  "bytecode": "608060405234801561001057600080fd5b506000805461ffff1916815560015561031a8061002e6000396000f3fe608060405234801561001057600080fd5b506004361061007d5760003560e01c806376657b8e1161005b57806376657b8e146100c25780638456cb59146100ca5780639958f045146100d2578063e7651d7a146100da5761007d565b806306661abd146100825780633f4ba83a1461009c5780635c975abb146100a6575b600080fd5b61008a6100e2565b60408051918252519081900360200190f35b6100a46100e8565b005b6100ae6100f2565b604080519115158252519081900360200190f35b6100ae6100fb565b6100a4610109565b6100a4610111565b6100a4610170565b60015481565b6100f06101c5565b565b60005460ff1690565b600054610100900460ff1681565b6100f0610263565b60005460ff1661015f576040805162461bcd60e51b815260206004820152601460248201527314185d5cd8589b194e881b9bdd081c185d5cd95960621b604482015290519081900360640190fd5b6000805461ff001916610100179055565b60005460ff16156101bb576040805162461bcd60e51b815260206004820152601060248201526f14185d5cd8589b194e881c185d5cd95960821b604482015290519081900360640190fd5b6001805481019055565b60005460ff16610213576040805162461bcd60e51b815260206004820152601460248201527314185d5cd8589b194e881b9bdd081c185d5cd95960621b604482015290519081900360640190fd5b6000805460ff191690557f5db9ee0a495bf2e6ff9c91a7834c1ba4fdd244a5e8aa4e537bd38aeae4b073aa6102466102e0565b604080516001600160a01b039092168252519081900360200190a1565b60005460ff16156102ae576040805162461bcd60e51b815260206004820152601060248201526f14185d5cd8589b194e881c185d5cd95960821b604482015290519081900360640190fd5b6000805460ff191660011790557f62e78cea01bee320cd4e420270b5ea74000d11b0c9f74754ebdbfc544b05a2586102465b339056fea26469706673582212202279abd7c5cbe5042b20d28cb570820dbc53902cf07823c2b621f02a23ccc93464736f6c634300060c0033",
  "bytecodeSha1": "11cc66c7b42c9fc9ea0dc2adec33ecd07070c52a",
  "compiler": {
    "evm_version": "istanbul",
    "optimizer": {
      "enabled": true,
      "runs": 200
    },
    "version": "0.6.12+commit.27d51765"
  },
  "contractName": "PausableMock",
  "language": "Solidity",
  "natspec": {
    "kind": "dev",
    "methods": {
      "paused()": {
        "details": "Returns true if the contract is paused, and false otherwise."
      }
    },
    "version": 1
  },
  "opcodes": "PUSH1 0x80 PUSH1 0x40 MSTORE CALLVALUE DUP1 ISZERO PUSH2 0x10 JUMPI PUSH1 0x0 DUP1 REVERT JUMPDEST POP PUSH1 0x4 CALLDATASIZE LT PUSH2 0x7D JUMPI PUSH1 0x0 CALLDATALOAD PUSH1 0xE0 SHR DUP1 PUSH4 0x76657B8E GT PUSH2 0x5B JUMPI DUP1 PUSH4 0x76657B8E EQ PUSH2 0xC2 JUMPI DUP1 PUSH4 0x8456CB59 EQ PUSH2 0xCA JUMPI DUP1 PUSH4 0x9958F045 EQ PUSH2 0xD2 JUMPI DUP1 PUSH4 0xE7651D7A EQ PUSH2 0xDA JUMPI PUSH2 0x7D JUMP JUMPDEST DUP1 PUSH4 0x6661ABD EQ PUSH2 0x82 JUMPI DUP1 PUSH4 0x3F4BA83A EQ PUSH2 0x9C JUMPI DUP1 PUSH4 0x5C975ABB EQ PUSH2 0xA6 JUMPI JUMPDEST PUSH1 0x0 DUP1 REVERT JUMPDEST PUSH2 0x8A PUSH2 0xE2 JUMP JUMPDEST PUSH1 0x40 DUP1 MLOAD SWAP2 DUP3 MSTORE MLOAD SWAP1 DUP2 SWAP1 SUB PUSH1 0x20 ADD SWAP1 RETURN JUMPDEST PUSH2 0xA4 PUSH2 0xE8 JUMP JUMPDEST STOP JUMPDEST PUSH2 0xAE PUSH2 0xF2 JUMP JUMPDEST PUSH1 0x40 DUP1 MLOAD SWAP2 ISZERO ISZERO DUP3 MSTORE MLOAD SWAP1 DUP2 SWAP1 SUB PUSH1 0x20 ADD SWAP1 RETURN JUMPDEST PUSH2 0xAE PUSH2 0xFB JUMP JUMPDEST PUSH2 0xA4 PUSH2 0x109 JUMP JUMPDEST PUSH2 0xA4 PUSH2 0x111 JUMP JUMPDEST PUSH2 0xA4 PUSH2 0x170 JUMP JUMPDEST PUSH1 0x1 SLOAD DUP2 JUMP JUMPDEST PUSH2 0xF0 PUSH2 0x1C5 JUMP JUMPDEST JUMP JUMPDEST PUSH1 0x0 SLOAD PUSH1 0xFF AND SWAP1 JUMP JUMPDEST PUSH1 0x0 SLOAD PUSH2 0x100 SWAP1 DIV PUSH1 0xFF AND DUP2 JUMP JUMPDEST PUSH2 0xF0 PUSH2 0x263 JUMP JUMPDEST PUSH1 0x0 SLOAD PUSH1 0xFF AND PUSH2 0x15F JUMPI PUSH1 0x40 DUP1 MLOAD PUSH3 0x461BCD PUSH1 0xE5 SHL DUP2 MSTORE PUSH1 0x20 PUSH1 0x4 DUP3 ADD MSTORE PUSH1 0x14 PUSH1 0x24 DUP3 ADD MSTORE PUSH20 0x14185D5CD8589B194E881B9BDD081C185D5CD959 PUSH1 0x62 SHL PUSH1 0x44 DUP3 ADD MSTORE SWAP1 MLOAD SWAP1 DUP2 SWAP1 SUB PUSH1 0x64 ADD SWAP1 REVERT JUMPDEST PUSH1 0x0 DUP1 SLOAD PUSH2 0xFF00 NOT AND PUSH2 0x100 OR SWAP1 SSTORE JUMP JUMPDEST PUSH1 0x0 SLOAD PUSH1 0xFF AND ISZERO PUSH2 0x1BB JUMPI PUSH1 0x40 DUP1 MLOAD PUSH3 0x461BCD PUSH1 0xE5 SHL DUP2 MSTORE PUSH1 0x20 PUSH1 0x4 DUP3 ADD MSTORE PUSH1 0x10 PUSH1 0x24 DUP3 ADD MSTORE PUSH16 0x14185D5CD8589B194E881C185D5CD959 PUSH1 0x82 SHL PUSH1 0x44 DUP3 ADD MSTORE SWAP1 MLOAD SWAP1 DUP2 SWAP1 SUB PUSH1 0x64 ADD SWAP1 REVERT JUMPDEST PUSH1 0x1 DUP1 SLOAD DUP2 ADD SWAP1 SSTORE JUMP JUMPDEST PUSH1 0x0 SLOAD PUSH1 0xFF AND PUSH2 0x213 JUMPI PUSH1 0x40 DUP1 MLOAD PUSH3 0x461BCD PUSH1 0xE5 SHL DUP2 MSTORE PUSH1 0x20 PUSH1 0x4 DUP3 ADD MSTORE PUSH1 0x14 PUSH1 0x24 DUP3 ADD MSTORE PUSH20 0x14185D5CD8589B194E881B9BDD081C185D5CD959 PUSH1 0x62 SHL PUSH1 0x44 DUP3 ADD MSTORE SWAP1 MLOAD SWAP1 DUP2 SWAP1 SUB PUSH1 0x64 ADD SWAP1 REVERT JUMPDEST PUSH1 0x0 DUP1 SLOAD PUSH1 0xFF NOT AND SWAP1 SSTORE PUSH32 0x5DB9EE0A495BF2E6FF9C91A7834C1BA4FDD244A5E8AA4E537BD38AEAE4B073AA PUSH2 0x246 PUSH2 0x2E0 JUMP JUMPDEST PUSH1 0x40 DUP1 MLOAD PUSH1 0x1 PUSH1 0x1 PUSH1 0xA0 SHL SUB SWAP1 SWAP3 AND DUP3 MSTORE MLOAD SWAP1 DUP2 SWAP1 SUB PUSH1 0x20 ADD SWAP1 LOG1 JUMP JUMPDEST PUSH1 0x0 SLOAD PUSH1 0xFF AND ISZERO PUSH2 0x2AE JUMPI PUSH1 0x40 DUP1 MLOAD PUSH3 0x461BCD PUSH1 0xE5 SHL DUP2 MSTORE PUSH1 0x20 PUSH1 0x4 DUP3 ADD MSTORE PUSH1 0x10 PUSH1 0x24 DUP3 ADD MSTORE PUSH16 0x14185D5CD8589B194E881C185D5CD959 PUSH1 0x82 SHL PUSH1 0x44 DUP3 ADD MSTORE SWAP1 MLOAD SWAP1 DUP2 SWAP1 SUB PUSH1 0x64 ADD SWAP1 REVERT JUMPDEST PUSH1 0x0 DUP1 SLOAD PUSH1 0xFF NOT AND PUSH1 0x1 OR SWAP1 SSTORE PUSH32 0x62E78CEA01BEE320CD4E420270B5EA74000D11B0C9F74754EBDBFC544B05A258 PUSH2 0x246 JUMPDEST CALLER SWAP1 JUMP INVALID LOG2 PUSH5 0x6970667358 0x22 SLT KECCAK256 0x22 PUSH26 0xABD7C5CBE5042B20D28CB570820DBC53902CF07823C2B621F02A 0x23 0xCC 0xC9 CALLVALUE PUSH5 0x736F6C6343 STOP MOD 0xC STOP CALLER ",
  "sha1": "42bff7cfad715713cfc0343dfffc7ef2c74ba0ab",
  "source": "pragma solidity ^0.6.0;\n\nimport \"../utils/Pausable.sol\";\n\ncontract PausableMock is Pausable {\n    bool public drasticMeasureTaken;\n    uint256 public count;\n\n    constructor () public {\n        drasticMeasureTaken = false;\n        count = 0;\n    }\n\n    function normalProcess() external whenNotPaused {\n        count++;\n    }\n\n    function drasticMeasure() external whenPaused {\n        drasticMeasureTaken = true;\n    }\n\n    function pause() external {\n        _pause();\n    }\n\n    function unpause() external {\n        _unpause();\n    }\n}\n",
  "sourcePath": "contracts/openzeppelin/contracts/mocks/PausableMock.sol",
  "type": "contract"
}