{
  "_format": "hh-sol-artifact-1",
  "contractName": "Resolver",
  "sourceName": "contracts/Resolver.sol",
  "abi": [
    {
      "anonymous": false,
      "inputs": [
        {
          "indexed": true,
          "internalType": "address",
          "name": "previousOwner",
          "type": "address"
        },
        {
          "indexed": true,
          "internalType": "address",
          "name": "newOwner",
          "type": "address"
        }
      ],
      "name": "OwnershipTransferred",
      "type": "event"
    },
    {
      "inputs": [
        {
          "internalType": "uint256",
          "name": "_vaultId",
          "type": "uint256"
        },
        {
          "internalType": "uint256",
          "name": "_orderId",
          "type": "uint256"
        },
        {
          "internalType": "address",
          "name": "_fromToken",
          "type": "address"
        },
        {
          "internalType": "address",
          "name": "_toToken",
          "type": "address"
        },
        {
          "internalType": "uint256",
          "name": "_fromAmount",
          "type": "uint256"
        }
      ],
      "name": "checker",
      "outputs": [
        {
          "internalType": "bool",
          "name": "",
          "type": "bool"
        },
        {
          "internalType": "bytes",
          "name": "",
          "type": "bytes"
        }
      ],
      "stateMutability": "view",
      "type": "function"
    },
    {
      "inputs": [
        {
          "internalType": "uint256",
          "name": "",
          "type": "uint256"
        }
      ],
      "name": "connectorTokens",
      "outputs": [
        {
          "internalType": "address",
          "name": "",
          "type": "address"
        }
      ],
      "stateMutability": "view",
      "type": "function"
    },
    {
      "inputs": [
        {
          "internalType": "contract IERC20",
          "name": "_token",
          "type": "address"
        },
        {
          "internalType": "uint256",
          "name": "_amount",
          "type": "uint256"
        }
      ],
      "name": "emergencyWithdraw",
      "outputs": [],
      "stateMutability": "nonpayable",
      "type": "function"
    },
    {
      "inputs": [
        {
          "internalType": "address",
          "name": "_fromToken",
          "type": "address"
        },
        {
          "internalType": "address",
          "name": "_toToken",
          "type": "address"
        },
        {
          "internalType": "uint256",
          "name": "_amountIn",
          "type": "uint256"
        }
      ],
      "name": "findBestPathExactIn",
      "outputs": [
        {
          "internalType": "address",
          "name": "",
          "type": "address"
        },
        {
          "internalType": "address[]",
          "name": "",
          "type": "address[]"
        },
        {
          "internalType": "uint256",
          "name": "",
          "type": "uint256"
        }
      ],
      "stateMutability": "view",
      "type": "function"
    },
    {
      "inputs": [
        {
          "internalType": "address",
          "name": "_fromToken",
          "type": "address"
        },
        {
          "internalType": "address",
          "name": "_toToken",
          "type": "address"
        },
        {
          "internalType": "uint256",
          "name": "_amountOut",
          "type": "uint256"
        }
      ],
      "name": "findBestPathExactOut",
      "outputs": [
        {
          "internalType": "address",
          "name": "",
          "type": "address"
        },
        {
          "internalType": "address[]",
          "name": "",
          "type": "address[]"
        },
        {
          "internalType": "uint256",
          "name": "",
          "type": "uint256"
        }
      ],
      "stateMutability": "view",
      "type": "function"
    },
    {
      "inputs": [
        {
          "internalType": "address",
          "name": "_fromToken",
          "type": "address"
        },
        {
          "internalType": "address",
          "name": "_toToken",
          "type": "address"
        }
      ],
      "name": "getAllPaths",
      "outputs": [
        {
          "internalType": "address[4][]",
          "name": "paths",
          "type": "address[4][]"
        },
        {
          "internalType": "uint256",
          "name": "pathCount",
          "type": "uint256"
        }
      ],
      "stateMutability": "view",
      "type": "function"
    },
    {
      "inputs": [
        {
          "internalType": "contract IUniswapV2Router02",
          "name": "_router",
          "type": "address"
        },
        {
          "internalType": "uint256",
          "name": "_amountOut",
          "type": "uint256"
        },
        {
          "internalType": "address[4]",
          "name": "_path",
          "type": "address[4]"
        }
      ],
      "name": "getAmountIn",
      "outputs": [
        {
          "internalType": "uint256",
          "name": "",
          "type": "uint256"
        }
      ],
      "stateMutability": "view",
      "type": "function"
    },
    {
      "inputs": [
        {
          "internalType": "contract IUniswapV2Router02",
          "name": "_router",
          "type": "address"
        },
        {
          "internalType": "uint256",
          "name": "_amountIn",
          "type": "uint256"
        },
        {
          "internalType": "address[4]",
          "name": "_path",
          "type": "address[4]"
        }
      ],
      "name": "getAmountOut",
      "outputs": [
        {
          "internalType": "uint256",
          "name": "",
          "type": "uint256"
        }
      ],
      "stateMutability": "view",
      "type": "function"
    },
    {
      "inputs": [],
      "name": "owner",
      "outputs": [
        {
          "internalType": "address",
          "name": "",
          "type": "address"
        }
      ],
      "stateMutability": "view",
      "type": "function"
    },
    {
      "inputs": [],
      "name": "renounceOwnership",
      "outputs": [],
      "stateMutability": "nonpayable",
      "type": "function"
    },
    {
      "inputs": [
        {
          "internalType": "uint256",
          "name": "",
          "type": "uint256"
        }
      ],
      "name": "routers",
      "outputs": [
        {
          "internalType": "contract IUniswapV2Router02",
          "name": "",
          "type": "address"
        }
      ],
      "stateMutability": "view",
      "type": "function"
    },
    {
      "inputs": [
        {
          "internalType": "contract IUniswapV2Router02",
          "name": "_router",
          "type": "address"
        },
        {
          "internalType": "uint256",
          "name": "_amountIn",
          "type": "uint256"
        },
        {
          "internalType": "uint256",
          "name": "_amountOutMin",
          "type": "uint256"
        },
        {
          "internalType": "address[]",
          "name": "_path",
          "type": "address[]"
        },
        {
          "internalType": "address",
          "name": "_to",
          "type": "address"
        },
        {
          "internalType": "uint256",
          "name": "_deadline",
          "type": "uint256"
        }
      ],
      "name": "swapExactIn",
      "outputs": [
        {
          "internalType": "uint256[]",
          "name": "",
          "type": "uint256[]"
        }
      ],
      "stateMutability": "nonpayable",
      "type": "function"
    },
    {
      "inputs": [
        {
          "internalType": "address",
          "name": "newOwner",
          "type": "address"
        }
      ],
      "name": "transferOwnership",
      "outputs": [],
      "stateMutability": "nonpayable",
      "type": "function"
    }
  ],
  "bytecode": "0x60806040526040518060c0016040528073a5e0829caced8ffdd4de3c43696c57f7d7a678ff73ffffffffffffffffffffffffffffffffffffffff1673ffffffffffffffffffffffffffffffffffffffff168152602001731b02da8cb0d097eb8d57a175b88c7d8b4799750673ffffffffffffffffffffffffffffffffffffffff1673ffffffffffffffffffffffffffffffffffffffff1681526020017394930a328162957ff1dd48900af67b5439336cbd73ffffffffffffffffffffffffffffffffffffffff1673ffffffffffffffffffffffffffffffffffffffff16815260200173c0788a3ad43d79aa53b09c2eacc313a787d1d60773ffffffffffffffffffffffffffffffffffffffff1673ffffffffffffffffffffffffffffffffffffffff16815260200173a102072a4c07f06ec3b4900fdc4c7b80b6c5742973ffffffffffffffffffffffffffffffffffffffff1673ffffffffffffffffffffffffffffffffffffffff168152602001733a1d87f206d12415f5b0a33e786967680aab4f6d73ffffffffffffffffffffffffffffffffffffffff1673ffffffffffffffffffffffffffffffffffffffff168152506001906006620001c392919062000544565b50604051806101200160405280600073ffffffffffffffffffffffffffffffffffffffff1673ffffffffffffffffffffffffffffffffffffffff168152602001738f3cf7ad23cd3cadbd9735aff958023239c6a06373ffffffffffffffffffffffffffffffffffffffff1673ffffffffffffffffffffffffffffffffffffffff168152602001732791bca1f2de4661ed88a30c99a7a9449aa8417473ffffffffffffffffffffffffffffffffffffffff1673ffffffffffffffffffffffffffffffffffffffff168152602001730d500b1d8e8ef31e21c99d1db9a6444d3adf127073ffffffffffffffffffffffffffffffffffffffff1673ffffffffffffffffffffffffffffffffffffffff168152602001737ceb23fd6bc0add59e62ac25578270cff1b9f61973ffffffffffffffffffffffffffffffffffffffff1673ffffffffffffffffffffffffffffffffffffffff16815260200173c2132d05d31c914a87c6611c10748aeb04b58e8f73ffffffffffffffffffffffffffffffffffffffff1673ffffffffffffffffffffffffffffffffffffffff16815260200173831753dd7087cac61ab5644b308642cc1c33dc1373ffffffffffffffffffffffffffffffffffffffff1673ffffffffffffffffffffffffffffffffffffffff16815260200173a3fa99a148fa48d14ed51d610c367c61876997f173ffffffffffffffffffffffffffffffffffffffff1673ffffffffffffffffffffffffffffffffffffffff168152602001731bfd67037b42cf73acf2047067bd4f2c47d9bfd673ffffffffffffffffffffffffffffffffffffffff1673ffffffffffffffffffffffffffffffffffffffff16815250600290600962000443929190620005d3565b503480156200045157600080fd5b5062000472620004666200047860201b60201c565b6200048060201b60201c565b62000681565b600033905090565b60008060009054906101000a900473ffffffffffffffffffffffffffffffffffffffff169050816000806101000a81548173ffffffffffffffffffffffffffffffffffffffff021916908373ffffffffffffffffffffffffffffffffffffffff1602179055508173ffffffffffffffffffffffffffffffffffffffff168173ffffffffffffffffffffffffffffffffffffffff167f8be0079c531659141344cd1fd0a4f28419497f9722a3daafe3b4186f6b6457e060405160405180910390a35050565b828054828255906000526020600020908101928215620005c0579160200282015b82811115620005bf5782518260006101000a81548173ffffffffffffffffffffffffffffffffffffffff021916908373ffffffffffffffffffffffffffffffffffffffff1602179055509160200191906001019062000565565b5b509050620005cf919062000662565b5090565b8280548282559060005260206000209081019282156200064f579160200282015b828111156200064e5782518260006101000a81548173ffffffffffffffffffffffffffffffffffffffff021916908373ffffffffffffffffffffffffffffffffffffffff16021790555091602001919060010190620005f4565b5b5090506200065e919062000662565b5090565b5b808211156200067d57600081600090555060010162000663565b5090565b61408f80620006916000396000f3fe608060405234801561001057600080fd5b50600436106100cf5760003560e01c80638da5cb5b1161008c578063d070166d11610066578063d070166d1461023c578063e34ca65d1461026d578063e82cc3a21461029e578063f2fde38b146102ce576100cf565b80638da5cb5b146101d057806395ccea67146101ee578063bd6464321461020a576100cf565b806319b64015146100d45780634c4f4d25146101045780634e9c11181461013457806365c53d4214610164578063715018a614610196578063892e20f4146101a0575b600080fd5b6100ee60048036038101906100e99190612d2e565b6102ea565b6040516100fb9190612d9c565b60405180910390f35b61011e60048036038101906101199190612f68565b610329565b60405161012b9190612fca565b60405180910390f35b61014e60048036038101906101499190612d2e565b610923565b60405161015b9190613044565b60405180910390f35b61017e6004803603810190610179919061305f565b610962565b60405161018d93929190613170565b60405180910390f35b61019e610fde565b005b6101ba60048036038101906101b59190613271565b611066565b6040516101c791906133d8565b60405180910390f35b6101d86111ca565b6040516101e59190612d9c565b60405180910390f35b61020860048036038101906102039190613438565b6111f3565b005b610224600480360381019061021f919061305f565b6112a5565b60405161023393929190613170565b60405180910390f35b61025660048036038101906102519190613478565b611940565b6040516102649291906135eb565b60405180910390f35b6102876004803603810190610282919061361b565b6120ca565b604051610295929190613739565b60405180910390f35b6102b860048036038101906102b39190612f68565b61216f565b6040516102c59190612fca565b60405180910390f35b6102e860048036038101906102e39190613769565b61275d565b005b600281815481106102fa57600080fd5b906000526020600020016000915054906101000a900473ffffffffffffffffffffffffffffffffffffffff1681565b60006060600073ffffffffffffffffffffffffffffffffffffffff168360036004811061035957610358613796565b5b602002015173ffffffffffffffffffffffffffffffffffffffff160361066b57600073ffffffffffffffffffffffffffffffffffffffff16836002600481106103a5576103a4613796565b5b602002015173ffffffffffffffffffffffffffffffffffffffff16036104e457600267ffffffffffffffff8111156103e0576103df612e0b565b5b60405190808252806020026020018201604052801561040e5781602001602082028036833780820191505090505b5090508260006004811061042557610424613796565b5b60200201518160008151811061043e5761043d613796565b5b602002602001019073ffffffffffffffffffffffffffffffffffffffff16908173ffffffffffffffffffffffffffffffffffffffff16815250508260016004811061048c5761048b613796565b5b6020020151816001815181106104a5576104a4613796565b5b602002602001019073ffffffffffffffffffffffffffffffffffffffff16908173ffffffffffffffffffffffffffffffffffffffff1681525050610666565b600367ffffffffffffffff8111156104ff576104fe612e0b565b5b60405190808252806020026020018201604052801561052d5781602001602082028036833780820191505090505b5090508260006004811061054457610543613796565b5b60200201518160008151811061055d5761055c613796565b5b602002602001019073ffffffffffffffffffffffffffffffffffffffff16908173ffffffffffffffffffffffffffffffffffffffff1681525050826001600481106105ab576105aa613796565b5b6020020151816001815181106105c4576105c3613796565b5b602002602001019073ffffffffffffffffffffffffffffffffffffffff16908173ffffffffffffffffffffffffffffffffffffffff16815250508260026004811061061257610611613796565b5b60200201518160028151811061062b5761062a613796565b5b602002602001019073ffffffffffffffffffffffffffffffffffffffff16908173ffffffffffffffffffffffffffffffffffffffff16815250505b610854565b600467ffffffffffffffff81111561068657610685612e0b565b5b6040519080825280602002602001820160405280156106b45781602001602082028036833780820191505090505b509050826000600481106106cb576106ca613796565b5b6020020151816000815181106106e4576106e3613796565b5b602002602001019073ffffffffffffffffffffffffffffffffffffffff16908173ffffffffffffffffffffffffffffffffffffffff16815250508260016004811061073257610731613796565b5b60200201518160018151811061074b5761074a613796565b5b602002602001019073ffffffffffffffffffffffffffffffffffffffff16908173ffffffffffffffffffffffffffffffffffffffff16815250508260026004811061079957610798613796565b5b6020020151816002815181106107b2576107b1613796565b5b602002602001019073ffffffffffffffffffffffffffffffffffffffff16908173ffffffffffffffffffffffffffffffffffffffff168152505082600360048110610800576107ff613796565b5b60200201518160038151811061081957610818613796565b5b602002602001019073ffffffffffffffffffffffffffffffffffffffff16908173ffffffffffffffffffffffffffffffffffffffff16815250505b8473ffffffffffffffffffffffffffffffffffffffff16631f00ca7485836040518363ffffffff1660e01b815260040161088f9291906137c5565b600060405180830381865afa9250505080156108ce57506040513d6000823e3d601f19601f820116820180604052508101906108cb91906138cd565b60015b6108fb577fffffffffffffffffffffffffffffffffffffffffffffffffffffffffffffffff91505061091c565b8060008151811061090f5761090e613796565b5b6020026020010151925050505b9392505050565b6001818154811061093357600080fd5b906000526020600020016000915054906101000a900473ffffffffffffffffffffffffffffffffffffffff1681565b60006060600080600090506000610977612cc2565b6000806109848b8b611940565b9150915060005b600180549050811015610a9c5760005b82811015610a88576000610a08600184815481106109bc576109bb613796565b5b9060005260206000200160009054906101000a900473ffffffffffffffffffffffffffffffffffffffff168d8785815181106109fb576109fa613796565b5b602002602001015161216f565b905087811115610a745780975060018381548110610a2957610a28613796565b5b9060005260206000200160009054906101000a900473ffffffffffffffffffffffffffffffffffffffff169650848281518110610a6957610a68613796565b5b602002602001015195505b508080610a8090613945565b91505061099b565b508080610a9490613945565b91505061098b565b506060600073ffffffffffffffffffffffffffffffffffffffff1684600360048110610acb57610aca613796565b5b602002015173ffffffffffffffffffffffffffffffffffffffff1603610ddd57600073ffffffffffffffffffffffffffffffffffffffff1684600260048110610b1757610b16613796565b5b602002015173ffffffffffffffffffffffffffffffffffffffff1603610c5657600267ffffffffffffffff811115610b5257610b51612e0b565b5b604051908082528060200260200182016040528015610b805781602001602082028036833780820191505090505b50905083600060048110610b9757610b96613796565b5b602002015181600081518110610bb057610baf613796565b5b602002602001019073ffffffffffffffffffffffffffffffffffffffff16908173ffffffffffffffffffffffffffffffffffffffff168152505083600160048110610bfe57610bfd613796565b5b602002015181600181518110610c1757610c16613796565b5b602002602001019073ffffffffffffffffffffffffffffffffffffffff16908173ffffffffffffffffffffffffffffffffffffffff1681525050610dd8565b600367ffffffffffffffff811115610c7157610c70612e0b565b5b604051908082528060200260200182016040528015610c9f5781602001602082028036833780820191505090505b50905083600060048110610cb657610cb5613796565b5b602002015181600081518110610ccf57610cce613796565b5b602002602001019073ffffffffffffffffffffffffffffffffffffffff16908173ffffffffffffffffffffffffffffffffffffffff168152505083600160048110610d1d57610d1c613796565b5b602002015181600181518110610d3657610d35613796565b5b602002602001019073ffffffffffffffffffffffffffffffffffffffff16908173ffffffffffffffffffffffffffffffffffffffff168152505083600260048110610d8457610d83613796565b5b602002015181600281518110610d9d57610d9c613796565b5b602002602001019073ffffffffffffffffffffffffffffffffffffffff16908173ffffffffffffffffffffffffffffffffffffffff16815250505b610fc6565b600467ffffffffffffffff811115610df857610df7612e0b565b5b604051908082528060200260200182016040528015610e265781602001602082028036833780820191505090505b50905083600060048110610e3d57610e3c613796565b5b602002015181600081518110610e5657610e55613796565b5b602002602001019073ffffffffffffffffffffffffffffffffffffffff16908173ffffffffffffffffffffffffffffffffffffffff168152505083600160048110610ea457610ea3613796565b5b602002015181600181518110610ebd57610ebc613796565b5b602002602001019073ffffffffffffffffffffffffffffffffffffffff16908173ffffffffffffffffffffffffffffffffffffffff168152505083600260048110610f0b57610f0a613796565b5b602002015181600281518110610f2457610f23613796565b5b602002602001019073ffffffffffffffffffffffffffffffffffffffff16908173ffffffffffffffffffffffffffffffffffffffff168152505083600360048110610f7257610f71613796565b5b602002015181600381518110610f8b57610f8a613796565b5b602002602001019073ffffffffffffffffffffffffffffffffffffffff16908173ffffffffffffffffffffffffffffffffffffffff16815250505b84818798509850985050505050505093509350939050565b610fe6612854565b73ffffffffffffffffffffffffffffffffffffffff166110046111ca565b73ffffffffffffffffffffffffffffffffffffffff161461105a576040517f08c379a0000000000000000000000000000000000000000000000000000000008152600401611051906139ea565b60405180910390fd5b611064600061285c565b565b606060008460008151811061107e5761107d613796565b5b602002602001015190506110b53330898473ffffffffffffffffffffffffffffffffffffffff16612920909392919063ffffffff16565b8073ffffffffffffffffffffffffffffffffffffffff1663095ea7b389896040518363ffffffff1660e01b81526004016110f0929190613a0a565b6020604051808303816000875af115801561110f573d6000803e3d6000fd5b505050506040513d601f19601f820116820180604052508101906111339190613a5f565b508773ffffffffffffffffffffffffffffffffffffffff166338ed173988888888886040518663ffffffff1660e01b8152600401611175959493929190613a8c565b6000604051808303816000875af1158015611194573d6000803e3d6000fd5b505050506040513d6000823e3d601f19601f820116820180604052508101906111bd91906138cd565b9150509695505050505050565b60008060009054906101000a900473ffffffffffffffffffffffffffffffffffffffff16905090565b6111fb612854565b73ffffffffffffffffffffffffffffffffffffffff166112196111ca565b73ffffffffffffffffffffffffffffffffffffffff161461126f576040517f08c379a0000000000000000000000000000000000000000000000000000000008152600401611266906139ea565b60405180910390fd5b6112a161127a6111ca565b828473ffffffffffffffffffffffffffffffffffffffff166129a99092919063ffffffff16565b5050565b600060606000807fffffffffffffffffffffffffffffffffffffffffffffffffffffffffffffffff905060006112d9612cc2565b6000806112e68b8b611940565b9150915060005b6001805490508110156113fe5760005b828110156113ea57600061136a6001848154811061131e5761131d613796565b5b9060005260206000200160009054906101000a900473ffffffffffffffffffffffffffffffffffffffff168d87858151811061135d5761135c613796565b5b6020026020010151610329565b9050878110156113d6578097506001838154811061138b5761138a613796565b5b9060005260206000200160009054906101000a900473ffffffffffffffffffffffffffffffffffffffff1696508482815181106113cb576113ca613796565b5b602002602001015195505b5080806113e290613945565b9150506112fd565b5080806113f690613945565b9150506112ed565b506060600073ffffffffffffffffffffffffffffffffffffffff168460036004811061142d5761142c613796565b5b602002015173ffffffffffffffffffffffffffffffffffffffff160361173f57600073ffffffffffffffffffffffffffffffffffffffff168460026004811061147957611478613796565b5b602002015173ffffffffffffffffffffffffffffffffffffffff16036115b857600267ffffffffffffffff8111156114b4576114b3612e0b565b5b6040519080825280602002602001820160405280156114e25781602001602082028036833780820191505090505b509050836000600481106114f9576114f8613796565b5b60200201518160008151811061151257611511613796565b5b602002602001019073ffffffffffffffffffffffffffffffffffffffff16908173ffffffffffffffffffffffffffffffffffffffff1681525050836001600481106115605761155f613796565b5b60200201518160018151811061157957611578613796565b5b602002602001019073ffffffffffffffffffffffffffffffffffffffff16908173ffffffffffffffffffffffffffffffffffffffff168152505061173a565b600367ffffffffffffffff8111156115d3576115d2612e0b565b5b6040519080825280602002602001820160405280156116015781602001602082028036833780820191505090505b5090508360006004811061161857611617613796565b5b60200201518160008151811061163157611630613796565b5b602002602001019073ffffffffffffffffffffffffffffffffffffffff16908173ffffffffffffffffffffffffffffffffffffffff16815250508360016004811061167f5761167e613796565b5b60200201518160018151811061169857611697613796565b5b602002602001019073ffffffffffffffffffffffffffffffffffffffff16908173ffffffffffffffffffffffffffffffffffffffff1681525050836002600481106116e6576116e5613796565b5b6020020151816002815181106116ff576116fe613796565b5b602002602001019073ffffffffffffffffffffffffffffffffffffffff16908173ffffffffffffffffffffffffffffffffffffffff16815250505b611928565b600467ffffffffffffffff81111561175a57611759612e0b565b5b6040519080825280602002602001820160405280156117885781602001602082028036833780820191505090505b5090508360006004811061179f5761179e613796565b5b6020020151816000815181106117b8576117b7613796565b5b602002602001019073ffffffffffffffffffffffffffffffffffffffff16908173ffffffffffffffffffffffffffffffffffffffff16815250508360016004811061180657611805613796565b5b60200201518160018151811061181f5761181e613796565b5b602002602001019073ffffffffffffffffffffffffffffffffffffffff16908173ffffffffffffffffffffffffffffffffffffffff16815250508360026004811061186d5761186c613796565b5b60200201518160028151811061188657611885613796565b5b602002602001019073ffffffffffffffffffffffffffffffffffffffff16908173ffffffffffffffffffffffffffffffffffffffff1681525050836003600481106118d4576118d3613796565b5b6020020151816003815181106118ed576118ec613796565b5b602002602001019073ffffffffffffffffffffffffffffffffffffffff16908173ffffffffffffffffffffffffffffffffffffffff16815250505b84818798509850985050505050505093509350939050565b6060600060016002600160028054905061195a9190613ae6565b6119649190613c5a565b61196e9190613ca5565b67ffffffffffffffff81111561198757611986612e0b565b5b6040519080825280602002602001820160405280156119c057816020015b6119ad612cc2565b8152602001906001900390816119a55790505b5091506000905060405180608001604052808573ffffffffffffffffffffffffffffffffffffffff1673ffffffffffffffffffffffffffffffffffffffff1681526020018473ffffffffffffffffffffffffffffffffffffffff1673ffffffffffffffffffffffffffffffffffffffff168152602001600073ffffffffffffffffffffffffffffffffffffffff1673ffffffffffffffffffffffffffffffffffffffff168152602001600073ffffffffffffffffffffffffffffffffffffffff1673ffffffffffffffffffffffffffffffffffffffff16815250828280611aa690613945565b935081518110611ab957611ab8613796565b5b60200260200101819052506000600190505b6002805490508110156120c25760005b6002805490508110156120ae578573ffffffffffffffffffffffffffffffffffffffff1660028381548110611b1357611b12613796565b5b9060005260206000200160009054906101000a900473ffffffffffffffffffffffffffffffffffffffff1673ffffffffffffffffffffffffffffffffffffffff1614158015611bcc57508473ffffffffffffffffffffffffffffffffffffffff1660028381548110611b8857611b87613796565b5b9060005260206000200160009054906101000a900473ffffffffffffffffffffffffffffffffffffffff1673ffffffffffffffffffffffffffffffffffffffff1614155b8015611c4257508573ffffffffffffffffffffffffffffffffffffffff1660028281548110611bfe57611bfd613796565b5b9060005260206000200160009054906101000a900473ffffffffffffffffffffffffffffffffffffffff1673ffffffffffffffffffffffffffffffffffffffff1614155b8015611cb857508473ffffffffffffffffffffffffffffffffffffffff1660028281548110611c7457611c73613796565b5b9060005260206000200160009054906101000a900473ffffffffffffffffffffffffffffffffffffffff1673ffffffffffffffffffffffffffffffffffffffff1614155b8015611d6c575060028181548110611cd357611cd2613796565b5b9060005260206000200160009054906101000a900473ffffffffffffffffffffffffffffffffffffffff1673ffffffffffffffffffffffffffffffffffffffff1660028381548110611d2857611d27613796565b5b9060005260206000200160009054906101000a900473ffffffffffffffffffffffffffffffffffffffff1673ffffffffffffffffffffffffffffffffffffffff1614155b1561209b57600073ffffffffffffffffffffffffffffffffffffffff1660028281548110611d9d57611d9c613796565b5b9060005260206000200160009054906101000a900473ffffffffffffffffffffffffffffffffffffffff1673ffffffffffffffffffffffffffffffffffffffff1603611f225760405180608001604052808773ffffffffffffffffffffffffffffffffffffffff1673ffffffffffffffffffffffffffffffffffffffff16815260200160028481548110611e3457611e33613796565b5b9060005260206000200160009054906101000a900473ffffffffffffffffffffffffffffffffffffffff1673ffffffffffffffffffffffffffffffffffffffff1673ffffffffffffffffffffffffffffffffffffffff1681526020018673ffffffffffffffffffffffffffffffffffffffff1673ffffffffffffffffffffffffffffffffffffffff168152602001600073ffffffffffffffffffffffffffffffffffffffff1673ffffffffffffffffffffffffffffffffffffffff16815250848480611eff90613945565b955081518110611f1257611f11613796565b5b602002602001018190525061209a565b60405180608001604052808773ffffffffffffffffffffffffffffffffffffffff1673ffffffffffffffffffffffffffffffffffffffff16815260200160028481548110611f7357611f72613796565b5b9060005260206000200160009054906101000a900473ffffffffffffffffffffffffffffffffffffffff1673ffffffffffffffffffffffffffffffffffffffff1673ffffffffffffffffffffffffffffffffffffffff16815260200160028381548110611fe357611fe2613796565b5b9060005260206000200160009054906101000a900473ffffffffffffffffffffffffffffffffffffffff1673ffffffffffffffffffffffffffffffffffffffff1673ffffffffffffffffffffffffffffffffffffffff1681526020018673ffffffffffffffffffffffffffffffffffffffff1673ffffffffffffffffffffffffffffffffffffffff1681525084848061207b90613945565b95508151811061208e5761208d613796565b5b60200260200101819052505b5b80806120a690613945565b915050611adb565b5080806120ba90613945565b915050611acb565b509250929050565b600060606000806120dc878787610962565b5091509150600163c71a6d0660e01b8a8a85856040516024016121029493929190613cfb565b604051602081830303815290604052907bffffffffffffffffffffffffffffffffffffffffffffffffffffffff19166020820180517bffffffffffffffffffffffffffffffffffffffffffffffffffffffff83818316178352505050509350935050509550959350505050565b60006060600073ffffffffffffffffffffffffffffffffffffffff168360036004811061219f5761219e613796565b5b602002015173ffffffffffffffffffffffffffffffffffffffff16036124b157600073ffffffffffffffffffffffffffffffffffffffff16836002600481106121eb576121ea613796565b5b602002015173ffffffffffffffffffffffffffffffffffffffff160361232a57600267ffffffffffffffff81111561222657612225612e0b565b5b6040519080825280602002602001820160405280156122545781602001602082028036833780820191505090505b5090508260006004811061226b5761226a613796565b5b60200201518160008151811061228457612283613796565b5b602002602001019073ffffffffffffffffffffffffffffffffffffffff16908173ffffffffffffffffffffffffffffffffffffffff1681525050826001600481106122d2576122d1613796565b5b6020020151816001815181106122eb576122ea613796565b5b602002602001019073ffffffffffffffffffffffffffffffffffffffff16908173ffffffffffffffffffffffffffffffffffffffff16815250506124ac565b600367ffffffffffffffff81111561234557612344612e0b565b5b6040519080825280602002602001820160405280156123735781602001602082028036833780820191505090505b5090508260006004811061238a57612389613796565b5b6020020151816000815181106123a3576123a2613796565b5b602002602001019073ffffffffffffffffffffffffffffffffffffffff16908173ffffffffffffffffffffffffffffffffffffffff1681525050826001600481106123f1576123f0613796565b5b60200201518160018151811061240a57612409613796565b5b602002602001019073ffffffffffffffffffffffffffffffffffffffff16908173ffffffffffffffffffffffffffffffffffffffff16815250508260026004811061245857612457613796565b5b60200201518160028151811061247157612470613796565b5b602002602001019073ffffffffffffffffffffffffffffffffffffffff16908173ffffffffffffffffffffffffffffffffffffffff16815250505b61269a565b600467ffffffffffffffff8111156124cc576124cb612e0b565b5b6040519080825280602002602001820160405280156124fa5781602001602082028036833780820191505090505b5090508260006004811061251157612510613796565b5b60200201518160008151811061252a57612529613796565b5b602002602001019073ffffffffffffffffffffffffffffffffffffffff16908173ffffffffffffffffffffffffffffffffffffffff16815250508260016004811061257857612577613796565b5b60200201518160018151811061259157612590613796565b5b602002602001019073ffffffffffffffffffffffffffffffffffffffff16908173ffffffffffffffffffffffffffffffffffffffff1681525050826002600481106125df576125de613796565b5b6020020151816002815181106125f8576125f7613796565b5b602002602001019073ffffffffffffffffffffffffffffffffffffffff16908173ffffffffffffffffffffffffffffffffffffffff16815250508260036004811061264657612645613796565b5b60200201518160038151811061265f5761265e613796565b5b602002602001019073ffffffffffffffffffffffffffffffffffffffff16908173ffffffffffffffffffffffffffffffffffffffff16815250505b8473ffffffffffffffffffffffffffffffffffffffff1663d06ca61f85836040518363ffffffff1660e01b81526004016126d59291906137c5565b600060405180830381865afa92505050801561271457506040513d6000823e3d601f19601f8201168201806040525081019061271191906138cd565b60015b612722576000915050612756565b8061273860018451612a2f90919063ffffffff16565b8151811061274957612748613796565b5b6020026020010151925050505b9392505050565b612765612854565b73ffffffffffffffffffffffffffffffffffffffff166127836111ca565b73ffffffffffffffffffffffffffffffffffffffff16146127d9576040517f08c379a00000000000000000000000000000000000000000000000000000000081526004016127d0906139ea565b60405180910390fd5b600073ffffffffffffffffffffffffffffffffffffffff168173ffffffffffffffffffffffffffffffffffffffff1603612848576040517f08c379a000000000000000000000000000000000000000000000000000000000815260040161283f90613db9565b60405180910390fd5b6128518161285c565b50565b600033905090565b60008060009054906101000a900473ffffffffffffffffffffffffffffffffffffffff169050816000806101000a81548173ffffffffffffffffffffffffffffffffffffffff021916908373ffffffffffffffffffffffffffffffffffffffff1602179055508173ffffffffffffffffffffffffffffffffffffffff168173ffffffffffffffffffffffffffffffffffffffff167f8be0079c531659141344cd1fd0a4f28419497f9722a3daafe3b4186f6b6457e060405160405180910390a35050565b6129a3846323b872dd60e01b85858560405160240161294193929190613dd9565b604051602081830303815290604052907bffffffffffffffffffffffffffffffffffffffffffffffffffffffff19166020820180517bffffffffffffffffffffffffffffffffffffffffffffffffffffffff8381831617835250505050612a45565b50505050565b612a2a8363a9059cbb60e01b84846040516024016129c8929190613a0a565b604051602081830303815290604052907bffffffffffffffffffffffffffffffffffffffffffffffffffffffff19166020820180517bffffffffffffffffffffffffffffffffffffffffffffffffffffffff8381831617835250505050612a45565b505050565b60008183612a3d9190613ae6565b905092915050565b6000612aa7826040518060400160405280602081526020017f5361666545524332303a206c6f772d6c6576656c2063616c6c206661696c65648152508573ffffffffffffffffffffffffffffffffffffffff16612b0c9092919063ffffffff16565b9050600081511115612b075780806020019051810190612ac79190613a5f565b612b06576040517f08c379a0000000000000000000000000000000000000000000000000000000008152600401612afd90613e82565b60405180910390fd5b5b505050565b6060612b1b8484600085612b24565b90509392505050565b606082471015612b69576040517f08c379a0000000000000000000000000000000000000000000000000000000008152600401612b6090613f14565b60405180910390fd5b612b7285612c38565b612bb1576040517f08c379a0000000000000000000000000000000000000000000000000000000008152600401612ba890613f80565b60405180910390fd5b6000808673ffffffffffffffffffffffffffffffffffffffff168587604051612bda9190613fdc565b60006040518083038185875af1925050503d8060008114612c17576040519150601f19603f3d011682016040523d82523d6000602084013e612c1c565b606091505b5091509150612c2c828286612c5b565b92505050949350505050565b6000808273ffffffffffffffffffffffffffffffffffffffff163b119050919050565b60608315612c6b57829050612cbb565b600083511115612c7e5782518084602001fd5b816040517f08c379a0000000000000000000000000000000000000000000000000000000008152600401612cb29190614037565b60405180910390fd5b9392505050565b6040518060800160405280600490602082028036833780820191505090505090565b6000604051905090565b600080fd5b600080fd5b6000819050919050565b612d0b81612cf8565b8114612d1657600080fd5b50565b600081359050612d2881612d02565b92915050565b600060208284031215612d4457612d43612cee565b5b6000612d5284828501612d19565b91505092915050565b600073ffffffffffffffffffffffffffffffffffffffff82169050919050565b6000612d8682612d5b565b9050919050565b612d9681612d7b565b82525050565b6000602082019050612db16000830184612d8d565b92915050565b6000612dc282612d7b565b9050919050565b612dd281612db7565b8114612ddd57600080fd5b50565b600081359050612def81612dc9565b92915050565b600080fd5b6000601f19601f8301169050919050565b7f4e487b7100000000000000000000000000000000000000000000000000000000600052604160045260246000fd5b612e4382612dfa565b810181811067ffffffffffffffff82111715612e6257612e61612e0b565b5b80604052505050565b6000612e75612ce4565b9050612e818282612e3a565b919050565b600067ffffffffffffffff821115612ea157612ea0612e0b565b5b602082029050919050565b600080fd5b612eba81612d7b565b8114612ec557600080fd5b50565b600081359050612ed781612eb1565b92915050565b6000612ef0612eeb84612e86565b612e6b565b90508060208402830185811115612f0a57612f09612eac565b5b835b81811015612f335780612f1f8882612ec8565b845260208401935050602081019050612f0c565b5050509392505050565b600082601f830112612f5257612f51612df5565b5b6004612f5f848285612edd565b91505092915050565b600080600060c08486031215612f8157612f80612cee565b5b6000612f8f86828701612de0565b9350506020612fa086828701612d19565b9250506040612fb186828701612f3d565b9150509250925092565b612fc481612cf8565b82525050565b6000602082019050612fdf6000830184612fbb565b92915050565b6000819050919050565b600061300a61300561300084612d5b565b612fe5565b612d5b565b9050919050565b600061301c82612fef565b9050919050565b600061302e82613011565b9050919050565b61303e81613023565b82525050565b60006020820190506130596000830184613035565b92915050565b60008060006060848603121561307857613077612cee565b5b600061308686828701612ec8565b935050602061309786828701612ec8565b92505060406130a886828701612d19565b9150509250925092565b600081519050919050565b600082825260208201905092915050565b6000819050602082019050919050565b6130e781612d7b565b82525050565b60006130f983836130de565b60208301905092915050565b6000602082019050919050565b600061311d826130b2565b61312781856130bd565b9350613132836130ce565b8060005b8381101561316357815161314a88826130ed565b975061315583613105565b925050600181019050613136565b5085935050505092915050565b60006060820190506131856000830186612d8d565b81810360208301526131978185613112565b90506131a66040830184612fbb565b949350505050565b600067ffffffffffffffff8211156131c9576131c8612e0b565b5b602082029050602081019050919050565b60006131ed6131e8846131ae565b612e6b565b905080838252602082019050602084028301858111156132105761320f612eac565b5b835b8181101561323957806132258882612ec8565b845260208401935050602081019050613212565b5050509392505050565b600082601f83011261325857613257612df5565b5b81356132688482602086016131da565b91505092915050565b60008060008060008060c0878903121561328e5761328d612cee565b5b600061329c89828a01612de0565b96505060206132ad89828a01612d19565b95505060406132be89828a01612d19565b945050606087013567ffffffffffffffff8111156132df576132de612cf3565b5b6132eb89828a01613243565b93505060806132fc89828a01612ec8565b92505060a061330d89828a01612d19565b9150509295509295509295565b600081519050919050565b600082825260208201905092915050565b6000819050602082019050919050565b61334f81612cf8565b82525050565b60006133618383613346565b60208301905092915050565b6000602082019050919050565b60006133858261331a565b61338f8185613325565b935061339a83613336565b8060005b838110156133cb5781516133b28882613355565b97506133bd8361336d565b92505060018101905061339e565b5085935050505092915050565b600060208201905081810360008301526133f2818461337a565b905092915050565b600061340582612d7b565b9050919050565b613415816133fa565b811461342057600080fd5b50565b6000813590506134328161340c565b92915050565b6000806040838503121561344f5761344e612cee565b5b600061345d85828601613423565b925050602061346e85828601612d19565b9150509250929050565b6000806040838503121561348f5761348e612cee565b5b600061349d85828601612ec8565b92505060206134ae85828601612ec8565b9150509250929050565b600081519050919050565b600082825260208201905092915050565b6000819050602082019050919050565b600060049050919050565b600081905092915050565b6000819050919050565b6000602082019050919050565b61351a816134e4565b61352481846134ef565b925061352f826134fa565b8060005b8381101561356057815161354787826130ed565b965061355283613504565b925050600181019050613533565b505050505050565b60006135748383613511565b60808301905092915050565b6000602082019050919050565b6000613598826134b8565b6135a281856134c3565b93506135ad836134d4565b8060005b838110156135de5781516135c58882613568565b97506135d083613580565b9250506001810190506135b1565b5085935050505092915050565b60006040820190508181036000830152613605818561358d565b90506136146020830184612fbb565b9392505050565b600080600080600060a0868803121561363757613636612cee565b5b600061364588828901612d19565b955050602061365688828901612d19565b945050604061366788828901612ec8565b935050606061367888828901612ec8565b925050608061368988828901612d19565b9150509295509295909350565b60008115159050919050565b6136ab81613696565b82525050565b600081519050919050565b600082825260208201905092915050565b60005b838110156136eb5780820151818401526020810190506136d0565b838111156136fa576000848401525b50505050565b600061370b826136b1565b61371581856136bc565b93506137258185602086016136cd565b61372e81612dfa565b840191505092915050565b600060408201905061374e60008301856136a2565b81810360208301526137608184613700565b90509392505050565b60006020828403121561377f5761377e612cee565b5b600061378d84828501612ec8565b91505092915050565b7f4e487b7100000000000000000000000000000000000000000000000000000000600052603260045260246000fd5b60006040820190506137da6000830185612fbb565b81810360208301526137ec8184613112565b90509392505050565b600067ffffffffffffffff8211156138105761380f612e0b565b5b602082029050602081019050919050565b60008151905061383081612d02565b92915050565b6000613849613844846137f5565b612e6b565b9050808382526020820190506020840283018581111561386c5761386b612eac565b5b835b8181101561389557806138818882613821565b84526020840193505060208101905061386e565b5050509392505050565b600082601f8301126138b4576138b3612df5565b5b81516138c4848260208601613836565b91505092915050565b6000602082840312156138e3576138e2612cee565b5b600082015167ffffffffffffffff81111561390157613900612cf3565b5b61390d8482850161389f565b91505092915050565b7f4e487b7100000000000000000000000000000000000000000000000000000000600052601160045260246000fd5b600061395082612cf8565b91507fffffffffffffffffffffffffffffffffffffffffffffffffffffffffffffffff820361398257613981613916565b5b600182019050919050565b600082825260208201905092915050565b7f4f776e61626c653a2063616c6c6572206973206e6f7420746865206f776e6572600082015250565b60006139d460208361398d565b91506139df8261399e565b602082019050919050565b60006020820190508181036000830152613a03816139c7565b9050919050565b6000604082019050613a1f6000830185612d8d565b613a2c6020830184612fbb565b9392505050565b613a3c81613696565b8114613a4757600080fd5b50565b600081519050613a5981613a33565b92915050565b600060208284031215613a7557613a74612cee565b5b6000613a8384828501613a4a565b91505092915050565b600060a082019050613aa16000830188612fbb565b613aae6020830187612fbb565b8181036040830152613ac08186613112565b9050613acf6060830185612d8d565b613adc6080830184612fbb565b9695505050505050565b6000613af182612cf8565b9150613afc83612cf8565b925082821015613b0f57613b0e613916565b5b828203905092915050565b60008160011c9050919050565b6000808291508390505b6001851115613b7157808604811115613b4d57613b4c613916565b5b6001851615613b5c5780820291505b8081029050613b6a85613b1a565b9450613b31565b94509492505050565b600082613b8a5760019050613c46565b81613b985760009050613c46565b8160018114613bae5760028114613bb857613be7565b6001915050613c46565b60ff841115613bca57613bc9613916565b5b8360020a915084821115613be157613be0613916565b5b50613c46565b5060208310610133831016604e8410600b8410161715613c1c5782820a905083811115613c1757613c16613916565b5b613c46565b613c298484846001613b27565b92509050818404811115613c4057613c3f613916565b5b81810290505b9392505050565b600060ff82169050919050565b6000613c6582612cf8565b9150613c7083613c4d565b9250613c9d7fffffffffffffffffffffffffffffffffffffffffffffffffffffffffffffffff8484613b7a565b905092915050565b6000613cb082612cf8565b9150613cbb83612cf8565b9250827fffffffffffffffffffffffffffffffffffffffffffffffffffffffffffffffff03821115613cf057613cef613916565b5b828201905092915050565b6000608082019050613d106000830187612fbb565b613d1d6020830186612fbb565b613d2a6040830185612d8d565b8181036060830152613d3c8184613112565b905095945050505050565b7f4f776e61626c653a206e6577206f776e657220697320746865207a65726f206160008201527f6464726573730000000000000000000000000000000000000000000000000000602082015250565b6000613da360268361398d565b9150613dae82613d47565b604082019050919050565b60006020820190508181036000830152613dd281613d96565b9050919050565b6000606082019050613dee6000830186612d8d565b613dfb6020830185612d8d565b613e086040830184612fbb565b949350505050565b7f5361666545524332303a204552433230206f7065726174696f6e20646964206e60008201527f6f74207375636365656400000000000000000000000000000000000000000000602082015250565b6000613e6c602a8361398d565b9150613e7782613e10565b604082019050919050565b60006020820190508181036000830152613e9b81613e5f565b9050919050565b7f416464726573733a20696e73756666696369656e742062616c616e636520666f60008201527f722063616c6c0000000000000000000000000000000000000000000000000000602082015250565b6000613efe60268361398d565b9150613f0982613ea2565b604082019050919050565b60006020820190508181036000830152613f2d81613ef1565b9050919050565b7f416464726573733a2063616c6c20746f206e6f6e2d636f6e7472616374000000600082015250565b6000613f6a601d8361398d565b9150613f7582613f34565b602082019050919050565b60006020820190508181036000830152613f9981613f5d565b9050919050565b600081905092915050565b6000613fb6826136b1565b613fc08185613fa0565b9350613fd08185602086016136cd565b80840191505092915050565b6000613fe88284613fab565b915081905092915050565b600081519050919050565b600061400982613ff3565b614013818561398d565b93506140238185602086016136cd565b61402c81612dfa565b840191505092915050565b600060208201905081810360008301526140518184613ffe565b90509291505056fea2646970667358221220c55ea0bdfebfef82966f83a724a5dbfed21e732b0c1bfcf14fa927e9c503fe9f64736f6c634300080d0033",
  "linkReferences": {},
  "deployedLinkReferences": {}
}