{
  "abi": [
    {
      "inputs": [
        {
          "internalType": "uint256",
          "name": "value",
          "type": "uint256"
        }
      ],
      "name": "fromUint256",
      "outputs": [
        {
          "internalType": "string",
          "name": "",
          "type": "string"
        }
      ],
      "stateMutability": "pure",
      "type": "function"
    }
  ],
  "bytecode": "608060405234801561001057600080fd5b506101e6806100206000396000f3fe608060405234801561001057600080fd5b506004361061002b5760003560e01c8063a2bd364414610030575b600080fd5b61004d6004803603602081101561004657600080fd5b50356100c2565b6040805160208082528351818301528351919283929083019185019080838360005b8381101561008757818101518382015260200161006f565b50505050905090810190601f1680156100b45780820380516001836020036101000a031916815260200191505b509250505060405180910390f35b60606100cd826100d5565b90505b919050565b6060816100fa57506040805180820190915260018152600360fc1b60208201526100d0565b8160005b811561011257600101600a820491506100fe565b60608167ffffffffffffffff8111801561012b57600080fd5b506040519080825280601f01601f191660200182016040528015610156576020820181803683370190505b50859350905060001982015b83156101a757600a840660300160f81b8282806001900393508151811061018557fe5b60200101906001600160f81b031916908160001a905350600a84049350610162565b5094935050505056fea264697066735822122016acc7139cf10b4e466105516a690dd8fe7ee112aabb4016abe4fc777412ec9064736f6c634300060c0033",
  "bytecodeSha1": "3ff5277b322549714b09f639e38cb196757df787",
  "compiler": {
    "evm_version": "istanbul",
    "optimizer": {
      "enabled": true,
      "runs": 200
    },
    "version": "0.6.12+commit.27d51765"
  },
  "contractName": "StringsMock",
  "language": "Solidity",
  "natspec": {
    "kind": "dev",
    "methods": {},
    "version": 1
  },
  "opcodes": "PUSH1 0x80 PUSH1 0x40 MSTORE CALLVALUE DUP1 ISZERO PUSH2 0x10 JUMPI PUSH1 0x0 DUP1 REVERT JUMPDEST POP PUSH1 0x4 CALLDATASIZE LT PUSH2 0x2B JUMPI PUSH1 0x0 CALLDATALOAD PUSH1 0xE0 SHR DUP1 PUSH4 0xA2BD3644 EQ PUSH2 0x30 JUMPI JUMPDEST PUSH1 0x0 DUP1 REVERT JUMPDEST PUSH2 0x4D PUSH1 0x4 DUP1 CALLDATASIZE SUB PUSH1 0x20 DUP2 LT ISZERO PUSH2 0x46 JUMPI PUSH1 0x0 DUP1 REVERT JUMPDEST POP CALLDATALOAD PUSH2 0xC2 JUMP JUMPDEST PUSH1 0x40 DUP1 MLOAD PUSH1 0x20 DUP1 DUP3 MSTORE DUP4 MLOAD DUP2 DUP4 ADD MSTORE DUP4 MLOAD SWAP2 SWAP3 DUP4 SWAP3 SWAP1 DUP4 ADD SWAP2 DUP6 ADD SWAP1 DUP1 DUP4 DUP4 PUSH1 0x0 JUMPDEST DUP4 DUP2 LT ISZERO PUSH2 0x87 JUMPI DUP2 DUP2 ADD MLOAD DUP4 DUP3 ADD MSTORE PUSH1 0x20 ADD PUSH2 0x6F JUMP JUMPDEST POP POP POP POP SWAP1 POP SWAP1 DUP2 ADD SWAP1 PUSH1 0x1F AND DUP1 ISZERO PUSH2 0xB4 JUMPI DUP1 DUP3 SUB DUP1 MLOAD PUSH1 0x1 DUP4 PUSH1 0x20 SUB PUSH2 0x100 EXP SUB NOT AND DUP2 MSTORE PUSH1 0x20 ADD SWAP2 POP JUMPDEST POP SWAP3 POP POP POP PUSH1 0x40 MLOAD DUP1 SWAP2 SUB SWAP1 RETURN JUMPDEST PUSH1 0x60 PUSH2 0xCD DUP3 PUSH2 0xD5 JUMP JUMPDEST SWAP1 POP JUMPDEST SWAP2 SWAP1 POP JUMP JUMPDEST PUSH1 0x60 DUP2 PUSH2 0xFA JUMPI POP PUSH1 0x40 DUP1 MLOAD DUP1 DUP3 ADD SWAP1 SWAP2 MSTORE PUSH1 0x1 DUP2 MSTORE PUSH1 0x3 PUSH1 0xFC SHL PUSH1 0x20 DUP3 ADD MSTORE PUSH2 0xD0 JUMP JUMPDEST DUP2 PUSH1 0x0 JUMPDEST DUP2 ISZERO PUSH2 0x112 JUMPI PUSH1 0x1 ADD PUSH1 0xA DUP3 DIV SWAP2 POP PUSH2 0xFE JUMP JUMPDEST PUSH1 0x60 DUP2 PUSH8 0xFFFFFFFFFFFFFFFF DUP2 GT DUP1 ISZERO PUSH2 0x12B JUMPI PUSH1 0x0 DUP1 REVERT JUMPDEST POP PUSH1 0x40 MLOAD SWAP1 DUP1 DUP3 MSTORE DUP1 PUSH1 0x1F ADD PUSH1 0x1F NOT AND PUSH1 0x20 ADD DUP3 ADD PUSH1 0x40 MSTORE DUP1 ISZERO PUSH2 0x156 JUMPI PUSH1 0x20 DUP3 ADD DUP2 DUP1 CALLDATASIZE DUP4 CALLDATACOPY ADD SWAP1 POP JUMPDEST POP DUP6 SWAP4 POP SWAP1 POP PUSH1 0x0 NOT DUP3 ADD JUMPDEST DUP4 ISZERO PUSH2 0x1A7 JUMPI PUSH1 0xA DUP5 MOD PUSH1 0x30 ADD PUSH1 0xF8 SHL DUP3 DUP3 DUP1 PUSH1 0x1 SWAP1 SUB SWAP4 POP DUP2 MLOAD DUP2 LT PUSH2 0x185 JUMPI INVALID JUMPDEST PUSH1 0x20 ADD ADD SWAP1 PUSH1 0x1 PUSH1 0x1 PUSH1 0xF8 SHL SUB NOT AND SWAP1 DUP2 PUSH1 0x0 BYTE SWAP1 MSTORE8 POP PUSH1 0xA DUP5 DIV SWAP4 POP PUSH2 0x162 JUMP JUMPDEST POP SWAP5 SWAP4 POP POP POP POP JUMP INVALID LOG2 PUSH5 0x6970667358 0x22 SLT KECCAK256 AND 0xAC 0xC7 SGT SWAP13 CALL SIGNEXTEND 0x4E CHAINID PUSH2 0x551 PUSH11 0x690DD8FE7EE112AABB4016 0xAB 0xE4 0xFC PUSH24 0x7412EC9064736F6C634300060C0033000000000000000000 ",
  "sha1": "189a4163fd76868181962956da5ff7e6ce787c96",
  "source": "pragma solidity ^0.6.0;\n\nimport \"../utils/Strings.sol\";\n\ncontract StringsMock {\n    function fromUint256(uint256 value) public pure returns (string memory) {\n        return Strings.toString(value);\n    }\n}\n",
  "sourcePath": "contracts/openzeppelin/contracts/mocks/StringsMock.sol",
  "type": "contract"
}