{
  "_format": "hh-sol-artifact-1",
  "contractName": "BobToken",
  "sourceName": "contracts/CobToken.sol",
  "abi": [
    {
      "inputs": [
        {
          "internalType": "address",
          "name": "gnosisSafe",
          "type": "address"
        }
      ],
      "stateMutability": "nonpayable",
      "type": "constructor"
    },
    {
      "anonymous": false,
      "inputs": [
        {
          "indexed": true,
          "internalType": "address",
          "name": "owner",
          "type": "address"
        },
        {
          "indexed": true,
          "internalType": "address",
          "name": "spender",
          "type": "address"
        },
        {
          "indexed": false,
          "internalType": "uint256",
          "name": "value",
          "type": "uint256"
        }
      ],
      "name": "Approval",
      "type": "event"
    },
    {
      "anonymous": false,
      "inputs": [
        {
          "indexed": true,
          "internalType": "address",
          "name": "previousOwner",
          "type": "address"
        },
        {
          "indexed": true,
          "internalType": "address",
          "name": "newOwner",
          "type": "address"
        }
      ],
      "name": "OwnershipTransferred",
      "type": "event"
    },
    {
      "anonymous": false,
      "inputs": [
        {
          "indexed": true,
          "internalType": "address",
          "name": "from",
          "type": "address"
        },
        {
          "indexed": true,
          "internalType": "address",
          "name": "to",
          "type": "address"
        },
        {
          "indexed": false,
          "internalType": "uint256",
          "name": "value",
          "type": "uint256"
        }
      ],
      "name": "Transfer",
      "type": "event"
    },
    {
      "inputs": [],
      "name": "INITIALSUPPLY",
      "outputs": [
        {
          "internalType": "uint256",
          "name": "",
          "type": "uint256"
        }
      ],
      "stateMutability": "view",
      "type": "function"
    },
    {
      "inputs": [],
      "name": "MAXSUPPLY",
      "outputs": [
        {
          "internalType": "uint256",
          "name": "",
          "type": "uint256"
        }
      ],
      "stateMutability": "view",
      "type": "function"
    },
    {
      "inputs": [],
      "name": "REWARDSSUPPLY",
      "outputs": [
        {
          "internalType": "uint256",
          "name": "",
          "type": "uint256"
        }
      ],
      "stateMutability": "view",
      "type": "function"
    },
    {
      "inputs": [
        {
          "internalType": "address",
          "name": "owner",
          "type": "address"
        },
        {
          "internalType": "address",
          "name": "spender",
          "type": "address"
        }
      ],
      "name": "allowance",
      "outputs": [
        {
          "internalType": "uint256",
          "name": "",
          "type": "uint256"
        }
      ],
      "stateMutability": "view",
      "type": "function"
    },
    {
      "inputs": [
        {
          "internalType": "address",
          "name": "spender",
          "type": "address"
        },
        {
          "internalType": "uint256",
          "name": "amount",
          "type": "uint256"
        }
      ],
      "name": "approve",
      "outputs": [
        {
          "internalType": "bool",
          "name": "",
          "type": "bool"
        }
      ],
      "stateMutability": "nonpayable",
      "type": "function"
    },
    {
      "inputs": [
        {
          "internalType": "address",
          "name": "account",
          "type": "address"
        }
      ],
      "name": "balanceOf",
      "outputs": [
        {
          "internalType": "uint256",
          "name": "",
          "type": "uint256"
        }
      ],
      "stateMutability": "view",
      "type": "function"
    },
    {
      "inputs": [],
      "name": "decimals",
      "outputs": [
        {
          "internalType": "uint8",
          "name": "",
          "type": "uint8"
        }
      ],
      "stateMutability": "view",
      "type": "function"
    },
    {
      "inputs": [
        {
          "internalType": "address",
          "name": "spender",
          "type": "address"
        },
        {
          "internalType": "uint256",
          "name": "subtractedValue",
          "type": "uint256"
        }
      ],
      "name": "decreaseAllowance",
      "outputs": [
        {
          "internalType": "bool",
          "name": "",
          "type": "bool"
        }
      ],
      "stateMutability": "nonpayable",
      "type": "function"
    },
    {
      "inputs": [
        {
          "internalType": "address",
          "name": "spender",
          "type": "address"
        },
        {
          "internalType": "uint256",
          "name": "addedValue",
          "type": "uint256"
        }
      ],
      "name": "increaseAllowance",
      "outputs": [
        {
          "internalType": "bool",
          "name": "",
          "type": "bool"
        }
      ],
      "stateMutability": "nonpayable",
      "type": "function"
    },
    {
      "inputs": [
        {
          "internalType": "address",
          "name": "_to",
          "type": "address"
        },
        {
          "internalType": "uint256",
          "name": "_amount",
          "type": "uint256"
        }
      ],
      "name": "mint",
      "outputs": [],
      "stateMutability": "nonpayable",
      "type": "function"
    },
    {
      "inputs": [],
      "name": "name",
      "outputs": [
        {
          "internalType": "string",
          "name": "",
          "type": "string"
        }
      ],
      "stateMutability": "view",
      "type": "function"
    },
    {
      "inputs": [],
      "name": "owner",
      "outputs": [
        {
          "internalType": "address",
          "name": "",
          "type": "address"
        }
      ],
      "stateMutability": "view",
      "type": "function"
    },
    {
      "inputs": [],
      "name": "renounceOwnership",
      "outputs": [],
      "stateMutability": "nonpayable",
      "type": "function"
    },
    {
      "inputs": [],
      "name": "symbol",
      "outputs": [
        {
          "internalType": "string",
          "name": "",
          "type": "string"
        }
      ],
      "stateMutability": "view",
      "type": "function"
    },
    {
      "inputs": [],
      "name": "totalSupply",
      "outputs": [
        {
          "internalType": "uint256",
          "name": "",
          "type": "uint256"
        }
      ],
      "stateMutability": "view",
      "type": "function"
    },
    {
      "inputs": [
        {
          "internalType": "address",
          "name": "recipient",
          "type": "address"
        },
        {
          "internalType": "uint256",
          "name": "amount",
          "type": "uint256"
        }
      ],
      "name": "transfer",
      "outputs": [
        {
          "internalType": "bool",
          "name": "",
          "type": "bool"
        }
      ],
      "stateMutability": "nonpayable",
      "type": "function"
    },
    {
      "inputs": [
        {
          "internalType": "address",
          "name": "sender",
          "type": "address"
        },
        {
          "internalType": "address",
          "name": "recipient",
          "type": "address"
        },
        {
          "internalType": "uint256",
          "name": "amount",
          "type": "uint256"
        }
      ],
      "name": "transferFrom",
      "outputs": [
        {
          "internalType": "bool",
          "name": "",
          "type": "bool"
        }
      ],
      "stateMutability": "nonpayable",
      "type": "function"
    },
    {
      "inputs": [
        {
          "internalType": "address",
          "name": "newOwner",
          "type": "address"
        }
      ],
      "name": "transferOwnership",
      "outputs": [],
      "stateMutability": "nonpayable",
      "type": "function"
    }
  ],
  "bytecode": "0x60806040523480156200001157600080fd5b506040516200216b3803806200216b833981810160405281019062000037919062000433565b6040518060400160405280600381526020017f424f4200000000000000000000000000000000000000000000000000000000008152506040518060400160405280600481526020017f48494c4c000000000000000000000000000000000000000000000000000000008152508160039080519060200190620000bb9291906200036c565b508060049080519060200190620000d49291906200036c565b505050620000f7620000eb6200011b60201b60201c565b6200012360201b60201c565b62000114816a0427321d068584a2000000620001e960201b60201c565b5062000659565b600033905090565b6000600560009054906101000a900473ffffffffffffffffffffffffffffffffffffffff16905081600560006101000a81548173ffffffffffffffffffffffffffffffffffffffff021916908373ffffffffffffffffffffffffffffffffffffffff1602179055508173ffffffffffffffffffffffffffffffffffffffff168173ffffffffffffffffffffffffffffffffffffffff167f8be0079c531659141344cd1fd0a4f28419497f9722a3daafe3b4186f6b6457e060405160405180910390a35050565b600073ffffffffffffffffffffffffffffffffffffffff168273ffffffffffffffffffffffffffffffffffffffff1614156200025c576040517f08c379a0000000000000000000000000000000000000000000000000000000008152600401620002539062000497565b60405180910390fd5b62000270600083836200036260201b60201c565b8060026000828254620002849190620004e7565b92505081905550806000808473ffffffffffffffffffffffffffffffffffffffff1673ffffffffffffffffffffffffffffffffffffffff1681526020019081526020016000206000828254620002db9190620004e7565b925050819055508173ffffffffffffffffffffffffffffffffffffffff16600073ffffffffffffffffffffffffffffffffffffffff167fddf252ad1be2c89b69c2b068fc378daa952ba7f163c4a11628f55a4df523b3ef83604051620003429190620004b9565b60405180910390a36200035e600083836200036760201b60201c565b5050565b505050565b505050565b8280546200037a9062000582565b90600052602060002090601f0160209004810192826200039e5760008555620003ea565b82601f10620003b957805160ff1916838001178555620003ea565b82800160010185558215620003ea579182015b82811115620003e9578251825591602001919060010190620003cc565b5b509050620003f99190620003fd565b5090565b5b8082111562000418576000816000905550600101620003fe565b5090565b6000815190506200042d816200063f565b92915050565b6000602082840312156200044657600080fd5b600062000456848285016200041c565b91505092915050565b60006200046e601f83620004d6565b91506200047b8262000616565b602082019050919050565b620004918162000578565b82525050565b60006020820190508181036000830152620004b2816200045f565b9050919050565b6000602082019050620004d0600083018462000486565b92915050565b600082825260208201905092915050565b6000620004f48262000578565b9150620005018362000578565b9250827fffffffffffffffffffffffffffffffffffffffffffffffffffffffffffffffff03821115620005395762000538620005b8565b5b828201905092915050565b6000620005518262000558565b9050919050565b600073ffffffffffffffffffffffffffffffffffffffff82169050919050565b6000819050919050565b600060028204905060018216806200059b57607f821691505b60208210811415620005b257620005b1620005e7565b5b50919050565b7f4e487b7100000000000000000000000000000000000000000000000000000000600052601160045260246000fd5b7f4e487b7100000000000000000000000000000000000000000000000000000000600052602260045260246000fd5b7f45524332303a206d696e7420746f20746865207a65726f206164647265737300600082015250565b6200064a8162000544565b81146200065657600080fd5b50565b611b0280620006696000396000f3fe608060405234801561001057600080fd5b50600436106101165760003560e01c8063758b4e86116100a2578063a9059cbb11610071578063a9059cbb146102e5578063cdba5b0914610315578063dd62ed3e14610333578063de6ab39c14610363578063f2fde38b1461038157610116565b8063758b4e861461025b5780638da5cb5b1461027957806395d89b4114610297578063a457c2d7146102b557610116565b8063313ce567116100e9578063313ce567146101b757806339509351146101d557806340c10f191461020557806370a0823114610221578063715018a61461025157610116565b806306fdde031461011b578063095ea7b31461013957806318160ddd1461016957806323b872dd14610187575b600080fd5b61012361039d565b60405161013091906114a1565b60405180910390f35b610153600480360381019061014e919061125c565b61042f565b6040516101609190611486565b60405180910390f35b61017161044d565b60405161017e9190611603565b60405180910390f35b6101a1600480360381019061019c919061120d565b610457565b6040516101ae9190611486565b60405180910390f35b6101bf61054f565b6040516101cc919061161e565b60405180910390f35b6101ef60048036038101906101ea919061125c565b610558565b6040516101fc9190611486565b60405180910390f35b61021f600480360381019061021a919061125c565b610604565b005b61023b600480360381019061023691906111a8565b6106b9565b6040516102489190611603565b60405180910390f35b610259610701565b005b610263610789565b6040516102709190611603565b60405180910390f35b610281610798565b60405161028e919061146b565b60405180910390f35b61029f6107c2565b6040516102ac91906114a1565b60405180910390f35b6102cf60048036038101906102ca919061125c565b610854565b6040516102dc9190611486565b60405180910390f35b6102ff60048036038101906102fa919061125c565b61093f565b60405161030c9190611486565b60405180910390f35b61031d61095d565b60405161032a9190611603565b60405180910390f35b61034d600480360381019061034891906111d1565b61096c565b60405161035a9190611603565b60405180910390f35b61036b6109f3565b6040516103789190611603565b60405180910390f35b61039b600480360381019061039691906111a8565b610a02565b005b6060600380546103ac90611733565b80601f01602080910402602001604051908101604052809291908181526020018280546103d890611733565b80156104255780601f106103fa57610100808354040283529160200191610425565b820191906000526020600020905b81548152906001019060200180831161040857829003601f168201915b5050505050905090565b600061044361043c610afa565b8484610b02565b6001905092915050565b6000600254905090565b6000610464848484610ccd565b6000600160008673ffffffffffffffffffffffffffffffffffffffff1673ffffffffffffffffffffffffffffffffffffffff16815260200190815260200160002060006104af610afa565b73ffffffffffffffffffffffffffffffffffffffff1673ffffffffffffffffffffffffffffffffffffffff1681526020019081526020016000205490508281101561052f576040517f08c379a000000000000000000000000000000000000000000000000000000000815260040161052690611543565b60405180910390fd5b6105438561053b610afa565b858403610b02565b60019150509392505050565b60006012905090565b60006105fa610565610afa565b848460016000610573610afa565b73ffffffffffffffffffffffffffffffffffffffff1673ffffffffffffffffffffffffffffffffffffffff16815260200190815260200160002060008873ffffffffffffffffffffffffffffffffffffffff1673ffffffffffffffffffffffffffffffffffffffff168152602001908152602001600020546105f59190611655565b610b02565b6001905092915050565b61060c610afa565b73ffffffffffffffffffffffffffffffffffffffff1661062a610798565b73ffffffffffffffffffffffffffffffffffffffff1614610680576040517f08c379a000000000000000000000000000000000000000000000000000000000815260040161067790611563565b60405180910390fd5b600061068a61044d565b90506a22bdd88fed9efc6a00000082826106a49190611655565b116106b4576106b38383610f4e565b5b505050565b60008060008373ffffffffffffffffffffffffffffffffffffffff1673ffffffffffffffffffffffffffffffffffffffff168152602001908152602001600020549050919050565b610709610afa565b73ffffffffffffffffffffffffffffffffffffffff16610727610798565b73ffffffffffffffffffffffffffffffffffffffff161461077d576040517f08c379a000000000000000000000000000000000000000000000000000000000815260040161077490611563565b60405180910390fd5b61078760006110ae565b565b6a22bdd88fed9efc6a00000081565b6000600560009054906101000a900473ffffffffffffffffffffffffffffffffffffffff16905090565b6060600480546107d190611733565b80601f01602080910402602001604051908101604052809291908181526020018280546107fd90611733565b801561084a5780601f1061081f5761010080835404028352916020019161084a565b820191906000526020600020905b81548152906001019060200180831161082d57829003601f168201915b5050505050905090565b60008060016000610863610afa565b73ffffffffffffffffffffffffffffffffffffffff1673ffffffffffffffffffffffffffffffffffffffff16815260200190815260200160002060008573ffffffffffffffffffffffffffffffffffffffff1673ffffffffffffffffffffffffffffffffffffffff16815260200190815260200160002054905082811015610920576040517f08c379a0000000000000000000000000000000000000000000000000000000008152600401610917906115c3565b60405180910390fd5b61093461092b610afa565b85858403610b02565b600191505092915050565b600061095361094c610afa565b8484610ccd565b6001905092915050565b6a1e96a672e71977c800000081565b6000600160008473ffffffffffffffffffffffffffffffffffffffff1673ffffffffffffffffffffffffffffffffffffffff16815260200190815260200160002060008373ffffffffffffffffffffffffffffffffffffffff1673ffffffffffffffffffffffffffffffffffffffff16815260200190815260200160002054905092915050565b6a0427321d068584a200000081565b610a0a610afa565b73ffffffffffffffffffffffffffffffffffffffff16610a28610798565b73ffffffffffffffffffffffffffffffffffffffff1614610a7e576040517f08c379a0000000000000000000000000000000000000000000000000000000008152600401610a7590611563565b60405180910390fd5b600073ffffffffffffffffffffffffffffffffffffffff168173ffffffffffffffffffffffffffffffffffffffff161415610aee576040517f08c379a0000000000000000000000000000000000000000000000000000000008152600401610ae5906114e3565b60405180910390fd5b610af7816110ae565b50565b600033905090565b600073ffffffffffffffffffffffffffffffffffffffff168373ffffffffffffffffffffffffffffffffffffffff161415610b72576040517f08c379a0000000000000000000000000000000000000000000000000000000008152600401610b69906115a3565b60405180910390fd5b600073ffffffffffffffffffffffffffffffffffffffff168273ffffffffffffffffffffffffffffffffffffffff161415610be2576040517f08c379a0000000000000000000000000000000000000000000000000000000008152600401610bd990611503565b60405180910390fd5b80600160008573ffffffffffffffffffffffffffffffffffffffff1673ffffffffffffffffffffffffffffffffffffffff16815260200190815260200160002060008473ffffffffffffffffffffffffffffffffffffffff1673ffffffffffffffffffffffffffffffffffffffff168152602001908152602001600020819055508173ffffffffffffffffffffffffffffffffffffffff168373ffffffffffffffffffffffffffffffffffffffff167f8c5be1e5ebec7d5bd14f71427d1e84f3dd0314c0f7b2291e5b200ac8c7c3b92583604051610cc09190611603565b60405180910390a3505050565b600073ffffffffffffffffffffffffffffffffffffffff168373ffffffffffffffffffffffffffffffffffffffff161415610d3d576040517f08c379a0000000000000000000000000000000000000000000000000000000008152600401610d3490611583565b60405180910390fd5b600073ffffffffffffffffffffffffffffffffffffffff168273ffffffffffffffffffffffffffffffffffffffff161415610dad576040517f08c379a0000000000000000000000000000000000000000000000000000000008152600401610da4906114c3565b60405180910390fd5b610db8838383611174565b60008060008573ffffffffffffffffffffffffffffffffffffffff1673ffffffffffffffffffffffffffffffffffffffff16815260200190815260200160002054905081811015610e3e576040517f08c379a0000000000000000000000000000000000000000000000000000000008152600401610e3590611523565b60405180910390fd5b8181036000808673ffffffffffffffffffffffffffffffffffffffff1673ffffffffffffffffffffffffffffffffffffffff16815260200190815260200160002081905550816000808573ffffffffffffffffffffffffffffffffffffffff1673ffffffffffffffffffffffffffffffffffffffff1681526020019081526020016000206000828254610ed19190611655565b925050819055508273ffffffffffffffffffffffffffffffffffffffff168473ffffffffffffffffffffffffffffffffffffffff167fddf252ad1be2c89b69c2b068fc378daa952ba7f163c4a11628f55a4df523b3ef84604051610f359190611603565b60405180910390a3610f48848484611179565b50505050565b600073ffffffffffffffffffffffffffffffffffffffff168273ffffffffffffffffffffffffffffffffffffffff161415610fbe576040517f08c379a0000000000000000000000000000000000000000000000000000000008152600401610fb5906115e3565b60405180910390fd5b610fca60008383611174565b8060026000828254610fdc9190611655565b92505081905550806000808473ffffffffffffffffffffffffffffffffffffffff1673ffffffffffffffffffffffffffffffffffffffff16815260200190815260200160002060008282546110319190611655565b925050819055508173ffffffffffffffffffffffffffffffffffffffff16600073ffffffffffffffffffffffffffffffffffffffff167fddf252ad1be2c89b69c2b068fc378daa952ba7f163c4a11628f55a4df523b3ef836040516110969190611603565b60405180910390a36110aa60008383611179565b5050565b6000600560009054906101000a900473ffffffffffffffffffffffffffffffffffffffff16905081600560006101000a81548173ffffffffffffffffffffffffffffffffffffffff021916908373ffffffffffffffffffffffffffffffffffffffff1602179055508173ffffffffffffffffffffffffffffffffffffffff168173ffffffffffffffffffffffffffffffffffffffff167f8be0079c531659141344cd1fd0a4f28419497f9722a3daafe3b4186f6b6457e060405160405180910390a35050565b505050565b505050565b60008135905061118d81611a9e565b92915050565b6000813590506111a281611ab5565b92915050565b6000602082840312156111ba57600080fd5b60006111c88482850161117e565b91505092915050565b600080604083850312156111e457600080fd5b60006111f28582860161117e565b92505060206112038582860161117e565b9150509250929050565b60008060006060848603121561122257600080fd5b60006112308682870161117e565b93505060206112418682870161117e565b925050604061125286828701611193565b9150509250925092565b6000806040838503121561126f57600080fd5b600061127d8582860161117e565b925050602061128e85828601611193565b9150509250929050565b6112a1816116ab565b82525050565b6112b0816116bd565b82525050565b60006112c182611639565b6112cb8185611644565b93506112db818560208601611700565b6112e4816117c3565b840191505092915050565b60006112fc602383611644565b9150611307826117d4565b604082019050919050565b600061131f602683611644565b915061132a82611823565b604082019050919050565b6000611342602283611644565b915061134d82611872565b604082019050919050565b6000611365602683611644565b9150611370826118c1565b604082019050919050565b6000611388602883611644565b915061139382611910565b604082019050919050565b60006113ab602083611644565b91506113b68261195f565b602082019050919050565b60006113ce602583611644565b91506113d982611988565b604082019050919050565b60006113f1602483611644565b91506113fc826119d7565b604082019050919050565b6000611414602583611644565b915061141f82611a26565b604082019050919050565b6000611437601f83611644565b915061144282611a75565b602082019050919050565b611456816116e9565b82525050565b611465816116f3565b82525050565b60006020820190506114806000830184611298565b92915050565b600060208201905061149b60008301846112a7565b92915050565b600060208201905081810360008301526114bb81846112b6565b905092915050565b600060208201905081810360008301526114dc816112ef565b9050919050565b600060208201905081810360008301526114fc81611312565b9050919050565b6000602082019050818103600083015261151c81611335565b9050919050565b6000602082019050818103600083015261153c81611358565b9050919050565b6000602082019050818103600083015261155c8161137b565b9050919050565b6000602082019050818103600083015261157c8161139e565b9050919050565b6000602082019050818103600083015261159c816113c1565b9050919050565b600060208201905081810360008301526115bc816113e4565b9050919050565b600060208201905081810360008301526115dc81611407565b9050919050565b600060208201905081810360008301526115fc8161142a565b9050919050565b6000602082019050611618600083018461144d565b92915050565b6000602082019050611633600083018461145c565b92915050565b600081519050919050565b600082825260208201905092915050565b6000611660826116e9565b915061166b836116e9565b9250827fffffffffffffffffffffffffffffffffffffffffffffffffffffffffffffffff038211156116a05761169f611765565b5b828201905092915050565b60006116b6826116c9565b9050919050565b60008115159050919050565b600073ffffffffffffffffffffffffffffffffffffffff82169050919050565b6000819050919050565b600060ff82169050919050565b60005b8381101561171e578082015181840152602081019050611703565b8381111561172d576000848401525b50505050565b6000600282049050600182168061174b57607f821691505b6020821081141561175f5761175e611794565b5b50919050565b7f4e487b7100000000000000000000000000000000000000000000000000000000600052601160045260246000fd5b7f4e487b7100000000000000000000000000000000000000000000000000000000600052602260045260246000fd5b6000601f19601f8301169050919050565b7f45524332303a207472616e7366657220746f20746865207a65726f206164647260008201527f6573730000000000000000000000000000000000000000000000000000000000602082015250565b7f4f776e61626c653a206e6577206f776e657220697320746865207a65726f206160008201527f6464726573730000000000000000000000000000000000000000000000000000602082015250565b7f45524332303a20617070726f766520746f20746865207a65726f20616464726560008201527f7373000000000000000000000000000000000000000000000000000000000000602082015250565b7f45524332303a207472616e7366657220616d6f756e742065786365656473206260008201527f616c616e63650000000000000000000000000000000000000000000000000000602082015250565b7f45524332303a207472616e7366657220616d6f756e742065786365656473206160008201527f6c6c6f77616e6365000000000000000000000000000000000000000000000000602082015250565b7f4f776e61626c653a2063616c6c6572206973206e6f7420746865206f776e6572600082015250565b7f45524332303a207472616e736665722066726f6d20746865207a65726f20616460008201527f6472657373000000000000000000000000000000000000000000000000000000602082015250565b7f45524332303a20617070726f76652066726f6d20746865207a65726f2061646460008201527f7265737300000000000000000000000000000000000000000000000000000000602082015250565b7f45524332303a2064656372656173656420616c6c6f77616e63652062656c6f7760008201527f207a65726f000000000000000000000000000000000000000000000000000000602082015250565b7f45524332303a206d696e7420746f20746865207a65726f206164647265737300600082015250565b611aa7816116ab565b8114611ab257600080fd5b50565b611abe816116e9565b8114611ac957600080fd5b5056fea26469706673582212205357adbee9ea1edccc498e6d4ab9addb3141e02b2344ba8c3d39e71089f2f81a64736f6c63430008040033",
  "linkReferences": {},
  "deployedLinkReferences": {}
}