{"abi":[{"inputs":[{"internalType":"uint256","name":"_slippagePoints","type":"uint256"},{"internalType":"uint256","name":"_slippageBasePoints","type":"uint256"},{"internalType":"contract IUniswapV2Router02[]","name":"_routers","type":"address[]"},{"internalType":"address","name":"_resolver","type":"address"}],"stateMutability":"nonpayable","type":"constructor","name":"constructor"},{"anonymous":false,"inputs":[{"indexed":true,"internalType":"address","name":"_creator","type":"address"},{"indexed":true,"internalType":"uint256","name":"_vaultId","type":"uint256"},{"indexed":false,"internalType":"uint256","name":"_orderId","type":"uint256"}],"name":"CreateOrder","type":"event"},{"anonymous":false,"inputs":[{"indexed":true,"internalType":"address","name":"_creator","type":"address"},{"indexed":true,"internalType":"uint256","name":"_vaultId","type":"uint256"},{"indexed":false,"internalType":"uint256","name":"_tokenId","type":"uint256"}],"name":"CreateTrade","type":"event"},{"anonymous":false,"inputs":[{"indexed":true,"internalType":"address","name":"_receiver","type":"address"},{"indexed":false,"internalType":"address","name":"_gasToken","type":"address"},{"indexed":false,"internalType":"uint256","name":"_amount","type":"uint256"}],"name":"DepositGas","type":"event"},{"anonymous":false,"inputs":[{"indexed":true,"internalType":"address","name":"_orderOwner","type":"address"},{"indexed":true,"internalType":"uint256","name":"_vaultId","type":"uint256"},{"indexed":true,"internalType":"uint256","name":"_tokenId","type":"uint256"},{"indexed":false,"internalType":"uint256","name":"_orderId","type":"uint256"}],"name":"FillOrder","type":"event"},{"anonymous":false,"inputs":[{"indexed":true,"internalType":"address","name":"previousOwner","type":"address"},{"indexed":true,"internalType":"address","name":"newOwner","type":"address"}],"name":"OwnershipTransferred","type":"event"},{"anonymous":false,"inputs":[{"indexed":false,"internalType":"address","name":"account","type":"address"}],"name":"Paused","type":"event"},{"anonymous":false,"inputs":[{"indexed":false,"internalType":"address","name":"account","type":"address"}],"name":"Unpaused","type":"event"},{"anonymous":false,"inputs":[{"indexed":true,"internalType":"address","name":"_owner","type":"address"},{"indexed":true,"internalType":"uint256","name":"_vaultId","type":"uint256"},{"indexed":true,"internalType":"uint256","name":"_tokenId","type":"uint256"}],"name":"Withdraw","type":"event"},{"inputs":[],"name":"ACTIVE_VAULT","outputs":[{"internalType":"uint8","name":"","type":"uint8"}],"stateMutability":"view","type":"function"},{"inputs":[],"name":"DEACTIVATED_VAULT","outputs":[{"internalType":"uint8","name":"","type":"uint8"}],"stateMutability":"view","type":"function"},{"inputs":[],"name":"DepositFees","outputs":[{"internalType":"address","name":"","type":"address"}],"stateMutability":"view","type":"function"},{"inputs":[],"name":"ETH","outputs":[{"internalType":"address","name":"","type":"address"}],"stateMutability":"view","type":"function"},{"inputs":[],"name":"Fees","outputs":[{"internalType":"address","name":"","type":"address"}],"stateMutability":"view","type":"function"},{"inputs":[],"name":"GasToken","outputs":[{"internalType":"address","name":"","type":"address"}],"stateMutability":"view","type":"function"},{"inputs":[],"name":"Gelato","outputs":[{"internalType":"bool","name":"","type":"bool"}],"stateMutability":"view","type":"function"},{"inputs":[],"name":"NOT_A_VAULT","outputs":[{"internalType":"uint8","name":"","type":"uint8"}],"stateMutability":"view","type":"function"},{"inputs":[],"name":"PokeMe","outputs":[{"internalType":"contract IPokeMe","name":"","type":"address"}],"stateMutability":"view","type":"function"},{"inputs":[],"name":"Resolver","outputs":[{"internalType":"contract IResolver","name":"","type":"address"}],"stateMutability":"view","type":"function"},{"inputs":[],"name":"SLIPPAGE_BASE_POINTS","outputs":[{"internalType":"uint256","name":"","type":"uint256"}],"stateMutability":"view","type":"function"},{"inputs":[],"name":"SLIPPAGE_POINTS","outputs":[{"internalType":"uint256","name":"","type":"uint256"}],"stateMutability":"view","type":"function"},{"inputs":[{"internalType":"address","name":"","type":"address"}],"name":"activeOrderFillers","outputs":[{"internalType":"uint8","name":"","type":"uint8"}],"stateMutability":"view","type":"function"},{"inputs":[{"internalType":"contract IUniswapV2Router02","name":"","type":"address"}],"name":"activeRouters","outputs":[{"internalType":"bool","name":"","type":"bool"}],"stateMutability":"view","type":"function"},{"inputs":[{"internalType":"address","name":"_filler","type":"address"}],"name":"addOrderFiller","outputs":[],"stateMutability":"nonpayable","type":"function"},{"inputs":[{"internalType":"address","name":"_vault","type":"address"}],"name":"addVault","outputs":[],"stateMutability":"nonpayable","type":"function"},{"inputs":[{"internalType":"uint256","name":"_vaultId","type":"uint256"},{"internalType":"address","name":"_token","type":"address"},{"internalType":"uint256","name":"_minDeposit","type":"uint256"}],"name":"changeTokenMinimumDeposit","outputs":[],"stateMutability":"nonpayable","type":"function"},{"inputs":[{"internalType":"uint256","name":"_vaultId","type":"uint256"},{"internalType":"address[]","name":"_tokens","type":"address[]"},{"internalType":"uint256[]","name":"_amounts","type":"uint256[]"},{"internalType":"uint256[]","name":"_times","type":"uint256[]"},{"internalType":"uint256","name":"_maxGas","type":"uint256"}],"name":"createTrade","outputs":[],"stateMutability":"nonpayable","type":"function"},{"inputs":[{"internalType":"address","name":"_filler","type":"address"}],"name":"deactivateOrderFiller","outputs":[],"stateMutability":"nonpayable","type":"function"},{"inputs":[{"internalType":"contract IUniswapV2Router02","name":"_router","type":"address"}],"name":"deactivateRouter","outputs":[],"stateMutability":"nonpayable","type":"function"},{"inputs":[{"internalType":"uint256","name":"_vaultId","type":"uint256"},{"internalType":"address","name":"_token","type":"address"}],"name":"deactivateToken","outputs":[],"stateMutability":"nonpayable","type":"function"},{"inputs":[{"internalType":"address","name":"_vault","type":"address"}],"name":"deactivateVault","outputs":[],"stateMutability":"nonpayable","type":"function"},{"inputs":[{"internalType":"address","name":"_receiver","type":"address"}],"name":"depositGas","outputs":[],"stateMutability":"payable","type":"function"},{"inputs":[{"internalType":"uint256","name":"_vaultId","type":"uint256"},{"internalType":"uint256","name":"_orderId","type":"uint256"},{"internalType":"contract IUniswapV2Router02","name":"_router","type":"address"},{"internalType":"address[]","name":"_path","type":"address[]"}],"name":"fillOrder","outputs":[],"stateMutability":"nonpayable","type":"function"},{"inputs":[{"internalType":"uint256","name":"_vaultId","type":"uint256"},{"internalType":"uint256","name":"_orderId","type":"uint256"},{"internalType":"contract IUniswapV2Router02","name":"_router","type":"address"},{"internalType":"address[]","name":"_path","type":"address[]"}],"name":"fillOrderGelato","outputs":[],"stateMutability":"nonpayable","type":"function"},{"inputs":[],"name":"gelato","outputs":[{"internalType":"address payable","name":"","type":"address"}],"stateMutability":"view","type":"function"},{"inputs":[{"internalType":"contract IPokeMe","name":"_pokeMe","type":"address"},{"internalType":"contract IResolver","name":"_resolver","type":"address"},{"internalType":"bool","name":"_gelato","type":"bool"}],"name":"gelatoSettings","outputs":[],"stateMutability":"nonpayable","type":"function"},{"inputs":[{"internalType":"uint256","name":"","type":"uint256"}],"name":"holdingStrategies","outputs":[{"internalType":"address","name":"","type":"address"}],"stateMutability":"view","type":"function"},{"inputs":[{"internalType":"uint256","name":"","type":"uint256"}],"name":"orderFillers","outputs":[{"internalType":"address","name":"","type":"address"}],"stateMutability":"view","type":"function"},{"inputs":[],"name":"owner","outputs":[{"internalType":"address","name":"","type":"address"}],"stateMutability":"view","type":"function"},{"inputs":[],"name":"pause","outputs":[],"stateMutability":"nonpayable","type":"function"},{"inputs":[],"name":"paused","outputs":[{"internalType":"bool","name":"","type":"bool"}],"stateMutability":"view","type":"function"},{"inputs":[{"internalType":"uint256","name":"_vaultId","type":"uint256"}],"name":"priceMultiplier","outputs":[{"internalType":"uint256","name":"","type":"uint256"}],"stateMutability":"view","type":"function"},{"inputs":[],"name":"renounceOwnership","outputs":[],"stateMutability":"nonpayable","type":"function"},{"inputs":[{"internalType":"uint256","name":"","type":"uint256"}],"name":"routers","outputs":[{"internalType":"contract IUniswapV2Router02","name":"","type":"address"}],"stateMutability":"view","type":"function"},{"inputs":[{"internalType":"bool","name":"_whitelist","type":"bool"}],"name":"setOrderFillers","outputs":[],"stateMutability":"nonpayable","type":"function"},{"inputs":[{"internalType":"uint256","name":"_slippagePoints","type":"uint256"},{"internalType":"uint256","name":"_slippageBasePoints","type":"uint256"}],"name":"setSlippage","outputs":[],"stateMutability":"nonpayable","type":"function"},{"inputs":[{"internalType":"uint256","name":"_vaultId","type":"uint256"},{"internalType":"address[]","name":"_tokens","type":"address[]"},{"internalType":"address[]","name":"_strategies","type":"address[]"},{"internalType":"uint256[]","name":"_minDeposits","type":"uint256[]"}],"name":"setTokenStrategies","outputs":[],"stateMutability":"nonpayable","type":"function"},{"inputs":[{"internalType":"uint256","name":"_vaultId","type":"uint256"},{"internalType":"address","name":"_token","type":"address"},{"internalType":"address","name":"_strategy","type":"address"},{"internalType":"uint256","name":"_minDeposit","type":"uint256"}],"name":"setTokenStrategy","outputs":[],"stateMutability":"nonpayable","type":"function"},{"inputs":[{"internalType":"uint256","name":"_vaultId","type":"uint256"},{"internalType":"string","name":"_URI","type":"string"}],"name":"setVaultURI","outputs":[],"stateMutability":"nonpayable","type":"function"},{"inputs":[{"internalType":"uint256","name":"_amountIn","type":"uint256"}],"name":"slippage","outputs":[{"internalType":"uint256","name":"","type":"uint256"}],"stateMutability":"view","type":"function"},{"inputs":[{"internalType":"uint256","name":"","type":"uint256"},{"internalType":"uint256","name":"","type":"uint256"}],"name":"taskIds","outputs":[{"internalType":"bytes32","name":"","type":"bytes32"}],"stateMutability":"view","type":"function"},{"inputs":[{"internalType":"uint256","name":"","type":"uint256"},{"internalType":"uint256","name":"","type":"uint256"}],"name":"tokenMaxGas","outputs":[{"internalType":"uint256","name":"","type":"uint256"}],"stateMutability":"view","type":"function"},{"inputs":[{"internalType":"address","name":"newOwner","type":"address"}],"name":"transferOwnership","outputs":[],"stateMutability":"nonpayable","type":"function"},{"inputs":[],"name":"unpause","outputs":[],"stateMutability":"nonpayable","type":"function"},{"inputs":[{"internalType":"address","name":"","type":"address"}],"name":"userGasAmounts","outputs":[{"internalType":"uint256","name":"","type":"uint256"}],"stateMutability":"view","type":"function"},{"inputs":[{"internalType":"address","name":"_vault","type":"address"}],"name":"vault","outputs":[{"internalType":"uint8","name":"","type":"uint8"}],"stateMutability":"view","type":"function"},{"inputs":[{"internalType":"address","name":"_vault","type":"address"}],"name":"vaultId","outputs":[{"internalType":"uint256","name":"","type":"uint256"}],"stateMutability":"view","type":"function"},{"inputs":[{"internalType":"uint256","name":"","type":"uint256"}],"name":"vaults","outputs":[{"internalType":"contract IVaultBase","name":"","type":"address"}],"stateMutability":"view","type":"function"},{"inputs":[],"name":"vaultsLength","outputs":[{"internalType":"uint256","name":"","type":"uint256"}],"stateMutability":"view","type":"function"},{"inputs":[],"name":"whitelistOrderFillers","outputs":[{"internalType":"bool","name":"","type":"bool"}],"stateMutability":"view","type":"function"},{"inputs":[{"internalType":"uint256","name":"_vaultId","type":"uint256"},{"internalType":"uint256","name":"_tokenId","type":"uint256"}],"name":"withdraw","outputs":[],"stateMutability":"nonpayable","type":"function"},{"inputs":[],"name":"withdrawGas","outputs":[],"stateMutability":"nonpayable","type":"function"}],"bytecode":"6080604052600180546001600160a01b031990811673527a819db1eb0e34426297b03bae11f2f8b3a19e179091556003805490911673eeeeeeeeeeeeeeeeeeeeeeeeeeeeeeeeeeeeeeee1790553480156200005957600080fd5b50604051620043f0380380620043f08339810160408190526200007c9162000335565b60006200008862000180565b600080546001600160a01b0319166001600160a01b0383169081178255604051929350917f8be0079c531659141344cd1fd0a4f28419497f9722a3daafe3b4186f6b6457e0908290a3506000805461ffff60a01b1916600160a81b179055620000f2848462000184565b6003805460ff60a01b1916600160a01b179055600280546001600160a01b0383166001600160a01b031990911617905560005b82518110156200015d57620001548382815181106200014057fe5b6020026020010151620001d560201b60201c565b60010162000125565b50600e805460ff1916600117905562000176336200023c565b5050505062000525565b3390565b80620001a0603284620002df60201b620023001790919060201c565b1115620001ca5760405162461bcd60e51b8152600401620001c19062000415565b60405180910390fd5b600c91909155600d55565b6007805460018181019092557fa66cc928b5edb82af9bd49922954155ab7b0942694bea4ce44661d9a8736c6880180546001600160a01b039093166001600160a01b031990931683179055600091825260086020526040909120805460ff19169091179055565b6001600160a01b03811660009081526010602052604090205460ff1615620002785760405162461bcd60e51b8152600401620001c1906200049e565b600f805460018181019092557f8d1108e10bcb7c27dddfc02ed9d693a074039d026cf4ea4240b40f7d581ac8020180546001600160a01b039093166001600160a01b031990931683179055600091825260106020526040909120805460ff19169091179055565b600082620002f05750600062000322565b82820282848281620002fe57fe5b04146200031f5760405162461bcd60e51b8152600401620001c1906200045d565b90505b92915050565b805162000322816200050c565b600080600080608085870312156200034b578384fd5b845160208087015160408801519296509450906001600160401b038082111562000373578485fd5b818801915088601f83011262000387578485fd5b81518181111562000396578586fd5b8381029150620003a8848301620004e5565b8181528481019084860184860187018d1015620003c3578889fd5b8895505b83861015620003f157620003dc8d8262000328565b835260019590950194918601918601620003c7565b508097505050505050506200040a866060870162000328565b905092959194509250565b60208082526028908201527f436f726e466920436f6e74726f6c6c65723a204d617820536c69707061676520604082015267115e18d95959195960c21b606082015260800190565b60208082526021908201527f536166654d6174683a206d756c7469706c69636174696f6e206f766572666c6f6040820152607760f81b606082015260800190565b60208082526027908201527f436f726e466920436f6e74726f6c6c65723a20496e76616c6964204f72646572604082015266102334b63632b960c91b606082015260800190565b6040518181016001600160401b03811182821017156200050457600080fd5b604052919050565b6001600160a01b03811681146200052257600080fd5b50565b613ebb80620005356000396000f3fe60806040526004361061031a5760003560e01c80638909f553116101ab578063c05d6c41116100f7578063e3f5449911610095578063eeb8b9341161006f578063eeb8b93414610875578063f2fde38b14610895578063f815c03d146108b5578063fd6766f6146108d55761031a565b8063e3f544991461082b578063e9fcd6ce14610840578063eb03c98c146108555761031a565b8063cb306f02116100d1578063cb306f02146107ab578063d8e09316146107cb578063dc516876146107eb578063e20371e31461080b5761031a565b8063c05d6c4114610758578063c123cb4414610778578063c71a6d061461078b5761031a565b80639b2aa77211610164578063aee164071161013e578063aee16407146106ee578063b86e3dc914610703578063bc9ef3e014610723578063bcb5703d146107435761031a565b80639b2aa7721461068e578063aa9f6217146106ae578063ab27feea146106ce5761031a565b80638909f553146104305780638c64ea4a146106045780638d3a513e146106245780638da5cb5b1461064457806396582cb5146106595780639670e0de1461066e5761031a565b80634fec8c341161026a5780636840339a116102235780637c04d11f116101fd5780637c04d11f146105a557806382af54c9146105c55780638322fff2146105da5780638456cb59146105ef5761031a565b80636840339a14610550578063715018a6146105705780637726a73c146105855761031a565b80634fec8c34146104ba578063548a99ad146104dc57806355eaf8f1146104fc578063573ea575146105115780635c975abb14610526578063659755f91461053b5761031a565b806324e702ed116102d75780633f4ba83a116102b15780633f4ba83a14610445578063408198c51461045a578063441a3e701461047a5780634e9c11181461049a5761031a565b806324e702ed146103ee578063256b5a02146104105780633aaa36e6146104305761031a565b8063043b99cc1461031f5780630445ea4b1461034a57806312320bca146103775780631261795d146103995780631ac36471146103ae578063230f9b9d146103ce575b600080fd5b34801561032b57600080fd5b506103346108f5565b604051610341919061376e565b60405180910390f35b34801561035657600080fd5b5061036a6103653660046131b9565b610904565b60405161034191906138af565b34801561038357600080fd5b50610397610392366004613659565b610916565b005b3480156103a557600080fd5b50610397610cb2565b3480156103ba57600080fd5b506103976103c93660046131b9565b610db1565b3480156103da57600080fd5b506103976103e93660046131b9565b610e07565b3480156103fa57600080fd5b50610403610e9b565b6040516103419190613e1b565b34801561041c57600080fd5b5061039761042b3660046131b9565b610ea0565b34801561043c57600080fd5b50610334610f73565b34801561045157600080fd5b50610397610f8b565b34801561046657600080fd5b506104036104753660046131b9565b610fca565b34801561048657600080fd5b50610397610495366004613638565b610fdf565b3480156104a657600080fd5b506103346104b5366004613396565b6111da565b3480156104c657600080fd5b506104cf611201565b60405161034191906138a4565b3480156104e857600080fd5b506103976104f7366004613448565b611211565b34801561050857600080fd5b506104036112c5565b34801561051d57600080fd5b506103346112ca565b34801561053257600080fd5b506104cf6112e2565b34801561054757600080fd5b506103346112f2565b34801561055c57600080fd5b5061033461056b366004613396565b611301565b34801561057c57600080fd5b5061039761130e565b34801561059157600080fd5b5061036a6105a03660046131b9565b61138d565b3480156105b157600080fd5b506103976105c03660046135a3565b6113a8565b3480156105d157600080fd5b5061036a611459565b3480156105e657600080fd5b5061033461145f565b3480156105fb57600080fd5b50610397611477565b34801561061057600080fd5b5061033461061f366004613396565b6114b4565b34801561063057600080fd5b5061036a61063f366004613638565b6114c1565b34801561065057600080fd5b506103346114de565b34801561066557600080fd5b506104cf6114ed565b34801561067a57600080fd5b5061036a610689366004613396565b6114f6565b34801561069a57600080fd5b506103976106a936600461347f565b611529565b3480156106ba57600080fd5b506103976106c93660046131b9565b611737565b3480156106da57600080fd5b506103976106e93660046132dd565b611790565b3480156106fa57600080fd5b5061036a6117d8565b34801561070f57600080fd5b5061039761071e36600461350d565b6117de565b34801561072f57600080fd5b5061039761073e366004613638565b6119fd565b34801561074f57600080fd5b50610403611a40565b34801561076457600080fd5b506104cf6107733660046131b9565b611a45565b6103976107863660046131b9565b611a5a565b34801561079757600080fd5b506103976107a6366004613659565b611b53565b3480156107b757600080fd5b5061036a6107c6366004613638565b611ee3565b3480156107d757600080fd5b506103976107e6366004613315565b611f00565b3480156107f757600080fd5b50610397610806366004613401565b611f83565b34801561081757600080fd5b506103976108263660046133ae565b6120be565b34801561083757600080fd5b50610334612139565b34801561084c57600080fd5b5061036a612148565b34801561086157600080fd5b50610334610870366004613396565b61214e565b34801561088157600080fd5b5061036a610890366004613396565b61215b565b3480156108a157600080fd5b506103976108b03660046131b9565b6121eb565b3480156108c157600080fd5b506104036108d03660046131b9565b6122a1565b3480156108e157600080fd5b506103976108f03660046131b9565b6122bf565b6003546001600160a01b031681565b60066020526000908152604090205481565b600054600160a01b900460ff16156109495760405162461bcd60e51b815260040161094090613ade565b60405180910390fd5b600e5460ff1615610986573360009081526010602052604090205460ff166001146109865760405162461bcd60e51b815260040161094090613c06565b600054600160a81b900460ff166109af5760405162461bcd60e51b815260040161094090613cdb565b6000805460ff60a81b191681555a90506109c7612eb7565b6109d18686612341565b90506109de8487836123e3565b606080600988815481106109ee57fe5b600091825260209091200154604051632ca5159f60e11b81526001600160a01b039091169063594a2b3e90610a2d9033908b908b908b906004016137f0565b600060405180830381600087803b158015610a4757600080fd5b505af1158015610a5b573d6000803e3d6000fd5b505050506040513d6000823e601f3d908101601f19168201604052610a8391908101906131f1565b91509150600060098981548110610a9657fe5b60009182526020909120015484516040516331a9108f60e11b81526001600160a01b0390921691636352211e91610acf916004016138af565b60206040518083038186803b158015610ae757600080fd5b505afa158015610afb573d6000803e3d6000fd5b505050506040513d601f19601f82011682018060405250810190610b1f91906131d5565b9050836000015189826001600160a01b03167f37aacca185d8a700a40142541d808e10bc61ca82eb929cb3df05de903a64dc848b604051610b6091906138af565b60405180910390a4610b72898361247a565b610b7d818a85612560565b6000610b96617530610b905a89906127c3565b90612805565b90506000610ba4823a612300565b6001600160a01b038416600090815260066020526040902054909150811115610bdf5760405162461bcd60e51b815260040161094090613d94565b6001600160a01b038316600090815260066020526040902054610c0290826127c3565b6001600160a01b03841660009081526006602052604080822092909255905133908390610c2e9061376b565b60006040518083038185875af1925050503d8060008114610c6b576040519150601f19603f3d011682016040523d82523d6000602084013e610c70565b606091505b5050905080610c915760405162461bcd60e51b815260040161094090613bc0565b50506000805460ff60a81b1916600160a81b17905550505050505050505050565b600054600160a81b900460ff16610cdb5760405162461bcd60e51b815260040161094090613cdb565b6000805460ff60a81b1916815533815260066020526040902054610d115760405162461bcd60e51b81526004016109409061393e565b3360008181526006602052604080822080549083905590519092908390610d379061376b565b60006040518083038185875af1925050503d8060008114610d74576040519150601f19603f3d011682016040523d82523d6000602084013e610d79565b606091505b5050905080610d9a5760405162461bcd60e51b815260040161094090613bc0565b50506000805460ff60a81b1916600160a81b179055565b610db961282a565b6000546001600160a01b03908116911614610de65760405162461bcd60e51b815260040161094090613b8b565b6001600160a01b03166000908152600860205260409020805460ff19169055565b610e0f61282a565b6000546001600160a01b03908116911614610e3c5760405162461bcd60e51b815260040161094090613b8b565b6001600160a01b03811660009081526010602052604090205460ff16600114610e775760405162461bcd60e51b815260040161094090613c8f565b6001600160a01b03166000908152601060205260409020805460ff19166002179055565b600081565b610ea861282a565b6000546001600160a01b03908116911614610ed55760405162461bcd60e51b815260040161094090613b8b565b6001600160a01b0381166000908152600a602052604090205460ff1615610efb57600080fd5b600980546001600160a01b039092166000818152600b6020908152604080832086905560018087019095557f6e1540171b6c0c960b71a7020d9f60077f6af931a8bbf590da0223dacf75c7af90950180546001600160a01b03191684179055918152600a90915291909120805460ff19169091179055565b7322b20054bbd6dc5c23d7c7595e092ca728a00c3281565b610f9361282a565b6000546001600160a01b03908116911614610fc05760405162461bcd60e51b815260040161094090613b8b565b610fc861282e565b565b60106020526000908152604090205460ff1681565b600054600160a81b900460ff166110085760405162461bcd60e51b815260040161094090613cdb565b6000805460ff60a81b19169055606061102183836128a4565b905060005b81518110156111185760046000858152602001908152602001600020600083838151811061105057fe5b6020026020010151604001518152602001908152602001600020546000801b1461111057600154600085815260046020526040812084516001600160a01b039093169263ee8ca3b592908690869081106110a657fe5b6020026020010151604001518152602001908152602001600020546040518263ffffffff1660e01b81526004016110dd91906138af565b600060405180830381600087803b1580156110f757600080fd5b505af115801561110b573d6000803e3d6000fd5b505050505b600101611026565b506009838154811061112657fe5b60009182526020909120015460405163f3fef3a360e01b81526001600160a01b039091169063f3fef3a39061116190339086906004016137d7565b600060405180830381600087803b15801561117b57600080fd5b505af115801561118f573d6000803e3d6000fd5b505060405184925085915033907ff279e6a1f5e320cca91135676d9cb6e44ca8a08c0b88342bcdb1144f6511b56890600090a450506000805460ff60a81b1916600160a81b17905550565b600781815481106111e757fe5b6000918252602090912001546001600160a01b0316905081565b600354600160a01b900460ff1681565b61121961282a565b6000546001600160a01b039081169116146112465760405162461bcd60e51b815260040161094090613b8b565b6009838154811061125357fe5b60009182526020909120015460405163575272dd60e11b81526001600160a01b039091169063aea4e5ba9061128e90859085906004016137d7565b600060405180830381600087803b1580156112a857600080fd5b505af11580156112bc573d6000803e3d6000fd5b50505050505050565b600281565b737598e84b2e114ab62cab288ce5f7d5f6bad35bba81565b600054600160a01b900460ff1690565b6002546001600160a01b031681565b601181815481106111e757fe5b61131661282a565b6000546001600160a01b039081169116146113435760405162461bcd60e51b815260040161094090613b8b565b600080546040516001600160a01b03909116907f8be0079c531659141344cd1fd0a4f28419497f9722a3daafe3b4186f6b6457e0908390a3600080546001600160a01b0319169055565b6001600160a01b03166000908152600b602052604090205490565b6113b061282a565b6000546001600160a01b039081169116146113dd5760405162461bcd60e51b815260040161094090613b8b565b600982815481106113ea57fe5b6000918252602090912001546040516355f804b360e01b81526001600160a01b03909116906355f804b3906114239084906004016138b8565b600060405180830381600087803b15801561143d57600080fd5b505af1158015611451573d6000803e3d6000fd5b505050505050565b60095490565b73eeeeeeeeeeeeeeeeeeeeeeeeeeeeeeeeeeeeeeee81565b61147f61282a565b6000546001600160a01b039081169116146114ac5760405162461bcd60e51b815260040161094090613b8b565b610fc8612ac2565b600981815481106111e757fe5b600460209081526000928352604080842090915290825290205481565b6000546001600160a01b031690565b600e5460ff1681565b600061152361151c600d54611516600c548661230090919063ffffffff16565b90612b28565b83906127c3565b92915050565b61153161282a565b6000546001600160a01b0390811691161461155e5760405162461bcd60e51b815260040161094090613b8b565b81518351148015611570575080518351145b61158c5760405162461bcd60e51b815260040161094090613b08565b60005b835181101561173057600985815481106115a557fe5b60009182526020909120015484516001600160a01b03909116906390a83dc2908690849081106115d157fe5b60200260200101518584815181106115e557fe5b60200260200101518585815181106115f957fe5b60200260200101516040518463ffffffff1660e01b815260040161161f9392919061382d565b600060405180830381600087803b15801561163957600080fd5b505af115801561164d573d6000803e3d6000fd5b505050506012600084838151811061166157fe5b6020908102919091018101516001600160a01b031682528101919091526040016000205460ff1661172857601183828151811061169a57fe5b60209081029190910181015182546001808201855560009485529284200180546001600160a01b0319166001600160a01b03909216919091179055845190916012918690859081106116e857fe5b60200260200101516001600160a01b03166001600160a01b0316815260200190815260200160002060006101000a81548160ff0219169083151502179055505b60010161158f565b5050505050565b61173f61282a565b6000546001600160a01b0390811691161461176c5760405162461bcd60e51b815260040161094090613b8b565b6001600160a01b03166000908152600a60205260409020805460ff19166002179055565b61179861282a565b6000546001600160a01b039081169116146117c55760405162461bcd60e51b815260040161094090613b8b565b600e805460ff1916911515919091179055565b600c5481565b600054600160a01b900460ff16156118085760405162461bcd60e51b815260040161094090613ade565b600054600160a81b900460ff166118315760405162461bcd60e51b815260040161094090613cdb565b6000805460ff60a81b191690556009805460019161186d918890811061185357fe5b6000918252602090912001546001600160a01b03166122a1565b60ff161461188d5760405162461bcd60e51b815260040161094090613d53565b60606009868154811061189c57fe5b60009182526020909120015460405163dbb0371160e01b81526001600160a01b039091169063dbb03711906118db903390899089908990600401613782565b600060405180830381600087803b1580156118f557600080fd5b505af1158015611909573d6000803e3d6000fd5b505050506040513d6000823e601f3d908101601f1916820160405261193191908101906132a2565b9050606061193f8783612b6a565b905086336001600160a01b03167f8f64ca6a175f84df6403fba2601d4c5c734ee77f375196788648aedc05ff57d58360008151811061197a57fe5b60200260200101516000015160405161199391906138af565b60405180910390a360008781526005602052604081208251859290849082906119b857fe5b6020026020010151600001518152602001908152602001600020819055506119e1338883612560565b50506000805460ff60a81b1916600160a81b1790555050505050565b611a0561282a565b6000546001600160a01b03908116911614611a325760405162461bcd60e51b815260040161094090613b8b565b611a3c8282612cb3565b5050565b600181565b60086020526000908152604090205460ff1681565b600054600160a81b900460ff16611a835760405162461bcd60e51b815260040161094090613cdb565b6000805460ff60a81b191690819055600160a01b900460ff1615611ab95760405162461bcd60e51b815260040161094090613ade565b6001600160a01b0381166000908152600660205260409020543490611ade9082612805565b6001600160a01b038084166000818152600660205260409081902093909355600354925190927fd0efd3e06609faf7821ca1899afe6f2ac4ce1514e0935434607ca0e80a81d0f292611b349291169085906137d7565b60405180910390a250506000805460ff60a81b1916600160a81b179055565b600054600160a01b900460ff1615611b7d5760405162461bcd60e51b815260040161094090613ade565b6001546001600160a01b03163314611ba75760405162461bcd60e51b8152600401610940906139d0565b600354600160a01b900460ff16611bd05760405162461bcd60e51b815260040161094090613c4d565b600054600160a81b900460ff16611bf95760405162461bcd60e51b815260040161094090613cdb565b6000805460ff60a81b19169055611c0e612eb7565b611c188585612341565b9050611c258386836123e3565b60608060098781548110611c3557fe5b600091825260209091200154604051632ca5159f60e11b81526001600160a01b039091169063594a2b3e90611c749033908a908a908a906004016137f0565b600060405180830381600087803b158015611c8e57600080fd5b505af1158015611ca2573d6000803e3d6000fd5b505050506040513d6000823e601f3d908101601f19168201604052611cca91908101906131f1565b91509150600060098881548110611cdd57fe5b60009182526020909120015484516040516331a9108f60e11b81526001600160a01b0390921691636352211e91611d16916004016138af565b60206040518083038186803b158015611d2e57600080fd5b505afa158015611d42573d6000803e3d6000fd5b505050506040513d601f19601f82011682018060405250810190611d6691906131d5565b9050836000015188826001600160a01b03167f37aacca185d8a700a40142541d808e10bc61ca82eb929cb3df05de903a64dc848a604051611da791906138af565b60405180910390a4611db9888361247a565b611dc4818985612560565b60015460408051635c08631b60e11b8152815160009384936001600160a01b039091169263b810c6369260048083019392829003018186803b158015611e0957600080fd5b505afa158015611e1d573d6000803e3d6000fd5b505050506040513d601f19601f82011682018060405250810190611e4191906133dd565b6001600160a01b0385166000908152600660205260409020549193509150821115611e7e5760405162461bcd60e51b815260040161094090613d94565b6001600160a01b038316600090815260066020526040902054611ea190836127c3565b6001600160a01b038416600090815260066020526040902055611ec48282612ce8565b50506000805460ff60a81b1916600160a81b1790555050505050505050565b600560209081526000928352604080842090915290825290205481565b611f0861282a565b6000546001600160a01b03908116911614611f355760405162461bcd60e51b815260040161094090613b8b565b600180546001600160a01b039485166001600160a01b031991821617909155600280549390941692169190911790915560038054911515600160a01b0260ff60a01b19909216919091179055565b611f8b61282a565b6000546001600160a01b03908116911614611fb85760405162461bcd60e51b815260040161094090613b8b565b60098481548110611fc557fe5b6000918252602090912001546040516348541ee160e11b81526001600160a01b03909116906390a83dc2906120029086908690869060040161382d565b600060405180830381600087803b15801561201c57600080fd5b505af1158015612030573d6000803e3d6000fd5b505050506001600160a01b03821660009081526012602052604090205460ff166120b8576011805460018082019092557f31ecc21a745e3968a04e9570e4425bc18fa8019c68028196b546d1669c200c680180546001600160a01b0319166001600160a01b0385169081179091556000908152601260205260409020805460ff191690911790555b50505050565b6120c661282a565b6000546001600160a01b039081169116146120f35760405162461bcd60e51b815260040161094090613b8b565b6009828154811061210057fe5b6000918252602090912001546040516368173bcf60e01b81526001600160a01b03909116906368173bcf9061142390849060040161376e565b6001546001600160a01b031681565b600d5481565b600f81815481106111e757fe5b60006009828154811061216a57fe5b6000918252602091829020015460408051630227321760e31b815290516001600160a01b039092169263113990b892600480840193829003018186803b1580156121b357600080fd5b505afa1580156121c7573d6000803e3d6000fd5b505050506040513d601f19601f8201168201806040525081019061152391906132fd565b6121f361282a565b6000546001600160a01b039081169116146122205760405162461bcd60e51b815260040161094090613b8b565b6001600160a01b0381166122465760405162461bcd60e51b81526004016109409061398a565b600080546040516001600160a01b03808516939216917f8be0079c531659141344cd1fd0a4f28419497f9722a3daafe3b4186f6b6457e091a3600080546001600160a01b0319166001600160a01b0392909216919091179055565b6001600160a01b03166000908152600a602052604090205460ff1690565b6122c761282a565b6000546001600160a01b039081169116146122f45760405162461bcd60e51b815260040161094090613b8b565b6122fd81612db4565b50565b60008261230f57506000611523565b8282028284828161231c57fe5b041461233a5760405162461bcd60e51b815260040161094090613b4a565b9392505050565b612349612eb7565b6009838154811061235657fe5b6000918252602090912001546040516321603f4360e01b81526001600160a01b03909116906321603f439061238f9085906004016138af565b60006040518083038186803b1580156123a757600080fd5b505afa1580156123bb573d6000803e3d6000fd5b505050506040513d6000823e601f3d908101601f1916820160405261233a9190810190613363565b6001600160a01b03831660009081526008602052604090205460ff1661241b5760405162461bcd60e51b815260040161094090613d12565b60008281526005602090815260408083208451845290915290205415612475576000828152600560209081526040808320845184529091529020543a11156124755760405162461bcd60e51b8152600401610940906138f9565b505050565b60005b8151811015612475576000838152600460205260408120835182908590859081106124a457fe5b60200260200101518152602001908152602001600020541461255857600154600084815260046020526040812084516001600160a01b039093169263ee8ca3b592908690869081106124f257fe5b60200260200101518152602001908152602001600020546040518263ffffffff1660e01b815260040161252591906138af565b600060405180830381600087803b15801561253f57600080fd5b505af1158015612553573d6000803e3d6000fd5b505050505b60010161247d565b600354600160a01b900460ff16156124755760005b81518110156120b85781818151811061258a57fe5b6020026020010151604001516000146127bb5782846001600160a01b03167faf1b9133e30ada3fee6cb47a46b80b2dfee808dc5bc919f712beb9ee33b465d68484815181106125d557fe5b6020026020010151604001516040516125ee91906138af565b60405180910390a360015460025483516001600160a01b039283169263b9f45adb92309263638d368360e11b929091169063e34ca65d60e01b90899089908990811061263657fe5b60200260200101516040015189898151811061264e57fe5b60200260200101516080015160006002811061266657fe5b60200201518a8a8151811061267757fe5b60200260200101516080015160016002811061268f57fe5b60200201518b8b815181106126a057fe5b602002602001015160a001516000600381106126b857fe5b60200201516040516024016126d1959493929190613def565b60408051601f198184030181529181526020820180516001600160e01b03166001600160e01b0319948516179052600354905160e088901b9093168352612729959493926001600160a01b0390911690600401613851565b602060405180830381600087803b15801561274357600080fd5b505af1158015612757573d6000803e3d6000fd5b505050506040513d601f19601f8201168201806040525081019061277b91906132fd565b60046000858152602001908152602001600020600084848151811061279c57fe5b6020026020010151604001518152602001908152602001600020819055505b600101612575565b600061233a83836040518060400160405280601e81526020017f536166654d6174683a207375627472616374696f6e206f766572666c6f770000815250612e54565b60008282018381101561233a5760405162461bcd60e51b815260040161094090613a5f565b3390565b600054600160a01b900460ff166128575760405162461bcd60e51b8152600401610940906138cb565b6000805460ff60a01b191690557f5db9ee0a495bf2e6ff9c91a7834c1ba4fdd244a5e8aa4e537bd38aeae4b073aa61288d61282a565b60405161289a919061376e565b60405180910390a1565b60606000600984815481106128b557fe5b6000918252602082200154604051631bf744db60e01b81526001600160a01b0390911692508290631bf744db906128f09087906004016138af565b60206040518083038186803b15801561290857600080fd5b505afa15801561291c573d6000803e3d6000fd5b505050506040513d601f19601f8201168201806040525081019061294091906132fd565b905060608167ffffffffffffffff8111801561295b57600080fd5b5060405190808252806020026020018201604052801561299557816020015b612982612eb7565b81526020019060019003908161297a5790505b50905060005b82811015612ab85760405163915b985960e01b81526001600160a01b038516906321603f4390829063915b9859906129d9908b908790600401613de1565b60206040518083038186803b1580156129f157600080fd5b505afa158015612a05573d6000803e3d6000fd5b505050506040513d601f19601f82011682018060405250810190612a2991906132fd565b6040518263ffffffff1660e01b8152600401612a4591906138af565b60006040518083038186803b158015612a5d57600080fd5b505afa158015612a71573d6000803e3d6000fd5b505050506040513d6000823e601f3d908101601f19168201604052612a999190810190613363565b828281518110612aa557fe5b602090810291909101015260010161299b565b5095945050505050565b600054600160a01b900460ff1615612aec5760405162461bcd60e51b815260040161094090613ade565b6000805460ff60a01b1916600160a01b1790557f62e78cea01bee320cd4e420270b5ea74000d11b0c9f74754ebdbfc544b05a25861288d61282a565b600061233a83836040518060400160405280601a81526020017f536166654d6174683a206469766973696f6e206279207a65726f000000000000815250612e80565b6060600060098481548110612b7b57fe5b60009182526020909120015483516001600160a01b03909116915060609067ffffffffffffffff81118015612baf57600080fd5b50604051908082528060200260200182016040528015612be957816020015b612bd6612eb7565b815260200190600190039081612bce5790505b50905060005b8451811015612caa57826001600160a01b03166321603f43868381518110612c1357fe5b60200260200101516040518263ffffffff1660e01b8152600401612c3791906138af565b60006040518083038186803b158015612c4f57600080fd5b505afa158015612c63573d6000803e3d6000fd5b505050506040513d6000823e601f3d908101601f19168201604052612c8b9190810190613363565b828281518110612c9757fe5b6020908102919091010152600101612bef565b50949350505050565b80612cbf836032612300565b1115612cdd5760405162461bcd60e51b815260040161094090613a17565b600c91909155600d55565b6001600160a01b03811673eeeeeeeeeeeeeeeeeeeeeeeeeeeeeeeeeeeeeeee14612d245760405162461bcd60e51b815260040161094090613a96565b6000737598e84b2e114ab62cab288ce5f7d5f6bad35bba6001600160a01b031683604051612d519061376b565b60006040518083038185875af1925050503d8060008114612d8e576040519150601f19603f3d011682016040523d82523d6000602084013e612d93565b606091505b50509050806124755760405162461bcd60e51b815260040161094090613bc0565b6001600160a01b03811660009081526010602052604090205460ff1615612ded5760405162461bcd60e51b815260040161094090613c06565b600f805460018181019092557f8d1108e10bcb7c27dddfc02ed9d693a074039d026cf4ea4240b40f7d581ac8020180546001600160a01b039093166001600160a01b031990931683179055600091825260106020526040909120805460ff19169091179055565b60008184841115612e785760405162461bcd60e51b815260040161094091906138b8565b505050900390565b60008183612ea15760405162461bcd60e51b815260040161094091906138b8565b506000838581612ead57fe5b0495945050505050565b6040518060e0016040528060008152602001600081526020016000815260200160008152602001612ee6612f00565b8152602001612ef3612f1e565b8152602001606081525090565b60405180604001604052806002906020820280368337509192915050565b60405180606001604052806003906020820280368337509192915050565b600082601f830112612f4c578081fd5b612f566040613e29565b9050808284604085011115612f6a57600080fd5b60005b6002811015612f96578151612f8181613e70565b83526020928301929190910190600101612f6d565b50505092915050565b600082601f830112612faf578081fd5b8135612fc2612fbd82613e50565b613e29565b818152915060208083019084810181840286018201871015612fe357600080fd5b60005b8481101561300b578135612ff981613e70565b84529282019290820190600101612fe6565b505050505092915050565b600082601f830112613026578081fd5b6130306060613e29565b905080828460608501111561304457600080fd5b60005b6003811015612f96578151835260209283019290910190600101613047565b600082601f830112613076578081fd5b8135613084612fbd82613e50565b8181529150602080830190848101818402860182018710156130a557600080fd5b60005b8481101561300b578135845292820192908201906001016130a8565b600082601f8301126130d4578081fd5b81516130e2612fbd82613e50565b81815291506020808301908481018184028601820187101561310357600080fd5b60005b8481101561300b57815184529282019290820190600101613106565b60006101408284031215613134578081fd5b61313e60e0613e29565b90508151815260208201516020820152604082015160408201526060820151606082015261316f8360808401612f3c565b60808201526131818360c08401613016565b60a082015261012082015167ffffffffffffffff8111156131a157600080fd5b6131ad848285016130c4565b60c08301525092915050565b6000602082840312156131ca578081fd5b813561233a81613e70565b6000602082840312156131e6578081fd5b815161233a81613e70565b60008060408385031215613203578081fd5b825167ffffffffffffffff8082111561321a578283fd5b818501915085601f83011261322d578283fd5b815161323b612fbd82613e50565b81815260208082019190858101875b85811015613273576132618c8484518b0101613122565b8552938201939082019060010161324a565b5050880151909650935050508082111561328b578283fd5b50613298858286016130c4565b9150509250929050565b6000602082840312156132b3578081fd5b815167ffffffffffffffff8111156132c9578182fd5b6132d5848285016130c4565b949350505050565b6000602082840312156132ee578081fd5b8135801515811461233a578182fd5b60006020828403121561330e578081fd5b5051919050565b600080600060608486031215613329578081fd5b833561333481613e70565b9250602084013561334481613e70565b915060408401358015158114613358578182fd5b809150509250925092565b600060208284031215613374578081fd5b815167ffffffffffffffff81111561338a578182fd5b6132d584828501613122565b6000602082840312156133a7578081fd5b5035919050565b600080604083850312156133c0578182fd5b8235915060208301356133d281613e70565b809150509250929050565b600080604083850312156133ef578182fd5b8251915060208301516133d281613e70565b60008060008060808587031215613416578182fd5b84359350602085013561342881613e70565b9250604085013561343881613e70565b9396929550929360600135925050565b60008060006060848603121561345c578081fd5b83359250602084013561346e81613e70565b929592945050506040919091013590565b60008060008060808587031215613494578182fd5b84359350602085013567ffffffffffffffff808211156134b2578384fd5b6134be88838901612f9f565b945060408701359150808211156134d3578384fd5b6134df88838901612f9f565b935060608701359150808211156134f4578283fd5b5061350187828801613066565b91505092959194509250565b600080600080600060a08688031215613524578283fd5b85359450602086013567ffffffffffffffff80821115613542578485fd5b61354e89838a01612f9f565b95506040880135915080821115613563578485fd5b61356f89838a01613066565b94506060880135915080821115613584578283fd5b5061359188828901613066565b95989497509295608001359392505050565b600080604083850312156135b5578182fd5b8235915060208084013567ffffffffffffffff808211156135d4578384fd5b818601915086601f8301126135e7578384fd5b8135818111156135f5578485fd5b613607601f8201601f19168501613e29565b9150808252878482850101111561361c578485fd5b8084840185840137810190920192909252919491935090915050565b6000806040838503121561364a578182fd5b50508035926020909101359150565b6000806000806080858703121561366e578182fd5b8435935060208501359250604085013561368781613e70565b9150606085013567ffffffffffffffff8111156136a2578182fd5b61350187828801612f9f565b6000815180845260208085019450808401835b838110156136e65781516001600160a01b0316875295820195908201906001016136c1565b509495945050505050565b6000815180845260208085019450808401835b838110156136e657815187529582019590820190600101613704565b60008151808452815b8181101561374557602081850181015186830182015201613729565b818111156137565782602083870101525b50601f01601f19169290920160200192915050565b90565b6001600160a01b0391909116815260200190565b6001600160a01b03851681526080602082018190526000906137a6908301866136ae565b82810360408401526137b881866136f1565b905082810360608401526137cc81856136f1565b979650505050505050565b6001600160a01b03929092168252602082015260400190565b6001600160a01b0385811682526020820185905283166040820152608060608201819052600090613823908301846136ae565b9695505050505050565b6001600160a01b039384168152919092166020820152604081019190915260600190565b6001600160a01b0386811682526001600160e01b031986166020830152848116604083015260a0606083018190526000919061388f90840186613720565b91508084166080840152509695505050505050565b901515815260200190565b90815260200190565b60006020825261233a6020830184613720565b60208082526014908201527314185d5cd8589b194e881b9bdd081c185d5cd95960621b604082015260600190565b60208082526025908201527f436f726e466920436f6e74726f6c6c65723a2047617320507269636520546f6f60408201526404090d2ced60db1b606082015260800190565b6020808252602c908201527f436f726e466920436f6e74726f6c6c65723a204e6f20557365722046756e647360408201526b20746f20576974686472617760a01b606082015260800190565b60208082526026908201527f4f776e61626c653a206e6577206f776e657220697320746865207a65726f206160408201526564647265737360d01b606082015260800190565b60208082526027908201527f436f726e466920436f6e74726f6c6c65723a2047656c61746f204f6e6c7920466040820152663ab731ba34b7b760c91b606082015260800190565b60208082526028908201527f436f726e466920436f6e74726f6c6c65723a204d617820536c69707061676520604082015267115e18d95959195960c21b606082015260800190565b6020808252601b908201527f536166654d6174683a206164646974696f6e206f766572666c6f770000000000604082015260600190565b60208082526028908201527f436f726e466920436f6e74726f6c6c65723a20496e76616c6964205061796d65604082015267373a102a37b5b2b760c11b606082015260800190565b60208082526010908201526f14185d5cd8589b194e881c185d5cd95960821b604082015260600190565b60208082526022908201527f436f726e466920436f6e74726f6c6c65723a20496e76616c6964204c656e6774604082015261687360f01b606082015260800190565b60208082526021908201527f536166654d6174683a206d756c7469706c69636174696f6e206f766572666c6f6040820152607760f81b606082015260800190565b6020808252818101527f4f776e61626c653a2063616c6c6572206973206e6f7420746865206f776e6572604082015260600190565b60208082526026908201527f436f726e466920436f6e74726f6c6c65723a20455448207472616e736665722060408201526519985a5b195960d21b606082015260800190565b60208082526027908201527f436f726e466920436f6e74726f6c6c65723a20496e76616c6964204f72646572604082015266102334b63632b960c91b606082015260800190565b60208082526022908201527f436f726e466920436f6e74726f6c6c65723a2047656c61746f2044697361626c604082015261195960f21b606082015260800190565b6020808252602c908201527f436f726e466920436f6e74726f6c6c65723a204f6e6c7920416374697665204f60408201526b726465722046696c6c65727360a01b606082015260800190565b6020808252601f908201527f5265656e7472616e637947756172643a207265656e7472616e742063616c6c00604082015260600190565b60208082526021908201527f436f726e466920436f6e74726f6c6c65723a20496e76616c696420526f7574656040820152603960f91b606082015260800190565b60208082526021908201527f436f726e466920436f6e74726f6c6c65723a20496e616374697665205661756c6040820152601d60fa1b606082015260800190565b6020808252602d908201527f436f726e466920436f6e74726f6c6c65723a20496e737566666963656e74205560408201526c736572204761732046756e647360981b606082015260800190565b918252602082015260400190565b94855260208501939093526001600160a01b039182166040850152166060830152608082015260a00190565b60ff91909116815260200190565b60405181810167ffffffffffffffff81118282101715613e4857600080fd5b604052919050565b600067ffffffffffffffff821115613e66578081fd5b5060209081020190565b6001600160a01b03811681146122fd57600080fdfea26469706673582212206ec3a0bb1a8793c3e51563e615d265b5ab8654a72cd9545b2d65d498e59ebfc464736f6c634300060c0033","bytecodeSha1":"877989341b799e8ea45884eeb3ccf05ddec8cb1a","compiler":{"evm_version":"istanbul","optimizer":{"enabled":true,"runs":200},"version":"0.6.12+commit.27d51765"},"contractName":"Controller","language":"Solidity","natspec":{"kind":"dev","methods":{"addOrderFiller(address)":{"details":"Whitelist an order filler. Only the owner of this contract can call this  function.","params":{"_filler":": Address that will call 'fillOrder()' within this contract"}},"addVault(address)":{"details":"Add a vault for trading. Vault must inherit 'VaultBase.sol' and meet the vault standard for proper functionality. Only the owner of this contract can call  this function.","params":{"_vault":": Address of vault to add"}},"changeTokenMinimumDeposit(uint256,address,uint256)":{"details":"Change the minimum deposit amount for an ERC20 token when creating a trade. ERC20 token must already be mapped to a holding strategy before calling this function. Only the owner of this contract can call this function. "},"constructor":{"params":{"_resolver":": Gelato resolver contract used to find the router and swap path that provides the highest output amount.","_routers":": Approved routers used for executing swaps. No new routers can be added after deploying this contract.","_slippageBasePoints":": (_slippagePoints / _slippageBasePoints) --> slippage %","_slippagePoints":": Highest acceptable slippage amount when executing swaps"}},"createTrade(uint256,address[],uint256[],uint256[],uint256)":{"notice":"Create a trade with one of the approved vaults. The format for '_tokens', '_amounts', and '_times' is specific to the vault. Refer to the vault being used to verify the correct data format. Trades are only created with active vaults. The strating amount of the trade is deposited upon creating a trade. A deposit fee is taken from the deposited amount. When Gelato is active, a task is created for each open order.","params":{"_amounts":": Specific to the vault used. Refer to vault documentation.","_maxGas":": In gwei. The maximum gas price that any order within this trade can be executed at.","_times":": Specific to the vault used. Refer to vault documentation.","_tokens":": Specific to the vault used. Refer to vault documentation.","_vaultId":": Index of vault in 'vaults'"}},"deactivateOrderFiller(address)":{"details":"Revokes order filling permissions from an address. Only the owner of this  contract can call this function.","params":{"_filler":": Address that will have its order filling permissions revoked"}},"deactivateRouter(address)":{"details":"Deactivated router will no longer be able to be used for filling orders. A deactivated router cannot be reactivated. Only the owner of this contract can  call this function.","params":{"_router":": Router to deactivate "}},"deactivateToken(uint256,address)":{"details":"Deactivate an ERC20 token for a vault. Once a token is deactivated, it cannot be reactivated. Only the owner can call this function.","params":{"_token":": ERC20 token address  ","_vaultId":": Index of vault in 'vaults'"}},"deactivateVault(address)":{"details":"Disables the 'createTrade', 'fillOrder', and 'fillOrderGelato' functions. Once a vault is deactivated, users will only be able to withdraw their trades. Deactivated vaults cannot be reactivated. Only the owner of this contract can  call this function.","params":{"_vault":": Address of vault to deactivate"}},"depositGas(address)":{"notice":"Deposit ETH to pay for gas cost accrued from filling orders. ETH deposited is automatically taken from the order owners balance when their orders are filled. User is able to withdraw their balance of ETH at any point in time. This function is not callable when 'isPaused()' == true.","params":{"_receiver":": Address that is credited with the deposited ETH"}},"fillOrder(uint256,uint256,address,address[])":{"notice":"Fill open orders when trade conditions are met. Only approved order fillers can call this function. This function will only be used if the use of Gelato is stopped. Call 'findBestPath()' in Resolver.sol first to get the router and path with the highest output amount. Caller is refunded the gas cost from the ETH the order owner has deposited.","params":{"_orderId":": Order to fill","_path":": Swap path used to fill the order","_router":": Router used to fill the order","_vaultId":": Index of vault in 'vaults'"}},"fillOrderGelato(uint256,uint256,address,address[])":{"notice":"Fill open orders when trade conditions are met. Only Gelato executors can call this function. This function is the primary method used to fill orders.  If Gelato is no longer used, orders are filled through calling 'fillOrder()' instead. Gelato executor will call 'checker()' in Resolver.sol first to get the  router and path with the highest output amount. Gelato executor is refunded the  gas cost from the ETH the order owner has deposited.","params":{"_orderId":": Order to fill","_path":": Swap path used to fill the order","_router":": Router used to fill the order","_vaultId":": Index of vault in 'vaults'"}},"gelatoSettings(address,address,bool)":{"details":"Configure Gelato settings. Enable/disable filling orders with Gelato. Only  the owner of this contract can call this function.","params":{"_gelato":": true: Gelato fills orders; false: Dev fills orders","_pokeMe":": Gelato contract that will call this contract","_resolver":": Contract that the Gelato executor will call for the input data used when calling this contract."}},"owner()":{"details":"Returns the address of the current owner."},"pause()":{"details":"After calling, 'createTrade', 'fillOrder', 'fillOrderGelato', and 'depositGas' functions will be disabled. Users will only be able to withdraw their trades and any deposited gas. Only the owner of this contract can call this function."},"paused()":{"details":"Returns true if the contract is paused, and false otherwise."},"priceMultiplier(uint256)":{"notice":"The prices used when creating trades need to be multiplied by the value returned from this function. This is done to handle the decimals.","params":{"_vaultId":": Index of vault in 'vaults'"},"returns":{"_0":"Value to multiply with the price "}},"renounceOwnership()":{"details":"Leaves the contract without owner. It will not be possible to call `onlyOwner` functions anymore. Can only be called by the current owner. NOTE: Renouncing ownership will leave the contract without an owner, thereby removing any functionality that is only available to the owner."},"setOrderFillers(bool)":{"details":"Restrict order filling to a whitelist of addresses or allow any address to fill orders. Only the owner of this contract can call this function.","params":{"_whitelist":": true: Only whitelisted addresses can fill orders; false: Any address can fill orders"}},"setSlippage(uint256,uint256)":{"details":"Set the slippage amount for each order being filled. Only the owner of this  contract can call this function.","params":{"_slippageBasePoints":": Max amount of slippage points","_slippagePoints":": This value divided by '_slippageBasePoints' gives the  slippage percentage."}},"setTokenStrategies(uint256,address[],address[],uint256[])":{"details":"Map multiple holding strategies to ERC20 tokens. A token can only be mapped to holding strategy once. Only the owner of this contract can call this function.","params":{"_minDeposits":": Minimum amount of '_tokens[n]' that can be deposited when  creating a trade. ","_strategies":": Holding strategy contracts","_tokens":": ERC20 token addresses","_vaultId":": Index of vault in 'vaults'"}},"setTokenStrategy(uint256,address,address,uint256)":{"details":"Map a holding strategy contract to an ERC20 token. A token can only be mapped to holding strategy once. Only the owner of this contract can call this function.","params":{"_minDeposit":": Minimum amount of '_token' that can be deposited when creating a trade. ","_strategy":": Holding strategy contract","_token":": ERC20 token address","_vaultId":": Index of vault in 'vaults'"}},"setVaultURI(uint256,string)":{"details":"Set the URI of a vault to display an image. Only the owner of this contract  can call this function.","params":{"_URI":": IPFS link","_vaultId":": Vault that will have its URI set"}},"slippage(uint256)":{"notice":"Use to get the minimum amount out of a swap","params":{"_amountIn":": Amount of a given ERC20 token"},"returns":{"_0":"Adjusts '_amountIn' to account for slippage"}},"transferOwnership(address)":{"details":"Transfers ownership of the contract to a new account (`newOwner`). Can only be called by the current owner."},"unpause()":{"details":"Enables 'createTrade', 'fillOrder', 'fillOrderGelato', and 'depositGas' functions. Only the owner of this contract can call this function."},"vault(address)":{"params":{"_vault":": Address of vault"},"returns":{"_0":"0: Not added to this contract; 1 = Active vault; 2 = Deactivated vault"}},"vaultId(address)":{"params":{"_vault":": Address of vault"},"returns":{"_0":"Reverse mapping vault address to index in 'vaults'"}},"vaultsLength()":{"notice":"Includes active and added then deactivated vaults","returns":{"_0":"Number of added vaults "}},"withdraw(uint256,uint256)":{"notice":"Withdraws the ERC20 tokens owned by a vault token and returns to the token owner. All open orders associated with the vault token are closed and the vault token is burnt.","params":{"_tokenId":": Vault token  ","_vaultId":": Index of vault in 'vaults'"}},"withdrawGas()":{"notice":"Remove the deposited ETH balance of a user. Any amount of ETH not used to pay for gas is able to be withdrawn. Withdrawing ETH while still having open orders will result in the orders not being filled. A user must maintain a certian amount of ETH deposited to cover gas costs.  "}},"version":1},"opcodes":"PUSH1 0x80 PUSH1 0x40 MSTORE PUSH1 0x4 CALLDATASIZE LT PUSH2 0x31A JUMPI PUSH1 0x0 CALLDATALOAD PUSH1 0xE0 SHR DUP1 PUSH4 0x8909F553 GT PUSH2 0x1AB JUMPI DUP1 PUSH4 0xC05D6C41 GT PUSH2 0xF7 JUMPI DUP1 PUSH4 0xE3F54499 GT PUSH2 0x95 JUMPI DUP1 PUSH4 0xEEB8B934 GT PUSH2 0x6F JUMPI DUP1 PUSH4 0xEEB8B934 EQ PUSH2 0x875 JUMPI DUP1 PUSH4 0xF2FDE38B EQ PUSH2 0x895 JUMPI DUP1 PUSH4 0xF815C03D EQ PUSH2 0x8B5 JUMPI DUP1 PUSH4 0xFD6766F6 EQ PUSH2 0x8D5 JUMPI PUSH2 0x31A JUMP JUMPDEST DUP1 PUSH4 0xE3F54499 EQ PUSH2 0x82B JUMPI DUP1 PUSH4 0xE9FCD6CE EQ PUSH2 0x840 JUMPI DUP1 PUSH4 0xEB03C98C EQ PUSH2 0x855 JUMPI PUSH2 0x31A JUMP JUMPDEST DUP1 PUSH4 0xCB306F02 GT PUSH2 0xD1 JUMPI DUP1 PUSH4 0xCB306F02 EQ PUSH2 0x7AB JUMPI DUP1 PUSH4 0xD8E09316 EQ PUSH2 0x7CB JUMPI DUP1 PUSH4 0xDC516876 EQ PUSH2 0x7EB JUMPI DUP1 PUSH4 0xE20371E3 EQ PUSH2 0x80B JUMPI PUSH2 0x31A JUMP JUMPDEST DUP1 PUSH4 0xC05D6C41 EQ PUSH2 0x758 JUMPI DUP1 PUSH4 0xC123CB44 EQ PUSH2 0x778 JUMPI DUP1 PUSH4 0xC71A6D06 EQ PUSH2 0x78B JUMPI PUSH2 0x31A JUMP JUMPDEST DUP1 PUSH4 0x9B2AA772 GT PUSH2 0x164 JUMPI DUP1 PUSH4 0xAEE16407 GT PUSH2 0x13E JUMPI DUP1 PUSH4 0xAEE16407 EQ PUSH2 0x6EE JUMPI DUP1 PUSH4 0xB86E3DC9 EQ PUSH2 0x703 JUMPI DUP1 PUSH4 0xBC9EF3E0 EQ PUSH2 0x723 JUMPI DUP1 PUSH4 0xBCB5703D EQ PUSH2 0x743 JUMPI PUSH2 0x31A JUMP JUMPDEST DUP1 PUSH4 0x9B2AA772 EQ PUSH2 0x68E JUMPI DUP1 PUSH4 0xAA9F6217 EQ PUSH2 0x6AE JUMPI DUP1 PUSH4 0xAB27FEEA EQ PUSH2 0x6CE JUMPI PUSH2 0x31A JUMP JUMPDEST DUP1 PUSH4 0x8909F553 EQ PUSH2 0x430 JUMPI DUP1 PUSH4 0x8C64EA4A EQ PUSH2 0x604 JUMPI DUP1 PUSH4 0x8D3A513E EQ PUSH2 0x624 JUMPI DUP1 PUSH4 0x8DA5CB5B EQ PUSH2 0x644 JUMPI DUP1 PUSH4 0x96582CB5 EQ PUSH2 0x659 JUMPI DUP1 PUSH4 0x9670E0DE EQ PUSH2 0x66E JUMPI PUSH2 0x31A JUMP JUMPDEST DUP1 PUSH4 0x4FEC8C34 GT PUSH2 0x26A JUMPI DUP1 PUSH4 0x6840339A GT PUSH2 0x223 JUMPI DUP1 PUSH4 0x7C04D11F GT PUSH2 0x1FD JUMPI DUP1 PUSH4 0x7C04D11F EQ PUSH2 0x5A5 JUMPI DUP1 PUSH4 0x82AF54C9 EQ PUSH2 0x5C5 JUMPI DUP1 PUSH4 0x8322FFF2 EQ PUSH2 0x5DA JUMPI DUP1 PUSH4 0x8456CB59 EQ PUSH2 0x5EF JUMPI PUSH2 0x31A JUMP JUMPDEST DUP1 PUSH4 0x6840339A EQ PUSH2 0x550 JUMPI DUP1 PUSH4 0x715018A6 EQ PUSH2 0x570 JUMPI DUP1 PUSH4 0x7726A73C EQ PUSH2 0x585 JUMPI PUSH2 0x31A JUMP JUMPDEST DUP1 PUSH4 0x4FEC8C34 EQ PUSH2 0x4BA JUMPI DUP1 PUSH4 0x548A99AD EQ PUSH2 0x4DC JUMPI DUP1 PUSH4 0x55EAF8F1 EQ PUSH2 0x4FC JUMPI DUP1 PUSH4 0x573EA575 EQ PUSH2 0x511 JUMPI DUP1 PUSH4 0x5C975ABB EQ PUSH2 0x526 JUMPI DUP1 PUSH4 0x659755F9 EQ PUSH2 0x53B JUMPI PUSH2 0x31A JUMP JUMPDEST DUP1 PUSH4 0x24E702ED GT PUSH2 0x2D7 JUMPI DUP1 PUSH4 0x3F4BA83A GT PUSH2 0x2B1 JUMPI DUP1 PUSH4 0x3F4BA83A EQ PUSH2 0x445 JUMPI DUP1 PUSH4 0x408198C5 EQ PUSH2 0x45A JUMPI DUP1 PUSH4 0x441A3E70 EQ PUSH2 0x47A JUMPI DUP1 PUSH4 0x4E9C1118 EQ PUSH2 0x49A JUMPI PUSH2 0x31A JUMP JUMPDEST DUP1 PUSH4 0x24E702ED EQ PUSH2 0x3EE JUMPI DUP1 PUSH4 0x256B5A02 EQ PUSH2 0x410 JUMPI DUP1 PUSH4 0x3AAA36E6 EQ PUSH2 0x430 JUMPI PUSH2 0x31A JUMP JUMPDEST DUP1 PUSH4 0x43B99CC EQ PUSH2 0x31F JUMPI DUP1 PUSH4 0x445EA4B EQ PUSH2 0x34A JUMPI DUP1 PUSH4 0x12320BCA EQ PUSH2 0x377 JUMPI DUP1 PUSH4 0x1261795D EQ PUSH2 0x399 JUMPI DUP1 PUSH4 0x1AC36471 EQ PUSH2 0x3AE JUMPI DUP1 PUSH4 0x230F9B9D EQ PUSH2 0x3CE JUMPI JUMPDEST PUSH1 0x0 DUP1 REVERT JUMPDEST CALLVALUE DUP1 ISZERO PUSH2 0x32B JUMPI PUSH1 0x0 DUP1 REVERT JUMPDEST POP PUSH2 0x334 PUSH2 0x8F5 JUMP JUMPDEST PUSH1 0x40 MLOAD PUSH2 0x341 SWAP2 SWAP1 PUSH2 0x376E JUMP JUMPDEST PUSH1 0x40 MLOAD DUP1 SWAP2 SUB SWAP1 RETURN JUMPDEST CALLVALUE DUP1 ISZERO PUSH2 0x356 JUMPI PUSH1 0x0 DUP1 REVERT JUMPDEST POP PUSH2 0x36A PUSH2 0x365 CALLDATASIZE PUSH1 0x4 PUSH2 0x31B9 JUMP JUMPDEST PUSH2 0x904 JUMP JUMPDEST PUSH1 0x40 MLOAD PUSH2 0x341 SWAP2 SWAP1 PUSH2 0x38AF JUMP JUMPDEST CALLVALUE DUP1 ISZERO PUSH2 0x383 JUMPI PUSH1 0x0 DUP1 REVERT JUMPDEST POP PUSH2 0x397 PUSH2 0x392 CALLDATASIZE PUSH1 0x4 PUSH2 0x3659 JUMP JUMPDEST PUSH2 0x916 JUMP JUMPDEST STOP JUMPDEST CALLVALUE DUP1 ISZERO PUSH2 0x3A5 JUMPI PUSH1 0x0 DUP1 REVERT JUMPDEST POP PUSH2 0x397 PUSH2 0xCB2 JUMP JUMPDEST CALLVALUE DUP1 ISZERO PUSH2 0x3BA JUMPI PUSH1 0x0 DUP1 REVERT JUMPDEST POP PUSH2 0x397 PUSH2 0x3C9 CALLDATASIZE PUSH1 0x4 PUSH2 0x31B9 JUMP JUMPDEST PUSH2 0xDB1 JUMP JUMPDEST CALLVALUE DUP1 ISZERO PUSH2 0x3DA JUMPI PUSH1 0x0 DUP1 REVERT JUMPDEST POP PUSH2 0x397 PUSH2 0x3E9 CALLDATASIZE PUSH1 0x4 PUSH2 0x31B9 JUMP JUMPDEST PUSH2 0xE07 JUMP JUMPDEST CALLVALUE DUP1 ISZERO PUSH2 0x3FA JUMPI PUSH1 0x0 DUP1 REVERT JUMPDEST POP PUSH2 0x403 PUSH2 0xE9B JUMP JUMPDEST PUSH1 0x40 MLOAD PUSH2 0x341 SWAP2 SWAP1 PUSH2 0x3E1B JUMP JUMPDEST CALLVALUE DUP1 ISZERO PUSH2 0x41C JUMPI PUSH1 0x0 DUP1 REVERT JUMPDEST POP PUSH2 0x397 PUSH2 0x42B CALLDATASIZE PUSH1 0x4 PUSH2 0x31B9 JUMP JUMPDEST PUSH2 0xEA0 JUMP JUMPDEST CALLVALUE DUP1 ISZERO PUSH2 0x43C JUMPI PUSH1 0x0 DUP1 REVERT JUMPDEST POP PUSH2 0x334 PUSH2 0xF73 JUMP JUMPDEST CALLVALUE DUP1 ISZERO PUSH2 0x451 JUMPI PUSH1 0x0 DUP1 REVERT JUMPDEST POP PUSH2 0x397 PUSH2 0xF8B JUMP JUMPDEST CALLVALUE DUP1 ISZERO PUSH2 0x466 JUMPI PUSH1 0x0 DUP1 REVERT JUMPDEST POP PUSH2 0x403 PUSH2 0x475 CALLDATASIZE PUSH1 0x4 PUSH2 0x31B9 JUMP JUMPDEST PUSH2 0xFCA JUMP JUMPDEST CALLVALUE DUP1 ISZERO PUSH2 0x486 JUMPI PUSH1 0x0 DUP1 REVERT JUMPDEST POP PUSH2 0x397 PUSH2 0x495 CALLDATASIZE PUSH1 0x4 PUSH2 0x3638 JUMP JUMPDEST PUSH2 0xFDF JUMP JUMPDEST CALLVALUE DUP1 ISZERO PUSH2 0x4A6 JUMPI PUSH1 0x0 DUP1 REVERT JUMPDEST POP PUSH2 0x334 PUSH2 0x4B5 CALLDATASIZE PUSH1 0x4 PUSH2 0x3396 JUMP JUMPDEST PUSH2 0x11DA JUMP JUMPDEST CALLVALUE DUP1 ISZERO PUSH2 0x4C6 JUMPI PUSH1 0x0 DUP1 REVERT JUMPDEST POP PUSH2 0x4CF PUSH2 0x1201 JUMP JUMPDEST PUSH1 0x40 MLOAD PUSH2 0x341 SWAP2 SWAP1 PUSH2 0x38A4 JUMP JUMPDEST CALLVALUE DUP1 ISZERO PUSH2 0x4E8 JUMPI PUSH1 0x0 DUP1 REVERT JUMPDEST POP PUSH2 0x397 PUSH2 0x4F7 CALLDATASIZE PUSH1 0x4 PUSH2 0x3448 JUMP JUMPDEST PUSH2 0x1211 JUMP JUMPDEST CALLVALUE DUP1 ISZERO PUSH2 0x508 JUMPI PUSH1 0x0 DUP1 REVERT JUMPDEST POP PUSH2 0x403 PUSH2 0x12C5 JUMP JUMPDEST CALLVALUE DUP1 ISZERO PUSH2 0x51D JUMPI PUSH1 0x0 DUP1 REVERT JUMPDEST POP PUSH2 0x334 PUSH2 0x12CA JUMP JUMPDEST CALLVALUE DUP1 ISZERO PUSH2 0x532 JUMPI PUSH1 0x0 DUP1 REVERT JUMPDEST POP PUSH2 0x4CF PUSH2 0x12E2 JUMP JUMPDEST CALLVALUE DUP1 ISZERO PUSH2 0x547 JUMPI PUSH1 0x0 DUP1 REVERT JUMPDEST POP PUSH2 0x334 PUSH2 0x12F2 JUMP JUMPDEST CALLVALUE DUP1 ISZERO PUSH2 0x55C JUMPI PUSH1 0x0 DUP1 REVERT JUMPDEST POP PUSH2 0x334 PUSH2 0x56B CALLDATASIZE PUSH1 0x4 PUSH2 0x3396 JUMP JUMPDEST PUSH2 0x1301 JUMP JUMPDEST CALLVALUE DUP1 ISZERO PUSH2 0x57C JUMPI PUSH1 0x0 DUP1 REVERT JUMPDEST POP PUSH2 0x397 PUSH2 0x130E JUMP JUMPDEST CALLVALUE DUP1 ISZERO PUSH2 0x591 JUMPI PUSH1 0x0 DUP1 REVERT JUMPDEST POP PUSH2 0x36A PUSH2 0x5A0 CALLDATASIZE PUSH1 0x4 PUSH2 0x31B9 JUMP JUMPDEST PUSH2 0x138D JUMP JUMPDEST CALLVALUE DUP1 ISZERO PUSH2 0x5B1 JUMPI PUSH1 0x0 DUP1 REVERT JUMPDEST POP PUSH2 0x397 PUSH2 0x5C0 CALLDATASIZE PUSH1 0x4 PUSH2 0x35A3 JUMP JUMPDEST PUSH2 0x13A8 JUMP JUMPDEST CALLVALUE DUP1 ISZERO PUSH2 0x5D1 JUMPI PUSH1 0x0 DUP1 REVERT JUMPDEST POP PUSH2 0x36A PUSH2 0x1459 JUMP JUMPDEST CALLVALUE DUP1 ISZERO PUSH2 0x5E6 JUMPI PUSH1 0x0 DUP1 REVERT JUMPDEST POP PUSH2 0x334 PUSH2 0x145F JUMP JUMPDEST CALLVALUE DUP1 ISZERO PUSH2 0x5FB JUMPI PUSH1 0x0 DUP1 REVERT JUMPDEST POP PUSH2 0x397 PUSH2 0x1477 JUMP JUMPDEST CALLVALUE DUP1 ISZERO PUSH2 0x610 JUMPI PUSH1 0x0 DUP1 REVERT JUMPDEST POP PUSH2 0x334 PUSH2 0x61F CALLDATASIZE PUSH1 0x4 PUSH2 0x3396 JUMP JUMPDEST PUSH2 0x14B4 JUMP JUMPDEST CALLVALUE DUP1 ISZERO PUSH2 0x630 JUMPI PUSH1 0x0 DUP1 REVERT JUMPDEST POP PUSH2 0x36A PUSH2 0x63F CALLDATASIZE PUSH1 0x4 PUSH2 0x3638 JUMP JUMPDEST PUSH2 0x14C1 JUMP JUMPDEST CALLVALUE DUP1 ISZERO PUSH2 0x650 JUMPI PUSH1 0x0 DUP1 REVERT JUMPDEST POP PUSH2 0x334 PUSH2 0x14DE JUMP JUMPDEST CALLVALUE DUP1 ISZERO PUSH2 0x665 JUMPI PUSH1 0x0 DUP1 REVERT JUMPDEST POP PUSH2 0x4CF PUSH2 0x14ED JUMP JUMPDEST CALLVALUE DUP1 ISZERO PUSH2 0x67A JUMPI PUSH1 0x0 DUP1 REVERT JUMPDEST POP PUSH2 0x36A PUSH2 0x689 CALLDATASIZE PUSH1 0x4 PUSH2 0x3396 JUMP JUMPDEST PUSH2 0x14F6 JUMP JUMPDEST CALLVALUE DUP1 ISZERO PUSH2 0x69A JUMPI PUSH1 0x0 DUP1 REVERT JUMPDEST POP PUSH2 0x397 PUSH2 0x6A9 CALLDATASIZE PUSH1 0x4 PUSH2 0x347F JUMP JUMPDEST PUSH2 0x1529 JUMP JUMPDEST CALLVALUE DUP1 ISZERO PUSH2 0x6BA JUMPI PUSH1 0x0 DUP1 REVERT JUMPDEST POP PUSH2 0x397 PUSH2 0x6C9 CALLDATASIZE PUSH1 0x4 PUSH2 0x31B9 JUMP JUMPDEST PUSH2 0x1737 JUMP JUMPDEST CALLVALUE DUP1 ISZERO PUSH2 0x6DA JUMPI PUSH1 0x0 DUP1 REVERT JUMPDEST POP PUSH2 0x397 PUSH2 0x6E9 CALLDATASIZE PUSH1 0x4 PUSH2 0x32DD JUMP JUMPDEST PUSH2 0x1790 JUMP JUMPDEST CALLVALUE DUP1 ISZERO PUSH2 0x6FA JUMPI PUSH1 0x0 DUP1 REVERT JUMPDEST POP PUSH2 0x36A PUSH2 0x17D8 JUMP JUMPDEST CALLVALUE DUP1 ISZERO PUSH2 0x70F JUMPI PUSH1 0x0 DUP1 REVERT JUMPDEST POP PUSH2 0x397 PUSH2 0x71E CALLDATASIZE PUSH1 0x4 PUSH2 0x350D JUMP JUMPDEST PUSH2 0x17DE JUMP JUMPDEST CALLVALUE DUP1 ISZERO PUSH2 0x72F JUMPI PUSH1 0x0 DUP1 REVERT JUMPDEST POP PUSH2 0x397 PUSH2 0x73E CALLDATASIZE PUSH1 0x4 PUSH2 0x3638 JUMP JUMPDEST PUSH2 0x19FD JUMP JUMPDEST CALLVALUE DUP1 ISZERO PUSH2 0x74F JUMPI PUSH1 0x0 DUP1 REVERT JUMPDEST POP PUSH2 0x403 PUSH2 0x1A40 JUMP JUMPDEST CALLVALUE DUP1 ISZERO PUSH2 0x764 JUMPI PUSH1 0x0 DUP1 REVERT JUMPDEST POP PUSH2 0x4CF PUSH2 0x773 CALLDATASIZE PUSH1 0x4 PUSH2 0x31B9 JUMP JUMPDEST PUSH2 0x1A45 JUMP JUMPDEST PUSH2 0x397 PUSH2 0x786 CALLDATASIZE PUSH1 0x4 PUSH2 0x31B9 JUMP JUMPDEST PUSH2 0x1A5A JUMP JUMPDEST CALLVALUE DUP1 ISZERO PUSH2 0x797 JUMPI PUSH1 0x0 DUP1 REVERT JUMPDEST POP PUSH2 0x397 PUSH2 0x7A6 CALLDATASIZE PUSH1 0x4 PUSH2 0x3659 JUMP JUMPDEST PUSH2 0x1B53 JUMP JUMPDEST CALLVALUE DUP1 ISZERO PUSH2 0x7B7 JUMPI PUSH1 0x0 DUP1 REVERT JUMPDEST POP PUSH2 0x36A PUSH2 0x7C6 CALLDATASIZE PUSH1 0x4 PUSH2 0x3638 JUMP JUMPDEST PUSH2 0x1EE3 JUMP JUMPDEST CALLVALUE DUP1 ISZERO PUSH2 0x7D7 JUMPI PUSH1 0x0 DUP1 REVERT JUMPDEST POP PUSH2 0x397 PUSH2 0x7E6 CALLDATASIZE PUSH1 0x4 PUSH2 0x3315 JUMP JUMPDEST PUSH2 0x1F00 JUMP JUMPDEST CALLVALUE DUP1 ISZERO PUSH2 0x7F7 JUMPI PUSH1 0x0 DUP1 REVERT JUMPDEST POP PUSH2 0x397 PUSH2 0x806 CALLDATASIZE PUSH1 0x4 PUSH2 0x3401 JUMP JUMPDEST PUSH2 0x1F83 JUMP JUMPDEST CALLVALUE DUP1 ISZERO PUSH2 0x817 JUMPI PUSH1 0x0 DUP1 REVERT JUMPDEST POP PUSH2 0x397 PUSH2 0x826 CALLDATASIZE PUSH1 0x4 PUSH2 0x33AE JUMP JUMPDEST PUSH2 0x20BE JUMP JUMPDEST CALLVALUE DUP1 ISZERO PUSH2 0x837 JUMPI PUSH1 0x0 DUP1 REVERT JUMPDEST POP PUSH2 0x334 PUSH2 0x2139 JUMP JUMPDEST CALLVALUE DUP1 ISZERO PUSH2 0x84C JUMPI PUSH1 0x0 DUP1 REVERT JUMPDEST POP PUSH2 0x36A PUSH2 0x2148 JUMP JUMPDEST CALLVALUE DUP1 ISZERO PUSH2 0x861 JUMPI PUSH1 0x0 DUP1 REVERT JUMPDEST POP PUSH2 0x334 PUSH2 0x870 CALLDATASIZE PUSH1 0x4 PUSH2 0x3396 JUMP JUMPDEST PUSH2 0x214E JUMP JUMPDEST CALLVALUE DUP1 ISZERO PUSH2 0x881 JUMPI PUSH1 0x0 DUP1 REVERT JUMPDEST POP PUSH2 0x36A PUSH2 0x890 CALLDATASIZE PUSH1 0x4 PUSH2 0x3396 JUMP JUMPDEST PUSH2 0x215B JUMP JUMPDEST CALLVALUE DUP1 ISZERO PUSH2 0x8A1 JUMPI PUSH1 0x0 DUP1 REVERT JUMPDEST POP PUSH2 0x397 PUSH2 0x8B0 CALLDATASIZE PUSH1 0x4 PUSH2 0x31B9 JUMP JUMPDEST PUSH2 0x21EB JUMP JUMPDEST CALLVALUE DUP1 ISZERO PUSH2 0x8C1 JUMPI PUSH1 0x0 DUP1 REVERT JUMPDEST POP PUSH2 0x403 PUSH2 0x8D0 CALLDATASIZE PUSH1 0x4 PUSH2 0x31B9 JUMP JUMPDEST PUSH2 0x22A1 JUMP JUMPDEST CALLVALUE DUP1 ISZERO PUSH2 0x8E1 JUMPI PUSH1 0x0 DUP1 REVERT JUMPDEST POP PUSH2 0x397 PUSH2 0x8F0 CALLDATASIZE PUSH1 0x4 PUSH2 0x31B9 JUMP JUMPDEST PUSH2 0x22BF JUMP JUMPDEST PUSH1 0x3 SLOAD PUSH1 0x1 PUSH1 0x1 PUSH1 0xA0 SHL SUB AND DUP2 JUMP JUMPDEST PUSH1 0x6 PUSH1 0x20 MSTORE PUSH1 0x0 SWAP1 DUP2 MSTORE PUSH1 0x40 SWAP1 KECCAK256 SLOAD DUP2 JUMP JUMPDEST PUSH1 0x0 SLOAD PUSH1 0x1 PUSH1 0xA0 SHL SWAP1 DIV PUSH1 0xFF AND ISZERO PUSH2 0x949 JUMPI PUSH1 0x40 MLOAD PUSH3 0x461BCD PUSH1 0xE5 SHL DUP2 MSTORE PUSH1 0x4 ADD PUSH2 0x940 SWAP1 PUSH2 0x3ADE JUMP JUMPDEST PUSH1 0x40 MLOAD DUP1 SWAP2 SUB SWAP1 REVERT JUMPDEST PUSH1 0xE SLOAD PUSH1 0xFF AND ISZERO PUSH2 0x986 JUMPI CALLER PUSH1 0x0 SWAP1 DUP2 MSTORE PUSH1 0x10 PUSH1 0x20 MSTORE PUSH1 0x40 SWAP1 KECCAK256 SLOAD PUSH1 0xFF AND PUSH1 0x1 EQ PUSH2 0x986 JUMPI PUSH1 0x40 MLOAD PUSH3 0x461BCD PUSH1 0xE5 SHL DUP2 MSTORE PUSH1 0x4 ADD PUSH2 0x940 SWAP1 PUSH2 0x3C06 JUMP JUMPDEST PUSH1 0x0 SLOAD PUSH1 0x1 PUSH1 0xA8 SHL SWAP1 DIV PUSH1 0xFF AND PUSH2 0x9AF JUMPI PUSH1 0x40 MLOAD PUSH3 0x461BCD PUSH1 0xE5 SHL DUP2 MSTORE PUSH1 0x4 ADD PUSH2 0x940 SWAP1 PUSH2 0x3CDB JUMP JUMPDEST PUSH1 0x0 DUP1 SLOAD PUSH1 0xFF PUSH1 0xA8 SHL NOT AND DUP2 SSTORE GAS SWAP1 POP PUSH2 0x9C7 PUSH2 0x2EB7 JUMP JUMPDEST PUSH2 0x9D1 DUP7 DUP7 PUSH2 0x2341 JUMP JUMPDEST SWAP1 POP PUSH2 0x9DE DUP5 DUP8 DUP4 PUSH2 0x23E3 JUMP JUMPDEST PUSH1 0x60 DUP1 PUSH1 0x9 DUP9 DUP2 SLOAD DUP2 LT PUSH2 0x9EE JUMPI INVALID JUMPDEST PUSH1 0x0 SWAP2 DUP3 MSTORE PUSH1 0x20 SWAP1 SWAP2 KECCAK256 ADD SLOAD PUSH1 0x40 MLOAD PUSH4 0x2CA5159F PUSH1 0xE1 SHL DUP2 MSTORE PUSH1 0x1 PUSH1 0x1 PUSH1 0xA0 SHL SUB SWAP1 SWAP2 AND SWAP1 PUSH4 0x594A2B3E SWAP1 PUSH2 0xA2D SWAP1 CALLER SWAP1 DUP12 SWAP1 DUP12 SWAP1 DUP12 SWAP1 PUSH1 0x4 ADD PUSH2 0x37F0 JUMP JUMPDEST PUSH1 0x0 PUSH1 0x40 MLOAD DUP1 DUP4 SUB DUP2 PUSH1 0x0 DUP8 DUP1 EXTCODESIZE ISZERO DUP1 ISZERO PUSH2 0xA47 JUMPI PUSH1 0x0 DUP1 REVERT JUMPDEST POP GAS CALL ISZERO DUP1 ISZERO PUSH2 0xA5B JUMPI RETURNDATASIZE PUSH1 0x0 DUP1 RETURNDATACOPY RETURNDATASIZE PUSH1 0x0 REVERT JUMPDEST POP POP POP POP PUSH1 0x40 MLOAD RETURNDATASIZE PUSH1 0x0 DUP3 RETURNDATACOPY PUSH1 0x1F RETURNDATASIZE SWAP1 DUP2 ADD PUSH1 0x1F NOT AND DUP3 ADD PUSH1 0x40 MSTORE PUSH2 0xA83 SWAP2 SWAP1 DUP2 ADD SWAP1 PUSH2 0x31F1 JUMP JUMPDEST SWAP2 POP SWAP2 POP PUSH1 0x0 PUSH1 0x9 DUP10 DUP2 SLOAD DUP2 LT PUSH2 0xA96 JUMPI INVALID JUMPDEST PUSH1 0x0 SWAP2 DUP3 MSTORE PUSH1 0x20 SWAP1 SWAP2 KECCAK256 ADD SLOAD DUP5 MLOAD PUSH1 0x40 MLOAD PUSH4 0x31A9108F PUSH1 0xE1 SHL DUP2 MSTORE PUSH1 0x1 PUSH1 0x1 PUSH1 0xA0 SHL SUB SWAP1 SWAP3 AND SWAP2 PUSH4 0x6352211E SWAP2 PUSH2 0xACF SWAP2 PUSH1 0x4 ADD PUSH2 0x38AF JUMP JUMPDEST PUSH1 0x20 PUSH1 0x40 MLOAD DUP1 DUP4 SUB DUP2 DUP7 DUP1 EXTCODESIZE ISZERO DUP1 ISZERO PUSH2 0xAE7 JUMPI PUSH1 0x0 DUP1 REVERT JUMPDEST POP GAS STATICCALL ISZERO DUP1 ISZERO PUSH2 0xAFB JUMPI RETURNDATASIZE PUSH1 0x0 DUP1 RETURNDATACOPY RETURNDATASIZE PUSH1 0x0 REVERT JUMPDEST POP POP POP POP PUSH1 0x40 MLOAD RETURNDATASIZE PUSH1 0x1F NOT PUSH1 0x1F DUP3 ADD AND DUP3 ADD DUP1 PUSH1 0x40 MSTORE POP DUP2 ADD SWAP1 PUSH2 0xB1F SWAP2 SWAP1 PUSH2 0x31D5 JUMP JUMPDEST SWAP1 POP DUP4 PUSH1 0x0 ADD MLOAD DUP10 DUP3 PUSH1 0x1 PUSH1 0x1 PUSH1 0xA0 SHL SUB AND PUSH32 0x37AACCA185D8A700A40142541D808E10BC61CA82EB929CB3DF05DE903A64DC84 DUP12 PUSH1 0x40 MLOAD PUSH2 0xB60 SWAP2 SWAP1 PUSH2 0x38AF JUMP JUMPDEST PUSH1 0x40 MLOAD DUP1 SWAP2 SUB SWAP1 LOG4 PUSH2 0xB72 DUP10 DUP4 PUSH2 0x247A JUMP JUMPDEST PUSH2 0xB7D DUP2 DUP11 DUP6 PUSH2 0x2560 JUMP JUMPDEST PUSH1 0x0 PUSH2 0xB96 PUSH2 0x7530 PUSH2 0xB90 GAS DUP10 SWAP1 PUSH2 0x27C3 JUMP JUMPDEST SWAP1 PUSH2 0x2805 JUMP JUMPDEST SWAP1 POP PUSH1 0x0 PUSH2 0xBA4 DUP3 GASPRICE PUSH2 0x2300 JUMP JUMPDEST PUSH1 0x1 PUSH1 0x1 PUSH1 0xA0 SHL SUB DUP5 AND PUSH1 0x0 SWAP1 DUP2 MSTORE PUSH1 0x6 PUSH1 0x20 MSTORE PUSH1 0x40 SWAP1 KECCAK256 SLOAD SWAP1 SWAP2 POP DUP2 GT ISZERO PUSH2 0xBDF JUMPI PUSH1 0x40 MLOAD PUSH3 0x461BCD PUSH1 0xE5 SHL DUP2 MSTORE PUSH1 0x4 ADD PUSH2 0x940 SWAP1 PUSH2 0x3D94 JUMP JUMPDEST PUSH1 0x1 PUSH1 0x1 PUSH1 0xA0 SHL SUB DUP4 AND PUSH1 0x0 SWAP1 DUP2 MSTORE PUSH1 0x6 PUSH1 0x20 MSTORE PUSH1 0x40 SWAP1 KECCAK256 SLOAD PUSH2 0xC02 SWAP1 DUP3 PUSH2 0x27C3 JUMP JUMPDEST PUSH1 0x1 PUSH1 0x1 PUSH1 0xA0 SHL SUB DUP5 AND PUSH1 0x0 SWAP1 DUP2 MSTORE PUSH1 0x6 PUSH1 0x20 MSTORE PUSH1 0x40 DUP1 DUP3 KECCAK256 SWAP3 SWAP1 SWAP3 SSTORE SWAP1 MLOAD CALLER SWAP1 DUP4 SWAP1 PUSH2 0xC2E SWAP1 PUSH2 0x376B JUMP JUMPDEST PUSH1 0x0 PUSH1 0x40 MLOAD DUP1 DUP4 SUB DUP2 DUP6 DUP8 GAS CALL SWAP3 POP POP POP RETURNDATASIZE DUP1 PUSH1 0x0 DUP2 EQ PUSH2 0xC6B JUMPI PUSH1 0x40 MLOAD SWAP2 POP PUSH1 0x1F NOT PUSH1 0x3F RETURNDATASIZE ADD AND DUP3 ADD PUSH1 0x40 MSTORE RETURNDATASIZE DUP3 MSTORE RETURNDATASIZE PUSH1 0x0 PUSH1 0x20 DUP5 ADD RETURNDATACOPY PUSH2 0xC70 JUMP JUMPDEST PUSH1 0x60 SWAP2 POP JUMPDEST POP POP SWAP1 POP DUP1 PUSH2 0xC91 JUMPI PUSH1 0x40 MLOAD PUSH3 0x461BCD PUSH1 0xE5 SHL DUP2 MSTORE PUSH1 0x4 ADD PUSH2 0x940 SWAP1 PUSH2 0x3BC0 JUMP JUMPDEST POP POP PUSH1 0x0 DUP1 SLOAD PUSH1 0xFF PUSH1 0xA8 SHL NOT AND PUSH1 0x1 PUSH1 0xA8 SHL OR SWAP1 SSTORE POP POP POP POP POP POP POP POP POP POP JUMP JUMPDEST PUSH1 0x0 SLOAD PUSH1 0x1 PUSH1 0xA8 SHL SWAP1 DIV PUSH1 0xFF AND PUSH2 0xCDB JUMPI PUSH1 0x40 MLOAD PUSH3 0x461BCD PUSH1 0xE5 SHL DUP2 MSTORE PUSH1 0x4 ADD PUSH2 0x940 SWAP1 PUSH2 0x3CDB JUMP JUMPDEST PUSH1 0x0 DUP1 SLOAD PUSH1 0xFF PUSH1 0xA8 SHL NOT AND DUP2 SSTORE CALLER DUP2 MSTORE PUSH1 0x6 PUSH1 0x20 MSTORE PUSH1 0x40 SWAP1 KECCAK256 SLOAD PUSH2 0xD11 JUMPI PUSH1 0x40 MLOAD PUSH3 0x461BCD PUSH1 0xE5 SHL DUP2 MSTORE PUSH1 0x4 ADD PUSH2 0x940 SWAP1 PUSH2 0x393E JUMP JUMPDEST CALLER PUSH1 0x0 DUP2 DUP2 MSTORE PUSH1 0x6 PUSH1 0x20 MSTORE PUSH1 0x40 DUP1 DUP3 KECCAK256 DUP1 SLOAD SWAP1 DUP4 SWAP1 SSTORE SWAP1 MLOAD SWAP1 SWAP3 SWAP1 DUP4 SWAP1 PUSH2 0xD37 SWAP1 PUSH2 0x376B JUMP JUMPDEST PUSH1 0x0 PUSH1 0x40 MLOAD DUP1 DUP4 SUB DUP2 DUP6 DUP8 GAS CALL SWAP3 POP POP POP RETURNDATASIZE DUP1 PUSH1 0x0 DUP2 EQ PUSH2 0xD74 JUMPI PUSH1 0x40 MLOAD SWAP2 POP PUSH1 0x1F NOT PUSH1 0x3F RETURNDATASIZE ADD AND DUP3 ADD PUSH1 0x40 MSTORE RETURNDATASIZE DUP3 MSTORE RETURNDATASIZE PUSH1 0x0 PUSH1 0x20 DUP5 ADD RETURNDATACOPY PUSH2 0xD79 JUMP JUMPDEST PUSH1 0x60 SWAP2 POP JUMPDEST POP POP SWAP1 POP DUP1 PUSH2 0xD9A JUMPI PUSH1 0x40 MLOAD PUSH3 0x461BCD PUSH1 0xE5 SHL DUP2 MSTORE PUSH1 0x4 ADD PUSH2 0x940 SWAP1 PUSH2 0x3BC0 JUMP JUMPDEST POP POP PUSH1 0x0 DUP1 SLOAD PUSH1 0xFF PUSH1 0xA8 SHL NOT AND PUSH1 0x1 PUSH1 0xA8 SHL OR SWAP1 SSTORE JUMP JUMPDEST PUSH2 0xDB9 PUSH2 0x282A JUMP JUMPDEST PUSH1 0x0 SLOAD PUSH1 0x1 PUSH1 0x1 PUSH1 0xA0 SHL SUB SWAP1 DUP2 AND SWAP2 AND EQ PUSH2 0xDE6 JUMPI PUSH1 0x40 MLOAD PUSH3 0x461BCD PUSH1 0xE5 SHL DUP2 MSTORE PUSH1 0x4 ADD PUSH2 0x940 SWAP1 PUSH2 0x3B8B JUMP JUMPDEST PUSH1 0x1 PUSH1 0x1 PUSH1 0xA0 SHL SUB AND PUSH1 0x0 SWAP1 DUP2 MSTORE PUSH1 0x8 PUSH1 0x20 MSTORE PUSH1 0x40 SWAP1 KECCAK256 DUP1 SLOAD PUSH1 0xFF NOT AND SWAP1 SSTORE JUMP JUMPDEST PUSH2 0xE0F PUSH2 0x282A JUMP JUMPDEST PUSH1 0x0 SLOAD PUSH1 0x1 PUSH1 0x1 PUSH1 0xA0 SHL SUB SWAP1 DUP2 AND SWAP2 AND EQ PUSH2 0xE3C JUMPI PUSH1 0x40 MLOAD PUSH3 0x461BCD PUSH1 0xE5 SHL DUP2 MSTORE PUSH1 0x4 ADD PUSH2 0x940 SWAP1 PUSH2 0x3B8B JUMP JUMPDEST PUSH1 0x1 PUSH1 0x1 PUSH1 0xA0 SHL SUB DUP2 AND PUSH1 0x0 SWAP1 DUP2 MSTORE PUSH1 0x10 PUSH1 0x20 MSTORE PUSH1 0x40 SWAP1 KECCAK256 SLOAD PUSH1 0xFF AND PUSH1 0x1 EQ PUSH2 0xE77 JUMPI PUSH1 0x40 MLOAD PUSH3 0x461BCD PUSH1 0xE5 SHL DUP2 MSTORE PUSH1 0x4 ADD PUSH2 0x940 SWAP1 PUSH2 0x3C8F JUMP JUMPDEST PUSH1 0x1 PUSH1 0x1 PUSH1 0xA0 SHL SUB AND PUSH1 0x0 SWAP1 DUP2 MSTORE PUSH1 0x10 PUSH1 0x20 MSTORE PUSH1 0x40 SWAP1 KECCAK256 DUP1 SLOAD PUSH1 0xFF NOT AND PUSH1 0x2 OR SWAP1 SSTORE JUMP JUMPDEST PUSH1 0x0 DUP2 JUMP JUMPDEST PUSH2 0xEA8 PUSH2 0x282A JUMP JUMPDEST PUSH1 0x0 SLOAD PUSH1 0x1 PUSH1 0x1 PUSH1 0xA0 SHL SUB SWAP1 DUP2 AND SWAP2 AND EQ PUSH2 0xED5 JUMPI PUSH1 0x40 MLOAD PUSH3 0x461BCD PUSH1 0xE5 SHL DUP2 MSTORE PUSH1 0x4 ADD PUSH2 0x940 SWAP1 PUSH2 0x3B8B JUMP JUMPDEST PUSH1 0x1 PUSH1 0x1 PUSH1 0xA0 SHL SUB DUP2 AND PUSH1 0x0 SWAP1 DUP2 MSTORE PUSH1 0xA PUSH1 0x20 MSTORE PUSH1 0x40 SWAP1 KECCAK256 SLOAD PUSH1 0xFF AND ISZERO PUSH2 0xEFB JUMPI PUSH1 0x0 DUP1 REVERT JUMPDEST PUSH1 0x9 DUP1 SLOAD PUSH1 0x1 PUSH1 0x1 PUSH1 0xA0 SHL SUB SWAP1 SWAP3 AND PUSH1 0x0 DUP2 DUP2 MSTORE PUSH1 0xB PUSH1 0x20 SWAP1 DUP2 MSTORE PUSH1 0x40 DUP1 DUP4 KECCAK256 DUP7 SWAP1 SSTORE PUSH1 0x1 DUP1 DUP8 ADD SWAP1 SWAP6 SSTORE PUSH32 0x6E1540171B6C0C960B71A7020D9F60077F6AF931A8BBF590DA0223DACF75C7AF SWAP1 SWAP6 ADD DUP1 SLOAD PUSH1 0x1 PUSH1 0x1 PUSH1 0xA0 SHL SUB NOT AND DUP5 OR SWAP1 SSTORE SWAP2 DUP2 MSTORE PUSH1 0xA SWAP1 SWAP2 MSTORE SWAP2 SWAP1 SWAP2 KECCAK256 DUP1 SLOAD PUSH1 0xFF NOT AND SWAP1 SWAP2 OR SWAP1 SSTORE JUMP JUMPDEST PUSH20 0x22B20054BBD6DC5C23D7C7595E092CA728A00C32 DUP2 JUMP JUMPDEST PUSH2 0xF93 PUSH2 0x282A JUMP JUMPDEST PUSH1 0x0 SLOAD PUSH1 0x1 PUSH1 0x1 PUSH1 0xA0 SHL SUB SWAP1 DUP2 AND SWAP2 AND EQ PUSH2 0xFC0 JUMPI PUSH1 0x40 MLOAD PUSH3 0x461BCD PUSH1 0xE5 SHL DUP2 MSTORE PUSH1 0x4 ADD PUSH2 0x940 SWAP1 PUSH2 0x3B8B JUMP JUMPDEST PUSH2 0xFC8 PUSH2 0x282E JUMP JUMPDEST JUMP JUMPDEST PUSH1 0x10 PUSH1 0x20 MSTORE PUSH1 0x0 SWAP1 DUP2 MSTORE PUSH1 0x40 SWAP1 KECCAK256 SLOAD PUSH1 0xFF AND DUP2 JUMP JUMPDEST PUSH1 0x0 SLOAD PUSH1 0x1 PUSH1 0xA8 SHL SWAP1 DIV PUSH1 0xFF AND PUSH2 0x1008 JUMPI PUSH1 0x40 MLOAD PUSH3 0x461BCD PUSH1 0xE5 SHL DUP2 MSTORE PUSH1 0x4 ADD PUSH2 0x940 SWAP1 PUSH2 0x3CDB JUMP JUMPDEST PUSH1 0x0 DUP1 SLOAD PUSH1 0xFF PUSH1 0xA8 SHL NOT AND SWAP1 SSTORE PUSH1 0x60 PUSH2 0x1021 DUP4 DUP4 PUSH2 0x28A4 JUMP JUMPDEST SWAP1 POP PUSH1 0x0 JUMPDEST DUP2 MLOAD DUP2 LT ISZERO PUSH2 0x1118 JUMPI PUSH1 0x4 PUSH1 0x0 DUP6 DUP2 MSTORE PUSH1 0x20 ADD SWAP1 DUP2 MSTORE PUSH1 0x20 ADD PUSH1 0x0 KECCAK256 PUSH1 0x0 DUP4 DUP4 DUP2 MLOAD DUP2 LT PUSH2 0x1050 JUMPI INVALID JUMPDEST PUSH1 0x20 MUL PUSH1 0x20 ADD ADD MLOAD PUSH1 0x40 ADD MLOAD DUP2 MSTORE PUSH1 0x20 ADD SWAP1 DUP2 MSTORE PUSH1 0x20 ADD PUSH1 0x0 KECCAK256 SLOAD PUSH1 0x0 DUP1 SHL EQ PUSH2 0x1110 JUMPI PUSH1 0x1 SLOAD PUSH1 0x0 DUP6 DUP2 MSTORE PUSH1 0x4 PUSH1 0x20 MSTORE PUSH1 0x40 DUP2 KECCAK256 DUP5 MLOAD PUSH1 0x1 PUSH1 0x1 PUSH1 0xA0 SHL SUB SWAP1 SWAP4 AND SWAP3 PUSH4 0xEE8CA3B5 SWAP3 SWAP1 DUP7 SWAP1 DUP7 SWAP1 DUP2 LT PUSH2 0x10A6 JUMPI INVALID JUMPDEST PUSH1 0x20 MUL PUSH1 0x20 ADD ADD MLOAD PUSH1 0x40 ADD MLOAD DUP2 MSTORE PUSH1 0x20 ADD SWAP1 DUP2 MSTORE PUSH1 0x20 ADD PUSH1 0x0 KECCAK256 SLOAD PUSH1 0x40 MLOAD DUP3 PUSH4 0xFFFFFFFF AND PUSH1 0xE0 SHL DUP2 MSTORE PUSH1 0x4 ADD PUSH2 0x10DD SWAP2 SWAP1 PUSH2 0x38AF JUMP JUMPDEST PUSH1 0x0 PUSH1 0x40 MLOAD DUP1 DUP4 SUB DUP2 PUSH1 0x0 DUP8 DUP1 EXTCODESIZE ISZERO DUP1 ISZERO PUSH2 0x10F7 JUMPI PUSH1 0x0 DUP1 REVERT JUMPDEST POP GAS CALL ISZERO DUP1 ISZERO PUSH2 0x110B JUMPI RETURNDATASIZE PUSH1 0x0 DUP1 RETURNDATACOPY RETURNDATASIZE PUSH1 0x0 REVERT JUMPDEST POP POP POP POP JUMPDEST PUSH1 0x1 ADD PUSH2 0x1026 JUMP JUMPDEST POP PUSH1 0x9 DUP4 DUP2 SLOAD DUP2 LT PUSH2 0x1126 JUMPI INVALID JUMPDEST PUSH1 0x0 SWAP2 DUP3 MSTORE PUSH1 0x20 SWAP1 SWAP2 KECCAK256 ADD SLOAD PUSH1 0x40 MLOAD PUSH4 0xF3FEF3A3 PUSH1 0xE0 SHL DUP2 MSTORE PUSH1 0x1 PUSH1 0x1 PUSH1 0xA0 SHL SUB SWAP1 SWAP2 AND SWAP1 PUSH4 0xF3FEF3A3 SWAP1 PUSH2 0x1161 SWAP1 CALLER SWAP1 DUP7 SWAP1 PUSH1 0x4 ADD PUSH2 0x37D7 JUMP JUMPDEST PUSH1 0x0 PUSH1 0x40 MLOAD DUP1 DUP4 SUB DUP2 PUSH1 0x0 DUP8 DUP1 EXTCODESIZE ISZERO DUP1 ISZERO PUSH2 0x117B JUMPI PUSH1 0x0 DUP1 REVERT JUMPDEST POP GAS CALL ISZERO DUP1 ISZERO PUSH2 0x118F JUMPI RETURNDATASIZE PUSH1 0x0 DUP1 RETURNDATACOPY RETURNDATASIZE PUSH1 0x0 REVERT JUMPDEST POP POP PUSH1 0x40 MLOAD DUP5 SWAP3 POP DUP6 SWAP2 POP CALLER SWAP1 PUSH32 0xF279E6A1F5E320CCA91135676D9CB6E44CA8A08C0B88342BCDB1144F6511B568 SWAP1 PUSH1 0x0 SWAP1 LOG4 POP POP PUSH1 0x0 DUP1 SLOAD PUSH1 0xFF PUSH1 0xA8 SHL NOT AND PUSH1 0x1 PUSH1 0xA8 SHL OR SWAP1 SSTORE POP JUMP JUMPDEST PUSH1 0x7 DUP2 DUP2 SLOAD DUP2 LT PUSH2 0x11E7 JUMPI INVALID JUMPDEST PUSH1 0x0 SWAP2 DUP3 MSTORE PUSH1 0x20 SWAP1 SWAP2 KECCAK256 ADD SLOAD PUSH1 0x1 PUSH1 0x1 PUSH1 0xA0 SHL SUB AND SWAP1 POP DUP2 JUMP JUMPDEST PUSH1 0x3 SLOAD PUSH1 0x1 PUSH1 0xA0 SHL SWAP1 DIV PUSH1 0xFF AND DUP2 JUMP JUMPDEST PUSH2 0x1219 PUSH2 0x282A JUMP JUMPDEST PUSH1 0x0 SLOAD PUSH1 0x1 PUSH1 0x1 PUSH1 0xA0 SHL SUB SWAP1 DUP2 AND SWAP2 AND EQ PUSH2 0x1246 JUMPI PUSH1 0x40 MLOAD PUSH3 0x461BCD PUSH1 0xE5 SHL DUP2 MSTORE PUSH1 0x4 ADD PUSH2 0x940 SWAP1 PUSH2 0x3B8B JUMP JUMPDEST PUSH1 0x9 DUP4 DUP2 SLOAD DUP2 LT PUSH2 0x1253 JUMPI INVALID JUMPDEST PUSH1 0x0 SWAP2 DUP3 MSTORE PUSH1 0x20 SWAP1 SWAP2 KECCAK256 ADD SLOAD PUSH1 0x40 MLOAD PUSH4 0x575272DD PUSH1 0xE1 SHL DUP2 MSTORE PUSH1 0x1 PUSH1 0x1 PUSH1 0xA0 SHL SUB SWAP1 SWAP2 AND SWAP1 PUSH4 0xAEA4E5BA SWAP1 PUSH2 0x128E SWAP1 DUP6 SWAP1 DUP6 SWAP1 PUSH1 0x4 ADD PUSH2 0x37D7 JUMP JUMPDEST PUSH1 0x0 PUSH1 0x40 MLOAD DUP1 DUP4 SUB DUP2 PUSH1 0x0 DUP8 DUP1 EXTCODESIZE ISZERO DUP1 ISZERO PUSH2 0x12A8 JUMPI PUSH1 0x0 DUP1 REVERT JUMPDEST POP GAS CALL ISZERO DUP1 ISZERO PUSH2 0x12BC JUMPI RETURNDATASIZE PUSH1 0x0 DUP1 RETURNDATACOPY RETURNDATASIZE PUSH1 0x0 REVERT JUMPDEST POP POP POP POP POP POP POP JUMP JUMPDEST PUSH1 0x2 DUP2 JUMP JUMPDEST PUSH20 0x7598E84B2E114AB62CAB288CE5F7D5F6BAD35BBA DUP2 JUMP JUMPDEST PUSH1 0x0 SLOAD PUSH1 0x1 PUSH1 0xA0 SHL SWAP1 DIV PUSH1 0xFF AND SWAP1 JUMP JUMPDEST PUSH1 0x2 SLOAD PUSH1 0x1 PUSH1 0x1 PUSH1 0xA0 SHL SUB AND DUP2 JUMP JUMPDEST PUSH1 0x11 DUP2 DUP2 SLOAD DUP2 LT PUSH2 0x11E7 JUMPI INVALID JUMPDEST PUSH2 0x1316 PUSH2 0x282A JUMP JUMPDEST PUSH1 0x0 SLOAD PUSH1 0x1 PUSH1 0x1 PUSH1 0xA0 SHL SUB SWAP1 DUP2 AND SWAP2 AND EQ PUSH2 0x1343 JUMPI PUSH1 0x40 MLOAD PUSH3 0x461BCD PUSH1 0xE5 SHL DUP2 MSTORE PUSH1 0x4 ADD PUSH2 0x940 SWAP1 PUSH2 0x3B8B JUMP JUMPDEST PUSH1 0x0 DUP1 SLOAD PUSH1 0x40 MLOAD PUSH1 0x1 PUSH1 0x1 PUSH1 0xA0 SHL SUB SWAP1 SWAP2 AND SWAP1 PUSH32 0x8BE0079C531659141344CD1FD0A4F28419497F9722A3DAAFE3B4186F6B6457E0 SWAP1 DUP4 SWAP1 LOG3 PUSH1 0x0 DUP1 SLOAD PUSH1 0x1 PUSH1 0x1 PUSH1 0xA0 SHL SUB NOT AND SWAP1 SSTORE JUMP JUMPDEST PUSH1 0x1 PUSH1 0x1 PUSH1 0xA0 SHL SUB AND PUSH1 0x0 SWAP1 DUP2 MSTORE PUSH1 0xB PUSH1 0x20 MSTORE PUSH1 0x40 SWAP1 KECCAK256 SLOAD SWAP1 JUMP JUMPDEST PUSH2 0x13B0 PUSH2 0x282A JUMP JUMPDEST PUSH1 0x0 SLOAD PUSH1 0x1 PUSH1 0x1 PUSH1 0xA0 SHL SUB SWAP1 DUP2 AND SWAP2 AND EQ PUSH2 0x13DD JUMPI PUSH1 0x40 MLOAD PUSH3 0x461BCD PUSH1 0xE5 SHL DUP2 MSTORE PUSH1 0x4 ADD PUSH2 0x940 SWAP1 PUSH2 0x3B8B JUMP JUMPDEST PUSH1 0x9 DUP3 DUP2 SLOAD DUP2 LT PUSH2 0x13EA JUMPI INVALID JUMPDEST PUSH1 0x0 SWAP2 DUP3 MSTORE PUSH1 0x20 SWAP1 SWAP2 KECCAK256 ADD SLOAD PUSH1 0x40 MLOAD PUSH4 0x55F804B3 PUSH1 0xE0 SHL DUP2 MSTORE PUSH1 0x1 PUSH1 0x1 PUSH1 0xA0 SHL SUB SWAP1 SWAP2 AND SWAP1 PUSH4 0x55F804B3 SWAP1 PUSH2 0x1423 SWAP1 DUP5 SWAP1 PUSH1 0x4 ADD PUSH2 0x38B8 JUMP JUMPDEST PUSH1 0x0 PUSH1 0x40 MLOAD DUP1 DUP4 SUB DUP2 PUSH1 0x0 DUP8 DUP1 EXTCODESIZE ISZERO DUP1 ISZERO PUSH2 0x143D JUMPI PUSH1 0x0 DUP1 REVERT JUMPDEST POP GAS CALL ISZERO DUP1 ISZERO PUSH2 0x1451 JUMPI RETURNDATASIZE PUSH1 0x0 DUP1 RETURNDATACOPY RETURNDATASIZE PUSH1 0x0 REVERT JUMPDEST POP POP POP POP POP POP JUMP JUMPDEST PUSH1 0x9 SLOAD SWAP1 JUMP JUMPDEST PUSH20 0xEEEEEEEEEEEEEEEEEEEEEEEEEEEEEEEEEEEEEEEE DUP2 JUMP JUMPDEST PUSH2 0x147F PUSH2 0x282A JUMP JUMPDEST PUSH1 0x0 SLOAD PUSH1 0x1 PUSH1 0x1 PUSH1 0xA0 SHL SUB SWAP1 DUP2 AND SWAP2 AND EQ PUSH2 0x14AC JUMPI PUSH1 0x40 MLOAD PUSH3 0x461BCD PUSH1 0xE5 SHL DUP2 MSTORE PUSH1 0x4 ADD PUSH2 0x940 SWAP1 PUSH2 0x3B8B JUMP JUMPDEST PUSH2 0xFC8 PUSH2 0x2AC2 JUMP JUMPDEST PUSH1 0x9 DUP2 DUP2 SLOAD DUP2 LT PUSH2 0x11E7 JUMPI INVALID JUMPDEST PUSH1 0x4 PUSH1 0x20 SWAP1 DUP2 MSTORE PUSH1 0x0 SWAP3 DUP4 MSTORE PUSH1 0x40 DUP1 DUP5 KECCAK256 SWAP1 SWAP2 MSTORE SWAP1 DUP3 MSTORE SWAP1 KECCAK256 SLOAD DUP2 JUMP JUMPDEST PUSH1 0x0 SLOAD PUSH1 0x1 PUSH1 0x1 PUSH1 0xA0 SHL SUB AND SWAP1 JUMP JUMPDEST PUSH1 0xE SLOAD PUSH1 0xFF AND DUP2 JUMP JUMPDEST PUSH1 0x0 PUSH2 0x1523 PUSH2 0x151C PUSH1 0xD SLOAD PUSH2 0x1516 PUSH1 0xC SLOAD DUP7 PUSH2 0x2300 SWAP1 SWAP2 SWAP1 PUSH4 0xFFFFFFFF AND JUMP JUMPDEST SWAP1 PUSH2 0x2B28 JUMP JUMPDEST DUP4 SWAP1 PUSH2 0x27C3 JUMP JUMPDEST SWAP3 SWAP2 POP POP JUMP JUMPDEST PUSH2 0x1531 PUSH2 0x282A JUMP JUMPDEST PUSH1 0x0 SLOAD PUSH1 0x1 PUSH1 0x1 PUSH1 0xA0 SHL SUB SWAP1 DUP2 AND SWAP2 AND EQ PUSH2 0x155E JUMPI PUSH1 0x40 MLOAD PUSH3 0x461BCD PUSH1 0xE5 SHL DUP2 MSTORE PUSH1 0x4 ADD PUSH2 0x940 SWAP1 PUSH2 0x3B8B JUMP JUMPDEST DUP2 MLOAD DUP4 MLOAD EQ DUP1 ISZERO PUSH2 0x1570 JUMPI POP DUP1 MLOAD DUP4 MLOAD EQ JUMPDEST PUSH2 0x158C JUMPI PUSH1 0x40 MLOAD PUSH3 0x461BCD PUSH1 0xE5 SHL DUP2 MSTORE PUSH1 0x4 ADD PUSH2 0x940 SWAP1 PUSH2 0x3B08 JUMP JUMPDEST PUSH1 0x0 JUMPDEST DUP4 MLOAD DUP2 LT ISZERO PUSH2 0x1730 JUMPI PUSH1 0x9 DUP6 DUP2 SLOAD DUP2 LT PUSH2 0x15A5 JUMPI INVALID JUMPDEST PUSH1 0x0 SWAP2 DUP3 MSTORE PUSH1 0x20 SWAP1 SWAP2 KECCAK256 ADD SLOAD DUP5 MLOAD PUSH1 0x1 PUSH1 0x1 PUSH1 0xA0 SHL SUB SWAP1 SWAP2 AND SWAP1 PUSH4 0x90A83DC2 SWAP1 DUP7 SWAP1 DUP5 SWAP1 DUP2 LT PUSH2 0x15D1 JUMPI INVALID JUMPDEST PUSH1 0x20 MUL PUSH1 0x20 ADD ADD MLOAD DUP6 DUP5 DUP2 MLOAD DUP2 LT PUSH2 0x15E5 JUMPI INVALID JUMPDEST PUSH1 0x20 MUL PUSH1 0x20 ADD ADD MLOAD DUP6 DUP6 DUP2 MLOAD DUP2 LT PUSH2 0x15F9 JUMPI INVALID JUMPDEST PUSH1 0x20 MUL PUSH1 0x20 ADD ADD MLOAD PUSH1 0x40 MLOAD DUP5 PUSH4 0xFFFFFFFF AND PUSH1 0xE0 SHL DUP2 MSTORE PUSH1 0x4 ADD PUSH2 0x161F SWAP4 SWAP3 SWAP2 SWAP1 PUSH2 0x382D JUMP JUMPDEST PUSH1 0x0 PUSH1 0x40 MLOAD DUP1 DUP4 SUB DUP2 PUSH1 0x0 DUP8 DUP1 EXTCODESIZE ISZERO DUP1 ISZERO PUSH2 0x1639 JUMPI PUSH1 0x0 DUP1 REVERT JUMPDEST POP GAS CALL ISZERO DUP1 ISZERO PUSH2 0x164D JUMPI RETURNDATASIZE PUSH1 0x0 DUP1 RETURNDATACOPY RETURNDATASIZE PUSH1 0x0 REVERT JUMPDEST POP POP POP POP PUSH1 0x12 PUSH1 0x0 DUP5 DUP4 DUP2 MLOAD DUP2 LT PUSH2 0x1661 JUMPI INVALID JUMPDEST PUSH1 0x20 SWAP1 DUP2 MUL SWAP2 SWAP1 SWAP2 ADD DUP2 ADD MLOAD PUSH1 0x1 PUSH1 0x1 PUSH1 0xA0 SHL SUB AND DUP3 MSTORE DUP2 ADD SWAP2 SWAP1 SWAP2 MSTORE PUSH1 0x40 ADD PUSH1 0x0 KECCAK256 SLOAD PUSH1 0xFF AND PUSH2 0x1728 JUMPI PUSH1 0x11 DUP4 DUP3 DUP2 MLOAD DUP2 LT PUSH2 0x169A JUMPI INVALID JUMPDEST PUSH1 0x20 SWAP1 DUP2 MUL SWAP2 SWAP1 SWAP2 ADD DUP2 ADD MLOAD DUP3 SLOAD PUSH1 0x1 DUP1 DUP3 ADD DUP6 SSTORE PUSH1 0x0 SWAP5 DUP6 MSTORE SWAP3 DUP5 KECCAK256 ADD DUP1 SLOAD PUSH1 0x1 PUSH1 0x1 PUSH1 0xA0 SHL SUB NOT AND PUSH1 0x1 PUSH1 0x1 PUSH1 0xA0 SHL SUB SWAP1 SWAP3 AND SWAP2 SWAP1 SWAP2 OR SWAP1 SSTORE DUP5 MLOAD SWAP1 SWAP2 PUSH1 0x12 SWAP2 DUP7 SWAP1 DUP6 SWAP1 DUP2 LT PUSH2 0x16E8 JUMPI INVALID JUMPDEST PUSH1 0x20 MUL PUSH1 0x20 ADD ADD MLOAD PUSH1 0x1 PUSH1 0x1 PUSH1 0xA0 SHL SUB AND PUSH1 0x1 PUSH1 0x1 PUSH1 0xA0 SHL SUB AND DUP2 MSTORE PUSH1 0x20 ADD SWAP1 DUP2 MSTORE PUSH1 0x20 ADD PUSH1 0x0 KECCAK256 PUSH1 0x0 PUSH2 0x100 EXP DUP2 SLOAD DUP2 PUSH1 0xFF MUL NOT AND SWAP1 DUP4 ISZERO ISZERO MUL OR SWAP1 SSTORE POP JUMPDEST PUSH1 0x1 ADD PUSH2 0x158F JUMP JUMPDEST POP POP POP POP POP JUMP JUMPDEST PUSH2 0x173F PUSH2 0x282A JUMP JUMPDEST PUSH1 0x0 SLOAD PUSH1 0x1 PUSH1 0x1 PUSH1 0xA0 SHL SUB SWAP1 DUP2 AND SWAP2 AND EQ PUSH2 0x176C JUMPI PUSH1 0x40 MLOAD PUSH3 0x461BCD PUSH1 0xE5 SHL DUP2 MSTORE PUSH1 0x4 ADD PUSH2 0x940 SWAP1 PUSH2 0x3B8B JUMP JUMPDEST PUSH1 0x1 PUSH1 0x1 PUSH1 0xA0 SHL SUB AND PUSH1 0x0 SWAP1 DUP2 MSTORE PUSH1 0xA PUSH1 0x20 MSTORE PUSH1 0x40 SWAP1 KECCAK256 DUP1 SLOAD PUSH1 0xFF NOT AND PUSH1 0x2 OR SWAP1 SSTORE JUMP JUMPDEST PUSH2 0x1798 PUSH2 0x282A JUMP JUMPDEST PUSH1 0x0 SLOAD PUSH1 0x1 PUSH1 0x1 PUSH1 0xA0 SHL SUB SWAP1 DUP2 AND SWAP2 AND EQ PUSH2 0x17C5 JUMPI PUSH1 0x40 MLOAD PUSH3 0x461BCD PUSH1 0xE5 SHL DUP2 MSTORE PUSH1 0x4 ADD PUSH2 0x940 SWAP1 PUSH2 0x3B8B JUMP JUMPDEST PUSH1 0xE DUP1 SLOAD PUSH1 0xFF NOT AND SWAP2 ISZERO ISZERO SWAP2 SWAP1 SWAP2 OR SWAP1 SSTORE JUMP JUMPDEST PUSH1 0xC SLOAD DUP2 JUMP JUMPDEST PUSH1 0x0 SLOAD PUSH1 0x1 PUSH1 0xA0 SHL SWAP1 DIV PUSH1 0xFF AND ISZERO PUSH2 0x1808 JUMPI PUSH1 0x40 MLOAD PUSH3 0x461BCD PUSH1 0xE5 SHL DUP2 MSTORE PUSH1 0x4 ADD PUSH2 0x940 SWAP1 PUSH2 0x3ADE JUMP JUMPDEST PUSH1 0x0 SLOAD PUSH1 0x1 PUSH1 0xA8 SHL SWAP1 DIV PUSH1 0xFF AND PUSH2 0x1831 JUMPI PUSH1 0x40 MLOAD PUSH3 0x461BCD PUSH1 0xE5 SHL DUP2 MSTORE PUSH1 0x4 ADD PUSH2 0x940 SWAP1 PUSH2 0x3CDB JUMP JUMPDEST PUSH1 0x0 DUP1 SLOAD PUSH1 0xFF PUSH1 0xA8 SHL NOT AND SWAP1 SSTORE PUSH1 0x9 DUP1 SLOAD PUSH1 0x1 SWAP2 PUSH2 0x186D SWAP2 DUP9 SWAP1 DUP2 LT PUSH2 0x1853 JUMPI INVALID JUMPDEST PUSH1 0x0 SWAP2 DUP3 MSTORE PUSH1 0x20 SWAP1 SWAP2 KECCAK256 ADD SLOAD PUSH1 0x1 PUSH1 0x1 PUSH1 0xA0 SHL SUB AND PUSH2 0x22A1 JUMP JUMPDEST PUSH1 0xFF AND EQ PUSH2 0x188D JUMPI PUSH1 0x40 MLOAD PUSH3 0x461BCD PUSH1 0xE5 SHL DUP2 MSTORE PUSH1 0x4 ADD PUSH2 0x940 SWAP1 PUSH2 0x3D53 JUMP JUMPDEST PUSH1 0x60 PUSH1 0x9 DUP7 DUP2 SLOAD DUP2 LT PUSH2 0x189C JUMPI INVALID JUMPDEST PUSH1 0x0 SWAP2 DUP3 MSTORE PUSH1 0x20 SWAP1 SWAP2 KECCAK256 ADD SLOAD PUSH1 0x40 MLOAD PUSH4 0xDBB03711 PUSH1 0xE0 SHL DUP2 MSTORE PUSH1 0x1 PUSH1 0x1 PUSH1 0xA0 SHL SUB SWAP1 SWAP2 AND SWAP1 PUSH4 0xDBB03711 SWAP1 PUSH2 0x18DB SWAP1 CALLER SWAP1 DUP10 SWAP1 DUP10 SWAP1 DUP10 SWAP1 PUSH1 0x4 ADD PUSH2 0x3782 JUMP JUMPDEST PUSH1 0x0 PUSH1 0x40 MLOAD DUP1 DUP4 SUB DUP2 PUSH1 0x0 DUP8 DUP1 EXTCODESIZE ISZERO DUP1 ISZERO PUSH2 0x18F5 JUMPI PUSH1 0x0 DUP1 REVERT JUMPDEST POP GAS CALL ISZERO DUP1 ISZERO PUSH2 0x1909 JUMPI RETURNDATASIZE PUSH1 0x0 DUP1 RETURNDATACOPY RETURNDATASIZE PUSH1 0x0 REVERT JUMPDEST POP POP POP POP PUSH1 0x40 MLOAD RETURNDATASIZE PUSH1 0x0 DUP3 RETURNDATACOPY PUSH1 0x1F RETURNDATASIZE SWAP1 DUP2 ADD PUSH1 0x1F NOT AND DUP3 ADD PUSH1 0x40 MSTORE PUSH2 0x1931 SWAP2 SWAP1 DUP2 ADD SWAP1 PUSH2 0x32A2 JUMP JUMPDEST SWAP1 POP PUSH1 0x60 PUSH2 0x193F DUP8 DUP4 PUSH2 0x2B6A JUMP JUMPDEST SWAP1 POP DUP7 CALLER PUSH1 0x1 PUSH1 0x1 PUSH1 0xA0 SHL SUB AND PUSH32 0x8F64CA6A175F84DF6403FBA2601D4C5C734EE77F375196788648AEDC05FF57D5 DUP4 PUSH1 0x0 DUP2 MLOAD DUP2 LT PUSH2 0x197A JUMPI INVALID JUMPDEST PUSH1 0x20 MUL PUSH1 0x20 ADD ADD MLOAD PUSH1 0x0 ADD MLOAD PUSH1 0x40 MLOAD PUSH2 0x1993 SWAP2 SWAP1 PUSH2 0x38AF JUMP JUMPDEST PUSH1 0x40 MLOAD DUP1 SWAP2 SUB SWAP1 LOG3 PUSH1 0x0 DUP8 DUP2 MSTORE PUSH1 0x5 PUSH1 0x20 MSTORE PUSH1 0x40 DUP2 KECCAK256 DUP3 MLOAD DUP6 SWAP3 SWAP1 DUP5 SWAP1 DUP3 SWAP1 PUSH2 0x19B8 JUMPI INVALID JUMPDEST PUSH1 0x20 MUL PUSH1 0x20 ADD ADD MLOAD PUSH1 0x0 ADD MLOAD DUP2 MSTORE PUSH1 0x20 ADD SWAP1 DUP2 MSTORE PUSH1 0x20 ADD PUSH1 0x0 KECCAK256 DUP2 SWAP1 SSTORE POP PUSH2 0x19E1 CALLER DUP9 DUP4 PUSH2 0x2560 JUMP JUMPDEST POP POP PUSH1 0x0 DUP1 SLOAD PUSH1 0xFF PUSH1 0xA8 SHL NOT AND PUSH1 0x1 PUSH1 0xA8 SHL OR SWAP1 SSTORE POP POP POP POP POP JUMP JUMPDEST PUSH2 0x1A05 PUSH2 0x282A JUMP JUMPDEST PUSH1 0x0 SLOAD PUSH1 0x1 PUSH1 0x1 PUSH1 0xA0 SHL SUB SWAP1 DUP2 AND SWAP2 AND EQ PUSH2 0x1A32 JUMPI PUSH1 0x40 MLOAD PUSH3 0x461BCD PUSH1 0xE5 SHL DUP2 MSTORE PUSH1 0x4 ADD PUSH2 0x940 SWAP1 PUSH2 0x3B8B JUMP JUMPDEST PUSH2 0x1A3C DUP3 DUP3 PUSH2 0x2CB3 JUMP JUMPDEST POP POP JUMP JUMPDEST PUSH1 0x1 DUP2 JUMP JUMPDEST PUSH1 0x8 PUSH1 0x20 MSTORE PUSH1 0x0 SWAP1 DUP2 MSTORE PUSH1 0x40 SWAP1 KECCAK256 SLOAD PUSH1 0xFF AND DUP2 JUMP JUMPDEST PUSH1 0x0 SLOAD PUSH1 0x1 PUSH1 0xA8 SHL SWAP1 DIV PUSH1 0xFF AND PUSH2 0x1A83 JUMPI PUSH1 0x40 MLOAD PUSH3 0x461BCD PUSH1 0xE5 SHL DUP2 MSTORE PUSH1 0x4 ADD PUSH2 0x940 SWAP1 PUSH2 0x3CDB JUMP JUMPDEST PUSH1 0x0 DUP1 SLOAD PUSH1 0xFF PUSH1 0xA8 SHL NOT AND SWAP1 DUP2 SWAP1 SSTORE PUSH1 0x1 PUSH1 0xA0 SHL SWAP1 DIV PUSH1 0xFF AND ISZERO PUSH2 0x1AB9 JUMPI PUSH1 0x40 MLOAD PUSH3 0x461BCD PUSH1 0xE5 SHL DUP2 MSTORE PUSH1 0x4 ADD PUSH2 0x940 SWAP1 PUSH2 0x3ADE JUMP JUMPDEST PUSH1 0x1 PUSH1 0x1 PUSH1 0xA0 SHL SUB DUP2 AND PUSH1 0x0 SWAP1 DUP2 MSTORE PUSH1 0x6 PUSH1 0x20 MSTORE PUSH1 0x40 SWAP1 KECCAK256 SLOAD CALLVALUE SWAP1 PUSH2 0x1ADE SWAP1 DUP3 PUSH2 0x2805 JUMP JUMPDEST PUSH1 0x1 PUSH1 0x1 PUSH1 0xA0 SHL SUB DUP1 DUP5 AND PUSH1 0x0 DUP2 DUP2 MSTORE PUSH1 0x6 PUSH1 0x20 MSTORE PUSH1 0x40 SWAP1 DUP2 SWAP1 KECCAK256 SWAP4 SWAP1 SWAP4 SSTORE PUSH1 0x3 SLOAD SWAP3 MLOAD SWAP1 SWAP3 PUSH32 0xD0EFD3E06609FAF7821CA1899AFE6F2AC4CE1514E0935434607CA0E80A81D0F2 SWAP3 PUSH2 0x1B34 SWAP3 SWAP2 AND SWAP1 DUP6 SWAP1 PUSH2 0x37D7 JUMP JUMPDEST PUSH1 0x40 MLOAD DUP1 SWAP2 SUB SWAP1 LOG2 POP POP PUSH1 0x0 DUP1 SLOAD PUSH1 0xFF PUSH1 0xA8 SHL NOT AND PUSH1 0x1 PUSH1 0xA8 SHL OR SWAP1 SSTORE JUMP JUMPDEST PUSH1 0x0 SLOAD PUSH1 0x1 PUSH1 0xA0 SHL SWAP1 DIV PUSH1 0xFF AND ISZERO PUSH2 0x1B7D JUMPI PUSH1 0x40 MLOAD PUSH3 0x461BCD PUSH1 0xE5 SHL DUP2 MSTORE PUSH1 0x4 ADD PUSH2 0x940 SWAP1 PUSH2 0x3ADE JUMP JUMPDEST PUSH1 0x1 SLOAD PUSH1 0x1 PUSH1 0x1 PUSH1 0xA0 SHL SUB AND CALLER EQ PUSH2 0x1BA7 JUMPI PUSH1 0x40 MLOAD PUSH3 0x461BCD PUSH1 0xE5 SHL DUP2 MSTORE PUSH1 0x4 ADD PUSH2 0x940 SWAP1 PUSH2 0x39D0 JUMP JUMPDEST PUSH1 0x3 SLOAD PUSH1 0x1 PUSH1 0xA0 SHL SWAP1 DIV PUSH1 0xFF AND PUSH2 0x1BD0 JUMPI PUSH1 0x40 MLOAD PUSH3 0x461BCD PUSH1 0xE5 SHL DUP2 MSTORE PUSH1 0x4 ADD PUSH2 0x940 SWAP1 PUSH2 0x3C4D JUMP JUMPDEST PUSH1 0x0 SLOAD PUSH1 0x1 PUSH1 0xA8 SHL SWAP1 DIV PUSH1 0xFF AND PUSH2 0x1BF9 JUMPI PUSH1 0x40 MLOAD PUSH3 0x461BCD PUSH1 0xE5 SHL DUP2 MSTORE PUSH1 0x4 ADD PUSH2 0x940 SWAP1 PUSH2 0x3CDB JUMP JUMPDEST PUSH1 0x0 DUP1 SLOAD PUSH1 0xFF PUSH1 0xA8 SHL NOT AND SWAP1 SSTORE PUSH2 0x1C0E PUSH2 0x2EB7 JUMP JUMPDEST PUSH2 0x1C18 DUP6 DUP6 PUSH2 0x2341 JUMP JUMPDEST SWAP1 POP PUSH2 0x1C25 DUP4 DUP7 DUP4 PUSH2 0x23E3 JUMP JUMPDEST PUSH1 0x60 DUP1 PUSH1 0x9 DUP8 DUP2 SLOAD DUP2 LT PUSH2 0x1C35 JUMPI INVALID JUMPDEST PUSH1 0x0 SWAP2 DUP3 MSTORE PUSH1 0x20 SWAP1 SWAP2 KECCAK256 ADD SLOAD PUSH1 0x40 MLOAD PUSH4 0x2CA5159F PUSH1 0xE1 SHL DUP2 MSTORE PUSH1 0x1 PUSH1 0x1 PUSH1 0xA0 SHL SUB SWAP1 SWAP2 AND SWAP1 PUSH4 0x594A2B3E SWAP1 PUSH2 0x1C74 SWAP1 CALLER SWAP1 DUP11 SWAP1 DUP11 SWAP1 DUP11 SWAP1 PUSH1 0x4 ADD PUSH2 0x37F0 JUMP JUMPDEST PUSH1 0x0 PUSH1 0x40 MLOAD DUP1 DUP4 SUB DUP2 PUSH1 0x0 DUP8 DUP1 EXTCODESIZE ISZERO DUP1 ISZERO PUSH2 0x1C8E JUMPI PUSH1 0x0 DUP1 REVERT JUMPDEST POP GAS CALL ISZERO DUP1 ISZERO PUSH2 0x1CA2 JUMPI RETURNDATASIZE PUSH1 0x0 DUP1 RETURNDATACOPY RETURNDATASIZE PUSH1 0x0 REVERT JUMPDEST POP POP POP POP PUSH1 0x40 MLOAD RETURNDATASIZE PUSH1 0x0 DUP3 RETURNDATACOPY PUSH1 0x1F RETURNDATASIZE SWAP1 DUP2 ADD PUSH1 0x1F NOT AND DUP3 ADD PUSH1 0x40 MSTORE PUSH2 0x1CCA SWAP2 SWAP1 DUP2 ADD SWAP1 PUSH2 0x31F1 JUMP JUMPDEST SWAP2 POP SWAP2 POP PUSH1 0x0 PUSH1 0x9 DUP9 DUP2 SLOAD DUP2 LT PUSH2 0x1CDD JUMPI INVALID JUMPDEST PUSH1 0x0 SWAP2 DUP3 MSTORE PUSH1 0x20 SWAP1 SWAP2 KECCAK256 ADD SLOAD DUP5 MLOAD PUSH1 0x40 MLOAD PUSH4 0x31A9108F PUSH1 0xE1 SHL DUP2 MSTORE PUSH1 0x1 PUSH1 0x1 PUSH1 0xA0 SHL SUB SWAP1 SWAP3 AND SWAP2 PUSH4 0x6352211E SWAP2 PUSH2 0x1D16 SWAP2 PUSH1 0x4 ADD PUSH2 0x38AF JUMP JUMPDEST PUSH1 0x20 PUSH1 0x40 MLOAD DUP1 DUP4 SUB DUP2 DUP7 DUP1 EXTCODESIZE ISZERO DUP1 ISZERO PUSH2 0x1D2E JUMPI PUSH1 0x0 DUP1 REVERT JUMPDEST POP GAS STATICCALL ISZERO DUP1 ISZERO PUSH2 0x1D42 JUMPI RETURNDATASIZE PUSH1 0x0 DUP1 RETURNDATACOPY RETURNDATASIZE PUSH1 0x0 REVERT JUMPDEST POP POP POP POP PUSH1 0x40 MLOAD RETURNDATASIZE PUSH1 0x1F NOT PUSH1 0x1F DUP3 ADD AND DUP3 ADD DUP1 PUSH1 0x40 MSTORE POP DUP2 ADD SWAP1 PUSH2 0x1D66 SWAP2 SWAP1 PUSH2 0x31D5 JUMP JUMPDEST SWAP1 POP DUP4 PUSH1 0x0 ADD MLOAD DUP9 DUP3 PUSH1 0x1 PUSH1 0x1 PUSH1 0xA0 SHL SUB AND PUSH32 0x37AACCA185D8A700A40142541D808E10BC61CA82EB929CB3DF05DE903A64DC84 DUP11 PUSH1 0x40 MLOAD PUSH2 0x1DA7 SWAP2 SWAP1 PUSH2 0x38AF JUMP JUMPDEST PUSH1 0x40 MLOAD DUP1 SWAP2 SUB SWAP1 LOG4 PUSH2 0x1DB9 DUP9 DUP4 PUSH2 0x247A JUMP JUMPDEST PUSH2 0x1DC4 DUP2 DUP10 DUP6 PUSH2 0x2560 JUMP JUMPDEST PUSH1 0x1 SLOAD PUSH1 0x40 DUP1 MLOAD PUSH4 0x5C08631B PUSH1 0xE1 SHL DUP2 MSTORE DUP2 MLOAD PUSH1 0x0 SWAP4 DUP5 SWAP4 PUSH1 0x1 PUSH1 0x1 PUSH1 0xA0 SHL SUB SWAP1 SWAP2 AND SWAP3 PUSH4 0xB810C636 SWAP3 PUSH1 0x4 DUP1 DUP4 ADD SWAP4 SWAP3 DUP3 SWAP1 SUB ADD DUP2 DUP7 DUP1 EXTCODESIZE ISZERO DUP1 ISZERO PUSH2 0x1E09 JUMPI PUSH1 0x0 DUP1 REVERT JUMPDEST POP GAS STATICCALL ISZERO DUP1 ISZERO PUSH2 0x1E1D JUMPI RETURNDATASIZE PUSH1 0x0 DUP1 RETURNDATACOPY RETURNDATASIZE PUSH1 0x0 REVERT JUMPDEST POP POP POP POP PUSH1 0x40 MLOAD RETURNDATASIZE PUSH1 0x1F NOT PUSH1 0x1F DUP3 ADD AND DUP3 ADD DUP1 PUSH1 0x40 MSTORE POP DUP2 ADD SWAP1 PUSH2 0x1E41 SWAP2 SWAP1 PUSH2 0x33DD JUMP JUMPDEST PUSH1 0x1 PUSH1 0x1 PUSH1 0xA0 SHL SUB DUP6 AND PUSH1 0x0 SWAP1 DUP2 MSTORE PUSH1 0x6 PUSH1 0x20 MSTORE PUSH1 0x40 SWAP1 KECCAK256 SLOAD SWAP2 SWAP4 POP SWAP2 POP DUP3 GT ISZERO PUSH2 0x1E7E JUMPI PUSH1 0x40 MLOAD PUSH3 0x461BCD PUSH1 0xE5 SHL DUP2 MSTORE PUSH1 0x4 ADD PUSH2 0x940 SWAP1 PUSH2 0x3D94 JUMP JUMPDEST PUSH1 0x1 PUSH1 0x1 PUSH1 0xA0 SHL SUB DUP4 AND PUSH1 0x0 SWAP1 DUP2 MSTORE PUSH1 0x6 PUSH1 0x20 MSTORE PUSH1 0x40 SWAP1 KECCAK256 SLOAD PUSH2 0x1EA1 SWAP1 DUP4 PUSH2 0x27C3 JUMP JUMPDEST PUSH1 0x1 PUSH1 0x1 PUSH1 0xA0 SHL SUB DUP5 AND PUSH1 0x0 SWAP1 DUP2 MSTORE PUSH1 0x6 PUSH1 0x20 MSTORE PUSH1 0x40 SWAP1 KECCAK256 SSTORE PUSH2 0x1EC4 DUP3 DUP3 PUSH2 0x2CE8 JUMP JUMPDEST POP POP PUSH1 0x0 DUP1 SLOAD PUSH1 0xFF PUSH1 0xA8 SHL NOT AND PUSH1 0x1 PUSH1 0xA8 SHL OR SWAP1 SSTORE POP POP POP POP POP POP POP POP JUMP JUMPDEST PUSH1 0x5 PUSH1 0x20 SWAP1 DUP2 MSTORE PUSH1 0x0 SWAP3 DUP4 MSTORE PUSH1 0x40 DUP1 DUP5 KECCAK256 SWAP1 SWAP2 MSTORE SWAP1 DUP3 MSTORE SWAP1 KECCAK256 SLOAD DUP2 JUMP JUMPDEST PUSH2 0x1F08 PUSH2 0x282A JUMP JUMPDEST PUSH1 0x0 SLOAD PUSH1 0x1 PUSH1 0x1 PUSH1 0xA0 SHL SUB SWAP1 DUP2 AND SWAP2 AND EQ PUSH2 0x1F35 JUMPI PUSH1 0x40 MLOAD PUSH3 0x461BCD PUSH1 0xE5 SHL DUP2 MSTORE PUSH1 0x4 ADD PUSH2 0x940 SWAP1 PUSH2 0x3B8B JUMP JUMPDEST PUSH1 0x1 DUP1 SLOAD PUSH1 0x1 PUSH1 0x1 PUSH1 0xA0 SHL SUB SWAP5 DUP6 AND PUSH1 0x1 PUSH1 0x1 PUSH1 0xA0 SHL SUB NOT SWAP2 DUP3 AND OR SWAP1 SWAP2 SSTORE PUSH1 0x2 DUP1 SLOAD SWAP4 SWAP1 SWAP5 AND SWAP3 AND SWAP2 SWAP1 SWAP2 OR SWAP1 SWAP2 SSTORE PUSH1 0x3 DUP1 SLOAD SWAP2 ISZERO ISZERO PUSH1 0x1 PUSH1 0xA0 SHL MUL PUSH1 0xFF PUSH1 0xA0 SHL NOT SWAP1 SWAP3 AND SWAP2 SWAP1 SWAP2 OR SWAP1 SSTORE JUMP JUMPDEST PUSH2 0x1F8B PUSH2 0x282A JUMP JUMPDEST PUSH1 0x0 SLOAD PUSH1 0x1 PUSH1 0x1 PUSH1 0xA0 SHL SUB SWAP1 DUP2 AND SWAP2 AND EQ PUSH2 0x1FB8 JUMPI PUSH1 0x40 MLOAD PUSH3 0x461BCD PUSH1 0xE5 SHL DUP2 MSTORE PUSH1 0x4 ADD PUSH2 0x940 SWAP1 PUSH2 0x3B8B JUMP JUMPDEST PUSH1 0x9 DUP5 DUP2 SLOAD DUP2 LT PUSH2 0x1FC5 JUMPI INVALID JUMPDEST PUSH1 0x0 SWAP2 DUP3 MSTORE PUSH1 0x20 SWAP1 SWAP2 KECCAK256 ADD SLOAD PUSH1 0x40 MLOAD PUSH4 0x48541EE1 PUSH1 0xE1 SHL DUP2 MSTORE PUSH1 0x1 PUSH1 0x1 PUSH1 0xA0 SHL SUB SWAP1 SWAP2 AND SWAP1 PUSH4 0x90A83DC2 SWAP1 PUSH2 0x2002 SWAP1 DUP7 SWAP1 DUP7 SWAP1 DUP7 SWAP1 PUSH1 0x4 ADD PUSH2 0x382D JUMP JUMPDEST PUSH1 0x0 PUSH1 0x40 MLOAD DUP1 DUP4 SUB DUP2 PUSH1 0x0 DUP8 DUP1 EXTCODESIZE ISZERO DUP1 ISZERO PUSH2 0x201C JUMPI PUSH1 0x0 DUP1 REVERT JUMPDEST POP GAS CALL ISZERO DUP1 ISZERO PUSH2 0x2030 JUMPI RETURNDATASIZE PUSH1 0x0 DUP1 RETURNDATACOPY RETURNDATASIZE PUSH1 0x0 REVERT JUMPDEST POP POP POP POP PUSH1 0x1 PUSH1 0x1 PUSH1 0xA0 SHL SUB DUP3 AND PUSH1 0x0 SWAP1 DUP2 MSTORE PUSH1 0x12 PUSH1 0x20 MSTORE PUSH1 0x40 SWAP1 KECCAK256 SLOAD PUSH1 0xFF AND PUSH2 0x20B8 JUMPI PUSH1 0x11 DUP1 SLOAD PUSH1 0x1 DUP1 DUP3 ADD SWAP1 SWAP3 SSTORE PUSH32 0x31ECC21A745E3968A04E9570E4425BC18FA8019C68028196B546D1669C200C68 ADD DUP1 SLOAD PUSH1 0x1 PUSH1 0x1 PUSH1 0xA0 SHL SUB NOT AND PUSH1 0x1 PUSH1 0x1 PUSH1 0xA0 SHL SUB DUP6 AND SWAP1 DUP2 OR SWAP1 SWAP2 SSTORE PUSH1 0x0 SWAP1 DUP2 MSTORE PUSH1 0x12 PUSH1 0x20 MSTORE PUSH1 0x40 SWAP1 KECCAK256 DUP1 SLOAD PUSH1 0xFF NOT AND SWAP1 SWAP2 OR SWAP1 SSTORE JUMPDEST POP POP POP POP JUMP JUMPDEST PUSH2 0x20C6 PUSH2 0x282A JUMP JUMPDEST PUSH1 0x0 SLOAD PUSH1 0x1 PUSH1 0x1 PUSH1 0xA0 SHL SUB SWAP1 DUP2 AND SWAP2 AND EQ PUSH2 0x20F3 JUMPI PUSH1 0x40 MLOAD PUSH3 0x461BCD PUSH1 0xE5 SHL DUP2 MSTORE PUSH1 0x4 ADD PUSH2 0x940 SWAP1 PUSH2 0x3B8B JUMP JUMPDEST PUSH1 0x9 DUP3 DUP2 SLOAD DUP2 LT PUSH2 0x2100 JUMPI INVALID JUMPDEST PUSH1 0x0 SWAP2 DUP3 MSTORE PUSH1 0x20 SWAP1 SWAP2 KECCAK256 ADD SLOAD PUSH1 0x40 MLOAD PUSH4 0x68173BCF PUSH1 0xE0 SHL DUP2 MSTORE PUSH1 0x1 PUSH1 0x1 PUSH1 0xA0 SHL SUB SWAP1 SWAP2 AND SWAP1 PUSH4 0x68173BCF SWAP1 PUSH2 0x1423 SWAP1 DUP5 SWAP1 PUSH1 0x4 ADD PUSH2 0x376E JUMP JUMPDEST PUSH1 0x1 SLOAD PUSH1 0x1 PUSH1 0x1 PUSH1 0xA0 SHL SUB AND DUP2 JUMP JUMPDEST PUSH1 0xD SLOAD DUP2 JUMP JUMPDEST PUSH1 0xF DUP2 DUP2 SLOAD DUP2 LT PUSH2 0x11E7 JUMPI INVALID JUMPDEST PUSH1 0x0 PUSH1 0x9 DUP3 DUP2 SLOAD DUP2 LT PUSH2 0x216A JUMPI INVALID JUMPDEST PUSH1 0x0 SWAP2 DUP3 MSTORE PUSH1 0x20 SWAP2 DUP3 SWAP1 KECCAK256 ADD SLOAD PUSH1 0x40 DUP1 MLOAD PUSH4 0x2273217 PUSH1 0xE3 SHL DUP2 MSTORE SWAP1 MLOAD PUSH1 0x1 PUSH1 0x1 PUSH1 0xA0 SHL SUB SWAP1 SWAP3 AND SWAP3 PUSH4 0x113990B8 SWAP3 PUSH1 0x4 DUP1 DUP5 ADD SWAP4 DUP3 SWAP1 SUB ADD DUP2 DUP7 DUP1 EXTCODESIZE ISZERO DUP1 ISZERO PUSH2 0x21B3 JUMPI PUSH1 0x0 DUP1 REVERT JUMPDEST POP GAS STATICCALL ISZERO DUP1 ISZERO PUSH2 0x21C7 JUMPI RETURNDATASIZE PUSH1 0x0 DUP1 RETURNDATACOPY RETURNDATASIZE PUSH1 0x0 REVERT JUMPDEST POP POP POP POP PUSH1 0x40 MLOAD RETURNDATASIZE PUSH1 0x1F NOT PUSH1 0x1F DUP3 ADD AND DUP3 ADD DUP1 PUSH1 0x40 MSTORE POP DUP2 ADD SWAP1 PUSH2 0x1523 SWAP2 SWAP1 PUSH2 0x32FD JUMP JUMPDEST PUSH2 0x21F3 PUSH2 0x282A JUMP JUMPDEST PUSH1 0x0 SLOAD PUSH1 0x1 PUSH1 0x1 PUSH1 0xA0 SHL SUB SWAP1 DUP2 AND SWAP2 AND EQ PUSH2 0x2220 JUMPI PUSH1 0x40 MLOAD PUSH3 0x461BCD PUSH1 0xE5 SHL DUP2 MSTORE PUSH1 0x4 ADD PUSH2 0x940 SWAP1 PUSH2 0x3B8B JUMP JUMPDEST PUSH1 0x1 PUSH1 0x1 PUSH1 0xA0 SHL SUB DUP2 AND PUSH2 0x2246 JUMPI PUSH1 0x40 MLOAD PUSH3 0x461BCD PUSH1 0xE5 SHL DUP2 MSTORE PUSH1 0x4 ADD PUSH2 0x940 SWAP1 PUSH2 0x398A JUMP JUMPDEST PUSH1 0x0 DUP1 SLOAD PUSH1 0x40 MLOAD PUSH1 0x1 PUSH1 0x1 PUSH1 0xA0 SHL SUB DUP1 DUP6 AND SWAP4 SWAP3 AND SWAP2 PUSH32 0x8BE0079C531659141344CD1FD0A4F28419497F9722A3DAAFE3B4186F6B6457E0 SWAP2 LOG3 PUSH1 0x0 DUP1 SLOAD PUSH1 0x1 PUSH1 0x1 PUSH1 0xA0 SHL SUB NOT AND PUSH1 0x1 PUSH1 0x1 PUSH1 0xA0 SHL SUB SWAP3 SWAP1 SWAP3 AND SWAP2 SWAP1 SWAP2 OR SWAP1 SSTORE JUMP JUMPDEST PUSH1 0x1 PUSH1 0x1 PUSH1 0xA0 SHL SUB AND PUSH1 0x0 SWAP1 DUP2 MSTORE PUSH1 0xA PUSH1 0x20 MSTORE PUSH1 0x40 SWAP1 KECCAK256 SLOAD PUSH1 0xFF AND SWAP1 JUMP JUMPDEST PUSH2 0x22C7 PUSH2 0x282A JUMP JUMPDEST PUSH1 0x0 SLOAD PUSH1 0x1 PUSH1 0x1 PUSH1 0xA0 SHL SUB SWAP1 DUP2 AND SWAP2 AND EQ PUSH2 0x22F4 JUMPI PUSH1 0x40 MLOAD PUSH3 0x461BCD PUSH1 0xE5 SHL DUP2 MSTORE PUSH1 0x4 ADD PUSH2 0x940 SWAP1 PUSH2 0x3B8B JUMP JUMPDEST PUSH2 0x22FD DUP2 PUSH2 0x2DB4 JUMP JUMPDEST POP JUMP JUMPDEST PUSH1 0x0 DUP3 PUSH2 0x230F JUMPI POP PUSH1 0x0 PUSH2 0x1523 JUMP JUMPDEST DUP3 DUP3 MUL DUP3 DUP5 DUP3 DUP2 PUSH2 0x231C JUMPI INVALID JUMPDEST DIV EQ PUSH2 0x233A JUMPI PUSH1 0x40 MLOAD PUSH3 0x461BCD PUSH1 0xE5 SHL DUP2 MSTORE PUSH1 0x4 ADD PUSH2 0x940 SWAP1 PUSH2 0x3B4A JUMP JUMPDEST SWAP4 SWAP3 POP POP POP JUMP JUMPDEST PUSH2 0x2349 PUSH2 0x2EB7 JUMP JUMPDEST PUSH1 0x9 DUP4 DUP2 SLOAD DUP2 LT PUSH2 0x2356 JUMPI INVALID JUMPDEST PUSH1 0x0 SWAP2 DUP3 MSTORE PUSH1 0x20 SWAP1 SWAP2 KECCAK256 ADD SLOAD PUSH1 0x40 MLOAD PUSH4 0x21603F43 PUSH1 0xE0 SHL DUP2 MSTORE PUSH1 0x1 PUSH1 0x1 PUSH1 0xA0 SHL SUB SWAP1 SWAP2 AND SWAP1 PUSH4 0x21603F43 SWAP1 PUSH2 0x238F SWAP1 DUP6 SWAP1 PUSH1 0x4 ADD PUSH2 0x38AF JUMP JUMPDEST PUSH1 0x0 PUSH1 0x40 MLOAD DUP1 DUP4 SUB DUP2 DUP7 DUP1 EXTCODESIZE ISZERO DUP1 ISZERO PUSH2 0x23A7 JUMPI PUSH1 0x0 DUP1 REVERT JUMPDEST POP GAS STATICCALL ISZERO DUP1 ISZERO PUSH2 0x23BB JUMPI RETURNDATASIZE PUSH1 0x0 DUP1 RETURNDATACOPY RETURNDATASIZE PUSH1 0x0 REVERT JUMPDEST POP POP POP POP PUSH1 0x40 MLOAD RETURNDATASIZE PUSH1 0x0 DUP3 RETURNDATACOPY PUSH1 0x1F RETURNDATASIZE SWAP1 DUP2 ADD PUSH1 0x1F NOT AND DUP3 ADD PUSH1 0x40 MSTORE PUSH2 0x233A SWAP2 SWAP1 DUP2 ADD SWAP1 PUSH2 0x3363 JUMP JUMPDEST PUSH1 0x1 PUSH1 0x1 PUSH1 0xA0 SHL SUB DUP4 AND PUSH1 0x0 SWAP1 DUP2 MSTORE PUSH1 0x8 PUSH1 0x20 MSTORE PUSH1 0x40 SWAP1 KECCAK256 SLOAD PUSH1 0xFF AND PUSH2 0x241B JUMPI PUSH1 0x40 MLOAD PUSH3 0x461BCD PUSH1 0xE5 SHL DUP2 MSTORE PUSH1 0x4 ADD PUSH2 0x940 SWAP1 PUSH2 0x3D12 JUMP JUMPDEST PUSH1 0x0 DUP3 DUP2 MSTORE PUSH1 0x5 PUSH1 0x20 SWAP1 DUP2 MSTORE PUSH1 0x40 DUP1 DUP4 KECCAK256 DUP5 MLOAD DUP5 MSTORE SWAP1 SWAP2 MSTORE SWAP1 KECCAK256 SLOAD ISZERO PUSH2 0x2475 JUMPI PUSH1 0x0 DUP3 DUP2 MSTORE PUSH1 0x5 PUSH1 0x20 SWAP1 DUP2 MSTORE PUSH1 0x40 DUP1 DUP4 KECCAK256 DUP5 MLOAD DUP5 MSTORE SWAP1 SWAP2 MSTORE SWAP1 KECCAK256 SLOAD GASPRICE GT ISZERO PUSH2 0x2475 JUMPI PUSH1 0x40 MLOAD PUSH3 0x461BCD PUSH1 0xE5 SHL DUP2 MSTORE PUSH1 0x4 ADD PUSH2 0x940 SWAP1 PUSH2 0x38F9 JUMP JUMPDEST POP POP POP JUMP JUMPDEST PUSH1 0x0 JUMPDEST DUP2 MLOAD DUP2 LT ISZERO PUSH2 0x2475 JUMPI PUSH1 0x0 DUP4 DUP2 MSTORE PUSH1 0x4 PUSH1 0x20 MSTORE PUSH1 0x40 DUP2 KECCAK256 DUP4 MLOAD DUP3 SWAP1 DUP6 SWAP1 DUP6 SWAP1 DUP2 LT PUSH2 0x24A4 JUMPI INVALID JUMPDEST PUSH1 0x20 MUL PUSH1 0x20 ADD ADD MLOAD DUP2 MSTORE PUSH1 0x20 ADD SWAP1 DUP2 MSTORE PUSH1 0x20 ADD PUSH1 0x0 KECCAK256 SLOAD EQ PUSH2 0x2558 JUMPI PUSH1 0x1 SLOAD PUSH1 0x0 DUP5 DUP2 MSTORE PUSH1 0x4 PUSH1 0x20 MSTORE PUSH1 0x40 DUP2 KECCAK256 DUP5 MLOAD PUSH1 0x1 PUSH1 0x1 PUSH1 0xA0 SHL SUB SWAP1 SWAP4 AND SWAP3 PUSH4 0xEE8CA3B5 SWAP3 SWAP1 DUP7 SWAP1 DUP7 SWAP1 DUP2 LT PUSH2 0x24F2 JUMPI INVALID JUMPDEST PUSH1 0x20 MUL PUSH1 0x20 ADD ADD MLOAD DUP2 MSTORE PUSH1 0x20 ADD SWAP1 DUP2 MSTORE PUSH1 0x20 ADD PUSH1 0x0 KECCAK256 SLOAD PUSH1 0x40 MLOAD DUP3 PUSH4 0xFFFFFFFF AND PUSH1 0xE0 SHL DUP2 MSTORE PUSH1 0x4 ADD PUSH2 0x2525 SWAP2 SWAP1 PUSH2 0x38AF JUMP JUMPDEST PUSH1 0x0 PUSH1 0x40 MLOAD DUP1 DUP4 SUB DUP2 PUSH1 0x0 DUP8 DUP1 EXTCODESIZE ISZERO DUP1 ISZERO PUSH2 0x253F JUMPI PUSH1 0x0 DUP1 REVERT JUMPDEST POP GAS CALL ISZERO DUP1 ISZERO PUSH2 0x2553 JUMPI RETURNDATASIZE PUSH1 0x0 DUP1 RETURNDATACOPY RETURNDATASIZE PUSH1 0x0 REVERT JUMPDEST POP POP POP POP JUMPDEST PUSH1 0x1 ADD PUSH2 0x247D JUMP JUMPDEST PUSH1 0x3 SLOAD PUSH1 0x1 PUSH1 0xA0 SHL SWAP1 DIV PUSH1 0xFF AND ISZERO PUSH2 0x2475 JUMPI PUSH1 0x0 JUMPDEST DUP2 MLOAD DUP2 LT ISZERO PUSH2 0x20B8 JUMPI DUP2 DUP2 DUP2 MLOAD DUP2 LT PUSH2 0x258A JUMPI INVALID JUMPDEST PUSH1 0x20 MUL PUSH1 0x20 ADD ADD MLOAD PUSH1 0x40 ADD MLOAD PUSH1 0x0 EQ PUSH2 0x27BB JUMPI DUP3 DUP5 PUSH1 0x1 PUSH1 0x1 PUSH1 0xA0 SHL SUB AND PUSH32 0xAF1B9133E30ADA3FEE6CB47A46B80B2DFEE808DC5BC919F712BEB9EE33B465D6 DUP5 DUP5 DUP2 MLOAD DUP2 LT PUSH2 0x25D5 JUMPI INVALID JUMPDEST PUSH1 0x20 MUL PUSH1 0x20 ADD ADD MLOAD PUSH1 0x40 ADD MLOAD PUSH1 0x40 MLOAD PUSH2 0x25EE SWAP2 SWAP1 PUSH2 0x38AF JUMP JUMPDEST PUSH1 0x40 MLOAD DUP1 SWAP2 SUB SWAP1 LOG3 PUSH1 0x1 SLOAD PUSH1 0x2 SLOAD DUP4 MLOAD PUSH1 0x1 PUSH1 0x1 PUSH1 0xA0 SHL SUB SWAP3 DUP4 AND SWAP3 PUSH4 0xB9F45ADB SWAP3 ADDRESS SWAP3 PUSH4 0x638D3683 PUSH1 0xE1 SHL SWAP3 SWAP1 SWAP2 AND SWAP1 PUSH4 0xE34CA65D PUSH1 0xE0 SHL SWAP1 DUP10 SWAP1 DUP10 SWAP1 DUP10 SWAP1 DUP2 LT PUSH2 0x2636 JUMPI INVALID JUMPDEST PUSH1 0x20 MUL PUSH1 0x20 ADD ADD MLOAD PUSH1 0x40 ADD MLOAD DUP10 DUP10 DUP2 MLOAD DUP2 LT PUSH2 0x264E JUMPI INVALID JUMPDEST PUSH1 0x20 MUL PUSH1 0x20 ADD ADD MLOAD PUSH1 0x80 ADD MLOAD PUSH1 0x0 PUSH1 0x2 DUP2 LT PUSH2 0x2666 JUMPI INVALID JUMPDEST PUSH1 0x20 MUL ADD MLOAD DUP11 DUP11 DUP2 MLOAD DUP2 LT PUSH2 0x2677 JUMPI INVALID JUMPDEST PUSH1 0x20 MUL PUSH1 0x20 ADD ADD MLOAD PUSH1 0x80 ADD MLOAD PUSH1 0x1 PUSH1 0x2 DUP2 LT PUSH2 0x268F JUMPI INVALID JUMPDEST PUSH1 0x20 MUL ADD MLOAD DUP12 DUP12 DUP2 MLOAD DUP2 LT PUSH2 0x26A0 JUMPI INVALID JUMPDEST PUSH1 0x20 MUL PUSH1 0x20 ADD ADD MLOAD PUSH1 0xA0 ADD MLOAD PUSH1 0x0 PUSH1 0x3 DUP2 LT PUSH2 0x26B8 JUMPI INVALID JUMPDEST PUSH1 0x20 MUL ADD MLOAD PUSH1 0x40 MLOAD PUSH1 0x24 ADD PUSH2 0x26D1 SWAP6 SWAP5 SWAP4 SWAP3 SWAP2 SWAP1 PUSH2 0x3DEF JUMP JUMPDEST PUSH1 0x40 DUP1 MLOAD PUSH1 0x1F NOT DUP2 DUP5 SUB ADD DUP2 MSTORE SWAP2 DUP2 MSTORE PUSH1 0x20 DUP3 ADD DUP1 MLOAD PUSH1 0x1 PUSH1 0x1 PUSH1 0xE0 SHL SUB AND PUSH1 0x1 PUSH1 0x1 PUSH1 0xE0 SHL SUB NOT SWAP5 DUP6 AND OR SWAP1 MSTORE PUSH1 0x3 SLOAD SWAP1 MLOAD PUSH1 0xE0 DUP9 SWAP1 SHL SWAP1 SWAP4 AND DUP4 MSTORE PUSH2 0x2729 SWAP6 SWAP5 SWAP4 SWAP3 PUSH1 0x1 PUSH1 0x1 PUSH1 0xA0 SHL SUB SWAP1 SWAP2 AND SWAP1 PUSH1 0x4 ADD PUSH2 0x3851 JUMP JUMPDEST PUSH1 0x20 PUSH1 0x40 MLOAD DUP1 DUP4 SUB DUP2 PUSH1 0x0 DUP8 DUP1 EXTCODESIZE ISZERO DUP1 ISZERO PUSH2 0x2743 JUMPI PUSH1 0x0 DUP1 REVERT JUMPDEST POP GAS CALL ISZERO DUP1 ISZERO PUSH2 0x2757 JUMPI RETURNDATASIZE PUSH1 0x0 DUP1 RETURNDATACOPY RETURNDATASIZE PUSH1 0x0 REVERT JUMPDEST POP POP POP POP PUSH1 0x40 MLOAD RETURNDATASIZE PUSH1 0x1F NOT PUSH1 0x1F DUP3 ADD AND DUP3 ADD DUP1 PUSH1 0x40 MSTORE POP DUP2 ADD SWAP1 PUSH2 0x277B SWAP2 SWAP1 PUSH2 0x32FD JUMP JUMPDEST PUSH1 0x4 PUSH1 0x0 DUP6 DUP2 MSTORE PUSH1 0x20 ADD SWAP1 DUP2 MSTORE PUSH1 0x20 ADD PUSH1 0x0 KECCAK256 PUSH1 0x0 DUP5 DUP5 DUP2 MLOAD DUP2 LT PUSH2 0x279C JUMPI INVALID JUMPDEST PUSH1 0x20 MUL PUSH1 0x20 ADD ADD MLOAD PUSH1 0x40 ADD MLOAD DUP2 MSTORE PUSH1 0x20 ADD SWAP1 DUP2 MSTORE PUSH1 0x20 ADD PUSH1 0x0 KECCAK256 DUP2 SWAP1 SSTORE POP JUMPDEST PUSH1 0x1 ADD PUSH2 0x2575 JUMP JUMPDEST PUSH1 0x0 PUSH2 0x233A DUP4 DUP4 PUSH1 0x40 MLOAD DUP1 PUSH1 0x40 ADD PUSH1 0x40 MSTORE DUP1 PUSH1 0x1E DUP2 MSTORE PUSH1 0x20 ADD PUSH32 0x536166654D6174683A207375627472616374696F6E206F766572666C6F770000 DUP2 MSTORE POP PUSH2 0x2E54 JUMP JUMPDEST PUSH1 0x0 DUP3 DUP3 ADD DUP4 DUP2 LT ISZERO PUSH2 0x233A JUMPI PUSH1 0x40 MLOAD PUSH3 0x461BCD PUSH1 0xE5 SHL DUP2 MSTORE PUSH1 0x4 ADD PUSH2 0x940 SWAP1 PUSH2 0x3A5F JUMP JUMPDEST CALLER SWAP1 JUMP JUMPDEST PUSH1 0x0 SLOAD PUSH1 0x1 PUSH1 0xA0 SHL SWAP1 DIV PUSH1 0xFF AND PUSH2 0x2857 JUMPI PUSH1 0x40 MLOAD PUSH3 0x461BCD PUSH1 0xE5 SHL DUP2 MSTORE PUSH1 0x4 ADD PUSH2 0x940 SWAP1 PUSH2 0x38CB JUMP JUMPDEST PUSH1 0x0 DUP1 SLOAD PUSH1 0xFF PUSH1 0xA0 SHL NOT AND SWAP1 SSTORE PUSH32 0x5DB9EE0A495BF2E6FF9C91A7834C1BA4FDD244A5E8AA4E537BD38AEAE4B073AA PUSH2 0x288D PUSH2 0x282A JUMP JUMPDEST PUSH1 0x40 MLOAD PUSH2 0x289A SWAP2 SWAP1 PUSH2 0x376E JUMP JUMPDEST PUSH1 0x40 MLOAD DUP1 SWAP2 SUB SWAP1 LOG1 JUMP JUMPDEST PUSH1 0x60 PUSH1 0x0 PUSH1 0x9 DUP5 DUP2 SLOAD DUP2 LT PUSH2 0x28B5 JUMPI INVALID JUMPDEST PUSH1 0x0 SWAP2 DUP3 MSTORE PUSH1 0x20 DUP3 KECCAK256 ADD SLOAD PUSH1 0x40 MLOAD PUSH4 0x1BF744DB PUSH1 0xE0 SHL DUP2 MSTORE PUSH1 0x1 PUSH1 0x1 PUSH1 0xA0 SHL SUB SWAP1 SWAP2 AND SWAP3 POP DUP3 SWAP1 PUSH4 0x1BF744DB SWAP1 PUSH2 0x28F0 SWAP1 DUP8 SWAP1 PUSH1 0x4 ADD PUSH2 0x38AF JUMP JUMPDEST PUSH1 0x20 PUSH1 0x40 MLOAD DUP1 DUP4 SUB DUP2 DUP7 DUP1 EXTCODESIZE ISZERO DUP1 ISZERO PUSH2 0x2908 JUMPI PUSH1 0x0 DUP1 REVERT JUMPDEST POP GAS STATICCALL ISZERO DUP1 ISZERO PUSH2 0x291C JUMPI RETURNDATASIZE PUSH1 0x0 DUP1 RETURNDATACOPY RETURNDATASIZE PUSH1 0x0 REVERT JUMPDEST POP POP POP POP PUSH1 0x40 MLOAD RETURNDATASIZE PUSH1 0x1F NOT PUSH1 0x1F DUP3 ADD AND DUP3 ADD DUP1 PUSH1 0x40 MSTORE POP DUP2 ADD SWAP1 PUSH2 0x2940 SWAP2 SWAP1 PUSH2 0x32FD JUMP JUMPDEST SWAP1 POP PUSH1 0x60 DUP2 PUSH8 0xFFFFFFFFFFFFFFFF DUP2 GT DUP1 ISZERO PUSH2 0x295B JUMPI PUSH1 0x0 DUP1 REVERT JUMPDEST POP PUSH1 0x40 MLOAD SWAP1 DUP1 DUP3 MSTORE DUP1 PUSH1 0x20 MUL PUSH1 0x20 ADD DUP3 ADD PUSH1 0x40 MSTORE DUP1 ISZERO PUSH2 0x2995 JUMPI DUP2 PUSH1 0x20 ADD JUMPDEST PUSH2 0x2982 PUSH2 0x2EB7 JUMP JUMPDEST DUP2 MSTORE PUSH1 0x20 ADD SWAP1 PUSH1 0x1 SWAP1 SUB SWAP1 DUP2 PUSH2 0x297A JUMPI SWAP1 POP JUMPDEST POP SWAP1 POP PUSH1 0x0 JUMPDEST DUP3 DUP2 LT ISZERO PUSH2 0x2AB8 JUMPI PUSH1 0x40 MLOAD PUSH4 0x915B9859 PUSH1 0xE0 SHL DUP2 MSTORE PUSH1 0x1 PUSH1 0x1 PUSH1 0xA0 SHL SUB DUP6 AND SWAP1 PUSH4 0x21603F43 SWAP1 DUP3 SWAP1 PUSH4 0x915B9859 SWAP1 PUSH2 0x29D9 SWAP1 DUP12 SWAP1 DUP8 SWAP1 PUSH1 0x4 ADD PUSH2 0x3DE1 JUMP JUMPDEST PUSH1 0x20 PUSH1 0x40 MLOAD DUP1 DUP4 SUB DUP2 DUP7 DUP1 EXTCODESIZE ISZERO DUP1 ISZERO PUSH2 0x29F1 JUMPI PUSH1 0x0 DUP1 REVERT JUMPDEST POP GAS STATICCALL ISZERO DUP1 ISZERO PUSH2 0x2A05 JUMPI RETURNDATASIZE PUSH1 0x0 DUP1 RETURNDATACOPY RETURNDATASIZE PUSH1 0x0 REVERT JUMPDEST POP POP POP POP PUSH1 0x40 MLOAD RETURNDATASIZE PUSH1 0x1F NOT PUSH1 0x1F DUP3 ADD AND DUP3 ADD DUP1 PUSH1 0x40 MSTORE POP DUP2 ADD SWAP1 PUSH2 0x2A29 SWAP2 SWAP1 PUSH2 0x32FD JUMP JUMPDEST PUSH1 0x40 MLOAD DUP3 PUSH4 0xFFFFFFFF AND PUSH1 0xE0 SHL DUP2 MSTORE PUSH1 0x4 ADD PUSH2 0x2A45 SWAP2 SWAP1 PUSH2 0x38AF JUMP JUMPDEST PUSH1 0x0 PUSH1 0x40 MLOAD DUP1 DUP4 SUB DUP2 DUP7 DUP1 EXTCODESIZE ISZERO DUP1 ISZERO PUSH2 0x2A5D JUMPI PUSH1 0x0 DUP1 REVERT JUMPDEST POP GAS STATICCALL ISZERO DUP1 ISZERO PUSH2 0x2A71 JUMPI RETURNDATASIZE PUSH1 0x0 DUP1 RETURNDATACOPY RETURNDATASIZE PUSH1 0x0 REVERT JUMPDEST POP POP POP POP PUSH1 0x40 MLOAD RETURNDATASIZE PUSH1 0x0 DUP3 RETURNDATACOPY PUSH1 0x1F RETURNDATASIZE SWAP1 DUP2 ADD PUSH1 0x1F NOT AND DUP3 ADD PUSH1 0x40 MSTORE PUSH2 0x2A99 SWAP2 SWAP1 DUP2 ADD SWAP1 PUSH2 0x3363 JUMP JUMPDEST DUP3 DUP3 DUP2 MLOAD DUP2 LT PUSH2 0x2AA5 JUMPI INVALID JUMPDEST PUSH1 0x20 SWAP1 DUP2 MUL SWAP2 SWAP1 SWAP2 ADD ADD MSTORE PUSH1 0x1 ADD PUSH2 0x299B JUMP JUMPDEST POP SWAP6 SWAP5 POP POP POP POP POP JUMP JUMPDEST PUSH1 0x0 SLOAD PUSH1 0x1 PUSH1 0xA0 SHL SWAP1 DIV PUSH1 0xFF AND ISZERO PUSH2 0x2AEC JUMPI PUSH1 0x40 MLOAD PUSH3 0x461BCD PUSH1 0xE5 SHL DUP2 MSTORE PUSH1 0x4 ADD PUSH2 0x940 SWAP1 PUSH2 0x3ADE JUMP JUMPDEST PUSH1 0x0 DUP1 SLOAD PUSH1 0xFF PUSH1 0xA0 SHL NOT AND PUSH1 0x1 PUSH1 0xA0 SHL OR SWAP1 SSTORE PUSH32 0x62E78CEA01BEE320CD4E420270B5EA74000D11B0C9F74754EBDBFC544B05A258 PUSH2 0x288D PUSH2 0x282A JUMP JUMPDEST PUSH1 0x0 PUSH2 0x233A DUP4 DUP4 PUSH1 0x40 MLOAD DUP1 PUSH1 0x40 ADD PUSH1 0x40 MSTORE DUP1 PUSH1 0x1A DUP2 MSTORE PUSH1 0x20 ADD PUSH32 0x536166654D6174683A206469766973696F6E206279207A65726F000000000000 DUP2 MSTORE POP PUSH2 0x2E80 JUMP JUMPDEST PUSH1 0x60 PUSH1 0x0 PUSH1 0x9 DUP5 DUP2 SLOAD DUP2 LT PUSH2 0x2B7B JUMPI INVALID JUMPDEST PUSH1 0x0 SWAP2 DUP3 MSTORE PUSH1 0x20 SWAP1 SWAP2 KECCAK256 ADD SLOAD DUP4 MLOAD PUSH1 0x1 PUSH1 0x1 PUSH1 0xA0 SHL SUB SWAP1 SWAP2 AND SWAP2 POP PUSH1 0x60 SWAP1 PUSH8 0xFFFFFFFFFFFFFFFF DUP2 GT DUP1 ISZERO PUSH2 0x2BAF JUMPI PUSH1 0x0 DUP1 REVERT JUMPDEST POP PUSH1 0x40 MLOAD SWAP1 DUP1 DUP3 MSTORE DUP1 PUSH1 0x20 MUL PUSH1 0x20 ADD DUP3 ADD PUSH1 0x40 MSTORE DUP1 ISZERO PUSH2 0x2BE9 JUMPI DUP2 PUSH1 0x20 ADD JUMPDEST PUSH2 0x2BD6 PUSH2 0x2EB7 JUMP JUMPDEST DUP2 MSTORE PUSH1 0x20 ADD SWAP1 PUSH1 0x1 SWAP1 SUB SWAP1 DUP2 PUSH2 0x2BCE JUMPI SWAP1 POP JUMPDEST POP SWAP1 POP PUSH1 0x0 JUMPDEST DUP5 MLOAD DUP2 LT ISZERO PUSH2 0x2CAA JUMPI DUP3 PUSH1 0x1 PUSH1 0x1 PUSH1 0xA0 SHL SUB AND PUSH4 0x21603F43 DUP7 DUP4 DUP2 MLOAD DUP2 LT PUSH2 0x2C13 JUMPI INVALID JUMPDEST PUSH1 0x20 MUL PUSH1 0x20 ADD ADD MLOAD PUSH1 0x40 MLOAD DUP3 PUSH4 0xFFFFFFFF AND PUSH1 0xE0 SHL DUP2 MSTORE PUSH1 0x4 ADD PUSH2 0x2C37 SWAP2 SWAP1 PUSH2 0x38AF JUMP JUMPDEST PUSH1 0x0 PUSH1 0x40 MLOAD DUP1 DUP4 SUB DUP2 DUP7 DUP1 EXTCODESIZE ISZERO DUP1 ISZERO PUSH2 0x2C4F JUMPI PUSH1 0x0 DUP1 REVERT JUMPDEST POP GAS STATICCALL ISZERO DUP1 ISZERO PUSH2 0x2C63 JUMPI RETURNDATASIZE PUSH1 0x0 DUP1 RETURNDATACOPY RETURNDATASIZE PUSH1 0x0 REVERT JUMPDEST POP POP POP POP PUSH1 0x40 MLOAD RETURNDATASIZE PUSH1 0x0 DUP3 RETURNDATACOPY PUSH1 0x1F RETURNDATASIZE SWAP1 DUP2 ADD PUSH1 0x1F NOT AND DUP3 ADD PUSH1 0x40 MSTORE PUSH2 0x2C8B SWAP2 SWAP1 DUP2 ADD SWAP1 PUSH2 0x3363 JUMP JUMPDEST DUP3 DUP3 DUP2 MLOAD DUP2 LT PUSH2 0x2C97 JUMPI INVALID JUMPDEST PUSH1 0x20 SWAP1 DUP2 MUL SWAP2 SWAP1 SWAP2 ADD ADD MSTORE PUSH1 0x1 ADD PUSH2 0x2BEF JUMP JUMPDEST POP SWAP5 SWAP4 POP POP POP POP JUMP JUMPDEST DUP1 PUSH2 0x2CBF DUP4 PUSH1 0x32 PUSH2 0x2300 JUMP JUMPDEST GT ISZERO PUSH2 0x2CDD JUMPI PUSH1 0x40 MLOAD PUSH3 0x461BCD PUSH1 0xE5 SHL DUP2 MSTORE PUSH1 0x4 ADD PUSH2 0x940 SWAP1 PUSH2 0x3A17 JUMP JUMPDEST PUSH1 0xC SWAP2 SWAP1 SWAP2 SSTORE PUSH1 0xD SSTORE JUMP JUMPDEST PUSH1 0x1 PUSH1 0x1 PUSH1 0xA0 SHL SUB DUP2 AND PUSH20 0xEEEEEEEEEEEEEEEEEEEEEEEEEEEEEEEEEEEEEEEE EQ PUSH2 0x2D24 JUMPI PUSH1 0x40 MLOAD PUSH3 0x461BCD PUSH1 0xE5 SHL DUP2 MSTORE PUSH1 0x4 ADD PUSH2 0x940 SWAP1 PUSH2 0x3A96 JUMP JUMPDEST PUSH1 0x0 PUSH20 0x7598E84B2E114AB62CAB288CE5F7D5F6BAD35BBA PUSH1 0x1 PUSH1 0x1 PUSH1 0xA0 SHL SUB AND DUP4 PUSH1 0x40 MLOAD PUSH2 0x2D51 SWAP1 PUSH2 0x376B JUMP JUMPDEST PUSH1 0x0 PUSH1 0x40 MLOAD DUP1 DUP4 SUB DUP2 DUP6 DUP8 GAS CALL SWAP3 POP POP POP RETURNDATASIZE DUP1 PUSH1 0x0 DUP2 EQ PUSH2 0x2D8E JUMPI PUSH1 0x40 MLOAD SWAP2 POP PUSH1 0x1F NOT PUSH1 0x3F RETURNDATASIZE ADD AND DUP3 ADD PUSH1 0x40 MSTORE RETURNDATASIZE DUP3 MSTORE RETURNDATASIZE PUSH1 0x0 PUSH1 0x20 DUP5 ADD RETURNDATACOPY PUSH2 0x2D93 JUMP JUMPDEST PUSH1 0x60 SWAP2 POP JUMPDEST POP POP SWAP1 POP DUP1 PUSH2 0x2475 JUMPI PUSH1 0x40 MLOAD PUSH3 0x461BCD PUSH1 0xE5 SHL DUP2 MSTORE PUSH1 0x4 ADD PUSH2 0x940 SWAP1 PUSH2 0x3BC0 JUMP JUMPDEST PUSH1 0x1 PUSH1 0x1 PUSH1 0xA0 SHL SUB DUP2 AND PUSH1 0x0 SWAP1 DUP2 MSTORE PUSH1 0x10 PUSH1 0x20 MSTORE PUSH1 0x40 SWAP1 KECCAK256 SLOAD PUSH1 0xFF AND ISZERO PUSH2 0x2DED JUMPI PUSH1 0x40 MLOAD PUSH3 0x461BCD PUSH1 0xE5 SHL DUP2 MSTORE PUSH1 0x4 ADD PUSH2 0x940 SWAP1 PUSH2 0x3C06 JUMP JUMPDEST PUSH1 0xF DUP1 SLOAD PUSH1 0x1 DUP2 DUP2 ADD SWAP1 SWAP3 SSTORE PUSH32 0x8D1108E10BCB7C27DDDFC02ED9D693A074039D026CF4EA4240B40F7D581AC802 ADD DUP1 SLOAD PUSH1 0x1 PUSH1 0x1 PUSH1 0xA0 SHL SUB SWAP1 SWAP4 AND PUSH1 0x1 PUSH1 0x1 PUSH1 0xA0 SHL SUB NOT SWAP1 SWAP4 AND DUP4 OR SWAP1 SSTORE PUSH1 0x0 SWAP2 DUP3 MSTORE PUSH1 0x10 PUSH1 0x20 MSTORE PUSH1 0x40 SWAP1 SWAP2 KECCAK256 DUP1 SLOAD PUSH1 0xFF NOT AND SWAP1 SWAP2 OR SWAP1 SSTORE JUMP JUMPDEST PUSH1 0x0 DUP2 DUP5 DUP5 GT ISZERO PUSH2 0x2E78 JUMPI PUSH1 0x40 MLOAD PUSH3 0x461BCD PUSH1 0xE5 SHL DUP2 MSTORE PUSH1 0x4 ADD PUSH2 0x940 SWAP2 SWAP1 PUSH2 0x38B8 JUMP JUMPDEST POP POP POP SWAP1 SUB SWAP1 JUMP JUMPDEST PUSH1 0x0 DUP2 DUP4 PUSH2 0x2EA1 JUMPI PUSH1 0x40 MLOAD PUSH3 0x461BCD PUSH1 0xE5 SHL DUP2 MSTORE PUSH1 0x4 ADD PUSH2 0x940 SWAP2 SWAP1 PUSH2 0x38B8 JUMP JUMPDEST POP PUSH1 0x0 DUP4 DUP6 DUP2 PUSH2 0x2EAD JUMPI INVALID JUMPDEST DIV SWAP6 SWAP5 POP POP POP POP POP JUMP JUMPDEST PUSH1 0x40 MLOAD DUP1 PUSH1 0xE0 ADD PUSH1 0x40 MSTORE DUP1 PUSH1 0x0 DUP2 MSTORE PUSH1 0x20 ADD PUSH1 0x0 DUP2 MSTORE PUSH1 0x20 ADD PUSH1 0x0 DUP2 MSTORE PUSH1 0x20 ADD PUSH1 0x0 DUP2 MSTORE PUSH1 0x20 ADD PUSH2 0x2EE6 PUSH2 0x2F00 JUMP JUMPDEST DUP2 MSTORE PUSH1 0x20 ADD PUSH2 0x2EF3 PUSH2 0x2F1E JUMP JUMPDEST DUP2 MSTORE PUSH1 0x20 ADD PUSH1 0x60 DUP2 MSTORE POP SWAP1 JUMP JUMPDEST PUSH1 0x40 MLOAD DUP1 PUSH1 0x40 ADD PUSH1 0x40 MSTORE DUP1 PUSH1 0x2 SWAP1 PUSH1 0x20 DUP3 MUL DUP1 CALLDATASIZE DUP4 CALLDATACOPY POP SWAP2 SWAP3 SWAP2 POP POP JUMP JUMPDEST PUSH1 0x40 MLOAD DUP1 PUSH1 0x60 ADD PUSH1 0x40 MSTORE DUP1 PUSH1 0x3 SWAP1 PUSH1 0x20 DUP3 MUL DUP1 CALLDATASIZE DUP4 CALLDATACOPY POP SWAP2 SWAP3 SWAP2 POP POP JUMP JUMPDEST PUSH1 0x0 DUP3 PUSH1 0x1F DUP4 ADD SLT PUSH2 0x2F4C JUMPI DUP1 DUP2 REVERT JUMPDEST PUSH2 0x2F56 PUSH1 0x40 PUSH2 0x3E29 JUMP JUMPDEST SWAP1 POP DUP1 DUP3 DUP5 PUSH1 0x40 DUP6 ADD GT ISZERO PUSH2 0x2F6A JUMPI PUSH1 0x0 DUP1 REVERT JUMPDEST PUSH1 0x0 JUMPDEST PUSH1 0x2 DUP2 LT ISZERO PUSH2 0x2F96 JUMPI DUP2 MLOAD PUSH2 0x2F81 DUP2 PUSH2 0x3E70 JUMP JUMPDEST DUP4 MSTORE PUSH1 0x20 SWAP3 DUP4 ADD SWAP3 SWAP2 SWAP1 SWAP2 ADD SWAP1 PUSH1 0x1 ADD PUSH2 0x2F6D JUMP JUMPDEST POP POP POP SWAP3 SWAP2 POP POP JUMP JUMPDEST PUSH1 0x0 DUP3 PUSH1 0x1F DUP4 ADD SLT PUSH2 0x2FAF JUMPI DUP1 DUP2 REVERT JUMPDEST DUP2 CALLDATALOAD PUSH2 0x2FC2 PUSH2 0x2FBD DUP3 PUSH2 0x3E50 JUMP JUMPDEST PUSH2 0x3E29 JUMP JUMPDEST DUP2 DUP2 MSTORE SWAP2 POP PUSH1 0x20 DUP1 DUP4 ADD SWAP1 DUP5 DUP2 ADD DUP2 DUP5 MUL DUP7 ADD DUP3 ADD DUP8 LT ISZERO PUSH2 0x2FE3 JUMPI PUSH1 0x0 DUP1 REVERT JUMPDEST PUSH1 0x0 JUMPDEST DUP5 DUP2 LT ISZERO PUSH2 0x300B JUMPI DUP2 CALLDATALOAD PUSH2 0x2FF9 DUP2 PUSH2 0x3E70 JUMP JUMPDEST DUP5 MSTORE SWAP3 DUP3 ADD SWAP3 SWAP1 DUP3 ADD SWAP1 PUSH1 0x1 ADD PUSH2 0x2FE6 JUMP JUMPDEST POP POP POP POP POP SWAP3 SWAP2 POP POP JUMP JUMPDEST PUSH1 0x0 DUP3 PUSH1 0x1F DUP4 ADD SLT PUSH2 0x3026 JUMPI DUP1 DUP2 REVERT JUMPDEST PUSH2 0x3030 PUSH1 0x60 PUSH2 0x3E29 JUMP JUMPDEST SWAP1 POP DUP1 DUP3 DUP5 PUSH1 0x60 DUP6 ADD GT ISZERO PUSH2 0x3044 JUMPI PUSH1 0x0 DUP1 REVERT JUMPDEST PUSH1 0x0 JUMPDEST PUSH1 0x3 DUP2 LT ISZERO PUSH2 0x2F96 JUMPI DUP2 MLOAD DUP4 MSTORE PUSH1 0x20 SWAP3 DUP4 ADD SWAP3 SWAP1 SWAP2 ADD SWAP1 PUSH1 0x1 ADD PUSH2 0x3047 JUMP JUMPDEST PUSH1 0x0 DUP3 PUSH1 0x1F DUP4 ADD SLT PUSH2 0x3076 JUMPI DUP1 DUP2 REVERT JUMPDEST DUP2 CALLDATALOAD PUSH2 0x3084 PUSH2 0x2FBD DUP3 PUSH2 0x3E50 JUMP JUMPDEST DUP2 DUP2 MSTORE SWAP2 POP PUSH1 0x20 DUP1 DUP4 ADD SWAP1 DUP5 DUP2 ADD DUP2 DUP5 MUL DUP7 ADD DUP3 ADD DUP8 LT ISZERO PUSH2 0x30A5 JUMPI PUSH1 0x0 DUP1 REVERT JUMPDEST PUSH1 0x0 JUMPDEST DUP5 DUP2 LT ISZERO PUSH2 0x300B JUMPI DUP2 CALLDATALOAD DUP5 MSTORE SWAP3 DUP3 ADD SWAP3 SWAP1 DUP3 ADD SWAP1 PUSH1 0x1 ADD PUSH2 0x30A8 JUMP JUMPDEST PUSH1 0x0 DUP3 PUSH1 0x1F DUP4 ADD SLT PUSH2 0x30D4 JUMPI DUP1 DUP2 REVERT JUMPDEST DUP2 MLOAD PUSH2 0x30E2 PUSH2 0x2FBD DUP3 PUSH2 0x3E50 JUMP JUMPDEST DUP2 DUP2 MSTORE SWAP2 POP PUSH1 0x20 DUP1 DUP4 ADD SWAP1 DUP5 DUP2 ADD DUP2 DUP5 MUL DUP7 ADD DUP3 ADD DUP8 LT ISZERO PUSH2 0x3103 JUMPI PUSH1 0x0 DUP1 REVERT JUMPDEST PUSH1 0x0 JUMPDEST DUP5 DUP2 LT ISZERO PUSH2 0x300B JUMPI DUP2 MLOAD DUP5 MSTORE SWAP3 DUP3 ADD SWAP3 SWAP1 DUP3 ADD SWAP1 PUSH1 0x1 ADD PUSH2 0x3106 JUMP JUMPDEST PUSH1 0x0 PUSH2 0x140 DUP3 DUP5 SUB SLT ISZERO PUSH2 0x3134 JUMPI DUP1 DUP2 REVERT JUMPDEST PUSH2 0x313E PUSH1 0xE0 PUSH2 0x3E29 JUMP JUMPDEST SWAP1 POP DUP2 MLOAD DUP2 MSTORE PUSH1 0x20 DUP3 ADD MLOAD PUSH1 0x20 DUP3 ADD MSTORE PUSH1 0x40 DUP3 ADD MLOAD PUSH1 0x40 DUP3 ADD MSTORE PUSH1 0x60 DUP3 ADD MLOAD PUSH1 0x60 DUP3 ADD MSTORE PUSH2 0x316F DUP4 PUSH1 0x80 DUP5 ADD PUSH2 0x2F3C JUMP JUMPDEST PUSH1 0x80 DUP3 ADD MSTORE PUSH2 0x3181 DUP4 PUSH1 0xC0 DUP5 ADD PUSH2 0x3016 JUMP JUMPDEST PUSH1 0xA0 DUP3 ADD MSTORE PUSH2 0x120 DUP3 ADD MLOAD PUSH8 0xFFFFFFFFFFFFFFFF DUP2 GT ISZERO PUSH2 0x31A1 JUMPI PUSH1 0x0 DUP1 REVERT JUMPDEST PUSH2 0x31AD DUP5 DUP3 DUP6 ADD PUSH2 0x30C4 JUMP JUMPDEST PUSH1 0xC0 DUP4 ADD MSTORE POP SWAP3 SWAP2 POP POP JUMP JUMPDEST PUSH1 0x0 PUSH1 0x20 DUP3 DUP5 SUB SLT ISZERO PUSH2 0x31CA JUMPI DUP1 DUP2 REVERT JUMPDEST DUP2 CALLDATALOAD PUSH2 0x233A DUP2 PUSH2 0x3E70 JUMP JUMPDEST PUSH1 0x0 PUSH1 0x20 DUP3 DUP5 SUB SLT ISZERO PUSH2 0x31E6 JUMPI DUP1 DUP2 REVERT JUMPDEST DUP2 MLOAD PUSH2 0x233A DUP2 PUSH2 0x3E70 JUMP JUMPDEST PUSH1 0x0 DUP1 PUSH1 0x40 DUP4 DUP6 SUB SLT ISZERO PUSH2 0x3203 JUMPI DUP1 DUP2 REVERT JUMPDEST DUP3 MLOAD PUSH8 0xFFFFFFFFFFFFFFFF DUP1 DUP3 GT ISZERO PUSH2 0x321A JUMPI DUP3 DUP4 REVERT JUMPDEST DUP2 DUP6 ADD SWAP2 POP DUP6 PUSH1 0x1F DUP4 ADD SLT PUSH2 0x322D JUMPI DUP3 DUP4 REVERT JUMPDEST DUP2 MLOAD PUSH2 0x323B PUSH2 0x2FBD DUP3 PUSH2 0x3E50 JUMP JUMPDEST DUP2 DUP2 MSTORE PUSH1 0x20 DUP1 DUP3 ADD SWAP2 SWAP1 DUP6 DUP2 ADD DUP8 JUMPDEST DUP6 DUP2 LT ISZERO PUSH2 0x3273 JUMPI PUSH2 0x3261 DUP13 DUP5 DUP5 MLOAD DUP12 ADD ADD PUSH2 0x3122 JUMP JUMPDEST DUP6 MSTORE SWAP4 DUP3 ADD SWAP4 SWAP1 DUP3 ADD SWAP1 PUSH1 0x1 ADD PUSH2 0x324A JUMP JUMPDEST POP POP DUP9 ADD MLOAD SWAP1 SWAP7 POP SWAP4 POP POP POP DUP1 DUP3 GT ISZERO PUSH2 0x328B JUMPI DUP3 DUP4 REVERT JUMPDEST POP PUSH2 0x3298 DUP6 DUP3 DUP7 ADD PUSH2 0x30C4 JUMP JUMPDEST SWAP2 POP POP SWAP3 POP SWAP3 SWAP1 POP JUMP JUMPDEST PUSH1 0x0 PUSH1 0x20 DUP3 DUP5 SUB SLT ISZERO PUSH2 0x32B3 JUMPI DUP1 DUP2 REVERT JUMPDEST DUP2 MLOAD PUSH8 0xFFFFFFFFFFFFFFFF DUP2 GT ISZERO PUSH2 0x32C9 JUMPI DUP2 DUP3 REVERT JUMPDEST PUSH2 0x32D5 DUP5 DUP3 DUP6 ADD PUSH2 0x30C4 JUMP JUMPDEST SWAP5 SWAP4 POP POP POP POP JUMP JUMPDEST PUSH1 0x0 PUSH1 0x20 DUP3 DUP5 SUB SLT ISZERO PUSH2 0x32EE JUMPI DUP1 DUP2 REVERT JUMPDEST DUP2 CALLDATALOAD DUP1 ISZERO ISZERO DUP2 EQ PUSH2 0x233A JUMPI DUP2 DUP3 REVERT JUMPDEST PUSH1 0x0 PUSH1 0x20 DUP3 DUP5 SUB SLT ISZERO PUSH2 0x330E JUMPI DUP1 DUP2 REVERT JUMPDEST POP MLOAD SWAP2 SWAP1 POP JUMP JUMPDEST PUSH1 0x0 DUP1 PUSH1 0x0 PUSH1 0x60 DUP5 DUP7 SUB SLT ISZERO PUSH2 0x3329 JUMPI DUP1 DUP2 REVERT JUMPDEST DUP4 CALLDATALOAD PUSH2 0x3334 DUP2 PUSH2 0x3E70 JUMP JUMPDEST SWAP3 POP PUSH1 0x20 DUP5 ADD CALLDATALOAD PUSH2 0x3344 DUP2 PUSH2 0x3E70 JUMP JUMPDEST SWAP2 POP PUSH1 0x40 DUP5 ADD CALLDATALOAD DUP1 ISZERO ISZERO DUP2 EQ PUSH2 0x3358 JUMPI DUP2 DUP3 REVERT JUMPDEST DUP1 SWAP2 POP POP SWAP3 POP SWAP3 POP SWAP3 JUMP JUMPDEST PUSH1 0x0 PUSH1 0x20 DUP3 DUP5 SUB SLT ISZERO PUSH2 0x3374 JUMPI DUP1 DUP2 REVERT JUMPDEST DUP2 MLOAD PUSH8 0xFFFFFFFFFFFFFFFF DUP2 GT ISZERO PUSH2 0x338A JUMPI DUP2 DUP3 REVERT JUMPDEST PUSH2 0x32D5 DUP5 DUP3 DUP6 ADD PUSH2 0x3122 JUMP JUMPDEST PUSH1 0x0 PUSH1 0x20 DUP3 DUP5 SUB SLT ISZERO PUSH2 0x33A7 JUMPI DUP1 DUP2 REVERT JUMPDEST POP CALLDATALOAD SWAP2 SWAP1 POP JUMP JUMPDEST PUSH1 0x0 DUP1 PUSH1 0x40 DUP4 DUP6 SUB SLT ISZERO PUSH2 0x33C0 JUMPI DUP2 DUP3 REVERT JUMPDEST DUP3 CALLDATALOAD SWAP2 POP PUSH1 0x20 DUP4 ADD CALLDATALOAD PUSH2 0x33D2 DUP2 PUSH2 0x3E70 JUMP JUMPDEST DUP1 SWAP2 POP POP SWAP3 POP SWAP3 SWAP1 POP JUMP JUMPDEST PUSH1 0x0 DUP1 PUSH1 0x40 DUP4 DUP6 SUB SLT ISZERO PUSH2 0x33EF JUMPI DUP2 DUP3 REVERT JUMPDEST DUP3 MLOAD SWAP2 POP PUSH1 0x20 DUP4 ADD MLOAD PUSH2 0x33D2 DUP2 PUSH2 0x3E70 JUMP JUMPDEST PUSH1 0x0 DUP1 PUSH1 0x0 DUP1 PUSH1 0x80 DUP6 DUP8 SUB SLT ISZERO PUSH2 0x3416 JUMPI DUP2 DUP3 REVERT JUMPDEST DUP5 CALLDATALOAD SWAP4 POP PUSH1 0x20 DUP6 ADD CALLDATALOAD PUSH2 0x3428 DUP2 PUSH2 0x3E70 JUMP JUMPDEST SWAP3 POP PUSH1 0x40 DUP6 ADD CALLDATALOAD PUSH2 0x3438 DUP2 PUSH2 0x3E70 JUMP JUMPDEST SWAP4 SWAP7 SWAP3 SWAP6 POP SWAP3 SWAP4 PUSH1 0x60 ADD CALLDATALOAD SWAP3 POP POP JUMP JUMPDEST PUSH1 0x0 DUP1 PUSH1 0x0 PUSH1 0x60 DUP5 DUP7 SUB SLT ISZERO PUSH2 0x345C JUMPI DUP1 DUP2 REVERT JUMPDEST DUP4 CALLDATALOAD SWAP3 POP PUSH1 0x20 DUP5 ADD CALLDATALOAD PUSH2 0x346E DUP2 PUSH2 0x3E70 JUMP JUMPDEST SWAP3 SWAP6 SWAP3 SWAP5 POP POP POP PUSH1 0x40 SWAP2 SWAP1 SWAP2 ADD CALLDATALOAD SWAP1 JUMP JUMPDEST PUSH1 0x0 DUP1 PUSH1 0x0 DUP1 PUSH1 0x80 DUP6 DUP8 SUB SLT ISZERO PUSH2 0x3494 JUMPI DUP2 DUP3 REVERT JUMPDEST DUP5 CALLDATALOAD SWAP4 POP PUSH1 0x20 DUP6 ADD CALLDATALOAD PUSH8 0xFFFFFFFFFFFFFFFF DUP1 DUP3 GT ISZERO PUSH2 0x34B2 JUMPI DUP4 DUP5 REVERT JUMPDEST PUSH2 0x34BE DUP9 DUP4 DUP10 ADD PUSH2 0x2F9F JUMP JUMPDEST SWAP5 POP PUSH1 0x40 DUP8 ADD CALLDATALOAD SWAP2 POP DUP1 DUP3 GT ISZERO PUSH2 0x34D3 JUMPI DUP4 DUP5 REVERT JUMPDEST PUSH2 0x34DF DUP9 DUP4 DUP10 ADD PUSH2 0x2F9F JUMP JUMPDEST SWAP4 POP PUSH1 0x60 DUP8 ADD CALLDATALOAD SWAP2 POP DUP1 DUP3 GT ISZERO PUSH2 0x34F4 JUMPI DUP3 DUP4 REVERT JUMPDEST POP PUSH2 0x3501 DUP8 DUP3 DUP9 ADD PUSH2 0x3066 JUMP JUMPDEST SWAP2 POP POP SWAP3 SWAP6 SWAP2 SWAP5 POP SWAP3 POP JUMP JUMPDEST PUSH1 0x0 DUP1 PUSH1 0x0 DUP1 PUSH1 0x0 PUSH1 0xA0 DUP7 DUP9 SUB SLT ISZERO PUSH2 0x3524 JUMPI DUP3 DUP4 REVERT JUMPDEST DUP6 CALLDATALOAD SWAP5 POP PUSH1 0x20 DUP7 ADD CALLDATALOAD PUSH8 0xFFFFFFFFFFFFFFFF DUP1 DUP3 GT ISZERO PUSH2 0x3542 JUMPI DUP5 DUP6 REVERT JUMPDEST PUSH2 0x354E DUP10 DUP4 DUP11 ADD PUSH2 0x2F9F JUMP JUMPDEST SWAP6 POP PUSH1 0x40 DUP9 ADD CALLDATALOAD SWAP2 POP DUP1 DUP3 GT ISZERO PUSH2 0x3563 JUMPI DUP5 DUP6 REVERT JUMPDEST PUSH2 0x356F DUP10 DUP4 DUP11 ADD PUSH2 0x3066 JUMP JUMPDEST SWAP5 POP PUSH1 0x60 DUP9 ADD CALLDATALOAD SWAP2 POP DUP1 DUP3 GT ISZERO PUSH2 0x3584 JUMPI DUP3 DUP4 REVERT JUMPDEST POP PUSH2 0x3591 DUP9 DUP3 DUP10 ADD PUSH2 0x3066 JUMP JUMPDEST SWAP6 SWAP9 SWAP5 SWAP8 POP SWAP3 SWAP6 PUSH1 0x80 ADD CALLDATALOAD SWAP4 SWAP3 POP POP POP JUMP JUMPDEST PUSH1 0x0 DUP1 PUSH1 0x40 DUP4 DUP6 SUB SLT ISZERO PUSH2 0x35B5 JUMPI DUP2 DUP3 REVERT JUMPDEST DUP3 CALLDATALOAD SWAP2 POP PUSH1 0x20 DUP1 DUP5 ADD CALLDATALOAD PUSH8 0xFFFFFFFFFFFFFFFF DUP1 DUP3 GT ISZERO PUSH2 0x35D4 JUMPI DUP4 DUP5 REVERT JUMPDEST DUP2 DUP7 ADD SWAP2 POP DUP7 PUSH1 0x1F DUP4 ADD SLT PUSH2 0x35E7 JUMPI DUP4 DUP5 REVERT JUMPDEST DUP2 CALLDATALOAD DUP2 DUP2 GT ISZERO PUSH2 0x35F5 JUMPI DUP5 DUP6 REVERT JUMPDEST PUSH2 0x3607 PUSH1 0x1F DUP3 ADD PUSH1 0x1F NOT AND DUP6 ADD PUSH2 0x3E29 JUMP JUMPDEST SWAP2 POP DUP1 DUP3 MSTORE DUP8 DUP5 DUP3 DUP6 ADD ADD GT ISZERO PUSH2 0x361C JUMPI DUP5 DUP6 REVERT JUMPDEST DUP1 DUP5 DUP5 ADD DUP6 DUP5 ADD CALLDATACOPY DUP2 ADD SWAP1 SWAP3 ADD SWAP3 SWAP1 SWAP3 MSTORE SWAP2 SWAP5 SWAP2 SWAP4 POP SWAP1 SWAP2 POP POP JUMP JUMPDEST PUSH1 0x0 DUP1 PUSH1 0x40 DUP4 DUP6 SUB SLT ISZERO PUSH2 0x364A JUMPI DUP2 DUP3 REVERT JUMPDEST POP POP DUP1 CALLDATALOAD SWAP3 PUSH1 0x20 SWAP1 SWAP2 ADD CALLDATALOAD SWAP2 POP JUMP JUMPDEST PUSH1 0x0 DUP1 PUSH1 0x0 DUP1 PUSH1 0x80 DUP6 DUP8 SUB SLT ISZERO PUSH2 0x366E JUMPI DUP2 DUP3 REVERT JUMPDEST DUP5 CALLDATALOAD SWAP4 POP PUSH1 0x20 DUP6 ADD CALLDATALOAD SWAP3 POP PUSH1 0x40 DUP6 ADD CALLDATALOAD PUSH2 0x3687 DUP2 PUSH2 0x3E70 JUMP JUMPDEST SWAP2 POP PUSH1 0x60 DUP6 ADD CALLDATALOAD PUSH8 0xFFFFFFFFFFFFFFFF DUP2 GT ISZERO PUSH2 0x36A2 JUMPI DUP2 DUP3 REVERT JUMPDEST PUSH2 0x3501 DUP8 DUP3 DUP9 ADD PUSH2 0x2F9F JUMP JUMPDEST PUSH1 0x0 DUP2 MLOAD DUP1 DUP5 MSTORE PUSH1 0x20 DUP1 DUP6 ADD SWAP5 POP DUP1 DUP5 ADD DUP4 JUMPDEST DUP4 DUP2 LT ISZERO PUSH2 0x36E6 JUMPI DUP2 MLOAD PUSH1 0x1 PUSH1 0x1 PUSH1 0xA0 SHL SUB AND DUP8 MSTORE SWAP6 DUP3 ADD SWAP6 SWAP1 DUP3 ADD SWAP1 PUSH1 0x1 ADD PUSH2 0x36C1 JUMP JUMPDEST POP SWAP5 SWAP6 SWAP5 POP POP POP POP POP JUMP JUMPDEST PUSH1 0x0 DUP2 MLOAD DUP1 DUP5 MSTORE PUSH1 0x20 DUP1 DUP6 ADD SWAP5 POP DUP1 DUP5 ADD DUP4 JUMPDEST DUP4 DUP2 LT ISZERO PUSH2 0x36E6 JUMPI DUP2 MLOAD DUP8 MSTORE SWAP6 DUP3 ADD SWAP6 SWAP1 DUP3 ADD SWAP1 PUSH1 0x1 ADD PUSH2 0x3704 JUMP JUMPDEST PUSH1 0x0 DUP2 MLOAD DUP1 DUP5 MSTORE DUP2 JUMPDEST DUP2 DUP2 LT ISZERO PUSH2 0x3745 JUMPI PUSH1 0x20 DUP2 DUP6 ADD DUP2 ADD MLOAD DUP7 DUP4 ADD DUP3 ADD MSTORE ADD PUSH2 0x3729 JUMP JUMPDEST DUP2 DUP2 GT ISZERO PUSH2 0x3756 JUMPI DUP3 PUSH1 0x20 DUP4 DUP8 ADD ADD MSTORE JUMPDEST POP PUSH1 0x1F ADD PUSH1 0x1F NOT AND SWAP3 SWAP1 SWAP3 ADD PUSH1 0x20 ADD SWAP3 SWAP2 POP POP JUMP JUMPDEST SWAP1 JUMP JUMPDEST PUSH1 0x1 PUSH1 0x1 PUSH1 0xA0 SHL SUB SWAP2 SWAP1 SWAP2 AND DUP2 MSTORE PUSH1 0x20 ADD SWAP1 JUMP JUMPDEST PUSH1 0x1 PUSH1 0x1 PUSH1 0xA0 SHL SUB DUP6 AND DUP2 MSTORE PUSH1 0x80 PUSH1 0x20 DUP3 ADD DUP2 SWAP1 MSTORE PUSH1 0x0 SWAP1 PUSH2 0x37A6 SWAP1 DUP4 ADD DUP7 PUSH2 0x36AE JUMP JUMPDEST DUP3 DUP2 SUB PUSH1 0x40 DUP5 ADD MSTORE PUSH2 0x37B8 DUP2 DUP7 PUSH2 0x36F1 JUMP JUMPDEST SWAP1 POP DUP3 DUP2 SUB PUSH1 0x60 DUP5 ADD MSTORE PUSH2 0x37CC DUP2 DUP6 PUSH2 0x36F1 JUMP JUMPDEST SWAP8 SWAP7 POP POP POP POP POP POP POP JUMP JUMPDEST PUSH1 0x1 PUSH1 0x1 PUSH1 0xA0 SHL SUB SWAP3 SWAP1 SWAP3 AND DUP3 MSTORE PUSH1 0x20 DUP3 ADD MSTORE PUSH1 0x40 ADD SWAP1 JUMP JUMPDEST PUSH1 0x1 PUSH1 0x1 PUSH1 0xA0 SHL SUB DUP6 DUP2 AND DUP3 MSTORE PUSH1 0x20 DUP3 ADD DUP6 SWAP1 MSTORE DUP4 AND PUSH1 0x40 DUP3 ADD MSTORE PUSH1 0x80 PUSH1 0x60 DUP3 ADD DUP2 SWAP1 MSTORE PUSH1 0x0 SWAP1 PUSH2 0x3823 SWAP1 DUP4 ADD DUP5 PUSH2 0x36AE JUMP JUMPDEST SWAP7 SWAP6 POP POP POP POP POP POP JUMP JUMPDEST PUSH1 0x1 PUSH1 0x1 PUSH1 0xA0 SHL SUB SWAP4 DUP5 AND DUP2 MSTORE SWAP2 SWAP1 SWAP3 AND PUSH1 0x20 DUP3 ADD MSTORE PUSH1 0x40 DUP2 ADD SWAP2 SWAP1 SWAP2 MSTORE PUSH1 0x60 ADD SWAP1 JUMP JUMPDEST PUSH1 0x1 PUSH1 0x1 PUSH1 0xA0 SHL SUB DUP7 DUP2 AND DUP3 MSTORE PUSH1 0x1 PUSH1 0x1 PUSH1 0xE0 SHL SUB NOT DUP7 AND PUSH1 0x20 DUP4 ADD MSTORE DUP5 DUP2 AND PUSH1 0x40 DUP4 ADD MSTORE PUSH1 0xA0 PUSH1 0x60 DUP4 ADD DUP2 SWAP1 MSTORE PUSH1 0x0 SWAP2 SWAP1 PUSH2 0x388F SWAP1 DUP5 ADD DUP7 PUSH2 0x3720 JUMP JUMPDEST SWAP2 POP DUP1 DUP5 AND PUSH1 0x80 DUP5 ADD MSTORE POP SWAP7 SWAP6 POP POP POP POP POP POP JUMP JUMPDEST SWAP1 ISZERO ISZERO DUP2 MSTORE PUSH1 0x20 ADD SWAP1 JUMP JUMPDEST SWAP1 DUP2 MSTORE PUSH1 0x20 ADD SWAP1 JUMP JUMPDEST PUSH1 0x0 PUSH1 0x20 DUP3 MSTORE PUSH2 0x233A PUSH1 0x20 DUP4 ADD DUP5 PUSH2 0x3720 JUMP JUMPDEST PUSH1 0x20 DUP1 DUP3 MSTORE PUSH1 0x14 SWAP1 DUP3 ADD MSTORE PUSH20 0x14185D5CD8589B194E881B9BDD081C185D5CD959 PUSH1 0x62 SHL PUSH1 0x40 DUP3 ADD MSTORE PUSH1 0x60 ADD SWAP1 JUMP JUMPDEST PUSH1 0x20 DUP1 DUP3 MSTORE PUSH1 0x25 SWAP1 DUP3 ADD MSTORE PUSH32 0x436F726E466920436F6E74726F6C6C65723A2047617320507269636520546F6F PUSH1 0x40 DUP3 ADD MSTORE PUSH5 0x4090D2CED PUSH1 0xDB SHL PUSH1 0x60 DUP3 ADD MSTORE PUSH1 0x80 ADD SWAP1 JUMP JUMPDEST PUSH1 0x20 DUP1 DUP3 MSTORE PUSH1 0x2C SWAP1 DUP3 ADD MSTORE PUSH32 0x436F726E466920436F6E74726F6C6C65723A204E6F20557365722046756E6473 PUSH1 0x40 DUP3 ADD MSTORE PUSH12 0x20746F205769746864726177 PUSH1 0xA0 SHL PUSH1 0x60 DUP3 ADD MSTORE PUSH1 0x80 ADD SWAP1 JUMP JUMPDEST PUSH1 0x20 DUP1 DUP3 MSTORE PUSH1 0x26 SWAP1 DUP3 ADD MSTORE PUSH32 0x4F776E61626C653A206E6577206F776E657220697320746865207A65726F2061 PUSH1 0x40 DUP3 ADD MSTORE PUSH6 0x646472657373 PUSH1 0xD0 SHL PUSH1 0x60 DUP3 ADD MSTORE PUSH1 0x80 ADD SWAP1 JUMP JUMPDEST PUSH1 0x20 DUP1 DUP3 MSTORE PUSH1 0x27 SWAP1 DUP3 ADD MSTORE PUSH32 0x436F726E466920436F6E74726F6C6C65723A2047656C61746F204F6E6C792046 PUSH1 0x40 DUP3 ADD MSTORE PUSH7 0x3AB731BA34B7B7 PUSH1 0xC9 SHL PUSH1 0x60 DUP3 ADD MSTORE PUSH1 0x80 ADD SWAP1 JUMP JUMPDEST PUSH1 0x20 DUP1 DUP3 MSTORE PUSH1 0x28 SWAP1 DUP3 ADD MSTORE PUSH32 0x436F726E466920436F6E74726F6C6C65723A204D617820536C69707061676520 PUSH1 0x40 DUP3 ADD MSTORE PUSH8 0x115E18D959591959 PUSH1 0xC2 SHL PUSH1 0x60 DUP3 ADD MSTORE PUSH1 0x80 ADD SWAP1 JUMP JUMPDEST PUSH1 0x20 DUP1 DUP3 MSTORE PUSH1 0x1B SWAP1 DUP3 ADD MSTORE PUSH32 0x536166654D6174683A206164646974696F6E206F766572666C6F770000000000 PUSH1 0x40 DUP3 ADD MSTORE PUSH1 0x60 ADD SWAP1 JUMP JUMPDEST PUSH1 0x20 DUP1 DUP3 MSTORE PUSH1 0x28 SWAP1 DUP3 ADD MSTORE PUSH32 0x436F726E466920436F6E74726F6C6C65723A20496E76616C6964205061796D65 PUSH1 0x40 DUP3 ADD MSTORE PUSH8 0x373A102A37B5B2B7 PUSH1 0xC1 SHL PUSH1 0x60 DUP3 ADD MSTORE PUSH1 0x80 ADD SWAP1 JUMP JUMPDEST PUSH1 0x20 DUP1 DUP3 MSTORE PUSH1 0x10 SWAP1 DUP3 ADD MSTORE PUSH16 0x14185D5CD8589B194E881C185D5CD959 PUSH1 0x82 SHL PUSH1 0x40 DUP3 ADD MSTORE PUSH1 0x60 ADD SWAP1 JUMP JUMPDEST PUSH1 0x20 DUP1 DUP3 MSTORE PUSH1 0x22 SWAP1 DUP3 ADD MSTORE PUSH32 0x436F726E466920436F6E74726F6C6C65723A20496E76616C6964204C656E6774 PUSH1 0x40 DUP3 ADD MSTORE PUSH2 0x6873 PUSH1 0xF0 SHL PUSH1 0x60 DUP3 ADD MSTORE PUSH1 0x80 ADD SWAP1 JUMP JUMPDEST PUSH1 0x20 DUP1 DUP3 MSTORE PUSH1 0x21 SWAP1 DUP3 ADD MSTORE PUSH32 0x536166654D6174683A206D756C7469706C69636174696F6E206F766572666C6F PUSH1 0x40 DUP3 ADD MSTORE PUSH1 0x77 PUSH1 0xF8 SHL PUSH1 0x60 DUP3 ADD MSTORE PUSH1 0x80 ADD SWAP1 JUMP JUMPDEST PUSH1 0x20 DUP1 DUP3 MSTORE DUP2 DUP2 ADD MSTORE PUSH32 0x4F776E61626C653A2063616C6C6572206973206E6F7420746865206F776E6572 PUSH1 0x40 DUP3 ADD MSTORE PUSH1 0x60 ADD SWAP1 JUMP JUMPDEST PUSH1 0x20 DUP1 DUP3 MSTORE PUSH1 0x26 SWAP1 DUP3 ADD MSTORE PUSH32 0x436F726E466920436F6E74726F6C6C65723A20455448207472616E7366657220 PUSH1 0x40 DUP3 ADD MSTORE PUSH6 0x19985A5B1959 PUSH1 0xD2 SHL PUSH1 0x60 DUP3 ADD MSTORE PUSH1 0x80 ADD SWAP1 JUMP JUMPDEST PUSH1 0x20 DUP1 DUP3 MSTORE PUSH1 0x27 SWAP1 DUP3 ADD MSTORE PUSH32 0x436F726E466920436F6E74726F6C6C65723A20496E76616C6964204F72646572 PUSH1 0x40 DUP3 ADD MSTORE PUSH7 0x102334B63632B9 PUSH1 0xC9 SHL PUSH1 0x60 DUP3 ADD MSTORE PUSH1 0x80 ADD SWAP1 JUMP JUMPDEST PUSH1 0x20 DUP1 DUP3 MSTORE PUSH1 0x22 SWAP1 DUP3 ADD MSTORE PUSH32 0x436F726E466920436F6E74726F6C6C65723A2047656C61746F2044697361626C PUSH1 0x40 DUP3 ADD MSTORE PUSH2 0x1959 PUSH1 0xF2 SHL PUSH1 0x60 DUP3 ADD MSTORE PUSH1 0x80 ADD SWAP1 JUMP JUMPDEST PUSH1 0x20 DUP1 DUP3 MSTORE PUSH1 0x2C SWAP1 DUP3 ADD MSTORE PUSH32 0x436F726E466920436F6E74726F6C6C65723A204F6E6C7920416374697665204F PUSH1 0x40 DUP3 ADD MSTORE PUSH12 0x726465722046696C6C657273 PUSH1 0xA0 SHL PUSH1 0x60 DUP3 ADD MSTORE PUSH1 0x80 ADD SWAP1 JUMP JUMPDEST PUSH1 0x20 DUP1 DUP3 MSTORE PUSH1 0x1F SWAP1 DUP3 ADD MSTORE PUSH32 0x5265656E7472616E637947756172643A207265656E7472616E742063616C6C00 PUSH1 0x40 DUP3 ADD MSTORE PUSH1 0x60 ADD SWAP1 JUMP JUMPDEST PUSH1 0x20 DUP1 DUP3 MSTORE PUSH1 0x21 SWAP1 DUP3 ADD MSTORE PUSH32 0x436F726E466920436F6E74726F6C6C65723A20496E76616C696420526F757465 PUSH1 0x40 DUP3 ADD MSTORE PUSH1 0x39 PUSH1 0xF9 SHL PUSH1 0x60 DUP3 ADD MSTORE PUSH1 0x80 ADD SWAP1 JUMP JUMPDEST PUSH1 0x20 DUP1 DUP3 MSTORE PUSH1 0x21 SWAP1 DUP3 ADD MSTORE PUSH32 0x436F726E466920436F6E74726F6C6C65723A20496E616374697665205661756C PUSH1 0x40 DUP3 ADD MSTORE PUSH1 0x1D PUSH1 0xFA SHL PUSH1 0x60 DUP3 ADD MSTORE PUSH1 0x80 ADD SWAP1 JUMP JUMPDEST PUSH1 0x20 DUP1 DUP3 MSTORE PUSH1 0x2D SWAP1 DUP3 ADD MSTORE PUSH32 0x436F726E466920436F6E74726F6C6C65723A20496E737566666963656E742055 PUSH1 0x40 DUP3 ADD MSTORE PUSH13 0x736572204761732046756E6473 PUSH1 0x98 SHL PUSH1 0x60 DUP3 ADD MSTORE PUSH1 0x80 ADD SWAP1 JUMP JUMPDEST SWAP2 DUP3 MSTORE PUSH1 0x20 DUP3 ADD MSTORE PUSH1 0x40 ADD SWAP1 JUMP JUMPDEST SWAP5 DUP6 MSTORE PUSH1 0x20 DUP6 ADD SWAP4 SWAP1 SWAP4 MSTORE PUSH1 0x1 PUSH1 0x1 PUSH1 0xA0 SHL SUB SWAP2 DUP3 AND PUSH1 0x40 DUP6 ADD MSTORE AND PUSH1 0x60 DUP4 ADD MSTORE PUSH1 0x80 DUP3 ADD MSTORE PUSH1 0xA0 ADD SWAP1 JUMP JUMPDEST PUSH1 0xFF SWAP2 SWAP1 SWAP2 AND DUP2 MSTORE PUSH1 0x20 ADD SWAP1 JUMP JUMPDEST PUSH1 0x40 MLOAD DUP2 DUP2 ADD PUSH8 0xFFFFFFFFFFFFFFFF DUP2 GT DUP3 DUP3 LT OR ISZERO PUSH2 0x3E48 JUMPI PUSH1 0x0 DUP1 REVERT JUMPDEST PUSH1 0x40 MSTORE SWAP2 SWAP1 POP JUMP JUMPDEST PUSH1 0x0 PUSH8 0xFFFFFFFFFFFFFFFF DUP3 GT ISZERO PUSH2 0x3E66 JUMPI DUP1 DUP2 REVERT JUMPDEST POP PUSH1 0x20 SWAP1 DUP2 MUL ADD SWAP1 JUMP JUMPDEST PUSH1 0x1 PUSH1 0x1 PUSH1 0xA0 SHL SUB DUP2 AND DUP2 EQ PUSH2 0x22FD JUMPI PUSH1 0x0 DUP1 REVERT INVALID LOG2 PUSH5 0x6970667358 0x22 SLT KECCAK256 PUSH15 0xC3A0BB1A8793C3E51563E615D265B5 0xAB DUP7 SLOAD 0xA7 0x2C 0xD9 SLOAD JUMPDEST 0x2D PUSH6 0xD498E59EBFC4 PUSH5 0x736F6C6343 STOP MOD 0xC STOP CALLER ","sha1":"b79d5df30876bee34843a3911142ea5eb0620808","source":"// SPDX-License-Identifier: MIT\npragma solidity 0.6.12;\n\nimport \"../interfaces/IVaultBase.sol\";\nimport \"../interfaces/IUniswapV2Router02.sol\";\nimport \"./openzeppelin/contracts/token/ERC20/SafeERC20.sol\";\nimport \"./openzeppelin/contracts/access/Ownable.sol\";\nimport \"./openzeppelin/contracts/utils/Pausable.sol\";\nimport \"./openzeppelin/contracts/utils/ReentrancyGuard.sol\";\nimport \"../interfaces/IPokeMe.sol\";\nimport \"../interfaces/IResolver.sol\";\nimport \"../interfaces/IStrategy.sol\";\n\n\npragma experimental ABIEncoderV2;\n\ncontract Controller is Ownable, Pausable, ReentrancyGuard {\n    using SafeERC20 for IERC20;\n    using SafeMath for uint256;\n\n    struct UserTokens {\n        address vault;\n        uint256 tokenId;\n    }\n\n    uint8 public constant NOT_A_VAULT = 0;\n    uint8 public constant ACTIVE_VAULT = 1;\n    uint8 public constant DEACTIVATED_VAULT = 2;\n\n    // Gelato address that receives the gas fee after execution\n    address payable public constant gelato = 0x7598e84B2E114AB62CAB288CE5f7d5f6bad35BbA;\n\n    // Native token\n    address public constant ETH = 0xEeeeeEeeeEeEeeEeEeEeeEEEeeeeEeeeeeeeEEeE;\n\n    // Contract that will call this contract to fill orders\n    IPokeMe public PokeMe = IPokeMe(0x527a819db1eb0e34426297b03bae11F2f8B3A19E);\n\n    // Contract for finding the best router and path for a given swap\n    IResolver public Resolver;\n\n    // Token used to pay Gelato for executing transactions\n    address public GasToken = 0xEeeeeEeeeEeEeeEeEeEeeEEEeeeeEeeeeeeeEEeE;\n\n    // true: Gelato is active - Gelato will monitor orders and fill when executable\n    // false: Gelato is inactive - Dev will monitor orders and fill when executable\n    bool public Gelato;\n\n    // taskIds[vaultId][tokenId] --> Gelato task ID\n    // Gelato tasks are only created when 'Gelato' = true\n    mapping(uint256 => mapping(uint256 => bytes32)) public taskIds;\n\n    // tokenMaxGas[vaultId][tokenId] --> Max gas price (gwei)\n    // Filling order txs will revert if the gas price exceeds what the user set\n    mapping(uint256 => mapping(uint256 => uint256)) public tokenMaxGas;\n\n    // Amount of gas a user has deposited\n    mapping(address => uint256) public userGasAmounts;\n\n    // All routers used for filling orders\n    IUniswapV2Router02[] public routers;\n\n    // activeRouters[router] --> true: Router is active; false: Router is inactive\n    // Note: Deactivated routers are not removed from 'routers', be sure that the\n    // router being used returns 'true' from the mapping below before using to \n    // fill orders.\n    mapping(IUniswapV2Router02 => bool) public activeRouters;\n\n    // All vaults\n    IVaultBase[] public vaults;\n\n    // _vaults[vault] --> 0: Vault not present in Controller; 1: Vault is active;\n    // 2: Vault is deactivated\n    mapping(address => uint8) internal _vaults;\n\n    // _vaultIds[vault] --> Vault index of 'vaults' (i.e. vault ID)\n    mapping(address => uint256) internal _vaultIds;\n\n    // Dev wallet for protocol fees\n    address public constant Fees = 0x22B20054BBD6dC5C23D7c7595e092ca728a00c32;\n\n    // Dev wallet for deposit fees\n    address public constant DepositFees = 0x22B20054BBD6dC5C23D7c7595e092ca728a00c32;\n\n    // Slippage setting for when filling orders\n    // slippage = SLIPPAGE_POINTS / SLIPPAGE_BASE_POINTS\n    // 0.5% slippage --> SLIPPAGE_POINTS = 5; SLIPPAGE_BASE_POINTS = 1000\n    uint256 public SLIPPAGE_POINTS;\n    uint256 public SLIPPAGE_BASE_POINTS;\n\n    // true: Only whitelisted addresses can fill orders\n    // false: Any address can fill orders\n    bool public whitelistOrderFillers;\n\n    // Whitelisted addresses that can fill orders\n    address[] public orderFillers;\n\n    // activeOrderFillers[filler] --> 0: Filler not whitelisted; 1: Filler is whitelisted;\n    // 2: Filler has permissions revoked\n    mapping(address => uint8) public activeOrderFillers;\n\n    // Contracts that hold trade tokens\n    address[] public holdingStrategies;\n\n    // _holdingStrategies[strategy] --> true: Active holding strategy; false: Holding\n    // strategy not added yet.\n    mapping(address => bool) internal _holdingStrategies;\n\n\n    // --------------------------------------------------------------------------------\n    // //////////////////////////////////// Events ////////////////////////////////////\n    // --------------------------------------------------------------------------------\n    event DepositGas(address indexed _receiver, address _gasToken, uint256 _amount);\n    event CreateTrade(address indexed _creator, uint256 indexed _vaultId, uint256 _tokenId);\n    event CreateOrder(address indexed _creator, uint256 indexed _vaultId, uint256 _orderId);\n    event FillOrder(address indexed _orderOwner, uint256 indexed _vaultId, uint256 indexed _tokenId, uint256 _orderId);\n    event Withdraw(address indexed _owner, uint256 indexed _vaultId, uint256 indexed _tokenId);\n\n    \n    // --------------------------------------------------------------------------------\n    // ////////////////////////////////// Modifiers ///////////////////////////////////\n    // --------------------------------------------------------------------------------\n\n    /**\n    * @dev Restricts the caller to only the Gelato 'PokeMe' contract \n    */\n    modifier onlyGelato() {\n        require(\n            msg.sender == address(PokeMe), \n            \"CornFi Controller: Gelato Only Function\"\n        );\n        require(Gelato, \"CornFi Controller: Gelato Disabled\");\n        _;\n    }\n\n    // --------------------------------------------------------------------------------\n\n    /**\n    * @dev Restricts the caller to only addresses that are whitelisted \n    */\n    modifier onlyApprovedFillers() {\n        if(whitelistOrderFillers) {\n            require(\n                activeOrderFillers[msg.sender] == 1, \n                \"CornFi Controller: Invalid Order Filler\"\n            );\n        }\n        _;\n    }\n\n\n    // --------------------------------------------------------------------------------\n    // --------------------------------------------------------------------------------\n    // --------------------------------------------------------------------------------\n    // --------------------------------------------------------------------------------\n\n    /**\n    * @param _slippagePoints: Highest acceptable slippage amount when executing swaps\n    * @param _slippageBasePoints: (_slippagePoints / _slippageBasePoints) --> slippage %\n    * @param _routers: Approved routers used for executing swaps. No new routers can be\n    * added after deploying this contract.\n    * @param _resolver: Gelato resolver contract used to find the router and swap path\n    * that provides the highest output amount.\n    */\n    constructor(\n        uint256 _slippagePoints,\n        uint256 _slippageBasePoints,\n        IUniswapV2Router02[] memory _routers,\n        address _resolver\n    ) public {\n        _setSlippage(_slippagePoints, _slippageBasePoints);\n        Gelato = true;\n        \n        Resolver = IResolver(_resolver);\n        for(uint i = 0; i < _routers.length; i++) {\n            _addRouter(_routers[i]);\n        }\n        whitelistOrderFillers = true;\n        _addOrderFiller(msg.sender);\n    }\n\n\n    // --------------------------------------------------------------------------------\n    // //////////////////////// Contract Settings - Only Owner ////////////////////////\n    // --------------------------------------------------------------------------------\n\n    /**\n    * @dev After calling, 'createTrade', 'fillOrder', 'fillOrderGelato', and 'depositGas'\n    * functions will be disabled. Users will only be able to withdraw their trades and\n    * any deposited gas. Only the owner of this contract can call this function.\n    */\n    function pause() external onlyOwner {\n        _pause();\n    }\n\n    // --------------------------------------------------------------------------------\n\n    /**\n    * @dev Enables 'createTrade', 'fillOrder', 'fillOrderGelato', and 'depositGas'\n    * functions. Only the owner of this contract can call this function.\n    */\n    function unpause() external onlyOwner {\n        _unpause();\n    }\n\n    // --------------------------------------------------------------------------------\n\n    /**\n    * @dev Whitelist an order filler. Only the owner of this contract can call this \n    * function.\n    * @param _filler: Address that will call 'fillOrder()' within this contract\n    */\n    function addOrderFiller(address _filler) external onlyOwner {\n        _addOrderFiller(_filler);\n    }\n\n    // --------------------------------------------------------------------------------\n\n    /**\n    * @dev Restrict order filling to a whitelist of addresses or allow any address to\n    * fill orders. Only the owner of this contract can call this function.\n    * @param _whitelist: true: Only whitelisted addresses can fill orders; false: Any\n    * address can fill orders\n    */\n    function setOrderFillers(bool _whitelist) external onlyOwner {\n        whitelistOrderFillers = _whitelist;\n    }\n\n    // --------------------------------------------------------------------------------\n\n    /**\n    * @dev Revokes order filling permissions from an address. Only the owner of this \n    * contract can call this function.\n    * @param _filler: Address that will have its order filling permissions revoked\n    */\n    function deactivateOrderFiller(address _filler) external onlyOwner {\n        require(\n            activeOrderFillers[_filler] == 1, \n            \"CornFi Controller: Only Active Order Fillers\"\n        );\n        activeOrderFillers[_filler] = 2;\n    }\n\n    // --------------------------------------------------------------------------------\n\n    /**\n    * @dev Set the URI of a vault to display an image. Only the owner of this contract \n    * can call this function.\n    * @param _vaultId: Vault that will have its URI set\n    * @param _URI: IPFS link\n    */\n    function setVaultURI(uint256 _vaultId, string memory _URI) external onlyOwner {\n        vaults[_vaultId].setBaseURI(_URI);\n    }\n\n    // --------------------------------------------------------------------------------\n\n    /**\n    * @dev Deactivated router will no longer be able to be used for filling orders.\n    * A deactivated router cannot be reactivated. Only the owner of this contract can \n    * call this function.\n    * @param _router: Router to deactivate \n    */\n    function deactivateRouter(IUniswapV2Router02 _router) external onlyOwner {\n        activeRouters[_router] = false;\n    }\n\n    // --------------------------------------------------------------------------------\n\n    /**\n    * @dev Add a vault for trading. Vault must inherit 'VaultBase.sol' and meet the\n    * vault standard for proper functionality. Only the owner of this contract can call \n    * this function.\n    * @param _vault: Address of vault to add\n    */\n    function addVault(address _vault) external onlyOwner {\n        require(_vaults[_vault] == NOT_A_VAULT);\n        _vaultIds[_vault] = vaults.length;\n        vaults.push(IVaultBase(_vault));\n        _vaults[_vault] = ACTIVE_VAULT;\n    }\n\n    // --------------------------------------------------------------------------------\n\n    /**\n    * @dev Disables the 'createTrade', 'fillOrder', and 'fillOrderGelato' functions.\n    * Once a vault is deactivated, users will only be able to withdraw their trades.\n    * Deactivated vaults cannot be reactivated. Only the owner of this contract can \n    * call this function.\n    * @param _vault: Address of vault to deactivate\n    */\n    function deactivateVault(address _vault) external onlyOwner {\n        _vaults[_vault] = DEACTIVATED_VAULT;\n    }\n\n    // --------------------------------------------------------------------------------\n\n    /**\n    * @dev Set the slippage amount for each order being filled. Only the owner of this \n    * contract can call this function.\n    * @param _slippagePoints: This value divided by '_slippageBasePoints' gives the \n    * slippage percentage.\n    * @param _slippageBasePoints: Max amount of slippage points\n    */\n    function setSlippage(\n        uint256 _slippagePoints, \n        uint256 _slippageBasePoints\n    ) external onlyOwner {\n        _setSlippage(_slippagePoints, _slippageBasePoints);\n    }\n\n    // --------------------------------------------------------------------------------\n\n    /**\n    * @dev Configure Gelato settings. Enable/disable filling orders with Gelato. Only \n    * the owner of this contract can call this function.\n    * @param _pokeMe: Gelato contract that will call this contract\n    * @param _resolver: Contract that the Gelato executor will call for the input data\n    * used when calling this contract.\n    * @param _gelato: true: Gelato fills orders; false: Dev fills orders\n    */\n    function gelatoSettings(\n        IPokeMe _pokeMe, \n        IResolver _resolver, \n        bool _gelato\n    ) external onlyOwner {\n        PokeMe = _pokeMe;\n        Resolver = _resolver;\n        Gelato = _gelato;\n    }\n\n    // --------------------------------------------------------------------------------\n\n    /**\n    * @dev Deactivate an ERC20 token for a vault. Once a token is deactivated, it cannot\n    * be reactivated. Only the owner can call this function.\n    * @param _vaultId: Index of vault in 'vaults'\n    * @param _token: ERC20 token address  \n    */\n    function deactivateToken(uint256 _vaultId, address _token) external onlyOwner {\n        return vaults[_vaultId].deactivateToken(_token);\n    } \n\n    // --------------------------------------------------------------------------------\n\n    /**\n    * @dev Map a holding strategy contract to an ERC20 token. A token can only be mapped\n    * to holding strategy once. Only the owner of this contract can call this function.\n    * @param _vaultId: Index of vault in 'vaults'\n    * @param _token: ERC20 token address\n    * @param _strategy: Holding strategy contract\n    * @param _minDeposit: Minimum amount of '_token' that can be deposited when creating\n    * a trade. \n    */\n    function setTokenStrategy(\n        uint256 _vaultId, \n        address _token, \n        address _strategy, \n        uint256 _minDeposit\n    ) external onlyOwner {\n        // Map the holding strategy to the ERC20 token\n        vaults[_vaultId].setStrategy(_token, _strategy, _minDeposit);\n\n        // Add the holding strategy address if not already done\n        if(!_holdingStrategies[_strategy]) {\n            holdingStrategies.push(_strategy);\n            _holdingStrategies[_strategy] = true;\n        }\n    } \n\n    // --------------------------------------------------------------------------------\n\n    /**\n    * @dev Map multiple holding strategies to ERC20 tokens. A token can only be mapped\n    * to holding strategy once. Only the owner of this contract can call this function.\n    * @param _vaultId: Index of vault in 'vaults'\n    * @param _tokens: ERC20 token addresses\n    * @param _strategies: Holding strategy contracts\n    * @param _minDeposits: Minimum amount of '_tokens[n]' that can be deposited when \n    * creating a trade. \n    */\n    function setTokenStrategies(\n        uint256 _vaultId, \n        address[] memory _tokens, \n        address [] memory _strategies, \n        uint256 [] memory _minDeposits\n    ) external onlyOwner {\n        require(\n            _tokens.length == _strategies.length && _tokens.length == _minDeposits.length, \n            \"CornFi Controller: Invalid Lengths\"\n        );\n\n        for(uint i = 0; i < _tokens.length; i++) {\n            // Map the holding strategy to the ERC20 token\n            vaults[_vaultId].setStrategy(_tokens[i], _strategies[i], _minDeposits[i]);\n\n            // Add the holding strategy address if not already done\n            if(!_holdingStrategies[_strategies[i]]) {\n                holdingStrategies.push(_strategies[i]);\n                _holdingStrategies[_strategies[i]] = true;\n            }\n        }\n    } \n\n    // --------------------------------------------------------------------------------\n\n    /**\n    * @dev Change the minimum deposit amount for an ERC20 token when creating a trade.\n    * ERC20 token must already be mapped to a holding strategy before calling this\n    * function. Only the owner of this contract can call this function. \n    */\n    function changeTokenMinimumDeposit(\n        uint256 _vaultId, \n        address _token, \n        uint256 _minDeposit\n    ) external onlyOwner {              \n        vaults[_vaultId].changeMinimumDeposit(_token, _minDeposit);\n    }\n\n\n    // --------------------------------------------------------------------------------\n    // ///////////////////////////// Read-Only Functions //////////////////////////////\n    // --------------------------------------------------------------------------------\n\n    /**\n    * @notice Use to get the minimum amount out of a swap\n    * @param _amountIn: Amount of a given ERC20 token\n    * @return Adjusts '_amountIn' to account for slippage\n    */\n    function slippage(uint256 _amountIn) public view returns (uint256) {\n        return _amountIn.sub(_amountIn.mul(SLIPPAGE_POINTS).div(SLIPPAGE_BASE_POINTS));\n    }\n\n    // --------------------------------------------------------------------------------\n\n    /**\n    * @param _vault: Address of vault\n    * @return 0: Not added to this contract; 1 = Active vault; 2 = Deactivated vault\n    */\n    function vault(address _vault) public view returns (uint8) {\n        return _vaults[_vault];\n    }\n\n    // --------------------------------------------------------------------------------\n\n    /**\n    * @param _vault: Address of vault\n    * @return Reverse mapping vault address to index in 'vaults'\n    */\n    function vaultId(address _vault) public view returns (uint256) {\n        return _vaultIds[_vault];\n    }\n\n    // --------------------------------------------------------------------------------\n\n    /**\n    * @notice Includes active and added then deactivated vaults\n    * @return Number of added vaults \n    */\n    function vaultsLength() public view returns (uint256) {\n        return vaults.length;\n    }\n\n    // --------------------------------------------------------------------------------\n\n    /**\n    * @notice The prices used when creating trades need to be multiplied by the value\n    * returned from this function. This is done to handle the decimals.\n    * @param _vaultId: Index of vault in 'vaults'\n    * @return Value to multiply with the price \n    */\n    function priceMultiplier(uint256 _vaultId) external view returns (uint256) {\n        return vaults[_vaultId].PRICE_MULTIPLIER();\n    }\n\n    // --------------------------------------------------------------------------------\n    // //////////////////////// Vault State Changing Functions ////////////////////////\n    // --------------------------------------------------------------------------------\n\n    /**\n    * @notice Create a trade with one of the approved vaults. The format for '_tokens',\n    * '_amounts', and '_times' is specific to the vault. Refer to the vault being used\n    * to verify the correct data format. Trades are only created with active vaults.\n    * The strating amount of the trade is deposited upon creating a trade. A deposit fee\n    * is taken from the deposited amount. When Gelato is active, a task is created for\n    * each open order.\n    * @param _vaultId: Index of vault in 'vaults'\n    * @param _tokens: Specific to the vault used. Refer to vault documentation.\n    * @param _amounts: Specific to the vault used. Refer to vault documentation.\n    * @param _times: Specific to the vault used. Refer to vault documentation.\n    * @param _maxGas: In gwei. The maximum gas price that any order within this trade\n    * can be executed at.\n    */\n    function createTrade(\n        uint256 _vaultId, \n        address[] memory _tokens, \n        uint256[] memory _amounts, \n        uint[] memory _times, \n        uint256 _maxGas\n    ) external whenNotPaused nonReentrant {\n        // Active vaults only\n        require(\n            vault(address(vaults[_vaultId])) == ACTIVE_VAULT, \n            \"CornFi Controller: Inactive Vault\"\n        );\n\n        // Create a trade and get the created orders \n        uint256[] memory orderIds = vaults[_vaultId].createTrade(\n            msg.sender, \n            _tokens, \n            _amounts, \n            _times\n        );\n        IVaultBase.Order[] memory orders = _viewOrders(_vaultId, orderIds);\n\n        emit CreateTrade(msg.sender, _vaultId, orders[0].tokenId);\n\n        // Max gas price for when filling orders. Lower gas price saves the user ETH,\n        // but increases the risk that their orders will not get filled during network\n        // congestion.\n        tokenMaxGas[_vaultId][orders[0].tokenId] = _maxGas;\n\n        // When Gelato is active, create a task for the orders created. Gelato will monitor\n        // each order and execute when trade conditions are met.\n        _createGelatoTasks(msg.sender, _vaultId, orders);\n    }\n\n    // --------------------------------------------------------------------------------\n\n    /**\n    * @notice Fill open orders when trade conditions are met. Only Gelato executors\n    * can call this function. This function is the primary method used to fill orders. \n    * If Gelato is no longer used, orders are filled through calling 'fillOrder()'\n    * instead. Gelato executor will call 'checker()' in Resolver.sol first to get the \n    * router and path with the highest output amount. Gelato executor is refunded the \n    * gas cost from the ETH the order owner has deposited.\n    * @param _vaultId: Index of vault in 'vaults'\n    * @param _orderId: Order to fill\n    * @param _router: Router used to fill the order\n    * @param _path: Swap path used to fill the order\n    */\n    function fillOrderGelato(\n        uint256 _vaultId, \n        uint256 _orderId, \n        IUniswapV2Router02 _router, \n        address[] memory _path\n    ) external whenNotPaused onlyGelato nonReentrant {\n        // Order to fill\n        IVaultBase.Order memory _order = _viewOrder(_vaultId, _orderId);\n\n        _verifyOrder(_router, _vaultId, _order);\n\n        // Fill the order\n        (\n            IVaultBase.Order[] memory orders, \n            uint256[] memory filledOrders\n        ) = vaults[_vaultId].fillOrder(msg.sender, _orderId, _router, _path);\n\n        // Owner of the order being filled\n        address orderOwner = vaults[_vaultId].ownerOf(_order.tokenId);\n\n        emit FillOrder(orderOwner, _vaultId, _order.tokenId, _orderId);\n\n        _cancelGelatoTasks(_vaultId, filledOrders);       \n\n        _createGelatoTasks(orderOwner, _vaultId, orders);                                        \n\n        (uint256 fee, address feeToken) = PokeMe.getFeeDetails();\n        \n        // Check that the order owner has enough ETH deposited to cover the gas\n        require(\n            userGasAmounts[orderOwner] >= fee, \n            \"CornFi Controller: Insufficent User Gas Funds\"\n        );\n\n        // Subtract the gas spent from the order owners deposited amount of ETH\n        userGasAmounts[orderOwner] = userGasAmounts[orderOwner].sub(fee);\n\n        // Reimburse the caller for the gas spent filling the order\n        _transfer(fee, feeToken);\n    }\n\n    // --------------------------------------------------------------------------------\n\n    /**\n    * @notice Fill open orders when trade conditions are met. Only approved order fillers\n    * can call this function. This function will only be used if the use of Gelato is\n    * stopped. Call 'findBestPath()' in Resolver.sol first to get the router and path\n    * with the highest output amount. Caller is refunded the gas cost from the ETH the\n    * order owner has deposited.\n    * @param _vaultId: Index of vault in 'vaults'\n    * @param _orderId: Order to fill\n    * @param _router: Router used to fill the order\n    * @param _path: Swap path used to fill the order\n    */\n    function fillOrder(\n        uint256 _vaultId,\n        uint256 _orderId, \n        IUniswapV2Router02 _router, \n        address[] memory _path\n    ) external whenNotPaused onlyApprovedFillers nonReentrant {\n        // Starting amount of gas\n        uint256 startGas = gasleft();\n\n        // Order to fill\n        IVaultBase.Order memory _order = _viewOrder(_vaultId, _orderId);\n\n        _verifyOrder(_router, _vaultId, _order);\n\n        // Fill the order\n        (\n            IVaultBase.Order[] memory orders, \n            uint256[] memory filledOrders\n        ) = vaults[_vaultId].fillOrder(msg.sender, _orderId, _router, _path);                                                                                          \n\n        // Owner of the order being filled\n        address orderOwner = vaults[_vaultId].ownerOf(_order.tokenId);\n\n        emit FillOrder(orderOwner, _vaultId, _order.tokenId, _orderId);\n\n        _cancelGelatoTasks(_vaultId, filledOrders);\n\n        _createGelatoTasks(orderOwner, _vaultId, orders);                                  \n        \n        // Calculate the gas used for this tx.\n        // Add 30,000 gas to account for the remaining instructions\n        uint256 gasUsed = startGas.sub(gasleft()).add(30000);\n\n        // Calculate the amount of ETH used for gas\n        uint256 fee = gasUsed.mul(tx.gasprice);\n\n        // Check that the order owner has enough ETH deposited to cover the gas\n        require(\n            userGasAmounts[orderOwner] >= fee, \n            \"CornFi Controller: Insufficent User Gas Funds\"\n        );\n\n        // Subtract the gas spent from the order owners deposited amount of ETH\n        userGasAmounts[orderOwner] = userGasAmounts[orderOwner].sub(fee);\n\n        // Reimburse the caller for the gas spent filling the order\n        (bool success, ) = msg.sender.call{value: fee}(\"\");\n\n        // Check that the ETH transfer was successful\n        require(success, \"CornFi Controller: ETH transfer failed\");\n    }\n\n    // --------------------------------------------------------------------------------\n\n    /**\n    * @notice Withdraws the ERC20 tokens owned by a vault token and returns to the token\n    * owner. All open orders associated with the vault token are closed and the vault\n    * token is burnt.\n    * @param _vaultId: Index of vault in 'vaults'\n    * @param _tokenId: Vault token  \n    */\n    function withdraw(uint256 _vaultId, uint256 _tokenId) external nonReentrant {\n        // Get open orders for the vault token\n        IVaultBase.Order[] memory _orders = _viewOpenOrdersByToken(_vaultId, _tokenId);\n\n        // Cancel the tasks with Gelato \n        for(uint i = 0; i < _orders.length; i++) {\n            if(taskIds[_vaultId][_orders[i].orderId] != 0) {\n                PokeMe.cancelTask(taskIds[_vaultId][_orders[i].orderId]);\n            }\n        }\n\n        // Withdraw ERC20 tokens and burn vault token\n        vaults[_vaultId].withdraw(msg.sender, _tokenId);\n\n        emit Withdraw(msg.sender, _vaultId, _tokenId);\n    }\n\n    // --------------------------------------------------------------------------------\n\n    /**\n    * @notice Deposit ETH to pay for gas cost accrued from filling orders. ETH deposited\n    * is automatically taken from the order owners balance when their orders are filled.\n    * User is able to withdraw their balance of ETH at any point in time. This function\n    * is not callable when 'isPaused()' == true.\n    * @param _receiver: Address that is credited with the deposited ETH\n    */\n    function depositGas(address _receiver) external payable nonReentrant whenNotPaused {\n        // User can only deposit ETH. Amount to deposit is msg.value.\n        uint256 depositAmount = msg.value;\n\n        // Add the deposited ETH to the '_receiver' balance\n        userGasAmounts[_receiver] = userGasAmounts[_receiver].add(depositAmount);\n\n        emit DepositGas(_receiver, GasToken, depositAmount);\n    }\n\n    // --------------------------------------------------------------------------------\n\n    /**\n    * @notice Remove the deposited ETH balance of a user. Any amount of ETH not used to\n    * pay for gas is able to be withdrawn. Withdrawing ETH while still having open orders\n    * will result in the orders not being filled. A user must maintain a certian amount\n    * of ETH deposited to cover gas costs.  \n    */\n    function withdrawGas() external nonReentrant {\n        // Revert if the user does not have any deposited ETH\n        require(\n            userGasAmounts[msg.sender] > 0, \n            \"CornFi Controller: No User Funds to Withdraw\"\n        );\n\n        // Get the balance of ETH the user has deposited\n        uint256 amount = userGasAmounts[msg.sender];\n\n        // Set user ETH balance to '0'\n        delete userGasAmounts[msg.sender];\n\n        // Transfer ETH balance to the user\n        (bool success, ) = msg.sender.call{value: amount}(\"\");\n\n        // Revert if the transfer fails\n        require(success, \"CornFi Controller: ETH transfer failed\");\n    }\n\n\n    // --------------------------------------------------------------------------------\n    // ////////////////////////////// Internal Functions //////////////////////////////\n    // --------------------------------------------------------------------------------    \n\n    /**\n    * @dev Transfers the gas cost of filling an order to the Gelato executor. Payment\n    * token must be ETH.\n    * @param _amount: Amount of ETH to transfer\n    * @param _paymentToken: ETH or ERC20 token used to pay for gas costs  \n    */\n    function _transfer(uint256 _amount, address _paymentToken) internal {\n        require(_paymentToken == ETH, \"CornFi Controller: Invalid Payment Token\");\n        (bool success, ) = gelato.call{value: _amount}(\"\");\n        require(success, \"CornFi Controller: ETH transfer failed\");\n    }\n\n    // --------------------------------------------------------------------------------\n\n    /**\n    * @dev Whitelists an order filler and sets their state as active\n    * @param _filler: Address that will fill orders \n    */\n    function _addOrderFiller(address _filler) internal {\n        // 0 = order filler not whitelisted\n        require(\n            activeOrderFillers[_filler] == 0, \n            \"CornFi Controller: Invalid Order Filler\"\n        );\n\n        // Add the order filler\n        orderFillers.push(_filler);\n\n        // Set order filler state to active\n        activeOrderFillers[_filler] = 1;\n    }\n\n    // --------------------------------------------------------------------------------\n\n    /**\n    * @dev Whitelists a Uniswap V2 router for filling orders\n    * @param _router: Router address\n    */\n    function _addRouter(IUniswapV2Router02 _router) internal {\n        routers.push(_router);\n        activeRouters[_router] = true;\n    }\n\n    // --------------------------------------------------------------------------------\n\n    /**\n    * @dev Sets the slippage amount used when filling orders\n    * @param _slippagePoints: This value divided by '_slippageBasePoints' gives the \n    * slippage percentage.\n    * @param _slippageBasePoints: Max amount of slippage points\n    */\n    function _setSlippage(uint256 _slippagePoints, uint256 _slippageBasePoints) internal {\n        // Max slippage allowed is 2%\n        require(\n            _slippagePoints.mul(50) <= _slippageBasePoints, \n            \"CornFi Controller: Max Slippage Exceeded\"\n        );\n        SLIPPAGE_POINTS = _slippagePoints;\n        SLIPPAGE_BASE_POINTS = _slippageBasePoints;\n    }\n\n    // --------------------------------------------------------------------------------\n\n    /**\n    * OoOoOoOoOoOoOoOoOoOoOoOoOoOoOoOoOoOoOoOoOoOoOoOoOoOoOoOoOoOoOoOoOoOoOoOoOoOoOoOo\n    */\n    function _cancelGelatoTasks(uint256 _vaultId, uint256[] memory _orderIds) internal {\n        // If the order has an associated task ID, cancel the task\n        for(uint i = 0; i < _orderIds.length; i++) {   \n            if(taskIds[_vaultId][_orderIds[i]] != bytes32(0)) { \n                PokeMe.cancelTask(taskIds[_vaultId][_orderIds[i]]);     \n            }\n        }\n    }\n\n    // --------------------------------------------------------------------------------\n\n    /**\n    * OoOoOoOoOoOoOoOoOoOoOoOoOoOoOoOoOoOoOoOoOoOoOoOoOoOoOoOoOoOoOoOoOoOoOoOoOoOoOoOo\n    */\n    function _createGelatoTasks(\n        address _orderOwner, \n        uint256 _vaultId, \n        IVaultBase.Order[] memory _orders\n    ) internal {\n        // When using Gelato to fill orders.\n        // An order ID greater than '0' indicates a new order was created. Create a new\n        // task with Gelato to monitor and fill the created order.\n        if(Gelato) {\n            for(uint j = 0; j < _orders.length; j++) {                                                          \n                if(_orders[j].orderId != 0) {                                                            \n\n                    emit CreateOrder(_orderOwner, _vaultId, _orders[j].orderId);\n\n                    // Create a task with Gelato to monitor and fill the created order\n                    taskIds[_vaultId][_orders[j].orderId] = PokeMe.createTaskNoPrepayment(\n                        address(this), \n                        this.fillOrderGelato.selector, \n                        address(Resolver), \n                        abi.encodeWithSelector(\n                            Resolver.checker.selector, \n                            _vaultId, \n                            _orders[j].orderId, \n                            _orders[j].tokens[0], \n                            _orders[j].tokens[1], \n                            _orders[j].amounts[0]\n                        ),\n                        GasToken\n                    );\n                }\n            }     \n        }             \n    }\n\n    // --------------------------------------------------------------------------------\n    \n    /**\n    * OoOoOoOoOoOoOoOoOoOoOoOoOoOoOoOoOoOoOoOoOoOoOoOoOoOoOoOoOoOoOoOoOoOoOoOoOoOoOoOo\n    */\n    function _verifyOrder(\n        IUniswapV2Router02 _router, \n        uint256 _vaultId, \n        IVaultBase.Order memory _order\n    ) internal {\n        // Revert if the router is not whitelisted. \n        require(activeRouters[_router], \"CornFi Controller: Invalid Router\");\n\n        // When tokenMaxGas = 0, the order can be fill at any gas price.\n        // Otherwise, ensure that the gas price is below the user set max.\n        if(tokenMaxGas[_vaultId][_order.tokenId] > 0) {\n            require(\n                tx.gasprice <= tokenMaxGas[_vaultId][_order.tokenId], \n                \"CornFi Controller: Gas Price Too High\"\n            );\n        }\n    }\n\n    // --------------------------------------------------------------------------------\n\n    /**\n    * @notice View a single order. Order can be open or closed.\n    * @param _vaultId: Index of vault in 'vaults'\n    * @param _orderId: Order to view\n    * @return Order details \n    */\n    function _viewOrder(\n        uint256 _vaultId, \n        uint256 _orderId\n    ) internal view returns (IVaultBase.Order memory) {\n        return vaults[_vaultId].order(_orderId);\n    }\n\n    // --------------------------------------------------------------------------------\n\n    /**\n    * @notice View multiple orders. \n    * @param _vaultId: Index of vault in 'vaults'\n    * @param _orderIds: Orders to view\n    * @return Array of order details \n    */\n    function _viewOrders(\n        uint256 _vaultId, \n        uint256[] memory _orderIds\n    ) internal view returns (IVaultBase.Order[] memory) {\n        IVaultBase _vault = vaults[_vaultId];\n        IVaultBase.Order[] memory _orders = new IVaultBase.Order[](_orderIds.length);\n\n        // Loop through orders\n        for(uint i = 0; i < _orderIds.length; i++) {\n            _orders[i] = _vault.order(_orderIds[i]);\n        }\n        return _orders;\n    }\n\n    // --------------------------------------------------------------------------------\n\n    /**\n    * @param _vaultId: Index of vault in 'vaults'\n    * @param _tokenId: Vault token\n    * @return All open orders for a given vault token\n    */ \n    function _viewOpenOrdersByToken(\n        uint256 _vaultId, \n        uint256 _tokenId\n    ) internal view returns (IVaultBase.Order[] memory) {\n        IVaultBase _vault = vaults[_vaultId];\n\n        // Get number of open orders for a vault token\n        uint256 orderLength = _vault.tokenOpenOrdersLength(_tokenId);\n\n        IVaultBase.Order[] memory _orders = new IVaultBase.Order[](orderLength);\n\n        // Loop through open orders\n        for(uint i = 0; i < orderLength; i++) {\n            _orders[i] = _vault.order(_vault.tokenOpenOrderId(_tokenId, i));\n        }\n        return _orders;\n    }\n}","sourcePath":"contracts/Controller.sol","type":"contract","deployment":{"address":"0x343c151D8244C64a7e676A42b50259cCfdB95c4A","chainid":"137","blockHeight":26323349}}