{"abi":[{"inputs":[{"internalType":"contract IController","name":"_controller","type":"address"}],"stateMutability":"nonpayable","type":"constructor","name":"constructor"},{"anonymous":false,"inputs":[{"indexed":true,"internalType":"address","name":"token","type":"address"},{"indexed":false,"internalType":"uint256","name":"amount","type":"uint256"}],"name":"Claim","type":"event"},{"anonymous":false,"inputs":[{"indexed":true,"internalType":"address","name":"vault","type":"address"},{"indexed":true,"internalType":"address","name":"token","type":"address"},{"indexed":false,"internalType":"uint256","name":"amount","type":"uint256"}],"name":"Deposit","type":"event"},{"anonymous":false,"inputs":[{"indexed":true,"internalType":"address","name":"previousOwner","type":"address"},{"indexed":true,"internalType":"address","name":"newOwner","type":"address"}],"name":"OwnershipTransferred","type":"event"},{"anonymous":false,"inputs":[{"indexed":false,"internalType":"address","name":"token","type":"address"},{"indexed":false,"internalType":"address","name":"amToken","type":"address"}],"name":"TokenAdded","type":"event"},{"anonymous":false,"inputs":[{"indexed":true,"internalType":"address","name":"vault","type":"address"},{"indexed":true,"internalType":"address","name":"token","type":"address"},{"indexed":false,"internalType":"uint256","name":"amount","type":"uint256"}],"name":"Withdraw","type":"event"},{"inputs":[],"name":"DEPOSIT_FEE_BASE_POINTS","outputs":[{"internalType":"uint256","name":"","type":"uint256"}],"stateMutability":"view","type":"function"},{"inputs":[],"name":"DEPOSIT_FEE_POINTS","outputs":[{"internalType":"uint256","name":"","type":"uint256"}],"stateMutability":"view","type":"function"},{"inputs":[],"name":"LendingPool","outputs":[{"internalType":"contract IAaveStakeV3","name":"","type":"address"}],"stateMutability":"view","type":"function"},{"inputs":[],"name":"Rebalancer","outputs":[{"internalType":"address","name":"","type":"address"}],"stateMutability":"view","type":"function"},{"inputs":[],"name":"Rewards","outputs":[{"internalType":"contract IAaveStakeV3","name":"","type":"address"}],"stateMutability":"view","type":"function"},{"inputs":[],"name":"TX_FEE_BASE_POINTS","outputs":[{"internalType":"uint256","name":"","type":"uint256"}],"stateMutability":"view","type":"function"},{"inputs":[],"name":"TX_FEE_POINTS","outputs":[{"internalType":"uint256","name":"","type":"uint256"}],"stateMutability":"view","type":"function"},{"inputs":[{"internalType":"uint256","name":"","type":"uint256"}],"name":"aaveMarketTokens","outputs":[{"internalType":"address","name":"","type":"address"}],"stateMutability":"view","type":"function"},{"inputs":[{"components":[{"internalType":"address","name":"token","type":"address"},{"internalType":"address","name":"amToken","type":"address"}],"internalType":"struct AAVEV3Strategy.Tokens","name":"_token","type":"tuple"}],"name":"addToken","outputs":[],"stateMutability":"nonpayable","type":"function"},{"inputs":[],"name":"claim","outputs":[],"stateMutability":"nonpayable","type":"function"},{"inputs":[],"name":"controller","outputs":[{"internalType":"contract IController","name":"","type":"address"}],"stateMutability":"view","type":"function"},{"inputs":[{"internalType":"address","name":"_from","type":"address"},{"internalType":"address","name":"_token","type":"address"},{"internalType":"uint256","name":"_amount","type":"uint256"}],"name":"deposit","outputs":[],"stateMutability":"nonpayable","type":"function"},{"inputs":[{"internalType":"uint256","name":"_amountIn","type":"uint256"}],"name":"depositFee","outputs":[{"internalType":"uint256","name":"","type":"uint256"}],"stateMutability":"view","type":"function"},{"inputs":[],"name":"feeAddress","outputs":[{"internalType":"address","name":"","type":"address"}],"stateMutability":"view","type":"function"},{"inputs":[],"name":"owner","outputs":[{"internalType":"address","name":"","type":"address"}],"stateMutability":"view","type":"function"},{"inputs":[],"name":"rebalanceBasePoints","outputs":[{"internalType":"uint256","name":"","type":"uint256"}],"stateMutability":"view","type":"function"},{"inputs":[],"name":"rebalancePoints","outputs":[{"internalType":"uint256","name":"","type":"uint256"}],"stateMutability":"view","type":"function"},{"inputs":[{"internalType":"address","name":"_token","type":"address"}],"name":"rebalanceToken","outputs":[],"stateMutability":"nonpayable","type":"function"},{"inputs":[],"name":"renounceOwnership","outputs":[],"stateMutability":"nonpayable","type":"function"},{"inputs":[],"name":"rewardToken","outputs":[{"internalType":"address","name":"","type":"address"}],"stateMutability":"view","type":"function"},{"inputs":[{"internalType":"address","name":"","type":"address"}],"name":"tokenToAm","outputs":[{"internalType":"address","name":"","type":"address"}],"stateMutability":"view","type":"function"},{"inputs":[{"internalType":"uint256","name":"","type":"uint256"}],"name":"tokens","outputs":[{"internalType":"address","name":"","type":"address"}],"stateMutability":"view","type":"function"},{"inputs":[{"internalType":"address","name":"","type":"address"}],"name":"totalDeposits","outputs":[{"internalType":"uint256","name":"","type":"uint256"}],"stateMutability":"view","type":"function"},{"inputs":[{"internalType":"address","name":"newOwner","type":"address"}],"name":"transferOwnership","outputs":[],"stateMutability":"nonpayable","type":"function"},{"inputs":[{"internalType":"uint256","name":"_amountIn","type":"uint256"}],"name":"txFee","outputs":[{"internalType":"uint256","name":"","type":"uint256"}],"stateMutability":"view","type":"function"},{"inputs":[{"internalType":"address","name":"","type":"address"},{"internalType":"address","name":"","type":"address"}],"name":"vaultDeposits","outputs":[{"internalType":"uint256","name":"","type":"uint256"}],"stateMutability":"view","type":"function"},{"inputs":[{"internalType":"address","name":"_from","type":"address"},{"internalType":"address","name":"_token","type":"address"},{"internalType":"uint256","name":"_amount","type":"uint256"}],"name":"withdraw","outputs":[],"stateMutability":"nonpayable","type":"function"}],"bytecode":"6101206040523480156200001257600080fd5b50604051620026a4380380620026a483398101604081905262000035916200068d565b8060006103e88181338280806200004b6200050f565b600080546001600160a01b0319166001600160a01b0383169081178255604051929350917f8be0079c531659141344cd1fd0a4f28419497f9722a3daafe3b4186f6b6457e0908290a3506001600160601b0319606089901b1660805260a087905260c086905260e0859052610100849052620000c983838362000513565b5050505050505050620000db62000645565b506040805161024081018252738f3cf7ad23cd3cadbd9735aff958023239c6a06361020082019081527382e64f49ed5ec1bc6e43dad4fc8af9bb3a2312ee610220830152815281518083018352732791bca1f2de4661ed88a30c99a7a9449aa84174815273625e7708f30ca75bfd92586e17077590c60eb4cd602082810191909152808301919091528251808401845273c2132d05d31c914a87c6611c10748aeb04b58e8f8152736ab707aca953edaefbc4fd23ba73294241490620818301528284015282518084018452731bfd67037b42cf73acf2047067bd4f2c47d9bfd6815273078f358208685046a11c85e8ad32895ded33a24981830152606083015282518084018452737ceb23fd6bc0add59e62ac25578270cff1b9f619815273e50fa9b3c56ffb159cb0fca61f5c9d750e8128c881830152608083015282518084018452730d500b1d8e8ef31e21c99d1db9a6444d3adf12708152736d80113e533a2c0fe82eabd35f1875dcea89ea978183015260a0830152825180840184527385955046df4668e1dd369d2de9f3aeb98dd2a369815273724dc807b04555b71ed48a6896b6f41593b8c6378183015260c08301528251808401845273172370d5cd63279efa6d502dab29171933a610af815273513c7e3a9c69ca3e22550ef58ac1c0088e918fff8183015260e0830152825180840184527353e0bca35ec356bd5dddfebbd1fc0fd03fabad39815273191c10aa4af7c30e871e70c95db0e4eb772375308183015261010083015282518084018452730b3f868e0be5597d5db7feb59e1cadbb0fdda50a815273c45a479877e1e9dfe9fcd4056c699575a1045daa8183015261012083015282518084018452739a71012b13ca4d3d0cdc72a177df3ef03b0e76a38152738ffdf2de812095b1d19cb146e4c004587c0a0692818301526101408301528251808401845273385eeac5cb85a38a9a07a70c73e0a3271cfb54a78152738eb270e296023e9d92081fdf967ddd7878724424818301526101608301528251808401845273d6df932a45c0f255f85145f286ea0b292b21c90b815273f329e36c7bf6e5e86ce2150875a84ce77f477375818301526101808301528251808401845273e111178a87a3bff0c8d18decba5798827539ae9981527338d693ce1df5aadf7bc62595a37d667ad57922e5818301526101a083015282518084018452734e3decbb3645551b8a19f0ea1678079fcb33fb4c8152736533afac2e7bccb20dca161449a13a32d391fb00818301526101c0830152825180840190935273e0b52e49357fd4daf2c15e02058dce6bc0057db48352738437d7c167dfb82ed4cb79cd44b7a32a1dd95c77908301526101e081019190915260005b60108110156200050657620004fd828260108110620004d557fe5b602002015151838360108110620004e857fe5b6020020151602001516200056660201b60201c565b600101620004ba565b50505062000724565b3390565b600380546001600160a01b0319166001600160a01b038516179055808211156200055a5760405162461bcd60e51b81526004016200055190620006d7565b60405180910390fd5b60049190915560055550565b6001600160a01b0380831660008181526008602052604080822080549486166001600160a01b031995861681179091556006805460018181019092557ff652222313e28459528d920b65115c16c04f3efc82aaedc97be59f3f377c0d3f01805487169095179094556007805494850181559092527fa66cc928b5edb82af9bd49922954155ab7b0942694bea4ce44661d9a8736c688909201805490931617909155517fdffbd9ded1c09446f09377de547142dcce7dc541c8b0b028142b1eba7026b9e790620006399084908490620006bd565b60405180910390a15050565b6040518061020001604052806010905b6200065f62000676565b815260200190600190039081620006555790505090565b604080518082019091526000808252602082015290565b6000602082840312156200069f578081fd5b81516001600160a01b0381168114620006b6578182fd5b9392505050565b6001600160a01b0392831681529116602082015260400190565b6020808252602d908201527f436f726e466920537472617465677920426173653a20496e76616c696420526560408201526c62616c616e636520526174696f60981b606082015260800190565b60805160601c60a05160c05160e05161010051611f0b62000799600039806105265280610c145250806104fd528061054b528061090e5250806103745280610e5e52508061034b528061039952806103d552508061066352806106f75280610c385280610ccc5280610f625250611f0b6000f3fe608060405234801561001057600080fd5b50600436106101a95760003560e01c80639814278e116100f9578063d9caed1211610097578063f2fde38b11610071578063f2fde38b14610304578063f575993b14610317578063f77c47911461031f578063f7c618c114610327576101a9565b8063d9caed12146102d6578063d9f2613e146102e9578063e9403256146102f1576101a9565b8063c2808954116100d3578063c2808954146102a0578063d342c402146102a8578063d656c16a146102bb578063d7eedd5e146102ce576101a9565b80639814278e1461027d578063a487139414610285578063b363b1c81461028d576101a9565b80635f6501ab11610166578063715018a611610140578063715018a61461025257806377a430ea1461025a5780638340f549146102625780638da5cb5b14610275576101a9565b80635f6501ab146102245780636a117e61146102375780636d880f521461023f576101a9565b806341275358146101ae578063423c485a146101cc5780634c46eaaa146101ec5780634e71d92d146101f45780634f64b2be146101fe5780635017f9fb14610211575b600080fd5b6101b661032f565b6040516101c391906118bd565b60405180910390f35b6101df6101da366004611850565b610347565b6040516101c39190611e44565b6101df6103d3565b6101fc6103f7565b005b6101b661020c366004611850565b6104d2565b6101df61021f366004611850565b6104f9565b6101df6102323660046116b4565b61056f565b6101df61058c565b6101fc61024d36600461180e565b610592565b6101fc6105dc565b6101df61065b565b6101fc6102703660046116ec565b610661565b6101b66108fd565b6101df61090c565b6101b6610930565b6101b661029b366004611850565b61093f565b6101b661094c565b6101b66102b6366004611698565b610964565b6101fc6102c9366004611698565b61097f565b6101df610c12565b6101fc6102e43660046116ec565b610c36565b6101df610e5c565b6101df6102ff366004611698565b610e80565b6101fc610312366004611698565b610e92565b6101b6610f48565b6101b6610f60565b6101b6610f84565b7322b20054bbd6dc5c23d7c7595e092ca728a00c3281565b60007f0000000000000000000000000000000000000000000000000000000000000000156103ca576103c37f00000000000000000000000000000000000000000000000000000000000000006103bd847f0000000000000000000000000000000000000000000000000000000000000000610f9c565b90610fdf565b90506103ce565b5060005b919050565b7f000000000000000000000000000000000000000000000000000000000000000081565b6003546001600160a01b0316331461042a5760405162461bcd60e51b815260040161042190611b19565b60405180910390fd5b60405163bb492bf560e01b815273929ec64c34a17401f460460d4b9390518e5b473e9063bb492bf590610478906007907322b20054bbd6dc5c23d7c7595e092ca728a00c3290600401611978565b600060405180830381600087803b15801561049257600080fd5b505af11580156104a6573d6000803e3d6000fd5b505050506040513d6000823e601f3d908101601f191682016040526104ce919081019061172c565b5050565b600681815481106104df57fe5b6000918252602090912001546001600160a01b0316905081565b60007f0000000000000000000000000000000000000000000000000000000000000000156103ca576103c37f00000000000000000000000000000000000000000000000000000000000000006103bd847f0000000000000000000000000000000000000000000000000000000000000000610f9c565b600260209081526000928352604080842090915290825290205481565b60055481565b61059a611021565b6000546001600160a01b039081169116146105c75760405162461bcd60e51b815260040161042190611c64565b6105d981600001518260200151611025565b50565b6105e4611021565b6000546001600160a01b039081169116146106115760405162461bcd60e51b815260040161042190611c64565b600080546040516001600160a01b03909116907f8be0079c531659141344cd1fd0a4f28419497f9722a3daafe3b4186f6b6457e0908390a3600080546001600160a01b0319169055565b60045481565b7f00000000000000000000000000000000000000000000000000000000000000006001600160a01b031663bcb5703d6040518163ffffffff1660e01b815260040160206040518083038186803b1580156106ba57600080fd5b505afa1580156106ce573d6000803e3d6000fd5b505050506040513d601f19601f820116820180604052508101906106f29190611880565b60ff167f00000000000000000000000000000000000000000000000000000000000000006001600160a01b031663f815c03d336040518263ffffffff1660e01b815260040161074191906118bd565b60206040518083038186803b15801561075957600080fd5b505afa15801561076d573d6000803e3d6000fd5b505050506040513d601f19601f820116820180604052508101906107919190611880565b60ff16146107b15760405162461bcd60e51b815260040161042190611ced565b6001600160a01b03828116600090815260086020526040902054166107e85760405162461bcd60e51b815260040161042190611d3d565b6107f3838383611102565b60405163095ea7b360e01b81526001600160a01b0383169063095ea7b3906108359073794a61358d6845594f94dc1db02a252b5b4814ad90859060040161190f565b602060405180830381600087803b15801561084f57600080fd5b505af1158015610863573d6000803e3d6000fd5b505050506040513d601f19601f8201168201806040525081019061088791906117ee565b5060405163617ba03760e01b815273794a61358d6845594f94dc1db02a252b5b4814ad9063617ba037906108c69085908590309060009060040161194b565b600060405180830381600087803b1580156108e057600080fd5b505af11580156108f4573d6000803e3d6000fd5b50505050505050565b6000546001600160a01b031690565b7f000000000000000000000000000000000000000000000000000000000000000081565b6003546001600160a01b031681565b600781815481106104df57fe5b73929ec64c34a17401f460460d4b9390518e5b473e81565b6008602052600090815260409020546001600160a01b031681565b6003546001600160a01b031633146109a95760405162461bcd60e51b815260040161042190611b19565b6001600160a01b0380821660009081526001602090815260408083205460089092528083205490516370a0823160e01b81529293610a4e939116906370a08231906109f89030906004016118bd565b60206040518083038186803b158015610a1057600080fd5b505afa158015610a24573d6000803e3d6000fd5b505050506040513d601f19601f82011682018060405250810190610a489190611868565b906112d0565b90508015610bfa57604051631a4ca37b60e21b815273794a61358d6845594f94dc1db02a252b5b4814ad906369328dec90610aa590859085907322b20054bbd6dc5c23d7c7595e092ca728a00c3290600401611928565b602060405180830381600087803b158015610abf57600080fd5b505af1158015610ad3573d6000803e3d6000fd5b505050506040513d601f19601f82011682018060405250810190610af79190611868565b506001600160a01b038083166000908152600160209081526040808320546008909252918290205491516370a0823160e01b8152909291909116906370a0823190610b469030906004016118bd565b60206040518083038186803b158015610b5e57600080fd5b505afa158015610b72573d6000803e3d6000fd5b505050506040513d601f19601f82011682018060405250810190610b969190611868565b1015610bb45760405162461bcd60e51b815260040161042190611dca565b816001600160a01b03167f47cee97cb7acd717b3c0aa1435d004cd5b3c8c57d70dbceb4e4458bbd60e39d482604051610bed9190611e44565b60405180910390a26104ce565b60405162461bcd60e51b815260040161042190611acd565b7f000000000000000000000000000000000000000000000000000000000000000081565b7f00000000000000000000000000000000000000000000000000000000000000006001600160a01b03166324e702ed6040518163ffffffff1660e01b815260040160206040518083038186803b158015610c8f57600080fd5b505afa158015610ca3573d6000803e3d6000fd5b505050506040513d601f19601f82011682018060405250810190610cc79190611880565b60ff167f00000000000000000000000000000000000000000000000000000000000000006001600160a01b031663f815c03d336040518263ffffffff1660e01b8152600401610d1691906118bd565b60206040518083038186803b158015610d2e57600080fd5b505afa158015610d42573d6000803e3d6000fd5b505050506040513d601f19601f82011682018060405250810190610d669190611880565b60ff161415610d875760405162461bcd60e51b815260040161042190611bda565b6001600160a01b0382811660009081526008602052604090205416610dbe5760405162461bcd60e51b815260040161042190611d3d565b610dc9838383611312565b604051631a4ca37b60e21b815273794a61358d6845594f94dc1db02a252b5b4814ad906369328dec90610e0490859085908890600401611928565b602060405180830381600087803b158015610e1e57600080fd5b505af1158015610e32573d6000803e3d6000fd5b505050506040513d601f19601f82011682018060405250810190610e569190611868565b50505050565b7f000000000000000000000000000000000000000000000000000000000000000081565b60016020526000908152604090205481565b610e9a611021565b6000546001600160a01b03908116911614610ec75760405162461bcd60e51b815260040161042190611c64565b6001600160a01b038116610eed5760405162461bcd60e51b815260040161042190611a0d565b600080546040516001600160a01b03808516939216917f8be0079c531659141344cd1fd0a4f28419497f9722a3daafe3b4186f6b6457e091a3600080546001600160a01b0319166001600160a01b0392909216919091179055565b73794a61358d6845594f94dc1db02a252b5b4814ad81565b7f000000000000000000000000000000000000000000000000000000000000000081565b730d500b1d8e8ef31e21c99d1db9a6444d3adf127081565b600082610fab57506000610fd9565b82820282848281610fb857fe5b0414610fd65760405162461bcd60e51b815260040161042190611c23565b90505b92915050565b6000610fd683836040518060400160405280601a81526020017f536166654d6174683a206469766973696f6e206279207a65726f00000000000081525061141e565b3390565b6001600160a01b0380831660008181526008602052604080822080549486166001600160a01b031995861681179091556006805460018181019092557ff652222313e28459528d920b65115c16c04f3efc82aaedc97be59f3f377c0d3f01805487169095179094556007805494850181559092527fa66cc928b5edb82af9bd49922954155ab7b0942694bea4ce44661d9a8736c688909201805490931617909155517fdffbd9ded1c09446f09377de547142dcce7dc541c8b0b028142b1eba7026b9e7906110f690849084906118d1565b60405180910390a15050565b80156112b3576040516370a0823160e01b815282906000906001600160a01b038316906370a08231906111399030906004016118bd565b60206040518083038186803b15801561115157600080fd5b505afa158015611165573d6000803e3d6000fd5b505050506040513d601f19601f820116820180604052508101906111899190611868565b90506111a06001600160a01b038316863086611455565b826111d182846001600160a01b03166370a08231306040518263ffffffff1660e01b81526004016109f891906118bd565b146111ee5760405162461bcd60e51b815260040161042190611a53565b6001600160a01b03841660009081526001602052604090205461121190846114ad565b6001600160a01b0385166000818152600160209081526040808320949094553382526002815283822092825291909152205461124d90846114ad565b3360008181526002602090815260408083206001600160a01b038a1680855292529182902093909355517f5548c837ab068cf56a2c2479df0882a4922fd203edb7517321831d95078c5f62906112a4908790611e44565b60405180910390a350506112cb565b60405162461bcd60e51b815260040161042190611b92565b505050565b6000610fd683836040518060400160405280601e81526020017f536166654d6174683a207375627472616374696f6e206f766572666c6f7700008152506114d2565b3360009081526002602090815260408083206001600160a01b03861684529091529020548111156113555760405162461bcd60e51b815260040161042190611c99565b80156112cb576001600160a01b03821660009081526001602052604090205461137e90826112d0565b6001600160a01b038316600081815260016020908152604080832094909455338252600281528382209282529190915220546113ba90826112d0565b3360008181526002602090815260408083206001600160a01b03881680855292529182902093909355517f9b1bfa7fa9ee420a16e124f794c35ac9f90472acc99140eb2f6447c714cad8eb90611411908590611e44565b60405180910390a3505050565b6000818361143f5760405162461bcd60e51b815260040161042191906119da565b50600083858161144b57fe5b0495945050505050565b610e56846323b872dd60e01b858585604051602401611476939291906118eb565b60408051601f198184030181529190526020810180516001600160e01b03166001600160e01b0319909316929092179091526114fe565b600082820183811015610fd65760405162461bcd60e51b815260040161042190611a96565b600081848411156114f65760405162461bcd60e51b815260040161042191906119da565b505050900390565b611510826001600160a01b03166115e3565b61152c5760405162461bcd60e51b815260040161042190611e0d565b60006060836001600160a01b03168360405161154891906118a1565b6000604051808303816000865af19150503d8060008114611585576040519150601f19603f3d011682016040523d82523d6000602084013e61158a565b606091505b5091509150816115ac5760405162461bcd60e51b815260040161042190611b5d565b805115610e5657808060200190518101906115c791906117ee565b610e565760405162461bcd60e51b815260040161042190611d80565b6000813f7fc5d2460186f7233c927e7db2dcc703c0e500b653ca82273b7bfad8045d85a47081811480159061161757508115155b949350505050565b8051610fd981611ec0565b600082601f83011261163a578081fd5b815161164d61164882611e74565b611e4d565b81815291506020808301908481018184028601820187101561166e57600080fd5b60005b8481101561168d57815184529282019290820190600101611671565b505050505092915050565b6000602082840312156116a9578081fd5b8135610fd681611ec0565b600080604083850312156116c6578081fd5b82356116d181611ec0565b915060208301356116e181611ec0565b809150509250929050565b600080600060608486031215611700578081fd5b833561170b81611ec0565b9250602084013561171b81611ec0565b929592945050506040919091013590565b6000806040838503121561173e578182fd5b825167ffffffffffffffff80821115611755578384fd5b818501915085601f830112611768578384fd5b815161177661164882611e74565b80828252602080830192508086018a828387028901011115611796578889fd5b8896505b848710156117c0576117ac8b8261161f565b84526001969096019592810192810161179a565b5088015190965093505050808211156117d7578283fd5b506117e48582860161162a565b9150509250929050565b6000602082840312156117ff578081fd5b81518015158114610fd6578182fd5b60006040828403121561181f578081fd5b6118296040611e4d565b823561183481611ec0565b8152602083013561184481611ec0565b60208201529392505050565b600060208284031215611861578081fd5b5035919050565b600060208284031215611879578081fd5b5051919050565b600060208284031215611891578081fd5b815160ff81168114610fd6578182fd5b600082516118b3818460208701611e94565b9190910192915050565b6001600160a01b0391909116815260200190565b6001600160a01b0392831681529116602082015260400190565b6001600160a01b039384168152919092166020820152604081019190915260600190565b6001600160a01b03929092168252602082015260400190565b6001600160a01b0393841681526020810192909252909116604082015260600190565b6001600160a01b03948516815260208101939093529216604082015261ffff909116606082015260800190565b6000604082016040835280855480835260608501915086845260209250828420845b828110156119bf5781546001600160a01b03168452928401926001918201910161199a565b5050506001600160a01b039490941692019190915250919050565b60006020825282518060208401526119f9816040850160208701611e94565b601f01601f19169190910160400192915050565b60208082526026908201527f4f776e61626c653a206e6577206f776e657220697320746865207a65726f206160408201526564647265737360d01b606082015260800190565b60208082526023908201527f436f726e466920537472617465677920426173653a204465706f7369742045726040820152623937b960e91b606082015260800190565b6020808252601b908201527f536166654d6174683a206164646974696f6e206f766572666c6f770000000000604082015260600190565b6020808252602c908201527f436f726e466920414156452053747261746567793a20546f6b656e20416c726560408201526b18591e4810985b185b98d95960a21b606082015260800190565b60208082526024908201527f436f726e466920537472617465677920426173653a20496e76616c6964204361604082015263363632b960e11b606082015260800190565b6020808252818101527f5361666545524332303a206c6f772d6c6576656c2063616c6c206661696c6564604082015260600190565b60208082526028908201527f436f726e466920537472617465677920426173653a204465706f73697420416d6040820152676f756e742027302760c01b606082015260800190565b60208082526029908201527f436f726e466920537472617465677920426173653a205661756c74204f6e6c7960408201526810233ab731ba34b7b760b91b606082015260800190565b60208082526021908201527f536166654d6174683a206d756c7469706c69636174696f6e206f766572666c6f6040820152607760f81b606082015260800190565b6020808252818101527f4f776e61626c653a2063616c6c6572206973206e6f7420746865206f776e6572604082015260600190565b60208082526034908201527f436f726e466920537472617465677920426173653a205661756c742057697468604082015273191c985dc8105b5bdd5b9d08115e18d95959195960621b606082015260800190565b60208082526030908201527f436f726e466920537472617465677920426173653a204163746976652056617560408201526f363a1027b7363c90233ab731ba34b7b760811b606082015260800190565b60208082526023908201527f436f726e466920414156452053747261746567793a20496e76616c696420546f60408201526235b2b760e91b606082015260800190565b6020808252602a908201527f5361666545524332303a204552433230206f7065726174696f6e20646964206e6040820152691bdd081cdd58d8d9595960b21b606082015260800190565b60208082526023908201527f436f726e466920414156452053747261746567793a2042616c616e63652045726040820152623937b960e91b606082015260800190565b6020808252601f908201527f5361666545524332303a2063616c6c20746f206e6f6e2d636f6e747261637400604082015260600190565b90815260200190565b60405181810167ffffffffffffffff81118282101715611e6c57600080fd5b604052919050565b600067ffffffffffffffff821115611e8a578081fd5b5060209081020190565b60005b83811015611eaf578181015183820152602001611e97565b83811115610e565750506000910152565b6001600160a01b03811681146105d957600080fdfea26469706673582212202b8e278eca508db98a6e92ce61084a62c54668f70812cc32479f3a1c1bb1f8b364736f6c634300060c0033","bytecodeSha1":"57fb8c4133837505fb71d97fede583d02f3ab14d","compiler":{"evm_version":"istanbul","optimizer":{"enabled":true,"runs":200},"version":"0.6.12+commit.27d51765"},"contractName":"AAVEV3Strategy","language":"Solidity","natspec":{"author":"C.W.B.","kind":"dev","methods":{"addToken((address,address))":{"details":"Use to add an ERC20 token and its respective AAVE market token. Only add tokens that can be deposited into AAVE. This function is restricted to only the owner of this contract.","params":{"_token":": Tokens(ERC20 token address, AAVE market token equivalent)"}},"claim()":{"details":"Claim AAVE WMATIC incentive rewards from staking ERC20 tokens. Sends rewards to the dev wallet. "},"constructor":{"params":{"_controller":": Corn Finance Controller contract "}},"deposit(address,address,uint256)":{"details":"Only currently active vaults can deposits tokens into this holding strategy. This function can only be called from one of the approved vaults added to the Controller contract. Tokens are deposited into holding strategies when calling 'createTrade()' and 'fillOrder()' in the Controller contract.","params":{"_amount":": Amount of '_token' to deposit","_from":": Vault token owner","_token":": ERC20 token address"}},"depositFee(uint256)":{"params":{"_amountIn":": Amount of an ERC20 token"},"returns":{"_0":"The corresponding deposit fee amount "}},"owner()":{"details":"Returns the address of the current owner."},"rebalanceToken(address)":{"details":"Rebalance an ERC20 token held within this strategy. Claims the difference between the token balance of the contract and the total deposits of the token. Use to claim the interest made from staking tokens in AAVE.","params":{"_token":": ERC20 token address to rebalance"}},"renounceOwnership()":{"details":"Leaves the contract without owner. It will not be possible to call `onlyOwner` functions anymore. Can only be called by the current owner. NOTE: Renouncing ownership will leave the contract without an owner, thereby removing any functionality that is only available to the owner."},"transferOwnership(address)":{"details":"Transfers ownership of the contract to a new account (`newOwner`). Can only be called by the current owner."},"txFee(uint256)":{"params":{"_amountIn":": Amount of an ERC20 token"},"returns":{"_0":"The corresponding transaction fee amount "}},"withdraw(address,address,uint256)":{"details":"Any vault that has deposited tokens into this strategy can withdraw their tokens even after a vault is deactivated. This function can only be called from  one of the approved vaults added to the Controller contract. Users are only able to withdraw tokens from a holding strategy through withdrawing their vault token by calling 'withdraw()' in the Controller contract.","params":{"_amount":": Amount of '_token' to withdraw","_from":": Vault token owner","_token":": ERC20 token address"}}},"title":"Corn Finance AAVE Holding Strategy","version":1},"opcodes":"PUSH1 0x80 PUSH1 0x40 MSTORE CALLVALUE DUP1 ISZERO PUSH2 0x10 JUMPI PUSH1 0x0 DUP1 REVERT JUMPDEST POP PUSH1 0x4 CALLDATASIZE LT PUSH2 0x1A9 JUMPI PUSH1 0x0 CALLDATALOAD PUSH1 0xE0 SHR DUP1 PUSH4 0x9814278E GT PUSH2 0xF9 JUMPI DUP1 PUSH4 0xD9CAED12 GT PUSH2 0x97 JUMPI DUP1 PUSH4 0xF2FDE38B GT PUSH2 0x71 JUMPI DUP1 PUSH4 0xF2FDE38B EQ PUSH2 0x304 JUMPI DUP1 PUSH4 0xF575993B EQ PUSH2 0x317 JUMPI DUP1 PUSH4 0xF77C4791 EQ PUSH2 0x31F JUMPI DUP1 PUSH4 0xF7C618C1 EQ PUSH2 0x327 JUMPI PUSH2 0x1A9 JUMP JUMPDEST DUP1 PUSH4 0xD9CAED12 EQ PUSH2 0x2D6 JUMPI DUP1 PUSH4 0xD9F2613E EQ PUSH2 0x2E9 JUMPI DUP1 PUSH4 0xE9403256 EQ PUSH2 0x2F1 JUMPI PUSH2 0x1A9 JUMP JUMPDEST DUP1 PUSH4 0xC2808954 GT PUSH2 0xD3 JUMPI DUP1 PUSH4 0xC2808954 EQ PUSH2 0x2A0 JUMPI DUP1 PUSH4 0xD342C402 EQ PUSH2 0x2A8 JUMPI DUP1 PUSH4 0xD656C16A EQ PUSH2 0x2BB JUMPI DUP1 PUSH4 0xD7EEDD5E EQ PUSH2 0x2CE JUMPI PUSH2 0x1A9 JUMP JUMPDEST DUP1 PUSH4 0x9814278E EQ PUSH2 0x27D JUMPI DUP1 PUSH4 0xA4871394 EQ PUSH2 0x285 JUMPI DUP1 PUSH4 0xB363B1C8 EQ PUSH2 0x28D JUMPI PUSH2 0x1A9 JUMP JUMPDEST DUP1 PUSH4 0x5F6501AB GT PUSH2 0x166 JUMPI DUP1 PUSH4 0x715018A6 GT PUSH2 0x140 JUMPI DUP1 PUSH4 0x715018A6 EQ PUSH2 0x252 JUMPI DUP1 PUSH4 0x77A430EA EQ PUSH2 0x25A JUMPI DUP1 PUSH4 0x8340F549 EQ PUSH2 0x262 JUMPI DUP1 PUSH4 0x8DA5CB5B EQ PUSH2 0x275 JUMPI PUSH2 0x1A9 JUMP JUMPDEST DUP1 PUSH4 0x5F6501AB EQ PUSH2 0x224 JUMPI DUP1 PUSH4 0x6A117E61 EQ PUSH2 0x237 JUMPI DUP1 PUSH4 0x6D880F52 EQ PUSH2 0x23F JUMPI PUSH2 0x1A9 JUMP JUMPDEST DUP1 PUSH4 0x41275358 EQ PUSH2 0x1AE JUMPI DUP1 PUSH4 0x423C485A EQ PUSH2 0x1CC JUMPI DUP1 PUSH4 0x4C46EAAA EQ PUSH2 0x1EC JUMPI DUP1 PUSH4 0x4E71D92D EQ PUSH2 0x1F4 JUMPI DUP1 PUSH4 0x4F64B2BE EQ PUSH2 0x1FE JUMPI DUP1 PUSH4 0x5017F9FB EQ PUSH2 0x211 JUMPI JUMPDEST PUSH1 0x0 DUP1 REVERT JUMPDEST PUSH2 0x1B6 PUSH2 0x32F JUMP JUMPDEST PUSH1 0x40 MLOAD PUSH2 0x1C3 SWAP2 SWAP1 PUSH2 0x18BD JUMP JUMPDEST PUSH1 0x40 MLOAD DUP1 SWAP2 SUB SWAP1 RETURN JUMPDEST PUSH2 0x1DF PUSH2 0x1DA CALLDATASIZE PUSH1 0x4 PUSH2 0x1850 JUMP JUMPDEST PUSH2 0x347 JUMP JUMPDEST PUSH1 0x40 MLOAD PUSH2 0x1C3 SWAP2 SWAP1 PUSH2 0x1E44 JUMP JUMPDEST PUSH2 0x1DF PUSH2 0x3D3 JUMP JUMPDEST PUSH2 0x1FC PUSH2 0x3F7 JUMP JUMPDEST STOP JUMPDEST PUSH2 0x1B6 PUSH2 0x20C CALLDATASIZE PUSH1 0x4 PUSH2 0x1850 JUMP JUMPDEST PUSH2 0x4D2 JUMP JUMPDEST PUSH2 0x1DF PUSH2 0x21F CALLDATASIZE PUSH1 0x4 PUSH2 0x1850 JUMP JUMPDEST PUSH2 0x4F9 JUMP JUMPDEST PUSH2 0x1DF PUSH2 0x232 CALLDATASIZE PUSH1 0x4 PUSH2 0x16B4 JUMP JUMPDEST PUSH2 0x56F JUMP JUMPDEST PUSH2 0x1DF PUSH2 0x58C JUMP JUMPDEST PUSH2 0x1FC PUSH2 0x24D CALLDATASIZE PUSH1 0x4 PUSH2 0x180E JUMP JUMPDEST PUSH2 0x592 JUMP JUMPDEST PUSH2 0x1FC PUSH2 0x5DC JUMP JUMPDEST PUSH2 0x1DF PUSH2 0x65B JUMP JUMPDEST PUSH2 0x1FC PUSH2 0x270 CALLDATASIZE PUSH1 0x4 PUSH2 0x16EC JUMP JUMPDEST PUSH2 0x661 JUMP JUMPDEST PUSH2 0x1B6 PUSH2 0x8FD JUMP JUMPDEST PUSH2 0x1DF PUSH2 0x90C JUMP JUMPDEST PUSH2 0x1B6 PUSH2 0x930 JUMP JUMPDEST PUSH2 0x1B6 PUSH2 0x29B CALLDATASIZE PUSH1 0x4 PUSH2 0x1850 JUMP JUMPDEST PUSH2 0x93F JUMP JUMPDEST PUSH2 0x1B6 PUSH2 0x94C JUMP JUMPDEST PUSH2 0x1B6 PUSH2 0x2B6 CALLDATASIZE PUSH1 0x4 PUSH2 0x1698 JUMP JUMPDEST PUSH2 0x964 JUMP JUMPDEST PUSH2 0x1FC PUSH2 0x2C9 CALLDATASIZE PUSH1 0x4 PUSH2 0x1698 JUMP JUMPDEST PUSH2 0x97F JUMP JUMPDEST PUSH2 0x1DF PUSH2 0xC12 JUMP JUMPDEST PUSH2 0x1FC PUSH2 0x2E4 CALLDATASIZE PUSH1 0x4 PUSH2 0x16EC JUMP JUMPDEST PUSH2 0xC36 JUMP JUMPDEST PUSH2 0x1DF PUSH2 0xE5C JUMP JUMPDEST PUSH2 0x1DF PUSH2 0x2FF CALLDATASIZE PUSH1 0x4 PUSH2 0x1698 JUMP JUMPDEST PUSH2 0xE80 JUMP JUMPDEST PUSH2 0x1FC PUSH2 0x312 CALLDATASIZE PUSH1 0x4 PUSH2 0x1698 JUMP JUMPDEST PUSH2 0xE92 JUMP JUMPDEST PUSH2 0x1B6 PUSH2 0xF48 JUMP JUMPDEST PUSH2 0x1B6 PUSH2 0xF60 JUMP JUMPDEST PUSH2 0x1B6 PUSH2 0xF84 JUMP JUMPDEST PUSH20 0x22B20054BBD6DC5C23D7C7595E092CA728A00C32 DUP2 JUMP JUMPDEST PUSH1 0x0 PUSH32 0x0 ISZERO PUSH2 0x3CA JUMPI PUSH2 0x3C3 PUSH32 0x0 PUSH2 0x3BD DUP5 PUSH32 0x0 PUSH2 0xF9C JUMP JUMPDEST SWAP1 PUSH2 0xFDF JUMP JUMPDEST SWAP1 POP PUSH2 0x3CE JUMP JUMPDEST POP PUSH1 0x0 JUMPDEST SWAP2 SWAP1 POP JUMP JUMPDEST PUSH32 0x0 DUP2 JUMP JUMPDEST PUSH1 0x3 SLOAD PUSH1 0x1 PUSH1 0x1 PUSH1 0xA0 SHL SUB AND CALLER EQ PUSH2 0x42A JUMPI PUSH1 0x40 MLOAD PUSH3 0x461BCD PUSH1 0xE5 SHL DUP2 MSTORE PUSH1 0x4 ADD PUSH2 0x421 SWAP1 PUSH2 0x1B19 JUMP JUMPDEST PUSH1 0x40 MLOAD DUP1 SWAP2 SUB SWAP1 REVERT JUMPDEST PUSH1 0x40 MLOAD PUSH4 0xBB492BF5 PUSH1 0xE0 SHL DUP2 MSTORE PUSH20 0x929EC64C34A17401F460460D4B9390518E5B473E SWAP1 PUSH4 0xBB492BF5 SWAP1 PUSH2 0x478 SWAP1 PUSH1 0x7 SWAP1 PUSH20 0x22B20054BBD6DC5C23D7C7595E092CA728A00C32 SWAP1 PUSH1 0x4 ADD PUSH2 0x1978 JUMP JUMPDEST PUSH1 0x0 PUSH1 0x40 MLOAD DUP1 DUP4 SUB DUP2 PUSH1 0x0 DUP8 DUP1 EXTCODESIZE ISZERO DUP1 ISZERO PUSH2 0x492 JUMPI PUSH1 0x0 DUP1 REVERT JUMPDEST POP GAS CALL ISZERO DUP1 ISZERO PUSH2 0x4A6 JUMPI RETURNDATASIZE PUSH1 0x0 DUP1 RETURNDATACOPY RETURNDATASIZE PUSH1 0x0 REVERT JUMPDEST POP POP POP POP PUSH1 0x40 MLOAD RETURNDATASIZE PUSH1 0x0 DUP3 RETURNDATACOPY PUSH1 0x1F RETURNDATASIZE SWAP1 DUP2 ADD PUSH1 0x1F NOT AND DUP3 ADD PUSH1 0x40 MSTORE PUSH2 0x4CE SWAP2 SWAP1 DUP2 ADD SWAP1 PUSH2 0x172C JUMP JUMPDEST POP POP JUMP JUMPDEST PUSH1 0x6 DUP2 DUP2 SLOAD DUP2 LT PUSH2 0x4DF JUMPI INVALID JUMPDEST PUSH1 0x0 SWAP2 DUP3 MSTORE PUSH1 0x20 SWAP1 SWAP2 KECCAK256 ADD SLOAD PUSH1 0x1 PUSH1 0x1 PUSH1 0xA0 SHL SUB AND SWAP1 POP DUP2 JUMP JUMPDEST PUSH1 0x0 PUSH32 0x0 ISZERO PUSH2 0x3CA JUMPI PUSH2 0x3C3 PUSH32 0x0 PUSH2 0x3BD DUP5 PUSH32 0x0 PUSH2 0xF9C JUMP JUMPDEST PUSH1 0x2 PUSH1 0x20 SWAP1 DUP2 MSTORE PUSH1 0x0 SWAP3 DUP4 MSTORE PUSH1 0x40 DUP1 DUP5 KECCAK256 SWAP1 SWAP2 MSTORE SWAP1 DUP3 MSTORE SWAP1 KECCAK256 SLOAD DUP2 JUMP JUMPDEST PUSH1 0x5 SLOAD DUP2 JUMP JUMPDEST PUSH2 0x59A PUSH2 0x1021 JUMP JUMPDEST PUSH1 0x0 SLOAD PUSH1 0x1 PUSH1 0x1 PUSH1 0xA0 SHL SUB SWAP1 DUP2 AND SWAP2 AND EQ PUSH2 0x5C7 JUMPI PUSH1 0x40 MLOAD PUSH3 0x461BCD PUSH1 0xE5 SHL DUP2 MSTORE PUSH1 0x4 ADD PUSH2 0x421 SWAP1 PUSH2 0x1C64 JUMP JUMPDEST PUSH2 0x5D9 DUP2 PUSH1 0x0 ADD MLOAD DUP3 PUSH1 0x20 ADD MLOAD PUSH2 0x1025 JUMP JUMPDEST POP JUMP JUMPDEST PUSH2 0x5E4 PUSH2 0x1021 JUMP JUMPDEST PUSH1 0x0 SLOAD PUSH1 0x1 PUSH1 0x1 PUSH1 0xA0 SHL SUB SWAP1 DUP2 AND SWAP2 AND EQ PUSH2 0x611 JUMPI PUSH1 0x40 MLOAD PUSH3 0x461BCD PUSH1 0xE5 SHL DUP2 MSTORE PUSH1 0x4 ADD PUSH2 0x421 SWAP1 PUSH2 0x1C64 JUMP JUMPDEST PUSH1 0x0 DUP1 SLOAD PUSH1 0x40 MLOAD PUSH1 0x1 PUSH1 0x1 PUSH1 0xA0 SHL SUB SWAP1 SWAP2 AND SWAP1 PUSH32 0x8BE0079C531659141344CD1FD0A4F28419497F9722A3DAAFE3B4186F6B6457E0 SWAP1 DUP4 SWAP1 LOG3 PUSH1 0x0 DUP1 SLOAD PUSH1 0x1 PUSH1 0x1 PUSH1 0xA0 SHL SUB NOT AND SWAP1 SSTORE JUMP JUMPDEST PUSH1 0x4 SLOAD DUP2 JUMP JUMPDEST PUSH32 0x0 PUSH1 0x1 PUSH1 0x1 PUSH1 0xA0 SHL SUB AND PUSH4 0xBCB5703D PUSH1 0x40 MLOAD DUP2 PUSH4 0xFFFFFFFF AND PUSH1 0xE0 SHL DUP2 MSTORE PUSH1 0x4 ADD PUSH1 0x20 PUSH1 0x40 MLOAD DUP1 DUP4 SUB DUP2 DUP7 DUP1 EXTCODESIZE ISZERO DUP1 ISZERO PUSH2 0x6BA JUMPI PUSH1 0x0 DUP1 REVERT JUMPDEST POP GAS STATICCALL ISZERO DUP1 ISZERO PUSH2 0x6CE JUMPI RETURNDATASIZE PUSH1 0x0 DUP1 RETURNDATACOPY RETURNDATASIZE PUSH1 0x0 REVERT JUMPDEST POP POP POP POP PUSH1 0x40 MLOAD RETURNDATASIZE PUSH1 0x1F NOT PUSH1 0x1F DUP3 ADD AND DUP3 ADD DUP1 PUSH1 0x40 MSTORE POP DUP2 ADD SWAP1 PUSH2 0x6F2 SWAP2 SWAP1 PUSH2 0x1880 JUMP JUMPDEST PUSH1 0xFF AND PUSH32 0x0 PUSH1 0x1 PUSH1 0x1 PUSH1 0xA0 SHL SUB AND PUSH4 0xF815C03D CALLER PUSH1 0x40 MLOAD DUP3 PUSH4 0xFFFFFFFF AND PUSH1 0xE0 SHL DUP2 MSTORE PUSH1 0x4 ADD PUSH2 0x741 SWAP2 SWAP1 PUSH2 0x18BD JUMP JUMPDEST PUSH1 0x20 PUSH1 0x40 MLOAD DUP1 DUP4 SUB DUP2 DUP7 DUP1 EXTCODESIZE ISZERO DUP1 ISZERO PUSH2 0x759 JUMPI PUSH1 0x0 DUP1 REVERT JUMPDEST POP GAS STATICCALL ISZERO DUP1 ISZERO PUSH2 0x76D JUMPI RETURNDATASIZE PUSH1 0x0 DUP1 RETURNDATACOPY RETURNDATASIZE PUSH1 0x0 REVERT JUMPDEST POP POP POP POP PUSH1 0x40 MLOAD RETURNDATASIZE PUSH1 0x1F NOT PUSH1 0x1F DUP3 ADD AND DUP3 ADD DUP1 PUSH1 0x40 MSTORE POP DUP2 ADD SWAP1 PUSH2 0x791 SWAP2 SWAP1 PUSH2 0x1880 JUMP JUMPDEST PUSH1 0xFF AND EQ PUSH2 0x7B1 JUMPI PUSH1 0x40 MLOAD PUSH3 0x461BCD PUSH1 0xE5 SHL DUP2 MSTORE PUSH1 0x4 ADD PUSH2 0x421 SWAP1 PUSH2 0x1CED JUMP JUMPDEST PUSH1 0x1 PUSH1 0x1 PUSH1 0xA0 SHL SUB DUP3 DUP2 AND PUSH1 0x0 SWAP1 DUP2 MSTORE PUSH1 0x8 PUSH1 0x20 MSTORE PUSH1 0x40 SWAP1 KECCAK256 SLOAD AND PUSH2 0x7E8 JUMPI PUSH1 0x40 MLOAD PUSH3 0x461BCD PUSH1 0xE5 SHL DUP2 MSTORE PUSH1 0x4 ADD PUSH2 0x421 SWAP1 PUSH2 0x1D3D JUMP JUMPDEST PUSH2 0x7F3 DUP4 DUP4 DUP4 PUSH2 0x1102 JUMP JUMPDEST PUSH1 0x40 MLOAD PUSH4 0x95EA7B3 PUSH1 0xE0 SHL DUP2 MSTORE PUSH1 0x1 PUSH1 0x1 PUSH1 0xA0 SHL SUB DUP4 AND SWAP1 PUSH4 0x95EA7B3 SWAP1 PUSH2 0x835 SWAP1 PUSH20 0x794A61358D6845594F94DC1DB02A252B5B4814AD SWAP1 DUP6 SWAP1 PUSH1 0x4 ADD PUSH2 0x190F JUMP JUMPDEST PUSH1 0x20 PUSH1 0x40 MLOAD DUP1 DUP4 SUB DUP2 PUSH1 0x0 DUP8 DUP1 EXTCODESIZE ISZERO DUP1 ISZERO PUSH2 0x84F JUMPI PUSH1 0x0 DUP1 REVERT JUMPDEST POP GAS CALL ISZERO DUP1 ISZERO PUSH2 0x863 JUMPI RETURNDATASIZE PUSH1 0x0 DUP1 RETURNDATACOPY RETURNDATASIZE PUSH1 0x0 REVERT JUMPDEST POP POP POP POP PUSH1 0x40 MLOAD RETURNDATASIZE PUSH1 0x1F NOT PUSH1 0x1F DUP3 ADD AND DUP3 ADD DUP1 PUSH1 0x40 MSTORE POP DUP2 ADD SWAP1 PUSH2 0x887 SWAP2 SWAP1 PUSH2 0x17EE JUMP JUMPDEST POP PUSH1 0x40 MLOAD PUSH4 0x617BA037 PUSH1 0xE0 SHL DUP2 MSTORE PUSH20 0x794A61358D6845594F94DC1DB02A252B5B4814AD SWAP1 PUSH4 0x617BA037 SWAP1 PUSH2 0x8C6 SWAP1 DUP6 SWAP1 DUP6 SWAP1 ADDRESS SWAP1 PUSH1 0x0 SWAP1 PUSH1 0x4 ADD PUSH2 0x194B JUMP JUMPDEST PUSH1 0x0 PUSH1 0x40 MLOAD DUP1 DUP4 SUB DUP2 PUSH1 0x0 DUP8 DUP1 EXTCODESIZE ISZERO DUP1 ISZERO PUSH2 0x8E0 JUMPI PUSH1 0x0 DUP1 REVERT JUMPDEST POP GAS CALL ISZERO DUP1 ISZERO PUSH2 0x8F4 JUMPI RETURNDATASIZE PUSH1 0x0 DUP1 RETURNDATACOPY RETURNDATASIZE PUSH1 0x0 REVERT JUMPDEST POP POP POP POP POP POP POP JUMP JUMPDEST PUSH1 0x0 SLOAD PUSH1 0x1 PUSH1 0x1 PUSH1 0xA0 SHL SUB AND SWAP1 JUMP JUMPDEST PUSH32 0x0 DUP2 JUMP JUMPDEST PUSH1 0x3 SLOAD PUSH1 0x1 PUSH1 0x1 PUSH1 0xA0 SHL SUB AND DUP2 JUMP JUMPDEST PUSH1 0x7 DUP2 DUP2 SLOAD DUP2 LT PUSH2 0x4DF JUMPI INVALID JUMPDEST PUSH20 0x929EC64C34A17401F460460D4B9390518E5B473E DUP2 JUMP JUMPDEST PUSH1 0x8 PUSH1 0x20 MSTORE PUSH1 0x0 SWAP1 DUP2 MSTORE PUSH1 0x40 SWAP1 KECCAK256 SLOAD PUSH1 0x1 PUSH1 0x1 PUSH1 0xA0 SHL SUB AND DUP2 JUMP JUMPDEST PUSH1 0x3 SLOAD PUSH1 0x1 PUSH1 0x1 PUSH1 0xA0 SHL SUB AND CALLER EQ PUSH2 0x9A9 JUMPI PUSH1 0x40 MLOAD PUSH3 0x461BCD PUSH1 0xE5 SHL DUP2 MSTORE PUSH1 0x4 ADD PUSH2 0x421 SWAP1 PUSH2 0x1B19 JUMP JUMPDEST PUSH1 0x1 PUSH1 0x1 PUSH1 0xA0 SHL SUB DUP1 DUP3 AND PUSH1 0x0 SWAP1 DUP2 MSTORE PUSH1 0x1 PUSH1 0x20 SWAP1 DUP2 MSTORE PUSH1 0x40 DUP1 DUP4 KECCAK256 SLOAD PUSH1 0x8 SWAP1 SWAP3 MSTORE DUP1 DUP4 KECCAK256 SLOAD SWAP1 MLOAD PUSH4 0x70A08231 PUSH1 0xE0 SHL DUP2 MSTORE SWAP3 SWAP4 PUSH2 0xA4E SWAP4 SWAP2 AND SWAP1 PUSH4 0x70A08231 SWAP1 PUSH2 0x9F8 SWAP1 ADDRESS SWAP1 PUSH1 0x4 ADD PUSH2 0x18BD JUMP JUMPDEST PUSH1 0x20 PUSH1 0x40 MLOAD DUP1 DUP4 SUB DUP2 DUP7 DUP1 EXTCODESIZE ISZERO DUP1 ISZERO PUSH2 0xA10 JUMPI PUSH1 0x0 DUP1 REVERT JUMPDEST POP GAS STATICCALL ISZERO DUP1 ISZERO PUSH2 0xA24 JUMPI RETURNDATASIZE PUSH1 0x0 DUP1 RETURNDATACOPY RETURNDATASIZE PUSH1 0x0 REVERT JUMPDEST POP POP POP POP PUSH1 0x40 MLOAD RETURNDATASIZE PUSH1 0x1F NOT PUSH1 0x1F DUP3 ADD AND DUP3 ADD DUP1 PUSH1 0x40 MSTORE POP DUP2 ADD SWAP1 PUSH2 0xA48 SWAP2 SWAP1 PUSH2 0x1868 JUMP JUMPDEST SWAP1 PUSH2 0x12D0 JUMP JUMPDEST SWAP1 POP DUP1 ISZERO PUSH2 0xBFA JUMPI PUSH1 0x40 MLOAD PUSH4 0x1A4CA37B PUSH1 0xE2 SHL DUP2 MSTORE PUSH20 0x794A61358D6845594F94DC1DB02A252B5B4814AD SWAP1 PUSH4 0x69328DEC SWAP1 PUSH2 0xAA5 SWAP1 DUP6 SWAP1 DUP6 SWAP1 PUSH20 0x22B20054BBD6DC5C23D7C7595E092CA728A00C32 SWAP1 PUSH1 0x4 ADD PUSH2 0x1928 JUMP JUMPDEST PUSH1 0x20 PUSH1 0x40 MLOAD DUP1 DUP4 SUB DUP2 PUSH1 0x0 DUP8 DUP1 EXTCODESIZE ISZERO DUP1 ISZERO PUSH2 0xABF JUMPI PUSH1 0x0 DUP1 REVERT JUMPDEST POP GAS CALL ISZERO DUP1 ISZERO PUSH2 0xAD3 JUMPI RETURNDATASIZE PUSH1 0x0 DUP1 RETURNDATACOPY RETURNDATASIZE PUSH1 0x0 REVERT JUMPDEST POP POP POP POP PUSH1 0x40 MLOAD RETURNDATASIZE PUSH1 0x1F NOT PUSH1 0x1F DUP3 ADD AND DUP3 ADD DUP1 PUSH1 0x40 MSTORE POP DUP2 ADD SWAP1 PUSH2 0xAF7 SWAP2 SWAP1 PUSH2 0x1868 JUMP JUMPDEST POP PUSH1 0x1 PUSH1 0x1 PUSH1 0xA0 SHL SUB DUP1 DUP4 AND PUSH1 0x0 SWAP1 DUP2 MSTORE PUSH1 0x1 PUSH1 0x20 SWAP1 DUP2 MSTORE PUSH1 0x40 DUP1 DUP4 KECCAK256 SLOAD PUSH1 0x8 SWAP1 SWAP3 MSTORE SWAP2 DUP3 SWAP1 KECCAK256 SLOAD SWAP2 MLOAD PUSH4 0x70A08231 PUSH1 0xE0 SHL DUP2 MSTORE SWAP1 SWAP3 SWAP2 SWAP1 SWAP2 AND SWAP1 PUSH4 0x70A08231 SWAP1 PUSH2 0xB46 SWAP1 ADDRESS SWAP1 PUSH1 0x4 ADD PUSH2 0x18BD JUMP JUMPDEST PUSH1 0x20 PUSH1 0x40 MLOAD DUP1 DUP4 SUB DUP2 DUP7 DUP1 EXTCODESIZE ISZERO DUP1 ISZERO PUSH2 0xB5E JUMPI PUSH1 0x0 DUP1 REVERT JUMPDEST POP GAS STATICCALL ISZERO DUP1 ISZERO PUSH2 0xB72 JUMPI RETURNDATASIZE PUSH1 0x0 DUP1 RETURNDATACOPY RETURNDATASIZE PUSH1 0x0 REVERT JUMPDEST POP POP POP POP PUSH1 0x40 MLOAD RETURNDATASIZE PUSH1 0x1F NOT PUSH1 0x1F DUP3 ADD AND DUP3 ADD DUP1 PUSH1 0x40 MSTORE POP DUP2 ADD SWAP1 PUSH2 0xB96 SWAP2 SWAP1 PUSH2 0x1868 JUMP JUMPDEST LT ISZERO PUSH2 0xBB4 JUMPI PUSH1 0x40 MLOAD PUSH3 0x461BCD PUSH1 0xE5 SHL DUP2 MSTORE PUSH1 0x4 ADD PUSH2 0x421 SWAP1 PUSH2 0x1DCA JUMP JUMPDEST DUP2 PUSH1 0x1 PUSH1 0x1 PUSH1 0xA0 SHL SUB AND PUSH32 0x47CEE97CB7ACD717B3C0AA1435D004CD5B3C8C57D70DBCEB4E4458BBD60E39D4 DUP3 PUSH1 0x40 MLOAD PUSH2 0xBED SWAP2 SWAP1 PUSH2 0x1E44 JUMP JUMPDEST PUSH1 0x40 MLOAD DUP1 SWAP2 SUB SWAP1 LOG2 PUSH2 0x4CE JUMP JUMPDEST PUSH1 0x40 MLOAD PUSH3 0x461BCD PUSH1 0xE5 SHL DUP2 MSTORE PUSH1 0x4 ADD PUSH2 0x421 SWAP1 PUSH2 0x1ACD JUMP JUMPDEST PUSH32 0x0 DUP2 JUMP JUMPDEST PUSH32 0x0 PUSH1 0x1 PUSH1 0x1 PUSH1 0xA0 SHL SUB AND PUSH4 0x24E702ED PUSH1 0x40 MLOAD DUP2 PUSH4 0xFFFFFFFF AND PUSH1 0xE0 SHL DUP2 MSTORE PUSH1 0x4 ADD PUSH1 0x20 PUSH1 0x40 MLOAD DUP1 DUP4 SUB DUP2 DUP7 DUP1 EXTCODESIZE ISZERO DUP1 ISZERO PUSH2 0xC8F JUMPI PUSH1 0x0 DUP1 REVERT JUMPDEST POP GAS STATICCALL ISZERO DUP1 ISZERO PUSH2 0xCA3 JUMPI RETURNDATASIZE PUSH1 0x0 DUP1 RETURNDATACOPY RETURNDATASIZE PUSH1 0x0 REVERT JUMPDEST POP POP POP POP PUSH1 0x40 MLOAD RETURNDATASIZE PUSH1 0x1F NOT PUSH1 0x1F DUP3 ADD AND DUP3 ADD DUP1 PUSH1 0x40 MSTORE POP DUP2 ADD SWAP1 PUSH2 0xCC7 SWAP2 SWAP1 PUSH2 0x1880 JUMP JUMPDEST PUSH1 0xFF AND PUSH32 0x0 PUSH1 0x1 PUSH1 0x1 PUSH1 0xA0 SHL SUB AND PUSH4 0xF815C03D CALLER PUSH1 0x40 MLOAD DUP3 PUSH4 0xFFFFFFFF AND PUSH1 0xE0 SHL DUP2 MSTORE PUSH1 0x4 ADD PUSH2 0xD16 SWAP2 SWAP1 PUSH2 0x18BD JUMP JUMPDEST PUSH1 0x20 PUSH1 0x40 MLOAD DUP1 DUP4 SUB DUP2 DUP7 DUP1 EXTCODESIZE ISZERO DUP1 ISZERO PUSH2 0xD2E JUMPI PUSH1 0x0 DUP1 REVERT JUMPDEST POP GAS STATICCALL ISZERO DUP1 ISZERO PUSH2 0xD42 JUMPI RETURNDATASIZE PUSH1 0x0 DUP1 RETURNDATACOPY RETURNDATASIZE PUSH1 0x0 REVERT JUMPDEST POP POP POP POP PUSH1 0x40 MLOAD RETURNDATASIZE PUSH1 0x1F NOT PUSH1 0x1F DUP3 ADD AND DUP3 ADD DUP1 PUSH1 0x40 MSTORE POP DUP2 ADD SWAP1 PUSH2 0xD66 SWAP2 SWAP1 PUSH2 0x1880 JUMP JUMPDEST PUSH1 0xFF AND EQ ISZERO PUSH2 0xD87 JUMPI PUSH1 0x40 MLOAD PUSH3 0x461BCD PUSH1 0xE5 SHL DUP2 MSTORE PUSH1 0x4 ADD PUSH2 0x421 SWAP1 PUSH2 0x1BDA JUMP JUMPDEST PUSH1 0x1 PUSH1 0x1 PUSH1 0xA0 SHL SUB DUP3 DUP2 AND PUSH1 0x0 SWAP1 DUP2 MSTORE PUSH1 0x8 PUSH1 0x20 MSTORE PUSH1 0x40 SWAP1 KECCAK256 SLOAD AND PUSH2 0xDBE JUMPI PUSH1 0x40 MLOAD PUSH3 0x461BCD PUSH1 0xE5 SHL DUP2 MSTORE PUSH1 0x4 ADD PUSH2 0x421 SWAP1 PUSH2 0x1D3D JUMP JUMPDEST PUSH2 0xDC9 DUP4 DUP4 DUP4 PUSH2 0x1312 JUMP JUMPDEST PUSH1 0x40 MLOAD PUSH4 0x1A4CA37B PUSH1 0xE2 SHL DUP2 MSTORE PUSH20 0x794A61358D6845594F94DC1DB02A252B5B4814AD SWAP1 PUSH4 0x69328DEC SWAP1 PUSH2 0xE04 SWAP1 DUP6 SWAP1 DUP6 SWAP1 DUP9 SWAP1 PUSH1 0x4 ADD PUSH2 0x1928 JUMP JUMPDEST PUSH1 0x20 PUSH1 0x40 MLOAD DUP1 DUP4 SUB DUP2 PUSH1 0x0 DUP8 DUP1 EXTCODESIZE ISZERO DUP1 ISZERO PUSH2 0xE1E JUMPI PUSH1 0x0 DUP1 REVERT JUMPDEST POP GAS CALL ISZERO DUP1 ISZERO PUSH2 0xE32 JUMPI RETURNDATASIZE PUSH1 0x0 DUP1 RETURNDATACOPY RETURNDATASIZE PUSH1 0x0 REVERT JUMPDEST POP POP POP POP PUSH1 0x40 MLOAD RETURNDATASIZE PUSH1 0x1F NOT PUSH1 0x1F DUP3 ADD AND DUP3 ADD DUP1 PUSH1 0x40 MSTORE POP DUP2 ADD SWAP1 PUSH2 0xE56 SWAP2 SWAP1 PUSH2 0x1868 JUMP JUMPDEST POP POP POP POP JUMP JUMPDEST PUSH32 0x0 DUP2 JUMP JUMPDEST PUSH1 0x1 PUSH1 0x20 MSTORE PUSH1 0x0 SWAP1 DUP2 MSTORE PUSH1 0x40 SWAP1 KECCAK256 SLOAD DUP2 JUMP JUMPDEST PUSH2 0xE9A PUSH2 0x1021 JUMP JUMPDEST PUSH1 0x0 SLOAD PUSH1 0x1 PUSH1 0x1 PUSH1 0xA0 SHL SUB SWAP1 DUP2 AND SWAP2 AND EQ PUSH2 0xEC7 JUMPI PUSH1 0x40 MLOAD PUSH3 0x461BCD PUSH1 0xE5 SHL DUP2 MSTORE PUSH1 0x4 ADD PUSH2 0x421 SWAP1 PUSH2 0x1C64 JUMP JUMPDEST PUSH1 0x1 PUSH1 0x1 PUSH1 0xA0 SHL SUB DUP2 AND PUSH2 0xEED JUMPI PUSH1 0x40 MLOAD PUSH3 0x461BCD PUSH1 0xE5 SHL DUP2 MSTORE PUSH1 0x4 ADD PUSH2 0x421 SWAP1 PUSH2 0x1A0D JUMP JUMPDEST PUSH1 0x0 DUP1 SLOAD PUSH1 0x40 MLOAD PUSH1 0x1 PUSH1 0x1 PUSH1 0xA0 SHL SUB DUP1 DUP6 AND SWAP4 SWAP3 AND SWAP2 PUSH32 0x8BE0079C531659141344CD1FD0A4F28419497F9722A3DAAFE3B4186F6B6457E0 SWAP2 LOG3 PUSH1 0x0 DUP1 SLOAD PUSH1 0x1 PUSH1 0x1 PUSH1 0xA0 SHL SUB NOT AND PUSH1 0x1 PUSH1 0x1 PUSH1 0xA0 SHL SUB SWAP3 SWAP1 SWAP3 AND SWAP2 SWAP1 SWAP2 OR SWAP1 SSTORE JUMP JUMPDEST PUSH20 0x794A61358D6845594F94DC1DB02A252B5B4814AD DUP2 JUMP JUMPDEST PUSH32 0x0 DUP2 JUMP JUMPDEST PUSH20 0xD500B1D8E8EF31E21C99D1DB9A6444D3ADF1270 DUP2 JUMP JUMPDEST PUSH1 0x0 DUP3 PUSH2 0xFAB JUMPI POP PUSH1 0x0 PUSH2 0xFD9 JUMP JUMPDEST DUP3 DUP3 MUL DUP3 DUP5 DUP3 DUP2 PUSH2 0xFB8 JUMPI INVALID JUMPDEST DIV EQ PUSH2 0xFD6 JUMPI PUSH1 0x40 MLOAD PUSH3 0x461BCD PUSH1 0xE5 SHL DUP2 MSTORE PUSH1 0x4 ADD PUSH2 0x421 SWAP1 PUSH2 0x1C23 JUMP JUMPDEST SWAP1 POP JUMPDEST SWAP3 SWAP2 POP POP JUMP JUMPDEST PUSH1 0x0 PUSH2 0xFD6 DUP4 DUP4 PUSH1 0x40 MLOAD DUP1 PUSH1 0x40 ADD PUSH1 0x40 MSTORE DUP1 PUSH1 0x1A DUP2 MSTORE PUSH1 0x20 ADD PUSH32 0x536166654D6174683A206469766973696F6E206279207A65726F000000000000 DUP2 MSTORE POP PUSH2 0x141E JUMP JUMPDEST CALLER SWAP1 JUMP JUMPDEST PUSH1 0x1 PUSH1 0x1 PUSH1 0xA0 SHL SUB DUP1 DUP4 AND PUSH1 0x0 DUP2 DUP2 MSTORE PUSH1 0x8 PUSH1 0x20 MSTORE PUSH1 0x40 DUP1 DUP3 KECCAK256 DUP1 SLOAD SWAP5 DUP7 AND PUSH1 0x1 PUSH1 0x1 PUSH1 0xA0 SHL SUB NOT SWAP6 DUP7 AND DUP2 OR SWAP1 SWAP2 SSTORE PUSH1 0x6 DUP1 SLOAD PUSH1 0x1 DUP2 DUP2 ADD SWAP1 SWAP3 SSTORE PUSH32 0xF652222313E28459528D920B65115C16C04F3EFC82AAEDC97BE59F3F377C0D3F ADD DUP1 SLOAD DUP8 AND SWAP1 SWAP6 OR SWAP1 SWAP5 SSTORE PUSH1 0x7 DUP1 SLOAD SWAP5 DUP6 ADD DUP2 SSTORE SWAP1 SWAP3 MSTORE PUSH32 0xA66CC928B5EDB82AF9BD49922954155AB7B0942694BEA4CE44661D9A8736C688 SWAP1 SWAP3 ADD DUP1 SLOAD SWAP1 SWAP4 AND OR SWAP1 SWAP2 SSTORE MLOAD PUSH32 0xDFFBD9DED1C09446F09377DE547142DCCE7DC541C8B0B028142B1EBA7026B9E7 SWAP1 PUSH2 0x10F6 SWAP1 DUP5 SWAP1 DUP5 SWAP1 PUSH2 0x18D1 JUMP JUMPDEST PUSH1 0x40 MLOAD DUP1 SWAP2 SUB SWAP1 LOG1 POP POP JUMP JUMPDEST DUP1 ISZERO PUSH2 0x12B3 JUMPI PUSH1 0x40 MLOAD PUSH4 0x70A08231 PUSH1 0xE0 SHL DUP2 MSTORE DUP3 SWAP1 PUSH1 0x0 SWAP1 PUSH1 0x1 PUSH1 0x1 PUSH1 0xA0 SHL SUB DUP4 AND SWAP1 PUSH4 0x70A08231 SWAP1 PUSH2 0x1139 SWAP1 ADDRESS SWAP1 PUSH1 0x4 ADD PUSH2 0x18BD JUMP JUMPDEST PUSH1 0x20 PUSH1 0x40 MLOAD DUP1 DUP4 SUB DUP2 DUP7 DUP1 EXTCODESIZE ISZERO DUP1 ISZERO PUSH2 0x1151 JUMPI PUSH1 0x0 DUP1 REVERT JUMPDEST POP GAS STATICCALL ISZERO DUP1 ISZERO PUSH2 0x1165 JUMPI RETURNDATASIZE PUSH1 0x0 DUP1 RETURNDATACOPY RETURNDATASIZE PUSH1 0x0 REVERT JUMPDEST POP POP POP POP PUSH1 0x40 MLOAD RETURNDATASIZE PUSH1 0x1F NOT PUSH1 0x1F DUP3 ADD AND DUP3 ADD DUP1 PUSH1 0x40 MSTORE POP DUP2 ADD SWAP1 PUSH2 0x1189 SWAP2 SWAP1 PUSH2 0x1868 JUMP JUMPDEST SWAP1 POP PUSH2 0x11A0 PUSH1 0x1 PUSH1 0x1 PUSH1 0xA0 SHL SUB DUP4 AND DUP7 ADDRESS DUP7 PUSH2 0x1455 JUMP JUMPDEST DUP3 PUSH2 0x11D1 DUP3 DUP5 PUSH1 0x1 PUSH1 0x1 PUSH1 0xA0 SHL SUB AND PUSH4 0x70A08231 ADDRESS PUSH1 0x40 MLOAD DUP3 PUSH4 0xFFFFFFFF AND PUSH1 0xE0 SHL DUP2 MSTORE PUSH1 0x4 ADD PUSH2 0x9F8 SWAP2 SWAP1 PUSH2 0x18BD JUMP JUMPDEST EQ PUSH2 0x11EE JUMPI PUSH1 0x40 MLOAD PUSH3 0x461BCD PUSH1 0xE5 SHL DUP2 MSTORE PUSH1 0x4 ADD PUSH2 0x421 SWAP1 PUSH2 0x1A53 JUMP JUMPDEST PUSH1 0x1 PUSH1 0x1 PUSH1 0xA0 SHL SUB DUP5 AND PUSH1 0x0 SWAP1 DUP2 MSTORE PUSH1 0x1 PUSH1 0x20 MSTORE PUSH1 0x40 SWAP1 KECCAK256 SLOAD PUSH2 0x1211 SWAP1 DUP5 PUSH2 0x14AD JUMP JUMPDEST PUSH1 0x1 PUSH1 0x1 PUSH1 0xA0 SHL SUB DUP6 AND PUSH1 0x0 DUP2 DUP2 MSTORE PUSH1 0x1 PUSH1 0x20 SWAP1 DUP2 MSTORE PUSH1 0x40 DUP1 DUP4 KECCAK256 SWAP5 SWAP1 SWAP5 SSTORE CALLER DUP3 MSTORE PUSH1 0x2 DUP2 MSTORE DUP4 DUP3 KECCAK256 SWAP3 DUP3 MSTORE SWAP2 SWAP1 SWAP2 MSTORE KECCAK256 SLOAD PUSH2 0x124D SWAP1 DUP5 PUSH2 0x14AD JUMP JUMPDEST CALLER PUSH1 0x0 DUP2 DUP2 MSTORE PUSH1 0x2 PUSH1 0x20 SWAP1 DUP2 MSTORE PUSH1 0x40 DUP1 DUP4 KECCAK256 PUSH1 0x1 PUSH1 0x1 PUSH1 0xA0 SHL SUB DUP11 AND DUP1 DUP6 MSTORE SWAP3 MSTORE SWAP2 DUP3 SWAP1 KECCAK256 SWAP4 SWAP1 SWAP4 SSTORE MLOAD PUSH32 0x5548C837AB068CF56A2C2479DF0882A4922FD203EDB7517321831D95078C5F62 SWAP1 PUSH2 0x12A4 SWAP1 DUP8 SWAP1 PUSH2 0x1E44 JUMP JUMPDEST PUSH1 0x40 MLOAD DUP1 SWAP2 SUB SWAP1 LOG3 POP POP PUSH2 0x12CB JUMP JUMPDEST PUSH1 0x40 MLOAD PUSH3 0x461BCD PUSH1 0xE5 SHL DUP2 MSTORE PUSH1 0x4 ADD PUSH2 0x421 SWAP1 PUSH2 0x1B92 JUMP JUMPDEST POP POP POP JUMP JUMPDEST PUSH1 0x0 PUSH2 0xFD6 DUP4 DUP4 PUSH1 0x40 MLOAD DUP1 PUSH1 0x40 ADD PUSH1 0x40 MSTORE DUP1 PUSH1 0x1E DUP2 MSTORE PUSH1 0x20 ADD PUSH32 0x536166654D6174683A207375627472616374696F6E206F766572666C6F770000 DUP2 MSTORE POP PUSH2 0x14D2 JUMP JUMPDEST CALLER PUSH1 0x0 SWAP1 DUP2 MSTORE PUSH1 0x2 PUSH1 0x20 SWAP1 DUP2 MSTORE PUSH1 0x40 DUP1 DUP4 KECCAK256 PUSH1 0x1 PUSH1 0x1 PUSH1 0xA0 SHL SUB DUP7 AND DUP5 MSTORE SWAP1 SWAP2 MSTORE SWAP1 KECCAK256 SLOAD DUP2 GT ISZERO PUSH2 0x1355 JUMPI PUSH1 0x40 MLOAD PUSH3 0x461BCD PUSH1 0xE5 SHL DUP2 MSTORE PUSH1 0x4 ADD PUSH2 0x421 SWAP1 PUSH2 0x1C99 JUMP JUMPDEST DUP1 ISZERO PUSH2 0x12CB JUMPI PUSH1 0x1 PUSH1 0x1 PUSH1 0xA0 SHL SUB DUP3 AND PUSH1 0x0 SWAP1 DUP2 MSTORE PUSH1 0x1 PUSH1 0x20 MSTORE PUSH1 0x40 SWAP1 KECCAK256 SLOAD PUSH2 0x137E SWAP1 DUP3 PUSH2 0x12D0 JUMP JUMPDEST PUSH1 0x1 PUSH1 0x1 PUSH1 0xA0 SHL SUB DUP4 AND PUSH1 0x0 DUP2 DUP2 MSTORE PUSH1 0x1 PUSH1 0x20 SWAP1 DUP2 MSTORE PUSH1 0x40 DUP1 DUP4 KECCAK256 SWAP5 SWAP1 SWAP5 SSTORE CALLER DUP3 MSTORE PUSH1 0x2 DUP2 MSTORE DUP4 DUP3 KECCAK256 SWAP3 DUP3 MSTORE SWAP2 SWAP1 SWAP2 MSTORE KECCAK256 SLOAD PUSH2 0x13BA SWAP1 DUP3 PUSH2 0x12D0 JUMP JUMPDEST CALLER PUSH1 0x0 DUP2 DUP2 MSTORE PUSH1 0x2 PUSH1 0x20 SWAP1 DUP2 MSTORE PUSH1 0x40 DUP1 DUP4 KECCAK256 PUSH1 0x1 PUSH1 0x1 PUSH1 0xA0 SHL SUB DUP9 AND DUP1 DUP6 MSTORE SWAP3 MSTORE SWAP2 DUP3 SWAP1 KECCAK256 SWAP4 SWAP1 SWAP4 SSTORE MLOAD PUSH32 0x9B1BFA7FA9EE420A16E124F794C35AC9F90472ACC99140EB2F6447C714CAD8EB SWAP1 PUSH2 0x1411 SWAP1 DUP6 SWAP1 PUSH2 0x1E44 JUMP JUMPDEST PUSH1 0x40 MLOAD DUP1 SWAP2 SUB SWAP1 LOG3 POP POP POP JUMP JUMPDEST PUSH1 0x0 DUP2 DUP4 PUSH2 0x143F JUMPI PUSH1 0x40 MLOAD PUSH3 0x461BCD PUSH1 0xE5 SHL DUP2 MSTORE PUSH1 0x4 ADD PUSH2 0x421 SWAP2 SWAP1 PUSH2 0x19DA JUMP JUMPDEST POP PUSH1 0x0 DUP4 DUP6 DUP2 PUSH2 0x144B JUMPI INVALID JUMPDEST DIV SWAP6 SWAP5 POP POP POP POP POP JUMP JUMPDEST PUSH2 0xE56 DUP5 PUSH4 0x23B872DD PUSH1 0xE0 SHL DUP6 DUP6 DUP6 PUSH1 0x40 MLOAD PUSH1 0x24 ADD PUSH2 0x1476 SWAP4 SWAP3 SWAP2 SWAP1 PUSH2 0x18EB JUMP JUMPDEST PUSH1 0x40 DUP1 MLOAD PUSH1 0x1F NOT DUP2 DUP5 SUB ADD DUP2 MSTORE SWAP2 SWAP1 MSTORE PUSH1 0x20 DUP2 ADD DUP1 MLOAD PUSH1 0x1 PUSH1 0x1 PUSH1 0xE0 SHL SUB AND PUSH1 0x1 PUSH1 0x1 PUSH1 0xE0 SHL SUB NOT SWAP1 SWAP4 AND SWAP3 SWAP1 SWAP3 OR SWAP1 SWAP2 MSTORE PUSH2 0x14FE JUMP JUMPDEST PUSH1 0x0 DUP3 DUP3 ADD DUP4 DUP2 LT ISZERO PUSH2 0xFD6 JUMPI PUSH1 0x40 MLOAD PUSH3 0x461BCD PUSH1 0xE5 SHL DUP2 MSTORE PUSH1 0x4 ADD PUSH2 0x421 SWAP1 PUSH2 0x1A96 JUMP JUMPDEST PUSH1 0x0 DUP2 DUP5 DUP5 GT ISZERO PUSH2 0x14F6 JUMPI PUSH1 0x40 MLOAD PUSH3 0x461BCD PUSH1 0xE5 SHL DUP2 MSTORE PUSH1 0x4 ADD PUSH2 0x421 SWAP2 SWAP1 PUSH2 0x19DA JUMP JUMPDEST POP POP POP SWAP1 SUB SWAP1 JUMP JUMPDEST PUSH2 0x1510 DUP3 PUSH1 0x1 PUSH1 0x1 PUSH1 0xA0 SHL SUB AND PUSH2 0x15E3 JUMP JUMPDEST PUSH2 0x152C JUMPI PUSH1 0x40 MLOAD PUSH3 0x461BCD PUSH1 0xE5 SHL DUP2 MSTORE PUSH1 0x4 ADD PUSH2 0x421 SWAP1 PUSH2 0x1E0D JUMP JUMPDEST PUSH1 0x0 PUSH1 0x60 DUP4 PUSH1 0x1 PUSH1 0x1 PUSH1 0xA0 SHL SUB AND DUP4 PUSH1 0x40 MLOAD PUSH2 0x1548 SWAP2 SWAP1 PUSH2 0x18A1 JUMP JUMPDEST PUSH1 0x0 PUSH1 0x40 MLOAD DUP1 DUP4 SUB DUP2 PUSH1 0x0 DUP7 GAS CALL SWAP2 POP POP RETURNDATASIZE DUP1 PUSH1 0x0 DUP2 EQ PUSH2 0x1585 JUMPI PUSH1 0x40 MLOAD SWAP2 POP PUSH1 0x1F NOT PUSH1 0x3F RETURNDATASIZE ADD AND DUP3 ADD PUSH1 0x40 MSTORE RETURNDATASIZE DUP3 MSTORE RETURNDATASIZE PUSH1 0x0 PUSH1 0x20 DUP5 ADD RETURNDATACOPY PUSH2 0x158A JUMP JUMPDEST PUSH1 0x60 SWAP2 POP JUMPDEST POP SWAP2 POP SWAP2 POP DUP2 PUSH2 0x15AC JUMPI PUSH1 0x40 MLOAD PUSH3 0x461BCD PUSH1 0xE5 SHL DUP2 MSTORE PUSH1 0x4 ADD PUSH2 0x421 SWAP1 PUSH2 0x1B5D JUMP JUMPDEST DUP1 MLOAD ISZERO PUSH2 0xE56 JUMPI DUP1 DUP1 PUSH1 0x20 ADD SWAP1 MLOAD DUP2 ADD SWAP1 PUSH2 0x15C7 SWAP2 SWAP1 PUSH2 0x17EE JUMP JUMPDEST PUSH2 0xE56 JUMPI PUSH1 0x40 MLOAD PUSH3 0x461BCD PUSH1 0xE5 SHL DUP2 MSTORE PUSH1 0x4 ADD PUSH2 0x421 SWAP1 PUSH2 0x1D80 JUMP JUMPDEST PUSH1 0x0 DUP2 EXTCODEHASH PUSH32 0xC5D2460186F7233C927E7DB2DCC703C0E500B653CA82273B7BFAD8045D85A470 DUP2 DUP2 EQ DUP1 ISZERO SWAP1 PUSH2 0x1617 JUMPI POP DUP2 ISZERO ISZERO JUMPDEST SWAP5 SWAP4 POP POP POP POP JUMP JUMPDEST DUP1 MLOAD PUSH2 0xFD9 DUP2 PUSH2 0x1EC0 JUMP JUMPDEST PUSH1 0x0 DUP3 PUSH1 0x1F DUP4 ADD SLT PUSH2 0x163A JUMPI DUP1 DUP2 REVERT JUMPDEST DUP2 MLOAD PUSH2 0x164D PUSH2 0x1648 DUP3 PUSH2 0x1E74 JUMP JUMPDEST PUSH2 0x1E4D JUMP JUMPDEST DUP2 DUP2 MSTORE SWAP2 POP PUSH1 0x20 DUP1 DUP4 ADD SWAP1 DUP5 DUP2 ADD DUP2 DUP5 MUL DUP7 ADD DUP3 ADD DUP8 LT ISZERO PUSH2 0x166E JUMPI PUSH1 0x0 DUP1 REVERT JUMPDEST PUSH1 0x0 JUMPDEST DUP5 DUP2 LT ISZERO PUSH2 0x168D JUMPI DUP2 MLOAD DUP5 MSTORE SWAP3 DUP3 ADD SWAP3 SWAP1 DUP3 ADD SWAP1 PUSH1 0x1 ADD PUSH2 0x1671 JUMP JUMPDEST POP POP POP POP POP SWAP3 SWAP2 POP POP JUMP JUMPDEST PUSH1 0x0 PUSH1 0x20 DUP3 DUP5 SUB SLT ISZERO PUSH2 0x16A9 JUMPI DUP1 DUP2 REVERT JUMPDEST DUP2 CALLDATALOAD PUSH2 0xFD6 DUP2 PUSH2 0x1EC0 JUMP JUMPDEST PUSH1 0x0 DUP1 PUSH1 0x40 DUP4 DUP6 SUB SLT ISZERO PUSH2 0x16C6 JUMPI DUP1 DUP2 REVERT JUMPDEST DUP3 CALLDATALOAD PUSH2 0x16D1 DUP2 PUSH2 0x1EC0 JUMP JUMPDEST SWAP2 POP PUSH1 0x20 DUP4 ADD CALLDATALOAD PUSH2 0x16E1 DUP2 PUSH2 0x1EC0 JUMP JUMPDEST DUP1 SWAP2 POP POP SWAP3 POP SWAP3 SWAP1 POP JUMP JUMPDEST PUSH1 0x0 DUP1 PUSH1 0x0 PUSH1 0x60 DUP5 DUP7 SUB SLT ISZERO PUSH2 0x1700 JUMPI DUP1 DUP2 REVERT JUMPDEST DUP4 CALLDATALOAD PUSH2 0x170B DUP2 PUSH2 0x1EC0 JUMP JUMPDEST SWAP3 POP PUSH1 0x20 DUP5 ADD CALLDATALOAD PUSH2 0x171B DUP2 PUSH2 0x1EC0 JUMP JUMPDEST SWAP3 SWAP6 SWAP3 SWAP5 POP POP POP PUSH1 0x40 SWAP2 SWAP1 SWAP2 ADD CALLDATALOAD SWAP1 JUMP JUMPDEST PUSH1 0x0 DUP1 PUSH1 0x40 DUP4 DUP6 SUB SLT ISZERO PUSH2 0x173E JUMPI DUP2 DUP3 REVERT JUMPDEST DUP3 MLOAD PUSH8 0xFFFFFFFFFFFFFFFF DUP1 DUP3 GT ISZERO PUSH2 0x1755 JUMPI DUP4 DUP5 REVERT JUMPDEST DUP2 DUP6 ADD SWAP2 POP DUP6 PUSH1 0x1F DUP4 ADD SLT PUSH2 0x1768 JUMPI DUP4 DUP5 REVERT JUMPDEST DUP2 MLOAD PUSH2 0x1776 PUSH2 0x1648 DUP3 PUSH2 0x1E74 JUMP JUMPDEST DUP1 DUP3 DUP3 MSTORE PUSH1 0x20 DUP1 DUP4 ADD SWAP3 POP DUP1 DUP7 ADD DUP11 DUP3 DUP4 DUP8 MUL DUP10 ADD ADD GT ISZERO PUSH2 0x1796 JUMPI DUP9 DUP10 REVERT JUMPDEST DUP9 SWAP7 POP JUMPDEST DUP5 DUP8 LT ISZERO PUSH2 0x17C0 JUMPI PUSH2 0x17AC DUP12 DUP3 PUSH2 0x161F JUMP JUMPDEST DUP5 MSTORE PUSH1 0x1 SWAP7 SWAP1 SWAP7 ADD SWAP6 SWAP3 DUP2 ADD SWAP3 DUP2 ADD PUSH2 0x179A JUMP JUMPDEST POP DUP9 ADD MLOAD SWAP1 SWAP7 POP SWAP4 POP POP POP DUP1 DUP3 GT ISZERO PUSH2 0x17D7 JUMPI DUP3 DUP4 REVERT JUMPDEST POP PUSH2 0x17E4 DUP6 DUP3 DUP7 ADD PUSH2 0x162A JUMP JUMPDEST SWAP2 POP POP SWAP3 POP SWAP3 SWAP1 POP JUMP JUMPDEST PUSH1 0x0 PUSH1 0x20 DUP3 DUP5 SUB SLT ISZERO PUSH2 0x17FF JUMPI DUP1 DUP2 REVERT JUMPDEST DUP2 MLOAD DUP1 ISZERO ISZERO DUP2 EQ PUSH2 0xFD6 JUMPI DUP2 DUP3 REVERT JUMPDEST PUSH1 0x0 PUSH1 0x40 DUP3 DUP5 SUB SLT ISZERO PUSH2 0x181F JUMPI DUP1 DUP2 REVERT JUMPDEST PUSH2 0x1829 PUSH1 0x40 PUSH2 0x1E4D JUMP JUMPDEST DUP3 CALLDATALOAD PUSH2 0x1834 DUP2 PUSH2 0x1EC0 JUMP JUMPDEST DUP2 MSTORE PUSH1 0x20 DUP4 ADD CALLDATALOAD PUSH2 0x1844 DUP2 PUSH2 0x1EC0 JUMP JUMPDEST PUSH1 0x20 DUP3 ADD MSTORE SWAP4 SWAP3 POP POP POP JUMP JUMPDEST PUSH1 0x0 PUSH1 0x20 DUP3 DUP5 SUB SLT ISZERO PUSH2 0x1861 JUMPI DUP1 DUP2 REVERT JUMPDEST POP CALLDATALOAD SWAP2 SWAP1 POP JUMP JUMPDEST PUSH1 0x0 PUSH1 0x20 DUP3 DUP5 SUB SLT ISZERO PUSH2 0x1879 JUMPI DUP1 DUP2 REVERT JUMPDEST POP MLOAD SWAP2 SWAP1 POP JUMP JUMPDEST PUSH1 0x0 PUSH1 0x20 DUP3 DUP5 SUB SLT ISZERO PUSH2 0x1891 JUMPI DUP1 DUP2 REVERT JUMPDEST DUP2 MLOAD PUSH1 0xFF DUP2 AND DUP2 EQ PUSH2 0xFD6 JUMPI DUP2 DUP3 REVERT JUMPDEST PUSH1 0x0 DUP3 MLOAD PUSH2 0x18B3 DUP2 DUP5 PUSH1 0x20 DUP8 ADD PUSH2 0x1E94 JUMP JUMPDEST SWAP2 SWAP1 SWAP2 ADD SWAP3 SWAP2 POP POP JUMP JUMPDEST PUSH1 0x1 PUSH1 0x1 PUSH1 0xA0 SHL SUB SWAP2 SWAP1 SWAP2 AND DUP2 MSTORE PUSH1 0x20 ADD SWAP1 JUMP JUMPDEST PUSH1 0x1 PUSH1 0x1 PUSH1 0xA0 SHL SUB SWAP3 DUP4 AND DUP2 MSTORE SWAP2 AND PUSH1 0x20 DUP3 ADD MSTORE PUSH1 0x40 ADD SWAP1 JUMP JUMPDEST PUSH1 0x1 PUSH1 0x1 PUSH1 0xA0 SHL SUB SWAP4 DUP5 AND DUP2 MSTORE SWAP2 SWAP1 SWAP3 AND PUSH1 0x20 DUP3 ADD MSTORE PUSH1 0x40 DUP2 ADD SWAP2 SWAP1 SWAP2 MSTORE PUSH1 0x60 ADD SWAP1 JUMP JUMPDEST PUSH1 0x1 PUSH1 0x1 PUSH1 0xA0 SHL SUB SWAP3 SWAP1 SWAP3 AND DUP3 MSTORE PUSH1 0x20 DUP3 ADD MSTORE PUSH1 0x40 ADD SWAP1 JUMP JUMPDEST PUSH1 0x1 PUSH1 0x1 PUSH1 0xA0 SHL SUB SWAP4 DUP5 AND DUP2 MSTORE PUSH1 0x20 DUP2 ADD SWAP3 SWAP1 SWAP3 MSTORE SWAP1 SWAP2 AND PUSH1 0x40 DUP3 ADD MSTORE PUSH1 0x60 ADD SWAP1 JUMP JUMPDEST PUSH1 0x1 PUSH1 0x1 PUSH1 0xA0 SHL SUB SWAP5 DUP6 AND DUP2 MSTORE PUSH1 0x20 DUP2 ADD SWAP4 SWAP1 SWAP4 MSTORE SWAP3 AND PUSH1 0x40 DUP3 ADD MSTORE PUSH2 0xFFFF SWAP1 SWAP2 AND PUSH1 0x60 DUP3 ADD MSTORE PUSH1 0x80 ADD SWAP1 JUMP JUMPDEST PUSH1 0x0 PUSH1 0x40 DUP3 ADD PUSH1 0x40 DUP4 MSTORE DUP1 DUP6 SLOAD DUP1 DUP4 MSTORE PUSH1 0x60 DUP6 ADD SWAP2 POP DUP7 DUP5 MSTORE PUSH1 0x20 SWAP3 POP DUP3 DUP5 KECCAK256 DUP5 JUMPDEST DUP3 DUP2 LT ISZERO PUSH2 0x19BF JUMPI DUP2 SLOAD PUSH1 0x1 PUSH1 0x1 PUSH1 0xA0 SHL SUB AND DUP5 MSTORE SWAP3 DUP5 ADD SWAP3 PUSH1 0x1 SWAP2 DUP3 ADD SWAP2 ADD PUSH2 0x199A JUMP JUMPDEST POP POP POP PUSH1 0x1 PUSH1 0x1 PUSH1 0xA0 SHL SUB SWAP5 SWAP1 SWAP5 AND SWAP3 ADD SWAP2 SWAP1 SWAP2 MSTORE POP SWAP2 SWAP1 POP JUMP JUMPDEST PUSH1 0x0 PUSH1 0x20 DUP3 MSTORE DUP3 MLOAD DUP1 PUSH1 0x20 DUP5 ADD MSTORE PUSH2 0x19F9 DUP2 PUSH1 0x40 DUP6 ADD PUSH1 0x20 DUP8 ADD PUSH2 0x1E94 JUMP JUMPDEST PUSH1 0x1F ADD PUSH1 0x1F NOT AND SWAP2 SWAP1 SWAP2 ADD PUSH1 0x40 ADD SWAP3 SWAP2 POP POP JUMP JUMPDEST PUSH1 0x20 DUP1 DUP3 MSTORE PUSH1 0x26 SWAP1 DUP3 ADD MSTORE PUSH32 0x4F776E61626C653A206E6577206F776E657220697320746865207A65726F2061 PUSH1 0x40 DUP3 ADD MSTORE PUSH6 0x646472657373 PUSH1 0xD0 SHL PUSH1 0x60 DUP3 ADD MSTORE PUSH1 0x80 ADD SWAP1 JUMP JUMPDEST PUSH1 0x20 DUP1 DUP3 MSTORE PUSH1 0x23 SWAP1 DUP3 ADD MSTORE PUSH32 0x436F726E466920537472617465677920426173653A204465706F736974204572 PUSH1 0x40 DUP3 ADD MSTORE PUSH3 0x3937B9 PUSH1 0xE9 SHL PUSH1 0x60 DUP3 ADD MSTORE PUSH1 0x80 ADD SWAP1 JUMP JUMPDEST PUSH1 0x20 DUP1 DUP3 MSTORE PUSH1 0x1B SWAP1 DUP3 ADD MSTORE PUSH32 0x536166654D6174683A206164646974696F6E206F766572666C6F770000000000 PUSH1 0x40 DUP3 ADD MSTORE PUSH1 0x60 ADD SWAP1 JUMP JUMPDEST PUSH1 0x20 DUP1 DUP3 MSTORE PUSH1 0x2C SWAP1 DUP3 ADD MSTORE PUSH32 0x436F726E466920414156452053747261746567793A20546F6B656E20416C7265 PUSH1 0x40 DUP3 ADD MSTORE PUSH12 0x18591E4810985B185B98D959 PUSH1 0xA2 SHL PUSH1 0x60 DUP3 ADD MSTORE PUSH1 0x80 ADD SWAP1 JUMP JUMPDEST PUSH1 0x20 DUP1 DUP3 MSTORE PUSH1 0x24 SWAP1 DUP3 ADD MSTORE PUSH32 0x436F726E466920537472617465677920426173653A20496E76616C6964204361 PUSH1 0x40 DUP3 ADD MSTORE PUSH4 0x363632B9 PUSH1 0xE1 SHL PUSH1 0x60 DUP3 ADD MSTORE PUSH1 0x80 ADD SWAP1 JUMP JUMPDEST PUSH1 0x20 DUP1 DUP3 MSTORE DUP2 DUP2 ADD MSTORE PUSH32 0x5361666545524332303A206C6F772D6C6576656C2063616C6C206661696C6564 PUSH1 0x40 DUP3 ADD MSTORE PUSH1 0x60 ADD SWAP1 JUMP JUMPDEST PUSH1 0x20 DUP1 DUP3 MSTORE PUSH1 0x28 SWAP1 DUP3 ADD MSTORE PUSH32 0x436F726E466920537472617465677920426173653A204465706F73697420416D PUSH1 0x40 DUP3 ADD MSTORE PUSH8 0x6F756E7420273027 PUSH1 0xC0 SHL PUSH1 0x60 DUP3 ADD MSTORE PUSH1 0x80 ADD SWAP1 JUMP JUMPDEST PUSH1 0x20 DUP1 DUP3 MSTORE PUSH1 0x29 SWAP1 DUP3 ADD MSTORE PUSH32 0x436F726E466920537472617465677920426173653A205661756C74204F6E6C79 PUSH1 0x40 DUP3 ADD MSTORE PUSH9 0x10233AB731BA34B7B7 PUSH1 0xB9 SHL PUSH1 0x60 DUP3 ADD MSTORE PUSH1 0x80 ADD SWAP1 JUMP JUMPDEST PUSH1 0x20 DUP1 DUP3 MSTORE PUSH1 0x21 SWAP1 DUP3 ADD MSTORE PUSH32 0x536166654D6174683A206D756C7469706C69636174696F6E206F766572666C6F PUSH1 0x40 DUP3 ADD MSTORE PUSH1 0x77 PUSH1 0xF8 SHL PUSH1 0x60 DUP3 ADD MSTORE PUSH1 0x80 ADD SWAP1 JUMP JUMPDEST PUSH1 0x20 DUP1 DUP3 MSTORE DUP2 DUP2 ADD MSTORE PUSH32 0x4F776E61626C653A2063616C6C6572206973206E6F7420746865206F776E6572 PUSH1 0x40 DUP3 ADD MSTORE PUSH1 0x60 ADD SWAP1 JUMP JUMPDEST PUSH1 0x20 DUP1 DUP3 MSTORE PUSH1 0x34 SWAP1 DUP3 ADD MSTORE PUSH32 0x436F726E466920537472617465677920426173653A205661756C742057697468 PUSH1 0x40 DUP3 ADD MSTORE PUSH20 0x191C985DC8105B5BDD5B9D08115E18D959591959 PUSH1 0x62 SHL PUSH1 0x60 DUP3 ADD MSTORE PUSH1 0x80 ADD SWAP1 JUMP JUMPDEST PUSH1 0x20 DUP1 DUP3 MSTORE PUSH1 0x30 SWAP1 DUP3 ADD MSTORE PUSH32 0x436F726E466920537472617465677920426173653A2041637469766520566175 PUSH1 0x40 DUP3 ADD MSTORE PUSH16 0x363A1027B7363C90233AB731BA34B7B7 PUSH1 0x81 SHL PUSH1 0x60 DUP3 ADD MSTORE PUSH1 0x80 ADD SWAP1 JUMP JUMPDEST PUSH1 0x20 DUP1 DUP3 MSTORE PUSH1 0x23 SWAP1 DUP3 ADD MSTORE PUSH32 0x436F726E466920414156452053747261746567793A20496E76616C696420546F PUSH1 0x40 DUP3 ADD MSTORE PUSH3 0x35B2B7 PUSH1 0xE9 SHL PUSH1 0x60 DUP3 ADD MSTORE PUSH1 0x80 ADD SWAP1 JUMP JUMPDEST PUSH1 0x20 DUP1 DUP3 MSTORE PUSH1 0x2A SWAP1 DUP3 ADD MSTORE PUSH32 0x5361666545524332303A204552433230206F7065726174696F6E20646964206E PUSH1 0x40 DUP3 ADD MSTORE PUSH10 0x1BDD081CDD58D8D95959 PUSH1 0xB2 SHL PUSH1 0x60 DUP3 ADD MSTORE PUSH1 0x80 ADD SWAP1 JUMP JUMPDEST PUSH1 0x20 DUP1 DUP3 MSTORE PUSH1 0x23 SWAP1 DUP3 ADD MSTORE PUSH32 0x436F726E466920414156452053747261746567793A2042616C616E6365204572 PUSH1 0x40 DUP3 ADD MSTORE PUSH3 0x3937B9 PUSH1 0xE9 SHL PUSH1 0x60 DUP3 ADD MSTORE PUSH1 0x80 ADD SWAP1 JUMP JUMPDEST PUSH1 0x20 DUP1 DUP3 MSTORE PUSH1 0x1F SWAP1 DUP3 ADD MSTORE PUSH32 0x5361666545524332303A2063616C6C20746F206E6F6E2D636F6E747261637400 PUSH1 0x40 DUP3 ADD MSTORE PUSH1 0x60 ADD SWAP1 JUMP JUMPDEST SWAP1 DUP2 MSTORE PUSH1 0x20 ADD SWAP1 JUMP JUMPDEST PUSH1 0x40 MLOAD DUP2 DUP2 ADD PUSH8 0xFFFFFFFFFFFFFFFF DUP2 GT DUP3 DUP3 LT OR ISZERO PUSH2 0x1E6C JUMPI PUSH1 0x0 DUP1 REVERT JUMPDEST PUSH1 0x40 MSTORE SWAP2 SWAP1 POP JUMP JUMPDEST PUSH1 0x0 PUSH8 0xFFFFFFFFFFFFFFFF DUP3 GT ISZERO PUSH2 0x1E8A JUMPI DUP1 DUP2 REVERT JUMPDEST POP PUSH1 0x20 SWAP1 DUP2 MUL ADD SWAP1 JUMP JUMPDEST PUSH1 0x0 JUMPDEST DUP4 DUP2 LT ISZERO PUSH2 0x1EAF JUMPI DUP2 DUP2 ADD MLOAD DUP4 DUP3 ADD MSTORE PUSH1 0x20 ADD PUSH2 0x1E97 JUMP JUMPDEST DUP4 DUP2 GT ISZERO PUSH2 0xE56 JUMPI POP POP PUSH1 0x0 SWAP2 ADD MSTORE JUMP JUMPDEST PUSH1 0x1 PUSH1 0x1 PUSH1 0xA0 SHL SUB DUP2 AND DUP2 EQ PUSH2 0x5D9 JUMPI PUSH1 0x0 DUP1 REVERT INVALID LOG2 PUSH5 0x6970667358 0x22 SLT KECCAK256 0x2B DUP15 0x27 DUP15 0xCA POP DUP14 0xB9 DUP11 PUSH15 0x92CE61084A62C54668F70812CC3247 SWAP16 GASPRICE SHR SHL 0xB1 0xF8 0xB3 PUSH5 0x736F6C6343 STOP MOD 0xC STOP CALLER ","sha1":"4f1db1afe7c736c19de4132edf9e5513072e2555","source":"// SPDX-License-Identifier: MIT\npragma solidity 0.6.12;\n\nimport \"./StrategyBase.sol\";\nimport \"../../interfaces/IAaveStakeV3.sol\";\n\n\npragma experimental ABIEncoderV2;\n\n/**\n* @title Corn Finance AAVE Holding Strategy\n* @author C.W.B.\n*/\ncontract AAVEV3Strategy is StrategyBase {\n\n    struct Tokens {\n        address token;\n        address amToken;\n    }\n\n    // AAVE lending pool\n    IAaveStakeV3 public constant LendingPool = IAaveStakeV3(0x794a61358D6845594F94dc1DB02A252b5b4814aD);\n\n    // AAVE rewards contract\n    IAaveStakeV3 public constant Rewards = IAaveStakeV3(0x929EC64c34a17401F460460D4B9390518E5B473e);\n\n    // Whitelisted ERC20 tokens that can be deposited into this contract\n    address[] public tokens;\n\n    // AAVE market tokens associated with 'tokens'\n    address[] public aaveMarketTokens;\n\n    // tokenToAm[ERC20] --> AAVE market token\n    // ex. tokenToAm[USDC] --> amUSDC\n    mapping(address => address) public tokenToAm;\n\n    // AAVE incentives reward token\n    address public constant rewardToken = 0x0d500B1d8E8eF31E21C99d1Db9A6444d3ADf1270;\n\n\n    // --------------------------------------------------------------------------------\n    // //////////////////////////////////// Events ////////////////////////////////////\n    // --------------------------------------------------------------------------------\n    event TokenAdded(address token, address amToken);\n\n\n    // --------------------------------------------------------------------------------\n    // --------------------------------------------------------------------------------\n    // --------------------------------------------------------------------------------\n\n    /**\n    * @param _controller: Corn Finance Controller contract \n    */\n    constructor( \n        IController _controller\n    ) public StrategyBase(_controller, 0, 1000, 0, 1000, msg.sender, 0, 0) {\n\n        Tokens[16] memory _tokens = [\n            Tokens(0x8f3Cf7ad23Cd3CaDbD9735AFf958023239c6A063, 0x82E64f49Ed5EC1bC6e43DAD4FC8Af9bb3A2312EE), // DAI, amDAI\n            Tokens(0x2791Bca1f2de4661ED88A30C99A7a9449Aa84174, 0x625E7708f30cA75bfd92586e17077590C60eb4cD), // USDC, amUSDC\n            Tokens(0xc2132D05D31c914a87C6611C10748AEb04B58e8F, 0x6ab707Aca953eDAeFBc4fD23bA73294241490620), // USDT, amUSDT\n            Tokens(0x1BFD67037B42Cf73acF2047067bd4F2C47D9BfD6, 0x078f358208685046a11C85e8ad32895DED33A249), // WBTC, amWBTC\n            Tokens(0x7ceB23fD6bC0adD59E62ac25578270cFf1b9f619, 0xe50fA9b3c56FfB159cB0FCA61F5c9D750e8128c8), // WETH, amWETH\n            Tokens(0x0d500B1d8E8eF31E21C99d1Db9A6444d3ADf1270, 0x6d80113e533a2C0fe82EaBD35f1875DcEA89Ea97), // WMATIC, amWMATIC\n            Tokens(0x85955046DF4668e1DD369D2DE9f3AEB98DD2A369, 0x724dc807b04555b71ed48a6896b6F41593b8C637), // DPI, amDPI\n            Tokens(0x172370d5Cd63279eFa6d502DAB29171933a610AF, 0x513c7E3a9c69cA3e22550eF58AC1C0088e918FFf), // CRV, amCRV\n            Tokens(0x53E0bca35eC356BD5ddDFebbD1Fc0fD03FaBad39, 0x191c10Aa4AF7C30e871E70C95dB0E4eb77237530), // LINK, amLINK\n            Tokens(0x0b3F868E0BE5597D5DB7fEB59E1CADBb0fdDa50a, 0xc45A479877e1e9Dfe9FcD4056c699575a1045dAA), // SUSHI, amSUSHI\n            Tokens(0x9a71012B13CA4d3D0Cdc72A177DF3ef03b0E76A3, 0x8ffDf2DE812095b1D19CB146E4c004587C0A0692), // BAL, amBAL\n            Tokens(0x385Eeac5cB85A38A9a07A70c73e0a3271CfB54A7, 0x8Eb270e296023E9D92081fdF967dDd7878724424), // GHST, amGHST\n            Tokens(0xD6DF932A45C0f255f85145f286eA0b292B21C90B, 0xf329e36C7bF6E5E86ce2150875a84Ce77f477375), // AAVE, amAAVE\n            Tokens(0xE111178A87A3BFf0c8d18DECBa5798827539Ae99, 0x38d693cE1dF5AaDF7bC62595A37D667aD57922e5), // EURS, amEURS\n            Tokens(0x4e3Decbb3645551B8A19f0eA1678079FCB33fB4c, 0x6533afac2E7BCCB20dca161449A13A32D391fb00), // JEUR, amJEUR\n            Tokens(0xE0B52e49357Fd4DAf2c15e02058DCE6BC0057db4, 0x8437d7C167dFB82ED4Cb79CD44B7a32A1dd95c77)  // AGEUR, amAGEUR\n        ];\n        for(uint i = 0; i < _tokens.length; i++) {\n            _addToken(_tokens[i].token, _tokens[i].amToken);\n        }\n    }\n\n    // --------------------------------------------------------------------------------\n    // ///////////////////////////// Only Owner Functions /////////////////////////////\n    // --------------------------------------------------------------------------------\n\n    /**\n    * @dev Use to add an ERC20 token and its respective AAVE market token. Only add\n    * tokens that can be deposited into AAVE. This function is restricted to only the\n    * owner of this contract.\n    * @param _token: Tokens(ERC20 token address, AAVE market token equivalent)\n    */\n    function addToken(Tokens memory _token) external onlyOwner {\n        _addToken(_token.token, _token.amToken);\n    }\n\n    // --------------------------------------------------------------------------------\n    // ////////////////////////// Only Rebalancer Functions ///////////////////////////\n    // --------------------------------------------------------------------------------\n\n    /**\n    * @dev Rebalance an ERC20 token held within this strategy. Claims the difference\n    * between the token balance of the contract and the total deposits of the token.\n    * Use to claim the interest made from staking tokens in AAVE.\n    * @param _token: ERC20 token address to rebalance\n    */\n    function rebalanceToken(address _token) external onlyRebalancer {\n        // Difference between current balance and total deposits is the interest made\n        uint256 interest = IERC20(tokenToAm[_token]).balanceOf(address(this)).sub(totalDeposits[_token]);\n\n        // Withdraw the interest made and send to the fee wallet\n        if(interest > 0) {\n            LendingPool.withdraw(_token, interest, feeAddress);\n\n            require(\n                IERC20(tokenToAm[_token]).balanceOf(address(this)) >= totalDeposits[_token],\n                \"CornFi AAVE Strategy: Balance Error\"\n            );\n\n            emit Claim(_token, interest);\n        }\n        else {\n            revert(\"CornFi AAVE Strategy: Token Already Balanced\");\n        }\n    }\n\n    // --------------------------------------------------------------------------------\n\n    /**\n    * @dev Claim AAVE WMATIC incentive rewards from staking ERC20 tokens. Sends rewards\n    * to the dev wallet. \n    */\n    function claim() external onlyRebalancer {\n        Rewards.claimAllRewards(aaveMarketTokens, feeAddress);\n    }\n\n\n    // --------------------------------------------------------------------------------\n    // /////////////////////////////// Vault Functions ////////////////////////////////\n    // --------------------------------------------------------------------------------\n\n    /**\n    * @dev Only currently active vaults can deposits tokens into this holding strategy.\n    * This function can only be called from one of the approved vaults added to the\n    * Controller contract. Tokens are deposited into holding strategies when calling\n    * 'createTrade()' and 'fillOrder()' in the Controller contract.\n    * @param _from: Vault token owner\n    * @param _token: ERC20 token address\n    * @param _amount: Amount of '_token' to deposit\n    */\n    function deposit(address _from, address _token, uint256 _amount) external onlyActiveVault {\n        require(tokenToAm[_token] != address(0), \"CornFi AAVE Strategy: Invalid Token\");\n\n        _deposit(_from, _token, _amount);\n\n        // Approve AAVE lending pool to take (deposit) a token\n        IERC20(_token).approve(address(LendingPool), _amount);\n\n        // Deposit assets into AAVE lending pool\n        LendingPool.supply(_token, _amount, address(this), uint16(0));\n    }\n\n    // --------------------------------------------------------------------------------\n\n    /**\n    * @dev Any vault that has deposited tokens into this strategy can withdraw their\n    * tokens even after a vault is deactivated. This function can only be called from \n    * one of the approved vaults added to the Controller contract. Users are only able\n    * to withdraw tokens from a holding strategy through withdrawing their vault token\n    * by calling 'withdraw()' in the Controller contract.\n    * @param _from: Vault token owner\n    * @param _token: ERC20 token address\n    * @param _amount: Amount of '_token' to withdraw\n    */\n    function withdraw(address _from, address _token, uint256 _amount) external onlyVault {\n        require(tokenToAm[_token] != address(0), \"CornFi AAVE Strategy: Invalid Token\");\n\n        _withdraw(_from, _token, _amount);\n\n        // Withdraw tokens from AAVE and transfer to owner\n        LendingPool.withdraw(_token, _amount, _from);\n    }\n\n    // --------------------------------------------------------------------------------\n    // ////////////////////////////// Internal Functions //////////////////////////////\n    // --------------------------------------------------------------------------------\n\n    /**\n    * @dev Use to add an ERC20 token and its respective AAVE market token. Only add\n    * tokens that can be deposited into AAVE.\n    * @param _token: ERC20 token address\n    * @param _amToken: AAVE market token equivalent of '_token' \n    */\n    function _addToken(address _token, address _amToken) internal {\n        // Map token to AAVE market token\n        tokenToAm[_token] = _amToken;\n\n        // Add the token\n        tokens.push(_token);\n\n        // Add the AAVE market token\n        aaveMarketTokens.push(_amToken);\n\n        emit TokenAdded(_token, _amToken);\n    }\n}","sourcePath":"contracts/strategies/AAVEV3Strategy.sol","type":"contract","deployment":{"address":"0xfC87AF07825F0Cf657B91984B79ED77C2704e238","chainid":"137","blockHeight":26323385}}