{
  "abi": [
    {
      "anonymous": false,
      "inputs": [
        {
          "indexed": false,
          "internalType": "bool",
          "name": "result",
          "type": "bool"
        }
      ],
      "name": "OperationResult",
      "type": "event"
    },
    {
      "inputs": [
        {
          "internalType": "uint256",
          "name": "index",
          "type": "uint256"
        }
      ],
      "name": "at",
      "outputs": [
        {
          "internalType": "address",
          "name": "key",
          "type": "address"
        },
        {
          "internalType": "uint256",
          "name": "value",
          "type": "uint256"
        }
      ],
      "stateMutability": "view",
      "type": "function"
    },
    {
      "inputs": [
        {
          "internalType": "address",
          "name": "key",
          "type": "address"
        }
      ],
      "name": "contains",
      "outputs": [
        {
          "internalType": "bool",
          "name": "",
          "type": "bool"
        }
      ],
      "stateMutability": "view",
      "type": "function"
    },
    {
      "inputs": [
        {
          "internalType": "address",
          "name": "key",
          "type": "address"
        }
      ],
      "name": "get",
      "outputs": [
        {
          "internalType": "uint256",
          "name": "",
          "type": "uint256"
        }
      ],
      "stateMutability": "view",
      "type": "function"
    },
    {
      "inputs": [],
      "name": "length",
      "outputs": [
        {
          "internalType": "uint256",
          "name": "",
          "type": "uint256"
        }
      ],
      "stateMutability": "view",
      "type": "function"
    },
    {
      "inputs": [
        {
          "internalType": "address",
          "name": "key",
          "type": "address"
        }
      ],
      "name": "remove",
      "outputs": [],
      "stateMutability": "nonpayable",
      "type": "function"
    },
    {
      "inputs": [
        {
          "internalType": "address",
          "name": "key",
          "type": "address"
        },
        {
          "internalType": "uint256",
          "name": "value",
          "type": "uint256"
        }
      ],
      "name": "set",
      "outputs": [],
      "stateMutability": "nonpayable",
      "type": "function"
    },
    {
      "inputs": [
        {
          "internalType": "address",
          "name": "key",
          "type": "address"
        }
      ],
      "name": "tryGet",
      "outputs": [
        {
          "internalType": "bool",
          "name": "",
          "type": "bool"
        },
        {
          "internalType": "uint256",
          "name": "",
          "type": "uint256"
        }
      ],
      "stateMutability": "view",
      "type": "function"
    }
  ],
  "bytecode": "608060405234801561001057600080fd5b506106c7806100206000396000f3fe608060405234801561001057600080fd5b506004361061007d5760003560e01c80635dbe47e81161005b5780635dbe47e8146100c5578063864083af146100e8578063c2bc2efc14610112578063e0886f901461012557600080fd5b80631f7b6d321461008257806329092d0e1461009d5780633825d828146100b2575b600080fd5b61008a610157565b6040519081526020015b60405180910390f35b6100b06100ab3660046105e2565b610168565b005b6100b06100c03660046105fd565b6101b5565b6100d86100d33660046105e2565b610204565b6040519015158152602001610094565b6100fb6100f63660046105e2565b610216565b604080519215158352602083019190915201610094565b61008a6101203660046105e2565b61022c565b610138610133366004610627565b610238565b604080516001600160a01b039093168352602083019190915201610094565b60006101636000610245565b905090565b60006101748183610250565b90507fed9840e0775590557ad736875d96c95cf1458b766335f74339951a32c82a9e33816040516101a9911515815260200190565b60405180910390a15050565b60006101c281848461026c565b90507fed9840e0775590557ad736875d96c95cf1458b766335f74339951a32c82a9e33816040516101f7911515815260200190565b60405180910390a1505050565b6000610210818361028a565b92915050565b600080610223818461029f565b91509150915091565b600061021081836102c6565b60008061022381846102db565b6000610210826102ea565b6000610265836001600160a01b0384166102f5565b9392505050565b6000610282846001600160a01b03851684610312565b949350505050565b6000610265836001600160a01b03841661032f565b60008080806102b7866001600160a01b03871661033b565b909450925050505b9250929050565b6000610265836001600160a01b038416610375565b60008080806102b786866103e9565b600061021082610414565b60008181526002830160205260408120819055610265838361041e565b60008281526002840160205260408120829055610282848461042a565b60006102658383610436565b600081815260028301602052604081205481908061036a5761035d858561032f565b9250600091506102bf9050565b6001925090506102bf565b6000818152600283016020526040812054801515806103995750610399848461032f565b6102655760405162461bcd60e51b815260206004820152601e60248201527f456e756d657261626c654d61703a206e6f6e6578697374656e74206b65790000604482015260640160405180910390fd5b600080806103f7858561044e565b600081815260029690960160205260409095205494959350505050565b6000610210825490565b6000610265838361045a565b6000610265838361054d565b60008181526001830160205260408120541515610265565b6000610265838361059c565b6000818152600183016020526040812054801561054357600061047e600183610640565b855490915060009061049290600190610640565b90508181146104f75760008660000182815481106104b2576104b2610665565b90600052602060002001549050808760000184815481106104d5576104d5610665565b6000918252602080832090910192909255918252600188019052604090208390555b85548690806105085761050861067b565b600190038181906000526020600020016000905590558560010160008681526020019081526020016000206000905560019350505050610210565b6000915050610210565b600081815260018301602052604081205461059457508154600181810184556000848152602080822090930184905584548482528286019093526040902091909155610210565b506000610210565b60008260000182815481106105b3576105b3610665565b9060005260206000200154905092915050565b80356001600160a01b03811681146105dd57600080fd5b919050565b6000602082840312156105f457600080fd5b610265826105c6565b6000806040838503121561061057600080fd5b610619836105c6565b946020939093013593505050565b60006020828403121561063957600080fd5b5035919050565b60008282101561066057634e487b7160e01b600052601160045260246000fd5b500390565b634e487b7160e01b600052603260045260246000fd5b634e487b7160e01b600052603160045260246000fdfea26469706673582212209a0f4f9f85115908c33c595702d965a7a3093806a951077ea9ecaad5f038f2aa64736f6c634300080c0033",
  "bytecodeSha1": "570e909082101224fb6ae470402278e9505876c4",
  "compiler": {
    "evm_version": "istanbul",
    "optimizer": {
      "enabled": true,
      "runs": 200
    },
    "version": "0.8.12+commit.f00d7308"
  },
  "contractName": "AddressToUintMapMock",
  "language": "Solidity",
  "natspec": {
    "kind": "dev",
    "methods": {},
    "version": 1
  },
  "opcodes": "PUSH1 0x80 PUSH1 0x40 MSTORE CALLVALUE DUP1 ISZERO PUSH2 0x10 JUMPI PUSH1 0x0 DUP1 REVERT JUMPDEST POP PUSH1 0x4 CALLDATASIZE LT PUSH2 0x7D JUMPI PUSH1 0x0 CALLDATALOAD PUSH1 0xE0 SHR DUP1 PUSH4 0x5DBE47E8 GT PUSH2 0x5B JUMPI DUP1 PUSH4 0x5DBE47E8 EQ PUSH2 0xC5 JUMPI DUP1 PUSH4 0x864083AF EQ PUSH2 0xE8 JUMPI DUP1 PUSH4 0xC2BC2EFC EQ PUSH2 0x112 JUMPI DUP1 PUSH4 0xE0886F90 EQ PUSH2 0x125 JUMPI PUSH1 0x0 DUP1 REVERT JUMPDEST DUP1 PUSH4 0x1F7B6D32 EQ PUSH2 0x82 JUMPI DUP1 PUSH4 0x29092D0E EQ PUSH2 0x9D JUMPI DUP1 PUSH4 0x3825D828 EQ PUSH2 0xB2 JUMPI JUMPDEST PUSH1 0x0 DUP1 REVERT JUMPDEST PUSH2 0x8A PUSH2 0x157 JUMP JUMPDEST PUSH1 0x40 MLOAD SWAP1 DUP2 MSTORE PUSH1 0x20 ADD JUMPDEST PUSH1 0x40 MLOAD DUP1 SWAP2 SUB SWAP1 RETURN JUMPDEST PUSH2 0xB0 PUSH2 0xAB CALLDATASIZE PUSH1 0x4 PUSH2 0x5E2 JUMP JUMPDEST PUSH2 0x168 JUMP JUMPDEST STOP JUMPDEST PUSH2 0xB0 PUSH2 0xC0 CALLDATASIZE PUSH1 0x4 PUSH2 0x5FD JUMP JUMPDEST PUSH2 0x1B5 JUMP JUMPDEST PUSH2 0xD8 PUSH2 0xD3 CALLDATASIZE PUSH1 0x4 PUSH2 0x5E2 JUMP JUMPDEST PUSH2 0x204 JUMP JUMPDEST PUSH1 0x40 MLOAD SWAP1 ISZERO ISZERO DUP2 MSTORE PUSH1 0x20 ADD PUSH2 0x94 JUMP JUMPDEST PUSH2 0xFB PUSH2 0xF6 CALLDATASIZE PUSH1 0x4 PUSH2 0x5E2 JUMP JUMPDEST PUSH2 0x216 JUMP JUMPDEST PUSH1 0x40 DUP1 MLOAD SWAP3 ISZERO ISZERO DUP4 MSTORE PUSH1 0x20 DUP4 ADD SWAP2 SWAP1 SWAP2 MSTORE ADD PUSH2 0x94 JUMP JUMPDEST PUSH2 0x8A PUSH2 0x120 CALLDATASIZE PUSH1 0x4 PUSH2 0x5E2 JUMP JUMPDEST PUSH2 0x22C JUMP JUMPDEST PUSH2 0x138 PUSH2 0x133 CALLDATASIZE PUSH1 0x4 PUSH2 0x627 JUMP JUMPDEST PUSH2 0x238 JUMP JUMPDEST PUSH1 0x40 DUP1 MLOAD PUSH1 0x1 PUSH1 0x1 PUSH1 0xA0 SHL SUB SWAP1 SWAP4 AND DUP4 MSTORE PUSH1 0x20 DUP4 ADD SWAP2 SWAP1 SWAP2 MSTORE ADD PUSH2 0x94 JUMP JUMPDEST PUSH1 0x0 PUSH2 0x163 PUSH1 0x0 PUSH2 0x245 JUMP JUMPDEST SWAP1 POP SWAP1 JUMP JUMPDEST PUSH1 0x0 PUSH2 0x174 DUP2 DUP4 PUSH2 0x250 JUMP JUMPDEST SWAP1 POP PUSH32 0xED9840E0775590557AD736875D96C95CF1458B766335F74339951A32C82A9E33 DUP2 PUSH1 0x40 MLOAD PUSH2 0x1A9 SWAP2 ISZERO ISZERO DUP2 MSTORE PUSH1 0x20 ADD SWAP1 JUMP JUMPDEST PUSH1 0x40 MLOAD DUP1 SWAP2 SUB SWAP1 LOG1 POP POP JUMP JUMPDEST PUSH1 0x0 PUSH2 0x1C2 DUP2 DUP5 DUP5 PUSH2 0x26C JUMP JUMPDEST SWAP1 POP PUSH32 0xED9840E0775590557AD736875D96C95CF1458B766335F74339951A32C82A9E33 DUP2 PUSH1 0x40 MLOAD PUSH2 0x1F7 SWAP2 ISZERO ISZERO DUP2 MSTORE PUSH1 0x20 ADD SWAP1 JUMP JUMPDEST PUSH1 0x40 MLOAD DUP1 SWAP2 SUB SWAP1 LOG1 POP POP POP JUMP JUMPDEST PUSH1 0x0 PUSH2 0x210 DUP2 DUP4 PUSH2 0x28A JUMP JUMPDEST SWAP3 SWAP2 POP POP JUMP JUMPDEST PUSH1 0x0 DUP1 PUSH2 0x223 DUP2 DUP5 PUSH2 0x29F JUMP JUMPDEST SWAP2 POP SWAP2 POP SWAP2 POP SWAP2 JUMP JUMPDEST PUSH1 0x0 PUSH2 0x210 DUP2 DUP4 PUSH2 0x2C6 JUMP JUMPDEST PUSH1 0x0 DUP1 PUSH2 0x223 DUP2 DUP5 PUSH2 0x2DB JUMP JUMPDEST PUSH1 0x0 PUSH2 0x210 DUP3 PUSH2 0x2EA JUMP JUMPDEST PUSH1 0x0 PUSH2 0x265 DUP4 PUSH1 0x1 PUSH1 0x1 PUSH1 0xA0 SHL SUB DUP5 AND PUSH2 0x2F5 JUMP JUMPDEST SWAP4 SWAP3 POP POP POP JUMP JUMPDEST PUSH1 0x0 PUSH2 0x282 DUP5 PUSH1 0x1 PUSH1 0x1 PUSH1 0xA0 SHL SUB DUP6 AND DUP5 PUSH2 0x312 JUMP JUMPDEST SWAP5 SWAP4 POP POP POP POP JUMP JUMPDEST PUSH1 0x0 PUSH2 0x265 DUP4 PUSH1 0x1 PUSH1 0x1 PUSH1 0xA0 SHL SUB DUP5 AND PUSH2 0x32F JUMP JUMPDEST PUSH1 0x0 DUP1 DUP1 DUP1 PUSH2 0x2B7 DUP7 PUSH1 0x1 PUSH1 0x1 PUSH1 0xA0 SHL SUB DUP8 AND PUSH2 0x33B JUMP JUMPDEST SWAP1 SWAP5 POP SWAP3 POP POP POP JUMPDEST SWAP3 POP SWAP3 SWAP1 POP JUMP JUMPDEST PUSH1 0x0 PUSH2 0x265 DUP4 PUSH1 0x1 PUSH1 0x1 PUSH1 0xA0 SHL SUB DUP5 AND PUSH2 0x375 JUMP JUMPDEST PUSH1 0x0 DUP1 DUP1 DUP1 PUSH2 0x2B7 DUP7 DUP7 PUSH2 0x3E9 JUMP JUMPDEST PUSH1 0x0 PUSH2 0x210 DUP3 PUSH2 0x414 JUMP JUMPDEST PUSH1 0x0 DUP2 DUP2 MSTORE PUSH1 0x2 DUP4 ADD PUSH1 0x20 MSTORE PUSH1 0x40 DUP2 KECCAK256 DUP2 SWAP1 SSTORE PUSH2 0x265 DUP4 DUP4 PUSH2 0x41E JUMP JUMPDEST PUSH1 0x0 DUP3 DUP2 MSTORE PUSH1 0x2 DUP5 ADD PUSH1 0x20 MSTORE PUSH1 0x40 DUP2 KECCAK256 DUP3 SWAP1 SSTORE PUSH2 0x282 DUP5 DUP5 PUSH2 0x42A JUMP JUMPDEST PUSH1 0x0 PUSH2 0x265 DUP4 DUP4 PUSH2 0x436 JUMP JUMPDEST PUSH1 0x0 DUP2 DUP2 MSTORE PUSH1 0x2 DUP4 ADD PUSH1 0x20 MSTORE PUSH1 0x40 DUP2 KECCAK256 SLOAD DUP2 SWAP1 DUP1 PUSH2 0x36A JUMPI PUSH2 0x35D DUP6 DUP6 PUSH2 0x32F JUMP JUMPDEST SWAP3 POP PUSH1 0x0 SWAP2 POP PUSH2 0x2BF SWAP1 POP JUMP JUMPDEST PUSH1 0x1 SWAP3 POP SWAP1 POP PUSH2 0x2BF JUMP JUMPDEST PUSH1 0x0 DUP2 DUP2 MSTORE PUSH1 0x2 DUP4 ADD PUSH1 0x20 MSTORE PUSH1 0x40 DUP2 KECCAK256 SLOAD DUP1 ISZERO ISZERO DUP1 PUSH2 0x399 JUMPI POP PUSH2 0x399 DUP5 DUP5 PUSH2 0x32F JUMP JUMPDEST PUSH2 0x265 JUMPI PUSH1 0x40 MLOAD PUSH3 0x461BCD PUSH1 0xE5 SHL DUP2 MSTORE PUSH1 0x20 PUSH1 0x4 DUP3 ADD MSTORE PUSH1 0x1E PUSH1 0x24 DUP3 ADD MSTORE PUSH32 0x456E756D657261626C654D61703A206E6F6E6578697374656E74206B65790000 PUSH1 0x44 DUP3 ADD MSTORE PUSH1 0x64 ADD PUSH1 0x40 MLOAD DUP1 SWAP2 SUB SWAP1 REVERT JUMPDEST PUSH1 0x0 DUP1 DUP1 PUSH2 0x3F7 DUP6 DUP6 PUSH2 0x44E JUMP JUMPDEST PUSH1 0x0 DUP2 DUP2 MSTORE PUSH1 0x2 SWAP7 SWAP1 SWAP7 ADD PUSH1 0x20 MSTORE PUSH1 0x40 SWAP1 SWAP6 KECCAK256 SLOAD SWAP5 SWAP6 SWAP4 POP POP POP POP JUMP JUMPDEST PUSH1 0x0 PUSH2 0x210 DUP3 SLOAD SWAP1 JUMP JUMPDEST PUSH1 0x0 PUSH2 0x265 DUP4 DUP4 PUSH2 0x45A JUMP JUMPDEST PUSH1 0x0 PUSH2 0x265 DUP4 DUP4 PUSH2 0x54D JUMP JUMPDEST PUSH1 0x0 DUP2 DUP2 MSTORE PUSH1 0x1 DUP4 ADD PUSH1 0x20 MSTORE PUSH1 0x40 DUP2 KECCAK256 SLOAD ISZERO ISZERO PUSH2 0x265 JUMP JUMPDEST PUSH1 0x0 PUSH2 0x265 DUP4 DUP4 PUSH2 0x59C JUMP JUMPDEST PUSH1 0x0 DUP2 DUP2 MSTORE PUSH1 0x1 DUP4 ADD PUSH1 0x20 MSTORE PUSH1 0x40 DUP2 KECCAK256 SLOAD DUP1 ISZERO PUSH2 0x543 JUMPI PUSH1 0x0 PUSH2 0x47E PUSH1 0x1 DUP4 PUSH2 0x640 JUMP JUMPDEST DUP6 SLOAD SWAP1 SWAP2 POP PUSH1 0x0 SWAP1 PUSH2 0x492 SWAP1 PUSH1 0x1 SWAP1 PUSH2 0x640 JUMP JUMPDEST SWAP1 POP DUP2 DUP2 EQ PUSH2 0x4F7 JUMPI PUSH1 0x0 DUP7 PUSH1 0x0 ADD DUP3 DUP2 SLOAD DUP2 LT PUSH2 0x4B2 JUMPI PUSH2 0x4B2 PUSH2 0x665 JUMP JUMPDEST SWAP1 PUSH1 0x0 MSTORE PUSH1 0x20 PUSH1 0x0 KECCAK256 ADD SLOAD SWAP1 POP DUP1 DUP8 PUSH1 0x0 ADD DUP5 DUP2 SLOAD DUP2 LT PUSH2 0x4D5 JUMPI PUSH2 0x4D5 PUSH2 0x665 JUMP JUMPDEST PUSH1 0x0 SWAP2 DUP3 MSTORE PUSH1 0x20 DUP1 DUP4 KECCAK256 SWAP1 SWAP2 ADD SWAP3 SWAP1 SWAP3 SSTORE SWAP2 DUP3 MSTORE PUSH1 0x1 DUP9 ADD SWAP1 MSTORE PUSH1 0x40 SWAP1 KECCAK256 DUP4 SWAP1 SSTORE JUMPDEST DUP6 SLOAD DUP7 SWAP1 DUP1 PUSH2 0x508 JUMPI PUSH2 0x508 PUSH2 0x67B JUMP JUMPDEST PUSH1 0x1 SWAP1 SUB DUP2 DUP2 SWAP1 PUSH1 0x0 MSTORE PUSH1 0x20 PUSH1 0x0 KECCAK256 ADD PUSH1 0x0 SWAP1 SSTORE SWAP1 SSTORE DUP6 PUSH1 0x1 ADD PUSH1 0x0 DUP7 DUP2 MSTORE PUSH1 0x20 ADD SWAP1 DUP2 MSTORE PUSH1 0x20 ADD PUSH1 0x0 KECCAK256 PUSH1 0x0 SWAP1 SSTORE PUSH1 0x1 SWAP4 POP POP POP POP PUSH2 0x210 JUMP JUMPDEST PUSH1 0x0 SWAP2 POP POP PUSH2 0x210 JUMP JUMPDEST PUSH1 0x0 DUP2 DUP2 MSTORE PUSH1 0x1 DUP4 ADD PUSH1 0x20 MSTORE PUSH1 0x40 DUP2 KECCAK256 SLOAD PUSH2 0x594 JUMPI POP DUP2 SLOAD PUSH1 0x1 DUP2 DUP2 ADD DUP5 SSTORE PUSH1 0x0 DUP5 DUP2 MSTORE PUSH1 0x20 DUP1 DUP3 KECCAK256 SWAP1 SWAP4 ADD DUP5 SWAP1 SSTORE DUP5 SLOAD DUP5 DUP3 MSTORE DUP3 DUP7 ADD SWAP1 SWAP4 MSTORE PUSH1 0x40 SWAP1 KECCAK256 SWAP2 SWAP1 SWAP2 SSTORE PUSH2 0x210 JUMP JUMPDEST POP PUSH1 0x0 PUSH2 0x210 JUMP JUMPDEST PUSH1 0x0 DUP3 PUSH1 0x0 ADD DUP3 DUP2 SLOAD DUP2 LT PUSH2 0x5B3 JUMPI PUSH2 0x5B3 PUSH2 0x665 JUMP JUMPDEST SWAP1 PUSH1 0x0 MSTORE PUSH1 0x20 PUSH1 0x0 KECCAK256 ADD SLOAD SWAP1 POP SWAP3 SWAP2 POP POP JUMP JUMPDEST DUP1 CALLDATALOAD PUSH1 0x1 PUSH1 0x1 PUSH1 0xA0 SHL SUB DUP2 AND DUP2 EQ PUSH2 0x5DD JUMPI PUSH1 0x0 DUP1 REVERT JUMPDEST SWAP2 SWAP1 POP JUMP JUMPDEST PUSH1 0x0 PUSH1 0x20 DUP3 DUP5 SUB SLT ISZERO PUSH2 0x5F4 JUMPI PUSH1 0x0 DUP1 REVERT JUMPDEST PUSH2 0x265 DUP3 PUSH2 0x5C6 JUMP JUMPDEST PUSH1 0x0 DUP1 PUSH1 0x40 DUP4 DUP6 SUB SLT ISZERO PUSH2 0x610 JUMPI PUSH1 0x0 DUP1 REVERT JUMPDEST PUSH2 0x619 DUP4 PUSH2 0x5C6 JUMP JUMPDEST SWAP5 PUSH1 0x20 SWAP4 SWAP1 SWAP4 ADD CALLDATALOAD SWAP4 POP POP POP JUMP JUMPDEST PUSH1 0x0 PUSH1 0x20 DUP3 DUP5 SUB SLT ISZERO PUSH2 0x639 JUMPI PUSH1 0x0 DUP1 REVERT JUMPDEST POP CALLDATALOAD SWAP2 SWAP1 POP JUMP JUMPDEST PUSH1 0x0 DUP3 DUP3 LT ISZERO PUSH2 0x660 JUMPI PUSH4 0x4E487B71 PUSH1 0xE0 SHL PUSH1 0x0 MSTORE PUSH1 0x11 PUSH1 0x4 MSTORE PUSH1 0x24 PUSH1 0x0 REVERT JUMPDEST POP SUB SWAP1 JUMP JUMPDEST PUSH4 0x4E487B71 PUSH1 0xE0 SHL PUSH1 0x0 MSTORE PUSH1 0x32 PUSH1 0x4 MSTORE PUSH1 0x24 PUSH1 0x0 REVERT JUMPDEST PUSH4 0x4E487B71 PUSH1 0xE0 SHL PUSH1 0x0 MSTORE PUSH1 0x31 PUSH1 0x4 MSTORE PUSH1 0x24 PUSH1 0x0 REVERT INVALID LOG2 PUSH5 0x6970667358 0x22 SLT KECCAK256 SWAP11 0xF 0x4F SWAP16 DUP6 GT MSIZE ADDMOD 0xC3 EXTCODECOPY MSIZE JUMPI MUL 0xD9 PUSH6 0xA7A3093806A9 MLOAD SMOD PUSH31 0xA9ECAAD5F038F2AA64736F6C634300080C0033000000000000000000000000 ",
  "sha1": "78c814361c1123dab0f1718fa6ac5b2adda99004",
  "source": "// SPDX-License-Identifier: MIT\n\npragma solidity ^0.8.0;\n\nimport \"../utils/structs/EnumerableMap.sol\";\n\n// UintToAddressMap\ncontract UintToAddressMapMock {\n    using EnumerableMap for EnumerableMap.UintToAddressMap;\n\n    event OperationResult(bool result);\n\n    EnumerableMap.UintToAddressMap private _map;\n\n    function contains(uint256 key) public view returns (bool) {\n        return _map.contains(key);\n    }\n\n    function set(uint256 key, address value) public {\n        bool result = _map.set(key, value);\n        emit OperationResult(result);\n    }\n\n    function remove(uint256 key) public {\n        bool result = _map.remove(key);\n        emit OperationResult(result);\n    }\n\n    function length() public view returns (uint256) {\n        return _map.length();\n    }\n\n    function at(uint256 index) public view returns (uint256 key, address value) {\n        return _map.at(index);\n    }\n\n    function tryGet(uint256 key) public view returns (bool, address) {\n        return _map.tryGet(key);\n    }\n\n    function get(uint256 key) public view returns (address) {\n        return _map.get(key);\n    }\n\n    function getWithMessage(uint256 key, string calldata errorMessage) public view returns (address) {\n        return _map.get(key, errorMessage);\n    }\n}\n\n// AddressToUintMap\ncontract AddressToUintMapMock {\n    using EnumerableMap for EnumerableMap.AddressToUintMap;\n\n    event OperationResult(bool result);\n\n    EnumerableMap.AddressToUintMap private _map;\n\n    function contains(address key) public view returns (bool) {\n        return _map.contains(key);\n    }\n\n    function set(address key, uint256 value) public {\n        bool result = _map.set(key, value);\n        emit OperationResult(result);\n    }\n\n    function remove(address key) public {\n        bool result = _map.remove(key);\n        emit OperationResult(result);\n    }\n\n    function length() public view returns (uint256) {\n        return _map.length();\n    }\n\n    function at(uint256 index) public view returns (address key, uint256 value) {\n        return _map.at(index);\n    }\n\n    function tryGet(address key) public view returns (bool, uint256) {\n        return _map.tryGet(key);\n    }\n\n    function get(address key) public view returns (uint256) {\n        return _map.get(key);\n    }\n}\n",
  "sourcePath": "contracts/openzeppelin/contracts/mocks/EnumerableMapMock.sol",
  "type": "contract"
}