{
  "abi": [
    {
      "inputs": [
        {
          "internalType": "bytes",
          "name": "value",
          "type": "bytes"
        }
      ],
      "name": "encode",
      "outputs": [
        {
          "internalType": "string",
          "name": "",
          "type": "string"
        }
      ],
      "stateMutability": "pure",
      "type": "function"
    }
  ],
  "bytecode": "608060405234801561001057600080fd5b506103bf806100206000396000f3fe608060405234801561001057600080fd5b506004361061002b5760003560e01c806312496a1b14610030575b600080fd5b61004361003e3660046101d4565b610059565b6040516100509190610285565b60405180910390f35b60606100648261006a565b92915050565b606081516000141561008a57505060408051602081019091526000815290565b600060405180606001604052806040815260200161034a60409139905060006003845160026100b991906102f0565b6100c39190610308565b6100ce90600461032a565b67ffffffffffffffff8111156100e6576100e66101be565b6040519080825280601f01601f191660200182016040528015610110576020820181803683370190505b509050600182016020820185865187015b8082101561017c576003820191508151603f8160121c168501518453600184019350603f81600c1c168501518453600184019350603f8160061c168501518453600184019350603f8116850151845350600183019250610121565b505060038651066001811461019857600281146101ab576101b3565b603d6001830353603d60028303536101b3565b603d60018303535b509195945050505050565b634e487b7160e01b600052604160045260246000fd5b6000602082840312156101e657600080fd5b813567ffffffffffffffff808211156101fe57600080fd5b818401915084601f83011261021257600080fd5b813581811115610224576102246101be565b604051601f8201601f19908116603f0116810190838211818310171561024c5761024c6101be565b8160405282815287602084870101111561026557600080fd5b826020860160208301376000928101602001929092525095945050505050565b600060208083528351808285015260005b818110156102b257858101830151858201604001528201610296565b818111156102c4576000604083870101525b50601f01601f1916929092016040019392505050565b634e487b7160e01b600052601160045260246000fd5b60008219821115610303576103036102da565b500190565b60008261032557634e487b7160e01b600052601260045260246000fd5b500490565b6000816000190483118215151615610344576103446102da565b50029056fe4142434445464748494a4b4c4d4e4f505152535455565758595a6162636465666768696a6b6c6d6e6f707172737475767778797a303132333435363738392b2fa2646970667358221220cafb3b06b59bf18298ac7d09bfe18892ad1f9ba430f14a0b12bc6d951d4a17e364736f6c634300080c0033",
  "bytecodeSha1": "2ae17113f026c5d46dfe68a32e09eca507452ccb",
  "compiler": {
    "evm_version": "istanbul",
    "optimizer": {
      "enabled": true,
      "runs": 200
    },
    "version": "0.8.12+commit.f00d7308"
  },
  "contractName": "Base64Mock",
  "language": "Solidity",
  "natspec": {
    "kind": "dev",
    "methods": {},
    "version": 1
  },
  "opcodes": "PUSH1 0x80 PUSH1 0x40 MSTORE CALLVALUE DUP1 ISZERO PUSH2 0x10 JUMPI PUSH1 0x0 DUP1 REVERT JUMPDEST POP PUSH1 0x4 CALLDATASIZE LT PUSH2 0x2B JUMPI PUSH1 0x0 CALLDATALOAD PUSH1 0xE0 SHR DUP1 PUSH4 0x12496A1B EQ PUSH2 0x30 JUMPI JUMPDEST PUSH1 0x0 DUP1 REVERT JUMPDEST PUSH2 0x43 PUSH2 0x3E CALLDATASIZE PUSH1 0x4 PUSH2 0x1D4 JUMP JUMPDEST PUSH2 0x59 JUMP JUMPDEST PUSH1 0x40 MLOAD PUSH2 0x50 SWAP2 SWAP1 PUSH2 0x285 JUMP JUMPDEST PUSH1 0x40 MLOAD DUP1 SWAP2 SUB SWAP1 RETURN JUMPDEST PUSH1 0x60 PUSH2 0x64 DUP3 PUSH2 0x6A JUMP JUMPDEST SWAP3 SWAP2 POP POP JUMP JUMPDEST PUSH1 0x60 DUP2 MLOAD PUSH1 0x0 EQ ISZERO PUSH2 0x8A JUMPI POP POP PUSH1 0x40 DUP1 MLOAD PUSH1 0x20 DUP2 ADD SWAP1 SWAP2 MSTORE PUSH1 0x0 DUP2 MSTORE SWAP1 JUMP JUMPDEST PUSH1 0x0 PUSH1 0x40 MLOAD DUP1 PUSH1 0x60 ADD PUSH1 0x40 MSTORE DUP1 PUSH1 0x40 DUP2 MSTORE PUSH1 0x20 ADD PUSH2 0x34A PUSH1 0x40 SWAP2 CODECOPY SWAP1 POP PUSH1 0x0 PUSH1 0x3 DUP5 MLOAD PUSH1 0x2 PUSH2 0xB9 SWAP2 SWAP1 PUSH2 0x2F0 JUMP JUMPDEST PUSH2 0xC3 SWAP2 SWAP1 PUSH2 0x308 JUMP JUMPDEST PUSH2 0xCE SWAP1 PUSH1 0x4 PUSH2 0x32A JUMP JUMPDEST PUSH8 0xFFFFFFFFFFFFFFFF DUP2 GT ISZERO PUSH2 0xE6 JUMPI PUSH2 0xE6 PUSH2 0x1BE JUMP JUMPDEST PUSH1 0x40 MLOAD SWAP1 DUP1 DUP3 MSTORE DUP1 PUSH1 0x1F ADD PUSH1 0x1F NOT AND PUSH1 0x20 ADD DUP3 ADD PUSH1 0x40 MSTORE DUP1 ISZERO PUSH2 0x110 JUMPI PUSH1 0x20 DUP3 ADD DUP2 DUP1 CALLDATASIZE DUP4 CALLDATACOPY ADD SWAP1 POP JUMPDEST POP SWAP1 POP PUSH1 0x1 DUP3 ADD PUSH1 0x20 DUP3 ADD DUP6 DUP7 MLOAD DUP8 ADD JUMPDEST DUP1 DUP3 LT ISZERO PUSH2 0x17C JUMPI PUSH1 0x3 DUP3 ADD SWAP2 POP DUP2 MLOAD PUSH1 0x3F DUP2 PUSH1 0x12 SHR AND DUP6 ADD MLOAD DUP5 MSTORE8 PUSH1 0x1 DUP5 ADD SWAP4 POP PUSH1 0x3F DUP2 PUSH1 0xC SHR AND DUP6 ADD MLOAD DUP5 MSTORE8 PUSH1 0x1 DUP5 ADD SWAP4 POP PUSH1 0x3F DUP2 PUSH1 0x6 SHR AND DUP6 ADD MLOAD DUP5 MSTORE8 PUSH1 0x1 DUP5 ADD SWAP4 POP PUSH1 0x3F DUP2 AND DUP6 ADD MLOAD DUP5 MSTORE8 POP PUSH1 0x1 DUP4 ADD SWAP3 POP PUSH2 0x121 JUMP JUMPDEST POP POP PUSH1 0x3 DUP7 MLOAD MOD PUSH1 0x1 DUP2 EQ PUSH2 0x198 JUMPI PUSH1 0x2 DUP2 EQ PUSH2 0x1AB JUMPI PUSH2 0x1B3 JUMP JUMPDEST PUSH1 0x3D PUSH1 0x1 DUP4 SUB MSTORE8 PUSH1 0x3D PUSH1 0x2 DUP4 SUB MSTORE8 PUSH2 0x1B3 JUMP JUMPDEST PUSH1 0x3D PUSH1 0x1 DUP4 SUB MSTORE8 JUMPDEST POP SWAP2 SWAP6 SWAP5 POP POP POP POP POP JUMP JUMPDEST PUSH4 0x4E487B71 PUSH1 0xE0 SHL PUSH1 0x0 MSTORE PUSH1 0x41 PUSH1 0x4 MSTORE PUSH1 0x24 PUSH1 0x0 REVERT JUMPDEST PUSH1 0x0 PUSH1 0x20 DUP3 DUP5 SUB SLT ISZERO PUSH2 0x1E6 JUMPI PUSH1 0x0 DUP1 REVERT JUMPDEST DUP2 CALLDATALOAD PUSH8 0xFFFFFFFFFFFFFFFF DUP1 DUP3 GT ISZERO PUSH2 0x1FE JUMPI PUSH1 0x0 DUP1 REVERT JUMPDEST DUP2 DUP5 ADD SWAP2 POP DUP5 PUSH1 0x1F DUP4 ADD SLT PUSH2 0x212 JUMPI PUSH1 0x0 DUP1 REVERT JUMPDEST DUP2 CALLDATALOAD DUP2 DUP2 GT ISZERO PUSH2 0x224 JUMPI PUSH2 0x224 PUSH2 0x1BE JUMP JUMPDEST PUSH1 0x40 MLOAD PUSH1 0x1F DUP3 ADD PUSH1 0x1F NOT SWAP1 DUP2 AND PUSH1 0x3F ADD AND DUP2 ADD SWAP1 DUP4 DUP3 GT DUP2 DUP4 LT OR ISZERO PUSH2 0x24C JUMPI PUSH2 0x24C PUSH2 0x1BE JUMP JUMPDEST DUP2 PUSH1 0x40 MSTORE DUP3 DUP2 MSTORE DUP8 PUSH1 0x20 DUP5 DUP8 ADD ADD GT ISZERO PUSH2 0x265 JUMPI PUSH1 0x0 DUP1 REVERT JUMPDEST DUP3 PUSH1 0x20 DUP7 ADD PUSH1 0x20 DUP4 ADD CALLDATACOPY PUSH1 0x0 SWAP3 DUP2 ADD PUSH1 0x20 ADD SWAP3 SWAP1 SWAP3 MSTORE POP SWAP6 SWAP5 POP POP POP POP POP JUMP JUMPDEST PUSH1 0x0 PUSH1 0x20 DUP1 DUP4 MSTORE DUP4 MLOAD DUP1 DUP3 DUP6 ADD MSTORE PUSH1 0x0 JUMPDEST DUP2 DUP2 LT ISZERO PUSH2 0x2B2 JUMPI DUP6 DUP2 ADD DUP4 ADD MLOAD DUP6 DUP3 ADD PUSH1 0x40 ADD MSTORE DUP3 ADD PUSH2 0x296 JUMP JUMPDEST DUP2 DUP2 GT ISZERO PUSH2 0x2C4 JUMPI PUSH1 0x0 PUSH1 0x40 DUP4 DUP8 ADD ADD MSTORE JUMPDEST POP PUSH1 0x1F ADD PUSH1 0x1F NOT AND SWAP3 SWAP1 SWAP3 ADD PUSH1 0x40 ADD SWAP4 SWAP3 POP POP POP JUMP JUMPDEST PUSH4 0x4E487B71 PUSH1 0xE0 SHL PUSH1 0x0 MSTORE PUSH1 0x11 PUSH1 0x4 MSTORE PUSH1 0x24 PUSH1 0x0 REVERT JUMPDEST PUSH1 0x0 DUP3 NOT DUP3 GT ISZERO PUSH2 0x303 JUMPI PUSH2 0x303 PUSH2 0x2DA JUMP JUMPDEST POP ADD SWAP1 JUMP JUMPDEST PUSH1 0x0 DUP3 PUSH2 0x325 JUMPI PUSH4 0x4E487B71 PUSH1 0xE0 SHL PUSH1 0x0 MSTORE PUSH1 0x12 PUSH1 0x4 MSTORE PUSH1 0x24 PUSH1 0x0 REVERT JUMPDEST POP DIV SWAP1 JUMP JUMPDEST PUSH1 0x0 DUP2 PUSH1 0x0 NOT DIV DUP4 GT DUP3 ISZERO ISZERO AND ISZERO PUSH2 0x344 JUMPI PUSH2 0x344 PUSH2 0x2DA JUMP JUMPDEST POP MUL SWAP1 JUMP INVALID COINBASE TIMESTAMP NUMBER DIFFICULTY GASLIMIT CHAINID SELFBALANCE BASEFEE 0x49 0x4A 0x4B 0x4C 0x4D 0x4E 0x4F POP MLOAD MSTORE MSTORE8 SLOAD SSTORE JUMP JUMPI PC MSIZE GAS PUSH2 0x6263 PUSH5 0x6566676869 PUSH11 0x6B6C6D6E6F707172737475 PUSH23 0x7778797A303132333435363738392B2FA2646970667358 0x22 SLT KECCAK256 0xCA 0xFB EXTCODESIZE MOD 0xB5 SWAP12 CALL DUP3 SWAP9 0xAC PUSH30 0x9BFE18892AD1F9BA430F14A0B12BC6D951D4A17E364736F6C634300080C STOP CALLER ",
  "sha1": "4d155a3f750b785140286db369bdfe10cbae6aa9",
  "source": "// SPDX-License-Identifier: MIT\n\npragma solidity ^0.8.0;\n\nimport \"../utils/Base64.sol\";\n\ncontract Base64Mock {\n    function encode(bytes memory value) external pure returns (string memory) {\n        return Base64.encode(value);\n    }\n}\n",
  "sourcePath": "contracts/openzeppelin/contracts/mocks/Base64Mock.sol",
  "type": "contract"
}