{
  "abi": [
    {
      "anonymous": false,
      "inputs": [],
      "name": "MockFunctionCalled",
      "type": "event"
    },
    {
      "anonymous": false,
      "inputs": [
        {
          "indexed": false,
          "internalType": "uint256",
          "name": "a",
          "type": "uint256"
        },
        {
          "indexed": false,
          "internalType": "uint256",
          "name": "b",
          "type": "uint256"
        }
      ],
      "name": "MockFunctionCalledWithArgs",
      "type": "event"
    },
    {
      "inputs": [],
      "name": "mockFunction",
      "outputs": [
        {
          "internalType": "string",
          "name": "",
          "type": "string"
        }
      ],
      "stateMutability": "payable",
      "type": "function"
    },
    {
      "inputs": [],
      "name": "mockFunctionNonPayable",
      "outputs": [
        {
          "internalType": "string",
          "name": "",
          "type": "string"
        }
      ],
      "stateMutability": "nonpayable",
      "type": "function"
    },
    {
      "inputs": [],
      "name": "mockFunctionOutOfGas",
      "outputs": [],
      "stateMutability": "payable",
      "type": "function"
    },
    {
      "inputs": [],
      "name": "mockFunctionRevertsNoReason",
      "outputs": [],
      "stateMutability": "payable",
      "type": "function"
    },
    {
      "inputs": [],
      "name": "mockFunctionRevertsReason",
      "outputs": [],
      "stateMutability": "payable",
      "type": "function"
    },
    {
      "inputs": [],
      "name": "mockFunctionThrows",
      "outputs": [],
      "stateMutability": "payable",
      "type": "function"
    },
    {
      "inputs": [
        {
          "internalType": "uint256",
          "name": "a",
          "type": "uint256"
        },
        {
          "internalType": "uint256",
          "name": "b",
          "type": "uint256"
        }
      ],
      "name": "mockFunctionWithArgs",
      "outputs": [
        {
          "internalType": "string",
          "name": "",
          "type": "string"
        }
      ],
      "stateMutability": "payable",
      "type": "function"
    },
    {
      "inputs": [],
      "name": "mockFunctionWritesStorage",
      "outputs": [
        {
          "internalType": "string",
          "name": "",
          "type": "string"
        }
      ],
      "stateMutability": "nonpayable",
      "type": "function"
    },
    {
      "inputs": [],
      "name": "mockStaticFunction",
      "outputs": [
        {
          "internalType": "string",
          "name": "",
          "type": "string"
        }
      ],
      "stateMutability": "pure",
      "type": "function"
    },
    {
      "inputs": [],
      "name": "sharedAnswer",
      "outputs": [
        {
          "internalType": "string",
          "name": "",
          "type": "string"
        }
      ],
      "stateMutability": "view",
      "type": "function"
    }
  ],
  "bytecode": "608060405234801561001057600080fd5b5061053e806100206000396000f3fe6080604052600436106100915760003560e01c8063a793ab4711610059578063a793ab47146100e3578063aa04f77e146100eb578063c8fc769614610100578063fc40cf731461012f578063fdb273251461014457600080fd5b80630c034968146100965780630f63e42c146100a05780632c81d638146100cb5780633bcfaa14146100d35780633e6fec04146100db575b600080fd5b61009e610157565b005b3480156100ac57600080fd5b506100b56101a3565b6040516100c29190610417565b60405180910390f35b61009e600080fd5b61009e6101f0565b6100b56101a3565b61009e6101fa565b3480156100f757600080fd5b506100b5610241565b34801561010c57600080fd5b506040805180820190915260068152650c1e0c4c8ccd60d21b60208201526100b5565b34801561013b57600080fd5b506100b5610290565b6100b561015236600461046c565b61031e565b60405162461bcd60e51b815260206004820152601b60248201527f43616c6c52656365697665724d6f636b3a20726576657274696e670000000000604482015260640160405180910390fd5b6040516060907f52c66ed6ec9ca819cba26fe2b2650059270d8981b295af300187a964f54a8c2390600090a1506040805180820190915260068152650c1e0c4c8ccd60d21b602082015290565b6101f861048e565b565b60005b6001805480820182556000919091527fb10e2d527612073b26eecdfd717e6a320cf44b4afac2b0732d9fcbe2b7fa0cf60181905561023a816104a4565b90506101fd565b604080518082019091526002808252611a1960f11b602090920191825260609161026e916000919061037e565b50506040805180820190915260068152650c1e0c4c8ccd60d21b602082015290565b6000805461029d906104cd565b80601f01602080910402602001604051908101604052809291908181526020018280546102c9906104cd565b80156103165780601f106102eb57610100808354040283529160200191610316565b820191906000526020600020905b8154815290600101906020018083116102f957829003601f168201915b505050505081565b60408051838152602081018390526060917f2b42b3c9af4187c86225f201736204c7597312c830cb5c2537dff6ef24b946ae910160405180910390a1506040805180820190915260068152650c1e0c4c8ccd60d21b602082015292915050565b82805461038a906104cd565b90600052602060002090601f0160209004810192826103ac57600085556103f2565b82601f106103c557805160ff19168380011785556103f2565b828001600101855582156103f2579182015b828111156103f25782518255916020019190600101906103d7565b506103fe929150610402565b5090565b5b808211156103fe5760008155600101610403565b600060208083528351808285015260005b8181101561044457858101830151858201604001528201610428565b81811115610456576000604083870101525b50601f01601f1916929092016040019392505050565b6000806040838503121561047f57600080fd5b50508035926020909101359150565b634e487b7160e01b600052600160045260246000fd5b60006000198214156104c657634e487b7160e01b600052601160045260246000fd5b5060010190565b600181811c908216806104e157607f821691505b6020821081141561050257634e487b7160e01b600052602260045260246000fd5b5091905056fea264697066735822122060aa96a8d8c39da1ca9605ab8bb619ea02aa3183d0d660db41f2695f92df47a164736f6c634300080c0033",
  "bytecodeSha1": "18f2aac9734ad00af128c5bc71a230e8df7be125",
  "compiler": {
    "evm_version": "istanbul",
    "optimizer": {
      "enabled": true,
      "runs": 200
    },
    "version": "0.8.12+commit.f00d7308"
  },
  "contractName": "CallReceiverMock",
  "language": "Solidity",
  "natspec": {
    "kind": "dev",
    "methods": {},
    "version": 1
  },
  "opcodes": "PUSH1 0x80 PUSH1 0x40 MSTORE PUSH1 0x4 CALLDATASIZE LT PUSH2 0x91 JUMPI PUSH1 0x0 CALLDATALOAD PUSH1 0xE0 SHR DUP1 PUSH4 0xA793AB47 GT PUSH2 0x59 JUMPI DUP1 PUSH4 0xA793AB47 EQ PUSH2 0xE3 JUMPI DUP1 PUSH4 0xAA04F77E EQ PUSH2 0xEB JUMPI DUP1 PUSH4 0xC8FC7696 EQ PUSH2 0x100 JUMPI DUP1 PUSH4 0xFC40CF73 EQ PUSH2 0x12F JUMPI DUP1 PUSH4 0xFDB27325 EQ PUSH2 0x144 JUMPI PUSH1 0x0 DUP1 REVERT JUMPDEST DUP1 PUSH4 0xC034968 EQ PUSH2 0x96 JUMPI DUP1 PUSH4 0xF63E42C EQ PUSH2 0xA0 JUMPI DUP1 PUSH4 0x2C81D638 EQ PUSH2 0xCB JUMPI DUP1 PUSH4 0x3BCFAA14 EQ PUSH2 0xD3 JUMPI DUP1 PUSH4 0x3E6FEC04 EQ PUSH2 0xDB JUMPI JUMPDEST PUSH1 0x0 DUP1 REVERT JUMPDEST PUSH2 0x9E PUSH2 0x157 JUMP JUMPDEST STOP JUMPDEST CALLVALUE DUP1 ISZERO PUSH2 0xAC JUMPI PUSH1 0x0 DUP1 REVERT JUMPDEST POP PUSH2 0xB5 PUSH2 0x1A3 JUMP JUMPDEST PUSH1 0x40 MLOAD PUSH2 0xC2 SWAP2 SWAP1 PUSH2 0x417 JUMP JUMPDEST PUSH1 0x40 MLOAD DUP1 SWAP2 SUB SWAP1 RETURN JUMPDEST PUSH2 0x9E PUSH1 0x0 DUP1 REVERT JUMPDEST PUSH2 0x9E PUSH2 0x1F0 JUMP JUMPDEST PUSH2 0xB5 PUSH2 0x1A3 JUMP JUMPDEST PUSH2 0x9E PUSH2 0x1FA JUMP JUMPDEST CALLVALUE DUP1 ISZERO PUSH2 0xF7 JUMPI PUSH1 0x0 DUP1 REVERT JUMPDEST POP PUSH2 0xB5 PUSH2 0x241 JUMP JUMPDEST CALLVALUE DUP1 ISZERO PUSH2 0x10C JUMPI PUSH1 0x0 DUP1 REVERT JUMPDEST POP PUSH1 0x40 DUP1 MLOAD DUP1 DUP3 ADD SWAP1 SWAP2 MSTORE PUSH1 0x6 DUP2 MSTORE PUSH6 0xC1E0C4C8CCD PUSH1 0xD2 SHL PUSH1 0x20 DUP3 ADD MSTORE PUSH2 0xB5 JUMP JUMPDEST CALLVALUE DUP1 ISZERO PUSH2 0x13B JUMPI PUSH1 0x0 DUP1 REVERT JUMPDEST POP PUSH2 0xB5 PUSH2 0x290 JUMP JUMPDEST PUSH2 0xB5 PUSH2 0x152 CALLDATASIZE PUSH1 0x4 PUSH2 0x46C JUMP JUMPDEST PUSH2 0x31E JUMP JUMPDEST PUSH1 0x40 MLOAD PUSH3 0x461BCD PUSH1 0xE5 SHL DUP2 MSTORE PUSH1 0x20 PUSH1 0x4 DUP3 ADD MSTORE PUSH1 0x1B PUSH1 0x24 DUP3 ADD MSTORE PUSH32 0x43616C6C52656365697665724D6F636B3A20726576657274696E670000000000 PUSH1 0x44 DUP3 ADD MSTORE PUSH1 0x64 ADD PUSH1 0x40 MLOAD DUP1 SWAP2 SUB SWAP1 REVERT JUMPDEST PUSH1 0x40 MLOAD PUSH1 0x60 SWAP1 PUSH32 0x52C66ED6EC9CA819CBA26FE2B2650059270D8981B295AF300187A964F54A8C23 SWAP1 PUSH1 0x0 SWAP1 LOG1 POP PUSH1 0x40 DUP1 MLOAD DUP1 DUP3 ADD SWAP1 SWAP2 MSTORE PUSH1 0x6 DUP2 MSTORE PUSH6 0xC1E0C4C8CCD PUSH1 0xD2 SHL PUSH1 0x20 DUP3 ADD MSTORE SWAP1 JUMP JUMPDEST PUSH2 0x1F8 PUSH2 0x48E JUMP JUMPDEST JUMP JUMPDEST PUSH1 0x0 JUMPDEST PUSH1 0x1 DUP1 SLOAD DUP1 DUP3 ADD DUP3 SSTORE PUSH1 0x0 SWAP2 SWAP1 SWAP2 MSTORE PUSH32 0xB10E2D527612073B26EECDFD717E6A320CF44B4AFAC2B0732D9FCBE2B7FA0CF6 ADD DUP2 SWAP1 SSTORE PUSH2 0x23A DUP2 PUSH2 0x4A4 JUMP JUMPDEST SWAP1 POP PUSH2 0x1FD JUMP JUMPDEST PUSH1 0x40 DUP1 MLOAD DUP1 DUP3 ADD SWAP1 SWAP2 MSTORE PUSH1 0x2 DUP1 DUP3 MSTORE PUSH2 0x1A19 PUSH1 0xF1 SHL PUSH1 0x20 SWAP1 SWAP3 ADD SWAP2 DUP3 MSTORE PUSH1 0x60 SWAP2 PUSH2 0x26E SWAP2 PUSH1 0x0 SWAP2 SWAP1 PUSH2 0x37E JUMP JUMPDEST POP POP PUSH1 0x40 DUP1 MLOAD DUP1 DUP3 ADD SWAP1 SWAP2 MSTORE PUSH1 0x6 DUP2 MSTORE PUSH6 0xC1E0C4C8CCD PUSH1 0xD2 SHL PUSH1 0x20 DUP3 ADD MSTORE SWAP1 JUMP JUMPDEST PUSH1 0x0 DUP1 SLOAD PUSH2 0x29D SWAP1 PUSH2 0x4CD JUMP JUMPDEST DUP1 PUSH1 0x1F ADD PUSH1 0x20 DUP1 SWAP2 DIV MUL PUSH1 0x20 ADD PUSH1 0x40 MLOAD SWAP1 DUP2 ADD PUSH1 0x40 MSTORE DUP1 SWAP3 SWAP2 SWAP1 DUP2 DUP2 MSTORE PUSH1 0x20 ADD DUP3 DUP1 SLOAD PUSH2 0x2C9 SWAP1 PUSH2 0x4CD JUMP JUMPDEST DUP1 ISZERO PUSH2 0x316 JUMPI DUP1 PUSH1 0x1F LT PUSH2 0x2EB JUMPI PUSH2 0x100 DUP1 DUP4 SLOAD DIV MUL DUP4 MSTORE SWAP2 PUSH1 0x20 ADD SWAP2 PUSH2 0x316 JUMP JUMPDEST DUP3 ADD SWAP2 SWAP1 PUSH1 0x0 MSTORE PUSH1 0x20 PUSH1 0x0 KECCAK256 SWAP1 JUMPDEST DUP2 SLOAD DUP2 MSTORE SWAP1 PUSH1 0x1 ADD SWAP1 PUSH1 0x20 ADD DUP1 DUP4 GT PUSH2 0x2F9 JUMPI DUP3 SWAP1 SUB PUSH1 0x1F AND DUP3 ADD SWAP2 JUMPDEST POP POP POP POP POP DUP2 JUMP JUMPDEST PUSH1 0x40 DUP1 MLOAD DUP4 DUP2 MSTORE PUSH1 0x20 DUP2 ADD DUP4 SWAP1 MSTORE PUSH1 0x60 SWAP2 PUSH32 0x2B42B3C9AF4187C86225F201736204C7597312C830CB5C2537DFF6EF24B946AE SWAP2 ADD PUSH1 0x40 MLOAD DUP1 SWAP2 SUB SWAP1 LOG1 POP PUSH1 0x40 DUP1 MLOAD DUP1 DUP3 ADD SWAP1 SWAP2 MSTORE PUSH1 0x6 DUP2 MSTORE PUSH6 0xC1E0C4C8CCD PUSH1 0xD2 SHL PUSH1 0x20 DUP3 ADD MSTORE SWAP3 SWAP2 POP POP JUMP JUMPDEST DUP3 DUP1 SLOAD PUSH2 0x38A SWAP1 PUSH2 0x4CD JUMP JUMPDEST SWAP1 PUSH1 0x0 MSTORE PUSH1 0x20 PUSH1 0x0 KECCAK256 SWAP1 PUSH1 0x1F ADD PUSH1 0x20 SWAP1 DIV DUP2 ADD SWAP3 DUP3 PUSH2 0x3AC JUMPI PUSH1 0x0 DUP6 SSTORE PUSH2 0x3F2 JUMP JUMPDEST DUP3 PUSH1 0x1F LT PUSH2 0x3C5 JUMPI DUP1 MLOAD PUSH1 0xFF NOT AND DUP4 DUP1 ADD OR DUP6 SSTORE PUSH2 0x3F2 JUMP JUMPDEST DUP3 DUP1 ADD PUSH1 0x1 ADD DUP6 SSTORE DUP3 ISZERO PUSH2 0x3F2 JUMPI SWAP2 DUP3 ADD JUMPDEST DUP3 DUP2 GT ISZERO PUSH2 0x3F2 JUMPI DUP3 MLOAD DUP3 SSTORE SWAP2 PUSH1 0x20 ADD SWAP2 SWAP1 PUSH1 0x1 ADD SWAP1 PUSH2 0x3D7 JUMP JUMPDEST POP PUSH2 0x3FE SWAP3 SWAP2 POP PUSH2 0x402 JUMP JUMPDEST POP SWAP1 JUMP JUMPDEST JUMPDEST DUP1 DUP3 GT ISZERO PUSH2 0x3FE JUMPI PUSH1 0x0 DUP2 SSTORE PUSH1 0x1 ADD PUSH2 0x403 JUMP JUMPDEST PUSH1 0x0 PUSH1 0x20 DUP1 DUP4 MSTORE DUP4 MLOAD DUP1 DUP3 DUP6 ADD MSTORE PUSH1 0x0 JUMPDEST DUP2 DUP2 LT ISZERO PUSH2 0x444 JUMPI DUP6 DUP2 ADD DUP4 ADD MLOAD DUP6 DUP3 ADD PUSH1 0x40 ADD MSTORE DUP3 ADD PUSH2 0x428 JUMP JUMPDEST DUP2 DUP2 GT ISZERO PUSH2 0x456 JUMPI PUSH1 0x0 PUSH1 0x40 DUP4 DUP8 ADD ADD MSTORE JUMPDEST POP PUSH1 0x1F ADD PUSH1 0x1F NOT AND SWAP3 SWAP1 SWAP3 ADD PUSH1 0x40 ADD SWAP4 SWAP3 POP POP POP JUMP JUMPDEST PUSH1 0x0 DUP1 PUSH1 0x40 DUP4 DUP6 SUB SLT ISZERO PUSH2 0x47F JUMPI PUSH1 0x0 DUP1 REVERT JUMPDEST POP POP DUP1 CALLDATALOAD SWAP3 PUSH1 0x20 SWAP1 SWAP2 ADD CALLDATALOAD SWAP2 POP JUMP JUMPDEST PUSH4 0x4E487B71 PUSH1 0xE0 SHL PUSH1 0x0 MSTORE PUSH1 0x1 PUSH1 0x4 MSTORE PUSH1 0x24 PUSH1 0x0 REVERT JUMPDEST PUSH1 0x0 PUSH1 0x0 NOT DUP3 EQ ISZERO PUSH2 0x4C6 JUMPI PUSH4 0x4E487B71 PUSH1 0xE0 SHL PUSH1 0x0 MSTORE PUSH1 0x11 PUSH1 0x4 MSTORE PUSH1 0x24 PUSH1 0x0 REVERT JUMPDEST POP PUSH1 0x1 ADD SWAP1 JUMP JUMPDEST PUSH1 0x1 DUP2 DUP2 SHR SWAP1 DUP3 AND DUP1 PUSH2 0x4E1 JUMPI PUSH1 0x7F DUP3 AND SWAP2 POP JUMPDEST PUSH1 0x20 DUP3 LT DUP2 EQ ISZERO PUSH2 0x502 JUMPI PUSH4 0x4E487B71 PUSH1 0xE0 SHL PUSH1 0x0 MSTORE PUSH1 0x22 PUSH1 0x4 MSTORE PUSH1 0x24 PUSH1 0x0 REVERT JUMPDEST POP SWAP2 SWAP1 POP JUMP INVALID LOG2 PUSH5 0x6970667358 0x22 SLT KECCAK256 PUSH1 0xAA SWAP7 0xA8 0xD8 0xC3 SWAP14 LOG1 0xCA SWAP7 SDIV 0xAB DUP12 0xB6 NOT 0xEA MUL 0xAA BALANCE DUP4 0xD0 0xD6 PUSH1 0xDB COINBASE CALLCODE PUSH10 0x5F92DF47A164736F6C63 NUMBER STOP ADDMOD 0xC STOP CALLER ",
  "sha1": "dbda72ea751f759067cf60cc2d224021b61eb789",
  "source": "// SPDX-License-Identifier: MIT\n\npragma solidity ^0.8.0;\n\ncontract CallReceiverMock {\n    string public sharedAnswer;\n\n    event MockFunctionCalled();\n    event MockFunctionCalledWithArgs(uint256 a, uint256 b);\n\n    uint256[] private _array;\n\n    function mockFunction() public payable returns (string memory) {\n        emit MockFunctionCalled();\n\n        return \"0x1234\";\n    }\n\n    function mockFunctionWithArgs(uint256 a, uint256 b) public payable returns (string memory) {\n        emit MockFunctionCalledWithArgs(a, b);\n\n        return \"0x1234\";\n    }\n\n    function mockFunctionNonPayable() public returns (string memory) {\n        emit MockFunctionCalled();\n\n        return \"0x1234\";\n    }\n\n    function mockStaticFunction() public pure returns (string memory) {\n        return \"0x1234\";\n    }\n\n    function mockFunctionRevertsNoReason() public payable {\n        revert();\n    }\n\n    function mockFunctionRevertsReason() public payable {\n        revert(\"CallReceiverMock: reverting\");\n    }\n\n    function mockFunctionThrows() public payable {\n        assert(false);\n    }\n\n    function mockFunctionOutOfGas() public payable {\n        for (uint256 i = 0; ; ++i) {\n            _array.push(i);\n        }\n    }\n\n    function mockFunctionWritesStorage() public returns (string memory) {\n        sharedAnswer = \"42\";\n        return \"0x1234\";\n    }\n}\n",
  "sourcePath": "contracts/openzeppelin/contracts/mocks/CallReceiverMock.sol",
  "type": "contract"
}