{
  "_format": "hh-sol-artifact-1",
  "contractName": "CFNFT",
  "sourceName": "contracts/CFNT.sol",
  "abi": [
    {
      "inputs": [
        {
          "internalType": "string",
          "name": "_name",
          "type": "string"
        },
        {
          "internalType": "string",
          "name": "_symbol",
          "type": "string"
        },
        {
          "internalType": "uint256",
          "name": "_maxSupply",
          "type": "uint256"
        },
        {
          "internalType": "string",
          "name": "_base_URI",
          "type": "string"
        },
        {
          "internalType": "address",
          "name": "_treasuryAddress",
          "type": "address"
        },
        {
          "internalType": "address",
          "name": "_devAddress",
          "type": "address"
        },
        {
          "internalType": "uint256",
          "name": "_treasuryFee",
          "type": "uint256"
        },
        {
          "internalType": "uint256",
          "name": "_devFee",
          "type": "uint256"
        }
      ],
      "stateMutability": "nonpayable",
      "type": "constructor"
    },
    {
      "anonymous": false,
      "inputs": [
        {
          "indexed": true,
          "internalType": "address",
          "name": "owner",
          "type": "address"
        },
        {
          "indexed": true,
          "internalType": "address",
          "name": "approved",
          "type": "address"
        },
        {
          "indexed": true,
          "internalType": "uint256",
          "name": "tokenId",
          "type": "uint256"
        }
      ],
      "name": "Approval",
      "type": "event"
    },
    {
      "anonymous": false,
      "inputs": [
        {
          "indexed": true,
          "internalType": "address",
          "name": "owner",
          "type": "address"
        },
        {
          "indexed": true,
          "internalType": "address",
          "name": "operator",
          "type": "address"
        },
        {
          "indexed": false,
          "internalType": "bool",
          "name": "approved",
          "type": "bool"
        }
      ],
      "name": "ApprovalForAll",
      "type": "event"
    },
    {
      "anonymous": false,
      "inputs": [
        {
          "indexed": true,
          "internalType": "address",
          "name": "previousOwner",
          "type": "address"
        },
        {
          "indexed": true,
          "internalType": "address",
          "name": "newOwner",
          "type": "address"
        }
      ],
      "name": "OwnershipTransferred",
      "type": "event"
    },
    {
      "anonymous": false,
      "inputs": [
        {
          "indexed": false,
          "internalType": "address",
          "name": "account",
          "type": "address"
        }
      ],
      "name": "Paused",
      "type": "event"
    },
    {
      "anonymous": false,
      "inputs": [
        {
          "indexed": true,
          "internalType": "address",
          "name": "from",
          "type": "address"
        },
        {
          "indexed": true,
          "internalType": "address",
          "name": "to",
          "type": "address"
        },
        {
          "indexed": true,
          "internalType": "uint256",
          "name": "tokenId",
          "type": "uint256"
        }
      ],
      "name": "Transfer",
      "type": "event"
    },
    {
      "anonymous": false,
      "inputs": [
        {
          "indexed": false,
          "internalType": "address",
          "name": "account",
          "type": "address"
        }
      ],
      "name": "Unpaused",
      "type": "event"
    },
    {
      "inputs": [],
      "name": "BASE_URI",
      "outputs": [
        {
          "internalType": "string",
          "name": "",
          "type": "string"
        }
      ],
      "stateMutability": "view",
      "type": "function"
    },
    {
      "inputs": [],
      "name": "DEV_ADDRESS",
      "outputs": [
        {
          "internalType": "address",
          "name": "",
          "type": "address"
        }
      ],
      "stateMutability": "view",
      "type": "function"
    },
    {
      "inputs": [],
      "name": "DEV_FEE",
      "outputs": [
        {
          "internalType": "uint256",
          "name": "",
          "type": "uint256"
        }
      ],
      "stateMutability": "view",
      "type": "function"
    },
    {
      "inputs": [],
      "name": "MAX_SUPPLY",
      "outputs": [
        {
          "internalType": "uint256",
          "name": "",
          "type": "uint256"
        }
      ],
      "stateMutability": "view",
      "type": "function"
    },
    {
      "inputs": [],
      "name": "TREASURY_ADDRESS",
      "outputs": [
        {
          "internalType": "address",
          "name": "",
          "type": "address"
        }
      ],
      "stateMutability": "view",
      "type": "function"
    },
    {
      "inputs": [],
      "name": "TREASURY_FEE",
      "outputs": [
        {
          "internalType": "uint256",
          "name": "",
          "type": "uint256"
        }
      ],
      "stateMutability": "view",
      "type": "function"
    },
    {
      "inputs": [
        {
          "internalType": "address",
          "name": "to",
          "type": "address"
        },
        {
          "internalType": "uint256",
          "name": "tokenId",
          "type": "uint256"
        }
      ],
      "name": "approve",
      "outputs": [],
      "stateMutability": "nonpayable",
      "type": "function"
    },
    {
      "inputs": [
        {
          "internalType": "address",
          "name": "owner",
          "type": "address"
        }
      ],
      "name": "balanceOf",
      "outputs": [
        {
          "internalType": "uint256",
          "name": "",
          "type": "uint256"
        }
      ],
      "stateMutability": "view",
      "type": "function"
    },
    {
      "inputs": [
        {
          "internalType": "uint256",
          "name": "tokenId",
          "type": "uint256"
        }
      ],
      "name": "getApproved",
      "outputs": [
        {
          "internalType": "address",
          "name": "",
          "type": "address"
        }
      ],
      "stateMutability": "view",
      "type": "function"
    },
    {
      "inputs": [
        {
          "internalType": "address",
          "name": "owner",
          "type": "address"
        },
        {
          "internalType": "address",
          "name": "operator",
          "type": "address"
        }
      ],
      "name": "isApprovedForAll",
      "outputs": [
        {
          "internalType": "bool",
          "name": "",
          "type": "bool"
        }
      ],
      "stateMutability": "view",
      "type": "function"
    },
    {
      "inputs": [],
      "name": "mint",
      "outputs": [
        {
          "internalType": "uint256",
          "name": "",
          "type": "uint256"
        }
      ],
      "stateMutability": "payable",
      "type": "function"
    },
    {
      "inputs": [],
      "name": "name",
      "outputs": [
        {
          "internalType": "string",
          "name": "",
          "type": "string"
        }
      ],
      "stateMutability": "view",
      "type": "function"
    },
    {
      "inputs": [
        {
          "internalType": "address",
          "name": "",
          "type": "address"
        }
      ],
      "name": "nftOwners",
      "outputs": [
        {
          "internalType": "bool",
          "name": "",
          "type": "bool"
        }
      ],
      "stateMutability": "view",
      "type": "function"
    },
    {
      "inputs": [],
      "name": "owner",
      "outputs": [
        {
          "internalType": "address",
          "name": "",
          "type": "address"
        }
      ],
      "stateMutability": "view",
      "type": "function"
    },
    {
      "inputs": [
        {
          "internalType": "uint256",
          "name": "tokenId",
          "type": "uint256"
        }
      ],
      "name": "ownerOf",
      "outputs": [
        {
          "internalType": "address",
          "name": "",
          "type": "address"
        }
      ],
      "stateMutability": "view",
      "type": "function"
    },
    {
      "inputs": [],
      "name": "pause",
      "outputs": [],
      "stateMutability": "nonpayable",
      "type": "function"
    },
    {
      "inputs": [],
      "name": "paused",
      "outputs": [
        {
          "internalType": "bool",
          "name": "",
          "type": "bool"
        }
      ],
      "stateMutability": "view",
      "type": "function"
    },
    {
      "inputs": [],
      "name": "renounceOwnership",
      "outputs": [],
      "stateMutability": "nonpayable",
      "type": "function"
    },
    {
      "inputs": [
        {
          "internalType": "address",
          "name": "from",
          "type": "address"
        },
        {
          "internalType": "address",
          "name": "to",
          "type": "address"
        },
        {
          "internalType": "uint256",
          "name": "tokenId",
          "type": "uint256"
        }
      ],
      "name": "safeTransferFrom",
      "outputs": [],
      "stateMutability": "nonpayable",
      "type": "function"
    },
    {
      "inputs": [
        {
          "internalType": "address",
          "name": "from",
          "type": "address"
        },
        {
          "internalType": "address",
          "name": "to",
          "type": "address"
        },
        {
          "internalType": "uint256",
          "name": "tokenId",
          "type": "uint256"
        },
        {
          "internalType": "bytes",
          "name": "_data",
          "type": "bytes"
        }
      ],
      "name": "safeTransferFrom",
      "outputs": [],
      "stateMutability": "nonpayable",
      "type": "function"
    },
    {
      "inputs": [
        {
          "internalType": "address",
          "name": "operator",
          "type": "address"
        },
        {
          "internalType": "bool",
          "name": "approved",
          "type": "bool"
        }
      ],
      "name": "setApprovalForAll",
      "outputs": [],
      "stateMutability": "nonpayable",
      "type": "function"
    },
    {
      "inputs": [
        {
          "internalType": "bytes4",
          "name": "interfaceId",
          "type": "bytes4"
        }
      ],
      "name": "supportsInterface",
      "outputs": [
        {
          "internalType": "bool",
          "name": "",
          "type": "bool"
        }
      ],
      "stateMutability": "view",
      "type": "function"
    },
    {
      "inputs": [],
      "name": "symbol",
      "outputs": [
        {
          "internalType": "string",
          "name": "",
          "type": "string"
        }
      ],
      "stateMutability": "view",
      "type": "function"
    },
    {
      "inputs": [
        {
          "internalType": "uint256",
          "name": "tokenId",
          "type": "uint256"
        }
      ],
      "name": "tokenURI",
      "outputs": [
        {
          "internalType": "string",
          "name": "",
          "type": "string"
        }
      ],
      "stateMutability": "view",
      "type": "function"
    },
    {
      "inputs": [],
      "name": "totalSupply",
      "outputs": [
        {
          "internalType": "uint256",
          "name": "",
          "type": "uint256"
        }
      ],
      "stateMutability": "view",
      "type": "function"
    },
    {
      "inputs": [
        {
          "internalType": "address",
          "name": "from",
          "type": "address"
        },
        {
          "internalType": "address",
          "name": "to",
          "type": "address"
        },
        {
          "internalType": "uint256",
          "name": "tokenId",
          "type": "uint256"
        }
      ],
      "name": "transferFrom",
      "outputs": [],
      "stateMutability": "nonpayable",
      "type": "function"
    },
    {
      "inputs": [
        {
          "internalType": "address",
          "name": "newOwner",
          "type": "address"
        }
      ],
      "name": "transferOwnership",
      "outputs": [],
      "stateMutability": "nonpayable",
      "type": "function"
    },
    {
      "inputs": [],
      "name": "unpause",
      "outputs": [],
      "stateMutability": "nonpayable",
      "type": "function"
    },
    {
      "inputs": [
        {
          "internalType": "string",
          "name": "_newURI",
          "type": "string"
        }
      ],
      "name": "updateURI",
      "outputs": [],
      "stateMutability": "nonpayable",
      "type": "function"
    }
  ],
  "bytecode": "0x6101206040523480156200001257600080fd5b506040516200407b3803806200407b83398181016040528101906200003891906200037d565b87878160009080519060200190620000529291906200022d565b5080600190805190602001906200006b9291906200022d565b5050506000600660006101000a81548160ff021916908315150217905550620000a96200009d6200015f60201b60201c565b6200016760201b60201c565b600160078190555085608081815250508460089080519060200190620000d19291906200022d565b508373ffffffffffffffffffffffffffffffffffffffff1660a08173ffffffffffffffffffffffffffffffffffffffff1660601b815250508273ffffffffffffffffffffffffffffffffffffffff1660c08173ffffffffffffffffffffffffffffffffffffffff1660601b815250508160e0818152505080610100818152505050505050505050506200066d565b600033905090565b6000600660019054906101000a900473ffffffffffffffffffffffffffffffffffffffff16905081600660016101000a81548173ffffffffffffffffffffffffffffffffffffffff021916908373ffffffffffffffffffffffffffffffffffffffff1602179055508173ffffffffffffffffffffffffffffffffffffffff168173ffffffffffffffffffffffffffffffffffffffff167f8be0079c531659141344cd1fd0a4f28419497f9722a3daafe3b4186f6b6457e060405160405180910390a35050565b8280546200023b906200055e565b90600052602060002090601f0160209004810192826200025f5760008555620002ab565b82601f106200027a57805160ff1916838001178555620002ab565b82800160010185558215620002ab579182015b82811115620002aa5782518255916020019190600101906200028d565b5b509050620002ba9190620002be565b5090565b5b80821115620002d9576000816000905550600101620002bf565b5090565b6000620002f4620002ee84620004b4565b6200048b565b9050828152602081018484840111156200030d57600080fd5b6200031a84828562000528565b509392505050565b600081519050620003338162000639565b92915050565b600082601f8301126200034b57600080fd5b81516200035d848260208601620002dd565b91505092915050565b600081519050620003778162000653565b92915050565b600080600080600080600080610100898b0312156200039b57600080fd5b600089015167ffffffffffffffff811115620003b657600080fd5b620003c48b828c0162000339565b985050602089015167ffffffffffffffff811115620003e257600080fd5b620003f08b828c0162000339565b9750506040620004038b828c0162000366565b965050606089015167ffffffffffffffff8111156200042157600080fd5b6200042f8b828c0162000339565b9550506080620004428b828c0162000322565b94505060a0620004558b828c0162000322565b93505060c0620004688b828c0162000366565b92505060e06200047b8b828c0162000366565b9150509295985092959890939650565b600062000497620004aa565b9050620004a5828262000594565b919050565b6000604051905090565b600067ffffffffffffffff821115620004d257620004d1620005f9565b5b620004dd8262000628565b9050602081019050919050565b6000620004f782620004fe565b9050919050565b600073ffffffffffffffffffffffffffffffffffffffff82169050919050565b6000819050919050565b60005b83811015620005485780820151818401526020810190506200052b565b8381111562000558576000848401525b50505050565b600060028204905060018216806200057757607f821691505b602082108114156200058e576200058d620005ca565b5b50919050565b6200059f8262000628565b810181811067ffffffffffffffff82111715620005c157620005c0620005f9565b5b80604052505050565b7f4e487b7100000000000000000000000000000000000000000000000000000000600052602260045260246000fd5b7f4e487b7100000000000000000000000000000000000000000000000000000000600052604160045260246000fd5b6000601f19601f8301169050919050565b6200064481620004ea565b81146200065057600080fd5b50565b6200065e816200051e565b81146200066a57600080fd5b50565b60805160a05160601c60c05160601c60e05161010051613992620006e960003960008181610b2c01528181610ca20152610f7c015260008181610b4d01528181610bf60152611253015260008181610c6b0152610fa00152600081816108430152610bbf015260008181610dc20152610eb201526139926000f3fe6080604052600436106101c25760003560e01c80636352211e116100f7578063a22cb46511610095578063cf9b2d8911610064578063cf9b2d89146105ff578063dbddb26a1461063c578063e985e9c514610667578063f2fde38b146106a4576101c2565b8063a22cb46514610547578063b88d4fde14610570578063c30f4a5a14610599578063c87b56dd146105c2576101c2565b80638456cb59116100d15780638456cb59146104af5780638ce1a483146104c65780638da5cb5b146104f157806395d89b411461051c576101c2565b80636352211e1461041e57806370a082311461045b578063715018a614610498576101c2565b806323b872dd1161016457806342842e0e1161013e57806342842e0e14610374578063436a88c11461039d5780635639e8cf146103c85780635c975abb146103f3576101c2565b806323b872dd1461030957806332cb6b0c146103325780633f4ba83a1461035d576101c2565b8063081812fc116101a0578063081812fc1461025a578063095ea7b3146102975780631249c58b146102c057806318160ddd146102de576101c2565b806301ffc9a7146101c757806306fdde031461020457806307604b1a1461022f575b600080fd5b3480156101d357600080fd5b506101ee60048036038101906101e991906127b5565b6106cd565b6040516101fb9190612cd4565b60405180910390f35b34801561021057600080fd5b506102196107af565b6040516102269190612cef565b60405180910390f35b34801561023b57600080fd5b50610244610841565b6040516102519190612c6d565b60405180910390f35b34801561026657600080fd5b50610281600480360381019061027c9190612848565b610865565b60405161028e9190612c6d565b60405180910390f35b3480156102a357600080fd5b506102be60048036038101906102b99190612779565b6108ea565b005b6102c8610a02565b6040516102d59190612ff1565b60405180910390f35b3480156102ea57600080fd5b506102f3610e4a565b6040516103009190612ff1565b60405180910390f35b34801561031557600080fd5b50610330600480360381019061032b9190612673565b610e50565b005b34801561033e57600080fd5b50610347610eb0565b6040516103549190612ff1565b60405180910390f35b34801561036957600080fd5b50610372610ed4565b005b34801561038057600080fd5b5061039b60048036038101906103969190612673565b610f5a565b005b3480156103a957600080fd5b506103b2610f7a565b6040516103bf9190612ff1565b60405180910390f35b3480156103d457600080fd5b506103dd610f9e565b6040516103ea9190612c6d565b60405180910390f35b3480156103ff57600080fd5b50610408610fc2565b6040516104159190612cd4565b60405180910390f35b34801561042a57600080fd5b5061044560048036038101906104409190612848565b610fd9565b6040516104529190612c6d565b60405180910390f35b34801561046757600080fd5b50610482600480360381019061047d919061260e565b61108b565b60405161048f9190612ff1565b60405180910390f35b3480156104a457600080fd5b506104ad611143565b005b3480156104bb57600080fd5b506104c46111cb565b005b3480156104d257600080fd5b506104db611251565b6040516104e89190612ff1565b60405180910390f35b3480156104fd57600080fd5b50610506611275565b6040516105139190612c6d565b60405180910390f35b34801561052857600080fd5b5061053161129f565b60405161053e9190612cef565b60405180910390f35b34801561055357600080fd5b5061056e6004803603810190610569919061273d565b611331565b005b34801561057c57600080fd5b50610597600480360381019061059291906126c2565b611347565b005b3480156105a557600080fd5b506105c060048036038101906105bb9190612807565b6113a9565b005b3480156105ce57600080fd5b506105e960048036038101906105e49190612848565b61143f565b6040516105f69190612cef565b60405180910390f35b34801561060b57600080fd5b506106266004803603810190610621919061260e565b61151b565b6040516106339190612cd4565b60405180910390f35b34801561064857600080fd5b5061065161153b565b60405161065e9190612cef565b60405180910390f35b34801561067357600080fd5b5061068e60048036038101906106899190612637565b6115c9565b60405161069b9190612cd4565b60405180910390f35b3480156106b057600080fd5b506106cb60048036038101906106c6919061260e565b61165d565b005b60007f80ac58cd000000000000000000000000000000000000000000000000000000007bffffffffffffffffffffffffffffffffffffffffffffffffffffffff1916827bffffffffffffffffffffffffffffffffffffffffffffffffffffffff1916148061079857507f5b5e139f000000000000000000000000000000000000000000000000000000007bffffffffffffffffffffffffffffffffffffffffffffffffffffffff1916827bffffffffffffffffffffffffffffffffffffffffffffffffffffffff1916145b806107a857506107a782611755565b5b9050919050565b6060600080546107be90613216565b80601f01602080910402602001604051908101604052809291908181526020018280546107ea90613216565b80156108375780601f1061080c57610100808354040283529160200191610837565b820191906000526020600020905b81548152906001019060200180831161081a57829003601f168201915b5050505050905090565b7f000000000000000000000000000000000000000000000000000000000000000081565b6000610870826117bf565b6108af576040517f08c379a00000000000000000000000000000000000000000000000000000000081526004016108a690612ed1565b60405180910390fd5b6004600083815260200190815260200160002060009054906101000a900473ffffffffffffffffffffffffffffffffffffffff169050919050565b60006108f582610fd9565b90508073ffffffffffffffffffffffffffffffffffffffff168373ffffffffffffffffffffffffffffffffffffffff161415610966576040517f08c379a000000000000000000000000000000000000000000000000000000000815260040161095d90612f51565b60405180910390fd5b8073ffffffffffffffffffffffffffffffffffffffff1661098561182b565b73ffffffffffffffffffffffffffffffffffffffff1614806109b457506109b3816109ae61182b565b6115c9565b5b6109f3576040517f08c379a00000000000000000000000000000000000000000000000000000000081526004016109ea90612e51565b60405180910390fd5b6109fd8383611833565b505050565b6000610a0c610fc2565b15610a4c576040517f08c379a0000000000000000000000000000000000000000000000000000000008152600401610a4390612e31565b60405180910390fd5b60026007541415610a92576040517f08c379a0000000000000000000000000000000000000000000000000000000008152600401610a8990612fd1565b60405180910390fd5b6002600781905550600a60003373ffffffffffffffffffffffffffffffffffffffff1673ffffffffffffffffffffffffffffffffffffffff16815260200190815260200160002060009054906101000a900460ff1615610b27576040517f08c379a0000000000000000000000000000000000000000000000000000000008152600401610b1e90612fb1565b60405180910390fd5b610b7a7f00000000000000000000000000000000000000000000000000000000000000007f00000000000000000000000000000000000000000000000000000000000000006118ec90919063ffffffff16565b3414610bbb576040517f08c379a0000000000000000000000000000000000000000000000000000000008152600401610bb290612f31565b60405180910390fd5b60007f000000000000000000000000000000000000000000000000000000000000000073ffffffffffffffffffffffffffffffffffffffff167f0000000000000000000000000000000000000000000000000000000000000000604051610c2190612c58565b60006040518083038185875af1925050503d8060008114610c5e576040519150601f19603f3d011682016040523d82523d6000602084013e610c63565b606091505b5050905060007f000000000000000000000000000000000000000000000000000000000000000073ffffffffffffffffffffffffffffffffffffffff167f0000000000000000000000000000000000000000000000000000000000000000604051610ccd90612c58565b60006040518083038185875af1925050503d8060008114610d0a576040519150601f19603f3d011682016040523d82523d6000602084013e610d0f565b606091505b50509050818015610d1d5750805b610d5c576040517f08c379a0000000000000000000000000000000000000000000000000000000008152600401610d5390612f71565b60405180910390fd5b610d6833600954611902565b6001600a60003373ffffffffffffffffffffffffffffffffffffffff1673ffffffffffffffffffffffffffffffffffffffff16815260200190815260200160002060006101000a81548160ff0219169083151502179055507f000000000000000000000000000000000000000000000000000000000000000060095410610e24576040517f08c379a0000000000000000000000000000000000000000000000000000000008152600401610e1b90612e11565b60405180910390fd5b60096000815480929190610e3790613279565b9190505592505050600160078190555090565b60095481565b610e61610e5b61182b565b82611920565b610ea0576040517f08c379a0000000000000000000000000000000000000000000000000000000008152600401610e9790612f91565b60405180910390fd5b610eab8383836119fe565b505050565b7f000000000000000000000000000000000000000000000000000000000000000081565b610edc61182b565b73ffffffffffffffffffffffffffffffffffffffff16610efa611275565b73ffffffffffffffffffffffffffffffffffffffff1614610f50576040517f08c379a0000000000000000000000000000000000000000000000000000000008152600401610f4790612ef1565b60405180910390fd5b610f58611c65565b565b610f7583838360405180602001604052806000815250611347565b505050565b7f000000000000000000000000000000000000000000000000000000000000000081565b7f000000000000000000000000000000000000000000000000000000000000000081565b6000600660009054906101000a900460ff16905090565b6000806002600084815260200190815260200160002060009054906101000a900473ffffffffffffffffffffffffffffffffffffffff169050600073ffffffffffffffffffffffffffffffffffffffff168173ffffffffffffffffffffffffffffffffffffffff161415611082576040517f08c379a000000000000000000000000000000000000000000000000000000000815260040161107990612e91565b60405180910390fd5b80915050919050565b60008073ffffffffffffffffffffffffffffffffffffffff168273ffffffffffffffffffffffffffffffffffffffff1614156110fc576040517f08c379a00000000000000000000000000000000000000000000000000000000081526004016110f390612e71565b60405180910390fd5b600360008373ffffffffffffffffffffffffffffffffffffffff1673ffffffffffffffffffffffffffffffffffffffff168152602001908152602001600020549050919050565b61114b61182b565b73ffffffffffffffffffffffffffffffffffffffff16611169611275565b73ffffffffffffffffffffffffffffffffffffffff16146111bf576040517f08c379a00000000000000000000000000000000000000000000000000000000081526004016111b690612ef1565b60405180910390fd5b6111c96000611d07565b565b6111d361182b565b73ffffffffffffffffffffffffffffffffffffffff166111f1611275565b73ffffffffffffffffffffffffffffffffffffffff1614611247576040517f08c379a000000000000000000000000000000000000000000000000000000000815260040161123e90612ef1565b60405180910390fd5b61124f611dcd565b565b7f000000000000000000000000000000000000000000000000000000000000000081565b6000600660019054906101000a900473ffffffffffffffffffffffffffffffffffffffff16905090565b6060600180546112ae90613216565b80601f01602080910402602001604051908101604052809291908181526020018280546112da90613216565b80156113275780601f106112fc57610100808354040283529160200191611327565b820191906000526020600020905b81548152906001019060200180831161130a57829003601f168201915b5050505050905090565b61134361133c61182b565b8383611e70565b5050565b61135861135261182b565b83611920565b611397576040517f08c379a000000000000000000000000000000000000000000000000000000000815260040161138e90612f91565b60405180910390fd5b6113a384848484611fdd565b50505050565b6113b161182b565b73ffffffffffffffffffffffffffffffffffffffff166113cf611275565b73ffffffffffffffffffffffffffffffffffffffff1614611425576040517f08c379a000000000000000000000000000000000000000000000000000000000815260040161141c90612ef1565b60405180910390fd5b806008908051906020019061143b929190612432565b5050565b606061144a826117bf565b611489576040517f08c379a000000000000000000000000000000000000000000000000000000000815260040161148090612f11565b60405180910390fd5b6008805461149690613216565b80601f01602080910402602001604051908101604052809291908181526020018280546114c290613216565b801561150f5780601f106114e45761010080835404028352916020019161150f565b820191906000526020600020905b8154815290600101906020018083116114f257829003601f168201915b50505050509050919050565b600a6020528060005260406000206000915054906101000a900460ff1681565b6008805461154890613216565b80601f016020809104026020016040519081016040528092919081815260200182805461157490613216565b80156115c15780601f10611596576101008083540402835291602001916115c1565b820191906000526020600020905b8154815290600101906020018083116115a457829003601f168201915b505050505081565b6000600560008473ffffffffffffffffffffffffffffffffffffffff1673ffffffffffffffffffffffffffffffffffffffff16815260200190815260200160002060008373ffffffffffffffffffffffffffffffffffffffff1673ffffffffffffffffffffffffffffffffffffffff16815260200190815260200160002060009054906101000a900460ff16905092915050565b61166561182b565b73ffffffffffffffffffffffffffffffffffffffff16611683611275565b73ffffffffffffffffffffffffffffffffffffffff16146116d9576040517f08c379a00000000000000000000000000000000000000000000000000000000081526004016116d090612ef1565b60405180910390fd5b600073ffffffffffffffffffffffffffffffffffffffff168173ffffffffffffffffffffffffffffffffffffffff161415611749576040517f08c379a000000000000000000000000000000000000000000000000000000000815260040161174090612d51565b60405180910390fd5b61175281611d07565b50565b60007f01ffc9a7000000000000000000000000000000000000000000000000000000007bffffffffffffffffffffffffffffffffffffffffffffffffffffffff1916827bffffffffffffffffffffffffffffffffffffffffffffffffffffffff1916149050919050565b60008073ffffffffffffffffffffffffffffffffffffffff166002600084815260200190815260200160002060009054906101000a900473ffffffffffffffffffffffffffffffffffffffff1673ffffffffffffffffffffffffffffffffffffffff1614159050919050565b600033905090565b816004600083815260200190815260200160002060006101000a81548173ffffffffffffffffffffffffffffffffffffffff021916908373ffffffffffffffffffffffffffffffffffffffff160217905550808273ffffffffffffffffffffffffffffffffffffffff166118a683610fd9565b73ffffffffffffffffffffffffffffffffffffffff167f8c5be1e5ebec7d5bd14f71427d1e84f3dd0314c0f7b2291e5b200ac8c7c3b92560405160405180910390a45050565b600081836118fa91906130d6565b905092915050565b61191c828260405180602001604052806000815250612039565b5050565b600061192b826117bf565b61196a576040517f08c379a000000000000000000000000000000000000000000000000000000000815260040161196190612df1565b60405180910390fd5b600061197583610fd9565b90508073ffffffffffffffffffffffffffffffffffffffff168473ffffffffffffffffffffffffffffffffffffffff1614806119e457508373ffffffffffffffffffffffffffffffffffffffff166119cc84610865565b73ffffffffffffffffffffffffffffffffffffffff16145b806119f557506119f481856115c9565b5b91505092915050565b8273ffffffffffffffffffffffffffffffffffffffff16611a1e82610fd9565b73ffffffffffffffffffffffffffffffffffffffff1614611a74576040517f08c379a0000000000000000000000000000000000000000000000000000000008152600401611a6b90612d71565b60405180910390fd5b600073ffffffffffffffffffffffffffffffffffffffff168273ffffffffffffffffffffffffffffffffffffffff161415611ae4576040517f08c379a0000000000000000000000000000000000000000000000000000000008152600401611adb90612db1565b60405180910390fd5b611aef838383612094565b611afa600082611833565b6001600360008573ffffffffffffffffffffffffffffffffffffffff1673ffffffffffffffffffffffffffffffffffffffff1681526020019081526020016000206000828254611b4a919061312c565b925050819055506001600360008473ffffffffffffffffffffffffffffffffffffffff1673ffffffffffffffffffffffffffffffffffffffff1681526020019081526020016000206000828254611ba191906130d6565b92505081905550816002600083815260200190815260200160002060006101000a81548173ffffffffffffffffffffffffffffffffffffffff021916908373ffffffffffffffffffffffffffffffffffffffff160217905550808273ffffffffffffffffffffffffffffffffffffffff168473ffffffffffffffffffffffffffffffffffffffff167fddf252ad1be2c89b69c2b068fc378daa952ba7f163c4a11628f55a4df523b3ef60405160405180910390a4611c60838383612099565b505050565b611c6d610fc2565b611cac576040517f08c379a0000000000000000000000000000000000000000000000000000000008152600401611ca390612d11565b60405180910390fd5b6000600660006101000a81548160ff0219169083151502179055507f5db9ee0a495bf2e6ff9c91a7834c1ba4fdd244a5e8aa4e537bd38aeae4b073aa611cf061182b565b604051611cfd9190612c6d565b60405180910390a1565b6000600660019054906101000a900473ffffffffffffffffffffffffffffffffffffffff16905081600660016101000a81548173ffffffffffffffffffffffffffffffffffffffff021916908373ffffffffffffffffffffffffffffffffffffffff1602179055508173ffffffffffffffffffffffffffffffffffffffff168173ffffffffffffffffffffffffffffffffffffffff167f8be0079c531659141344cd1fd0a4f28419497f9722a3daafe3b4186f6b6457e060405160405180910390a35050565b611dd5610fc2565b15611e15576040517f08c379a0000000000000000000000000000000000000000000000000000000008152600401611e0c90612e31565b60405180910390fd5b6001600660006101000a81548160ff0219169083151502179055507f62e78cea01bee320cd4e420270b5ea74000d11b0c9f74754ebdbfc544b05a258611e5961182b565b604051611e669190612c6d565b60405180910390a1565b8173ffffffffffffffffffffffffffffffffffffffff168373ffffffffffffffffffffffffffffffffffffffff161415611edf576040517f08c379a0000000000000000000000000000000000000000000000000000000008152600401611ed690612dd1565b60405180910390fd5b80600560008573ffffffffffffffffffffffffffffffffffffffff1673ffffffffffffffffffffffffffffffffffffffff16815260200190815260200160002060008473ffffffffffffffffffffffffffffffffffffffff1673ffffffffffffffffffffffffffffffffffffffff16815260200190815260200160002060006101000a81548160ff0219169083151502179055508173ffffffffffffffffffffffffffffffffffffffff168373ffffffffffffffffffffffffffffffffffffffff167f17307eab39ab6107e8899845ad3d59bd9653f200f220920489ca2b5937696c3183604051611fd09190612cd4565b60405180910390a3505050565b611fe88484846119fe565b611ff48484848461209e565b612033576040517f08c379a000000000000000000000000000000000000000000000000000000000815260040161202a90612d31565b60405180910390fd5b50505050565b6120438383612235565b612050600084848461209e565b61208f576040517f08c379a000000000000000000000000000000000000000000000000000000000815260040161208690612d31565b60405180910390fd5b505050565b505050565b505050565b60006120bf8473ffffffffffffffffffffffffffffffffffffffff1661240f565b15612228578373ffffffffffffffffffffffffffffffffffffffff1663150b7a026120e861182b565b8786866040518563ffffffff1660e01b815260040161210a9493929190612c88565b602060405180830381600087803b15801561212457600080fd5b505af192505050801561215557506040513d601f19601f8201168201806040525081019061215291906127de565b60015b6121d8573d8060008114612185576040519150601f19603f3d011682016040523d82523d6000602084013e61218a565b606091505b506000815114156121d0576040517f08c379a00000000000000000000000000000000000000000000000000000000081526004016121c790612d31565b60405180910390fd5b805181602001fd5b63150b7a0260e01b7bffffffffffffffffffffffffffffffffffffffffffffffffffffffff1916817bffffffffffffffffffffffffffffffffffffffffffffffffffffffff19161491505061222d565b600190505b949350505050565b600073ffffffffffffffffffffffffffffffffffffffff168273ffffffffffffffffffffffffffffffffffffffff1614156122a5576040517f08c379a000000000000000000000000000000000000000000000000000000000815260040161229c90612eb1565b60405180910390fd5b6122ae816117bf565b156122ee576040517f08c379a00000000000000000000000000000000000000000000000000000000081526004016122e590612d91565b60405180910390fd5b6122fa60008383612094565b6001600360008473ffffffffffffffffffffffffffffffffffffffff1673ffffffffffffffffffffffffffffffffffffffff168152602001908152602001600020600082825461234a91906130d6565b92505081905550816002600083815260200190815260200160002060006101000a81548173ffffffffffffffffffffffffffffffffffffffff021916908373ffffffffffffffffffffffffffffffffffffffff160217905550808273ffffffffffffffffffffffffffffffffffffffff16600073ffffffffffffffffffffffffffffffffffffffff167fddf252ad1be2c89b69c2b068fc378daa952ba7f163c4a11628f55a4df523b3ef60405160405180910390a461240b60008383612099565b5050565b6000808273ffffffffffffffffffffffffffffffffffffffff163b119050919050565b82805461243e90613216565b90600052602060002090601f01602090048101928261246057600085556124a7565b82601f1061247957805160ff19168380011785556124a7565b828001600101855582156124a7579182015b828111156124a657825182559160200191906001019061248b565b5b5090506124b491906124b8565b5090565b5b808211156124d15760008160009055506001016124b9565b5090565b60006124e86124e384613031565b61300c565b90508281526020810184848401111561250057600080fd5b61250b8482856131d4565b509392505050565b600061252661252184613062565b61300c565b90508281526020810184848401111561253e57600080fd5b6125498482856131d4565b509392505050565b60008135905061256081613900565b92915050565b60008135905061257581613917565b92915050565b60008135905061258a8161392e565b92915050565b60008151905061259f8161392e565b92915050565b600082601f8301126125b657600080fd5b81356125c68482602086016124d5565b91505092915050565b600082601f8301126125e057600080fd5b81356125f0848260208601612513565b91505092915050565b60008135905061260881613945565b92915050565b60006020828403121561262057600080fd5b600061262e84828501612551565b91505092915050565b6000806040838503121561264a57600080fd5b600061265885828601612551565b925050602061266985828601612551565b9150509250929050565b60008060006060848603121561268857600080fd5b600061269686828701612551565b93505060206126a786828701612551565b92505060406126b8868287016125f9565b9150509250925092565b600080600080608085870312156126d857600080fd5b60006126e687828801612551565b94505060206126f787828801612551565b9350506040612708878288016125f9565b925050606085013567ffffffffffffffff81111561272557600080fd5b612731878288016125a5565b91505092959194509250565b6000806040838503121561275057600080fd5b600061275e85828601612551565b925050602061276f85828601612566565b9150509250929050565b6000806040838503121561278c57600080fd5b600061279a85828601612551565b92505060206127ab858286016125f9565b9150509250929050565b6000602082840312156127c757600080fd5b60006127d58482850161257b565b91505092915050565b6000602082840312156127f057600080fd5b60006127fe84828501612590565b91505092915050565b60006020828403121561281957600080fd5b600082013567ffffffffffffffff81111561283357600080fd5b61283f848285016125cf565b91505092915050565b60006020828403121561285a57600080fd5b6000612868848285016125f9565b91505092915050565b61287a81613160565b82525050565b61288981613172565b82525050565b600061289a82613093565b6128a481856130a9565b93506128b48185602086016131e3565b6128bd8161334f565b840191505092915050565b60006128d38261309e565b6128dd81856130c5565b93506128ed8185602086016131e3565b6128f68161334f565b840191505092915050565b600061290e6014836130c5565b915061291982613360565b602082019050919050565b60006129316032836130c5565b915061293c82613389565b604082019050919050565b60006129546026836130c5565b915061295f826133d8565b604082019050919050565b60006129776025836130c5565b915061298282613427565b604082019050919050565b600061299a601c836130c5565b91506129a582613476565b602082019050919050565b60006129bd6024836130c5565b91506129c88261349f565b604082019050919050565b60006129e06019836130c5565b91506129eb826134ee565b602082019050919050565b6000612a03602c836130c5565b9150612a0e82613517565b604082019050919050565b6000612a26601e836130c5565b9150612a3182613566565b602082019050919050565b6000612a496010836130c5565b9150612a548261358f565b602082019050919050565b6000612a6c6038836130c5565b9150612a77826135b8565b604082019050919050565b6000612a8f602a836130c5565b9150612a9a82613607565b604082019050919050565b6000612ab26029836130c5565b9150612abd82613656565b604082019050919050565b6000612ad56020836130c5565b9150612ae0826136a5565b602082019050919050565b6000612af8602c836130c5565b9150612b03826136ce565b604082019050919050565b6000612b1b6020836130c5565b9150612b268261371d565b602082019050919050565b6000612b3e602f836130c5565b9150612b4982613746565b604082019050919050565b6000612b61601e836130c5565b9150612b6c82613795565b602082019050919050565b6000612b846021836130c5565b9150612b8f826137be565b604082019050919050565b6000612ba7601f836130c5565b9150612bb28261380d565b602082019050919050565b6000612bca6000836130ba565b9150612bd582613836565b600082019050919050565b6000612bed6031836130c5565b9150612bf882613839565b604082019050919050565b6000612c106023836130c5565b9150612c1b82613888565b604082019050919050565b6000612c33601f836130c5565b9150612c3e826138d7565b602082019050919050565b612c52816131ca565b82525050565b6000612c6382612bbd565b9150819050919050565b6000602082019050612c826000830184612871565b92915050565b6000608082019050612c9d6000830187612871565b612caa6020830186612871565b612cb76040830185612c49565b8181036060830152612cc9818461288f565b905095945050505050565b6000602082019050612ce96000830184612880565b92915050565b60006020820190508181036000830152612d0981846128c8565b905092915050565b60006020820190508181036000830152612d2a81612901565b9050919050565b60006020820190508181036000830152612d4a81612924565b9050919050565b60006020820190508181036000830152612d6a81612947565b9050919050565b60006020820190508181036000830152612d8a8161296a565b9050919050565b60006020820190508181036000830152612daa8161298d565b9050919050565b60006020820190508181036000830152612dca816129b0565b9050919050565b60006020820190508181036000830152612dea816129d3565b9050919050565b60006020820190508181036000830152612e0a816129f6565b9050919050565b60006020820190508181036000830152612e2a81612a19565b9050919050565b60006020820190508181036000830152612e4a81612a3c565b9050919050565b60006020820190508181036000830152612e6a81612a5f565b9050919050565b60006020820190508181036000830152612e8a81612a82565b9050919050565b60006020820190508181036000830152612eaa81612aa5565b9050919050565b60006020820190508181036000830152612eca81612ac8565b9050919050565b60006020820190508181036000830152612eea81612aeb565b9050919050565b60006020820190508181036000830152612f0a81612b0e565b9050919050565b60006020820190508181036000830152612f2a81612b31565b9050919050565b60006020820190508181036000830152612f4a81612b54565b9050919050565b60006020820190508181036000830152612f6a81612b77565b9050919050565b60006020820190508181036000830152612f8a81612b9a565b9050919050565b60006020820190508181036000830152612faa81612be0565b9050919050565b60006020820190508181036000830152612fca81612c03565b9050919050565b60006020820190508181036000830152612fea81612c26565b9050919050565b60006020820190506130066000830184612c49565b92915050565b6000613016613027565b90506130228282613248565b919050565b6000604051905090565b600067ffffffffffffffff82111561304c5761304b613320565b5b6130558261334f565b9050602081019050919050565b600067ffffffffffffffff82111561307d5761307c613320565b5b6130868261334f565b9050602081019050919050565b600081519050919050565b600081519050919050565b600082825260208201905092915050565b600081905092915050565b600082825260208201905092915050565b60006130e1826131ca565b91506130ec836131ca565b9250827fffffffffffffffffffffffffffffffffffffffffffffffffffffffffffffffff03821115613121576131206132c2565b5b828201905092915050565b6000613137826131ca565b9150613142836131ca565b925082821015613155576131546132c2565b5b828203905092915050565b600061316b826131aa565b9050919050565b60008115159050919050565b60007fffffffff0000000000000000000000000000000000000000000000000000000082169050919050565b600073ffffffffffffffffffffffffffffffffffffffff82169050919050565b6000819050919050565b82818337600083830152505050565b60005b838110156132015780820151818401526020810190506131e6565b83811115613210576000848401525b50505050565b6000600282049050600182168061322e57607f821691505b60208210811415613242576132416132f1565b5b50919050565b6132518261334f565b810181811067ffffffffffffffff821117156132705761326f613320565b5b80604052505050565b6000613284826131ca565b91507fffffffffffffffffffffffffffffffffffffffffffffffffffffffffffffffff8214156132b7576132b66132c2565b5b600182019050919050565b7f4e487b7100000000000000000000000000000000000000000000000000000000600052601160045260246000fd5b7f4e487b7100000000000000000000000000000000000000000000000000000000600052602260045260246000fd5b7f4e487b7100000000000000000000000000000000000000000000000000000000600052604160045260246000fd5b6000601f19601f8301169050919050565b7f5061757361626c653a206e6f7420706175736564000000000000000000000000600082015250565b7f4552433732313a207472616e7366657220746f206e6f6e20455243373231526560008201527f63656976657220696d706c656d656e7465720000000000000000000000000000602082015250565b7f4f776e61626c653a206e6577206f776e657220697320746865207a65726f206160008201527f6464726573730000000000000000000000000000000000000000000000000000602082015250565b7f4552433732313a207472616e736665722066726f6d20696e636f72726563742060008201527f6f776e6572000000000000000000000000000000000000000000000000000000602082015250565b7f4552433732313a20746f6b656e20616c7265616479206d696e74656400000000600082015250565b7f4552433732313a207472616e7366657220746f20746865207a65726f2061646460008201527f7265737300000000000000000000000000000000000000000000000000000000602082015250565b7f4552433732313a20617070726f766520746f2063616c6c657200000000000000600082015250565b7f4552433732313a206f70657261746f7220717565727920666f72206e6f6e657860008201527f697374656e7420746f6b656e0000000000000000000000000000000000000000602082015250565b7f436f726e4669204e46543a204d617820737570706c7920726561636865640000600082015250565b7f5061757361626c653a2070617573656400000000000000000000000000000000600082015250565b7f4552433732313a20617070726f76652063616c6c6572206973206e6f74206f7760008201527f6e6572206e6f7220617070726f76656420666f7220616c6c0000000000000000602082015250565b7f4552433732313a2062616c616e636520717565727920666f7220746865207a6560008201527f726f206164647265737300000000000000000000000000000000000000000000602082015250565b7f4552433732313a206f776e657220717565727920666f72206e6f6e657869737460008201527f656e7420746f6b656e0000000000000000000000000000000000000000000000602082015250565b7f4552433732313a206d696e7420746f20746865207a65726f2061646472657373600082015250565b7f4552433732313a20617070726f76656420717565727920666f72206e6f6e657860008201527f697374656e7420746f6b656e0000000000000000000000000000000000000000602082015250565b7f4f776e61626c653a2063616c6c6572206973206e6f7420746865206f776e6572600082015250565b7f4552433732314d657461646174613a2055524920717565727920666f72206e6f60008201527f6e6578697374656e7420746f6b656e0000000000000000000000000000000000602082015250565b7f436f726e4669204e46543a20496e76616c69642066656520616d6f756e740000600082015250565b7f4552433732313a20617070726f76616c20746f2063757272656e74206f776e6560008201527f7200000000000000000000000000000000000000000000000000000000000000602082015250565b7f436f726e4669204e46543a20455448207472616e73666572206661696c656400600082015250565b50565b7f4552433732313a207472616e736665722063616c6c6572206973206e6f74206f60008201527f776e6572206e6f7220617070726f766564000000000000000000000000000000602082015250565b7f436f726e4669204e46543a20557365722063616e206f6e6c79206d696e74206f60008201527f6e63650000000000000000000000000000000000000000000000000000000000602082015250565b7f5265656e7472616e637947756172643a207265656e7472616e742063616c6c00600082015250565b61390981613160565b811461391457600080fd5b50565b61392081613172565b811461392b57600080fd5b50565b6139378161317e565b811461394257600080fd5b50565b61394e816131ca565b811461395957600080fd5b5056fea264697066735822122015194af0a8f6748c20b0b4513d6986c0472186358140bb55c898196b9d2cd98964736f6c63430008040033",
  "linkReferences": {},
  "deployedLinkReferences": {}
}