{
  "abi": [
    {
      "inputs": [
        {
          "internalType": "uint256",
          "name": "blockNumber",
          "type": "uint256"
        }
      ],
      "name": "getAtBlock",
      "outputs": [
        {
          "internalType": "uint256",
          "name": "",
          "type": "uint256"
        }
      ],
      "stateMutability": "view",
      "type": "function"
    },
    {
      "inputs": [],
      "name": "latest",
      "outputs": [
        {
          "internalType": "uint256",
          "name": "",
          "type": "uint256"
        }
      ],
      "stateMutability": "view",
      "type": "function"
    },
    {
      "inputs": [
        {
          "internalType": "uint256",
          "name": "value",
          "type": "uint256"
        }
      ],
      "name": "push",
      "outputs": [
        {
          "internalType": "uint256",
          "name": "",
          "type": "uint256"
        },
        {
          "internalType": "uint256",
          "name": "",
          "type": "uint256"
        }
      ],
      "stateMutability": "nonpayable",
      "type": "function"
    }
  ],
  "bytecode": "608060405234801561001057600080fd5b5061052b806100206000396000f3fe608060405234801561001057600080fd5b50600436106100415760003560e01c806352bfe78914610046578063959ac48414610061578063ee1bc75114610089575b600080fd5b61004e61009c565b6040519081526020015b60405180910390f35b61007461006f36600461045f565b6100ad565b60408051928352602083019190915201610058565b61004e61009736600461045f565b6100c3565b60006100a860006100d5565b905090565b6000806100ba8184610131565b91509150915091565b60006100cf8183610257565b92915050565b8054600090801561011e57826100ec60018361048e565b815481106100fc576100fc6104a5565b60009182526020909120015464010000000090046001600160e01b0316610121565b60005b6001600160e01b03169392505050565b8154600090819081610142866100d5565b90506000821180156101805750438661015c60018561048e565b8154811061016c5761016c6104a5565b60009182526020909120015463ffffffff16145b156101e05761018e8561036b565b8661019a60018561048e565b815481106101aa576101aa6104a5565b9060005260206000200160000160046101000a8154816001600160e01b0302191690836001600160e01b0316021790555061024e565b8560000160405180604001604052806101f8436103d8565b63ffffffff16815260200161020c8861036b565b6001600160e01b0390811690915282546001810184556000938452602093849020835194909301519091166401000000000263ffffffff909316929092179101555b95939450505050565b60004382106102ad5760405162461bcd60e51b815260206004820181905260248201527f436865636b706f696e74733a20626c6f636b206e6f7420796574206d696e656460448201526064015b60405180910390fd5b825460005b818110156103125760006102c6828461043d565b9050848660000182815481106102de576102de6104a5565b60009182526020909120015463ffffffff1611156102fe5780925061030c565b6103098160016104bb565b91505b506102b2565b8115610356578461032460018461048e565b81548110610334576103346104a5565b60009182526020909120015464010000000090046001600160e01b0316610359565b60005b6001600160e01b031695945050505050565b60006001600160e01b038211156103d45760405162461bcd60e51b815260206004820152602760248201527f53616665436173743a2076616c756520646f65736e27742066697420696e20326044820152663234206269747360c81b60648201526084016102a4565b5090565b600063ffffffff8211156103d45760405162461bcd60e51b815260206004820152602660248201527f53616665436173743a2076616c756520646f65736e27742066697420696e203360448201526532206269747360d01b60648201526084016102a4565b600061044c60028484186104d3565b610458908484166104bb565b9392505050565b60006020828403121561047157600080fd5b5035919050565b634e487b7160e01b600052601160045260246000fd5b6000828210156104a0576104a0610478565b500390565b634e487b7160e01b600052603260045260246000fd5b600082198211156104ce576104ce610478565b500190565b6000826104f057634e487b7160e01b600052601260045260246000fd5b50049056fea2646970667358221220dc5eb160cac9d307251bfde87e4f9c842374dd12a2749d61adf60f324679a7b364736f6c634300080c0033",
  "bytecodeSha1": "083e96f0463ccbae3512c2c6e17ce6c17be3a886",
  "compiler": {
    "evm_version": "istanbul",
    "optimizer": {
      "enabled": true,
      "runs": 200
    },
    "version": "0.8.12+commit.f00d7308"
  },
  "contractName": "CheckpointsImpl",
  "language": "Solidity",
  "natspec": {
    "kind": "dev",
    "methods": {},
    "version": 1
  },
  "opcodes": "PUSH1 0x80 PUSH1 0x40 MSTORE CALLVALUE DUP1 ISZERO PUSH2 0x10 JUMPI PUSH1 0x0 DUP1 REVERT JUMPDEST POP PUSH1 0x4 CALLDATASIZE LT PUSH2 0x41 JUMPI PUSH1 0x0 CALLDATALOAD PUSH1 0xE0 SHR DUP1 PUSH4 0x52BFE789 EQ PUSH2 0x46 JUMPI DUP1 PUSH4 0x959AC484 EQ PUSH2 0x61 JUMPI DUP1 PUSH4 0xEE1BC751 EQ PUSH2 0x89 JUMPI JUMPDEST PUSH1 0x0 DUP1 REVERT JUMPDEST PUSH2 0x4E PUSH2 0x9C JUMP JUMPDEST PUSH1 0x40 MLOAD SWAP1 DUP2 MSTORE PUSH1 0x20 ADD JUMPDEST PUSH1 0x40 MLOAD DUP1 SWAP2 SUB SWAP1 RETURN JUMPDEST PUSH2 0x74 PUSH2 0x6F CALLDATASIZE PUSH1 0x4 PUSH2 0x45F JUMP JUMPDEST PUSH2 0xAD JUMP JUMPDEST PUSH1 0x40 DUP1 MLOAD SWAP3 DUP4 MSTORE PUSH1 0x20 DUP4 ADD SWAP2 SWAP1 SWAP2 MSTORE ADD PUSH2 0x58 JUMP JUMPDEST PUSH2 0x4E PUSH2 0x97 CALLDATASIZE PUSH1 0x4 PUSH2 0x45F JUMP JUMPDEST PUSH2 0xC3 JUMP JUMPDEST PUSH1 0x0 PUSH2 0xA8 PUSH1 0x0 PUSH2 0xD5 JUMP JUMPDEST SWAP1 POP SWAP1 JUMP JUMPDEST PUSH1 0x0 DUP1 PUSH2 0xBA DUP2 DUP5 PUSH2 0x131 JUMP JUMPDEST SWAP2 POP SWAP2 POP SWAP2 POP SWAP2 JUMP JUMPDEST PUSH1 0x0 PUSH2 0xCF DUP2 DUP4 PUSH2 0x257 JUMP JUMPDEST SWAP3 SWAP2 POP POP JUMP JUMPDEST DUP1 SLOAD PUSH1 0x0 SWAP1 DUP1 ISZERO PUSH2 0x11E JUMPI DUP3 PUSH2 0xEC PUSH1 0x1 DUP4 PUSH2 0x48E JUMP JUMPDEST DUP2 SLOAD DUP2 LT PUSH2 0xFC JUMPI PUSH2 0xFC PUSH2 0x4A5 JUMP JUMPDEST PUSH1 0x0 SWAP2 DUP3 MSTORE PUSH1 0x20 SWAP1 SWAP2 KECCAK256 ADD SLOAD PUSH5 0x100000000 SWAP1 DIV PUSH1 0x1 PUSH1 0x1 PUSH1 0xE0 SHL SUB AND PUSH2 0x121 JUMP JUMPDEST PUSH1 0x0 JUMPDEST PUSH1 0x1 PUSH1 0x1 PUSH1 0xE0 SHL SUB AND SWAP4 SWAP3 POP POP POP JUMP JUMPDEST DUP2 SLOAD PUSH1 0x0 SWAP1 DUP2 SWAP1 DUP2 PUSH2 0x142 DUP7 PUSH2 0xD5 JUMP JUMPDEST SWAP1 POP PUSH1 0x0 DUP3 GT DUP1 ISZERO PUSH2 0x180 JUMPI POP NUMBER DUP7 PUSH2 0x15C PUSH1 0x1 DUP6 PUSH2 0x48E JUMP JUMPDEST DUP2 SLOAD DUP2 LT PUSH2 0x16C JUMPI PUSH2 0x16C PUSH2 0x4A5 JUMP JUMPDEST PUSH1 0x0 SWAP2 DUP3 MSTORE PUSH1 0x20 SWAP1 SWAP2 KECCAK256 ADD SLOAD PUSH4 0xFFFFFFFF AND EQ JUMPDEST ISZERO PUSH2 0x1E0 JUMPI PUSH2 0x18E DUP6 PUSH2 0x36B JUMP JUMPDEST DUP7 PUSH2 0x19A PUSH1 0x1 DUP6 PUSH2 0x48E JUMP JUMPDEST DUP2 SLOAD DUP2 LT PUSH2 0x1AA JUMPI PUSH2 0x1AA PUSH2 0x4A5 JUMP JUMPDEST SWAP1 PUSH1 0x0 MSTORE PUSH1 0x20 PUSH1 0x0 KECCAK256 ADD PUSH1 0x0 ADD PUSH1 0x4 PUSH2 0x100 EXP DUP2 SLOAD DUP2 PUSH1 0x1 PUSH1 0x1 PUSH1 0xE0 SHL SUB MUL NOT AND SWAP1 DUP4 PUSH1 0x1 PUSH1 0x1 PUSH1 0xE0 SHL SUB AND MUL OR SWAP1 SSTORE POP PUSH2 0x24E JUMP JUMPDEST DUP6 PUSH1 0x0 ADD PUSH1 0x40 MLOAD DUP1 PUSH1 0x40 ADD PUSH1 0x40 MSTORE DUP1 PUSH2 0x1F8 NUMBER PUSH2 0x3D8 JUMP JUMPDEST PUSH4 0xFFFFFFFF AND DUP2 MSTORE PUSH1 0x20 ADD PUSH2 0x20C DUP9 PUSH2 0x36B JUMP JUMPDEST PUSH1 0x1 PUSH1 0x1 PUSH1 0xE0 SHL SUB SWAP1 DUP2 AND SWAP1 SWAP2 MSTORE DUP3 SLOAD PUSH1 0x1 DUP2 ADD DUP5 SSTORE PUSH1 0x0 SWAP4 DUP5 MSTORE PUSH1 0x20 SWAP4 DUP5 SWAP1 KECCAK256 DUP4 MLOAD SWAP5 SWAP1 SWAP4 ADD MLOAD SWAP1 SWAP2 AND PUSH5 0x100000000 MUL PUSH4 0xFFFFFFFF SWAP1 SWAP4 AND SWAP3 SWAP1 SWAP3 OR SWAP2 ADD SSTORE JUMPDEST SWAP6 SWAP4 SWAP5 POP POP POP POP JUMP JUMPDEST PUSH1 0x0 NUMBER DUP3 LT PUSH2 0x2AD JUMPI PUSH1 0x40 MLOAD PUSH3 0x461BCD PUSH1 0xE5 SHL DUP2 MSTORE PUSH1 0x20 PUSH1 0x4 DUP3 ADD DUP2 SWAP1 MSTORE PUSH1 0x24 DUP3 ADD MSTORE PUSH32 0x436865636B706F696E74733A20626C6F636B206E6F7420796574206D696E6564 PUSH1 0x44 DUP3 ADD MSTORE PUSH1 0x64 ADD JUMPDEST PUSH1 0x40 MLOAD DUP1 SWAP2 SUB SWAP1 REVERT JUMPDEST DUP3 SLOAD PUSH1 0x0 JUMPDEST DUP2 DUP2 LT ISZERO PUSH2 0x312 JUMPI PUSH1 0x0 PUSH2 0x2C6 DUP3 DUP5 PUSH2 0x43D JUMP JUMPDEST SWAP1 POP DUP5 DUP7 PUSH1 0x0 ADD DUP3 DUP2 SLOAD DUP2 LT PUSH2 0x2DE JUMPI PUSH2 0x2DE PUSH2 0x4A5 JUMP JUMPDEST PUSH1 0x0 SWAP2 DUP3 MSTORE PUSH1 0x20 SWAP1 SWAP2 KECCAK256 ADD SLOAD PUSH4 0xFFFFFFFF AND GT ISZERO PUSH2 0x2FE JUMPI DUP1 SWAP3 POP PUSH2 0x30C JUMP JUMPDEST PUSH2 0x309 DUP2 PUSH1 0x1 PUSH2 0x4BB JUMP JUMPDEST SWAP2 POP JUMPDEST POP PUSH2 0x2B2 JUMP JUMPDEST DUP2 ISZERO PUSH2 0x356 JUMPI DUP5 PUSH2 0x324 PUSH1 0x1 DUP5 PUSH2 0x48E JUMP JUMPDEST DUP2 SLOAD DUP2 LT PUSH2 0x334 JUMPI PUSH2 0x334 PUSH2 0x4A5 JUMP JUMPDEST PUSH1 0x0 SWAP2 DUP3 MSTORE PUSH1 0x20 SWAP1 SWAP2 KECCAK256 ADD SLOAD PUSH5 0x100000000 SWAP1 DIV PUSH1 0x1 PUSH1 0x1 PUSH1 0xE0 SHL SUB AND PUSH2 0x359 JUMP JUMPDEST PUSH1 0x0 JUMPDEST PUSH1 0x1 PUSH1 0x1 PUSH1 0xE0 SHL SUB AND SWAP6 SWAP5 POP POP POP POP POP JUMP JUMPDEST PUSH1 0x0 PUSH1 0x1 PUSH1 0x1 PUSH1 0xE0 SHL SUB DUP3 GT ISZERO PUSH2 0x3D4 JUMPI PUSH1 0x40 MLOAD PUSH3 0x461BCD PUSH1 0xE5 SHL DUP2 MSTORE PUSH1 0x20 PUSH1 0x4 DUP3 ADD MSTORE PUSH1 0x27 PUSH1 0x24 DUP3 ADD MSTORE PUSH32 0x53616665436173743A2076616C756520646F65736E27742066697420696E2032 PUSH1 0x44 DUP3 ADD MSTORE PUSH7 0x32342062697473 PUSH1 0xC8 SHL PUSH1 0x64 DUP3 ADD MSTORE PUSH1 0x84 ADD PUSH2 0x2A4 JUMP JUMPDEST POP SWAP1 JUMP JUMPDEST PUSH1 0x0 PUSH4 0xFFFFFFFF DUP3 GT ISZERO PUSH2 0x3D4 JUMPI PUSH1 0x40 MLOAD PUSH3 0x461BCD PUSH1 0xE5 SHL DUP2 MSTORE PUSH1 0x20 PUSH1 0x4 DUP3 ADD MSTORE PUSH1 0x26 PUSH1 0x24 DUP3 ADD MSTORE PUSH32 0x53616665436173743A2076616C756520646F65736E27742066697420696E2033 PUSH1 0x44 DUP3 ADD MSTORE PUSH6 0x322062697473 PUSH1 0xD0 SHL PUSH1 0x64 DUP3 ADD MSTORE PUSH1 0x84 ADD PUSH2 0x2A4 JUMP JUMPDEST PUSH1 0x0 PUSH2 0x44C PUSH1 0x2 DUP5 DUP5 XOR PUSH2 0x4D3 JUMP JUMPDEST PUSH2 0x458 SWAP1 DUP5 DUP5 AND PUSH2 0x4BB JUMP JUMPDEST SWAP4 SWAP3 POP POP POP JUMP JUMPDEST PUSH1 0x0 PUSH1 0x20 DUP3 DUP5 SUB SLT ISZERO PUSH2 0x471 JUMPI PUSH1 0x0 DUP1 REVERT JUMPDEST POP CALLDATALOAD SWAP2 SWAP1 POP JUMP JUMPDEST PUSH4 0x4E487B71 PUSH1 0xE0 SHL PUSH1 0x0 MSTORE PUSH1 0x11 PUSH1 0x4 MSTORE PUSH1 0x24 PUSH1 0x0 REVERT JUMPDEST PUSH1 0x0 DUP3 DUP3 LT ISZERO PUSH2 0x4A0 JUMPI PUSH2 0x4A0 PUSH2 0x478 JUMP JUMPDEST POP SUB SWAP1 JUMP JUMPDEST PUSH4 0x4E487B71 PUSH1 0xE0 SHL PUSH1 0x0 MSTORE PUSH1 0x32 PUSH1 0x4 MSTORE PUSH1 0x24 PUSH1 0x0 REVERT JUMPDEST PUSH1 0x0 DUP3 NOT DUP3 GT ISZERO PUSH2 0x4CE JUMPI PUSH2 0x4CE PUSH2 0x478 JUMP JUMPDEST POP ADD SWAP1 JUMP JUMPDEST PUSH1 0x0 DUP3 PUSH2 0x4F0 JUMPI PUSH4 0x4E487B71 PUSH1 0xE0 SHL PUSH1 0x0 MSTORE PUSH1 0x12 PUSH1 0x4 MSTORE PUSH1 0x24 PUSH1 0x0 REVERT JUMPDEST POP DIV SWAP1 JUMP INVALID LOG2 PUSH5 0x6970667358 0x22 SLT KECCAK256 0xDC 0x5E 0xB1 PUSH1 0xCA 0xC9 0xD3 SMOD 0x25 SHL REVERT 0xE8 PUSH31 0x4F9C842374DD12A2749D61ADF60F324679A7B364736F6C634300080C003300 ",
  "sha1": "088353de425a87f7447e76abde255290c2e21ea9",
  "source": "// SPDX-License-Identifier: MIT\n\npragma solidity ^0.8.0;\n\nimport \"../utils/Checkpoints.sol\";\n\ncontract CheckpointsImpl {\n    using Checkpoints for Checkpoints.History;\n\n    Checkpoints.History private _totalCheckpoints;\n\n    function latest() public view returns (uint256) {\n        return _totalCheckpoints.latest();\n    }\n\n    function getAtBlock(uint256 blockNumber) public view returns (uint256) {\n        return _totalCheckpoints.getAtBlock(blockNumber);\n    }\n\n    function push(uint256 value) public returns (uint256, uint256) {\n        return _totalCheckpoints.push(value);\n    }\n}\n",
  "sourcePath": "contracts/openzeppelin/contracts/mocks/CheckpointsImpl.sol",
  "type": "contract"
}