{
  "abi": [
    {
      "anonymous": false,
      "inputs": [
        {
          "indexed": false,
          "internalType": "bool",
          "name": "result",
          "type": "bool"
        }
      ],
      "name": "OperationResult",
      "type": "event"
    },
    {
      "inputs": [
        {
          "internalType": "bytes32",
          "name": "value",
          "type": "bytes32"
        }
      ],
      "name": "add",
      "outputs": [],
      "stateMutability": "nonpayable",
      "type": "function"
    },
    {
      "inputs": [
        {
          "internalType": "uint256",
          "name": "index",
          "type": "uint256"
        }
      ],
      "name": "at",
      "outputs": [
        {
          "internalType": "bytes32",
          "name": "",
          "type": "bytes32"
        }
      ],
      "stateMutability": "view",
      "type": "function"
    },
    {
      "inputs": [
        {
          "internalType": "bytes32",
          "name": "value",
          "type": "bytes32"
        }
      ],
      "name": "contains",
      "outputs": [
        {
          "internalType": "bool",
          "name": "",
          "type": "bool"
        }
      ],
      "stateMutability": "view",
      "type": "function"
    },
    {
      "inputs": [],
      "name": "length",
      "outputs": [
        {
          "internalType": "uint256",
          "name": "",
          "type": "uint256"
        }
      ],
      "stateMutability": "view",
      "type": "function"
    },
    {
      "inputs": [
        {
          "internalType": "bytes32",
          "name": "value",
          "type": "bytes32"
        }
      ],
      "name": "remove",
      "outputs": [],
      "stateMutability": "nonpayable",
      "type": "function"
    },
    {
      "inputs": [],
      "name": "values",
      "outputs": [
        {
          "internalType": "bytes32[]",
          "name": "",
          "type": "bytes32[]"
        }
      ],
      "stateMutability": "view",
      "type": "function"
    }
  ],
  "bytecode": "608060405234801561001057600080fd5b50610489806100206000396000f3fe608060405234801561001057600080fd5b50600436106100625760003560e01c80631d1a696d146100675780631f7b6d321461008f578063446bffba146100a557806395bc2673146100ba578063971217b7146100cd578063e0886f90146100e2575b600080fd5b61007a6100753660046103a5565b6100f5565b60405190151581526020015b60405180910390f35b610097610107565b604051908152602001610086565b6100b86100b33660046103a5565b610118565b005b6100b86100c83660046103a5565b610165565b6100d5610171565b60405161008691906103be565b6100976100f03660046103a5565b61017d565b60006101018183610189565b92915050565b600061011360006101a4565b905090565b600061012481836101ae565b90507fed9840e0775590557ad736875d96c95cf1458b766335f74339951a32c82a9e3381604051610159911515815260200190565b60405180910390a15050565b600061012481836101ba565b606061011360006101c6565b600061010181836101d1565b600081815260018301602052604081205415155b9392505050565b6000610101825490565b600061019d83836101dd565b600061019d838361022c565b60606101018261031f565b600061019d838361037b565b600081815260018301602052604081205461022457508154600181810184556000848152602080822090930184905584548482528286019093526040902091909155610101565b506000610101565b60008181526001830160205260408120548015610315576000610250600183610402565b855490915060009061026490600190610402565b90508181146102c957600086600001828154811061028457610284610427565b90600052602060002001549050808760000184815481106102a7576102a7610427565b6000918252602080832090910192909255918252600188019052604090208390555b85548690806102da576102da61043d565b600190038181906000526020600020016000905590558560010160008681526020019081526020016000206000905560019350505050610101565b6000915050610101565b60608160000180548060200260200160405190810160405280929190818152602001828054801561036f57602002820191906000526020600020905b81548152602001906001019080831161035b575b50505050509050919050565b600082600001828154811061039257610392610427565b9060005260206000200154905092915050565b6000602082840312156103b757600080fd5b5035919050565b6020808252825182820181905260009190848201906040850190845b818110156103f6578351835292840192918401916001016103da565b50909695505050505050565b60008282101561042257634e487b7160e01b600052601160045260246000fd5b500390565b634e487b7160e01b600052603260045260246000fd5b634e487b7160e01b600052603160045260246000fdfea2646970667358221220c687395fcea79cd1865a532f7f1a9a77724074ef4c6a73aee3678e07bd94327c64736f6c634300080c0033",
  "bytecodeSha1": "d0839f3a18c6c9055d91c3bdf2cf67a396c0846e",
  "compiler": {
    "evm_version": "istanbul",
    "optimizer": {
      "enabled": true,
      "runs": 200
    },
    "version": "0.8.12+commit.f00d7308"
  },
  "contractName": "EnumerableBytes32SetMock",
  "language": "Solidity",
  "natspec": {
    "kind": "dev",
    "methods": {},
    "version": 1
  },
  "opcodes": "PUSH1 0x80 PUSH1 0x40 MSTORE CALLVALUE DUP1 ISZERO PUSH2 0x10 JUMPI PUSH1 0x0 DUP1 REVERT JUMPDEST POP PUSH1 0x4 CALLDATASIZE LT PUSH2 0x62 JUMPI PUSH1 0x0 CALLDATALOAD PUSH1 0xE0 SHR DUP1 PUSH4 0x1D1A696D EQ PUSH2 0x67 JUMPI DUP1 PUSH4 0x1F7B6D32 EQ PUSH2 0x8F JUMPI DUP1 PUSH4 0x446BFFBA EQ PUSH2 0xA5 JUMPI DUP1 PUSH4 0x95BC2673 EQ PUSH2 0xBA JUMPI DUP1 PUSH4 0x971217B7 EQ PUSH2 0xCD JUMPI DUP1 PUSH4 0xE0886F90 EQ PUSH2 0xE2 JUMPI JUMPDEST PUSH1 0x0 DUP1 REVERT JUMPDEST PUSH2 0x7A PUSH2 0x75 CALLDATASIZE PUSH1 0x4 PUSH2 0x3A5 JUMP JUMPDEST PUSH2 0xF5 JUMP JUMPDEST PUSH1 0x40 MLOAD SWAP1 ISZERO ISZERO DUP2 MSTORE PUSH1 0x20 ADD JUMPDEST PUSH1 0x40 MLOAD DUP1 SWAP2 SUB SWAP1 RETURN JUMPDEST PUSH2 0x97 PUSH2 0x107 JUMP JUMPDEST PUSH1 0x40 MLOAD SWAP1 DUP2 MSTORE PUSH1 0x20 ADD PUSH2 0x86 JUMP JUMPDEST PUSH2 0xB8 PUSH2 0xB3 CALLDATASIZE PUSH1 0x4 PUSH2 0x3A5 JUMP JUMPDEST PUSH2 0x118 JUMP JUMPDEST STOP JUMPDEST PUSH2 0xB8 PUSH2 0xC8 CALLDATASIZE PUSH1 0x4 PUSH2 0x3A5 JUMP JUMPDEST PUSH2 0x165 JUMP JUMPDEST PUSH2 0xD5 PUSH2 0x171 JUMP JUMPDEST PUSH1 0x40 MLOAD PUSH2 0x86 SWAP2 SWAP1 PUSH2 0x3BE JUMP JUMPDEST PUSH2 0x97 PUSH2 0xF0 CALLDATASIZE PUSH1 0x4 PUSH2 0x3A5 JUMP JUMPDEST PUSH2 0x17D JUMP JUMPDEST PUSH1 0x0 PUSH2 0x101 DUP2 DUP4 PUSH2 0x189 JUMP JUMPDEST SWAP3 SWAP2 POP POP JUMP JUMPDEST PUSH1 0x0 PUSH2 0x113 PUSH1 0x0 PUSH2 0x1A4 JUMP JUMPDEST SWAP1 POP SWAP1 JUMP JUMPDEST PUSH1 0x0 PUSH2 0x124 DUP2 DUP4 PUSH2 0x1AE JUMP JUMPDEST SWAP1 POP PUSH32 0xED9840E0775590557AD736875D96C95CF1458B766335F74339951A32C82A9E33 DUP2 PUSH1 0x40 MLOAD PUSH2 0x159 SWAP2 ISZERO ISZERO DUP2 MSTORE PUSH1 0x20 ADD SWAP1 JUMP JUMPDEST PUSH1 0x40 MLOAD DUP1 SWAP2 SUB SWAP1 LOG1 POP POP JUMP JUMPDEST PUSH1 0x0 PUSH2 0x124 DUP2 DUP4 PUSH2 0x1BA JUMP JUMPDEST PUSH1 0x60 PUSH2 0x113 PUSH1 0x0 PUSH2 0x1C6 JUMP JUMPDEST PUSH1 0x0 PUSH2 0x101 DUP2 DUP4 PUSH2 0x1D1 JUMP JUMPDEST PUSH1 0x0 DUP2 DUP2 MSTORE PUSH1 0x1 DUP4 ADD PUSH1 0x20 MSTORE PUSH1 0x40 DUP2 KECCAK256 SLOAD ISZERO ISZERO JUMPDEST SWAP4 SWAP3 POP POP POP JUMP JUMPDEST PUSH1 0x0 PUSH2 0x101 DUP3 SLOAD SWAP1 JUMP JUMPDEST PUSH1 0x0 PUSH2 0x19D DUP4 DUP4 PUSH2 0x1DD JUMP JUMPDEST PUSH1 0x0 PUSH2 0x19D DUP4 DUP4 PUSH2 0x22C JUMP JUMPDEST PUSH1 0x60 PUSH2 0x101 DUP3 PUSH2 0x31F JUMP JUMPDEST PUSH1 0x0 PUSH2 0x19D DUP4 DUP4 PUSH2 0x37B JUMP JUMPDEST PUSH1 0x0 DUP2 DUP2 MSTORE PUSH1 0x1 DUP4 ADD PUSH1 0x20 MSTORE PUSH1 0x40 DUP2 KECCAK256 SLOAD PUSH2 0x224 JUMPI POP DUP2 SLOAD PUSH1 0x1 DUP2 DUP2 ADD DUP5 SSTORE PUSH1 0x0 DUP5 DUP2 MSTORE PUSH1 0x20 DUP1 DUP3 KECCAK256 SWAP1 SWAP4 ADD DUP5 SWAP1 SSTORE DUP5 SLOAD DUP5 DUP3 MSTORE DUP3 DUP7 ADD SWAP1 SWAP4 MSTORE PUSH1 0x40 SWAP1 KECCAK256 SWAP2 SWAP1 SWAP2 SSTORE PUSH2 0x101 JUMP JUMPDEST POP PUSH1 0x0 PUSH2 0x101 JUMP JUMPDEST PUSH1 0x0 DUP2 DUP2 MSTORE PUSH1 0x1 DUP4 ADD PUSH1 0x20 MSTORE PUSH1 0x40 DUP2 KECCAK256 SLOAD DUP1 ISZERO PUSH2 0x315 JUMPI PUSH1 0x0 PUSH2 0x250 PUSH1 0x1 DUP4 PUSH2 0x402 JUMP JUMPDEST DUP6 SLOAD SWAP1 SWAP2 POP PUSH1 0x0 SWAP1 PUSH2 0x264 SWAP1 PUSH1 0x1 SWAP1 PUSH2 0x402 JUMP JUMPDEST SWAP1 POP DUP2 DUP2 EQ PUSH2 0x2C9 JUMPI PUSH1 0x0 DUP7 PUSH1 0x0 ADD DUP3 DUP2 SLOAD DUP2 LT PUSH2 0x284 JUMPI PUSH2 0x284 PUSH2 0x427 JUMP JUMPDEST SWAP1 PUSH1 0x0 MSTORE PUSH1 0x20 PUSH1 0x0 KECCAK256 ADD SLOAD SWAP1 POP DUP1 DUP8 PUSH1 0x0 ADD DUP5 DUP2 SLOAD DUP2 LT PUSH2 0x2A7 JUMPI PUSH2 0x2A7 PUSH2 0x427 JUMP JUMPDEST PUSH1 0x0 SWAP2 DUP3 MSTORE PUSH1 0x20 DUP1 DUP4 KECCAK256 SWAP1 SWAP2 ADD SWAP3 SWAP1 SWAP3 SSTORE SWAP2 DUP3 MSTORE PUSH1 0x1 DUP9 ADD SWAP1 MSTORE PUSH1 0x40 SWAP1 KECCAK256 DUP4 SWAP1 SSTORE JUMPDEST DUP6 SLOAD DUP7 SWAP1 DUP1 PUSH2 0x2DA JUMPI PUSH2 0x2DA PUSH2 0x43D JUMP JUMPDEST PUSH1 0x1 SWAP1 SUB DUP2 DUP2 SWAP1 PUSH1 0x0 MSTORE PUSH1 0x20 PUSH1 0x0 KECCAK256 ADD PUSH1 0x0 SWAP1 SSTORE SWAP1 SSTORE DUP6 PUSH1 0x1 ADD PUSH1 0x0 DUP7 DUP2 MSTORE PUSH1 0x20 ADD SWAP1 DUP2 MSTORE PUSH1 0x20 ADD PUSH1 0x0 KECCAK256 PUSH1 0x0 SWAP1 SSTORE PUSH1 0x1 SWAP4 POP POP POP POP PUSH2 0x101 JUMP JUMPDEST PUSH1 0x0 SWAP2 POP POP PUSH2 0x101 JUMP JUMPDEST PUSH1 0x60 DUP2 PUSH1 0x0 ADD DUP1 SLOAD DUP1 PUSH1 0x20 MUL PUSH1 0x20 ADD PUSH1 0x40 MLOAD SWAP1 DUP2 ADD PUSH1 0x40 MSTORE DUP1 SWAP3 SWAP2 SWAP1 DUP2 DUP2 MSTORE PUSH1 0x20 ADD DUP3 DUP1 SLOAD DUP1 ISZERO PUSH2 0x36F JUMPI PUSH1 0x20 MUL DUP3 ADD SWAP2 SWAP1 PUSH1 0x0 MSTORE PUSH1 0x20 PUSH1 0x0 KECCAK256 SWAP1 JUMPDEST DUP2 SLOAD DUP2 MSTORE PUSH1 0x20 ADD SWAP1 PUSH1 0x1 ADD SWAP1 DUP1 DUP4 GT PUSH2 0x35B JUMPI JUMPDEST POP POP POP POP POP SWAP1 POP SWAP2 SWAP1 POP JUMP JUMPDEST PUSH1 0x0 DUP3 PUSH1 0x0 ADD DUP3 DUP2 SLOAD DUP2 LT PUSH2 0x392 JUMPI PUSH2 0x392 PUSH2 0x427 JUMP JUMPDEST SWAP1 PUSH1 0x0 MSTORE PUSH1 0x20 PUSH1 0x0 KECCAK256 ADD SLOAD SWAP1 POP SWAP3 SWAP2 POP POP JUMP JUMPDEST PUSH1 0x0 PUSH1 0x20 DUP3 DUP5 SUB SLT ISZERO PUSH2 0x3B7 JUMPI PUSH1 0x0 DUP1 REVERT JUMPDEST POP CALLDATALOAD SWAP2 SWAP1 POP JUMP JUMPDEST PUSH1 0x20 DUP1 DUP3 MSTORE DUP3 MLOAD DUP3 DUP3 ADD DUP2 SWAP1 MSTORE PUSH1 0x0 SWAP2 SWAP1 DUP5 DUP3 ADD SWAP1 PUSH1 0x40 DUP6 ADD SWAP1 DUP5 JUMPDEST DUP2 DUP2 LT ISZERO PUSH2 0x3F6 JUMPI DUP4 MLOAD DUP4 MSTORE SWAP3 DUP5 ADD SWAP3 SWAP2 DUP5 ADD SWAP2 PUSH1 0x1 ADD PUSH2 0x3DA JUMP JUMPDEST POP SWAP1 SWAP7 SWAP6 POP POP POP POP POP POP JUMP JUMPDEST PUSH1 0x0 DUP3 DUP3 LT ISZERO PUSH2 0x422 JUMPI PUSH4 0x4E487B71 PUSH1 0xE0 SHL PUSH1 0x0 MSTORE PUSH1 0x11 PUSH1 0x4 MSTORE PUSH1 0x24 PUSH1 0x0 REVERT JUMPDEST POP SUB SWAP1 JUMP JUMPDEST PUSH4 0x4E487B71 PUSH1 0xE0 SHL PUSH1 0x0 MSTORE PUSH1 0x32 PUSH1 0x4 MSTORE PUSH1 0x24 PUSH1 0x0 REVERT JUMPDEST PUSH4 0x4E487B71 PUSH1 0xE0 SHL PUSH1 0x0 MSTORE PUSH1 0x31 PUSH1 0x4 MSTORE PUSH1 0x24 PUSH1 0x0 REVERT INVALID LOG2 PUSH5 0x6970667358 0x22 SLT KECCAK256 0xC6 DUP8 CODECOPY 0x5F 0xCE 0xA7 SWAP13 0xD1 DUP7 GAS MSTORE8 0x2F PUSH32 0x1A9A77724074EF4C6A73AEE3678E07BD94327C64736F6C634300080C00330000 ",
  "sha1": "8bc7b933ed1cdee5fc02f235b9e93d2b2536f30f",
  "source": "// SPDX-License-Identifier: MIT\n\npragma solidity ^0.8.0;\n\nimport \"../utils/structs/EnumerableSet.sol\";\n\n// Bytes32Set\ncontract EnumerableBytes32SetMock {\n    using EnumerableSet for EnumerableSet.Bytes32Set;\n\n    event OperationResult(bool result);\n\n    EnumerableSet.Bytes32Set private _set;\n\n    function contains(bytes32 value) public view returns (bool) {\n        return _set.contains(value);\n    }\n\n    function add(bytes32 value) public {\n        bool result = _set.add(value);\n        emit OperationResult(result);\n    }\n\n    function remove(bytes32 value) public {\n        bool result = _set.remove(value);\n        emit OperationResult(result);\n    }\n\n    function length() public view returns (uint256) {\n        return _set.length();\n    }\n\n    function at(uint256 index) public view returns (bytes32) {\n        return _set.at(index);\n    }\n\n    function values() public view returns (bytes32[] memory) {\n        return _set.values();\n    }\n}\n\n// AddressSet\ncontract EnumerableAddressSetMock {\n    using EnumerableSet for EnumerableSet.AddressSet;\n\n    event OperationResult(bool result);\n\n    EnumerableSet.AddressSet private _set;\n\n    function contains(address value) public view returns (bool) {\n        return _set.contains(value);\n    }\n\n    function add(address value) public {\n        bool result = _set.add(value);\n        emit OperationResult(result);\n    }\n\n    function remove(address value) public {\n        bool result = _set.remove(value);\n        emit OperationResult(result);\n    }\n\n    function length() public view returns (uint256) {\n        return _set.length();\n    }\n\n    function at(uint256 index) public view returns (address) {\n        return _set.at(index);\n    }\n\n    function values() public view returns (address[] memory) {\n        return _set.values();\n    }\n}\n\n// UintSet\ncontract EnumerableUintSetMock {\n    using EnumerableSet for EnumerableSet.UintSet;\n\n    event OperationResult(bool result);\n\n    EnumerableSet.UintSet private _set;\n\n    function contains(uint256 value) public view returns (bool) {\n        return _set.contains(value);\n    }\n\n    function add(uint256 value) public {\n        bool result = _set.add(value);\n        emit OperationResult(result);\n    }\n\n    function remove(uint256 value) public {\n        bool result = _set.remove(value);\n        emit OperationResult(result);\n    }\n\n    function length() public view returns (uint256) {\n        return _set.length();\n    }\n\n    function at(uint256 index) public view returns (uint256) {\n        return _set.at(index);\n    }\n\n    function values() public view returns (uint256[] memory) {\n        return _set.values();\n    }\n}\n",
  "sourcePath": "contracts/openzeppelin/contracts/mocks/EnumerableSetMock.sol",
  "type": "contract"
}