{
  "abi": [
    {
      "inputs": [
        {
          "internalType": "string",
          "name": "uri",
          "type": "string"
        }
      ],
      "stateMutability": "nonpayable",
      "type": "constructor"
    },
    {
      "anonymous": false,
      "inputs": [
        {
          "indexed": true,
          "internalType": "address",
          "name": "account",
          "type": "address"
        },
        {
          "indexed": true,
          "internalType": "address",
          "name": "operator",
          "type": "address"
        },
        {
          "indexed": false,
          "internalType": "bool",
          "name": "approved",
          "type": "bool"
        }
      ],
      "name": "ApprovalForAll",
      "type": "event"
    },
    {
      "anonymous": false,
      "inputs": [
        {
          "indexed": false,
          "internalType": "address",
          "name": "account",
          "type": "address"
        }
      ],
      "name": "Paused",
      "type": "event"
    },
    {
      "anonymous": false,
      "inputs": [
        {
          "indexed": true,
          "internalType": "address",
          "name": "operator",
          "type": "address"
        },
        {
          "indexed": true,
          "internalType": "address",
          "name": "from",
          "type": "address"
        },
        {
          "indexed": true,
          "internalType": "address",
          "name": "to",
          "type": "address"
        },
        {
          "indexed": false,
          "internalType": "uint256[]",
          "name": "ids",
          "type": "uint256[]"
        },
        {
          "indexed": false,
          "internalType": "uint256[]",
          "name": "values",
          "type": "uint256[]"
        }
      ],
      "name": "TransferBatch",
      "type": "event"
    },
    {
      "anonymous": false,
      "inputs": [
        {
          "indexed": true,
          "internalType": "address",
          "name": "operator",
          "type": "address"
        },
        {
          "indexed": true,
          "internalType": "address",
          "name": "from",
          "type": "address"
        },
        {
          "indexed": true,
          "internalType": "address",
          "name": "to",
          "type": "address"
        },
        {
          "indexed": false,
          "internalType": "uint256",
          "name": "id",
          "type": "uint256"
        },
        {
          "indexed": false,
          "internalType": "uint256",
          "name": "value",
          "type": "uint256"
        }
      ],
      "name": "TransferSingle",
      "type": "event"
    },
    {
      "anonymous": false,
      "inputs": [
        {
          "indexed": false,
          "internalType": "string",
          "name": "value",
          "type": "string"
        },
        {
          "indexed": true,
          "internalType": "uint256",
          "name": "id",
          "type": "uint256"
        }
      ],
      "name": "URI",
      "type": "event"
    },
    {
      "anonymous": false,
      "inputs": [
        {
          "indexed": false,
          "internalType": "address",
          "name": "account",
          "type": "address"
        }
      ],
      "name": "Unpaused",
      "type": "event"
    },
    {
      "inputs": [
        {
          "internalType": "address",
          "name": "account",
          "type": "address"
        },
        {
          "internalType": "uint256",
          "name": "id",
          "type": "uint256"
        }
      ],
      "name": "balanceOf",
      "outputs": [
        {
          "internalType": "uint256",
          "name": "",
          "type": "uint256"
        }
      ],
      "stateMutability": "view",
      "type": "function"
    },
    {
      "inputs": [
        {
          "internalType": "address[]",
          "name": "accounts",
          "type": "address[]"
        },
        {
          "internalType": "uint256[]",
          "name": "ids",
          "type": "uint256[]"
        }
      ],
      "name": "balanceOfBatch",
      "outputs": [
        {
          "internalType": "uint256[]",
          "name": "",
          "type": "uint256[]"
        }
      ],
      "stateMutability": "view",
      "type": "function"
    },
    {
      "inputs": [
        {
          "internalType": "address",
          "name": "owner",
          "type": "address"
        },
        {
          "internalType": "uint256",
          "name": "id",
          "type": "uint256"
        },
        {
          "internalType": "uint256",
          "name": "value",
          "type": "uint256"
        }
      ],
      "name": "burn",
      "outputs": [],
      "stateMutability": "nonpayable",
      "type": "function"
    },
    {
      "inputs": [
        {
          "internalType": "address",
          "name": "owner",
          "type": "address"
        },
        {
          "internalType": "uint256[]",
          "name": "ids",
          "type": "uint256[]"
        },
        {
          "internalType": "uint256[]",
          "name": "values",
          "type": "uint256[]"
        }
      ],
      "name": "burnBatch",
      "outputs": [],
      "stateMutability": "nonpayable",
      "type": "function"
    },
    {
      "inputs": [
        {
          "internalType": "address",
          "name": "account",
          "type": "address"
        },
        {
          "internalType": "address",
          "name": "operator",
          "type": "address"
        }
      ],
      "name": "isApprovedForAll",
      "outputs": [
        {
          "internalType": "bool",
          "name": "",
          "type": "bool"
        }
      ],
      "stateMutability": "view",
      "type": "function"
    },
    {
      "inputs": [
        {
          "internalType": "address",
          "name": "to",
          "type": "address"
        },
        {
          "internalType": "uint256",
          "name": "id",
          "type": "uint256"
        },
        {
          "internalType": "uint256",
          "name": "value",
          "type": "uint256"
        },
        {
          "internalType": "bytes",
          "name": "data",
          "type": "bytes"
        }
      ],
      "name": "mint",
      "outputs": [],
      "stateMutability": "nonpayable",
      "type": "function"
    },
    {
      "inputs": [
        {
          "internalType": "address",
          "name": "to",
          "type": "address"
        },
        {
          "internalType": "uint256[]",
          "name": "ids",
          "type": "uint256[]"
        },
        {
          "internalType": "uint256[]",
          "name": "values",
          "type": "uint256[]"
        },
        {
          "internalType": "bytes",
          "name": "data",
          "type": "bytes"
        }
      ],
      "name": "mintBatch",
      "outputs": [],
      "stateMutability": "nonpayable",
      "type": "function"
    },
    {
      "inputs": [],
      "name": "pause",
      "outputs": [],
      "stateMutability": "nonpayable",
      "type": "function"
    },
    {
      "inputs": [],
      "name": "paused",
      "outputs": [
        {
          "internalType": "bool",
          "name": "",
          "type": "bool"
        }
      ],
      "stateMutability": "view",
      "type": "function"
    },
    {
      "inputs": [
        {
          "internalType": "address",
          "name": "from",
          "type": "address"
        },
        {
          "internalType": "address",
          "name": "to",
          "type": "address"
        },
        {
          "internalType": "uint256[]",
          "name": "ids",
          "type": "uint256[]"
        },
        {
          "internalType": "uint256[]",
          "name": "amounts",
          "type": "uint256[]"
        },
        {
          "internalType": "bytes",
          "name": "data",
          "type": "bytes"
        }
      ],
      "name": "safeBatchTransferFrom",
      "outputs": [],
      "stateMutability": "nonpayable",
      "type": "function"
    },
    {
      "inputs": [
        {
          "internalType": "address",
          "name": "from",
          "type": "address"
        },
        {
          "internalType": "address",
          "name": "to",
          "type": "address"
        },
        {
          "internalType": "uint256",
          "name": "id",
          "type": "uint256"
        },
        {
          "internalType": "uint256",
          "name": "amount",
          "type": "uint256"
        },
        {
          "internalType": "bytes",
          "name": "data",
          "type": "bytes"
        }
      ],
      "name": "safeTransferFrom",
      "outputs": [],
      "stateMutability": "nonpayable",
      "type": "function"
    },
    {
      "inputs": [
        {
          "internalType": "address",
          "name": "operator",
          "type": "address"
        },
        {
          "internalType": "bool",
          "name": "approved",
          "type": "bool"
        }
      ],
      "name": "setApprovalForAll",
      "outputs": [],
      "stateMutability": "nonpayable",
      "type": "function"
    },
    {
      "inputs": [
        {
          "internalType": "string",
          "name": "newuri",
          "type": "string"
        }
      ],
      "name": "setURI",
      "outputs": [],
      "stateMutability": "nonpayable",
      "type": "function"
    },
    {
      "inputs": [
        {
          "internalType": "bytes4",
          "name": "interfaceId",
          "type": "bytes4"
        }
      ],
      "name": "supportsInterface",
      "outputs": [
        {
          "internalType": "bool",
          "name": "",
          "type": "bool"
        }
      ],
      "stateMutability": "view",
      "type": "function"
    },
    {
      "inputs": [],
      "name": "unpause",
      "outputs": [],
      "stateMutability": "nonpayable",
      "type": "function"
    },
    {
      "inputs": [
        {
          "internalType": "uint256",
          "name": "",
          "type": "uint256"
        }
      ],
      "name": "uri",
      "outputs": [
        {
          "internalType": "string",
          "name": "",
          "type": "string"
        }
      ],
      "stateMutability": "view",
      "type": "function"
    }
  ],
  "bytecode": "60806040523480156200001157600080fd5b506040516200210b3803806200210b833981016040819052620000349162000129565b8080620000418162000054565b50506003805460ff191690555062000242565b8051620000699060029060208401906200006d565b5050565b8280546200007b9062000205565b90600052602060002090601f0160209004810192826200009f5760008555620000ea565b82601f10620000ba57805160ff1916838001178555620000ea565b82800160010185558215620000ea579182015b82811115620000ea578251825591602001919060010190620000cd565b50620000f8929150620000fc565b5090565b5b80821115620000f85760008155600101620000fd565b634e487b7160e01b600052604160045260246000fd5b600060208083850312156200013d57600080fd5b82516001600160401b03808211156200015557600080fd5b818501915085601f8301126200016a57600080fd5b8151818111156200017f576200017f62000113565b604051601f8201601f19908116603f01168101908382118183101715620001aa57620001aa62000113565b816040528281528886848701011115620001c357600080fd5b600093505b82841015620001e75784840186015181850187015292850192620001c8565b82841115620001f95760008684830101525b98975050505050505050565b600181811c908216806200021a57607f821691505b602082108114156200023c57634e487b7160e01b600052602260045260246000fd5b50919050565b611eb980620002526000396000f3fe608060405234801561001057600080fd5b50600436106100ff5760003560e01c80635c975abb11610097578063a22cb46511610066578063a22cb46514610209578063e985e9c51461021c578063f242432a14610258578063f5298aca1461026b57600080fd5b80635c975abb146101d05780636b20c454146101db578063731133e9146101ee5780638456cb591461020157600080fd5b80631f7fdffa116100d35780631f7fdffa146101825780632eb2c2d6146101955780633f4ba83a146101a85780634e1273f4146101b057600080fd5b8062fdd58e1461010457806301ffc9a71461012a57806302fe53051461014d5780630e89341c14610162575b600080fd5b6101176101123660046113be565b61027e565b6040519081526020015b60405180910390f35b61013d6101383660046113fe565b610315565b6040519015158152602001610121565b61016061015b3660046114c3565b610367565b005b610175610170366004611514565b610373565b604051610121919061157a565b610160610190366004611642565b610407565b6101606101a33660046116db565b610419565b6101606104b0565b6101c36101be366004611785565b6104ba565b604051610121919061188b565b60035460ff1661013d565b6101606101e936600461189e565b6105e4565b6101606101fc366004611912565b6105f4565b610160610600565b610160610217366004611967565b610608565b61013d61022a3660046119a3565b6001600160a01b03918216600090815260016020908152604080832093909416825291909152205460ff1690565b6101606102663660046119d6565b610617565b610160610279366004611a3b565b61069e565b60006001600160a01b0383166102ef5760405162461bcd60e51b815260206004820152602b60248201527f455243313135353a2062616c616e636520717565727920666f7220746865207a60448201526a65726f206164647265737360a81b60648201526084015b60405180910390fd5b506000908152602081815260408083206001600160a01b03949094168352929052205490565b60006001600160e01b03198216636cdb3d1360e11b148061034657506001600160e01b031982166303a24d0760e21b145b8061036157506301ffc9a760e01b6001600160e01b03198316145b92915050565b610370816106a9565b50565b60606002805461038290611a6e565b80601f01602080910402602001604051908101604052809291908181526020018280546103ae90611a6e565b80156103fb5780601f106103d0576101008083540402835291602001916103fb565b820191906000526020600020905b8154815290600101906020018083116103de57829003601f168201915b50505050509050919050565b610413848484846106bc565b50505050565b6001600160a01b0385163314806104355750610435853361022a565b61049c5760405162461bcd60e51b815260206004820152603260248201527f455243313135353a207472616e736665722063616c6c6572206973206e6f74206044820152711bdddb995c881b9bdc88185c1c1c9bdd995960721b60648201526084016102e6565b6104a98585858585610816565b5050505050565b6104b86109c0565b565b6060815183511461051f5760405162461bcd60e51b815260206004820152602960248201527f455243313135353a206163636f756e747320616e6420696473206c656e677468604482015268040dad2e6dac2e8c6d60bb1b60648201526084016102e6565b6000835167ffffffffffffffff81111561053b5761053b611422565b604051908082528060200260200182016040528015610564578160200160208202803683370190505b50905060005b84518110156105dc576105af85828151811061058857610588611aa9565b60200260200101518583815181106105a2576105a2611aa9565b602002602001015161027e565b8282815181106105c1576105c1611aa9565b60209081029190910101526105d581611ad5565b905061056a565b509392505050565b6105ef838383610a53565b505050565b61041384848484610be1565b6104b8610cb7565b610613338383610d32565b5050565b6001600160a01b0385163314806106335750610633853361022a565b6106915760405162461bcd60e51b815260206004820152602960248201527f455243313135353a2063616c6c6572206973206e6f74206f776e6572206e6f7260448201526808185c1c1c9bdd995960ba1b60648201526084016102e6565b6104a98585858585610e13565b6105ef838383610f30565b8051610613906002906020840190611309565b6001600160a01b0384166106e25760405162461bcd60e51b81526004016102e690611af0565b81518351146107035760405162461bcd60e51b81526004016102e690611b31565b3361071381600087878787611031565b60005b84518110156107ae5783818151811061073157610731611aa9565b602002602001015160008087848151811061074e5761074e611aa9565b602002602001015181526020019081526020016000206000886001600160a01b03166001600160a01b0316815260200190815260200160002060008282546107969190611b79565b909155508190506107a681611ad5565b915050610716565b50846001600160a01b031660006001600160a01b0316826001600160a01b03167f4a39dc06d4c0dbc64b70af90fd698a233a518aa5d07e595d983b8c0526c8f7fb87876040516107ff929190611b91565b60405180910390a46104a98160008787878761103f565b81518351146108375760405162461bcd60e51b81526004016102e690611b31565b6001600160a01b03841661085d5760405162461bcd60e51b81526004016102e690611bbf565b3361086c818787878787611031565b60005b845181101561095257600085828151811061088c5761088c611aa9565b6020026020010151905060008583815181106108aa576108aa611aa9565b602090810291909101810151600084815280835260408082206001600160a01b038e1683529093529190912054909150818110156108fa5760405162461bcd60e51b81526004016102e690611c04565b6000838152602081815260408083206001600160a01b038e8116855292528083208585039055908b16825281208054849290610937908490611b79565b925050819055505050508061094b90611ad5565b905061086f565b50846001600160a01b0316866001600160a01b0316826001600160a01b03167f4a39dc06d4c0dbc64b70af90fd698a233a518aa5d07e595d983b8c0526c8f7fb87876040516109a2929190611b91565b60405180910390a46109b881878787878761103f565b505050505050565b60035460ff16610a095760405162461bcd60e51b815260206004820152601460248201527314185d5cd8589b194e881b9bdd081c185d5cd95960621b60448201526064016102e6565b6003805460ff191690557f5db9ee0a495bf2e6ff9c91a7834c1ba4fdd244a5e8aa4e537bd38aeae4b073aa335b6040516001600160a01b03909116815260200160405180910390a1565b6001600160a01b038316610a795760405162461bcd60e51b81526004016102e690611c4e565b8051825114610a9a5760405162461bcd60e51b81526004016102e690611b31565b6000339050610abd81856000868660405180602001604052806000815250611031565b60005b8351811015610b82576000848281518110610add57610add611aa9565b602002602001015190506000848381518110610afb57610afb611aa9565b602090810291909101810151600084815280835260408082206001600160a01b038c168352909352919091205490915081811015610b4b5760405162461bcd60e51b81526004016102e690611c91565b6000928352602083815260408085206001600160a01b038b1686529091529092209103905580610b7a81611ad5565b915050610ac0565b5060006001600160a01b0316846001600160a01b0316826001600160a01b03167f4a39dc06d4c0dbc64b70af90fd698a233a518aa5d07e595d983b8c0526c8f7fb8686604051610bd3929190611b91565b60405180910390a450505050565b6001600160a01b038416610c075760405162461bcd60e51b81526004016102e690611af0565b33610c2781600087610c188861119b565b610c218861119b565b87611031565b6000848152602081815260408083206001600160a01b038916845290915281208054859290610c57908490611b79565b909155505060408051858152602081018590526001600160a01b0380881692600092918516917fc3d58168c5ae7397731d063d5bbf3d657854427343f4c083240f7aacaa2d0f62910160405180910390a46104a9816000878787876111e6565b60035460ff1615610cfd5760405162461bcd60e51b815260206004820152601060248201526f14185d5cd8589b194e881c185d5cd95960821b60448201526064016102e6565b6003805460ff191660011790557f62e78cea01bee320cd4e420270b5ea74000d11b0c9f74754ebdbfc544b05a258610a363390565b816001600160a01b0316836001600160a01b03161415610da65760405162461bcd60e51b815260206004820152602960248201527f455243313135353a2073657474696e6720617070726f76616c20737461747573604482015268103337b91039b2b63360b91b60648201526084016102e6565b6001600160a01b03838116600081815260016020908152604080832094871680845294825291829020805460ff191686151590811790915591519182527f17307eab39ab6107e8899845ad3d59bd9653f200f220920489ca2b5937696c31910160405180910390a3505050565b6001600160a01b038416610e395760405162461bcd60e51b81526004016102e690611bbf565b33610e49818787610c188861119b565b6000848152602081815260408083206001600160a01b038a16845290915290205483811015610e8a5760405162461bcd60e51b81526004016102e690611c04565b6000858152602081815260408083206001600160a01b038b8116855292528083208785039055908816825281208054869290610ec7908490611b79565b909155505060408051868152602081018690526001600160a01b03808916928a821692918616917fc3d58168c5ae7397731d063d5bbf3d657854427343f4c083240f7aacaa2d0f62910160405180910390a4610f278288888888886111e6565b50505050505050565b6001600160a01b038316610f565760405162461bcd60e51b81526004016102e690611c4e565b33610f8581856000610f678761119b565b610f708761119b565b60405180602001604052806000815250611031565b6000838152602081815260408083206001600160a01b038816845290915290205482811015610fc65760405162461bcd60e51b81526004016102e690611c91565b6000848152602081815260408083206001600160a01b03898116808652918452828520888703905582518981529384018890529092908616917fc3d58168c5ae7397731d063d5bbf3d657854427343f4c083240f7aacaa2d0f62910160405180910390a45050505050565b6109b88686868686866112a1565b6001600160a01b0384163b156109b85760405163bc197c8160e01b81526001600160a01b0385169063bc197c81906110839089908990889088908890600401611cd5565b6020604051808303816000875af19250505080156110be575060408051601f3d908101601f191682019092526110bb91810190611d33565b60015b61116b576110ca611d50565b806308c379a0141561110457506110df611d6c565b806110ea5750611106565b8060405162461bcd60e51b81526004016102e6919061157a565b505b60405162461bcd60e51b815260206004820152603460248201527f455243313135353a207472616e7366657220746f206e6f6e20455243313135356044820152732932b1b2b4bb32b91034b6b83632b6b2b73a32b960611b60648201526084016102e6565b6001600160e01b0319811663bc197c8160e01b14610f275760405162461bcd60e51b81526004016102e690611df6565b604080516001808252818301909252606091600091906020808301908036833701905050905082816000815181106111d5576111d5611aa9565b602090810291909101015292915050565b6001600160a01b0384163b156109b85760405163f23a6e6160e01b81526001600160a01b0385169063f23a6e619061122a9089908990889088908890600401611e3e565b6020604051808303816000875af1925050508015611265575060408051601f3d908101601f1916820190925261126291810190611d33565b60015b611271576110ca611d50565b6001600160e01b0319811663f23a6e6160e01b14610f275760405162461bcd60e51b81526004016102e690611df6565b60035460ff16156109b85760405162461bcd60e51b815260206004820152602c60248201527f455243313135355061757361626c653a20746f6b656e207472616e736665722060448201526b1dda1a5b19481c185d5cd95960a21b60648201526084016102e6565b82805461131590611a6e565b90600052602060002090601f016020900481019282611337576000855561137d565b82601f1061135057805160ff191683800117855561137d565b8280016001018555821561137d579182015b8281111561137d578251825591602001919060010190611362565b5061138992915061138d565b5090565b5b80821115611389576000815560010161138e565b80356001600160a01b03811681146113b957600080fd5b919050565b600080604083850312156113d157600080fd5b6113da836113a2565b946020939093013593505050565b6001600160e01b03198116811461037057600080fd5b60006020828403121561141057600080fd5b813561141b816113e8565b9392505050565b634e487b7160e01b600052604160045260246000fd5b601f8201601f1916810167ffffffffffffffff8111828210171561145e5761145e611422565b6040525050565b600067ffffffffffffffff83111561147f5761147f611422565b604051611496601f8501601f191660200182611438565b8091508381528484840111156114ab57600080fd5b83836020830137600060208583010152509392505050565b6000602082840312156114d557600080fd5b813567ffffffffffffffff8111156114ec57600080fd5b8201601f810184136114fd57600080fd5b61150c84823560208401611465565b949350505050565b60006020828403121561152657600080fd5b5035919050565b6000815180845260005b8181101561155357602081850181015186830182015201611537565b81811115611565576000602083870101525b50601f01601f19169290920160200192915050565b60208152600061141b602083018461152d565b600067ffffffffffffffff8211156115a7576115a7611422565b5060051b60200190565b600082601f8301126115c257600080fd5b813560206115cf8261158d565b6040516115dc8282611438565b83815260059390931b85018201928281019150868411156115fc57600080fd5b8286015b848110156116175780358352918301918301611600565b509695505050505050565b600082601f83011261163357600080fd5b61141b83833560208501611465565b6000806000806080858703121561165857600080fd5b611661856113a2565b9350602085013567ffffffffffffffff8082111561167e57600080fd5b61168a888389016115b1565b945060408701359150808211156116a057600080fd5b6116ac888389016115b1565b935060608701359150808211156116c257600080fd5b506116cf87828801611622565b91505092959194509250565b600080600080600060a086880312156116f357600080fd5b6116fc866113a2565b945061170a602087016113a2565b9350604086013567ffffffffffffffff8082111561172757600080fd5b61173389838a016115b1565b9450606088013591508082111561174957600080fd5b61175589838a016115b1565b9350608088013591508082111561176b57600080fd5b5061177888828901611622565b9150509295509295909350565b6000806040838503121561179857600080fd5b823567ffffffffffffffff808211156117b057600080fd5b818501915085601f8301126117c457600080fd5b813560206117d18261158d565b6040516117de8282611438565b83815260059390931b85018201928281019150898411156117fe57600080fd5b948201945b8386101561182357611814866113a2565b82529482019490820190611803565b9650508601359250508082111561183957600080fd5b50611846858286016115b1565b9150509250929050565b600081518084526020808501945080840160005b8381101561188057815187529582019590820190600101611864565b509495945050505050565b60208152600061141b6020830184611850565b6000806000606084860312156118b357600080fd5b6118bc846113a2565b9250602084013567ffffffffffffffff808211156118d957600080fd5b6118e5878388016115b1565b935060408601359150808211156118fb57600080fd5b50611908868287016115b1565b9150509250925092565b6000806000806080858703121561192857600080fd5b611931856113a2565b93506020850135925060408501359150606085013567ffffffffffffffff81111561195b57600080fd5b6116cf87828801611622565b6000806040838503121561197a57600080fd5b611983836113a2565b91506020830135801515811461199857600080fd5b809150509250929050565b600080604083850312156119b657600080fd5b6119bf836113a2565b91506119cd602084016113a2565b90509250929050565b600080600080600060a086880312156119ee57600080fd5b6119f7866113a2565b9450611a05602087016113a2565b93506040860135925060608601359150608086013567ffffffffffffffff811115611a2f57600080fd5b61177888828901611622565b600080600060608486031215611a5057600080fd5b611a59846113a2565b95602085013595506040909401359392505050565b600181811c90821680611a8257607f821691505b60208210811415611aa357634e487b7160e01b600052602260045260246000fd5b50919050565b634e487b7160e01b600052603260045260246000fd5b634e487b7160e01b600052601160045260246000fd5b6000600019821415611ae957611ae9611abf565b5060010190565b60208082526021908201527f455243313135353a206d696e7420746f20746865207a65726f206164647265736040820152607360f81b606082015260800190565b60208082526028908201527f455243313135353a2069647320616e6420616d6f756e7473206c656e677468206040820152670dad2e6dac2e8c6d60c31b606082015260800190565b60008219821115611b8c57611b8c611abf565b500190565b604081526000611ba46040830185611850565b8281036020840152611bb68185611850565b95945050505050565b60208082526025908201527f455243313135353a207472616e7366657220746f20746865207a65726f206164604082015264647265737360d81b606082015260800190565b6020808252602a908201527f455243313135353a20696e73756666696369656e742062616c616e636520666f60408201526939103a3930b739b332b960b11b606082015260800190565b60208082526023908201527f455243313135353a206275726e2066726f6d20746865207a65726f206164647260408201526265737360e81b606082015260800190565b60208082526024908201527f455243313135353a206275726e20616d6f756e7420657863656564732062616c604082015263616e636560e01b606082015260800190565b6001600160a01b0386811682528516602082015260a060408201819052600090611d0190830186611850565b8281036060840152611d138186611850565b90508281036080840152611d27818561152d565b98975050505050505050565b600060208284031215611d4557600080fd5b815161141b816113e8565b600060033d1115611d695760046000803e5060005160e01c5b90565b600060443d1015611d7a5790565b6040516003193d81016004833e81513d67ffffffffffffffff8160248401118184111715611daa57505050505090565b8285019150815181811115611dc25750505050505090565b843d8701016020828501011115611ddc5750505050505090565b611deb60208286010187611438565b509095945050505050565b60208082526028908201527f455243313135353a204552433131353552656365697665722072656a656374656040820152676420746f6b656e7360c01b606082015260800190565b6001600160a01b03868116825285166020820152604081018490526060810183905260a060808201819052600090611e789083018461152d565b97965050505050505056fea26469706673582212205e64708ff57daf1c3360fd52279fbf9044d67b59ec4fdf7314a37b4a1eeecf2164736f6c634300080c0033",
  "bytecodeSha1": "27d4d86341cc3585d040fb7a5f360bf6e2bfffe7",
  "compiler": {
    "evm_version": "istanbul",
    "optimizer": {
      "enabled": true,
      "runs": 200
    },
    "version": "0.8.12+commit.f00d7308"
  },
  "contractName": "ERC1155PausableMock",
  "language": "Solidity",
  "natspec": {
    "kind": "dev",
    "methods": {
      "balanceOf(address,uint256)": {
        "details": "See {IERC1155-balanceOf}. Requirements: - `account` cannot be the zero address."
      },
      "balanceOfBatch(address[],uint256[])": {
        "details": "See {IERC1155-balanceOfBatch}. Requirements: - `accounts` and `ids` must have the same length."
      },
      "isApprovedForAll(address,address)": {
        "details": "See {IERC1155-isApprovedForAll}."
      },
      "paused()": {
        "details": "Returns true if the contract is paused, and false otherwise."
      },
      "safeBatchTransferFrom(address,address,uint256[],uint256[],bytes)": {
        "details": "See {IERC1155-safeBatchTransferFrom}."
      },
      "safeTransferFrom(address,address,uint256,uint256,bytes)": {
        "details": "See {IERC1155-safeTransferFrom}."
      },
      "setApprovalForAll(address,bool)": {
        "details": "See {IERC1155-setApprovalForAll}."
      },
      "supportsInterface(bytes4)": {
        "details": "See {IERC165-supportsInterface}."
      },
      "uri(uint256)": {
        "details": "See {IERC1155MetadataURI-uri}. This implementation returns the same URI for *all* token types. It relies on the token type ID substitution mechanism https://eips.ethereum.org/EIPS/eip-1155#metadata[defined in the EIP]. Clients calling this function must replace the `\\{id\\}` substring with the actual token type ID."
      }
    },
    "version": 1
  },
  "opcodes": "PUSH1 0x80 PUSH1 0x40 MSTORE CALLVALUE DUP1 ISZERO PUSH2 0x10 JUMPI PUSH1 0x0 DUP1 REVERT JUMPDEST POP PUSH1 0x4 CALLDATASIZE LT PUSH2 0xFF JUMPI PUSH1 0x0 CALLDATALOAD PUSH1 0xE0 SHR DUP1 PUSH4 0x5C975ABB GT PUSH2 0x97 JUMPI DUP1 PUSH4 0xA22CB465 GT PUSH2 0x66 JUMPI DUP1 PUSH4 0xA22CB465 EQ PUSH2 0x209 JUMPI DUP1 PUSH4 0xE985E9C5 EQ PUSH2 0x21C JUMPI DUP1 PUSH4 0xF242432A EQ PUSH2 0x258 JUMPI DUP1 PUSH4 0xF5298ACA EQ PUSH2 0x26B JUMPI PUSH1 0x0 DUP1 REVERT JUMPDEST DUP1 PUSH4 0x5C975ABB EQ PUSH2 0x1D0 JUMPI DUP1 PUSH4 0x6B20C454 EQ PUSH2 0x1DB JUMPI DUP1 PUSH4 0x731133E9 EQ PUSH2 0x1EE JUMPI DUP1 PUSH4 0x8456CB59 EQ PUSH2 0x201 JUMPI PUSH1 0x0 DUP1 REVERT JUMPDEST DUP1 PUSH4 0x1F7FDFFA GT PUSH2 0xD3 JUMPI DUP1 PUSH4 0x1F7FDFFA EQ PUSH2 0x182 JUMPI DUP1 PUSH4 0x2EB2C2D6 EQ PUSH2 0x195 JUMPI DUP1 PUSH4 0x3F4BA83A EQ PUSH2 0x1A8 JUMPI DUP1 PUSH4 0x4E1273F4 EQ PUSH2 0x1B0 JUMPI PUSH1 0x0 DUP1 REVERT JUMPDEST DUP1 PUSH3 0xFDD58E EQ PUSH2 0x104 JUMPI DUP1 PUSH4 0x1FFC9A7 EQ PUSH2 0x12A JUMPI DUP1 PUSH4 0x2FE5305 EQ PUSH2 0x14D JUMPI DUP1 PUSH4 0xE89341C EQ PUSH2 0x162 JUMPI JUMPDEST PUSH1 0x0 DUP1 REVERT JUMPDEST PUSH2 0x117 PUSH2 0x112 CALLDATASIZE PUSH1 0x4 PUSH2 0x13BE JUMP JUMPDEST PUSH2 0x27E JUMP JUMPDEST PUSH1 0x40 MLOAD SWAP1 DUP2 MSTORE PUSH1 0x20 ADD JUMPDEST PUSH1 0x40 MLOAD DUP1 SWAP2 SUB SWAP1 RETURN JUMPDEST PUSH2 0x13D PUSH2 0x138 CALLDATASIZE PUSH1 0x4 PUSH2 0x13FE JUMP JUMPDEST PUSH2 0x315 JUMP JUMPDEST PUSH1 0x40 MLOAD SWAP1 ISZERO ISZERO DUP2 MSTORE PUSH1 0x20 ADD PUSH2 0x121 JUMP JUMPDEST PUSH2 0x160 PUSH2 0x15B CALLDATASIZE PUSH1 0x4 PUSH2 0x14C3 JUMP JUMPDEST PUSH2 0x367 JUMP JUMPDEST STOP JUMPDEST PUSH2 0x175 PUSH2 0x170 CALLDATASIZE PUSH1 0x4 PUSH2 0x1514 JUMP JUMPDEST PUSH2 0x373 JUMP JUMPDEST PUSH1 0x40 MLOAD PUSH2 0x121 SWAP2 SWAP1 PUSH2 0x157A JUMP JUMPDEST PUSH2 0x160 PUSH2 0x190 CALLDATASIZE PUSH1 0x4 PUSH2 0x1642 JUMP JUMPDEST PUSH2 0x407 JUMP JUMPDEST PUSH2 0x160 PUSH2 0x1A3 CALLDATASIZE PUSH1 0x4 PUSH2 0x16DB JUMP JUMPDEST PUSH2 0x419 JUMP JUMPDEST PUSH2 0x160 PUSH2 0x4B0 JUMP JUMPDEST PUSH2 0x1C3 PUSH2 0x1BE CALLDATASIZE PUSH1 0x4 PUSH2 0x1785 JUMP JUMPDEST PUSH2 0x4BA JUMP JUMPDEST PUSH1 0x40 MLOAD PUSH2 0x121 SWAP2 SWAP1 PUSH2 0x188B JUMP JUMPDEST PUSH1 0x3 SLOAD PUSH1 0xFF AND PUSH2 0x13D JUMP JUMPDEST PUSH2 0x160 PUSH2 0x1E9 CALLDATASIZE PUSH1 0x4 PUSH2 0x189E JUMP JUMPDEST PUSH2 0x5E4 JUMP JUMPDEST PUSH2 0x160 PUSH2 0x1FC CALLDATASIZE PUSH1 0x4 PUSH2 0x1912 JUMP JUMPDEST PUSH2 0x5F4 JUMP JUMPDEST PUSH2 0x160 PUSH2 0x600 JUMP JUMPDEST PUSH2 0x160 PUSH2 0x217 CALLDATASIZE PUSH1 0x4 PUSH2 0x1967 JUMP JUMPDEST PUSH2 0x608 JUMP JUMPDEST PUSH2 0x13D PUSH2 0x22A CALLDATASIZE PUSH1 0x4 PUSH2 0x19A3 JUMP JUMPDEST PUSH1 0x1 PUSH1 0x1 PUSH1 0xA0 SHL SUB SWAP2 DUP3 AND PUSH1 0x0 SWAP1 DUP2 MSTORE PUSH1 0x1 PUSH1 0x20 SWAP1 DUP2 MSTORE PUSH1 0x40 DUP1 DUP4 KECCAK256 SWAP4 SWAP1 SWAP5 AND DUP3 MSTORE SWAP2 SWAP1 SWAP2 MSTORE KECCAK256 SLOAD PUSH1 0xFF AND SWAP1 JUMP JUMPDEST PUSH2 0x160 PUSH2 0x266 CALLDATASIZE PUSH1 0x4 PUSH2 0x19D6 JUMP JUMPDEST PUSH2 0x617 JUMP JUMPDEST PUSH2 0x160 PUSH2 0x279 CALLDATASIZE PUSH1 0x4 PUSH2 0x1A3B JUMP JUMPDEST PUSH2 0x69E JUMP JUMPDEST PUSH1 0x0 PUSH1 0x1 PUSH1 0x1 PUSH1 0xA0 SHL SUB DUP4 AND PUSH2 0x2EF JUMPI PUSH1 0x40 MLOAD PUSH3 0x461BCD PUSH1 0xE5 SHL DUP2 MSTORE PUSH1 0x20 PUSH1 0x4 DUP3 ADD MSTORE PUSH1 0x2B PUSH1 0x24 DUP3 ADD MSTORE PUSH32 0x455243313135353A2062616C616E636520717565727920666F7220746865207A PUSH1 0x44 DUP3 ADD MSTORE PUSH11 0x65726F2061646472657373 PUSH1 0xA8 SHL PUSH1 0x64 DUP3 ADD MSTORE PUSH1 0x84 ADD JUMPDEST PUSH1 0x40 MLOAD DUP1 SWAP2 SUB SWAP1 REVERT JUMPDEST POP PUSH1 0x0 SWAP1 DUP2 MSTORE PUSH1 0x20 DUP2 DUP2 MSTORE PUSH1 0x40 DUP1 DUP4 KECCAK256 PUSH1 0x1 PUSH1 0x1 PUSH1 0xA0 SHL SUB SWAP5 SWAP1 SWAP5 AND DUP4 MSTORE SWAP3 SWAP1 MSTORE KECCAK256 SLOAD SWAP1 JUMP JUMPDEST PUSH1 0x0 PUSH1 0x1 PUSH1 0x1 PUSH1 0xE0 SHL SUB NOT DUP3 AND PUSH4 0x6CDB3D13 PUSH1 0xE1 SHL EQ DUP1 PUSH2 0x346 JUMPI POP PUSH1 0x1 PUSH1 0x1 PUSH1 0xE0 SHL SUB NOT DUP3 AND PUSH4 0x3A24D07 PUSH1 0xE2 SHL EQ JUMPDEST DUP1 PUSH2 0x361 JUMPI POP PUSH4 0x1FFC9A7 PUSH1 0xE0 SHL PUSH1 0x1 PUSH1 0x1 PUSH1 0xE0 SHL SUB NOT DUP4 AND EQ JUMPDEST SWAP3 SWAP2 POP POP JUMP JUMPDEST PUSH2 0x370 DUP2 PUSH2 0x6A9 JUMP JUMPDEST POP JUMP JUMPDEST PUSH1 0x60 PUSH1 0x2 DUP1 SLOAD PUSH2 0x382 SWAP1 PUSH2 0x1A6E JUMP JUMPDEST DUP1 PUSH1 0x1F ADD PUSH1 0x20 DUP1 SWAP2 DIV MUL PUSH1 0x20 ADD PUSH1 0x40 MLOAD SWAP1 DUP2 ADD PUSH1 0x40 MSTORE DUP1 SWAP3 SWAP2 SWAP1 DUP2 DUP2 MSTORE PUSH1 0x20 ADD DUP3 DUP1 SLOAD PUSH2 0x3AE SWAP1 PUSH2 0x1A6E JUMP JUMPDEST DUP1 ISZERO PUSH2 0x3FB JUMPI DUP1 PUSH1 0x1F LT PUSH2 0x3D0 JUMPI PUSH2 0x100 DUP1 DUP4 SLOAD DIV MUL DUP4 MSTORE SWAP2 PUSH1 0x20 ADD SWAP2 PUSH2 0x3FB JUMP JUMPDEST DUP3 ADD SWAP2 SWAP1 PUSH1 0x0 MSTORE PUSH1 0x20 PUSH1 0x0 KECCAK256 SWAP1 JUMPDEST DUP2 SLOAD DUP2 MSTORE SWAP1 PUSH1 0x1 ADD SWAP1 PUSH1 0x20 ADD DUP1 DUP4 GT PUSH2 0x3DE JUMPI DUP3 SWAP1 SUB PUSH1 0x1F AND DUP3 ADD SWAP2 JUMPDEST POP POP POP POP POP SWAP1 POP SWAP2 SWAP1 POP JUMP JUMPDEST PUSH2 0x413 DUP5 DUP5 DUP5 DUP5 PUSH2 0x6BC JUMP JUMPDEST POP POP POP POP JUMP JUMPDEST PUSH1 0x1 PUSH1 0x1 PUSH1 0xA0 SHL SUB DUP6 AND CALLER EQ DUP1 PUSH2 0x435 JUMPI POP PUSH2 0x435 DUP6 CALLER PUSH2 0x22A JUMP JUMPDEST PUSH2 0x49C JUMPI PUSH1 0x40 MLOAD PUSH3 0x461BCD PUSH1 0xE5 SHL DUP2 MSTORE PUSH1 0x20 PUSH1 0x4 DUP3 ADD MSTORE PUSH1 0x32 PUSH1 0x24 DUP3 ADD MSTORE PUSH32 0x455243313135353A207472616E736665722063616C6C6572206973206E6F7420 PUSH1 0x44 DUP3 ADD MSTORE PUSH18 0x1BDDDB995C881B9BDC88185C1C1C9BDD9959 PUSH1 0x72 SHL PUSH1 0x64 DUP3 ADD MSTORE PUSH1 0x84 ADD PUSH2 0x2E6 JUMP JUMPDEST PUSH2 0x4A9 DUP6 DUP6 DUP6 DUP6 DUP6 PUSH2 0x816 JUMP JUMPDEST POP POP POP POP POP JUMP JUMPDEST PUSH2 0x4B8 PUSH2 0x9C0 JUMP JUMPDEST JUMP JUMPDEST PUSH1 0x60 DUP2 MLOAD DUP4 MLOAD EQ PUSH2 0x51F JUMPI PUSH1 0x40 MLOAD PUSH3 0x461BCD PUSH1 0xE5 SHL DUP2 MSTORE PUSH1 0x20 PUSH1 0x4 DUP3 ADD MSTORE PUSH1 0x29 PUSH1 0x24 DUP3 ADD MSTORE PUSH32 0x455243313135353A206163636F756E747320616E6420696473206C656E677468 PUSH1 0x44 DUP3 ADD MSTORE PUSH9 0x40DAD2E6DAC2E8C6D PUSH1 0xBB SHL PUSH1 0x64 DUP3 ADD MSTORE PUSH1 0x84 ADD PUSH2 0x2E6 JUMP JUMPDEST PUSH1 0x0 DUP4 MLOAD PUSH8 0xFFFFFFFFFFFFFFFF DUP2 GT ISZERO PUSH2 0x53B JUMPI PUSH2 0x53B PUSH2 0x1422 JUMP JUMPDEST PUSH1 0x40 MLOAD SWAP1 DUP1 DUP3 MSTORE DUP1 PUSH1 0x20 MUL PUSH1 0x20 ADD DUP3 ADD PUSH1 0x40 MSTORE DUP1 ISZERO PUSH2 0x564 JUMPI DUP2 PUSH1 0x20 ADD PUSH1 0x20 DUP3 MUL DUP1 CALLDATASIZE DUP4 CALLDATACOPY ADD SWAP1 POP JUMPDEST POP SWAP1 POP PUSH1 0x0 JUMPDEST DUP5 MLOAD DUP2 LT ISZERO PUSH2 0x5DC JUMPI PUSH2 0x5AF DUP6 DUP3 DUP2 MLOAD DUP2 LT PUSH2 0x588 JUMPI PUSH2 0x588 PUSH2 0x1AA9 JUMP JUMPDEST PUSH1 0x20 MUL PUSH1 0x20 ADD ADD MLOAD DUP6 DUP4 DUP2 MLOAD DUP2 LT PUSH2 0x5A2 JUMPI PUSH2 0x5A2 PUSH2 0x1AA9 JUMP JUMPDEST PUSH1 0x20 MUL PUSH1 0x20 ADD ADD MLOAD PUSH2 0x27E JUMP JUMPDEST DUP3 DUP3 DUP2 MLOAD DUP2 LT PUSH2 0x5C1 JUMPI PUSH2 0x5C1 PUSH2 0x1AA9 JUMP JUMPDEST PUSH1 0x20 SWAP1 DUP2 MUL SWAP2 SWAP1 SWAP2 ADD ADD MSTORE PUSH2 0x5D5 DUP2 PUSH2 0x1AD5 JUMP JUMPDEST SWAP1 POP PUSH2 0x56A JUMP JUMPDEST POP SWAP4 SWAP3 POP POP POP JUMP JUMPDEST PUSH2 0x5EF DUP4 DUP4 DUP4 PUSH2 0xA53 JUMP JUMPDEST POP POP POP JUMP JUMPDEST PUSH2 0x413 DUP5 DUP5 DUP5 DUP5 PUSH2 0xBE1 JUMP JUMPDEST PUSH2 0x4B8 PUSH2 0xCB7 JUMP JUMPDEST PUSH2 0x613 CALLER DUP4 DUP4 PUSH2 0xD32 JUMP JUMPDEST POP POP JUMP JUMPDEST PUSH1 0x1 PUSH1 0x1 PUSH1 0xA0 SHL SUB DUP6 AND CALLER EQ DUP1 PUSH2 0x633 JUMPI POP PUSH2 0x633 DUP6 CALLER PUSH2 0x22A JUMP JUMPDEST PUSH2 0x691 JUMPI PUSH1 0x40 MLOAD PUSH3 0x461BCD PUSH1 0xE5 SHL DUP2 MSTORE PUSH1 0x20 PUSH1 0x4 DUP3 ADD MSTORE PUSH1 0x29 PUSH1 0x24 DUP3 ADD MSTORE PUSH32 0x455243313135353A2063616C6C6572206973206E6F74206F776E6572206E6F72 PUSH1 0x44 DUP3 ADD MSTORE PUSH9 0x8185C1C1C9BDD9959 PUSH1 0xBA SHL PUSH1 0x64 DUP3 ADD MSTORE PUSH1 0x84 ADD PUSH2 0x2E6 JUMP JUMPDEST PUSH2 0x4A9 DUP6 DUP6 DUP6 DUP6 DUP6 PUSH2 0xE13 JUMP JUMPDEST PUSH2 0x5EF DUP4 DUP4 DUP4 PUSH2 0xF30 JUMP JUMPDEST DUP1 MLOAD PUSH2 0x613 SWAP1 PUSH1 0x2 SWAP1 PUSH1 0x20 DUP5 ADD SWAP1 PUSH2 0x1309 JUMP JUMPDEST PUSH1 0x1 PUSH1 0x1 PUSH1 0xA0 SHL SUB DUP5 AND PUSH2 0x6E2 JUMPI PUSH1 0x40 MLOAD PUSH3 0x461BCD PUSH1 0xE5 SHL DUP2 MSTORE PUSH1 0x4 ADD PUSH2 0x2E6 SWAP1 PUSH2 0x1AF0 JUMP JUMPDEST DUP2 MLOAD DUP4 MLOAD EQ PUSH2 0x703 JUMPI PUSH1 0x40 MLOAD PUSH3 0x461BCD PUSH1 0xE5 SHL DUP2 MSTORE PUSH1 0x4 ADD PUSH2 0x2E6 SWAP1 PUSH2 0x1B31 JUMP JUMPDEST CALLER PUSH2 0x713 DUP2 PUSH1 0x0 DUP8 DUP8 DUP8 DUP8 PUSH2 0x1031 JUMP JUMPDEST PUSH1 0x0 JUMPDEST DUP5 MLOAD DUP2 LT ISZERO PUSH2 0x7AE JUMPI DUP4 DUP2 DUP2 MLOAD DUP2 LT PUSH2 0x731 JUMPI PUSH2 0x731 PUSH2 0x1AA9 JUMP JUMPDEST PUSH1 0x20 MUL PUSH1 0x20 ADD ADD MLOAD PUSH1 0x0 DUP1 DUP8 DUP5 DUP2 MLOAD DUP2 LT PUSH2 0x74E JUMPI PUSH2 0x74E PUSH2 0x1AA9 JUMP JUMPDEST PUSH1 0x20 MUL PUSH1 0x20 ADD ADD MLOAD DUP2 MSTORE PUSH1 0x20 ADD SWAP1 DUP2 MSTORE PUSH1 0x20 ADD PUSH1 0x0 KECCAK256 PUSH1 0x0 DUP9 PUSH1 0x1 PUSH1 0x1 PUSH1 0xA0 SHL SUB AND PUSH1 0x1 PUSH1 0x1 PUSH1 0xA0 SHL SUB AND DUP2 MSTORE PUSH1 0x20 ADD SWAP1 DUP2 MSTORE PUSH1 0x20 ADD PUSH1 0x0 KECCAK256 PUSH1 0x0 DUP3 DUP3 SLOAD PUSH2 0x796 SWAP2 SWAP1 PUSH2 0x1B79 JUMP JUMPDEST SWAP1 SWAP2 SSTORE POP DUP2 SWAP1 POP PUSH2 0x7A6 DUP2 PUSH2 0x1AD5 JUMP JUMPDEST SWAP2 POP POP PUSH2 0x716 JUMP JUMPDEST POP DUP5 PUSH1 0x1 PUSH1 0x1 PUSH1 0xA0 SHL SUB AND PUSH1 0x0 PUSH1 0x1 PUSH1 0x1 PUSH1 0xA0 SHL SUB AND DUP3 PUSH1 0x1 PUSH1 0x1 PUSH1 0xA0 SHL SUB AND PUSH32 0x4A39DC06D4C0DBC64B70AF90FD698A233A518AA5D07E595D983B8C0526C8F7FB DUP8 DUP8 PUSH1 0x40 MLOAD PUSH2 0x7FF SWAP3 SWAP2 SWAP1 PUSH2 0x1B91 JUMP JUMPDEST PUSH1 0x40 MLOAD DUP1 SWAP2 SUB SWAP1 LOG4 PUSH2 0x4A9 DUP2 PUSH1 0x0 DUP8 DUP8 DUP8 DUP8 PUSH2 0x103F JUMP JUMPDEST DUP2 MLOAD DUP4 MLOAD EQ PUSH2 0x837 JUMPI PUSH1 0x40 MLOAD PUSH3 0x461BCD PUSH1 0xE5 SHL DUP2 MSTORE PUSH1 0x4 ADD PUSH2 0x2E6 SWAP1 PUSH2 0x1B31 JUMP JUMPDEST PUSH1 0x1 PUSH1 0x1 PUSH1 0xA0 SHL SUB DUP5 AND PUSH2 0x85D JUMPI PUSH1 0x40 MLOAD PUSH3 0x461BCD PUSH1 0xE5 SHL DUP2 MSTORE PUSH1 0x4 ADD PUSH2 0x2E6 SWAP1 PUSH2 0x1BBF JUMP JUMPDEST CALLER PUSH2 0x86C DUP2 DUP8 DUP8 DUP8 DUP8 DUP8 PUSH2 0x1031 JUMP JUMPDEST PUSH1 0x0 JUMPDEST DUP5 MLOAD DUP2 LT ISZERO PUSH2 0x952 JUMPI PUSH1 0x0 DUP6 DUP3 DUP2 MLOAD DUP2 LT PUSH2 0x88C JUMPI PUSH2 0x88C PUSH2 0x1AA9 JUMP JUMPDEST PUSH1 0x20 MUL PUSH1 0x20 ADD ADD MLOAD SWAP1 POP PUSH1 0x0 DUP6 DUP4 DUP2 MLOAD DUP2 LT PUSH2 0x8AA JUMPI PUSH2 0x8AA PUSH2 0x1AA9 JUMP JUMPDEST PUSH1 0x20 SWAP1 DUP2 MUL SWAP2 SWAP1 SWAP2 ADD DUP2 ADD MLOAD PUSH1 0x0 DUP5 DUP2 MSTORE DUP1 DUP4 MSTORE PUSH1 0x40 DUP1 DUP3 KECCAK256 PUSH1 0x1 PUSH1 0x1 PUSH1 0xA0 SHL SUB DUP15 AND DUP4 MSTORE SWAP1 SWAP4 MSTORE SWAP2 SWAP1 SWAP2 KECCAK256 SLOAD SWAP1 SWAP2 POP DUP2 DUP2 LT ISZERO PUSH2 0x8FA JUMPI PUSH1 0x40 MLOAD PUSH3 0x461BCD PUSH1 0xE5 SHL DUP2 MSTORE PUSH1 0x4 ADD PUSH2 0x2E6 SWAP1 PUSH2 0x1C04 JUMP JUMPDEST PUSH1 0x0 DUP4 DUP2 MSTORE PUSH1 0x20 DUP2 DUP2 MSTORE PUSH1 0x40 DUP1 DUP4 KECCAK256 PUSH1 0x1 PUSH1 0x1 PUSH1 0xA0 SHL SUB DUP15 DUP2 AND DUP6 MSTORE SWAP3 MSTORE DUP1 DUP4 KECCAK256 DUP6 DUP6 SUB SWAP1 SSTORE SWAP1 DUP12 AND DUP3 MSTORE DUP2 KECCAK256 DUP1 SLOAD DUP5 SWAP3 SWAP1 PUSH2 0x937 SWAP1 DUP5 SWAP1 PUSH2 0x1B79 JUMP JUMPDEST SWAP3 POP POP DUP2 SWAP1 SSTORE POP POP POP POP DUP1 PUSH2 0x94B SWAP1 PUSH2 0x1AD5 JUMP JUMPDEST SWAP1 POP PUSH2 0x86F JUMP JUMPDEST POP DUP5 PUSH1 0x1 PUSH1 0x1 PUSH1 0xA0 SHL SUB AND DUP7 PUSH1 0x1 PUSH1 0x1 PUSH1 0xA0 SHL SUB AND DUP3 PUSH1 0x1 PUSH1 0x1 PUSH1 0xA0 SHL SUB AND PUSH32 0x4A39DC06D4C0DBC64B70AF90FD698A233A518AA5D07E595D983B8C0526C8F7FB DUP8 DUP8 PUSH1 0x40 MLOAD PUSH2 0x9A2 SWAP3 SWAP2 SWAP1 PUSH2 0x1B91 JUMP JUMPDEST PUSH1 0x40 MLOAD DUP1 SWAP2 SUB SWAP1 LOG4 PUSH2 0x9B8 DUP2 DUP8 DUP8 DUP8 DUP8 DUP8 PUSH2 0x103F JUMP JUMPDEST POP POP POP POP POP POP JUMP JUMPDEST PUSH1 0x3 SLOAD PUSH1 0xFF AND PUSH2 0xA09 JUMPI PUSH1 0x40 MLOAD PUSH3 0x461BCD PUSH1 0xE5 SHL DUP2 MSTORE PUSH1 0x20 PUSH1 0x4 DUP3 ADD MSTORE PUSH1 0x14 PUSH1 0x24 DUP3 ADD MSTORE PUSH20 0x14185D5CD8589B194E881B9BDD081C185D5CD959 PUSH1 0x62 SHL PUSH1 0x44 DUP3 ADD MSTORE PUSH1 0x64 ADD PUSH2 0x2E6 JUMP JUMPDEST PUSH1 0x3 DUP1 SLOAD PUSH1 0xFF NOT AND SWAP1 SSTORE PUSH32 0x5DB9EE0A495BF2E6FF9C91A7834C1BA4FDD244A5E8AA4E537BD38AEAE4B073AA CALLER JUMPDEST PUSH1 0x40 MLOAD PUSH1 0x1 PUSH1 0x1 PUSH1 0xA0 SHL SUB SWAP1 SWAP2 AND DUP2 MSTORE PUSH1 0x20 ADD PUSH1 0x40 MLOAD DUP1 SWAP2 SUB SWAP1 LOG1 JUMP JUMPDEST PUSH1 0x1 PUSH1 0x1 PUSH1 0xA0 SHL SUB DUP4 AND PUSH2 0xA79 JUMPI PUSH1 0x40 MLOAD PUSH3 0x461BCD PUSH1 0xE5 SHL DUP2 MSTORE PUSH1 0x4 ADD PUSH2 0x2E6 SWAP1 PUSH2 0x1C4E JUMP JUMPDEST DUP1 MLOAD DUP3 MLOAD EQ PUSH2 0xA9A JUMPI PUSH1 0x40 MLOAD PUSH3 0x461BCD PUSH1 0xE5 SHL DUP2 MSTORE PUSH1 0x4 ADD PUSH2 0x2E6 SWAP1 PUSH2 0x1B31 JUMP JUMPDEST PUSH1 0x0 CALLER SWAP1 POP PUSH2 0xABD DUP2 DUP6 PUSH1 0x0 DUP7 DUP7 PUSH1 0x40 MLOAD DUP1 PUSH1 0x20 ADD PUSH1 0x40 MSTORE DUP1 PUSH1 0x0 DUP2 MSTORE POP PUSH2 0x1031 JUMP JUMPDEST PUSH1 0x0 JUMPDEST DUP4 MLOAD DUP2 LT ISZERO PUSH2 0xB82 JUMPI PUSH1 0x0 DUP5 DUP3 DUP2 MLOAD DUP2 LT PUSH2 0xADD JUMPI PUSH2 0xADD PUSH2 0x1AA9 JUMP JUMPDEST PUSH1 0x20 MUL PUSH1 0x20 ADD ADD MLOAD SWAP1 POP PUSH1 0x0 DUP5 DUP4 DUP2 MLOAD DUP2 LT PUSH2 0xAFB JUMPI PUSH2 0xAFB PUSH2 0x1AA9 JUMP JUMPDEST PUSH1 0x20 SWAP1 DUP2 MUL SWAP2 SWAP1 SWAP2 ADD DUP2 ADD MLOAD PUSH1 0x0 DUP5 DUP2 MSTORE DUP1 DUP4 MSTORE PUSH1 0x40 DUP1 DUP3 KECCAK256 PUSH1 0x1 PUSH1 0x1 PUSH1 0xA0 SHL SUB DUP13 AND DUP4 MSTORE SWAP1 SWAP4 MSTORE SWAP2 SWAP1 SWAP2 KECCAK256 SLOAD SWAP1 SWAP2 POP DUP2 DUP2 LT ISZERO PUSH2 0xB4B JUMPI PUSH1 0x40 MLOAD PUSH3 0x461BCD PUSH1 0xE5 SHL DUP2 MSTORE PUSH1 0x4 ADD PUSH2 0x2E6 SWAP1 PUSH2 0x1C91 JUMP JUMPDEST PUSH1 0x0 SWAP3 DUP4 MSTORE PUSH1 0x20 DUP4 DUP2 MSTORE PUSH1 0x40 DUP1 DUP6 KECCAK256 PUSH1 0x1 PUSH1 0x1 PUSH1 0xA0 SHL SUB DUP12 AND DUP7 MSTORE SWAP1 SWAP2 MSTORE SWAP1 SWAP3 KECCAK256 SWAP2 SUB SWAP1 SSTORE DUP1 PUSH2 0xB7A DUP2 PUSH2 0x1AD5 JUMP JUMPDEST SWAP2 POP POP PUSH2 0xAC0 JUMP JUMPDEST POP PUSH1 0x0 PUSH1 0x1 PUSH1 0x1 PUSH1 0xA0 SHL SUB AND DUP5 PUSH1 0x1 PUSH1 0x1 PUSH1 0xA0 SHL SUB AND DUP3 PUSH1 0x1 PUSH1 0x1 PUSH1 0xA0 SHL SUB AND PUSH32 0x4A39DC06D4C0DBC64B70AF90FD698A233A518AA5D07E595D983B8C0526C8F7FB DUP7 DUP7 PUSH1 0x40 MLOAD PUSH2 0xBD3 SWAP3 SWAP2 SWAP1 PUSH2 0x1B91 JUMP JUMPDEST PUSH1 0x40 MLOAD DUP1 SWAP2 SUB SWAP1 LOG4 POP POP POP POP JUMP JUMPDEST PUSH1 0x1 PUSH1 0x1 PUSH1 0xA0 SHL SUB DUP5 AND PUSH2 0xC07 JUMPI PUSH1 0x40 MLOAD PUSH3 0x461BCD PUSH1 0xE5 SHL DUP2 MSTORE PUSH1 0x4 ADD PUSH2 0x2E6 SWAP1 PUSH2 0x1AF0 JUMP JUMPDEST CALLER PUSH2 0xC27 DUP2 PUSH1 0x0 DUP8 PUSH2 0xC18 DUP9 PUSH2 0x119B JUMP JUMPDEST PUSH2 0xC21 DUP9 PUSH2 0x119B JUMP JUMPDEST DUP8 PUSH2 0x1031 JUMP JUMPDEST PUSH1 0x0 DUP5 DUP2 MSTORE PUSH1 0x20 DUP2 DUP2 MSTORE PUSH1 0x40 DUP1 DUP4 KECCAK256 PUSH1 0x1 PUSH1 0x1 PUSH1 0xA0 SHL SUB DUP10 AND DUP5 MSTORE SWAP1 SWAP2 MSTORE DUP2 KECCAK256 DUP1 SLOAD DUP6 SWAP3 SWAP1 PUSH2 0xC57 SWAP1 DUP5 SWAP1 PUSH2 0x1B79 JUMP JUMPDEST SWAP1 SWAP2 SSTORE POP POP PUSH1 0x40 DUP1 MLOAD DUP6 DUP2 MSTORE PUSH1 0x20 DUP2 ADD DUP6 SWAP1 MSTORE PUSH1 0x1 PUSH1 0x1 PUSH1 0xA0 SHL SUB DUP1 DUP9 AND SWAP3 PUSH1 0x0 SWAP3 SWAP2 DUP6 AND SWAP2 PUSH32 0xC3D58168C5AE7397731D063D5BBF3D657854427343F4C083240F7AACAA2D0F62 SWAP2 ADD PUSH1 0x40 MLOAD DUP1 SWAP2 SUB SWAP1 LOG4 PUSH2 0x4A9 DUP2 PUSH1 0x0 DUP8 DUP8 DUP8 DUP8 PUSH2 0x11E6 JUMP JUMPDEST PUSH1 0x3 SLOAD PUSH1 0xFF AND ISZERO PUSH2 0xCFD JUMPI PUSH1 0x40 MLOAD PUSH3 0x461BCD PUSH1 0xE5 SHL DUP2 MSTORE PUSH1 0x20 PUSH1 0x4 DUP3 ADD MSTORE PUSH1 0x10 PUSH1 0x24 DUP3 ADD MSTORE PUSH16 0x14185D5CD8589B194E881C185D5CD959 PUSH1 0x82 SHL PUSH1 0x44 DUP3 ADD MSTORE PUSH1 0x64 ADD PUSH2 0x2E6 JUMP JUMPDEST PUSH1 0x3 DUP1 SLOAD PUSH1 0xFF NOT AND PUSH1 0x1 OR SWAP1 SSTORE PUSH32 0x62E78CEA01BEE320CD4E420270B5EA74000D11B0C9F74754EBDBFC544B05A258 PUSH2 0xA36 CALLER SWAP1 JUMP JUMPDEST DUP2 PUSH1 0x1 PUSH1 0x1 PUSH1 0xA0 SHL SUB AND DUP4 PUSH1 0x1 PUSH1 0x1 PUSH1 0xA0 SHL SUB AND EQ ISZERO PUSH2 0xDA6 JUMPI PUSH1 0x40 MLOAD PUSH3 0x461BCD PUSH1 0xE5 SHL DUP2 MSTORE PUSH1 0x20 PUSH1 0x4 DUP3 ADD MSTORE PUSH1 0x29 PUSH1 0x24 DUP3 ADD MSTORE PUSH32 0x455243313135353A2073657474696E6720617070726F76616C20737461747573 PUSH1 0x44 DUP3 ADD MSTORE PUSH9 0x103337B91039B2B633 PUSH1 0xB9 SHL PUSH1 0x64 DUP3 ADD MSTORE PUSH1 0x84 ADD PUSH2 0x2E6 JUMP JUMPDEST PUSH1 0x1 PUSH1 0x1 PUSH1 0xA0 SHL SUB DUP4 DUP2 AND PUSH1 0x0 DUP2 DUP2 MSTORE PUSH1 0x1 PUSH1 0x20 SWAP1 DUP2 MSTORE PUSH1 0x40 DUP1 DUP4 KECCAK256 SWAP5 DUP8 AND DUP1 DUP5 MSTORE SWAP5 DUP3 MSTORE SWAP2 DUP3 SWAP1 KECCAK256 DUP1 SLOAD PUSH1 0xFF NOT AND DUP7 ISZERO ISZERO SWAP1 DUP2 OR SWAP1 SWAP2 SSTORE SWAP2 MLOAD SWAP2 DUP3 MSTORE PUSH32 0x17307EAB39AB6107E8899845AD3D59BD9653F200F220920489CA2B5937696C31 SWAP2 ADD PUSH1 0x40 MLOAD DUP1 SWAP2 SUB SWAP1 LOG3 POP POP POP JUMP JUMPDEST PUSH1 0x1 PUSH1 0x1 PUSH1 0xA0 SHL SUB DUP5 AND PUSH2 0xE39 JUMPI PUSH1 0x40 MLOAD PUSH3 0x461BCD PUSH1 0xE5 SHL DUP2 MSTORE PUSH1 0x4 ADD PUSH2 0x2E6 SWAP1 PUSH2 0x1BBF JUMP JUMPDEST CALLER PUSH2 0xE49 DUP2 DUP8 DUP8 PUSH2 0xC18 DUP9 PUSH2 0x119B JUMP JUMPDEST PUSH1 0x0 DUP5 DUP2 MSTORE PUSH1 0x20 DUP2 DUP2 MSTORE PUSH1 0x40 DUP1 DUP4 KECCAK256 PUSH1 0x1 PUSH1 0x1 PUSH1 0xA0 SHL SUB DUP11 AND DUP5 MSTORE SWAP1 SWAP2 MSTORE SWAP1 KECCAK256 SLOAD DUP4 DUP2 LT ISZERO PUSH2 0xE8A JUMPI PUSH1 0x40 MLOAD PUSH3 0x461BCD PUSH1 0xE5 SHL DUP2 MSTORE PUSH1 0x4 ADD PUSH2 0x2E6 SWAP1 PUSH2 0x1C04 JUMP JUMPDEST PUSH1 0x0 DUP6 DUP2 MSTORE PUSH1 0x20 DUP2 DUP2 MSTORE PUSH1 0x40 DUP1 DUP4 KECCAK256 PUSH1 0x1 PUSH1 0x1 PUSH1 0xA0 SHL SUB DUP12 DUP2 AND DUP6 MSTORE SWAP3 MSTORE DUP1 DUP4 KECCAK256 DUP8 DUP6 SUB SWAP1 SSTORE SWAP1 DUP9 AND DUP3 MSTORE DUP2 KECCAK256 DUP1 SLOAD DUP7 SWAP3 SWAP1 PUSH2 0xEC7 SWAP1 DUP5 SWAP1 PUSH2 0x1B79 JUMP JUMPDEST SWAP1 SWAP2 SSTORE POP POP PUSH1 0x40 DUP1 MLOAD DUP7 DUP2 MSTORE PUSH1 0x20 DUP2 ADD DUP7 SWAP1 MSTORE PUSH1 0x1 PUSH1 0x1 PUSH1 0xA0 SHL SUB DUP1 DUP10 AND SWAP3 DUP11 DUP3 AND SWAP3 SWAP2 DUP7 AND SWAP2 PUSH32 0xC3D58168C5AE7397731D063D5BBF3D657854427343F4C083240F7AACAA2D0F62 SWAP2 ADD PUSH1 0x40 MLOAD DUP1 SWAP2 SUB SWAP1 LOG4 PUSH2 0xF27 DUP3 DUP9 DUP9 DUP9 DUP9 DUP9 PUSH2 0x11E6 JUMP JUMPDEST POP POP POP POP POP POP POP JUMP JUMPDEST PUSH1 0x1 PUSH1 0x1 PUSH1 0xA0 SHL SUB DUP4 AND PUSH2 0xF56 JUMPI PUSH1 0x40 MLOAD PUSH3 0x461BCD PUSH1 0xE5 SHL DUP2 MSTORE PUSH1 0x4 ADD PUSH2 0x2E6 SWAP1 PUSH2 0x1C4E JUMP JUMPDEST CALLER PUSH2 0xF85 DUP2 DUP6 PUSH1 0x0 PUSH2 0xF67 DUP8 PUSH2 0x119B JUMP JUMPDEST PUSH2 0xF70 DUP8 PUSH2 0x119B JUMP JUMPDEST PUSH1 0x40 MLOAD DUP1 PUSH1 0x20 ADD PUSH1 0x40 MSTORE DUP1 PUSH1 0x0 DUP2 MSTORE POP PUSH2 0x1031 JUMP JUMPDEST PUSH1 0x0 DUP4 DUP2 MSTORE PUSH1 0x20 DUP2 DUP2 MSTORE PUSH1 0x40 DUP1 DUP4 KECCAK256 PUSH1 0x1 PUSH1 0x1 PUSH1 0xA0 SHL SUB DUP9 AND DUP5 MSTORE SWAP1 SWAP2 MSTORE SWAP1 KECCAK256 SLOAD DUP3 DUP2 LT ISZERO PUSH2 0xFC6 JUMPI PUSH1 0x40 MLOAD PUSH3 0x461BCD PUSH1 0xE5 SHL DUP2 MSTORE PUSH1 0x4 ADD PUSH2 0x2E6 SWAP1 PUSH2 0x1C91 JUMP JUMPDEST PUSH1 0x0 DUP5 DUP2 MSTORE PUSH1 0x20 DUP2 DUP2 MSTORE PUSH1 0x40 DUP1 DUP4 KECCAK256 PUSH1 0x1 PUSH1 0x1 PUSH1 0xA0 SHL SUB DUP10 DUP2 AND DUP1 DUP7 MSTORE SWAP2 DUP5 MSTORE DUP3 DUP6 KECCAK256 DUP9 DUP8 SUB SWAP1 SSTORE DUP3 MLOAD DUP10 DUP2 MSTORE SWAP4 DUP5 ADD DUP9 SWAP1 MSTORE SWAP1 SWAP3 SWAP1 DUP7 AND SWAP2 PUSH32 0xC3D58168C5AE7397731D063D5BBF3D657854427343F4C083240F7AACAA2D0F62 SWAP2 ADD PUSH1 0x40 MLOAD DUP1 SWAP2 SUB SWAP1 LOG4 POP POP POP POP POP JUMP JUMPDEST PUSH2 0x9B8 DUP7 DUP7 DUP7 DUP7 DUP7 DUP7 PUSH2 0x12A1 JUMP JUMPDEST PUSH1 0x1 PUSH1 0x1 PUSH1 0xA0 SHL SUB DUP5 AND EXTCODESIZE ISZERO PUSH2 0x9B8 JUMPI PUSH1 0x40 MLOAD PUSH4 0xBC197C81 PUSH1 0xE0 SHL DUP2 MSTORE PUSH1 0x1 PUSH1 0x1 PUSH1 0xA0 SHL SUB DUP6 AND SWAP1 PUSH4 0xBC197C81 SWAP1 PUSH2 0x1083 SWAP1 DUP10 SWAP1 DUP10 SWAP1 DUP9 SWAP1 DUP9 SWAP1 DUP9 SWAP1 PUSH1 0x4 ADD PUSH2 0x1CD5 JUMP JUMPDEST PUSH1 0x20 PUSH1 0x40 MLOAD DUP1 DUP4 SUB DUP2 PUSH1 0x0 DUP8 GAS CALL SWAP3 POP POP POP DUP1 ISZERO PUSH2 0x10BE JUMPI POP PUSH1 0x40 DUP1 MLOAD PUSH1 0x1F RETURNDATASIZE SWAP1 DUP2 ADD PUSH1 0x1F NOT AND DUP3 ADD SWAP1 SWAP3 MSTORE PUSH2 0x10BB SWAP2 DUP2 ADD SWAP1 PUSH2 0x1D33 JUMP JUMPDEST PUSH1 0x1 JUMPDEST PUSH2 0x116B JUMPI PUSH2 0x10CA PUSH2 0x1D50 JUMP JUMPDEST DUP1 PUSH4 0x8C379A0 EQ ISZERO PUSH2 0x1104 JUMPI POP PUSH2 0x10DF PUSH2 0x1D6C JUMP JUMPDEST DUP1 PUSH2 0x10EA JUMPI POP PUSH2 0x1106 JUMP JUMPDEST DUP1 PUSH1 0x40 MLOAD PUSH3 0x461BCD PUSH1 0xE5 SHL DUP2 MSTORE PUSH1 0x4 ADD PUSH2 0x2E6 SWAP2 SWAP1 PUSH2 0x157A JUMP JUMPDEST POP JUMPDEST PUSH1 0x40 MLOAD PUSH3 0x461BCD PUSH1 0xE5 SHL DUP2 MSTORE PUSH1 0x20 PUSH1 0x4 DUP3 ADD MSTORE PUSH1 0x34 PUSH1 0x24 DUP3 ADD MSTORE PUSH32 0x455243313135353A207472616E7366657220746F206E6F6E2045524331313535 PUSH1 0x44 DUP3 ADD MSTORE PUSH20 0x2932B1B2B4BB32B91034B6B83632B6B2B73A32B9 PUSH1 0x61 SHL PUSH1 0x64 DUP3 ADD MSTORE PUSH1 0x84 ADD PUSH2 0x2E6 JUMP JUMPDEST PUSH1 0x1 PUSH1 0x1 PUSH1 0xE0 SHL SUB NOT DUP2 AND PUSH4 0xBC197C81 PUSH1 0xE0 SHL EQ PUSH2 0xF27 JUMPI PUSH1 0x40 MLOAD PUSH3 0x461BCD PUSH1 0xE5 SHL DUP2 MSTORE PUSH1 0x4 ADD PUSH2 0x2E6 SWAP1 PUSH2 0x1DF6 JUMP JUMPDEST PUSH1 0x40 DUP1 MLOAD PUSH1 0x1 DUP1 DUP3 MSTORE DUP2 DUP4 ADD SWAP1 SWAP3 MSTORE PUSH1 0x60 SWAP2 PUSH1 0x0 SWAP2 SWAP1 PUSH1 0x20 DUP1 DUP4 ADD SWAP1 DUP1 CALLDATASIZE DUP4 CALLDATACOPY ADD SWAP1 POP POP SWAP1 POP DUP3 DUP2 PUSH1 0x0 DUP2 MLOAD DUP2 LT PUSH2 0x11D5 JUMPI PUSH2 0x11D5 PUSH2 0x1AA9 JUMP JUMPDEST PUSH1 0x20 SWAP1 DUP2 MUL SWAP2 SWAP1 SWAP2 ADD ADD MSTORE SWAP3 SWAP2 POP POP JUMP JUMPDEST PUSH1 0x1 PUSH1 0x1 PUSH1 0xA0 SHL SUB DUP5 AND EXTCODESIZE ISZERO PUSH2 0x9B8 JUMPI PUSH1 0x40 MLOAD PUSH4 0xF23A6E61 PUSH1 0xE0 SHL DUP2 MSTORE PUSH1 0x1 PUSH1 0x1 PUSH1 0xA0 SHL SUB DUP6 AND SWAP1 PUSH4 0xF23A6E61 SWAP1 PUSH2 0x122A SWAP1 DUP10 SWAP1 DUP10 SWAP1 DUP9 SWAP1 DUP9 SWAP1 DUP9 SWAP1 PUSH1 0x4 ADD PUSH2 0x1E3E JUMP JUMPDEST PUSH1 0x20 PUSH1 0x40 MLOAD DUP1 DUP4 SUB DUP2 PUSH1 0x0 DUP8 GAS CALL SWAP3 POP POP POP DUP1 ISZERO PUSH2 0x1265 JUMPI POP PUSH1 0x40 DUP1 MLOAD PUSH1 0x1F RETURNDATASIZE SWAP1 DUP2 ADD PUSH1 0x1F NOT AND DUP3 ADD SWAP1 SWAP3 MSTORE PUSH2 0x1262 SWAP2 DUP2 ADD SWAP1 PUSH2 0x1D33 JUMP JUMPDEST PUSH1 0x1 JUMPDEST PUSH2 0x1271 JUMPI PUSH2 0x10CA PUSH2 0x1D50 JUMP JUMPDEST PUSH1 0x1 PUSH1 0x1 PUSH1 0xE0 SHL SUB NOT DUP2 AND PUSH4 0xF23A6E61 PUSH1 0xE0 SHL EQ PUSH2 0xF27 JUMPI PUSH1 0x40 MLOAD PUSH3 0x461BCD PUSH1 0xE5 SHL DUP2 MSTORE PUSH1 0x4 ADD PUSH2 0x2E6 SWAP1 PUSH2 0x1DF6 JUMP JUMPDEST PUSH1 0x3 SLOAD PUSH1 0xFF AND ISZERO PUSH2 0x9B8 JUMPI PUSH1 0x40 MLOAD PUSH3 0x461BCD PUSH1 0xE5 SHL DUP2 MSTORE PUSH1 0x20 PUSH1 0x4 DUP3 ADD MSTORE PUSH1 0x2C PUSH1 0x24 DUP3 ADD MSTORE PUSH32 0x455243313135355061757361626C653A20746F6B656E207472616E7366657220 PUSH1 0x44 DUP3 ADD MSTORE PUSH12 0x1DDA1A5B19481C185D5CD959 PUSH1 0xA2 SHL PUSH1 0x64 DUP3 ADD MSTORE PUSH1 0x84 ADD PUSH2 0x2E6 JUMP JUMPDEST DUP3 DUP1 SLOAD PUSH2 0x1315 SWAP1 PUSH2 0x1A6E JUMP JUMPDEST SWAP1 PUSH1 0x0 MSTORE PUSH1 0x20 PUSH1 0x0 KECCAK256 SWAP1 PUSH1 0x1F ADD PUSH1 0x20 SWAP1 DIV DUP2 ADD SWAP3 DUP3 PUSH2 0x1337 JUMPI PUSH1 0x0 DUP6 SSTORE PUSH2 0x137D JUMP JUMPDEST DUP3 PUSH1 0x1F LT PUSH2 0x1350 JUMPI DUP1 MLOAD PUSH1 0xFF NOT AND DUP4 DUP1 ADD OR DUP6 SSTORE PUSH2 0x137D JUMP JUMPDEST DUP3 DUP1 ADD PUSH1 0x1 ADD DUP6 SSTORE DUP3 ISZERO PUSH2 0x137D JUMPI SWAP2 DUP3 ADD JUMPDEST DUP3 DUP2 GT ISZERO PUSH2 0x137D JUMPI DUP3 MLOAD DUP3 SSTORE SWAP2 PUSH1 0x20 ADD SWAP2 SWAP1 PUSH1 0x1 ADD SWAP1 PUSH2 0x1362 JUMP JUMPDEST POP PUSH2 0x1389 SWAP3 SWAP2 POP PUSH2 0x138D JUMP JUMPDEST POP SWAP1 JUMP JUMPDEST JUMPDEST DUP1 DUP3 GT ISZERO PUSH2 0x1389 JUMPI PUSH1 0x0 DUP2 SSTORE PUSH1 0x1 ADD PUSH2 0x138E JUMP JUMPDEST DUP1 CALLDATALOAD PUSH1 0x1 PUSH1 0x1 PUSH1 0xA0 SHL SUB DUP2 AND DUP2 EQ PUSH2 0x13B9 JUMPI PUSH1 0x0 DUP1 REVERT JUMPDEST SWAP2 SWAP1 POP JUMP JUMPDEST PUSH1 0x0 DUP1 PUSH1 0x40 DUP4 DUP6 SUB SLT ISZERO PUSH2 0x13D1 JUMPI PUSH1 0x0 DUP1 REVERT JUMPDEST PUSH2 0x13DA DUP4 PUSH2 0x13A2 JUMP JUMPDEST SWAP5 PUSH1 0x20 SWAP4 SWAP1 SWAP4 ADD CALLDATALOAD SWAP4 POP POP POP JUMP JUMPDEST PUSH1 0x1 PUSH1 0x1 PUSH1 0xE0 SHL SUB NOT DUP2 AND DUP2 EQ PUSH2 0x370 JUMPI PUSH1 0x0 DUP1 REVERT JUMPDEST PUSH1 0x0 PUSH1 0x20 DUP3 DUP5 SUB SLT ISZERO PUSH2 0x1410 JUMPI PUSH1 0x0 DUP1 REVERT JUMPDEST DUP2 CALLDATALOAD PUSH2 0x141B DUP2 PUSH2 0x13E8 JUMP JUMPDEST SWAP4 SWAP3 POP POP POP JUMP JUMPDEST PUSH4 0x4E487B71 PUSH1 0xE0 SHL PUSH1 0x0 MSTORE PUSH1 0x41 PUSH1 0x4 MSTORE PUSH1 0x24 PUSH1 0x0 REVERT JUMPDEST PUSH1 0x1F DUP3 ADD PUSH1 0x1F NOT AND DUP2 ADD PUSH8 0xFFFFFFFFFFFFFFFF DUP2 GT DUP3 DUP3 LT OR ISZERO PUSH2 0x145E JUMPI PUSH2 0x145E PUSH2 0x1422 JUMP JUMPDEST PUSH1 0x40 MSTORE POP POP JUMP JUMPDEST PUSH1 0x0 PUSH8 0xFFFFFFFFFFFFFFFF DUP4 GT ISZERO PUSH2 0x147F JUMPI PUSH2 0x147F PUSH2 0x1422 JUMP JUMPDEST PUSH1 0x40 MLOAD PUSH2 0x1496 PUSH1 0x1F DUP6 ADD PUSH1 0x1F NOT AND PUSH1 0x20 ADD DUP3 PUSH2 0x1438 JUMP JUMPDEST DUP1 SWAP2 POP DUP4 DUP2 MSTORE DUP5 DUP5 DUP5 ADD GT ISZERO PUSH2 0x14AB JUMPI PUSH1 0x0 DUP1 REVERT JUMPDEST DUP4 DUP4 PUSH1 0x20 DUP4 ADD CALLDATACOPY PUSH1 0x0 PUSH1 0x20 DUP6 DUP4 ADD ADD MSTORE POP SWAP4 SWAP3 POP POP POP JUMP JUMPDEST PUSH1 0x0 PUSH1 0x20 DUP3 DUP5 SUB SLT ISZERO PUSH2 0x14D5 JUMPI PUSH1 0x0 DUP1 REVERT JUMPDEST DUP2 CALLDATALOAD PUSH8 0xFFFFFFFFFFFFFFFF DUP2 GT ISZERO PUSH2 0x14EC JUMPI PUSH1 0x0 DUP1 REVERT JUMPDEST DUP3 ADD PUSH1 0x1F DUP2 ADD DUP5 SGT PUSH2 0x14FD JUMPI PUSH1 0x0 DUP1 REVERT JUMPDEST PUSH2 0x150C DUP5 DUP3 CALLDATALOAD PUSH1 0x20 DUP5 ADD PUSH2 0x1465 JUMP JUMPDEST SWAP5 SWAP4 POP POP POP POP JUMP JUMPDEST PUSH1 0x0 PUSH1 0x20 DUP3 DUP5 SUB SLT ISZERO PUSH2 0x1526 JUMPI PUSH1 0x0 DUP1 REVERT JUMPDEST POP CALLDATALOAD SWAP2 SWAP1 POP JUMP JUMPDEST PUSH1 0x0 DUP2 MLOAD DUP1 DUP5 MSTORE PUSH1 0x0 JUMPDEST DUP2 DUP2 LT ISZERO PUSH2 0x1553 JUMPI PUSH1 0x20 DUP2 DUP6 ADD DUP2 ADD MLOAD DUP7 DUP4 ADD DUP3 ADD MSTORE ADD PUSH2 0x1537 JUMP JUMPDEST DUP2 DUP2 GT ISZERO PUSH2 0x1565 JUMPI PUSH1 0x0 PUSH1 0x20 DUP4 DUP8 ADD ADD MSTORE JUMPDEST POP PUSH1 0x1F ADD PUSH1 0x1F NOT AND SWAP3 SWAP1 SWAP3 ADD PUSH1 0x20 ADD SWAP3 SWAP2 POP POP JUMP JUMPDEST PUSH1 0x20 DUP2 MSTORE PUSH1 0x0 PUSH2 0x141B PUSH1 0x20 DUP4 ADD DUP5 PUSH2 0x152D JUMP JUMPDEST PUSH1 0x0 PUSH8 0xFFFFFFFFFFFFFFFF DUP3 GT ISZERO PUSH2 0x15A7 JUMPI PUSH2 0x15A7 PUSH2 0x1422 JUMP JUMPDEST POP PUSH1 0x5 SHL PUSH1 0x20 ADD SWAP1 JUMP JUMPDEST PUSH1 0x0 DUP3 PUSH1 0x1F DUP4 ADD SLT PUSH2 0x15C2 JUMPI PUSH1 0x0 DUP1 REVERT JUMPDEST DUP2 CALLDATALOAD PUSH1 0x20 PUSH2 0x15CF DUP3 PUSH2 0x158D JUMP JUMPDEST PUSH1 0x40 MLOAD PUSH2 0x15DC DUP3 DUP3 PUSH2 0x1438 JUMP JUMPDEST DUP4 DUP2 MSTORE PUSH1 0x5 SWAP4 SWAP1 SWAP4 SHL DUP6 ADD DUP3 ADD SWAP3 DUP3 DUP2 ADD SWAP2 POP DUP7 DUP5 GT ISZERO PUSH2 0x15FC JUMPI PUSH1 0x0 DUP1 REVERT JUMPDEST DUP3 DUP7 ADD JUMPDEST DUP5 DUP2 LT ISZERO PUSH2 0x1617 JUMPI DUP1 CALLDATALOAD DUP4 MSTORE SWAP2 DUP4 ADD SWAP2 DUP4 ADD PUSH2 0x1600 JUMP JUMPDEST POP SWAP7 SWAP6 POP POP POP POP POP POP JUMP JUMPDEST PUSH1 0x0 DUP3 PUSH1 0x1F DUP4 ADD SLT PUSH2 0x1633 JUMPI PUSH1 0x0 DUP1 REVERT JUMPDEST PUSH2 0x141B DUP4 DUP4 CALLDATALOAD PUSH1 0x20 DUP6 ADD PUSH2 0x1465 JUMP JUMPDEST PUSH1 0x0 DUP1 PUSH1 0x0 DUP1 PUSH1 0x80 DUP6 DUP8 SUB SLT ISZERO PUSH2 0x1658 JUMPI PUSH1 0x0 DUP1 REVERT JUMPDEST PUSH2 0x1661 DUP6 PUSH2 0x13A2 JUMP JUMPDEST SWAP4 POP PUSH1 0x20 DUP6 ADD CALLDATALOAD PUSH8 0xFFFFFFFFFFFFFFFF DUP1 DUP3 GT ISZERO PUSH2 0x167E JUMPI PUSH1 0x0 DUP1 REVERT JUMPDEST PUSH2 0x168A DUP9 DUP4 DUP10 ADD PUSH2 0x15B1 JUMP JUMPDEST SWAP5 POP PUSH1 0x40 DUP8 ADD CALLDATALOAD SWAP2 POP DUP1 DUP3 GT ISZERO PUSH2 0x16A0 JUMPI PUSH1 0x0 DUP1 REVERT JUMPDEST PUSH2 0x16AC DUP9 DUP4 DUP10 ADD PUSH2 0x15B1 JUMP JUMPDEST SWAP4 POP PUSH1 0x60 DUP8 ADD CALLDATALOAD SWAP2 POP DUP1 DUP3 GT ISZERO PUSH2 0x16C2 JUMPI PUSH1 0x0 DUP1 REVERT JUMPDEST POP PUSH2 0x16CF DUP8 DUP3 DUP9 ADD PUSH2 0x1622 JUMP JUMPDEST SWAP2 POP POP SWAP3 SWAP6 SWAP2 SWAP5 POP SWAP3 POP JUMP JUMPDEST PUSH1 0x0 DUP1 PUSH1 0x0 DUP1 PUSH1 0x0 PUSH1 0xA0 DUP7 DUP9 SUB SLT ISZERO PUSH2 0x16F3 JUMPI PUSH1 0x0 DUP1 REVERT JUMPDEST PUSH2 0x16FC DUP7 PUSH2 0x13A2 JUMP JUMPDEST SWAP5 POP PUSH2 0x170A PUSH1 0x20 DUP8 ADD PUSH2 0x13A2 JUMP JUMPDEST SWAP4 POP PUSH1 0x40 DUP7 ADD CALLDATALOAD PUSH8 0xFFFFFFFFFFFFFFFF DUP1 DUP3 GT ISZERO PUSH2 0x1727 JUMPI PUSH1 0x0 DUP1 REVERT JUMPDEST PUSH2 0x1733 DUP10 DUP4 DUP11 ADD PUSH2 0x15B1 JUMP JUMPDEST SWAP5 POP PUSH1 0x60 DUP9 ADD CALLDATALOAD SWAP2 POP DUP1 DUP3 GT ISZERO PUSH2 0x1749 JUMPI PUSH1 0x0 DUP1 REVERT JUMPDEST PUSH2 0x1755 DUP10 DUP4 DUP11 ADD PUSH2 0x15B1 JUMP JUMPDEST SWAP4 POP PUSH1 0x80 DUP9 ADD CALLDATALOAD SWAP2 POP DUP1 DUP3 GT ISZERO PUSH2 0x176B JUMPI PUSH1 0x0 DUP1 REVERT JUMPDEST POP PUSH2 0x1778 DUP9 DUP3 DUP10 ADD PUSH2 0x1622 JUMP JUMPDEST SWAP2 POP POP SWAP3 SWAP6 POP SWAP3 SWAP6 SWAP1 SWAP4 POP JUMP JUMPDEST PUSH1 0x0 DUP1 PUSH1 0x40 DUP4 DUP6 SUB SLT ISZERO PUSH2 0x1798 JUMPI PUSH1 0x0 DUP1 REVERT JUMPDEST DUP3 CALLDATALOAD PUSH8 0xFFFFFFFFFFFFFFFF DUP1 DUP3 GT ISZERO PUSH2 0x17B0 JUMPI PUSH1 0x0 DUP1 REVERT JUMPDEST DUP2 DUP6 ADD SWAP2 POP DUP6 PUSH1 0x1F DUP4 ADD SLT PUSH2 0x17C4 JUMPI PUSH1 0x0 DUP1 REVERT JUMPDEST DUP2 CALLDATALOAD PUSH1 0x20 PUSH2 0x17D1 DUP3 PUSH2 0x158D JUMP JUMPDEST PUSH1 0x40 MLOAD PUSH2 0x17DE DUP3 DUP3 PUSH2 0x1438 JUMP JUMPDEST DUP4 DUP2 MSTORE PUSH1 0x5 SWAP4 SWAP1 SWAP4 SHL DUP6 ADD DUP3 ADD SWAP3 DUP3 DUP2 ADD SWAP2 POP DUP10 DUP5 GT ISZERO PUSH2 0x17FE JUMPI PUSH1 0x0 DUP1 REVERT JUMPDEST SWAP5 DUP3 ADD SWAP5 JUMPDEST DUP4 DUP7 LT ISZERO PUSH2 0x1823 JUMPI PUSH2 0x1814 DUP7 PUSH2 0x13A2 JUMP JUMPDEST DUP3 MSTORE SWAP5 DUP3 ADD SWAP5 SWAP1 DUP3 ADD SWAP1 PUSH2 0x1803 JUMP JUMPDEST SWAP7 POP POP DUP7 ADD CALLDATALOAD SWAP3 POP POP DUP1 DUP3 GT ISZERO PUSH2 0x1839 JUMPI PUSH1 0x0 DUP1 REVERT JUMPDEST POP PUSH2 0x1846 DUP6 DUP3 DUP7 ADD PUSH2 0x15B1 JUMP JUMPDEST SWAP2 POP POP SWAP3 POP SWAP3 SWAP1 POP JUMP JUMPDEST PUSH1 0x0 DUP2 MLOAD DUP1 DUP5 MSTORE PUSH1 0x20 DUP1 DUP6 ADD SWAP5 POP DUP1 DUP5 ADD PUSH1 0x0 JUMPDEST DUP4 DUP2 LT ISZERO PUSH2 0x1880 JUMPI DUP2 MLOAD DUP8 MSTORE SWAP6 DUP3 ADD SWAP6 SWAP1 DUP3 ADD SWAP1 PUSH1 0x1 ADD PUSH2 0x1864 JUMP JUMPDEST POP SWAP5 SWAP6 SWAP5 POP POP POP POP POP JUMP JUMPDEST PUSH1 0x20 DUP2 MSTORE PUSH1 0x0 PUSH2 0x141B PUSH1 0x20 DUP4 ADD DUP5 PUSH2 0x1850 JUMP JUMPDEST PUSH1 0x0 DUP1 PUSH1 0x0 PUSH1 0x60 DUP5 DUP7 SUB SLT ISZERO PUSH2 0x18B3 JUMPI PUSH1 0x0 DUP1 REVERT JUMPDEST PUSH2 0x18BC DUP5 PUSH2 0x13A2 JUMP JUMPDEST SWAP3 POP PUSH1 0x20 DUP5 ADD CALLDATALOAD PUSH8 0xFFFFFFFFFFFFFFFF DUP1 DUP3 GT ISZERO PUSH2 0x18D9 JUMPI PUSH1 0x0 DUP1 REVERT JUMPDEST PUSH2 0x18E5 DUP8 DUP4 DUP9 ADD PUSH2 0x15B1 JUMP JUMPDEST SWAP4 POP PUSH1 0x40 DUP7 ADD CALLDATALOAD SWAP2 POP DUP1 DUP3 GT ISZERO PUSH2 0x18FB JUMPI PUSH1 0x0 DUP1 REVERT JUMPDEST POP PUSH2 0x1908 DUP7 DUP3 DUP8 ADD PUSH2 0x15B1 JUMP JUMPDEST SWAP2 POP POP SWAP3 POP SWAP3 POP SWAP3 JUMP JUMPDEST PUSH1 0x0 DUP1 PUSH1 0x0 DUP1 PUSH1 0x80 DUP6 DUP8 SUB SLT ISZERO PUSH2 0x1928 JUMPI PUSH1 0x0 DUP1 REVERT JUMPDEST PUSH2 0x1931 DUP6 PUSH2 0x13A2 JUMP JUMPDEST SWAP4 POP PUSH1 0x20 DUP6 ADD CALLDATALOAD SWAP3 POP PUSH1 0x40 DUP6 ADD CALLDATALOAD SWAP2 POP PUSH1 0x60 DUP6 ADD CALLDATALOAD PUSH8 0xFFFFFFFFFFFFFFFF DUP2 GT ISZERO PUSH2 0x195B JUMPI PUSH1 0x0 DUP1 REVERT JUMPDEST PUSH2 0x16CF DUP8 DUP3 DUP9 ADD PUSH2 0x1622 JUMP JUMPDEST PUSH1 0x0 DUP1 PUSH1 0x40 DUP4 DUP6 SUB SLT ISZERO PUSH2 0x197A JUMPI PUSH1 0x0 DUP1 REVERT JUMPDEST PUSH2 0x1983 DUP4 PUSH2 0x13A2 JUMP JUMPDEST SWAP2 POP PUSH1 0x20 DUP4 ADD CALLDATALOAD DUP1 ISZERO ISZERO DUP2 EQ PUSH2 0x1998 JUMPI PUSH1 0x0 DUP1 REVERT JUMPDEST DUP1 SWAP2 POP POP SWAP3 POP SWAP3 SWAP1 POP JUMP JUMPDEST PUSH1 0x0 DUP1 PUSH1 0x40 DUP4 DUP6 SUB SLT ISZERO PUSH2 0x19B6 JUMPI PUSH1 0x0 DUP1 REVERT JUMPDEST PUSH2 0x19BF DUP4 PUSH2 0x13A2 JUMP JUMPDEST SWAP2 POP PUSH2 0x19CD PUSH1 0x20 DUP5 ADD PUSH2 0x13A2 JUMP JUMPDEST SWAP1 POP SWAP3 POP SWAP3 SWAP1 POP JUMP JUMPDEST PUSH1 0x0 DUP1 PUSH1 0x0 DUP1 PUSH1 0x0 PUSH1 0xA0 DUP7 DUP9 SUB SLT ISZERO PUSH2 0x19EE JUMPI PUSH1 0x0 DUP1 REVERT JUMPDEST PUSH2 0x19F7 DUP7 PUSH2 0x13A2 JUMP JUMPDEST SWAP5 POP PUSH2 0x1A05 PUSH1 0x20 DUP8 ADD PUSH2 0x13A2 JUMP JUMPDEST SWAP4 POP PUSH1 0x40 DUP7 ADD CALLDATALOAD SWAP3 POP PUSH1 0x60 DUP7 ADD CALLDATALOAD SWAP2 POP PUSH1 0x80 DUP7 ADD CALLDATALOAD PUSH8 0xFFFFFFFFFFFFFFFF DUP2 GT ISZERO PUSH2 0x1A2F JUMPI PUSH1 0x0 DUP1 REVERT JUMPDEST PUSH2 0x1778 DUP9 DUP3 DUP10 ADD PUSH2 0x1622 JUMP JUMPDEST PUSH1 0x0 DUP1 PUSH1 0x0 PUSH1 0x60 DUP5 DUP7 SUB SLT ISZERO PUSH2 0x1A50 JUMPI PUSH1 0x0 DUP1 REVERT JUMPDEST PUSH2 0x1A59 DUP5 PUSH2 0x13A2 JUMP JUMPDEST SWAP6 PUSH1 0x20 DUP6 ADD CALLDATALOAD SWAP6 POP PUSH1 0x40 SWAP1 SWAP5 ADD CALLDATALOAD SWAP4 SWAP3 POP POP POP JUMP JUMPDEST PUSH1 0x1 DUP2 DUP2 SHR SWAP1 DUP3 AND DUP1 PUSH2 0x1A82 JUMPI PUSH1 0x7F DUP3 AND SWAP2 POP JUMPDEST PUSH1 0x20 DUP3 LT DUP2 EQ ISZERO PUSH2 0x1AA3 JUMPI PUSH4 0x4E487B71 PUSH1 0xE0 SHL PUSH1 0x0 MSTORE PUSH1 0x22 PUSH1 0x4 MSTORE PUSH1 0x24 PUSH1 0x0 REVERT JUMPDEST POP SWAP2 SWAP1 POP JUMP JUMPDEST PUSH4 0x4E487B71 PUSH1 0xE0 SHL PUSH1 0x0 MSTORE PUSH1 0x32 PUSH1 0x4 MSTORE PUSH1 0x24 PUSH1 0x0 REVERT JUMPDEST PUSH4 0x4E487B71 PUSH1 0xE0 SHL PUSH1 0x0 MSTORE PUSH1 0x11 PUSH1 0x4 MSTORE PUSH1 0x24 PUSH1 0x0 REVERT JUMPDEST PUSH1 0x0 PUSH1 0x0 NOT DUP3 EQ ISZERO PUSH2 0x1AE9 JUMPI PUSH2 0x1AE9 PUSH2 0x1ABF JUMP JUMPDEST POP PUSH1 0x1 ADD SWAP1 JUMP JUMPDEST PUSH1 0x20 DUP1 DUP3 MSTORE PUSH1 0x21 SWAP1 DUP3 ADD MSTORE PUSH32 0x455243313135353A206D696E7420746F20746865207A65726F20616464726573 PUSH1 0x40 DUP3 ADD MSTORE PUSH1 0x73 PUSH1 0xF8 SHL PUSH1 0x60 DUP3 ADD MSTORE PUSH1 0x80 ADD SWAP1 JUMP JUMPDEST PUSH1 0x20 DUP1 DUP3 MSTORE PUSH1 0x28 SWAP1 DUP3 ADD MSTORE PUSH32 0x455243313135353A2069647320616E6420616D6F756E7473206C656E67746820 PUSH1 0x40 DUP3 ADD MSTORE PUSH8 0xDAD2E6DAC2E8C6D PUSH1 0xC3 SHL PUSH1 0x60 DUP3 ADD MSTORE PUSH1 0x80 ADD SWAP1 JUMP JUMPDEST PUSH1 0x0 DUP3 NOT DUP3 GT ISZERO PUSH2 0x1B8C JUMPI PUSH2 0x1B8C PUSH2 0x1ABF JUMP JUMPDEST POP ADD SWAP1 JUMP JUMPDEST PUSH1 0x40 DUP2 MSTORE PUSH1 0x0 PUSH2 0x1BA4 PUSH1 0x40 DUP4 ADD DUP6 PUSH2 0x1850 JUMP JUMPDEST DUP3 DUP2 SUB PUSH1 0x20 DUP5 ADD MSTORE PUSH2 0x1BB6 DUP2 DUP6 PUSH2 0x1850 JUMP JUMPDEST SWAP6 SWAP5 POP POP POP POP POP JUMP JUMPDEST PUSH1 0x20 DUP1 DUP3 MSTORE PUSH1 0x25 SWAP1 DUP3 ADD MSTORE PUSH32 0x455243313135353A207472616E7366657220746F20746865207A65726F206164 PUSH1 0x40 DUP3 ADD MSTORE PUSH5 0x6472657373 PUSH1 0xD8 SHL PUSH1 0x60 DUP3 ADD MSTORE PUSH1 0x80 ADD SWAP1 JUMP JUMPDEST PUSH1 0x20 DUP1 DUP3 MSTORE PUSH1 0x2A SWAP1 DUP3 ADD MSTORE PUSH32 0x455243313135353A20696E73756666696369656E742062616C616E636520666F PUSH1 0x40 DUP3 ADD MSTORE PUSH10 0x39103A3930B739B332B9 PUSH1 0xB1 SHL PUSH1 0x60 DUP3 ADD MSTORE PUSH1 0x80 ADD SWAP1 JUMP JUMPDEST PUSH1 0x20 DUP1 DUP3 MSTORE PUSH1 0x23 SWAP1 DUP3 ADD MSTORE PUSH32 0x455243313135353A206275726E2066726F6D20746865207A65726F2061646472 PUSH1 0x40 DUP3 ADD MSTORE PUSH3 0x657373 PUSH1 0xE8 SHL PUSH1 0x60 DUP3 ADD MSTORE PUSH1 0x80 ADD SWAP1 JUMP JUMPDEST PUSH1 0x20 DUP1 DUP3 MSTORE PUSH1 0x24 SWAP1 DUP3 ADD MSTORE PUSH32 0x455243313135353A206275726E20616D6F756E7420657863656564732062616C PUSH1 0x40 DUP3 ADD MSTORE PUSH4 0x616E6365 PUSH1 0xE0 SHL PUSH1 0x60 DUP3 ADD MSTORE PUSH1 0x80 ADD SWAP1 JUMP JUMPDEST PUSH1 0x1 PUSH1 0x1 PUSH1 0xA0 SHL SUB DUP7 DUP2 AND DUP3 MSTORE DUP6 AND PUSH1 0x20 DUP3 ADD MSTORE PUSH1 0xA0 PUSH1 0x40 DUP3 ADD DUP2 SWAP1 MSTORE PUSH1 0x0 SWAP1 PUSH2 0x1D01 SWAP1 DUP4 ADD DUP7 PUSH2 0x1850 JUMP JUMPDEST DUP3 DUP2 SUB PUSH1 0x60 DUP5 ADD MSTORE PUSH2 0x1D13 DUP2 DUP7 PUSH2 0x1850 JUMP JUMPDEST SWAP1 POP DUP3 DUP2 SUB PUSH1 0x80 DUP5 ADD MSTORE PUSH2 0x1D27 DUP2 DUP6 PUSH2 0x152D JUMP JUMPDEST SWAP9 SWAP8 POP POP POP POP POP POP POP POP JUMP JUMPDEST PUSH1 0x0 PUSH1 0x20 DUP3 DUP5 SUB SLT ISZERO PUSH2 0x1D45 JUMPI PUSH1 0x0 DUP1 REVERT JUMPDEST DUP2 MLOAD PUSH2 0x141B DUP2 PUSH2 0x13E8 JUMP JUMPDEST PUSH1 0x0 PUSH1 0x3 RETURNDATASIZE GT ISZERO PUSH2 0x1D69 JUMPI PUSH1 0x4 PUSH1 0x0 DUP1 RETURNDATACOPY POP PUSH1 0x0 MLOAD PUSH1 0xE0 SHR JUMPDEST SWAP1 JUMP JUMPDEST PUSH1 0x0 PUSH1 0x44 RETURNDATASIZE LT ISZERO PUSH2 0x1D7A JUMPI SWAP1 JUMP JUMPDEST PUSH1 0x40 MLOAD PUSH1 0x3 NOT RETURNDATASIZE DUP2 ADD PUSH1 0x4 DUP4 RETURNDATACOPY DUP2 MLOAD RETURNDATASIZE PUSH8 0xFFFFFFFFFFFFFFFF DUP2 PUSH1 0x24 DUP5 ADD GT DUP2 DUP5 GT OR ISZERO PUSH2 0x1DAA JUMPI POP POP POP POP POP SWAP1 JUMP JUMPDEST DUP3 DUP6 ADD SWAP2 POP DUP2 MLOAD DUP2 DUP2 GT ISZERO PUSH2 0x1DC2 JUMPI POP POP POP POP POP POP SWAP1 JUMP JUMPDEST DUP5 RETURNDATASIZE DUP8 ADD ADD PUSH1 0x20 DUP3 DUP6 ADD ADD GT ISZERO PUSH2 0x1DDC JUMPI POP POP POP POP POP POP SWAP1 JUMP JUMPDEST PUSH2 0x1DEB PUSH1 0x20 DUP3 DUP7 ADD ADD DUP8 PUSH2 0x1438 JUMP JUMPDEST POP SWAP1 SWAP6 SWAP5 POP POP POP POP POP JUMP JUMPDEST PUSH1 0x20 DUP1 DUP3 MSTORE PUSH1 0x28 SWAP1 DUP3 ADD MSTORE PUSH32 0x455243313135353A204552433131353552656365697665722072656A65637465 PUSH1 0x40 DUP3 ADD MSTORE PUSH8 0x6420746F6B656E73 PUSH1 0xC0 SHL PUSH1 0x60 DUP3 ADD MSTORE PUSH1 0x80 ADD SWAP1 JUMP JUMPDEST PUSH1 0x1 PUSH1 0x1 PUSH1 0xA0 SHL SUB DUP7 DUP2 AND DUP3 MSTORE DUP6 AND PUSH1 0x20 DUP3 ADD MSTORE PUSH1 0x40 DUP2 ADD DUP5 SWAP1 MSTORE PUSH1 0x60 DUP2 ADD DUP4 SWAP1 MSTORE PUSH1 0xA0 PUSH1 0x80 DUP3 ADD DUP2 SWAP1 MSTORE PUSH1 0x0 SWAP1 PUSH2 0x1E78 SWAP1 DUP4 ADD DUP5 PUSH2 0x152D JUMP JUMPDEST SWAP8 SWAP7 POP POP POP POP POP POP POP JUMP INVALID LOG2 PUSH5 0x6970667358 0x22 SLT KECCAK256 0x5E PUSH5 0x708FF57DAF SHR CALLER PUSH1 0xFD MSTORE 0x27 SWAP16 0xBF SWAP1 DIFFICULTY 0xD6 PUSH28 0x59EC4FDF7314A37B4A1EEECF2164736F6C634300080C003300000000 ",
  "sha1": "bdde4320b9ed09ebc16f4d04559a8edbb62be81b",
  "source": "// SPDX-License-Identifier: MIT\n\npragma solidity ^0.8.0;\n\nimport \"./ERC1155Mock.sol\";\nimport \"../token/ERC1155/extensions/ERC1155Pausable.sol\";\n\ncontract ERC1155PausableMock is ERC1155Mock, ERC1155Pausable {\n    constructor(string memory uri) ERC1155Mock(uri) {}\n\n    function pause() external {\n        _pause();\n    }\n\n    function unpause() external {\n        _unpause();\n    }\n\n    function _beforeTokenTransfer(\n        address operator,\n        address from,\n        address to,\n        uint256[] memory ids,\n        uint256[] memory amounts,\n        bytes memory data\n    ) internal virtual override(ERC1155, ERC1155Pausable) {\n        super._beforeTokenTransfer(operator, from, to, ids, amounts, data);\n    }\n}\n",
  "sourcePath": "contracts/openzeppelin/contracts/mocks/ERC1155PausableMock.sol",
  "type": "contract"
}