{
  "abi": [
    {
      "inputs": [
        {
          "internalType": "string",
          "name": "name",
          "type": "string"
        },
        {
          "internalType": "string",
          "name": "symbol",
          "type": "string"
        },
        {
          "internalType": "uint256",
          "name": "cap",
          "type": "uint256"
        }
      ],
      "stateMutability": "nonpayable",
      "type": "constructor"
    },
    {
      "anonymous": false,
      "inputs": [
        {
          "indexed": true,
          "internalType": "address",
          "name": "owner",
          "type": "address"
        },
        {
          "indexed": true,
          "internalType": "address",
          "name": "spender",
          "type": "address"
        },
        {
          "indexed": false,
          "internalType": "uint256",
          "name": "value",
          "type": "uint256"
        }
      ],
      "name": "Approval",
      "type": "event"
    },
    {
      "anonymous": false,
      "inputs": [
        {
          "indexed": true,
          "internalType": "address",
          "name": "from",
          "type": "address"
        },
        {
          "indexed": true,
          "internalType": "address",
          "name": "to",
          "type": "address"
        },
        {
          "indexed": false,
          "internalType": "uint256",
          "name": "value",
          "type": "uint256"
        }
      ],
      "name": "Transfer",
      "type": "event"
    },
    {
      "inputs": [
        {
          "internalType": "address",
          "name": "owner",
          "type": "address"
        },
        {
          "internalType": "address",
          "name": "spender",
          "type": "address"
        }
      ],
      "name": "allowance",
      "outputs": [
        {
          "internalType": "uint256",
          "name": "",
          "type": "uint256"
        }
      ],
      "stateMutability": "view",
      "type": "function"
    },
    {
      "inputs": [
        {
          "internalType": "address",
          "name": "spender",
          "type": "address"
        },
        {
          "internalType": "uint256",
          "name": "amount",
          "type": "uint256"
        }
      ],
      "name": "approve",
      "outputs": [
        {
          "internalType": "bool",
          "name": "",
          "type": "bool"
        }
      ],
      "stateMutability": "nonpayable",
      "type": "function"
    },
    {
      "inputs": [
        {
          "internalType": "address",
          "name": "account",
          "type": "address"
        }
      ],
      "name": "balanceOf",
      "outputs": [
        {
          "internalType": "uint256",
          "name": "",
          "type": "uint256"
        }
      ],
      "stateMutability": "view",
      "type": "function"
    },
    {
      "inputs": [],
      "name": "cap",
      "outputs": [
        {
          "internalType": "uint256",
          "name": "",
          "type": "uint256"
        }
      ],
      "stateMutability": "view",
      "type": "function"
    },
    {
      "inputs": [],
      "name": "decimals",
      "outputs": [
        {
          "internalType": "uint8",
          "name": "",
          "type": "uint8"
        }
      ],
      "stateMutability": "view",
      "type": "function"
    },
    {
      "inputs": [
        {
          "internalType": "address",
          "name": "spender",
          "type": "address"
        },
        {
          "internalType": "uint256",
          "name": "subtractedValue",
          "type": "uint256"
        }
      ],
      "name": "decreaseAllowance",
      "outputs": [
        {
          "internalType": "bool",
          "name": "",
          "type": "bool"
        }
      ],
      "stateMutability": "nonpayable",
      "type": "function"
    },
    {
      "inputs": [
        {
          "internalType": "address",
          "name": "spender",
          "type": "address"
        },
        {
          "internalType": "uint256",
          "name": "addedValue",
          "type": "uint256"
        }
      ],
      "name": "increaseAllowance",
      "outputs": [
        {
          "internalType": "bool",
          "name": "",
          "type": "bool"
        }
      ],
      "stateMutability": "nonpayable",
      "type": "function"
    },
    {
      "inputs": [
        {
          "internalType": "address",
          "name": "to",
          "type": "address"
        },
        {
          "internalType": "uint256",
          "name": "tokenId",
          "type": "uint256"
        }
      ],
      "name": "mint",
      "outputs": [],
      "stateMutability": "nonpayable",
      "type": "function"
    },
    {
      "inputs": [],
      "name": "name",
      "outputs": [
        {
          "internalType": "string",
          "name": "",
          "type": "string"
        }
      ],
      "stateMutability": "view",
      "type": "function"
    },
    {
      "inputs": [],
      "name": "symbol",
      "outputs": [
        {
          "internalType": "string",
          "name": "",
          "type": "string"
        }
      ],
      "stateMutability": "view",
      "type": "function"
    },
    {
      "inputs": [],
      "name": "totalSupply",
      "outputs": [
        {
          "internalType": "uint256",
          "name": "",
          "type": "uint256"
        }
      ],
      "stateMutability": "view",
      "type": "function"
    },
    {
      "inputs": [
        {
          "internalType": "address",
          "name": "to",
          "type": "address"
        },
        {
          "internalType": "uint256",
          "name": "amount",
          "type": "uint256"
        }
      ],
      "name": "transfer",
      "outputs": [
        {
          "internalType": "bool",
          "name": "",
          "type": "bool"
        }
      ],
      "stateMutability": "nonpayable",
      "type": "function"
    },
    {
      "inputs": [
        {
          "internalType": "address",
          "name": "from",
          "type": "address"
        },
        {
          "internalType": "address",
          "name": "to",
          "type": "address"
        },
        {
          "internalType": "uint256",
          "name": "amount",
          "type": "uint256"
        }
      ],
      "name": "transferFrom",
      "outputs": [
        {
          "internalType": "bool",
          "name": "",
          "type": "bool"
        }
      ],
      "stateMutability": "nonpayable",
      "type": "function"
    }
  ],
  "bytecode": "60a06040523480156200001157600080fd5b5060405162000db438038062000db483398101604081905262000034916200023d565b80838381600390805190602001906200004f929190620000ca565b50805162000065906004906020840190620000ca565b50505060008111620000bd5760405162461bcd60e51b815260206004820152601560248201527f45524332304361707065643a2063617020697320300000000000000000000000604482015260640160405180910390fd5b60805250620002ed915050565b828054620000d890620002b0565b90600052602060002090601f016020900481019282620000fc576000855562000147565b82601f106200011757805160ff191683800117855562000147565b8280016001018555821562000147579182015b82811115620001475782518255916020019190600101906200012a565b506200015592915062000159565b5090565b5b808211156200015557600081556001016200015a565b634e487b7160e01b600052604160045260246000fd5b600082601f8301126200019857600080fd5b81516001600160401b0380821115620001b557620001b562000170565b604051601f8301601f19908116603f01168101908282118183101715620001e057620001e062000170565b81604052838152602092508683858801011115620001fd57600080fd5b600091505b8382101562000221578582018301518183018401529082019062000202565b83821115620002335760008385830101525b9695505050505050565b6000806000606084860312156200025357600080fd5b83516001600160401b03808211156200026b57600080fd5b620002798783880162000186565b945060208601519150808211156200029057600080fd5b506200029f8682870162000186565b925050604084015190509250925092565b600181811c90821680620002c557607f821691505b60208210811415620002e757634e487b7160e01b600052602260045260246000fd5b50919050565b608051610aa4620003106000396000818161014b015261077c0152610aa46000f3fe608060405234801561001057600080fd5b50600436106100cf5760003560e01c8063395093511161008c57806395d89b411161006657806395d89b41146101c0578063a457c2d7146101c8578063a9059cbb146101db578063dd62ed3e146101ee57600080fd5b8063395093511461016f57806340c10f191461018257806370a082311461019757600080fd5b806306fdde03146100d4578063095ea7b3146100f257806318160ddd1461011557806323b872dd14610127578063313ce5671461013a578063355274ea14610149575b600080fd5b6100dc610227565b6040516100e991906108e1565b60405180910390f35b610105610100366004610952565b6102b9565b60405190151581526020016100e9565b6002545b6040519081526020016100e9565b61010561013536600461097c565b6102d1565b604051601281526020016100e9565b7f0000000000000000000000000000000000000000000000000000000000000000610119565b61010561017d366004610952565b6102f5565b610195610190366004610952565b610334565b005b6101196101a53660046109b8565b6001600160a01b031660009081526020819052604090205490565b6100dc610342565b6101056101d6366004610952565b610351565b6101056101e9366004610952565b6103e8565b6101196101fc3660046109da565b6001600160a01b03918216600090815260016020908152604080832093909416825291909152205490565b60606003805461023690610a0d565b80601f016020809104026020016040519081016040528092919081815260200182805461026290610a0d565b80156102af5780601f10610284576101008083540402835291602001916102af565b820191906000526020600020905b81548152906001019060200180831161029257829003601f168201915b5050505050905090565b6000336102c78185856103f6565b5060019392505050565b6000336102df85828561051a565b6102ea8585856105ac565b506001949350505050565b3360008181526001602090815260408083206001600160a01b03871684529091528120549091906102c7908290869061032f908790610a48565b6103f6565b61033e828261077a565b5050565b60606004805461023690610a0d565b3360008181526001602090815260408083206001600160a01b0387168452909152812054909190838110156103db5760405162461bcd60e51b815260206004820152602560248201527f45524332303a2064656372656173656420616c6c6f77616e63652062656c6f77604482015264207a65726f60d81b60648201526084015b60405180910390fd5b6102ea82868684036103f6565b6000336102c78185856105ac565b6001600160a01b0383166104585760405162461bcd60e51b8152602060048201526024808201527f45524332303a20617070726f76652066726f6d20746865207a65726f206164646044820152637265737360e01b60648201526084016103d2565b6001600160a01b0382166104b95760405162461bcd60e51b815260206004820152602260248201527f45524332303a20617070726f766520746f20746865207a65726f206164647265604482015261737360f01b60648201526084016103d2565b6001600160a01b0383811660008181526001602090815260408083209487168084529482529182902085905590518481527f8c5be1e5ebec7d5bd14f71427d1e84f3dd0314c0f7b2291e5b200ac8c7c3b925910160405180910390a3505050565b6001600160a01b0383811660009081526001602090815260408083209386168352929052205460001981146105a657818110156105995760405162461bcd60e51b815260206004820152601d60248201527f45524332303a20696e73756666696369656e7420616c6c6f77616e636500000060448201526064016103d2565b6105a684848484036103f6565b50505050565b6001600160a01b0383166106105760405162461bcd60e51b815260206004820152602560248201527f45524332303a207472616e736665722066726f6d20746865207a65726f206164604482015264647265737360d81b60648201526084016103d2565b6001600160a01b0382166106725760405162461bcd60e51b815260206004820152602360248201527f45524332303a207472616e7366657220746f20746865207a65726f206164647260448201526265737360e81b60648201526084016103d2565b6001600160a01b038316600090815260208190526040902054818110156106ea5760405162461bcd60e51b815260206004820152602660248201527f45524332303a207472616e7366657220616d6f756e7420657863656564732062604482015265616c616e636560d01b60648201526084016103d2565b6001600160a01b03808516600090815260208190526040808220858503905591851681529081208054849290610721908490610a48565b92505081905550826001600160a01b0316846001600160a01b03167fddf252ad1be2c89b69c2b068fc378daa952ba7f163c4a11628f55a4df523b3ef8460405161076d91815260200190565b60405180910390a36105a6565b7f0000000000000000000000000000000000000000000000000000000000000000816107a560025490565b6107af9190610a48565b11156107fd5760405162461bcd60e51b815260206004820152601960248201527f45524332304361707065643a206361702065786365656465640000000000000060448201526064016103d2565b61033e82826001600160a01b0382166108585760405162461bcd60e51b815260206004820152601f60248201527f45524332303a206d696e7420746f20746865207a65726f20616464726573730060448201526064016103d2565b806002600082825461086a9190610a48565b90915550506001600160a01b03821660009081526020819052604081208054839290610897908490610a48565b90915550506040518181526001600160a01b038316906000907fddf252ad1be2c89b69c2b068fc378daa952ba7f163c4a11628f55a4df523b3ef9060200160405180910390a35050565b600060208083528351808285015260005b8181101561090e578581018301518582016040015282016108f2565b81811115610920576000604083870101525b50601f01601f1916929092016040019392505050565b80356001600160a01b038116811461094d57600080fd5b919050565b6000806040838503121561096557600080fd5b61096e83610936565b946020939093013593505050565b60008060006060848603121561099157600080fd5b61099a84610936565b92506109a860208501610936565b9150604084013590509250925092565b6000602082840312156109ca57600080fd5b6109d382610936565b9392505050565b600080604083850312156109ed57600080fd5b6109f683610936565b9150610a0460208401610936565b90509250929050565b600181811c90821680610a2157607f821691505b60208210811415610a4257634e487b7160e01b600052602260045260246000fd5b50919050565b60008219821115610a6957634e487b7160e01b600052601160045260246000fd5b50019056fea26469706673582212208fff2b32f95d2946c308904644120c46fb6210799df04632bc19f1ff056f05af64736f6c634300080c0033",
  "bytecodeSha1": "f1e3364a4146e051cde6d7931646a7d949359feb",
  "compiler": {
    "evm_version": "istanbul",
    "optimizer": {
      "enabled": true,
      "runs": 200
    },
    "version": "0.8.12+commit.f00d7308"
  },
  "contractName": "ERC20CappedMock",
  "language": "Solidity",
  "natspec": {
    "kind": "dev",
    "methods": {
      "allowance(address,address)": {
        "details": "See {IERC20-allowance}."
      },
      "approve(address,uint256)": {
        "details": "See {IERC20-approve}. NOTE: If `amount` is the maximum `uint256`, the allowance is not updated on `transferFrom`. This is semantically equivalent to an infinite approval. Requirements: - `spender` cannot be the zero address."
      },
      "balanceOf(address)": {
        "details": "See {IERC20-balanceOf}."
      },
      "cap()": {
        "details": "Returns the cap on the token's total supply."
      },
      "decimals()": {
        "details": "Returns the number of decimals used to get its user representation. For example, if `decimals` equals `2`, a balance of `505` tokens should be displayed to a user as `5.05` (`505 / 10 ** 2`). Tokens usually opt for a value of 18, imitating the relationship between Ether and Wei. This is the value {ERC20} uses, unless this function is overridden; NOTE: This information is only used for _display_ purposes: it in no way affects any of the arithmetic of the contract, including {IERC20-balanceOf} and {IERC20-transfer}."
      },
      "decreaseAllowance(address,uint256)": {
        "details": "Atomically decreases the allowance granted to `spender` by the caller. This is an alternative to {approve} that can be used as a mitigation for problems described in {IERC20-approve}. Emits an {Approval} event indicating the updated allowance. Requirements: - `spender` cannot be the zero address. - `spender` must have allowance for the caller of at least `subtractedValue`."
      },
      "increaseAllowance(address,uint256)": {
        "details": "Atomically increases the allowance granted to `spender` by the caller. This is an alternative to {approve} that can be used as a mitigation for problems described in {IERC20-approve}. Emits an {Approval} event indicating the updated allowance. Requirements: - `spender` cannot be the zero address."
      },
      "name()": {
        "details": "Returns the name of the token."
      },
      "symbol()": {
        "details": "Returns the symbol of the token, usually a shorter version of the name."
      },
      "totalSupply()": {
        "details": "See {IERC20-totalSupply}."
      },
      "transfer(address,uint256)": {
        "details": "See {IERC20-transfer}. Requirements: - `to` cannot be the zero address. - the caller must have a balance of at least `amount`."
      },
      "transferFrom(address,address,uint256)": {
        "details": "See {IERC20-transferFrom}. Emits an {Approval} event indicating the updated allowance. This is not required by the EIP. See the note at the beginning of {ERC20}. NOTE: Does not update the allowance if the current allowance is the maximum `uint256`. Requirements: - `from` and `to` cannot be the zero address. - `from` must have a balance of at least `amount`. - the caller must have allowance for ``from``'s tokens of at least `amount`."
      }
    },
    "version": 1
  },
  "opcodes": "PUSH1 0x80 PUSH1 0x40 MSTORE CALLVALUE DUP1 ISZERO PUSH2 0x10 JUMPI PUSH1 0x0 DUP1 REVERT JUMPDEST POP PUSH1 0x4 CALLDATASIZE LT PUSH2 0xCF JUMPI PUSH1 0x0 CALLDATALOAD PUSH1 0xE0 SHR DUP1 PUSH4 0x39509351 GT PUSH2 0x8C JUMPI DUP1 PUSH4 0x95D89B41 GT PUSH2 0x66 JUMPI DUP1 PUSH4 0x95D89B41 EQ PUSH2 0x1C0 JUMPI DUP1 PUSH4 0xA457C2D7 EQ PUSH2 0x1C8 JUMPI DUP1 PUSH4 0xA9059CBB EQ PUSH2 0x1DB JUMPI DUP1 PUSH4 0xDD62ED3E EQ PUSH2 0x1EE JUMPI PUSH1 0x0 DUP1 REVERT JUMPDEST DUP1 PUSH4 0x39509351 EQ PUSH2 0x16F JUMPI DUP1 PUSH4 0x40C10F19 EQ PUSH2 0x182 JUMPI DUP1 PUSH4 0x70A08231 EQ PUSH2 0x197 JUMPI PUSH1 0x0 DUP1 REVERT JUMPDEST DUP1 PUSH4 0x6FDDE03 EQ PUSH2 0xD4 JUMPI DUP1 PUSH4 0x95EA7B3 EQ PUSH2 0xF2 JUMPI DUP1 PUSH4 0x18160DDD EQ PUSH2 0x115 JUMPI DUP1 PUSH4 0x23B872DD EQ PUSH2 0x127 JUMPI DUP1 PUSH4 0x313CE567 EQ PUSH2 0x13A JUMPI DUP1 PUSH4 0x355274EA EQ PUSH2 0x149 JUMPI JUMPDEST PUSH1 0x0 DUP1 REVERT JUMPDEST PUSH2 0xDC PUSH2 0x227 JUMP JUMPDEST PUSH1 0x40 MLOAD PUSH2 0xE9 SWAP2 SWAP1 PUSH2 0x8E1 JUMP JUMPDEST PUSH1 0x40 MLOAD DUP1 SWAP2 SUB SWAP1 RETURN JUMPDEST PUSH2 0x105 PUSH2 0x100 CALLDATASIZE PUSH1 0x4 PUSH2 0x952 JUMP JUMPDEST PUSH2 0x2B9 JUMP JUMPDEST PUSH1 0x40 MLOAD SWAP1 ISZERO ISZERO DUP2 MSTORE PUSH1 0x20 ADD PUSH2 0xE9 JUMP JUMPDEST PUSH1 0x2 SLOAD JUMPDEST PUSH1 0x40 MLOAD SWAP1 DUP2 MSTORE PUSH1 0x20 ADD PUSH2 0xE9 JUMP JUMPDEST PUSH2 0x105 PUSH2 0x135 CALLDATASIZE PUSH1 0x4 PUSH2 0x97C JUMP JUMPDEST PUSH2 0x2D1 JUMP JUMPDEST PUSH1 0x40 MLOAD PUSH1 0x12 DUP2 MSTORE PUSH1 0x20 ADD PUSH2 0xE9 JUMP JUMPDEST PUSH32 0x0 PUSH2 0x119 JUMP JUMPDEST PUSH2 0x105 PUSH2 0x17D CALLDATASIZE PUSH1 0x4 PUSH2 0x952 JUMP JUMPDEST PUSH2 0x2F5 JUMP JUMPDEST PUSH2 0x195 PUSH2 0x190 CALLDATASIZE PUSH1 0x4 PUSH2 0x952 JUMP JUMPDEST PUSH2 0x334 JUMP JUMPDEST STOP JUMPDEST PUSH2 0x119 PUSH2 0x1A5 CALLDATASIZE PUSH1 0x4 PUSH2 0x9B8 JUMP JUMPDEST PUSH1 0x1 PUSH1 0x1 PUSH1 0xA0 SHL SUB AND PUSH1 0x0 SWAP1 DUP2 MSTORE PUSH1 0x20 DUP2 SWAP1 MSTORE PUSH1 0x40 SWAP1 KECCAK256 SLOAD SWAP1 JUMP JUMPDEST PUSH2 0xDC PUSH2 0x342 JUMP JUMPDEST PUSH2 0x105 PUSH2 0x1D6 CALLDATASIZE PUSH1 0x4 PUSH2 0x952 JUMP JUMPDEST PUSH2 0x351 JUMP JUMPDEST PUSH2 0x105 PUSH2 0x1E9 CALLDATASIZE PUSH1 0x4 PUSH2 0x952 JUMP JUMPDEST PUSH2 0x3E8 JUMP JUMPDEST PUSH2 0x119 PUSH2 0x1FC CALLDATASIZE PUSH1 0x4 PUSH2 0x9DA JUMP JUMPDEST PUSH1 0x1 PUSH1 0x1 PUSH1 0xA0 SHL SUB SWAP2 DUP3 AND PUSH1 0x0 SWAP1 DUP2 MSTORE PUSH1 0x1 PUSH1 0x20 SWAP1 DUP2 MSTORE PUSH1 0x40 DUP1 DUP4 KECCAK256 SWAP4 SWAP1 SWAP5 AND DUP3 MSTORE SWAP2 SWAP1 SWAP2 MSTORE KECCAK256 SLOAD SWAP1 JUMP JUMPDEST PUSH1 0x60 PUSH1 0x3 DUP1 SLOAD PUSH2 0x236 SWAP1 PUSH2 0xA0D JUMP JUMPDEST DUP1 PUSH1 0x1F ADD PUSH1 0x20 DUP1 SWAP2 DIV MUL PUSH1 0x20 ADD PUSH1 0x40 MLOAD SWAP1 DUP2 ADD PUSH1 0x40 MSTORE DUP1 SWAP3 SWAP2 SWAP1 DUP2 DUP2 MSTORE PUSH1 0x20 ADD DUP3 DUP1 SLOAD PUSH2 0x262 SWAP1 PUSH2 0xA0D JUMP JUMPDEST DUP1 ISZERO PUSH2 0x2AF JUMPI DUP1 PUSH1 0x1F LT PUSH2 0x284 JUMPI PUSH2 0x100 DUP1 DUP4 SLOAD DIV MUL DUP4 MSTORE SWAP2 PUSH1 0x20 ADD SWAP2 PUSH2 0x2AF JUMP JUMPDEST DUP3 ADD SWAP2 SWAP1 PUSH1 0x0 MSTORE PUSH1 0x20 PUSH1 0x0 KECCAK256 SWAP1 JUMPDEST DUP2 SLOAD DUP2 MSTORE SWAP1 PUSH1 0x1 ADD SWAP1 PUSH1 0x20 ADD DUP1 DUP4 GT PUSH2 0x292 JUMPI DUP3 SWAP1 SUB PUSH1 0x1F AND DUP3 ADD SWAP2 JUMPDEST POP POP POP POP POP SWAP1 POP SWAP1 JUMP JUMPDEST PUSH1 0x0 CALLER PUSH2 0x2C7 DUP2 DUP6 DUP6 PUSH2 0x3F6 JUMP JUMPDEST POP PUSH1 0x1 SWAP4 SWAP3 POP POP POP JUMP JUMPDEST PUSH1 0x0 CALLER PUSH2 0x2DF DUP6 DUP3 DUP6 PUSH2 0x51A JUMP JUMPDEST PUSH2 0x2EA DUP6 DUP6 DUP6 PUSH2 0x5AC JUMP JUMPDEST POP PUSH1 0x1 SWAP5 SWAP4 POP POP POP POP JUMP JUMPDEST CALLER PUSH1 0x0 DUP2 DUP2 MSTORE PUSH1 0x1 PUSH1 0x20 SWAP1 DUP2 MSTORE PUSH1 0x40 DUP1 DUP4 KECCAK256 PUSH1 0x1 PUSH1 0x1 PUSH1 0xA0 SHL SUB DUP8 AND DUP5 MSTORE SWAP1 SWAP2 MSTORE DUP2 KECCAK256 SLOAD SWAP1 SWAP2 SWAP1 PUSH2 0x2C7 SWAP1 DUP3 SWAP1 DUP7 SWAP1 PUSH2 0x32F SWAP1 DUP8 SWAP1 PUSH2 0xA48 JUMP JUMPDEST PUSH2 0x3F6 JUMP JUMPDEST PUSH2 0x33E DUP3 DUP3 PUSH2 0x77A JUMP JUMPDEST POP POP JUMP JUMPDEST PUSH1 0x60 PUSH1 0x4 DUP1 SLOAD PUSH2 0x236 SWAP1 PUSH2 0xA0D JUMP JUMPDEST CALLER PUSH1 0x0 DUP2 DUP2 MSTORE PUSH1 0x1 PUSH1 0x20 SWAP1 DUP2 MSTORE PUSH1 0x40 DUP1 DUP4 KECCAK256 PUSH1 0x1 PUSH1 0x1 PUSH1 0xA0 SHL SUB DUP8 AND DUP5 MSTORE SWAP1 SWAP2 MSTORE DUP2 KECCAK256 SLOAD SWAP1 SWAP2 SWAP1 DUP4 DUP2 LT ISZERO PUSH2 0x3DB JUMPI PUSH1 0x40 MLOAD PUSH3 0x461BCD PUSH1 0xE5 SHL DUP2 MSTORE PUSH1 0x20 PUSH1 0x4 DUP3 ADD MSTORE PUSH1 0x25 PUSH1 0x24 DUP3 ADD MSTORE PUSH32 0x45524332303A2064656372656173656420616C6C6F77616E63652062656C6F77 PUSH1 0x44 DUP3 ADD MSTORE PUSH5 0x207A65726F PUSH1 0xD8 SHL PUSH1 0x64 DUP3 ADD MSTORE PUSH1 0x84 ADD JUMPDEST PUSH1 0x40 MLOAD DUP1 SWAP2 SUB SWAP1 REVERT JUMPDEST PUSH2 0x2EA DUP3 DUP7 DUP7 DUP5 SUB PUSH2 0x3F6 JUMP JUMPDEST PUSH1 0x0 CALLER PUSH2 0x2C7 DUP2 DUP6 DUP6 PUSH2 0x5AC JUMP JUMPDEST PUSH1 0x1 PUSH1 0x1 PUSH1 0xA0 SHL SUB DUP4 AND PUSH2 0x458 JUMPI PUSH1 0x40 MLOAD PUSH3 0x461BCD PUSH1 0xE5 SHL DUP2 MSTORE PUSH1 0x20 PUSH1 0x4 DUP3 ADD MSTORE PUSH1 0x24 DUP1 DUP3 ADD MSTORE PUSH32 0x45524332303A20617070726F76652066726F6D20746865207A65726F20616464 PUSH1 0x44 DUP3 ADD MSTORE PUSH4 0x72657373 PUSH1 0xE0 SHL PUSH1 0x64 DUP3 ADD MSTORE PUSH1 0x84 ADD PUSH2 0x3D2 JUMP JUMPDEST PUSH1 0x1 PUSH1 0x1 PUSH1 0xA0 SHL SUB DUP3 AND PUSH2 0x4B9 JUMPI PUSH1 0x40 MLOAD PUSH3 0x461BCD PUSH1 0xE5 SHL DUP2 MSTORE PUSH1 0x20 PUSH1 0x4 DUP3 ADD MSTORE PUSH1 0x22 PUSH1 0x24 DUP3 ADD MSTORE PUSH32 0x45524332303A20617070726F766520746F20746865207A65726F206164647265 PUSH1 0x44 DUP3 ADD MSTORE PUSH2 0x7373 PUSH1 0xF0 SHL PUSH1 0x64 DUP3 ADD MSTORE PUSH1 0x84 ADD PUSH2 0x3D2 JUMP JUMPDEST PUSH1 0x1 PUSH1 0x1 PUSH1 0xA0 SHL SUB DUP4 DUP2 AND PUSH1 0x0 DUP2 DUP2 MSTORE PUSH1 0x1 PUSH1 0x20 SWAP1 DUP2 MSTORE PUSH1 0x40 DUP1 DUP4 KECCAK256 SWAP5 DUP8 AND DUP1 DUP5 MSTORE SWAP5 DUP3 MSTORE SWAP2 DUP3 SWAP1 KECCAK256 DUP6 SWAP1 SSTORE SWAP1 MLOAD DUP5 DUP2 MSTORE PUSH32 0x8C5BE1E5EBEC7D5BD14F71427D1E84F3DD0314C0F7B2291E5B200AC8C7C3B925 SWAP2 ADD PUSH1 0x40 MLOAD DUP1 SWAP2 SUB SWAP1 LOG3 POP POP POP JUMP JUMPDEST PUSH1 0x1 PUSH1 0x1 PUSH1 0xA0 SHL SUB DUP4 DUP2 AND PUSH1 0x0 SWAP1 DUP2 MSTORE PUSH1 0x1 PUSH1 0x20 SWAP1 DUP2 MSTORE PUSH1 0x40 DUP1 DUP4 KECCAK256 SWAP4 DUP7 AND DUP4 MSTORE SWAP3 SWAP1 MSTORE KECCAK256 SLOAD PUSH1 0x0 NOT DUP2 EQ PUSH2 0x5A6 JUMPI DUP2 DUP2 LT ISZERO PUSH2 0x599 JUMPI PUSH1 0x40 MLOAD PUSH3 0x461BCD PUSH1 0xE5 SHL DUP2 MSTORE PUSH1 0x20 PUSH1 0x4 DUP3 ADD MSTORE PUSH1 0x1D PUSH1 0x24 DUP3 ADD MSTORE PUSH32 0x45524332303A20696E73756666696369656E7420616C6C6F77616E6365000000 PUSH1 0x44 DUP3 ADD MSTORE PUSH1 0x64 ADD PUSH2 0x3D2 JUMP JUMPDEST PUSH2 0x5A6 DUP5 DUP5 DUP5 DUP5 SUB PUSH2 0x3F6 JUMP JUMPDEST POP POP POP POP JUMP JUMPDEST PUSH1 0x1 PUSH1 0x1 PUSH1 0xA0 SHL SUB DUP4 AND PUSH2 0x610 JUMPI PUSH1 0x40 MLOAD PUSH3 0x461BCD PUSH1 0xE5 SHL DUP2 MSTORE PUSH1 0x20 PUSH1 0x4 DUP3 ADD MSTORE PUSH1 0x25 PUSH1 0x24 DUP3 ADD MSTORE PUSH32 0x45524332303A207472616E736665722066726F6D20746865207A65726F206164 PUSH1 0x44 DUP3 ADD MSTORE PUSH5 0x6472657373 PUSH1 0xD8 SHL PUSH1 0x64 DUP3 ADD MSTORE PUSH1 0x84 ADD PUSH2 0x3D2 JUMP JUMPDEST PUSH1 0x1 PUSH1 0x1 PUSH1 0xA0 SHL SUB DUP3 AND PUSH2 0x672 JUMPI PUSH1 0x40 MLOAD PUSH3 0x461BCD PUSH1 0xE5 SHL DUP2 MSTORE PUSH1 0x20 PUSH1 0x4 DUP3 ADD MSTORE PUSH1 0x23 PUSH1 0x24 DUP3 ADD MSTORE PUSH32 0x45524332303A207472616E7366657220746F20746865207A65726F2061646472 PUSH1 0x44 DUP3 ADD MSTORE PUSH3 0x657373 PUSH1 0xE8 SHL PUSH1 0x64 DUP3 ADD MSTORE PUSH1 0x84 ADD PUSH2 0x3D2 JUMP JUMPDEST PUSH1 0x1 PUSH1 0x1 PUSH1 0xA0 SHL SUB DUP4 AND PUSH1 0x0 SWAP1 DUP2 MSTORE PUSH1 0x20 DUP2 SWAP1 MSTORE PUSH1 0x40 SWAP1 KECCAK256 SLOAD DUP2 DUP2 LT ISZERO PUSH2 0x6EA JUMPI PUSH1 0x40 MLOAD PUSH3 0x461BCD PUSH1 0xE5 SHL DUP2 MSTORE PUSH1 0x20 PUSH1 0x4 DUP3 ADD MSTORE PUSH1 0x26 PUSH1 0x24 DUP3 ADD MSTORE PUSH32 0x45524332303A207472616E7366657220616D6F756E7420657863656564732062 PUSH1 0x44 DUP3 ADD MSTORE PUSH6 0x616C616E6365 PUSH1 0xD0 SHL PUSH1 0x64 DUP3 ADD MSTORE PUSH1 0x84 ADD PUSH2 0x3D2 JUMP JUMPDEST PUSH1 0x1 PUSH1 0x1 PUSH1 0xA0 SHL SUB DUP1 DUP6 AND PUSH1 0x0 SWAP1 DUP2 MSTORE PUSH1 0x20 DUP2 SWAP1 MSTORE PUSH1 0x40 DUP1 DUP3 KECCAK256 DUP6 DUP6 SUB SWAP1 SSTORE SWAP2 DUP6 AND DUP2 MSTORE SWAP1 DUP2 KECCAK256 DUP1 SLOAD DUP5 SWAP3 SWAP1 PUSH2 0x721 SWAP1 DUP5 SWAP1 PUSH2 0xA48 JUMP JUMPDEST SWAP3 POP POP DUP2 SWAP1 SSTORE POP DUP3 PUSH1 0x1 PUSH1 0x1 PUSH1 0xA0 SHL SUB AND DUP5 PUSH1 0x1 PUSH1 0x1 PUSH1 0xA0 SHL SUB AND PUSH32 0xDDF252AD1BE2C89B69C2B068FC378DAA952BA7F163C4A11628F55A4DF523B3EF DUP5 PUSH1 0x40 MLOAD PUSH2 0x76D SWAP2 DUP2 MSTORE PUSH1 0x20 ADD SWAP1 JUMP JUMPDEST PUSH1 0x40 MLOAD DUP1 SWAP2 SUB SWAP1 LOG3 PUSH2 0x5A6 JUMP JUMPDEST PUSH32 0x0 DUP2 PUSH2 0x7A5 PUSH1 0x2 SLOAD SWAP1 JUMP JUMPDEST PUSH2 0x7AF SWAP2 SWAP1 PUSH2 0xA48 JUMP JUMPDEST GT ISZERO PUSH2 0x7FD JUMPI PUSH1 0x40 MLOAD PUSH3 0x461BCD PUSH1 0xE5 SHL DUP2 MSTORE PUSH1 0x20 PUSH1 0x4 DUP3 ADD MSTORE PUSH1 0x19 PUSH1 0x24 DUP3 ADD MSTORE PUSH32 0x45524332304361707065643A2063617020657863656564656400000000000000 PUSH1 0x44 DUP3 ADD MSTORE PUSH1 0x64 ADD PUSH2 0x3D2 JUMP JUMPDEST PUSH2 0x33E DUP3 DUP3 PUSH1 0x1 PUSH1 0x1 PUSH1 0xA0 SHL SUB DUP3 AND PUSH2 0x858 JUMPI PUSH1 0x40 MLOAD PUSH3 0x461BCD PUSH1 0xE5 SHL DUP2 MSTORE PUSH1 0x20 PUSH1 0x4 DUP3 ADD MSTORE PUSH1 0x1F PUSH1 0x24 DUP3 ADD MSTORE PUSH32 0x45524332303A206D696E7420746F20746865207A65726F206164647265737300 PUSH1 0x44 DUP3 ADD MSTORE PUSH1 0x64 ADD PUSH2 0x3D2 JUMP JUMPDEST DUP1 PUSH1 0x2 PUSH1 0x0 DUP3 DUP3 SLOAD PUSH2 0x86A SWAP2 SWAP1 PUSH2 0xA48 JUMP JUMPDEST SWAP1 SWAP2 SSTORE POP POP PUSH1 0x1 PUSH1 0x1 PUSH1 0xA0 SHL SUB DUP3 AND PUSH1 0x0 SWAP1 DUP2 MSTORE PUSH1 0x20 DUP2 SWAP1 MSTORE PUSH1 0x40 DUP2 KECCAK256 DUP1 SLOAD DUP4 SWAP3 SWAP1 PUSH2 0x897 SWAP1 DUP5 SWAP1 PUSH2 0xA48 JUMP JUMPDEST SWAP1 SWAP2 SSTORE POP POP PUSH1 0x40 MLOAD DUP2 DUP2 MSTORE PUSH1 0x1 PUSH1 0x1 PUSH1 0xA0 SHL SUB DUP4 AND SWAP1 PUSH1 0x0 SWAP1 PUSH32 0xDDF252AD1BE2C89B69C2B068FC378DAA952BA7F163C4A11628F55A4DF523B3EF SWAP1 PUSH1 0x20 ADD PUSH1 0x40 MLOAD DUP1 SWAP2 SUB SWAP1 LOG3 POP POP JUMP JUMPDEST PUSH1 0x0 PUSH1 0x20 DUP1 DUP4 MSTORE DUP4 MLOAD DUP1 DUP3 DUP6 ADD MSTORE PUSH1 0x0 JUMPDEST DUP2 DUP2 LT ISZERO PUSH2 0x90E JUMPI DUP6 DUP2 ADD DUP4 ADD MLOAD DUP6 DUP3 ADD PUSH1 0x40 ADD MSTORE DUP3 ADD PUSH2 0x8F2 JUMP JUMPDEST DUP2 DUP2 GT ISZERO PUSH2 0x920 JUMPI PUSH1 0x0 PUSH1 0x40 DUP4 DUP8 ADD ADD MSTORE JUMPDEST POP PUSH1 0x1F ADD PUSH1 0x1F NOT AND SWAP3 SWAP1 SWAP3 ADD PUSH1 0x40 ADD SWAP4 SWAP3 POP POP POP JUMP JUMPDEST DUP1 CALLDATALOAD PUSH1 0x1 PUSH1 0x1 PUSH1 0xA0 SHL SUB DUP2 AND DUP2 EQ PUSH2 0x94D JUMPI PUSH1 0x0 DUP1 REVERT JUMPDEST SWAP2 SWAP1 POP JUMP JUMPDEST PUSH1 0x0 DUP1 PUSH1 0x40 DUP4 DUP6 SUB SLT ISZERO PUSH2 0x965 JUMPI PUSH1 0x0 DUP1 REVERT JUMPDEST PUSH2 0x96E DUP4 PUSH2 0x936 JUMP JUMPDEST SWAP5 PUSH1 0x20 SWAP4 SWAP1 SWAP4 ADD CALLDATALOAD SWAP4 POP POP POP JUMP JUMPDEST PUSH1 0x0 DUP1 PUSH1 0x0 PUSH1 0x60 DUP5 DUP7 SUB SLT ISZERO PUSH2 0x991 JUMPI PUSH1 0x0 DUP1 REVERT JUMPDEST PUSH2 0x99A DUP5 PUSH2 0x936 JUMP JUMPDEST SWAP3 POP PUSH2 0x9A8 PUSH1 0x20 DUP6 ADD PUSH2 0x936 JUMP JUMPDEST SWAP2 POP PUSH1 0x40 DUP5 ADD CALLDATALOAD SWAP1 POP SWAP3 POP SWAP3 POP SWAP3 JUMP JUMPDEST PUSH1 0x0 PUSH1 0x20 DUP3 DUP5 SUB SLT ISZERO PUSH2 0x9CA JUMPI PUSH1 0x0 DUP1 REVERT JUMPDEST PUSH2 0x9D3 DUP3 PUSH2 0x936 JUMP JUMPDEST SWAP4 SWAP3 POP POP POP JUMP JUMPDEST PUSH1 0x0 DUP1 PUSH1 0x40 DUP4 DUP6 SUB SLT ISZERO PUSH2 0x9ED JUMPI PUSH1 0x0 DUP1 REVERT JUMPDEST PUSH2 0x9F6 DUP4 PUSH2 0x936 JUMP JUMPDEST SWAP2 POP PUSH2 0xA04 PUSH1 0x20 DUP5 ADD PUSH2 0x936 JUMP JUMPDEST SWAP1 POP SWAP3 POP SWAP3 SWAP1 POP JUMP JUMPDEST PUSH1 0x1 DUP2 DUP2 SHR SWAP1 DUP3 AND DUP1 PUSH2 0xA21 JUMPI PUSH1 0x7F DUP3 AND SWAP2 POP JUMPDEST PUSH1 0x20 DUP3 LT DUP2 EQ ISZERO PUSH2 0xA42 JUMPI PUSH4 0x4E487B71 PUSH1 0xE0 SHL PUSH1 0x0 MSTORE PUSH1 0x22 PUSH1 0x4 MSTORE PUSH1 0x24 PUSH1 0x0 REVERT JUMPDEST POP SWAP2 SWAP1 POP JUMP JUMPDEST PUSH1 0x0 DUP3 NOT DUP3 GT ISZERO PUSH2 0xA69 JUMPI PUSH4 0x4E487B71 PUSH1 0xE0 SHL PUSH1 0x0 MSTORE PUSH1 0x11 PUSH1 0x4 MSTORE PUSH1 0x24 PUSH1 0x0 REVERT JUMPDEST POP ADD SWAP1 JUMP INVALID LOG2 PUSH5 0x6970667358 0x22 SLT KECCAK256 DUP16 SELFDESTRUCT 0x2B ORIGIN 0xF9 0x5D 0x29 CHAINID 0xC3 ADDMOD SWAP1 CHAINID DIFFICULTY SLT 0xC CHAINID 0xFB PUSH3 0x10799D CREATE CHAINID ORIGIN 0xBC NOT CALL SELFDESTRUCT SDIV PUSH16 0x5AF64736F6C634300080C0033000000 ",
  "sha1": "27a8726418b72add89ba18c646cc48bdcb58de4b",
  "source": "// SPDX-License-Identifier: MIT\n\npragma solidity ^0.8.0;\n\nimport \"../token/ERC20/extensions/ERC20Capped.sol\";\n\ncontract ERC20CappedMock is ERC20Capped {\n    constructor(\n        string memory name,\n        string memory symbol,\n        uint256 cap\n    ) ERC20(name, symbol) ERC20Capped(cap) {}\n\n    function mint(address to, uint256 tokenId) public {\n        _mint(to, tokenId);\n    }\n}\n",
  "sourcePath": "contracts/openzeppelin/contracts/mocks/ERC20CappedMock.sol",
  "type": "contract"
}