{
  "abi": [
    {
      "inputs": [
        {
          "internalType": "string",
          "name": "name",
          "type": "string"
        },
        {
          "internalType": "string",
          "name": "symbol",
          "type": "string"
        },
        {
          "internalType": "address",
          "name": "initialAccount",
          "type": "address"
        },
        {
          "internalType": "uint256",
          "name": "initialBalance",
          "type": "uint256"
        }
      ],
      "stateMutability": "nonpayable",
      "type": "constructor"
    },
    {
      "anonymous": false,
      "inputs": [
        {
          "indexed": true,
          "internalType": "address",
          "name": "owner",
          "type": "address"
        },
        {
          "indexed": true,
          "internalType": "address",
          "name": "spender",
          "type": "address"
        },
        {
          "indexed": false,
          "internalType": "uint256",
          "name": "value",
          "type": "uint256"
        }
      ],
      "name": "Approval",
      "type": "event"
    },
    {
      "anonymous": false,
      "inputs": [
        {
          "indexed": false,
          "internalType": "address",
          "name": "account",
          "type": "address"
        }
      ],
      "name": "Paused",
      "type": "event"
    },
    {
      "anonymous": false,
      "inputs": [
        {
          "indexed": true,
          "internalType": "address",
          "name": "from",
          "type": "address"
        },
        {
          "indexed": true,
          "internalType": "address",
          "name": "to",
          "type": "address"
        },
        {
          "indexed": false,
          "internalType": "uint256",
          "name": "value",
          "type": "uint256"
        }
      ],
      "name": "Transfer",
      "type": "event"
    },
    {
      "anonymous": false,
      "inputs": [
        {
          "indexed": false,
          "internalType": "address",
          "name": "account",
          "type": "address"
        }
      ],
      "name": "Unpaused",
      "type": "event"
    },
    {
      "inputs": [
        {
          "internalType": "address",
          "name": "owner",
          "type": "address"
        },
        {
          "internalType": "address",
          "name": "spender",
          "type": "address"
        }
      ],
      "name": "allowance",
      "outputs": [
        {
          "internalType": "uint256",
          "name": "",
          "type": "uint256"
        }
      ],
      "stateMutability": "view",
      "type": "function"
    },
    {
      "inputs": [
        {
          "internalType": "address",
          "name": "spender",
          "type": "address"
        },
        {
          "internalType": "uint256",
          "name": "amount",
          "type": "uint256"
        }
      ],
      "name": "approve",
      "outputs": [
        {
          "internalType": "bool",
          "name": "",
          "type": "bool"
        }
      ],
      "stateMutability": "nonpayable",
      "type": "function"
    },
    {
      "inputs": [
        {
          "internalType": "address",
          "name": "account",
          "type": "address"
        }
      ],
      "name": "balanceOf",
      "outputs": [
        {
          "internalType": "uint256",
          "name": "",
          "type": "uint256"
        }
      ],
      "stateMutability": "view",
      "type": "function"
    },
    {
      "inputs": [
        {
          "internalType": "address",
          "name": "from",
          "type": "address"
        },
        {
          "internalType": "uint256",
          "name": "amount",
          "type": "uint256"
        }
      ],
      "name": "burn",
      "outputs": [],
      "stateMutability": "nonpayable",
      "type": "function"
    },
    {
      "inputs": [],
      "name": "decimals",
      "outputs": [
        {
          "internalType": "uint8",
          "name": "",
          "type": "uint8"
        }
      ],
      "stateMutability": "view",
      "type": "function"
    },
    {
      "inputs": [
        {
          "internalType": "address",
          "name": "spender",
          "type": "address"
        },
        {
          "internalType": "uint256",
          "name": "subtractedValue",
          "type": "uint256"
        }
      ],
      "name": "decreaseAllowance",
      "outputs": [
        {
          "internalType": "bool",
          "name": "",
          "type": "bool"
        }
      ],
      "stateMutability": "nonpayable",
      "type": "function"
    },
    {
      "inputs": [
        {
          "internalType": "address",
          "name": "spender",
          "type": "address"
        },
        {
          "internalType": "uint256",
          "name": "addedValue",
          "type": "uint256"
        }
      ],
      "name": "increaseAllowance",
      "outputs": [
        {
          "internalType": "bool",
          "name": "",
          "type": "bool"
        }
      ],
      "stateMutability": "nonpayable",
      "type": "function"
    },
    {
      "inputs": [
        {
          "internalType": "address",
          "name": "to",
          "type": "address"
        },
        {
          "internalType": "uint256",
          "name": "amount",
          "type": "uint256"
        }
      ],
      "name": "mint",
      "outputs": [],
      "stateMutability": "nonpayable",
      "type": "function"
    },
    {
      "inputs": [],
      "name": "name",
      "outputs": [
        {
          "internalType": "string",
          "name": "",
          "type": "string"
        }
      ],
      "stateMutability": "view",
      "type": "function"
    },
    {
      "inputs": [],
      "name": "pause",
      "outputs": [],
      "stateMutability": "nonpayable",
      "type": "function"
    },
    {
      "inputs": [],
      "name": "paused",
      "outputs": [
        {
          "internalType": "bool",
          "name": "",
          "type": "bool"
        }
      ],
      "stateMutability": "view",
      "type": "function"
    },
    {
      "inputs": [],
      "name": "symbol",
      "outputs": [
        {
          "internalType": "string",
          "name": "",
          "type": "string"
        }
      ],
      "stateMutability": "view",
      "type": "function"
    },
    {
      "inputs": [],
      "name": "totalSupply",
      "outputs": [
        {
          "internalType": "uint256",
          "name": "",
          "type": "uint256"
        }
      ],
      "stateMutability": "view",
      "type": "function"
    },
    {
      "inputs": [
        {
          "internalType": "address",
          "name": "to",
          "type": "address"
        },
        {
          "internalType": "uint256",
          "name": "amount",
          "type": "uint256"
        }
      ],
      "name": "transfer",
      "outputs": [
        {
          "internalType": "bool",
          "name": "",
          "type": "bool"
        }
      ],
      "stateMutability": "nonpayable",
      "type": "function"
    },
    {
      "inputs": [
        {
          "internalType": "address",
          "name": "from",
          "type": "address"
        },
        {
          "internalType": "address",
          "name": "to",
          "type": "address"
        },
        {
          "internalType": "uint256",
          "name": "amount",
          "type": "uint256"
        }
      ],
      "name": "transferFrom",
      "outputs": [
        {
          "internalType": "bool",
          "name": "",
          "type": "bool"
        }
      ],
      "stateMutability": "nonpayable",
      "type": "function"
    },
    {
      "inputs": [],
      "name": "unpause",
      "outputs": [],
      "stateMutability": "nonpayable",
      "type": "function"
    }
  ],
  "bytecode": "60806040523480156200001157600080fd5b50604051620011f6380380620011f6833981016040819052620000349162000375565b8351849084906200004d90600390602085019062000202565b5080516200006390600490602084019062000202565b50506005805460ff19169055506200007c828262000086565b505050506200046c565b6001600160a01b038216620000e25760405162461bcd60e51b815260206004820152601f60248201527f45524332303a206d696e7420746f20746865207a65726f20616464726573730060448201526064015b60405180910390fd5b620000f0600083836200017d565b806002600082825462000104919062000408565b90915550506001600160a01b038216600090815260208190526040812080548392906200013390849062000408565b90915550506040518181526001600160a01b038316906000907fddf252ad1be2c89b69c2b068fc378daa952ba7f163c4a11628f55a4df523b3ef9060200160405180910390a35050565b62000195838383620001fd60201b6200044b1760201c565b60055460ff1615620001fd5760405162461bcd60e51b815260206004820152602a60248201527f45524332305061757361626c653a20746f6b656e207472616e736665722077686044820152691a5b19481c185d5cd95960b21b6064820152608401620000d9565b505050565b82805462000210906200042f565b90600052602060002090601f0160209004810192826200023457600085556200027f565b82601f106200024f57805160ff19168380011785556200027f565b828001600101855582156200027f579182015b828111156200027f57825182559160200191906001019062000262565b506200028d92915062000291565b5090565b5b808211156200028d576000815560010162000292565b634e487b7160e01b600052604160045260246000fd5b600082601f830112620002d057600080fd5b81516001600160401b0380821115620002ed57620002ed620002a8565b604051601f8301601f19908116603f01168101908282118183101715620003185762000318620002a8565b816040528381526020925086838588010111156200033557600080fd5b600091505b838210156200035957858201830151818301840152908201906200033a565b838211156200036b5760008385830101525b9695505050505050565b600080600080608085870312156200038c57600080fd5b84516001600160401b0380821115620003a457600080fd5b620003b288838901620002be565b95506020870151915080821115620003c957600080fd5b50620003d887828801620002be565b604087015190945090506001600160a01b0381168114620003f857600080fd5b6060959095015193969295505050565b600082198211156200042a57634e487b7160e01b600052601160045260246000fd5b500190565b600181811c908216806200044457607f821691505b602082108114156200046657634e487b7160e01b600052602260045260246000fd5b50919050565b610d7a806200047c6000396000f3fe608060405234801561001057600080fd5b50600436106101005760003560e01c80635c975abb116100975780639dc29fac116100665780639dc29fac146101ee578063a457c2d714610201578063a9059cbb14610214578063dd62ed3e1461022757600080fd5b80635c975abb146101aa57806370a08231146101b55780638456cb59146101de57806395d89b41146101e657600080fd5b8063313ce567116100d3578063313ce5671461016b578063395093511461017a5780633f4ba83a1461018d57806340c10f191461019757600080fd5b806306fdde0314610105578063095ea7b31461012357806318160ddd1461014657806323b872dd14610158575b600080fd5b61010d610260565b60405161011a9190610b98565b60405180910390f35b610136610131366004610c09565b6102f2565b604051901515815260200161011a565b6002545b60405190815260200161011a565b610136610166366004610c33565b61030a565b6040516012815260200161011a565b610136610188366004610c09565b61032e565b61019561036d565b005b6101956101a5366004610c09565b610377565b60055460ff16610136565b61014a6101c3366004610c6f565b6001600160a01b031660009081526020819052604090205490565b610195610385565b61010d61038d565b6101956101fc366004610c09565b61039c565b61013661020f366004610c09565b6103a6565b610136610222366004610c09565b61043d565b61014a610235366004610c91565b6001600160a01b03918216600090815260016020908152604080832093909416825291909152205490565b60606003805461026f90610cc4565b80601f016020809104026020016040519081016040528092919081815260200182805461029b90610cc4565b80156102e85780601f106102bd576101008083540402835291602001916102e8565b820191906000526020600020905b8154815290600101906020018083116102cb57829003601f168201915b5050505050905090565b600033610300818585610450565b5060019392505050565b600033610318858285610574565b610323858585610606565b506001949350505050565b3360008181526001602090815260408083206001600160a01b03871684529091528120549091906103009082908690610368908790610d15565b610450565b6103756107df565b565b6103818282610872565b5050565b61037561095d565b60606004805461026f90610cc4565b61038182826109d8565b3360008181526001602090815260408083206001600160a01b0387168452909152812054909190838110156104305760405162461bcd60e51b815260206004820152602560248201527f45524332303a2064656372656173656420616c6c6f77616e63652062656c6f77604482015264207a65726f60d81b60648201526084015b60405180910390fd5b6103238286868403610450565b600033610300818585610606565b505050565b6001600160a01b0383166104b25760405162461bcd60e51b8152602060048201526024808201527f45524332303a20617070726f76652066726f6d20746865207a65726f206164646044820152637265737360e01b6064820152608401610427565b6001600160a01b0382166105135760405162461bcd60e51b815260206004820152602260248201527f45524332303a20617070726f766520746f20746865207a65726f206164647265604482015261737360f01b6064820152608401610427565b6001600160a01b0383811660008181526001602090815260408083209487168084529482529182902085905590518481527f8c5be1e5ebec7d5bd14f71427d1e84f3dd0314c0f7b2291e5b200ac8c7c3b925910160405180910390a3505050565b6001600160a01b03838116600090815260016020908152604080832093861683529290522054600019811461060057818110156105f35760405162461bcd60e51b815260206004820152601d60248201527f45524332303a20696e73756666696369656e7420616c6c6f77616e63650000006044820152606401610427565b6106008484848403610450565b50505050565b6001600160a01b03831661066a5760405162461bcd60e51b815260206004820152602560248201527f45524332303a207472616e736665722066726f6d20746865207a65726f206164604482015264647265737360d81b6064820152608401610427565b6001600160a01b0382166106cc5760405162461bcd60e51b815260206004820152602360248201527f45524332303a207472616e7366657220746f20746865207a65726f206164647260448201526265737360e81b6064820152608401610427565b6106d7838383610b32565b6001600160a01b0383166000908152602081905260409020548181101561074f5760405162461bcd60e51b815260206004820152602660248201527f45524332303a207472616e7366657220616d6f756e7420657863656564732062604482015265616c616e636560d01b6064820152608401610427565b6001600160a01b03808516600090815260208190526040808220858503905591851681529081208054849290610786908490610d15565b92505081905550826001600160a01b0316846001600160a01b03167fddf252ad1be2c89b69c2b068fc378daa952ba7f163c4a11628f55a4df523b3ef846040516107d291815260200190565b60405180910390a3610600565b60055460ff166108285760405162461bcd60e51b815260206004820152601460248201527314185d5cd8589b194e881b9bdd081c185d5cd95960621b6044820152606401610427565b6005805460ff191690557f5db9ee0a495bf2e6ff9c91a7834c1ba4fdd244a5e8aa4e537bd38aeae4b073aa335b6040516001600160a01b03909116815260200160405180910390a1565b6001600160a01b0382166108c85760405162461bcd60e51b815260206004820152601f60248201527f45524332303a206d696e7420746f20746865207a65726f2061646472657373006044820152606401610427565b6108d460008383610b32565b80600260008282546108e69190610d15565b90915550506001600160a01b03821660009081526020819052604081208054839290610913908490610d15565b90915550506040518181526001600160a01b038316906000907fddf252ad1be2c89b69c2b068fc378daa952ba7f163c4a11628f55a4df523b3ef9060200160405180910390a35050565b60055460ff16156109a35760405162461bcd60e51b815260206004820152601060248201526f14185d5cd8589b194e881c185d5cd95960821b6044820152606401610427565b6005805460ff191660011790557f62e78cea01bee320cd4e420270b5ea74000d11b0c9f74754ebdbfc544b05a2586108553390565b6001600160a01b038216610a385760405162461bcd60e51b815260206004820152602160248201527f45524332303a206275726e2066726f6d20746865207a65726f206164647265736044820152607360f81b6064820152608401610427565b610a4482600083610b32565b6001600160a01b03821660009081526020819052604090205481811015610ab85760405162461bcd60e51b815260206004820152602260248201527f45524332303a206275726e20616d6f756e7420657863656564732062616c616e604482015261636560f01b6064820152608401610427565b6001600160a01b0383166000908152602081905260408120838303905560028054849290610ae7908490610d2d565b90915550506040518281526000906001600160a01b038516907fddf252ad1be2c89b69c2b068fc378daa952ba7f163c4a11628f55a4df523b3ef9060200160405180910390a3505050565b60055460ff161561044b5760405162461bcd60e51b815260206004820152602a60248201527f45524332305061757361626c653a20746f6b656e207472616e736665722077686044820152691a5b19481c185d5cd95960b21b6064820152608401610427565b600060208083528351808285015260005b81811015610bc557858101830151858201604001528201610ba9565b81811115610bd7576000604083870101525b50601f01601f1916929092016040019392505050565b80356001600160a01b0381168114610c0457600080fd5b919050565b60008060408385031215610c1c57600080fd5b610c2583610bed565b946020939093013593505050565b600080600060608486031215610c4857600080fd5b610c5184610bed565b9250610c5f60208501610bed565b9150604084013590509250925092565b600060208284031215610c8157600080fd5b610c8a82610bed565b9392505050565b60008060408385031215610ca457600080fd5b610cad83610bed565b9150610cbb60208401610bed565b90509250929050565b600181811c90821680610cd857607f821691505b60208210811415610cf957634e487b7160e01b600052602260045260246000fd5b50919050565b634e487b7160e01b600052601160045260246000fd5b60008219821115610d2857610d28610cff565b500190565b600082821015610d3f57610d3f610cff565b50039056fea26469706673582212209d6028aecf83a512cc77d54c6dee17c1238e3364dfee76c55bc665b8a4b29bf264736f6c634300080c0033",
  "bytecodeSha1": "82db17fff23b3e6713a17d18cc605df830d299f4",
  "compiler": {
    "evm_version": "istanbul",
    "optimizer": {
      "enabled": true,
      "runs": 200
    },
    "version": "0.8.12+commit.f00d7308"
  },
  "contractName": "ERC20PausableMock",
  "language": "Solidity",
  "natspec": {
    "kind": "dev",
    "methods": {
      "allowance(address,address)": {
        "details": "See {IERC20-allowance}."
      },
      "approve(address,uint256)": {
        "details": "See {IERC20-approve}. NOTE: If `amount` is the maximum `uint256`, the allowance is not updated on `transferFrom`. This is semantically equivalent to an infinite approval. Requirements: - `spender` cannot be the zero address."
      },
      "balanceOf(address)": {
        "details": "See {IERC20-balanceOf}."
      },
      "decimals()": {
        "details": "Returns the number of decimals used to get its user representation. For example, if `decimals` equals `2`, a balance of `505` tokens should be displayed to a user as `5.05` (`505 / 10 ** 2`). Tokens usually opt for a value of 18, imitating the relationship between Ether and Wei. This is the value {ERC20} uses, unless this function is overridden; NOTE: This information is only used for _display_ purposes: it in no way affects any of the arithmetic of the contract, including {IERC20-balanceOf} and {IERC20-transfer}."
      },
      "decreaseAllowance(address,uint256)": {
        "details": "Atomically decreases the allowance granted to `spender` by the caller. This is an alternative to {approve} that can be used as a mitigation for problems described in {IERC20-approve}. Emits an {Approval} event indicating the updated allowance. Requirements: - `spender` cannot be the zero address. - `spender` must have allowance for the caller of at least `subtractedValue`."
      },
      "increaseAllowance(address,uint256)": {
        "details": "Atomically increases the allowance granted to `spender` by the caller. This is an alternative to {approve} that can be used as a mitigation for problems described in {IERC20-approve}. Emits an {Approval} event indicating the updated allowance. Requirements: - `spender` cannot be the zero address."
      },
      "name()": {
        "details": "Returns the name of the token."
      },
      "paused()": {
        "details": "Returns true if the contract is paused, and false otherwise."
      },
      "symbol()": {
        "details": "Returns the symbol of the token, usually a shorter version of the name."
      },
      "totalSupply()": {
        "details": "See {IERC20-totalSupply}."
      },
      "transfer(address,uint256)": {
        "details": "See {IERC20-transfer}. Requirements: - `to` cannot be the zero address. - the caller must have a balance of at least `amount`."
      },
      "transferFrom(address,address,uint256)": {
        "details": "See {IERC20-transferFrom}. Emits an {Approval} event indicating the updated allowance. This is not required by the EIP. See the note at the beginning of {ERC20}. NOTE: Does not update the allowance if the current allowance is the maximum `uint256`. Requirements: - `from` and `to` cannot be the zero address. - `from` must have a balance of at least `amount`. - the caller must have allowance for ``from``'s tokens of at least `amount`."
      }
    },
    "version": 1
  },
  "opcodes": "PUSH1 0x80 PUSH1 0x40 MSTORE CALLVALUE DUP1 ISZERO PUSH2 0x10 JUMPI PUSH1 0x0 DUP1 REVERT JUMPDEST POP PUSH1 0x4 CALLDATASIZE LT PUSH2 0x100 JUMPI PUSH1 0x0 CALLDATALOAD PUSH1 0xE0 SHR DUP1 PUSH4 0x5C975ABB GT PUSH2 0x97 JUMPI DUP1 PUSH4 0x9DC29FAC GT PUSH2 0x66 JUMPI DUP1 PUSH4 0x9DC29FAC EQ PUSH2 0x1EE JUMPI DUP1 PUSH4 0xA457C2D7 EQ PUSH2 0x201 JUMPI DUP1 PUSH4 0xA9059CBB EQ PUSH2 0x214 JUMPI DUP1 PUSH4 0xDD62ED3E EQ PUSH2 0x227 JUMPI PUSH1 0x0 DUP1 REVERT JUMPDEST DUP1 PUSH4 0x5C975ABB EQ PUSH2 0x1AA JUMPI DUP1 PUSH4 0x70A08231 EQ PUSH2 0x1B5 JUMPI DUP1 PUSH4 0x8456CB59 EQ PUSH2 0x1DE JUMPI DUP1 PUSH4 0x95D89B41 EQ PUSH2 0x1E6 JUMPI PUSH1 0x0 DUP1 REVERT JUMPDEST DUP1 PUSH4 0x313CE567 GT PUSH2 0xD3 JUMPI DUP1 PUSH4 0x313CE567 EQ PUSH2 0x16B JUMPI DUP1 PUSH4 0x39509351 EQ PUSH2 0x17A JUMPI DUP1 PUSH4 0x3F4BA83A EQ PUSH2 0x18D JUMPI DUP1 PUSH4 0x40C10F19 EQ PUSH2 0x197 JUMPI PUSH1 0x0 DUP1 REVERT JUMPDEST DUP1 PUSH4 0x6FDDE03 EQ PUSH2 0x105 JUMPI DUP1 PUSH4 0x95EA7B3 EQ PUSH2 0x123 JUMPI DUP1 PUSH4 0x18160DDD EQ PUSH2 0x146 JUMPI DUP1 PUSH4 0x23B872DD EQ PUSH2 0x158 JUMPI JUMPDEST PUSH1 0x0 DUP1 REVERT JUMPDEST PUSH2 0x10D PUSH2 0x260 JUMP JUMPDEST PUSH1 0x40 MLOAD PUSH2 0x11A SWAP2 SWAP1 PUSH2 0xB98 JUMP JUMPDEST PUSH1 0x40 MLOAD DUP1 SWAP2 SUB SWAP1 RETURN JUMPDEST PUSH2 0x136 PUSH2 0x131 CALLDATASIZE PUSH1 0x4 PUSH2 0xC09 JUMP JUMPDEST PUSH2 0x2F2 JUMP JUMPDEST PUSH1 0x40 MLOAD SWAP1 ISZERO ISZERO DUP2 MSTORE PUSH1 0x20 ADD PUSH2 0x11A JUMP JUMPDEST PUSH1 0x2 SLOAD JUMPDEST PUSH1 0x40 MLOAD SWAP1 DUP2 MSTORE PUSH1 0x20 ADD PUSH2 0x11A JUMP JUMPDEST PUSH2 0x136 PUSH2 0x166 CALLDATASIZE PUSH1 0x4 PUSH2 0xC33 JUMP JUMPDEST PUSH2 0x30A JUMP JUMPDEST PUSH1 0x40 MLOAD PUSH1 0x12 DUP2 MSTORE PUSH1 0x20 ADD PUSH2 0x11A JUMP JUMPDEST PUSH2 0x136 PUSH2 0x188 CALLDATASIZE PUSH1 0x4 PUSH2 0xC09 JUMP JUMPDEST PUSH2 0x32E JUMP JUMPDEST PUSH2 0x195 PUSH2 0x36D JUMP JUMPDEST STOP JUMPDEST PUSH2 0x195 PUSH2 0x1A5 CALLDATASIZE PUSH1 0x4 PUSH2 0xC09 JUMP JUMPDEST PUSH2 0x377 JUMP JUMPDEST PUSH1 0x5 SLOAD PUSH1 0xFF AND PUSH2 0x136 JUMP JUMPDEST PUSH2 0x14A PUSH2 0x1C3 CALLDATASIZE PUSH1 0x4 PUSH2 0xC6F JUMP JUMPDEST PUSH1 0x1 PUSH1 0x1 PUSH1 0xA0 SHL SUB AND PUSH1 0x0 SWAP1 DUP2 MSTORE PUSH1 0x20 DUP2 SWAP1 MSTORE PUSH1 0x40 SWAP1 KECCAK256 SLOAD SWAP1 JUMP JUMPDEST PUSH2 0x195 PUSH2 0x385 JUMP JUMPDEST PUSH2 0x10D PUSH2 0x38D JUMP JUMPDEST PUSH2 0x195 PUSH2 0x1FC CALLDATASIZE PUSH1 0x4 PUSH2 0xC09 JUMP JUMPDEST PUSH2 0x39C JUMP JUMPDEST PUSH2 0x136 PUSH2 0x20F CALLDATASIZE PUSH1 0x4 PUSH2 0xC09 JUMP JUMPDEST PUSH2 0x3A6 JUMP JUMPDEST PUSH2 0x136 PUSH2 0x222 CALLDATASIZE PUSH1 0x4 PUSH2 0xC09 JUMP JUMPDEST PUSH2 0x43D JUMP JUMPDEST PUSH2 0x14A PUSH2 0x235 CALLDATASIZE PUSH1 0x4 PUSH2 0xC91 JUMP JUMPDEST PUSH1 0x1 PUSH1 0x1 PUSH1 0xA0 SHL SUB SWAP2 DUP3 AND PUSH1 0x0 SWAP1 DUP2 MSTORE PUSH1 0x1 PUSH1 0x20 SWAP1 DUP2 MSTORE PUSH1 0x40 DUP1 DUP4 KECCAK256 SWAP4 SWAP1 SWAP5 AND DUP3 MSTORE SWAP2 SWAP1 SWAP2 MSTORE KECCAK256 SLOAD SWAP1 JUMP JUMPDEST PUSH1 0x60 PUSH1 0x3 DUP1 SLOAD PUSH2 0x26F SWAP1 PUSH2 0xCC4 JUMP JUMPDEST DUP1 PUSH1 0x1F ADD PUSH1 0x20 DUP1 SWAP2 DIV MUL PUSH1 0x20 ADD PUSH1 0x40 MLOAD SWAP1 DUP2 ADD PUSH1 0x40 MSTORE DUP1 SWAP3 SWAP2 SWAP1 DUP2 DUP2 MSTORE PUSH1 0x20 ADD DUP3 DUP1 SLOAD PUSH2 0x29B SWAP1 PUSH2 0xCC4 JUMP JUMPDEST DUP1 ISZERO PUSH2 0x2E8 JUMPI DUP1 PUSH1 0x1F LT PUSH2 0x2BD JUMPI PUSH2 0x100 DUP1 DUP4 SLOAD DIV MUL DUP4 MSTORE SWAP2 PUSH1 0x20 ADD SWAP2 PUSH2 0x2E8 JUMP JUMPDEST DUP3 ADD SWAP2 SWAP1 PUSH1 0x0 MSTORE PUSH1 0x20 PUSH1 0x0 KECCAK256 SWAP1 JUMPDEST DUP2 SLOAD DUP2 MSTORE SWAP1 PUSH1 0x1 ADD SWAP1 PUSH1 0x20 ADD DUP1 DUP4 GT PUSH2 0x2CB JUMPI DUP3 SWAP1 SUB PUSH1 0x1F AND DUP3 ADD SWAP2 JUMPDEST POP POP POP POP POP SWAP1 POP SWAP1 JUMP JUMPDEST PUSH1 0x0 CALLER PUSH2 0x300 DUP2 DUP6 DUP6 PUSH2 0x450 JUMP JUMPDEST POP PUSH1 0x1 SWAP4 SWAP3 POP POP POP JUMP JUMPDEST PUSH1 0x0 CALLER PUSH2 0x318 DUP6 DUP3 DUP6 PUSH2 0x574 JUMP JUMPDEST PUSH2 0x323 DUP6 DUP6 DUP6 PUSH2 0x606 JUMP JUMPDEST POP PUSH1 0x1 SWAP5 SWAP4 POP POP POP POP JUMP JUMPDEST CALLER PUSH1 0x0 DUP2 DUP2 MSTORE PUSH1 0x1 PUSH1 0x20 SWAP1 DUP2 MSTORE PUSH1 0x40 DUP1 DUP4 KECCAK256 PUSH1 0x1 PUSH1 0x1 PUSH1 0xA0 SHL SUB DUP8 AND DUP5 MSTORE SWAP1 SWAP2 MSTORE DUP2 KECCAK256 SLOAD SWAP1 SWAP2 SWAP1 PUSH2 0x300 SWAP1 DUP3 SWAP1 DUP7 SWAP1 PUSH2 0x368 SWAP1 DUP8 SWAP1 PUSH2 0xD15 JUMP JUMPDEST PUSH2 0x450 JUMP JUMPDEST PUSH2 0x375 PUSH2 0x7DF JUMP JUMPDEST JUMP JUMPDEST PUSH2 0x381 DUP3 DUP3 PUSH2 0x872 JUMP JUMPDEST POP POP JUMP JUMPDEST PUSH2 0x375 PUSH2 0x95D JUMP JUMPDEST PUSH1 0x60 PUSH1 0x4 DUP1 SLOAD PUSH2 0x26F SWAP1 PUSH2 0xCC4 JUMP JUMPDEST PUSH2 0x381 DUP3 DUP3 PUSH2 0x9D8 JUMP JUMPDEST CALLER PUSH1 0x0 DUP2 DUP2 MSTORE PUSH1 0x1 PUSH1 0x20 SWAP1 DUP2 MSTORE PUSH1 0x40 DUP1 DUP4 KECCAK256 PUSH1 0x1 PUSH1 0x1 PUSH1 0xA0 SHL SUB DUP8 AND DUP5 MSTORE SWAP1 SWAP2 MSTORE DUP2 KECCAK256 SLOAD SWAP1 SWAP2 SWAP1 DUP4 DUP2 LT ISZERO PUSH2 0x430 JUMPI PUSH1 0x40 MLOAD PUSH3 0x461BCD PUSH1 0xE5 SHL DUP2 MSTORE PUSH1 0x20 PUSH1 0x4 DUP3 ADD MSTORE PUSH1 0x25 PUSH1 0x24 DUP3 ADD MSTORE PUSH32 0x45524332303A2064656372656173656420616C6C6F77616E63652062656C6F77 PUSH1 0x44 DUP3 ADD MSTORE PUSH5 0x207A65726F PUSH1 0xD8 SHL PUSH1 0x64 DUP3 ADD MSTORE PUSH1 0x84 ADD JUMPDEST PUSH1 0x40 MLOAD DUP1 SWAP2 SUB SWAP1 REVERT JUMPDEST PUSH2 0x323 DUP3 DUP7 DUP7 DUP5 SUB PUSH2 0x450 JUMP JUMPDEST PUSH1 0x0 CALLER PUSH2 0x300 DUP2 DUP6 DUP6 PUSH2 0x606 JUMP JUMPDEST POP POP POP JUMP JUMPDEST PUSH1 0x1 PUSH1 0x1 PUSH1 0xA0 SHL SUB DUP4 AND PUSH2 0x4B2 JUMPI PUSH1 0x40 MLOAD PUSH3 0x461BCD PUSH1 0xE5 SHL DUP2 MSTORE PUSH1 0x20 PUSH1 0x4 DUP3 ADD MSTORE PUSH1 0x24 DUP1 DUP3 ADD MSTORE PUSH32 0x45524332303A20617070726F76652066726F6D20746865207A65726F20616464 PUSH1 0x44 DUP3 ADD MSTORE PUSH4 0x72657373 PUSH1 0xE0 SHL PUSH1 0x64 DUP3 ADD MSTORE PUSH1 0x84 ADD PUSH2 0x427 JUMP JUMPDEST PUSH1 0x1 PUSH1 0x1 PUSH1 0xA0 SHL SUB DUP3 AND PUSH2 0x513 JUMPI PUSH1 0x40 MLOAD PUSH3 0x461BCD PUSH1 0xE5 SHL DUP2 MSTORE PUSH1 0x20 PUSH1 0x4 DUP3 ADD MSTORE PUSH1 0x22 PUSH1 0x24 DUP3 ADD MSTORE PUSH32 0x45524332303A20617070726F766520746F20746865207A65726F206164647265 PUSH1 0x44 DUP3 ADD MSTORE PUSH2 0x7373 PUSH1 0xF0 SHL PUSH1 0x64 DUP3 ADD MSTORE PUSH1 0x84 ADD PUSH2 0x427 JUMP JUMPDEST PUSH1 0x1 PUSH1 0x1 PUSH1 0xA0 SHL SUB DUP4 DUP2 AND PUSH1 0x0 DUP2 DUP2 MSTORE PUSH1 0x1 PUSH1 0x20 SWAP1 DUP2 MSTORE PUSH1 0x40 DUP1 DUP4 KECCAK256 SWAP5 DUP8 AND DUP1 DUP5 MSTORE SWAP5 DUP3 MSTORE SWAP2 DUP3 SWAP1 KECCAK256 DUP6 SWAP1 SSTORE SWAP1 MLOAD DUP5 DUP2 MSTORE PUSH32 0x8C5BE1E5EBEC7D5BD14F71427D1E84F3DD0314C0F7B2291E5B200AC8C7C3B925 SWAP2 ADD PUSH1 0x40 MLOAD DUP1 SWAP2 SUB SWAP1 LOG3 POP POP POP JUMP JUMPDEST PUSH1 0x1 PUSH1 0x1 PUSH1 0xA0 SHL SUB DUP4 DUP2 AND PUSH1 0x0 SWAP1 DUP2 MSTORE PUSH1 0x1 PUSH1 0x20 SWAP1 DUP2 MSTORE PUSH1 0x40 DUP1 DUP4 KECCAK256 SWAP4 DUP7 AND DUP4 MSTORE SWAP3 SWAP1 MSTORE KECCAK256 SLOAD PUSH1 0x0 NOT DUP2 EQ PUSH2 0x600 JUMPI DUP2 DUP2 LT ISZERO PUSH2 0x5F3 JUMPI PUSH1 0x40 MLOAD PUSH3 0x461BCD PUSH1 0xE5 SHL DUP2 MSTORE PUSH1 0x20 PUSH1 0x4 DUP3 ADD MSTORE PUSH1 0x1D PUSH1 0x24 DUP3 ADD MSTORE PUSH32 0x45524332303A20696E73756666696369656E7420616C6C6F77616E6365000000 PUSH1 0x44 DUP3 ADD MSTORE PUSH1 0x64 ADD PUSH2 0x427 JUMP JUMPDEST PUSH2 0x600 DUP5 DUP5 DUP5 DUP5 SUB PUSH2 0x450 JUMP JUMPDEST POP POP POP POP JUMP JUMPDEST PUSH1 0x1 PUSH1 0x1 PUSH1 0xA0 SHL SUB DUP4 AND PUSH2 0x66A JUMPI PUSH1 0x40 MLOAD PUSH3 0x461BCD PUSH1 0xE5 SHL DUP2 MSTORE PUSH1 0x20 PUSH1 0x4 DUP3 ADD MSTORE PUSH1 0x25 PUSH1 0x24 DUP3 ADD MSTORE PUSH32 0x45524332303A207472616E736665722066726F6D20746865207A65726F206164 PUSH1 0x44 DUP3 ADD MSTORE PUSH5 0x6472657373 PUSH1 0xD8 SHL PUSH1 0x64 DUP3 ADD MSTORE PUSH1 0x84 ADD PUSH2 0x427 JUMP JUMPDEST PUSH1 0x1 PUSH1 0x1 PUSH1 0xA0 SHL SUB DUP3 AND PUSH2 0x6CC JUMPI PUSH1 0x40 MLOAD PUSH3 0x461BCD PUSH1 0xE5 SHL DUP2 MSTORE PUSH1 0x20 PUSH1 0x4 DUP3 ADD MSTORE PUSH1 0x23 PUSH1 0x24 DUP3 ADD MSTORE PUSH32 0x45524332303A207472616E7366657220746F20746865207A65726F2061646472 PUSH1 0x44 DUP3 ADD MSTORE PUSH3 0x657373 PUSH1 0xE8 SHL PUSH1 0x64 DUP3 ADD MSTORE PUSH1 0x84 ADD PUSH2 0x427 JUMP JUMPDEST PUSH2 0x6D7 DUP4 DUP4 DUP4 PUSH2 0xB32 JUMP JUMPDEST PUSH1 0x1 PUSH1 0x1 PUSH1 0xA0 SHL SUB DUP4 AND PUSH1 0x0 SWAP1 DUP2 MSTORE PUSH1 0x20 DUP2 SWAP1 MSTORE PUSH1 0x40 SWAP1 KECCAK256 SLOAD DUP2 DUP2 LT ISZERO PUSH2 0x74F JUMPI PUSH1 0x40 MLOAD PUSH3 0x461BCD PUSH1 0xE5 SHL DUP2 MSTORE PUSH1 0x20 PUSH1 0x4 DUP3 ADD MSTORE PUSH1 0x26 PUSH1 0x24 DUP3 ADD MSTORE PUSH32 0x45524332303A207472616E7366657220616D6F756E7420657863656564732062 PUSH1 0x44 DUP3 ADD MSTORE PUSH6 0x616C616E6365 PUSH1 0xD0 SHL PUSH1 0x64 DUP3 ADD MSTORE PUSH1 0x84 ADD PUSH2 0x427 JUMP JUMPDEST PUSH1 0x1 PUSH1 0x1 PUSH1 0xA0 SHL SUB DUP1 DUP6 AND PUSH1 0x0 SWAP1 DUP2 MSTORE PUSH1 0x20 DUP2 SWAP1 MSTORE PUSH1 0x40 DUP1 DUP3 KECCAK256 DUP6 DUP6 SUB SWAP1 SSTORE SWAP2 DUP6 AND DUP2 MSTORE SWAP1 DUP2 KECCAK256 DUP1 SLOAD DUP5 SWAP3 SWAP1 PUSH2 0x786 SWAP1 DUP5 SWAP1 PUSH2 0xD15 JUMP JUMPDEST SWAP3 POP POP DUP2 SWAP1 SSTORE POP DUP3 PUSH1 0x1 PUSH1 0x1 PUSH1 0xA0 SHL SUB AND DUP5 PUSH1 0x1 PUSH1 0x1 PUSH1 0xA0 SHL SUB AND PUSH32 0xDDF252AD1BE2C89B69C2B068FC378DAA952BA7F163C4A11628F55A4DF523B3EF DUP5 PUSH1 0x40 MLOAD PUSH2 0x7D2 SWAP2 DUP2 MSTORE PUSH1 0x20 ADD SWAP1 JUMP JUMPDEST PUSH1 0x40 MLOAD DUP1 SWAP2 SUB SWAP1 LOG3 PUSH2 0x600 JUMP JUMPDEST PUSH1 0x5 SLOAD PUSH1 0xFF AND PUSH2 0x828 JUMPI PUSH1 0x40 MLOAD PUSH3 0x461BCD PUSH1 0xE5 SHL DUP2 MSTORE PUSH1 0x20 PUSH1 0x4 DUP3 ADD MSTORE PUSH1 0x14 PUSH1 0x24 DUP3 ADD MSTORE PUSH20 0x14185D5CD8589B194E881B9BDD081C185D5CD959 PUSH1 0x62 SHL PUSH1 0x44 DUP3 ADD MSTORE PUSH1 0x64 ADD PUSH2 0x427 JUMP JUMPDEST PUSH1 0x5 DUP1 SLOAD PUSH1 0xFF NOT AND SWAP1 SSTORE PUSH32 0x5DB9EE0A495BF2E6FF9C91A7834C1BA4FDD244A5E8AA4E537BD38AEAE4B073AA CALLER JUMPDEST PUSH1 0x40 MLOAD PUSH1 0x1 PUSH1 0x1 PUSH1 0xA0 SHL SUB SWAP1 SWAP2 AND DUP2 MSTORE PUSH1 0x20 ADD PUSH1 0x40 MLOAD DUP1 SWAP2 SUB SWAP1 LOG1 JUMP JUMPDEST PUSH1 0x1 PUSH1 0x1 PUSH1 0xA0 SHL SUB DUP3 AND PUSH2 0x8C8 JUMPI PUSH1 0x40 MLOAD PUSH3 0x461BCD PUSH1 0xE5 SHL DUP2 MSTORE PUSH1 0x20 PUSH1 0x4 DUP3 ADD MSTORE PUSH1 0x1F PUSH1 0x24 DUP3 ADD MSTORE PUSH32 0x45524332303A206D696E7420746F20746865207A65726F206164647265737300 PUSH1 0x44 DUP3 ADD MSTORE PUSH1 0x64 ADD PUSH2 0x427 JUMP JUMPDEST PUSH2 0x8D4 PUSH1 0x0 DUP4 DUP4 PUSH2 0xB32 JUMP JUMPDEST DUP1 PUSH1 0x2 PUSH1 0x0 DUP3 DUP3 SLOAD PUSH2 0x8E6 SWAP2 SWAP1 PUSH2 0xD15 JUMP JUMPDEST SWAP1 SWAP2 SSTORE POP POP PUSH1 0x1 PUSH1 0x1 PUSH1 0xA0 SHL SUB DUP3 AND PUSH1 0x0 SWAP1 DUP2 MSTORE PUSH1 0x20 DUP2 SWAP1 MSTORE PUSH1 0x40 DUP2 KECCAK256 DUP1 SLOAD DUP4 SWAP3 SWAP1 PUSH2 0x913 SWAP1 DUP5 SWAP1 PUSH2 0xD15 JUMP JUMPDEST SWAP1 SWAP2 SSTORE POP POP PUSH1 0x40 MLOAD DUP2 DUP2 MSTORE PUSH1 0x1 PUSH1 0x1 PUSH1 0xA0 SHL SUB DUP4 AND SWAP1 PUSH1 0x0 SWAP1 PUSH32 0xDDF252AD1BE2C89B69C2B068FC378DAA952BA7F163C4A11628F55A4DF523B3EF SWAP1 PUSH1 0x20 ADD PUSH1 0x40 MLOAD DUP1 SWAP2 SUB SWAP1 LOG3 POP POP JUMP JUMPDEST PUSH1 0x5 SLOAD PUSH1 0xFF AND ISZERO PUSH2 0x9A3 JUMPI PUSH1 0x40 MLOAD PUSH3 0x461BCD PUSH1 0xE5 SHL DUP2 MSTORE PUSH1 0x20 PUSH1 0x4 DUP3 ADD MSTORE PUSH1 0x10 PUSH1 0x24 DUP3 ADD MSTORE PUSH16 0x14185D5CD8589B194E881C185D5CD959 PUSH1 0x82 SHL PUSH1 0x44 DUP3 ADD MSTORE PUSH1 0x64 ADD PUSH2 0x427 JUMP JUMPDEST PUSH1 0x5 DUP1 SLOAD PUSH1 0xFF NOT AND PUSH1 0x1 OR SWAP1 SSTORE PUSH32 0x62E78CEA01BEE320CD4E420270B5EA74000D11B0C9F74754EBDBFC544B05A258 PUSH2 0x855 CALLER SWAP1 JUMP JUMPDEST PUSH1 0x1 PUSH1 0x1 PUSH1 0xA0 SHL SUB DUP3 AND PUSH2 0xA38 JUMPI PUSH1 0x40 MLOAD PUSH3 0x461BCD PUSH1 0xE5 SHL DUP2 MSTORE PUSH1 0x20 PUSH1 0x4 DUP3 ADD MSTORE PUSH1 0x21 PUSH1 0x24 DUP3 ADD MSTORE PUSH32 0x45524332303A206275726E2066726F6D20746865207A65726F20616464726573 PUSH1 0x44 DUP3 ADD MSTORE PUSH1 0x73 PUSH1 0xF8 SHL PUSH1 0x64 DUP3 ADD MSTORE PUSH1 0x84 ADD PUSH2 0x427 JUMP JUMPDEST PUSH2 0xA44 DUP3 PUSH1 0x0 DUP4 PUSH2 0xB32 JUMP JUMPDEST PUSH1 0x1 PUSH1 0x1 PUSH1 0xA0 SHL SUB DUP3 AND PUSH1 0x0 SWAP1 DUP2 MSTORE PUSH1 0x20 DUP2 SWAP1 MSTORE PUSH1 0x40 SWAP1 KECCAK256 SLOAD DUP2 DUP2 LT ISZERO PUSH2 0xAB8 JUMPI PUSH1 0x40 MLOAD PUSH3 0x461BCD PUSH1 0xE5 SHL DUP2 MSTORE PUSH1 0x20 PUSH1 0x4 DUP3 ADD MSTORE PUSH1 0x22 PUSH1 0x24 DUP3 ADD MSTORE PUSH32 0x45524332303A206275726E20616D6F756E7420657863656564732062616C616E PUSH1 0x44 DUP3 ADD MSTORE PUSH2 0x6365 PUSH1 0xF0 SHL PUSH1 0x64 DUP3 ADD MSTORE PUSH1 0x84 ADD PUSH2 0x427 JUMP JUMPDEST PUSH1 0x1 PUSH1 0x1 PUSH1 0xA0 SHL SUB DUP4 AND PUSH1 0x0 SWAP1 DUP2 MSTORE PUSH1 0x20 DUP2 SWAP1 MSTORE PUSH1 0x40 DUP2 KECCAK256 DUP4 DUP4 SUB SWAP1 SSTORE PUSH1 0x2 DUP1 SLOAD DUP5 SWAP3 SWAP1 PUSH2 0xAE7 SWAP1 DUP5 SWAP1 PUSH2 0xD2D JUMP JUMPDEST SWAP1 SWAP2 SSTORE POP POP PUSH1 0x40 MLOAD DUP3 DUP2 MSTORE PUSH1 0x0 SWAP1 PUSH1 0x1 PUSH1 0x1 PUSH1 0xA0 SHL SUB DUP6 AND SWAP1 PUSH32 0xDDF252AD1BE2C89B69C2B068FC378DAA952BA7F163C4A11628F55A4DF523B3EF SWAP1 PUSH1 0x20 ADD PUSH1 0x40 MLOAD DUP1 SWAP2 SUB SWAP1 LOG3 POP POP POP JUMP JUMPDEST PUSH1 0x5 SLOAD PUSH1 0xFF AND ISZERO PUSH2 0x44B JUMPI PUSH1 0x40 MLOAD PUSH3 0x461BCD PUSH1 0xE5 SHL DUP2 MSTORE PUSH1 0x20 PUSH1 0x4 DUP3 ADD MSTORE PUSH1 0x2A PUSH1 0x24 DUP3 ADD MSTORE PUSH32 0x45524332305061757361626C653A20746F6B656E207472616E73666572207768 PUSH1 0x44 DUP3 ADD MSTORE PUSH10 0x1A5B19481C185D5CD959 PUSH1 0xB2 SHL PUSH1 0x64 DUP3 ADD MSTORE PUSH1 0x84 ADD PUSH2 0x427 JUMP JUMPDEST PUSH1 0x0 PUSH1 0x20 DUP1 DUP4 MSTORE DUP4 MLOAD DUP1 DUP3 DUP6 ADD MSTORE PUSH1 0x0 JUMPDEST DUP2 DUP2 LT ISZERO PUSH2 0xBC5 JUMPI DUP6 DUP2 ADD DUP4 ADD MLOAD DUP6 DUP3 ADD PUSH1 0x40 ADD MSTORE DUP3 ADD PUSH2 0xBA9 JUMP JUMPDEST DUP2 DUP2 GT ISZERO PUSH2 0xBD7 JUMPI PUSH1 0x0 PUSH1 0x40 DUP4 DUP8 ADD ADD MSTORE JUMPDEST POP PUSH1 0x1F ADD PUSH1 0x1F NOT AND SWAP3 SWAP1 SWAP3 ADD PUSH1 0x40 ADD SWAP4 SWAP3 POP POP POP JUMP JUMPDEST DUP1 CALLDATALOAD PUSH1 0x1 PUSH1 0x1 PUSH1 0xA0 SHL SUB DUP2 AND DUP2 EQ PUSH2 0xC04 JUMPI PUSH1 0x0 DUP1 REVERT JUMPDEST SWAP2 SWAP1 POP JUMP JUMPDEST PUSH1 0x0 DUP1 PUSH1 0x40 DUP4 DUP6 SUB SLT ISZERO PUSH2 0xC1C JUMPI PUSH1 0x0 DUP1 REVERT JUMPDEST PUSH2 0xC25 DUP4 PUSH2 0xBED JUMP JUMPDEST SWAP5 PUSH1 0x20 SWAP4 SWAP1 SWAP4 ADD CALLDATALOAD SWAP4 POP POP POP JUMP JUMPDEST PUSH1 0x0 DUP1 PUSH1 0x0 PUSH1 0x60 DUP5 DUP7 SUB SLT ISZERO PUSH2 0xC48 JUMPI PUSH1 0x0 DUP1 REVERT JUMPDEST PUSH2 0xC51 DUP5 PUSH2 0xBED JUMP JUMPDEST SWAP3 POP PUSH2 0xC5F PUSH1 0x20 DUP6 ADD PUSH2 0xBED JUMP JUMPDEST SWAP2 POP PUSH1 0x40 DUP5 ADD CALLDATALOAD SWAP1 POP SWAP3 POP SWAP3 POP SWAP3 JUMP JUMPDEST PUSH1 0x0 PUSH1 0x20 DUP3 DUP5 SUB SLT ISZERO PUSH2 0xC81 JUMPI PUSH1 0x0 DUP1 REVERT JUMPDEST PUSH2 0xC8A DUP3 PUSH2 0xBED JUMP JUMPDEST SWAP4 SWAP3 POP POP POP JUMP JUMPDEST PUSH1 0x0 DUP1 PUSH1 0x40 DUP4 DUP6 SUB SLT ISZERO PUSH2 0xCA4 JUMPI PUSH1 0x0 DUP1 REVERT JUMPDEST PUSH2 0xCAD DUP4 PUSH2 0xBED JUMP JUMPDEST SWAP2 POP PUSH2 0xCBB PUSH1 0x20 DUP5 ADD PUSH2 0xBED JUMP JUMPDEST SWAP1 POP SWAP3 POP SWAP3 SWAP1 POP JUMP JUMPDEST PUSH1 0x1 DUP2 DUP2 SHR SWAP1 DUP3 AND DUP1 PUSH2 0xCD8 JUMPI PUSH1 0x7F DUP3 AND SWAP2 POP JUMPDEST PUSH1 0x20 DUP3 LT DUP2 EQ ISZERO PUSH2 0xCF9 JUMPI PUSH4 0x4E487B71 PUSH1 0xE0 SHL PUSH1 0x0 MSTORE PUSH1 0x22 PUSH1 0x4 MSTORE PUSH1 0x24 PUSH1 0x0 REVERT JUMPDEST POP SWAP2 SWAP1 POP JUMP JUMPDEST PUSH4 0x4E487B71 PUSH1 0xE0 SHL PUSH1 0x0 MSTORE PUSH1 0x11 PUSH1 0x4 MSTORE PUSH1 0x24 PUSH1 0x0 REVERT JUMPDEST PUSH1 0x0 DUP3 NOT DUP3 GT ISZERO PUSH2 0xD28 JUMPI PUSH2 0xD28 PUSH2 0xCFF JUMP JUMPDEST POP ADD SWAP1 JUMP JUMPDEST PUSH1 0x0 DUP3 DUP3 LT ISZERO PUSH2 0xD3F JUMPI PUSH2 0xD3F PUSH2 0xCFF JUMP JUMPDEST POP SUB SWAP1 JUMP INVALID LOG2 PUSH5 0x6970667358 0x22 SLT KECCAK256 SWAP14 PUSH1 0x28 0xAE 0xCF DUP4 0xA5 SLT 0xCC PUSH24 0xD54C6DEE17C1238E3364DFEE76C55BC665B8A4B29BF26473 PUSH16 0x6C634300080C00330000000000000000 ",
  "sha1": "898a3b0c6309cc86f6dc3f23f20c382dbeb258cf",
  "source": "// SPDX-License-Identifier: MIT\n\npragma solidity ^0.8.0;\n\nimport \"../token/ERC20/extensions/ERC20Pausable.sol\";\n\n// mock class using ERC20Pausable\ncontract ERC20PausableMock is ERC20Pausable {\n    constructor(\n        string memory name,\n        string memory symbol,\n        address initialAccount,\n        uint256 initialBalance\n    ) ERC20(name, symbol) {\n        _mint(initialAccount, initialBalance);\n    }\n\n    function pause() external {\n        _pause();\n    }\n\n    function unpause() external {\n        _unpause();\n    }\n\n    function mint(address to, uint256 amount) public {\n        _mint(to, amount);\n    }\n\n    function burn(address from, uint256 amount) public {\n        _burn(from, amount);\n    }\n}\n",
  "sourcePath": "contracts/openzeppelin/contracts/mocks/ERC20PausableMock.sol",
  "type": "contract"
}