{
  "abi": [
    {
      "inputs": [
        {
          "internalType": "string",
          "name": "name_",
          "type": "string"
        },
        {
          "internalType": "contract ERC20VotesComp",
          "name": "token_",
          "type": "address"
        },
        {
          "internalType": "uint256",
          "name": "votingDelay_",
          "type": "uint256"
        },
        {
          "internalType": "uint256",
          "name": "votingPeriod_",
          "type": "uint256"
        },
        {
          "internalType": "uint256",
          "name": "proposalThreshold_",
          "type": "uint256"
        },
        {
          "internalType": "contract ICompoundTimelock",
          "name": "timelock_",
          "type": "address"
        }
      ],
      "stateMutability": "nonpayable",
      "type": "constructor"
    },
    {
      "anonymous": false,
      "inputs": [
        {
          "indexed": false,
          "internalType": "uint256",
          "name": "proposalId",
          "type": "uint256"
        }
      ],
      "name": "ProposalCanceled",
      "type": "event"
    },
    {
      "anonymous": false,
      "inputs": [
        {
          "indexed": false,
          "internalType": "uint256",
          "name": "proposalId",
          "type": "uint256"
        },
        {
          "indexed": false,
          "internalType": "address",
          "name": "proposer",
          "type": "address"
        },
        {
          "indexed": false,
          "internalType": "address[]",
          "name": "targets",
          "type": "address[]"
        },
        {
          "indexed": false,
          "internalType": "uint256[]",
          "name": "values",
          "type": "uint256[]"
        },
        {
          "indexed": false,
          "internalType": "string[]",
          "name": "signatures",
          "type": "string[]"
        },
        {
          "indexed": false,
          "internalType": "bytes[]",
          "name": "calldatas",
          "type": "bytes[]"
        },
        {
          "indexed": false,
          "internalType": "uint256",
          "name": "startBlock",
          "type": "uint256"
        },
        {
          "indexed": false,
          "internalType": "uint256",
          "name": "endBlock",
          "type": "uint256"
        },
        {
          "indexed": false,
          "internalType": "string",
          "name": "description",
          "type": "string"
        }
      ],
      "name": "ProposalCreated",
      "type": "event"
    },
    {
      "anonymous": false,
      "inputs": [
        {
          "indexed": false,
          "internalType": "uint256",
          "name": "proposalId",
          "type": "uint256"
        }
      ],
      "name": "ProposalExecuted",
      "type": "event"
    },
    {
      "anonymous": false,
      "inputs": [
        {
          "indexed": false,
          "internalType": "uint256",
          "name": "proposalId",
          "type": "uint256"
        },
        {
          "indexed": false,
          "internalType": "uint256",
          "name": "eta",
          "type": "uint256"
        }
      ],
      "name": "ProposalQueued",
      "type": "event"
    },
    {
      "anonymous": false,
      "inputs": [
        {
          "indexed": false,
          "internalType": "uint256",
          "name": "oldProposalThreshold",
          "type": "uint256"
        },
        {
          "indexed": false,
          "internalType": "uint256",
          "name": "newProposalThreshold",
          "type": "uint256"
        }
      ],
      "name": "ProposalThresholdSet",
      "type": "event"
    },
    {
      "anonymous": false,
      "inputs": [
        {
          "indexed": false,
          "internalType": "address",
          "name": "oldTimelock",
          "type": "address"
        },
        {
          "indexed": false,
          "internalType": "address",
          "name": "newTimelock",
          "type": "address"
        }
      ],
      "name": "TimelockChange",
      "type": "event"
    },
    {
      "anonymous": false,
      "inputs": [
        {
          "indexed": true,
          "internalType": "address",
          "name": "voter",
          "type": "address"
        },
        {
          "indexed": false,
          "internalType": "uint256",
          "name": "proposalId",
          "type": "uint256"
        },
        {
          "indexed": false,
          "internalType": "uint8",
          "name": "support",
          "type": "uint8"
        },
        {
          "indexed": false,
          "internalType": "uint256",
          "name": "weight",
          "type": "uint256"
        },
        {
          "indexed": false,
          "internalType": "string",
          "name": "reason",
          "type": "string"
        }
      ],
      "name": "VoteCast",
      "type": "event"
    },
    {
      "anonymous": false,
      "inputs": [
        {
          "indexed": false,
          "internalType": "uint256",
          "name": "oldVotingDelay",
          "type": "uint256"
        },
        {
          "indexed": false,
          "internalType": "uint256",
          "name": "newVotingDelay",
          "type": "uint256"
        }
      ],
      "name": "VotingDelaySet",
      "type": "event"
    },
    {
      "anonymous": false,
      "inputs": [
        {
          "indexed": false,
          "internalType": "uint256",
          "name": "oldVotingPeriod",
          "type": "uint256"
        },
        {
          "indexed": false,
          "internalType": "uint256",
          "name": "newVotingPeriod",
          "type": "uint256"
        }
      ],
      "name": "VotingPeriodSet",
      "type": "event"
    },
    {
      "inputs": [],
      "name": "BALLOT_TYPEHASH",
      "outputs": [
        {
          "internalType": "bytes32",
          "name": "",
          "type": "bytes32"
        }
      ],
      "stateMutability": "view",
      "type": "function"
    },
    {
      "inputs": [],
      "name": "COUNTING_MODE",
      "outputs": [
        {
          "internalType": "string",
          "name": "",
          "type": "string"
        }
      ],
      "stateMutability": "pure",
      "type": "function"
    },
    {
      "inputs": [],
      "name": "__acceptAdmin",
      "outputs": [],
      "stateMutability": "nonpayable",
      "type": "function"
    },
    {
      "inputs": [
        {
          "internalType": "uint256",
          "name": "proposalId",
          "type": "uint256"
        }
      ],
      "name": "cancel",
      "outputs": [],
      "stateMutability": "nonpayable",
      "type": "function"
    },
    {
      "inputs": [
        {
          "internalType": "address[]",
          "name": "targets",
          "type": "address[]"
        },
        {
          "internalType": "uint256[]",
          "name": "values",
          "type": "uint256[]"
        },
        {
          "internalType": "bytes[]",
          "name": "calldatas",
          "type": "bytes[]"
        },
        {
          "internalType": "bytes32",
          "name": "salt",
          "type": "bytes32"
        }
      ],
      "name": "cancel",
      "outputs": [
        {
          "internalType": "uint256",
          "name": "proposalId",
          "type": "uint256"
        }
      ],
      "stateMutability": "nonpayable",
      "type": "function"
    },
    {
      "inputs": [
        {
          "internalType": "uint256",
          "name": "proposalId",
          "type": "uint256"
        },
        {
          "internalType": "uint8",
          "name": "support",
          "type": "uint8"
        }
      ],
      "name": "castVote",
      "outputs": [
        {
          "internalType": "uint256",
          "name": "",
          "type": "uint256"
        }
      ],
      "stateMutability": "nonpayable",
      "type": "function"
    },
    {
      "inputs": [
        {
          "internalType": "uint256",
          "name": "proposalId",
          "type": "uint256"
        },
        {
          "internalType": "uint8",
          "name": "support",
          "type": "uint8"
        },
        {
          "internalType": "uint8",
          "name": "v",
          "type": "uint8"
        },
        {
          "internalType": "bytes32",
          "name": "r",
          "type": "bytes32"
        },
        {
          "internalType": "bytes32",
          "name": "s",
          "type": "bytes32"
        }
      ],
      "name": "castVoteBySig",
      "outputs": [
        {
          "internalType": "uint256",
          "name": "",
          "type": "uint256"
        }
      ],
      "stateMutability": "nonpayable",
      "type": "function"
    },
    {
      "inputs": [
        {
          "internalType": "uint256",
          "name": "proposalId",
          "type": "uint256"
        },
        {
          "internalType": "uint8",
          "name": "support",
          "type": "uint8"
        },
        {
          "internalType": "string",
          "name": "reason",
          "type": "string"
        }
      ],
      "name": "castVoteWithReason",
      "outputs": [
        {
          "internalType": "uint256",
          "name": "",
          "type": "uint256"
        }
      ],
      "stateMutability": "nonpayable",
      "type": "function"
    },
    {
      "inputs": [
        {
          "internalType": "address[]",
          "name": "targets",
          "type": "address[]"
        },
        {
          "internalType": "uint256[]",
          "name": "values",
          "type": "uint256[]"
        },
        {
          "internalType": "bytes[]",
          "name": "calldatas",
          "type": "bytes[]"
        },
        {
          "internalType": "bytes32",
          "name": "salt",
          "type": "bytes32"
        }
      ],
      "name": "execute",
      "outputs": [
        {
          "internalType": "uint256",
          "name": "",
          "type": "uint256"
        }
      ],
      "stateMutability": "payable",
      "type": "function"
    },
    {
      "inputs": [
        {
          "internalType": "uint256",
          "name": "proposalId",
          "type": "uint256"
        }
      ],
      "name": "execute",
      "outputs": [],
      "stateMutability": "payable",
      "type": "function"
    },
    {
      "inputs": [
        {
          "internalType": "uint256",
          "name": "proposalId",
          "type": "uint256"
        }
      ],
      "name": "getActions",
      "outputs": [
        {
          "internalType": "address[]",
          "name": "targets",
          "type": "address[]"
        },
        {
          "internalType": "uint256[]",
          "name": "values",
          "type": "uint256[]"
        },
        {
          "internalType": "string[]",
          "name": "signatures",
          "type": "string[]"
        },
        {
          "internalType": "bytes[]",
          "name": "calldatas",
          "type": "bytes[]"
        }
      ],
      "stateMutability": "view",
      "type": "function"
    },
    {
      "inputs": [
        {
          "internalType": "uint256",
          "name": "proposalId",
          "type": "uint256"
        },
        {
          "internalType": "address",
          "name": "voter",
          "type": "address"
        }
      ],
      "name": "getReceipt",
      "outputs": [
        {
          "components": [
            {
              "internalType": "bool",
              "name": "hasVoted",
              "type": "bool"
            },
            {
              "internalType": "uint8",
              "name": "support",
              "type": "uint8"
            },
            {
              "internalType": "uint96",
              "name": "votes",
              "type": "uint96"
            }
          ],
          "internalType": "struct IGovernorCompatibilityBravo.Receipt",
          "name": "",
          "type": "tuple"
        }
      ],
      "stateMutability": "view",
      "type": "function"
    },
    {
      "inputs": [
        {
          "internalType": "address",
          "name": "account",
          "type": "address"
        },
        {
          "internalType": "uint256",
          "name": "blockNumber",
          "type": "uint256"
        }
      ],
      "name": "getVotes",
      "outputs": [
        {
          "internalType": "uint256",
          "name": "",
          "type": "uint256"
        }
      ],
      "stateMutability": "view",
      "type": "function"
    },
    {
      "inputs": [
        {
          "internalType": "uint256",
          "name": "proposalId",
          "type": "uint256"
        },
        {
          "internalType": "address",
          "name": "account",
          "type": "address"
        }
      ],
      "name": "hasVoted",
      "outputs": [
        {
          "internalType": "bool",
          "name": "",
          "type": "bool"
        }
      ],
      "stateMutability": "view",
      "type": "function"
    },
    {
      "inputs": [
        {
          "internalType": "address[]",
          "name": "targets",
          "type": "address[]"
        },
        {
          "internalType": "uint256[]",
          "name": "values",
          "type": "uint256[]"
        },
        {
          "internalType": "bytes[]",
          "name": "calldatas",
          "type": "bytes[]"
        },
        {
          "internalType": "bytes32",
          "name": "descriptionHash",
          "type": "bytes32"
        }
      ],
      "name": "hashProposal",
      "outputs": [
        {
          "internalType": "uint256",
          "name": "",
          "type": "uint256"
        }
      ],
      "stateMutability": "pure",
      "type": "function"
    },
    {
      "inputs": [],
      "name": "name",
      "outputs": [
        {
          "internalType": "string",
          "name": "",
          "type": "string"
        }
      ],
      "stateMutability": "view",
      "type": "function"
    },
    {
      "inputs": [
        {
          "internalType": "uint256",
          "name": "proposalId",
          "type": "uint256"
        }
      ],
      "name": "proposalDeadline",
      "outputs": [
        {
          "internalType": "uint256",
          "name": "",
          "type": "uint256"
        }
      ],
      "stateMutability": "view",
      "type": "function"
    },
    {
      "inputs": [
        {
          "internalType": "uint256",
          "name": "proposalId",
          "type": "uint256"
        }
      ],
      "name": "proposalEta",
      "outputs": [
        {
          "internalType": "uint256",
          "name": "",
          "type": "uint256"
        }
      ],
      "stateMutability": "view",
      "type": "function"
    },
    {
      "inputs": [
        {
          "internalType": "uint256",
          "name": "proposalId",
          "type": "uint256"
        }
      ],
      "name": "proposalSnapshot",
      "outputs": [
        {
          "internalType": "uint256",
          "name": "",
          "type": "uint256"
        }
      ],
      "stateMutability": "view",
      "type": "function"
    },
    {
      "inputs": [],
      "name": "proposalThreshold",
      "outputs": [
        {
          "internalType": "uint256",
          "name": "",
          "type": "uint256"
        }
      ],
      "stateMutability": "view",
      "type": "function"
    },
    {
      "inputs": [
        {
          "internalType": "uint256",
          "name": "proposalId",
          "type": "uint256"
        }
      ],
      "name": "proposals",
      "outputs": [
        {
          "internalType": "uint256",
          "name": "id",
          "type": "uint256"
        },
        {
          "internalType": "address",
          "name": "proposer",
          "type": "address"
        },
        {
          "internalType": "uint256",
          "name": "eta",
          "type": "uint256"
        },
        {
          "internalType": "uint256",
          "name": "startBlock",
          "type": "uint256"
        },
        {
          "internalType": "uint256",
          "name": "endBlock",
          "type": "uint256"
        },
        {
          "internalType": "uint256",
          "name": "forVotes",
          "type": "uint256"
        },
        {
          "internalType": "uint256",
          "name": "againstVotes",
          "type": "uint256"
        },
        {
          "internalType": "uint256",
          "name": "abstainVotes",
          "type": "uint256"
        },
        {
          "internalType": "bool",
          "name": "canceled",
          "type": "bool"
        },
        {
          "internalType": "bool",
          "name": "executed",
          "type": "bool"
        }
      ],
      "stateMutability": "view",
      "type": "function"
    },
    {
      "inputs": [
        {
          "internalType": "address[]",
          "name": "targets",
          "type": "address[]"
        },
        {
          "internalType": "uint256[]",
          "name": "values",
          "type": "uint256[]"
        },
        {
          "internalType": "bytes[]",
          "name": "calldatas",
          "type": "bytes[]"
        },
        {
          "internalType": "string",
          "name": "description",
          "type": "string"
        }
      ],
      "name": "propose",
      "outputs": [
        {
          "internalType": "uint256",
          "name": "",
          "type": "uint256"
        }
      ],
      "stateMutability": "nonpayable",
      "type": "function"
    },
    {
      "inputs": [
        {
          "internalType": "address[]",
          "name": "targets",
          "type": "address[]"
        },
        {
          "internalType": "uint256[]",
          "name": "values",
          "type": "uint256[]"
        },
        {
          "internalType": "string[]",
          "name": "signatures",
          "type": "string[]"
        },
        {
          "internalType": "bytes[]",
          "name": "calldatas",
          "type": "bytes[]"
        },
        {
          "internalType": "string",
          "name": "description",
          "type": "string"
        }
      ],
      "name": "propose",
      "outputs": [
        {
          "internalType": "uint256",
          "name": "",
          "type": "uint256"
        }
      ],
      "stateMutability": "nonpayable",
      "type": "function"
    },
    {
      "inputs": [
        {
          "internalType": "address[]",
          "name": "targets",
          "type": "address[]"
        },
        {
          "internalType": "uint256[]",
          "name": "values",
          "type": "uint256[]"
        },
        {
          "internalType": "bytes[]",
          "name": "calldatas",
          "type": "bytes[]"
        },
        {
          "internalType": "bytes32",
          "name": "salt",
          "type": "bytes32"
        }
      ],
      "name": "queue",
      "outputs": [
        {
          "internalType": "uint256",
          "name": "",
          "type": "uint256"
        }
      ],
      "stateMutability": "nonpayable",
      "type": "function"
    },
    {
      "inputs": [
        {
          "internalType": "uint256",
          "name": "proposalId",
          "type": "uint256"
        }
      ],
      "name": "queue",
      "outputs": [],
      "stateMutability": "nonpayable",
      "type": "function"
    },
    {
      "inputs": [
        {
          "internalType": "uint256",
          "name": "",
          "type": "uint256"
        }
      ],
      "name": "quorum",
      "outputs": [
        {
          "internalType": "uint256",
          "name": "",
          "type": "uint256"
        }
      ],
      "stateMutability": "pure",
      "type": "function"
    },
    {
      "inputs": [],
      "name": "quorumVotes",
      "outputs": [
        {
          "internalType": "uint256",
          "name": "",
          "type": "uint256"
        }
      ],
      "stateMutability": "view",
      "type": "function"
    },
    {
      "inputs": [
        {
          "internalType": "address",
          "name": "target",
          "type": "address"
        },
        {
          "internalType": "uint256",
          "name": "value",
          "type": "uint256"
        },
        {
          "internalType": "bytes",
          "name": "data",
          "type": "bytes"
        }
      ],
      "name": "relay",
      "outputs": [],
      "stateMutability": "nonpayable",
      "type": "function"
    },
    {
      "inputs": [
        {
          "internalType": "uint256",
          "name": "newProposalThreshold",
          "type": "uint256"
        }
      ],
      "name": "setProposalThreshold",
      "outputs": [],
      "stateMutability": "nonpayable",
      "type": "function"
    },
    {
      "inputs": [
        {
          "internalType": "uint256",
          "name": "newVotingDelay",
          "type": "uint256"
        }
      ],
      "name": "setVotingDelay",
      "outputs": [],
      "stateMutability": "nonpayable",
      "type": "function"
    },
    {
      "inputs": [
        {
          "internalType": "uint256",
          "name": "newVotingPeriod",
          "type": "uint256"
        }
      ],
      "name": "setVotingPeriod",
      "outputs": [],
      "stateMutability": "nonpayable",
      "type": "function"
    },
    {
      "inputs": [
        {
          "internalType": "uint256",
          "name": "proposalId",
          "type": "uint256"
        }
      ],
      "name": "state",
      "outputs": [
        {
          "internalType": "enum IGovernor.ProposalState",
          "name": "",
          "type": "uint8"
        }
      ],
      "stateMutability": "view",
      "type": "function"
    },
    {
      "inputs": [
        {
          "internalType": "bytes4",
          "name": "interfaceId",
          "type": "bytes4"
        }
      ],
      "name": "supportsInterface",
      "outputs": [
        {
          "internalType": "bool",
          "name": "",
          "type": "bool"
        }
      ],
      "stateMutability": "view",
      "type": "function"
    },
    {
      "inputs": [],
      "name": "timelock",
      "outputs": [
        {
          "internalType": "address",
          "name": "",
          "type": "address"
        }
      ],
      "stateMutability": "view",
      "type": "function"
    },
    {
      "inputs": [],
      "name": "token",
      "outputs": [
        {
          "internalType": "contract ERC20VotesComp",
          "name": "",
          "type": "address"
        }
      ],
      "stateMutability": "view",
      "type": "function"
    },
    {
      "inputs": [
        {
          "internalType": "contract ICompoundTimelock",
          "name": "newTimelock",
          "type": "address"
        }
      ],
      "name": "updateTimelock",
      "outputs": [],
      "stateMutability": "nonpayable",
      "type": "function"
    },
    {
      "inputs": [],
      "name": "version",
      "outputs": [
        {
          "internalType": "string",
          "name": "",
          "type": "string"
        }
      ],
      "stateMutability": "view",
      "type": "function"
    },
    {
      "inputs": [],
      "name": "votingDelay",
      "outputs": [
        {
          "internalType": "uint256",
          "name": "",
          "type": "uint256"
        }
      ],
      "stateMutability": "view",
      "type": "function"
    },
    {
      "inputs": [],
      "name": "votingPeriod",
      "outputs": [
        {
          "internalType": "uint256",
          "name": "",
          "type": "uint256"
        }
      ],
      "stateMutability": "view",
      "type": "function"
    },
    {
      "stateMutability": "payable",
      "type": "receive"
    }
  ],
  "bytecode": "6101606040523480156200001257600080fd5b5060405162004a7038038062004a708339810160408190526200003591620003be565b84818585858a806200005b6040805180820190915260018152603160f81b602082015290565b815160208084019190912082518383012060e08290526101008190524660a0818152604080517f8b73c3c69bb8fe3d512ecc4cf759cc79239f7b179b0ffacaa9a75d522b39400f81880181905281830187905260608201869052608082019490945230818401528151808203909301835260c00190528051940193909320919290916080523060c0526101205250508251620001019250600091506020840190620002e5565b506200010f90508362000154565b6200011a8262000195565b62000125816200023b565b50505062000139816200027c60201b60201c565b506001600160a01b031661014052506200051a945050505050565b60035460408051918252602082018390527fc565b045403dc03c2eea82b81a0465edad9e2e7fc4d97e11421c209da93d7a93910160405180910390a1600355565b60008111620001fa5760405162461bcd60e51b815260206004820152602760248201527f476f7665726e6f7253657474696e67733a20766f74696e6720706572696f6420604482015266746f6f206c6f7760c81b606482015260840160405180910390fd5b60045460408051918252602082018390527f7e3f7f0708a84de9203036abaa450dccc85ad5ff52f78c170f3edb55cf5e8828910160405180910390a1600455565b60055460408051918252602082018390527fccb45da8d5717e6c4544694297c4ba5cf151d455c9bb0ed4fc7a38411bc05461910160405180910390a1600555565b600654604080516001600160a01b03928316815291831660208301527f08f74ea46ef7894f65eabfb5e6e695de773a000b47c529ab559178069b226401910160405180910390a1600680546001600160a01b0319166001600160a01b0392909216919091179055565b828054620002f390620004dd565b90600052602060002090601f01602090048101928262000317576000855562000362565b82601f106200033257805160ff191683800117855562000362565b8280016001018555821562000362579182015b828111156200036257825182559160200191906001019062000345565b506200037092915062000374565b5090565b5b8082111562000370576000815560010162000375565b634e487b7160e01b600052604160045260246000fd5b80516001600160a01b0381168114620003b957600080fd5b919050565b60008060008060008060c08789031215620003d857600080fd5b86516001600160401b0380821115620003f057600080fd5b818901915089601f8301126200040557600080fd5b8151818111156200041a576200041a6200038b565b604051601f8201601f19908116603f011681019083821181831017156200044557620004456200038b565b81604052828152602093508c848487010111156200046257600080fd5b600091505b8282101562000486578482018401518183018501529083019062000467565b82821115620004985760008484830101525b9950620004aa915050898201620003a1565b96505050604087015193506060870151925060808701519150620004d160a08801620003a1565b90509295509295509295565b600181811c90821680620004f257607f821691505b602082108114156200051457634e487b7160e01b600052602260045260246000fd5b50919050565b60805160a05160c05160e0516101005161012051610140516144f46200057c6000396000818161088901526123ed01526000612601015260006126500152600061262b01526000612584015260006125ae015260006125d801526144f46000f3fe6080604052600436106102345760003560e01c80637d5e81e21161012e578063dd4e2ba5116100ab578063eb9019d41161006f578063eb9019d414610816578063ece40cc114610836578063f8ce560a14610856578063fc0c546a14610877578063fe0d94c1146108ab57600080fd5b8063dd4e2ba514610692578063ddf0b009146106d8578063deaaa7cc146106f8578063e23a9a521461072c578063ea0217cf146107f657600080fd5b8063c01f9e37116100f2578063c01f9e37146105e0578063c28bc2fa14610600578063c59057e414610620578063d33219b414610640578063da95691a1461067257600080fd5b80637d5e81e214610556578063a890c91014610576578063ab58fb8e14610596578063b58131b0146105b6578063b9a61961146105cb57600080fd5b80633932abb1116101bc578063452115d611610180578063452115d6146104ac57806354fd4d50146104cc57806356781388146104f657806370b0f660146105165780637b3c71d31461053657600080fd5b80633932abb1146103e05780633bccf4fd146103f55780633e4f49e61461041557806340e58ee514610442578063438596321461046257600080fd5b8063160cbed711610203578063160cbed71461034857806324bc1a64146103685780632656227d1461037d5780632d63f69314610390578063328dd982146103b057600080fd5b8063013cf08b1461025c57806301ffc9a7146102d757806302a251a31461030757806306fdde031461032657600080fd5b3661025757306102426108be565b6001600160a01b03161461025557600080fd5b005b600080fd5b34801561026857600080fd5b5061027c6102773660046137ae565b6108d7565b604080519a8b526001600160a01b0390991660208b0152978901969096526060880194909452608087019290925260a086015260c085015260e084015215156101008301521515610120820152610140015b60405180910390f35b3480156102e357600080fd5b506102f76102f23660046137c7565b610980565b60405190151581526020016102ce565b34801561031357600080fd5b506004545b6040519081526020016102ce565b34801561033257600080fd5b5061033b610991565b6040516102ce9190613849565b34801561035457600080fd5b50610318610363366004613a9d565b610a23565b34801561037457600080fd5b50610318610a3a565b61031861038b366004613a9d565b610a4a565b34801561039c57600080fd5b506103186103ab3660046137ae565b610a58565b3480156103bc57600080fd5b506103d06103cb3660046137ae565b610a8f565b6040516102ce9493929190613bf2565b3480156103ec57600080fd5b50600354610318565b34801561040157600080fd5b50610318610410366004613c55565b610d20565b34801561042157600080fd5b506104356104303660046137ae565b610db4565b6040516102ce9190613cb9565b34801561044e57600080fd5b5061025561045d3660046137ae565b610dbf565b34801561046e57600080fd5b506102f761047d366004613ce1565b60008281526002602090815260408083206001600160a01b038516845260080190915290205460ff1692915050565b3480156104b857600080fd5b506103186104c7366004613a9d565b6110dc565b3480156104d857600080fd5b506040805180820190915260018152603160f81b602082015261033b565b34801561050257600080fd5b50610318610511366004613d11565b6110ea565b34801561052257600080fd5b506102556105313660046137ae565b611113565b34801561054257600080fd5b50610318610551366004613d85565b611157565b34801561056257600080fd5b50610318610571366004613dfe565b6111a9565b34801561058257600080fd5b50610255610591366004613eaa565b6111b7565b3480156105a257600080fd5b506103186105b13660046137ae565b6111f8565b3480156105c257600080fd5b50610318611203565b3480156105d757600080fd5b5061025561120e565b3480156105ec57600080fd5b506103186105fb3660046137ae565b611278565b34801561060c57600080fd5b5061025561061b366004613ec7565b6112a7565b34801561062c57600080fd5b5061031861063b366004613a9d565b611328565b34801561064c57600080fd5b506006546001600160a01b03165b6040516001600160a01b0390911681526020016102ce565b34801561067e57600080fd5b5061031861068d366004613f89565b611362565b34801561069e57600080fd5b5060408051808201909152601a81527f737570706f72743d627261766f2671756f72756d3d627261766f000000000000602082015261033b565b3480156106e457600080fd5b506102556106f33660046137ae565b611387565b34801561070457600080fd5b506103187f150214d74d59b7d1e90c73fc22ef3d991dd0a76b046543d4d80ab92d2a50328f81565b34801561073857600080fd5b506107c6610747366004613ce1565b60408051606081018252600080825260208201819052918101919091525060009182526002602090815260408084206001600160a01b0393909316845260089092018152918190208151606081018352905460ff8082161515835261010082041693820193909352620100009092046001600160601b03169082015290565b6040805182511515815260208084015160ff1690820152918101516001600160601b0316908201526060016102ce565b34801561080257600080fd5b506102556108113660046137ae565b6115f5565b34801561082257600080fd5b5061031861083136600461405a565b611636565b34801561084257600080fd5b506102556108513660046137ae565b611649565b34801561086257600080fd5b506103186108713660046137ae565b50600090565b34801561088357600080fd5b5061065a7f000000000000000000000000000000000000000000000000000000000000000081565b6102556108b93660046137ae565b61168a565b60006108d26006546001600160a01b031690565b905090565b80600080808080808080806108eb8a6111f8565b97506108f68b610a58565b96506109018b611278565b60008c815260026020526040812080546005820154600683015460078401546001600160a01b039093169e50949a5098509296509194506109418d610db4565b9050600281600781111561095757610957613ca3565b149350600781600781111561096e5761096e613ca3565b14925050509193959799509193959799565b600061098b826118f8565b92915050565b6060600080546109a090614086565b80601f01602080910402602001604051908101604052809291908181526020018280546109cc90614086565b8015610a195780601f106109ee57610100808354040283529160200191610a19565b820191906000526020600020905b8154815290600101906020018083116109fc57829003601f168201915b5050505050905090565b6000610a318585858561191d565b95945050505050565b60006108d26108716001436140d7565b6000610a3185858585611c97565b60008181526001602090815260408083208151928301909152546001600160401b0316908190525b6001600160401b031692915050565b60608060608060006002600087815260200190815260200160002090508060010181600201826003018360040183805480602002602001604051908101604052809291908181526020018280548015610b1157602002820191906000526020600020905b81546001600160a01b03168152600190910190602001808311610af3575b5050505050935082805480602002602001604051908101604052809291908181526020018280548015610b6357602002820191906000526020600020905b815481526020019060010190808311610b4f575b5050505050925081805480602002602001604051908101604052809291908181526020016000905b82821015610c37578382906000526020600020018054610baa90614086565b80601f0160208091040260200160405190810160405280929190818152602001828054610bd690614086565b8015610c235780601f10610bf857610100808354040283529160200191610c23565b820191906000526020600020905b815481529060010190602001808311610c0657829003601f168201915b505050505081526020019060010190610b8b565b50505050915080805480602002602001604051908101604052809291908181526020016000905b82821015610d0a578382906000526020600020018054610c7d90614086565b80601f0160208091040260200160405190810160405280929190818152602001828054610ca990614086565b8015610cf65780601f10610ccb57610100808354040283529160200191610cf6565b820191906000526020600020905b815481529060010190602001808311610cd957829003601f168201915b505050505081526020019060010190610c5e565b5050505090509450945094509450509193509193565b604080517f150214d74d59b7d1e90c73fc22ef3d991dd0a76b046543d4d80ab92d2a50328f602082015290810186905260ff851660608201526000908190610d8c90610d849060800160405160208183030381529060405280519060200120611d6a565b868686611db8565b9050610da987828860405180602001604052806000815250611dd6565b979650505050505050565b600061098b82611ee1565b600081815260026020526040902080546001600160a01b0316336001600160a01b03161480610e0d5750610df1611203565b8154610e0b906001600160a01b03166108316001436140d7565b105b610e6e5760405162461bcd60e51b815260206004820152602760248201527f476f7665726e6f72427261766f3a2070726f706f7365722061626f76652074686044820152661c995cda1bdb1960ca1b60648201526084015b60405180910390fd5b6110d781600101805480602002602001604051908101604052809291908181526020018280548015610ec957602002820191906000526020600020905b81546001600160a01b03168152600190910190602001808311610eab575b505050505082600201805480602002602001604051908101604052809291908181526020018280548015610f1c57602002820191906000526020600020905b815481526020019060010190808311610f08575b50505050506110cd84600301805480602002602001604051908101604052809291908181526020016000905b82821015610ff4578382906000526020600020018054610f6790614086565b80601f0160208091040260200160405190810160405280929190818152602001828054610f9390614086565b8015610fe05780601f10610fb557610100808354040283529160200191610fe0565b820191906000526020600020905b815481529060010190602001808311610fc357829003601f168201915b505050505081526020019060010190610f48565b50505060048701805460408051602080840282018101909252828152935060009084015b828210156110c457838290600052602060002001805461103790614086565b80601f016020809104026020016040519081016040528092919081815260200182805461106390614086565b80156110b05780601f10611085576101008083540402835291602001916110b0565b820191906000526020600020905b81548152906001019060200180831161109357829003601f168201915b505050505081526020019060010190611018565b50505050611fc2565b84600901546120f4565b505050565b6000610a31858585856120f4565b60008033905061110b84828560405180602001604052806000815250611dd6565b949350505050565b61111b6108be565b6001600160a01b0316336001600160a01b03161461114b5760405162461bcd60e51b8152600401610e65906140ee565b61115481612102565b50565b60008033905061119f86828787878080601f016020809104026020016040519081016040528093929190818152602001838380828437600092019190915250611dd692505050565b9695505050505050565b6000610a3185858585612143565b6111bf6108be565b6001600160a01b0316336001600160a01b0316146111ef5760405162461bcd60e51b8152600401610e65906140ee565b611154816121ab565b600061098b82612214565b60006108d260055490565b600660009054906101000a90046001600160a01b03166001600160a01b0316630e18b6816040518163ffffffff1660e01b8152600401600060405180830381600087803b15801561125e57600080fd5b505af1158015611272573d6000803e3d6000fd5b50505050565b60008181526001602081815260408084208151928301909152909101546001600160401b031690819052610a80565b6112af6108be565b6001600160a01b0316336001600160a01b0316146112df5760405162461bcd60e51b8152600401610e65906140ee565b6113218483838080601f016020809104026020016040519081016040528093929190818152602001838380828437600092019190915250889250612240915050565b5050505050565b6000848484846040516020016113419493929190614125565b60408051601f19818403018152919052805160209091012095945050505050565b6000611372338787878787612266565b61119f86866113818787611fc2565b856111a9565b60008181526002602090815260409182902060018101805484518185028101850190955280855291936110d7939092908301828280156113f057602002820191906000526020600020905b81546001600160a01b031681526001909101906020018083116113d2575b50505050508260020180548060200260200160405190810160405280929190818152602001828054801561144357602002820191906000526020600020905b81548152602001906001019080831161142f575b50505050506115eb84600301805480602002602001604051908101604052809291908181526020016000905b8282101561151b57838290600052602060002001805461148e90614086565b80601f01602080910402602001604051908101604052809291908181526020018280546114ba90614086565b80156115075780601f106114dc57610100808354040283529160200191611507565b820191906000526020600020905b8154815290600101906020018083116114ea57829003601f168201915b50505050508152602001906001019061146f565b50505060048701805460408051602080840282018101909252828152935060009084015b828210156110c457838290600052602060002001805461155e90614086565b80601f016020809104026020016040519081016040528092919081815260200182805461158a90614086565b80156115d75780601f106115ac576101008083540402835291602001916115d7565b820191906000526020600020905b8154815290600101906020018083116115ba57829003601f168201915b50505050508152602001906001019061153f565b8460090154610a23565b6115fd6108be565b6001600160a01b0316336001600160a01b03161461162d5760405162461bcd60e51b8152600401610e65906140ee565b61115481612323565b600061164283836123c4565b9392505050565b6116516108be565b6001600160a01b0316336001600160a01b0316146116815760405162461bcd60e51b8152600401610e65906140ee565b6111548161246a565b60008181526002602090815260409182902060018101805484518185028101850190955280855291936110d7939092908301828280156116f357602002820191906000526020600020905b81546001600160a01b031681526001909101906020018083116116d5575b50505050508260020180548060200260200160405190810160405280929190818152602001828054801561174657602002820191906000526020600020905b815481526020019060010190808311611732575b50505050506118ee84600301805480602002602001604051908101604052809291908181526020016000905b8282101561181e57838290600052602060002001805461179190614086565b80601f01602080910402602001604051908101604052809291908181526020018280546117bd90614086565b801561180a5780601f106117df5761010080835404028352916020019161180a565b820191906000526020600020905b8154815290600101906020018083116117ed57829003601f168201915b505050505081526020019060010190611772565b50505060048701805460408051602080840282018101909252828152935060009084015b828210156110c457838290600052602060002001805461186190614086565b80601f016020809104026020016040519081016040528092919081815260200182805461188d90614086565b80156118da5780601f106118af576101008083540402835291602001916118da565b820191906000526020600020905b8154815290600101906020018083116118bd57829003601f168201915b505050505081526020019060010190611842565b8460090154610a4a565b60006001600160e01b03198216636e665ced60e01b148061098b575061098b826124ab565b60008061192c86868686611328565b9050600461193982610db4565b600781111561194a5761194a613ca3565b146119675760405162461bcd60e51b8152600401610e6590614170565b60065460408051630d48571f60e31b815290516000926001600160a01b031691636a42b8f89160048083019260209291908290030181865afa1580156119b1573d6000803e3d6000fd5b505050506040513d601f19601f820116820180604052508101906119d591906141b1565b6119df90426141ca565b9050611a016119ed826124e0565b60008481526007602052604090209061254c565b60005b8751811015611c525760065488516001600160a01b039091169063f2b06537908a9084908110611a3657611a366141e2565b6020026020010151898481518110611a5057611a506141e2565b6020026020010151898581518110611a6a57611a6a6141e2565b602002602001015186604051602001611a8694939291906141f8565b604051602081830303815290604052805190602001206040518263ffffffff1660e01b8152600401611aba91815260200190565b602060405180830381865afa158015611ad7573d6000803e3d6000fd5b505050506040513d601f19601f82011682018060405250810190611afb919061423e565b15611b795760405162461bcd60e51b815260206004820152604260248201527f476f7665726e6f7254696d656c6f636b436f6d706f756e643a206964656e746960448201527f63616c2070726f706f73616c20616374696f6e20616c72656164792071756575606482015261195960f21b608482015260a401610e65565b60065488516001600160a01b0390911690633a66f901908a9084908110611ba257611ba26141e2565b6020026020010151898481518110611bbc57611bbc6141e2565b6020026020010151898581518110611bd657611bd66141e2565b6020026020010151866040518563ffffffff1660e01b8152600401611bfe94939291906141f8565b6020604051808303816000875af1158015611c1d573d6000803e3d6000fd5b505050506040513d601f19601f82011682018060405250810190611c4191906141b1565b50611c4b81614260565b9050611a04565b5060408051838152602081018390527f9a2e42fd6722813d69113e7d0079d3d940171428df7373df9c7f7617cfda289291015b60405180910390a15095945050505050565b600080611ca686868686611328565b90506000611cb382610db4565b90506004816007811115611cc957611cc9613ca3565b1480611ce657506005816007811115611ce457611ce4613ca3565b145b611d025760405162461bcd60e51b8152600401610e6590614170565b600082815260016020818152604092839020600201805460ff191690921790915590518381527f712ae1383f79ac853f8d882153778e0260ef8f03b504e2866e0593e04d2b291f910160405180910390a1611d60828888888861256a565b5095945050505050565b600061098b611d77612577565b8360405161190160f01b6020820152602281018390526042810182905260009060620160405160208183030381529060405280519060200120905092915050565b6000806000611dc98787878761269e565b91509150611d608161278b565b6000848152600160208190526040822090611df087610db4565b6007811115611e0157611e01613ca3565b14611e5a5760405162461bcd60e51b815260206004820152602360248201527f476f7665726e6f723a20766f7465206e6f742063757272656e746c792061637460448201526269766560e81b6064820152608401610e65565b604080516020810190915281546001600160401b031690819052600090611e82908790611636565b9050611e9087878784612946565b856001600160a01b03167fb8e138887d0aa13bab447e82de9d5c1777041ecd21ca36ba824ff1e6c07ddda488878488604051611ecf949392919061427b565b60405180910390a29695505050505050565b600080611eed83612aeb565b90506004816007811115611f0357611f03613ca3565b14611f0e5792915050565b6000611f19846111f8565b905080611f27575092915050565b600660009054906101000a90046001600160a01b03166001600160a01b031663c1a287e26040518163ffffffff1660e01b8152600401602060405180830381865afa158015611f7a573d6000803e3d6000fd5b505050506040513d601f19601f82011682018060405250810190611f9e91906141b1565b611fa890826141ca565b4210611fb8575060069392505050565b5060059392505050565b6060600082516001600160401b03811115611fdf57611fdf61385c565b60405190808252806020026020018201604052801561201257816020015b6060815260200190600190039081611ffd5790505b50905060005b84518110156120ec57848181518110612033576120336141e2565b6020026020010151516000146120a357848181518110612055576120556141e2565b602002602001015180519060200120848281518110612076576120766141e2565b602002602001015160405160200161208f9291906142a3565b6040516020818303038152906040526120be565b8381815181106120b5576120b56141e2565b60200260200101515b8282815181106120d0576120d06141e2565b6020026020010181905250806120e590614260565b9050612018565b509392505050565b6000610a3185858585612bfa565b60035460408051918252602082018390527fc565b045403dc03c2eea82b81a0465edad9e2e7fc4d97e11421c209da93d7a93910160405180910390a1600355565b600061219f33868686516001600160401b038111156121645761216461385c565b60405190808252806020026020018201604052801561219757816020015b60608152602001906001900390816121825790505b508787612266565b610a3185858585612d15565b600654604080516001600160a01b03928316815291831660208301527f08f74ea46ef7894f65eabfb5e6e695de773a000b47c529ab559178069b226401910160405180910390a1600680546001600160a01b0319166001600160a01b0392909216919091179055565b60008181526007602090815260408083208151928301909152546001600160401b031690819052610a80565b606061110b84848460405180606001604052806029815260200161449660299139612fd1565b805160208201206000612284878761227e8888611fc2565b85611328565b60008181526002602052604090206009810154919250906123185780546001600160a01b0319166001600160a01b038a1617815587516122cd90600183019060208b0190613564565b5086516122e390600283019060208a01906135c5565b5085516122f99060038301906020890190613600565b50845161230f9060048301906020880190613659565b50600981018390555b505050505050505050565b600081116123835760405162461bcd60e51b815260206004820152602760248201527f476f7665726e6f7253657474696e67733a20766f74696e6720706572696f6420604482015266746f6f206c6f7760c81b6064820152608401610e65565b60045460408051918252602082018390527f7e3f7f0708a84de9203036abaa450dccc85ad5ff52f78c170f3edb55cf5e8828910160405180910390a1600455565b60405163782d6fe160e01b81526001600160a01b038381166004830152602482018390526000917f00000000000000000000000000000000000000000000000000000000000000009091169063782d6fe190604401602060405180830381865afa158015612436573d6000803e3d6000fd5b505050506040513d601f19601f8201168201806040525081019061245a91906142d4565b6001600160601b03169392505050565b60055460408051918252602082018390527fccb45da8d5717e6c4544694297c4ba5cf151d455c9bb0ed4fc7a38411bc05461910160405180910390a1600555565b60006001600160e01b0319821663bf26d89760e01b148061098b57506301ffc9a760e01b6001600160e01b031983161461098b565b60006001600160401b038211156125485760405162461bcd60e51b815260206004820152602660248201527f53616665436173743a2076616c756520646f65736e27742066697420696e203660448201526534206269747360d01b6064820152608401610e65565b5090565b815467ffffffffffffffff19166001600160401b0391909116179055565b61132185858585856130f7565b6000306001600160a01b037f0000000000000000000000000000000000000000000000000000000000000000161480156125d057507f000000000000000000000000000000000000000000000000000000000000000046145b156125fa57507f000000000000000000000000000000000000000000000000000000000000000090565b50604080517f00000000000000000000000000000000000000000000000000000000000000006020808301919091527f0000000000000000000000000000000000000000000000000000000000000000828401527f000000000000000000000000000000000000000000000000000000000000000060608301524660808301523060a0808401919091528351808403909101815260c0909201909252805191012090565b6000807f7fffffffffffffffffffffffffffffff5d576e7357a4501ddfe92f46681b20a08311156126d55750600090506003612782565b8460ff16601b141580156126ed57508460ff16601c14155b156126fe5750600090506004612782565b6040805160008082526020820180845289905260ff881692820192909252606081018690526080810185905260019060a0016020604051602081039080840390855afa158015612752573d6000803e3d6000fd5b5050604051601f1901519150506001600160a01b03811661277b57600060019250925050612782565b9150600090505b94509492505050565b600081600481111561279f5761279f613ca3565b14156127a85750565b60018160048111156127bc576127bc613ca3565b141561280a5760405162461bcd60e51b815260206004820152601860248201527f45434453413a20696e76616c6964207369676e617475726500000000000000006044820152606401610e65565b600281600481111561281e5761281e613ca3565b141561286c5760405162461bcd60e51b815260206004820152601f60248201527f45434453413a20696e76616c6964207369676e6174757265206c656e677468006044820152606401610e65565b600381600481111561288057612880613ca3565b14156128d95760405162461bcd60e51b815260206004820152602260248201527f45434453413a20696e76616c6964207369676e6174757265202773272076616c604482015261756560f01b6064820152608401610e65565b60048160048111156128ed576128ed613ca3565b14156111545760405162461bcd60e51b815260206004820152602260248201527f45434453413a20696e76616c6964207369676e6174757265202776272076616c604482015261756560f01b6064820152608401610e65565b60008481526002602090815260408083206001600160a01b038716845260088101909252909120805460ff16156129d55760405162461bcd60e51b815260206004820152602d60248201527f476f7665726e6f72436f6d7061746962696c697479427261766f3a20766f746560448201526c08185b1c9958591e4818d85cdd609a1b6064820152608401610e65565b805460ff85166101000261ffff199091161760011781556129f583613276565b81546001600160601b039190911662010000026dffffffffffffffffffffffff00001990911617815560ff8416612a455782826006016000828254612a3a91906141ca565b90915550612ae39050565b60ff841660011415612a655782826005016000828254612a3a91906141ca565b60ff841660021415612a855782826007016000828254612a3a91906141ca565b60405162461bcd60e51b815260206004820152602d60248201527f476f7665726e6f72436f6d7061746962696c697479427261766f3a20696e766160448201526c6c696420766f7465207479706560981b6064820152608401610e65565b505050505050565b6000818152600160205260408120600281015460ff1615612b0f5750600792915050565b6002810154610100900460ff1615612b2a5750600292915050565b6000612b3584610a58565b905080612b845760405162461bcd60e51b815260206004820152601d60248201527f476f7665726e6f723a20756e6b6e6f776e2070726f706f73616c2069640000006044820152606401610e65565b438110612b95575060009392505050565b6000612ba085611278565b9050438110612bb457506001949350505050565b612bbd856132de565b8015612bdf575060008581526002602052604090206006810154600590910154115b15612bef57506004949350505050565b506003949350505050565b600080612c0986868686613306565b90506000612c16826111f8565b90508015611d605760005b8751811015612cf25760065488516001600160a01b039091169063591fcdfe908a9084908110612c5357612c536141e2565b6020026020010151898481518110612c6d57612c6d6141e2565b6020026020010151898581518110612c8757612c876141e2565b6020026020010151866040518563ffffffff1660e01b8152600401612caf94939291906141f8565b600060405180830381600087803b158015612cc957600080fd5b505af1158015612cdd573d6000803e3d6000fd5b5050505080612ceb90614260565b9050612c21565b506000828152600760205260409020805467ffffffffffffffff19169055611d60565b6000612d1f611203565b612d2e336108316001436140d7565b1015612dae5760405162461bcd60e51b815260206004820152604360248201527f476f7665726e6f72436f6d7061746962696c697479427261766f3a2070726f7060448201527f6f73657220766f7465732062656c6f772070726f706f73616c207468726573686064820152621bdb1960ea1b608482015260a401610e65565b6000612dc38686868680519060200120611328565b90508451865114612de65760405162461bcd60e51b8152600401610e65906142fd565b8351865114612e075760405162461bcd60e51b8152600401610e65906142fd565b6000865111612e585760405162461bcd60e51b815260206004820152601860248201527f476f7665726e6f723a20656d7074792070726f706f73616c00000000000000006044820152606401610e65565b600081815260016020908152604091829020825191820190925281546001600160401b03169081905215612ed85760405162461bcd60e51b815260206004820152602160248201527f476f7665726e6f723a2070726f706f73616c20616c72656164792065786973746044820152607360f81b6064820152608401610e65565b6000612eeb612ee660035490565b6124e0565b612ef4436124e0565b612efe919061433e565b90506000612f0e612ee660045490565b612f18908361433e565b9050612f24838361254c565b612f31600184018261254c565b7f7d84a6263ae0d98d3329bd7b46bb4e8d6f98cd35a7adb45c274c8b7fd5ebd5e084338b8b8d516001600160401b03811115612f6f57612f6f61385c565b604051908082528060200260200182016040528015612fa257816020015b6060815260200190600190039081612f8d5790505b508c88888e604051612fbc99989796959493929190614369565b60405180910390a15091979650505050505050565b6060824710156130325760405162461bcd60e51b815260206004820152602660248201527f416464726573733a20696e73756666696369656e742062616c616e636520666f6044820152651c8818d85b1b60d21b6064820152608401610e65565b6001600160a01b0385163b6130895760405162461bcd60e51b815260206004820152601d60248201527f416464726573733a2063616c6c20746f206e6f6e2d636f6e74726163740000006044820152606401610e65565b600080866001600160a01b031685876040516130a5919061440c565b60006040518083038185875af1925050503d80600081146130e2576040519150601f19603f3d011682016040523d82523d6000602084013e6130e7565b606091505b5091509150610da9828286613412565b6000613102866111f8565b90506000811161316e5760405162461bcd60e51b815260206004820152603160248201527f476f7665726e6f7254696d656c6f636b436f6d706f756e643a2070726f706f73604482015270185b081b9bdd081e595d081c5d595d5959607a1b6064820152608401610e65565b600654613184906001600160a01b03163461344b565b60005b855181101561326d5760065486516001600160a01b0390911690630825f38f908890849081106131b9576131b96141e2565b60200260200101518784815181106131d3576131d36141e2565b60200260200101518785815181106131ed576131ed6141e2565b6020026020010151866040518563ffffffff1660e01b815260040161321594939291906141f8565b6000604051808303816000875af1158015613234573d6000803e3d6000fd5b505050506040513d6000823e601f3d908101601f1916820160405261325c9190810190614428565b5061326681614260565b9050613187565b50505050505050565b60006001600160601b038211156125485760405162461bcd60e51b815260206004820152602660248201527f53616665436173743a2076616c756520646f65736e27742066697420696e203960448201526536206269747360d01b6064820152608401610e65565b600081815260026020526040812060058101546132fd61087185610a58565b11159392505050565b60008061331586868686611328565b9050600061332282610db4565b9050600281600781111561333857613338613ca3565b141580156133585750600681600781111561335557613355613ca3565b14155b80156133765750600781600781111561337357613373613ca3565b14155b6133c25760405162461bcd60e51b815260206004820152601d60248201527f476f7665726e6f723a2070726f706f73616c206e6f74206163746976650000006044820152606401610e65565b60008281526001602052604090819020600201805461ff001916610100179055517f789cf55be980739dad1d0699b93b58e806b51c9d96619bfa8fe0a28abaa7b30c90611c859084815260200190565b60608315613421575081611642565b8251156134315782518084602001fd5b8160405162461bcd60e51b8152600401610e659190613849565b8047101561349b5760405162461bcd60e51b815260206004820152601d60248201527f416464726573733a20696e73756666696369656e742062616c616e63650000006044820152606401610e65565b6000826001600160a01b03168260405160006040518083038185875af1925050503d80600081146134e8576040519150601f19603f3d011682016040523d82523d6000602084013e6134ed565b606091505b50509050806110d75760405162461bcd60e51b815260206004820152603a60248201527f416464726573733a20756e61626c6520746f2073656e642076616c75652c207260448201527f6563697069656e74206d617920686176652072657665727465640000000000006064820152608401610e65565b8280548282559060005260206000209081019282156135b9579160200282015b828111156135b957825182546001600160a01b0319166001600160a01b03909116178255602090920191600190910190613584565b506125489291506136b2565b8280548282559060005260206000209081019282156135b9579160200282015b828111156135b95782518255916020019190600101906135e5565b82805482825590600052602060002090810192821561364d579160200282015b8281111561364d578251805161363d9184916020909101906136c7565b5091602001919060010190613620565b5061254892915061373a565b8280548282559060005260206000209081019282156136a6579160200282015b828111156136a657825180516136969184916020909101906136c7565b5091602001919060010190613679565b50612548929150613757565b5b8082111561254857600081556001016136b3565b8280546136d390614086565b90600052602060002090601f0160209004810192826136f557600085556135b9565b82601f1061370e57805160ff19168380011785556135b9565b828001600101855582156135b957918201828111156135b95782518255916020019190600101906135e5565b8082111561254857600061374e8282613774565b5060010161373a565b8082111561254857600061376b8282613774565b50600101613757565b50805461378090614086565b6000825580601f10613790575050565b601f01602090049060005260206000209081019061115491906136b2565b6000602082840312156137c057600080fd5b5035919050565b6000602082840312156137d957600080fd5b81356001600160e01b03198116811461164257600080fd5b60005b8381101561380c5781810151838201526020016137f4565b838111156112725750506000910152565b600081518084526138358160208601602086016137f1565b601f01601f19169290920160200192915050565b602081526000611642602083018461381d565b634e487b7160e01b600052604160045260246000fd5b604051601f8201601f191681016001600160401b038111828210171561389a5761389a61385c565b604052919050565b60006001600160401b038211156138bb576138bb61385c565b5060051b60200190565b6001600160a01b038116811461115457600080fd5b600082601f8301126138eb57600080fd5b813560206139006138fb836138a2565b613872565b82815260059290921b8401810191818101908684111561391f57600080fd5b8286015b84811015613943578035613936816138c5565b8352918301918301613923565b509695505050505050565b600082601f83011261395f57600080fd5b8135602061396f6138fb836138a2565b82815260059290921b8401810191818101908684111561398e57600080fd5b8286015b848110156139435780358352918301918301613992565b60006001600160401b038211156139c2576139c261385c565b50601f01601f191660200190565b60006139de6138fb846139a9565b90508281528383830111156139f257600080fd5b828260208301376000602084830101529392505050565b600082601f830112613a1a57600080fd5b81356020613a2a6138fb836138a2565b82815260059290921b84018101918181019086841115613a4957600080fd5b8286015b848110156139435780356001600160401b03811115613a6c5760008081fd5b8701603f81018913613a7e5760008081fd5b613a8f8986830135604084016139d0565b845250918301918301613a4d565b60008060008060808587031215613ab357600080fd5b84356001600160401b0380821115613aca57600080fd5b613ad6888389016138da565b95506020870135915080821115613aec57600080fd5b613af88883890161394e565b94506040870135915080821115613b0e57600080fd5b50613b1b87828801613a09565b949793965093946060013593505050565b600081518084526020808501945080840160005b83811015613b655781516001600160a01b031687529582019590820190600101613b40565b509495945050505050565b600081518084526020808501945080840160005b83811015613b6557815187529582019590820190600101613b84565b6000815180845260208085019450848260051b860182860160005b85811015613be5578383038952613bd383835161381d565b98850198925090840190600101613bbb565b5090979650505050505050565b608081526000613c056080830187613b2c565b8281036020840152613c178187613b70565b90508281036040840152613c2b8186613ba0565b90508281036060840152610da98185613ba0565b803560ff81168114613c5057600080fd5b919050565b600080600080600060a08688031215613c6d57600080fd5b85359450613c7d60208701613c3f565b9350613c8b60408701613c3f565b94979396509394606081013594506080013592915050565b634e487b7160e01b600052602160045260246000fd5b6020810160088310613cdb57634e487b7160e01b600052602160045260246000fd5b91905290565b60008060408385031215613cf457600080fd5b823591506020830135613d06816138c5565b809150509250929050565b60008060408385031215613d2457600080fd5b82359150613d3460208401613c3f565b90509250929050565b60008083601f840112613d4f57600080fd5b5081356001600160401b03811115613d6657600080fd5b602083019150836020828501011115613d7e57600080fd5b9250929050565b60008060008060608587031215613d9b57600080fd5b84359350613dab60208601613c3f565b925060408501356001600160401b03811115613dc657600080fd5b613dd287828801613d3d565b95989497509550505050565b600082601f830112613def57600080fd5b611642838335602085016139d0565b60008060008060808587031215613e1457600080fd5b84356001600160401b0380821115613e2b57600080fd5b613e37888389016138da565b95506020870135915080821115613e4d57600080fd5b613e598883890161394e565b94506040870135915080821115613e6f57600080fd5b613e7b88838901613a09565b93506060870135915080821115613e9157600080fd5b50613e9e87828801613dde565b91505092959194509250565b600060208284031215613ebc57600080fd5b8135611642816138c5565b60008060008060608587031215613edd57600080fd5b8435613ee8816138c5565b93506020850135925060408501356001600160401b03811115613dc657600080fd5b600082601f830112613f1b57600080fd5b81356020613f2b6138fb836138a2565b82815260059290921b84018101918181019086841115613f4a57600080fd5b8286015b848110156139435780356001600160401b03811115613f6d5760008081fd5b613f7b8986838b0101613dde565b845250918301918301613f4e565b600080600080600060a08688031215613fa157600080fd5b85356001600160401b0380821115613fb857600080fd5b613fc489838a016138da565b96506020880135915080821115613fda57600080fd5b613fe689838a0161394e565b95506040880135915080821115613ffc57600080fd5b61400889838a01613f0a565b9450606088013591508082111561401e57600080fd5b61402a89838a01613a09565b9350608088013591508082111561404057600080fd5b5061404d88828901613dde565b9150509295509295909350565b6000806040838503121561406d57600080fd5b8235614078816138c5565b946020939093013593505050565b600181811c9082168061409a57607f821691505b602082108114156140bb57634e487b7160e01b600052602260045260246000fd5b50919050565b634e487b7160e01b600052601160045260246000fd5b6000828210156140e9576140e96140c1565b500390565b60208082526018908201527f476f7665726e6f723a206f6e6c79476f7665726e616e63650000000000000000604082015260600190565b6080815260006141386080830187613b2c565b828103602084015261414a8187613b70565b9050828103604084015261415e8186613ba0565b91505082606083015295945050505050565b60208082526021908201527f476f7665726e6f723a2070726f706f73616c206e6f74207375636365737366756040820152601b60fa1b606082015260800190565b6000602082840312156141c357600080fd5b5051919050565b600082198211156141dd576141dd6140c1565b500190565b634e487b7160e01b600052603260045260246000fd5b60018060a01b038516815283602082015260a06040820152600060a082015260c06060820152600061422d60c083018561381d565b905082608083015295945050505050565b60006020828403121561425057600080fd5b8151801515811461164257600080fd5b6000600019821415614274576142746140c1565b5060010190565b84815260ff8416602082015282604082015260806060820152600061119f608083018461381d565b6001600160e01b03198316815281516000906142c68160048501602087016137f1565b919091016004019392505050565b6000602082840312156142e657600080fd5b81516001600160601b038116811461164257600080fd5b60208082526021908201527f476f7665726e6f723a20696e76616c69642070726f706f73616c206c656e67746040820152600d60fb1b606082015260800190565b60006001600160401b03808316818516808303821115614360576143606140c1565b01949350505050565b8981526001600160a01b0389166020820152610120604082018190526000906143948382018b613b2c565b905082810360608401526143a8818a613b70565b905082810360808401526143bc8189613ba0565b905082810360a08401526143d08188613ba0565b6001600160401b0387811660c0860152861660e085015283810361010085015290506143fc818561381d565b9c9b505050505050505050505050565b6000825161441e8184602087016137f1565b9190910192915050565b60006020828403121561443a57600080fd5b81516001600160401b0381111561445057600080fd5b8201601f8101841361446157600080fd5b805161446f6138fb826139a9565b81815285602083850101111561448457600080fd5b610a318260208301602086016137f156fe416464726573733a206c6f772d6c6576656c2063616c6c20776974682076616c7565206661696c6564a264697066735822122079a9df1cca88ecb837e1738cac98d5250e1c3d7fcbe6b8a7e592f61375fc32f864736f6c634300080c0033",
  "bytecodeSha1": "da6ad3c0e0dc20aad303e88d865ef697e482fb54",
  "compiler": {
    "evm_version": "istanbul",
    "optimizer": {
      "enabled": true,
      "runs": 200
    },
    "version": "0.8.12+commit.f00d7308"
  },
  "contractName": "GovernorCompatibilityBravoMock",
  "language": "Solidity",
  "natspec": {
    "kind": "dev",
    "methods": {
      "COUNTING_MODE()": {
        "details": "A description of the possible `support` values for {castVote} and the way these votes are counted, meant to be consumed by UIs to show correct vote options and interpret the results. The string is a URL-encoded sequence of key-value pairs that each describe one aspect, for example `support=bravo&quorum=for,abstain`. There are 2 standard keys: `support` and `quorum`. - `support=bravo` refers to the vote options 0 = Against, 1 = For, 2 = Abstain, as in `GovernorBravo`. - `quorum=bravo` means that only For votes are counted towards quorum. - `quorum=for,abstain` means that both For and Abstain votes are counted towards quorum. NOTE: The string can be decoded by the standard https://developer.mozilla.org/en-US/docs/Web/API/URLSearchParams[`URLSearchParams`] JavaScript class.",
        "notice": "module:voting"
      },
      "__acceptAdmin()": {
        "details": "Accept admin right over the timelock."
      },
      "cancel(address[],uint256[],bytes[],bytes32)": {
        "notice": "WARNING: this is for mock purposes only. Ability to the _cancel function should be restricted for live deployments."
      },
      "cancel(uint256)": {
        "details": "Cancels a proposal only if sender is the proposer, or proposer delegates dropped below proposal threshold."
      },
      "castVote(uint256,uint8)": {
        "details": "See {IGovernor-castVote}."
      },
      "castVoteBySig(uint256,uint8,uint8,bytes32,bytes32)": {
        "details": "See {IGovernor-castVoteBySig}."
      },
      "castVoteWithReason(uint256,uint8,string)": {
        "details": "See {IGovernor-castVoteWithReason}."
      },
      "execute(uint256)": {
        "details": "See {IGovernorCompatibilityBravo-execute}."
      },
      "getActions(uint256)": {
        "details": "See {IGovernorCompatibilityBravo-getActions}."
      },
      "getReceipt(uint256,address)": {
        "details": "See {IGovernorCompatibilityBravo-getReceipt}."
      },
      "hasVoted(uint256,address)": {
        "details": "See {IGovernor-hasVoted}."
      },
      "hashProposal(address[],uint256[],bytes[],bytes32)": {
        "details": "See {IGovernor-hashProposal}. The proposal id is produced by hashing the RLC encoded `targets` array, the `values` array, the `calldatas` array and the descriptionHash (bytes32 which itself is the keccak256 hash of the description string). This proposal id can be produced from the proposal data which is part of the {ProposalCreated} event. It can even be computed in advance, before the proposal is submitted. Note that the chainId and the governor address are not part of the proposal id computation. Consequently, the same proposal (with same operation and same description) will have the same id if submitted on multiple governors accross multiple networks. This also means that in order to execute the same operation twice (on the same governor) the proposer will have to change the description in order to avoid proposal id conflicts."
      },
      "name()": {
        "details": "See {IGovernor-name}."
      },
      "proposalDeadline(uint256)": {
        "details": "See {IGovernor-proposalDeadline}."
      },
      "proposalSnapshot(uint256)": {
        "details": "See {IGovernor-proposalSnapshot}."
      },
      "proposals(uint256)": {
        "details": "See {IGovernorCompatibilityBravo-proposals}."
      },
      "propose(address[],uint256[],string[],bytes[],string)": {
        "details": "See {IGovernorCompatibilityBravo-propose}."
      },
      "queue(uint256)": {
        "details": "See {IGovernorCompatibilityBravo-queue}."
      },
      "quorumVotes()": {
        "details": "See {IGovernorCompatibilityBravo-quorumVotes}."
      },
      "relay(address,uint256,bytes)": {
        "details": "Relays a transaction or function call to an arbitrary target. In cases where the governance executor is some contract other than the governor itself, like when using a timelock, this function can be invoked in a governance proposal to recover tokens or Ether that was sent to the governor contract by mistake. Note that if the executor is simply the governor itself, use of `relay` is redundant."
      },
      "setProposalThreshold(uint256)": {
        "details": "Update the proposal threshold. This operation can only be performed through a governance proposal. Emits a {ProposalThresholdSet} event."
      },
      "setVotingDelay(uint256)": {
        "details": "Update the voting delay. This operation can only be performed through a governance proposal. Emits a {VotingDelaySet} event."
      },
      "setVotingPeriod(uint256)": {
        "details": "Update the voting period. This operation can only be performed through a governance proposal. Emits a {VotingPeriodSet} event."
      },
      "timelock()": {
        "details": "Public accessor to check the address of the timelock"
      },
      "updateTimelock(address)": {
        "details": "Public endpoint to update the underlying timelock instance. Restricted to the timelock itself, so updates must be proposed, scheduled, and executed through governance proposals. For security reasons, the timelock must be handed over to another admin before setting up a new one. The two operations (hand over the timelock) and do the update can be batched in a single proposal. Note that if the timelock admin has been handed over in a previous operation, we refuse updates made through the timelock if admin of the timelock has already been accepted and the operation is executed outside the scope of governance. CAUTION: It is not recommended to change the timelock while there are other queued governance proposals."
      },
      "version()": {
        "details": "See {IGovernor-version}."
      },
      "votingDelay()": {
        "details": "See {IGovernor-votingDelay}."
      },
      "votingPeriod()": {
        "details": "See {IGovernor-votingPeriod}."
      }
    },
    "version": 1
  },
  "opcodes": "PUSH1 0x80 PUSH1 0x40 MSTORE PUSH1 0x4 CALLDATASIZE LT PUSH2 0x234 JUMPI PUSH1 0x0 CALLDATALOAD PUSH1 0xE0 SHR DUP1 PUSH4 0x7D5E81E2 GT PUSH2 0x12E JUMPI DUP1 PUSH4 0xDD4E2BA5 GT PUSH2 0xAB JUMPI DUP1 PUSH4 0xEB9019D4 GT PUSH2 0x6F JUMPI DUP1 PUSH4 0xEB9019D4 EQ PUSH2 0x816 JUMPI DUP1 PUSH4 0xECE40CC1 EQ PUSH2 0x836 JUMPI DUP1 PUSH4 0xF8CE560A EQ PUSH2 0x856 JUMPI DUP1 PUSH4 0xFC0C546A EQ PUSH2 0x877 JUMPI DUP1 PUSH4 0xFE0D94C1 EQ PUSH2 0x8AB JUMPI PUSH1 0x0 DUP1 REVERT JUMPDEST DUP1 PUSH4 0xDD4E2BA5 EQ PUSH2 0x692 JUMPI DUP1 PUSH4 0xDDF0B009 EQ PUSH2 0x6D8 JUMPI DUP1 PUSH4 0xDEAAA7CC EQ PUSH2 0x6F8 JUMPI DUP1 PUSH4 0xE23A9A52 EQ PUSH2 0x72C JUMPI DUP1 PUSH4 0xEA0217CF EQ PUSH2 0x7F6 JUMPI PUSH1 0x0 DUP1 REVERT JUMPDEST DUP1 PUSH4 0xC01F9E37 GT PUSH2 0xF2 JUMPI DUP1 PUSH4 0xC01F9E37 EQ PUSH2 0x5E0 JUMPI DUP1 PUSH4 0xC28BC2FA EQ PUSH2 0x600 JUMPI DUP1 PUSH4 0xC59057E4 EQ PUSH2 0x620 JUMPI DUP1 PUSH4 0xD33219B4 EQ PUSH2 0x640 JUMPI DUP1 PUSH4 0xDA95691A EQ PUSH2 0x672 JUMPI PUSH1 0x0 DUP1 REVERT JUMPDEST DUP1 PUSH4 0x7D5E81E2 EQ PUSH2 0x556 JUMPI DUP1 PUSH4 0xA890C910 EQ PUSH2 0x576 JUMPI DUP1 PUSH4 0xAB58FB8E EQ PUSH2 0x596 JUMPI DUP1 PUSH4 0xB58131B0 EQ PUSH2 0x5B6 JUMPI DUP1 PUSH4 0xB9A61961 EQ PUSH2 0x5CB JUMPI PUSH1 0x0 DUP1 REVERT JUMPDEST DUP1 PUSH4 0x3932ABB1 GT PUSH2 0x1BC JUMPI DUP1 PUSH4 0x452115D6 GT PUSH2 0x180 JUMPI DUP1 PUSH4 0x452115D6 EQ PUSH2 0x4AC JUMPI DUP1 PUSH4 0x54FD4D50 EQ PUSH2 0x4CC JUMPI DUP1 PUSH4 0x56781388 EQ PUSH2 0x4F6 JUMPI DUP1 PUSH4 0x70B0F660 EQ PUSH2 0x516 JUMPI DUP1 PUSH4 0x7B3C71D3 EQ PUSH2 0x536 JUMPI PUSH1 0x0 DUP1 REVERT JUMPDEST DUP1 PUSH4 0x3932ABB1 EQ PUSH2 0x3E0 JUMPI DUP1 PUSH4 0x3BCCF4FD EQ PUSH2 0x3F5 JUMPI DUP1 PUSH4 0x3E4F49E6 EQ PUSH2 0x415 JUMPI DUP1 PUSH4 0x40E58EE5 EQ PUSH2 0x442 JUMPI DUP1 PUSH4 0x43859632 EQ PUSH2 0x462 JUMPI PUSH1 0x0 DUP1 REVERT JUMPDEST DUP1 PUSH4 0x160CBED7 GT PUSH2 0x203 JUMPI DUP1 PUSH4 0x160CBED7 EQ PUSH2 0x348 JUMPI DUP1 PUSH4 0x24BC1A64 EQ PUSH2 0x368 JUMPI DUP1 PUSH4 0x2656227D EQ PUSH2 0x37D JUMPI DUP1 PUSH4 0x2D63F693 EQ PUSH2 0x390 JUMPI DUP1 PUSH4 0x328DD982 EQ PUSH2 0x3B0 JUMPI PUSH1 0x0 DUP1 REVERT JUMPDEST DUP1 PUSH4 0x13CF08B EQ PUSH2 0x25C JUMPI DUP1 PUSH4 0x1FFC9A7 EQ PUSH2 0x2D7 JUMPI DUP1 PUSH4 0x2A251A3 EQ PUSH2 0x307 JUMPI DUP1 PUSH4 0x6FDDE03 EQ PUSH2 0x326 JUMPI PUSH1 0x0 DUP1 REVERT JUMPDEST CALLDATASIZE PUSH2 0x257 JUMPI ADDRESS PUSH2 0x242 PUSH2 0x8BE JUMP JUMPDEST PUSH1 0x1 PUSH1 0x1 PUSH1 0xA0 SHL SUB AND EQ PUSH2 0x255 JUMPI PUSH1 0x0 DUP1 REVERT JUMPDEST STOP JUMPDEST PUSH1 0x0 DUP1 REVERT JUMPDEST CALLVALUE DUP1 ISZERO PUSH2 0x268 JUMPI PUSH1 0x0 DUP1 REVERT JUMPDEST POP PUSH2 0x27C PUSH2 0x277 CALLDATASIZE PUSH1 0x4 PUSH2 0x37AE JUMP JUMPDEST PUSH2 0x8D7 JUMP JUMPDEST PUSH1 0x40 DUP1 MLOAD SWAP11 DUP12 MSTORE PUSH1 0x1 PUSH1 0x1 PUSH1 0xA0 SHL SUB SWAP1 SWAP10 AND PUSH1 0x20 DUP12 ADD MSTORE SWAP8 DUP10 ADD SWAP7 SWAP1 SWAP7 MSTORE PUSH1 0x60 DUP9 ADD SWAP5 SWAP1 SWAP5 MSTORE PUSH1 0x80 DUP8 ADD SWAP3 SWAP1 SWAP3 MSTORE PUSH1 0xA0 DUP7 ADD MSTORE PUSH1 0xC0 DUP6 ADD MSTORE PUSH1 0xE0 DUP5 ADD MSTORE ISZERO ISZERO PUSH2 0x100 DUP4 ADD MSTORE ISZERO ISZERO PUSH2 0x120 DUP3 ADD MSTORE PUSH2 0x140 ADD JUMPDEST PUSH1 0x40 MLOAD DUP1 SWAP2 SUB SWAP1 RETURN JUMPDEST CALLVALUE DUP1 ISZERO PUSH2 0x2E3 JUMPI PUSH1 0x0 DUP1 REVERT JUMPDEST POP PUSH2 0x2F7 PUSH2 0x2F2 CALLDATASIZE PUSH1 0x4 PUSH2 0x37C7 JUMP JUMPDEST PUSH2 0x980 JUMP JUMPDEST PUSH1 0x40 MLOAD SWAP1 ISZERO ISZERO DUP2 MSTORE PUSH1 0x20 ADD PUSH2 0x2CE JUMP JUMPDEST CALLVALUE DUP1 ISZERO PUSH2 0x313 JUMPI PUSH1 0x0 DUP1 REVERT JUMPDEST POP PUSH1 0x4 SLOAD JUMPDEST PUSH1 0x40 MLOAD SWAP1 DUP2 MSTORE PUSH1 0x20 ADD PUSH2 0x2CE JUMP JUMPDEST CALLVALUE DUP1 ISZERO PUSH2 0x332 JUMPI PUSH1 0x0 DUP1 REVERT JUMPDEST POP PUSH2 0x33B PUSH2 0x991 JUMP JUMPDEST PUSH1 0x40 MLOAD PUSH2 0x2CE SWAP2 SWAP1 PUSH2 0x3849 JUMP JUMPDEST CALLVALUE DUP1 ISZERO PUSH2 0x354 JUMPI PUSH1 0x0 DUP1 REVERT JUMPDEST POP PUSH2 0x318 PUSH2 0x363 CALLDATASIZE PUSH1 0x4 PUSH2 0x3A9D JUMP JUMPDEST PUSH2 0xA23 JUMP JUMPDEST CALLVALUE DUP1 ISZERO PUSH2 0x374 JUMPI PUSH1 0x0 DUP1 REVERT JUMPDEST POP PUSH2 0x318 PUSH2 0xA3A JUMP JUMPDEST PUSH2 0x318 PUSH2 0x38B CALLDATASIZE PUSH1 0x4 PUSH2 0x3A9D JUMP JUMPDEST PUSH2 0xA4A JUMP JUMPDEST CALLVALUE DUP1 ISZERO PUSH2 0x39C JUMPI PUSH1 0x0 DUP1 REVERT JUMPDEST POP PUSH2 0x318 PUSH2 0x3AB CALLDATASIZE PUSH1 0x4 PUSH2 0x37AE JUMP JUMPDEST PUSH2 0xA58 JUMP JUMPDEST CALLVALUE DUP1 ISZERO PUSH2 0x3BC JUMPI PUSH1 0x0 DUP1 REVERT JUMPDEST POP PUSH2 0x3D0 PUSH2 0x3CB CALLDATASIZE PUSH1 0x4 PUSH2 0x37AE JUMP JUMPDEST PUSH2 0xA8F JUMP JUMPDEST PUSH1 0x40 MLOAD PUSH2 0x2CE SWAP5 SWAP4 SWAP3 SWAP2 SWAP1 PUSH2 0x3BF2 JUMP JUMPDEST CALLVALUE DUP1 ISZERO PUSH2 0x3EC JUMPI PUSH1 0x0 DUP1 REVERT JUMPDEST POP PUSH1 0x3 SLOAD PUSH2 0x318 JUMP JUMPDEST CALLVALUE DUP1 ISZERO PUSH2 0x401 JUMPI PUSH1 0x0 DUP1 REVERT JUMPDEST POP PUSH2 0x318 PUSH2 0x410 CALLDATASIZE PUSH1 0x4 PUSH2 0x3C55 JUMP JUMPDEST PUSH2 0xD20 JUMP JUMPDEST CALLVALUE DUP1 ISZERO PUSH2 0x421 JUMPI PUSH1 0x0 DUP1 REVERT JUMPDEST POP PUSH2 0x435 PUSH2 0x430 CALLDATASIZE PUSH1 0x4 PUSH2 0x37AE JUMP JUMPDEST PUSH2 0xDB4 JUMP JUMPDEST PUSH1 0x40 MLOAD PUSH2 0x2CE SWAP2 SWAP1 PUSH2 0x3CB9 JUMP JUMPDEST CALLVALUE DUP1 ISZERO PUSH2 0x44E JUMPI PUSH1 0x0 DUP1 REVERT JUMPDEST POP PUSH2 0x255 PUSH2 0x45D CALLDATASIZE PUSH1 0x4 PUSH2 0x37AE JUMP JUMPDEST PUSH2 0xDBF JUMP JUMPDEST CALLVALUE DUP1 ISZERO PUSH2 0x46E JUMPI PUSH1 0x0 DUP1 REVERT JUMPDEST POP PUSH2 0x2F7 PUSH2 0x47D CALLDATASIZE PUSH1 0x4 PUSH2 0x3CE1 JUMP JUMPDEST PUSH1 0x0 DUP3 DUP2 MSTORE PUSH1 0x2 PUSH1 0x20 SWAP1 DUP2 MSTORE PUSH1 0x40 DUP1 DUP4 KECCAK256 PUSH1 0x1 PUSH1 0x1 PUSH1 0xA0 SHL SUB DUP6 AND DUP5 MSTORE PUSH1 0x8 ADD SWAP1 SWAP2 MSTORE SWAP1 KECCAK256 SLOAD PUSH1 0xFF AND SWAP3 SWAP2 POP POP JUMP JUMPDEST CALLVALUE DUP1 ISZERO PUSH2 0x4B8 JUMPI PUSH1 0x0 DUP1 REVERT JUMPDEST POP PUSH2 0x318 PUSH2 0x4C7 CALLDATASIZE PUSH1 0x4 PUSH2 0x3A9D JUMP JUMPDEST PUSH2 0x10DC JUMP JUMPDEST CALLVALUE DUP1 ISZERO PUSH2 0x4D8 JUMPI PUSH1 0x0 DUP1 REVERT JUMPDEST POP PUSH1 0x40 DUP1 MLOAD DUP1 DUP3 ADD SWAP1 SWAP2 MSTORE PUSH1 0x1 DUP2 MSTORE PUSH1 0x31 PUSH1 0xF8 SHL PUSH1 0x20 DUP3 ADD MSTORE PUSH2 0x33B JUMP JUMPDEST CALLVALUE DUP1 ISZERO PUSH2 0x502 JUMPI PUSH1 0x0 DUP1 REVERT JUMPDEST POP PUSH2 0x318 PUSH2 0x511 CALLDATASIZE PUSH1 0x4 PUSH2 0x3D11 JUMP JUMPDEST PUSH2 0x10EA JUMP JUMPDEST CALLVALUE DUP1 ISZERO PUSH2 0x522 JUMPI PUSH1 0x0 DUP1 REVERT JUMPDEST POP PUSH2 0x255 PUSH2 0x531 CALLDATASIZE PUSH1 0x4 PUSH2 0x37AE JUMP JUMPDEST PUSH2 0x1113 JUMP JUMPDEST CALLVALUE DUP1 ISZERO PUSH2 0x542 JUMPI PUSH1 0x0 DUP1 REVERT JUMPDEST POP PUSH2 0x318 PUSH2 0x551 CALLDATASIZE PUSH1 0x4 PUSH2 0x3D85 JUMP JUMPDEST PUSH2 0x1157 JUMP JUMPDEST CALLVALUE DUP1 ISZERO PUSH2 0x562 JUMPI PUSH1 0x0 DUP1 REVERT JUMPDEST POP PUSH2 0x318 PUSH2 0x571 CALLDATASIZE PUSH1 0x4 PUSH2 0x3DFE JUMP JUMPDEST PUSH2 0x11A9 JUMP JUMPDEST CALLVALUE DUP1 ISZERO PUSH2 0x582 JUMPI PUSH1 0x0 DUP1 REVERT JUMPDEST POP PUSH2 0x255 PUSH2 0x591 CALLDATASIZE PUSH1 0x4 PUSH2 0x3EAA JUMP JUMPDEST PUSH2 0x11B7 JUMP JUMPDEST CALLVALUE DUP1 ISZERO PUSH2 0x5A2 JUMPI PUSH1 0x0 DUP1 REVERT JUMPDEST POP PUSH2 0x318 PUSH2 0x5B1 CALLDATASIZE PUSH1 0x4 PUSH2 0x37AE JUMP JUMPDEST PUSH2 0x11F8 JUMP JUMPDEST CALLVALUE DUP1 ISZERO PUSH2 0x5C2 JUMPI PUSH1 0x0 DUP1 REVERT JUMPDEST POP PUSH2 0x318 PUSH2 0x1203 JUMP JUMPDEST CALLVALUE DUP1 ISZERO PUSH2 0x5D7 JUMPI PUSH1 0x0 DUP1 REVERT JUMPDEST POP PUSH2 0x255 PUSH2 0x120E JUMP JUMPDEST CALLVALUE DUP1 ISZERO PUSH2 0x5EC JUMPI PUSH1 0x0 DUP1 REVERT JUMPDEST POP PUSH2 0x318 PUSH2 0x5FB CALLDATASIZE PUSH1 0x4 PUSH2 0x37AE JUMP JUMPDEST PUSH2 0x1278 JUMP JUMPDEST CALLVALUE DUP1 ISZERO PUSH2 0x60C JUMPI PUSH1 0x0 DUP1 REVERT JUMPDEST POP PUSH2 0x255 PUSH2 0x61B CALLDATASIZE PUSH1 0x4 PUSH2 0x3EC7 JUMP JUMPDEST PUSH2 0x12A7 JUMP JUMPDEST CALLVALUE DUP1 ISZERO PUSH2 0x62C JUMPI PUSH1 0x0 DUP1 REVERT JUMPDEST POP PUSH2 0x318 PUSH2 0x63B CALLDATASIZE PUSH1 0x4 PUSH2 0x3A9D JUMP JUMPDEST PUSH2 0x1328 JUMP JUMPDEST CALLVALUE DUP1 ISZERO PUSH2 0x64C JUMPI PUSH1 0x0 DUP1 REVERT JUMPDEST POP PUSH1 0x6 SLOAD PUSH1 0x1 PUSH1 0x1 PUSH1 0xA0 SHL SUB AND JUMPDEST PUSH1 0x40 MLOAD PUSH1 0x1 PUSH1 0x1 PUSH1 0xA0 SHL SUB SWAP1 SWAP2 AND DUP2 MSTORE PUSH1 0x20 ADD PUSH2 0x2CE JUMP JUMPDEST CALLVALUE DUP1 ISZERO PUSH2 0x67E JUMPI PUSH1 0x0 DUP1 REVERT JUMPDEST POP PUSH2 0x318 PUSH2 0x68D CALLDATASIZE PUSH1 0x4 PUSH2 0x3F89 JUMP JUMPDEST PUSH2 0x1362 JUMP JUMPDEST CALLVALUE DUP1 ISZERO PUSH2 0x69E JUMPI PUSH1 0x0 DUP1 REVERT JUMPDEST POP PUSH1 0x40 DUP1 MLOAD DUP1 DUP3 ADD SWAP1 SWAP2 MSTORE PUSH1 0x1A DUP2 MSTORE PUSH32 0x737570706F72743D627261766F2671756F72756D3D627261766F000000000000 PUSH1 0x20 DUP3 ADD MSTORE PUSH2 0x33B JUMP JUMPDEST CALLVALUE DUP1 ISZERO PUSH2 0x6E4 JUMPI PUSH1 0x0 DUP1 REVERT JUMPDEST POP PUSH2 0x255 PUSH2 0x6F3 CALLDATASIZE PUSH1 0x4 PUSH2 0x37AE JUMP JUMPDEST PUSH2 0x1387 JUMP JUMPDEST CALLVALUE DUP1 ISZERO PUSH2 0x704 JUMPI PUSH1 0x0 DUP1 REVERT JUMPDEST POP PUSH2 0x318 PUSH32 0x150214D74D59B7D1E90C73FC22EF3D991DD0A76B046543D4D80AB92D2A50328F DUP2 JUMP JUMPDEST CALLVALUE DUP1 ISZERO PUSH2 0x738 JUMPI PUSH1 0x0 DUP1 REVERT JUMPDEST POP PUSH2 0x7C6 PUSH2 0x747 CALLDATASIZE PUSH1 0x4 PUSH2 0x3CE1 JUMP JUMPDEST PUSH1 0x40 DUP1 MLOAD PUSH1 0x60 DUP2 ADD DUP3 MSTORE PUSH1 0x0 DUP1 DUP3 MSTORE PUSH1 0x20 DUP3 ADD DUP2 SWAP1 MSTORE SWAP2 DUP2 ADD SWAP2 SWAP1 SWAP2 MSTORE POP PUSH1 0x0 SWAP2 DUP3 MSTORE PUSH1 0x2 PUSH1 0x20 SWAP1 DUP2 MSTORE PUSH1 0x40 DUP1 DUP5 KECCAK256 PUSH1 0x1 PUSH1 0x1 PUSH1 0xA0 SHL SUB SWAP4 SWAP1 SWAP4 AND DUP5 MSTORE PUSH1 0x8 SWAP1 SWAP3 ADD DUP2 MSTORE SWAP2 DUP2 SWAP1 KECCAK256 DUP2 MLOAD PUSH1 0x60 DUP2 ADD DUP4 MSTORE SWAP1 SLOAD PUSH1 0xFF DUP1 DUP3 AND ISZERO ISZERO DUP4 MSTORE PUSH2 0x100 DUP3 DIV AND SWAP4 DUP3 ADD SWAP4 SWAP1 SWAP4 MSTORE PUSH3 0x10000 SWAP1 SWAP3 DIV PUSH1 0x1 PUSH1 0x1 PUSH1 0x60 SHL SUB AND SWAP1 DUP3 ADD MSTORE SWAP1 JUMP JUMPDEST PUSH1 0x40 DUP1 MLOAD DUP3 MLOAD ISZERO ISZERO DUP2 MSTORE PUSH1 0x20 DUP1 DUP5 ADD MLOAD PUSH1 0xFF AND SWAP1 DUP3 ADD MSTORE SWAP2 DUP2 ADD MLOAD PUSH1 0x1 PUSH1 0x1 PUSH1 0x60 SHL SUB AND SWAP1 DUP3 ADD MSTORE PUSH1 0x60 ADD PUSH2 0x2CE JUMP JUMPDEST CALLVALUE DUP1 ISZERO PUSH2 0x802 JUMPI PUSH1 0x0 DUP1 REVERT JUMPDEST POP PUSH2 0x255 PUSH2 0x811 CALLDATASIZE PUSH1 0x4 PUSH2 0x37AE JUMP JUMPDEST PUSH2 0x15F5 JUMP JUMPDEST CALLVALUE DUP1 ISZERO PUSH2 0x822 JUMPI PUSH1 0x0 DUP1 REVERT JUMPDEST POP PUSH2 0x318 PUSH2 0x831 CALLDATASIZE PUSH1 0x4 PUSH2 0x405A JUMP JUMPDEST PUSH2 0x1636 JUMP JUMPDEST CALLVALUE DUP1 ISZERO PUSH2 0x842 JUMPI PUSH1 0x0 DUP1 REVERT JUMPDEST POP PUSH2 0x255 PUSH2 0x851 CALLDATASIZE PUSH1 0x4 PUSH2 0x37AE JUMP JUMPDEST PUSH2 0x1649 JUMP JUMPDEST CALLVALUE DUP1 ISZERO PUSH2 0x862 JUMPI PUSH1 0x0 DUP1 REVERT JUMPDEST POP PUSH2 0x318 PUSH2 0x871 CALLDATASIZE PUSH1 0x4 PUSH2 0x37AE JUMP JUMPDEST POP PUSH1 0x0 SWAP1 JUMP JUMPDEST CALLVALUE DUP1 ISZERO PUSH2 0x883 JUMPI PUSH1 0x0 DUP1 REVERT JUMPDEST POP PUSH2 0x65A PUSH32 0x0 DUP2 JUMP JUMPDEST PUSH2 0x255 PUSH2 0x8B9 CALLDATASIZE PUSH1 0x4 PUSH2 0x37AE JUMP JUMPDEST PUSH2 0x168A JUMP JUMPDEST PUSH1 0x0 PUSH2 0x8D2 PUSH1 0x6 SLOAD PUSH1 0x1 PUSH1 0x1 PUSH1 0xA0 SHL SUB AND SWAP1 JUMP JUMPDEST SWAP1 POP SWAP1 JUMP JUMPDEST DUP1 PUSH1 0x0 DUP1 DUP1 DUP1 DUP1 DUP1 DUP1 DUP1 DUP1 PUSH2 0x8EB DUP11 PUSH2 0x11F8 JUMP JUMPDEST SWAP8 POP PUSH2 0x8F6 DUP12 PUSH2 0xA58 JUMP JUMPDEST SWAP7 POP PUSH2 0x901 DUP12 PUSH2 0x1278 JUMP JUMPDEST PUSH1 0x0 DUP13 DUP2 MSTORE PUSH1 0x2 PUSH1 0x20 MSTORE PUSH1 0x40 DUP2 KECCAK256 DUP1 SLOAD PUSH1 0x5 DUP3 ADD SLOAD PUSH1 0x6 DUP4 ADD SLOAD PUSH1 0x7 DUP5 ADD SLOAD PUSH1 0x1 PUSH1 0x1 PUSH1 0xA0 SHL SUB SWAP1 SWAP4 AND SWAP15 POP SWAP5 SWAP11 POP SWAP9 POP SWAP3 SWAP7 POP SWAP2 SWAP5 POP PUSH2 0x941 DUP14 PUSH2 0xDB4 JUMP JUMPDEST SWAP1 POP PUSH1 0x2 DUP2 PUSH1 0x7 DUP2 GT ISZERO PUSH2 0x957 JUMPI PUSH2 0x957 PUSH2 0x3CA3 JUMP JUMPDEST EQ SWAP4 POP PUSH1 0x7 DUP2 PUSH1 0x7 DUP2 GT ISZERO PUSH2 0x96E JUMPI PUSH2 0x96E PUSH2 0x3CA3 JUMP JUMPDEST EQ SWAP3 POP POP POP SWAP2 SWAP4 SWAP6 SWAP8 SWAP10 POP SWAP2 SWAP4 SWAP6 SWAP8 SWAP10 JUMP JUMPDEST PUSH1 0x0 PUSH2 0x98B DUP3 PUSH2 0x18F8 JUMP JUMPDEST SWAP3 SWAP2 POP POP JUMP JUMPDEST PUSH1 0x60 PUSH1 0x0 DUP1 SLOAD PUSH2 0x9A0 SWAP1 PUSH2 0x4086 JUMP JUMPDEST DUP1 PUSH1 0x1F ADD PUSH1 0x20 DUP1 SWAP2 DIV MUL PUSH1 0x20 ADD PUSH1 0x40 MLOAD SWAP1 DUP2 ADD PUSH1 0x40 MSTORE DUP1 SWAP3 SWAP2 SWAP1 DUP2 DUP2 MSTORE PUSH1 0x20 ADD DUP3 DUP1 SLOAD PUSH2 0x9CC SWAP1 PUSH2 0x4086 JUMP JUMPDEST DUP1 ISZERO PUSH2 0xA19 JUMPI DUP1 PUSH1 0x1F LT PUSH2 0x9EE JUMPI PUSH2 0x100 DUP1 DUP4 SLOAD DIV MUL DUP4 MSTORE SWAP2 PUSH1 0x20 ADD SWAP2 PUSH2 0xA19 JUMP JUMPDEST DUP3 ADD SWAP2 SWAP1 PUSH1 0x0 MSTORE PUSH1 0x20 PUSH1 0x0 KECCAK256 SWAP1 JUMPDEST DUP2 SLOAD DUP2 MSTORE SWAP1 PUSH1 0x1 ADD SWAP1 PUSH1 0x20 ADD DUP1 DUP4 GT PUSH2 0x9FC JUMPI DUP3 SWAP1 SUB PUSH1 0x1F AND DUP3 ADD SWAP2 JUMPDEST POP POP POP POP POP SWAP1 POP SWAP1 JUMP JUMPDEST PUSH1 0x0 PUSH2 0xA31 DUP6 DUP6 DUP6 DUP6 PUSH2 0x191D JUMP JUMPDEST SWAP6 SWAP5 POP POP POP POP POP JUMP JUMPDEST PUSH1 0x0 PUSH2 0x8D2 PUSH2 0x871 PUSH1 0x1 NUMBER PUSH2 0x40D7 JUMP JUMPDEST PUSH1 0x0 PUSH2 0xA31 DUP6 DUP6 DUP6 DUP6 PUSH2 0x1C97 JUMP JUMPDEST PUSH1 0x0 DUP2 DUP2 MSTORE PUSH1 0x1 PUSH1 0x20 SWAP1 DUP2 MSTORE PUSH1 0x40 DUP1 DUP4 KECCAK256 DUP2 MLOAD SWAP3 DUP4 ADD SWAP1 SWAP2 MSTORE SLOAD PUSH1 0x1 PUSH1 0x1 PUSH1 0x40 SHL SUB AND SWAP1 DUP2 SWAP1 MSTORE JUMPDEST PUSH1 0x1 PUSH1 0x1 PUSH1 0x40 SHL SUB AND SWAP3 SWAP2 POP POP JUMP JUMPDEST PUSH1 0x60 DUP1 PUSH1 0x60 DUP1 PUSH1 0x0 PUSH1 0x2 PUSH1 0x0 DUP8 DUP2 MSTORE PUSH1 0x20 ADD SWAP1 DUP2 MSTORE PUSH1 0x20 ADD PUSH1 0x0 KECCAK256 SWAP1 POP DUP1 PUSH1 0x1 ADD DUP2 PUSH1 0x2 ADD DUP3 PUSH1 0x3 ADD DUP4 PUSH1 0x4 ADD DUP4 DUP1 SLOAD DUP1 PUSH1 0x20 MUL PUSH1 0x20 ADD PUSH1 0x40 MLOAD SWAP1 DUP2 ADD PUSH1 0x40 MSTORE DUP1 SWAP3 SWAP2 SWAP1 DUP2 DUP2 MSTORE PUSH1 0x20 ADD DUP3 DUP1 SLOAD DUP1 ISZERO PUSH2 0xB11 JUMPI PUSH1 0x20 MUL DUP3 ADD SWAP2 SWAP1 PUSH1 0x0 MSTORE PUSH1 0x20 PUSH1 0x0 KECCAK256 SWAP1 JUMPDEST DUP2 SLOAD PUSH1 0x1 PUSH1 0x1 PUSH1 0xA0 SHL SUB AND DUP2 MSTORE PUSH1 0x1 SWAP1 SWAP2 ADD SWAP1 PUSH1 0x20 ADD DUP1 DUP4 GT PUSH2 0xAF3 JUMPI JUMPDEST POP POP POP POP POP SWAP4 POP DUP3 DUP1 SLOAD DUP1 PUSH1 0x20 MUL PUSH1 0x20 ADD PUSH1 0x40 MLOAD SWAP1 DUP2 ADD PUSH1 0x40 MSTORE DUP1 SWAP3 SWAP2 SWAP1 DUP2 DUP2 MSTORE PUSH1 0x20 ADD DUP3 DUP1 SLOAD DUP1 ISZERO PUSH2 0xB63 JUMPI PUSH1 0x20 MUL DUP3 ADD SWAP2 SWAP1 PUSH1 0x0 MSTORE PUSH1 0x20 PUSH1 0x0 KECCAK256 SWAP1 JUMPDEST DUP2 SLOAD DUP2 MSTORE PUSH1 0x20 ADD SWAP1 PUSH1 0x1 ADD SWAP1 DUP1 DUP4 GT PUSH2 0xB4F JUMPI JUMPDEST POP POP POP POP POP SWAP3 POP DUP2 DUP1 SLOAD DUP1 PUSH1 0x20 MUL PUSH1 0x20 ADD PUSH1 0x40 MLOAD SWAP1 DUP2 ADD PUSH1 0x40 MSTORE DUP1 SWAP3 SWAP2 SWAP1 DUP2 DUP2 MSTORE PUSH1 0x20 ADD PUSH1 0x0 SWAP1 JUMPDEST DUP3 DUP3 LT ISZERO PUSH2 0xC37 JUMPI DUP4 DUP3 SWAP1 PUSH1 0x0 MSTORE PUSH1 0x20 PUSH1 0x0 KECCAK256 ADD DUP1 SLOAD PUSH2 0xBAA SWAP1 PUSH2 0x4086 JUMP JUMPDEST DUP1 PUSH1 0x1F ADD PUSH1 0x20 DUP1 SWAP2 DIV MUL PUSH1 0x20 ADD PUSH1 0x40 MLOAD SWAP1 DUP2 ADD PUSH1 0x40 MSTORE DUP1 SWAP3 SWAP2 SWAP1 DUP2 DUP2 MSTORE PUSH1 0x20 ADD DUP3 DUP1 SLOAD PUSH2 0xBD6 SWAP1 PUSH2 0x4086 JUMP JUMPDEST DUP1 ISZERO PUSH2 0xC23 JUMPI DUP1 PUSH1 0x1F LT PUSH2 0xBF8 JUMPI PUSH2 0x100 DUP1 DUP4 SLOAD DIV MUL DUP4 MSTORE SWAP2 PUSH1 0x20 ADD SWAP2 PUSH2 0xC23 JUMP JUMPDEST DUP3 ADD SWAP2 SWAP1 PUSH1 0x0 MSTORE PUSH1 0x20 PUSH1 0x0 KECCAK256 SWAP1 JUMPDEST DUP2 SLOAD DUP2 MSTORE SWAP1 PUSH1 0x1 ADD SWAP1 PUSH1 0x20 ADD DUP1 DUP4 GT PUSH2 0xC06 JUMPI DUP3 SWAP1 SUB PUSH1 0x1F AND DUP3 ADD SWAP2 JUMPDEST POP POP POP POP POP DUP2 MSTORE PUSH1 0x20 ADD SWAP1 PUSH1 0x1 ADD SWAP1 PUSH2 0xB8B JUMP JUMPDEST POP POP POP POP SWAP2 POP DUP1 DUP1 SLOAD DUP1 PUSH1 0x20 MUL PUSH1 0x20 ADD PUSH1 0x40 MLOAD SWAP1 DUP2 ADD PUSH1 0x40 MSTORE DUP1 SWAP3 SWAP2 SWAP1 DUP2 DUP2 MSTORE PUSH1 0x20 ADD PUSH1 0x0 SWAP1 JUMPDEST DUP3 DUP3 LT ISZERO PUSH2 0xD0A JUMPI DUP4 DUP3 SWAP1 PUSH1 0x0 MSTORE PUSH1 0x20 PUSH1 0x0 KECCAK256 ADD DUP1 SLOAD PUSH2 0xC7D SWAP1 PUSH2 0x4086 JUMP JUMPDEST DUP1 PUSH1 0x1F ADD PUSH1 0x20 DUP1 SWAP2 DIV MUL PUSH1 0x20 ADD PUSH1 0x40 MLOAD SWAP1 DUP2 ADD PUSH1 0x40 MSTORE DUP1 SWAP3 SWAP2 SWAP1 DUP2 DUP2 MSTORE PUSH1 0x20 ADD DUP3 DUP1 SLOAD PUSH2 0xCA9 SWAP1 PUSH2 0x4086 JUMP JUMPDEST DUP1 ISZERO PUSH2 0xCF6 JUMPI DUP1 PUSH1 0x1F LT PUSH2 0xCCB JUMPI PUSH2 0x100 DUP1 DUP4 SLOAD DIV MUL DUP4 MSTORE SWAP2 PUSH1 0x20 ADD SWAP2 PUSH2 0xCF6 JUMP JUMPDEST DUP3 ADD SWAP2 SWAP1 PUSH1 0x0 MSTORE PUSH1 0x20 PUSH1 0x0 KECCAK256 SWAP1 JUMPDEST DUP2 SLOAD DUP2 MSTORE SWAP1 PUSH1 0x1 ADD SWAP1 PUSH1 0x20 ADD DUP1 DUP4 GT PUSH2 0xCD9 JUMPI DUP3 SWAP1 SUB PUSH1 0x1F AND DUP3 ADD SWAP2 JUMPDEST POP POP POP POP POP DUP2 MSTORE PUSH1 0x20 ADD SWAP1 PUSH1 0x1 ADD SWAP1 PUSH2 0xC5E JUMP JUMPDEST POP POP POP POP SWAP1 POP SWAP5 POP SWAP5 POP SWAP5 POP SWAP5 POP POP SWAP2 SWAP4 POP SWAP2 SWAP4 JUMP JUMPDEST PUSH1 0x40 DUP1 MLOAD PUSH32 0x150214D74D59B7D1E90C73FC22EF3D991DD0A76B046543D4D80AB92D2A50328F PUSH1 0x20 DUP3 ADD MSTORE SWAP1 DUP2 ADD DUP7 SWAP1 MSTORE PUSH1 0xFF DUP6 AND PUSH1 0x60 DUP3 ADD MSTORE PUSH1 0x0 SWAP1 DUP2 SWAP1 PUSH2 0xD8C SWAP1 PUSH2 0xD84 SWAP1 PUSH1 0x80 ADD PUSH1 0x40 MLOAD PUSH1 0x20 DUP2 DUP4 SUB SUB DUP2 MSTORE SWAP1 PUSH1 0x40 MSTORE DUP1 MLOAD SWAP1 PUSH1 0x20 ADD KECCAK256 PUSH2 0x1D6A JUMP JUMPDEST DUP7 DUP7 DUP7 PUSH2 0x1DB8 JUMP JUMPDEST SWAP1 POP PUSH2 0xDA9 DUP8 DUP3 DUP9 PUSH1 0x40 MLOAD DUP1 PUSH1 0x20 ADD PUSH1 0x40 MSTORE DUP1 PUSH1 0x0 DUP2 MSTORE POP PUSH2 0x1DD6 JUMP JUMPDEST SWAP8 SWAP7 POP POP POP POP POP POP POP JUMP JUMPDEST PUSH1 0x0 PUSH2 0x98B DUP3 PUSH2 0x1EE1 JUMP JUMPDEST PUSH1 0x0 DUP2 DUP2 MSTORE PUSH1 0x2 PUSH1 0x20 MSTORE PUSH1 0x40 SWAP1 KECCAK256 DUP1 SLOAD PUSH1 0x1 PUSH1 0x1 PUSH1 0xA0 SHL SUB AND CALLER PUSH1 0x1 PUSH1 0x1 PUSH1 0xA0 SHL SUB AND EQ DUP1 PUSH2 0xE0D JUMPI POP PUSH2 0xDF1 PUSH2 0x1203 JUMP JUMPDEST DUP2 SLOAD PUSH2 0xE0B SWAP1 PUSH1 0x1 PUSH1 0x1 PUSH1 0xA0 SHL SUB AND PUSH2 0x831 PUSH1 0x1 NUMBER PUSH2 0x40D7 JUMP JUMPDEST LT JUMPDEST PUSH2 0xE6E JUMPI PUSH1 0x40 MLOAD PUSH3 0x461BCD PUSH1 0xE5 SHL DUP2 MSTORE PUSH1 0x20 PUSH1 0x4 DUP3 ADD MSTORE PUSH1 0x27 PUSH1 0x24 DUP3 ADD MSTORE PUSH32 0x476F7665726E6F72427261766F3A2070726F706F7365722061626F7665207468 PUSH1 0x44 DUP3 ADD MSTORE PUSH7 0x1C995CDA1BDB19 PUSH1 0xCA SHL PUSH1 0x64 DUP3 ADD MSTORE PUSH1 0x84 ADD JUMPDEST PUSH1 0x40 MLOAD DUP1 SWAP2 SUB SWAP1 REVERT JUMPDEST PUSH2 0x10D7 DUP2 PUSH1 0x1 ADD DUP1 SLOAD DUP1 PUSH1 0x20 MUL PUSH1 0x20 ADD PUSH1 0x40 MLOAD SWAP1 DUP2 ADD PUSH1 0x40 MSTORE DUP1 SWAP3 SWAP2 SWAP1 DUP2 DUP2 MSTORE PUSH1 0x20 ADD DUP3 DUP1 SLOAD DUP1 ISZERO PUSH2 0xEC9 JUMPI PUSH1 0x20 MUL DUP3 ADD SWAP2 SWAP1 PUSH1 0x0 MSTORE PUSH1 0x20 PUSH1 0x0 KECCAK256 SWAP1 JUMPDEST DUP2 SLOAD PUSH1 0x1 PUSH1 0x1 PUSH1 0xA0 SHL SUB AND DUP2 MSTORE PUSH1 0x1 SWAP1 SWAP2 ADD SWAP1 PUSH1 0x20 ADD DUP1 DUP4 GT PUSH2 0xEAB JUMPI JUMPDEST POP POP POP POP POP DUP3 PUSH1 0x2 ADD DUP1 SLOAD DUP1 PUSH1 0x20 MUL PUSH1 0x20 ADD PUSH1 0x40 MLOAD SWAP1 DUP2 ADD PUSH1 0x40 MSTORE DUP1 SWAP3 SWAP2 SWAP1 DUP2 DUP2 MSTORE PUSH1 0x20 ADD DUP3 DUP1 SLOAD DUP1 ISZERO PUSH2 0xF1C JUMPI PUSH1 0x20 MUL DUP3 ADD SWAP2 SWAP1 PUSH1 0x0 MSTORE PUSH1 0x20 PUSH1 0x0 KECCAK256 SWAP1 JUMPDEST DUP2 SLOAD DUP2 MSTORE PUSH1 0x20 ADD SWAP1 PUSH1 0x1 ADD SWAP1 DUP1 DUP4 GT PUSH2 0xF08 JUMPI JUMPDEST POP POP POP POP POP PUSH2 0x10CD DUP5 PUSH1 0x3 ADD DUP1 SLOAD DUP1 PUSH1 0x20 MUL PUSH1 0x20 ADD PUSH1 0x40 MLOAD SWAP1 DUP2 ADD PUSH1 0x40 MSTORE DUP1 SWAP3 SWAP2 SWAP1 DUP2 DUP2 MSTORE PUSH1 0x20 ADD PUSH1 0x0 SWAP1 JUMPDEST DUP3 DUP3 LT ISZERO PUSH2 0xFF4 JUMPI DUP4 DUP3 SWAP1 PUSH1 0x0 MSTORE PUSH1 0x20 PUSH1 0x0 KECCAK256 ADD DUP1 SLOAD PUSH2 0xF67 SWAP1 PUSH2 0x4086 JUMP JUMPDEST DUP1 PUSH1 0x1F ADD PUSH1 0x20 DUP1 SWAP2 DIV MUL PUSH1 0x20 ADD PUSH1 0x40 MLOAD SWAP1 DUP2 ADD PUSH1 0x40 MSTORE DUP1 SWAP3 SWAP2 SWAP1 DUP2 DUP2 MSTORE PUSH1 0x20 ADD DUP3 DUP1 SLOAD PUSH2 0xF93 SWAP1 PUSH2 0x4086 JUMP JUMPDEST DUP1 ISZERO PUSH2 0xFE0 JUMPI DUP1 PUSH1 0x1F LT PUSH2 0xFB5 JUMPI PUSH2 0x100 DUP1 DUP4 SLOAD DIV MUL DUP4 MSTORE SWAP2 PUSH1 0x20 ADD SWAP2 PUSH2 0xFE0 JUMP JUMPDEST DUP3 ADD SWAP2 SWAP1 PUSH1 0x0 MSTORE PUSH1 0x20 PUSH1 0x0 KECCAK256 SWAP1 JUMPDEST DUP2 SLOAD DUP2 MSTORE SWAP1 PUSH1 0x1 ADD SWAP1 PUSH1 0x20 ADD DUP1 DUP4 GT PUSH2 0xFC3 JUMPI DUP3 SWAP1 SUB PUSH1 0x1F AND DUP3 ADD SWAP2 JUMPDEST POP POP POP POP POP DUP2 MSTORE PUSH1 0x20 ADD SWAP1 PUSH1 0x1 ADD SWAP1 PUSH2 0xF48 JUMP JUMPDEST POP POP POP PUSH1 0x4 DUP8 ADD DUP1 SLOAD PUSH1 0x40 DUP1 MLOAD PUSH1 0x20 DUP1 DUP5 MUL DUP3 ADD DUP2 ADD SWAP1 SWAP3 MSTORE DUP3 DUP2 MSTORE SWAP4 POP PUSH1 0x0 SWAP1 DUP5 ADD JUMPDEST DUP3 DUP3 LT ISZERO PUSH2 0x10C4 JUMPI DUP4 DUP3 SWAP1 PUSH1 0x0 MSTORE PUSH1 0x20 PUSH1 0x0 KECCAK256 ADD DUP1 SLOAD PUSH2 0x1037 SWAP1 PUSH2 0x4086 JUMP JUMPDEST DUP1 PUSH1 0x1F ADD PUSH1 0x20 DUP1 SWAP2 DIV MUL PUSH1 0x20 ADD PUSH1 0x40 MLOAD SWAP1 DUP2 ADD PUSH1 0x40 MSTORE DUP1 SWAP3 SWAP2 SWAP1 DUP2 DUP2 MSTORE PUSH1 0x20 ADD DUP3 DUP1 SLOAD PUSH2 0x1063 SWAP1 PUSH2 0x4086 JUMP JUMPDEST DUP1 ISZERO PUSH2 0x10B0 JUMPI DUP1 PUSH1 0x1F LT PUSH2 0x1085 JUMPI PUSH2 0x100 DUP1 DUP4 SLOAD DIV MUL DUP4 MSTORE SWAP2 PUSH1 0x20 ADD SWAP2 PUSH2 0x10B0 JUMP JUMPDEST DUP3 ADD SWAP2 SWAP1 PUSH1 0x0 MSTORE PUSH1 0x20 PUSH1 0x0 KECCAK256 SWAP1 JUMPDEST DUP2 SLOAD DUP2 MSTORE SWAP1 PUSH1 0x1 ADD SWAP1 PUSH1 0x20 ADD DUP1 DUP4 GT PUSH2 0x1093 JUMPI DUP3 SWAP1 SUB PUSH1 0x1F AND DUP3 ADD SWAP2 JUMPDEST POP POP POP POP POP DUP2 MSTORE PUSH1 0x20 ADD SWAP1 PUSH1 0x1 ADD SWAP1 PUSH2 0x1018 JUMP JUMPDEST POP POP POP POP PUSH2 0x1FC2 JUMP JUMPDEST DUP5 PUSH1 0x9 ADD SLOAD PUSH2 0x20F4 JUMP JUMPDEST POP POP POP JUMP JUMPDEST PUSH1 0x0 PUSH2 0xA31 DUP6 DUP6 DUP6 DUP6 PUSH2 0x20F4 JUMP JUMPDEST PUSH1 0x0 DUP1 CALLER SWAP1 POP PUSH2 0x110B DUP5 DUP3 DUP6 PUSH1 0x40 MLOAD DUP1 PUSH1 0x20 ADD PUSH1 0x40 MSTORE DUP1 PUSH1 0x0 DUP2 MSTORE POP PUSH2 0x1DD6 JUMP JUMPDEST SWAP5 SWAP4 POP POP POP POP JUMP JUMPDEST PUSH2 0x111B PUSH2 0x8BE JUMP JUMPDEST PUSH1 0x1 PUSH1 0x1 PUSH1 0xA0 SHL SUB AND CALLER PUSH1 0x1 PUSH1 0x1 PUSH1 0xA0 SHL SUB AND EQ PUSH2 0x114B JUMPI PUSH1 0x40 MLOAD PUSH3 0x461BCD PUSH1 0xE5 SHL DUP2 MSTORE PUSH1 0x4 ADD PUSH2 0xE65 SWAP1 PUSH2 0x40EE JUMP JUMPDEST PUSH2 0x1154 DUP2 PUSH2 0x2102 JUMP JUMPDEST POP JUMP JUMPDEST PUSH1 0x0 DUP1 CALLER SWAP1 POP PUSH2 0x119F DUP7 DUP3 DUP8 DUP8 DUP8 DUP1 DUP1 PUSH1 0x1F ADD PUSH1 0x20 DUP1 SWAP2 DIV MUL PUSH1 0x20 ADD PUSH1 0x40 MLOAD SWAP1 DUP2 ADD PUSH1 0x40 MSTORE DUP1 SWAP4 SWAP3 SWAP2 SWAP1 DUP2 DUP2 MSTORE PUSH1 0x20 ADD DUP4 DUP4 DUP1 DUP3 DUP5 CALLDATACOPY PUSH1 0x0 SWAP3 ADD SWAP2 SWAP1 SWAP2 MSTORE POP PUSH2 0x1DD6 SWAP3 POP POP POP JUMP JUMPDEST SWAP7 SWAP6 POP POP POP POP POP POP JUMP JUMPDEST PUSH1 0x0 PUSH2 0xA31 DUP6 DUP6 DUP6 DUP6 PUSH2 0x2143 JUMP JUMPDEST PUSH2 0x11BF PUSH2 0x8BE JUMP JUMPDEST PUSH1 0x1 PUSH1 0x1 PUSH1 0xA0 SHL SUB AND CALLER PUSH1 0x1 PUSH1 0x1 PUSH1 0xA0 SHL SUB AND EQ PUSH2 0x11EF JUMPI PUSH1 0x40 MLOAD PUSH3 0x461BCD PUSH1 0xE5 SHL DUP2 MSTORE PUSH1 0x4 ADD PUSH2 0xE65 SWAP1 PUSH2 0x40EE JUMP JUMPDEST PUSH2 0x1154 DUP2 PUSH2 0x21AB JUMP JUMPDEST PUSH1 0x0 PUSH2 0x98B DUP3 PUSH2 0x2214 JUMP JUMPDEST PUSH1 0x0 PUSH2 0x8D2 PUSH1 0x5 SLOAD SWAP1 JUMP JUMPDEST PUSH1 0x6 PUSH1 0x0 SWAP1 SLOAD SWAP1 PUSH2 0x100 EXP SWAP1 DIV PUSH1 0x1 PUSH1 0x1 PUSH1 0xA0 SHL SUB AND PUSH1 0x1 PUSH1 0x1 PUSH1 0xA0 SHL SUB AND PUSH4 0xE18B681 PUSH1 0x40 MLOAD DUP2 PUSH4 0xFFFFFFFF AND PUSH1 0xE0 SHL DUP2 MSTORE PUSH1 0x4 ADD PUSH1 0x0 PUSH1 0x40 MLOAD DUP1 DUP4 SUB DUP2 PUSH1 0x0 DUP8 DUP1 EXTCODESIZE ISZERO DUP1 ISZERO PUSH2 0x125E JUMPI PUSH1 0x0 DUP1 REVERT JUMPDEST POP GAS CALL ISZERO DUP1 ISZERO PUSH2 0x1272 JUMPI RETURNDATASIZE PUSH1 0x0 DUP1 RETURNDATACOPY RETURNDATASIZE PUSH1 0x0 REVERT JUMPDEST POP POP POP POP JUMP JUMPDEST PUSH1 0x0 DUP2 DUP2 MSTORE PUSH1 0x1 PUSH1 0x20 DUP2 DUP2 MSTORE PUSH1 0x40 DUP1 DUP5 KECCAK256 DUP2 MLOAD SWAP3 DUP4 ADD SWAP1 SWAP2 MSTORE SWAP1 SWAP2 ADD SLOAD PUSH1 0x1 PUSH1 0x1 PUSH1 0x40 SHL SUB AND SWAP1 DUP2 SWAP1 MSTORE PUSH2 0xA80 JUMP JUMPDEST PUSH2 0x12AF PUSH2 0x8BE JUMP JUMPDEST PUSH1 0x1 PUSH1 0x1 PUSH1 0xA0 SHL SUB AND CALLER PUSH1 0x1 PUSH1 0x1 PUSH1 0xA0 SHL SUB AND EQ PUSH2 0x12DF JUMPI PUSH1 0x40 MLOAD PUSH3 0x461BCD PUSH1 0xE5 SHL DUP2 MSTORE PUSH1 0x4 ADD PUSH2 0xE65 SWAP1 PUSH2 0x40EE JUMP JUMPDEST PUSH2 0x1321 DUP5 DUP4 DUP4 DUP1 DUP1 PUSH1 0x1F ADD PUSH1 0x20 DUP1 SWAP2 DIV MUL PUSH1 0x20 ADD PUSH1 0x40 MLOAD SWAP1 DUP2 ADD PUSH1 0x40 MSTORE DUP1 SWAP4 SWAP3 SWAP2 SWAP1 DUP2 DUP2 MSTORE PUSH1 0x20 ADD DUP4 DUP4 DUP1 DUP3 DUP5 CALLDATACOPY PUSH1 0x0 SWAP3 ADD SWAP2 SWAP1 SWAP2 MSTORE POP DUP9 SWAP3 POP PUSH2 0x2240 SWAP2 POP POP JUMP JUMPDEST POP POP POP POP POP JUMP JUMPDEST PUSH1 0x0 DUP5 DUP5 DUP5 DUP5 PUSH1 0x40 MLOAD PUSH1 0x20 ADD PUSH2 0x1341 SWAP5 SWAP4 SWAP3 SWAP2 SWAP1 PUSH2 0x4125 JUMP JUMPDEST PUSH1 0x40 DUP1 MLOAD PUSH1 0x1F NOT DUP2 DUP5 SUB ADD DUP2 MSTORE SWAP2 SWAP1 MSTORE DUP1 MLOAD PUSH1 0x20 SWAP1 SWAP2 ADD KECCAK256 SWAP6 SWAP5 POP POP POP POP POP JUMP JUMPDEST PUSH1 0x0 PUSH2 0x1372 CALLER DUP8 DUP8 DUP8 DUP8 DUP8 PUSH2 0x2266 JUMP JUMPDEST PUSH2 0x119F DUP7 DUP7 PUSH2 0x1381 DUP8 DUP8 PUSH2 0x1FC2 JUMP JUMPDEST DUP6 PUSH2 0x11A9 JUMP JUMPDEST PUSH1 0x0 DUP2 DUP2 MSTORE PUSH1 0x2 PUSH1 0x20 SWAP1 DUP2 MSTORE PUSH1 0x40 SWAP2 DUP3 SWAP1 KECCAK256 PUSH1 0x1 DUP2 ADD DUP1 SLOAD DUP5 MLOAD DUP2 DUP6 MUL DUP2 ADD DUP6 ADD SWAP1 SWAP6 MSTORE DUP1 DUP6 MSTORE SWAP2 SWAP4 PUSH2 0x10D7 SWAP4 SWAP1 SWAP3 SWAP1 DUP4 ADD DUP3 DUP3 DUP1 ISZERO PUSH2 0x13F0 JUMPI PUSH1 0x20 MUL DUP3 ADD SWAP2 SWAP1 PUSH1 0x0 MSTORE PUSH1 0x20 PUSH1 0x0 KECCAK256 SWAP1 JUMPDEST DUP2 SLOAD PUSH1 0x1 PUSH1 0x1 PUSH1 0xA0 SHL SUB AND DUP2 MSTORE PUSH1 0x1 SWAP1 SWAP2 ADD SWAP1 PUSH1 0x20 ADD DUP1 DUP4 GT PUSH2 0x13D2 JUMPI JUMPDEST POP POP POP POP POP DUP3 PUSH1 0x2 ADD DUP1 SLOAD DUP1 PUSH1 0x20 MUL PUSH1 0x20 ADD PUSH1 0x40 MLOAD SWAP1 DUP2 ADD PUSH1 0x40 MSTORE DUP1 SWAP3 SWAP2 SWAP1 DUP2 DUP2 MSTORE PUSH1 0x20 ADD DUP3 DUP1 SLOAD DUP1 ISZERO PUSH2 0x1443 JUMPI PUSH1 0x20 MUL DUP3 ADD SWAP2 SWAP1 PUSH1 0x0 MSTORE PUSH1 0x20 PUSH1 0x0 KECCAK256 SWAP1 JUMPDEST DUP2 SLOAD DUP2 MSTORE PUSH1 0x20 ADD SWAP1 PUSH1 0x1 ADD SWAP1 DUP1 DUP4 GT PUSH2 0x142F JUMPI JUMPDEST POP POP POP POP POP PUSH2 0x15EB DUP5 PUSH1 0x3 ADD DUP1 SLOAD DUP1 PUSH1 0x20 MUL PUSH1 0x20 ADD PUSH1 0x40 MLOAD SWAP1 DUP2 ADD PUSH1 0x40 MSTORE DUP1 SWAP3 SWAP2 SWAP1 DUP2 DUP2 MSTORE PUSH1 0x20 ADD PUSH1 0x0 SWAP1 JUMPDEST DUP3 DUP3 LT ISZERO PUSH2 0x151B JUMPI DUP4 DUP3 SWAP1 PUSH1 0x0 MSTORE PUSH1 0x20 PUSH1 0x0 KECCAK256 ADD DUP1 SLOAD PUSH2 0x148E SWAP1 PUSH2 0x4086 JUMP JUMPDEST DUP1 PUSH1 0x1F ADD PUSH1 0x20 DUP1 SWAP2 DIV MUL PUSH1 0x20 ADD PUSH1 0x40 MLOAD SWAP1 DUP2 ADD PUSH1 0x40 MSTORE DUP1 SWAP3 SWAP2 SWAP1 DUP2 DUP2 MSTORE PUSH1 0x20 ADD DUP3 DUP1 SLOAD PUSH2 0x14BA SWAP1 PUSH2 0x4086 JUMP JUMPDEST DUP1 ISZERO PUSH2 0x1507 JUMPI DUP1 PUSH1 0x1F LT PUSH2 0x14DC JUMPI PUSH2 0x100 DUP1 DUP4 SLOAD DIV MUL DUP4 MSTORE SWAP2 PUSH1 0x20 ADD SWAP2 PUSH2 0x1507 JUMP JUMPDEST DUP3 ADD SWAP2 SWAP1 PUSH1 0x0 MSTORE PUSH1 0x20 PUSH1 0x0 KECCAK256 SWAP1 JUMPDEST DUP2 SLOAD DUP2 MSTORE SWAP1 PUSH1 0x1 ADD SWAP1 PUSH1 0x20 ADD DUP1 DUP4 GT PUSH2 0x14EA JUMPI DUP3 SWAP1 SUB PUSH1 0x1F AND DUP3 ADD SWAP2 JUMPDEST POP POP POP POP POP DUP2 MSTORE PUSH1 0x20 ADD SWAP1 PUSH1 0x1 ADD SWAP1 PUSH2 0x146F JUMP JUMPDEST POP POP POP PUSH1 0x4 DUP8 ADD DUP1 SLOAD PUSH1 0x40 DUP1 MLOAD PUSH1 0x20 DUP1 DUP5 MUL DUP3 ADD DUP2 ADD SWAP1 SWAP3 MSTORE DUP3 DUP2 MSTORE SWAP4 POP PUSH1 0x0 SWAP1 DUP5 ADD JUMPDEST DUP3 DUP3 LT ISZERO PUSH2 0x10C4 JUMPI DUP4 DUP3 SWAP1 PUSH1 0x0 MSTORE PUSH1 0x20 PUSH1 0x0 KECCAK256 ADD DUP1 SLOAD PUSH2 0x155E SWAP1 PUSH2 0x4086 JUMP JUMPDEST DUP1 PUSH1 0x1F ADD PUSH1 0x20 DUP1 SWAP2 DIV MUL PUSH1 0x20 ADD PUSH1 0x40 MLOAD SWAP1 DUP2 ADD PUSH1 0x40 MSTORE DUP1 SWAP3 SWAP2 SWAP1 DUP2 DUP2 MSTORE PUSH1 0x20 ADD DUP3 DUP1 SLOAD PUSH2 0x158A SWAP1 PUSH2 0x4086 JUMP JUMPDEST DUP1 ISZERO PUSH2 0x15D7 JUMPI DUP1 PUSH1 0x1F LT PUSH2 0x15AC JUMPI PUSH2 0x100 DUP1 DUP4 SLOAD DIV MUL DUP4 MSTORE SWAP2 PUSH1 0x20 ADD SWAP2 PUSH2 0x15D7 JUMP JUMPDEST DUP3 ADD SWAP2 SWAP1 PUSH1 0x0 MSTORE PUSH1 0x20 PUSH1 0x0 KECCAK256 SWAP1 JUMPDEST DUP2 SLOAD DUP2 MSTORE SWAP1 PUSH1 0x1 ADD SWAP1 PUSH1 0x20 ADD DUP1 DUP4 GT PUSH2 0x15BA JUMPI DUP3 SWAP1 SUB PUSH1 0x1F AND DUP3 ADD SWAP2 JUMPDEST POP POP POP POP POP DUP2 MSTORE PUSH1 0x20 ADD SWAP1 PUSH1 0x1 ADD SWAP1 PUSH2 0x153F JUMP JUMPDEST DUP5 PUSH1 0x9 ADD SLOAD PUSH2 0xA23 JUMP JUMPDEST PUSH2 0x15FD PUSH2 0x8BE JUMP JUMPDEST PUSH1 0x1 PUSH1 0x1 PUSH1 0xA0 SHL SUB AND CALLER PUSH1 0x1 PUSH1 0x1 PUSH1 0xA0 SHL SUB AND EQ PUSH2 0x162D JUMPI PUSH1 0x40 MLOAD PUSH3 0x461BCD PUSH1 0xE5 SHL DUP2 MSTORE PUSH1 0x4 ADD PUSH2 0xE65 SWAP1 PUSH2 0x40EE JUMP JUMPDEST PUSH2 0x1154 DUP2 PUSH2 0x2323 JUMP JUMPDEST PUSH1 0x0 PUSH2 0x1642 DUP4 DUP4 PUSH2 0x23C4 JUMP JUMPDEST SWAP4 SWAP3 POP POP POP JUMP JUMPDEST PUSH2 0x1651 PUSH2 0x8BE JUMP JUMPDEST PUSH1 0x1 PUSH1 0x1 PUSH1 0xA0 SHL SUB AND CALLER PUSH1 0x1 PUSH1 0x1 PUSH1 0xA0 SHL SUB AND EQ PUSH2 0x1681 JUMPI PUSH1 0x40 MLOAD PUSH3 0x461BCD PUSH1 0xE5 SHL DUP2 MSTORE PUSH1 0x4 ADD PUSH2 0xE65 SWAP1 PUSH2 0x40EE JUMP JUMPDEST PUSH2 0x1154 DUP2 PUSH2 0x246A JUMP JUMPDEST PUSH1 0x0 DUP2 DUP2 MSTORE PUSH1 0x2 PUSH1 0x20 SWAP1 DUP2 MSTORE PUSH1 0x40 SWAP2 DUP3 SWAP1 KECCAK256 PUSH1 0x1 DUP2 ADD DUP1 SLOAD DUP5 MLOAD DUP2 DUP6 MUL DUP2 ADD DUP6 ADD SWAP1 SWAP6 MSTORE DUP1 DUP6 MSTORE SWAP2 SWAP4 PUSH2 0x10D7 SWAP4 SWAP1 SWAP3 SWAP1 DUP4 ADD DUP3 DUP3 DUP1 ISZERO PUSH2 0x16F3 JUMPI PUSH1 0x20 MUL DUP3 ADD SWAP2 SWAP1 PUSH1 0x0 MSTORE PUSH1 0x20 PUSH1 0x0 KECCAK256 SWAP1 JUMPDEST DUP2 SLOAD PUSH1 0x1 PUSH1 0x1 PUSH1 0xA0 SHL SUB AND DUP2 MSTORE PUSH1 0x1 SWAP1 SWAP2 ADD SWAP1 PUSH1 0x20 ADD DUP1 DUP4 GT PUSH2 0x16D5 JUMPI JUMPDEST POP POP POP POP POP DUP3 PUSH1 0x2 ADD DUP1 SLOAD DUP1 PUSH1 0x20 MUL PUSH1 0x20 ADD PUSH1 0x40 MLOAD SWAP1 DUP2 ADD PUSH1 0x40 MSTORE DUP1 SWAP3 SWAP2 SWAP1 DUP2 DUP2 MSTORE PUSH1 0x20 ADD DUP3 DUP1 SLOAD DUP1 ISZERO PUSH2 0x1746 JUMPI PUSH1 0x20 MUL DUP3 ADD SWAP2 SWAP1 PUSH1 0x0 MSTORE PUSH1 0x20 PUSH1 0x0 KECCAK256 SWAP1 JUMPDEST DUP2 SLOAD DUP2 MSTORE PUSH1 0x20 ADD SWAP1 PUSH1 0x1 ADD SWAP1 DUP1 DUP4 GT PUSH2 0x1732 JUMPI JUMPDEST POP POP POP POP POP PUSH2 0x18EE DUP5 PUSH1 0x3 ADD DUP1 SLOAD DUP1 PUSH1 0x20 MUL PUSH1 0x20 ADD PUSH1 0x40 MLOAD SWAP1 DUP2 ADD PUSH1 0x40 MSTORE DUP1 SWAP3 SWAP2 SWAP1 DUP2 DUP2 MSTORE PUSH1 0x20 ADD PUSH1 0x0 SWAP1 JUMPDEST DUP3 DUP3 LT ISZERO PUSH2 0x181E JUMPI DUP4 DUP3 SWAP1 PUSH1 0x0 MSTORE PUSH1 0x20 PUSH1 0x0 KECCAK256 ADD DUP1 SLOAD PUSH2 0x1791 SWAP1 PUSH2 0x4086 JUMP JUMPDEST DUP1 PUSH1 0x1F ADD PUSH1 0x20 DUP1 SWAP2 DIV MUL PUSH1 0x20 ADD PUSH1 0x40 MLOAD SWAP1 DUP2 ADD PUSH1 0x40 MSTORE DUP1 SWAP3 SWAP2 SWAP1 DUP2 DUP2 MSTORE PUSH1 0x20 ADD DUP3 DUP1 SLOAD PUSH2 0x17BD SWAP1 PUSH2 0x4086 JUMP JUMPDEST DUP1 ISZERO PUSH2 0x180A JUMPI DUP1 PUSH1 0x1F LT PUSH2 0x17DF JUMPI PUSH2 0x100 DUP1 DUP4 SLOAD DIV MUL DUP4 MSTORE SWAP2 PUSH1 0x20 ADD SWAP2 PUSH2 0x180A JUMP JUMPDEST DUP3 ADD SWAP2 SWAP1 PUSH1 0x0 MSTORE PUSH1 0x20 PUSH1 0x0 KECCAK256 SWAP1 JUMPDEST DUP2 SLOAD DUP2 MSTORE SWAP1 PUSH1 0x1 ADD SWAP1 PUSH1 0x20 ADD DUP1 DUP4 GT PUSH2 0x17ED JUMPI DUP3 SWAP1 SUB PUSH1 0x1F AND DUP3 ADD SWAP2 JUMPDEST POP POP POP POP POP DUP2 MSTORE PUSH1 0x20 ADD SWAP1 PUSH1 0x1 ADD SWAP1 PUSH2 0x1772 JUMP JUMPDEST POP POP POP PUSH1 0x4 DUP8 ADD DUP1 SLOAD PUSH1 0x40 DUP1 MLOAD PUSH1 0x20 DUP1 DUP5 MUL DUP3 ADD DUP2 ADD SWAP1 SWAP3 MSTORE DUP3 DUP2 MSTORE SWAP4 POP PUSH1 0x0 SWAP1 DUP5 ADD JUMPDEST DUP3 DUP3 LT ISZERO PUSH2 0x10C4 JUMPI DUP4 DUP3 SWAP1 PUSH1 0x0 MSTORE PUSH1 0x20 PUSH1 0x0 KECCAK256 ADD DUP1 SLOAD PUSH2 0x1861 SWAP1 PUSH2 0x4086 JUMP JUMPDEST DUP1 PUSH1 0x1F ADD PUSH1 0x20 DUP1 SWAP2 DIV MUL PUSH1 0x20 ADD PUSH1 0x40 MLOAD SWAP1 DUP2 ADD PUSH1 0x40 MSTORE DUP1 SWAP3 SWAP2 SWAP1 DUP2 DUP2 MSTORE PUSH1 0x20 ADD DUP3 DUP1 SLOAD PUSH2 0x188D SWAP1 PUSH2 0x4086 JUMP JUMPDEST DUP1 ISZERO PUSH2 0x18DA JUMPI DUP1 PUSH1 0x1F LT PUSH2 0x18AF JUMPI PUSH2 0x100 DUP1 DUP4 SLOAD DIV MUL DUP4 MSTORE SWAP2 PUSH1 0x20 ADD SWAP2 PUSH2 0x18DA JUMP JUMPDEST DUP3 ADD SWAP2 SWAP1 PUSH1 0x0 MSTORE PUSH1 0x20 PUSH1 0x0 KECCAK256 SWAP1 JUMPDEST DUP2 SLOAD DUP2 MSTORE SWAP1 PUSH1 0x1 ADD SWAP1 PUSH1 0x20 ADD DUP1 DUP4 GT PUSH2 0x18BD JUMPI DUP3 SWAP1 SUB PUSH1 0x1F AND DUP3 ADD SWAP2 JUMPDEST POP POP POP POP POP DUP2 MSTORE PUSH1 0x20 ADD SWAP1 PUSH1 0x1 ADD SWAP1 PUSH2 0x1842 JUMP JUMPDEST DUP5 PUSH1 0x9 ADD SLOAD PUSH2 0xA4A JUMP JUMPDEST PUSH1 0x0 PUSH1 0x1 PUSH1 0x1 PUSH1 0xE0 SHL SUB NOT DUP3 AND PUSH4 0x6E665CED PUSH1 0xE0 SHL EQ DUP1 PUSH2 0x98B JUMPI POP PUSH2 0x98B DUP3 PUSH2 0x24AB JUMP JUMPDEST PUSH1 0x0 DUP1 PUSH2 0x192C DUP7 DUP7 DUP7 DUP7 PUSH2 0x1328 JUMP JUMPDEST SWAP1 POP PUSH1 0x4 PUSH2 0x1939 DUP3 PUSH2 0xDB4 JUMP JUMPDEST PUSH1 0x7 DUP2 GT ISZERO PUSH2 0x194A JUMPI PUSH2 0x194A PUSH2 0x3CA3 JUMP JUMPDEST EQ PUSH2 0x1967 JUMPI PUSH1 0x40 MLOAD PUSH3 0x461BCD PUSH1 0xE5 SHL DUP2 MSTORE PUSH1 0x4 ADD PUSH2 0xE65 SWAP1 PUSH2 0x4170 JUMP JUMPDEST PUSH1 0x6 SLOAD PUSH1 0x40 DUP1 MLOAD PUSH4 0xD48571F PUSH1 0xE3 SHL DUP2 MSTORE SWAP1 MLOAD PUSH1 0x0 SWAP3 PUSH1 0x1 PUSH1 0x1 PUSH1 0xA0 SHL SUB AND SWAP2 PUSH4 0x6A42B8F8 SWAP2 PUSH1 0x4 DUP1 DUP4 ADD SWAP3 PUSH1 0x20 SWAP3 SWAP2 SWAP1 DUP3 SWAP1 SUB ADD DUP2 DUP7 GAS STATICCALL ISZERO DUP1 ISZERO PUSH2 0x19B1 JUMPI RETURNDATASIZE PUSH1 0x0 DUP1 RETURNDATACOPY RETURNDATASIZE PUSH1 0x0 REVERT JUMPDEST POP POP POP POP PUSH1 0x40 MLOAD RETURNDATASIZE PUSH1 0x1F NOT PUSH1 0x1F DUP3 ADD AND DUP3 ADD DUP1 PUSH1 0x40 MSTORE POP DUP2 ADD SWAP1 PUSH2 0x19D5 SWAP2 SWAP1 PUSH2 0x41B1 JUMP JUMPDEST PUSH2 0x19DF SWAP1 TIMESTAMP PUSH2 0x41CA JUMP JUMPDEST SWAP1 POP PUSH2 0x1A01 PUSH2 0x19ED DUP3 PUSH2 0x24E0 JUMP JUMPDEST PUSH1 0x0 DUP5 DUP2 MSTORE PUSH1 0x7 PUSH1 0x20 MSTORE PUSH1 0x40 SWAP1 KECCAK256 SWAP1 PUSH2 0x254C JUMP JUMPDEST PUSH1 0x0 JUMPDEST DUP8 MLOAD DUP2 LT ISZERO PUSH2 0x1C52 JUMPI PUSH1 0x6 SLOAD DUP9 MLOAD PUSH1 0x1 PUSH1 0x1 PUSH1 0xA0 SHL SUB SWAP1 SWAP2 AND SWAP1 PUSH4 0xF2B06537 SWAP1 DUP11 SWAP1 DUP5 SWAP1 DUP2 LT PUSH2 0x1A36 JUMPI PUSH2 0x1A36 PUSH2 0x41E2 JUMP JUMPDEST PUSH1 0x20 MUL PUSH1 0x20 ADD ADD MLOAD DUP10 DUP5 DUP2 MLOAD DUP2 LT PUSH2 0x1A50 JUMPI PUSH2 0x1A50 PUSH2 0x41E2 JUMP JUMPDEST PUSH1 0x20 MUL PUSH1 0x20 ADD ADD MLOAD DUP10 DUP6 DUP2 MLOAD DUP2 LT PUSH2 0x1A6A JUMPI PUSH2 0x1A6A PUSH2 0x41E2 JUMP JUMPDEST PUSH1 0x20 MUL PUSH1 0x20 ADD ADD MLOAD DUP7 PUSH1 0x40 MLOAD PUSH1 0x20 ADD PUSH2 0x1A86 SWAP5 SWAP4 SWAP3 SWAP2 SWAP1 PUSH2 0x41F8 JUMP JUMPDEST PUSH1 0x40 MLOAD PUSH1 0x20 DUP2 DUP4 SUB SUB DUP2 MSTORE SWAP1 PUSH1 0x40 MSTORE DUP1 MLOAD SWAP1 PUSH1 0x20 ADD KECCAK256 PUSH1 0x40 MLOAD DUP3 PUSH4 0xFFFFFFFF AND PUSH1 0xE0 SHL DUP2 MSTORE PUSH1 0x4 ADD PUSH2 0x1ABA SWAP2 DUP2 MSTORE PUSH1 0x20 ADD SWAP1 JUMP JUMPDEST PUSH1 0x20 PUSH1 0x40 MLOAD DUP1 DUP4 SUB DUP2 DUP7 GAS STATICCALL ISZERO DUP1 ISZERO PUSH2 0x1AD7 JUMPI RETURNDATASIZE PUSH1 0x0 DUP1 RETURNDATACOPY RETURNDATASIZE PUSH1 0x0 REVERT JUMPDEST POP POP POP POP PUSH1 0x40 MLOAD RETURNDATASIZE PUSH1 0x1F NOT PUSH1 0x1F DUP3 ADD AND DUP3 ADD DUP1 PUSH1 0x40 MSTORE POP DUP2 ADD SWAP1 PUSH2 0x1AFB SWAP2 SWAP1 PUSH2 0x423E JUMP JUMPDEST ISZERO PUSH2 0x1B79 JUMPI PUSH1 0x40 MLOAD PUSH3 0x461BCD PUSH1 0xE5 SHL DUP2 MSTORE PUSH1 0x20 PUSH1 0x4 DUP3 ADD MSTORE PUSH1 0x42 PUSH1 0x24 DUP3 ADD MSTORE PUSH32 0x476F7665726E6F7254696D656C6F636B436F6D706F756E643A206964656E7469 PUSH1 0x44 DUP3 ADD MSTORE PUSH32 0x63616C2070726F706F73616C20616374696F6E20616C72656164792071756575 PUSH1 0x64 DUP3 ADD MSTORE PUSH2 0x1959 PUSH1 0xF2 SHL PUSH1 0x84 DUP3 ADD MSTORE PUSH1 0xA4 ADD PUSH2 0xE65 JUMP JUMPDEST PUSH1 0x6 SLOAD DUP9 MLOAD PUSH1 0x1 PUSH1 0x1 PUSH1 0xA0 SHL SUB SWAP1 SWAP2 AND SWAP1 PUSH4 0x3A66F901 SWAP1 DUP11 SWAP1 DUP5 SWAP1 DUP2 LT PUSH2 0x1BA2 JUMPI PUSH2 0x1BA2 PUSH2 0x41E2 JUMP JUMPDEST PUSH1 0x20 MUL PUSH1 0x20 ADD ADD MLOAD DUP10 DUP5 DUP2 MLOAD DUP2 LT PUSH2 0x1BBC JUMPI PUSH2 0x1BBC PUSH2 0x41E2 JUMP JUMPDEST PUSH1 0x20 MUL PUSH1 0x20 ADD ADD MLOAD DUP10 DUP6 DUP2 MLOAD DUP2 LT PUSH2 0x1BD6 JUMPI PUSH2 0x1BD6 PUSH2 0x41E2 JUMP JUMPDEST PUSH1 0x20 MUL PUSH1 0x20 ADD ADD MLOAD DUP7 PUSH1 0x40 MLOAD DUP6 PUSH4 0xFFFFFFFF AND PUSH1 0xE0 SHL DUP2 MSTORE PUSH1 0x4 ADD PUSH2 0x1BFE SWAP5 SWAP4 SWAP3 SWAP2 SWAP1 PUSH2 0x41F8 JUMP JUMPDEST PUSH1 0x20 PUSH1 0x40 MLOAD DUP1 DUP4 SUB DUP2 PUSH1 0x0 DUP8 GAS CALL ISZERO DUP1 ISZERO PUSH2 0x1C1D JUMPI RETURNDATASIZE PUSH1 0x0 DUP1 RETURNDATACOPY RETURNDATASIZE PUSH1 0x0 REVERT JUMPDEST POP POP POP POP PUSH1 0x40 MLOAD RETURNDATASIZE PUSH1 0x1F NOT PUSH1 0x1F DUP3 ADD AND DUP3 ADD DUP1 PUSH1 0x40 MSTORE POP DUP2 ADD SWAP1 PUSH2 0x1C41 SWAP2 SWAP1 PUSH2 0x41B1 JUMP JUMPDEST POP PUSH2 0x1C4B DUP2 PUSH2 0x4260 JUMP JUMPDEST SWAP1 POP PUSH2 0x1A04 JUMP JUMPDEST POP PUSH1 0x40 DUP1 MLOAD DUP4 DUP2 MSTORE PUSH1 0x20 DUP2 ADD DUP4 SWAP1 MSTORE PUSH32 0x9A2E42FD6722813D69113E7D0079D3D940171428DF7373DF9C7F7617CFDA2892 SWAP2 ADD JUMPDEST PUSH1 0x40 MLOAD DUP1 SWAP2 SUB SWAP1 LOG1 POP SWAP6 SWAP5 POP POP POP POP POP JUMP JUMPDEST PUSH1 0x0 DUP1 PUSH2 0x1CA6 DUP7 DUP7 DUP7 DUP7 PUSH2 0x1328 JUMP JUMPDEST SWAP1 POP PUSH1 0x0 PUSH2 0x1CB3 DUP3 PUSH2 0xDB4 JUMP JUMPDEST SWAP1 POP PUSH1 0x4 DUP2 PUSH1 0x7 DUP2 GT ISZERO PUSH2 0x1CC9 JUMPI PUSH2 0x1CC9 PUSH2 0x3CA3 JUMP JUMPDEST EQ DUP1 PUSH2 0x1CE6 JUMPI POP PUSH1 0x5 DUP2 PUSH1 0x7 DUP2 GT ISZERO PUSH2 0x1CE4 JUMPI PUSH2 0x1CE4 PUSH2 0x3CA3 JUMP JUMPDEST EQ JUMPDEST PUSH2 0x1D02 JUMPI PUSH1 0x40 MLOAD PUSH3 0x461BCD PUSH1 0xE5 SHL DUP2 MSTORE PUSH1 0x4 ADD PUSH2 0xE65 SWAP1 PUSH2 0x4170 JUMP JUMPDEST PUSH1 0x0 DUP3 DUP2 MSTORE PUSH1 0x1 PUSH1 0x20 DUP2 DUP2 MSTORE PUSH1 0x40 SWAP3 DUP4 SWAP1 KECCAK256 PUSH1 0x2 ADD DUP1 SLOAD PUSH1 0xFF NOT AND SWAP1 SWAP3 OR SWAP1 SWAP2 SSTORE SWAP1 MLOAD DUP4 DUP2 MSTORE PUSH32 0x712AE1383F79AC853F8D882153778E0260EF8F03B504E2866E0593E04D2B291F SWAP2 ADD PUSH1 0x40 MLOAD DUP1 SWAP2 SUB SWAP1 LOG1 PUSH2 0x1D60 DUP3 DUP9 DUP9 DUP9 DUP9 PUSH2 0x256A JUMP JUMPDEST POP SWAP6 SWAP5 POP POP POP POP POP JUMP JUMPDEST PUSH1 0x0 PUSH2 0x98B PUSH2 0x1D77 PUSH2 0x2577 JUMP JUMPDEST DUP4 PUSH1 0x40 MLOAD PUSH2 0x1901 PUSH1 0xF0 SHL PUSH1 0x20 DUP3 ADD MSTORE PUSH1 0x22 DUP2 ADD DUP4 SWAP1 MSTORE PUSH1 0x42 DUP2 ADD DUP3 SWAP1 MSTORE PUSH1 0x0 SWAP1 PUSH1 0x62 ADD PUSH1 0x40 MLOAD PUSH1 0x20 DUP2 DUP4 SUB SUB DUP2 MSTORE SWAP1 PUSH1 0x40 MSTORE DUP1 MLOAD SWAP1 PUSH1 0x20 ADD KECCAK256 SWAP1 POP SWAP3 SWAP2 POP POP JUMP JUMPDEST PUSH1 0x0 DUP1 PUSH1 0x0 PUSH2 0x1DC9 DUP8 DUP8 DUP8 DUP8 PUSH2 0x269E JUMP JUMPDEST SWAP2 POP SWAP2 POP PUSH2 0x1D60 DUP2 PUSH2 0x278B JUMP JUMPDEST PUSH1 0x0 DUP5 DUP2 MSTORE PUSH1 0x1 PUSH1 0x20 DUP2 SWAP1 MSTORE PUSH1 0x40 DUP3 KECCAK256 SWAP1 PUSH2 0x1DF0 DUP8 PUSH2 0xDB4 JUMP JUMPDEST PUSH1 0x7 DUP2 GT ISZERO PUSH2 0x1E01 JUMPI PUSH2 0x1E01 PUSH2 0x3CA3 JUMP JUMPDEST EQ PUSH2 0x1E5A JUMPI PUSH1 0x40 MLOAD PUSH3 0x461BCD PUSH1 0xE5 SHL DUP2 MSTORE PUSH1 0x20 PUSH1 0x4 DUP3 ADD MSTORE PUSH1 0x23 PUSH1 0x24 DUP3 ADD MSTORE PUSH32 0x476F7665726E6F723A20766F7465206E6F742063757272656E746C7920616374 PUSH1 0x44 DUP3 ADD MSTORE PUSH3 0x697665 PUSH1 0xE8 SHL PUSH1 0x64 DUP3 ADD MSTORE PUSH1 0x84 ADD PUSH2 0xE65 JUMP JUMPDEST PUSH1 0x40 DUP1 MLOAD PUSH1 0x20 DUP2 ADD SWAP1 SWAP2 MSTORE DUP2 SLOAD PUSH1 0x1 PUSH1 0x1 PUSH1 0x40 SHL SUB AND SWAP1 DUP2 SWAP1 MSTORE PUSH1 0x0 SWAP1 PUSH2 0x1E82 SWAP1 DUP8 SWAP1 PUSH2 0x1636 JUMP JUMPDEST SWAP1 POP PUSH2 0x1E90 DUP8 DUP8 DUP8 DUP5 PUSH2 0x2946 JUMP JUMPDEST DUP6 PUSH1 0x1 PUSH1 0x1 PUSH1 0xA0 SHL SUB AND PUSH32 0xB8E138887D0AA13BAB447E82DE9D5C1777041ECD21CA36BA824FF1E6C07DDDA4 DUP9 DUP8 DUP5 DUP9 PUSH1 0x40 MLOAD PUSH2 0x1ECF SWAP5 SWAP4 SWAP3 SWAP2 SWAP1 PUSH2 0x427B JUMP JUMPDEST PUSH1 0x40 MLOAD DUP1 SWAP2 SUB SWAP1 LOG2 SWAP7 SWAP6 POP POP POP POP POP POP JUMP JUMPDEST PUSH1 0x0 DUP1 PUSH2 0x1EED DUP4 PUSH2 0x2AEB JUMP JUMPDEST SWAP1 POP PUSH1 0x4 DUP2 PUSH1 0x7 DUP2 GT ISZERO PUSH2 0x1F03 JUMPI PUSH2 0x1F03 PUSH2 0x3CA3 JUMP JUMPDEST EQ PUSH2 0x1F0E JUMPI SWAP3 SWAP2 POP POP JUMP JUMPDEST PUSH1 0x0 PUSH2 0x1F19 DUP5 PUSH2 0x11F8 JUMP JUMPDEST SWAP1 POP DUP1 PUSH2 0x1F27 JUMPI POP SWAP3 SWAP2 POP POP JUMP JUMPDEST PUSH1 0x6 PUSH1 0x0 SWAP1 SLOAD SWAP1 PUSH2 0x100 EXP SWAP1 DIV PUSH1 0x1 PUSH1 0x1 PUSH1 0xA0 SHL SUB AND PUSH1 0x1 PUSH1 0x1 PUSH1 0xA0 SHL SUB AND PUSH4 0xC1A287E2 PUSH1 0x40 MLOAD DUP2 PUSH4 0xFFFFFFFF AND PUSH1 0xE0 SHL DUP2 MSTORE PUSH1 0x4 ADD PUSH1 0x20 PUSH1 0x40 MLOAD DUP1 DUP4 SUB DUP2 DUP7 GAS STATICCALL ISZERO DUP1 ISZERO PUSH2 0x1F7A JUMPI RETURNDATASIZE PUSH1 0x0 DUP1 RETURNDATACOPY RETURNDATASIZE PUSH1 0x0 REVERT JUMPDEST POP POP POP POP PUSH1 0x40 MLOAD RETURNDATASIZE PUSH1 0x1F NOT PUSH1 0x1F DUP3 ADD AND DUP3 ADD DUP1 PUSH1 0x40 MSTORE POP DUP2 ADD SWAP1 PUSH2 0x1F9E SWAP2 SWAP1 PUSH2 0x41B1 JUMP JUMPDEST PUSH2 0x1FA8 SWAP1 DUP3 PUSH2 0x41CA JUMP JUMPDEST TIMESTAMP LT PUSH2 0x1FB8 JUMPI POP PUSH1 0x6 SWAP4 SWAP3 POP POP POP JUMP JUMPDEST POP PUSH1 0x5 SWAP4 SWAP3 POP POP POP JUMP JUMPDEST PUSH1 0x60 PUSH1 0x0 DUP3 MLOAD PUSH1 0x1 PUSH1 0x1 PUSH1 0x40 SHL SUB DUP2 GT ISZERO PUSH2 0x1FDF JUMPI PUSH2 0x1FDF PUSH2 0x385C JUMP JUMPDEST PUSH1 0x40 MLOAD SWAP1 DUP1 DUP3 MSTORE DUP1 PUSH1 0x20 MUL PUSH1 0x20 ADD DUP3 ADD PUSH1 0x40 MSTORE DUP1 ISZERO PUSH2 0x2012 JUMPI DUP2 PUSH1 0x20 ADD JUMPDEST PUSH1 0x60 DUP2 MSTORE PUSH1 0x20 ADD SWAP1 PUSH1 0x1 SWAP1 SUB SWAP1 DUP2 PUSH2 0x1FFD JUMPI SWAP1 POP JUMPDEST POP SWAP1 POP PUSH1 0x0 JUMPDEST DUP5 MLOAD DUP2 LT ISZERO PUSH2 0x20EC JUMPI DUP5 DUP2 DUP2 MLOAD DUP2 LT PUSH2 0x2033 JUMPI PUSH2 0x2033 PUSH2 0x41E2 JUMP JUMPDEST PUSH1 0x20 MUL PUSH1 0x20 ADD ADD MLOAD MLOAD PUSH1 0x0 EQ PUSH2 0x20A3 JUMPI DUP5 DUP2 DUP2 MLOAD DUP2 LT PUSH2 0x2055 JUMPI PUSH2 0x2055 PUSH2 0x41E2 JUMP JUMPDEST PUSH1 0x20 MUL PUSH1 0x20 ADD ADD MLOAD DUP1 MLOAD SWAP1 PUSH1 0x20 ADD KECCAK256 DUP5 DUP3 DUP2 MLOAD DUP2 LT PUSH2 0x2076 JUMPI PUSH2 0x2076 PUSH2 0x41E2 JUMP JUMPDEST PUSH1 0x20 MUL PUSH1 0x20 ADD ADD MLOAD PUSH1 0x40 MLOAD PUSH1 0x20 ADD PUSH2 0x208F SWAP3 SWAP2 SWAP1 PUSH2 0x42A3 JUMP JUMPDEST PUSH1 0x40 MLOAD PUSH1 0x20 DUP2 DUP4 SUB SUB DUP2 MSTORE SWAP1 PUSH1 0x40 MSTORE PUSH2 0x20BE JUMP JUMPDEST DUP4 DUP2 DUP2 MLOAD DUP2 LT PUSH2 0x20B5 JUMPI PUSH2 0x20B5 PUSH2 0x41E2 JUMP JUMPDEST PUSH1 0x20 MUL PUSH1 0x20 ADD ADD MLOAD JUMPDEST DUP3 DUP3 DUP2 MLOAD DUP2 LT PUSH2 0x20D0 JUMPI PUSH2 0x20D0 PUSH2 0x41E2 JUMP JUMPDEST PUSH1 0x20 MUL PUSH1 0x20 ADD ADD DUP2 SWAP1 MSTORE POP DUP1 PUSH2 0x20E5 SWAP1 PUSH2 0x4260 JUMP JUMPDEST SWAP1 POP PUSH2 0x2018 JUMP JUMPDEST POP SWAP4 SWAP3 POP POP POP JUMP JUMPDEST PUSH1 0x0 PUSH2 0xA31 DUP6 DUP6 DUP6 DUP6 PUSH2 0x2BFA JUMP JUMPDEST PUSH1 0x3 SLOAD PUSH1 0x40 DUP1 MLOAD SWAP2 DUP3 MSTORE PUSH1 0x20 DUP3 ADD DUP4 SWAP1 MSTORE PUSH32 0xC565B045403DC03C2EEA82B81A0465EDAD9E2E7FC4D97E11421C209DA93D7A93 SWAP2 ADD PUSH1 0x40 MLOAD DUP1 SWAP2 SUB SWAP1 LOG1 PUSH1 0x3 SSTORE JUMP JUMPDEST PUSH1 0x0 PUSH2 0x219F CALLER DUP7 DUP7 DUP7 MLOAD PUSH1 0x1 PUSH1 0x1 PUSH1 0x40 SHL SUB DUP2 GT ISZERO PUSH2 0x2164 JUMPI PUSH2 0x2164 PUSH2 0x385C JUMP JUMPDEST PUSH1 0x40 MLOAD SWAP1 DUP1 DUP3 MSTORE DUP1 PUSH1 0x20 MUL PUSH1 0x20 ADD DUP3 ADD PUSH1 0x40 MSTORE DUP1 ISZERO PUSH2 0x2197 JUMPI DUP2 PUSH1 0x20 ADD JUMPDEST PUSH1 0x60 DUP2 MSTORE PUSH1 0x20 ADD SWAP1 PUSH1 0x1 SWAP1 SUB SWAP1 DUP2 PUSH2 0x2182 JUMPI SWAP1 POP JUMPDEST POP DUP8 DUP8 PUSH2 0x2266 JUMP JUMPDEST PUSH2 0xA31 DUP6 DUP6 DUP6 DUP6 PUSH2 0x2D15 JUMP JUMPDEST PUSH1 0x6 SLOAD PUSH1 0x40 DUP1 MLOAD PUSH1 0x1 PUSH1 0x1 PUSH1 0xA0 SHL SUB SWAP3 DUP4 AND DUP2 MSTORE SWAP2 DUP4 AND PUSH1 0x20 DUP4 ADD MSTORE PUSH32 0x8F74EA46EF7894F65EABFB5E6E695DE773A000B47C529AB559178069B226401 SWAP2 ADD PUSH1 0x40 MLOAD DUP1 SWAP2 SUB SWAP1 LOG1 PUSH1 0x6 DUP1 SLOAD PUSH1 0x1 PUSH1 0x1 PUSH1 0xA0 SHL SUB NOT AND PUSH1 0x1 PUSH1 0x1 PUSH1 0xA0 SHL SUB SWAP3 SWAP1 SWAP3 AND SWAP2 SWAP1 SWAP2 OR SWAP1 SSTORE JUMP JUMPDEST PUSH1 0x0 DUP2 DUP2 MSTORE PUSH1 0x7 PUSH1 0x20 SWAP1 DUP2 MSTORE PUSH1 0x40 DUP1 DUP4 KECCAK256 DUP2 MLOAD SWAP3 DUP4 ADD SWAP1 SWAP2 MSTORE SLOAD PUSH1 0x1 PUSH1 0x1 PUSH1 0x40 SHL SUB AND SWAP1 DUP2 SWAP1 MSTORE PUSH2 0xA80 JUMP JUMPDEST PUSH1 0x60 PUSH2 0x110B DUP5 DUP5 DUP5 PUSH1 0x40 MLOAD DUP1 PUSH1 0x60 ADD PUSH1 0x40 MSTORE DUP1 PUSH1 0x29 DUP2 MSTORE PUSH1 0x20 ADD PUSH2 0x4496 PUSH1 0x29 SWAP2 CODECOPY PUSH2 0x2FD1 JUMP JUMPDEST DUP1 MLOAD PUSH1 0x20 DUP3 ADD KECCAK256 PUSH1 0x0 PUSH2 0x2284 DUP8 DUP8 PUSH2 0x227E DUP9 DUP9 PUSH2 0x1FC2 JUMP JUMPDEST DUP6 PUSH2 0x1328 JUMP JUMPDEST PUSH1 0x0 DUP2 DUP2 MSTORE PUSH1 0x2 PUSH1 0x20 MSTORE PUSH1 0x40 SWAP1 KECCAK256 PUSH1 0x9 DUP2 ADD SLOAD SWAP2 SWAP3 POP SWAP1 PUSH2 0x2318 JUMPI DUP1 SLOAD PUSH1 0x1 PUSH1 0x1 PUSH1 0xA0 SHL SUB NOT AND PUSH1 0x1 PUSH1 0x1 PUSH1 0xA0 SHL SUB DUP11 AND OR DUP2 SSTORE DUP8 MLOAD PUSH2 0x22CD SWAP1 PUSH1 0x1 DUP4 ADD SWAP1 PUSH1 0x20 DUP12 ADD SWAP1 PUSH2 0x3564 JUMP JUMPDEST POP DUP7 MLOAD PUSH2 0x22E3 SWAP1 PUSH1 0x2 DUP4 ADD SWAP1 PUSH1 0x20 DUP11 ADD SWAP1 PUSH2 0x35C5 JUMP JUMPDEST POP DUP6 MLOAD PUSH2 0x22F9 SWAP1 PUSH1 0x3 DUP4 ADD SWAP1 PUSH1 0x20 DUP10 ADD SWAP1 PUSH2 0x3600 JUMP JUMPDEST POP DUP5 MLOAD PUSH2 0x230F SWAP1 PUSH1 0x4 DUP4 ADD SWAP1 PUSH1 0x20 DUP9 ADD SWAP1 PUSH2 0x3659 JUMP JUMPDEST POP PUSH1 0x9 DUP2 ADD DUP4 SWAP1 SSTORE JUMPDEST POP POP POP POP POP POP POP POP POP JUMP JUMPDEST PUSH1 0x0 DUP2 GT PUSH2 0x2383 JUMPI PUSH1 0x40 MLOAD PUSH3 0x461BCD PUSH1 0xE5 SHL DUP2 MSTORE PUSH1 0x20 PUSH1 0x4 DUP3 ADD MSTORE PUSH1 0x27 PUSH1 0x24 DUP3 ADD MSTORE PUSH32 0x476F7665726E6F7253657474696E67733A20766F74696E6720706572696F6420 PUSH1 0x44 DUP3 ADD MSTORE PUSH7 0x746F6F206C6F77 PUSH1 0xC8 SHL PUSH1 0x64 DUP3 ADD MSTORE PUSH1 0x84 ADD PUSH2 0xE65 JUMP JUMPDEST PUSH1 0x4 SLOAD PUSH1 0x40 DUP1 MLOAD SWAP2 DUP3 MSTORE PUSH1 0x20 DUP3 ADD DUP4 SWAP1 MSTORE PUSH32 0x7E3F7F0708A84DE9203036ABAA450DCCC85AD5FF52F78C170F3EDB55CF5E8828 SWAP2 ADD PUSH1 0x40 MLOAD DUP1 SWAP2 SUB SWAP1 LOG1 PUSH1 0x4 SSTORE JUMP JUMPDEST PUSH1 0x40 MLOAD PUSH4 0x782D6FE1 PUSH1 0xE0 SHL DUP2 MSTORE PUSH1 0x1 PUSH1 0x1 PUSH1 0xA0 SHL SUB DUP4 DUP2 AND PUSH1 0x4 DUP4 ADD MSTORE PUSH1 0x24 DUP3 ADD DUP4 SWAP1 MSTORE PUSH1 0x0 SWAP2 PUSH32 0x0 SWAP1 SWAP2 AND SWAP1 PUSH4 0x782D6FE1 SWAP1 PUSH1 0x44 ADD PUSH1 0x20 PUSH1 0x40 MLOAD DUP1 DUP4 SUB DUP2 DUP7 GAS STATICCALL ISZERO DUP1 ISZERO PUSH2 0x2436 JUMPI RETURNDATASIZE PUSH1 0x0 DUP1 RETURNDATACOPY RETURNDATASIZE PUSH1 0x0 REVERT JUMPDEST POP POP POP POP PUSH1 0x40 MLOAD RETURNDATASIZE PUSH1 0x1F NOT PUSH1 0x1F DUP3 ADD AND DUP3 ADD DUP1 PUSH1 0x40 MSTORE POP DUP2 ADD SWAP1 PUSH2 0x245A SWAP2 SWAP1 PUSH2 0x42D4 JUMP JUMPDEST PUSH1 0x1 PUSH1 0x1 PUSH1 0x60 SHL SUB AND SWAP4 SWAP3 POP POP POP JUMP JUMPDEST PUSH1 0x5 SLOAD PUSH1 0x40 DUP1 MLOAD SWAP2 DUP3 MSTORE PUSH1 0x20 DUP3 ADD DUP4 SWAP1 MSTORE PUSH32 0xCCB45DA8D5717E6C4544694297C4BA5CF151D455C9BB0ED4FC7A38411BC05461 SWAP2 ADD PUSH1 0x40 MLOAD DUP1 SWAP2 SUB SWAP1 LOG1 PUSH1 0x5 SSTORE JUMP JUMPDEST PUSH1 0x0 PUSH1 0x1 PUSH1 0x1 PUSH1 0xE0 SHL SUB NOT DUP3 AND PUSH4 0xBF26D897 PUSH1 0xE0 SHL EQ DUP1 PUSH2 0x98B JUMPI POP PUSH4 0x1FFC9A7 PUSH1 0xE0 SHL PUSH1 0x1 PUSH1 0x1 PUSH1 0xE0 SHL SUB NOT DUP4 AND EQ PUSH2 0x98B JUMP JUMPDEST PUSH1 0x0 PUSH1 0x1 PUSH1 0x1 PUSH1 0x40 SHL SUB DUP3 GT ISZERO PUSH2 0x2548 JUMPI PUSH1 0x40 MLOAD PUSH3 0x461BCD PUSH1 0xE5 SHL DUP2 MSTORE PUSH1 0x20 PUSH1 0x4 DUP3 ADD MSTORE PUSH1 0x26 PUSH1 0x24 DUP3 ADD MSTORE PUSH32 0x53616665436173743A2076616C756520646F65736E27742066697420696E2036 PUSH1 0x44 DUP3 ADD MSTORE PUSH6 0x342062697473 PUSH1 0xD0 SHL PUSH1 0x64 DUP3 ADD MSTORE PUSH1 0x84 ADD PUSH2 0xE65 JUMP JUMPDEST POP SWAP1 JUMP JUMPDEST DUP2 SLOAD PUSH8 0xFFFFFFFFFFFFFFFF NOT AND PUSH1 0x1 PUSH1 0x1 PUSH1 0x40 SHL SUB SWAP2 SWAP1 SWAP2 AND OR SWAP1 SSTORE JUMP JUMPDEST PUSH2 0x1321 DUP6 DUP6 DUP6 DUP6 DUP6 PUSH2 0x30F7 JUMP JUMPDEST PUSH1 0x0 ADDRESS PUSH1 0x1 PUSH1 0x1 PUSH1 0xA0 SHL SUB PUSH32 0x0 AND EQ DUP1 ISZERO PUSH2 0x25D0 JUMPI POP PUSH32 0x0 CHAINID EQ JUMPDEST ISZERO PUSH2 0x25FA JUMPI POP PUSH32 0x0 SWAP1 JUMP JUMPDEST POP PUSH1 0x40 DUP1 MLOAD PUSH32 0x0 PUSH1 0x20 DUP1 DUP4 ADD SWAP2 SWAP1 SWAP2 MSTORE PUSH32 0x0 DUP3 DUP5 ADD MSTORE PUSH32 0x0 PUSH1 0x60 DUP4 ADD MSTORE CHAINID PUSH1 0x80 DUP4 ADD MSTORE ADDRESS PUSH1 0xA0 DUP1 DUP5 ADD SWAP2 SWAP1 SWAP2 MSTORE DUP4 MLOAD DUP1 DUP5 SUB SWAP1 SWAP2 ADD DUP2 MSTORE PUSH1 0xC0 SWAP1 SWAP3 ADD SWAP1 SWAP3 MSTORE DUP1 MLOAD SWAP2 ADD KECCAK256 SWAP1 JUMP JUMPDEST PUSH1 0x0 DUP1 PUSH32 0x7FFFFFFFFFFFFFFFFFFFFFFFFFFFFFFF5D576E7357A4501DDFE92F46681B20A0 DUP4 GT ISZERO PUSH2 0x26D5 JUMPI POP PUSH1 0x0 SWAP1 POP PUSH1 0x3 PUSH2 0x2782 JUMP JUMPDEST DUP5 PUSH1 0xFF AND PUSH1 0x1B EQ ISZERO DUP1 ISZERO PUSH2 0x26ED JUMPI POP DUP5 PUSH1 0xFF AND PUSH1 0x1C EQ ISZERO JUMPDEST ISZERO PUSH2 0x26FE JUMPI POP PUSH1 0x0 SWAP1 POP PUSH1 0x4 PUSH2 0x2782 JUMP JUMPDEST PUSH1 0x40 DUP1 MLOAD PUSH1 0x0 DUP1 DUP3 MSTORE PUSH1 0x20 DUP3 ADD DUP1 DUP5 MSTORE DUP10 SWAP1 MSTORE PUSH1 0xFF DUP9 AND SWAP3 DUP3 ADD SWAP3 SWAP1 SWAP3 MSTORE PUSH1 0x60 DUP2 ADD DUP7 SWAP1 MSTORE PUSH1 0x80 DUP2 ADD DUP6 SWAP1 MSTORE PUSH1 0x1 SWAP1 PUSH1 0xA0 ADD PUSH1 0x20 PUSH1 0x40 MLOAD PUSH1 0x20 DUP2 SUB SWAP1 DUP1 DUP5 SUB SWAP1 DUP6 GAS STATICCALL ISZERO DUP1 ISZERO PUSH2 0x2752 JUMPI RETURNDATASIZE PUSH1 0x0 DUP1 RETURNDATACOPY RETURNDATASIZE PUSH1 0x0 REVERT JUMPDEST POP POP PUSH1 0x40 MLOAD PUSH1 0x1F NOT ADD MLOAD SWAP2 POP POP PUSH1 0x1 PUSH1 0x1 PUSH1 0xA0 SHL SUB DUP2 AND PUSH2 0x277B JUMPI PUSH1 0x0 PUSH1 0x1 SWAP3 POP SWAP3 POP POP PUSH2 0x2782 JUMP JUMPDEST SWAP2 POP PUSH1 0x0 SWAP1 POP JUMPDEST SWAP5 POP SWAP5 SWAP3 POP POP POP JUMP JUMPDEST PUSH1 0x0 DUP2 PUSH1 0x4 DUP2 GT ISZERO PUSH2 0x279F JUMPI PUSH2 0x279F PUSH2 0x3CA3 JUMP JUMPDEST EQ ISZERO PUSH2 0x27A8 JUMPI POP JUMP JUMPDEST PUSH1 0x1 DUP2 PUSH1 0x4 DUP2 GT ISZERO PUSH2 0x27BC JUMPI PUSH2 0x27BC PUSH2 0x3CA3 JUMP JUMPDEST EQ ISZERO PUSH2 0x280A JUMPI PUSH1 0x40 MLOAD PUSH3 0x461BCD PUSH1 0xE5 SHL DUP2 MSTORE PUSH1 0x20 PUSH1 0x4 DUP3 ADD MSTORE PUSH1 0x18 PUSH1 0x24 DUP3 ADD MSTORE PUSH32 0x45434453413A20696E76616C6964207369676E61747572650000000000000000 PUSH1 0x44 DUP3 ADD MSTORE PUSH1 0x64 ADD PUSH2 0xE65 JUMP JUMPDEST PUSH1 0x2 DUP2 PUSH1 0x4 DUP2 GT ISZERO PUSH2 0x281E JUMPI PUSH2 0x281E PUSH2 0x3CA3 JUMP JUMPDEST EQ ISZERO PUSH2 0x286C JUMPI PUSH1 0x40 MLOAD PUSH3 0x461BCD PUSH1 0xE5 SHL DUP2 MSTORE PUSH1 0x20 PUSH1 0x4 DUP3 ADD MSTORE PUSH1 0x1F PUSH1 0x24 DUP3 ADD MSTORE PUSH32 0x45434453413A20696E76616C6964207369676E6174757265206C656E67746800 PUSH1 0x44 DUP3 ADD MSTORE PUSH1 0x64 ADD PUSH2 0xE65 JUMP JUMPDEST PUSH1 0x3 DUP2 PUSH1 0x4 DUP2 GT ISZERO PUSH2 0x2880 JUMPI PUSH2 0x2880 PUSH2 0x3CA3 JUMP JUMPDEST EQ ISZERO PUSH2 0x28D9 JUMPI PUSH1 0x40 MLOAD PUSH3 0x461BCD PUSH1 0xE5 SHL DUP2 MSTORE PUSH1 0x20 PUSH1 0x4 DUP3 ADD MSTORE PUSH1 0x22 PUSH1 0x24 DUP3 ADD MSTORE PUSH32 0x45434453413A20696E76616C6964207369676E6174757265202773272076616C PUSH1 0x44 DUP3 ADD MSTORE PUSH2 0x7565 PUSH1 0xF0 SHL PUSH1 0x64 DUP3 ADD MSTORE PUSH1 0x84 ADD PUSH2 0xE65 JUMP JUMPDEST PUSH1 0x4 DUP2 PUSH1 0x4 DUP2 GT ISZERO PUSH2 0x28ED JUMPI PUSH2 0x28ED PUSH2 0x3CA3 JUMP JUMPDEST EQ ISZERO PUSH2 0x1154 JUMPI PUSH1 0x40 MLOAD PUSH3 0x461BCD PUSH1 0xE5 SHL DUP2 MSTORE PUSH1 0x20 PUSH1 0x4 DUP3 ADD MSTORE PUSH1 0x22 PUSH1 0x24 DUP3 ADD MSTORE PUSH32 0x45434453413A20696E76616C6964207369676E6174757265202776272076616C PUSH1 0x44 DUP3 ADD MSTORE PUSH2 0x7565 PUSH1 0xF0 SHL PUSH1 0x64 DUP3 ADD MSTORE PUSH1 0x84 ADD PUSH2 0xE65 JUMP JUMPDEST PUSH1 0x0 DUP5 DUP2 MSTORE PUSH1 0x2 PUSH1 0x20 SWAP1 DUP2 MSTORE PUSH1 0x40 DUP1 DUP4 KECCAK256 PUSH1 0x1 PUSH1 0x1 PUSH1 0xA0 SHL SUB DUP8 AND DUP5 MSTORE PUSH1 0x8 DUP2 ADD SWAP1 SWAP3 MSTORE SWAP1 SWAP2 KECCAK256 DUP1 SLOAD PUSH1 0xFF AND ISZERO PUSH2 0x29D5 JUMPI PUSH1 0x40 MLOAD PUSH3 0x461BCD PUSH1 0xE5 SHL DUP2 MSTORE PUSH1 0x20 PUSH1 0x4 DUP3 ADD MSTORE PUSH1 0x2D PUSH1 0x24 DUP3 ADD MSTORE PUSH32 0x476F7665726E6F72436F6D7061746962696C697479427261766F3A20766F7465 PUSH1 0x44 DUP3 ADD MSTORE PUSH13 0x8185B1C9958591E4818D85CDD PUSH1 0x9A SHL PUSH1 0x64 DUP3 ADD MSTORE PUSH1 0x84 ADD PUSH2 0xE65 JUMP JUMPDEST DUP1 SLOAD PUSH1 0xFF DUP6 AND PUSH2 0x100 MUL PUSH2 0xFFFF NOT SWAP1 SWAP2 AND OR PUSH1 0x1 OR DUP2 SSTORE PUSH2 0x29F5 DUP4 PUSH2 0x3276 JUMP JUMPDEST DUP2 SLOAD PUSH1 0x1 PUSH1 0x1 PUSH1 0x60 SHL SUB SWAP2 SWAP1 SWAP2 AND PUSH3 0x10000 MUL PUSH14 0xFFFFFFFFFFFFFFFFFFFFFFFF0000 NOT SWAP1 SWAP2 AND OR DUP2 SSTORE PUSH1 0xFF DUP5 AND PUSH2 0x2A45 JUMPI DUP3 DUP3 PUSH1 0x6 ADD PUSH1 0x0 DUP3 DUP3 SLOAD PUSH2 0x2A3A SWAP2 SWAP1 PUSH2 0x41CA JUMP JUMPDEST SWAP1 SWAP2 SSTORE POP PUSH2 0x2AE3 SWAP1 POP JUMP JUMPDEST PUSH1 0xFF DUP5 AND PUSH1 0x1 EQ ISZERO PUSH2 0x2A65 JUMPI DUP3 DUP3 PUSH1 0x5 ADD PUSH1 0x0 DUP3 DUP3 SLOAD PUSH2 0x2A3A SWAP2 SWAP1 PUSH2 0x41CA JUMP JUMPDEST PUSH1 0xFF DUP5 AND PUSH1 0x2 EQ ISZERO PUSH2 0x2A85 JUMPI DUP3 DUP3 PUSH1 0x7 ADD PUSH1 0x0 DUP3 DUP3 SLOAD PUSH2 0x2A3A SWAP2 SWAP1 PUSH2 0x41CA JUMP JUMPDEST PUSH1 0x40 MLOAD PUSH3 0x461BCD PUSH1 0xE5 SHL DUP2 MSTORE PUSH1 0x20 PUSH1 0x4 DUP3 ADD MSTORE PUSH1 0x2D PUSH1 0x24 DUP3 ADD MSTORE PUSH32 0x476F7665726E6F72436F6D7061746962696C697479427261766F3A20696E7661 PUSH1 0x44 DUP3 ADD MSTORE PUSH13 0x6C696420766F74652074797065 PUSH1 0x98 SHL PUSH1 0x64 DUP3 ADD MSTORE PUSH1 0x84 ADD PUSH2 0xE65 JUMP JUMPDEST POP POP POP POP POP POP JUMP JUMPDEST PUSH1 0x0 DUP2 DUP2 MSTORE PUSH1 0x1 PUSH1 0x20 MSTORE PUSH1 0x40 DUP2 KECCAK256 PUSH1 0x2 DUP2 ADD SLOAD PUSH1 0xFF AND ISZERO PUSH2 0x2B0F JUMPI POP PUSH1 0x7 SWAP3 SWAP2 POP POP JUMP JUMPDEST PUSH1 0x2 DUP2 ADD SLOAD PUSH2 0x100 SWAP1 DIV PUSH1 0xFF AND ISZERO PUSH2 0x2B2A JUMPI POP PUSH1 0x2 SWAP3 SWAP2 POP POP JUMP JUMPDEST PUSH1 0x0 PUSH2 0x2B35 DUP5 PUSH2 0xA58 JUMP JUMPDEST SWAP1 POP DUP1 PUSH2 0x2B84 JUMPI PUSH1 0x40 MLOAD PUSH3 0x461BCD PUSH1 0xE5 SHL DUP2 MSTORE PUSH1 0x20 PUSH1 0x4 DUP3 ADD MSTORE PUSH1 0x1D PUSH1 0x24 DUP3 ADD MSTORE PUSH32 0x476F7665726E6F723A20756E6B6E6F776E2070726F706F73616C206964000000 PUSH1 0x44 DUP3 ADD MSTORE PUSH1 0x64 ADD PUSH2 0xE65 JUMP JUMPDEST NUMBER DUP2 LT PUSH2 0x2B95 JUMPI POP PUSH1 0x0 SWAP4 SWAP3 POP POP POP JUMP JUMPDEST PUSH1 0x0 PUSH2 0x2BA0 DUP6 PUSH2 0x1278 JUMP JUMPDEST SWAP1 POP NUMBER DUP2 LT PUSH2 0x2BB4 JUMPI POP PUSH1 0x1 SWAP5 SWAP4 POP POP POP POP JUMP JUMPDEST PUSH2 0x2BBD DUP6 PUSH2 0x32DE JUMP JUMPDEST DUP1 ISZERO PUSH2 0x2BDF JUMPI POP PUSH1 0x0 DUP6 DUP2 MSTORE PUSH1 0x2 PUSH1 0x20 MSTORE PUSH1 0x40 SWAP1 KECCAK256 PUSH1 0x6 DUP2 ADD SLOAD PUSH1 0x5 SWAP1 SWAP2 ADD SLOAD GT JUMPDEST ISZERO PUSH2 0x2BEF JUMPI POP PUSH1 0x4 SWAP5 SWAP4 POP POP POP POP JUMP JUMPDEST POP PUSH1 0x3 SWAP5 SWAP4 POP POP POP POP JUMP JUMPDEST PUSH1 0x0 DUP1 PUSH2 0x2C09 DUP7 DUP7 DUP7 DUP7 PUSH2 0x3306 JUMP JUMPDEST SWAP1 POP PUSH1 0x0 PUSH2 0x2C16 DUP3 PUSH2 0x11F8 JUMP JUMPDEST SWAP1 POP DUP1 ISZERO PUSH2 0x1D60 JUMPI PUSH1 0x0 JUMPDEST DUP8 MLOAD DUP2 LT ISZERO PUSH2 0x2CF2 JUMPI PUSH1 0x6 SLOAD DUP9 MLOAD PUSH1 0x1 PUSH1 0x1 PUSH1 0xA0 SHL SUB SWAP1 SWAP2 AND SWAP1 PUSH4 0x591FCDFE SWAP1 DUP11 SWAP1 DUP5 SWAP1 DUP2 LT PUSH2 0x2C53 JUMPI PUSH2 0x2C53 PUSH2 0x41E2 JUMP JUMPDEST PUSH1 0x20 MUL PUSH1 0x20 ADD ADD MLOAD DUP10 DUP5 DUP2 MLOAD DUP2 LT PUSH2 0x2C6D JUMPI PUSH2 0x2C6D PUSH2 0x41E2 JUMP JUMPDEST PUSH1 0x20 MUL PUSH1 0x20 ADD ADD MLOAD DUP10 DUP6 DUP2 MLOAD DUP2 LT PUSH2 0x2C87 JUMPI PUSH2 0x2C87 PUSH2 0x41E2 JUMP JUMPDEST PUSH1 0x20 MUL PUSH1 0x20 ADD ADD MLOAD DUP7 PUSH1 0x40 MLOAD DUP6 PUSH4 0xFFFFFFFF AND PUSH1 0xE0 SHL DUP2 MSTORE PUSH1 0x4 ADD PUSH2 0x2CAF SWAP5 SWAP4 SWAP3 SWAP2 SWAP1 PUSH2 0x41F8 JUMP JUMPDEST PUSH1 0x0 PUSH1 0x40 MLOAD DUP1 DUP4 SUB DUP2 PUSH1 0x0 DUP8 DUP1 EXTCODESIZE ISZERO DUP1 ISZERO PUSH2 0x2CC9 JUMPI PUSH1 0x0 DUP1 REVERT JUMPDEST POP GAS CALL ISZERO DUP1 ISZERO PUSH2 0x2CDD JUMPI RETURNDATASIZE PUSH1 0x0 DUP1 RETURNDATACOPY RETURNDATASIZE PUSH1 0x0 REVERT JUMPDEST POP POP POP POP DUP1 PUSH2 0x2CEB SWAP1 PUSH2 0x4260 JUMP JUMPDEST SWAP1 POP PUSH2 0x2C21 JUMP JUMPDEST POP PUSH1 0x0 DUP3 DUP2 MSTORE PUSH1 0x7 PUSH1 0x20 MSTORE PUSH1 0x40 SWAP1 KECCAK256 DUP1 SLOAD PUSH8 0xFFFFFFFFFFFFFFFF NOT AND SWAP1 SSTORE PUSH2 0x1D60 JUMP JUMPDEST PUSH1 0x0 PUSH2 0x2D1F PUSH2 0x1203 JUMP JUMPDEST PUSH2 0x2D2E CALLER PUSH2 0x831 PUSH1 0x1 NUMBER PUSH2 0x40D7 JUMP JUMPDEST LT ISZERO PUSH2 0x2DAE JUMPI PUSH1 0x40 MLOAD PUSH3 0x461BCD PUSH1 0xE5 SHL DUP2 MSTORE PUSH1 0x20 PUSH1 0x4 DUP3 ADD MSTORE PUSH1 0x43 PUSH1 0x24 DUP3 ADD MSTORE PUSH32 0x476F7665726E6F72436F6D7061746962696C697479427261766F3A2070726F70 PUSH1 0x44 DUP3 ADD MSTORE PUSH32 0x6F73657220766F7465732062656C6F772070726F706F73616C20746872657368 PUSH1 0x64 DUP3 ADD MSTORE PUSH3 0x1BDB19 PUSH1 0xEA SHL PUSH1 0x84 DUP3 ADD MSTORE PUSH1 0xA4 ADD PUSH2 0xE65 JUMP JUMPDEST PUSH1 0x0 PUSH2 0x2DC3 DUP7 DUP7 DUP7 DUP7 DUP1 MLOAD SWAP1 PUSH1 0x20 ADD KECCAK256 PUSH2 0x1328 JUMP JUMPDEST SWAP1 POP DUP5 MLOAD DUP7 MLOAD EQ PUSH2 0x2DE6 JUMPI PUSH1 0x40 MLOAD PUSH3 0x461BCD PUSH1 0xE5 SHL DUP2 MSTORE PUSH1 0x4 ADD PUSH2 0xE65 SWAP1 PUSH2 0x42FD JUMP JUMPDEST DUP4 MLOAD DUP7 MLOAD EQ PUSH2 0x2E07 JUMPI PUSH1 0x40 MLOAD PUSH3 0x461BCD PUSH1 0xE5 SHL DUP2 MSTORE PUSH1 0x4 ADD PUSH2 0xE65 SWAP1 PUSH2 0x42FD JUMP JUMPDEST PUSH1 0x0 DUP7 MLOAD GT PUSH2 0x2E58 JUMPI PUSH1 0x40 MLOAD PUSH3 0x461BCD PUSH1 0xE5 SHL DUP2 MSTORE PUSH1 0x20 PUSH1 0x4 DUP3 ADD MSTORE PUSH1 0x18 PUSH1 0x24 DUP3 ADD MSTORE PUSH32 0x476F7665726E6F723A20656D7074792070726F706F73616C0000000000000000 PUSH1 0x44 DUP3 ADD MSTORE PUSH1 0x64 ADD PUSH2 0xE65 JUMP JUMPDEST PUSH1 0x0 DUP2 DUP2 MSTORE PUSH1 0x1 PUSH1 0x20 SWAP1 DUP2 MSTORE PUSH1 0x40 SWAP2 DUP3 SWAP1 KECCAK256 DUP3 MLOAD SWAP2 DUP3 ADD SWAP1 SWAP3 MSTORE DUP2 SLOAD PUSH1 0x1 PUSH1 0x1 PUSH1 0x40 SHL SUB AND SWAP1 DUP2 SWAP1 MSTORE ISZERO PUSH2 0x2ED8 JUMPI PUSH1 0x40 MLOAD PUSH3 0x461BCD PUSH1 0xE5 SHL DUP2 MSTORE PUSH1 0x20 PUSH1 0x4 DUP3 ADD MSTORE PUSH1 0x21 PUSH1 0x24 DUP3 ADD MSTORE PUSH32 0x476F7665726E6F723A2070726F706F73616C20616C7265616479206578697374 PUSH1 0x44 DUP3 ADD MSTORE PUSH1 0x73 PUSH1 0xF8 SHL PUSH1 0x64 DUP3 ADD MSTORE PUSH1 0x84 ADD PUSH2 0xE65 JUMP JUMPDEST PUSH1 0x0 PUSH2 0x2EEB PUSH2 0x2EE6 PUSH1 0x3 SLOAD SWAP1 JUMP JUMPDEST PUSH2 0x24E0 JUMP JUMPDEST PUSH2 0x2EF4 NUMBER PUSH2 0x24E0 JUMP JUMPDEST PUSH2 0x2EFE SWAP2 SWAP1 PUSH2 0x433E JUMP JUMPDEST SWAP1 POP PUSH1 0x0 PUSH2 0x2F0E PUSH2 0x2EE6 PUSH1 0x4 SLOAD SWAP1 JUMP JUMPDEST PUSH2 0x2F18 SWAP1 DUP4 PUSH2 0x433E JUMP JUMPDEST SWAP1 POP PUSH2 0x2F24 DUP4 DUP4 PUSH2 0x254C JUMP JUMPDEST PUSH2 0x2F31 PUSH1 0x1 DUP5 ADD DUP3 PUSH2 0x254C JUMP JUMPDEST PUSH32 0x7D84A6263AE0D98D3329BD7B46BB4E8D6F98CD35A7ADB45C274C8B7FD5EBD5E0 DUP5 CALLER DUP12 DUP12 DUP14 MLOAD PUSH1 0x1 PUSH1 0x1 PUSH1 0x40 SHL SUB DUP2 GT ISZERO PUSH2 0x2F6F JUMPI PUSH2 0x2F6F PUSH2 0x385C JUMP JUMPDEST PUSH1 0x40 MLOAD SWAP1 DUP1 DUP3 MSTORE DUP1 PUSH1 0x20 MUL PUSH1 0x20 ADD DUP3 ADD PUSH1 0x40 MSTORE DUP1 ISZERO PUSH2 0x2FA2 JUMPI DUP2 PUSH1 0x20 ADD JUMPDEST PUSH1 0x60 DUP2 MSTORE PUSH1 0x20 ADD SWAP1 PUSH1 0x1 SWAP1 SUB SWAP1 DUP2 PUSH2 0x2F8D JUMPI SWAP1 POP JUMPDEST POP DUP13 DUP9 DUP9 DUP15 PUSH1 0x40 MLOAD PUSH2 0x2FBC SWAP10 SWAP9 SWAP8 SWAP7 SWAP6 SWAP5 SWAP4 SWAP3 SWAP2 SWAP1 PUSH2 0x4369 JUMP JUMPDEST PUSH1 0x40 MLOAD DUP1 SWAP2 SUB SWAP1 LOG1 POP SWAP2 SWAP8 SWAP7 POP POP POP POP POP POP POP JUMP JUMPDEST PUSH1 0x60 DUP3 SELFBALANCE LT ISZERO PUSH2 0x3032 JUMPI PUSH1 0x40 MLOAD PUSH3 0x461BCD PUSH1 0xE5 SHL DUP2 MSTORE PUSH1 0x20 PUSH1 0x4 DUP3 ADD MSTORE PUSH1 0x26 PUSH1 0x24 DUP3 ADD MSTORE PUSH32 0x416464726573733A20696E73756666696369656E742062616C616E636520666F PUSH1 0x44 DUP3 ADD MSTORE PUSH6 0x1C8818D85B1B PUSH1 0xD2 SHL PUSH1 0x64 DUP3 ADD MSTORE PUSH1 0x84 ADD PUSH2 0xE65 JUMP JUMPDEST PUSH1 0x1 PUSH1 0x1 PUSH1 0xA0 SHL SUB DUP6 AND EXTCODESIZE PUSH2 0x3089 JUMPI PUSH1 0x40 MLOAD PUSH3 0x461BCD PUSH1 0xE5 SHL DUP2 MSTORE PUSH1 0x20 PUSH1 0x4 DUP3 ADD MSTORE PUSH1 0x1D PUSH1 0x24 DUP3 ADD MSTORE PUSH32 0x416464726573733A2063616C6C20746F206E6F6E2D636F6E7472616374000000 PUSH1 0x44 DUP3 ADD MSTORE PUSH1 0x64 ADD PUSH2 0xE65 JUMP JUMPDEST PUSH1 0x0 DUP1 DUP7 PUSH1 0x1 PUSH1 0x1 PUSH1 0xA0 SHL SUB AND DUP6 DUP8 PUSH1 0x40 MLOAD PUSH2 0x30A5 SWAP2 SWAP1 PUSH2 0x440C JUMP JUMPDEST PUSH1 0x0 PUSH1 0x40 MLOAD DUP1 DUP4 SUB DUP2 DUP6 DUP8 GAS CALL SWAP3 POP POP POP RETURNDATASIZE DUP1 PUSH1 0x0 DUP2 EQ PUSH2 0x30E2 JUMPI PUSH1 0x40 MLOAD SWAP2 POP PUSH1 0x1F NOT PUSH1 0x3F RETURNDATASIZE ADD AND DUP3 ADD PUSH1 0x40 MSTORE RETURNDATASIZE DUP3 MSTORE RETURNDATASIZE PUSH1 0x0 PUSH1 0x20 DUP5 ADD RETURNDATACOPY PUSH2 0x30E7 JUMP JUMPDEST PUSH1 0x60 SWAP2 POP JUMPDEST POP SWAP2 POP SWAP2 POP PUSH2 0xDA9 DUP3 DUP3 DUP7 PUSH2 0x3412 JUMP JUMPDEST PUSH1 0x0 PUSH2 0x3102 DUP7 PUSH2 0x11F8 JUMP JUMPDEST SWAP1 POP PUSH1 0x0 DUP2 GT PUSH2 0x316E JUMPI PUSH1 0x40 MLOAD PUSH3 0x461BCD PUSH1 0xE5 SHL DUP2 MSTORE PUSH1 0x20 PUSH1 0x4 DUP3 ADD MSTORE PUSH1 0x31 PUSH1 0x24 DUP3 ADD MSTORE PUSH32 0x476F7665726E6F7254696D656C6F636B436F6D706F756E643A2070726F706F73 PUSH1 0x44 DUP3 ADD MSTORE PUSH17 0x185B081B9BDD081E595D081C5D595D5959 PUSH1 0x7A SHL PUSH1 0x64 DUP3 ADD MSTORE PUSH1 0x84 ADD PUSH2 0xE65 JUMP JUMPDEST PUSH1 0x6 SLOAD PUSH2 0x3184 SWAP1 PUSH1 0x1 PUSH1 0x1 PUSH1 0xA0 SHL SUB AND CALLVALUE PUSH2 0x344B JUMP JUMPDEST PUSH1 0x0 JUMPDEST DUP6 MLOAD DUP2 LT ISZERO PUSH2 0x326D JUMPI PUSH1 0x6 SLOAD DUP7 MLOAD PUSH1 0x1 PUSH1 0x1 PUSH1 0xA0 SHL SUB SWAP1 SWAP2 AND SWAP1 PUSH4 0x825F38F SWAP1 DUP9 SWAP1 DUP5 SWAP1 DUP2 LT PUSH2 0x31B9 JUMPI PUSH2 0x31B9 PUSH2 0x41E2 JUMP JUMPDEST PUSH1 0x20 MUL PUSH1 0x20 ADD ADD MLOAD DUP8 DUP5 DUP2 MLOAD DUP2 LT PUSH2 0x31D3 JUMPI PUSH2 0x31D3 PUSH2 0x41E2 JUMP JUMPDEST PUSH1 0x20 MUL PUSH1 0x20 ADD ADD MLOAD DUP8 DUP6 DUP2 MLOAD DUP2 LT PUSH2 0x31ED JUMPI PUSH2 0x31ED PUSH2 0x41E2 JUMP JUMPDEST PUSH1 0x20 MUL PUSH1 0x20 ADD ADD MLOAD DUP7 PUSH1 0x40 MLOAD DUP6 PUSH4 0xFFFFFFFF AND PUSH1 0xE0 SHL DUP2 MSTORE PUSH1 0x4 ADD PUSH2 0x3215 SWAP5 SWAP4 SWAP3 SWAP2 SWAP1 PUSH2 0x41F8 JUMP JUMPDEST PUSH1 0x0 PUSH1 0x40 MLOAD DUP1 DUP4 SUB DUP2 PUSH1 0x0 DUP8 GAS CALL ISZERO DUP1 ISZERO PUSH2 0x3234 JUMPI RETURNDATASIZE PUSH1 0x0 DUP1 RETURNDATACOPY RETURNDATASIZE PUSH1 0x0 REVERT JUMPDEST POP POP POP POP PUSH1 0x40 MLOAD RETURNDATASIZE PUSH1 0x0 DUP3 RETURNDATACOPY PUSH1 0x1F RETURNDATASIZE SWAP1 DUP2 ADD PUSH1 0x1F NOT AND DUP3 ADD PUSH1 0x40 MSTORE PUSH2 0x325C SWAP2 SWAP1 DUP2 ADD SWAP1 PUSH2 0x4428 JUMP JUMPDEST POP PUSH2 0x3266 DUP2 PUSH2 0x4260 JUMP JUMPDEST SWAP1 POP PUSH2 0x3187 JUMP JUMPDEST POP POP POP POP POP POP POP JUMP JUMPDEST PUSH1 0x0 PUSH1 0x1 PUSH1 0x1 PUSH1 0x60 SHL SUB DUP3 GT ISZERO PUSH2 0x2548 JUMPI PUSH1 0x40 MLOAD PUSH3 0x461BCD PUSH1 0xE5 SHL DUP2 MSTORE PUSH1 0x20 PUSH1 0x4 DUP3 ADD MSTORE PUSH1 0x26 PUSH1 0x24 DUP3 ADD MSTORE PUSH32 0x53616665436173743A2076616C756520646F65736E27742066697420696E2039 PUSH1 0x44 DUP3 ADD MSTORE PUSH6 0x362062697473 PUSH1 0xD0 SHL PUSH1 0x64 DUP3 ADD MSTORE PUSH1 0x84 ADD PUSH2 0xE65 JUMP JUMPDEST PUSH1 0x0 DUP2 DUP2 MSTORE PUSH1 0x2 PUSH1 0x20 MSTORE PUSH1 0x40 DUP2 KECCAK256 PUSH1 0x5 DUP2 ADD SLOAD PUSH2 0x32FD PUSH2 0x871 DUP6 PUSH2 0xA58 JUMP JUMPDEST GT ISZERO SWAP4 SWAP3 POP POP POP JUMP JUMPDEST PUSH1 0x0 DUP1 PUSH2 0x3315 DUP7 DUP7 DUP7 DUP7 PUSH2 0x1328 JUMP JUMPDEST SWAP1 POP PUSH1 0x0 PUSH2 0x3322 DUP3 PUSH2 0xDB4 JUMP JUMPDEST SWAP1 POP PUSH1 0x2 DUP2 PUSH1 0x7 DUP2 GT ISZERO PUSH2 0x3338 JUMPI PUSH2 0x3338 PUSH2 0x3CA3 JUMP JUMPDEST EQ ISZERO DUP1 ISZERO PUSH2 0x3358 JUMPI POP PUSH1 0x6 DUP2 PUSH1 0x7 DUP2 GT ISZERO PUSH2 0x3355 JUMPI PUSH2 0x3355 PUSH2 0x3CA3 JUMP JUMPDEST EQ ISZERO JUMPDEST DUP1 ISZERO PUSH2 0x3376 JUMPI POP PUSH1 0x7 DUP2 PUSH1 0x7 DUP2 GT ISZERO PUSH2 0x3373 JUMPI PUSH2 0x3373 PUSH2 0x3CA3 JUMP JUMPDEST EQ ISZERO JUMPDEST PUSH2 0x33C2 JUMPI PUSH1 0x40 MLOAD PUSH3 0x461BCD PUSH1 0xE5 SHL DUP2 MSTORE PUSH1 0x20 PUSH1 0x4 DUP3 ADD MSTORE PUSH1 0x1D PUSH1 0x24 DUP3 ADD MSTORE PUSH32 0x476F7665726E6F723A2070726F706F73616C206E6F7420616374697665000000 PUSH1 0x44 DUP3 ADD MSTORE PUSH1 0x64 ADD PUSH2 0xE65 JUMP JUMPDEST PUSH1 0x0 DUP3 DUP2 MSTORE PUSH1 0x1 PUSH1 0x20 MSTORE PUSH1 0x40 SWAP1 DUP2 SWAP1 KECCAK256 PUSH1 0x2 ADD DUP1 SLOAD PUSH2 0xFF00 NOT AND PUSH2 0x100 OR SWAP1 SSTORE MLOAD PUSH32 0x789CF55BE980739DAD1D0699B93B58E806B51C9D96619BFA8FE0A28ABAA7B30C SWAP1 PUSH2 0x1C85 SWAP1 DUP5 DUP2 MSTORE PUSH1 0x20 ADD SWAP1 JUMP JUMPDEST PUSH1 0x60 DUP4 ISZERO PUSH2 0x3421 JUMPI POP DUP2 PUSH2 0x1642 JUMP JUMPDEST DUP3 MLOAD ISZERO PUSH2 0x3431 JUMPI DUP3 MLOAD DUP1 DUP5 PUSH1 0x20 ADD REVERT JUMPDEST DUP2 PUSH1 0x40 MLOAD PUSH3 0x461BCD PUSH1 0xE5 SHL DUP2 MSTORE PUSH1 0x4 ADD PUSH2 0xE65 SWAP2 SWAP1 PUSH2 0x3849 JUMP JUMPDEST DUP1 SELFBALANCE LT ISZERO PUSH2 0x349B JUMPI PUSH1 0x40 MLOAD PUSH3 0x461BCD PUSH1 0xE5 SHL DUP2 MSTORE PUSH1 0x20 PUSH1 0x4 DUP3 ADD MSTORE PUSH1 0x1D PUSH1 0x24 DUP3 ADD MSTORE PUSH32 0x416464726573733A20696E73756666696369656E742062616C616E6365000000 PUSH1 0x44 DUP3 ADD MSTORE PUSH1 0x64 ADD PUSH2 0xE65 JUMP JUMPDEST PUSH1 0x0 DUP3 PUSH1 0x1 PUSH1 0x1 PUSH1 0xA0 SHL SUB AND DUP3 PUSH1 0x40 MLOAD PUSH1 0x0 PUSH1 0x40 MLOAD DUP1 DUP4 SUB DUP2 DUP6 DUP8 GAS CALL SWAP3 POP POP POP RETURNDATASIZE DUP1 PUSH1 0x0 DUP2 EQ PUSH2 0x34E8 JUMPI PUSH1 0x40 MLOAD SWAP2 POP PUSH1 0x1F NOT PUSH1 0x3F RETURNDATASIZE ADD AND DUP3 ADD PUSH1 0x40 MSTORE RETURNDATASIZE DUP3 MSTORE RETURNDATASIZE PUSH1 0x0 PUSH1 0x20 DUP5 ADD RETURNDATACOPY PUSH2 0x34ED JUMP JUMPDEST PUSH1 0x60 SWAP2 POP JUMPDEST POP POP SWAP1 POP DUP1 PUSH2 0x10D7 JUMPI PUSH1 0x40 MLOAD PUSH3 0x461BCD PUSH1 0xE5 SHL DUP2 MSTORE PUSH1 0x20 PUSH1 0x4 DUP3 ADD MSTORE PUSH1 0x3A PUSH1 0x24 DUP3 ADD MSTORE PUSH32 0x416464726573733A20756E61626C6520746F2073656E642076616C75652C2072 PUSH1 0x44 DUP3 ADD MSTORE PUSH32 0x6563697069656E74206D61792068617665207265766572746564000000000000 PUSH1 0x64 DUP3 ADD MSTORE PUSH1 0x84 ADD PUSH2 0xE65 JUMP JUMPDEST DUP3 DUP1 SLOAD DUP3 DUP3 SSTORE SWAP1 PUSH1 0x0 MSTORE PUSH1 0x20 PUSH1 0x0 KECCAK256 SWAP1 DUP2 ADD SWAP3 DUP3 ISZERO PUSH2 0x35B9 JUMPI SWAP2 PUSH1 0x20 MUL DUP3 ADD JUMPDEST DUP3 DUP2 GT ISZERO PUSH2 0x35B9 JUMPI DUP3 MLOAD DUP3 SLOAD PUSH1 0x1 PUSH1 0x1 PUSH1 0xA0 SHL SUB NOT AND PUSH1 0x1 PUSH1 0x1 PUSH1 0xA0 SHL SUB SWAP1 SWAP2 AND OR DUP3 SSTORE PUSH1 0x20 SWAP1 SWAP3 ADD SWAP2 PUSH1 0x1 SWAP1 SWAP2 ADD SWAP1 PUSH2 0x3584 JUMP JUMPDEST POP PUSH2 0x2548 SWAP3 SWAP2 POP PUSH2 0x36B2 JUMP JUMPDEST DUP3 DUP1 SLOAD DUP3 DUP3 SSTORE SWAP1 PUSH1 0x0 MSTORE PUSH1 0x20 PUSH1 0x0 KECCAK256 SWAP1 DUP2 ADD SWAP3 DUP3 ISZERO PUSH2 0x35B9 JUMPI SWAP2 PUSH1 0x20 MUL DUP3 ADD JUMPDEST DUP3 DUP2 GT ISZERO PUSH2 0x35B9 JUMPI DUP3 MLOAD DUP3 SSTORE SWAP2 PUSH1 0x20 ADD SWAP2 SWAP1 PUSH1 0x1 ADD SWAP1 PUSH2 0x35E5 JUMP JUMPDEST DUP3 DUP1 SLOAD DUP3 DUP3 SSTORE SWAP1 PUSH1 0x0 MSTORE PUSH1 0x20 PUSH1 0x0 KECCAK256 SWAP1 DUP2 ADD SWAP3 DUP3 ISZERO PUSH2 0x364D JUMPI SWAP2 PUSH1 0x20 MUL DUP3 ADD JUMPDEST DUP3 DUP2 GT ISZERO PUSH2 0x364D JUMPI DUP3 MLOAD DUP1 MLOAD PUSH2 0x363D SWAP2 DUP5 SWAP2 PUSH1 0x20 SWAP1 SWAP2 ADD SWAP1 PUSH2 0x36C7 JUMP JUMPDEST POP SWAP2 PUSH1 0x20 ADD SWAP2 SWAP1 PUSH1 0x1 ADD SWAP1 PUSH2 0x3620 JUMP JUMPDEST POP PUSH2 0x2548 SWAP3 SWAP2 POP PUSH2 0x373A JUMP JUMPDEST DUP3 DUP1 SLOAD DUP3 DUP3 SSTORE SWAP1 PUSH1 0x0 MSTORE PUSH1 0x20 PUSH1 0x0 KECCAK256 SWAP1 DUP2 ADD SWAP3 DUP3 ISZERO PUSH2 0x36A6 JUMPI SWAP2 PUSH1 0x20 MUL DUP3 ADD JUMPDEST DUP3 DUP2 GT ISZERO PUSH2 0x36A6 JUMPI DUP3 MLOAD DUP1 MLOAD PUSH2 0x3696 SWAP2 DUP5 SWAP2 PUSH1 0x20 SWAP1 SWAP2 ADD SWAP1 PUSH2 0x36C7 JUMP JUMPDEST POP SWAP2 PUSH1 0x20 ADD SWAP2 SWAP1 PUSH1 0x1 ADD SWAP1 PUSH2 0x3679 JUMP JUMPDEST POP PUSH2 0x2548 SWAP3 SWAP2 POP PUSH2 0x3757 JUMP JUMPDEST JUMPDEST DUP1 DUP3 GT ISZERO PUSH2 0x2548 JUMPI PUSH1 0x0 DUP2 SSTORE PUSH1 0x1 ADD PUSH2 0x36B3 JUMP JUMPDEST DUP3 DUP1 SLOAD PUSH2 0x36D3 SWAP1 PUSH2 0x4086 JUMP JUMPDEST SWAP1 PUSH1 0x0 MSTORE PUSH1 0x20 PUSH1 0x0 KECCAK256 SWAP1 PUSH1 0x1F ADD PUSH1 0x20 SWAP1 DIV DUP2 ADD SWAP3 DUP3 PUSH2 0x36F5 JUMPI PUSH1 0x0 DUP6 SSTORE PUSH2 0x35B9 JUMP JUMPDEST DUP3 PUSH1 0x1F LT PUSH2 0x370E JUMPI DUP1 MLOAD PUSH1 0xFF NOT AND DUP4 DUP1 ADD OR DUP6 SSTORE PUSH2 0x35B9 JUMP JUMPDEST DUP3 DUP1 ADD PUSH1 0x1 ADD DUP6 SSTORE DUP3 ISZERO PUSH2 0x35B9 JUMPI SWAP2 DUP3 ADD DUP3 DUP2 GT ISZERO PUSH2 0x35B9 JUMPI DUP3 MLOAD DUP3 SSTORE SWAP2 PUSH1 0x20 ADD SWAP2 SWAP1 PUSH1 0x1 ADD SWAP1 PUSH2 0x35E5 JUMP JUMPDEST DUP1 DUP3 GT ISZERO PUSH2 0x2548 JUMPI PUSH1 0x0 PUSH2 0x374E DUP3 DUP3 PUSH2 0x3774 JUMP JUMPDEST POP PUSH1 0x1 ADD PUSH2 0x373A JUMP JUMPDEST DUP1 DUP3 GT ISZERO PUSH2 0x2548 JUMPI PUSH1 0x0 PUSH2 0x376B DUP3 DUP3 PUSH2 0x3774 JUMP JUMPDEST POP PUSH1 0x1 ADD PUSH2 0x3757 JUMP JUMPDEST POP DUP1 SLOAD PUSH2 0x3780 SWAP1 PUSH2 0x4086 JUMP JUMPDEST PUSH1 0x0 DUP3 SSTORE DUP1 PUSH1 0x1F LT PUSH2 0x3790 JUMPI POP POP JUMP JUMPDEST PUSH1 0x1F ADD PUSH1 0x20 SWAP1 DIV SWAP1 PUSH1 0x0 MSTORE PUSH1 0x20 PUSH1 0x0 KECCAK256 SWAP1 DUP2 ADD SWAP1 PUSH2 0x1154 SWAP2 SWAP1 PUSH2 0x36B2 JUMP JUMPDEST PUSH1 0x0 PUSH1 0x20 DUP3 DUP5 SUB SLT ISZERO PUSH2 0x37C0 JUMPI PUSH1 0x0 DUP1 REVERT JUMPDEST POP CALLDATALOAD SWAP2 SWAP1 POP JUMP JUMPDEST PUSH1 0x0 PUSH1 0x20 DUP3 DUP5 SUB SLT ISZERO PUSH2 0x37D9 JUMPI PUSH1 0x0 DUP1 REVERT JUMPDEST DUP2 CALLDATALOAD PUSH1 0x1 PUSH1 0x1 PUSH1 0xE0 SHL SUB NOT DUP2 AND DUP2 EQ PUSH2 0x1642 JUMPI PUSH1 0x0 DUP1 REVERT JUMPDEST PUSH1 0x0 JUMPDEST DUP4 DUP2 LT ISZERO PUSH2 0x380C JUMPI DUP2 DUP2 ADD MLOAD DUP4 DUP3 ADD MSTORE PUSH1 0x20 ADD PUSH2 0x37F4 JUMP JUMPDEST DUP4 DUP2 GT ISZERO PUSH2 0x1272 JUMPI POP POP PUSH1 0x0 SWAP2 ADD MSTORE JUMP JUMPDEST PUSH1 0x0 DUP2 MLOAD DUP1 DUP5 MSTORE PUSH2 0x3835 DUP2 PUSH1 0x20 DUP7 ADD PUSH1 0x20 DUP7 ADD PUSH2 0x37F1 JUMP JUMPDEST PUSH1 0x1F ADD PUSH1 0x1F NOT AND SWAP3 SWAP1 SWAP3 ADD PUSH1 0x20 ADD SWAP3 SWAP2 POP POP JUMP JUMPDEST PUSH1 0x20 DUP2 MSTORE PUSH1 0x0 PUSH2 0x1642 PUSH1 0x20 DUP4 ADD DUP5 PUSH2 0x381D JUMP JUMPDEST PUSH4 0x4E487B71 PUSH1 0xE0 SHL PUSH1 0x0 MSTORE PUSH1 0x41 PUSH1 0x4 MSTORE PUSH1 0x24 PUSH1 0x0 REVERT JUMPDEST PUSH1 0x40 MLOAD PUSH1 0x1F DUP3 ADD PUSH1 0x1F NOT AND DUP2 ADD PUSH1 0x1 PUSH1 0x1 PUSH1 0x40 SHL SUB DUP2 GT DUP3 DUP3 LT OR ISZERO PUSH2 0x389A JUMPI PUSH2 0x389A PUSH2 0x385C JUMP JUMPDEST PUSH1 0x40 MSTORE SWAP2 SWAP1 POP JUMP JUMPDEST PUSH1 0x0 PUSH1 0x1 PUSH1 0x1 PUSH1 0x40 SHL SUB DUP3 GT ISZERO PUSH2 0x38BB JUMPI PUSH2 0x38BB PUSH2 0x385C JUMP JUMPDEST POP PUSH1 0x5 SHL PUSH1 0x20 ADD SWAP1 JUMP JUMPDEST PUSH1 0x1 PUSH1 0x1 PUSH1 0xA0 SHL SUB DUP2 AND DUP2 EQ PUSH2 0x1154 JUMPI PUSH1 0x0 DUP1 REVERT JUMPDEST PUSH1 0x0 DUP3 PUSH1 0x1F DUP4 ADD SLT PUSH2 0x38EB JUMPI PUSH1 0x0 DUP1 REVERT JUMPDEST DUP2 CALLDATALOAD PUSH1 0x20 PUSH2 0x3900 PUSH2 0x38FB DUP4 PUSH2 0x38A2 JUMP JUMPDEST PUSH2 0x3872 JUMP JUMPDEST DUP3 DUP2 MSTORE PUSH1 0x5 SWAP3 SWAP1 SWAP3 SHL DUP5 ADD DUP2 ADD SWAP2 DUP2 DUP2 ADD SWAP1 DUP7 DUP5 GT ISZERO PUSH2 0x391F JUMPI PUSH1 0x0 DUP1 REVERT JUMPDEST DUP3 DUP7 ADD JUMPDEST DUP5 DUP2 LT ISZERO PUSH2 0x3943 JUMPI DUP1 CALLDATALOAD PUSH2 0x3936 DUP2 PUSH2 0x38C5 JUMP JUMPDEST DUP4 MSTORE SWAP2 DUP4 ADD SWAP2 DUP4 ADD PUSH2 0x3923 JUMP JUMPDEST POP SWAP7 SWAP6 POP POP POP POP POP POP JUMP JUMPDEST PUSH1 0x0 DUP3 PUSH1 0x1F DUP4 ADD SLT PUSH2 0x395F JUMPI PUSH1 0x0 DUP1 REVERT JUMPDEST DUP2 CALLDATALOAD PUSH1 0x20 PUSH2 0x396F PUSH2 0x38FB DUP4 PUSH2 0x38A2 JUMP JUMPDEST DUP3 DUP2 MSTORE PUSH1 0x5 SWAP3 SWAP1 SWAP3 SHL DUP5 ADD DUP2 ADD SWAP2 DUP2 DUP2 ADD SWAP1 DUP7 DUP5 GT ISZERO PUSH2 0x398E JUMPI PUSH1 0x0 DUP1 REVERT JUMPDEST DUP3 DUP7 ADD JUMPDEST DUP5 DUP2 LT ISZERO PUSH2 0x3943 JUMPI DUP1 CALLDATALOAD DUP4 MSTORE SWAP2 DUP4 ADD SWAP2 DUP4 ADD PUSH2 0x3992 JUMP JUMPDEST PUSH1 0x0 PUSH1 0x1 PUSH1 0x1 PUSH1 0x40 SHL SUB DUP3 GT ISZERO PUSH2 0x39C2 JUMPI PUSH2 0x39C2 PUSH2 0x385C JUMP JUMPDEST POP PUSH1 0x1F ADD PUSH1 0x1F NOT AND PUSH1 0x20 ADD SWAP1 JUMP JUMPDEST PUSH1 0x0 PUSH2 0x39DE PUSH2 0x38FB DUP5 PUSH2 0x39A9 JUMP JUMPDEST SWAP1 POP DUP3 DUP2 MSTORE DUP4 DUP4 DUP4 ADD GT ISZERO PUSH2 0x39F2 JUMPI PUSH1 0x0 DUP1 REVERT JUMPDEST DUP3 DUP3 PUSH1 0x20 DUP4 ADD CALLDATACOPY PUSH1 0x0 PUSH1 0x20 DUP5 DUP4 ADD ADD MSTORE SWAP4 SWAP3 POP POP POP JUMP JUMPDEST PUSH1 0x0 DUP3 PUSH1 0x1F DUP4 ADD SLT PUSH2 0x3A1A JUMPI PUSH1 0x0 DUP1 REVERT JUMPDEST DUP2 CALLDATALOAD PUSH1 0x20 PUSH2 0x3A2A PUSH2 0x38FB DUP4 PUSH2 0x38A2 JUMP JUMPDEST DUP3 DUP2 MSTORE PUSH1 0x5 SWAP3 SWAP1 SWAP3 SHL DUP5 ADD DUP2 ADD SWAP2 DUP2 DUP2 ADD SWAP1 DUP7 DUP5 GT ISZERO PUSH2 0x3A49 JUMPI PUSH1 0x0 DUP1 REVERT JUMPDEST DUP3 DUP7 ADD JUMPDEST DUP5 DUP2 LT ISZERO PUSH2 0x3943 JUMPI DUP1 CALLDATALOAD PUSH1 0x1 PUSH1 0x1 PUSH1 0x40 SHL SUB DUP2 GT ISZERO PUSH2 0x3A6C JUMPI PUSH1 0x0 DUP1 DUP2 REVERT JUMPDEST DUP8 ADD PUSH1 0x3F DUP2 ADD DUP10 SGT PUSH2 0x3A7E JUMPI PUSH1 0x0 DUP1 DUP2 REVERT JUMPDEST PUSH2 0x3A8F DUP10 DUP7 DUP4 ADD CALLDATALOAD PUSH1 0x40 DUP5 ADD PUSH2 0x39D0 JUMP JUMPDEST DUP5 MSTORE POP SWAP2 DUP4 ADD SWAP2 DUP4 ADD PUSH2 0x3A4D JUMP JUMPDEST PUSH1 0x0 DUP1 PUSH1 0x0 DUP1 PUSH1 0x80 DUP6 DUP8 SUB SLT ISZERO PUSH2 0x3AB3 JUMPI PUSH1 0x0 DUP1 REVERT JUMPDEST DUP5 CALLDATALOAD PUSH1 0x1 PUSH1 0x1 PUSH1 0x40 SHL SUB DUP1 DUP3 GT ISZERO PUSH2 0x3ACA JUMPI PUSH1 0x0 DUP1 REVERT JUMPDEST PUSH2 0x3AD6 DUP9 DUP4 DUP10 ADD PUSH2 0x38DA JUMP JUMPDEST SWAP6 POP PUSH1 0x20 DUP8 ADD CALLDATALOAD SWAP2 POP DUP1 DUP3 GT ISZERO PUSH2 0x3AEC JUMPI PUSH1 0x0 DUP1 REVERT JUMPDEST PUSH2 0x3AF8 DUP9 DUP4 DUP10 ADD PUSH2 0x394E JUMP JUMPDEST SWAP5 POP PUSH1 0x40 DUP8 ADD CALLDATALOAD SWAP2 POP DUP1 DUP3 GT ISZERO PUSH2 0x3B0E JUMPI PUSH1 0x0 DUP1 REVERT JUMPDEST POP PUSH2 0x3B1B DUP8 DUP3 DUP9 ADD PUSH2 0x3A09 JUMP JUMPDEST SWAP5 SWAP8 SWAP4 SWAP7 POP SWAP4 SWAP5 PUSH1 0x60 ADD CALLDATALOAD SWAP4 POP POP POP JUMP JUMPDEST PUSH1 0x0 DUP2 MLOAD DUP1 DUP5 MSTORE PUSH1 0x20 DUP1 DUP6 ADD SWAP5 POP DUP1 DUP5 ADD PUSH1 0x0 JUMPDEST DUP4 DUP2 LT ISZERO PUSH2 0x3B65 JUMPI DUP2 MLOAD PUSH1 0x1 PUSH1 0x1 PUSH1 0xA0 SHL SUB AND DUP8 MSTORE SWAP6 DUP3 ADD SWAP6 SWAP1 DUP3 ADD SWAP1 PUSH1 0x1 ADD PUSH2 0x3B40 JUMP JUMPDEST POP SWAP5 SWAP6 SWAP5 POP POP POP POP POP JUMP JUMPDEST PUSH1 0x0 DUP2 MLOAD DUP1 DUP5 MSTORE PUSH1 0x20 DUP1 DUP6 ADD SWAP5 POP DUP1 DUP5 ADD PUSH1 0x0 JUMPDEST DUP4 DUP2 LT ISZERO PUSH2 0x3B65 JUMPI DUP2 MLOAD DUP8 MSTORE SWAP6 DUP3 ADD SWAP6 SWAP1 DUP3 ADD SWAP1 PUSH1 0x1 ADD PUSH2 0x3B84 JUMP JUMPDEST PUSH1 0x0 DUP2 MLOAD DUP1 DUP5 MSTORE PUSH1 0x20 DUP1 DUP6 ADD SWAP5 POP DUP5 DUP3 PUSH1 0x5 SHL DUP7 ADD DUP3 DUP7 ADD PUSH1 0x0 JUMPDEST DUP6 DUP2 LT ISZERO PUSH2 0x3BE5 JUMPI DUP4 DUP4 SUB DUP10 MSTORE PUSH2 0x3BD3 DUP4 DUP4 MLOAD PUSH2 0x381D JUMP JUMPDEST SWAP9 DUP6 ADD SWAP9 SWAP3 POP SWAP1 DUP5 ADD SWAP1 PUSH1 0x1 ADD PUSH2 0x3BBB JUMP JUMPDEST POP SWAP1 SWAP8 SWAP7 POP POP POP POP POP POP POP JUMP JUMPDEST PUSH1 0x80 DUP2 MSTORE PUSH1 0x0 PUSH2 0x3C05 PUSH1 0x80 DUP4 ADD DUP8 PUSH2 0x3B2C JUMP JUMPDEST DUP3 DUP2 SUB PUSH1 0x20 DUP5 ADD MSTORE PUSH2 0x3C17 DUP2 DUP8 PUSH2 0x3B70 JUMP JUMPDEST SWAP1 POP DUP3 DUP2 SUB PUSH1 0x40 DUP5 ADD MSTORE PUSH2 0x3C2B DUP2 DUP7 PUSH2 0x3BA0 JUMP JUMPDEST SWAP1 POP DUP3 DUP2 SUB PUSH1 0x60 DUP5 ADD MSTORE PUSH2 0xDA9 DUP2 DUP6 PUSH2 0x3BA0 JUMP JUMPDEST DUP1 CALLDATALOAD PUSH1 0xFF DUP2 AND DUP2 EQ PUSH2 0x3C50 JUMPI PUSH1 0x0 DUP1 REVERT JUMPDEST SWAP2 SWAP1 POP JUMP JUMPDEST PUSH1 0x0 DUP1 PUSH1 0x0 DUP1 PUSH1 0x0 PUSH1 0xA0 DUP7 DUP9 SUB SLT ISZERO PUSH2 0x3C6D JUMPI PUSH1 0x0 DUP1 REVERT JUMPDEST DUP6 CALLDATALOAD SWAP5 POP PUSH2 0x3C7D PUSH1 0x20 DUP8 ADD PUSH2 0x3C3F JUMP JUMPDEST SWAP4 POP PUSH2 0x3C8B PUSH1 0x40 DUP8 ADD PUSH2 0x3C3F JUMP JUMPDEST SWAP5 SWAP8 SWAP4 SWAP7 POP SWAP4 SWAP5 PUSH1 0x60 DUP2 ADD CALLDATALOAD SWAP5 POP PUSH1 0x80 ADD CALLDATALOAD SWAP3 SWAP2 POP POP JUMP JUMPDEST PUSH4 0x4E487B71 PUSH1 0xE0 SHL PUSH1 0x0 MSTORE PUSH1 0x21 PUSH1 0x4 MSTORE PUSH1 0x24 PUSH1 0x0 REVERT JUMPDEST PUSH1 0x20 DUP2 ADD PUSH1 0x8 DUP4 LT PUSH2 0x3CDB JUMPI PUSH4 0x4E487B71 PUSH1 0xE0 SHL PUSH1 0x0 MSTORE PUSH1 0x21 PUSH1 0x4 MSTORE PUSH1 0x24 PUSH1 0x0 REVERT JUMPDEST SWAP2 SWAP1 MSTORE SWAP1 JUMP JUMPDEST PUSH1 0x0 DUP1 PUSH1 0x40 DUP4 DUP6 SUB SLT ISZERO PUSH2 0x3CF4 JUMPI PUSH1 0x0 DUP1 REVERT JUMPDEST DUP3 CALLDATALOAD SWAP2 POP PUSH1 0x20 DUP4 ADD CALLDATALOAD PUSH2 0x3D06 DUP2 PUSH2 0x38C5 JUMP JUMPDEST DUP1 SWAP2 POP POP SWAP3 POP SWAP3 SWAP1 POP JUMP JUMPDEST PUSH1 0x0 DUP1 PUSH1 0x40 DUP4 DUP6 SUB SLT ISZERO PUSH2 0x3D24 JUMPI PUSH1 0x0 DUP1 REVERT JUMPDEST DUP3 CALLDATALOAD SWAP2 POP PUSH2 0x3D34 PUSH1 0x20 DUP5 ADD PUSH2 0x3C3F JUMP JUMPDEST SWAP1 POP SWAP3 POP SWAP3 SWAP1 POP JUMP JUMPDEST PUSH1 0x0 DUP1 DUP4 PUSH1 0x1F DUP5 ADD SLT PUSH2 0x3D4F JUMPI PUSH1 0x0 DUP1 REVERT JUMPDEST POP DUP2 CALLDATALOAD PUSH1 0x1 PUSH1 0x1 PUSH1 0x40 SHL SUB DUP2 GT ISZERO PUSH2 0x3D66 JUMPI PUSH1 0x0 DUP1 REVERT JUMPDEST PUSH1 0x20 DUP4 ADD SWAP2 POP DUP4 PUSH1 0x20 DUP3 DUP6 ADD ADD GT ISZERO PUSH2 0x3D7E JUMPI PUSH1 0x0 DUP1 REVERT JUMPDEST SWAP3 POP SWAP3 SWAP1 POP JUMP JUMPDEST PUSH1 0x0 DUP1 PUSH1 0x0 DUP1 PUSH1 0x60 DUP6 DUP8 SUB SLT ISZERO PUSH2 0x3D9B JUMPI PUSH1 0x0 DUP1 REVERT JUMPDEST DUP5 CALLDATALOAD SWAP4 POP PUSH2 0x3DAB PUSH1 0x20 DUP7 ADD PUSH2 0x3C3F JUMP JUMPDEST SWAP3 POP PUSH1 0x40 DUP6 ADD CALLDATALOAD PUSH1 0x1 PUSH1 0x1 PUSH1 0x40 SHL SUB DUP2 GT ISZERO PUSH2 0x3DC6 JUMPI PUSH1 0x0 DUP1 REVERT JUMPDEST PUSH2 0x3DD2 DUP8 DUP3 DUP9 ADD PUSH2 0x3D3D JUMP JUMPDEST SWAP6 SWAP9 SWAP5 SWAP8 POP SWAP6 POP POP POP POP JUMP JUMPDEST PUSH1 0x0 DUP3 PUSH1 0x1F DUP4 ADD SLT PUSH2 0x3DEF JUMPI PUSH1 0x0 DUP1 REVERT JUMPDEST PUSH2 0x1642 DUP4 DUP4 CALLDATALOAD PUSH1 0x20 DUP6 ADD PUSH2 0x39D0 JUMP JUMPDEST PUSH1 0x0 DUP1 PUSH1 0x0 DUP1 PUSH1 0x80 DUP6 DUP8 SUB SLT ISZERO PUSH2 0x3E14 JUMPI PUSH1 0x0 DUP1 REVERT JUMPDEST DUP5 CALLDATALOAD PUSH1 0x1 PUSH1 0x1 PUSH1 0x40 SHL SUB DUP1 DUP3 GT ISZERO PUSH2 0x3E2B JUMPI PUSH1 0x0 DUP1 REVERT JUMPDEST PUSH2 0x3E37 DUP9 DUP4 DUP10 ADD PUSH2 0x38DA JUMP JUMPDEST SWAP6 POP PUSH1 0x20 DUP8 ADD CALLDATALOAD SWAP2 POP DUP1 DUP3 GT ISZERO PUSH2 0x3E4D JUMPI PUSH1 0x0 DUP1 REVERT JUMPDEST PUSH2 0x3E59 DUP9 DUP4 DUP10 ADD PUSH2 0x394E JUMP JUMPDEST SWAP5 POP PUSH1 0x40 DUP8 ADD CALLDATALOAD SWAP2 POP DUP1 DUP3 GT ISZERO PUSH2 0x3E6F JUMPI PUSH1 0x0 DUP1 REVERT JUMPDEST PUSH2 0x3E7B DUP9 DUP4 DUP10 ADD PUSH2 0x3A09 JUMP JUMPDEST SWAP4 POP PUSH1 0x60 DUP8 ADD CALLDATALOAD SWAP2 POP DUP1 DUP3 GT ISZERO PUSH2 0x3E91 JUMPI PUSH1 0x0 DUP1 REVERT JUMPDEST POP PUSH2 0x3E9E DUP8 DUP3 DUP9 ADD PUSH2 0x3DDE JUMP JUMPDEST SWAP2 POP POP SWAP3 SWAP6 SWAP2 SWAP5 POP SWAP3 POP JUMP JUMPDEST PUSH1 0x0 PUSH1 0x20 DUP3 DUP5 SUB SLT ISZERO PUSH2 0x3EBC JUMPI PUSH1 0x0 DUP1 REVERT JUMPDEST DUP2 CALLDATALOAD PUSH2 0x1642 DUP2 PUSH2 0x38C5 JUMP JUMPDEST PUSH1 0x0 DUP1 PUSH1 0x0 DUP1 PUSH1 0x60 DUP6 DUP8 SUB SLT ISZERO PUSH2 0x3EDD JUMPI PUSH1 0x0 DUP1 REVERT JUMPDEST DUP5 CALLDATALOAD PUSH2 0x3EE8 DUP2 PUSH2 0x38C5 JUMP JUMPDEST SWAP4 POP PUSH1 0x20 DUP6 ADD CALLDATALOAD SWAP3 POP PUSH1 0x40 DUP6 ADD CALLDATALOAD PUSH1 0x1 PUSH1 0x1 PUSH1 0x40 SHL SUB DUP2 GT ISZERO PUSH2 0x3DC6 JUMPI PUSH1 0x0 DUP1 REVERT JUMPDEST PUSH1 0x0 DUP3 PUSH1 0x1F DUP4 ADD SLT PUSH2 0x3F1B JUMPI PUSH1 0x0 DUP1 REVERT JUMPDEST DUP2 CALLDATALOAD PUSH1 0x20 PUSH2 0x3F2B PUSH2 0x38FB DUP4 PUSH2 0x38A2 JUMP JUMPDEST DUP3 DUP2 MSTORE PUSH1 0x5 SWAP3 SWAP1 SWAP3 SHL DUP5 ADD DUP2 ADD SWAP2 DUP2 DUP2 ADD SWAP1 DUP7 DUP5 GT ISZERO PUSH2 0x3F4A JUMPI PUSH1 0x0 DUP1 REVERT JUMPDEST DUP3 DUP7 ADD JUMPDEST DUP5 DUP2 LT ISZERO PUSH2 0x3943 JUMPI DUP1 CALLDATALOAD PUSH1 0x1 PUSH1 0x1 PUSH1 0x40 SHL SUB DUP2 GT ISZERO PUSH2 0x3F6D JUMPI PUSH1 0x0 DUP1 DUP2 REVERT JUMPDEST PUSH2 0x3F7B DUP10 DUP7 DUP4 DUP12 ADD ADD PUSH2 0x3DDE JUMP JUMPDEST DUP5 MSTORE POP SWAP2 DUP4 ADD SWAP2 DUP4 ADD PUSH2 0x3F4E JUMP JUMPDEST PUSH1 0x0 DUP1 PUSH1 0x0 DUP1 PUSH1 0x0 PUSH1 0xA0 DUP7 DUP9 SUB SLT ISZERO PUSH2 0x3FA1 JUMPI PUSH1 0x0 DUP1 REVERT JUMPDEST DUP6 CALLDATALOAD PUSH1 0x1 PUSH1 0x1 PUSH1 0x40 SHL SUB DUP1 DUP3 GT ISZERO PUSH2 0x3FB8 JUMPI PUSH1 0x0 DUP1 REVERT JUMPDEST PUSH2 0x3FC4 DUP10 DUP4 DUP11 ADD PUSH2 0x38DA JUMP JUMPDEST SWAP7 POP PUSH1 0x20 DUP9 ADD CALLDATALOAD SWAP2 POP DUP1 DUP3 GT ISZERO PUSH2 0x3FDA JUMPI PUSH1 0x0 DUP1 REVERT JUMPDEST PUSH2 0x3FE6 DUP10 DUP4 DUP11 ADD PUSH2 0x394E JUMP JUMPDEST SWAP6 POP PUSH1 0x40 DUP9 ADD CALLDATALOAD SWAP2 POP DUP1 DUP3 GT ISZERO PUSH2 0x3FFC JUMPI PUSH1 0x0 DUP1 REVERT JUMPDEST PUSH2 0x4008 DUP10 DUP4 DUP11 ADD PUSH2 0x3F0A JUMP JUMPDEST SWAP5 POP PUSH1 0x60 DUP9 ADD CALLDATALOAD SWAP2 POP DUP1 DUP3 GT ISZERO PUSH2 0x401E JUMPI PUSH1 0x0 DUP1 REVERT JUMPDEST PUSH2 0x402A DUP10 DUP4 DUP11 ADD PUSH2 0x3A09 JUMP JUMPDEST SWAP4 POP PUSH1 0x80 DUP9 ADD CALLDATALOAD SWAP2 POP DUP1 DUP3 GT ISZERO PUSH2 0x4040 JUMPI PUSH1 0x0 DUP1 REVERT JUMPDEST POP PUSH2 0x404D DUP9 DUP3 DUP10 ADD PUSH2 0x3DDE JUMP JUMPDEST SWAP2 POP POP SWAP3 SWAP6 POP SWAP3 SWAP6 SWAP1 SWAP4 POP JUMP JUMPDEST PUSH1 0x0 DUP1 PUSH1 0x40 DUP4 DUP6 SUB SLT ISZERO PUSH2 0x406D JUMPI PUSH1 0x0 DUP1 REVERT JUMPDEST DUP3 CALLDATALOAD PUSH2 0x4078 DUP2 PUSH2 0x38C5 JUMP JUMPDEST SWAP5 PUSH1 0x20 SWAP4 SWAP1 SWAP4 ADD CALLDATALOAD SWAP4 POP POP POP JUMP JUMPDEST PUSH1 0x1 DUP2 DUP2 SHR SWAP1 DUP3 AND DUP1 PUSH2 0x409A JUMPI PUSH1 0x7F DUP3 AND SWAP2 POP JUMPDEST PUSH1 0x20 DUP3 LT DUP2 EQ ISZERO PUSH2 0x40BB JUMPI PUSH4 0x4E487B71 PUSH1 0xE0 SHL PUSH1 0x0 MSTORE PUSH1 0x22 PUSH1 0x4 MSTORE PUSH1 0x24 PUSH1 0x0 REVERT JUMPDEST POP SWAP2 SWAP1 POP JUMP JUMPDEST PUSH4 0x4E487B71 PUSH1 0xE0 SHL PUSH1 0x0 MSTORE PUSH1 0x11 PUSH1 0x4 MSTORE PUSH1 0x24 PUSH1 0x0 REVERT JUMPDEST PUSH1 0x0 DUP3 DUP3 LT ISZERO PUSH2 0x40E9 JUMPI PUSH2 0x40E9 PUSH2 0x40C1 JUMP JUMPDEST POP SUB SWAP1 JUMP JUMPDEST PUSH1 0x20 DUP1 DUP3 MSTORE PUSH1 0x18 SWAP1 DUP3 ADD MSTORE PUSH32 0x476F7665726E6F723A206F6E6C79476F7665726E616E63650000000000000000 PUSH1 0x40 DUP3 ADD MSTORE PUSH1 0x60 ADD SWAP1 JUMP JUMPDEST PUSH1 0x80 DUP2 MSTORE PUSH1 0x0 PUSH2 0x4138 PUSH1 0x80 DUP4 ADD DUP8 PUSH2 0x3B2C JUMP JUMPDEST DUP3 DUP2 SUB PUSH1 0x20 DUP5 ADD MSTORE PUSH2 0x414A DUP2 DUP8 PUSH2 0x3B70 JUMP JUMPDEST SWAP1 POP DUP3 DUP2 SUB PUSH1 0x40 DUP5 ADD MSTORE PUSH2 0x415E DUP2 DUP7 PUSH2 0x3BA0 JUMP JUMPDEST SWAP2 POP POP DUP3 PUSH1 0x60 DUP4 ADD MSTORE SWAP6 SWAP5 POP POP POP POP POP JUMP JUMPDEST PUSH1 0x20 DUP1 DUP3 MSTORE PUSH1 0x21 SWAP1 DUP3 ADD MSTORE PUSH32 0x476F7665726E6F723A2070726F706F73616C206E6F7420737563636573736675 PUSH1 0x40 DUP3 ADD MSTORE PUSH1 0x1B PUSH1 0xFA SHL PUSH1 0x60 DUP3 ADD MSTORE PUSH1 0x80 ADD SWAP1 JUMP JUMPDEST PUSH1 0x0 PUSH1 0x20 DUP3 DUP5 SUB SLT ISZERO PUSH2 0x41C3 JUMPI PUSH1 0x0 DUP1 REVERT JUMPDEST POP MLOAD SWAP2 SWAP1 POP JUMP JUMPDEST PUSH1 0x0 DUP3 NOT DUP3 GT ISZERO PUSH2 0x41DD JUMPI PUSH2 0x41DD PUSH2 0x40C1 JUMP JUMPDEST POP ADD SWAP1 JUMP JUMPDEST PUSH4 0x4E487B71 PUSH1 0xE0 SHL PUSH1 0x0 MSTORE PUSH1 0x32 PUSH1 0x4 MSTORE PUSH1 0x24 PUSH1 0x0 REVERT JUMPDEST PUSH1 0x1 DUP1 PUSH1 0xA0 SHL SUB DUP6 AND DUP2 MSTORE DUP4 PUSH1 0x20 DUP3 ADD MSTORE PUSH1 0xA0 PUSH1 0x40 DUP3 ADD MSTORE PUSH1 0x0 PUSH1 0xA0 DUP3 ADD MSTORE PUSH1 0xC0 PUSH1 0x60 DUP3 ADD MSTORE PUSH1 0x0 PUSH2 0x422D PUSH1 0xC0 DUP4 ADD DUP6 PUSH2 0x381D JUMP JUMPDEST SWAP1 POP DUP3 PUSH1 0x80 DUP4 ADD MSTORE SWAP6 SWAP5 POP POP POP POP POP JUMP JUMPDEST PUSH1 0x0 PUSH1 0x20 DUP3 DUP5 SUB SLT ISZERO PUSH2 0x4250 JUMPI PUSH1 0x0 DUP1 REVERT JUMPDEST DUP2 MLOAD DUP1 ISZERO ISZERO DUP2 EQ PUSH2 0x1642 JUMPI PUSH1 0x0 DUP1 REVERT JUMPDEST PUSH1 0x0 PUSH1 0x0 NOT DUP3 EQ ISZERO PUSH2 0x4274 JUMPI PUSH2 0x4274 PUSH2 0x40C1 JUMP JUMPDEST POP PUSH1 0x1 ADD SWAP1 JUMP JUMPDEST DUP5 DUP2 MSTORE PUSH1 0xFF DUP5 AND PUSH1 0x20 DUP3 ADD MSTORE DUP3 PUSH1 0x40 DUP3 ADD MSTORE PUSH1 0x80 PUSH1 0x60 DUP3 ADD MSTORE PUSH1 0x0 PUSH2 0x119F PUSH1 0x80 DUP4 ADD DUP5 PUSH2 0x381D JUMP JUMPDEST PUSH1 0x1 PUSH1 0x1 PUSH1 0xE0 SHL SUB NOT DUP4 AND DUP2 MSTORE DUP2 MLOAD PUSH1 0x0 SWAP1 PUSH2 0x42C6 DUP2 PUSH1 0x4 DUP6 ADD PUSH1 0x20 DUP8 ADD PUSH2 0x37F1 JUMP JUMPDEST SWAP2 SWAP1 SWAP2 ADD PUSH1 0x4 ADD SWAP4 SWAP3 POP POP POP JUMP JUMPDEST PUSH1 0x0 PUSH1 0x20 DUP3 DUP5 SUB SLT ISZERO PUSH2 0x42E6 JUMPI PUSH1 0x0 DUP1 REVERT JUMPDEST DUP2 MLOAD PUSH1 0x1 PUSH1 0x1 PUSH1 0x60 SHL SUB DUP2 AND DUP2 EQ PUSH2 0x1642 JUMPI PUSH1 0x0 DUP1 REVERT JUMPDEST PUSH1 0x20 DUP1 DUP3 MSTORE PUSH1 0x21 SWAP1 DUP3 ADD MSTORE PUSH32 0x476F7665726E6F723A20696E76616C69642070726F706F73616C206C656E6774 PUSH1 0x40 DUP3 ADD MSTORE PUSH1 0xD PUSH1 0xFB SHL PUSH1 0x60 DUP3 ADD MSTORE PUSH1 0x80 ADD SWAP1 JUMP JUMPDEST PUSH1 0x0 PUSH1 0x1 PUSH1 0x1 PUSH1 0x40 SHL SUB DUP1 DUP4 AND DUP2 DUP6 AND DUP1 DUP4 SUB DUP3 GT ISZERO PUSH2 0x4360 JUMPI PUSH2 0x4360 PUSH2 0x40C1 JUMP JUMPDEST ADD SWAP5 SWAP4 POP POP POP POP JUMP JUMPDEST DUP10 DUP2 MSTORE PUSH1 0x1 PUSH1 0x1 PUSH1 0xA0 SHL SUB DUP10 AND PUSH1 0x20 DUP3 ADD MSTORE PUSH2 0x120 PUSH1 0x40 DUP3 ADD DUP2 SWAP1 MSTORE PUSH1 0x0 SWAP1 PUSH2 0x4394 DUP4 DUP3 ADD DUP12 PUSH2 0x3B2C JUMP JUMPDEST SWAP1 POP DUP3 DUP2 SUB PUSH1 0x60 DUP5 ADD MSTORE PUSH2 0x43A8 DUP2 DUP11 PUSH2 0x3B70 JUMP JUMPDEST SWAP1 POP DUP3 DUP2 SUB PUSH1 0x80 DUP5 ADD MSTORE PUSH2 0x43BC DUP2 DUP10 PUSH2 0x3BA0 JUMP JUMPDEST SWAP1 POP DUP3 DUP2 SUB PUSH1 0xA0 DUP5 ADD MSTORE PUSH2 0x43D0 DUP2 DUP9 PUSH2 0x3BA0 JUMP JUMPDEST PUSH1 0x1 PUSH1 0x1 PUSH1 0x40 SHL SUB DUP8 DUP2 AND PUSH1 0xC0 DUP7 ADD MSTORE DUP7 AND PUSH1 0xE0 DUP6 ADD MSTORE DUP4 DUP2 SUB PUSH2 0x100 DUP6 ADD MSTORE SWAP1 POP PUSH2 0x43FC DUP2 DUP6 PUSH2 0x381D JUMP JUMPDEST SWAP13 SWAP12 POP POP POP POP POP POP POP POP POP POP POP POP JUMP JUMPDEST PUSH1 0x0 DUP3 MLOAD PUSH2 0x441E DUP2 DUP5 PUSH1 0x20 DUP8 ADD PUSH2 0x37F1 JUMP JUMPDEST SWAP2 SWAP1 SWAP2 ADD SWAP3 SWAP2 POP POP JUMP JUMPDEST PUSH1 0x0 PUSH1 0x20 DUP3 DUP5 SUB SLT ISZERO PUSH2 0x443A JUMPI PUSH1 0x0 DUP1 REVERT JUMPDEST DUP2 MLOAD PUSH1 0x1 PUSH1 0x1 PUSH1 0x40 SHL SUB DUP2 GT ISZERO PUSH2 0x4450 JUMPI PUSH1 0x0 DUP1 REVERT JUMPDEST DUP3 ADD PUSH1 0x1F DUP2 ADD DUP5 SGT PUSH2 0x4461 JUMPI PUSH1 0x0 DUP1 REVERT JUMPDEST DUP1 MLOAD PUSH2 0x446F PUSH2 0x38FB DUP3 PUSH2 0x39A9 JUMP JUMPDEST DUP2 DUP2 MSTORE DUP6 PUSH1 0x20 DUP4 DUP6 ADD ADD GT ISZERO PUSH2 0x4484 JUMPI PUSH1 0x0 DUP1 REVERT JUMPDEST PUSH2 0xA31 DUP3 PUSH1 0x20 DUP4 ADD PUSH1 0x20 DUP7 ADD PUSH2 0x37F1 JUMP INVALID COINBASE PUSH5 0x6472657373 GASPRICE KECCAK256 PUSH13 0x6F772D6C6576656C2063616C6C KECCAK256 PUSH24 0x6974682076616C7565206661696C6564A264697066735822 SLT KECCAK256 PUSH26 0xA9DF1CCA88ECB837E1738CAC98D5250E1C3D7FCBE6B8A7E592F6 SGT PUSH22 0xFC32F864736F6C634300080C00330000000000000000 ",
  "sha1": "4234fc29219f78cbbcd42adcafb8c01c2b34a445",
  "source": "// SPDX-License-Identifier: MIT\n\npragma solidity ^0.8.0;\n\nimport \"../governance/compatibility/GovernorCompatibilityBravo.sol\";\nimport \"../governance/extensions/GovernorTimelockCompound.sol\";\nimport \"../governance/extensions/GovernorSettings.sol\";\nimport \"../governance/extensions/GovernorVotesComp.sol\";\n\ncontract GovernorCompatibilityBravoMock is\n    GovernorCompatibilityBravo,\n    GovernorSettings,\n    GovernorTimelockCompound,\n    GovernorVotesComp\n{\n    constructor(\n        string memory name_,\n        ERC20VotesComp token_,\n        uint256 votingDelay_,\n        uint256 votingPeriod_,\n        uint256 proposalThreshold_,\n        ICompoundTimelock timelock_\n    )\n        Governor(name_)\n        GovernorTimelockCompound(timelock_)\n        GovernorSettings(votingDelay_, votingPeriod_, proposalThreshold_)\n        GovernorVotesComp(token_)\n    {}\n\n    function supportsInterface(bytes4 interfaceId)\n        public\n        view\n        virtual\n        override(IERC165, Governor, GovernorTimelockCompound)\n        returns (bool)\n    {\n        return super.supportsInterface(interfaceId);\n    }\n\n    function quorum(uint256) public pure override returns (uint256) {\n        return 0;\n    }\n\n    function state(uint256 proposalId)\n        public\n        view\n        virtual\n        override(IGovernor, Governor, GovernorTimelockCompound)\n        returns (ProposalState)\n    {\n        return super.state(proposalId);\n    }\n\n    function proposalEta(uint256 proposalId)\n        public\n        view\n        virtual\n        override(IGovernorTimelock, GovernorTimelockCompound)\n        returns (uint256)\n    {\n        return super.proposalEta(proposalId);\n    }\n\n    function proposalThreshold() public view override(Governor, GovernorSettings) returns (uint256) {\n        return super.proposalThreshold();\n    }\n\n    function propose(\n        address[] memory targets,\n        uint256[] memory values,\n        bytes[] memory calldatas,\n        string memory description\n    ) public virtual override(IGovernor, Governor, GovernorCompatibilityBravo) returns (uint256) {\n        return super.propose(targets, values, calldatas, description);\n    }\n\n    function queue(\n        address[] memory targets,\n        uint256[] memory values,\n        bytes[] memory calldatas,\n        bytes32 salt\n    ) public virtual override(IGovernorTimelock, GovernorTimelockCompound) returns (uint256) {\n        return super.queue(targets, values, calldatas, salt);\n    }\n\n    function execute(\n        address[] memory targets,\n        uint256[] memory values,\n        bytes[] memory calldatas,\n        bytes32 salt\n    ) public payable virtual override(IGovernor, Governor) returns (uint256) {\n        return super.execute(targets, values, calldatas, salt);\n    }\n\n    function _execute(\n        uint256 proposalId,\n        address[] memory targets,\n        uint256[] memory values,\n        bytes[] memory calldatas,\n        bytes32 descriptionHash\n    ) internal virtual override(Governor, GovernorTimelockCompound) {\n        super._execute(proposalId, targets, values, calldatas, descriptionHash);\n    }\n\n    /**\n     * @notice WARNING: this is for mock purposes only. Ability to the _cancel function should be restricted for live\n     * deployments.\n     */\n    function cancel(\n        address[] memory targets,\n        uint256[] memory values,\n        bytes[] memory calldatas,\n        bytes32 salt\n    ) public returns (uint256 proposalId) {\n        return _cancel(targets, values, calldatas, salt);\n    }\n\n    function _cancel(\n        address[] memory targets,\n        uint256[] memory values,\n        bytes[] memory calldatas,\n        bytes32 salt\n    ) internal virtual override(Governor, GovernorTimelockCompound) returns (uint256 proposalId) {\n        return super._cancel(targets, values, calldatas, salt);\n    }\n\n    function getVotes(address account, uint256 blockNumber)\n        public\n        view\n        virtual\n        override(IGovernor, GovernorVotesComp)\n        returns (uint256)\n    {\n        return super.getVotes(account, blockNumber);\n    }\n\n    function _executor() internal view virtual override(Governor, GovernorTimelockCompound) returns (address) {\n        return super._executor();\n    }\n}\n",
  "sourcePath": "contracts/openzeppelin/contracts/mocks/GovernorCompatibilityBravoMock.sol",
  "type": "contract"
}