{
  "abi": [
    {
      "inputs": [
        {
          "internalType": "string",
          "name": "name_",
          "type": "string"
        },
        {
          "internalType": "contract ERC20VotesComp",
          "name": "token_",
          "type": "address"
        }
      ],
      "stateMutability": "nonpayable",
      "type": "constructor"
    },
    {
      "anonymous": false,
      "inputs": [
        {
          "indexed": false,
          "internalType": "uint256",
          "name": "proposalId",
          "type": "uint256"
        }
      ],
      "name": "ProposalCanceled",
      "type": "event"
    },
    {
      "anonymous": false,
      "inputs": [
        {
          "indexed": false,
          "internalType": "uint256",
          "name": "proposalId",
          "type": "uint256"
        },
        {
          "indexed": false,
          "internalType": "address",
          "name": "proposer",
          "type": "address"
        },
        {
          "indexed": false,
          "internalType": "address[]",
          "name": "targets",
          "type": "address[]"
        },
        {
          "indexed": false,
          "internalType": "uint256[]",
          "name": "values",
          "type": "uint256[]"
        },
        {
          "indexed": false,
          "internalType": "string[]",
          "name": "signatures",
          "type": "string[]"
        },
        {
          "indexed": false,
          "internalType": "bytes[]",
          "name": "calldatas",
          "type": "bytes[]"
        },
        {
          "indexed": false,
          "internalType": "uint256",
          "name": "startBlock",
          "type": "uint256"
        },
        {
          "indexed": false,
          "internalType": "uint256",
          "name": "endBlock",
          "type": "uint256"
        },
        {
          "indexed": false,
          "internalType": "string",
          "name": "description",
          "type": "string"
        }
      ],
      "name": "ProposalCreated",
      "type": "event"
    },
    {
      "anonymous": false,
      "inputs": [
        {
          "indexed": false,
          "internalType": "uint256",
          "name": "proposalId",
          "type": "uint256"
        }
      ],
      "name": "ProposalExecuted",
      "type": "event"
    },
    {
      "anonymous": false,
      "inputs": [
        {
          "indexed": true,
          "internalType": "address",
          "name": "voter",
          "type": "address"
        },
        {
          "indexed": false,
          "internalType": "uint256",
          "name": "proposalId",
          "type": "uint256"
        },
        {
          "indexed": false,
          "internalType": "uint8",
          "name": "support",
          "type": "uint8"
        },
        {
          "indexed": false,
          "internalType": "uint256",
          "name": "weight",
          "type": "uint256"
        },
        {
          "indexed": false,
          "internalType": "string",
          "name": "reason",
          "type": "string"
        }
      ],
      "name": "VoteCast",
      "type": "event"
    },
    {
      "inputs": [],
      "name": "BALLOT_TYPEHASH",
      "outputs": [
        {
          "internalType": "bytes32",
          "name": "",
          "type": "bytes32"
        }
      ],
      "stateMutability": "view",
      "type": "function"
    },
    {
      "inputs": [],
      "name": "COUNTING_MODE",
      "outputs": [
        {
          "internalType": "string",
          "name": "",
          "type": "string"
        }
      ],
      "stateMutability": "pure",
      "type": "function"
    },
    {
      "inputs": [
        {
          "internalType": "address[]",
          "name": "targets",
          "type": "address[]"
        },
        {
          "internalType": "uint256[]",
          "name": "values",
          "type": "uint256[]"
        },
        {
          "internalType": "bytes[]",
          "name": "calldatas",
          "type": "bytes[]"
        },
        {
          "internalType": "bytes32",
          "name": "salt",
          "type": "bytes32"
        }
      ],
      "name": "cancel",
      "outputs": [
        {
          "internalType": "uint256",
          "name": "proposalId",
          "type": "uint256"
        }
      ],
      "stateMutability": "nonpayable",
      "type": "function"
    },
    {
      "inputs": [
        {
          "internalType": "uint256",
          "name": "proposalId",
          "type": "uint256"
        },
        {
          "internalType": "uint8",
          "name": "support",
          "type": "uint8"
        }
      ],
      "name": "castVote",
      "outputs": [
        {
          "internalType": "uint256",
          "name": "",
          "type": "uint256"
        }
      ],
      "stateMutability": "nonpayable",
      "type": "function"
    },
    {
      "inputs": [
        {
          "internalType": "uint256",
          "name": "proposalId",
          "type": "uint256"
        },
        {
          "internalType": "uint8",
          "name": "support",
          "type": "uint8"
        },
        {
          "internalType": "uint8",
          "name": "v",
          "type": "uint8"
        },
        {
          "internalType": "bytes32",
          "name": "r",
          "type": "bytes32"
        },
        {
          "internalType": "bytes32",
          "name": "s",
          "type": "bytes32"
        }
      ],
      "name": "castVoteBySig",
      "outputs": [
        {
          "internalType": "uint256",
          "name": "",
          "type": "uint256"
        }
      ],
      "stateMutability": "nonpayable",
      "type": "function"
    },
    {
      "inputs": [
        {
          "internalType": "uint256",
          "name": "proposalId",
          "type": "uint256"
        },
        {
          "internalType": "uint8",
          "name": "support",
          "type": "uint8"
        },
        {
          "internalType": "string",
          "name": "reason",
          "type": "string"
        }
      ],
      "name": "castVoteWithReason",
      "outputs": [
        {
          "internalType": "uint256",
          "name": "",
          "type": "uint256"
        }
      ],
      "stateMutability": "nonpayable",
      "type": "function"
    },
    {
      "inputs": [
        {
          "internalType": "address[]",
          "name": "targets",
          "type": "address[]"
        },
        {
          "internalType": "uint256[]",
          "name": "values",
          "type": "uint256[]"
        },
        {
          "internalType": "bytes[]",
          "name": "calldatas",
          "type": "bytes[]"
        },
        {
          "internalType": "bytes32",
          "name": "descriptionHash",
          "type": "bytes32"
        }
      ],
      "name": "execute",
      "outputs": [
        {
          "internalType": "uint256",
          "name": "",
          "type": "uint256"
        }
      ],
      "stateMutability": "payable",
      "type": "function"
    },
    {
      "inputs": [
        {
          "internalType": "address",
          "name": "account",
          "type": "address"
        },
        {
          "internalType": "uint256",
          "name": "blockNumber",
          "type": "uint256"
        }
      ],
      "name": "getVotes",
      "outputs": [
        {
          "internalType": "uint256",
          "name": "",
          "type": "uint256"
        }
      ],
      "stateMutability": "view",
      "type": "function"
    },
    {
      "inputs": [
        {
          "internalType": "uint256",
          "name": "proposalId",
          "type": "uint256"
        },
        {
          "internalType": "address",
          "name": "account",
          "type": "address"
        }
      ],
      "name": "hasVoted",
      "outputs": [
        {
          "internalType": "bool",
          "name": "",
          "type": "bool"
        }
      ],
      "stateMutability": "view",
      "type": "function"
    },
    {
      "inputs": [
        {
          "internalType": "address[]",
          "name": "targets",
          "type": "address[]"
        },
        {
          "internalType": "uint256[]",
          "name": "values",
          "type": "uint256[]"
        },
        {
          "internalType": "bytes[]",
          "name": "calldatas",
          "type": "bytes[]"
        },
        {
          "internalType": "bytes32",
          "name": "descriptionHash",
          "type": "bytes32"
        }
      ],
      "name": "hashProposal",
      "outputs": [
        {
          "internalType": "uint256",
          "name": "",
          "type": "uint256"
        }
      ],
      "stateMutability": "pure",
      "type": "function"
    },
    {
      "inputs": [],
      "name": "name",
      "outputs": [
        {
          "internalType": "string",
          "name": "",
          "type": "string"
        }
      ],
      "stateMutability": "view",
      "type": "function"
    },
    {
      "inputs": [
        {
          "internalType": "uint256",
          "name": "proposalId",
          "type": "uint256"
        }
      ],
      "name": "proposalDeadline",
      "outputs": [
        {
          "internalType": "uint256",
          "name": "",
          "type": "uint256"
        }
      ],
      "stateMutability": "view",
      "type": "function"
    },
    {
      "inputs": [
        {
          "internalType": "uint256",
          "name": "proposalId",
          "type": "uint256"
        }
      ],
      "name": "proposalSnapshot",
      "outputs": [
        {
          "internalType": "uint256",
          "name": "",
          "type": "uint256"
        }
      ],
      "stateMutability": "view",
      "type": "function"
    },
    {
      "inputs": [],
      "name": "proposalThreshold",
      "outputs": [
        {
          "internalType": "uint256",
          "name": "",
          "type": "uint256"
        }
      ],
      "stateMutability": "view",
      "type": "function"
    },
    {
      "inputs": [
        {
          "internalType": "uint256",
          "name": "proposalId",
          "type": "uint256"
        }
      ],
      "name": "proposalVotes",
      "outputs": [
        {
          "internalType": "uint256",
          "name": "againstVotes",
          "type": "uint256"
        },
        {
          "internalType": "uint256",
          "name": "forVotes",
          "type": "uint256"
        },
        {
          "internalType": "uint256",
          "name": "abstainVotes",
          "type": "uint256"
        }
      ],
      "stateMutability": "view",
      "type": "function"
    },
    {
      "inputs": [
        {
          "internalType": "address[]",
          "name": "targets",
          "type": "address[]"
        },
        {
          "internalType": "uint256[]",
          "name": "values",
          "type": "uint256[]"
        },
        {
          "internalType": "bytes[]",
          "name": "calldatas",
          "type": "bytes[]"
        },
        {
          "internalType": "string",
          "name": "description",
          "type": "string"
        }
      ],
      "name": "propose",
      "outputs": [
        {
          "internalType": "uint256",
          "name": "",
          "type": "uint256"
        }
      ],
      "stateMutability": "nonpayable",
      "type": "function"
    },
    {
      "inputs": [
        {
          "internalType": "uint256",
          "name": "",
          "type": "uint256"
        }
      ],
      "name": "quorum",
      "outputs": [
        {
          "internalType": "uint256",
          "name": "",
          "type": "uint256"
        }
      ],
      "stateMutability": "pure",
      "type": "function"
    },
    {
      "inputs": [
        {
          "internalType": "address",
          "name": "target",
          "type": "address"
        },
        {
          "internalType": "uint256",
          "name": "value",
          "type": "uint256"
        },
        {
          "internalType": "bytes",
          "name": "data",
          "type": "bytes"
        }
      ],
      "name": "relay",
      "outputs": [],
      "stateMutability": "nonpayable",
      "type": "function"
    },
    {
      "inputs": [
        {
          "internalType": "uint256",
          "name": "proposalId",
          "type": "uint256"
        }
      ],
      "name": "state",
      "outputs": [
        {
          "internalType": "enum IGovernor.ProposalState",
          "name": "",
          "type": "uint8"
        }
      ],
      "stateMutability": "view",
      "type": "function"
    },
    {
      "inputs": [
        {
          "internalType": "bytes4",
          "name": "interfaceId",
          "type": "bytes4"
        }
      ],
      "name": "supportsInterface",
      "outputs": [
        {
          "internalType": "bool",
          "name": "",
          "type": "bool"
        }
      ],
      "stateMutability": "view",
      "type": "function"
    },
    {
      "inputs": [],
      "name": "token",
      "outputs": [
        {
          "internalType": "contract ERC20VotesComp",
          "name": "",
          "type": "address"
        }
      ],
      "stateMutability": "view",
      "type": "function"
    },
    {
      "inputs": [],
      "name": "version",
      "outputs": [
        {
          "internalType": "string",
          "name": "",
          "type": "string"
        }
      ],
      "stateMutability": "view",
      "type": "function"
    },
    {
      "inputs": [],
      "name": "votingDelay",
      "outputs": [
        {
          "internalType": "uint256",
          "name": "",
          "type": "uint256"
        }
      ],
      "stateMutability": "pure",
      "type": "function"
    },
    {
      "inputs": [],
      "name": "votingPeriod",
      "outputs": [
        {
          "internalType": "uint256",
          "name": "",
          "type": "uint256"
        }
      ],
      "stateMutability": "pure",
      "type": "function"
    },
    {
      "stateMutability": "payable",
      "type": "receive"
    }
  ],
  "bytecode": "6101606040523480156200001257600080fd5b50604051620026d6380380620026d68339810160408190526200003591620001ee565b808280620000576040805180820190915260018152603160f81b602082015290565b815160208084019190912082518383012060e08290526101008190524660a0818152604080517f8b73c3c69bb8fe3d512ecc4cf759cc79239f7b179b0ffacaa9a75d522b39400f81880181905281830187905260608201869052608082019490945230818401528151808203909301835260c00190528051940193909320919290916080523060c0526101205250508251620000fd925060009150602084019062000115565b50506001600160a01b031661014052506200031c9050565b8280546200012390620002df565b90600052602060002090601f01602090048101928262000147576000855562000192565b82601f106200016257805160ff191683800117855562000192565b8280016001018555821562000192579182015b828111156200019257825182559160200191906001019062000175565b50620001a0929150620001a4565b5090565b5b80821115620001a05760008155600101620001a5565b634e487b7160e01b600052604160045260246000fd5b80516001600160a01b0381168114620001e957600080fd5b919050565b600080604083850312156200020257600080fd5b82516001600160401b03808211156200021a57600080fd5b818501915085601f8301126200022f57600080fd5b815181811115620002445762000244620001bb565b604051601f8201601f19908116603f011681019083821181831017156200026f576200026f620001bb565b816040528281526020935088848487010111156200028c57600080fd5b600091505b82821015620002b0578482018401518183018501529083019062000291565b82821115620002c25760008484830101525b9550620002d4915050858201620001d1565b925050509250929050565b600181811c90821680620002f457607f821691505b602082108114156200031657634e487b7160e01b600052602260045260246000fd5b50919050565b60805160a05160c05160e0516101005161012051610140516123586200037e600039600081816104f501526111db015260006113200152600061136f0152600061134a015260006112a3015260006112cd015260006112f701526123586000f3fe60806040526004361061014f5760003560e01c806356781388116100b6578063c59057e41161006f578063c59057e414610408578063dd4e2ba514610428578063deaaa7cc1461046e578063eb9019d4146104a2578063f8ce560a146104c2578063fc0c546a146104e357600080fd5b806356781388146103545780637b3c71d3146103745780637d5e81e214610394578063b58131b0146103b4578063c01f9e37146103c8578063c28bc2fa146103e857600080fd5b80633bccf4fd116101085780633bccf4fd146102195780633e4f49e6146102395780634385963214610266578063452115d6146102b0578063544ffc9c146102d057806354fd4d501461032a57600080fd5b806301ffc9a71461015d57806302a251a31461019257806306fdde03146101b05780632656227d146101d25780632d63f693146101e55780633932abb11461020557600080fd5b3661015857005b005b600080fd5b34801561016957600080fd5b5061017d61017836600461190d565b61052f565b60405190151581526020015b60405180910390f35b34801561019e57600080fd5b5060105b604051908152602001610189565b3480156101bc57600080fd5b506101c5610566565b6040516101899190611993565b6101a26101e0366004611be3565b6105f8565b3480156101f157600080fd5b506101a2610200366004611c72565b61070a565b34801561021157600080fd5b5060046101a2565b34801561022557600080fd5b506101a2610234366004611c9c565b610741565b34801561024557600080fd5b50610259610254366004611c72565b6107d5565b6040516101899190611d00565b34801561027257600080fd5b5061017d610281366004611d28565b60008281526002602090815260408083206001600160a01b038516845260030190915290205460ff1692915050565b3480156102bc57600080fd5b506101a26102cb366004611be3565b6108e1565b3480156102dc57600080fd5b5061030f6102eb366004611c72565b60008181526002602081905260409091208054600182015491909201549193909250565b60408051938452602084019290925290820152606001610189565b34801561033657600080fd5b506040805180820190915260018152603160f81b60208201526101c5565b34801561036057600080fd5b506101a261036f366004611d54565b6108f8565b34801561038057600080fd5b506101a261038f366004611dbf565b610921565b3480156103a057600080fd5b506101a26103af366004611e18565b610973565b3480156103c057600080fd5b5060006101a2565b3480156103d457600080fd5b506101a26103e3366004611c72565b610c40565b3480156103f457600080fd5b50610156610403366004611ed8565b610c6f565b34801561041457600080fd5b506101a2610423366004611be3565b610d07565b34801561043457600080fd5b506040805180820190915260208082527f737570706f72743d627261766f2671756f72756d3d666f722c6162737461696e908201526101c5565b34801561047a57600080fd5b506101a27f150214d74d59b7d1e90c73fc22ef3d991dd0a76b046543d4d80ab92d2a50328f81565b3480156104ae57600080fd5b506101a26104bd366004611f19565b610d41565b3480156104ce57600080fd5b506101a26104dd366004611c72565b50600090565b3480156104ef57600080fd5b506105177f000000000000000000000000000000000000000000000000000000000000000081565b6040516001600160a01b039091168152602001610189565b60006001600160e01b0319821663bf26d89760e01b148061056057506301ffc9a760e01b6001600160e01b03198316145b92915050565b60606000805461057590611f43565b80601f01602080910402602001604051908101604052809291908181526020018280546105a190611f43565b80156105ee5780601f106105c3576101008083540402835291602001916105ee565b820191906000526020600020905b8154815290600101906020018083116105d157829003601f168201915b5050505050905090565b60008061060786868686610d07565b90506000610614826107d5565b9050600481600781111561062a5761062a611cea565b14806106475750600581600781111561064557610645611cea565b145b6106a25760405162461bcd60e51b815260206004820152602160248201527f476f7665726e6f723a2070726f706f73616c206e6f74207375636365737366756044820152601b60fa1b60648201526084015b60405180910390fd5b600082815260016020818152604092839020600201805460ff191690921790915590518381527f712ae1383f79ac853f8d882153778e0260ef8f03b504e2866e0593e04d2b291f910160405180910390a16107008288888888610d54565b5095945050505050565b60008181526001602090815260408083208151928301909152546001600160401b0316908190525b6001600160401b031692915050565b604080517f150214d74d59b7d1e90c73fc22ef3d991dd0a76b046543d4d80ab92d2a50328f602082015290810186905260ff8516606082015260009081906107ad906107a59060800160405160208183030381529060405280519060200120610e53565b868686610ea1565b90506107ca87828860405180602001604052806000815250610ebf565b979650505050505050565b6000818152600160205260408120600281015460ff16156107f95750600792915050565b6002810154610100900460ff16156108145750600292915050565b600061081f8461070a565b90508061086e5760405162461bcd60e51b815260206004820152601d60248201527f476f7665726e6f723a20756e6b6e6f776e2070726f706f73616c2069640000006044820152606401610699565b43811061087f575060009392505050565b600061088a85610c40565b905043811061089e57506001949350505050565b6108a785610fca565b80156108c6575060008581526002602052604090208054600190910154115b156108d657506004949350505050565b506003949350505050565b60006108ef85858585611002565b95945050505050565b60008033905061091984828560405180602001604052806000815250610ebf565b949350505050565b60008033905061096986828787878080601f016020809104026020016040519081016040528093929190818152602001838380828437600092019190915250610ebf92505050565b9695505050505050565b600080610985336104bd600143611f94565b1015610a055760405162461bcd60e51b815260206004820152604360248201527f476f7665726e6f72436f6d7061746962696c697479427261766f3a2070726f7060448201527f6f73657220766f7465732062656c6f772070726f706f73616c207468726573686064820152621bdb1960ea1b608482015260a401610699565b6000610a1a8686868680519060200120610d07565b90508451865114610a3d5760405162461bcd60e51b815260040161069990611fab565b8351865114610a5e5760405162461bcd60e51b815260040161069990611fab565b6000865111610aaf5760405162461bcd60e51b815260206004820152601860248201527f476f7665726e6f723a20656d7074792070726f706f73616c00000000000000006044820152606401610699565b600081815260016020908152604091829020825191820190925281546001600160401b03169081905215610b2f5760405162461bcd60e51b815260206004820152602160248201527f476f7665726e6f723a2070726f706f73616c20616c72656164792065786973746044820152607360f81b6064820152608401610699565b6000610b3b6004611120565b610b4443611120565b610b4e9190611fec565b90506000610b5c6010611120565b610b669083611fec565b835467ffffffffffffffff19166001600160401b038416178455905060018301805467ffffffffffffffff19166001600160401b0383161790557f7d84a6263ae0d98d3329bd7b46bb4e8d6f98cd35a7adb45c274c8b7fd5ebd5e084338b8b8d516001600160401b03811115610bde57610bde6119a6565b604051908082528060200260200182016040528015610c1157816020015b6060815260200190600190039081610bfc5790505b508c88888e604051610c2b999897969594939291906120dd565b60405180910390a15091979650505050505050565b60008181526001602081815260408084208151928301909152909101546001600160401b031690819052610732565b333014610cbe5760405162461bcd60e51b815260206004820152601860248201527f476f7665726e6f723a206f6e6c79476f7665726e616e636500000000000000006044820152606401610699565b610d008483838080601f01602080910402602001604051908101604052809392919081815260200183838082843760009201919091525088925061118c915050565b5050505050565b600084848484604051602001610d2094939291906121cc565b60408051601f19818403018152919052805160209091012095945050505050565b6000610d4d83836111b2565b9392505050565b60006040518060600160405280602781526020016122d360279139905060005b8551811015610e4a57600080878381518110610d9257610d92612217565b60200260200101516001600160a01b0316878481518110610db557610db5612217565b6020026020010151878581518110610dcf57610dcf612217565b6020026020010151604051610de4919061222d565b60006040518083038185875af1925050503d8060008114610e21576040519150601f19603f3d011682016040523d82523d6000602084013e610e26565b606091505b5091509150610e3682828661125d565b50505080610e4390612249565b9050610d74565b50505050505050565b6000610560610e60611296565b8360405161190160f01b6020820152602281018390526042810182905260009060620160405160208183030381529060405280519060200120905092915050565b6000806000610eb2878787876113bd565b91509150610700816114aa565b6000848152600160208190526040822090610ed9876107d5565b6007811115610eea57610eea611cea565b14610f435760405162461bcd60e51b815260206004820152602360248201527f476f7665726e6f723a20766f7465206e6f742063757272656e746c792061637460448201526269766560e81b6064820152608401610699565b604080516020810190915281546001600160401b031690819052600090610f6b908790610d41565b9050610f7987878784611668565b856001600160a01b03167fb8e138887d0aa13bab447e82de9d5c1777041ecd21ca36ba824ff1e6c07ddda488878488604051610fb89493929190612264565b60405180910390a29695505050505050565b60008181526002602081905260408220908101546001820154610fed919061228c565b610ff96104dd8561070a565b11159392505050565b60008061101186868686610d07565b9050600061101e826107d5565b9050600281600781111561103457611034611cea565b141580156110545750600681600781111561105157611051611cea565b14155b80156110725750600781600781111561106f5761106f611cea565b14155b6110be5760405162461bcd60e51b815260206004820152601d60248201527f476f7665726e6f723a2070726f706f73616c206e6f74206163746976650000006044820152606401610699565b60008281526001602052604090819020600201805461ff001916610100179055517f789cf55be980739dad1d0699b93b58e806b51c9d96619bfa8fe0a28abaa7b30c9061110e9084815260200190565b60405180910390a15095945050505050565b60006001600160401b038211156111885760405162461bcd60e51b815260206004820152602660248201527f53616665436173743a2076616c756520646f65736e27742066697420696e203660448201526534206269747360d01b6064820152608401610699565b5090565b60606109198484846040518060600160405280602981526020016122fa602991396117e7565b60405163782d6fe160e01b81526001600160a01b038381166004830152602482018390526000917f00000000000000000000000000000000000000000000000000000000000000009091169063782d6fe190604401602060405180830381865afa158015611224573d6000803e3d6000fd5b505050506040513d601f19601f8201168201806040525081019061124891906122a4565b6bffffffffffffffffffffffff169392505050565b6060831561126c575081610d4d565b82511561127c5782518084602001fd5b8160405162461bcd60e51b81526004016106999190611993565b6000306001600160a01b037f0000000000000000000000000000000000000000000000000000000000000000161480156112ef57507f000000000000000000000000000000000000000000000000000000000000000046145b1561131957507f000000000000000000000000000000000000000000000000000000000000000090565b50604080517f00000000000000000000000000000000000000000000000000000000000000006020808301919091527f0000000000000000000000000000000000000000000000000000000000000000828401527f000000000000000000000000000000000000000000000000000000000000000060608301524660808301523060a0808401919091528351808403909101815260c0909201909252805191012090565b6000807f7fffffffffffffffffffffffffffffff5d576e7357a4501ddfe92f46681b20a08311156113f457506000905060036114a1565b8460ff16601b1415801561140c57508460ff16601c14155b1561141d57506000905060046114a1565b6040805160008082526020820180845289905260ff881692820192909252606081018690526080810185905260019060a0016020604051602081039080840390855afa158015611471573d6000803e3d6000fd5b5050604051601f1901519150506001600160a01b03811661149a576000600192509250506114a1565b9150600090505b94509492505050565b60008160048111156114be576114be611cea565b14156114c75750565b60018160048111156114db576114db611cea565b14156115295760405162461bcd60e51b815260206004820152601860248201527f45434453413a20696e76616c6964207369676e617475726500000000000000006044820152606401610699565b600281600481111561153d5761153d611cea565b141561158b5760405162461bcd60e51b815260206004820152601f60248201527f45434453413a20696e76616c6964207369676e6174757265206c656e677468006044820152606401610699565b600381600481111561159f5761159f611cea565b14156115f85760405162461bcd60e51b815260206004820152602260248201527f45434453413a20696e76616c6964207369676e6174757265202773272076616c604482015261756560f01b6064820152608401610699565b600481600481111561160c5761160c611cea565b14156116655760405162461bcd60e51b815260206004820152602260248201527f45434453413a20696e76616c6964207369676e6174757265202776272076616c604482015261756560f01b6064820152608401610699565b50565b60008481526002602090815260408083206001600160a01b0387168452600381019092529091205460ff16156116f05760405162461bcd60e51b815260206004820152602760248201527f476f7665726e6f72566f74696e6753696d706c653a20766f746520616c726561604482015266191e4818d85cdd60ca1b6064820152608401610699565b6001600160a01b03841660009081526003820160205260408120805460ff1916600117905560ff168360ff1614156117415781816000016000828254611736919061228c565b90915550610d009050565b60ff8316600114156117615781816001016000828254611736919061228c565b60ff8316600214156117815781816002016000828254611736919061228c565b60405162461bcd60e51b815260206004820152603560248201527f476f7665726e6f72566f74696e6753696d706c653a20696e76616c69642076616044820152746c756520666f7220656e756d20566f74655479706560581b6064820152608401610699565b6060824710156118485760405162461bcd60e51b815260206004820152602660248201527f416464726573733a20696e73756666696369656e742062616c616e636520666f6044820152651c8818d85b1b60d21b6064820152608401610699565b6001600160a01b0385163b61189f5760405162461bcd60e51b815260206004820152601d60248201527f416464726573733a2063616c6c20746f206e6f6e2d636f6e74726163740000006044820152606401610699565b600080866001600160a01b031685876040516118bb919061222d565b60006040518083038185875af1925050503d80600081146118f8576040519150601f19603f3d011682016040523d82523d6000602084013e6118fd565b606091505b50915091506107ca82828661125d565b60006020828403121561191f57600080fd5b81356001600160e01b031981168114610d4d57600080fd5b60005b8381101561195257818101518382015260200161193a565b83811115611961576000848401525b50505050565b6000815180845261197f816020860160208601611937565b601f01601f19169290920160200192915050565b602081526000610d4d6020830184611967565b634e487b7160e01b600052604160045260246000fd5b604051601f8201601f191681016001600160401b03811182821017156119e4576119e46119a6565b604052919050565b60006001600160401b03821115611a0557611a056119a6565b5060051b60200190565b80356001600160a01b0381168114611a2657600080fd5b919050565b600082601f830112611a3c57600080fd5b81356020611a51611a4c836119ec565b6119bc565b82815260059290921b84018101918181019086841115611a7057600080fd5b8286015b84811015611a9257611a8581611a0f565b8352918301918301611a74565b509695505050505050565b600082601f830112611aae57600080fd5b81356020611abe611a4c836119ec565b82815260059290921b84018101918181019086841115611add57600080fd5b8286015b84811015611a925780358352918301918301611ae1565b60006001600160401b03831115611b1157611b116119a6565b611b24601f8401601f19166020016119bc565b9050828152838383011115611b3857600080fd5b828260208301376000602084830101529392505050565b600082601f830112611b6057600080fd5b81356020611b70611a4c836119ec565b82815260059290921b84018101918181019086841115611b8f57600080fd5b8286015b84811015611a925780356001600160401b03811115611bb25760008081fd5b8701603f81018913611bc45760008081fd5b611bd5898683013560408401611af8565b845250918301918301611b93565b60008060008060808587031215611bf957600080fd5b84356001600160401b0380821115611c1057600080fd5b611c1c88838901611a2b565b95506020870135915080821115611c3257600080fd5b611c3e88838901611a9d565b94506040870135915080821115611c5457600080fd5b50611c6187828801611b4f565b949793965093946060013593505050565b600060208284031215611c8457600080fd5b5035919050565b803560ff81168114611a2657600080fd5b600080600080600060a08688031215611cb457600080fd5b85359450611cc460208701611c8b565b9350611cd260408701611c8b565b94979396509394606081013594506080013592915050565b634e487b7160e01b600052602160045260246000fd5b6020810160088310611d2257634e487b7160e01b600052602160045260246000fd5b91905290565b60008060408385031215611d3b57600080fd5b82359150611d4b60208401611a0f565b90509250929050565b60008060408385031215611d6757600080fd5b82359150611d4b60208401611c8b565b60008083601f840112611d8957600080fd5b5081356001600160401b03811115611da057600080fd5b602083019150836020828501011115611db857600080fd5b9250929050565b60008060008060608587031215611dd557600080fd5b84359350611de560208601611c8b565b925060408501356001600160401b03811115611e0057600080fd5b611e0c87828801611d77565b95989497509550505050565b60008060008060808587031215611e2e57600080fd5b84356001600160401b0380821115611e4557600080fd5b611e5188838901611a2b565b95506020870135915080821115611e6757600080fd5b611e7388838901611a9d565b94506040870135915080821115611e8957600080fd5b611e9588838901611b4f565b93506060870135915080821115611eab57600080fd5b508501601f81018713611ebd57600080fd5b611ecc87823560208401611af8565b91505092959194509250565b60008060008060608587031215611eee57600080fd5b611ef785611a0f565b93506020850135925060408501356001600160401b03811115611e0057600080fd5b60008060408385031215611f2c57600080fd5b611f3583611a0f565b946020939093013593505050565b600181811c90821680611f5757607f821691505b60208210811415611f7857634e487b7160e01b600052602260045260246000fd5b50919050565b634e487b7160e01b600052601160045260246000fd5b600082821015611fa657611fa6611f7e565b500390565b60208082526021908201527f476f7665726e6f723a20696e76616c69642070726f706f73616c206c656e67746040820152600d60fb1b606082015260800190565b60006001600160401b0380831681851680830382111561200e5761200e611f7e565b01949350505050565b600081518084526020808501945080840160005b838110156120505781516001600160a01b03168752958201959082019060010161202b565b509495945050505050565b600081518084526020808501945080840160005b838110156120505781518752958201959082019060010161206f565b6000815180845260208085019450848260051b860182860160005b858110156120d05783830389526120be838351611967565b988501989250908401906001016120a6565b5090979650505050505050565b60006101208b8352602060018060a01b038c16818501528160408501526121068285018c612017565b9150838203606085015261211a828b61205b565b915083820360808501528189518084528284019150828160051b850101838c0160005b8381101561216b57601f19878403018552612159838351611967565b9486019492509085019060010161213d565b505086810360a088015261217f818c61208b565b94505050505061219a60c08401876001600160401b03169052565b6001600160401b03851660e08401528281036101008401526121bc8185611967565b9c9b505050505050505050505050565b6080815260006121df6080830187612017565b82810360208401526121f1818761205b565b90508281036040840152612205818661208b565b91505082606083015295945050505050565b634e487b7160e01b600052603260045260246000fd5b6000825161223f818460208701611937565b9190910192915050565b600060001982141561225d5761225d611f7e565b5060010190565b84815260ff841660208201528260408201526080606082015260006109696080830184611967565b6000821982111561229f5761229f611f7e565b500190565b6000602082840312156122b657600080fd5b81516bffffffffffffffffffffffff81168114610d4d57600080fdfe476f7665726e6f723a2063616c6c20726576657274656420776974686f7574206d657373616765416464726573733a206c6f772d6c6576656c2063616c6c20776974682076616c7565206661696c6564a2646970667358221220627dc07fb20978cbeea55218a6e384b8ce933187631d13fcc4719d12833ec82c64736f6c634300080c0033",
  "bytecodeSha1": "f363c98c6e2d937af231d91ae2ff45cdbe46a65b",
  "compiler": {
    "evm_version": "istanbul",
    "optimizer": {
      "enabled": true,
      "runs": 200
    },
    "version": "0.8.12+commit.f00d7308"
  },
  "contractName": "GovernorCompMock",
  "language": "Solidity",
  "natspec": {
    "kind": "dev",
    "methods": {
      "COUNTING_MODE()": {
        "details": "See {IGovernor-COUNTING_MODE}."
      },
      "castVote(uint256,uint8)": {
        "details": "See {IGovernor-castVote}."
      },
      "castVoteBySig(uint256,uint8,uint8,bytes32,bytes32)": {
        "details": "See {IGovernor-castVoteBySig}."
      },
      "castVoteWithReason(uint256,uint8,string)": {
        "details": "See {IGovernor-castVoteWithReason}."
      },
      "execute(address[],uint256[],bytes[],bytes32)": {
        "details": "See {IGovernor-execute}."
      },
      "hasVoted(uint256,address)": {
        "details": "See {IGovernor-hasVoted}."
      },
      "hashProposal(address[],uint256[],bytes[],bytes32)": {
        "details": "See {IGovernor-hashProposal}. The proposal id is produced by hashing the RLC encoded `targets` array, the `values` array, the `calldatas` array and the descriptionHash (bytes32 which itself is the keccak256 hash of the description string). This proposal id can be produced from the proposal data which is part of the {ProposalCreated} event. It can even be computed in advance, before the proposal is submitted. Note that the chainId and the governor address are not part of the proposal id computation. Consequently, the same proposal (with same operation and same description) will have the same id if submitted on multiple governors accross multiple networks. This also means that in order to execute the same operation twice (on the same governor) the proposer will have to change the description in order to avoid proposal id conflicts."
      },
      "name()": {
        "details": "See {IGovernor-name}."
      },
      "proposalDeadline(uint256)": {
        "details": "See {IGovernor-proposalDeadline}."
      },
      "proposalSnapshot(uint256)": {
        "details": "See {IGovernor-proposalSnapshot}."
      },
      "proposalThreshold()": {
        "details": "Part of the Governor Bravo's interface: _\"The number of votes required in order for a voter to become a proposer\"_."
      },
      "proposalVotes(uint256)": {
        "details": "Accessor to the internal vote counts."
      },
      "propose(address[],uint256[],bytes[],string)": {
        "details": "See {IGovernor-propose}."
      },
      "relay(address,uint256,bytes)": {
        "details": "Relays a transaction or function call to an arbitrary target. In cases where the governance executor is some contract other than the governor itself, like when using a timelock, this function can be invoked in a governance proposal to recover tokens or Ether that was sent to the governor contract by mistake. Note that if the executor is simply the governor itself, use of `relay` is redundant."
      },
      "state(uint256)": {
        "details": "See {IGovernor-state}."
      },
      "supportsInterface(bytes4)": {
        "details": "See {IERC165-supportsInterface}."
      },
      "version()": {
        "details": "See {IGovernor-version}."
      },
      "votingDelay()": {
        "details": "Delay, in number of block, between the proposal is created and the vote starts. This can be increassed to leave time for users to buy voting power, of delegate it, before the voting of a proposal starts.",
        "notice": "module:user-config"
      },
      "votingPeriod()": {
        "details": "Delay, in number of blocks, between the vote start and vote ends. NOTE: The {votingDelay} can delay the start of the vote. This must be considered when setting the voting duration compared to the voting delay.",
        "notice": "module:user-config"
      }
    },
    "version": 1
  },
  "opcodes": "PUSH1 0x80 PUSH1 0x40 MSTORE PUSH1 0x4 CALLDATASIZE LT PUSH2 0x14F JUMPI PUSH1 0x0 CALLDATALOAD PUSH1 0xE0 SHR DUP1 PUSH4 0x56781388 GT PUSH2 0xB6 JUMPI DUP1 PUSH4 0xC59057E4 GT PUSH2 0x6F JUMPI DUP1 PUSH4 0xC59057E4 EQ PUSH2 0x408 JUMPI DUP1 PUSH4 0xDD4E2BA5 EQ PUSH2 0x428 JUMPI DUP1 PUSH4 0xDEAAA7CC EQ PUSH2 0x46E JUMPI DUP1 PUSH4 0xEB9019D4 EQ PUSH2 0x4A2 JUMPI DUP1 PUSH4 0xF8CE560A EQ PUSH2 0x4C2 JUMPI DUP1 PUSH4 0xFC0C546A EQ PUSH2 0x4E3 JUMPI PUSH1 0x0 DUP1 REVERT JUMPDEST DUP1 PUSH4 0x56781388 EQ PUSH2 0x354 JUMPI DUP1 PUSH4 0x7B3C71D3 EQ PUSH2 0x374 JUMPI DUP1 PUSH4 0x7D5E81E2 EQ PUSH2 0x394 JUMPI DUP1 PUSH4 0xB58131B0 EQ PUSH2 0x3B4 JUMPI DUP1 PUSH4 0xC01F9E37 EQ PUSH2 0x3C8 JUMPI DUP1 PUSH4 0xC28BC2FA EQ PUSH2 0x3E8 JUMPI PUSH1 0x0 DUP1 REVERT JUMPDEST DUP1 PUSH4 0x3BCCF4FD GT PUSH2 0x108 JUMPI DUP1 PUSH4 0x3BCCF4FD EQ PUSH2 0x219 JUMPI DUP1 PUSH4 0x3E4F49E6 EQ PUSH2 0x239 JUMPI DUP1 PUSH4 0x43859632 EQ PUSH2 0x266 JUMPI DUP1 PUSH4 0x452115D6 EQ PUSH2 0x2B0 JUMPI DUP1 PUSH4 0x544FFC9C EQ PUSH2 0x2D0 JUMPI DUP1 PUSH4 0x54FD4D50 EQ PUSH2 0x32A JUMPI PUSH1 0x0 DUP1 REVERT JUMPDEST DUP1 PUSH4 0x1FFC9A7 EQ PUSH2 0x15D JUMPI DUP1 PUSH4 0x2A251A3 EQ PUSH2 0x192 JUMPI DUP1 PUSH4 0x6FDDE03 EQ PUSH2 0x1B0 JUMPI DUP1 PUSH4 0x2656227D EQ PUSH2 0x1D2 JUMPI DUP1 PUSH4 0x2D63F693 EQ PUSH2 0x1E5 JUMPI DUP1 PUSH4 0x3932ABB1 EQ PUSH2 0x205 JUMPI PUSH1 0x0 DUP1 REVERT JUMPDEST CALLDATASIZE PUSH2 0x158 JUMPI STOP JUMPDEST STOP JUMPDEST PUSH1 0x0 DUP1 REVERT JUMPDEST CALLVALUE DUP1 ISZERO PUSH2 0x169 JUMPI PUSH1 0x0 DUP1 REVERT JUMPDEST POP PUSH2 0x17D PUSH2 0x178 CALLDATASIZE PUSH1 0x4 PUSH2 0x190D JUMP JUMPDEST PUSH2 0x52F JUMP JUMPDEST PUSH1 0x40 MLOAD SWAP1 ISZERO ISZERO DUP2 MSTORE PUSH1 0x20 ADD JUMPDEST PUSH1 0x40 MLOAD DUP1 SWAP2 SUB SWAP1 RETURN JUMPDEST CALLVALUE DUP1 ISZERO PUSH2 0x19E JUMPI PUSH1 0x0 DUP1 REVERT JUMPDEST POP PUSH1 0x10 JUMPDEST PUSH1 0x40 MLOAD SWAP1 DUP2 MSTORE PUSH1 0x20 ADD PUSH2 0x189 JUMP JUMPDEST CALLVALUE DUP1 ISZERO PUSH2 0x1BC JUMPI PUSH1 0x0 DUP1 REVERT JUMPDEST POP PUSH2 0x1C5 PUSH2 0x566 JUMP JUMPDEST PUSH1 0x40 MLOAD PUSH2 0x189 SWAP2 SWAP1 PUSH2 0x1993 JUMP JUMPDEST PUSH2 0x1A2 PUSH2 0x1E0 CALLDATASIZE PUSH1 0x4 PUSH2 0x1BE3 JUMP JUMPDEST PUSH2 0x5F8 JUMP JUMPDEST CALLVALUE DUP1 ISZERO PUSH2 0x1F1 JUMPI PUSH1 0x0 DUP1 REVERT JUMPDEST POP PUSH2 0x1A2 PUSH2 0x200 CALLDATASIZE PUSH1 0x4 PUSH2 0x1C72 JUMP JUMPDEST PUSH2 0x70A JUMP JUMPDEST CALLVALUE DUP1 ISZERO PUSH2 0x211 JUMPI PUSH1 0x0 DUP1 REVERT JUMPDEST POP PUSH1 0x4 PUSH2 0x1A2 JUMP JUMPDEST CALLVALUE DUP1 ISZERO PUSH2 0x225 JUMPI PUSH1 0x0 DUP1 REVERT JUMPDEST POP PUSH2 0x1A2 PUSH2 0x234 CALLDATASIZE PUSH1 0x4 PUSH2 0x1C9C JUMP JUMPDEST PUSH2 0x741 JUMP JUMPDEST CALLVALUE DUP1 ISZERO PUSH2 0x245 JUMPI PUSH1 0x0 DUP1 REVERT JUMPDEST POP PUSH2 0x259 PUSH2 0x254 CALLDATASIZE PUSH1 0x4 PUSH2 0x1C72 JUMP JUMPDEST PUSH2 0x7D5 JUMP JUMPDEST PUSH1 0x40 MLOAD PUSH2 0x189 SWAP2 SWAP1 PUSH2 0x1D00 JUMP JUMPDEST CALLVALUE DUP1 ISZERO PUSH2 0x272 JUMPI PUSH1 0x0 DUP1 REVERT JUMPDEST POP PUSH2 0x17D PUSH2 0x281 CALLDATASIZE PUSH1 0x4 PUSH2 0x1D28 JUMP JUMPDEST PUSH1 0x0 DUP3 DUP2 MSTORE PUSH1 0x2 PUSH1 0x20 SWAP1 DUP2 MSTORE PUSH1 0x40 DUP1 DUP4 KECCAK256 PUSH1 0x1 PUSH1 0x1 PUSH1 0xA0 SHL SUB DUP6 AND DUP5 MSTORE PUSH1 0x3 ADD SWAP1 SWAP2 MSTORE SWAP1 KECCAK256 SLOAD PUSH1 0xFF AND SWAP3 SWAP2 POP POP JUMP JUMPDEST CALLVALUE DUP1 ISZERO PUSH2 0x2BC JUMPI PUSH1 0x0 DUP1 REVERT JUMPDEST POP PUSH2 0x1A2 PUSH2 0x2CB CALLDATASIZE PUSH1 0x4 PUSH2 0x1BE3 JUMP JUMPDEST PUSH2 0x8E1 JUMP JUMPDEST CALLVALUE DUP1 ISZERO PUSH2 0x2DC JUMPI PUSH1 0x0 DUP1 REVERT JUMPDEST POP PUSH2 0x30F PUSH2 0x2EB CALLDATASIZE PUSH1 0x4 PUSH2 0x1C72 JUMP JUMPDEST PUSH1 0x0 DUP2 DUP2 MSTORE PUSH1 0x2 PUSH1 0x20 DUP2 SWAP1 MSTORE PUSH1 0x40 SWAP1 SWAP2 KECCAK256 DUP1 SLOAD PUSH1 0x1 DUP3 ADD SLOAD SWAP2 SWAP1 SWAP3 ADD SLOAD SWAP2 SWAP4 SWAP1 SWAP3 POP JUMP JUMPDEST PUSH1 0x40 DUP1 MLOAD SWAP4 DUP5 MSTORE PUSH1 0x20 DUP5 ADD SWAP3 SWAP1 SWAP3 MSTORE SWAP1 DUP3 ADD MSTORE PUSH1 0x60 ADD PUSH2 0x189 JUMP JUMPDEST CALLVALUE DUP1 ISZERO PUSH2 0x336 JUMPI PUSH1 0x0 DUP1 REVERT JUMPDEST POP PUSH1 0x40 DUP1 MLOAD DUP1 DUP3 ADD SWAP1 SWAP2 MSTORE PUSH1 0x1 DUP2 MSTORE PUSH1 0x31 PUSH1 0xF8 SHL PUSH1 0x20 DUP3 ADD MSTORE PUSH2 0x1C5 JUMP JUMPDEST CALLVALUE DUP1 ISZERO PUSH2 0x360 JUMPI PUSH1 0x0 DUP1 REVERT JUMPDEST POP PUSH2 0x1A2 PUSH2 0x36F CALLDATASIZE PUSH1 0x4 PUSH2 0x1D54 JUMP JUMPDEST PUSH2 0x8F8 JUMP JUMPDEST CALLVALUE DUP1 ISZERO PUSH2 0x380 JUMPI PUSH1 0x0 DUP1 REVERT JUMPDEST POP PUSH2 0x1A2 PUSH2 0x38F CALLDATASIZE PUSH1 0x4 PUSH2 0x1DBF JUMP JUMPDEST PUSH2 0x921 JUMP JUMPDEST CALLVALUE DUP1 ISZERO PUSH2 0x3A0 JUMPI PUSH1 0x0 DUP1 REVERT JUMPDEST POP PUSH2 0x1A2 PUSH2 0x3AF CALLDATASIZE PUSH1 0x4 PUSH2 0x1E18 JUMP JUMPDEST PUSH2 0x973 JUMP JUMPDEST CALLVALUE DUP1 ISZERO PUSH2 0x3C0 JUMPI PUSH1 0x0 DUP1 REVERT JUMPDEST POP PUSH1 0x0 PUSH2 0x1A2 JUMP JUMPDEST CALLVALUE DUP1 ISZERO PUSH2 0x3D4 JUMPI PUSH1 0x0 DUP1 REVERT JUMPDEST POP PUSH2 0x1A2 PUSH2 0x3E3 CALLDATASIZE PUSH1 0x4 PUSH2 0x1C72 JUMP JUMPDEST PUSH2 0xC40 JUMP JUMPDEST CALLVALUE DUP1 ISZERO PUSH2 0x3F4 JUMPI PUSH1 0x0 DUP1 REVERT JUMPDEST POP PUSH2 0x156 PUSH2 0x403 CALLDATASIZE PUSH1 0x4 PUSH2 0x1ED8 JUMP JUMPDEST PUSH2 0xC6F JUMP JUMPDEST CALLVALUE DUP1 ISZERO PUSH2 0x414 JUMPI PUSH1 0x0 DUP1 REVERT JUMPDEST POP PUSH2 0x1A2 PUSH2 0x423 CALLDATASIZE PUSH1 0x4 PUSH2 0x1BE3 JUMP JUMPDEST PUSH2 0xD07 JUMP JUMPDEST CALLVALUE DUP1 ISZERO PUSH2 0x434 JUMPI PUSH1 0x0 DUP1 REVERT JUMPDEST POP PUSH1 0x40 DUP1 MLOAD DUP1 DUP3 ADD SWAP1 SWAP2 MSTORE PUSH1 0x20 DUP1 DUP3 MSTORE PUSH32 0x737570706F72743D627261766F2671756F72756D3D666F722C6162737461696E SWAP1 DUP3 ADD MSTORE PUSH2 0x1C5 JUMP JUMPDEST CALLVALUE DUP1 ISZERO PUSH2 0x47A JUMPI PUSH1 0x0 DUP1 REVERT JUMPDEST POP PUSH2 0x1A2 PUSH32 0x150214D74D59B7D1E90C73FC22EF3D991DD0A76B046543D4D80AB92D2A50328F DUP2 JUMP JUMPDEST CALLVALUE DUP1 ISZERO PUSH2 0x4AE JUMPI PUSH1 0x0 DUP1 REVERT JUMPDEST POP PUSH2 0x1A2 PUSH2 0x4BD CALLDATASIZE PUSH1 0x4 PUSH2 0x1F19 JUMP JUMPDEST PUSH2 0xD41 JUMP JUMPDEST CALLVALUE DUP1 ISZERO PUSH2 0x4CE JUMPI PUSH1 0x0 DUP1 REVERT JUMPDEST POP PUSH2 0x1A2 PUSH2 0x4DD CALLDATASIZE PUSH1 0x4 PUSH2 0x1C72 JUMP JUMPDEST POP PUSH1 0x0 SWAP1 JUMP JUMPDEST CALLVALUE DUP1 ISZERO PUSH2 0x4EF JUMPI PUSH1 0x0 DUP1 REVERT JUMPDEST POP PUSH2 0x517 PUSH32 0x0 DUP2 JUMP JUMPDEST PUSH1 0x40 MLOAD PUSH1 0x1 PUSH1 0x1 PUSH1 0xA0 SHL SUB SWAP1 SWAP2 AND DUP2 MSTORE PUSH1 0x20 ADD PUSH2 0x189 JUMP JUMPDEST PUSH1 0x0 PUSH1 0x1 PUSH1 0x1 PUSH1 0xE0 SHL SUB NOT DUP3 AND PUSH4 0xBF26D897 PUSH1 0xE0 SHL EQ DUP1 PUSH2 0x560 JUMPI POP PUSH4 0x1FFC9A7 PUSH1 0xE0 SHL PUSH1 0x1 PUSH1 0x1 PUSH1 0xE0 SHL SUB NOT DUP4 AND EQ JUMPDEST SWAP3 SWAP2 POP POP JUMP JUMPDEST PUSH1 0x60 PUSH1 0x0 DUP1 SLOAD PUSH2 0x575 SWAP1 PUSH2 0x1F43 JUMP JUMPDEST DUP1 PUSH1 0x1F ADD PUSH1 0x20 DUP1 SWAP2 DIV MUL PUSH1 0x20 ADD PUSH1 0x40 MLOAD SWAP1 DUP2 ADD PUSH1 0x40 MSTORE DUP1 SWAP3 SWAP2 SWAP1 DUP2 DUP2 MSTORE PUSH1 0x20 ADD DUP3 DUP1 SLOAD PUSH2 0x5A1 SWAP1 PUSH2 0x1F43 JUMP JUMPDEST DUP1 ISZERO PUSH2 0x5EE JUMPI DUP1 PUSH1 0x1F LT PUSH2 0x5C3 JUMPI PUSH2 0x100 DUP1 DUP4 SLOAD DIV MUL DUP4 MSTORE SWAP2 PUSH1 0x20 ADD SWAP2 PUSH2 0x5EE JUMP JUMPDEST DUP3 ADD SWAP2 SWAP1 PUSH1 0x0 MSTORE PUSH1 0x20 PUSH1 0x0 KECCAK256 SWAP1 JUMPDEST DUP2 SLOAD DUP2 MSTORE SWAP1 PUSH1 0x1 ADD SWAP1 PUSH1 0x20 ADD DUP1 DUP4 GT PUSH2 0x5D1 JUMPI DUP3 SWAP1 SUB PUSH1 0x1F AND DUP3 ADD SWAP2 JUMPDEST POP POP POP POP POP SWAP1 POP SWAP1 JUMP JUMPDEST PUSH1 0x0 DUP1 PUSH2 0x607 DUP7 DUP7 DUP7 DUP7 PUSH2 0xD07 JUMP JUMPDEST SWAP1 POP PUSH1 0x0 PUSH2 0x614 DUP3 PUSH2 0x7D5 JUMP JUMPDEST SWAP1 POP PUSH1 0x4 DUP2 PUSH1 0x7 DUP2 GT ISZERO PUSH2 0x62A JUMPI PUSH2 0x62A PUSH2 0x1CEA JUMP JUMPDEST EQ DUP1 PUSH2 0x647 JUMPI POP PUSH1 0x5 DUP2 PUSH1 0x7 DUP2 GT ISZERO PUSH2 0x645 JUMPI PUSH2 0x645 PUSH2 0x1CEA JUMP JUMPDEST EQ JUMPDEST PUSH2 0x6A2 JUMPI PUSH1 0x40 MLOAD PUSH3 0x461BCD PUSH1 0xE5 SHL DUP2 MSTORE PUSH1 0x20 PUSH1 0x4 DUP3 ADD MSTORE PUSH1 0x21 PUSH1 0x24 DUP3 ADD MSTORE PUSH32 0x476F7665726E6F723A2070726F706F73616C206E6F7420737563636573736675 PUSH1 0x44 DUP3 ADD MSTORE PUSH1 0x1B PUSH1 0xFA SHL PUSH1 0x64 DUP3 ADD MSTORE PUSH1 0x84 ADD JUMPDEST PUSH1 0x40 MLOAD DUP1 SWAP2 SUB SWAP1 REVERT JUMPDEST PUSH1 0x0 DUP3 DUP2 MSTORE PUSH1 0x1 PUSH1 0x20 DUP2 DUP2 MSTORE PUSH1 0x40 SWAP3 DUP4 SWAP1 KECCAK256 PUSH1 0x2 ADD DUP1 SLOAD PUSH1 0xFF NOT AND SWAP1 SWAP3 OR SWAP1 SWAP2 SSTORE SWAP1 MLOAD DUP4 DUP2 MSTORE PUSH32 0x712AE1383F79AC853F8D882153778E0260EF8F03B504E2866E0593E04D2B291F SWAP2 ADD PUSH1 0x40 MLOAD DUP1 SWAP2 SUB SWAP1 LOG1 PUSH2 0x700 DUP3 DUP9 DUP9 DUP9 DUP9 PUSH2 0xD54 JUMP JUMPDEST POP SWAP6 SWAP5 POP POP POP POP POP JUMP JUMPDEST PUSH1 0x0 DUP2 DUP2 MSTORE PUSH1 0x1 PUSH1 0x20 SWAP1 DUP2 MSTORE PUSH1 0x40 DUP1 DUP4 KECCAK256 DUP2 MLOAD SWAP3 DUP4 ADD SWAP1 SWAP2 MSTORE SLOAD PUSH1 0x1 PUSH1 0x1 PUSH1 0x40 SHL SUB AND SWAP1 DUP2 SWAP1 MSTORE JUMPDEST PUSH1 0x1 PUSH1 0x1 PUSH1 0x40 SHL SUB AND SWAP3 SWAP2 POP POP JUMP JUMPDEST PUSH1 0x40 DUP1 MLOAD PUSH32 0x150214D74D59B7D1E90C73FC22EF3D991DD0A76B046543D4D80AB92D2A50328F PUSH1 0x20 DUP3 ADD MSTORE SWAP1 DUP2 ADD DUP7 SWAP1 MSTORE PUSH1 0xFF DUP6 AND PUSH1 0x60 DUP3 ADD MSTORE PUSH1 0x0 SWAP1 DUP2 SWAP1 PUSH2 0x7AD SWAP1 PUSH2 0x7A5 SWAP1 PUSH1 0x80 ADD PUSH1 0x40 MLOAD PUSH1 0x20 DUP2 DUP4 SUB SUB DUP2 MSTORE SWAP1 PUSH1 0x40 MSTORE DUP1 MLOAD SWAP1 PUSH1 0x20 ADD KECCAK256 PUSH2 0xE53 JUMP JUMPDEST DUP7 DUP7 DUP7 PUSH2 0xEA1 JUMP JUMPDEST SWAP1 POP PUSH2 0x7CA DUP8 DUP3 DUP9 PUSH1 0x40 MLOAD DUP1 PUSH1 0x20 ADD PUSH1 0x40 MSTORE DUP1 PUSH1 0x0 DUP2 MSTORE POP PUSH2 0xEBF JUMP JUMPDEST SWAP8 SWAP7 POP POP POP POP POP POP POP JUMP JUMPDEST PUSH1 0x0 DUP2 DUP2 MSTORE PUSH1 0x1 PUSH1 0x20 MSTORE PUSH1 0x40 DUP2 KECCAK256 PUSH1 0x2 DUP2 ADD SLOAD PUSH1 0xFF AND ISZERO PUSH2 0x7F9 JUMPI POP PUSH1 0x7 SWAP3 SWAP2 POP POP JUMP JUMPDEST PUSH1 0x2 DUP2 ADD SLOAD PUSH2 0x100 SWAP1 DIV PUSH1 0xFF AND ISZERO PUSH2 0x814 JUMPI POP PUSH1 0x2 SWAP3 SWAP2 POP POP JUMP JUMPDEST PUSH1 0x0 PUSH2 0x81F DUP5 PUSH2 0x70A JUMP JUMPDEST SWAP1 POP DUP1 PUSH2 0x86E JUMPI PUSH1 0x40 MLOAD PUSH3 0x461BCD PUSH1 0xE5 SHL DUP2 MSTORE PUSH1 0x20 PUSH1 0x4 DUP3 ADD MSTORE PUSH1 0x1D PUSH1 0x24 DUP3 ADD MSTORE PUSH32 0x476F7665726E6F723A20756E6B6E6F776E2070726F706F73616C206964000000 PUSH1 0x44 DUP3 ADD MSTORE PUSH1 0x64 ADD PUSH2 0x699 JUMP JUMPDEST NUMBER DUP2 LT PUSH2 0x87F JUMPI POP PUSH1 0x0 SWAP4 SWAP3 POP POP POP JUMP JUMPDEST PUSH1 0x0 PUSH2 0x88A DUP6 PUSH2 0xC40 JUMP JUMPDEST SWAP1 POP NUMBER DUP2 LT PUSH2 0x89E JUMPI POP PUSH1 0x1 SWAP5 SWAP4 POP POP POP POP JUMP JUMPDEST PUSH2 0x8A7 DUP6 PUSH2 0xFCA JUMP JUMPDEST DUP1 ISZERO PUSH2 0x8C6 JUMPI POP PUSH1 0x0 DUP6 DUP2 MSTORE PUSH1 0x2 PUSH1 0x20 MSTORE PUSH1 0x40 SWAP1 KECCAK256 DUP1 SLOAD PUSH1 0x1 SWAP1 SWAP2 ADD SLOAD GT JUMPDEST ISZERO PUSH2 0x8D6 JUMPI POP PUSH1 0x4 SWAP5 SWAP4 POP POP POP POP JUMP JUMPDEST POP PUSH1 0x3 SWAP5 SWAP4 POP POP POP POP JUMP JUMPDEST PUSH1 0x0 PUSH2 0x8EF DUP6 DUP6 DUP6 DUP6 PUSH2 0x1002 JUMP JUMPDEST SWAP6 SWAP5 POP POP POP POP POP JUMP JUMPDEST PUSH1 0x0 DUP1 CALLER SWAP1 POP PUSH2 0x919 DUP5 DUP3 DUP6 PUSH1 0x40 MLOAD DUP1 PUSH1 0x20 ADD PUSH1 0x40 MSTORE DUP1 PUSH1 0x0 DUP2 MSTORE POP PUSH2 0xEBF JUMP JUMPDEST SWAP5 SWAP4 POP POP POP POP JUMP JUMPDEST PUSH1 0x0 DUP1 CALLER SWAP1 POP PUSH2 0x969 DUP7 DUP3 DUP8 DUP8 DUP8 DUP1 DUP1 PUSH1 0x1F ADD PUSH1 0x20 DUP1 SWAP2 DIV MUL PUSH1 0x20 ADD PUSH1 0x40 MLOAD SWAP1 DUP2 ADD PUSH1 0x40 MSTORE DUP1 SWAP4 SWAP3 SWAP2 SWAP1 DUP2 DUP2 MSTORE PUSH1 0x20 ADD DUP4 DUP4 DUP1 DUP3 DUP5 CALLDATACOPY PUSH1 0x0 SWAP3 ADD SWAP2 SWAP1 SWAP2 MSTORE POP PUSH2 0xEBF SWAP3 POP POP POP JUMP JUMPDEST SWAP7 SWAP6 POP POP POP POP POP POP JUMP JUMPDEST PUSH1 0x0 DUP1 PUSH2 0x985 CALLER PUSH2 0x4BD PUSH1 0x1 NUMBER PUSH2 0x1F94 JUMP JUMPDEST LT ISZERO PUSH2 0xA05 JUMPI PUSH1 0x40 MLOAD PUSH3 0x461BCD PUSH1 0xE5 SHL DUP2 MSTORE PUSH1 0x20 PUSH1 0x4 DUP3 ADD MSTORE PUSH1 0x43 PUSH1 0x24 DUP3 ADD MSTORE PUSH32 0x476F7665726E6F72436F6D7061746962696C697479427261766F3A2070726F70 PUSH1 0x44 DUP3 ADD MSTORE PUSH32 0x6F73657220766F7465732062656C6F772070726F706F73616C20746872657368 PUSH1 0x64 DUP3 ADD MSTORE PUSH3 0x1BDB19 PUSH1 0xEA SHL PUSH1 0x84 DUP3 ADD MSTORE PUSH1 0xA4 ADD PUSH2 0x699 JUMP JUMPDEST PUSH1 0x0 PUSH2 0xA1A DUP7 DUP7 DUP7 DUP7 DUP1 MLOAD SWAP1 PUSH1 0x20 ADD KECCAK256 PUSH2 0xD07 JUMP JUMPDEST SWAP1 POP DUP5 MLOAD DUP7 MLOAD EQ PUSH2 0xA3D JUMPI PUSH1 0x40 MLOAD PUSH3 0x461BCD PUSH1 0xE5 SHL DUP2 MSTORE PUSH1 0x4 ADD PUSH2 0x699 SWAP1 PUSH2 0x1FAB JUMP JUMPDEST DUP4 MLOAD DUP7 MLOAD EQ PUSH2 0xA5E JUMPI PUSH1 0x40 MLOAD PUSH3 0x461BCD PUSH1 0xE5 SHL DUP2 MSTORE PUSH1 0x4 ADD PUSH2 0x699 SWAP1 PUSH2 0x1FAB JUMP JUMPDEST PUSH1 0x0 DUP7 MLOAD GT PUSH2 0xAAF JUMPI PUSH1 0x40 MLOAD PUSH3 0x461BCD PUSH1 0xE5 SHL DUP2 MSTORE PUSH1 0x20 PUSH1 0x4 DUP3 ADD MSTORE PUSH1 0x18 PUSH1 0x24 DUP3 ADD MSTORE PUSH32 0x476F7665726E6F723A20656D7074792070726F706F73616C0000000000000000 PUSH1 0x44 DUP3 ADD MSTORE PUSH1 0x64 ADD PUSH2 0x699 JUMP JUMPDEST PUSH1 0x0 DUP2 DUP2 MSTORE PUSH1 0x1 PUSH1 0x20 SWAP1 DUP2 MSTORE PUSH1 0x40 SWAP2 DUP3 SWAP1 KECCAK256 DUP3 MLOAD SWAP2 DUP3 ADD SWAP1 SWAP3 MSTORE DUP2 SLOAD PUSH1 0x1 PUSH1 0x1 PUSH1 0x40 SHL SUB AND SWAP1 DUP2 SWAP1 MSTORE ISZERO PUSH2 0xB2F JUMPI PUSH1 0x40 MLOAD PUSH3 0x461BCD PUSH1 0xE5 SHL DUP2 MSTORE PUSH1 0x20 PUSH1 0x4 DUP3 ADD MSTORE PUSH1 0x21 PUSH1 0x24 DUP3 ADD MSTORE PUSH32 0x476F7665726E6F723A2070726F706F73616C20616C7265616479206578697374 PUSH1 0x44 DUP3 ADD MSTORE PUSH1 0x73 PUSH1 0xF8 SHL PUSH1 0x64 DUP3 ADD MSTORE PUSH1 0x84 ADD PUSH2 0x699 JUMP JUMPDEST PUSH1 0x0 PUSH2 0xB3B PUSH1 0x4 PUSH2 0x1120 JUMP JUMPDEST PUSH2 0xB44 NUMBER PUSH2 0x1120 JUMP JUMPDEST PUSH2 0xB4E SWAP2 SWAP1 PUSH2 0x1FEC JUMP JUMPDEST SWAP1 POP PUSH1 0x0 PUSH2 0xB5C PUSH1 0x10 PUSH2 0x1120 JUMP JUMPDEST PUSH2 0xB66 SWAP1 DUP4 PUSH2 0x1FEC JUMP JUMPDEST DUP4 SLOAD PUSH8 0xFFFFFFFFFFFFFFFF NOT AND PUSH1 0x1 PUSH1 0x1 PUSH1 0x40 SHL SUB DUP5 AND OR DUP5 SSTORE SWAP1 POP PUSH1 0x1 DUP4 ADD DUP1 SLOAD PUSH8 0xFFFFFFFFFFFFFFFF NOT AND PUSH1 0x1 PUSH1 0x1 PUSH1 0x40 SHL SUB DUP4 AND OR SWAP1 SSTORE PUSH32 0x7D84A6263AE0D98D3329BD7B46BB4E8D6F98CD35A7ADB45C274C8B7FD5EBD5E0 DUP5 CALLER DUP12 DUP12 DUP14 MLOAD PUSH1 0x1 PUSH1 0x1 PUSH1 0x40 SHL SUB DUP2 GT ISZERO PUSH2 0xBDE JUMPI PUSH2 0xBDE PUSH2 0x19A6 JUMP JUMPDEST PUSH1 0x40 MLOAD SWAP1 DUP1 DUP3 MSTORE DUP1 PUSH1 0x20 MUL PUSH1 0x20 ADD DUP3 ADD PUSH1 0x40 MSTORE DUP1 ISZERO PUSH2 0xC11 JUMPI DUP2 PUSH1 0x20 ADD JUMPDEST PUSH1 0x60 DUP2 MSTORE PUSH1 0x20 ADD SWAP1 PUSH1 0x1 SWAP1 SUB SWAP1 DUP2 PUSH2 0xBFC JUMPI SWAP1 POP JUMPDEST POP DUP13 DUP9 DUP9 DUP15 PUSH1 0x40 MLOAD PUSH2 0xC2B SWAP10 SWAP9 SWAP8 SWAP7 SWAP6 SWAP5 SWAP4 SWAP3 SWAP2 SWAP1 PUSH2 0x20DD JUMP JUMPDEST PUSH1 0x40 MLOAD DUP1 SWAP2 SUB SWAP1 LOG1 POP SWAP2 SWAP8 SWAP7 POP POP POP POP POP POP POP JUMP JUMPDEST PUSH1 0x0 DUP2 DUP2 MSTORE PUSH1 0x1 PUSH1 0x20 DUP2 DUP2 MSTORE PUSH1 0x40 DUP1 DUP5 KECCAK256 DUP2 MLOAD SWAP3 DUP4 ADD SWAP1 SWAP2 MSTORE SWAP1 SWAP2 ADD SLOAD PUSH1 0x1 PUSH1 0x1 PUSH1 0x40 SHL SUB AND SWAP1 DUP2 SWAP1 MSTORE PUSH2 0x732 JUMP JUMPDEST CALLER ADDRESS EQ PUSH2 0xCBE JUMPI PUSH1 0x40 MLOAD PUSH3 0x461BCD PUSH1 0xE5 SHL DUP2 MSTORE PUSH1 0x20 PUSH1 0x4 DUP3 ADD MSTORE PUSH1 0x18 PUSH1 0x24 DUP3 ADD MSTORE PUSH32 0x476F7665726E6F723A206F6E6C79476F7665726E616E63650000000000000000 PUSH1 0x44 DUP3 ADD MSTORE PUSH1 0x64 ADD PUSH2 0x699 JUMP JUMPDEST PUSH2 0xD00 DUP5 DUP4 DUP4 DUP1 DUP1 PUSH1 0x1F ADD PUSH1 0x20 DUP1 SWAP2 DIV MUL PUSH1 0x20 ADD PUSH1 0x40 MLOAD SWAP1 DUP2 ADD PUSH1 0x40 MSTORE DUP1 SWAP4 SWAP3 SWAP2 SWAP1 DUP2 DUP2 MSTORE PUSH1 0x20 ADD DUP4 DUP4 DUP1 DUP3 DUP5 CALLDATACOPY PUSH1 0x0 SWAP3 ADD SWAP2 SWAP1 SWAP2 MSTORE POP DUP9 SWAP3 POP PUSH2 0x118C SWAP2 POP POP JUMP JUMPDEST POP POP POP POP POP JUMP JUMPDEST PUSH1 0x0 DUP5 DUP5 DUP5 DUP5 PUSH1 0x40 MLOAD PUSH1 0x20 ADD PUSH2 0xD20 SWAP5 SWAP4 SWAP3 SWAP2 SWAP1 PUSH2 0x21CC JUMP JUMPDEST PUSH1 0x40 DUP1 MLOAD PUSH1 0x1F NOT DUP2 DUP5 SUB ADD DUP2 MSTORE SWAP2 SWAP1 MSTORE DUP1 MLOAD PUSH1 0x20 SWAP1 SWAP2 ADD KECCAK256 SWAP6 SWAP5 POP POP POP POP POP JUMP JUMPDEST PUSH1 0x0 PUSH2 0xD4D DUP4 DUP4 PUSH2 0x11B2 JUMP JUMPDEST SWAP4 SWAP3 POP POP POP JUMP JUMPDEST PUSH1 0x0 PUSH1 0x40 MLOAD DUP1 PUSH1 0x60 ADD PUSH1 0x40 MSTORE DUP1 PUSH1 0x27 DUP2 MSTORE PUSH1 0x20 ADD PUSH2 0x22D3 PUSH1 0x27 SWAP2 CODECOPY SWAP1 POP PUSH1 0x0 JUMPDEST DUP6 MLOAD DUP2 LT ISZERO PUSH2 0xE4A JUMPI PUSH1 0x0 DUP1 DUP8 DUP4 DUP2 MLOAD DUP2 LT PUSH2 0xD92 JUMPI PUSH2 0xD92 PUSH2 0x2217 JUMP JUMPDEST PUSH1 0x20 MUL PUSH1 0x20 ADD ADD MLOAD PUSH1 0x1 PUSH1 0x1 PUSH1 0xA0 SHL SUB AND DUP8 DUP5 DUP2 MLOAD DUP2 LT PUSH2 0xDB5 JUMPI PUSH2 0xDB5 PUSH2 0x2217 JUMP JUMPDEST PUSH1 0x20 MUL PUSH1 0x20 ADD ADD MLOAD DUP8 DUP6 DUP2 MLOAD DUP2 LT PUSH2 0xDCF JUMPI PUSH2 0xDCF PUSH2 0x2217 JUMP JUMPDEST PUSH1 0x20 MUL PUSH1 0x20 ADD ADD MLOAD PUSH1 0x40 MLOAD PUSH2 0xDE4 SWAP2 SWAP1 PUSH2 0x222D JUMP JUMPDEST PUSH1 0x0 PUSH1 0x40 MLOAD DUP1 DUP4 SUB DUP2 DUP6 DUP8 GAS CALL SWAP3 POP POP POP RETURNDATASIZE DUP1 PUSH1 0x0 DUP2 EQ PUSH2 0xE21 JUMPI PUSH1 0x40 MLOAD SWAP2 POP PUSH1 0x1F NOT PUSH1 0x3F RETURNDATASIZE ADD AND DUP3 ADD PUSH1 0x40 MSTORE RETURNDATASIZE DUP3 MSTORE RETURNDATASIZE PUSH1 0x0 PUSH1 0x20 DUP5 ADD RETURNDATACOPY PUSH2 0xE26 JUMP JUMPDEST PUSH1 0x60 SWAP2 POP JUMPDEST POP SWAP2 POP SWAP2 POP PUSH2 0xE36 DUP3 DUP3 DUP7 PUSH2 0x125D JUMP JUMPDEST POP POP POP DUP1 PUSH2 0xE43 SWAP1 PUSH2 0x2249 JUMP JUMPDEST SWAP1 POP PUSH2 0xD74 JUMP JUMPDEST POP POP POP POP POP POP POP JUMP JUMPDEST PUSH1 0x0 PUSH2 0x560 PUSH2 0xE60 PUSH2 0x1296 JUMP JUMPDEST DUP4 PUSH1 0x40 MLOAD PUSH2 0x1901 PUSH1 0xF0 SHL PUSH1 0x20 DUP3 ADD MSTORE PUSH1 0x22 DUP2 ADD DUP4 SWAP1 MSTORE PUSH1 0x42 DUP2 ADD DUP3 SWAP1 MSTORE PUSH1 0x0 SWAP1 PUSH1 0x62 ADD PUSH1 0x40 MLOAD PUSH1 0x20 DUP2 DUP4 SUB SUB DUP2 MSTORE SWAP1 PUSH1 0x40 MSTORE DUP1 MLOAD SWAP1 PUSH1 0x20 ADD KECCAK256 SWAP1 POP SWAP3 SWAP2 POP POP JUMP JUMPDEST PUSH1 0x0 DUP1 PUSH1 0x0 PUSH2 0xEB2 DUP8 DUP8 DUP8 DUP8 PUSH2 0x13BD JUMP JUMPDEST SWAP2 POP SWAP2 POP PUSH2 0x700 DUP2 PUSH2 0x14AA JUMP JUMPDEST PUSH1 0x0 DUP5 DUP2 MSTORE PUSH1 0x1 PUSH1 0x20 DUP2 SWAP1 MSTORE PUSH1 0x40 DUP3 KECCAK256 SWAP1 PUSH2 0xED9 DUP8 PUSH2 0x7D5 JUMP JUMPDEST PUSH1 0x7 DUP2 GT ISZERO PUSH2 0xEEA JUMPI PUSH2 0xEEA PUSH2 0x1CEA JUMP JUMPDEST EQ PUSH2 0xF43 JUMPI PUSH1 0x40 MLOAD PUSH3 0x461BCD PUSH1 0xE5 SHL DUP2 MSTORE PUSH1 0x20 PUSH1 0x4 DUP3 ADD MSTORE PUSH1 0x23 PUSH1 0x24 DUP3 ADD MSTORE PUSH32 0x476F7665726E6F723A20766F7465206E6F742063757272656E746C7920616374 PUSH1 0x44 DUP3 ADD MSTORE PUSH3 0x697665 PUSH1 0xE8 SHL PUSH1 0x64 DUP3 ADD MSTORE PUSH1 0x84 ADD PUSH2 0x699 JUMP JUMPDEST PUSH1 0x40 DUP1 MLOAD PUSH1 0x20 DUP2 ADD SWAP1 SWAP2 MSTORE DUP2 SLOAD PUSH1 0x1 PUSH1 0x1 PUSH1 0x40 SHL SUB AND SWAP1 DUP2 SWAP1 MSTORE PUSH1 0x0 SWAP1 PUSH2 0xF6B SWAP1 DUP8 SWAP1 PUSH2 0xD41 JUMP JUMPDEST SWAP1 POP PUSH2 0xF79 DUP8 DUP8 DUP8 DUP5 PUSH2 0x1668 JUMP JUMPDEST DUP6 PUSH1 0x1 PUSH1 0x1 PUSH1 0xA0 SHL SUB AND PUSH32 0xB8E138887D0AA13BAB447E82DE9D5C1777041ECD21CA36BA824FF1E6C07DDDA4 DUP9 DUP8 DUP5 DUP9 PUSH1 0x40 MLOAD PUSH2 0xFB8 SWAP5 SWAP4 SWAP3 SWAP2 SWAP1 PUSH2 0x2264 JUMP JUMPDEST PUSH1 0x40 MLOAD DUP1 SWAP2 SUB SWAP1 LOG2 SWAP7 SWAP6 POP POP POP POP POP POP JUMP JUMPDEST PUSH1 0x0 DUP2 DUP2 MSTORE PUSH1 0x2 PUSH1 0x20 DUP2 SWAP1 MSTORE PUSH1 0x40 DUP3 KECCAK256 SWAP1 DUP2 ADD SLOAD PUSH1 0x1 DUP3 ADD SLOAD PUSH2 0xFED SWAP2 SWAP1 PUSH2 0x228C JUMP JUMPDEST PUSH2 0xFF9 PUSH2 0x4DD DUP6 PUSH2 0x70A JUMP JUMPDEST GT ISZERO SWAP4 SWAP3 POP POP POP JUMP JUMPDEST PUSH1 0x0 DUP1 PUSH2 0x1011 DUP7 DUP7 DUP7 DUP7 PUSH2 0xD07 JUMP JUMPDEST SWAP1 POP PUSH1 0x0 PUSH2 0x101E DUP3 PUSH2 0x7D5 JUMP JUMPDEST SWAP1 POP PUSH1 0x2 DUP2 PUSH1 0x7 DUP2 GT ISZERO PUSH2 0x1034 JUMPI PUSH2 0x1034 PUSH2 0x1CEA JUMP JUMPDEST EQ ISZERO DUP1 ISZERO PUSH2 0x1054 JUMPI POP PUSH1 0x6 DUP2 PUSH1 0x7 DUP2 GT ISZERO PUSH2 0x1051 JUMPI PUSH2 0x1051 PUSH2 0x1CEA JUMP JUMPDEST EQ ISZERO JUMPDEST DUP1 ISZERO PUSH2 0x1072 JUMPI POP PUSH1 0x7 DUP2 PUSH1 0x7 DUP2 GT ISZERO PUSH2 0x106F JUMPI PUSH2 0x106F PUSH2 0x1CEA JUMP JUMPDEST EQ ISZERO JUMPDEST PUSH2 0x10BE JUMPI PUSH1 0x40 MLOAD PUSH3 0x461BCD PUSH1 0xE5 SHL DUP2 MSTORE PUSH1 0x20 PUSH1 0x4 DUP3 ADD MSTORE PUSH1 0x1D PUSH1 0x24 DUP3 ADD MSTORE PUSH32 0x476F7665726E6F723A2070726F706F73616C206E6F7420616374697665000000 PUSH1 0x44 DUP3 ADD MSTORE PUSH1 0x64 ADD PUSH2 0x699 JUMP JUMPDEST PUSH1 0x0 DUP3 DUP2 MSTORE PUSH1 0x1 PUSH1 0x20 MSTORE PUSH1 0x40 SWAP1 DUP2 SWAP1 KECCAK256 PUSH1 0x2 ADD DUP1 SLOAD PUSH2 0xFF00 NOT AND PUSH2 0x100 OR SWAP1 SSTORE MLOAD PUSH32 0x789CF55BE980739DAD1D0699B93B58E806B51C9D96619BFA8FE0A28ABAA7B30C SWAP1 PUSH2 0x110E SWAP1 DUP5 DUP2 MSTORE PUSH1 0x20 ADD SWAP1 JUMP JUMPDEST PUSH1 0x40 MLOAD DUP1 SWAP2 SUB SWAP1 LOG1 POP SWAP6 SWAP5 POP POP POP POP POP JUMP JUMPDEST PUSH1 0x0 PUSH1 0x1 PUSH1 0x1 PUSH1 0x40 SHL SUB DUP3 GT ISZERO PUSH2 0x1188 JUMPI PUSH1 0x40 MLOAD PUSH3 0x461BCD PUSH1 0xE5 SHL DUP2 MSTORE PUSH1 0x20 PUSH1 0x4 DUP3 ADD MSTORE PUSH1 0x26 PUSH1 0x24 DUP3 ADD MSTORE PUSH32 0x53616665436173743A2076616C756520646F65736E27742066697420696E2036 PUSH1 0x44 DUP3 ADD MSTORE PUSH6 0x342062697473 PUSH1 0xD0 SHL PUSH1 0x64 DUP3 ADD MSTORE PUSH1 0x84 ADD PUSH2 0x699 JUMP JUMPDEST POP SWAP1 JUMP JUMPDEST PUSH1 0x60 PUSH2 0x919 DUP5 DUP5 DUP5 PUSH1 0x40 MLOAD DUP1 PUSH1 0x60 ADD PUSH1 0x40 MSTORE DUP1 PUSH1 0x29 DUP2 MSTORE PUSH1 0x20 ADD PUSH2 0x22FA PUSH1 0x29 SWAP2 CODECOPY PUSH2 0x17E7 JUMP JUMPDEST PUSH1 0x40 MLOAD PUSH4 0x782D6FE1 PUSH1 0xE0 SHL DUP2 MSTORE PUSH1 0x1 PUSH1 0x1 PUSH1 0xA0 SHL SUB DUP4 DUP2 AND PUSH1 0x4 DUP4 ADD MSTORE PUSH1 0x24 DUP3 ADD DUP4 SWAP1 MSTORE PUSH1 0x0 SWAP2 PUSH32 0x0 SWAP1 SWAP2 AND SWAP1 PUSH4 0x782D6FE1 SWAP1 PUSH1 0x44 ADD PUSH1 0x20 PUSH1 0x40 MLOAD DUP1 DUP4 SUB DUP2 DUP7 GAS STATICCALL ISZERO DUP1 ISZERO PUSH2 0x1224 JUMPI RETURNDATASIZE PUSH1 0x0 DUP1 RETURNDATACOPY RETURNDATASIZE PUSH1 0x0 REVERT JUMPDEST POP POP POP POP PUSH1 0x40 MLOAD RETURNDATASIZE PUSH1 0x1F NOT PUSH1 0x1F DUP3 ADD AND DUP3 ADD DUP1 PUSH1 0x40 MSTORE POP DUP2 ADD SWAP1 PUSH2 0x1248 SWAP2 SWAP1 PUSH2 0x22A4 JUMP JUMPDEST PUSH12 0xFFFFFFFFFFFFFFFFFFFFFFFF AND SWAP4 SWAP3 POP POP POP JUMP JUMPDEST PUSH1 0x60 DUP4 ISZERO PUSH2 0x126C JUMPI POP DUP2 PUSH2 0xD4D JUMP JUMPDEST DUP3 MLOAD ISZERO PUSH2 0x127C JUMPI DUP3 MLOAD DUP1 DUP5 PUSH1 0x20 ADD REVERT JUMPDEST DUP2 PUSH1 0x40 MLOAD PUSH3 0x461BCD PUSH1 0xE5 SHL DUP2 MSTORE PUSH1 0x4 ADD PUSH2 0x699 SWAP2 SWAP1 PUSH2 0x1993 JUMP JUMPDEST PUSH1 0x0 ADDRESS PUSH1 0x1 PUSH1 0x1 PUSH1 0xA0 SHL SUB PUSH32 0x0 AND EQ DUP1 ISZERO PUSH2 0x12EF JUMPI POP PUSH32 0x0 CHAINID EQ JUMPDEST ISZERO PUSH2 0x1319 JUMPI POP PUSH32 0x0 SWAP1 JUMP JUMPDEST POP PUSH1 0x40 DUP1 MLOAD PUSH32 0x0 PUSH1 0x20 DUP1 DUP4 ADD SWAP2 SWAP1 SWAP2 MSTORE PUSH32 0x0 DUP3 DUP5 ADD MSTORE PUSH32 0x0 PUSH1 0x60 DUP4 ADD MSTORE CHAINID PUSH1 0x80 DUP4 ADD MSTORE ADDRESS PUSH1 0xA0 DUP1 DUP5 ADD SWAP2 SWAP1 SWAP2 MSTORE DUP4 MLOAD DUP1 DUP5 SUB SWAP1 SWAP2 ADD DUP2 MSTORE PUSH1 0xC0 SWAP1 SWAP3 ADD SWAP1 SWAP3 MSTORE DUP1 MLOAD SWAP2 ADD KECCAK256 SWAP1 JUMP JUMPDEST PUSH1 0x0 DUP1 PUSH32 0x7FFFFFFFFFFFFFFFFFFFFFFFFFFFFFFF5D576E7357A4501DDFE92F46681B20A0 DUP4 GT ISZERO PUSH2 0x13F4 JUMPI POP PUSH1 0x0 SWAP1 POP PUSH1 0x3 PUSH2 0x14A1 JUMP JUMPDEST DUP5 PUSH1 0xFF AND PUSH1 0x1B EQ ISZERO DUP1 ISZERO PUSH2 0x140C JUMPI POP DUP5 PUSH1 0xFF AND PUSH1 0x1C EQ ISZERO JUMPDEST ISZERO PUSH2 0x141D JUMPI POP PUSH1 0x0 SWAP1 POP PUSH1 0x4 PUSH2 0x14A1 JUMP JUMPDEST PUSH1 0x40 DUP1 MLOAD PUSH1 0x0 DUP1 DUP3 MSTORE PUSH1 0x20 DUP3 ADD DUP1 DUP5 MSTORE DUP10 SWAP1 MSTORE PUSH1 0xFF DUP9 AND SWAP3 DUP3 ADD SWAP3 SWAP1 SWAP3 MSTORE PUSH1 0x60 DUP2 ADD DUP7 SWAP1 MSTORE PUSH1 0x80 DUP2 ADD DUP6 SWAP1 MSTORE PUSH1 0x1 SWAP1 PUSH1 0xA0 ADD PUSH1 0x20 PUSH1 0x40 MLOAD PUSH1 0x20 DUP2 SUB SWAP1 DUP1 DUP5 SUB SWAP1 DUP6 GAS STATICCALL ISZERO DUP1 ISZERO PUSH2 0x1471 JUMPI RETURNDATASIZE PUSH1 0x0 DUP1 RETURNDATACOPY RETURNDATASIZE PUSH1 0x0 REVERT JUMPDEST POP POP PUSH1 0x40 MLOAD PUSH1 0x1F NOT ADD MLOAD SWAP2 POP POP PUSH1 0x1 PUSH1 0x1 PUSH1 0xA0 SHL SUB DUP2 AND PUSH2 0x149A JUMPI PUSH1 0x0 PUSH1 0x1 SWAP3 POP SWAP3 POP POP PUSH2 0x14A1 JUMP JUMPDEST SWAP2 POP PUSH1 0x0 SWAP1 POP JUMPDEST SWAP5 POP SWAP5 SWAP3 POP POP POP JUMP JUMPDEST PUSH1 0x0 DUP2 PUSH1 0x4 DUP2 GT ISZERO PUSH2 0x14BE JUMPI PUSH2 0x14BE PUSH2 0x1CEA JUMP JUMPDEST EQ ISZERO PUSH2 0x14C7 JUMPI POP JUMP JUMPDEST PUSH1 0x1 DUP2 PUSH1 0x4 DUP2 GT ISZERO PUSH2 0x14DB JUMPI PUSH2 0x14DB PUSH2 0x1CEA JUMP JUMPDEST EQ ISZERO PUSH2 0x1529 JUMPI PUSH1 0x40 MLOAD PUSH3 0x461BCD PUSH1 0xE5 SHL DUP2 MSTORE PUSH1 0x20 PUSH1 0x4 DUP3 ADD MSTORE PUSH1 0x18 PUSH1 0x24 DUP3 ADD MSTORE PUSH32 0x45434453413A20696E76616C6964207369676E61747572650000000000000000 PUSH1 0x44 DUP3 ADD MSTORE PUSH1 0x64 ADD PUSH2 0x699 JUMP JUMPDEST PUSH1 0x2 DUP2 PUSH1 0x4 DUP2 GT ISZERO PUSH2 0x153D JUMPI PUSH2 0x153D PUSH2 0x1CEA JUMP JUMPDEST EQ ISZERO PUSH2 0x158B JUMPI PUSH1 0x40 MLOAD PUSH3 0x461BCD PUSH1 0xE5 SHL DUP2 MSTORE PUSH1 0x20 PUSH1 0x4 DUP3 ADD MSTORE PUSH1 0x1F PUSH1 0x24 DUP3 ADD MSTORE PUSH32 0x45434453413A20696E76616C6964207369676E6174757265206C656E67746800 PUSH1 0x44 DUP3 ADD MSTORE PUSH1 0x64 ADD PUSH2 0x699 JUMP JUMPDEST PUSH1 0x3 DUP2 PUSH1 0x4 DUP2 GT ISZERO PUSH2 0x159F JUMPI PUSH2 0x159F PUSH2 0x1CEA JUMP JUMPDEST EQ ISZERO PUSH2 0x15F8 JUMPI PUSH1 0x40 MLOAD PUSH3 0x461BCD PUSH1 0xE5 SHL DUP2 MSTORE PUSH1 0x20 PUSH1 0x4 DUP3 ADD MSTORE PUSH1 0x22 PUSH1 0x24 DUP3 ADD MSTORE PUSH32 0x45434453413A20696E76616C6964207369676E6174757265202773272076616C PUSH1 0x44 DUP3 ADD MSTORE PUSH2 0x7565 PUSH1 0xF0 SHL PUSH1 0x64 DUP3 ADD MSTORE PUSH1 0x84 ADD PUSH2 0x699 JUMP JUMPDEST PUSH1 0x4 DUP2 PUSH1 0x4 DUP2 GT ISZERO PUSH2 0x160C JUMPI PUSH2 0x160C PUSH2 0x1CEA JUMP JUMPDEST EQ ISZERO PUSH2 0x1665 JUMPI PUSH1 0x40 MLOAD PUSH3 0x461BCD PUSH1 0xE5 SHL DUP2 MSTORE PUSH1 0x20 PUSH1 0x4 DUP3 ADD MSTORE PUSH1 0x22 PUSH1 0x24 DUP3 ADD MSTORE PUSH32 0x45434453413A20696E76616C6964207369676E6174757265202776272076616C PUSH1 0x44 DUP3 ADD MSTORE PUSH2 0x7565 PUSH1 0xF0 SHL PUSH1 0x64 DUP3 ADD MSTORE PUSH1 0x84 ADD PUSH2 0x699 JUMP JUMPDEST POP JUMP JUMPDEST PUSH1 0x0 DUP5 DUP2 MSTORE PUSH1 0x2 PUSH1 0x20 SWAP1 DUP2 MSTORE PUSH1 0x40 DUP1 DUP4 KECCAK256 PUSH1 0x1 PUSH1 0x1 PUSH1 0xA0 SHL SUB DUP8 AND DUP5 MSTORE PUSH1 0x3 DUP2 ADD SWAP1 SWAP3 MSTORE SWAP1 SWAP2 KECCAK256 SLOAD PUSH1 0xFF AND ISZERO PUSH2 0x16F0 JUMPI PUSH1 0x40 MLOAD PUSH3 0x461BCD PUSH1 0xE5 SHL DUP2 MSTORE PUSH1 0x20 PUSH1 0x4 DUP3 ADD MSTORE PUSH1 0x27 PUSH1 0x24 DUP3 ADD MSTORE PUSH32 0x476F7665726E6F72566F74696E6753696D706C653A20766F746520616C726561 PUSH1 0x44 DUP3 ADD MSTORE PUSH7 0x191E4818D85CDD PUSH1 0xCA SHL PUSH1 0x64 DUP3 ADD MSTORE PUSH1 0x84 ADD PUSH2 0x699 JUMP JUMPDEST PUSH1 0x1 PUSH1 0x1 PUSH1 0xA0 SHL SUB DUP5 AND PUSH1 0x0 SWAP1 DUP2 MSTORE PUSH1 0x3 DUP3 ADD PUSH1 0x20 MSTORE PUSH1 0x40 DUP2 KECCAK256 DUP1 SLOAD PUSH1 0xFF NOT AND PUSH1 0x1 OR SWAP1 SSTORE PUSH1 0xFF AND DUP4 PUSH1 0xFF AND EQ ISZERO PUSH2 0x1741 JUMPI DUP2 DUP2 PUSH1 0x0 ADD PUSH1 0x0 DUP3 DUP3 SLOAD PUSH2 0x1736 SWAP2 SWAP1 PUSH2 0x228C JUMP JUMPDEST SWAP1 SWAP2 SSTORE POP PUSH2 0xD00 SWAP1 POP JUMP JUMPDEST PUSH1 0xFF DUP4 AND PUSH1 0x1 EQ ISZERO PUSH2 0x1761 JUMPI DUP2 DUP2 PUSH1 0x1 ADD PUSH1 0x0 DUP3 DUP3 SLOAD PUSH2 0x1736 SWAP2 SWAP1 PUSH2 0x228C JUMP JUMPDEST PUSH1 0xFF DUP4 AND PUSH1 0x2 EQ ISZERO PUSH2 0x1781 JUMPI DUP2 DUP2 PUSH1 0x2 ADD PUSH1 0x0 DUP3 DUP3 SLOAD PUSH2 0x1736 SWAP2 SWAP1 PUSH2 0x228C JUMP JUMPDEST PUSH1 0x40 MLOAD PUSH3 0x461BCD PUSH1 0xE5 SHL DUP2 MSTORE PUSH1 0x20 PUSH1 0x4 DUP3 ADD MSTORE PUSH1 0x35 PUSH1 0x24 DUP3 ADD MSTORE PUSH32 0x476F7665726E6F72566F74696E6753696D706C653A20696E76616C6964207661 PUSH1 0x44 DUP3 ADD MSTORE PUSH21 0x6C756520666F7220656E756D20566F746554797065 PUSH1 0x58 SHL PUSH1 0x64 DUP3 ADD MSTORE PUSH1 0x84 ADD PUSH2 0x699 JUMP JUMPDEST PUSH1 0x60 DUP3 SELFBALANCE LT ISZERO PUSH2 0x1848 JUMPI PUSH1 0x40 MLOAD PUSH3 0x461BCD PUSH1 0xE5 SHL DUP2 MSTORE PUSH1 0x20 PUSH1 0x4 DUP3 ADD MSTORE PUSH1 0x26 PUSH1 0x24 DUP3 ADD MSTORE PUSH32 0x416464726573733A20696E73756666696369656E742062616C616E636520666F PUSH1 0x44 DUP3 ADD MSTORE PUSH6 0x1C8818D85B1B PUSH1 0xD2 SHL PUSH1 0x64 DUP3 ADD MSTORE PUSH1 0x84 ADD PUSH2 0x699 JUMP JUMPDEST PUSH1 0x1 PUSH1 0x1 PUSH1 0xA0 SHL SUB DUP6 AND EXTCODESIZE PUSH2 0x189F JUMPI PUSH1 0x40 MLOAD PUSH3 0x461BCD PUSH1 0xE5 SHL DUP2 MSTORE PUSH1 0x20 PUSH1 0x4 DUP3 ADD MSTORE PUSH1 0x1D PUSH1 0x24 DUP3 ADD MSTORE PUSH32 0x416464726573733A2063616C6C20746F206E6F6E2D636F6E7472616374000000 PUSH1 0x44 DUP3 ADD MSTORE PUSH1 0x64 ADD PUSH2 0x699 JUMP JUMPDEST PUSH1 0x0 DUP1 DUP7 PUSH1 0x1 PUSH1 0x1 PUSH1 0xA0 SHL SUB AND DUP6 DUP8 PUSH1 0x40 MLOAD PUSH2 0x18BB SWAP2 SWAP1 PUSH2 0x222D JUMP JUMPDEST PUSH1 0x0 PUSH1 0x40 MLOAD DUP1 DUP4 SUB DUP2 DUP6 DUP8 GAS CALL SWAP3 POP POP POP RETURNDATASIZE DUP1 PUSH1 0x0 DUP2 EQ PUSH2 0x18F8 JUMPI PUSH1 0x40 MLOAD SWAP2 POP PUSH1 0x1F NOT PUSH1 0x3F RETURNDATASIZE ADD AND DUP3 ADD PUSH1 0x40 MSTORE RETURNDATASIZE DUP3 MSTORE RETURNDATASIZE PUSH1 0x0 PUSH1 0x20 DUP5 ADD RETURNDATACOPY PUSH2 0x18FD JUMP JUMPDEST PUSH1 0x60 SWAP2 POP JUMPDEST POP SWAP2 POP SWAP2 POP PUSH2 0x7CA DUP3 DUP3 DUP7 PUSH2 0x125D JUMP JUMPDEST PUSH1 0x0 PUSH1 0x20 DUP3 DUP5 SUB SLT ISZERO PUSH2 0x191F JUMPI PUSH1 0x0 DUP1 REVERT JUMPDEST DUP2 CALLDATALOAD PUSH1 0x1 PUSH1 0x1 PUSH1 0xE0 SHL SUB NOT DUP2 AND DUP2 EQ PUSH2 0xD4D JUMPI PUSH1 0x0 DUP1 REVERT JUMPDEST PUSH1 0x0 JUMPDEST DUP4 DUP2 LT ISZERO PUSH2 0x1952 JUMPI DUP2 DUP2 ADD MLOAD DUP4 DUP3 ADD MSTORE PUSH1 0x20 ADD PUSH2 0x193A JUMP JUMPDEST DUP4 DUP2 GT ISZERO PUSH2 0x1961 JUMPI PUSH1 0x0 DUP5 DUP5 ADD MSTORE JUMPDEST POP POP POP POP JUMP JUMPDEST PUSH1 0x0 DUP2 MLOAD DUP1 DUP5 MSTORE PUSH2 0x197F DUP2 PUSH1 0x20 DUP7 ADD PUSH1 0x20 DUP7 ADD PUSH2 0x1937 JUMP JUMPDEST PUSH1 0x1F ADD PUSH1 0x1F NOT AND SWAP3 SWAP1 SWAP3 ADD PUSH1 0x20 ADD SWAP3 SWAP2 POP POP JUMP JUMPDEST PUSH1 0x20 DUP2 MSTORE PUSH1 0x0 PUSH2 0xD4D PUSH1 0x20 DUP4 ADD DUP5 PUSH2 0x1967 JUMP JUMPDEST PUSH4 0x4E487B71 PUSH1 0xE0 SHL PUSH1 0x0 MSTORE PUSH1 0x41 PUSH1 0x4 MSTORE PUSH1 0x24 PUSH1 0x0 REVERT JUMPDEST PUSH1 0x40 MLOAD PUSH1 0x1F DUP3 ADD PUSH1 0x1F NOT AND DUP2 ADD PUSH1 0x1 PUSH1 0x1 PUSH1 0x40 SHL SUB DUP2 GT DUP3 DUP3 LT OR ISZERO PUSH2 0x19E4 JUMPI PUSH2 0x19E4 PUSH2 0x19A6 JUMP JUMPDEST PUSH1 0x40 MSTORE SWAP2 SWAP1 POP JUMP JUMPDEST PUSH1 0x0 PUSH1 0x1 PUSH1 0x1 PUSH1 0x40 SHL SUB DUP3 GT ISZERO PUSH2 0x1A05 JUMPI PUSH2 0x1A05 PUSH2 0x19A6 JUMP JUMPDEST POP PUSH1 0x5 SHL PUSH1 0x20 ADD SWAP1 JUMP JUMPDEST DUP1 CALLDATALOAD PUSH1 0x1 PUSH1 0x1 PUSH1 0xA0 SHL SUB DUP2 AND DUP2 EQ PUSH2 0x1A26 JUMPI PUSH1 0x0 DUP1 REVERT JUMPDEST SWAP2 SWAP1 POP JUMP JUMPDEST PUSH1 0x0 DUP3 PUSH1 0x1F DUP4 ADD SLT PUSH2 0x1A3C JUMPI PUSH1 0x0 DUP1 REVERT JUMPDEST DUP2 CALLDATALOAD PUSH1 0x20 PUSH2 0x1A51 PUSH2 0x1A4C DUP4 PUSH2 0x19EC JUMP JUMPDEST PUSH2 0x19BC JUMP JUMPDEST DUP3 DUP2 MSTORE PUSH1 0x5 SWAP3 SWAP1 SWAP3 SHL DUP5 ADD DUP2 ADD SWAP2 DUP2 DUP2 ADD SWAP1 DUP7 DUP5 GT ISZERO PUSH2 0x1A70 JUMPI PUSH1 0x0 DUP1 REVERT JUMPDEST DUP3 DUP7 ADD JUMPDEST DUP5 DUP2 LT ISZERO PUSH2 0x1A92 JUMPI PUSH2 0x1A85 DUP2 PUSH2 0x1A0F JUMP JUMPDEST DUP4 MSTORE SWAP2 DUP4 ADD SWAP2 DUP4 ADD PUSH2 0x1A74 JUMP JUMPDEST POP SWAP7 SWAP6 POP POP POP POP POP POP JUMP JUMPDEST PUSH1 0x0 DUP3 PUSH1 0x1F DUP4 ADD SLT PUSH2 0x1AAE JUMPI PUSH1 0x0 DUP1 REVERT JUMPDEST DUP2 CALLDATALOAD PUSH1 0x20 PUSH2 0x1ABE PUSH2 0x1A4C DUP4 PUSH2 0x19EC JUMP JUMPDEST DUP3 DUP2 MSTORE PUSH1 0x5 SWAP3 SWAP1 SWAP3 SHL DUP5 ADD DUP2 ADD SWAP2 DUP2 DUP2 ADD SWAP1 DUP7 DUP5 GT ISZERO PUSH2 0x1ADD JUMPI PUSH1 0x0 DUP1 REVERT JUMPDEST DUP3 DUP7 ADD JUMPDEST DUP5 DUP2 LT ISZERO PUSH2 0x1A92 JUMPI DUP1 CALLDATALOAD DUP4 MSTORE SWAP2 DUP4 ADD SWAP2 DUP4 ADD PUSH2 0x1AE1 JUMP JUMPDEST PUSH1 0x0 PUSH1 0x1 PUSH1 0x1 PUSH1 0x40 SHL SUB DUP4 GT ISZERO PUSH2 0x1B11 JUMPI PUSH2 0x1B11 PUSH2 0x19A6 JUMP JUMPDEST PUSH2 0x1B24 PUSH1 0x1F DUP5 ADD PUSH1 0x1F NOT AND PUSH1 0x20 ADD PUSH2 0x19BC JUMP JUMPDEST SWAP1 POP DUP3 DUP2 MSTORE DUP4 DUP4 DUP4 ADD GT ISZERO PUSH2 0x1B38 JUMPI PUSH1 0x0 DUP1 REVERT JUMPDEST DUP3 DUP3 PUSH1 0x20 DUP4 ADD CALLDATACOPY PUSH1 0x0 PUSH1 0x20 DUP5 DUP4 ADD ADD MSTORE SWAP4 SWAP3 POP POP POP JUMP JUMPDEST PUSH1 0x0 DUP3 PUSH1 0x1F DUP4 ADD SLT PUSH2 0x1B60 JUMPI PUSH1 0x0 DUP1 REVERT JUMPDEST DUP2 CALLDATALOAD PUSH1 0x20 PUSH2 0x1B70 PUSH2 0x1A4C DUP4 PUSH2 0x19EC JUMP JUMPDEST DUP3 DUP2 MSTORE PUSH1 0x5 SWAP3 SWAP1 SWAP3 SHL DUP5 ADD DUP2 ADD SWAP2 DUP2 DUP2 ADD SWAP1 DUP7 DUP5 GT ISZERO PUSH2 0x1B8F JUMPI PUSH1 0x0 DUP1 REVERT JUMPDEST DUP3 DUP7 ADD JUMPDEST DUP5 DUP2 LT ISZERO PUSH2 0x1A92 JUMPI DUP1 CALLDATALOAD PUSH1 0x1 PUSH1 0x1 PUSH1 0x40 SHL SUB DUP2 GT ISZERO PUSH2 0x1BB2 JUMPI PUSH1 0x0 DUP1 DUP2 REVERT JUMPDEST DUP8 ADD PUSH1 0x3F DUP2 ADD DUP10 SGT PUSH2 0x1BC4 JUMPI PUSH1 0x0 DUP1 DUP2 REVERT JUMPDEST PUSH2 0x1BD5 DUP10 DUP7 DUP4 ADD CALLDATALOAD PUSH1 0x40 DUP5 ADD PUSH2 0x1AF8 JUMP JUMPDEST DUP5 MSTORE POP SWAP2 DUP4 ADD SWAP2 DUP4 ADD PUSH2 0x1B93 JUMP JUMPDEST PUSH1 0x0 DUP1 PUSH1 0x0 DUP1 PUSH1 0x80 DUP6 DUP8 SUB SLT ISZERO PUSH2 0x1BF9 JUMPI PUSH1 0x0 DUP1 REVERT JUMPDEST DUP5 CALLDATALOAD PUSH1 0x1 PUSH1 0x1 PUSH1 0x40 SHL SUB DUP1 DUP3 GT ISZERO PUSH2 0x1C10 JUMPI PUSH1 0x0 DUP1 REVERT JUMPDEST PUSH2 0x1C1C DUP9 DUP4 DUP10 ADD PUSH2 0x1A2B JUMP JUMPDEST SWAP6 POP PUSH1 0x20 DUP8 ADD CALLDATALOAD SWAP2 POP DUP1 DUP3 GT ISZERO PUSH2 0x1C32 JUMPI PUSH1 0x0 DUP1 REVERT JUMPDEST PUSH2 0x1C3E DUP9 DUP4 DUP10 ADD PUSH2 0x1A9D JUMP JUMPDEST SWAP5 POP PUSH1 0x40 DUP8 ADD CALLDATALOAD SWAP2 POP DUP1 DUP3 GT ISZERO PUSH2 0x1C54 JUMPI PUSH1 0x0 DUP1 REVERT JUMPDEST POP PUSH2 0x1C61 DUP8 DUP3 DUP9 ADD PUSH2 0x1B4F JUMP JUMPDEST SWAP5 SWAP8 SWAP4 SWAP7 POP SWAP4 SWAP5 PUSH1 0x60 ADD CALLDATALOAD SWAP4 POP POP POP JUMP JUMPDEST PUSH1 0x0 PUSH1 0x20 DUP3 DUP5 SUB SLT ISZERO PUSH2 0x1C84 JUMPI PUSH1 0x0 DUP1 REVERT JUMPDEST POP CALLDATALOAD SWAP2 SWAP1 POP JUMP JUMPDEST DUP1 CALLDATALOAD PUSH1 0xFF DUP2 AND DUP2 EQ PUSH2 0x1A26 JUMPI PUSH1 0x0 DUP1 REVERT JUMPDEST PUSH1 0x0 DUP1 PUSH1 0x0 DUP1 PUSH1 0x0 PUSH1 0xA0 DUP7 DUP9 SUB SLT ISZERO PUSH2 0x1CB4 JUMPI PUSH1 0x0 DUP1 REVERT JUMPDEST DUP6 CALLDATALOAD SWAP5 POP PUSH2 0x1CC4 PUSH1 0x20 DUP8 ADD PUSH2 0x1C8B JUMP JUMPDEST SWAP4 POP PUSH2 0x1CD2 PUSH1 0x40 DUP8 ADD PUSH2 0x1C8B JUMP JUMPDEST SWAP5 SWAP8 SWAP4 SWAP7 POP SWAP4 SWAP5 PUSH1 0x60 DUP2 ADD CALLDATALOAD SWAP5 POP PUSH1 0x80 ADD CALLDATALOAD SWAP3 SWAP2 POP POP JUMP JUMPDEST PUSH4 0x4E487B71 PUSH1 0xE0 SHL PUSH1 0x0 MSTORE PUSH1 0x21 PUSH1 0x4 MSTORE PUSH1 0x24 PUSH1 0x0 REVERT JUMPDEST PUSH1 0x20 DUP2 ADD PUSH1 0x8 DUP4 LT PUSH2 0x1D22 JUMPI PUSH4 0x4E487B71 PUSH1 0xE0 SHL PUSH1 0x0 MSTORE PUSH1 0x21 PUSH1 0x4 MSTORE PUSH1 0x24 PUSH1 0x0 REVERT JUMPDEST SWAP2 SWAP1 MSTORE SWAP1 JUMP JUMPDEST PUSH1 0x0 DUP1 PUSH1 0x40 DUP4 DUP6 SUB SLT ISZERO PUSH2 0x1D3B JUMPI PUSH1 0x0 DUP1 REVERT JUMPDEST DUP3 CALLDATALOAD SWAP2 POP PUSH2 0x1D4B PUSH1 0x20 DUP5 ADD PUSH2 0x1A0F JUMP JUMPDEST SWAP1 POP SWAP3 POP SWAP3 SWAP1 POP JUMP JUMPDEST PUSH1 0x0 DUP1 PUSH1 0x40 DUP4 DUP6 SUB SLT ISZERO PUSH2 0x1D67 JUMPI PUSH1 0x0 DUP1 REVERT JUMPDEST DUP3 CALLDATALOAD SWAP2 POP PUSH2 0x1D4B PUSH1 0x20 DUP5 ADD PUSH2 0x1C8B JUMP JUMPDEST PUSH1 0x0 DUP1 DUP4 PUSH1 0x1F DUP5 ADD SLT PUSH2 0x1D89 JUMPI PUSH1 0x0 DUP1 REVERT JUMPDEST POP DUP2 CALLDATALOAD PUSH1 0x1 PUSH1 0x1 PUSH1 0x40 SHL SUB DUP2 GT ISZERO PUSH2 0x1DA0 JUMPI PUSH1 0x0 DUP1 REVERT JUMPDEST PUSH1 0x20 DUP4 ADD SWAP2 POP DUP4 PUSH1 0x20 DUP3 DUP6 ADD ADD GT ISZERO PUSH2 0x1DB8 JUMPI PUSH1 0x0 DUP1 REVERT JUMPDEST SWAP3 POP SWAP3 SWAP1 POP JUMP JUMPDEST PUSH1 0x0 DUP1 PUSH1 0x0 DUP1 PUSH1 0x60 DUP6 DUP8 SUB SLT ISZERO PUSH2 0x1DD5 JUMPI PUSH1 0x0 DUP1 REVERT JUMPDEST DUP5 CALLDATALOAD SWAP4 POP PUSH2 0x1DE5 PUSH1 0x20 DUP7 ADD PUSH2 0x1C8B JUMP JUMPDEST SWAP3 POP PUSH1 0x40 DUP6 ADD CALLDATALOAD PUSH1 0x1 PUSH1 0x1 PUSH1 0x40 SHL SUB DUP2 GT ISZERO PUSH2 0x1E00 JUMPI PUSH1 0x0 DUP1 REVERT JUMPDEST PUSH2 0x1E0C DUP8 DUP3 DUP9 ADD PUSH2 0x1D77 JUMP JUMPDEST SWAP6 SWAP9 SWAP5 SWAP8 POP SWAP6 POP POP POP POP JUMP JUMPDEST PUSH1 0x0 DUP1 PUSH1 0x0 DUP1 PUSH1 0x80 DUP6 DUP8 SUB SLT ISZERO PUSH2 0x1E2E JUMPI PUSH1 0x0 DUP1 REVERT JUMPDEST DUP5 CALLDATALOAD PUSH1 0x1 PUSH1 0x1 PUSH1 0x40 SHL SUB DUP1 DUP3 GT ISZERO PUSH2 0x1E45 JUMPI PUSH1 0x0 DUP1 REVERT JUMPDEST PUSH2 0x1E51 DUP9 DUP4 DUP10 ADD PUSH2 0x1A2B JUMP JUMPDEST SWAP6 POP PUSH1 0x20 DUP8 ADD CALLDATALOAD SWAP2 POP DUP1 DUP3 GT ISZERO PUSH2 0x1E67 JUMPI PUSH1 0x0 DUP1 REVERT JUMPDEST PUSH2 0x1E73 DUP9 DUP4 DUP10 ADD PUSH2 0x1A9D JUMP JUMPDEST SWAP5 POP PUSH1 0x40 DUP8 ADD CALLDATALOAD SWAP2 POP DUP1 DUP3 GT ISZERO PUSH2 0x1E89 JUMPI PUSH1 0x0 DUP1 REVERT JUMPDEST PUSH2 0x1E95 DUP9 DUP4 DUP10 ADD PUSH2 0x1B4F JUMP JUMPDEST SWAP4 POP PUSH1 0x60 DUP8 ADD CALLDATALOAD SWAP2 POP DUP1 DUP3 GT ISZERO PUSH2 0x1EAB JUMPI PUSH1 0x0 DUP1 REVERT JUMPDEST POP DUP6 ADD PUSH1 0x1F DUP2 ADD DUP8 SGT PUSH2 0x1EBD JUMPI PUSH1 0x0 DUP1 REVERT JUMPDEST PUSH2 0x1ECC DUP8 DUP3 CALLDATALOAD PUSH1 0x20 DUP5 ADD PUSH2 0x1AF8 JUMP JUMPDEST SWAP2 POP POP SWAP3 SWAP6 SWAP2 SWAP5 POP SWAP3 POP JUMP JUMPDEST PUSH1 0x0 DUP1 PUSH1 0x0 DUP1 PUSH1 0x60 DUP6 DUP8 SUB SLT ISZERO PUSH2 0x1EEE JUMPI PUSH1 0x0 DUP1 REVERT JUMPDEST PUSH2 0x1EF7 DUP6 PUSH2 0x1A0F JUMP JUMPDEST SWAP4 POP PUSH1 0x20 DUP6 ADD CALLDATALOAD SWAP3 POP PUSH1 0x40 DUP6 ADD CALLDATALOAD PUSH1 0x1 PUSH1 0x1 PUSH1 0x40 SHL SUB DUP2 GT ISZERO PUSH2 0x1E00 JUMPI PUSH1 0x0 DUP1 REVERT JUMPDEST PUSH1 0x0 DUP1 PUSH1 0x40 DUP4 DUP6 SUB SLT ISZERO PUSH2 0x1F2C JUMPI PUSH1 0x0 DUP1 REVERT JUMPDEST PUSH2 0x1F35 DUP4 PUSH2 0x1A0F JUMP JUMPDEST SWAP5 PUSH1 0x20 SWAP4 SWAP1 SWAP4 ADD CALLDATALOAD SWAP4 POP POP POP JUMP JUMPDEST PUSH1 0x1 DUP2 DUP2 SHR SWAP1 DUP3 AND DUP1 PUSH2 0x1F57 JUMPI PUSH1 0x7F DUP3 AND SWAP2 POP JUMPDEST PUSH1 0x20 DUP3 LT DUP2 EQ ISZERO PUSH2 0x1F78 JUMPI PUSH4 0x4E487B71 PUSH1 0xE0 SHL PUSH1 0x0 MSTORE PUSH1 0x22 PUSH1 0x4 MSTORE PUSH1 0x24 PUSH1 0x0 REVERT JUMPDEST POP SWAP2 SWAP1 POP JUMP JUMPDEST PUSH4 0x4E487B71 PUSH1 0xE0 SHL PUSH1 0x0 MSTORE PUSH1 0x11 PUSH1 0x4 MSTORE PUSH1 0x24 PUSH1 0x0 REVERT JUMPDEST PUSH1 0x0 DUP3 DUP3 LT ISZERO PUSH2 0x1FA6 JUMPI PUSH2 0x1FA6 PUSH2 0x1F7E JUMP JUMPDEST POP SUB SWAP1 JUMP JUMPDEST PUSH1 0x20 DUP1 DUP3 MSTORE PUSH1 0x21 SWAP1 DUP3 ADD MSTORE PUSH32 0x476F7665726E6F723A20696E76616C69642070726F706F73616C206C656E6774 PUSH1 0x40 DUP3 ADD MSTORE PUSH1 0xD PUSH1 0xFB SHL PUSH1 0x60 DUP3 ADD MSTORE PUSH1 0x80 ADD SWAP1 JUMP JUMPDEST PUSH1 0x0 PUSH1 0x1 PUSH1 0x1 PUSH1 0x40 SHL SUB DUP1 DUP4 AND DUP2 DUP6 AND DUP1 DUP4 SUB DUP3 GT ISZERO PUSH2 0x200E JUMPI PUSH2 0x200E PUSH2 0x1F7E JUMP JUMPDEST ADD SWAP5 SWAP4 POP POP POP POP JUMP JUMPDEST PUSH1 0x0 DUP2 MLOAD DUP1 DUP5 MSTORE PUSH1 0x20 DUP1 DUP6 ADD SWAP5 POP DUP1 DUP5 ADD PUSH1 0x0 JUMPDEST DUP4 DUP2 LT ISZERO PUSH2 0x2050 JUMPI DUP2 MLOAD PUSH1 0x1 PUSH1 0x1 PUSH1 0xA0 SHL SUB AND DUP8 MSTORE SWAP6 DUP3 ADD SWAP6 SWAP1 DUP3 ADD SWAP1 PUSH1 0x1 ADD PUSH2 0x202B JUMP JUMPDEST POP SWAP5 SWAP6 SWAP5 POP POP POP POP POP JUMP JUMPDEST PUSH1 0x0 DUP2 MLOAD DUP1 DUP5 MSTORE PUSH1 0x20 DUP1 DUP6 ADD SWAP5 POP DUP1 DUP5 ADD PUSH1 0x0 JUMPDEST DUP4 DUP2 LT ISZERO PUSH2 0x2050 JUMPI DUP2 MLOAD DUP8 MSTORE SWAP6 DUP3 ADD SWAP6 SWAP1 DUP3 ADD SWAP1 PUSH1 0x1 ADD PUSH2 0x206F JUMP JUMPDEST PUSH1 0x0 DUP2 MLOAD DUP1 DUP5 MSTORE PUSH1 0x20 DUP1 DUP6 ADD SWAP5 POP DUP5 DUP3 PUSH1 0x5 SHL DUP7 ADD DUP3 DUP7 ADD PUSH1 0x0 JUMPDEST DUP6 DUP2 LT ISZERO PUSH2 0x20D0 JUMPI DUP4 DUP4 SUB DUP10 MSTORE PUSH2 0x20BE DUP4 DUP4 MLOAD PUSH2 0x1967 JUMP JUMPDEST SWAP9 DUP6 ADD SWAP9 SWAP3 POP SWAP1 DUP5 ADD SWAP1 PUSH1 0x1 ADD PUSH2 0x20A6 JUMP JUMPDEST POP SWAP1 SWAP8 SWAP7 POP POP POP POP POP POP POP JUMP JUMPDEST PUSH1 0x0 PUSH2 0x120 DUP12 DUP4 MSTORE PUSH1 0x20 PUSH1 0x1 DUP1 PUSH1 0xA0 SHL SUB DUP13 AND DUP2 DUP6 ADD MSTORE DUP2 PUSH1 0x40 DUP6 ADD MSTORE PUSH2 0x2106 DUP3 DUP6 ADD DUP13 PUSH2 0x2017 JUMP JUMPDEST SWAP2 POP DUP4 DUP3 SUB PUSH1 0x60 DUP6 ADD MSTORE PUSH2 0x211A DUP3 DUP12 PUSH2 0x205B JUMP JUMPDEST SWAP2 POP DUP4 DUP3 SUB PUSH1 0x80 DUP6 ADD MSTORE DUP2 DUP10 MLOAD DUP1 DUP5 MSTORE DUP3 DUP5 ADD SWAP2 POP DUP3 DUP2 PUSH1 0x5 SHL DUP6 ADD ADD DUP4 DUP13 ADD PUSH1 0x0 JUMPDEST DUP4 DUP2 LT ISZERO PUSH2 0x216B JUMPI PUSH1 0x1F NOT DUP8 DUP5 SUB ADD DUP6 MSTORE PUSH2 0x2159 DUP4 DUP4 MLOAD PUSH2 0x1967 JUMP JUMPDEST SWAP5 DUP7 ADD SWAP5 SWAP3 POP SWAP1 DUP6 ADD SWAP1 PUSH1 0x1 ADD PUSH2 0x213D JUMP JUMPDEST POP POP DUP7 DUP2 SUB PUSH1 0xA0 DUP9 ADD MSTORE PUSH2 0x217F DUP2 DUP13 PUSH2 0x208B JUMP JUMPDEST SWAP5 POP POP POP POP POP PUSH2 0x219A PUSH1 0xC0 DUP5 ADD DUP8 PUSH1 0x1 PUSH1 0x1 PUSH1 0x40 SHL SUB AND SWAP1 MSTORE JUMP JUMPDEST PUSH1 0x1 PUSH1 0x1 PUSH1 0x40 SHL SUB DUP6 AND PUSH1 0xE0 DUP5 ADD MSTORE DUP3 DUP2 SUB PUSH2 0x100 DUP5 ADD MSTORE PUSH2 0x21BC DUP2 DUP6 PUSH2 0x1967 JUMP JUMPDEST SWAP13 SWAP12 POP POP POP POP POP POP POP POP POP POP POP POP JUMP JUMPDEST PUSH1 0x80 DUP2 MSTORE PUSH1 0x0 PUSH2 0x21DF PUSH1 0x80 DUP4 ADD DUP8 PUSH2 0x2017 JUMP JUMPDEST DUP3 DUP2 SUB PUSH1 0x20 DUP5 ADD MSTORE PUSH2 0x21F1 DUP2 DUP8 PUSH2 0x205B JUMP JUMPDEST SWAP1 POP DUP3 DUP2 SUB PUSH1 0x40 DUP5 ADD MSTORE PUSH2 0x2205 DUP2 DUP7 PUSH2 0x208B JUMP JUMPDEST SWAP2 POP POP DUP3 PUSH1 0x60 DUP4 ADD MSTORE SWAP6 SWAP5 POP POP POP POP POP JUMP JUMPDEST PUSH4 0x4E487B71 PUSH1 0xE0 SHL PUSH1 0x0 MSTORE PUSH1 0x32 PUSH1 0x4 MSTORE PUSH1 0x24 PUSH1 0x0 REVERT JUMPDEST PUSH1 0x0 DUP3 MLOAD PUSH2 0x223F DUP2 DUP5 PUSH1 0x20 DUP8 ADD PUSH2 0x1937 JUMP JUMPDEST SWAP2 SWAP1 SWAP2 ADD SWAP3 SWAP2 POP POP JUMP JUMPDEST PUSH1 0x0 PUSH1 0x0 NOT DUP3 EQ ISZERO PUSH2 0x225D JUMPI PUSH2 0x225D PUSH2 0x1F7E JUMP JUMPDEST POP PUSH1 0x1 ADD SWAP1 JUMP JUMPDEST DUP5 DUP2 MSTORE PUSH1 0xFF DUP5 AND PUSH1 0x20 DUP3 ADD MSTORE DUP3 PUSH1 0x40 DUP3 ADD MSTORE PUSH1 0x80 PUSH1 0x60 DUP3 ADD MSTORE PUSH1 0x0 PUSH2 0x969 PUSH1 0x80 DUP4 ADD DUP5 PUSH2 0x1967 JUMP JUMPDEST PUSH1 0x0 DUP3 NOT DUP3 GT ISZERO PUSH2 0x229F JUMPI PUSH2 0x229F PUSH2 0x1F7E JUMP JUMPDEST POP ADD SWAP1 JUMP JUMPDEST PUSH1 0x0 PUSH1 0x20 DUP3 DUP5 SUB SLT ISZERO PUSH2 0x22B6 JUMPI PUSH1 0x0 DUP1 REVERT JUMPDEST DUP2 MLOAD PUSH12 0xFFFFFFFFFFFFFFFFFFFFFFFF DUP2 AND DUP2 EQ PUSH2 0xD4D JUMPI PUSH1 0x0 DUP1 REVERT INVALID SELFBALANCE PUSH16 0x7665726E6F723A2063616C6C20726576 PUSH6 0x727465642077 PUSH10 0x74686F7574206D657373 PUSH2 0x6765 COINBASE PUSH5 0x6472657373 GASPRICE KECCAK256 PUSH13 0x6F772D6C6576656C2063616C6C KECCAK256 PUSH24 0x6974682076616C7565206661696C6564A264697066735822 SLT KECCAK256 PUSH3 0x7DC07F 0xB2 MULMOD PUSH25 0xCBEEA55218A6E384B8CE933187631D13FCC4719D12833EC82C PUSH5 0x736F6C6343 STOP ADDMOD 0xC STOP CALLER ",
  "sha1": "8cf6e566fee07ec65bbde7efdddaf4a3dd56c19b",
  "source": "// SPDX-License-Identifier: MIT\n\npragma solidity ^0.8.0;\n\nimport \"../governance/extensions/GovernorCountingSimple.sol\";\nimport \"../governance/extensions/GovernorVotesComp.sol\";\n\ncontract GovernorCompMock is GovernorVotesComp, GovernorCountingSimple {\n    constructor(string memory name_, ERC20VotesComp token_) Governor(name_) GovernorVotesComp(token_) {}\n\n    function quorum(uint256) public pure override returns (uint256) {\n        return 0;\n    }\n\n    function votingDelay() public pure override returns (uint256) {\n        return 4;\n    }\n\n    function votingPeriod() public pure override returns (uint256) {\n        return 16;\n    }\n\n    function cancel(\n        address[] memory targets,\n        uint256[] memory values,\n        bytes[] memory calldatas,\n        bytes32 salt\n    ) public returns (uint256 proposalId) {\n        return _cancel(targets, values, calldatas, salt);\n    }\n\n    function getVotes(address account, uint256 blockNumber)\n        public\n        view\n        virtual\n        override(IGovernor, GovernorVotesComp)\n        returns (uint256)\n    {\n        return super.getVotes(account, blockNumber);\n    }\n}\n",
  "sourcePath": "contracts/openzeppelin/contracts/mocks/GovernorCompMock.sol",
  "type": "contract"
}