{
  "abi": [
    {
      "inputs": [],
      "name": "fail",
      "outputs": [],
      "stateMutability": "pure",
      "type": "function"
    },
    {
      "inputs": [],
      "name": "initialize",
      "outputs": [],
      "stateMutability": "nonpayable",
      "type": "function"
    },
    {
      "inputs": [],
      "name": "initializeOnlyInitializing",
      "outputs": [],
      "stateMutability": "nonpayable",
      "type": "function"
    },
    {
      "inputs": [
        {
          "internalType": "uint256",
          "name": "_x",
          "type": "uint256"
        }
      ],
      "name": "initializeWithX",
      "outputs": [],
      "stateMutability": "payable",
      "type": "function"
    },
    {
      "inputs": [],
      "name": "initializerNested",
      "outputs": [],
      "stateMutability": "nonpayable",
      "type": "function"
    },
    {
      "inputs": [],
      "name": "initializerRan",
      "outputs": [
        {
          "internalType": "bool",
          "name": "",
          "type": "bool"
        }
      ],
      "stateMutability": "view",
      "type": "function"
    },
    {
      "inputs": [
        {
          "internalType": "uint256",
          "name": "_x",
          "type": "uint256"
        }
      ],
      "name": "nonInitializable",
      "outputs": [],
      "stateMutability": "payable",
      "type": "function"
    },
    {
      "inputs": [],
      "name": "onlyInitializingNested",
      "outputs": [],
      "stateMutability": "nonpayable",
      "type": "function"
    },
    {
      "inputs": [],
      "name": "onlyInitializingRan",
      "outputs": [
        {
          "internalType": "bool",
          "name": "",
          "type": "bool"
        }
      ],
      "stateMutability": "view",
      "type": "function"
    },
    {
      "inputs": [],
      "name": "x",
      "outputs": [
        {
          "internalType": "uint256",
          "name": "",
          "type": "uint256"
        }
      ],
      "stateMutability": "view",
      "type": "function"
    }
  ],
  "bytecode": "608060405234801561001057600080fd5b506104e3806100206000396000f3fe6080604052600436106100905760003560e01c80637cffe97a116100595780637cffe97a146101125780638129fc1c14610143578063a9cc471814610158578063c3b8ef2a1461016d578063e955c9ec1461018d57600080fd5b806218eaa8146100955780630c55699c146100aa57806310065ed2146100d357806368449d1b146100e857806376268ae8146100fd575b600080fd5b6100a86100a3366004610446565b6101a0565b005b3480156100b657600080fd5b506100c060015481565b6040519081526020015b60405180910390f35b3480156100df57600080fd5b506100a8610221565b3480156100f457600080fd5b506100a86102a1565b34801561010957600080fd5b506100a861031b565b34801561011e57600080fd5b50600054610133906301000000900460ff1681565b60405190151581526020016100ca565b34801561014f57600080fd5b506100a861037c565b34801561016457600080fd5b506100a86103fe565b34801561017957600080fd5b506000546101339062010000900460ff1681565b6100a861019b366004610446565b600155565b600054610100900460ff166101bb5760005460ff16156101bf565b303b155b6101e45760405162461bcd60e51b81526004016101db9061045f565b60405180910390fd5b600054610100900460ff16158015610206576000805461ffff19166101011790555b6001829055801561021d576000805461ff00191690555b5050565b600054610100900460ff1661028c5760405162461bcd60e51b815260206004820152602b60248201527f496e697469616c697a61626c653a20636f6e7472616374206973206e6f74206960448201526a6e697469616c697a696e6760a81b60648201526084016101db565b6000805463ff00000019166301000000179055565b600054610100900460ff166102bc5760005460ff16156102c0565b303b155b6102dc5760405162461bcd60e51b81526004016101db9061045f565b600054610100900460ff161580156102fe576000805461ffff19166101011790555b610306610221565b8015610318576000805461ff00191690555b50565b600054610100900460ff166103365760005460ff161561033a565b303b155b6103565760405162461bcd60e51b81526004016101db9061045f565b600054610100900460ff16158015610378576000805461ffff19166101011790555b6103065b600054610100900460ff166103975760005460ff161561039b565b303b155b6103b75760405162461bcd60e51b81526004016101db9061045f565b600054610100900460ff161580156103d9576000805461ffff19166101011790555b6000805462ff00001916620100001790558015610318576000805461ff001916905550565b60405162461bcd60e51b815260206004820181905260248201527f496e697469616c697a61626c654d6f636b20666f72636564206661696c75726560448201526064016101db565b60006020828403121561045857600080fd5b5035919050565b6020808252602e908201527f496e697469616c697a61626c653a20636f6e747261637420697320616c72656160408201526d191e481a5b9a5d1a585b1a5e995960921b60608201526080019056fea264697066735822122005e7bba9543eaa8c5f8142ca11a79566ed05fd6461806e03014d119c9809c6c164736f6c634300080c0033",
  "bytecodeSha1": "8c302253dcb403093cb7152a75ec9d1f4a586352",
  "compiler": {
    "evm_version": "istanbul",
    "optimizer": {
      "enabled": true,
      "runs": 200
    },
    "version": "0.8.12+commit.f00d7308"
  },
  "contractName": "InitializableMock",
  "language": "Solidity",
  "natspec": {
    "details": "This contract is a mock to test initializable functionality",
    "kind": "dev",
    "methods": {},
    "title": "InitializableMock",
    "version": 1
  },
  "opcodes": "PUSH1 0x80 PUSH1 0x40 MSTORE PUSH1 0x4 CALLDATASIZE LT PUSH2 0x90 JUMPI PUSH1 0x0 CALLDATALOAD PUSH1 0xE0 SHR DUP1 PUSH4 0x7CFFE97A GT PUSH2 0x59 JUMPI DUP1 PUSH4 0x7CFFE97A EQ PUSH2 0x112 JUMPI DUP1 PUSH4 0x8129FC1C EQ PUSH2 0x143 JUMPI DUP1 PUSH4 0xA9CC4718 EQ PUSH2 0x158 JUMPI DUP1 PUSH4 0xC3B8EF2A EQ PUSH2 0x16D JUMPI DUP1 PUSH4 0xE955C9EC EQ PUSH2 0x18D JUMPI PUSH1 0x0 DUP1 REVERT JUMPDEST DUP1 PUSH3 0x18EAA8 EQ PUSH2 0x95 JUMPI DUP1 PUSH4 0xC55699C EQ PUSH2 0xAA JUMPI DUP1 PUSH4 0x10065ED2 EQ PUSH2 0xD3 JUMPI DUP1 PUSH4 0x68449D1B EQ PUSH2 0xE8 JUMPI DUP1 PUSH4 0x76268AE8 EQ PUSH2 0xFD JUMPI JUMPDEST PUSH1 0x0 DUP1 REVERT JUMPDEST PUSH2 0xA8 PUSH2 0xA3 CALLDATASIZE PUSH1 0x4 PUSH2 0x446 JUMP JUMPDEST PUSH2 0x1A0 JUMP JUMPDEST STOP JUMPDEST CALLVALUE DUP1 ISZERO PUSH2 0xB6 JUMPI PUSH1 0x0 DUP1 REVERT JUMPDEST POP PUSH2 0xC0 PUSH1 0x1 SLOAD DUP2 JUMP JUMPDEST PUSH1 0x40 MLOAD SWAP1 DUP2 MSTORE PUSH1 0x20 ADD JUMPDEST PUSH1 0x40 MLOAD DUP1 SWAP2 SUB SWAP1 RETURN JUMPDEST CALLVALUE DUP1 ISZERO PUSH2 0xDF JUMPI PUSH1 0x0 DUP1 REVERT JUMPDEST POP PUSH2 0xA8 PUSH2 0x221 JUMP JUMPDEST CALLVALUE DUP1 ISZERO PUSH2 0xF4 JUMPI PUSH1 0x0 DUP1 REVERT JUMPDEST POP PUSH2 0xA8 PUSH2 0x2A1 JUMP JUMPDEST CALLVALUE DUP1 ISZERO PUSH2 0x109 JUMPI PUSH1 0x0 DUP1 REVERT JUMPDEST POP PUSH2 0xA8 PUSH2 0x31B JUMP JUMPDEST CALLVALUE DUP1 ISZERO PUSH2 0x11E JUMPI PUSH1 0x0 DUP1 REVERT JUMPDEST POP PUSH1 0x0 SLOAD PUSH2 0x133 SWAP1 PUSH4 0x1000000 SWAP1 DIV PUSH1 0xFF AND DUP2 JUMP JUMPDEST PUSH1 0x40 MLOAD SWAP1 ISZERO ISZERO DUP2 MSTORE PUSH1 0x20 ADD PUSH2 0xCA JUMP JUMPDEST CALLVALUE DUP1 ISZERO PUSH2 0x14F JUMPI PUSH1 0x0 DUP1 REVERT JUMPDEST POP PUSH2 0xA8 PUSH2 0x37C JUMP JUMPDEST CALLVALUE DUP1 ISZERO PUSH2 0x164 JUMPI PUSH1 0x0 DUP1 REVERT JUMPDEST POP PUSH2 0xA8 PUSH2 0x3FE JUMP JUMPDEST CALLVALUE DUP1 ISZERO PUSH2 0x179 JUMPI PUSH1 0x0 DUP1 REVERT JUMPDEST POP PUSH1 0x0 SLOAD PUSH2 0x133 SWAP1 PUSH3 0x10000 SWAP1 DIV PUSH1 0xFF AND DUP2 JUMP JUMPDEST PUSH2 0xA8 PUSH2 0x19B CALLDATASIZE PUSH1 0x4 PUSH2 0x446 JUMP JUMPDEST PUSH1 0x1 SSTORE JUMP JUMPDEST PUSH1 0x0 SLOAD PUSH2 0x100 SWAP1 DIV PUSH1 0xFF AND PUSH2 0x1BB JUMPI PUSH1 0x0 SLOAD PUSH1 0xFF AND ISZERO PUSH2 0x1BF JUMP JUMPDEST ADDRESS EXTCODESIZE ISZERO JUMPDEST PUSH2 0x1E4 JUMPI PUSH1 0x40 MLOAD PUSH3 0x461BCD PUSH1 0xE5 SHL DUP2 MSTORE PUSH1 0x4 ADD PUSH2 0x1DB SWAP1 PUSH2 0x45F JUMP JUMPDEST PUSH1 0x40 MLOAD DUP1 SWAP2 SUB SWAP1 REVERT JUMPDEST PUSH1 0x0 SLOAD PUSH2 0x100 SWAP1 DIV PUSH1 0xFF AND ISZERO DUP1 ISZERO PUSH2 0x206 JUMPI PUSH1 0x0 DUP1 SLOAD PUSH2 0xFFFF NOT AND PUSH2 0x101 OR SWAP1 SSTORE JUMPDEST PUSH1 0x1 DUP3 SWAP1 SSTORE DUP1 ISZERO PUSH2 0x21D JUMPI PUSH1 0x0 DUP1 SLOAD PUSH2 0xFF00 NOT AND SWAP1 SSTORE JUMPDEST POP POP JUMP JUMPDEST PUSH1 0x0 SLOAD PUSH2 0x100 SWAP1 DIV PUSH1 0xFF AND PUSH2 0x28C JUMPI PUSH1 0x40 MLOAD PUSH3 0x461BCD PUSH1 0xE5 SHL DUP2 MSTORE PUSH1 0x20 PUSH1 0x4 DUP3 ADD MSTORE PUSH1 0x2B PUSH1 0x24 DUP3 ADD MSTORE PUSH32 0x496E697469616C697A61626C653A20636F6E7472616374206973206E6F742069 PUSH1 0x44 DUP3 ADD MSTORE PUSH11 0x6E697469616C697A696E67 PUSH1 0xA8 SHL PUSH1 0x64 DUP3 ADD MSTORE PUSH1 0x84 ADD PUSH2 0x1DB JUMP JUMPDEST PUSH1 0x0 DUP1 SLOAD PUSH4 0xFF000000 NOT AND PUSH4 0x1000000 OR SWAP1 SSTORE JUMP JUMPDEST PUSH1 0x0 SLOAD PUSH2 0x100 SWAP1 DIV PUSH1 0xFF AND PUSH2 0x2BC JUMPI PUSH1 0x0 SLOAD PUSH1 0xFF AND ISZERO PUSH2 0x2C0 JUMP JUMPDEST ADDRESS EXTCODESIZE ISZERO JUMPDEST PUSH2 0x2DC JUMPI PUSH1 0x40 MLOAD PUSH3 0x461BCD PUSH1 0xE5 SHL DUP2 MSTORE PUSH1 0x4 ADD PUSH2 0x1DB SWAP1 PUSH2 0x45F JUMP JUMPDEST PUSH1 0x0 SLOAD PUSH2 0x100 SWAP1 DIV PUSH1 0xFF AND ISZERO DUP1 ISZERO PUSH2 0x2FE JUMPI PUSH1 0x0 DUP1 SLOAD PUSH2 0xFFFF NOT AND PUSH2 0x101 OR SWAP1 SSTORE JUMPDEST PUSH2 0x306 PUSH2 0x221 JUMP JUMPDEST DUP1 ISZERO PUSH2 0x318 JUMPI PUSH1 0x0 DUP1 SLOAD PUSH2 0xFF00 NOT AND SWAP1 SSTORE JUMPDEST POP JUMP JUMPDEST PUSH1 0x0 SLOAD PUSH2 0x100 SWAP1 DIV PUSH1 0xFF AND PUSH2 0x336 JUMPI PUSH1 0x0 SLOAD PUSH1 0xFF AND ISZERO PUSH2 0x33A JUMP JUMPDEST ADDRESS EXTCODESIZE ISZERO JUMPDEST PUSH2 0x356 JUMPI PUSH1 0x40 MLOAD PUSH3 0x461BCD PUSH1 0xE5 SHL DUP2 MSTORE PUSH1 0x4 ADD PUSH2 0x1DB SWAP1 PUSH2 0x45F JUMP JUMPDEST PUSH1 0x0 SLOAD PUSH2 0x100 SWAP1 DIV PUSH1 0xFF AND ISZERO DUP1 ISZERO PUSH2 0x378 JUMPI PUSH1 0x0 DUP1 SLOAD PUSH2 0xFFFF NOT AND PUSH2 0x101 OR SWAP1 SSTORE JUMPDEST PUSH2 0x306 JUMPDEST PUSH1 0x0 SLOAD PUSH2 0x100 SWAP1 DIV PUSH1 0xFF AND PUSH2 0x397 JUMPI PUSH1 0x0 SLOAD PUSH1 0xFF AND ISZERO PUSH2 0x39B JUMP JUMPDEST ADDRESS EXTCODESIZE ISZERO JUMPDEST PUSH2 0x3B7 JUMPI PUSH1 0x40 MLOAD PUSH3 0x461BCD PUSH1 0xE5 SHL DUP2 MSTORE PUSH1 0x4 ADD PUSH2 0x1DB SWAP1 PUSH2 0x45F JUMP JUMPDEST PUSH1 0x0 SLOAD PUSH2 0x100 SWAP1 DIV PUSH1 0xFF AND ISZERO DUP1 ISZERO PUSH2 0x3D9 JUMPI PUSH1 0x0 DUP1 SLOAD PUSH2 0xFFFF NOT AND PUSH2 0x101 OR SWAP1 SSTORE JUMPDEST PUSH1 0x0 DUP1 SLOAD PUSH3 0xFF0000 NOT AND PUSH3 0x10000 OR SWAP1 SSTORE DUP1 ISZERO PUSH2 0x318 JUMPI PUSH1 0x0 DUP1 SLOAD PUSH2 0xFF00 NOT AND SWAP1 SSTORE POP JUMP JUMPDEST PUSH1 0x40 MLOAD PUSH3 0x461BCD PUSH1 0xE5 SHL DUP2 MSTORE PUSH1 0x20 PUSH1 0x4 DUP3 ADD DUP2 SWAP1 MSTORE PUSH1 0x24 DUP3 ADD MSTORE PUSH32 0x496E697469616C697A61626C654D6F636B20666F72636564206661696C757265 PUSH1 0x44 DUP3 ADD MSTORE PUSH1 0x64 ADD PUSH2 0x1DB JUMP JUMPDEST PUSH1 0x0 PUSH1 0x20 DUP3 DUP5 SUB SLT ISZERO PUSH2 0x458 JUMPI PUSH1 0x0 DUP1 REVERT JUMPDEST POP CALLDATALOAD SWAP2 SWAP1 POP JUMP JUMPDEST PUSH1 0x20 DUP1 DUP3 MSTORE PUSH1 0x2E SWAP1 DUP3 ADD MSTORE PUSH32 0x496E697469616C697A61626C653A20636F6E747261637420697320616C726561 PUSH1 0x40 DUP3 ADD MSTORE PUSH14 0x191E481A5B9A5D1A585B1A5E9959 PUSH1 0x92 SHL PUSH1 0x60 DUP3 ADD MSTORE PUSH1 0x80 ADD SWAP1 JUMP INVALID LOG2 PUSH5 0x6970667358 0x22 SLT KECCAK256 SDIV 0xE7 0xBB 0xA9 SLOAD RETURNDATACOPY 0xAA DUP13 0x5F DUP2 TIMESTAMP 0xCA GT 0xA7 SWAP6 PUSH7 0xED05FD6461806E SUB ADD 0x4D GT SWAP13 SWAP9 MULMOD 0xC6 0xC1 PUSH5 0x736F6C6343 STOP ADDMOD 0xC STOP CALLER ",
  "sha1": "00de3e1a260815e61b9fab6efbe8cda911d7043d",
  "source": "// SPDX-License-Identifier: MIT\n\npragma solidity ^0.8.0;\n\nimport \"../proxy/utils/Initializable.sol\";\n\n/**\n * @title InitializableMock\n * @dev This contract is a mock to test initializable functionality\n */\ncontract InitializableMock is Initializable {\n    bool public initializerRan;\n    bool public onlyInitializingRan;\n    uint256 public x;\n\n    function initialize() public initializer {\n        initializerRan = true;\n    }\n\n    function initializeOnlyInitializing() public onlyInitializing {\n        onlyInitializingRan = true;\n    }\n\n    function initializerNested() public initializer {\n        initialize();\n    }\n\n    function onlyInitializingNested() public initializer {\n        initializeOnlyInitializing();\n    }\n\n    function initializeWithX(uint256 _x) public payable initializer {\n        x = _x;\n    }\n\n    function nonInitializable(uint256 _x) public payable {\n        x = _x;\n    }\n\n    function fail() public pure {\n        require(false, \"InitializableMock forced failure\");\n    }\n}\n\ncontract ConstructorInitializableMock is Initializable {\n    bool public initializerRan;\n    bool public onlyInitializingRan;\n\n    constructor() initializer {\n        initialize();\n        initializeOnlyInitializing();\n    }\n\n    function initialize() public initializer {\n        initializerRan = true;\n    }\n\n    function initializeOnlyInitializing() public onlyInitializing {\n        onlyInitializingRan = true;\n    }\n}\n",
  "sourcePath": "contracts/openzeppelin/contracts/mocks/InitializableMock.sol",
  "type": "contract"
}