{
  "abi": [
    {
      "inputs": [
        {
          "internalType": "uint256",
          "name": "a",
          "type": "uint256"
        },
        {
          "internalType": "uint256",
          "name": "b",
          "type": "uint256"
        }
      ],
      "name": "average",
      "outputs": [
        {
          "internalType": "uint256",
          "name": "",
          "type": "uint256"
        }
      ],
      "stateMutability": "pure",
      "type": "function"
    },
    {
      "inputs": [
        {
          "internalType": "uint256",
          "name": "a",
          "type": "uint256"
        },
        {
          "internalType": "uint256",
          "name": "b",
          "type": "uint256"
        }
      ],
      "name": "ceilDiv",
      "outputs": [
        {
          "internalType": "uint256",
          "name": "",
          "type": "uint256"
        }
      ],
      "stateMutability": "pure",
      "type": "function"
    },
    {
      "inputs": [
        {
          "internalType": "uint256",
          "name": "a",
          "type": "uint256"
        },
        {
          "internalType": "uint256",
          "name": "b",
          "type": "uint256"
        }
      ],
      "name": "max",
      "outputs": [
        {
          "internalType": "uint256",
          "name": "",
          "type": "uint256"
        }
      ],
      "stateMutability": "pure",
      "type": "function"
    },
    {
      "inputs": [
        {
          "internalType": "uint256",
          "name": "a",
          "type": "uint256"
        },
        {
          "internalType": "uint256",
          "name": "b",
          "type": "uint256"
        }
      ],
      "name": "min",
      "outputs": [
        {
          "internalType": "uint256",
          "name": "",
          "type": "uint256"
        }
      ],
      "stateMutability": "pure",
      "type": "function"
    }
  ],
  "bytecode": "608060405234801561001057600080fd5b50610215806100206000396000f3fe608060405234801561001057600080fd5b506004361061004c5760003560e01c80632b7423ab146100515780636d5433e6146100765780637ae2b5c7146100895780639cb353271461009c575b600080fd5b61006461005f366004610159565b6100af565b60405190815260200160405180910390f35b610064610084366004610159565b6100c2565b610064610097366004610159565b6100ce565b6100646100aa366004610159565b6100da565b60006100bb83836100e6565b9392505050565b60006100bb8383610101565b60006100bb8383610118565b60006100bb8383610127565b60006100f56002848418610191565b6100bb908484166101a5565b60008183101561011157816100bb565b5090919050565b600081831061011157816100bb565b600061013382846101cb565b1561013f576001610142565b60005b60ff1661014f8385610191565b6100bb91906101a5565b6000806040838503121561016c57600080fd5b50508035926020909101359150565b634e487b7160e01b600052601260045260246000fd5b6000826101a0576101a061017b565b500490565b600082198211156101c657634e487b7160e01b600052601160045260246000fd5b500190565b6000826101da576101da61017b565b50069056fea2646970667358221220a6c8eb2ba97e4f0c0a03f38e8352f827933a16d2cfbed3088d661a91f1d7488164736f6c634300080c0033",
  "bytecodeSha1": "33e9bb3f9b0a14f5c4ec5b1fecf32dc286eac40e",
  "compiler": {
    "evm_version": "istanbul",
    "optimizer": {
      "enabled": true,
      "runs": 200
    },
    "version": "0.8.12+commit.f00d7308"
  },
  "contractName": "MathMock",
  "language": "Solidity",
  "natspec": {
    "kind": "dev",
    "methods": {},
    "version": 1
  },
  "opcodes": "PUSH1 0x80 PUSH1 0x40 MSTORE CALLVALUE DUP1 ISZERO PUSH2 0x10 JUMPI PUSH1 0x0 DUP1 REVERT JUMPDEST POP PUSH1 0x4 CALLDATASIZE LT PUSH2 0x4C JUMPI PUSH1 0x0 CALLDATALOAD PUSH1 0xE0 SHR DUP1 PUSH4 0x2B7423AB EQ PUSH2 0x51 JUMPI DUP1 PUSH4 0x6D5433E6 EQ PUSH2 0x76 JUMPI DUP1 PUSH4 0x7AE2B5C7 EQ PUSH2 0x89 JUMPI DUP1 PUSH4 0x9CB35327 EQ PUSH2 0x9C JUMPI JUMPDEST PUSH1 0x0 DUP1 REVERT JUMPDEST PUSH2 0x64 PUSH2 0x5F CALLDATASIZE PUSH1 0x4 PUSH2 0x159 JUMP JUMPDEST PUSH2 0xAF JUMP JUMPDEST PUSH1 0x40 MLOAD SWAP1 DUP2 MSTORE PUSH1 0x20 ADD PUSH1 0x40 MLOAD DUP1 SWAP2 SUB SWAP1 RETURN JUMPDEST PUSH2 0x64 PUSH2 0x84 CALLDATASIZE PUSH1 0x4 PUSH2 0x159 JUMP JUMPDEST PUSH2 0xC2 JUMP JUMPDEST PUSH2 0x64 PUSH2 0x97 CALLDATASIZE PUSH1 0x4 PUSH2 0x159 JUMP JUMPDEST PUSH2 0xCE JUMP JUMPDEST PUSH2 0x64 PUSH2 0xAA CALLDATASIZE PUSH1 0x4 PUSH2 0x159 JUMP JUMPDEST PUSH2 0xDA JUMP JUMPDEST PUSH1 0x0 PUSH2 0xBB DUP4 DUP4 PUSH2 0xE6 JUMP JUMPDEST SWAP4 SWAP3 POP POP POP JUMP JUMPDEST PUSH1 0x0 PUSH2 0xBB DUP4 DUP4 PUSH2 0x101 JUMP JUMPDEST PUSH1 0x0 PUSH2 0xBB DUP4 DUP4 PUSH2 0x118 JUMP JUMPDEST PUSH1 0x0 PUSH2 0xBB DUP4 DUP4 PUSH2 0x127 JUMP JUMPDEST PUSH1 0x0 PUSH2 0xF5 PUSH1 0x2 DUP5 DUP5 XOR PUSH2 0x191 JUMP JUMPDEST PUSH2 0xBB SWAP1 DUP5 DUP5 AND PUSH2 0x1A5 JUMP JUMPDEST PUSH1 0x0 DUP2 DUP4 LT ISZERO PUSH2 0x111 JUMPI DUP2 PUSH2 0xBB JUMP JUMPDEST POP SWAP1 SWAP2 SWAP1 POP JUMP JUMPDEST PUSH1 0x0 DUP2 DUP4 LT PUSH2 0x111 JUMPI DUP2 PUSH2 0xBB JUMP JUMPDEST PUSH1 0x0 PUSH2 0x133 DUP3 DUP5 PUSH2 0x1CB JUMP JUMPDEST ISZERO PUSH2 0x13F JUMPI PUSH1 0x1 PUSH2 0x142 JUMP JUMPDEST PUSH1 0x0 JUMPDEST PUSH1 0xFF AND PUSH2 0x14F DUP4 DUP6 PUSH2 0x191 JUMP JUMPDEST PUSH2 0xBB SWAP2 SWAP1 PUSH2 0x1A5 JUMP JUMPDEST PUSH1 0x0 DUP1 PUSH1 0x40 DUP4 DUP6 SUB SLT ISZERO PUSH2 0x16C JUMPI PUSH1 0x0 DUP1 REVERT JUMPDEST POP POP DUP1 CALLDATALOAD SWAP3 PUSH1 0x20 SWAP1 SWAP2 ADD CALLDATALOAD SWAP2 POP JUMP JUMPDEST PUSH4 0x4E487B71 PUSH1 0xE0 SHL PUSH1 0x0 MSTORE PUSH1 0x12 PUSH1 0x4 MSTORE PUSH1 0x24 PUSH1 0x0 REVERT JUMPDEST PUSH1 0x0 DUP3 PUSH2 0x1A0 JUMPI PUSH2 0x1A0 PUSH2 0x17B JUMP JUMPDEST POP DIV SWAP1 JUMP JUMPDEST PUSH1 0x0 DUP3 NOT DUP3 GT ISZERO PUSH2 0x1C6 JUMPI PUSH4 0x4E487B71 PUSH1 0xE0 SHL PUSH1 0x0 MSTORE PUSH1 0x11 PUSH1 0x4 MSTORE PUSH1 0x24 PUSH1 0x0 REVERT JUMPDEST POP ADD SWAP1 JUMP JUMPDEST PUSH1 0x0 DUP3 PUSH2 0x1DA JUMPI PUSH2 0x1DA PUSH2 0x17B JUMP JUMPDEST POP MOD SWAP1 JUMP INVALID LOG2 PUSH5 0x6970667358 0x22 SLT KECCAK256 0xA6 0xC8 0xEB 0x2B 0xA9 PUSH31 0x4F0C0A03F38E8352F827933A16D2CFBED3088D661A91F1D7488164736F6C63 NUMBER STOP ADDMOD 0xC STOP CALLER ",
  "sha1": "3f32babf12eca3aa789c016a8b2893198904fc6a",
  "source": "// SPDX-License-Identifier: MIT\n\npragma solidity ^0.8.0;\n\nimport \"../utils/math/Math.sol\";\n\ncontract MathMock {\n    function max(uint256 a, uint256 b) public pure returns (uint256) {\n        return Math.max(a, b);\n    }\n\n    function min(uint256 a, uint256 b) public pure returns (uint256) {\n        return Math.min(a, b);\n    }\n\n    function average(uint256 a, uint256 b) public pure returns (uint256) {\n        return Math.average(a, b);\n    }\n\n    function ceilDiv(uint256 a, uint256 b) public pure returns (uint256) {\n        return Math.ceilDiv(a, b);\n    }\n}\n",
  "sourcePath": "contracts/openzeppelin/contracts/mocks/MathMock.sol",
  "type": "contract"
}