{
  "abi": [
    {
      "inputs": [],
      "name": "gramps",
      "outputs": [
        {
          "internalType": "string",
          "name": "",
          "type": "string"
        }
      ],
      "stateMutability": "view",
      "type": "function"
    },
    {
      "inputs": [],
      "name": "initialize",
      "outputs": [],
      "stateMutability": "nonpayable",
      "type": "function"
    },
    {
      "inputs": [
        {
          "internalType": "string",
          "name": "value",
          "type": "string"
        }
      ],
      "name": "initialize",
      "outputs": [],
      "stateMutability": "nonpayable",
      "type": "function"
    },
    {
      "inputs": [],
      "name": "isHuman",
      "outputs": [
        {
          "internalType": "bool",
          "name": "",
          "type": "bool"
        }
      ],
      "stateMutability": "view",
      "type": "function"
    }
  ],
  "bytecode": "608060405234801561001057600080fd5b506105cf806100206000396000f3fe608060405234801561001057600080fd5b506004361061004c5760003560e01c80634a6c9db6146100515780638129fc1c14610079578063f62d188814610083578063fa39851f14610096575b600080fd5b6000546100649062010000900460ff1681565b60405190151581526020015b60405180910390f35b6100816100ab565b005b6100816100913660046103bf565b61012e565b61009e6101aa565b6040516100709190610470565b600054610100900460ff166100c65760005460ff16156100ca565b303b155b6100ef5760405162461bcd60e51b81526004016100e6906104c5565b60405180910390fd5b600054610100900460ff16158015610111576000805461ffff19166101011790555b610119610238565b801561012b576000805461ff00191690555b50565b600054610100900460ff166101495760005460ff161561014d565b303b155b6101695760405162461bcd60e51b81526004016100e6906104c5565b600054610100900460ff1615801561018b576000805461ffff19166101011790555b61019482610269565b80156101a6576000805461ff00191690555b5050565b600180546101b790610513565b80601f01602080910402602001604051908101604052809291908181526020018280546101e390610513565b80156102305780601f1061020557610100808354040283529160200191610230565b820191906000526020600020905b81548152906001019060200180831161021357829003601f168201915b505050505081565b600054610100900460ff1661025f5760405162461bcd60e51b81526004016100e69061054e565b6102676102a1565b565b600054610100900460ff166102905760405162461bcd60e51b81526004016100e69061054e565b610298610238565b61012b816102db565b600054610100900460ff166102c85760405162461bcd60e51b81526004016100e69061054e565b6000805462ff0000191662010000179055565b600054610100900460ff166103025760405162461bcd60e51b81526004016100e69061054e565b80516101a690600190602084019082805461031c90610513565b90600052602060002090601f01602090048101928261033e5760008555610384565b82601f1061035757805160ff1916838001178555610384565b82800160010185558215610384579182015b82811115610384578251825591602001919060010190610369565b50610390929150610394565b5090565b5b808211156103905760008155600101610395565b634e487b7160e01b600052604160045260246000fd5b6000602082840312156103d157600080fd5b813567ffffffffffffffff808211156103e957600080fd5b818401915084601f8301126103fd57600080fd5b81358181111561040f5761040f6103a9565b604051601f8201601f19908116603f01168101908382118183101715610437576104376103a9565b8160405282815287602084870101111561045057600080fd5b826020860160208301376000928101602001929092525095945050505050565b600060208083528351808285015260005b8181101561049d57858101830151858201604001528201610481565b818111156104af576000604083870101525b50601f01601f1916929092016040019392505050565b6020808252602e908201527f496e697469616c697a61626c653a20636f6e747261637420697320616c72656160408201526d191e481a5b9a5d1a585b1a5e995960921b606082015260800190565b600181811c9082168061052757607f821691505b6020821081141561054857634e487b7160e01b600052602260045260246000fd5b50919050565b6020808252602b908201527f496e697469616c697a61626c653a20636f6e7472616374206973206e6f74206960408201526a6e697469616c697a696e6760a81b60608201526080019056fea2646970667358221220038255491a1d17cd4b1253fe83cc0a40738b11202457a5795495c6c5305fd2f864736f6c634300080c0033",
  "bytecodeSha1": "7ae445a49a4a97ae0e75a6b1f671fdeac34ee3d7",
  "compiler": {
    "evm_version": "istanbul",
    "optimizer": {
      "enabled": true,
      "runs": 200
    },
    "version": "0.8.12+commit.f00d7308"
  },
  "contractName": "SampleGramps",
  "language": "Solidity",
  "natspec": {
    "kind": "dev",
    "methods": {},
    "notice": "Sample base intializable contract that defines a field gramps",
    "version": 1
  },
  "opcodes": "PUSH1 0x80 PUSH1 0x40 MSTORE CALLVALUE DUP1 ISZERO PUSH2 0x10 JUMPI PUSH1 0x0 DUP1 REVERT JUMPDEST POP PUSH1 0x4 CALLDATASIZE LT PUSH2 0x4C JUMPI PUSH1 0x0 CALLDATALOAD PUSH1 0xE0 SHR DUP1 PUSH4 0x4A6C9DB6 EQ PUSH2 0x51 JUMPI DUP1 PUSH4 0x8129FC1C EQ PUSH2 0x79 JUMPI DUP1 PUSH4 0xF62D1888 EQ PUSH2 0x83 JUMPI DUP1 PUSH4 0xFA39851F EQ PUSH2 0x96 JUMPI JUMPDEST PUSH1 0x0 DUP1 REVERT JUMPDEST PUSH1 0x0 SLOAD PUSH2 0x64 SWAP1 PUSH3 0x10000 SWAP1 DIV PUSH1 0xFF AND DUP2 JUMP JUMPDEST PUSH1 0x40 MLOAD SWAP1 ISZERO ISZERO DUP2 MSTORE PUSH1 0x20 ADD JUMPDEST PUSH1 0x40 MLOAD DUP1 SWAP2 SUB SWAP1 RETURN JUMPDEST PUSH2 0x81 PUSH2 0xAB JUMP JUMPDEST STOP JUMPDEST PUSH2 0x81 PUSH2 0x91 CALLDATASIZE PUSH1 0x4 PUSH2 0x3BF JUMP JUMPDEST PUSH2 0x12E JUMP JUMPDEST PUSH2 0x9E PUSH2 0x1AA JUMP JUMPDEST PUSH1 0x40 MLOAD PUSH2 0x70 SWAP2 SWAP1 PUSH2 0x470 JUMP JUMPDEST PUSH1 0x0 SLOAD PUSH2 0x100 SWAP1 DIV PUSH1 0xFF AND PUSH2 0xC6 JUMPI PUSH1 0x0 SLOAD PUSH1 0xFF AND ISZERO PUSH2 0xCA JUMP JUMPDEST ADDRESS EXTCODESIZE ISZERO JUMPDEST PUSH2 0xEF JUMPI PUSH1 0x40 MLOAD PUSH3 0x461BCD PUSH1 0xE5 SHL DUP2 MSTORE PUSH1 0x4 ADD PUSH2 0xE6 SWAP1 PUSH2 0x4C5 JUMP JUMPDEST PUSH1 0x40 MLOAD DUP1 SWAP2 SUB SWAP1 REVERT JUMPDEST PUSH1 0x0 SLOAD PUSH2 0x100 SWAP1 DIV PUSH1 0xFF AND ISZERO DUP1 ISZERO PUSH2 0x111 JUMPI PUSH1 0x0 DUP1 SLOAD PUSH2 0xFFFF NOT AND PUSH2 0x101 OR SWAP1 SSTORE JUMPDEST PUSH2 0x119 PUSH2 0x238 JUMP JUMPDEST DUP1 ISZERO PUSH2 0x12B JUMPI PUSH1 0x0 DUP1 SLOAD PUSH2 0xFF00 NOT AND SWAP1 SSTORE JUMPDEST POP JUMP JUMPDEST PUSH1 0x0 SLOAD PUSH2 0x100 SWAP1 DIV PUSH1 0xFF AND PUSH2 0x149 JUMPI PUSH1 0x0 SLOAD PUSH1 0xFF AND ISZERO PUSH2 0x14D JUMP JUMPDEST ADDRESS EXTCODESIZE ISZERO JUMPDEST PUSH2 0x169 JUMPI PUSH1 0x40 MLOAD PUSH3 0x461BCD PUSH1 0xE5 SHL DUP2 MSTORE PUSH1 0x4 ADD PUSH2 0xE6 SWAP1 PUSH2 0x4C5 JUMP JUMPDEST PUSH1 0x0 SLOAD PUSH2 0x100 SWAP1 DIV PUSH1 0xFF AND ISZERO DUP1 ISZERO PUSH2 0x18B JUMPI PUSH1 0x0 DUP1 SLOAD PUSH2 0xFFFF NOT AND PUSH2 0x101 OR SWAP1 SSTORE JUMPDEST PUSH2 0x194 DUP3 PUSH2 0x269 JUMP JUMPDEST DUP1 ISZERO PUSH2 0x1A6 JUMPI PUSH1 0x0 DUP1 SLOAD PUSH2 0xFF00 NOT AND SWAP1 SSTORE JUMPDEST POP POP JUMP JUMPDEST PUSH1 0x1 DUP1 SLOAD PUSH2 0x1B7 SWAP1 PUSH2 0x513 JUMP JUMPDEST DUP1 PUSH1 0x1F ADD PUSH1 0x20 DUP1 SWAP2 DIV MUL PUSH1 0x20 ADD PUSH1 0x40 MLOAD SWAP1 DUP2 ADD PUSH1 0x40 MSTORE DUP1 SWAP3 SWAP2 SWAP1 DUP2 DUP2 MSTORE PUSH1 0x20 ADD DUP3 DUP1 SLOAD PUSH2 0x1E3 SWAP1 PUSH2 0x513 JUMP JUMPDEST DUP1 ISZERO PUSH2 0x230 JUMPI DUP1 PUSH1 0x1F LT PUSH2 0x205 JUMPI PUSH2 0x100 DUP1 DUP4 SLOAD DIV MUL DUP4 MSTORE SWAP2 PUSH1 0x20 ADD SWAP2 PUSH2 0x230 JUMP JUMPDEST DUP3 ADD SWAP2 SWAP1 PUSH1 0x0 MSTORE PUSH1 0x20 PUSH1 0x0 KECCAK256 SWAP1 JUMPDEST DUP2 SLOAD DUP2 MSTORE SWAP1 PUSH1 0x1 ADD SWAP1 PUSH1 0x20 ADD DUP1 DUP4 GT PUSH2 0x213 JUMPI DUP3 SWAP1 SUB PUSH1 0x1F AND DUP3 ADD SWAP2 JUMPDEST POP POP POP POP POP DUP2 JUMP JUMPDEST PUSH1 0x0 SLOAD PUSH2 0x100 SWAP1 DIV PUSH1 0xFF AND PUSH2 0x25F JUMPI PUSH1 0x40 MLOAD PUSH3 0x461BCD PUSH1 0xE5 SHL DUP2 MSTORE PUSH1 0x4 ADD PUSH2 0xE6 SWAP1 PUSH2 0x54E JUMP JUMPDEST PUSH2 0x267 PUSH2 0x2A1 JUMP JUMPDEST JUMP JUMPDEST PUSH1 0x0 SLOAD PUSH2 0x100 SWAP1 DIV PUSH1 0xFF AND PUSH2 0x290 JUMPI PUSH1 0x40 MLOAD PUSH3 0x461BCD PUSH1 0xE5 SHL DUP2 MSTORE PUSH1 0x4 ADD PUSH2 0xE6 SWAP1 PUSH2 0x54E JUMP JUMPDEST PUSH2 0x298 PUSH2 0x238 JUMP JUMPDEST PUSH2 0x12B DUP2 PUSH2 0x2DB JUMP JUMPDEST PUSH1 0x0 SLOAD PUSH2 0x100 SWAP1 DIV PUSH1 0xFF AND PUSH2 0x2C8 JUMPI PUSH1 0x40 MLOAD PUSH3 0x461BCD PUSH1 0xE5 SHL DUP2 MSTORE PUSH1 0x4 ADD PUSH2 0xE6 SWAP1 PUSH2 0x54E JUMP JUMPDEST PUSH1 0x0 DUP1 SLOAD PUSH3 0xFF0000 NOT AND PUSH3 0x10000 OR SWAP1 SSTORE JUMP JUMPDEST PUSH1 0x0 SLOAD PUSH2 0x100 SWAP1 DIV PUSH1 0xFF AND PUSH2 0x302 JUMPI PUSH1 0x40 MLOAD PUSH3 0x461BCD PUSH1 0xE5 SHL DUP2 MSTORE PUSH1 0x4 ADD PUSH2 0xE6 SWAP1 PUSH2 0x54E JUMP JUMPDEST DUP1 MLOAD PUSH2 0x1A6 SWAP1 PUSH1 0x1 SWAP1 PUSH1 0x20 DUP5 ADD SWAP1 DUP3 DUP1 SLOAD PUSH2 0x31C SWAP1 PUSH2 0x513 JUMP JUMPDEST SWAP1 PUSH1 0x0 MSTORE PUSH1 0x20 PUSH1 0x0 KECCAK256 SWAP1 PUSH1 0x1F ADD PUSH1 0x20 SWAP1 DIV DUP2 ADD SWAP3 DUP3 PUSH2 0x33E JUMPI PUSH1 0x0 DUP6 SSTORE PUSH2 0x384 JUMP JUMPDEST DUP3 PUSH1 0x1F LT PUSH2 0x357 JUMPI DUP1 MLOAD PUSH1 0xFF NOT AND DUP4 DUP1 ADD OR DUP6 SSTORE PUSH2 0x384 JUMP JUMPDEST DUP3 DUP1 ADD PUSH1 0x1 ADD DUP6 SSTORE DUP3 ISZERO PUSH2 0x384 JUMPI SWAP2 DUP3 ADD JUMPDEST DUP3 DUP2 GT ISZERO PUSH2 0x384 JUMPI DUP3 MLOAD DUP3 SSTORE SWAP2 PUSH1 0x20 ADD SWAP2 SWAP1 PUSH1 0x1 ADD SWAP1 PUSH2 0x369 JUMP JUMPDEST POP PUSH2 0x390 SWAP3 SWAP2 POP PUSH2 0x394 JUMP JUMPDEST POP SWAP1 JUMP JUMPDEST JUMPDEST DUP1 DUP3 GT ISZERO PUSH2 0x390 JUMPI PUSH1 0x0 DUP2 SSTORE PUSH1 0x1 ADD PUSH2 0x395 JUMP JUMPDEST PUSH4 0x4E487B71 PUSH1 0xE0 SHL PUSH1 0x0 MSTORE PUSH1 0x41 PUSH1 0x4 MSTORE PUSH1 0x24 PUSH1 0x0 REVERT JUMPDEST PUSH1 0x0 PUSH1 0x20 DUP3 DUP5 SUB SLT ISZERO PUSH2 0x3D1 JUMPI PUSH1 0x0 DUP1 REVERT JUMPDEST DUP2 CALLDATALOAD PUSH8 0xFFFFFFFFFFFFFFFF DUP1 DUP3 GT ISZERO PUSH2 0x3E9 JUMPI PUSH1 0x0 DUP1 REVERT JUMPDEST DUP2 DUP5 ADD SWAP2 POP DUP5 PUSH1 0x1F DUP4 ADD SLT PUSH2 0x3FD JUMPI PUSH1 0x0 DUP1 REVERT JUMPDEST DUP2 CALLDATALOAD DUP2 DUP2 GT ISZERO PUSH2 0x40F JUMPI PUSH2 0x40F PUSH2 0x3A9 JUMP JUMPDEST PUSH1 0x40 MLOAD PUSH1 0x1F DUP3 ADD PUSH1 0x1F NOT SWAP1 DUP2 AND PUSH1 0x3F ADD AND DUP2 ADD SWAP1 DUP4 DUP3 GT DUP2 DUP4 LT OR ISZERO PUSH2 0x437 JUMPI PUSH2 0x437 PUSH2 0x3A9 JUMP JUMPDEST DUP2 PUSH1 0x40 MSTORE DUP3 DUP2 MSTORE DUP8 PUSH1 0x20 DUP5 DUP8 ADD ADD GT ISZERO PUSH2 0x450 JUMPI PUSH1 0x0 DUP1 REVERT JUMPDEST DUP3 PUSH1 0x20 DUP7 ADD PUSH1 0x20 DUP4 ADD CALLDATACOPY PUSH1 0x0 SWAP3 DUP2 ADD PUSH1 0x20 ADD SWAP3 SWAP1 SWAP3 MSTORE POP SWAP6 SWAP5 POP POP POP POP POP JUMP JUMPDEST PUSH1 0x0 PUSH1 0x20 DUP1 DUP4 MSTORE DUP4 MLOAD DUP1 DUP3 DUP6 ADD MSTORE PUSH1 0x0 JUMPDEST DUP2 DUP2 LT ISZERO PUSH2 0x49D JUMPI DUP6 DUP2 ADD DUP4 ADD MLOAD DUP6 DUP3 ADD PUSH1 0x40 ADD MSTORE DUP3 ADD PUSH2 0x481 JUMP JUMPDEST DUP2 DUP2 GT ISZERO PUSH2 0x4AF JUMPI PUSH1 0x0 PUSH1 0x40 DUP4 DUP8 ADD ADD MSTORE JUMPDEST POP PUSH1 0x1F ADD PUSH1 0x1F NOT AND SWAP3 SWAP1 SWAP3 ADD PUSH1 0x40 ADD SWAP4 SWAP3 POP POP POP JUMP JUMPDEST PUSH1 0x20 DUP1 DUP3 MSTORE PUSH1 0x2E SWAP1 DUP3 ADD MSTORE PUSH32 0x496E697469616C697A61626C653A20636F6E747261637420697320616C726561 PUSH1 0x40 DUP3 ADD MSTORE PUSH14 0x191E481A5B9A5D1A585B1A5E9959 PUSH1 0x92 SHL PUSH1 0x60 DUP3 ADD MSTORE PUSH1 0x80 ADD SWAP1 JUMP JUMPDEST PUSH1 0x1 DUP2 DUP2 SHR SWAP1 DUP3 AND DUP1 PUSH2 0x527 JUMPI PUSH1 0x7F DUP3 AND SWAP2 POP JUMPDEST PUSH1 0x20 DUP3 LT DUP2 EQ ISZERO PUSH2 0x548 JUMPI PUSH4 0x4E487B71 PUSH1 0xE0 SHL PUSH1 0x0 MSTORE PUSH1 0x22 PUSH1 0x4 MSTORE PUSH1 0x24 PUSH1 0x0 REVERT JUMPDEST POP SWAP2 SWAP1 POP JUMP JUMPDEST PUSH1 0x20 DUP1 DUP3 MSTORE PUSH1 0x2B SWAP1 DUP3 ADD MSTORE PUSH32 0x496E697469616C697A61626C653A20636F6E7472616374206973206E6F742069 PUSH1 0x40 DUP3 ADD MSTORE PUSH11 0x6E697469616C697A696E67 PUSH1 0xA8 SHL PUSH1 0x60 DUP3 ADD MSTORE PUSH1 0x80 ADD SWAP1 JUMP INVALID LOG2 PUSH5 0x6970667358 0x22 SLT KECCAK256 SUB DUP3 SSTORE 0x49 BYTE SAR OR 0xCD 0x4B SLT MSTORE8 INVALID DUP4 0xCC EXP BLOCKHASH PUSH20 0x8B11202457A5795495C6C5305FD2F864736F6C63 NUMBER STOP ADDMOD 0xC STOP CALLER ",
  "sha1": "e2b89e23b4b91e101cf4babee3913036172ec9c2",
  "source": "// SPDX-License-Identifier: MIT\n\npragma solidity ^0.8.0;\n\nimport \"../proxy/utils/Initializable.sol\";\n\n// Sample contracts showing upgradeability with multiple inheritance.\n// Child contract inherits from Father and Mother contracts, and Father extends from Gramps.\n//\n//         Human\n//       /       \\\n//      |       Gramps\n//      |         |\n//    Mother    Father\n//      |         |\n//      -- Child --\n\n/**\n * Sample base intializable contract that is a human\n */\ncontract SampleHuman is Initializable {\n    bool public isHuman;\n\n    function initialize() public initializer {\n        __SampleHuman_init();\n    }\n\n    // solhint-disable-next-line func-name-mixedcase\n    function __SampleHuman_init() internal onlyInitializing {\n        __SampleHuman_init_unchained();\n    }\n\n    // solhint-disable-next-line func-name-mixedcase\n    function __SampleHuman_init_unchained() internal onlyInitializing {\n        isHuman = true;\n    }\n}\n\n/**\n * Sample base intializable contract that defines a field mother\n */\ncontract SampleMother is Initializable, SampleHuman {\n    uint256 public mother;\n\n    function initialize(uint256 value) public virtual initializer {\n        __SampleMother_init(value);\n    }\n\n    // solhint-disable-next-line func-name-mixedcase\n    function __SampleMother_init(uint256 value) internal onlyInitializing {\n        __SampleHuman_init();\n        __SampleMother_init_unchained(value);\n    }\n\n    // solhint-disable-next-line func-name-mixedcase\n    function __SampleMother_init_unchained(uint256 value) internal onlyInitializing {\n        mother = value;\n    }\n}\n\n/**\n * Sample base intializable contract that defines a field gramps\n */\ncontract SampleGramps is Initializable, SampleHuman {\n    string public gramps;\n\n    function initialize(string memory value) public virtual initializer {\n        __SampleGramps_init(value);\n    }\n\n    // solhint-disable-next-line func-name-mixedcase\n    function __SampleGramps_init(string memory value) internal onlyInitializing {\n        __SampleHuman_init();\n        __SampleGramps_init_unchained(value);\n    }\n\n    // solhint-disable-next-line func-name-mixedcase\n    function __SampleGramps_init_unchained(string memory value) internal onlyInitializing {\n        gramps = value;\n    }\n}\n\n/**\n * Sample base intializable contract that defines a field father and extends from gramps\n */\ncontract SampleFather is Initializable, SampleGramps {\n    uint256 public father;\n\n    function initialize(string memory _gramps, uint256 _father) public initializer {\n        __SampleFather_init(_gramps, _father);\n    }\n\n    // solhint-disable-next-line func-name-mixedcase\n    function __SampleFather_init(string memory _gramps, uint256 _father) internal onlyInitializing {\n        __SampleGramps_init(_gramps);\n        __SampleFather_init_unchained(_father);\n    }\n\n    // solhint-disable-next-line func-name-mixedcase\n    function __SampleFather_init_unchained(uint256 _father) internal onlyInitializing {\n        father = _father;\n    }\n}\n\n/**\n * Child extends from mother, father (gramps)\n */\ncontract SampleChild is Initializable, SampleMother, SampleFather {\n    uint256 public child;\n\n    function initialize(\n        uint256 _mother,\n        string memory _gramps,\n        uint256 _father,\n        uint256 _child\n    ) public initializer {\n        __SampleChild_init(_mother, _gramps, _father, _child);\n    }\n\n    // solhint-disable-next-line func-name-mixedcase\n    function __SampleChild_init(\n        uint256 _mother,\n        string memory _gramps,\n        uint256 _father,\n        uint256 _child\n    ) internal onlyInitializing {\n        __SampleMother_init(_mother);\n        __SampleFather_init(_gramps, _father);\n        __SampleChild_init_unchained(_child);\n    }\n\n    // solhint-disable-next-line func-name-mixedcase\n    function __SampleChild_init_unchained(uint256 _child) internal onlyInitializing {\n        child = _child;\n    }\n}\n",
  "sourcePath": "contracts/openzeppelin/contracts/mocks/MultipleInheritanceInitializableMocks.sol",
  "type": "contract"
}