{
  "abi": [
    {
      "inputs": [
        {
          "internalType": "int256",
          "name": "n",
          "type": "int256"
        }
      ],
      "name": "abs",
      "outputs": [
        {
          "internalType": "uint256",
          "name": "",
          "type": "uint256"
        }
      ],
      "stateMutability": "pure",
      "type": "function"
    },
    {
      "inputs": [
        {
          "internalType": "int256",
          "name": "a",
          "type": "int256"
        },
        {
          "internalType": "int256",
          "name": "b",
          "type": "int256"
        }
      ],
      "name": "average",
      "outputs": [
        {
          "internalType": "int256",
          "name": "",
          "type": "int256"
        }
      ],
      "stateMutability": "pure",
      "type": "function"
    },
    {
      "inputs": [
        {
          "internalType": "int256",
          "name": "a",
          "type": "int256"
        },
        {
          "internalType": "int256",
          "name": "b",
          "type": "int256"
        }
      ],
      "name": "max",
      "outputs": [
        {
          "internalType": "int256",
          "name": "",
          "type": "int256"
        }
      ],
      "stateMutability": "pure",
      "type": "function"
    },
    {
      "inputs": [
        {
          "internalType": "int256",
          "name": "a",
          "type": "int256"
        },
        {
          "internalType": "int256",
          "name": "b",
          "type": "int256"
        }
      ],
      "name": "min",
      "outputs": [
        {
          "internalType": "int256",
          "name": "",
          "type": "int256"
        }
      ],
      "stateMutability": "pure",
      "type": "function"
    }
  ],
  "bytecode": "608060405234801561001057600080fd5b50610220806100206000396000f3fe608060405234801561001057600080fd5b506004361061004c5760003560e01c80631b5ac4b51461005157806329aa9cbe146100765780637f0bb2921461008957806381fe57861461009c575b600080fd5b61006461005f366004610158565b6100af565b60405190815260200160405180910390f35b610064610084366004610171565b6100c0565b610064610097366004610171565b6100d3565b6100646100aa366004610171565b6100df565b60006100ba826100eb565b92915050565b60006100cc8383610102565b9392505050565b60006100cc8383610118565b60006100cc8383610148565b6000808212156100fe57816000036100ba565b5090565b600081831261011157816100cc565b5090919050565b60008061012c84841860011d8585166101a9565b905061014060ff82901c85851816826101a9565b949350505050565b60008183121561011157816100cc565b60006020828403121561016a57600080fd5b5035919050565b6000806040838503121561018457600080fd5b50508035926020909101359150565b634e487b7160e01b600052601160045260246000fd5b600080821280156001600160ff1b03849003851316156101cb576101cb610193565b600160ff1b83900384128116156101e4576101e4610193565b5050019056fea2646970667358221220610a103253f95b42c6ac3453e2e6fece8a85f1f5e6575ae5e6736fd950759edc64736f6c634300080c0033",
  "bytecodeSha1": "37231cc253b2428cf2d7dc83c1a9971eb0670b0f",
  "compiler": {
    "evm_version": "istanbul",
    "optimizer": {
      "enabled": true,
      "runs": 200
    },
    "version": "0.8.12+commit.f00d7308"
  },
  "contractName": "SignedMathMock",
  "language": "Solidity",
  "natspec": {
    "kind": "dev",
    "methods": {},
    "version": 1
  },
  "opcodes": "PUSH1 0x80 PUSH1 0x40 MSTORE CALLVALUE DUP1 ISZERO PUSH2 0x10 JUMPI PUSH1 0x0 DUP1 REVERT JUMPDEST POP PUSH1 0x4 CALLDATASIZE LT PUSH2 0x4C JUMPI PUSH1 0x0 CALLDATALOAD PUSH1 0xE0 SHR DUP1 PUSH4 0x1B5AC4B5 EQ PUSH2 0x51 JUMPI DUP1 PUSH4 0x29AA9CBE EQ PUSH2 0x76 JUMPI DUP1 PUSH4 0x7F0BB292 EQ PUSH2 0x89 JUMPI DUP1 PUSH4 0x81FE5786 EQ PUSH2 0x9C JUMPI JUMPDEST PUSH1 0x0 DUP1 REVERT JUMPDEST PUSH2 0x64 PUSH2 0x5F CALLDATASIZE PUSH1 0x4 PUSH2 0x158 JUMP JUMPDEST PUSH2 0xAF JUMP JUMPDEST PUSH1 0x40 MLOAD SWAP1 DUP2 MSTORE PUSH1 0x20 ADD PUSH1 0x40 MLOAD DUP1 SWAP2 SUB SWAP1 RETURN JUMPDEST PUSH2 0x64 PUSH2 0x84 CALLDATASIZE PUSH1 0x4 PUSH2 0x171 JUMP JUMPDEST PUSH2 0xC0 JUMP JUMPDEST PUSH2 0x64 PUSH2 0x97 CALLDATASIZE PUSH1 0x4 PUSH2 0x171 JUMP JUMPDEST PUSH2 0xD3 JUMP JUMPDEST PUSH2 0x64 PUSH2 0xAA CALLDATASIZE PUSH1 0x4 PUSH2 0x171 JUMP JUMPDEST PUSH2 0xDF JUMP JUMPDEST PUSH1 0x0 PUSH2 0xBA DUP3 PUSH2 0xEB JUMP JUMPDEST SWAP3 SWAP2 POP POP JUMP JUMPDEST PUSH1 0x0 PUSH2 0xCC DUP4 DUP4 PUSH2 0x102 JUMP JUMPDEST SWAP4 SWAP3 POP POP POP JUMP JUMPDEST PUSH1 0x0 PUSH2 0xCC DUP4 DUP4 PUSH2 0x118 JUMP JUMPDEST PUSH1 0x0 PUSH2 0xCC DUP4 DUP4 PUSH2 0x148 JUMP JUMPDEST PUSH1 0x0 DUP1 DUP3 SLT ISZERO PUSH2 0xFE JUMPI DUP2 PUSH1 0x0 SUB PUSH2 0xBA JUMP JUMPDEST POP SWAP1 JUMP JUMPDEST PUSH1 0x0 DUP2 DUP4 SLT PUSH2 0x111 JUMPI DUP2 PUSH2 0xCC JUMP JUMPDEST POP SWAP1 SWAP2 SWAP1 POP JUMP JUMPDEST PUSH1 0x0 DUP1 PUSH2 0x12C DUP5 DUP5 XOR PUSH1 0x1 SAR DUP6 DUP6 AND PUSH2 0x1A9 JUMP JUMPDEST SWAP1 POP PUSH2 0x140 PUSH1 0xFF DUP3 SWAP1 SHR DUP6 DUP6 XOR AND DUP3 PUSH2 0x1A9 JUMP JUMPDEST SWAP5 SWAP4 POP POP POP POP JUMP JUMPDEST PUSH1 0x0 DUP2 DUP4 SLT ISZERO PUSH2 0x111 JUMPI DUP2 PUSH2 0xCC JUMP JUMPDEST PUSH1 0x0 PUSH1 0x20 DUP3 DUP5 SUB SLT ISZERO PUSH2 0x16A JUMPI PUSH1 0x0 DUP1 REVERT JUMPDEST POP CALLDATALOAD SWAP2 SWAP1 POP JUMP JUMPDEST PUSH1 0x0 DUP1 PUSH1 0x40 DUP4 DUP6 SUB SLT ISZERO PUSH2 0x184 JUMPI PUSH1 0x0 DUP1 REVERT JUMPDEST POP POP DUP1 CALLDATALOAD SWAP3 PUSH1 0x20 SWAP1 SWAP2 ADD CALLDATALOAD SWAP2 POP JUMP JUMPDEST PUSH4 0x4E487B71 PUSH1 0xE0 SHL PUSH1 0x0 MSTORE PUSH1 0x11 PUSH1 0x4 MSTORE PUSH1 0x24 PUSH1 0x0 REVERT JUMPDEST PUSH1 0x0 DUP1 DUP3 SLT DUP1 ISZERO PUSH1 0x1 PUSH1 0x1 PUSH1 0xFF SHL SUB DUP5 SWAP1 SUB DUP6 SGT AND ISZERO PUSH2 0x1CB JUMPI PUSH2 0x1CB PUSH2 0x193 JUMP JUMPDEST PUSH1 0x1 PUSH1 0xFF SHL DUP4 SWAP1 SUB DUP5 SLT DUP2 AND ISZERO PUSH2 0x1E4 JUMPI PUSH2 0x1E4 PUSH2 0x193 JUMP JUMPDEST POP POP ADD SWAP1 JUMP INVALID LOG2 PUSH5 0x6970667358 0x22 SLT KECCAK256 PUSH2 0xA10 ORIGIN MSTORE8 0xF9 JUMPDEST TIMESTAMP 0xC6 0xAC CALLVALUE MSTORE8 0xE2 0xE6 INVALID 0xCE DUP11 DUP6 CALL CREATE2 0xE6 JUMPI GAS 0xE5 0xE6 PUSH20 0x6FD950759EDC64736F6C634300080C0033000000 ",
  "sha1": "fa852c2646c26130d7f2bb7bc1ade24b1960f7f6",
  "source": "// SPDX-License-Identifier: MIT\n\npragma solidity ^0.8.0;\n\nimport \"../utils/math/SignedMath.sol\";\n\ncontract SignedMathMock {\n    function max(int256 a, int256 b) public pure returns (int256) {\n        return SignedMath.max(a, b);\n    }\n\n    function min(int256 a, int256 b) public pure returns (int256) {\n        return SignedMath.min(a, b);\n    }\n\n    function average(int256 a, int256 b) public pure returns (int256) {\n        return SignedMath.average(a, b);\n    }\n\n    function abs(int256 n) public pure returns (uint256) {\n        return SignedMath.abs(n);\n    }\n}\n",
  "sourcePath": "contracts/openzeppelin/contracts/mocks/SignedMathMock.sol",
  "type": "contract"
}