{
  "abi": [
    {
      "inputs": [
        {
          "internalType": "string",
          "name": "name",
          "type": "string"
        }
      ],
      "stateMutability": "nonpayable",
      "type": "constructor"
    },
    {
      "anonymous": false,
      "inputs": [
        {
          "indexed": true,
          "internalType": "address",
          "name": "delegator",
          "type": "address"
        },
        {
          "indexed": true,
          "internalType": "address",
          "name": "fromDelegate",
          "type": "address"
        },
        {
          "indexed": true,
          "internalType": "address",
          "name": "toDelegate",
          "type": "address"
        }
      ],
      "name": "DelegateChanged",
      "type": "event"
    },
    {
      "anonymous": false,
      "inputs": [
        {
          "indexed": true,
          "internalType": "address",
          "name": "delegate",
          "type": "address"
        },
        {
          "indexed": false,
          "internalType": "uint256",
          "name": "previousBalance",
          "type": "uint256"
        },
        {
          "indexed": false,
          "internalType": "uint256",
          "name": "newBalance",
          "type": "uint256"
        }
      ],
      "name": "DelegateVotesChanged",
      "type": "event"
    },
    {
      "inputs": [],
      "name": "DOMAIN_SEPARATOR",
      "outputs": [
        {
          "internalType": "bytes32",
          "name": "",
          "type": "bytes32"
        }
      ],
      "stateMutability": "view",
      "type": "function"
    },
    {
      "inputs": [
        {
          "internalType": "uint256",
          "name": "voteId",
          "type": "uint256"
        }
      ],
      "name": "burn",
      "outputs": [],
      "stateMutability": "nonpayable",
      "type": "function"
    },
    {
      "inputs": [
        {
          "internalType": "address",
          "name": "delegatee",
          "type": "address"
        }
      ],
      "name": "delegate",
      "outputs": [],
      "stateMutability": "nonpayable",
      "type": "function"
    },
    {
      "inputs": [
        {
          "internalType": "address",
          "name": "account",
          "type": "address"
        },
        {
          "internalType": "address",
          "name": "newDelegation",
          "type": "address"
        }
      ],
      "name": "delegate",
      "outputs": [],
      "stateMutability": "nonpayable",
      "type": "function"
    },
    {
      "inputs": [
        {
          "internalType": "address",
          "name": "delegatee",
          "type": "address"
        },
        {
          "internalType": "uint256",
          "name": "nonce",
          "type": "uint256"
        },
        {
          "internalType": "uint256",
          "name": "expiry",
          "type": "uint256"
        },
        {
          "internalType": "uint8",
          "name": "v",
          "type": "uint8"
        },
        {
          "internalType": "bytes32",
          "name": "r",
          "type": "bytes32"
        },
        {
          "internalType": "bytes32",
          "name": "s",
          "type": "bytes32"
        }
      ],
      "name": "delegateBySig",
      "outputs": [],
      "stateMutability": "nonpayable",
      "type": "function"
    },
    {
      "inputs": [
        {
          "internalType": "address",
          "name": "account",
          "type": "address"
        }
      ],
      "name": "delegates",
      "outputs": [
        {
          "internalType": "address",
          "name": "",
          "type": "address"
        }
      ],
      "stateMutability": "view",
      "type": "function"
    },
    {
      "inputs": [],
      "name": "getChainId",
      "outputs": [
        {
          "internalType": "uint256",
          "name": "",
          "type": "uint256"
        }
      ],
      "stateMutability": "view",
      "type": "function"
    },
    {
      "inputs": [
        {
          "internalType": "uint256",
          "name": "blockNumber",
          "type": "uint256"
        }
      ],
      "name": "getPastTotalSupply",
      "outputs": [
        {
          "internalType": "uint256",
          "name": "",
          "type": "uint256"
        }
      ],
      "stateMutability": "view",
      "type": "function"
    },
    {
      "inputs": [
        {
          "internalType": "address",
          "name": "account",
          "type": "address"
        },
        {
          "internalType": "uint256",
          "name": "blockNumber",
          "type": "uint256"
        }
      ],
      "name": "getPastVotes",
      "outputs": [
        {
          "internalType": "uint256",
          "name": "",
          "type": "uint256"
        }
      ],
      "stateMutability": "view",
      "type": "function"
    },
    {
      "inputs": [],
      "name": "getTotalSupply",
      "outputs": [
        {
          "internalType": "uint256",
          "name": "",
          "type": "uint256"
        }
      ],
      "stateMutability": "view",
      "type": "function"
    },
    {
      "inputs": [
        {
          "internalType": "address",
          "name": "account",
          "type": "address"
        }
      ],
      "name": "getVotes",
      "outputs": [
        {
          "internalType": "uint256",
          "name": "",
          "type": "uint256"
        }
      ],
      "stateMutability": "view",
      "type": "function"
    },
    {
      "inputs": [
        {
          "internalType": "address",
          "name": "account",
          "type": "address"
        },
        {
          "internalType": "uint256",
          "name": "voteId",
          "type": "uint256"
        }
      ],
      "name": "mint",
      "outputs": [],
      "stateMutability": "nonpayable",
      "type": "function"
    },
    {
      "inputs": [
        {
          "internalType": "address",
          "name": "owner",
          "type": "address"
        }
      ],
      "name": "nonces",
      "outputs": [
        {
          "internalType": "uint256",
          "name": "",
          "type": "uint256"
        }
      ],
      "stateMutability": "view",
      "type": "function"
    }
  ],
  "bytecode": "6101406040523480156200001257600080fd5b50604051620013403803806200134083398101604081905262000035916200010f565b60408051808201825260018152603160f81b60209182015282519281019290922060e08190527fc89efdaa54c0f20c7adf612882df0950f5a951637e0307cdcb4c672f298b8bc66101008190524660a081815284517f8b73c3c69bb8fe3d512ecc4cf759cc79239f7b179b0ffacaa9a75d522b39400f818801819052818701959095526060810193909352608080840192909252308382018190528551808503909201825260c09384019095528051950194909420909352915261012052620001eb565b634e487b7160e01b600052604160045260246000fd5b600060208083850312156200012357600080fd5b82516001600160401b03808211156200013b57600080fd5b818501915085601f8301126200015057600080fd5b815181811115620001655762000165620000f9565b604051601f8201601f19908116603f01168101908382118183101715620001905762000190620000f9565b816040528281528886848701011115620001a957600080fd5b600093505b82841015620001cd5784840186015181850187015292850192620001ae565b82841115620001df5760008684830101525b98975050505050505050565b60805160a05160c05160e05161010051610120516111056200023b6000396000610567015260006105b601526000610591015260006104ea015260006105140152600061053e01526111056000f3fe608060405234801561001057600080fd5b50600436106100cf5760003560e01c80635c19a95c1161008c5780638e539e8c116100665780638e539e8c146101a95780639ab24eb0146101bc578063c3cda520146101cf578063c4e41b22146101e257600080fd5b80635c19a95c146101705780637ecebe00146101835780638ab656861461019657600080fd5b80633408e470146100d45780633644e515146100e95780633a46b1a8146100f157806340c10f191461010457806342966c6814610119578063587cde1e1461012c575b600080fd5b465b6040519081526020015b60405180910390f35b6100d66101ea565b6100d66100ff366004610f4b565b6101f9565b610117610112366004610f4b565b610222565b005b610117610127366004610f75565b610287565b61015861013a366004610f8e565b6001600160a01b039081166000908152602081905260409020541690565b6040516001600160a01b0390911681526020016100e0565b61011761017e366004610f8e565b6102d1565b6100d6610191366004610f8e565b6102dc565b6101176101a4366004610fa9565b6102fc565b6100d66101b7366004610f75565b610306565b6100d66101ca366004610f8e565b610367565b6101176101dd366004610fdc565b610388565b6100d66104d3565b60006101f46104dd565b905090565b6001600160a01b038216600090815260016020526040812061021b9083610604565b9392505050565b6001600160a01b038216600090815260046020526040812080546001929061024b908490611052565b9091555050600081815260056020526040812080546001600160a01b0319166001600160a01b03851617905561028390836001610713565b5050565b6000818152600560209081526040808320546001600160a01b031680845260049092528220805491926001926102be90849061106a565b9091555061028390508160006001610713565b336102838183610788565b6001600160a01b0381166000908152600360205260408120545b92915050565b6102838282610788565b600043821061035c5760405162461bcd60e51b815260206004820152601a60248201527f566f7465733a20626c6f636b206e6f7420796574206d696e656400000000000060448201526064015b60405180910390fd5b6102f6600283610604565b6001600160a01b03811660009081526001602052604081206102f690610810565b834211156103d85760405162461bcd60e51b815260206004820152601860248201527f566f7465733a207369676e6174757265206578706972656400000000000000006044820152606401610353565b604080517fe48329057bfd03d55e49b547132e39cffd9c1820ad7b9d4c5307691425d15adf60208201526001600160a01b0388169181019190915260608101869052608081018590526000906104529061044a9060a0016040516020818303038152906040528051906020012061086c565b8585856108ba565b905061047b816001600160a01b0316600090815260036020526040902080546001810190915590565b86146104c05760405162461bcd60e51b8152602060048201526014602482015273566f7465733a20696e76616c6964206e6f6e636560601b6044820152606401610353565b6104ca8188610788565b50505050505050565b60006101f46108e2565b6000306001600160a01b037f00000000000000000000000000000000000000000000000000000000000000001614801561053657507f000000000000000000000000000000000000000000000000000000000000000046145b1561056057507f000000000000000000000000000000000000000000000000000000000000000090565b50604080517f00000000000000000000000000000000000000000000000000000000000000006020808301919091527f0000000000000000000000000000000000000000000000000000000000000000828401527f000000000000000000000000000000000000000000000000000000000000000060608301524660808301523060a0808401919091528351808403909101815260c0909201909252805191012090565b60004382106106555760405162461bcd60e51b815260206004820181905260248201527f436865636b706f696e74733a20626c6f636b206e6f7420796574206d696e65646044820152606401610353565b825460005b818110156106ba57600061066e82846108ee565b90508486600001828154811061068657610686611081565b60009182526020909120015463ffffffff1611156106a6578092506106b4565b6106b1816001611052565b91505b5061065a565b81156106fe57846106cc60018461106a565b815481106106dc576106dc611081565b60009182526020909120015464010000000090046001600160e01b0316610701565b60005b6001600160e01b031695945050505050565b6001600160a01b0383166107325761072f600261090983610915565b50505b6001600160a01b0382166107515761074e600261094383610915565b50505b6001600160a01b038381166000908152602081905260408082205485841683529120546107839291821691168361094f565b505050565b6001600160a01b0382811660008181526020819052604080822080548686166001600160a01b0319821681179092559151919094169392849290917f3134e8a2e6d97e929a7e54011ea5485d7d196dd5f0ba4d4ef95803e8e3fc257f9190a4610783818361080b866001600160a01b031660009081526004602052604090205490565b61094f565b80546000908015610859578261082760018361106a565b8154811061083757610837611081565b60009182526020909120015464010000000090046001600160e01b031661085c565b60005b6001600160e01b03169392505050565b60006102f66108796104dd565b8360405161190160f01b6020820152602281018390526042810182905260009060620160405160208183030381529060405280519060200120905092915050565b60008060006108cb87878787610a8c565b915091506108d881610b79565b5095945050505050565b60006101f46002610810565b60006108fd6002848418611097565b61021b90848416611052565b600061021b8284611052565b6000806109378561093261092888610810565b868863ffffffff16565b610d37565b91509150935093915050565b600061021b828461106a565b816001600160a01b0316836001600160a01b0316141580156109715750600081115b15610783576001600160a01b038316156109ff576001600160a01b038316600090815260016020526040812081906109ac9061094385610915565b91509150846001600160a01b03167fdec2bacdd2f05b59de34da9b523dff8be42e5e38e818c82fdb0bae774387a72483836040516109f4929190918252602082015260400190565b60405180910390a250505b6001600160a01b03821615610783576001600160a01b03821660009081526001602052604081208190610a359061090985610915565b91509150836001600160a01b03167fdec2bacdd2f05b59de34da9b523dff8be42e5e38e818c82fdb0bae774387a7248383604051610a7d929190918252602082015260400190565b60405180910390a25050505050565b6000807f7fffffffffffffffffffffffffffffff5d576e7357a4501ddfe92f46681b20a0831115610ac35750600090506003610b70565b8460ff16601b14158015610adb57508460ff16601c14155b15610aec5750600090506004610b70565b6040805160008082526020820180845289905260ff881692820192909252606081018690526080810185905260019060a0016020604051602081039080840390855afa158015610b40573d6000803e3d6000fd5b5050604051601f1901519150506001600160a01b038116610b6957600060019250925050610b70565b9150600090505b94509492505050565b6000816004811115610b8d57610b8d6110b9565b1415610b965750565b6001816004811115610baa57610baa6110b9565b1415610bf85760405162461bcd60e51b815260206004820152601860248201527f45434453413a20696e76616c6964207369676e617475726500000000000000006044820152606401610353565b6002816004811115610c0c57610c0c6110b9565b1415610c5a5760405162461bcd60e51b815260206004820152601f60248201527f45434453413a20696e76616c6964207369676e6174757265206c656e677468006044820152606401610353565b6003816004811115610c6e57610c6e6110b9565b1415610cc75760405162461bcd60e51b815260206004820152602260248201527f45434453413a20696e76616c6964207369676e6174757265202773272076616c604482015261756560f01b6064820152608401610353565b6004816004811115610cdb57610cdb6110b9565b1415610d345760405162461bcd60e51b815260206004820152602260248201527f45434453413a20696e76616c6964207369676e6174757265202776272076616c604482015261756560f01b6064820152608401610353565b50565b8154600090819081610d4886610810565b9050600082118015610d8657504386610d6260018561106a565b81548110610d7257610d72611081565b60009182526020909120015463ffffffff16145b15610de657610d9485610e5d565b86610da060018561106a565b81548110610db057610db0611081565b9060005260206000200160000160046101000a8154816001600160e01b0302191690836001600160e01b03160217905550610e54565b856000016040518060400160405280610dfe43610eca565b63ffffffff168152602001610e1288610e5d565b6001600160e01b0390811690915282546001810184556000938452602093849020835194909301519091166401000000000263ffffffff909316929092179101555b95939450505050565b60006001600160e01b03821115610ec65760405162461bcd60e51b815260206004820152602760248201527f53616665436173743a2076616c756520646f65736e27742066697420696e20326044820152663234206269747360c81b6064820152608401610353565b5090565b600063ffffffff821115610ec65760405162461bcd60e51b815260206004820152602660248201527f53616665436173743a2076616c756520646f65736e27742066697420696e203360448201526532206269747360d01b6064820152608401610353565b80356001600160a01b0381168114610f4657600080fd5b919050565b60008060408385031215610f5e57600080fd5b610f6783610f2f565b946020939093013593505050565b600060208284031215610f8757600080fd5b5035919050565b600060208284031215610fa057600080fd5b61021b82610f2f565b60008060408385031215610fbc57600080fd5b610fc583610f2f565b9150610fd360208401610f2f565b90509250929050565b60008060008060008060c08789031215610ff557600080fd5b610ffe87610f2f565b95506020870135945060408701359350606087013560ff8116811461102257600080fd5b9598949750929560808101359460a0909101359350915050565b634e487b7160e01b600052601160045260246000fd5b600082198211156110655761106561103c565b500190565b60008282101561107c5761107c61103c565b500390565b634e487b7160e01b600052603260045260246000fd5b6000826110b457634e487b7160e01b600052601260045260246000fd5b500490565b634e487b7160e01b600052602160045260246000fdfea26469706673582212205b8447e1b52eb4ef987cdd4b0e1bdc7676720c2babeb7fca5f6dd462786cb87564736f6c634300080c0033",
  "bytecodeSha1": "7d1f063c3db18df0fbd06219a589ca0cc2ee9073",
  "compiler": {
    "evm_version": "istanbul",
    "optimizer": {
      "enabled": true,
      "runs": 200
    },
    "version": "0.8.12+commit.f00d7308"
  },
  "contractName": "VotesMock",
  "language": "Solidity",
  "natspec": {
    "kind": "dev",
    "methods": {
      "DOMAIN_SEPARATOR()": {
        "details": "Returns the contract's {EIP712} domain separator."
      },
      "delegate(address)": {
        "details": "Delegates votes from the sender to `delegatee`."
      },
      "delegateBySig(address,uint256,uint256,uint8,bytes32,bytes32)": {
        "details": "Delegates votes from signer to `delegatee`."
      },
      "delegates(address)": {
        "details": "Returns the delegate that `account` has chosen."
      },
      "getPastTotalSupply(uint256)": {
        "details": "Returns the total supply of votes available at the end of a past block (`blockNumber`). NOTE: This value is the sum of all available votes, which is not necessarily the sum of all delegated votes. Votes that have not been delegated are still part of total supply, even though they would not participate in a vote. Requirements: - `blockNumber` must have been already mined"
      },
      "getPastVotes(address,uint256)": {
        "details": "Returns the amount of votes that `account` had at the end of a past block (`blockNumber`). Requirements: - `blockNumber` must have been already mined"
      },
      "getVotes(address)": {
        "details": "Returns the current amount of votes that `account` has."
      },
      "nonces(address)": {
        "details": "Returns an address nonce."
      }
    },
    "version": 1
  },
  "opcodes": "PUSH1 0x80 PUSH1 0x40 MSTORE CALLVALUE DUP1 ISZERO PUSH2 0x10 JUMPI PUSH1 0x0 DUP1 REVERT JUMPDEST POP PUSH1 0x4 CALLDATASIZE LT PUSH2 0xCF JUMPI PUSH1 0x0 CALLDATALOAD PUSH1 0xE0 SHR DUP1 PUSH4 0x5C19A95C GT PUSH2 0x8C JUMPI DUP1 PUSH4 0x8E539E8C GT PUSH2 0x66 JUMPI DUP1 PUSH4 0x8E539E8C EQ PUSH2 0x1A9 JUMPI DUP1 PUSH4 0x9AB24EB0 EQ PUSH2 0x1BC JUMPI DUP1 PUSH4 0xC3CDA520 EQ PUSH2 0x1CF JUMPI DUP1 PUSH4 0xC4E41B22 EQ PUSH2 0x1E2 JUMPI PUSH1 0x0 DUP1 REVERT JUMPDEST DUP1 PUSH4 0x5C19A95C EQ PUSH2 0x170 JUMPI DUP1 PUSH4 0x7ECEBE00 EQ PUSH2 0x183 JUMPI DUP1 PUSH4 0x8AB65686 EQ PUSH2 0x196 JUMPI PUSH1 0x0 DUP1 REVERT JUMPDEST DUP1 PUSH4 0x3408E470 EQ PUSH2 0xD4 JUMPI DUP1 PUSH4 0x3644E515 EQ PUSH2 0xE9 JUMPI DUP1 PUSH4 0x3A46B1A8 EQ PUSH2 0xF1 JUMPI DUP1 PUSH4 0x40C10F19 EQ PUSH2 0x104 JUMPI DUP1 PUSH4 0x42966C68 EQ PUSH2 0x119 JUMPI DUP1 PUSH4 0x587CDE1E EQ PUSH2 0x12C JUMPI JUMPDEST PUSH1 0x0 DUP1 REVERT JUMPDEST CHAINID JUMPDEST PUSH1 0x40 MLOAD SWAP1 DUP2 MSTORE PUSH1 0x20 ADD JUMPDEST PUSH1 0x40 MLOAD DUP1 SWAP2 SUB SWAP1 RETURN JUMPDEST PUSH2 0xD6 PUSH2 0x1EA JUMP JUMPDEST PUSH2 0xD6 PUSH2 0xFF CALLDATASIZE PUSH1 0x4 PUSH2 0xF4B JUMP JUMPDEST PUSH2 0x1F9 JUMP JUMPDEST PUSH2 0x117 PUSH2 0x112 CALLDATASIZE PUSH1 0x4 PUSH2 0xF4B JUMP JUMPDEST PUSH2 0x222 JUMP JUMPDEST STOP JUMPDEST PUSH2 0x117 PUSH2 0x127 CALLDATASIZE PUSH1 0x4 PUSH2 0xF75 JUMP JUMPDEST PUSH2 0x287 JUMP JUMPDEST PUSH2 0x158 PUSH2 0x13A CALLDATASIZE PUSH1 0x4 PUSH2 0xF8E JUMP JUMPDEST PUSH1 0x1 PUSH1 0x1 PUSH1 0xA0 SHL SUB SWAP1 DUP2 AND PUSH1 0x0 SWAP1 DUP2 MSTORE PUSH1 0x20 DUP2 SWAP1 MSTORE PUSH1 0x40 SWAP1 KECCAK256 SLOAD AND SWAP1 JUMP JUMPDEST PUSH1 0x40 MLOAD PUSH1 0x1 PUSH1 0x1 PUSH1 0xA0 SHL SUB SWAP1 SWAP2 AND DUP2 MSTORE PUSH1 0x20 ADD PUSH2 0xE0 JUMP JUMPDEST PUSH2 0x117 PUSH2 0x17E CALLDATASIZE PUSH1 0x4 PUSH2 0xF8E JUMP JUMPDEST PUSH2 0x2D1 JUMP JUMPDEST PUSH2 0xD6 PUSH2 0x191 CALLDATASIZE PUSH1 0x4 PUSH2 0xF8E JUMP JUMPDEST PUSH2 0x2DC JUMP JUMPDEST PUSH2 0x117 PUSH2 0x1A4 CALLDATASIZE PUSH1 0x4 PUSH2 0xFA9 JUMP JUMPDEST PUSH2 0x2FC JUMP JUMPDEST PUSH2 0xD6 PUSH2 0x1B7 CALLDATASIZE PUSH1 0x4 PUSH2 0xF75 JUMP JUMPDEST PUSH2 0x306 JUMP JUMPDEST PUSH2 0xD6 PUSH2 0x1CA CALLDATASIZE PUSH1 0x4 PUSH2 0xF8E JUMP JUMPDEST PUSH2 0x367 JUMP JUMPDEST PUSH2 0x117 PUSH2 0x1DD CALLDATASIZE PUSH1 0x4 PUSH2 0xFDC JUMP JUMPDEST PUSH2 0x388 JUMP JUMPDEST PUSH2 0xD6 PUSH2 0x4D3 JUMP JUMPDEST PUSH1 0x0 PUSH2 0x1F4 PUSH2 0x4DD JUMP JUMPDEST SWAP1 POP SWAP1 JUMP JUMPDEST PUSH1 0x1 PUSH1 0x1 PUSH1 0xA0 SHL SUB DUP3 AND PUSH1 0x0 SWAP1 DUP2 MSTORE PUSH1 0x1 PUSH1 0x20 MSTORE PUSH1 0x40 DUP2 KECCAK256 PUSH2 0x21B SWAP1 DUP4 PUSH2 0x604 JUMP JUMPDEST SWAP4 SWAP3 POP POP POP JUMP JUMPDEST PUSH1 0x1 PUSH1 0x1 PUSH1 0xA0 SHL SUB DUP3 AND PUSH1 0x0 SWAP1 DUP2 MSTORE PUSH1 0x4 PUSH1 0x20 MSTORE PUSH1 0x40 DUP2 KECCAK256 DUP1 SLOAD PUSH1 0x1 SWAP3 SWAP1 PUSH2 0x24B SWAP1 DUP5 SWAP1 PUSH2 0x1052 JUMP JUMPDEST SWAP1 SWAP2 SSTORE POP POP PUSH1 0x0 DUP2 DUP2 MSTORE PUSH1 0x5 PUSH1 0x20 MSTORE PUSH1 0x40 DUP2 KECCAK256 DUP1 SLOAD PUSH1 0x1 PUSH1 0x1 PUSH1 0xA0 SHL SUB NOT AND PUSH1 0x1 PUSH1 0x1 PUSH1 0xA0 SHL SUB DUP6 AND OR SWAP1 SSTORE PUSH2 0x283 SWAP1 DUP4 PUSH1 0x1 PUSH2 0x713 JUMP JUMPDEST POP POP JUMP JUMPDEST PUSH1 0x0 DUP2 DUP2 MSTORE PUSH1 0x5 PUSH1 0x20 SWAP1 DUP2 MSTORE PUSH1 0x40 DUP1 DUP4 KECCAK256 SLOAD PUSH1 0x1 PUSH1 0x1 PUSH1 0xA0 SHL SUB AND DUP1 DUP5 MSTORE PUSH1 0x4 SWAP1 SWAP3 MSTORE DUP3 KECCAK256 DUP1 SLOAD SWAP2 SWAP3 PUSH1 0x1 SWAP3 PUSH2 0x2BE SWAP1 DUP5 SWAP1 PUSH2 0x106A JUMP JUMPDEST SWAP1 SWAP2 SSTORE POP PUSH2 0x283 SWAP1 POP DUP2 PUSH1 0x0 PUSH1 0x1 PUSH2 0x713 JUMP JUMPDEST CALLER PUSH2 0x283 DUP2 DUP4 PUSH2 0x788 JUMP JUMPDEST PUSH1 0x1 PUSH1 0x1 PUSH1 0xA0 SHL SUB DUP2 AND PUSH1 0x0 SWAP1 DUP2 MSTORE PUSH1 0x3 PUSH1 0x20 MSTORE PUSH1 0x40 DUP2 KECCAK256 SLOAD JUMPDEST SWAP3 SWAP2 POP POP JUMP JUMPDEST PUSH2 0x283 DUP3 DUP3 PUSH2 0x788 JUMP JUMPDEST PUSH1 0x0 NUMBER DUP3 LT PUSH2 0x35C JUMPI PUSH1 0x40 MLOAD PUSH3 0x461BCD PUSH1 0xE5 SHL DUP2 MSTORE PUSH1 0x20 PUSH1 0x4 DUP3 ADD MSTORE PUSH1 0x1A PUSH1 0x24 DUP3 ADD MSTORE PUSH32 0x566F7465733A20626C6F636B206E6F7420796574206D696E6564000000000000 PUSH1 0x44 DUP3 ADD MSTORE PUSH1 0x64 ADD JUMPDEST PUSH1 0x40 MLOAD DUP1 SWAP2 SUB SWAP1 REVERT JUMPDEST PUSH2 0x2F6 PUSH1 0x2 DUP4 PUSH2 0x604 JUMP JUMPDEST PUSH1 0x1 PUSH1 0x1 PUSH1 0xA0 SHL SUB DUP2 AND PUSH1 0x0 SWAP1 DUP2 MSTORE PUSH1 0x1 PUSH1 0x20 MSTORE PUSH1 0x40 DUP2 KECCAK256 PUSH2 0x2F6 SWAP1 PUSH2 0x810 JUMP JUMPDEST DUP4 TIMESTAMP GT ISZERO PUSH2 0x3D8 JUMPI PUSH1 0x40 MLOAD PUSH3 0x461BCD PUSH1 0xE5 SHL DUP2 MSTORE PUSH1 0x20 PUSH1 0x4 DUP3 ADD MSTORE PUSH1 0x18 PUSH1 0x24 DUP3 ADD MSTORE PUSH32 0x566F7465733A207369676E617475726520657870697265640000000000000000 PUSH1 0x44 DUP3 ADD MSTORE PUSH1 0x64 ADD PUSH2 0x353 JUMP JUMPDEST PUSH1 0x40 DUP1 MLOAD PUSH32 0xE48329057BFD03D55E49B547132E39CFFD9C1820AD7B9D4C5307691425D15ADF PUSH1 0x20 DUP3 ADD MSTORE PUSH1 0x1 PUSH1 0x1 PUSH1 0xA0 SHL SUB DUP9 AND SWAP2 DUP2 ADD SWAP2 SWAP1 SWAP2 MSTORE PUSH1 0x60 DUP2 ADD DUP7 SWAP1 MSTORE PUSH1 0x80 DUP2 ADD DUP6 SWAP1 MSTORE PUSH1 0x0 SWAP1 PUSH2 0x452 SWAP1 PUSH2 0x44A SWAP1 PUSH1 0xA0 ADD PUSH1 0x40 MLOAD PUSH1 0x20 DUP2 DUP4 SUB SUB DUP2 MSTORE SWAP1 PUSH1 0x40 MSTORE DUP1 MLOAD SWAP1 PUSH1 0x20 ADD KECCAK256 PUSH2 0x86C JUMP JUMPDEST DUP6 DUP6 DUP6 PUSH2 0x8BA JUMP JUMPDEST SWAP1 POP PUSH2 0x47B DUP2 PUSH1 0x1 PUSH1 0x1 PUSH1 0xA0 SHL SUB AND PUSH1 0x0 SWAP1 DUP2 MSTORE PUSH1 0x3 PUSH1 0x20 MSTORE PUSH1 0x40 SWAP1 KECCAK256 DUP1 SLOAD PUSH1 0x1 DUP2 ADD SWAP1 SWAP2 SSTORE SWAP1 JUMP JUMPDEST DUP7 EQ PUSH2 0x4C0 JUMPI PUSH1 0x40 MLOAD PUSH3 0x461BCD PUSH1 0xE5 SHL DUP2 MSTORE PUSH1 0x20 PUSH1 0x4 DUP3 ADD MSTORE PUSH1 0x14 PUSH1 0x24 DUP3 ADD MSTORE PUSH20 0x566F7465733A20696E76616C6964206E6F6E6365 PUSH1 0x60 SHL PUSH1 0x44 DUP3 ADD MSTORE PUSH1 0x64 ADD PUSH2 0x353 JUMP JUMPDEST PUSH2 0x4CA DUP2 DUP9 PUSH2 0x788 JUMP JUMPDEST POP POP POP POP POP POP POP JUMP JUMPDEST PUSH1 0x0 PUSH2 0x1F4 PUSH2 0x8E2 JUMP JUMPDEST PUSH1 0x0 ADDRESS PUSH1 0x1 PUSH1 0x1 PUSH1 0xA0 SHL SUB PUSH32 0x0 AND EQ DUP1 ISZERO PUSH2 0x536 JUMPI POP PUSH32 0x0 CHAINID EQ JUMPDEST ISZERO PUSH2 0x560 JUMPI POP PUSH32 0x0 SWAP1 JUMP JUMPDEST POP PUSH1 0x40 DUP1 MLOAD PUSH32 0x0 PUSH1 0x20 DUP1 DUP4 ADD SWAP2 SWAP1 SWAP2 MSTORE PUSH32 0x0 DUP3 DUP5 ADD MSTORE PUSH32 0x0 PUSH1 0x60 DUP4 ADD MSTORE CHAINID PUSH1 0x80 DUP4 ADD MSTORE ADDRESS PUSH1 0xA0 DUP1 DUP5 ADD SWAP2 SWAP1 SWAP2 MSTORE DUP4 MLOAD DUP1 DUP5 SUB SWAP1 SWAP2 ADD DUP2 MSTORE PUSH1 0xC0 SWAP1 SWAP3 ADD SWAP1 SWAP3 MSTORE DUP1 MLOAD SWAP2 ADD KECCAK256 SWAP1 JUMP JUMPDEST PUSH1 0x0 NUMBER DUP3 LT PUSH2 0x655 JUMPI PUSH1 0x40 MLOAD PUSH3 0x461BCD PUSH1 0xE5 SHL DUP2 MSTORE PUSH1 0x20 PUSH1 0x4 DUP3 ADD DUP2 SWAP1 MSTORE PUSH1 0x24 DUP3 ADD MSTORE PUSH32 0x436865636B706F696E74733A20626C6F636B206E6F7420796574206D696E6564 PUSH1 0x44 DUP3 ADD MSTORE PUSH1 0x64 ADD PUSH2 0x353 JUMP JUMPDEST DUP3 SLOAD PUSH1 0x0 JUMPDEST DUP2 DUP2 LT ISZERO PUSH2 0x6BA JUMPI PUSH1 0x0 PUSH2 0x66E DUP3 DUP5 PUSH2 0x8EE JUMP JUMPDEST SWAP1 POP DUP5 DUP7 PUSH1 0x0 ADD DUP3 DUP2 SLOAD DUP2 LT PUSH2 0x686 JUMPI PUSH2 0x686 PUSH2 0x1081 JUMP JUMPDEST PUSH1 0x0 SWAP2 DUP3 MSTORE PUSH1 0x20 SWAP1 SWAP2 KECCAK256 ADD SLOAD PUSH4 0xFFFFFFFF AND GT ISZERO PUSH2 0x6A6 JUMPI DUP1 SWAP3 POP PUSH2 0x6B4 JUMP JUMPDEST PUSH2 0x6B1 DUP2 PUSH1 0x1 PUSH2 0x1052 JUMP JUMPDEST SWAP2 POP JUMPDEST POP PUSH2 0x65A JUMP JUMPDEST DUP2 ISZERO PUSH2 0x6FE JUMPI DUP5 PUSH2 0x6CC PUSH1 0x1 DUP5 PUSH2 0x106A JUMP JUMPDEST DUP2 SLOAD DUP2 LT PUSH2 0x6DC JUMPI PUSH2 0x6DC PUSH2 0x1081 JUMP JUMPDEST PUSH1 0x0 SWAP2 DUP3 MSTORE PUSH1 0x20 SWAP1 SWAP2 KECCAK256 ADD SLOAD PUSH5 0x100000000 SWAP1 DIV PUSH1 0x1 PUSH1 0x1 PUSH1 0xE0 SHL SUB AND PUSH2 0x701 JUMP JUMPDEST PUSH1 0x0 JUMPDEST PUSH1 0x1 PUSH1 0x1 PUSH1 0xE0 SHL SUB AND SWAP6 SWAP5 POP POP POP POP POP JUMP JUMPDEST PUSH1 0x1 PUSH1 0x1 PUSH1 0xA0 SHL SUB DUP4 AND PUSH2 0x732 JUMPI PUSH2 0x72F PUSH1 0x2 PUSH2 0x909 DUP4 PUSH2 0x915 JUMP JUMPDEST POP POP JUMPDEST PUSH1 0x1 PUSH1 0x1 PUSH1 0xA0 SHL SUB DUP3 AND PUSH2 0x751 JUMPI PUSH2 0x74E PUSH1 0x2 PUSH2 0x943 DUP4 PUSH2 0x915 JUMP JUMPDEST POP POP JUMPDEST PUSH1 0x1 PUSH1 0x1 PUSH1 0xA0 SHL SUB DUP4 DUP2 AND PUSH1 0x0 SWAP1 DUP2 MSTORE PUSH1 0x20 DUP2 SWAP1 MSTORE PUSH1 0x40 DUP1 DUP3 KECCAK256 SLOAD DUP6 DUP5 AND DUP4 MSTORE SWAP2 KECCAK256 SLOAD PUSH2 0x783 SWAP3 SWAP2 DUP3 AND SWAP2 AND DUP4 PUSH2 0x94F JUMP JUMPDEST POP POP POP JUMP JUMPDEST PUSH1 0x1 PUSH1 0x1 PUSH1 0xA0 SHL SUB DUP3 DUP2 AND PUSH1 0x0 DUP2 DUP2 MSTORE PUSH1 0x20 DUP2 SWAP1 MSTORE PUSH1 0x40 DUP1 DUP3 KECCAK256 DUP1 SLOAD DUP7 DUP7 AND PUSH1 0x1 PUSH1 0x1 PUSH1 0xA0 SHL SUB NOT DUP3 AND DUP2 OR SWAP1 SWAP3 SSTORE SWAP2 MLOAD SWAP2 SWAP1 SWAP5 AND SWAP4 SWAP3 DUP5 SWAP3 SWAP1 SWAP2 PUSH32 0x3134E8A2E6D97E929A7E54011EA5485D7D196DD5F0BA4D4EF95803E8E3FC257F SWAP2 SWAP1 LOG4 PUSH2 0x783 DUP2 DUP4 PUSH2 0x80B DUP7 PUSH1 0x1 PUSH1 0x1 PUSH1 0xA0 SHL SUB AND PUSH1 0x0 SWAP1 DUP2 MSTORE PUSH1 0x4 PUSH1 0x20 MSTORE PUSH1 0x40 SWAP1 KECCAK256 SLOAD SWAP1 JUMP JUMPDEST PUSH2 0x94F JUMP JUMPDEST DUP1 SLOAD PUSH1 0x0 SWAP1 DUP1 ISZERO PUSH2 0x859 JUMPI DUP3 PUSH2 0x827 PUSH1 0x1 DUP4 PUSH2 0x106A JUMP JUMPDEST DUP2 SLOAD DUP2 LT PUSH2 0x837 JUMPI PUSH2 0x837 PUSH2 0x1081 JUMP JUMPDEST PUSH1 0x0 SWAP2 DUP3 MSTORE PUSH1 0x20 SWAP1 SWAP2 KECCAK256 ADD SLOAD PUSH5 0x100000000 SWAP1 DIV PUSH1 0x1 PUSH1 0x1 PUSH1 0xE0 SHL SUB AND PUSH2 0x85C JUMP JUMPDEST PUSH1 0x0 JUMPDEST PUSH1 0x1 PUSH1 0x1 PUSH1 0xE0 SHL SUB AND SWAP4 SWAP3 POP POP POP JUMP JUMPDEST PUSH1 0x0 PUSH2 0x2F6 PUSH2 0x879 PUSH2 0x4DD JUMP JUMPDEST DUP4 PUSH1 0x40 MLOAD PUSH2 0x1901 PUSH1 0xF0 SHL PUSH1 0x20 DUP3 ADD MSTORE PUSH1 0x22 DUP2 ADD DUP4 SWAP1 MSTORE PUSH1 0x42 DUP2 ADD DUP3 SWAP1 MSTORE PUSH1 0x0 SWAP1 PUSH1 0x62 ADD PUSH1 0x40 MLOAD PUSH1 0x20 DUP2 DUP4 SUB SUB DUP2 MSTORE SWAP1 PUSH1 0x40 MSTORE DUP1 MLOAD SWAP1 PUSH1 0x20 ADD KECCAK256 SWAP1 POP SWAP3 SWAP2 POP POP JUMP JUMPDEST PUSH1 0x0 DUP1 PUSH1 0x0 PUSH2 0x8CB DUP8 DUP8 DUP8 DUP8 PUSH2 0xA8C JUMP JUMPDEST SWAP2 POP SWAP2 POP PUSH2 0x8D8 DUP2 PUSH2 0xB79 JUMP JUMPDEST POP SWAP6 SWAP5 POP POP POP POP POP JUMP JUMPDEST PUSH1 0x0 PUSH2 0x1F4 PUSH1 0x2 PUSH2 0x810 JUMP JUMPDEST PUSH1 0x0 PUSH2 0x8FD PUSH1 0x2 DUP5 DUP5 XOR PUSH2 0x1097 JUMP JUMPDEST PUSH2 0x21B SWAP1 DUP5 DUP5 AND PUSH2 0x1052 JUMP JUMPDEST PUSH1 0x0 PUSH2 0x21B DUP3 DUP5 PUSH2 0x1052 JUMP JUMPDEST PUSH1 0x0 DUP1 PUSH2 0x937 DUP6 PUSH2 0x932 PUSH2 0x928 DUP9 PUSH2 0x810 JUMP JUMPDEST DUP7 DUP9 PUSH4 0xFFFFFFFF AND JUMP JUMPDEST PUSH2 0xD37 JUMP JUMPDEST SWAP2 POP SWAP2 POP SWAP4 POP SWAP4 SWAP2 POP POP JUMP JUMPDEST PUSH1 0x0 PUSH2 0x21B DUP3 DUP5 PUSH2 0x106A JUMP JUMPDEST DUP2 PUSH1 0x1 PUSH1 0x1 PUSH1 0xA0 SHL SUB AND DUP4 PUSH1 0x1 PUSH1 0x1 PUSH1 0xA0 SHL SUB AND EQ ISZERO DUP1 ISZERO PUSH2 0x971 JUMPI POP PUSH1 0x0 DUP2 GT JUMPDEST ISZERO PUSH2 0x783 JUMPI PUSH1 0x1 PUSH1 0x1 PUSH1 0xA0 SHL SUB DUP4 AND ISZERO PUSH2 0x9FF JUMPI PUSH1 0x1 PUSH1 0x1 PUSH1 0xA0 SHL SUB DUP4 AND PUSH1 0x0 SWAP1 DUP2 MSTORE PUSH1 0x1 PUSH1 0x20 MSTORE PUSH1 0x40 DUP2 KECCAK256 DUP2 SWAP1 PUSH2 0x9AC SWAP1 PUSH2 0x943 DUP6 PUSH2 0x915 JUMP JUMPDEST SWAP2 POP SWAP2 POP DUP5 PUSH1 0x1 PUSH1 0x1 PUSH1 0xA0 SHL SUB AND PUSH32 0xDEC2BACDD2F05B59DE34DA9B523DFF8BE42E5E38E818C82FDB0BAE774387A724 DUP4 DUP4 PUSH1 0x40 MLOAD PUSH2 0x9F4 SWAP3 SWAP2 SWAP1 SWAP2 DUP3 MSTORE PUSH1 0x20 DUP3 ADD MSTORE PUSH1 0x40 ADD SWAP1 JUMP JUMPDEST PUSH1 0x40 MLOAD DUP1 SWAP2 SUB SWAP1 LOG2 POP POP JUMPDEST PUSH1 0x1 PUSH1 0x1 PUSH1 0xA0 SHL SUB DUP3 AND ISZERO PUSH2 0x783 JUMPI PUSH1 0x1 PUSH1 0x1 PUSH1 0xA0 SHL SUB DUP3 AND PUSH1 0x0 SWAP1 DUP2 MSTORE PUSH1 0x1 PUSH1 0x20 MSTORE PUSH1 0x40 DUP2 KECCAK256 DUP2 SWAP1 PUSH2 0xA35 SWAP1 PUSH2 0x909 DUP6 PUSH2 0x915 JUMP JUMPDEST SWAP2 POP SWAP2 POP DUP4 PUSH1 0x1 PUSH1 0x1 PUSH1 0xA0 SHL SUB AND PUSH32 0xDEC2BACDD2F05B59DE34DA9B523DFF8BE42E5E38E818C82FDB0BAE774387A724 DUP4 DUP4 PUSH1 0x40 MLOAD PUSH2 0xA7D SWAP3 SWAP2 SWAP1 SWAP2 DUP3 MSTORE PUSH1 0x20 DUP3 ADD MSTORE PUSH1 0x40 ADD SWAP1 JUMP JUMPDEST PUSH1 0x40 MLOAD DUP1 SWAP2 SUB SWAP1 LOG2 POP POP POP POP POP JUMP JUMPDEST PUSH1 0x0 DUP1 PUSH32 0x7FFFFFFFFFFFFFFFFFFFFFFFFFFFFFFF5D576E7357A4501DDFE92F46681B20A0 DUP4 GT ISZERO PUSH2 0xAC3 JUMPI POP PUSH1 0x0 SWAP1 POP PUSH1 0x3 PUSH2 0xB70 JUMP JUMPDEST DUP5 PUSH1 0xFF AND PUSH1 0x1B EQ ISZERO DUP1 ISZERO PUSH2 0xADB JUMPI POP DUP5 PUSH1 0xFF AND PUSH1 0x1C EQ ISZERO JUMPDEST ISZERO PUSH2 0xAEC JUMPI POP PUSH1 0x0 SWAP1 POP PUSH1 0x4 PUSH2 0xB70 JUMP JUMPDEST PUSH1 0x40 DUP1 MLOAD PUSH1 0x0 DUP1 DUP3 MSTORE PUSH1 0x20 DUP3 ADD DUP1 DUP5 MSTORE DUP10 SWAP1 MSTORE PUSH1 0xFF DUP9 AND SWAP3 DUP3 ADD SWAP3 SWAP1 SWAP3 MSTORE PUSH1 0x60 DUP2 ADD DUP7 SWAP1 MSTORE PUSH1 0x80 DUP2 ADD DUP6 SWAP1 MSTORE PUSH1 0x1 SWAP1 PUSH1 0xA0 ADD PUSH1 0x20 PUSH1 0x40 MLOAD PUSH1 0x20 DUP2 SUB SWAP1 DUP1 DUP5 SUB SWAP1 DUP6 GAS STATICCALL ISZERO DUP1 ISZERO PUSH2 0xB40 JUMPI RETURNDATASIZE PUSH1 0x0 DUP1 RETURNDATACOPY RETURNDATASIZE PUSH1 0x0 REVERT JUMPDEST POP POP PUSH1 0x40 MLOAD PUSH1 0x1F NOT ADD MLOAD SWAP2 POP POP PUSH1 0x1 PUSH1 0x1 PUSH1 0xA0 SHL SUB DUP2 AND PUSH2 0xB69 JUMPI PUSH1 0x0 PUSH1 0x1 SWAP3 POP SWAP3 POP POP PUSH2 0xB70 JUMP JUMPDEST SWAP2 POP PUSH1 0x0 SWAP1 POP JUMPDEST SWAP5 POP SWAP5 SWAP3 POP POP POP JUMP JUMPDEST PUSH1 0x0 DUP2 PUSH1 0x4 DUP2 GT ISZERO PUSH2 0xB8D JUMPI PUSH2 0xB8D PUSH2 0x10B9 JUMP JUMPDEST EQ ISZERO PUSH2 0xB96 JUMPI POP JUMP JUMPDEST PUSH1 0x1 DUP2 PUSH1 0x4 DUP2 GT ISZERO PUSH2 0xBAA JUMPI PUSH2 0xBAA PUSH2 0x10B9 JUMP JUMPDEST EQ ISZERO PUSH2 0xBF8 JUMPI PUSH1 0x40 MLOAD PUSH3 0x461BCD PUSH1 0xE5 SHL DUP2 MSTORE PUSH1 0x20 PUSH1 0x4 DUP3 ADD MSTORE PUSH1 0x18 PUSH1 0x24 DUP3 ADD MSTORE PUSH32 0x45434453413A20696E76616C6964207369676E61747572650000000000000000 PUSH1 0x44 DUP3 ADD MSTORE PUSH1 0x64 ADD PUSH2 0x353 JUMP JUMPDEST PUSH1 0x2 DUP2 PUSH1 0x4 DUP2 GT ISZERO PUSH2 0xC0C JUMPI PUSH2 0xC0C PUSH2 0x10B9 JUMP JUMPDEST EQ ISZERO PUSH2 0xC5A JUMPI PUSH1 0x40 MLOAD PUSH3 0x461BCD PUSH1 0xE5 SHL DUP2 MSTORE PUSH1 0x20 PUSH1 0x4 DUP3 ADD MSTORE PUSH1 0x1F PUSH1 0x24 DUP3 ADD MSTORE PUSH32 0x45434453413A20696E76616C6964207369676E6174757265206C656E67746800 PUSH1 0x44 DUP3 ADD MSTORE PUSH1 0x64 ADD PUSH2 0x353 JUMP JUMPDEST PUSH1 0x3 DUP2 PUSH1 0x4 DUP2 GT ISZERO PUSH2 0xC6E JUMPI PUSH2 0xC6E PUSH2 0x10B9 JUMP JUMPDEST EQ ISZERO PUSH2 0xCC7 JUMPI PUSH1 0x40 MLOAD PUSH3 0x461BCD PUSH1 0xE5 SHL DUP2 MSTORE PUSH1 0x20 PUSH1 0x4 DUP3 ADD MSTORE PUSH1 0x22 PUSH1 0x24 DUP3 ADD MSTORE PUSH32 0x45434453413A20696E76616C6964207369676E6174757265202773272076616C PUSH1 0x44 DUP3 ADD MSTORE PUSH2 0x7565 PUSH1 0xF0 SHL PUSH1 0x64 DUP3 ADD MSTORE PUSH1 0x84 ADD PUSH2 0x353 JUMP JUMPDEST PUSH1 0x4 DUP2 PUSH1 0x4 DUP2 GT ISZERO PUSH2 0xCDB JUMPI PUSH2 0xCDB PUSH2 0x10B9 JUMP JUMPDEST EQ ISZERO PUSH2 0xD34 JUMPI PUSH1 0x40 MLOAD PUSH3 0x461BCD PUSH1 0xE5 SHL DUP2 MSTORE PUSH1 0x20 PUSH1 0x4 DUP3 ADD MSTORE PUSH1 0x22 PUSH1 0x24 DUP3 ADD MSTORE PUSH32 0x45434453413A20696E76616C6964207369676E6174757265202776272076616C PUSH1 0x44 DUP3 ADD MSTORE PUSH2 0x7565 PUSH1 0xF0 SHL PUSH1 0x64 DUP3 ADD MSTORE PUSH1 0x84 ADD PUSH2 0x353 JUMP JUMPDEST POP JUMP JUMPDEST DUP2 SLOAD PUSH1 0x0 SWAP1 DUP2 SWAP1 DUP2 PUSH2 0xD48 DUP7 PUSH2 0x810 JUMP JUMPDEST SWAP1 POP PUSH1 0x0 DUP3 GT DUP1 ISZERO PUSH2 0xD86 JUMPI POP NUMBER DUP7 PUSH2 0xD62 PUSH1 0x1 DUP6 PUSH2 0x106A JUMP JUMPDEST DUP2 SLOAD DUP2 LT PUSH2 0xD72 JUMPI PUSH2 0xD72 PUSH2 0x1081 JUMP JUMPDEST PUSH1 0x0 SWAP2 DUP3 MSTORE PUSH1 0x20 SWAP1 SWAP2 KECCAK256 ADD SLOAD PUSH4 0xFFFFFFFF AND EQ JUMPDEST ISZERO PUSH2 0xDE6 JUMPI PUSH2 0xD94 DUP6 PUSH2 0xE5D JUMP JUMPDEST DUP7 PUSH2 0xDA0 PUSH1 0x1 DUP6 PUSH2 0x106A JUMP JUMPDEST DUP2 SLOAD DUP2 LT PUSH2 0xDB0 JUMPI PUSH2 0xDB0 PUSH2 0x1081 JUMP JUMPDEST SWAP1 PUSH1 0x0 MSTORE PUSH1 0x20 PUSH1 0x0 KECCAK256 ADD PUSH1 0x0 ADD PUSH1 0x4 PUSH2 0x100 EXP DUP2 SLOAD DUP2 PUSH1 0x1 PUSH1 0x1 PUSH1 0xE0 SHL SUB MUL NOT AND SWAP1 DUP4 PUSH1 0x1 PUSH1 0x1 PUSH1 0xE0 SHL SUB AND MUL OR SWAP1 SSTORE POP PUSH2 0xE54 JUMP JUMPDEST DUP6 PUSH1 0x0 ADD PUSH1 0x40 MLOAD DUP1 PUSH1 0x40 ADD PUSH1 0x40 MSTORE DUP1 PUSH2 0xDFE NUMBER PUSH2 0xECA JUMP JUMPDEST PUSH4 0xFFFFFFFF AND DUP2 MSTORE PUSH1 0x20 ADD PUSH2 0xE12 DUP9 PUSH2 0xE5D JUMP JUMPDEST PUSH1 0x1 PUSH1 0x1 PUSH1 0xE0 SHL SUB SWAP1 DUP2 AND SWAP1 SWAP2 MSTORE DUP3 SLOAD PUSH1 0x1 DUP2 ADD DUP5 SSTORE PUSH1 0x0 SWAP4 DUP5 MSTORE PUSH1 0x20 SWAP4 DUP5 SWAP1 KECCAK256 DUP4 MLOAD SWAP5 SWAP1 SWAP4 ADD MLOAD SWAP1 SWAP2 AND PUSH5 0x100000000 MUL PUSH4 0xFFFFFFFF SWAP1 SWAP4 AND SWAP3 SWAP1 SWAP3 OR SWAP2 ADD SSTORE JUMPDEST SWAP6 SWAP4 SWAP5 POP POP POP POP JUMP JUMPDEST PUSH1 0x0 PUSH1 0x1 PUSH1 0x1 PUSH1 0xE0 SHL SUB DUP3 GT ISZERO PUSH2 0xEC6 JUMPI PUSH1 0x40 MLOAD PUSH3 0x461BCD PUSH1 0xE5 SHL DUP2 MSTORE PUSH1 0x20 PUSH1 0x4 DUP3 ADD MSTORE PUSH1 0x27 PUSH1 0x24 DUP3 ADD MSTORE PUSH32 0x53616665436173743A2076616C756520646F65736E27742066697420696E2032 PUSH1 0x44 DUP3 ADD MSTORE PUSH7 0x32342062697473 PUSH1 0xC8 SHL PUSH1 0x64 DUP3 ADD MSTORE PUSH1 0x84 ADD PUSH2 0x353 JUMP JUMPDEST POP SWAP1 JUMP JUMPDEST PUSH1 0x0 PUSH4 0xFFFFFFFF DUP3 GT ISZERO PUSH2 0xEC6 JUMPI PUSH1 0x40 MLOAD PUSH3 0x461BCD PUSH1 0xE5 SHL DUP2 MSTORE PUSH1 0x20 PUSH1 0x4 DUP3 ADD MSTORE PUSH1 0x26 PUSH1 0x24 DUP3 ADD MSTORE PUSH32 0x53616665436173743A2076616C756520646F65736E27742066697420696E2033 PUSH1 0x44 DUP3 ADD MSTORE PUSH6 0x322062697473 PUSH1 0xD0 SHL PUSH1 0x64 DUP3 ADD MSTORE PUSH1 0x84 ADD PUSH2 0x353 JUMP JUMPDEST DUP1 CALLDATALOAD PUSH1 0x1 PUSH1 0x1 PUSH1 0xA0 SHL SUB DUP2 AND DUP2 EQ PUSH2 0xF46 JUMPI PUSH1 0x0 DUP1 REVERT JUMPDEST SWAP2 SWAP1 POP JUMP JUMPDEST PUSH1 0x0 DUP1 PUSH1 0x40 DUP4 DUP6 SUB SLT ISZERO PUSH2 0xF5E JUMPI PUSH1 0x0 DUP1 REVERT JUMPDEST PUSH2 0xF67 DUP4 PUSH2 0xF2F JUMP JUMPDEST SWAP5 PUSH1 0x20 SWAP4 SWAP1 SWAP4 ADD CALLDATALOAD SWAP4 POP POP POP JUMP JUMPDEST PUSH1 0x0 PUSH1 0x20 DUP3 DUP5 SUB SLT ISZERO PUSH2 0xF87 JUMPI PUSH1 0x0 DUP1 REVERT JUMPDEST POP CALLDATALOAD SWAP2 SWAP1 POP JUMP JUMPDEST PUSH1 0x0 PUSH1 0x20 DUP3 DUP5 SUB SLT ISZERO PUSH2 0xFA0 JUMPI PUSH1 0x0 DUP1 REVERT JUMPDEST PUSH2 0x21B DUP3 PUSH2 0xF2F JUMP JUMPDEST PUSH1 0x0 DUP1 PUSH1 0x40 DUP4 DUP6 SUB SLT ISZERO PUSH2 0xFBC JUMPI PUSH1 0x0 DUP1 REVERT JUMPDEST PUSH2 0xFC5 DUP4 PUSH2 0xF2F JUMP JUMPDEST SWAP2 POP PUSH2 0xFD3 PUSH1 0x20 DUP5 ADD PUSH2 0xF2F JUMP JUMPDEST SWAP1 POP SWAP3 POP SWAP3 SWAP1 POP JUMP JUMPDEST PUSH1 0x0 DUP1 PUSH1 0x0 DUP1 PUSH1 0x0 DUP1 PUSH1 0xC0 DUP8 DUP10 SUB SLT ISZERO PUSH2 0xFF5 JUMPI PUSH1 0x0 DUP1 REVERT JUMPDEST PUSH2 0xFFE DUP8 PUSH2 0xF2F JUMP JUMPDEST SWAP6 POP PUSH1 0x20 DUP8 ADD CALLDATALOAD SWAP5 POP PUSH1 0x40 DUP8 ADD CALLDATALOAD SWAP4 POP PUSH1 0x60 DUP8 ADD CALLDATALOAD PUSH1 0xFF DUP2 AND DUP2 EQ PUSH2 0x1022 JUMPI PUSH1 0x0 DUP1 REVERT JUMPDEST SWAP6 SWAP9 SWAP5 SWAP8 POP SWAP3 SWAP6 PUSH1 0x80 DUP2 ADD CALLDATALOAD SWAP5 PUSH1 0xA0 SWAP1 SWAP2 ADD CALLDATALOAD SWAP4 POP SWAP2 POP POP JUMP JUMPDEST PUSH4 0x4E487B71 PUSH1 0xE0 SHL PUSH1 0x0 MSTORE PUSH1 0x11 PUSH1 0x4 MSTORE PUSH1 0x24 PUSH1 0x0 REVERT JUMPDEST PUSH1 0x0 DUP3 NOT DUP3 GT ISZERO PUSH2 0x1065 JUMPI PUSH2 0x1065 PUSH2 0x103C JUMP JUMPDEST POP ADD SWAP1 JUMP JUMPDEST PUSH1 0x0 DUP3 DUP3 LT ISZERO PUSH2 0x107C JUMPI PUSH2 0x107C PUSH2 0x103C JUMP JUMPDEST POP SUB SWAP1 JUMP JUMPDEST PUSH4 0x4E487B71 PUSH1 0xE0 SHL PUSH1 0x0 MSTORE PUSH1 0x32 PUSH1 0x4 MSTORE PUSH1 0x24 PUSH1 0x0 REVERT JUMPDEST PUSH1 0x0 DUP3 PUSH2 0x10B4 JUMPI PUSH4 0x4E487B71 PUSH1 0xE0 SHL PUSH1 0x0 MSTORE PUSH1 0x12 PUSH1 0x4 MSTORE PUSH1 0x24 PUSH1 0x0 REVERT JUMPDEST POP DIV SWAP1 JUMP JUMPDEST PUSH4 0x4E487B71 PUSH1 0xE0 SHL PUSH1 0x0 MSTORE PUSH1 0x21 PUSH1 0x4 MSTORE PUSH1 0x24 PUSH1 0x0 REVERT INVALID LOG2 PUSH5 0x6970667358 0x22 SLT KECCAK256 JUMPDEST DUP5 SELFBALANCE 0xE1 0xB5 0x2E 0xB4 0xEF SWAP9 PUSH29 0xDD4B0E1BDC7676720C2BABEB7FCA5F6DD462786CB87564736F6C634300 ADDMOD 0xC STOP CALLER ",
  "sha1": "842cb29eae65ac08d1061874849c22537ddb21f1",
  "source": "// SPDX-License-Identifier: MIT\n\npragma solidity ^0.8.0;\n\nimport \"../governance/utils/Votes.sol\";\n\ncontract VotesMock is Votes {\n    mapping(address => uint256) private _balances;\n    mapping(uint256 => address) private _owners;\n\n    constructor(string memory name) EIP712(name, \"1\") {}\n\n    function getTotalSupply() public view returns (uint256) {\n        return _getTotalSupply();\n    }\n\n    function delegate(address account, address newDelegation) public {\n        return _delegate(account, newDelegation);\n    }\n\n    function _getVotingUnits(address account) internal virtual override returns (uint256) {\n        return _balances[account];\n    }\n\n    function mint(address account, uint256 voteId) external {\n        _balances[account] += 1;\n        _owners[voteId] = account;\n        _transferVotingUnits(address(0), account, 1);\n    }\n\n    function burn(uint256 voteId) external {\n        address owner = _owners[voteId];\n        _balances[owner] -= 1;\n        _transferVotingUnits(owner, address(0), 1);\n    }\n\n    function getChainId() external view returns (uint256) {\n        return block.chainid;\n    }\n}\n",
  "sourcePath": "contracts/openzeppelin/contracts/mocks/VotesMock.sol",
  "type": "contract"
}