{
  "_format": "hh-sol-artifact-1",
  "contractName": "SwapProxy",
  "sourceName": "contracts/Aggregator.sol",
  "abi": [
    {
      "anonymous": false,
      "inputs": [
        {
          "indexed": true,
          "internalType": "address",
          "name": "previousOwner",
          "type": "address"
        },
        {
          "indexed": true,
          "internalType": "address",
          "name": "newOwner",
          "type": "address"
        }
      ],
      "name": "OwnershipTransferred",
      "type": "event"
    },
    {
      "anonymous": false,
      "inputs": [
        {
          "indexed": false,
          "internalType": "address",
          "name": "tokenIn",
          "type": "address"
        },
        {
          "indexed": false,
          "internalType": "uint256",
          "name": "amountIn",
          "type": "uint256"
        },
        {
          "indexed": false,
          "internalType": "address",
          "name": "tokenOut",
          "type": "address"
        },
        {
          "indexed": false,
          "internalType": "uint256",
          "name": "amountOut",
          "type": "uint256"
        }
      ],
      "name": "Swapped",
      "type": "event"
    },
    {
      "inputs": [
        {
          "internalType": "address",
          "name": "token",
          "type": "address"
        },
        {
          "internalType": "address",
          "name": "owner",
          "type": "address"
        }
      ],
      "name": "allowance",
      "outputs": [
        {
          "internalType": "uint256",
          "name": "",
          "type": "uint256"
        }
      ],
      "stateMutability": "view",
      "type": "function"
    },
    {
      "inputs": [
        {
          "internalType": "address",
          "name": "token",
          "type": "address"
        }
      ],
      "name": "getProfits",
      "outputs": [
        {
          "internalType": "uint256",
          "name": "",
          "type": "uint256"
        }
      ],
      "stateMutability": "view",
      "type": "function"
    },
    {
      "inputs": [],
      "name": "owner",
      "outputs": [
        {
          "internalType": "address",
          "name": "",
          "type": "address"
        }
      ],
      "stateMutability": "view",
      "type": "function"
    },
    {
      "inputs": [],
      "name": "renounceOwnership",
      "outputs": [],
      "stateMutability": "nonpayable",
      "type": "function"
    },
    {
      "inputs": [
        {
          "internalType": "address",
          "name": "_tokenIn",
          "type": "address"
        },
        {
          "internalType": "uint256",
          "name": "_amountIn",
          "type": "uint256"
        },
        {
          "internalType": "address",
          "name": "_tokenOut",
          "type": "address"
        },
        {
          "internalType": "bytes",
          "name": "_firstData",
          "type": "bytes"
        },
        {
          "internalType": "bytes",
          "name": "_secondData",
          "type": "bytes"
        },
        {
          "internalType": "uint256",
          "name": "deadline",
          "type": "uint256"
        },
        {
          "internalType": "uint256",
          "name": "_minProfit",
          "type": "uint256"
        }
      ],
      "name": "swap",
      "outputs": [],
      "stateMutability": "nonpayable",
      "type": "function"
    },
    {
      "inputs": [
        {
          "internalType": "address",
          "name": "newOwner",
          "type": "address"
        }
      ],
      "name": "transferOwnership",
      "outputs": [],
      "stateMutability": "nonpayable",
      "type": "function"
    },
    {
      "inputs": [
        {
          "internalType": "address",
          "name": "_tokenAddress",
          "type": "address"
        }
      ],
      "name": "withdrawToken",
      "outputs": [],
      "stateMutability": "nonpayable",
      "type": "function"
    }
  ],
  "bytecode": "0x608060405234801561001057600080fd5b5061002d61002261003260201b60201c565b61003a60201b60201c565b6100fe565b600033905090565b60008060009054906101000a900473ffffffffffffffffffffffffffffffffffffffff169050816000806101000a81548173ffffffffffffffffffffffffffffffffffffffff021916908373ffffffffffffffffffffffffffffffffffffffff1602179055508173ffffffffffffffffffffffffffffffffffffffff168173ffffffffffffffffffffffffffffffffffffffff167f8be0079c531659141344cd1fd0a4f28419497f9722a3daafe3b4186f6b6457e060405160405180910390a35050565b6116598061010d6000396000f3fe608060405234801561001057600080fd5b506004361061007d5760003560e01c80638da5cb5b1161005b5780638da5cb5b146100d8578063b8389d8a146100f6578063dd62ed3e14610112578063f2fde38b146101425761007d565b8063715018a61461008257806378df0fe11461008c57806389476069146100bc575b600080fd5b61008a61015e565b005b6100a660048036038101906100a19190610efa565b6101e6565b6040516100b39190611355565b60405180910390f35b6100d660048036038101906100d19190610efa565b6102ab565b005b6100e06103c8565b6040516100ed91906111f1565b60405180910390f35b610110600480360381019061010b9190610f5f565b6103f1565b005b61012c60048036038101906101279190610f23565b610b3e565b6040516101399190611355565b60405180910390f35b61015c60048036038101906101579190610efa565b610bd3565b005b610166610ccb565b73ffffffffffffffffffffffffffffffffffffffff166101846103c8565b73ffffffffffffffffffffffffffffffffffffffff16146101da576040517f08c379a00000000000000000000000000000000000000000000000000000000081526004016101d1906112d5565b60405180910390fd5b6101e46000610cd3565b565b60006101f0610ccb565b73ffffffffffffffffffffffffffffffffffffffff1661020e6103c8565b73ffffffffffffffffffffffffffffffffffffffff1614610264576040517f08c379a000000000000000000000000000000000000000000000000000000000815260040161025b906112d5565b60405180910390fd5b600160008373ffffffffffffffffffffffffffffffffffffffff1673ffffffffffffffffffffffffffffffffffffffff168152602001908152602001600020549050919050565b6102b3610ccb565b73ffffffffffffffffffffffffffffffffffffffff166102d16103c8565b73ffffffffffffffffffffffffffffffffffffffff1614610327576040517f08c379a000000000000000000000000000000000000000000000000000000000815260040161031e906112d5565b60405180910390fd5b600081905060008173ffffffffffffffffffffffffffffffffffffffff166370a08231306040518263ffffffff1660e01b815260040161036791906111f1565b60206040518083038186803b15801561037f57600080fd5b505afa158015610393573d6000803e3d6000fd5b505050506040513d601f19601f820116820180604052508101906103b7919061105e565b90506103c38282610d97565b505050565b60008060009054906101000a900473ffffffffffffffffffffffffffffffffffffffff16905090565b6103f9610ccb565b73ffffffffffffffffffffffffffffffffffffffff166104176103c8565b73ffffffffffffffffffffffffffffffffffffffff161461046d576040517f08c379a0000000000000000000000000000000000000000000000000000000008152600401610464906112d5565b60405180910390fd5b428210156104b0576040517f08c379a00000000000000000000000000000000000000000000000000000000081526004016104a7906112f5565b60405180910390fd5b60008990506000899050600089905060008490508373ffffffffffffffffffffffffffffffffffffffff166323b872dd3330866040518463ffffffff1660e01b815260040161050193929190611235565b602060405180830381600087803b15801561051b57600080fd5b505af115801561052f573d6000803e3d6000fd5b505050506040513d601f19601f820116820180604052508101906105539190611035565b508373ffffffffffffffffffffffffffffffffffffffff1663095ea7b37311111112542d85b3ef69ae05771c2dccff4faa26856040518363ffffffff1660e01b81526004016105a392919061126c565b602060405180830381600087803b1580156105bd57600080fd5b505af11580156105d1573d6000803e3d6000fd5b505050506040513d601f19601f820116820180604052508101906105f59190611035565b506000807311111112542d85b3ef69ae05771c2dccff4faa2673ffffffffffffffffffffffffffffffffffffffff168c8c6040516106349291906111d8565b6000604051808303816000865af19150503d8060008114610671576040519150601f19603f3d011682016040523d82523d6000602084013e610676565b606091505b50915091506000818060200190518101906106919190611087565b509050826106d4576040517f08c379a00000000000000000000000000000000000000000000000000000000081526004016106cb90611315565b60405180910390fd5b8473ffffffffffffffffffffffffffffffffffffffff1663095ea7b37311111112542d85b3ef69ae05771c2dccff4faa26836040518363ffffffff1660e01b815260040161072392919061126c565b602060405180830381600087803b15801561073d57600080fd5b505af1158015610751573d6000803e3d6000fd5b505050506040513d601f19601f820116820180604052508101906107759190611035565b5060008773ffffffffffffffffffffffffffffffffffffffff166370a08231306040518263ffffffff1660e01b81526004016107b191906111f1565b60206040518083038186803b1580156107c957600080fd5b505afa1580156107dd573d6000803e3d6000fd5b505050506040513d601f19601f82011682018060405250810190610801919061105e565b90507311111112542d85b3ef69ae05771c2dccff4faa2673ffffffffffffffffffffffffffffffffffffffff168c8c60405161083e9291906111d8565b6000604051808303816000865af19150503d806000811461087b576040519150601f19603f3d011682016040523d82523d6000602084013e610880565b606091505b505080945050836108c6576040517f08c379a00000000000000000000000000000000000000000000000000000000081526004016108bd90611335565b60405180910390fd5b60008873ffffffffffffffffffffffffffffffffffffffff166370a08231306040518263ffffffff1660e01b815260040161090191906111f1565b60206040518083038186803b15801561091957600080fd5b505afa15801561092d573d6000803e3d6000fd5b505050506040513d601f19601f82011682018060405250810190610951919061105e565b905060006109688383610e3090919063ffffffff16565b905061097d878a610e4690919063ffffffff16565b8110156109bf576040517f08c379a00000000000000000000000000000000000000000000000000000000081526004016109b6906112b5565b60405180910390fd5b60008873ffffffffffffffffffffffffffffffffffffffff166370a08231306040518263ffffffff1660e01b81526004016109fa91906111f1565b60206040518083038186803b158015610a1257600080fd5b505afa158015610a26573d6000803e3d6000fd5b505050506040513d601f19601f82011682018060405250810190610a4a919061105e565b90506000811115610ab65780600160008b73ffffffffffffffffffffffffffffffffffffffff1673ffffffffffffffffffffffffffffffffffffffff1681526020019081526020016000206000828254610aa4919061138c565b92505081905550610ab58982610d97565b5b610ac98a83610e3090919063ffffffff16565b600160008d73ffffffffffffffffffffffffffffffffffffffff1673ffffffffffffffffffffffffffffffffffffffff1681526020019081526020016000206000828254610b17919061138c565b92505081905550610b288b83610d97565b5050505050505050505050505050505050505050565b60008273ffffffffffffffffffffffffffffffffffffffff1663dd62ed3e83306040518363ffffffff1660e01b8152600401610b7b92919061120c565b60206040518083038186803b158015610b9357600080fd5b505afa158015610ba7573d6000803e3d6000fd5b505050506040513d601f19601f82011682018060405250810190610bcb919061105e565b905092915050565b610bdb610ccb565b73ffffffffffffffffffffffffffffffffffffffff16610bf96103c8565b73ffffffffffffffffffffffffffffffffffffffff1614610c4f576040517f08c379a0000000000000000000000000000000000000000000000000000000008152600401610c46906112d5565b60405180910390fd5b600073ffffffffffffffffffffffffffffffffffffffff168173ffffffffffffffffffffffffffffffffffffffff161415610cbf576040517f08c379a0000000000000000000000000000000000000000000000000000000008152600401610cb690611295565b60405180910390fd5b610cc881610cd3565b50565b600033905090565b60008060009054906101000a900473ffffffffffffffffffffffffffffffffffffffff169050816000806101000a81548173ffffffffffffffffffffffffffffffffffffffff021916908373ffffffffffffffffffffffffffffffffffffffff1602179055508173ffffffffffffffffffffffffffffffffffffffff168173ffffffffffffffffffffffffffffffffffffffff167f8be0079c531659141344cd1fd0a4f28419497f9722a3daafe3b4186f6b6457e060405160405180910390a35050565b8173ffffffffffffffffffffffffffffffffffffffff1663a9059cbb610dbb6103c8565b836040518363ffffffff1660e01b8152600401610dd992919061126c565b602060405180830381600087803b158015610df357600080fd5b505af1158015610e07573d6000803e3d6000fd5b505050506040513d601f19601f82011682018060405250810190610e2b9190611035565b505050565b60008183610e3e91906113e2565b905092915050565b60008183610e54919061138c565b905092915050565b600081359050610e6b816115de565b92915050565b600081519050610e80816115f5565b92915050565b60008083601f840112610e9857600080fd5b8235905067ffffffffffffffff811115610eb157600080fd5b602083019150836001820283011115610ec957600080fd5b9250929050565b600081359050610edf8161160c565b92915050565b600081519050610ef48161160c565b92915050565b600060208284031215610f0c57600080fd5b6000610f1a84828501610e5c565b91505092915050565b60008060408385031215610f3657600080fd5b6000610f4485828601610e5c565b9250506020610f5585828601610e5c565b9150509250929050565b600080600080600080600080600060e08a8c031215610f7d57600080fd5b6000610f8b8c828d01610e5c565b9950506020610f9c8c828d01610ed0565b9850506040610fad8c828d01610e5c565b97505060608a013567ffffffffffffffff811115610fca57600080fd5b610fd68c828d01610e86565b965096505060808a013567ffffffffffffffff811115610ff557600080fd5b6110018c828d01610e86565b945094505060a06110148c828d01610ed0565b92505060c06110258c828d01610ed0565b9150509295985092959850929598565b60006020828403121561104757600080fd5b600061105584828501610e71565b91505092915050565b60006020828403121561107057600080fd5b600061107e84828501610ee5565b91505092915050565b6000806040838503121561109a57600080fd5b60006110a885828601610ee5565b92505060206110b985828601610ee5565b9150509250929050565b6110cc81611416565b82525050565b60006110de8385611370565b93506110eb83858461145e565b82840190509392505050565b600061110460268361137b565b915061110f8261149c565b604082019050919050565b600061112760278361137b565b9150611132826114eb565b604082019050919050565b600061114a60208361137b565b91506111558261153a565b602082019050919050565b600061116d600d8361137b565b915061117882611563565b602082019050919050565b600061119060118361137b565b915061119b8261158c565b602082019050919050565b60006111b360128361137b565b91506111be826115b5565b602082019050919050565b6111d281611454565b82525050565b60006111e58284866110d2565b91508190509392505050565b600060208201905061120660008301846110c3565b92915050565b600060408201905061122160008301856110c3565b61122e60208301846110c3565b9392505050565b600060608201905061124a60008301866110c3565b61125760208301856110c3565b61126460408301846111c9565b949350505050565b600060408201905061128160008301856110c3565b61128e60208301846111c9565b9392505050565b600060208201905081810360008301526112ae816110f7565b9050919050565b600060208201905081810360008301526112ce8161111a565b9050919050565b600060208201905081810360008301526112ee8161113d565b9050919050565b6000602082019050818103600083015261130e81611160565b9050919050565b6000602082019050818103600083015261132e81611183565b9050919050565b6000602082019050818103600083015261134e816111a6565b9050919050565b600060208201905061136a60008301846111c9565b92915050565b600081905092915050565b600082825260208201905092915050565b600061139782611454565b91506113a283611454565b9250827fffffffffffffffffffffffffffffffffffffffffffffffffffffffffffffffff038211156113d7576113d661146d565b5b828201905092915050565b60006113ed82611454565b91506113f883611454565b92508282101561140b5761140a61146d565b5b828203905092915050565b600061142182611434565b9050919050565b60008115159050919050565b600073ffffffffffffffffffffffffffffffffffffffff82169050919050565b6000819050919050565b82818337600083830152505050565b7f4e487b7100000000000000000000000000000000000000000000000000000000600052601160045260246000fd5b7f4f776e61626c653a206e6577206f776e657220697320746865207a65726f206160008201527f6464726573730000000000000000000000000000000000000000000000000000602082015250565b7f52657475726e20416d6f756e74206973204c657373205468616e20496e70757460008201527f20416d6f756e7400000000000000000000000000000000000000000000000000602082015250565b7f4f776e61626c653a2063616c6c6572206973206e6f7420746865206f776e6572600082015250565b7f537761703a204558504952454400000000000000000000000000000000000000600082015250565b7f46697273742053776170204661696c6564000000000000000000000000000000600082015250565b7f5365636f6e642053776170204661696c65640000000000000000000000000000600082015250565b6115e781611416565b81146115f257600080fd5b50565b6115fe81611428565b811461160957600080fd5b50565b61161581611454565b811461162057600080fd5b5056fea26469706673582212206aa0abc16f361c50217950e5991b7190bd71a7249b05c121487622279a18623964736f6c63430008040033",
  "linkReferences": {},
  "deployedLinkReferences": {}
}